{
	"contracts/16_DatacapGatewayAxelar.sol": {
		"DatacapGatewayAxelar": {
			"abi": [
				{
					"inputs": [
						{
							"internalType": "address",
							"name": "initialOwner",
							"type": "address"
						},
						{
							"internalType": "address",
							"name": "axelarGateway",
							"type": "address"
						},
						{
							"internalType": "address",
							"name": "axelarGasService",
							"type": "address"
						},
						{
							"internalType": "string",
							"name": "destinationChain",
							"type": "string"
						},
						{
							"internalType": "string",
							"name": "destinationAddress",
							"type": "string"
						}
					],
					"stateMutability": "nonpayable",
					"type": "constructor"
				},
				{
					"inputs": [
						{
							"internalType": "address",
							"name": "owner",
							"type": "address"
						}
					],
					"name": "OwnableInvalidOwner",
					"type": "error"
				},
				{
					"inputs": [
						{
							"internalType": "address",
							"name": "account",
							"type": "address"
						}
					],
					"name": "OwnableUnauthorizedAccount",
					"type": "error"
				},
				{
					"inputs": [],
					"name": "StorageProviderEscrowFactoryUnset",
					"type": "error"
				},
				{
					"inputs": [
						{
							"internalType": "address",
							"name": "account",
							"type": "address"
						}
					],
					"name": "UnauthorizedAccount",
					"type": "error"
				},
				{
					"anonymous": false,
					"inputs": [
						{
							"indexed": true,
							"internalType": "address",
							"name": "previousOwner",
							"type": "address"
						},
						{
							"indexed": true,
							"internalType": "address",
							"name": "newOwner",
							"type": "address"
						}
					],
					"name": "OwnershipTransferred",
					"type": "event"
				},
				{
					"inputs": [],
					"name": "axelarGatewayAddr",
					"outputs": [
						{
							"internalType": "address",
							"name": "",
							"type": "address"
						}
					],
					"stateMutability": "view",
					"type": "function"
				},
				{
					"inputs": [],
					"name": "destAddr",
					"outputs": [
						{
							"internalType": "string",
							"name": "",
							"type": "string"
						}
					],
					"stateMutability": "view",
					"type": "function"
				},
				{
					"inputs": [],
					"name": "destChain",
					"outputs": [
						{
							"internalType": "string",
							"name": "",
							"type": "string"
						}
					],
					"stateMutability": "view",
					"type": "function"
				},
				{
					"inputs": [],
					"name": "gasService",
					"outputs": [
						{
							"internalType": "contract IAxelarGasService",
							"name": "",
							"type": "address"
						}
					],
					"stateMutability": "view",
					"type": "function"
				},
				{
					"inputs": [
						{
							"internalType": "bytes",
							"name": "clientFilecoinAddress",
							"type": "bytes"
						},
						{
							"internalType": "uint256",
							"name": "amount",
							"type": "uint256"
						}
					],
					"name": "grantDatacap",
					"outputs": [],
					"stateMutability": "payable",
					"type": "function"
				},
				{
					"inputs": [
						{
							"internalType": "address",
							"name": "clientFilecoinAddress",
							"type": "address"
						},
						{
							"internalType": "uint256",
							"name": "amount",
							"type": "uint256"
						}
					],
					"name": "grantDatacapMock",
					"outputs": [],
					"stateMutability": "payable",
					"type": "function"
				},
				{
					"inputs": [],
					"name": "hasAccess",
					"outputs": [
						{
							"internalType": "bool",
							"name": "",
							"type": "bool"
						}
					],
					"stateMutability": "view",
					"type": "function"
				},
				{
					"inputs": [],
					"name": "owner",
					"outputs": [
						{
							"internalType": "address",
							"name": "",
							"type": "address"
						}
					],
					"stateMutability": "view",
					"type": "function"
				},
				{
					"inputs": [],
					"name": "renounceOwnership",
					"outputs": [],
					"stateMutability": "nonpayable",
					"type": "function"
				},
				{
					"inputs": [
						{
							"internalType": "address",
							"name": "storageProviderEscrowFactoryAddress",
							"type": "address"
						}
					],
					"name": "setStorageProviderEscrowFactory",
					"outputs": [],
					"stateMutability": "nonpayable",
					"type": "function"
				},
				{
					"inputs": [],
					"name": "storageProviderEscrowFactoryAddr",
					"outputs": [
						{
							"internalType": "address",
							"name": "",
							"type": "address"
						}
					],
					"stateMutability": "view",
					"type": "function"
				},
				{
					"inputs": [
						{
							"internalType": "address",
							"name": "newOwner",
							"type": "address"
						}
					],
					"name": "transferOwnership",
					"outputs": [],
					"stateMutability": "nonpayable",
					"type": "function"
				},
				{
					"stateMutability": "payable",
					"type": "receive"
				}
			],
			"devdoc": {
				"errors": {
					"OwnableInvalidOwner(address)": [
						{
							"details": "The owner is not a valid owner account. (eg. `address(0)`)"
						}
					],
					"OwnableUnauthorizedAccount(address)": [
						{
							"details": "The caller account is not authorized to perform an operation."
						}
					]
				},
				"kind": "dev",
				"methods": {
					"owner()": {
						"details": "Returns the address of the current owner."
					},
					"renounceOwnership()": {
						"details": "Leaves the contract without owner. It will not be possible to call `onlyOwner` functions. Can only be called by the current owner. NOTE: Renouncing ownership will leave the contract without an owner, thereby disabling any functionality that is only available to the owner."
					},
					"transferOwnership(address)": {
						"details": "Transfers ownership of the contract to a new account (`newOwner`). Can only be called by the current owner."
					}
				},
				"version": 1
			},
			"evm": {
				"assembly": "    /* \"contracts/16_DatacapGatewayAxelar.sol\":635:2979  contract DatacapGatewayAxelar is Ownable, IDatacapGateway {... */\n  mstore(0x40, 0xa0)\n    /* \"contracts/16_DatacapGatewayAxelar.sol\":903:1305  constructor(... */\n  callvalue\n  dup1\n  iszero\n  tag_1\n  jumpi\n  0x00\n  dup1\n  revert\ntag_1:\n  pop\n  mload(0x40)\n  sub(codesize, bytecodeSize)\n  dup1\n  bytecodeSize\n  dup4\n  codecopy\n  dup2\n  dup2\n  add\n  0x40\n  mstore\n  dup2\n  add\n  swap1\n  tag_2\n  swap2\n  swap1\n  tag_3\n  jump\t// in\ntag_2:\n    /* \"contracts/16_DatacapGatewayAxelar.sol\":1106:1118  initialOwner */\n  dup5\n    /* \"@openzeppelin/contracts/access/Ownable.sol\":1297:1298  0 */\n  0x00\n    /* \"@openzeppelin/contracts/access/Ownable.sol\":1273:1299  initialOwner == address(0) */\n  0xffffffffffffffffffffffffffffffffffffffff\n  and\n    /* \"@openzeppelin/contracts/access/Ownable.sol\":1273:1285  initialOwner */\n  dup2\n    /* \"@openzeppelin/contracts/access/Ownable.sol\":1273:1299  initialOwner == address(0) */\n  0xffffffffffffffffffffffffffffffffffffffff\n  and\n  sub\n    /* \"@openzeppelin/contracts/access/Ownable.sol\":1269:1364  if (initialOwner == address(0)) {... */\n  tag_7\n  jumpi\n    /* \"@openzeppelin/contracts/access/Ownable.sol\":1350:1351  0 */\n  0x00\n    /* \"@openzeppelin/contracts/access/Ownable.sol\":1322:1353  OwnableInvalidOwner(address(0)) */\n  mload(0x40)\n  0x1e4fbdf700000000000000000000000000000000000000000000000000000000\n  dup2\n  mstore\n  0x04\n  add\n  tag_8\n  swap2\n  swap1\n  tag_9\n  jump\t// in\ntag_8:\n  mload(0x40)\n  dup1\n  swap2\n  sub\n  swap1\n  revert\n    /* \"@openzeppelin/contracts/access/Ownable.sol\":1269:1364  if (initialOwner == address(0)) {... */\ntag_7:\n    /* \"@openzeppelin/contracts/access/Ownable.sol\":1373:1405  _transferOwnership(initialOwner) */\n  tag_10\n    /* \"@openzeppelin/contracts/access/Ownable.sol\":1392:1404  initialOwner */\n  dup2\n    /* \"@openzeppelin/contracts/access/Ownable.sol\":1373:1391  _transferOwnership */\n  shl(0x20, tag_11)\n    /* \"@openzeppelin/contracts/access/Ownable.sol\":1373:1405  _transferOwnership(initialOwner) */\n  0x20\n  shr\n  jump\t// in\ntag_10:\n    /* \"@openzeppelin/contracts/access/Ownable.sol\":1225:1412  constructor(address initialOwner) {... */\n  pop\n    /* \"contracts/16_DatacapGatewayAxelar.sol\":1150:1163  axelarGateway */\n  dup4\n    /* \"contracts/16_DatacapGatewayAxelar.sol\":1130:1147  axelarGatewayAddr */\n  0x02\n  0x00\n    /* \"contracts/16_DatacapGatewayAxelar.sol\":1130:1163  axelarGatewayAddr = axelarGateway */\n  0x0100\n  exp\n  dup2\n  sload\n  dup2\n  0xffffffffffffffffffffffffffffffffffffffff\n  mul\n  not\n  and\n  swap1\n  dup4\n  0xffffffffffffffffffffffffffffffffffffffff\n  and\n  mul\n  or\n  swap1\n  sstore\n  pop\n    /* \"contracts/16_DatacapGatewayAxelar.sol\":1204:1220  axelarGasService */\n  dup3\n    /* \"contracts/16_DatacapGatewayAxelar.sol\":1173:1221  gasService = IAxelarGasService(axelarGasService) */\n  0xffffffffffffffffffffffffffffffffffffffff\n  and\n  0x80\n  dup2\n  0xffffffffffffffffffffffffffffffffffffffff\n  and\n  dup2\n  mstore\n  pop\n  pop\n    /* \"contracts/16_DatacapGatewayAxelar.sol\":1243:1259  destinationChain */\n  dup2\n    /* \"contracts/16_DatacapGatewayAxelar.sol\":1231:1240  destChain */\n  0x03\n    /* \"contracts/16_DatacapGatewayAxelar.sol\":1231:1259  destChain = destinationChain */\n  swap1\n  dup2\n  tag_13\n  swap2\n  swap1\n  tag_14\n  jump\t// in\ntag_13:\n  pop\n    /* \"contracts/16_DatacapGatewayAxelar.sol\":1280:1298  destinationAddress */\n  dup1\n    /* \"contracts/16_DatacapGatewayAxelar.sol\":1269:1277  destAddr */\n  0x04\n    /* \"contracts/16_DatacapGatewayAxelar.sol\":1269:1298  destAddr = destinationAddress */\n  swap1\n  dup2\n  tag_15\n  swap2\n  swap1\n  tag_14\n  jump\t// in\ntag_15:\n  pop\n    /* \"contracts/16_DatacapGatewayAxelar.sol\":903:1305  constructor(... */\n  pop\n  pop\n  pop\n  pop\n  pop\n    /* \"contracts/16_DatacapGatewayAxelar.sol\":635:2979  contract DatacapGatewayAxelar is Ownable, IDatacapGateway {... */\n  jump(tag_16)\n    /* \"@openzeppelin/contracts/access/Ownable.sol\":2912:3099  function _transferOwnership(address newOwner) internal virtual {... */\ntag_11:\n    /* \"@openzeppelin/contracts/access/Ownable.sol\":2985:3001  address oldOwner */\n  0x00\n    /* \"@openzeppelin/contracts/access/Ownable.sol\":3004:3010  _owner */\n  dup1\n  0x00\n  swap1\n  sload\n  swap1\n  0x0100\n  exp\n  swap1\n  div\n  0xffffffffffffffffffffffffffffffffffffffff\n  and\n    /* \"@openzeppelin/contracts/access/Ownable.sol\":2985:3010  address oldOwner = _owner */\n  swap1\n  pop\n    /* \"@openzeppelin/contracts/access/Ownable.sol\":3029:3037  newOwner */\n  dup2\n    /* \"@openzeppelin/contracts/access/Ownable.sol\":3020:3026  _owner */\n  0x00\n  dup1\n    /* \"@openzeppelin/contracts/access/Ownable.sol\":3020:3037  _owner = newOwner */\n  0x0100\n  exp\n  dup2\n  sload\n  dup2\n  0xffffffffffffffffffffffffffffffffffffffff\n  mul\n  not\n  and\n  swap1\n  dup4\n  0xffffffffffffffffffffffffffffffffffffffff\n  and\n  mul\n  or\n  swap1\n  sstore\n  pop\n    /* \"@openzeppelin/contracts/access/Ownable.sol\":3083:3091  newOwner */\n  dup2\n    /* \"@openzeppelin/contracts/access/Ownable.sol\":3052:3092  OwnershipTransferred(oldOwner, newOwner) */\n  0xffffffffffffffffffffffffffffffffffffffff\n  and\n    /* \"@openzeppelin/contracts/access/Ownable.sol\":3073:3081  oldOwner */\n  dup2\n    /* \"@openzeppelin/contracts/access/Ownable.sol\":3052:3092  OwnershipTransferred(oldOwner, newOwner) */\n  0xffffffffffffffffffffffffffffffffffffffff\n  and\n  0x8be0079c531659141344cd1fd0a4f28419497f9722a3daafe3b4186f6b6457e0\n  mload(0x40)\n  mload(0x40)\n  dup1\n  swap2\n  sub\n  swap1\n  log3\n    /* \"@openzeppelin/contracts/access/Ownable.sol\":2975:3099  {... */\n  pop\n    /* \"@openzeppelin/contracts/access/Ownable.sol\":2912:3099  function _transferOwnership(address newOwner) internal virtual {... */\n  pop\n  jump\t// out\n    /* \"#utility.yul\":7:82   */\ntag_18:\n    /* \"#utility.yul\":40:46   */\n  0x00\n    /* \"#utility.yul\":73:75   */\n  0x40\n    /* \"#utility.yul\":67:76   */\n  mload\n    /* \"#utility.yul\":57:76   */\n  swap1\n  pop\n    /* \"#utility.yul\":7:82   */\n  swap1\n  jump\t// out\n    /* \"#utility.yul\":88:205   */\ntag_19:\n    /* \"#utility.yul\":197:198   */\n  0x00\n    /* \"#utility.yul\":194:195   */\n  dup1\n    /* \"#utility.yul\":187:199   */\n  revert\n    /* \"#utility.yul\":211:328   */\ntag_20:\n    /* \"#utility.yul\":320:321   */\n  0x00\n    /* \"#utility.yul\":317:318   */\n  dup1\n    /* \"#utility.yul\":310:322   */\n  revert\n    /* \"#utility.yul\":334:460   */\ntag_21:\n    /* \"#utility.yul\":371:378   */\n  0x00\n    /* \"#utility.yul\":411:453   */\n  0xffffffffffffffffffffffffffffffffffffffff\n    /* \"#utility.yul\":404:409   */\n  dup3\n    /* \"#utility.yul\":400:454   */\n  and\n    /* \"#utility.yul\":389:454   */\n  swap1\n  pop\n    /* \"#utility.yul\":334:460   */\n  swap2\n  swap1\n  pop\n  jump\t// out\n    /* \"#utility.yul\":466:562   */\ntag_22:\n    /* \"#utility.yul\":503:510   */\n  0x00\n    /* \"#utility.yul\":532:556   */\n  tag_61\n    /* \"#utility.yul\":550:555   */\n  dup3\n    /* \"#utility.yul\":532:556   */\n  tag_21\n  jump\t// in\ntag_61:\n    /* \"#utility.yul\":521:556   */\n  swap1\n  pop\n    /* \"#utility.yul\":466:562   */\n  swap2\n  swap1\n  pop\n  jump\t// out\n    /* \"#utility.yul\":568:690   */\ntag_23:\n    /* \"#utility.yul\":641:665   */\n  tag_63\n    /* \"#utility.yul\":659:664   */\n  dup2\n    /* \"#utility.yul\":641:665   */\n  tag_22\n  jump\t// in\ntag_63:\n    /* \"#utility.yul\":634:639   */\n  dup2\n    /* \"#utility.yul\":631:666   */\n  eq\n    /* \"#utility.yul\":621:684   */\n  tag_64\n  jumpi\n    /* \"#utility.yul\":680:681   */\n  0x00\n    /* \"#utility.yul\":677:678   */\n  dup1\n    /* \"#utility.yul\":670:682   */\n  revert\n    /* \"#utility.yul\":621:684   */\ntag_64:\n    /* \"#utility.yul\":568:690   */\n  pop\n  jump\t// out\n    /* \"#utility.yul\":696:839   */\ntag_24:\n    /* \"#utility.yul\":753:758   */\n  0x00\n    /* \"#utility.yul\":784:790   */\n  dup2\n    /* \"#utility.yul\":778:791   */\n  mload\n    /* \"#utility.yul\":769:791   */\n  swap1\n  pop\n    /* \"#utility.yul\":800:833   */\n  tag_66\n    /* \"#utility.yul\":827:832   */\n  dup2\n    /* \"#utility.yul\":800:833   */\n  tag_23\n  jump\t// in\ntag_66:\n    /* \"#utility.yul\":696:839   */\n  swap3\n  swap2\n  pop\n  pop\n  jump\t// out\n    /* \"#utility.yul\":845:962   */\ntag_25:\n    /* \"#utility.yul\":954:955   */\n  0x00\n    /* \"#utility.yul\":951:952   */\n  dup1\n    /* \"#utility.yul\":944:956   */\n  revert\n    /* \"#utility.yul\":968:1085   */\ntag_26:\n    /* \"#utility.yul\":1077:1078   */\n  0x00\n    /* \"#utility.yul\":1074:1075   */\n  dup1\n    /* \"#utility.yul\":1067:1079   */\n  revert\n    /* \"#utility.yul\":1091:1193   */\ntag_27:\n    /* \"#utility.yul\":1132:1138   */\n  0x00\n    /* \"#utility.yul\":1183:1185   */\n  0x1f\n    /* \"#utility.yul\":1179:1186   */\n  not\n    /* \"#utility.yul\":1174:1176   */\n  0x1f\n    /* \"#utility.yul\":1167:1172   */\n  dup4\n    /* \"#utility.yul\":1163:1177   */\n  add\n    /* \"#utility.yul\":1159:1187   */\n  and\n    /* \"#utility.yul\":1149:1187   */\n  swap1\n  pop\n    /* \"#utility.yul\":1091:1193   */\n  swap2\n  swap1\n  pop\n  jump\t// out\n    /* \"#utility.yul\":1199:1379   */\ntag_28:\n    /* \"#utility.yul\":1247:1324   */\n  0x4e487b7100000000000000000000000000000000000000000000000000000000\n    /* \"#utility.yul\":1244:1245   */\n  0x00\n    /* \"#utility.yul\":1237:1325   */\n  mstore\n    /* \"#utility.yul\":1344:1348   */\n  0x41\n    /* \"#utility.yul\":1341:1342   */\n  0x04\n    /* \"#utility.yul\":1334:1349   */\n  mstore\n    /* \"#utility.yul\":1368:1372   */\n  0x24\n    /* \"#utility.yul\":1365:1366   */\n  0x00\n    /* \"#utility.yul\":1358:1373   */\n  revert\n    /* \"#utility.yul\":1385:1666   */\ntag_29:\n    /* \"#utility.yul\":1468:1495   */\n  tag_72\n    /* \"#utility.yul\":1490:1494   */\n  dup3\n    /* \"#utility.yul\":1468:1495   */\n  tag_27\n  jump\t// in\ntag_72:\n    /* \"#utility.yul\":1460:1466   */\n  dup2\n    /* \"#utility.yul\":1456:1496   */\n  add\n    /* \"#utility.yul\":1598:1604   */\n  dup2\n    /* \"#utility.yul\":1586:1596   */\n  dup2\n    /* \"#utility.yul\":1583:1605   */\n  lt\n    /* \"#utility.yul\":1562:1580   */\n  0xffffffffffffffff\n    /* \"#utility.yul\":1550:1560   */\n  dup3\n    /* \"#utility.yul\":1547:1581   */\n  gt\n    /* \"#utility.yul\":1544:1606   */\n  or\n    /* \"#utility.yul\":1541:1629   */\n  iszero\n  tag_73\n  jumpi\n    /* \"#utility.yul\":1609:1627   */\n  tag_74\n  tag_28\n  jump\t// in\ntag_74:\n    /* \"#utility.yul\":1541:1629   */\ntag_73:\n    /* \"#utility.yul\":1649:1659   */\n  dup1\n    /* \"#utility.yul\":1645:1647   */\n  0x40\n    /* \"#utility.yul\":1638:1660   */\n  mstore\n    /* \"#utility.yul\":1428:1666   */\n  pop\n    /* \"#utility.yul\":1385:1666   */\n  pop\n  pop\n  jump\t// out\n    /* \"#utility.yul\":1672:1801   */\ntag_30:\n    /* \"#utility.yul\":1706:1712   */\n  0x00\n    /* \"#utility.yul\":1733:1753   */\n  tag_76\n  tag_18\n  jump\t// in\ntag_76:\n    /* \"#utility.yul\":1723:1753   */\n  swap1\n  pop\n    /* \"#utility.yul\":1762:1795   */\n  tag_77\n    /* \"#utility.yul\":1790:1794   */\n  dup3\n    /* \"#utility.yul\":1782:1788   */\n  dup3\n    /* \"#utility.yul\":1762:1795   */\n  tag_29\n  jump\t// in\ntag_77:\n    /* \"#utility.yul\":1672:1801   */\n  swap2\n  swap1\n  pop\n  jump\t// out\n    /* \"#utility.yul\":1807:2115   */\ntag_31:\n    /* \"#utility.yul\":1869:1873   */\n  0x00\n    /* \"#utility.yul\":1959:1977   */\n  0xffffffffffffffff\n    /* \"#utility.yul\":1951:1957   */\n  dup3\n    /* \"#utility.yul\":1948:1978   */\n  gt\n    /* \"#utility.yul\":1945:2001   */\n  iszero\n  tag_79\n  jumpi\n    /* \"#utility.yul\":1981:1999   */\n  tag_80\n  tag_28\n  jump\t// in\ntag_80:\n    /* \"#utility.yul\":1945:2001   */\ntag_79:\n    /* \"#utility.yul\":2019:2048   */\n  tag_81\n    /* \"#utility.yul\":2041:2047   */\n  dup3\n    /* \"#utility.yul\":2019:2048   */\n  tag_27\n  jump\t// in\ntag_81:\n    /* \"#utility.yul\":2011:2048   */\n  swap1\n  pop\n    /* \"#utility.yul\":2103:2107   */\n  0x20\n    /* \"#utility.yul\":2097:2101   */\n  dup2\n    /* \"#utility.yul\":2093:2108   */\n  add\n    /* \"#utility.yul\":2085:2108   */\n  swap1\n  pop\n    /* \"#utility.yul\":1807:2115   */\n  swap2\n  swap1\n  pop\n  jump\t// out\n    /* \"#utility.yul\":2121:2260   */\ntag_32:\n    /* \"#utility.yul\":2210:2216   */\n  dup3\n    /* \"#utility.yul\":2205:2208   */\n  dup2\n    /* \"#utility.yul\":2200:2203   */\n  dup4\n    /* \"#utility.yul\":2194:2217   */\n  mcopy\n    /* \"#utility.yul\":2251:2252   */\n  0x00\n    /* \"#utility.yul\":2242:2248   */\n  dup4\n    /* \"#utility.yul\":2237:2240   */\n  dup4\n    /* \"#utility.yul\":2233:2249   */\n  add\n    /* \"#utility.yul\":2226:2253   */\n  mstore\n    /* \"#utility.yul\":2121:2260   */\n  pop\n  pop\n  pop\n  jump\t// out\n    /* \"#utility.yul\":2266:2700   */\ntag_33:\n    /* \"#utility.yul\":2355:2360   */\n  0x00\n    /* \"#utility.yul\":2380:2446   */\n  tag_84\n    /* \"#utility.yul\":2396:2445   */\n  tag_85\n    /* \"#utility.yul\":2438:2444   */\n  dup5\n    /* \"#utility.yul\":2396:2445   */\n  tag_31\n  jump\t// in\ntag_85:\n    /* \"#utility.yul\":2380:2446   */\n  tag_30\n  jump\t// in\ntag_84:\n    /* \"#utility.yul\":2371:2446   */\n  swap1\n  pop\n    /* \"#utility.yul\":2469:2475   */\n  dup3\n    /* \"#utility.yul\":2462:2467   */\n  dup2\n    /* \"#utility.yul\":2455:2476   */\n  mstore\n    /* \"#utility.yul\":2507:2511   */\n  0x20\n    /* \"#utility.yul\":2500:2505   */\n  dup2\n    /* \"#utility.yul\":2496:2512   */\n  add\n    /* \"#utility.yul\":2545:2548   */\n  dup5\n    /* \"#utility.yul\":2536:2542   */\n  dup5\n    /* \"#utility.yul\":2531:2534   */\n  dup5\n    /* \"#utility.yul\":2527:2543   */\n  add\n    /* \"#utility.yul\":2524:2549   */\n  gt\n    /* \"#utility.yul\":2521:2633   */\n  iszero\n  tag_86\n  jumpi\n    /* \"#utility.yul\":2552:2631   */\n  tag_87\n  tag_26\n  jump\t// in\ntag_87:\n    /* \"#utility.yul\":2521:2633   */\ntag_86:\n    /* \"#utility.yul\":2642:2694   */\n  tag_88\n    /* \"#utility.yul\":2687:2693   */\n  dup5\n    /* \"#utility.yul\":2682:2685   */\n  dup3\n    /* \"#utility.yul\":2677:2680   */\n  dup6\n    /* \"#utility.yul\":2642:2694   */\n  tag_32\n  jump\t// in\ntag_88:\n    /* \"#utility.yul\":2361:2700   */\n  pop\n    /* \"#utility.yul\":2266:2700   */\n  swap4\n  swap3\n  pop\n  pop\n  pop\n  jump\t// out\n    /* \"#utility.yul\":2720:3075   */\ntag_34:\n    /* \"#utility.yul\":2787:2792   */\n  0x00\n    /* \"#utility.yul\":2836:2839   */\n  dup3\n    /* \"#utility.yul\":2829:2833   */\n  0x1f\n    /* \"#utility.yul\":2821:2827   */\n  dup4\n    /* \"#utility.yul\":2817:2834   */\n  add\n    /* \"#utility.yul\":2813:2840   */\n  slt\n    /* \"#utility.yul\":2803:2925   */\n  tag_90\n  jumpi\n    /* \"#utility.yul\":2844:2923   */\n  tag_91\n  tag_25\n  jump\t// in\ntag_91:\n    /* \"#utility.yul\":2803:2925   */\ntag_90:\n    /* \"#utility.yul\":2954:2960   */\n  dup2\n    /* \"#utility.yul\":2948:2961   */\n  mload\n    /* \"#utility.yul\":2979:3069   */\n  tag_92\n    /* \"#utility.yul\":3065:3068   */\n  dup5\n    /* \"#utility.yul\":3057:3063   */\n  dup3\n    /* \"#utility.yul\":3050:3054   */\n  0x20\n    /* \"#utility.yul\":3042:3048   */\n  dup7\n    /* \"#utility.yul\":3038:3055   */\n  add\n    /* \"#utility.yul\":2979:3069   */\n  tag_33\n  jump\t// in\ntag_92:\n    /* \"#utility.yul\":2970:3069   */\n  swap2\n  pop\n    /* \"#utility.yul\":2793:3075   */\n  pop\n    /* \"#utility.yul\":2720:3075   */\n  swap3\n  swap2\n  pop\n  pop\n  jump\t// out\n    /* \"#utility.yul\":3081:4404   */\ntag_3:\n    /* \"#utility.yul\":3207:3213   */\n  0x00\n    /* \"#utility.yul\":3215:3221   */\n  dup1\n    /* \"#utility.yul\":3223:3229   */\n  0x00\n    /* \"#utility.yul\":3231:3237   */\n  dup1\n    /* \"#utility.yul\":3239:3245   */\n  0x00\n    /* \"#utility.yul\":3288:3291   */\n  0xa0\n    /* \"#utility.yul\":3276:3285   */\n  dup7\n    /* \"#utility.yul\":3267:3274   */\n  dup9\n    /* \"#utility.yul\":3263:3286   */\n  sub\n    /* \"#utility.yul\":3259:3292   */\n  slt\n    /* \"#utility.yul\":3256:3376   */\n  iszero\n  tag_94\n  jumpi\n    /* \"#utility.yul\":3295:3374   */\n  tag_95\n  tag_19\n  jump\t// in\ntag_95:\n    /* \"#utility.yul\":3256:3376   */\ntag_94:\n    /* \"#utility.yul\":3415:3416   */\n  0x00\n    /* \"#utility.yul\":3440:3504   */\n  tag_96\n    /* \"#utility.yul\":3496:3503   */\n  dup9\n    /* \"#utility.yul\":3487:3493   */\n  dup3\n    /* \"#utility.yul\":3476:3485   */\n  dup10\n    /* \"#utility.yul\":3472:3494   */\n  add\n    /* \"#utility.yul\":3440:3504   */\n  tag_24\n  jump\t// in\ntag_96:\n    /* \"#utility.yul\":3430:3504   */\n  swap6\n  pop\n    /* \"#utility.yul\":3386:3514   */\n  pop\n    /* \"#utility.yul\":3553:3555   */\n  0x20\n    /* \"#utility.yul\":3579:3643   */\n  tag_97\n    /* \"#utility.yul\":3635:3642   */\n  dup9\n    /* \"#utility.yul\":3626:3632   */\n  dup3\n    /* \"#utility.yul\":3615:3624   */\n  dup10\n    /* \"#utility.yul\":3611:3633   */\n  add\n    /* \"#utility.yul\":3579:3643   */\n  tag_24\n  jump\t// in\ntag_97:\n    /* \"#utility.yul\":3569:3643   */\n  swap5\n  pop\n    /* \"#utility.yul\":3524:3653   */\n  pop\n    /* \"#utility.yul\":3692:3694   */\n  0x40\n    /* \"#utility.yul\":3718:3782   */\n  tag_98\n    /* \"#utility.yul\":3774:3781   */\n  dup9\n    /* \"#utility.yul\":3765:3771   */\n  dup3\n    /* \"#utility.yul\":3754:3763   */\n  dup10\n    /* \"#utility.yul\":3750:3772   */\n  add\n    /* \"#utility.yul\":3718:3782   */\n  tag_24\n  jump\t// in\ntag_98:\n    /* \"#utility.yul\":3708:3782   */\n  swap4\n  pop\n    /* \"#utility.yul\":3663:3792   */\n  pop\n    /* \"#utility.yul\":3852:3854   */\n  0x60\n    /* \"#utility.yul\":3841:3850   */\n  dup7\n    /* \"#utility.yul\":3837:3855   */\n  add\n    /* \"#utility.yul\":3831:3856   */\n  mload\n    /* \"#utility.yul\":3883:3901   */\n  0xffffffffffffffff\n    /* \"#utility.yul\":3875:3881   */\n  dup2\n    /* \"#utility.yul\":3872:3902   */\n  gt\n    /* \"#utility.yul\":3869:3986   */\n  iszero\n  tag_99\n  jumpi\n    /* \"#utility.yul\":3905:3984   */\n  tag_100\n  tag_20\n  jump\t// in\ntag_100:\n    /* \"#utility.yul\":3869:3986   */\ntag_99:\n    /* \"#utility.yul\":4010:4084   */\n  tag_101\n    /* \"#utility.yul\":4076:4083   */\n  dup9\n    /* \"#utility.yul\":4067:4073   */\n  dup3\n    /* \"#utility.yul\":4056:4065   */\n  dup10\n    /* \"#utility.yul\":4052:4074   */\n  add\n    /* \"#utility.yul\":4010:4084   */\n  tag_34\n  jump\t// in\ntag_101:\n    /* \"#utility.yul\":4000:4084   */\n  swap3\n  pop\n    /* \"#utility.yul\":3802:4094   */\n  pop\n    /* \"#utility.yul\":4154:4157   */\n  0x80\n    /* \"#utility.yul\":4143:4152   */\n  dup7\n    /* \"#utility.yul\":4139:4158   */\n  add\n    /* \"#utility.yul\":4133:4159   */\n  mload\n    /* \"#utility.yul\":4186:4204   */\n  0xffffffffffffffff\n    /* \"#utility.yul\":4178:4184   */\n  dup2\n    /* \"#utility.yul\":4175:4205   */\n  gt\n    /* \"#utility.yul\":4172:4289   */\n  iszero\n  tag_102\n  jumpi\n    /* \"#utility.yul\":4208:4287   */\n  tag_103\n  tag_20\n  jump\t// in\ntag_103:\n    /* \"#utility.yul\":4172:4289   */\ntag_102:\n    /* \"#utility.yul\":4313:4387   */\n  tag_104\n    /* \"#utility.yul\":4379:4386   */\n  dup9\n    /* \"#utility.yul\":4370:4376   */\n  dup3\n    /* \"#utility.yul\":4359:4368   */\n  dup10\n    /* \"#utility.yul\":4355:4377   */\n  add\n    /* \"#utility.yul\":4313:4387   */\n  tag_34\n  jump\t// in\ntag_104:\n    /* \"#utility.yul\":4303:4387   */\n  swap2\n  pop\n    /* \"#utility.yul\":4104:4397   */\n  pop\n    /* \"#utility.yul\":3081:4404   */\n  swap3\n  swap6\n  pop\n  swap3\n  swap6\n  swap1\n  swap4\n  pop\n  jump\t// out\n    /* \"#utility.yul\":4410:4528   */\ntag_35:\n    /* \"#utility.yul\":4497:4521   */\n  tag_106\n    /* \"#utility.yul\":4515:4520   */\n  dup2\n    /* \"#utility.yul\":4497:4521   */\n  tag_22\n  jump\t// in\ntag_106:\n    /* \"#utility.yul\":4492:4495   */\n  dup3\n    /* \"#utility.yul\":4485:4522   */\n  mstore\n    /* \"#utility.yul\":4410:4528   */\n  pop\n  pop\n  jump\t// out\n    /* \"#utility.yul\":4534:4756   */\ntag_9:\n    /* \"#utility.yul\":4627:4631   */\n  0x00\n    /* \"#utility.yul\":4665:4667   */\n  0x20\n    /* \"#utility.yul\":4654:4663   */\n  dup3\n    /* \"#utility.yul\":4650:4668   */\n  add\n    /* \"#utility.yul\":4642:4668   */\n  swap1\n  pop\n    /* \"#utility.yul\":4678:4749   */\n  tag_108\n    /* \"#utility.yul\":4746:4747   */\n  0x00\n    /* \"#utility.yul\":4735:4744   */\n  dup4\n    /* \"#utility.yul\":4731:4748   */\n  add\n    /* \"#utility.yul\":4722:4728   */\n  dup5\n    /* \"#utility.yul\":4678:4749   */\n  tag_35\n  jump\t// in\ntag_108:\n    /* \"#utility.yul\":4534:4756   */\n  swap3\n  swap2\n  pop\n  pop\n  jump\t// out\n    /* \"#utility.yul\":4762:4861   */\ntag_36:\n    /* \"#utility.yul\":4814:4820   */\n  0x00\n    /* \"#utility.yul\":4848:4853   */\n  dup2\n    /* \"#utility.yul\":4842:4854   */\n  mload\n    /* \"#utility.yul\":4832:4854   */\n  swap1\n  pop\n    /* \"#utility.yul\":4762:4861   */\n  swap2\n  swap1\n  pop\n  jump\t// out\n    /* \"#utility.yul\":4867:5047   */\ntag_37:\n    /* \"#utility.yul\":4915:4992   */\n  0x4e487b7100000000000000000000000000000000000000000000000000000000\n    /* \"#utility.yul\":4912:4913   */\n  0x00\n    /* \"#utility.yul\":4905:4993   */\n  mstore\n    /* \"#utility.yul\":5012:5016   */\n  0x22\n    /* \"#utility.yul\":5009:5010   */\n  0x04\n    /* \"#utility.yul\":5002:5017   */\n  mstore\n    /* \"#utility.yul\":5036:5040   */\n  0x24\n    /* \"#utility.yul\":5033:5034   */\n  0x00\n    /* \"#utility.yul\":5026:5041   */\n  revert\n    /* \"#utility.yul\":5053:5373   */\ntag_38:\n    /* \"#utility.yul\":5097:5103   */\n  0x00\n    /* \"#utility.yul\":5134:5135   */\n  0x02\n    /* \"#utility.yul\":5128:5132   */\n  dup3\n    /* \"#utility.yul\":5124:5136   */\n  div\n    /* \"#utility.yul\":5114:5136   */\n  swap1\n  pop\n    /* \"#utility.yul\":5181:5182   */\n  0x01\n    /* \"#utility.yul\":5175:5179   */\n  dup3\n    /* \"#utility.yul\":5171:5183   */\n  and\n    /* \"#utility.yul\":5202:5220   */\n  dup1\n    /* \"#utility.yul\":5192:5273   */\n  tag_112\n  jumpi\n    /* \"#utility.yul\":5258:5262   */\n  0x7f\n    /* \"#utility.yul\":5250:5256   */\n  dup3\n    /* \"#utility.yul\":5246:5263   */\n  and\n    /* \"#utility.yul\":5236:5263   */\n  swap2\n  pop\n    /* \"#utility.yul\":5192:5273   */\ntag_112:\n    /* \"#utility.yul\":5320:5322   */\n  0x20\n    /* \"#utility.yul\":5312:5318   */\n  dup3\n    /* \"#utility.yul\":5309:5323   */\n  lt\n    /* \"#utility.yul\":5289:5307   */\n  dup2\n    /* \"#utility.yul\":5286:5324   */\n  sub\n    /* \"#utility.yul\":5283:5367   */\n  tag_113\n  jumpi\n    /* \"#utility.yul\":5339:5357   */\n  tag_114\n  tag_37\n  jump\t// in\ntag_114:\n    /* \"#utility.yul\":5283:5367   */\ntag_113:\n    /* \"#utility.yul\":5104:5373   */\n  pop\n    /* \"#utility.yul\":5053:5373   */\n  swap2\n  swap1\n  pop\n  jump\t// out\n    /* \"#utility.yul\":5379:5520   */\ntag_39:\n    /* \"#utility.yul\":5428:5432   */\n  0x00\n    /* \"#utility.yul\":5451:5454   */\n  dup2\n    /* \"#utility.yul\":5443:5454   */\n  swap1\n  pop\n    /* \"#utility.yul\":5474:5477   */\n  dup2\n    /* \"#utility.yul\":5471:5472   */\n  0x00\n    /* \"#utility.yul\":5464:5478   */\n  mstore\n    /* \"#utility.yul\":5508:5512   */\n  0x20\n    /* \"#utility.yul\":5505:5506   */\n  0x00\n    /* \"#utility.yul\":5495:5513   */\n  keccak256\n    /* \"#utility.yul\":5487:5513   */\n  swap1\n  pop\n    /* \"#utility.yul\":5379:5520   */\n  swap2\n  swap1\n  pop\n  jump\t// out\n    /* \"#utility.yul\":5526:5619   */\ntag_40:\n    /* \"#utility.yul\":5563:5569   */\n  0x00\n    /* \"#utility.yul\":5610:5612   */\n  0x20\n    /* \"#utility.yul\":5605:5607   */\n  0x1f\n    /* \"#utility.yul\":5598:5603   */\n  dup4\n    /* \"#utility.yul\":5594:5608   */\n  add\n    /* \"#utility.yul\":5590:5613   */\n  div\n    /* \"#utility.yul\":5580:5613   */\n  swap1\n  pop\n    /* \"#utility.yul\":5526:5619   */\n  swap2\n  swap1\n  pop\n  jump\t// out\n    /* \"#utility.yul\":5625:5732   */\ntag_41:\n    /* \"#utility.yul\":5669:5677   */\n  0x00\n    /* \"#utility.yul\":5719:5724   */\n  dup3\n    /* \"#utility.yul\":5713:5717   */\n  dup3\n    /* \"#utility.yul\":5709:5725   */\n  shl\n    /* \"#utility.yul\":5688:5725   */\n  swap1\n  pop\n    /* \"#utility.yul\":5625:5732   */\n  swap3\n  swap2\n  pop\n  pop\n  jump\t// out\n    /* \"#utility.yul\":5738:6131   */\ntag_42:\n    /* \"#utility.yul\":5807:5813   */\n  0x00\n    /* \"#utility.yul\":5857:5858   */\n  0x08\n    /* \"#utility.yul\":5845:5855   */\n  dup4\n    /* \"#utility.yul\":5841:5859   */\n  mul\n    /* \"#utility.yul\":5880:5977   */\n  tag_119\n    /* \"#utility.yul\":5910:5976   */\n  0xffffffffffffffffffffffffffffffffffffffffffffffffffffffffffffffff\n    /* \"#utility.yul\":5899:5908   */\n  dup3\n    /* \"#utility.yul\":5880:5977   */\n  tag_41\n  jump\t// in\ntag_119:\n    /* \"#utility.yul\":5998:6037   */\n  tag_120\n    /* \"#utility.yul\":6028:6036   */\n  dup7\n    /* \"#utility.yul\":6017:6026   */\n  dup4\n    /* \"#utility.yul\":5998:6037   */\n  tag_41\n  jump\t// in\ntag_120:\n    /* \"#utility.yul\":5986:6037   */\n  swap6\n  pop\n    /* \"#utility.yul\":6070:6074   */\n  dup1\n    /* \"#utility.yul\":6066:6075   */\n  not\n    /* \"#utility.yul\":6059:6064   */\n  dup5\n    /* \"#utility.yul\":6055:6076   */\n  and\n    /* \"#utility.yul\":6046:6076   */\n  swap4\n  pop\n    /* \"#utility.yul\":6119:6123   */\n  dup1\n    /* \"#utility.yul\":6109:6117   */\n  dup7\n    /* \"#utility.yul\":6105:6124   */\n  and\n    /* \"#utility.yul\":6098:6103   */\n  dup5\n    /* \"#utility.yul\":6095:6125   */\n  or\n    /* \"#utility.yul\":6085:6125   */\n  swap3\n  pop\n    /* \"#utility.yul\":5814:6131   */\n  pop\n  pop\n    /* \"#utility.yul\":5738:6131   */\n  swap4\n  swap3\n  pop\n  pop\n  pop\n  jump\t// out\n    /* \"#utility.yul\":6137:6214   */\ntag_43:\n    /* \"#utility.yul\":6174:6181   */\n  0x00\n    /* \"#utility.yul\":6203:6208   */\n  dup2\n    /* \"#utility.yul\":6192:6208   */\n  swap1\n  pop\n    /* \"#utility.yul\":6137:6214   */\n  swap2\n  swap1\n  pop\n  jump\t// out\n    /* \"#utility.yul\":6220:6280   */\ntag_44:\n    /* \"#utility.yul\":6248:6251   */\n  0x00\n    /* \"#utility.yul\":6269:6274   */\n  dup2\n    /* \"#utility.yul\":6262:6274   */\n  swap1\n  pop\n    /* \"#utility.yul\":6220:6280   */\n  swap2\n  swap1\n  pop\n  jump\t// out\n    /* \"#utility.yul\":6286:6428   */\ntag_45:\n    /* \"#utility.yul\":6336:6345   */\n  0x00\n    /* \"#utility.yul\":6369:6422   */\n  tag_124\n    /* \"#utility.yul\":6387:6421   */\n  tag_125\n    /* \"#utility.yul\":6396:6420   */\n  tag_126\n    /* \"#utility.yul\":6414:6419   */\n  dup5\n    /* \"#utility.yul\":6396:6420   */\n  tag_43\n  jump\t// in\ntag_126:\n    /* \"#utility.yul\":6387:6421   */\n  tag_44\n  jump\t// in\ntag_125:\n    /* \"#utility.yul\":6369:6422   */\n  tag_43\n  jump\t// in\ntag_124:\n    /* \"#utility.yul\":6356:6422   */\n  swap1\n  pop\n    /* \"#utility.yul\":6286:6428   */\n  swap2\n  swap1\n  pop\n  jump\t// out\n    /* \"#utility.yul\":6434:6509   */\ntag_46:\n    /* \"#utility.yul\":6477:6480   */\n  0x00\n    /* \"#utility.yul\":6498:6503   */\n  dup2\n    /* \"#utility.yul\":6491:6503   */\n  swap1\n  pop\n    /* \"#utility.yul\":6434:6509   */\n  swap2\n  swap1\n  pop\n  jump\t// out\n    /* \"#utility.yul\":6515:6784   */\ntag_47:\n    /* \"#utility.yul\":6625:6664   */\n  tag_129\n    /* \"#utility.yul\":6656:6663   */\n  dup4\n    /* \"#utility.yul\":6625:6664   */\n  tag_45\n  jump\t// in\ntag_129:\n    /* \"#utility.yul\":6686:6777   */\n  tag_130\n    /* \"#utility.yul\":6735:6776   */\n  tag_131\n    /* \"#utility.yul\":6759:6775   */\n  dup3\n    /* \"#utility.yul\":6735:6776   */\n  tag_46\n  jump\t// in\ntag_131:\n    /* \"#utility.yul\":6727:6733   */\n  dup5\n    /* \"#utility.yul\":6720:6724   */\n  dup5\n    /* \"#utility.yul\":6714:6725   */\n  sload\n    /* \"#utility.yul\":6686:6777   */\n  tag_42\n  jump\t// in\ntag_130:\n    /* \"#utility.yul\":6680:6684   */\n  dup3\n    /* \"#utility.yul\":6673:6778   */\n  sstore\n    /* \"#utility.yul\":6591:6784   */\n  pop\n    /* \"#utility.yul\":6515:6784   */\n  pop\n  pop\n  pop\n  jump\t// out\n    /* \"#utility.yul\":6790:6863   */\ntag_48:\n    /* \"#utility.yul\":6835:6838   */\n  0x00\n    /* \"#utility.yul\":6790:6863   */\n  swap1\n  jump\t// out\n    /* \"#utility.yul\":6869:7058   */\ntag_49:\n    /* \"#utility.yul\":6946:6978   */\n  tag_134\n  tag_48\n  jump\t// in\ntag_134:\n    /* \"#utility.yul\":6987:7052   */\n  tag_135\n    /* \"#utility.yul\":7045:7051   */\n  dup2\n    /* \"#utility.yul\":7037:7043   */\n  dup5\n    /* \"#utility.yul\":7031:7035   */\n  dup5\n    /* \"#utility.yul\":6987:7052   */\n  tag_47\n  jump\t// in\ntag_135:\n    /* \"#utility.yul\":6922:7058   */\n  pop\n    /* \"#utility.yul\":6869:7058   */\n  pop\n  pop\n  jump\t// out\n    /* \"#utility.yul\":7064:7250   */\ntag_50:\n    /* \"#utility.yul\":7124:7244   */\ntag_137:\n    /* \"#utility.yul\":7141:7144   */\n  dup2\n    /* \"#utility.yul\":7134:7139   */\n  dup2\n    /* \"#utility.yul\":7131:7145   */\n  lt\n    /* \"#utility.yul\":7124:7244   */\n  iszero\n  tag_139\n  jumpi\n    /* \"#utility.yul\":7195:7234   */\n  tag_140\n    /* \"#utility.yul\":7232:7233   */\n  0x00\n    /* \"#utility.yul\":7225:7230   */\n  dup3\n    /* \"#utility.yul\":7195:7234   */\n  tag_49\n  jump\t// in\ntag_140:\n    /* \"#utility.yul\":7168:7169   */\n  0x01\n    /* \"#utility.yul\":7161:7166   */\n  dup2\n    /* \"#utility.yul\":7157:7170   */\n  add\n    /* \"#utility.yul\":7148:7170   */\n  swap1\n  pop\n    /* \"#utility.yul\":7124:7244   */\n  jump(tag_137)\ntag_139:\n    /* \"#utility.yul\":7064:7250   */\n  pop\n  pop\n  jump\t// out\n    /* \"#utility.yul\":7256:7799   */\ntag_51:\n    /* \"#utility.yul\":7357:7359   */\n  0x1f\n    /* \"#utility.yul\":7352:7355   */\n  dup3\n    /* \"#utility.yul\":7349:7360   */\n  gt\n    /* \"#utility.yul\":7346:7792   */\n  iszero\n  tag_142\n  jumpi\n    /* \"#utility.yul\":7391:7429   */\n  tag_143\n    /* \"#utility.yul\":7423:7428   */\n  dup2\n    /* \"#utility.yul\":7391:7429   */\n  tag_39\n  jump\t// in\ntag_143:\n    /* \"#utility.yul\":7475:7504   */\n  tag_144\n    /* \"#utility.yul\":7493:7503   */\n  dup5\n    /* \"#utility.yul\":7475:7504   */\n  tag_40\n  jump\t// in\ntag_144:\n    /* \"#utility.yul\":7465:7473   */\n  dup2\n    /* \"#utility.yul\":7461:7505   */\n  add\n    /* \"#utility.yul\":7658:7660   */\n  0x20\n    /* \"#utility.yul\":7646:7656   */\n  dup6\n    /* \"#utility.yul\":7643:7661   */\n  lt\n    /* \"#utility.yul\":7640:7689   */\n  iszero\n  tag_145\n  jumpi\n    /* \"#utility.yul\":7679:7687   */\n  dup2\n    /* \"#utility.yul\":7664:7687   */\n  swap1\n  pop\n    /* \"#utility.yul\":7640:7689   */\ntag_145:\n    /* \"#utility.yul\":7702:7782   */\n  tag_146\n    /* \"#utility.yul\":7758:7780   */\n  tag_147\n    /* \"#utility.yul\":7776:7779   */\n  dup6\n    /* \"#utility.yul\":7758:7780   */\n  tag_40\n  jump\t// in\ntag_147:\n    /* \"#utility.yul\":7748:7756   */\n  dup4\n    /* \"#utility.yul\":7744:7781   */\n  add\n    /* \"#utility.yul\":7731:7742   */\n  dup3\n    /* \"#utility.yul\":7702:7782   */\n  tag_50\n  jump\t// in\ntag_146:\n    /* \"#utility.yul\":7361:7792   */\n  pop\n  pop\n    /* \"#utility.yul\":7346:7792   */\ntag_142:\n    /* \"#utility.yul\":7256:7799   */\n  pop\n  pop\n  pop\n  jump\t// out\n    /* \"#utility.yul\":7805:7922   */\ntag_52:\n    /* \"#utility.yul\":7859:7867   */\n  0x00\n    /* \"#utility.yul\":7909:7914   */\n  dup3\n    /* \"#utility.yul\":7903:7907   */\n  dup3\n    /* \"#utility.yul\":7899:7915   */\n  shr\n    /* \"#utility.yul\":7878:7915   */\n  swap1\n  pop\n    /* \"#utility.yul\":7805:7922   */\n  swap3\n  swap2\n  pop\n  pop\n  jump\t// out\n    /* \"#utility.yul\":7928:8097   */\ntag_53:\n    /* \"#utility.yul\":7972:7978   */\n  0x00\n    /* \"#utility.yul\":8005:8056   */\n  tag_150\n    /* \"#utility.yul\":8053:8054   */\n  0x00\n    /* \"#utility.yul\":8049:8055   */\n  not\n    /* \"#utility.yul\":8041:8046   */\n  dup5\n    /* \"#utility.yul\":8038:8039   */\n  0x08\n    /* \"#utility.yul\":8034:8047   */\n  mul\n    /* \"#utility.yul\":8005:8056   */\n  tag_52\n  jump\t// in\ntag_150:\n    /* \"#utility.yul\":8001:8057   */\n  not\n    /* \"#utility.yul\":8086:8090   */\n  dup1\n    /* \"#utility.yul\":8080:8084   */\n  dup4\n    /* \"#utility.yul\":8076:8091   */\n  and\n    /* \"#utility.yul\":8066:8091   */\n  swap2\n  pop\n    /* \"#utility.yul\":7979:8097   */\n  pop\n    /* \"#utility.yul\":7928:8097   */\n  swap3\n  swap2\n  pop\n  pop\n  jump\t// out\n    /* \"#utility.yul\":8102:8397   */\ntag_54:\n    /* \"#utility.yul\":8178:8182   */\n  0x00\n    /* \"#utility.yul\":8324:8353   */\n  tag_152\n    /* \"#utility.yul\":8349:8352   */\n  dup4\n    /* \"#utility.yul\":8343:8347   */\n  dup4\n    /* \"#utility.yul\":8324:8353   */\n  tag_53\n  jump\t// in\ntag_152:\n    /* \"#utility.yul\":8316:8353   */\n  swap2\n  pop\n    /* \"#utility.yul\":8386:8389   */\n  dup3\n    /* \"#utility.yul\":8383:8384   */\n  0x02\n    /* \"#utility.yul\":8379:8390   */\n  mul\n    /* \"#utility.yul\":8373:8377   */\n  dup3\n    /* \"#utility.yul\":8370:8391   */\n  or\n    /* \"#utility.yul\":8362:8391   */\n  swap1\n  pop\n    /* \"#utility.yul\":8102:8397   */\n  swap3\n  swap2\n  pop\n  pop\n  jump\t// out\n    /* \"#utility.yul\":8402:9797   */\ntag_14:\n    /* \"#utility.yul\":8519:8556   */\n  tag_154\n    /* \"#utility.yul\":8552:8555   */\n  dup3\n    /* \"#utility.yul\":8519:8556   */\n  tag_36\n  jump\t// in\ntag_154:\n    /* \"#utility.yul\":8621:8639   */\n  0xffffffffffffffff\n    /* \"#utility.yul\":8613:8619   */\n  dup2\n    /* \"#utility.yul\":8610:8640   */\n  gt\n    /* \"#utility.yul\":8607:8663   */\n  iszero\n  tag_155\n  jumpi\n    /* \"#utility.yul\":8643:8661   */\n  tag_156\n  tag_28\n  jump\t// in\ntag_156:\n    /* \"#utility.yul\":8607:8663   */\ntag_155:\n    /* \"#utility.yul\":8687:8725   */\n  tag_157\n    /* \"#utility.yul\":8719:8723   */\n  dup3\n    /* \"#utility.yul\":8713:8724   */\n  sload\n    /* \"#utility.yul\":8687:8725   */\n  tag_38\n  jump\t// in\ntag_157:\n    /* \"#utility.yul\":8772:8839   */\n  tag_158\n    /* \"#utility.yul\":8832:8838   */\n  dup3\n    /* \"#utility.yul\":8824:8830   */\n  dup3\n    /* \"#utility.yul\":8818:8822   */\n  dup6\n    /* \"#utility.yul\":8772:8839   */\n  tag_51\n  jump\t// in\ntag_158:\n    /* \"#utility.yul\":8866:8867   */\n  0x00\n    /* \"#utility.yul\":8890:8894   */\n  0x20\n    /* \"#utility.yul\":8877:8894   */\n  swap1\n  pop\n    /* \"#utility.yul\":8922:8924   */\n  0x1f\n    /* \"#utility.yul\":8914:8920   */\n  dup4\n    /* \"#utility.yul\":8911:8925   */\n  gt\n    /* \"#utility.yul\":8939:8940   */\n  0x01\n    /* \"#utility.yul\":8934:9552   */\n  dup2\n  eq\n  tag_160\n  jumpi\n    /* \"#utility.yul\":9596:9597   */\n  0x00\n    /* \"#utility.yul\":9613:9619   */\n  dup5\n    /* \"#utility.yul\":9610:9687   */\n  iszero\n  tag_161\n  jumpi\n    /* \"#utility.yul\":9662:9671   */\n  dup3\n    /* \"#utility.yul\":9657:9660   */\n  dup8\n    /* \"#utility.yul\":9653:9672   */\n  add\n    /* \"#utility.yul\":9647:9673   */\n  mload\n    /* \"#utility.yul\":9638:9673   */\n  swap1\n  pop\n    /* \"#utility.yul\":9610:9687   */\ntag_161:\n    /* \"#utility.yul\":9713:9780   */\n  tag_162\n    /* \"#utility.yul\":9773:9779   */\n  dup6\n    /* \"#utility.yul\":9766:9771   */\n  dup3\n    /* \"#utility.yul\":9713:9780   */\n  tag_54\n  jump\t// in\ntag_162:\n    /* \"#utility.yul\":9707:9711   */\n  dup7\n    /* \"#utility.yul\":9700:9781   */\n  sstore\n    /* \"#utility.yul\":9569:9791   */\n  pop\n    /* \"#utility.yul\":8904:9791   */\n  jump(tag_159)\n    /* \"#utility.yul\":8934:9552   */\ntag_160:\n    /* \"#utility.yul\":8986:8990   */\n  0x1f\n    /* \"#utility.yul\":8982:8991   */\n  not\n    /* \"#utility.yul\":8974:8980   */\n  dup5\n    /* \"#utility.yul\":8970:8992   */\n  and\n    /* \"#utility.yul\":9020:9057   */\n  tag_163\n    /* \"#utility.yul\":9052:9056   */\n  dup7\n    /* \"#utility.yul\":9020:9057   */\n  tag_39\n  jump\t// in\ntag_163:\n    /* \"#utility.yul\":9079:9080   */\n  0x00\n    /* \"#utility.yul\":9093:9301   */\ntag_164:\n    /* \"#utility.yul\":9107:9114   */\n  dup3\n    /* \"#utility.yul\":9104:9105   */\n  dup2\n    /* \"#utility.yul\":9101:9115   */\n  lt\n    /* \"#utility.yul\":9093:9301   */\n  iszero\n  tag_166\n  jumpi\n    /* \"#utility.yul\":9186:9195   */\n  dup5\n    /* \"#utility.yul\":9181:9184   */\n  dup10\n    /* \"#utility.yul\":9177:9196   */\n  add\n    /* \"#utility.yul\":9171:9197   */\n  mload\n    /* \"#utility.yul\":9163:9169   */\n  dup3\n    /* \"#utility.yul\":9156:9198   */\n  sstore\n    /* \"#utility.yul\":9237:9238   */\n  0x01\n    /* \"#utility.yul\":9229:9235   */\n  dup3\n    /* \"#utility.yul\":9225:9239   */\n  add\n    /* \"#utility.yul\":9215:9239   */\n  swap2\n  pop\n    /* \"#utility.yul\":9284:9286   */\n  0x20\n    /* \"#utility.yul\":9273:9282   */\n  dup6\n    /* \"#utility.yul\":9269:9287   */\n  add\n    /* \"#utility.yul\":9256:9287   */\n  swap5\n  pop\n    /* \"#utility.yul\":9130:9134   */\n  0x20\n    /* \"#utility.yul\":9127:9128   */\n  dup2\n    /* \"#utility.yul\":9123:9135   */\n  add\n    /* \"#utility.yul\":9118:9135   */\n  swap1\n  pop\n    /* \"#utility.yul\":9093:9301   */\n  jump(tag_164)\ntag_166:\n    /* \"#utility.yul\":9329:9335   */\n  dup7\n    /* \"#utility.yul\":9320:9327   */\n  dup4\n    /* \"#utility.yul\":9317:9336   */\n  lt\n    /* \"#utility.yul\":9314:9493   */\n  iszero\n  tag_167\n  jumpi\n    /* \"#utility.yul\":9387:9396   */\n  dup5\n    /* \"#utility.yul\":9382:9385   */\n  dup10\n    /* \"#utility.yul\":9378:9397   */\n  add\n    /* \"#utility.yul\":9372:9398   */\n  mload\n    /* \"#utility.yul\":9430:9478   */\n  tag_168\n    /* \"#utility.yul\":9472:9476   */\n  0x1f\n    /* \"#utility.yul\":9464:9470   */\n  dup10\n    /* \"#utility.yul\":9460:9477   */\n  and\n    /* \"#utility.yul\":9449:9458   */\n  dup3\n    /* \"#utility.yul\":9430:9478   */\n  tag_53\n  jump\t// in\ntag_168:\n    /* \"#utility.yul\":9422:9428   */\n  dup4\n    /* \"#utility.yul\":9415:9479   */\n  sstore\n    /* \"#utility.yul\":9337:9493   */\n  pop\n    /* \"#utility.yul\":9314:9493   */\ntag_167:\n    /* \"#utility.yul\":9539:9540   */\n  0x01\n    /* \"#utility.yul\":9535:9536   */\n  0x02\n    /* \"#utility.yul\":9527:9533   */\n  dup9\n    /* \"#utility.yul\":9523:9537   */\n  mul\n    /* \"#utility.yul\":9519:9541   */\n  add\n    /* \"#utility.yul\":9513:9517   */\n  dup9\n    /* \"#utility.yul\":9506:9542   */\n  sstore\n    /* \"#utility.yul\":8941:9552   */\n  pop\n  pop\n  pop\n    /* \"#utility.yul\":8904:9791   */\ntag_159:\n  pop\n    /* \"#utility.yul\":8494:9797   */\n  pop\n  pop\n  pop\n    /* \"#utility.yul\":8402:9797   */\n  pop\n  pop\n  jump\t// out\n    /* \"contracts/16_DatacapGatewayAxelar.sol\":635:2979  contract DatacapGatewayAxelar is Ownable, IDatacapGateway {... */\ntag_16:\n  mload(0x80)\n  codecopy(0x00, dataOffset(sub_0), dataSize(sub_0))\n  0x00\n  assignImmutable(\"0xe3fb6c7a68b97a1574f1623712f47cd0a60a3212aae0a2101a56c312e7330127\")\n  return(0x00, dataSize(sub_0))\nstop\n\nsub_0: assembly {\n        /* \"contracts/16_DatacapGatewayAxelar.sol\":635:2979  contract DatacapGatewayAxelar is Ownable, IDatacapGateway {... */\n      mstore(0x40, 0x80)\n      jumpi(tag_1, lt(calldatasize, 0x04))\n      shr(0xe0, calldataload(0x00))\n      dup1\n      0x9b85622c\n      gt\n      tag_15\n      jumpi\n      dup1\n      0x9b85622c\n      eq\n      tag_9\n      jumpi\n      dup1\n      0xbc95b3b1\n      eq\n      tag_10\n      jumpi\n      dup1\n      0xbcaf0d9a\n      eq\n      tag_11\n      jumpi\n      dup1\n      0xca09c885\n      eq\n      tag_12\n      jumpi\n      dup1\n      0xf2fde38b\n      eq\n      tag_13\n      jumpi\n      dup1\n      0xf4bd456d\n      eq\n      tag_14\n      jumpi\n      jump(tag_2)\n    tag_15:\n      dup1\n      0x25d83b7a\n      eq\n      tag_3\n      jumpi\n      dup1\n      0x4cae3185\n      eq\n      tag_4\n      jumpi\n      dup1\n      0x6a22d8cc\n      eq\n      tag_5\n      jumpi\n      dup1\n      0x715018a6\n      eq\n      tag_6\n      jumpi\n      dup1\n      0x85a2dd15\n      eq\n      tag_7\n      jumpi\n      dup1\n      0x8da5cb5b\n      eq\n      tag_8\n      jumpi\n      jump(tag_2)\n    tag_1:\n      jumpi(tag_2, calldatasize)\n      stop\n    tag_2:\n      0x00\n      dup1\n      revert\n        /* \"contracts/16_DatacapGatewayAxelar.sol\":874:896  string public destAddr */\n    tag_3:\n      callvalue\n      dup1\n      iszero\n      tag_18\n      jumpi\n      0x00\n      dup1\n      revert\n    tag_18:\n      pop\n      tag_19\n      tag_20\n      jump\t// in\n    tag_19:\n      mload(0x40)\n      tag_21\n      swap2\n      swap1\n      tag_22\n      jump\t// in\n    tag_21:\n      mload(0x40)\n      dup1\n      swap2\n      sub\n      swap1\n      return\n        /* \"contracts/16_DatacapGatewayAxelar.sol\":753:785  address public axelarGatewayAddr */\n    tag_4:\n      callvalue\n      dup1\n      iszero\n      tag_23\n      jumpi\n      0x00\n      dup1\n      revert\n    tag_23:\n      pop\n      tag_24\n      tag_25\n      jump\t// in\n    tag_24:\n      mload(0x40)\n      tag_26\n      swap2\n      swap1\n      tag_27\n      jump\t// in\n    tag_26:\n      mload(0x40)\n      dup1\n      swap2\n      sub\n      swap1\n      return\n        /* \"contracts/16_DatacapGatewayAxelar.sol\":792:837  IAxelarGasService public immutable gasService */\n    tag_5:\n      callvalue\n      dup1\n      iszero\n      tag_28\n      jumpi\n      0x00\n      dup1\n      revert\n    tag_28:\n      pop\n      tag_29\n      tag_30\n      jump\t// in\n    tag_29:\n      mload(0x40)\n      tag_31\n      swap2\n      swap1\n      tag_32\n      jump\t// in\n    tag_31:\n      mload(0x40)\n      dup1\n      swap2\n      sub\n      swap1\n      return\n        /* \"@openzeppelin/contracts/access/Ownable.sol\":2293:2394  function renounceOwnership() public virtual onlyOwner {... */\n    tag_6:\n      callvalue\n      dup1\n      iszero\n      tag_33\n      jumpi\n      0x00\n      dup1\n      revert\n    tag_33:\n      pop\n      tag_34\n      tag_35\n      jump\t// in\n    tag_34:\n      stop\n        /* \"contracts/16_DatacapGatewayAxelar.sol\":1948:2046  function hasAccess() external view onlyEscrowContracts returns (bool) {... */\n    tag_7:\n      callvalue\n      dup1\n      iszero\n      tag_36\n      jumpi\n      0x00\n      dup1\n      revert\n    tag_36:\n      pop\n      tag_37\n      tag_38\n      jump\t// in\n    tag_37:\n      mload(0x40)\n      tag_39\n      swap2\n      swap1\n      tag_40\n      jump\t// in\n    tag_39:\n      mload(0x40)\n      dup1\n      swap2\n      sub\n      swap1\n      return\n        /* \"@openzeppelin/contracts/access/Ownable.sol\":1638:1723  function owner() public view virtual returns (address) {... */\n    tag_8:\n      callvalue\n      dup1\n      iszero\n      tag_41\n      jumpi\n      0x00\n      dup1\n      revert\n    tag_41:\n      pop\n      tag_42\n      tag_43\n      jump\t// in\n    tag_42:\n      mload(0x40)\n      tag_44\n      swap2\n      swap1\n      tag_27\n      jump\t// in\n    tag_44:\n      mload(0x40)\n      dup1\n      swap2\n      sub\n      swap1\n      return\n        /* \"contracts/16_DatacapGatewayAxelar.sol\":1346:1538  function setStorageProviderEscrowFactory(address storageProviderEscrowFactoryAddress) external onlyOwner {... */\n    tag_9:\n      callvalue\n      dup1\n      iszero\n      tag_45\n      jumpi\n      0x00\n      dup1\n      revert\n    tag_45:\n      pop\n      tag_46\n      0x04\n      dup1\n      calldatasize\n      sub\n      dup2\n      add\n      swap1\n      tag_47\n      swap2\n      swap1\n      tag_48\n      jump\t// in\n    tag_47:\n      tag_49\n      jump\t// in\n    tag_46:\n      stop\n        /* \"contracts/16_DatacapGatewayAxelar.sol\":844:867  string public destChain */\n    tag_10:\n      callvalue\n      dup1\n      iszero\n      tag_50\n      jumpi\n      0x00\n      dup1\n      revert\n    tag_50:\n      pop\n      tag_51\n      tag_52\n      jump\t// in\n    tag_51:\n      mload(0x40)\n      tag_53\n      swap2\n      swap1\n      tag_22\n      jump\t// in\n    tag_53:\n      mload(0x40)\n      dup1\n      swap2\n      sub\n      swap1\n      return\n        /* \"contracts/16_DatacapGatewayAxelar.sol\":699:746  address public storageProviderEscrowFactoryAddr */\n    tag_11:\n      callvalue\n      dup1\n      iszero\n      tag_54\n      jumpi\n      0x00\n      dup1\n      revert\n    tag_54:\n      pop\n      tag_55\n      tag_56\n      jump\t// in\n    tag_55:\n      mload(0x40)\n      tag_57\n      swap2\n      swap1\n      tag_27\n      jump\t// in\n    tag_57:\n      mload(0x40)\n      dup1\n      swap2\n      sub\n      swap1\n      return\n        /* \"contracts/16_DatacapGatewayAxelar.sol\":2318:2977  function grantDatacapMock(address clientFilecoinAddress, uint256 amount) external payable onlyEscrowContracts {... */\n    tag_12:\n      tag_58\n      0x04\n      dup1\n      calldatasize\n      sub\n      dup2\n      add\n      swap1\n      tag_59\n      swap2\n      swap1\n      tag_60\n      jump\t// in\n    tag_59:\n      tag_61\n      jump\t// in\n    tag_58:\n      stop\n        /* \"@openzeppelin/contracts/access/Ownable.sol\":2543:2758  function transferOwnership(address newOwner) public virtual onlyOwner {... */\n    tag_13:\n      callvalue\n      dup1\n      iszero\n      tag_62\n      jumpi\n      0x00\n      dup1\n      revert\n    tag_62:\n      pop\n      tag_63\n      0x04\n      dup1\n      calldatasize\n      sub\n      dup2\n      add\n      swap1\n      tag_64\n      swap2\n      swap1\n      tag_48\n      jump\t// in\n    tag_64:\n      tag_65\n      jump\t// in\n    tag_63:\n      stop\n        /* \"contracts/16_DatacapGatewayAxelar.sol\":2052:2312  function grantDatacap(bytes calldata clientFilecoinAddress, uint256 amount) external payable onlyEscrowContracts {... */\n    tag_14:\n      tag_66\n      0x04\n      dup1\n      calldatasize\n      sub\n      dup2\n      add\n      swap1\n      tag_67\n      swap2\n      swap1\n      tag_68\n      jump\t// in\n    tag_67:\n      tag_69\n      jump\t// in\n    tag_66:\n      stop\n        /* \"contracts/16_DatacapGatewayAxelar.sol\":874:896  string public destAddr */\n    tag_20:\n      0x04\n      dup1\n      sload\n      tag_70\n      swap1\n      tag_71\n      jump\t// in\n    tag_70:\n      dup1\n      0x1f\n      add\n      0x20\n      dup1\n      swap2\n      div\n      mul\n      0x20\n      add\n      mload(0x40)\n      swap1\n      dup2\n      add\n      0x40\n      mstore\n      dup1\n      swap3\n      swap2\n      swap1\n      dup2\n      dup2\n      mstore\n      0x20\n      add\n      dup3\n      dup1\n      sload\n      tag_72\n      swap1\n      tag_71\n      jump\t// in\n    tag_72:\n      dup1\n      iszero\n      tag_73\n      jumpi\n      dup1\n      0x1f\n      lt\n      tag_74\n      jumpi\n      0x0100\n      dup1\n      dup4\n      sload\n      div\n      mul\n      dup4\n      mstore\n      swap2\n      0x20\n      add\n      swap2\n      jump(tag_73)\n    tag_74:\n      dup3\n      add\n      swap2\n      swap1\n      0x00\n      mstore\n      keccak256(0x00, 0x20)\n      swap1\n    tag_75:\n      dup2\n      sload\n      dup2\n      mstore\n      swap1\n      0x01\n      add\n      swap1\n      0x20\n      add\n      dup1\n      dup4\n      gt\n      tag_75\n      jumpi\n      dup3\n      swap1\n      sub\n      0x1f\n      and\n      dup3\n      add\n      swap2\n    tag_73:\n      pop\n      pop\n      pop\n      pop\n      pop\n      dup2\n      jump\t// out\n        /* \"contracts/16_DatacapGatewayAxelar.sol\":753:785  address public axelarGatewayAddr */\n    tag_25:\n      0x02\n      0x00\n      swap1\n      sload\n      swap1\n      0x0100\n      exp\n      swap1\n      div\n      0xffffffffffffffffffffffffffffffffffffffff\n      and\n      dup2\n      jump\t// out\n        /* \"contracts/16_DatacapGatewayAxelar.sol\":792:837  IAxelarGasService public immutable gasService */\n    tag_30:\n      immutable(\"0xe3fb6c7a68b97a1574f1623712f47cd0a60a3212aae0a2101a56c312e7330127\")\n      dup2\n      jump\t// out\n        /* \"@openzeppelin/contracts/access/Ownable.sol\":2293:2394  function renounceOwnership() public virtual onlyOwner {... */\n    tag_35:\n        /* \"@openzeppelin/contracts/access/Ownable.sol\":1531:1544  _checkOwner() */\n      tag_77\n        /* \"@openzeppelin/contracts/access/Ownable.sol\":1531:1542  _checkOwner */\n      tag_78\n        /* \"@openzeppelin/contracts/access/Ownable.sol\":1531:1544  _checkOwner() */\n      jump\t// in\n    tag_77:\n        /* \"@openzeppelin/contracts/access/Ownable.sol\":2357:2387  _transferOwnership(address(0)) */\n      tag_80\n        /* \"@openzeppelin/contracts/access/Ownable.sol\":2384:2385  0 */\n      0x00\n        /* \"@openzeppelin/contracts/access/Ownable.sol\":2357:2375  _transferOwnership */\n      tag_81\n        /* \"@openzeppelin/contracts/access/Ownable.sol\":2357:2387  _transferOwnership(address(0)) */\n      jump\t// in\n    tag_80:\n        /* \"@openzeppelin/contracts/access/Ownable.sol\":2293:2394  function renounceOwnership() public virtual onlyOwner {... */\n      jump\t// out\n        /* \"contracts/16_DatacapGatewayAxelar.sol\":1948:2046  function hasAccess() external view onlyEscrowContracts returns (bool) {... */\n    tag_38:\n        /* \"contracts/16_DatacapGatewayAxelar.sol\":2012:2016  bool */\n      0x00\n        /* \"contracts/16_DatacapGatewayAxelar.sol\":1633:1634  0 */\n      dup1\n        /* \"contracts/16_DatacapGatewayAxelar.sol\":1589:1635  storageProviderEscrowFactoryAddr == address(0) */\n      0xffffffffffffffffffffffffffffffffffffffff\n      and\n        /* \"contracts/16_DatacapGatewayAxelar.sol\":1589:1621  storageProviderEscrowFactoryAddr */\n      0x01\n      0x00\n      swap1\n      sload\n      swap1\n      0x0100\n      exp\n      swap1\n      div\n      0xffffffffffffffffffffffffffffffffffffffff\n      and\n        /* \"contracts/16_DatacapGatewayAxelar.sol\":1589:1635  storageProviderEscrowFactoryAddr == address(0) */\n      0xffffffffffffffffffffffffffffffffffffffff\n      and\n      sub\n        /* \"contracts/16_DatacapGatewayAxelar.sol\":1585:1704  if (storageProviderEscrowFactoryAddr == address(0)) {... */\n      tag_83\n      jumpi\n        /* \"contracts/16_DatacapGatewayAxelar.sol\":1658:1693  StorageProviderEscrowFactoryUnset() */\n      mload(0x40)\n      0xf37741d700000000000000000000000000000000000000000000000000000000\n      dup2\n      mstore\n      0x04\n      add\n      mload(0x40)\n      dup1\n      swap2\n      sub\n      swap1\n      revert\n        /* \"contracts/16_DatacapGatewayAxelar.sol\":1585:1704  if (storageProviderEscrowFactoryAddr == address(0)) {... */\n    tag_83:\n        /* \"contracts/16_DatacapGatewayAxelar.sol\":1714:1751  IStorageProviderEscrowFactory factory */\n      0x00\n        /* \"contracts/16_DatacapGatewayAxelar.sol\":1784:1816  storageProviderEscrowFactoryAddr */\n      0x01\n      0x00\n      swap1\n      sload\n      swap1\n      0x0100\n      exp\n      swap1\n      div\n      0xffffffffffffffffffffffffffffffffffffffff\n      and\n        /* \"contracts/16_DatacapGatewayAxelar.sol\":1714:1817  IStorageProviderEscrowFactory factory = IStorageProviderEscrowFactory(storageProviderEscrowFactoryAddr) */\n      swap1\n      pop\n        /* \"contracts/16_DatacapGatewayAxelar.sol\":1832:1839  factory */\n      dup1\n        /* \"contracts/16_DatacapGatewayAxelar.sol\":1832:1848  factory.isEscrow */\n      0xffffffffffffffffffffffffffffffffffffffff\n      and\n      0xb166a09f\n        /* \"contracts/16_DatacapGatewayAxelar.sol\":1849:1859  msg.sender */\n      caller\n        /* \"contracts/16_DatacapGatewayAxelar.sol\":1832:1860  factory.isEscrow(msg.sender) */\n      mload(0x40)\n      dup3\n      0xffffffff\n      and\n      0xe0\n      shl\n      dup2\n      mstore\n      0x04\n      add\n      tag_84\n      swap2\n      swap1\n      tag_27\n      jump\t// in\n    tag_84:\n      0x20\n      mload(0x40)\n      dup1\n      dup4\n      sub\n      dup2\n      dup7\n      gas\n      staticcall\n      iszero\n      dup1\n      iszero\n      tag_86\n      jumpi\n      returndatasize\n      0x00\n      dup1\n      returndatacopy\n      revert(0x00, returndatasize)\n    tag_86:\n      pop\n      pop\n      pop\n      pop\n      mload(0x40)\n      returndatasize\n      not(0x1f)\n      0x1f\n      dup3\n      add\n      and\n      dup3\n      add\n      dup1\n      0x40\n      mstore\n      pop\n      dup2\n      add\n      swap1\n      tag_87\n      swap2\n      swap1\n      tag_88\n      jump\t// in\n    tag_87:\n        /* \"contracts/16_DatacapGatewayAxelar.sol\":1827:1925  if (!factory.isEscrow(msg.sender)) {... */\n      tag_89\n      jumpi\n        /* \"contracts/16_DatacapGatewayAxelar.sol\":1903:1913  msg.sender */\n      caller\n        /* \"contracts/16_DatacapGatewayAxelar.sol\":1883:1914  UnauthorizedAccount(msg.sender) */\n      mload(0x40)\n      0x32b2baa300000000000000000000000000000000000000000000000000000000\n      dup2\n      mstore\n      0x04\n      add\n      tag_90\n      swap2\n      swap1\n      tag_27\n      jump\t// in\n    tag_90:\n      mload(0x40)\n      dup1\n      swap2\n      sub\n      swap1\n      revert\n        /* \"contracts/16_DatacapGatewayAxelar.sol\":1827:1925  if (!factory.isEscrow(msg.sender)) {... */\n    tag_89:\n        /* \"contracts/16_DatacapGatewayAxelar.sol\":2035:2039  true */\n      0x01\n        /* \"contracts/16_DatacapGatewayAxelar.sol\":2028:2039  return true */\n      swap2\n      pop\n        /* \"contracts/16_DatacapGatewayAxelar.sol\":1575:1942  {... */\n      pop\n        /* \"contracts/16_DatacapGatewayAxelar.sol\":1948:2046  function hasAccess() external view onlyEscrowContracts returns (bool) {... */\n      swap1\n      jump\t// out\n        /* \"@openzeppelin/contracts/access/Ownable.sol\":1638:1723  function owner() public view virtual returns (address) {... */\n    tag_43:\n        /* \"@openzeppelin/contracts/access/Ownable.sol\":1684:1691  address */\n      0x00\n        /* \"@openzeppelin/contracts/access/Ownable.sol\":1710:1716  _owner */\n      dup1\n      0x00\n      swap1\n      sload\n      swap1\n      0x0100\n      exp\n      swap1\n      div\n      0xffffffffffffffffffffffffffffffffffffffff\n      and\n        /* \"@openzeppelin/contracts/access/Ownable.sol\":1703:1716  return _owner */\n      swap1\n      pop\n        /* \"@openzeppelin/contracts/access/Ownable.sol\":1638:1723  function owner() public view virtual returns (address) {... */\n      swap1\n      jump\t// out\n        /* \"contracts/16_DatacapGatewayAxelar.sol\":1346:1538  function setStorageProviderEscrowFactory(address storageProviderEscrowFactoryAddress) external onlyOwner {... */\n    tag_49:\n        /* \"@openzeppelin/contracts/access/Ownable.sol\":1531:1544  _checkOwner() */\n      tag_94\n        /* \"@openzeppelin/contracts/access/Ownable.sol\":1531:1542  _checkOwner */\n      tag_78\n        /* \"@openzeppelin/contracts/access/Ownable.sol\":1531:1544  _checkOwner() */\n      jump\t// in\n    tag_94:\n        /* \"contracts/16_DatacapGatewayAxelar.sol\":1496:1531  storageProviderEscrowFactoryAddress */\n      dup1\n        /* \"contracts/16_DatacapGatewayAxelar.sol\":1461:1493  storageProviderEscrowFactoryAddr */\n      0x01\n      0x00\n        /* \"contracts/16_DatacapGatewayAxelar.sol\":1461:1531  storageProviderEscrowFactoryAddr = storageProviderEscrowFactoryAddress */\n      0x0100\n      exp\n      dup2\n      sload\n      dup2\n      0xffffffffffffffffffffffffffffffffffffffff\n      mul\n      not\n      and\n      swap1\n      dup4\n      0xffffffffffffffffffffffffffffffffffffffff\n      and\n      mul\n      or\n      swap1\n      sstore\n      pop\n        /* \"contracts/16_DatacapGatewayAxelar.sol\":1346:1538  function setStorageProviderEscrowFactory(address storageProviderEscrowFactoryAddress) external onlyOwner {... */\n      pop\n      jump\t// out\n        /* \"contracts/16_DatacapGatewayAxelar.sol\":844:867  string public destChain */\n    tag_52:\n      0x03\n      dup1\n      sload\n      tag_96\n      swap1\n      tag_71\n      jump\t// in\n    tag_96:\n      dup1\n      0x1f\n      add\n      0x20\n      dup1\n      swap2\n      div\n      mul\n      0x20\n      add\n      mload(0x40)\n      swap1\n      dup2\n      add\n      0x40\n      mstore\n      dup1\n      swap3\n      swap2\n      swap1\n      dup2\n      dup2\n      mstore\n      0x20\n      add\n      dup3\n      dup1\n      sload\n      tag_97\n      swap1\n      tag_71\n      jump\t// in\n    tag_97:\n      dup1\n      iszero\n      tag_98\n      jumpi\n      dup1\n      0x1f\n      lt\n      tag_99\n      jumpi\n      0x0100\n      dup1\n      dup4\n      sload\n      div\n      mul\n      dup4\n      mstore\n      swap2\n      0x20\n      add\n      swap2\n      jump(tag_98)\n    tag_99:\n      dup3\n      add\n      swap2\n      swap1\n      0x00\n      mstore\n      keccak256(0x00, 0x20)\n      swap1\n    tag_100:\n      dup2\n      sload\n      dup2\n      mstore\n      swap1\n      0x01\n      add\n      swap1\n      0x20\n      add\n      dup1\n      dup4\n      gt\n      tag_100\n      jumpi\n      dup3\n      swap1\n      sub\n      0x1f\n      and\n      dup3\n      add\n      swap2\n    tag_98:\n      pop\n      pop\n      pop\n      pop\n      pop\n      dup2\n      jump\t// out\n        /* \"contracts/16_DatacapGatewayAxelar.sol\":699:746  address public storageProviderEscrowFactoryAddr */\n    tag_56:\n      0x01\n      0x00\n      swap1\n      sload\n      swap1\n      0x0100\n      exp\n      swap1\n      div\n      0xffffffffffffffffffffffffffffffffffffffff\n      and\n      dup2\n      jump\t// out\n        /* \"contracts/16_DatacapGatewayAxelar.sol\":2318:2977  function grantDatacapMock(address clientFilecoinAddress, uint256 amount) external payable onlyEscrowContracts {... */\n    tag_61:\n        /* \"contracts/16_DatacapGatewayAxelar.sol\":1633:1634  0 */\n      0x00\n        /* \"contracts/16_DatacapGatewayAxelar.sol\":1589:1635  storageProviderEscrowFactoryAddr == address(0) */\n      0xffffffffffffffffffffffffffffffffffffffff\n      and\n        /* \"contracts/16_DatacapGatewayAxelar.sol\":1589:1621  storageProviderEscrowFactoryAddr */\n      0x01\n      0x00\n      swap1\n      sload\n      swap1\n      0x0100\n      exp\n      swap1\n      div\n      0xffffffffffffffffffffffffffffffffffffffff\n      and\n        /* \"contracts/16_DatacapGatewayAxelar.sol\":1589:1635  storageProviderEscrowFactoryAddr == address(0) */\n      0xffffffffffffffffffffffffffffffffffffffff\n      and\n      sub\n        /* \"contracts/16_DatacapGatewayAxelar.sol\":1585:1704  if (storageProviderEscrowFactoryAddr == address(0)) {... */\n      tag_102\n      jumpi\n        /* \"contracts/16_DatacapGatewayAxelar.sol\":1658:1693  StorageProviderEscrowFactoryUnset() */\n      mload(0x40)\n      0xf37741d700000000000000000000000000000000000000000000000000000000\n      dup2\n      mstore\n      0x04\n      add\n      mload(0x40)\n      dup1\n      swap2\n      sub\n      swap1\n      revert\n        /* \"contracts/16_DatacapGatewayAxelar.sol\":1585:1704  if (storageProviderEscrowFactoryAddr == address(0)) {... */\n    tag_102:\n        /* \"contracts/16_DatacapGatewayAxelar.sol\":1714:1751  IStorageProviderEscrowFactory factory */\n      0x00\n        /* \"contracts/16_DatacapGatewayAxelar.sol\":1784:1816  storageProviderEscrowFactoryAddr */\n      0x01\n      0x00\n      swap1\n      sload\n      swap1\n      0x0100\n      exp\n      swap1\n      div\n      0xffffffffffffffffffffffffffffffffffffffff\n      and\n        /* \"contracts/16_DatacapGatewayAxelar.sol\":1714:1817  IStorageProviderEscrowFactory factory = IStorageProviderEscrowFactory(storageProviderEscrowFactoryAddr) */\n      swap1\n      pop\n        /* \"contracts/16_DatacapGatewayAxelar.sol\":1832:1839  factory */\n      dup1\n        /* \"contracts/16_DatacapGatewayAxelar.sol\":1832:1848  factory.isEscrow */\n      0xffffffffffffffffffffffffffffffffffffffff\n      and\n      0xb166a09f\n        /* \"contracts/16_DatacapGatewayAxelar.sol\":1849:1859  msg.sender */\n      caller\n        /* \"contracts/16_DatacapGatewayAxelar.sol\":1832:1860  factory.isEscrow(msg.sender) */\n      mload(0x40)\n      dup3\n      0xffffffff\n      and\n      0xe0\n      shl\n      dup2\n      mstore\n      0x04\n      add\n      tag_103\n      swap2\n      swap1\n      tag_27\n      jump\t// in\n    tag_103:\n      0x20\n      mload(0x40)\n      dup1\n      dup4\n      sub\n      dup2\n      dup7\n      gas\n      staticcall\n      iszero\n      dup1\n      iszero\n      tag_105\n      jumpi\n      returndatasize\n      0x00\n      dup1\n      returndatacopy\n      revert(0x00, returndatasize)\n    tag_105:\n      pop\n      pop\n      pop\n      pop\n      mload(0x40)\n      returndatasize\n      not(0x1f)\n      0x1f\n      dup3\n      add\n      and\n      dup3\n      add\n      dup1\n      0x40\n      mstore\n      pop\n      dup2\n      add\n      swap1\n      tag_106\n      swap2\n      swap1\n      tag_88\n      jump\t// in\n    tag_106:\n        /* \"contracts/16_DatacapGatewayAxelar.sol\":1827:1925  if (!factory.isEscrow(msg.sender)) {... */\n      tag_107\n      jumpi\n        /* \"contracts/16_DatacapGatewayAxelar.sol\":1903:1913  msg.sender */\n      caller\n        /* \"contracts/16_DatacapGatewayAxelar.sol\":1883:1914  UnauthorizedAccount(msg.sender) */\n      mload(0x40)\n      0x32b2baa300000000000000000000000000000000000000000000000000000000\n      dup2\n      mstore\n      0x04\n      add\n      tag_108\n      swap2\n      swap1\n      tag_27\n      jump\t// in\n    tag_108:\n      mload(0x40)\n      dup1\n      swap2\n      sub\n      swap1\n      revert\n        /* \"contracts/16_DatacapGatewayAxelar.sol\":1827:1925  if (!factory.isEscrow(msg.sender)) {... */\n    tag_107:\n        /* \"contracts/16_DatacapGatewayAxelar.sol\":2438:2458  bytes memory payload */\n      0x00\n        /* \"contracts/16_DatacapGatewayAxelar.sol\":2472:2493  clientFilecoinAddress */\n      dup4\n        /* \"contracts/16_DatacapGatewayAxelar.sol\":2495:2501  amount */\n      dup4\n        /* \"contracts/16_DatacapGatewayAxelar.sol\":2461:2502  abi.encode(clientFilecoinAddress, amount) */\n      add(0x20, mload(0x40))\n      tag_110\n      swap3\n      swap2\n      swap1\n      tag_111\n      jump\t// in\n    tag_110:\n      mload(0x40)\n      0x20\n      dup2\n      dup4\n      sub\n      sub\n      dup2\n      mstore\n      swap1\n      0x40\n      mstore\n        /* \"contracts/16_DatacapGatewayAxelar.sol\":2438:2502  bytes memory payload = abi.encode(clientFilecoinAddress, amount) */\n      swap1\n      pop\n        /* \"contracts/16_DatacapGatewayAxelar.sol\":2512:2522  gasService */\n      immutable(\"0xe3fb6c7a68b97a1574f1623712f47cd0a60a3212aae0a2101a56c312e7330127\")\n        /* \"contracts/16_DatacapGatewayAxelar.sol\":2512:2550  gasService.payNativeGasForContractCall */\n      0xffffffffffffffffffffffffffffffffffffffff\n      and\n      0x0c93e3bb\n        /* \"contracts/16_DatacapGatewayAxelar.sol\":2559:2568  msg.value */\n      callvalue\n        /* \"contracts/16_DatacapGatewayAxelar.sol\":2592:2596  this */\n      address\n        /* \"contracts/16_DatacapGatewayAxelar.sol\":2611:2620  destChain */\n      0x03\n        /* \"contracts/16_DatacapGatewayAxelar.sol\":2634:2642  destAddr */\n      0x04\n        /* \"contracts/16_DatacapGatewayAxelar.sol\":2656:2663  payload */\n      dup7\n        /* \"contracts/16_DatacapGatewayAxelar.sol\":2677:2687  msg.sender */\n      caller\n        /* \"contracts/16_DatacapGatewayAxelar.sol\":2512:2697  gasService.payNativeGasForContractCall{ value: msg.value }(... */\n      mload(0x40)\n      dup8\n      0xffffffff\n      and\n      0xe0\n      shl\n      dup2\n      mstore\n      0x04\n      add\n      tag_112\n      swap6\n      swap5\n      swap4\n      swap3\n      swap2\n      swap1\n      tag_113\n      jump\t// in\n    tag_112:\n      0x00\n      mload(0x40)\n      dup1\n      dup4\n      sub\n      dup2\n      dup6\n      dup9\n      dup1\n      extcodesize\n      iszero\n      dup1\n      iszero\n      tag_114\n      jumpi\n      0x00\n      dup1\n      revert\n    tag_114:\n      pop\n      gas\n      call\n      iszero\n      dup1\n      iszero\n      tag_116\n      jumpi\n      returndatasize\n      0x00\n      dup1\n      returndatacopy\n      revert(0x00, returndatasize)\n    tag_116:\n      pop\n      pop\n      pop\n      pop\n      pop\n        /* \"contracts/16_DatacapGatewayAxelar.sol\":2707:2729  IAxelarGateway gateway */\n      0x00\n        /* \"contracts/16_DatacapGatewayAxelar.sol\":2747:2764  axelarGatewayAddr */\n      0x02\n      0x00\n      swap1\n      sload\n      swap1\n      0x0100\n      exp\n      swap1\n      div\n      0xffffffffffffffffffffffffffffffffffffffff\n      and\n        /* \"contracts/16_DatacapGatewayAxelar.sol\":2707:2765  IAxelarGateway gateway = IAxelarGateway(axelarGatewayAddr) */\n      swap1\n      pop\n        /* \"contracts/16_DatacapGatewayAxelar.sol\":2775:2782  gateway */\n      dup1\n        /* \"contracts/16_DatacapGatewayAxelar.sol\":2775:2795  gateway.callContract */\n      0xffffffffffffffffffffffffffffffffffffffff\n      and\n      0x1c92115f\n        /* \"contracts/16_DatacapGatewayAxelar.sol\":2796:2805  destChain */\n      0x03\n        /* \"contracts/16_DatacapGatewayAxelar.sol\":2807:2815  destAddr */\n      0x04\n        /* \"contracts/16_DatacapGatewayAxelar.sol\":2817:2824  payload */\n      dup6\n        /* \"contracts/16_DatacapGatewayAxelar.sol\":2775:2825  gateway.callContract(destChain, destAddr, payload) */\n      mload(0x40)\n      dup5\n      0xffffffff\n      and\n      0xe0\n      shl\n      dup2\n      mstore\n      0x04\n      add\n      tag_117\n      swap4\n      swap3\n      swap2\n      swap1\n      tag_118\n      jump\t// in\n    tag_117:\n      0x00\n      mload(0x40)\n      dup1\n      dup4\n      sub\n      dup2\n      0x00\n      dup8\n      dup1\n      extcodesize\n      iszero\n      dup1\n      iszero\n      tag_119\n      jumpi\n      0x00\n      dup1\n      revert\n    tag_119:\n      pop\n      gas\n      call\n      iszero\n      dup1\n      iszero\n      tag_121\n      jumpi\n      returndatasize\n      0x00\n      dup1\n      returndatacopy\n      revert(0x00, returndatasize)\n    tag_121:\n      pop\n      pop\n      pop\n      pop\n        /* \"contracts/16_DatacapGatewayAxelar.sol\":2428:2977  {... */\n      pop\n      pop\n        /* \"contracts/16_DatacapGatewayAxelar.sol\":1575:1942  {... */\n      pop\n        /* \"contracts/16_DatacapGatewayAxelar.sol\":2318:2977  function grantDatacapMock(address clientFilecoinAddress, uint256 amount) external payable onlyEscrowContracts {... */\n      pop\n      pop\n      jump\t// out\n        /* \"@openzeppelin/contracts/access/Ownable.sol\":2543:2758  function transferOwnership(address newOwner) public virtual onlyOwner {... */\n    tag_65:\n        /* \"@openzeppelin/contracts/access/Ownable.sol\":1531:1544  _checkOwner() */\n      tag_123\n        /* \"@openzeppelin/contracts/access/Ownable.sol\":1531:1542  _checkOwner */\n      tag_78\n        /* \"@openzeppelin/contracts/access/Ownable.sol\":1531:1544  _checkOwner() */\n      jump\t// in\n    tag_123:\n        /* \"@openzeppelin/contracts/access/Ownable.sol\":2647:2648  0 */\n      0x00\n        /* \"@openzeppelin/contracts/access/Ownable.sol\":2627:2649  newOwner == address(0) */\n      0xffffffffffffffffffffffffffffffffffffffff\n      and\n        /* \"@openzeppelin/contracts/access/Ownable.sol\":2627:2635  newOwner */\n      dup2\n        /* \"@openzeppelin/contracts/access/Ownable.sol\":2627:2649  newOwner == address(0) */\n      0xffffffffffffffffffffffffffffffffffffffff\n      and\n      sub\n        /* \"@openzeppelin/contracts/access/Ownable.sol\":2623:2714  if (newOwner == address(0)) {... */\n      tag_125\n      jumpi\n        /* \"@openzeppelin/contracts/access/Ownable.sol\":2700:2701  0 */\n      0x00\n        /* \"@openzeppelin/contracts/access/Ownable.sol\":2672:2703  OwnableInvalidOwner(address(0)) */\n      mload(0x40)\n      0x1e4fbdf700000000000000000000000000000000000000000000000000000000\n      dup2\n      mstore\n      0x04\n      add\n      tag_126\n      swap2\n      swap1\n      tag_27\n      jump\t// in\n    tag_126:\n      mload(0x40)\n      dup1\n      swap2\n      sub\n      swap1\n      revert\n        /* \"@openzeppelin/contracts/access/Ownable.sol\":2623:2714  if (newOwner == address(0)) {... */\n    tag_125:\n        /* \"@openzeppelin/contracts/access/Ownable.sol\":2723:2751  _transferOwnership(newOwner) */\n      tag_127\n        /* \"@openzeppelin/contracts/access/Ownable.sol\":2742:2750  newOwner */\n      dup2\n        /* \"@openzeppelin/contracts/access/Ownable.sol\":2723:2741  _transferOwnership */\n      tag_81\n        /* \"@openzeppelin/contracts/access/Ownable.sol\":2723:2751  _transferOwnership(newOwner) */\n      jump\t// in\n    tag_127:\n        /* \"@openzeppelin/contracts/access/Ownable.sol\":2543:2758  function transferOwnership(address newOwner) public virtual onlyOwner {... */\n      pop\n      jump\t// out\n        /* \"contracts/16_DatacapGatewayAxelar.sol\":2052:2312  function grantDatacap(bytes calldata clientFilecoinAddress, uint256 amount) external payable onlyEscrowContracts {... */\n    tag_69:\n        /* \"contracts/16_DatacapGatewayAxelar.sol\":1633:1634  0 */\n      0x00\n        /* \"contracts/16_DatacapGatewayAxelar.sol\":1589:1635  storageProviderEscrowFactoryAddr == address(0) */\n      0xffffffffffffffffffffffffffffffffffffffff\n      and\n        /* \"contracts/16_DatacapGatewayAxelar.sol\":1589:1621  storageProviderEscrowFactoryAddr */\n      0x01\n      0x00\n      swap1\n      sload\n      swap1\n      0x0100\n      exp\n      swap1\n      div\n      0xffffffffffffffffffffffffffffffffffffffff\n      and\n        /* \"contracts/16_DatacapGatewayAxelar.sol\":1589:1635  storageProviderEscrowFactoryAddr == address(0) */\n      0xffffffffffffffffffffffffffffffffffffffff\n      and\n      sub\n        /* \"contracts/16_DatacapGatewayAxelar.sol\":1585:1704  if (storageProviderEscrowFactoryAddr == address(0)) {... */\n      tag_129\n      jumpi\n        /* \"contracts/16_DatacapGatewayAxelar.sol\":1658:1693  StorageProviderEscrowFactoryUnset() */\n      mload(0x40)\n      0xf37741d700000000000000000000000000000000000000000000000000000000\n      dup2\n      mstore\n      0x04\n      add\n      mload(0x40)\n      dup1\n      swap2\n      sub\n      swap1\n      revert\n        /* \"contracts/16_DatacapGatewayAxelar.sol\":1585:1704  if (storageProviderEscrowFactoryAddr == address(0)) {... */\n    tag_129:\n        /* \"contracts/16_DatacapGatewayAxelar.sol\":1714:1751  IStorageProviderEscrowFactory factory */\n      0x00\n        /* \"contracts/16_DatacapGatewayAxelar.sol\":1784:1816  storageProviderEscrowFactoryAddr */\n      0x01\n      0x00\n      swap1\n      sload\n      swap1\n      0x0100\n      exp\n      swap1\n      div\n      0xffffffffffffffffffffffffffffffffffffffff\n      and\n        /* \"contracts/16_DatacapGatewayAxelar.sol\":1714:1817  IStorageProviderEscrowFactory factory = IStorageProviderEscrowFactory(storageProviderEscrowFactoryAddr) */\n      swap1\n      pop\n        /* \"contracts/16_DatacapGatewayAxelar.sol\":1832:1839  factory */\n      dup1\n        /* \"contracts/16_DatacapGatewayAxelar.sol\":1832:1848  factory.isEscrow */\n      0xffffffffffffffffffffffffffffffffffffffff\n      and\n      0xb166a09f\n        /* \"contracts/16_DatacapGatewayAxelar.sol\":1849:1859  msg.sender */\n      caller\n        /* \"contracts/16_DatacapGatewayAxelar.sol\":1832:1860  factory.isEscrow(msg.sender) */\n      mload(0x40)\n      dup3\n      0xffffffff\n      and\n      0xe0\n      shl\n      dup2\n      mstore\n      0x04\n      add\n      tag_130\n      swap2\n      swap1\n      tag_27\n      jump\t// in\n    tag_130:\n      0x20\n      mload(0x40)\n      dup1\n      dup4\n      sub\n      dup2\n      dup7\n      gas\n      staticcall\n      iszero\n      dup1\n      iszero\n      tag_132\n      jumpi\n      returndatasize\n      0x00\n      dup1\n      returndatacopy\n      revert(0x00, returndatasize)\n    tag_132:\n      pop\n      pop\n      pop\n      pop\n      mload(0x40)\n      returndatasize\n      not(0x1f)\n      0x1f\n      dup3\n      add\n      and\n      dup3\n      add\n      dup1\n      0x40\n      mstore\n      pop\n      dup2\n      add\n      swap1\n      tag_133\n      swap2\n      swap1\n      tag_88\n      jump\t// in\n    tag_133:\n        /* \"contracts/16_DatacapGatewayAxelar.sol\":1827:1925  if (!factory.isEscrow(msg.sender)) {... */\n      tag_134\n      jumpi\n        /* \"contracts/16_DatacapGatewayAxelar.sol\":1903:1913  msg.sender */\n      caller\n        /* \"contracts/16_DatacapGatewayAxelar.sol\":1883:1914  UnauthorizedAccount(msg.sender) */\n      mload(0x40)\n      0x32b2baa300000000000000000000000000000000000000000000000000000000\n      dup2\n      mstore\n      0x04\n      add\n      tag_135\n      swap2\n      swap1\n      tag_27\n      jump\t// in\n    tag_135:\n      mload(0x40)\n      dup1\n      swap2\n      sub\n      swap1\n      revert\n        /* \"contracts/16_DatacapGatewayAxelar.sol\":1827:1925  if (!factory.isEscrow(msg.sender)) {... */\n    tag_134:\n        /* \"contracts/16_DatacapGatewayAxelar.sol\":1575:1942  {... */\n      pop\n        /* \"contracts/16_DatacapGatewayAxelar.sol\":2052:2312  function grantDatacap(bytes calldata clientFilecoinAddress, uint256 amount) external payable onlyEscrowContracts {... */\n      pop\n      pop\n      pop\n      jump\t// out\n        /* \"@openzeppelin/contracts/access/Ownable.sol\":1796:1958  function _checkOwner() internal view virtual {... */\n    tag_78:\n        /* \"@openzeppelin/contracts/access/Ownable.sol\":1866:1878  _msgSender() */\n      tag_138\n        /* \"@openzeppelin/contracts/access/Ownable.sol\":1866:1876  _msgSender */\n      tag_139\n        /* \"@openzeppelin/contracts/access/Ownable.sol\":1866:1878  _msgSender() */\n      jump\t// in\n    tag_138:\n        /* \"@openzeppelin/contracts/access/Ownable.sol\":1855:1878  owner() != _msgSender() */\n      0xffffffffffffffffffffffffffffffffffffffff\n      and\n        /* \"@openzeppelin/contracts/access/Ownable.sol\":1855:1862  owner() */\n      tag_140\n        /* \"@openzeppelin/contracts/access/Ownable.sol\":1855:1860  owner */\n      tag_43\n        /* \"@openzeppelin/contracts/access/Ownable.sol\":1855:1862  owner() */\n      jump\t// in\n    tag_140:\n        /* \"@openzeppelin/contracts/access/Ownable.sol\":1855:1878  owner() != _msgSender() */\n      0xffffffffffffffffffffffffffffffffffffffff\n      and\n      eq\n        /* \"@openzeppelin/contracts/access/Ownable.sol\":1851:1952  if (owner() != _msgSender()) {... */\n      tag_141\n      jumpi\n        /* \"@openzeppelin/contracts/access/Ownable.sol\":1928:1940  _msgSender() */\n      tag_142\n        /* \"@openzeppelin/contracts/access/Ownable.sol\":1928:1938  _msgSender */\n      tag_139\n        /* \"@openzeppelin/contracts/access/Ownable.sol\":1928:1940  _msgSender() */\n      jump\t// in\n    tag_142:\n        /* \"@openzeppelin/contracts/access/Ownable.sol\":1901:1941  OwnableUnauthorizedAccount(_msgSender()) */\n      mload(0x40)\n      0x118cdaa700000000000000000000000000000000000000000000000000000000\n      dup2\n      mstore\n      0x04\n      add\n      tag_143\n      swap2\n      swap1\n      tag_27\n      jump\t// in\n    tag_143:\n      mload(0x40)\n      dup1\n      swap2\n      sub\n      swap1\n      revert\n        /* \"@openzeppelin/contracts/access/Ownable.sol\":1851:1952  if (owner() != _msgSender()) {... */\n    tag_141:\n        /* \"@openzeppelin/contracts/access/Ownable.sol\":1796:1958  function _checkOwner() internal view virtual {... */\n      jump\t// out\n        /* \"@openzeppelin/contracts/access/Ownable.sol\":2912:3099  function _transferOwnership(address newOwner) internal virtual {... */\n    tag_81:\n        /* \"@openzeppelin/contracts/access/Ownable.sol\":2985:3001  address oldOwner */\n      0x00\n        /* \"@openzeppelin/contracts/access/Ownable.sol\":3004:3010  _owner */\n      dup1\n      0x00\n      swap1\n      sload\n      swap1\n      0x0100\n      exp\n      swap1\n      div\n      0xffffffffffffffffffffffffffffffffffffffff\n      and\n        /* \"@openzeppelin/contracts/access/Ownable.sol\":2985:3010  address oldOwner = _owner */\n      swap1\n      pop\n        /* \"@openzeppelin/contracts/access/Ownable.sol\":3029:3037  newOwner */\n      dup2\n        /* \"@openzeppelin/contracts/access/Ownable.sol\":3020:3026  _owner */\n      0x00\n      dup1\n        /* \"@openzeppelin/contracts/access/Ownable.sol\":3020:3037  _owner = newOwner */\n      0x0100\n      exp\n      dup2\n      sload\n      dup2\n      0xffffffffffffffffffffffffffffffffffffffff\n      mul\n      not\n      and\n      swap1\n      dup4\n      0xffffffffffffffffffffffffffffffffffffffff\n      and\n      mul\n      or\n      swap1\n      sstore\n      pop\n        /* \"@openzeppelin/contracts/access/Ownable.sol\":3083:3091  newOwner */\n      dup2\n        /* \"@openzeppelin/contracts/access/Ownable.sol\":3052:3092  OwnershipTransferred(oldOwner, newOwner) */\n      0xffffffffffffffffffffffffffffffffffffffff\n      and\n        /* \"@openzeppelin/contracts/access/Ownable.sol\":3073:3081  oldOwner */\n      dup2\n        /* \"@openzeppelin/contracts/access/Ownable.sol\":3052:3092  OwnershipTransferred(oldOwner, newOwner) */\n      0xffffffffffffffffffffffffffffffffffffffff\n      and\n      0x8be0079c531659141344cd1fd0a4f28419497f9722a3daafe3b4186f6b6457e0\n      mload(0x40)\n      mload(0x40)\n      dup1\n      swap2\n      sub\n      swap1\n      log3\n        /* \"@openzeppelin/contracts/access/Ownable.sol\":2975:3099  {... */\n      pop\n        /* \"@openzeppelin/contracts/access/Ownable.sol\":2912:3099  function _transferOwnership(address newOwner) internal virtual {... */\n      pop\n      jump\t// out\n        /* \"@openzeppelin/contracts/utils/Context.sol\":656:752  function _msgSender() internal view virtual returns (address) {... */\n    tag_139:\n        /* \"@openzeppelin/contracts/utils/Context.sol\":709:716  address */\n      0x00\n        /* \"@openzeppelin/contracts/utils/Context.sol\":735:745  msg.sender */\n      caller\n        /* \"@openzeppelin/contracts/utils/Context.sol\":728:745  return msg.sender */\n      swap1\n      pop\n        /* \"@openzeppelin/contracts/utils/Context.sol\":656:752  function _msgSender() internal view virtual returns (address) {... */\n      swap1\n      jump\t// out\n        /* \"#utility.yul\":7:106   */\n    tag_146:\n        /* \"#utility.yul\":59:65   */\n      0x00\n        /* \"#utility.yul\":93:98   */\n      dup2\n        /* \"#utility.yul\":87:99   */\n      mload\n        /* \"#utility.yul\":77:99   */\n      swap1\n      pop\n        /* \"#utility.yul\":7:106   */\n      swap2\n      swap1\n      pop\n      jump\t// out\n        /* \"#utility.yul\":112:281   */\n    tag_147:\n        /* \"#utility.yul\":196:207   */\n      0x00\n        /* \"#utility.yul\":230:236   */\n      dup3\n        /* \"#utility.yul\":225:228   */\n      dup3\n        /* \"#utility.yul\":218:237   */\n      mstore\n        /* \"#utility.yul\":270:274   */\n      0x20\n        /* \"#utility.yul\":265:268   */\n      dup3\n        /* \"#utility.yul\":261:275   */\n      add\n        /* \"#utility.yul\":246:275   */\n      swap1\n      pop\n        /* \"#utility.yul\":112:281   */\n      swap3\n      swap2\n      pop\n      pop\n      jump\t// out\n        /* \"#utility.yul\":287:426   */\n    tag_148:\n        /* \"#utility.yul\":376:382   */\n      dup3\n        /* \"#utility.yul\":371:374   */\n      dup2\n        /* \"#utility.yul\":366:369   */\n      dup4\n        /* \"#utility.yul\":360:383   */\n      mcopy\n        /* \"#utility.yul\":417:418   */\n      0x00\n        /* \"#utility.yul\":408:414   */\n      dup4\n        /* \"#utility.yul\":403:406   */\n      dup4\n        /* \"#utility.yul\":399:415   */\n      add\n        /* \"#utility.yul\":392:419   */\n      mstore\n        /* \"#utility.yul\":287:426   */\n      pop\n      pop\n      pop\n      jump\t// out\n        /* \"#utility.yul\":432:534   */\n    tag_149:\n        /* \"#utility.yul\":473:479   */\n      0x00\n        /* \"#utility.yul\":524:526   */\n      0x1f\n        /* \"#utility.yul\":520:527   */\n      not\n        /* \"#utility.yul\":515:517   */\n      0x1f\n        /* \"#utility.yul\":508:513   */\n      dup4\n        /* \"#utility.yul\":504:518   */\n      add\n        /* \"#utility.yul\":500:528   */\n      and\n        /* \"#utility.yul\":490:528   */\n      swap1\n      pop\n        /* \"#utility.yul\":432:534   */\n      swap2\n      swap1\n      pop\n      jump\t// out\n        /* \"#utility.yul\":540:917   */\n    tag_150:\n        /* \"#utility.yul\":628:631   */\n      0x00\n        /* \"#utility.yul\":656:695   */\n      tag_188\n        /* \"#utility.yul\":689:694   */\n      dup3\n        /* \"#utility.yul\":656:695   */\n      tag_146\n      jump\t// in\n    tag_188:\n        /* \"#utility.yul\":711:782   */\n      tag_189\n        /* \"#utility.yul\":775:781   */\n      dup2\n        /* \"#utility.yul\":770:773   */\n      dup6\n        /* \"#utility.yul\":711:782   */\n      tag_147\n      jump\t// in\n    tag_189:\n        /* \"#utility.yul\":704:782   */\n      swap4\n      pop\n        /* \"#utility.yul\":791:856   */\n      tag_190\n        /* \"#utility.yul\":849:855   */\n      dup2\n        /* \"#utility.yul\":844:847   */\n      dup6\n        /* \"#utility.yul\":837:841   */\n      0x20\n        /* \"#utility.yul\":830:835   */\n      dup7\n        /* \"#utility.yul\":826:842   */\n      add\n        /* \"#utility.yul\":791:856   */\n      tag_148\n      jump\t// in\n    tag_190:\n        /* \"#utility.yul\":881:910   */\n      tag_191\n        /* \"#utility.yul\":903:909   */\n      dup2\n        /* \"#utility.yul\":881:910   */\n      tag_149\n      jump\t// in\n    tag_191:\n        /* \"#utility.yul\":876:879   */\n      dup5\n        /* \"#utility.yul\":872:911   */\n      add\n        /* \"#utility.yul\":865:911   */\n      swap2\n      pop\n        /* \"#utility.yul\":632:917   */\n      pop\n        /* \"#utility.yul\":540:917   */\n      swap3\n      swap2\n      pop\n      pop\n      jump\t// out\n        /* \"#utility.yul\":923:1236   */\n    tag_22:\n        /* \"#utility.yul\":1036:1040   */\n      0x00\n        /* \"#utility.yul\":1074:1076   */\n      0x20\n        /* \"#utility.yul\":1063:1072   */\n      dup3\n        /* \"#utility.yul\":1059:1077   */\n      add\n        /* \"#utility.yul\":1051:1077   */\n      swap1\n      pop\n        /* \"#utility.yul\":1123:1132   */\n      dup2\n        /* \"#utility.yul\":1117:1121   */\n      dup2\n        /* \"#utility.yul\":1113:1133   */\n      sub\n        /* \"#utility.yul\":1109:1110   */\n      0x00\n        /* \"#utility.yul\":1098:1107   */\n      dup4\n        /* \"#utility.yul\":1094:1111   */\n      add\n        /* \"#utility.yul\":1087:1134   */\n      mstore\n        /* \"#utility.yul\":1151:1229   */\n      tag_193\n        /* \"#utility.yul\":1224:1228   */\n      dup2\n        /* \"#utility.yul\":1215:1221   */\n      dup5\n        /* \"#utility.yul\":1151:1229   */\n      tag_150\n      jump\t// in\n    tag_193:\n        /* \"#utility.yul\":1143:1229   */\n      swap1\n      pop\n        /* \"#utility.yul\":923:1236   */\n      swap3\n      swap2\n      pop\n      pop\n      jump\t// out\n        /* \"#utility.yul\":1242:1368   */\n    tag_151:\n        /* \"#utility.yul\":1279:1286   */\n      0x00\n        /* \"#utility.yul\":1319:1361   */\n      0xffffffffffffffffffffffffffffffffffffffff\n        /* \"#utility.yul\":1312:1317   */\n      dup3\n        /* \"#utility.yul\":1308:1362   */\n      and\n        /* \"#utility.yul\":1297:1362   */\n      swap1\n      pop\n        /* \"#utility.yul\":1242:1368   */\n      swap2\n      swap1\n      pop\n      jump\t// out\n        /* \"#utility.yul\":1374:1470   */\n    tag_152:\n        /* \"#utility.yul\":1411:1418   */\n      0x00\n        /* \"#utility.yul\":1440:1464   */\n      tag_196\n        /* \"#utility.yul\":1458:1463   */\n      dup3\n        /* \"#utility.yul\":1440:1464   */\n      tag_151\n      jump\t// in\n    tag_196:\n        /* \"#utility.yul\":1429:1464   */\n      swap1\n      pop\n        /* \"#utility.yul\":1374:1470   */\n      swap2\n      swap1\n      pop\n      jump\t// out\n        /* \"#utility.yul\":1476:1594   */\n    tag_153:\n        /* \"#utility.yul\":1563:1587   */\n      tag_198\n        /* \"#utility.yul\":1581:1586   */\n      dup2\n        /* \"#utility.yul\":1563:1587   */\n      tag_152\n      jump\t// in\n    tag_198:\n        /* \"#utility.yul\":1558:1561   */\n      dup3\n        /* \"#utility.yul\":1551:1588   */\n      mstore\n        /* \"#utility.yul\":1476:1594   */\n      pop\n      pop\n      jump\t// out\n        /* \"#utility.yul\":1600:1822   */\n    tag_27:\n        /* \"#utility.yul\":1693:1697   */\n      0x00\n        /* \"#utility.yul\":1731:1733   */\n      0x20\n        /* \"#utility.yul\":1720:1729   */\n      dup3\n        /* \"#utility.yul\":1716:1734   */\n      add\n        /* \"#utility.yul\":1708:1734   */\n      swap1\n      pop\n        /* \"#utility.yul\":1744:1815   */\n      tag_200\n        /* \"#utility.yul\":1812:1813   */\n      0x00\n        /* \"#utility.yul\":1801:1810   */\n      dup4\n        /* \"#utility.yul\":1797:1814   */\n      add\n        /* \"#utility.yul\":1788:1794   */\n      dup5\n        /* \"#utility.yul\":1744:1815   */\n      tag_153\n      jump\t// in\n    tag_200:\n        /* \"#utility.yul\":1600:1822   */\n      swap3\n      swap2\n      pop\n      pop\n      jump\t// out\n        /* \"#utility.yul\":1828:1888   */\n    tag_154:\n        /* \"#utility.yul\":1856:1859   */\n      0x00\n        /* \"#utility.yul\":1877:1882   */\n      dup2\n        /* \"#utility.yul\":1870:1882   */\n      swap1\n      pop\n        /* \"#utility.yul\":1828:1888   */\n      swap2\n      swap1\n      pop\n      jump\t// out\n        /* \"#utility.yul\":1894:2036   */\n    tag_155:\n        /* \"#utility.yul\":1944:1953   */\n      0x00\n        /* \"#utility.yul\":1977:2030   */\n      tag_203\n        /* \"#utility.yul\":1995:2029   */\n      tag_204\n        /* \"#utility.yul\":2004:2028   */\n      tag_205\n        /* \"#utility.yul\":2022:2027   */\n      dup5\n        /* \"#utility.yul\":2004:2028   */\n      tag_151\n      jump\t// in\n    tag_205:\n        /* \"#utility.yul\":1995:2029   */\n      tag_154\n      jump\t// in\n    tag_204:\n        /* \"#utility.yul\":1977:2030   */\n      tag_151\n      jump\t// in\n    tag_203:\n        /* \"#utility.yul\":1964:2030   */\n      swap1\n      pop\n        /* \"#utility.yul\":1894:2036   */\n      swap2\n      swap1\n      pop\n      jump\t// out\n        /* \"#utility.yul\":2042:2168   */\n    tag_156:\n        /* \"#utility.yul\":2092:2101   */\n      0x00\n        /* \"#utility.yul\":2125:2162   */\n      tag_207\n        /* \"#utility.yul\":2156:2161   */\n      dup3\n        /* \"#utility.yul\":2125:2162   */\n      tag_155\n      jump\t// in\n    tag_207:\n        /* \"#utility.yul\":2112:2162   */\n      swap1\n      pop\n        /* \"#utility.yul\":2042:2168   */\n      swap2\n      swap1\n      pop\n      jump\t// out\n        /* \"#utility.yul\":2174:2325   */\n    tag_157:\n        /* \"#utility.yul\":2249:2258   */\n      0x00\n        /* \"#utility.yul\":2282:2319   */\n      tag_209\n        /* \"#utility.yul\":2313:2318   */\n      dup3\n        /* \"#utility.yul\":2282:2319   */\n      tag_156\n      jump\t// in\n    tag_209:\n        /* \"#utility.yul\":2269:2319   */\n      swap1\n      pop\n        /* \"#utility.yul\":2174:2325   */\n      swap2\n      swap1\n      pop\n      jump\t// out\n        /* \"#utility.yul\":2331:2512   */\n    tag_158:\n        /* \"#utility.yul\":2443:2505   */\n      tag_211\n        /* \"#utility.yul\":2499:2504   */\n      dup2\n        /* \"#utility.yul\":2443:2505   */\n      tag_157\n      jump\t// in\n    tag_211:\n        /* \"#utility.yul\":2438:2441   */\n      dup3\n        /* \"#utility.yul\":2431:2506   */\n      mstore\n        /* \"#utility.yul\":2331:2512   */\n      pop\n      pop\n      jump\t// out\n        /* \"#utility.yul\":2518:2790   */\n    tag_32:\n        /* \"#utility.yul\":2636:2640   */\n      0x00\n        /* \"#utility.yul\":2674:2676   */\n      0x20\n        /* \"#utility.yul\":2663:2672   */\n      dup3\n        /* \"#utility.yul\":2659:2677   */\n      add\n        /* \"#utility.yul\":2651:2677   */\n      swap1\n      pop\n        /* \"#utility.yul\":2687:2783   */\n      tag_213\n        /* \"#utility.yul\":2780:2781   */\n      0x00\n        /* \"#utility.yul\":2769:2778   */\n      dup4\n        /* \"#utility.yul\":2765:2782   */\n      add\n        /* \"#utility.yul\":2756:2762   */\n      dup5\n        /* \"#utility.yul\":2687:2783   */\n      tag_158\n      jump\t// in\n    tag_213:\n        /* \"#utility.yul\":2518:2790   */\n      swap3\n      swap2\n      pop\n      pop\n      jump\t// out\n        /* \"#utility.yul\":2796:2886   */\n    tag_159:\n        /* \"#utility.yul\":2830:2837   */\n      0x00\n        /* \"#utility.yul\":2873:2878   */\n      dup2\n        /* \"#utility.yul\":2866:2879   */\n      iszero\n        /* \"#utility.yul\":2859:2880   */\n      iszero\n        /* \"#utility.yul\":2848:2880   */\n      swap1\n      pop\n        /* \"#utility.yul\":2796:2886   */\n      swap2\n      swap1\n      pop\n      jump\t// out\n        /* \"#utility.yul\":2892:3001   */\n    tag_160:\n        /* \"#utility.yul\":2973:2994   */\n      tag_216\n        /* \"#utility.yul\":2988:2993   */\n      dup2\n        /* \"#utility.yul\":2973:2994   */\n      tag_159\n      jump\t// in\n    tag_216:\n        /* \"#utility.yul\":2968:2971   */\n      dup3\n        /* \"#utility.yul\":2961:2995   */\n      mstore\n        /* \"#utility.yul\":2892:3001   */\n      pop\n      pop\n      jump\t// out\n        /* \"#utility.yul\":3007:3217   */\n    tag_40:\n        /* \"#utility.yul\":3094:3098   */\n      0x00\n        /* \"#utility.yul\":3132:3134   */\n      0x20\n        /* \"#utility.yul\":3121:3130   */\n      dup3\n        /* \"#utility.yul\":3117:3135   */\n      add\n        /* \"#utility.yul\":3109:3135   */\n      swap1\n      pop\n        /* \"#utility.yul\":3145:3210   */\n      tag_218\n        /* \"#utility.yul\":3207:3208   */\n      0x00\n        /* \"#utility.yul\":3196:3205   */\n      dup4\n        /* \"#utility.yul\":3192:3209   */\n      add\n        /* \"#utility.yul\":3183:3189   */\n      dup5\n        /* \"#utility.yul\":3145:3210   */\n      tag_160\n      jump\t// in\n    tag_218:\n        /* \"#utility.yul\":3007:3217   */\n      swap3\n      swap2\n      pop\n      pop\n      jump\t// out\n        /* \"#utility.yul\":3304:3421   */\n    tag_162:\n        /* \"#utility.yul\":3413:3414   */\n      0x00\n        /* \"#utility.yul\":3410:3411   */\n      dup1\n        /* \"#utility.yul\":3403:3415   */\n      revert\n        /* \"#utility.yul\":3427:3544   */\n    tag_163:\n        /* \"#utility.yul\":3536:3537   */\n      0x00\n        /* \"#utility.yul\":3533:3534   */\n      dup1\n        /* \"#utility.yul\":3526:3538   */\n      revert\n        /* \"#utility.yul\":3550:3672   */\n    tag_164:\n        /* \"#utility.yul\":3623:3647   */\n      tag_223\n        /* \"#utility.yul\":3641:3646   */\n      dup2\n        /* \"#utility.yul\":3623:3647   */\n      tag_152\n      jump\t// in\n    tag_223:\n        /* \"#utility.yul\":3616:3621   */\n      dup2\n        /* \"#utility.yul\":3613:3648   */\n      eq\n        /* \"#utility.yul\":3603:3666   */\n      tag_224\n      jumpi\n        /* \"#utility.yul\":3662:3663   */\n      0x00\n        /* \"#utility.yul\":3659:3660   */\n      dup1\n        /* \"#utility.yul\":3652:3664   */\n      revert\n        /* \"#utility.yul\":3603:3666   */\n    tag_224:\n        /* \"#utility.yul\":3550:3672   */\n      pop\n      jump\t// out\n        /* \"#utility.yul\":3678:3817   */\n    tag_165:\n        /* \"#utility.yul\":3724:3729   */\n      0x00\n        /* \"#utility.yul\":3762:3768   */\n      dup2\n        /* \"#utility.yul\":3749:3769   */\n      calldataload\n        /* \"#utility.yul\":3740:3769   */\n      swap1\n      pop\n        /* \"#utility.yul\":3778:3811   */\n      tag_226\n        /* \"#utility.yul\":3805:3810   */\n      dup2\n        /* \"#utility.yul\":3778:3811   */\n      tag_164\n      jump\t// in\n    tag_226:\n        /* \"#utility.yul\":3678:3817   */\n      swap3\n      swap2\n      pop\n      pop\n      jump\t// out\n        /* \"#utility.yul\":3823:4152   */\n    tag_48:\n        /* \"#utility.yul\":3882:3888   */\n      0x00\n        /* \"#utility.yul\":3931:3933   */\n      0x20\n        /* \"#utility.yul\":3919:3928   */\n      dup3\n        /* \"#utility.yul\":3910:3917   */\n      dup5\n        /* \"#utility.yul\":3906:3929   */\n      sub\n        /* \"#utility.yul\":3902:3934   */\n      slt\n        /* \"#utility.yul\":3899:4018   */\n      iszero\n      tag_228\n      jumpi\n        /* \"#utility.yul\":3937:4016   */\n      tag_229\n      tag_162\n      jump\t// in\n    tag_229:\n        /* \"#utility.yul\":3899:4018   */\n    tag_228:\n        /* \"#utility.yul\":4057:4058   */\n      0x00\n        /* \"#utility.yul\":4082:4135   */\n      tag_230\n        /* \"#utility.yul\":4127:4134   */\n      dup5\n        /* \"#utility.yul\":4118:4124   */\n      dup3\n        /* \"#utility.yul\":4107:4116   */\n      dup6\n        /* \"#utility.yul\":4103:4125   */\n      add\n        /* \"#utility.yul\":4082:4135   */\n      tag_165\n      jump\t// in\n    tag_230:\n        /* \"#utility.yul\":4072:4135   */\n      swap2\n      pop\n        /* \"#utility.yul\":4028:4145   */\n      pop\n        /* \"#utility.yul\":3823:4152   */\n      swap3\n      swap2\n      pop\n      pop\n      jump\t// out\n        /* \"#utility.yul\":4158:4235   */\n    tag_166:\n        /* \"#utility.yul\":4195:4202   */\n      0x00\n        /* \"#utility.yul\":4224:4229   */\n      dup2\n        /* \"#utility.yul\":4213:4229   */\n      swap1\n      pop\n        /* \"#utility.yul\":4158:4235   */\n      swap2\n      swap1\n      pop\n      jump\t// out\n        /* \"#utility.yul\":4241:4363   */\n    tag_167:\n        /* \"#utility.yul\":4314:4338   */\n      tag_233\n        /* \"#utility.yul\":4332:4337   */\n      dup2\n        /* \"#utility.yul\":4314:4338   */\n      tag_166\n      jump\t// in\n    tag_233:\n        /* \"#utility.yul\":4307:4312   */\n      dup2\n        /* \"#utility.yul\":4304:4339   */\n      eq\n        /* \"#utility.yul\":4294:4357   */\n      tag_234\n      jumpi\n        /* \"#utility.yul\":4353:4354   */\n      0x00\n        /* \"#utility.yul\":4350:4351   */\n      dup1\n        /* \"#utility.yul\":4343:4355   */\n      revert\n        /* \"#utility.yul\":4294:4357   */\n    tag_234:\n        /* \"#utility.yul\":4241:4363   */\n      pop\n      jump\t// out\n        /* \"#utility.yul\":4369:4508   */\n    tag_168:\n        /* \"#utility.yul\":4415:4420   */\n      0x00\n        /* \"#utility.yul\":4453:4459   */\n      dup2\n        /* \"#utility.yul\":4440:4460   */\n      calldataload\n        /* \"#utility.yul\":4431:4460   */\n      swap1\n      pop\n        /* \"#utility.yul\":4469:4502   */\n      tag_236\n        /* \"#utility.yul\":4496:4501   */\n      dup2\n        /* \"#utility.yul\":4469:4502   */\n      tag_167\n      jump\t// in\n    tag_236:\n        /* \"#utility.yul\":4369:4508   */\n      swap3\n      swap2\n      pop\n      pop\n      jump\t// out\n        /* \"#utility.yul\":4514:4988   */\n    tag_60:\n        /* \"#utility.yul\":4582:4588   */\n      0x00\n        /* \"#utility.yul\":4590:4596   */\n      dup1\n        /* \"#utility.yul\":4639:4641   */\n      0x40\n        /* \"#utility.yul\":4627:4636   */\n      dup4\n        /* \"#utility.yul\":4618:4625   */\n      dup6\n        /* \"#utility.yul\":4614:4637   */\n      sub\n        /* \"#utility.yul\":4610:4642   */\n      slt\n        /* \"#utility.yul\":4607:4726   */\n      iszero\n      tag_238\n      jumpi\n        /* \"#utility.yul\":4645:4724   */\n      tag_239\n      tag_162\n      jump\t// in\n    tag_239:\n        /* \"#utility.yul\":4607:4726   */\n    tag_238:\n        /* \"#utility.yul\":4765:4766   */\n      0x00\n        /* \"#utility.yul\":4790:4843   */\n      tag_240\n        /* \"#utility.yul\":4835:4842   */\n      dup6\n        /* \"#utility.yul\":4826:4832   */\n      dup3\n        /* \"#utility.yul\":4815:4824   */\n      dup7\n        /* \"#utility.yul\":4811:4833   */\n      add\n        /* \"#utility.yul\":4790:4843   */\n      tag_165\n      jump\t// in\n    tag_240:\n        /* \"#utility.yul\":4780:4843   */\n      swap3\n      pop\n        /* \"#utility.yul\":4736:4853   */\n      pop\n        /* \"#utility.yul\":4892:4894   */\n      0x20\n        /* \"#utility.yul\":4918:4971   */\n      tag_241\n        /* \"#utility.yul\":4963:4970   */\n      dup6\n        /* \"#utility.yul\":4954:4960   */\n      dup3\n        /* \"#utility.yul\":4943:4952   */\n      dup7\n        /* \"#utility.yul\":4939:4961   */\n      add\n        /* \"#utility.yul\":4918:4971   */\n      tag_168\n      jump\t// in\n    tag_241:\n        /* \"#utility.yul\":4908:4971   */\n      swap2\n      pop\n        /* \"#utility.yul\":4863:4981   */\n      pop\n        /* \"#utility.yul\":4514:4988   */\n      swap3\n      pop\n      swap3\n      swap1\n      pop\n      jump\t// out\n        /* \"#utility.yul\":4994:5111   */\n    tag_169:\n        /* \"#utility.yul\":5103:5104   */\n      0x00\n        /* \"#utility.yul\":5100:5101   */\n      dup1\n        /* \"#utility.yul\":5093:5105   */\n      revert\n        /* \"#utility.yul\":5117:5234   */\n    tag_170:\n        /* \"#utility.yul\":5226:5227   */\n      0x00\n        /* \"#utility.yul\":5223:5224   */\n      dup1\n        /* \"#utility.yul\":5216:5228   */\n      revert\n        /* \"#utility.yul\":5240:5357   */\n    tag_171:\n        /* \"#utility.yul\":5349:5350   */\n      0x00\n        /* \"#utility.yul\":5346:5347   */\n      dup1\n        /* \"#utility.yul\":5339:5351   */\n      revert\n        /* \"#utility.yul\":5376:5928   */\n    tag_172:\n        /* \"#utility.yul\":5433:5441   */\n      0x00\n        /* \"#utility.yul\":5443:5449   */\n      dup1\n        /* \"#utility.yul\":5493:5496   */\n      dup4\n        /* \"#utility.yul\":5486:5490   */\n      0x1f\n        /* \"#utility.yul\":5478:5484   */\n      dup5\n        /* \"#utility.yul\":5474:5491   */\n      add\n        /* \"#utility.yul\":5470:5497   */\n      slt\n        /* \"#utility.yul\":5460:5582   */\n      tag_246\n      jumpi\n        /* \"#utility.yul\":5501:5580   */\n      tag_247\n      tag_169\n      jump\t// in\n    tag_247:\n        /* \"#utility.yul\":5460:5582   */\n    tag_246:\n        /* \"#utility.yul\":5614:5620   */\n      dup3\n        /* \"#utility.yul\":5601:5621   */\n      calldataload\n        /* \"#utility.yul\":5591:5621   */\n      swap1\n      pop\n        /* \"#utility.yul\":5644:5662   */\n      0xffffffffffffffff\n        /* \"#utility.yul\":5636:5642   */\n      dup2\n        /* \"#utility.yul\":5633:5663   */\n      gt\n        /* \"#utility.yul\":5630:5747   */\n      iszero\n      tag_248\n      jumpi\n        /* \"#utility.yul\":5666:5745   */\n      tag_249\n      tag_170\n      jump\t// in\n    tag_249:\n        /* \"#utility.yul\":5630:5747   */\n    tag_248:\n        /* \"#utility.yul\":5780:5784   */\n      0x20\n        /* \"#utility.yul\":5772:5778   */\n      dup4\n        /* \"#utility.yul\":5768:5785   */\n      add\n        /* \"#utility.yul\":5756:5785   */\n      swap2\n      pop\n        /* \"#utility.yul\":5834:5837   */\n      dup4\n        /* \"#utility.yul\":5826:5830   */\n      0x01\n        /* \"#utility.yul\":5818:5824   */\n      dup3\n        /* \"#utility.yul\":5814:5831   */\n      mul\n        /* \"#utility.yul\":5804:5812   */\n      dup4\n        /* \"#utility.yul\":5800:5832   */\n      add\n        /* \"#utility.yul\":5797:5838   */\n      gt\n        /* \"#utility.yul\":5794:5922   */\n      iszero\n      tag_250\n      jumpi\n        /* \"#utility.yul\":5841:5920   */\n      tag_251\n      tag_171\n      jump\t// in\n    tag_251:\n        /* \"#utility.yul\":5794:5922   */\n    tag_250:\n        /* \"#utility.yul\":5376:5928   */\n      swap3\n      pop\n      swap3\n      swap1\n      pop\n      jump\t// out\n        /* \"#utility.yul\":5934:6606   */\n    tag_68:\n        /* \"#utility.yul\":6013:6019   */\n      0x00\n        /* \"#utility.yul\":6021:6027   */\n      dup1\n        /* \"#utility.yul\":6029:6035   */\n      0x00\n        /* \"#utility.yul\":6078:6080   */\n      0x40\n        /* \"#utility.yul\":6066:6075   */\n      dup5\n        /* \"#utility.yul\":6057:6064   */\n      dup7\n        /* \"#utility.yul\":6053:6076   */\n      sub\n        /* \"#utility.yul\":6049:6081   */\n      slt\n        /* \"#utility.yul\":6046:6165   */\n      iszero\n      tag_253\n      jumpi\n        /* \"#utility.yul\":6084:6163   */\n      tag_254\n      tag_162\n      jump\t// in\n    tag_254:\n        /* \"#utility.yul\":6046:6165   */\n    tag_253:\n        /* \"#utility.yul\":6232:6233   */\n      0x00\n        /* \"#utility.yul\":6221:6230   */\n      dup5\n        /* \"#utility.yul\":6217:6234   */\n      add\n        /* \"#utility.yul\":6204:6235   */\n      calldataload\n        /* \"#utility.yul\":6262:6280   */\n      0xffffffffffffffff\n        /* \"#utility.yul\":6254:6260   */\n      dup2\n        /* \"#utility.yul\":6251:6281   */\n      gt\n        /* \"#utility.yul\":6248:6365   */\n      iszero\n      tag_255\n      jumpi\n        /* \"#utility.yul\":6284:6363   */\n      tag_256\n      tag_163\n      jump\t// in\n    tag_256:\n        /* \"#utility.yul\":6248:6365   */\n    tag_255:\n        /* \"#utility.yul\":6397:6461   */\n      tag_257\n        /* \"#utility.yul\":6453:6460   */\n      dup7\n        /* \"#utility.yul\":6444:6450   */\n      dup3\n        /* \"#utility.yul\":6433:6442   */\n      dup8\n        /* \"#utility.yul\":6429:6451   */\n      add\n        /* \"#utility.yul\":6397:6461   */\n      tag_172\n      jump\t// in\n    tag_257:\n        /* \"#utility.yul\":6379:6461   */\n      swap4\n      pop\n      swap4\n      pop\n        /* \"#utility.yul\":6175:6471   */\n      pop\n        /* \"#utility.yul\":6510:6512   */\n      0x20\n        /* \"#utility.yul\":6536:6589   */\n      tag_258\n        /* \"#utility.yul\":6581:6588   */\n      dup7\n        /* \"#utility.yul\":6572:6578   */\n      dup3\n        /* \"#utility.yul\":6561:6570   */\n      dup8\n        /* \"#utility.yul\":6557:6579   */\n      add\n        /* \"#utility.yul\":6536:6589   */\n      tag_168\n      jump\t// in\n    tag_258:\n        /* \"#utility.yul\":6526:6589   */\n      swap2\n      pop\n        /* \"#utility.yul\":6481:6599   */\n      pop\n        /* \"#utility.yul\":5934:6606   */\n      swap3\n      pop\n      swap3\n      pop\n      swap3\n      jump\t// out\n        /* \"#utility.yul\":6612:6792   */\n    tag_173:\n        /* \"#utility.yul\":6660:6737   */\n      0x4e487b7100000000000000000000000000000000000000000000000000000000\n        /* \"#utility.yul\":6657:6658   */\n      0x00\n        /* \"#utility.yul\":6650:6738   */\n      mstore\n        /* \"#utility.yul\":6757:6761   */\n      0x22\n        /* \"#utility.yul\":6754:6755   */\n      0x04\n        /* \"#utility.yul\":6747:6762   */\n      mstore\n        /* \"#utility.yul\":6781:6785   */\n      0x24\n        /* \"#utility.yul\":6778:6779   */\n      0x00\n        /* \"#utility.yul\":6771:6786   */\n      revert\n        /* \"#utility.yul\":6798:7118   */\n    tag_71:\n        /* \"#utility.yul\":6842:6848   */\n      0x00\n        /* \"#utility.yul\":6879:6880   */\n      0x02\n        /* \"#utility.yul\":6873:6877   */\n      dup3\n        /* \"#utility.yul\":6869:6881   */\n      div\n        /* \"#utility.yul\":6859:6881   */\n      swap1\n      pop\n        /* \"#utility.yul\":6926:6927   */\n      0x01\n        /* \"#utility.yul\":6920:6924   */\n      dup3\n        /* \"#utility.yul\":6916:6928   */\n      and\n        /* \"#utility.yul\":6947:6965   */\n      dup1\n        /* \"#utility.yul\":6937:7018   */\n      tag_261\n      jumpi\n        /* \"#utility.yul\":7003:7007   */\n      0x7f\n        /* \"#utility.yul\":6995:7001   */\n      dup3\n        /* \"#utility.yul\":6991:7008   */\n      and\n        /* \"#utility.yul\":6981:7008   */\n      swap2\n      pop\n        /* \"#utility.yul\":6937:7018   */\n    tag_261:\n        /* \"#utility.yul\":7065:7067   */\n      0x20\n        /* \"#utility.yul\":7057:7063   */\n      dup3\n        /* \"#utility.yul\":7054:7068   */\n      lt\n        /* \"#utility.yul\":7034:7052   */\n      dup2\n        /* \"#utility.yul\":7031:7069   */\n      sub\n        /* \"#utility.yul\":7028:7112   */\n      tag_262\n      jumpi\n        /* \"#utility.yul\":7084:7102   */\n      tag_263\n      tag_173\n      jump\t// in\n    tag_263:\n        /* \"#utility.yul\":7028:7112   */\n    tag_262:\n        /* \"#utility.yul\":6849:7118   */\n      pop\n        /* \"#utility.yul\":6798:7118   */\n      swap2\n      swap1\n      pop\n      jump\t// out\n        /* \"#utility.yul\":7124:7240   */\n    tag_174:\n        /* \"#utility.yul\":7194:7215   */\n      tag_265\n        /* \"#utility.yul\":7209:7214   */\n      dup2\n        /* \"#utility.yul\":7194:7215   */\n      tag_159\n      jump\t// in\n    tag_265:\n        /* \"#utility.yul\":7187:7192   */\n      dup2\n        /* \"#utility.yul\":7184:7216   */\n      eq\n        /* \"#utility.yul\":7174:7234   */\n      tag_266\n      jumpi\n        /* \"#utility.yul\":7230:7231   */\n      0x00\n        /* \"#utility.yul\":7227:7228   */\n      dup1\n        /* \"#utility.yul\":7220:7232   */\n      revert\n        /* \"#utility.yul\":7174:7234   */\n    tag_266:\n        /* \"#utility.yul\":7124:7240   */\n      pop\n      jump\t// out\n        /* \"#utility.yul\":7246:7383   */\n    tag_175:\n        /* \"#utility.yul\":7300:7305   */\n      0x00\n        /* \"#utility.yul\":7331:7337   */\n      dup2\n        /* \"#utility.yul\":7325:7338   */\n      mload\n        /* \"#utility.yul\":7316:7338   */\n      swap1\n      pop\n        /* \"#utility.yul\":7347:7377   */\n      tag_268\n        /* \"#utility.yul\":7371:7376   */\n      dup2\n        /* \"#utility.yul\":7347:7377   */\n      tag_174\n      jump\t// in\n    tag_268:\n        /* \"#utility.yul\":7246:7383   */\n      swap3\n      swap2\n      pop\n      pop\n      jump\t// out\n        /* \"#utility.yul\":7389:7734   */\n    tag_88:\n        /* \"#utility.yul\":7456:7462   */\n      0x00\n        /* \"#utility.yul\":7505:7507   */\n      0x20\n        /* \"#utility.yul\":7493:7502   */\n      dup3\n        /* \"#utility.yul\":7484:7491   */\n      dup5\n        /* \"#utility.yul\":7480:7503   */\n      sub\n        /* \"#utility.yul\":7476:7508   */\n      slt\n        /* \"#utility.yul\":7473:7592   */\n      iszero\n      tag_270\n      jumpi\n        /* \"#utility.yul\":7511:7590   */\n      tag_271\n      tag_162\n      jump\t// in\n    tag_271:\n        /* \"#utility.yul\":7473:7592   */\n    tag_270:\n        /* \"#utility.yul\":7631:7632   */\n      0x00\n        /* \"#utility.yul\":7656:7717   */\n      tag_272\n        /* \"#utility.yul\":7709:7716   */\n      dup5\n        /* \"#utility.yul\":7700:7706   */\n      dup3\n        /* \"#utility.yul\":7689:7698   */\n      dup6\n        /* \"#utility.yul\":7685:7707   */\n      add\n        /* \"#utility.yul\":7656:7717   */\n      tag_175\n      jump\t// in\n    tag_272:\n        /* \"#utility.yul\":7646:7717   */\n      swap2\n      pop\n        /* \"#utility.yul\":7602:7727   */\n      pop\n        /* \"#utility.yul\":7389:7734   */\n      swap3\n      swap2\n      pop\n      pop\n      jump\t// out\n        /* \"#utility.yul\":7740:7858   */\n    tag_176:\n        /* \"#utility.yul\":7827:7851   */\n      tag_274\n        /* \"#utility.yul\":7845:7850   */\n      dup2\n        /* \"#utility.yul\":7827:7851   */\n      tag_166\n      jump\t// in\n    tag_274:\n        /* \"#utility.yul\":7822:7825   */\n      dup3\n        /* \"#utility.yul\":7815:7852   */\n      mstore\n        /* \"#utility.yul\":7740:7858   */\n      pop\n      pop\n      jump\t// out\n        /* \"#utility.yul\":7864:8196   */\n    tag_111:\n        /* \"#utility.yul\":7985:7989   */\n      0x00\n        /* \"#utility.yul\":8023:8025   */\n      0x40\n        /* \"#utility.yul\":8012:8021   */\n      dup3\n        /* \"#utility.yul\":8008:8026   */\n      add\n        /* \"#utility.yul\":8000:8026   */\n      swap1\n      pop\n        /* \"#utility.yul\":8036:8107   */\n      tag_276\n        /* \"#utility.yul\":8104:8105   */\n      0x00\n        /* \"#utility.yul\":8093:8102   */\n      dup4\n        /* \"#utility.yul\":8089:8106   */\n      add\n        /* \"#utility.yul\":8080:8086   */\n      dup6\n        /* \"#utility.yul\":8036:8107   */\n      tag_153\n      jump\t// in\n    tag_276:\n        /* \"#utility.yul\":8117:8189   */\n      tag_277\n        /* \"#utility.yul\":8185:8187   */\n      0x20\n        /* \"#utility.yul\":8174:8183   */\n      dup4\n        /* \"#utility.yul\":8170:8188   */\n      add\n        /* \"#utility.yul\":8161:8167   */\n      dup5\n        /* \"#utility.yul\":8117:8189   */\n      tag_176\n      jump\t// in\n    tag_277:\n        /* \"#utility.yul\":7864:8196   */\n      swap4\n      swap3\n      pop\n      pop\n      pop\n      jump\t// out\n        /* \"#utility.yul\":8202:8343   */\n    tag_177:\n        /* \"#utility.yul\":8251:8255   */\n      0x00\n        /* \"#utility.yul\":8274:8277   */\n      dup2\n        /* \"#utility.yul\":8266:8277   */\n      swap1\n      pop\n        /* \"#utility.yul\":8297:8300   */\n      dup2\n        /* \"#utility.yul\":8294:8295   */\n      0x00\n        /* \"#utility.yul\":8287:8301   */\n      mstore\n        /* \"#utility.yul\":8331:8335   */\n      0x20\n        /* \"#utility.yul\":8328:8329   */\n      0x00\n        /* \"#utility.yul\":8318:8336   */\n      keccak256\n        /* \"#utility.yul\":8310:8336   */\n      swap1\n      pop\n        /* \"#utility.yul\":8202:8343   */\n      swap2\n      swap1\n      pop\n      jump\t// out\n        /* \"#utility.yul\":8373:9204   */\n    tag_178:\n        /* \"#utility.yul\":8458:8461   */\n      0x00\n        /* \"#utility.yul\":8495:8500   */\n      dup2\n        /* \"#utility.yul\":8489:8501   */\n      sload\n        /* \"#utility.yul\":8524:8560   */\n      tag_280\n        /* \"#utility.yul\":8550:8559   */\n      dup2\n        /* \"#utility.yul\":8524:8560   */\n      tag_71\n      jump\t// in\n    tag_280:\n        /* \"#utility.yul\":8576:8647   */\n      tag_281\n        /* \"#utility.yul\":8640:8646   */\n      dup2\n        /* \"#utility.yul\":8635:8638   */\n      dup7\n        /* \"#utility.yul\":8576:8647   */\n      tag_147\n      jump\t// in\n    tag_281:\n        /* \"#utility.yul\":8569:8647   */\n      swap5\n      pop\n        /* \"#utility.yul\":8678:8679   */\n      0x01\n        /* \"#utility.yul\":8667:8676   */\n      dup3\n        /* \"#utility.yul\":8663:8680   */\n      and\n        /* \"#utility.yul\":8694:8695   */\n      0x00\n        /* \"#utility.yul\":8689:8853   */\n      dup2\n      eq\n      tag_283\n      jumpi\n        /* \"#utility.yul\":8867:8868   */\n      0x01\n        /* \"#utility.yul\":8862:9198   */\n      dup2\n      eq\n      tag_284\n      jumpi\n        /* \"#utility.yul\":8656:9198   */\n      jump(tag_282)\n        /* \"#utility.yul\":8689:8853   */\n    tag_283:\n        /* \"#utility.yul\":8773:8777   */\n      0xff\n        /* \"#utility.yul\":8769:8778   */\n      not\n        /* \"#utility.yul\":8758:8767   */\n      dup4\n        /* \"#utility.yul\":8754:8779   */\n      and\n        /* \"#utility.yul\":8749:8752   */\n      dup7\n        /* \"#utility.yul\":8742:8780   */\n      mstore\n        /* \"#utility.yul\":8833:8839   */\n      dup2\n        /* \"#utility.yul\":8826:8840   */\n      iszero\n        /* \"#utility.yul\":8819:8841   */\n      iszero\n        /* \"#utility.yul\":8813:8817   */\n      0x20\n        /* \"#utility.yul\":8809:8842   */\n      mul\n        /* \"#utility.yul\":8804:8807   */\n      dup7\n        /* \"#utility.yul\":8800:8843   */\n      add\n        /* \"#utility.yul\":8793:8843   */\n      swap4\n      pop\n        /* \"#utility.yul\":8689:8853   */\n      jump(tag_282)\n        /* \"#utility.yul\":8862:9198   */\n    tag_284:\n        /* \"#utility.yul\":8929:8967   */\n      tag_285\n        /* \"#utility.yul\":8961:8966   */\n      dup6\n        /* \"#utility.yul\":8929:8967   */\n      tag_177\n      jump\t// in\n    tag_285:\n        /* \"#utility.yul\":8989:8990   */\n      0x00\n        /* \"#utility.yul\":9003:9157   */\n    tag_286:\n        /* \"#utility.yul\":9017:9023   */\n      dup4\n        /* \"#utility.yul\":9014:9015   */\n      dup2\n        /* \"#utility.yul\":9011:9024   */\n      lt\n        /* \"#utility.yul\":9003:9157   */\n      iszero\n      tag_288\n      jumpi\n        /* \"#utility.yul\":9091:9098   */\n      dup2\n        /* \"#utility.yul\":9085:9099   */\n      sload\n        /* \"#utility.yul\":9081:9082   */\n      dup2\n        /* \"#utility.yul\":9076:9079   */\n      dup10\n        /* \"#utility.yul\":9072:9083   */\n      add\n        /* \"#utility.yul\":9065:9100   */\n      mstore\n        /* \"#utility.yul\":9141:9142   */\n      0x01\n        /* \"#utility.yul\":9132:9139   */\n      dup3\n        /* \"#utility.yul\":9128:9143   */\n      add\n        /* \"#utility.yul\":9117:9143   */\n      swap2\n      pop\n        /* \"#utility.yul\":9039:9043   */\n      0x20\n        /* \"#utility.yul\":9036:9037   */\n      dup2\n        /* \"#utility.yul\":9032:9044   */\n      add\n        /* \"#utility.yul\":9027:9044   */\n      swap1\n      pop\n        /* \"#utility.yul\":9003:9157   */\n      jump(tag_286)\n    tag_288:\n        /* \"#utility.yul\":9186:9187   */\n      dup1\n        /* \"#utility.yul\":9181:9184   */\n      dup9\n        /* \"#utility.yul\":9177:9188   */\n      add\n        /* \"#utility.yul\":9170:9188   */\n      swap6\n      pop\n        /* \"#utility.yul\":8869:9198   */\n      pop\n      pop\n        /* \"#utility.yul\":8656:9198   */\n    tag_282:\n      pop\n        /* \"#utility.yul\":8462:9204   */\n      pop\n      pop\n        /* \"#utility.yul\":8373:9204   */\n      swap3\n      swap2\n      pop\n      pop\n      jump\t// out\n        /* \"#utility.yul\":9210:9308   */\n    tag_179:\n        /* \"#utility.yul\":9261:9267   */\n      0x00\n        /* \"#utility.yul\":9295:9300   */\n      dup2\n        /* \"#utility.yul\":9289:9301   */\n      mload\n        /* \"#utility.yul\":9279:9301   */\n      swap1\n      pop\n        /* \"#utility.yul\":9210:9308   */\n      swap2\n      swap1\n      pop\n      jump\t// out\n        /* \"#utility.yul\":9314:9482   */\n    tag_180:\n        /* \"#utility.yul\":9397:9408   */\n      0x00\n        /* \"#utility.yul\":9431:9437   */\n      dup3\n        /* \"#utility.yul\":9426:9429   */\n      dup3\n        /* \"#utility.yul\":9419:9438   */\n      mstore\n        /* \"#utility.yul\":9471:9475   */\n      0x20\n        /* \"#utility.yul\":9466:9469   */\n      dup3\n        /* \"#utility.yul\":9462:9476   */\n      add\n        /* \"#utility.yul\":9447:9476   */\n      swap1\n      pop\n        /* \"#utility.yul\":9314:9482   */\n      swap3\n      swap2\n      pop\n      pop\n      jump\t// out\n        /* \"#utility.yul\":9488:9861   */\n    tag_181:\n        /* \"#utility.yul\":9574:9577   */\n      0x00\n        /* \"#utility.yul\":9602:9640   */\n      tag_292\n        /* \"#utility.yul\":9634:9639   */\n      dup3\n        /* \"#utility.yul\":9602:9640   */\n      tag_179\n      jump\t// in\n    tag_292:\n        /* \"#utility.yul\":9656:9726   */\n      tag_293\n        /* \"#utility.yul\":9719:9725   */\n      dup2\n        /* \"#utility.yul\":9714:9717   */\n      dup6\n        /* \"#utility.yul\":9656:9726   */\n      tag_180\n      jump\t// in\n    tag_293:\n        /* \"#utility.yul\":9649:9726   */\n      swap4\n      pop\n        /* \"#utility.yul\":9735:9800   */\n      tag_294\n        /* \"#utility.yul\":9793:9799   */\n      dup2\n        /* \"#utility.yul\":9788:9791   */\n      dup6\n        /* \"#utility.yul\":9781:9785   */\n      0x20\n        /* \"#utility.yul\":9774:9779   */\n      dup7\n        /* \"#utility.yul\":9770:9786   */\n      add\n        /* \"#utility.yul\":9735:9800   */\n      tag_148\n      jump\t// in\n    tag_294:\n        /* \"#utility.yul\":9825:9854   */\n      tag_295\n        /* \"#utility.yul\":9847:9853   */\n      dup2\n        /* \"#utility.yul\":9825:9854   */\n      tag_149\n      jump\t// in\n    tag_295:\n        /* \"#utility.yul\":9820:9823   */\n      dup5\n        /* \"#utility.yul\":9816:9855   */\n      add\n        /* \"#utility.yul\":9809:9855   */\n      swap2\n      pop\n        /* \"#utility.yul\":9578:9861   */\n      pop\n        /* \"#utility.yul\":9488:9861   */\n      swap3\n      swap2\n      pop\n      pop\n      jump\t// out\n        /* \"#utility.yul\":9867:10788   */\n    tag_113:\n        /* \"#utility.yul\":10124:10128   */\n      0x00\n        /* \"#utility.yul\":10162:10165   */\n      0xa0\n        /* \"#utility.yul\":10151:10160   */\n      dup3\n        /* \"#utility.yul\":10147:10166   */\n      add\n        /* \"#utility.yul\":10139:10166   */\n      swap1\n      pop\n        /* \"#utility.yul\":10176:10247   */\n      tag_297\n        /* \"#utility.yul\":10244:10245   */\n      0x00\n        /* \"#utility.yul\":10233:10242   */\n      dup4\n        /* \"#utility.yul\":10229:10246   */\n      add\n        /* \"#utility.yul\":10220:10226   */\n      dup9\n        /* \"#utility.yul\":10176:10247   */\n      tag_153\n      jump\t// in\n    tag_297:\n        /* \"#utility.yul\":10294:10303   */\n      dup2\n        /* \"#utility.yul\":10288:10292   */\n      dup2\n        /* \"#utility.yul\":10284:10304   */\n      sub\n        /* \"#utility.yul\":10279:10281   */\n      0x20\n        /* \"#utility.yul\":10268:10277   */\n      dup4\n        /* \"#utility.yul\":10264:10282   */\n      add\n        /* \"#utility.yul\":10257:10305   */\n      mstore\n        /* \"#utility.yul\":10322:10397   */\n      tag_298\n        /* \"#utility.yul\":10392:10396   */\n      dup2\n        /* \"#utility.yul\":10383:10389   */\n      dup8\n        /* \"#utility.yul\":10322:10397   */\n      tag_178\n      jump\t// in\n    tag_298:\n        /* \"#utility.yul\":10314:10397   */\n      swap1\n      pop\n        /* \"#utility.yul\":10444:10453   */\n      dup2\n        /* \"#utility.yul\":10438:10442   */\n      dup2\n        /* \"#utility.yul\":10434:10454   */\n      sub\n        /* \"#utility.yul\":10429:10431   */\n      0x40\n        /* \"#utility.yul\":10418:10427   */\n      dup4\n        /* \"#utility.yul\":10414:10432   */\n      add\n        /* \"#utility.yul\":10407:10455   */\n      mstore\n        /* \"#utility.yul\":10472:10547   */\n      tag_299\n        /* \"#utility.yul\":10542:10546   */\n      dup2\n        /* \"#utility.yul\":10533:10539   */\n      dup7\n        /* \"#utility.yul\":10472:10547   */\n      tag_178\n      jump\t// in\n    tag_299:\n        /* \"#utility.yul\":10464:10547   */\n      swap1\n      pop\n        /* \"#utility.yul\":10594:10603   */\n      dup2\n        /* \"#utility.yul\":10588:10592   */\n      dup2\n        /* \"#utility.yul\":10584:10604   */\n      sub\n        /* \"#utility.yul\":10579:10581   */\n      0x60\n        /* \"#utility.yul\":10568:10577   */\n      dup4\n        /* \"#utility.yul\":10564:10582   */\n      add\n        /* \"#utility.yul\":10557:10605   */\n      mstore\n        /* \"#utility.yul\":10622:10698   */\n      tag_300\n        /* \"#utility.yul\":10693:10697   */\n      dup2\n        /* \"#utility.yul\":10684:10690   */\n      dup6\n        /* \"#utility.yul\":10622:10698   */\n      tag_181\n      jump\t// in\n    tag_300:\n        /* \"#utility.yul\":10614:10698   */\n      swap1\n      pop\n        /* \"#utility.yul\":10708:10781   */\n      tag_301\n        /* \"#utility.yul\":10776:10779   */\n      0x80\n        /* \"#utility.yul\":10765:10774   */\n      dup4\n        /* \"#utility.yul\":10761:10780   */\n      add\n        /* \"#utility.yul\":10752:10758   */\n      dup5\n        /* \"#utility.yul\":10708:10781   */\n      tag_153\n      jump\t// in\n    tag_301:\n        /* \"#utility.yul\":9867:10788   */\n      swap7\n      swap6\n      pop\n      pop\n      pop\n      pop\n      pop\n      pop\n      jump\t// out\n        /* \"#utility.yul\":10794:11493   */\n    tag_118:\n        /* \"#utility.yul\":10995:10999   */\n      0x00\n        /* \"#utility.yul\":11033:11035   */\n      0x60\n        /* \"#utility.yul\":11022:11031   */\n      dup3\n        /* \"#utility.yul\":11018:11036   */\n      add\n        /* \"#utility.yul\":11010:11036   */\n      swap1\n      pop\n        /* \"#utility.yul\":11082:11091   */\n      dup2\n        /* \"#utility.yul\":11076:11080   */\n      dup2\n        /* \"#utility.yul\":11072:11092   */\n      sub\n        /* \"#utility.yul\":11068:11069   */\n      0x00\n        /* \"#utility.yul\":11057:11066   */\n      dup4\n        /* \"#utility.yul\":11053:11070   */\n      add\n        /* \"#utility.yul\":11046:11093   */\n      mstore\n        /* \"#utility.yul\":11110:11185   */\n      tag_303\n        /* \"#utility.yul\":11180:11184   */\n      dup2\n        /* \"#utility.yul\":11171:11177   */\n      dup7\n        /* \"#utility.yul\":11110:11185   */\n      tag_178\n      jump\t// in\n    tag_303:\n        /* \"#utility.yul\":11102:11185   */\n      swap1\n      pop\n        /* \"#utility.yul\":11232:11241   */\n      dup2\n        /* \"#utility.yul\":11226:11230   */\n      dup2\n        /* \"#utility.yul\":11222:11242   */\n      sub\n        /* \"#utility.yul\":11217:11219   */\n      0x20\n        /* \"#utility.yul\":11206:11215   */\n      dup4\n        /* \"#utility.yul\":11202:11220   */\n      add\n        /* \"#utility.yul\":11195:11243   */\n      mstore\n        /* \"#utility.yul\":11260:11335   */\n      tag_304\n        /* \"#utility.yul\":11330:11334   */\n      dup2\n        /* \"#utility.yul\":11321:11327   */\n      dup6\n        /* \"#utility.yul\":11260:11335   */\n      tag_178\n      jump\t// in\n    tag_304:\n        /* \"#utility.yul\":11252:11335   */\n      swap1\n      pop\n        /* \"#utility.yul\":11382:11391   */\n      dup2\n        /* \"#utility.yul\":11376:11380   */\n      dup2\n        /* \"#utility.yul\":11372:11392   */\n      sub\n        /* \"#utility.yul\":11367:11369   */\n      0x40\n        /* \"#utility.yul\":11356:11365   */\n      dup4\n        /* \"#utility.yul\":11352:11370   */\n      add\n        /* \"#utility.yul\":11345:11393   */\n      mstore\n        /* \"#utility.yul\":11410:11486   */\n      tag_305\n        /* \"#utility.yul\":11481:11485   */\n      dup2\n        /* \"#utility.yul\":11472:11478   */\n      dup5\n        /* \"#utility.yul\":11410:11486   */\n      tag_181\n      jump\t// in\n    tag_305:\n        /* \"#utility.yul\":11402:11486   */\n      swap1\n      pop\n        /* \"#utility.yul\":10794:11493   */\n      swap5\n      swap4\n      pop\n      pop\n      pop\n      pop\n      jump\t// out\n\n    auxdata: 0xa2646970667358221220225f91a68c2c9ec7426d6573841002938ff1630a8655f4d3d13e58bf3d6daa2364736f6c634300081a0033\n}\n",
				"bytecode": {
					"linkReferences": {},
					"object": "60a060405234801561000f575f80fd5b50604051611939380380611939833981810160405281019061003191906103b8565b845f73ffffffffffffffffffffffffffffffffffffffff168173ffffffffffffffffffffffffffffffffffffffff16036100a2575f6040517f1e4fbdf70000000000000000000000000000000000000000000000000000000081526004016100999190610476565b60405180910390fd5b6100b18161015060201b60201c565b508360025f6101000a81548173ffffffffffffffffffffffffffffffffffffffff021916908373ffffffffffffffffffffffffffffffffffffffff1602179055508273ffffffffffffffffffffffffffffffffffffffff1660808173ffffffffffffffffffffffffffffffffffffffff16815250508160039081610135919061069c565b508060049081610145919061069c565b50505050505061076b565b5f805f9054906101000a900473ffffffffffffffffffffffffffffffffffffffff169050815f806101000a81548173ffffffffffffffffffffffffffffffffffffffff021916908373ffffffffffffffffffffffffffffffffffffffff1602179055508173ffffffffffffffffffffffffffffffffffffffff168173ffffffffffffffffffffffffffffffffffffffff167f8be0079c531659141344cd1fd0a4f28419497f9722a3daafe3b4186f6b6457e060405160405180910390a35050565b5f604051905090565b5f80fd5b5f80fd5b5f73ffffffffffffffffffffffffffffffffffffffff82169050919050565b5f61024b82610222565b9050919050565b61025b81610241565b8114610265575f80fd5b50565b5f8151905061027681610252565b92915050565b5f80fd5b5f80fd5b5f601f19601f8301169050919050565b7f4e487b71000000000000000000000000000000000000000000000000000000005f52604160045260245ffd5b6102ca82610284565b810181811067ffffffffffffffff821117156102e9576102e8610294565b5b80604052505050565b5f6102fb610211565b905061030782826102c1565b919050565b5f67ffffffffffffffff82111561032657610325610294565b5b61032f82610284565b9050602081019050919050565b8281835e5f83830152505050565b5f61035c6103578461030c565b6102f2565b90508281526020810184848401111561037857610377610280565b5b61038384828561033c565b509392505050565b5f82601f83011261039f5761039e61027c565b5b81516103af84826020860161034a565b91505092915050565b5f805f805f60a086880312156103d1576103d061021a565b5b5f6103de88828901610268565b95505060206103ef88828901610268565b945050604061040088828901610268565b935050606086015167ffffffffffffffff8111156104215761042061021e565b5b61042d8882890161038b565b925050608086015167ffffffffffffffff81111561044e5761044d61021e565b5b61045a8882890161038b565b9150509295509295909350565b61047081610241565b82525050565b5f6020820190506104895f830184610467565b92915050565b5f81519050919050565b7f4e487b71000000000000000000000000000000000000000000000000000000005f52602260045260245ffd5b5f60028204905060018216806104dd57607f821691505b6020821081036104f0576104ef610499565b5b50919050565b5f819050815f5260205f209050919050565b5f6020601f8301049050919050565b5f82821b905092915050565b5f600883026105527fffffffffffffffffffffffffffffffffffffffffffffffffffffffffffffffff82610517565b61055c8683610517565b95508019841693508086168417925050509392505050565b5f819050919050565b5f819050919050565b5f6105a061059b61059684610574565b61057d565b610574565b9050919050565b5f819050919050565b6105b983610586565b6105cd6105c5826105a7565b848454610523565b825550505050565b5f90565b6105e16105d5565b6105ec8184846105b0565b505050565b5b8181101561060f576106045f826105d9565b6001810190506105f2565b5050565b601f82111561065457610625816104f6565b61062e84610508565b8101602085101561063d578190505b61065161064985610508565b8301826105f1565b50505b505050565b5f82821c905092915050565b5f6106745f1984600802610659565b1980831691505092915050565b5f61068c8383610665565b9150826002028217905092915050565b6106a58261048f565b67ffffffffffffffff8111156106be576106bd610294565b5b6106c882546104c6565b6106d3828285610613565b5f60209050601f831160018114610704575f84156106f2578287015190505b6106fc8582610681565b865550610763565b601f198416610712866104f6565b5f5b8281101561073957848901518255600182019150602085019450602081019050610714565b868310156107565784890151610752601f891682610665565b8355505b6001600288020188555050505b505050505050565b6080516111af61078a5f395f818161032c015261077c01526111af5ff3fe6080604052600436106100aa575f3560e01c80639b85622c116100635780639b85622c1461019d578063bc95b3b1146101c5578063bcaf0d9a146101ef578063ca09c88514610219578063f2fde38b14610235578063f4bd456d1461025d576100b1565b806325d83b7a146100b55780634cae3185146100df5780636a22d8cc14610109578063715018a61461013357806385a2dd15146101495780638da5cb5b14610173576100b1565b366100b157005b5f80fd5b3480156100c0575f80fd5b506100c9610279565b6040516100d69190610c51565b60405180910390f35b3480156100ea575f80fd5b506100f3610305565b6040516101009190610cb0565b60405180910390f35b348015610114575f80fd5b5061011d61032a565b60405161012a9190610d24565b60405180910390f35b34801561013e575f80fd5b5061014761034e565b005b348015610154575f80fd5b5061015d610361565b60405161016a9190610d57565b60405180910390f35b34801561017e575f80fd5b506101876104ce565b6040516101949190610cb0565b60405180910390f35b3480156101a8575f80fd5b506101c360048036038101906101be9190610da2565b6104f5565b005b3480156101d0575f80fd5b506101d9610540565b6040516101e69190610c51565b60405180910390f35b3480156101fa575f80fd5b506102036105cc565b6040516102109190610cb0565b60405180910390f35b610233600480360381019061022e9190610e00565b6105f1565b005b348015610240575f80fd5b5061025b60048036038101906102569190610da2565b6108a4565b005b61027760048036038101906102729190610e9f565b610928565b005b6004805461028690610f29565b80601f01602080910402602001604051908101604052809291908181526020018280546102b290610f29565b80156102fd5780601f106102d4576101008083540402835291602001916102fd565b820191905f5260205f20905b8154815290600101906020018083116102e057829003601f168201915b505050505081565b60025f9054906101000a900473ffffffffffffffffffffffffffffffffffffffff1681565b7f000000000000000000000000000000000000000000000000000000000000000081565b610356610a92565b61035f5f610b19565b565b5f8073ffffffffffffffffffffffffffffffffffffffff1660015f9054906101000a900473ffffffffffffffffffffffffffffffffffffffff1673ffffffffffffffffffffffffffffffffffffffff16036103e8576040517ff37741d700000000000000000000000000000000000000000000000000000000815260040160405180910390fd5b5f60015f9054906101000a900473ffffffffffffffffffffffffffffffffffffffff1690508073ffffffffffffffffffffffffffffffffffffffff1663b166a09f336040518263ffffffff1660e01b81526004016104469190610cb0565b602060405180830381865afa158015610461573d5f803e3d5ffd5b505050506040513d601f19601f820116820180604052508101906104859190610f83565b6104c657336040517f32b2baa30000000000000000000000000000000000000000000000000000000081526004016104bd9190610cb0565b60405180910390fd5b600191505090565b5f805f9054906101000a900473ffffffffffffffffffffffffffffffffffffffff16905090565b6104fd610a92565b8060015f6101000a81548173ffffffffffffffffffffffffffffffffffffffff021916908373ffffffffffffffffffffffffffffffffffffffff16021790555050565b6003805461054d90610f29565b80601f016020809104026020016040519081016040528092919081815260200182805461057990610f29565b80156105c45780601f1061059b576101008083540402835291602001916105c4565b820191905f5260205f20905b8154815290600101906020018083116105a757829003601f168201915b505050505081565b60015f9054906101000a900473ffffffffffffffffffffffffffffffffffffffff1681565b5f73ffffffffffffffffffffffffffffffffffffffff1660015f9054906101000a900473ffffffffffffffffffffffffffffffffffffffff1673ffffffffffffffffffffffffffffffffffffffff1603610677576040517ff37741d700000000000000000000000000000000000000000000000000000000815260040160405180910390fd5b5f60015f9054906101000a900473ffffffffffffffffffffffffffffffffffffffff1690508073ffffffffffffffffffffffffffffffffffffffff1663b166a09f336040518263ffffffff1660e01b81526004016106d59190610cb0565b602060405180830381865afa1580156106f0573d5f803e3d5ffd5b505050506040513d601f19601f820116820180604052508101906107149190610f83565b61075557336040517f32b2baa300000000000000000000000000000000000000000000000000000000815260040161074c9190610cb0565b60405180910390fd5b5f8383604051602001610769929190610fbd565b60405160208183030381529060405290507f000000000000000000000000000000000000000000000000000000000000000073ffffffffffffffffffffffffffffffffffffffff16630c93e3bb34306003600486336040518763ffffffff1660e01b81526004016107de9594939291906110c9565b5f604051808303818588803b1580156107f5575f80fd5b505af1158015610807573d5f803e3d5ffd5b50505050505f60025f9054906101000a900473ffffffffffffffffffffffffffffffffffffffff1690508073ffffffffffffffffffffffffffffffffffffffff16631c92115f60036004856040518463ffffffff1660e01b81526004016108709392919061112f565b5f604051808303815f87803b158015610887575f80fd5b505af1158015610899573d5f803e3d5ffd5b505050505050505050565b6108ac610a92565b5f73ffffffffffffffffffffffffffffffffffffffff168173ffffffffffffffffffffffffffffffffffffffff160361091c575f6040517f1e4fbdf70000000000000000000000000000000000000000000000000000000081526004016109139190610cb0565b60405180910390fd5b61092581610b19565b50565b5f73ffffffffffffffffffffffffffffffffffffffff1660015f9054906101000a900473ffffffffffffffffffffffffffffffffffffffff1673ffffffffffffffffffffffffffffffffffffffff16036109ae576040517ff37741d700000000000000000000000000000000000000000000000000000000815260040160405180910390fd5b5f60015f9054906101000a900473ffffffffffffffffffffffffffffffffffffffff1690508073ffffffffffffffffffffffffffffffffffffffff1663b166a09f336040518263ffffffff1660e01b8152600401610a0c9190610cb0565b602060405180830381865afa158015610a27573d5f803e3d5ffd5b505050506040513d601f19601f82011682018060405250810190610a4b9190610f83565b610a8c57336040517f32b2baa3000000000000000000000000000000000000000000000000000000008152600401610a839190610cb0565b60405180910390fd5b50505050565b610a9a610bda565b73ffffffffffffffffffffffffffffffffffffffff16610ab86104ce565b73ffffffffffffffffffffffffffffffffffffffff1614610b1757610adb610bda565b6040517f118cdaa7000000000000000000000000000000000000000000000000000000008152600401610b0e9190610cb0565b60405180910390fd5b565b5f805f9054906101000a900473ffffffffffffffffffffffffffffffffffffffff169050815f806101000a81548173ffffffffffffffffffffffffffffffffffffffff021916908373ffffffffffffffffffffffffffffffffffffffff1602179055508173ffffffffffffffffffffffffffffffffffffffff168173ffffffffffffffffffffffffffffffffffffffff167f8be0079c531659141344cd1fd0a4f28419497f9722a3daafe3b4186f6b6457e060405160405180910390a35050565b5f33905090565b5f81519050919050565b5f82825260208201905092915050565b8281835e5f83830152505050565b5f601f19601f8301169050919050565b5f610c2382610be1565b610c2d8185610beb565b9350610c3d818560208601610bfb565b610c4681610c09565b840191505092915050565b5f6020820190508181035f830152610c698184610c19565b905092915050565b5f73ffffffffffffffffffffffffffffffffffffffff82169050919050565b5f610c9a82610c71565b9050919050565b610caa81610c90565b82525050565b5f602082019050610cc35f830184610ca1565b92915050565b5f819050919050565b5f610cec610ce7610ce284610c71565b610cc9565b610c71565b9050919050565b5f610cfd82610cd2565b9050919050565b5f610d0e82610cf3565b9050919050565b610d1e81610d04565b82525050565b5f602082019050610d375f830184610d15565b92915050565b5f8115159050919050565b610d5181610d3d565b82525050565b5f602082019050610d6a5f830184610d48565b92915050565b5f80fd5b5f80fd5b610d8181610c90565b8114610d8b575f80fd5b50565b5f81359050610d9c81610d78565b92915050565b5f60208284031215610db757610db6610d70565b5b5f610dc484828501610d8e565b91505092915050565b5f819050919050565b610ddf81610dcd565b8114610de9575f80fd5b50565b5f81359050610dfa81610dd6565b92915050565b5f8060408385031215610e1657610e15610d70565b5b5f610e2385828601610d8e565b9250506020610e3485828601610dec565b9150509250929050565b5f80fd5b5f80fd5b5f80fd5b5f8083601f840112610e5f57610e5e610e3e565b5b8235905067ffffffffffffffff811115610e7c57610e7b610e42565b5b602083019150836001820283011115610e9857610e97610e46565b5b9250929050565b5f805f60408486031215610eb657610eb5610d70565b5b5f84013567ffffffffffffffff811115610ed357610ed2610d74565b5b610edf86828701610e4a565b93509350506020610ef286828701610dec565b9150509250925092565b7f4e487b71000000000000000000000000000000000000000000000000000000005f52602260045260245ffd5b5f6002820490506001821680610f4057607f821691505b602082108103610f5357610f52610efc565b5b50919050565b610f6281610d3d565b8114610f6c575f80fd5b50565b5f81519050610f7d81610f59565b92915050565b5f60208284031215610f9857610f97610d70565b5b5f610fa584828501610f6f565b91505092915050565b610fb781610dcd565b82525050565b5f604082019050610fd05f830185610ca1565b610fdd6020830184610fae565b9392505050565b5f819050815f5260205f209050919050565b5f815461100281610f29565b61100c8186610beb565b9450600182165f8114611026576001811461103c5761106e565b60ff19831686528115156020028601935061106e565b61104585610fe4565b5f5b8381101561106657815481890152600182019150602081019050611047565b808801955050505b50505092915050565b5f81519050919050565b5f82825260208201905092915050565b5f61109b82611077565b6110a58185611081565b93506110b5818560208601610bfb565b6110be81610c09565b840191505092915050565b5f60a0820190506110dc5f830188610ca1565b81810360208301526110ee8187610ff6565b905081810360408301526111028186610ff6565b905081810360608301526111168185611091565b90506111256080830184610ca1565b9695505050505050565b5f6060820190508181035f8301526111478186610ff6565b9050818103602083015261115b8185610ff6565b9050818103604083015261116f8184611091565b905094935050505056fea2646970667358221220225f91a68c2c9ec7426d6573841002938ff1630a8655f4d3d13e58bf3d6daa2364736f6c634300081a0033",
					"opcodes": "PUSH1 0xA0 PUSH1 0x40 MSTORE CALLVALUE DUP1 ISZERO PUSH2 0xF JUMPI PUSH0 DUP1 REVERT JUMPDEST POP PUSH1 0x40 MLOAD PUSH2 0x1939 CODESIZE SUB DUP1 PUSH2 0x1939 DUP4 CODECOPY DUP2 DUP2 ADD PUSH1 0x40 MSTORE DUP2 ADD SWAP1 PUSH2 0x31 SWAP2 SWAP1 PUSH2 0x3B8 JUMP JUMPDEST DUP5 PUSH0 PUSH20 0xFFFFFFFFFFFFFFFFFFFFFFFFFFFFFFFFFFFFFFFF AND DUP2 PUSH20 0xFFFFFFFFFFFFFFFFFFFFFFFFFFFFFFFFFFFFFFFF AND SUB PUSH2 0xA2 JUMPI PUSH0 PUSH1 0x40 MLOAD PUSH32 0x1E4FBDF700000000000000000000000000000000000000000000000000000000 DUP2 MSTORE PUSH1 0x4 ADD PUSH2 0x99 SWAP2 SWAP1 PUSH2 0x476 JUMP JUMPDEST PUSH1 0x40 MLOAD DUP1 SWAP2 SUB SWAP1 REVERT JUMPDEST PUSH2 0xB1 DUP2 PUSH2 0x150 PUSH1 0x20 SHL PUSH1 0x20 SHR JUMP JUMPDEST POP DUP4 PUSH1 0x2 PUSH0 PUSH2 0x100 EXP DUP2 SLOAD DUP2 PUSH20 0xFFFFFFFFFFFFFFFFFFFFFFFFFFFFFFFFFFFFFFFF MUL NOT AND SWAP1 DUP4 PUSH20 0xFFFFFFFFFFFFFFFFFFFFFFFFFFFFFFFFFFFFFFFF AND MUL OR SWAP1 SSTORE POP DUP3 PUSH20 0xFFFFFFFFFFFFFFFFFFFFFFFFFFFFFFFFFFFFFFFF AND PUSH1 0x80 DUP2 PUSH20 0xFFFFFFFFFFFFFFFFFFFFFFFFFFFFFFFFFFFFFFFF AND DUP2 MSTORE POP POP DUP2 PUSH1 0x3 SWAP1 DUP2 PUSH2 0x135 SWAP2 SWAP1 PUSH2 0x69C JUMP JUMPDEST POP DUP1 PUSH1 0x4 SWAP1 DUP2 PUSH2 0x145 SWAP2 SWAP1 PUSH2 0x69C JUMP JUMPDEST POP POP POP POP POP POP PUSH2 0x76B JUMP JUMPDEST PUSH0 DUP1 PUSH0 SWAP1 SLOAD SWAP1 PUSH2 0x100 EXP SWAP1 DIV PUSH20 0xFFFFFFFFFFFFFFFFFFFFFFFFFFFFFFFFFFFFFFFF AND SWAP1 POP DUP2 PUSH0 DUP1 PUSH2 0x100 EXP DUP2 SLOAD DUP2 PUSH20 0xFFFFFFFFFFFFFFFFFFFFFFFFFFFFFFFFFFFFFFFF MUL NOT AND SWAP1 DUP4 PUSH20 0xFFFFFFFFFFFFFFFFFFFFFFFFFFFFFFFFFFFFFFFF AND MUL OR SWAP1 SSTORE POP DUP2 PUSH20 0xFFFFFFFFFFFFFFFFFFFFFFFFFFFFFFFFFFFFFFFF AND DUP2 PUSH20 0xFFFFFFFFFFFFFFFFFFFFFFFFFFFFFFFFFFFFFFFF AND PUSH32 0x8BE0079C531659141344CD1FD0A4F28419497F9722A3DAAFE3B4186F6B6457E0 PUSH1 0x40 MLOAD PUSH1 0x40 MLOAD DUP1 SWAP2 SUB SWAP1 LOG3 POP POP JUMP JUMPDEST PUSH0 PUSH1 0x40 MLOAD SWAP1 POP SWAP1 JUMP JUMPDEST PUSH0 DUP1 REVERT JUMPDEST PUSH0 DUP1 REVERT JUMPDEST PUSH0 PUSH20 0xFFFFFFFFFFFFFFFFFFFFFFFFFFFFFFFFFFFFFFFF DUP3 AND SWAP1 POP SWAP2 SWAP1 POP JUMP JUMPDEST PUSH0 PUSH2 0x24B DUP3 PUSH2 0x222 JUMP JUMPDEST SWAP1 POP SWAP2 SWAP1 POP JUMP JUMPDEST PUSH2 0x25B DUP2 PUSH2 0x241 JUMP JUMPDEST DUP2 EQ PUSH2 0x265 JUMPI PUSH0 DUP1 REVERT JUMPDEST POP JUMP JUMPDEST PUSH0 DUP2 MLOAD SWAP1 POP PUSH2 0x276 DUP2 PUSH2 0x252 JUMP JUMPDEST SWAP3 SWAP2 POP POP JUMP JUMPDEST PUSH0 DUP1 REVERT JUMPDEST PUSH0 DUP1 REVERT JUMPDEST PUSH0 PUSH1 0x1F NOT PUSH1 0x1F DUP4 ADD AND SWAP1 POP SWAP2 SWAP1 POP JUMP JUMPDEST PUSH32 0x4E487B7100000000000000000000000000000000000000000000000000000000 PUSH0 MSTORE PUSH1 0x41 PUSH1 0x4 MSTORE PUSH1 0x24 PUSH0 REVERT JUMPDEST PUSH2 0x2CA DUP3 PUSH2 0x284 JUMP JUMPDEST DUP2 ADD DUP2 DUP2 LT PUSH8 0xFFFFFFFFFFFFFFFF DUP3 GT OR ISZERO PUSH2 0x2E9 JUMPI PUSH2 0x2E8 PUSH2 0x294 JUMP JUMPDEST JUMPDEST DUP1 PUSH1 0x40 MSTORE POP POP POP JUMP JUMPDEST PUSH0 PUSH2 0x2FB PUSH2 0x211 JUMP JUMPDEST SWAP1 POP PUSH2 0x307 DUP3 DUP3 PUSH2 0x2C1 JUMP JUMPDEST SWAP2 SWAP1 POP JUMP JUMPDEST PUSH0 PUSH8 0xFFFFFFFFFFFFFFFF DUP3 GT ISZERO PUSH2 0x326 JUMPI PUSH2 0x325 PUSH2 0x294 JUMP JUMPDEST JUMPDEST PUSH2 0x32F DUP3 PUSH2 0x284 JUMP JUMPDEST SWAP1 POP PUSH1 0x20 DUP2 ADD SWAP1 POP SWAP2 SWAP1 POP JUMP JUMPDEST DUP3 DUP2 DUP4 MCOPY PUSH0 DUP4 DUP4 ADD MSTORE POP POP POP JUMP JUMPDEST PUSH0 PUSH2 0x35C PUSH2 0x357 DUP5 PUSH2 0x30C JUMP JUMPDEST PUSH2 0x2F2 JUMP JUMPDEST SWAP1 POP DUP3 DUP2 MSTORE PUSH1 0x20 DUP2 ADD DUP5 DUP5 DUP5 ADD GT ISZERO PUSH2 0x378 JUMPI PUSH2 0x377 PUSH2 0x280 JUMP JUMPDEST JUMPDEST PUSH2 0x383 DUP5 DUP3 DUP6 PUSH2 0x33C JUMP JUMPDEST POP SWAP4 SWAP3 POP POP POP JUMP JUMPDEST PUSH0 DUP3 PUSH1 0x1F DUP4 ADD SLT PUSH2 0x39F JUMPI PUSH2 0x39E PUSH2 0x27C JUMP JUMPDEST JUMPDEST DUP2 MLOAD PUSH2 0x3AF DUP5 DUP3 PUSH1 0x20 DUP7 ADD PUSH2 0x34A JUMP JUMPDEST SWAP2 POP POP SWAP3 SWAP2 POP POP JUMP JUMPDEST PUSH0 DUP1 PUSH0 DUP1 PUSH0 PUSH1 0xA0 DUP7 DUP9 SUB SLT ISZERO PUSH2 0x3D1 JUMPI PUSH2 0x3D0 PUSH2 0x21A JUMP JUMPDEST JUMPDEST PUSH0 PUSH2 0x3DE DUP9 DUP3 DUP10 ADD PUSH2 0x268 JUMP JUMPDEST SWAP6 POP POP PUSH1 0x20 PUSH2 0x3EF DUP9 DUP3 DUP10 ADD PUSH2 0x268 JUMP JUMPDEST SWAP5 POP POP PUSH1 0x40 PUSH2 0x400 DUP9 DUP3 DUP10 ADD PUSH2 0x268 JUMP JUMPDEST SWAP4 POP POP PUSH1 0x60 DUP7 ADD MLOAD PUSH8 0xFFFFFFFFFFFFFFFF DUP2 GT ISZERO PUSH2 0x421 JUMPI PUSH2 0x420 PUSH2 0x21E JUMP JUMPDEST JUMPDEST PUSH2 0x42D DUP9 DUP3 DUP10 ADD PUSH2 0x38B JUMP JUMPDEST SWAP3 POP POP PUSH1 0x80 DUP7 ADD MLOAD PUSH8 0xFFFFFFFFFFFFFFFF DUP2 GT ISZERO PUSH2 0x44E JUMPI PUSH2 0x44D PUSH2 0x21E JUMP JUMPDEST JUMPDEST PUSH2 0x45A DUP9 DUP3 DUP10 ADD PUSH2 0x38B JUMP JUMPDEST SWAP2 POP POP SWAP3 SWAP6 POP SWAP3 SWAP6 SWAP1 SWAP4 POP JUMP JUMPDEST PUSH2 0x470 DUP2 PUSH2 0x241 JUMP JUMPDEST DUP3 MSTORE POP POP JUMP JUMPDEST PUSH0 PUSH1 0x20 DUP3 ADD SWAP1 POP PUSH2 0x489 PUSH0 DUP4 ADD DUP5 PUSH2 0x467 JUMP JUMPDEST SWAP3 SWAP2 POP POP JUMP JUMPDEST PUSH0 DUP2 MLOAD SWAP1 POP SWAP2 SWAP1 POP JUMP JUMPDEST PUSH32 0x4E487B7100000000000000000000000000000000000000000000000000000000 PUSH0 MSTORE PUSH1 0x22 PUSH1 0x4 MSTORE PUSH1 0x24 PUSH0 REVERT JUMPDEST PUSH0 PUSH1 0x2 DUP3 DIV SWAP1 POP PUSH1 0x1 DUP3 AND DUP1 PUSH2 0x4DD JUMPI PUSH1 0x7F DUP3 AND SWAP2 POP JUMPDEST PUSH1 0x20 DUP3 LT DUP2 SUB PUSH2 0x4F0 JUMPI PUSH2 0x4EF PUSH2 0x499 JUMP JUMPDEST JUMPDEST POP SWAP2 SWAP1 POP JUMP JUMPDEST PUSH0 DUP2 SWAP1 POP DUP2 PUSH0 MSTORE PUSH1 0x20 PUSH0 KECCAK256 SWAP1 POP SWAP2 SWAP1 POP JUMP JUMPDEST PUSH0 PUSH1 0x20 PUSH1 0x1F DUP4 ADD DIV SWAP1 POP SWAP2 SWAP1 POP JUMP JUMPDEST PUSH0 DUP3 DUP3 SHL SWAP1 POP SWAP3 SWAP2 POP POP JUMP JUMPDEST PUSH0 PUSH1 0x8 DUP4 MUL PUSH2 0x552 PUSH32 0xFFFFFFFFFFFFFFFFFFFFFFFFFFFFFFFFFFFFFFFFFFFFFFFFFFFFFFFFFFFFFFFF DUP3 PUSH2 0x517 JUMP JUMPDEST PUSH2 0x55C DUP7 DUP4 PUSH2 0x517 JUMP JUMPDEST SWAP6 POP DUP1 NOT DUP5 AND SWAP4 POP DUP1 DUP7 AND DUP5 OR SWAP3 POP POP POP SWAP4 SWAP3 POP POP POP JUMP JUMPDEST PUSH0 DUP2 SWAP1 POP SWAP2 SWAP1 POP JUMP JUMPDEST PUSH0 DUP2 SWAP1 POP SWAP2 SWAP1 POP JUMP JUMPDEST PUSH0 PUSH2 0x5A0 PUSH2 0x59B PUSH2 0x596 DUP5 PUSH2 0x574 JUMP JUMPDEST PUSH2 0x57D JUMP JUMPDEST PUSH2 0x574 JUMP JUMPDEST SWAP1 POP SWAP2 SWAP1 POP JUMP JUMPDEST PUSH0 DUP2 SWAP1 POP SWAP2 SWAP1 POP JUMP JUMPDEST PUSH2 0x5B9 DUP4 PUSH2 0x586 JUMP JUMPDEST PUSH2 0x5CD PUSH2 0x5C5 DUP3 PUSH2 0x5A7 JUMP JUMPDEST DUP5 DUP5 SLOAD PUSH2 0x523 JUMP JUMPDEST DUP3 SSTORE POP POP POP POP JUMP JUMPDEST PUSH0 SWAP1 JUMP JUMPDEST PUSH2 0x5E1 PUSH2 0x5D5 JUMP JUMPDEST PUSH2 0x5EC DUP2 DUP5 DUP5 PUSH2 0x5B0 JUMP JUMPDEST POP POP POP JUMP JUMPDEST JUMPDEST DUP2 DUP2 LT ISZERO PUSH2 0x60F JUMPI PUSH2 0x604 PUSH0 DUP3 PUSH2 0x5D9 JUMP JUMPDEST PUSH1 0x1 DUP2 ADD SWAP1 POP PUSH2 0x5F2 JUMP JUMPDEST POP POP JUMP JUMPDEST PUSH1 0x1F DUP3 GT ISZERO PUSH2 0x654 JUMPI PUSH2 0x625 DUP2 PUSH2 0x4F6 JUMP JUMPDEST PUSH2 0x62E DUP5 PUSH2 0x508 JUMP JUMPDEST DUP2 ADD PUSH1 0x20 DUP6 LT ISZERO PUSH2 0x63D JUMPI DUP2 SWAP1 POP JUMPDEST PUSH2 0x651 PUSH2 0x649 DUP6 PUSH2 0x508 JUMP JUMPDEST DUP4 ADD DUP3 PUSH2 0x5F1 JUMP JUMPDEST POP POP JUMPDEST POP POP POP JUMP JUMPDEST PUSH0 DUP3 DUP3 SHR SWAP1 POP SWAP3 SWAP2 POP POP JUMP JUMPDEST PUSH0 PUSH2 0x674 PUSH0 NOT DUP5 PUSH1 0x8 MUL PUSH2 0x659 JUMP JUMPDEST NOT DUP1 DUP4 AND SWAP2 POP POP SWAP3 SWAP2 POP POP JUMP JUMPDEST PUSH0 PUSH2 0x68C DUP4 DUP4 PUSH2 0x665 JUMP JUMPDEST SWAP2 POP DUP3 PUSH1 0x2 MUL DUP3 OR SWAP1 POP SWAP3 SWAP2 POP POP JUMP JUMPDEST PUSH2 0x6A5 DUP3 PUSH2 0x48F JUMP JUMPDEST PUSH8 0xFFFFFFFFFFFFFFFF DUP2 GT ISZERO PUSH2 0x6BE JUMPI PUSH2 0x6BD PUSH2 0x294 JUMP JUMPDEST JUMPDEST PUSH2 0x6C8 DUP3 SLOAD PUSH2 0x4C6 JUMP JUMPDEST PUSH2 0x6D3 DUP3 DUP3 DUP6 PUSH2 0x613 JUMP JUMPDEST PUSH0 PUSH1 0x20 SWAP1 POP PUSH1 0x1F DUP4 GT PUSH1 0x1 DUP2 EQ PUSH2 0x704 JUMPI PUSH0 DUP5 ISZERO PUSH2 0x6F2 JUMPI DUP3 DUP8 ADD MLOAD SWAP1 POP JUMPDEST PUSH2 0x6FC DUP6 DUP3 PUSH2 0x681 JUMP JUMPDEST DUP7 SSTORE POP PUSH2 0x763 JUMP JUMPDEST PUSH1 0x1F NOT DUP5 AND PUSH2 0x712 DUP7 PUSH2 0x4F6 JUMP JUMPDEST PUSH0 JUMPDEST DUP3 DUP2 LT ISZERO PUSH2 0x739 JUMPI DUP5 DUP10 ADD MLOAD DUP3 SSTORE PUSH1 0x1 DUP3 ADD SWAP2 POP PUSH1 0x20 DUP6 ADD SWAP5 POP PUSH1 0x20 DUP2 ADD SWAP1 POP PUSH2 0x714 JUMP JUMPDEST DUP7 DUP4 LT ISZERO PUSH2 0x756 JUMPI DUP5 DUP10 ADD MLOAD PUSH2 0x752 PUSH1 0x1F DUP10 AND DUP3 PUSH2 0x665 JUMP JUMPDEST DUP4 SSTORE POP JUMPDEST PUSH1 0x1 PUSH1 0x2 DUP9 MUL ADD DUP9 SSTORE POP POP POP JUMPDEST POP POP POP POP POP POP JUMP JUMPDEST PUSH1 0x80 MLOAD PUSH2 0x11AF PUSH2 0x78A PUSH0 CODECOPY PUSH0 DUP2 DUP2 PUSH2 0x32C ADD MSTORE PUSH2 0x77C ADD MSTORE PUSH2 0x11AF PUSH0 RETURN INVALID PUSH1 0x80 PUSH1 0x40 MSTORE PUSH1 0x4 CALLDATASIZE LT PUSH2 0xAA JUMPI PUSH0 CALLDATALOAD PUSH1 0xE0 SHR DUP1 PUSH4 0x9B85622C GT PUSH2 0x63 JUMPI DUP1 PUSH4 0x9B85622C EQ PUSH2 0x19D JUMPI DUP1 PUSH4 0xBC95B3B1 EQ PUSH2 0x1C5 JUMPI DUP1 PUSH4 0xBCAF0D9A EQ PUSH2 0x1EF JUMPI DUP1 PUSH4 0xCA09C885 EQ PUSH2 0x219 JUMPI DUP1 PUSH4 0xF2FDE38B EQ PUSH2 0x235 JUMPI DUP1 PUSH4 0xF4BD456D EQ PUSH2 0x25D JUMPI PUSH2 0xB1 JUMP JUMPDEST DUP1 PUSH4 0x25D83B7A EQ PUSH2 0xB5 JUMPI DUP1 PUSH4 0x4CAE3185 EQ PUSH2 0xDF JUMPI DUP1 PUSH4 0x6A22D8CC EQ PUSH2 0x109 JUMPI DUP1 PUSH4 0x715018A6 EQ PUSH2 0x133 JUMPI DUP1 PUSH4 0x85A2DD15 EQ PUSH2 0x149 JUMPI DUP1 PUSH4 0x8DA5CB5B EQ PUSH2 0x173 JUMPI PUSH2 0xB1 JUMP JUMPDEST CALLDATASIZE PUSH2 0xB1 JUMPI STOP JUMPDEST PUSH0 DUP1 REVERT JUMPDEST CALLVALUE DUP1 ISZERO PUSH2 0xC0 JUMPI PUSH0 DUP1 REVERT JUMPDEST POP PUSH2 0xC9 PUSH2 0x279 JUMP JUMPDEST PUSH1 0x40 MLOAD PUSH2 0xD6 SWAP2 SWAP1 PUSH2 0xC51 JUMP JUMPDEST PUSH1 0x40 MLOAD DUP1 SWAP2 SUB SWAP1 RETURN JUMPDEST CALLVALUE DUP1 ISZERO PUSH2 0xEA JUMPI PUSH0 DUP1 REVERT JUMPDEST POP PUSH2 0xF3 PUSH2 0x305 JUMP JUMPDEST PUSH1 0x40 MLOAD PUSH2 0x100 SWAP2 SWAP1 PUSH2 0xCB0 JUMP JUMPDEST PUSH1 0x40 MLOAD DUP1 SWAP2 SUB SWAP1 RETURN JUMPDEST CALLVALUE DUP1 ISZERO PUSH2 0x114 JUMPI PUSH0 DUP1 REVERT JUMPDEST POP PUSH2 0x11D PUSH2 0x32A JUMP JUMPDEST PUSH1 0x40 MLOAD PUSH2 0x12A SWAP2 SWAP1 PUSH2 0xD24 JUMP JUMPDEST PUSH1 0x40 MLOAD DUP1 SWAP2 SUB SWAP1 RETURN JUMPDEST CALLVALUE DUP1 ISZERO PUSH2 0x13E JUMPI PUSH0 DUP1 REVERT JUMPDEST POP PUSH2 0x147 PUSH2 0x34E JUMP JUMPDEST STOP JUMPDEST CALLVALUE DUP1 ISZERO PUSH2 0x154 JUMPI PUSH0 DUP1 REVERT JUMPDEST POP PUSH2 0x15D PUSH2 0x361 JUMP JUMPDEST PUSH1 0x40 MLOAD PUSH2 0x16A SWAP2 SWAP1 PUSH2 0xD57 JUMP JUMPDEST PUSH1 0x40 MLOAD DUP1 SWAP2 SUB SWAP1 RETURN JUMPDEST CALLVALUE DUP1 ISZERO PUSH2 0x17E JUMPI PUSH0 DUP1 REVERT JUMPDEST POP PUSH2 0x187 PUSH2 0x4CE JUMP JUMPDEST PUSH1 0x40 MLOAD PUSH2 0x194 SWAP2 SWAP1 PUSH2 0xCB0 JUMP JUMPDEST PUSH1 0x40 MLOAD DUP1 SWAP2 SUB SWAP1 RETURN JUMPDEST CALLVALUE DUP1 ISZERO PUSH2 0x1A8 JUMPI PUSH0 DUP1 REVERT JUMPDEST POP PUSH2 0x1C3 PUSH1 0x4 DUP1 CALLDATASIZE SUB DUP2 ADD SWAP1 PUSH2 0x1BE SWAP2 SWAP1 PUSH2 0xDA2 JUMP JUMPDEST PUSH2 0x4F5 JUMP JUMPDEST STOP JUMPDEST CALLVALUE DUP1 ISZERO PUSH2 0x1D0 JUMPI PUSH0 DUP1 REVERT JUMPDEST POP PUSH2 0x1D9 PUSH2 0x540 JUMP JUMPDEST PUSH1 0x40 MLOAD PUSH2 0x1E6 SWAP2 SWAP1 PUSH2 0xC51 JUMP JUMPDEST PUSH1 0x40 MLOAD DUP1 SWAP2 SUB SWAP1 RETURN JUMPDEST CALLVALUE DUP1 ISZERO PUSH2 0x1FA JUMPI PUSH0 DUP1 REVERT JUMPDEST POP PUSH2 0x203 PUSH2 0x5CC JUMP JUMPDEST PUSH1 0x40 MLOAD PUSH2 0x210 SWAP2 SWAP1 PUSH2 0xCB0 JUMP JUMPDEST PUSH1 0x40 MLOAD DUP1 SWAP2 SUB SWAP1 RETURN JUMPDEST PUSH2 0x233 PUSH1 0x4 DUP1 CALLDATASIZE SUB DUP2 ADD SWAP1 PUSH2 0x22E SWAP2 SWAP1 PUSH2 0xE00 JUMP JUMPDEST PUSH2 0x5F1 JUMP JUMPDEST STOP JUMPDEST CALLVALUE DUP1 ISZERO PUSH2 0x240 JUMPI PUSH0 DUP1 REVERT JUMPDEST POP PUSH2 0x25B PUSH1 0x4 DUP1 CALLDATASIZE SUB DUP2 ADD SWAP1 PUSH2 0x256 SWAP2 SWAP1 PUSH2 0xDA2 JUMP JUMPDEST PUSH2 0x8A4 JUMP JUMPDEST STOP JUMPDEST PUSH2 0x277 PUSH1 0x4 DUP1 CALLDATASIZE SUB DUP2 ADD SWAP1 PUSH2 0x272 SWAP2 SWAP1 PUSH2 0xE9F JUMP JUMPDEST PUSH2 0x928 JUMP JUMPDEST STOP JUMPDEST PUSH1 0x4 DUP1 SLOAD PUSH2 0x286 SWAP1 PUSH2 0xF29 JUMP JUMPDEST DUP1 PUSH1 0x1F ADD PUSH1 0x20 DUP1 SWAP2 DIV MUL PUSH1 0x20 ADD PUSH1 0x40 MLOAD SWAP1 DUP2 ADD PUSH1 0x40 MSTORE DUP1 SWAP3 SWAP2 SWAP1 DUP2 DUP2 MSTORE PUSH1 0x20 ADD DUP3 DUP1 SLOAD PUSH2 0x2B2 SWAP1 PUSH2 0xF29 JUMP JUMPDEST DUP1 ISZERO PUSH2 0x2FD JUMPI DUP1 PUSH1 0x1F LT PUSH2 0x2D4 JUMPI PUSH2 0x100 DUP1 DUP4 SLOAD DIV MUL DUP4 MSTORE SWAP2 PUSH1 0x20 ADD SWAP2 PUSH2 0x2FD JUMP JUMPDEST DUP3 ADD SWAP2 SWAP1 PUSH0 MSTORE PUSH1 0x20 PUSH0 KECCAK256 SWAP1 JUMPDEST DUP2 SLOAD DUP2 MSTORE SWAP1 PUSH1 0x1 ADD SWAP1 PUSH1 0x20 ADD DUP1 DUP4 GT PUSH2 0x2E0 JUMPI DUP3 SWAP1 SUB PUSH1 0x1F AND DUP3 ADD SWAP2 JUMPDEST POP POP POP POP POP DUP2 JUMP JUMPDEST PUSH1 0x2 PUSH0 SWAP1 SLOAD SWAP1 PUSH2 0x100 EXP SWAP1 DIV PUSH20 0xFFFFFFFFFFFFFFFFFFFFFFFFFFFFFFFFFFFFFFFF AND DUP2 JUMP JUMPDEST PUSH32 0x0 DUP2 JUMP JUMPDEST PUSH2 0x356 PUSH2 0xA92 JUMP JUMPDEST PUSH2 0x35F PUSH0 PUSH2 0xB19 JUMP JUMPDEST JUMP JUMPDEST PUSH0 DUP1 PUSH20 0xFFFFFFFFFFFFFFFFFFFFFFFFFFFFFFFFFFFFFFFF AND PUSH1 0x1 PUSH0 SWAP1 SLOAD SWAP1 PUSH2 0x100 EXP SWAP1 DIV PUSH20 0xFFFFFFFFFFFFFFFFFFFFFFFFFFFFFFFFFFFFFFFF AND PUSH20 0xFFFFFFFFFFFFFFFFFFFFFFFFFFFFFFFFFFFFFFFF AND SUB PUSH2 0x3E8 JUMPI PUSH1 0x40 MLOAD PUSH32 0xF37741D700000000000000000000000000000000000000000000000000000000 DUP2 MSTORE PUSH1 0x4 ADD PUSH1 0x40 MLOAD DUP1 SWAP2 SUB SWAP1 REVERT JUMPDEST PUSH0 PUSH1 0x1 PUSH0 SWAP1 SLOAD SWAP1 PUSH2 0x100 EXP SWAP1 DIV PUSH20 0xFFFFFFFFFFFFFFFFFFFFFFFFFFFFFFFFFFFFFFFF AND SWAP1 POP DUP1 PUSH20 0xFFFFFFFFFFFFFFFFFFFFFFFFFFFFFFFFFFFFFFFF AND PUSH4 0xB166A09F CALLER PUSH1 0x40 MLOAD DUP3 PUSH4 0xFFFFFFFF AND PUSH1 0xE0 SHL DUP2 MSTORE PUSH1 0x4 ADD PUSH2 0x446 SWAP2 SWAP1 PUSH2 0xCB0 JUMP JUMPDEST PUSH1 0x20 PUSH1 0x40 MLOAD DUP1 DUP4 SUB DUP2 DUP7 GAS STATICCALL ISZERO DUP1 ISZERO PUSH2 0x461 JUMPI RETURNDATASIZE PUSH0 DUP1 RETURNDATACOPY RETURNDATASIZE PUSH0 REVERT JUMPDEST POP POP POP POP PUSH1 0x40 MLOAD RETURNDATASIZE PUSH1 0x1F NOT PUSH1 0x1F DUP3 ADD AND DUP3 ADD DUP1 PUSH1 0x40 MSTORE POP DUP2 ADD SWAP1 PUSH2 0x485 SWAP2 SWAP1 PUSH2 0xF83 JUMP JUMPDEST PUSH2 0x4C6 JUMPI CALLER PUSH1 0x40 MLOAD PUSH32 0x32B2BAA300000000000000000000000000000000000000000000000000000000 DUP2 MSTORE PUSH1 0x4 ADD PUSH2 0x4BD SWAP2 SWAP1 PUSH2 0xCB0 JUMP JUMPDEST PUSH1 0x40 MLOAD DUP1 SWAP2 SUB SWAP1 REVERT JUMPDEST PUSH1 0x1 SWAP2 POP POP SWAP1 JUMP JUMPDEST PUSH0 DUP1 PUSH0 SWAP1 SLOAD SWAP1 PUSH2 0x100 EXP SWAP1 DIV PUSH20 0xFFFFFFFFFFFFFFFFFFFFFFFFFFFFFFFFFFFFFFFF AND SWAP1 POP SWAP1 JUMP JUMPDEST PUSH2 0x4FD PUSH2 0xA92 JUMP JUMPDEST DUP1 PUSH1 0x1 PUSH0 PUSH2 0x100 EXP DUP2 SLOAD DUP2 PUSH20 0xFFFFFFFFFFFFFFFFFFFFFFFFFFFFFFFFFFFFFFFF MUL NOT AND SWAP1 DUP4 PUSH20 0xFFFFFFFFFFFFFFFFFFFFFFFFFFFFFFFFFFFFFFFF AND MUL OR SWAP1 SSTORE POP POP JUMP JUMPDEST PUSH1 0x3 DUP1 SLOAD PUSH2 0x54D SWAP1 PUSH2 0xF29 JUMP JUMPDEST DUP1 PUSH1 0x1F ADD PUSH1 0x20 DUP1 SWAP2 DIV MUL PUSH1 0x20 ADD PUSH1 0x40 MLOAD SWAP1 DUP2 ADD PUSH1 0x40 MSTORE DUP1 SWAP3 SWAP2 SWAP1 DUP2 DUP2 MSTORE PUSH1 0x20 ADD DUP3 DUP1 SLOAD PUSH2 0x579 SWAP1 PUSH2 0xF29 JUMP JUMPDEST DUP1 ISZERO PUSH2 0x5C4 JUMPI DUP1 PUSH1 0x1F LT PUSH2 0x59B JUMPI PUSH2 0x100 DUP1 DUP4 SLOAD DIV MUL DUP4 MSTORE SWAP2 PUSH1 0x20 ADD SWAP2 PUSH2 0x5C4 JUMP JUMPDEST DUP3 ADD SWAP2 SWAP1 PUSH0 MSTORE PUSH1 0x20 PUSH0 KECCAK256 SWAP1 JUMPDEST DUP2 SLOAD DUP2 MSTORE SWAP1 PUSH1 0x1 ADD SWAP1 PUSH1 0x20 ADD DUP1 DUP4 GT PUSH2 0x5A7 JUMPI DUP3 SWAP1 SUB PUSH1 0x1F AND DUP3 ADD SWAP2 JUMPDEST POP POP POP POP POP DUP2 JUMP JUMPDEST PUSH1 0x1 PUSH0 SWAP1 SLOAD SWAP1 PUSH2 0x100 EXP SWAP1 DIV PUSH20 0xFFFFFFFFFFFFFFFFFFFFFFFFFFFFFFFFFFFFFFFF AND DUP2 JUMP JUMPDEST PUSH0 PUSH20 0xFFFFFFFFFFFFFFFFFFFFFFFFFFFFFFFFFFFFFFFF AND PUSH1 0x1 PUSH0 SWAP1 SLOAD SWAP1 PUSH2 0x100 EXP SWAP1 DIV PUSH20 0xFFFFFFFFFFFFFFFFFFFFFFFFFFFFFFFFFFFFFFFF AND PUSH20 0xFFFFFFFFFFFFFFFFFFFFFFFFFFFFFFFFFFFFFFFF AND SUB PUSH2 0x677 JUMPI PUSH1 0x40 MLOAD PUSH32 0xF37741D700000000000000000000000000000000000000000000000000000000 DUP2 MSTORE PUSH1 0x4 ADD PUSH1 0x40 MLOAD DUP1 SWAP2 SUB SWAP1 REVERT JUMPDEST PUSH0 PUSH1 0x1 PUSH0 SWAP1 SLOAD SWAP1 PUSH2 0x100 EXP SWAP1 DIV PUSH20 0xFFFFFFFFFFFFFFFFFFFFFFFFFFFFFFFFFFFFFFFF AND SWAP1 POP DUP1 PUSH20 0xFFFFFFFFFFFFFFFFFFFFFFFFFFFFFFFFFFFFFFFF AND PUSH4 0xB166A09F CALLER PUSH1 0x40 MLOAD DUP3 PUSH4 0xFFFFFFFF AND PUSH1 0xE0 SHL DUP2 MSTORE PUSH1 0x4 ADD PUSH2 0x6D5 SWAP2 SWAP1 PUSH2 0xCB0 JUMP JUMPDEST PUSH1 0x20 PUSH1 0x40 MLOAD DUP1 DUP4 SUB DUP2 DUP7 GAS STATICCALL ISZERO DUP1 ISZERO PUSH2 0x6F0 JUMPI RETURNDATASIZE PUSH0 DUP1 RETURNDATACOPY RETURNDATASIZE PUSH0 REVERT JUMPDEST POP POP POP POP PUSH1 0x40 MLOAD RETURNDATASIZE PUSH1 0x1F NOT PUSH1 0x1F DUP3 ADD AND DUP3 ADD DUP1 PUSH1 0x40 MSTORE POP DUP2 ADD SWAP1 PUSH2 0x714 SWAP2 SWAP1 PUSH2 0xF83 JUMP JUMPDEST PUSH2 0x755 JUMPI CALLER PUSH1 0x40 MLOAD PUSH32 0x32B2BAA300000000000000000000000000000000000000000000000000000000 DUP2 MSTORE PUSH1 0x4 ADD PUSH2 0x74C SWAP2 SWAP1 PUSH2 0xCB0 JUMP JUMPDEST PUSH1 0x40 MLOAD DUP1 SWAP2 SUB SWAP1 REVERT JUMPDEST PUSH0 DUP4 DUP4 PUSH1 0x40 MLOAD PUSH1 0x20 ADD PUSH2 0x769 SWAP3 SWAP2 SWAP1 PUSH2 0xFBD JUMP JUMPDEST PUSH1 0x40 MLOAD PUSH1 0x20 DUP2 DUP4 SUB SUB DUP2 MSTORE SWAP1 PUSH1 0x40 MSTORE SWAP1 POP PUSH32 0x0 PUSH20 0xFFFFFFFFFFFFFFFFFFFFFFFFFFFFFFFFFFFFFFFF AND PUSH4 0xC93E3BB CALLVALUE ADDRESS PUSH1 0x3 PUSH1 0x4 DUP7 CALLER PUSH1 0x40 MLOAD DUP8 PUSH4 0xFFFFFFFF AND PUSH1 0xE0 SHL DUP2 MSTORE PUSH1 0x4 ADD PUSH2 0x7DE SWAP6 SWAP5 SWAP4 SWAP3 SWAP2 SWAP1 PUSH2 0x10C9 JUMP JUMPDEST PUSH0 PUSH1 0x40 MLOAD DUP1 DUP4 SUB DUP2 DUP6 DUP9 DUP1 EXTCODESIZE ISZERO DUP1 ISZERO PUSH2 0x7F5 JUMPI PUSH0 DUP1 REVERT JUMPDEST POP GAS CALL ISZERO DUP1 ISZERO PUSH2 0x807 JUMPI RETURNDATASIZE PUSH0 DUP1 RETURNDATACOPY RETURNDATASIZE PUSH0 REVERT JUMPDEST POP POP POP POP POP PUSH0 PUSH1 0x2 PUSH0 SWAP1 SLOAD SWAP1 PUSH2 0x100 EXP SWAP1 DIV PUSH20 0xFFFFFFFFFFFFFFFFFFFFFFFFFFFFFFFFFFFFFFFF AND SWAP1 POP DUP1 PUSH20 0xFFFFFFFFFFFFFFFFFFFFFFFFFFFFFFFFFFFFFFFF AND PUSH4 0x1C92115F PUSH1 0x3 PUSH1 0x4 DUP6 PUSH1 0x40 MLOAD DUP5 PUSH4 0xFFFFFFFF AND PUSH1 0xE0 SHL DUP2 MSTORE PUSH1 0x4 ADD PUSH2 0x870 SWAP4 SWAP3 SWAP2 SWAP1 PUSH2 0x112F JUMP JUMPDEST PUSH0 PUSH1 0x40 MLOAD DUP1 DUP4 SUB DUP2 PUSH0 DUP8 DUP1 EXTCODESIZE ISZERO DUP1 ISZERO PUSH2 0x887 JUMPI PUSH0 DUP1 REVERT JUMPDEST POP GAS CALL ISZERO DUP1 ISZERO PUSH2 0x899 JUMPI RETURNDATASIZE PUSH0 DUP1 RETURNDATACOPY RETURNDATASIZE PUSH0 REVERT JUMPDEST POP POP POP POP POP POP POP POP POP JUMP JUMPDEST PUSH2 0x8AC PUSH2 0xA92 JUMP JUMPDEST PUSH0 PUSH20 0xFFFFFFFFFFFFFFFFFFFFFFFFFFFFFFFFFFFFFFFF AND DUP2 PUSH20 0xFFFFFFFFFFFFFFFFFFFFFFFFFFFFFFFFFFFFFFFF AND SUB PUSH2 0x91C JUMPI PUSH0 PUSH1 0x40 MLOAD PUSH32 0x1E4FBDF700000000000000000000000000000000000000000000000000000000 DUP2 MSTORE PUSH1 0x4 ADD PUSH2 0x913 SWAP2 SWAP1 PUSH2 0xCB0 JUMP JUMPDEST PUSH1 0x40 MLOAD DUP1 SWAP2 SUB SWAP1 REVERT JUMPDEST PUSH2 0x925 DUP2 PUSH2 0xB19 JUMP JUMPDEST POP JUMP JUMPDEST PUSH0 PUSH20 0xFFFFFFFFFFFFFFFFFFFFFFFFFFFFFFFFFFFFFFFF AND PUSH1 0x1 PUSH0 SWAP1 SLOAD SWAP1 PUSH2 0x100 EXP SWAP1 DIV PUSH20 0xFFFFFFFFFFFFFFFFFFFFFFFFFFFFFFFFFFFFFFFF AND PUSH20 0xFFFFFFFFFFFFFFFFFFFFFFFFFFFFFFFFFFFFFFFF AND SUB PUSH2 0x9AE JUMPI PUSH1 0x40 MLOAD PUSH32 0xF37741D700000000000000000000000000000000000000000000000000000000 DUP2 MSTORE PUSH1 0x4 ADD PUSH1 0x40 MLOAD DUP1 SWAP2 SUB SWAP1 REVERT JUMPDEST PUSH0 PUSH1 0x1 PUSH0 SWAP1 SLOAD SWAP1 PUSH2 0x100 EXP SWAP1 DIV PUSH20 0xFFFFFFFFFFFFFFFFFFFFFFFFFFFFFFFFFFFFFFFF AND SWAP1 POP DUP1 PUSH20 0xFFFFFFFFFFFFFFFFFFFFFFFFFFFFFFFFFFFFFFFF AND PUSH4 0xB166A09F CALLER PUSH1 0x40 MLOAD DUP3 PUSH4 0xFFFFFFFF AND PUSH1 0xE0 SHL DUP2 MSTORE PUSH1 0x4 ADD PUSH2 0xA0C SWAP2 SWAP1 PUSH2 0xCB0 JUMP JUMPDEST PUSH1 0x20 PUSH1 0x40 MLOAD DUP1 DUP4 SUB DUP2 DUP7 GAS STATICCALL ISZERO DUP1 ISZERO PUSH2 0xA27 JUMPI RETURNDATASIZE PUSH0 DUP1 RETURNDATACOPY RETURNDATASIZE PUSH0 REVERT JUMPDEST POP POP POP POP PUSH1 0x40 MLOAD RETURNDATASIZE PUSH1 0x1F NOT PUSH1 0x1F DUP3 ADD AND DUP3 ADD DUP1 PUSH1 0x40 MSTORE POP DUP2 ADD SWAP1 PUSH2 0xA4B SWAP2 SWAP1 PUSH2 0xF83 JUMP JUMPDEST PUSH2 0xA8C JUMPI CALLER PUSH1 0x40 MLOAD PUSH32 0x32B2BAA300000000000000000000000000000000000000000000000000000000 DUP2 MSTORE PUSH1 0x4 ADD PUSH2 0xA83 SWAP2 SWAP1 PUSH2 0xCB0 JUMP JUMPDEST PUSH1 0x40 MLOAD DUP1 SWAP2 SUB SWAP1 REVERT JUMPDEST POP POP POP POP JUMP JUMPDEST PUSH2 0xA9A PUSH2 0xBDA JUMP JUMPDEST PUSH20 0xFFFFFFFFFFFFFFFFFFFFFFFFFFFFFFFFFFFFFFFF AND PUSH2 0xAB8 PUSH2 0x4CE JUMP JUMPDEST PUSH20 0xFFFFFFFFFFFFFFFFFFFFFFFFFFFFFFFFFFFFFFFF AND EQ PUSH2 0xB17 JUMPI PUSH2 0xADB PUSH2 0xBDA JUMP JUMPDEST PUSH1 0x40 MLOAD PUSH32 0x118CDAA700000000000000000000000000000000000000000000000000000000 DUP2 MSTORE PUSH1 0x4 ADD PUSH2 0xB0E SWAP2 SWAP1 PUSH2 0xCB0 JUMP JUMPDEST PUSH1 0x40 MLOAD DUP1 SWAP2 SUB SWAP1 REVERT JUMPDEST JUMP JUMPDEST PUSH0 DUP1 PUSH0 SWAP1 SLOAD SWAP1 PUSH2 0x100 EXP SWAP1 DIV PUSH20 0xFFFFFFFFFFFFFFFFFFFFFFFFFFFFFFFFFFFFFFFF AND SWAP1 POP DUP2 PUSH0 DUP1 PUSH2 0x100 EXP DUP2 SLOAD DUP2 PUSH20 0xFFFFFFFFFFFFFFFFFFFFFFFFFFFFFFFFFFFFFFFF MUL NOT AND SWAP1 DUP4 PUSH20 0xFFFFFFFFFFFFFFFFFFFFFFFFFFFFFFFFFFFFFFFF AND MUL OR SWAP1 SSTORE POP DUP2 PUSH20 0xFFFFFFFFFFFFFFFFFFFFFFFFFFFFFFFFFFFFFFFF AND DUP2 PUSH20 0xFFFFFFFFFFFFFFFFFFFFFFFFFFFFFFFFFFFFFFFF AND PUSH32 0x8BE0079C531659141344CD1FD0A4F28419497F9722A3DAAFE3B4186F6B6457E0 PUSH1 0x40 MLOAD PUSH1 0x40 MLOAD DUP1 SWAP2 SUB SWAP1 LOG3 POP POP JUMP JUMPDEST PUSH0 CALLER SWAP1 POP SWAP1 JUMP JUMPDEST PUSH0 DUP2 MLOAD SWAP1 POP SWAP2 SWAP1 POP JUMP JUMPDEST PUSH0 DUP3 DUP3 MSTORE PUSH1 0x20 DUP3 ADD SWAP1 POP SWAP3 SWAP2 POP POP JUMP JUMPDEST DUP3 DUP2 DUP4 MCOPY PUSH0 DUP4 DUP4 ADD MSTORE POP POP POP JUMP JUMPDEST PUSH0 PUSH1 0x1F NOT PUSH1 0x1F DUP4 ADD AND SWAP1 POP SWAP2 SWAP1 POP JUMP JUMPDEST PUSH0 PUSH2 0xC23 DUP3 PUSH2 0xBE1 JUMP JUMPDEST PUSH2 0xC2D DUP2 DUP6 PUSH2 0xBEB JUMP JUMPDEST SWAP4 POP PUSH2 0xC3D DUP2 DUP6 PUSH1 0x20 DUP7 ADD PUSH2 0xBFB JUMP JUMPDEST PUSH2 0xC46 DUP2 PUSH2 0xC09 JUMP JUMPDEST DUP5 ADD SWAP2 POP POP SWAP3 SWAP2 POP POP JUMP JUMPDEST PUSH0 PUSH1 0x20 DUP3 ADD SWAP1 POP DUP2 DUP2 SUB PUSH0 DUP4 ADD MSTORE PUSH2 0xC69 DUP2 DUP5 PUSH2 0xC19 JUMP JUMPDEST SWAP1 POP SWAP3 SWAP2 POP POP JUMP JUMPDEST PUSH0 PUSH20 0xFFFFFFFFFFFFFFFFFFFFFFFFFFFFFFFFFFFFFFFF DUP3 AND SWAP1 POP SWAP2 SWAP1 POP JUMP JUMPDEST PUSH0 PUSH2 0xC9A DUP3 PUSH2 0xC71 JUMP JUMPDEST SWAP1 POP SWAP2 SWAP1 POP JUMP JUMPDEST PUSH2 0xCAA DUP2 PUSH2 0xC90 JUMP JUMPDEST DUP3 MSTORE POP POP JUMP JUMPDEST PUSH0 PUSH1 0x20 DUP3 ADD SWAP1 POP PUSH2 0xCC3 PUSH0 DUP4 ADD DUP5 PUSH2 0xCA1 JUMP JUMPDEST SWAP3 SWAP2 POP POP JUMP JUMPDEST PUSH0 DUP2 SWAP1 POP SWAP2 SWAP1 POP JUMP JUMPDEST PUSH0 PUSH2 0xCEC PUSH2 0xCE7 PUSH2 0xCE2 DUP5 PUSH2 0xC71 JUMP JUMPDEST PUSH2 0xCC9 JUMP JUMPDEST PUSH2 0xC71 JUMP JUMPDEST SWAP1 POP SWAP2 SWAP1 POP JUMP JUMPDEST PUSH0 PUSH2 0xCFD DUP3 PUSH2 0xCD2 JUMP JUMPDEST SWAP1 POP SWAP2 SWAP1 POP JUMP JUMPDEST PUSH0 PUSH2 0xD0E DUP3 PUSH2 0xCF3 JUMP JUMPDEST SWAP1 POP SWAP2 SWAP1 POP JUMP JUMPDEST PUSH2 0xD1E DUP2 PUSH2 0xD04 JUMP JUMPDEST DUP3 MSTORE POP POP JUMP JUMPDEST PUSH0 PUSH1 0x20 DUP3 ADD SWAP1 POP PUSH2 0xD37 PUSH0 DUP4 ADD DUP5 PUSH2 0xD15 JUMP JUMPDEST SWAP3 SWAP2 POP POP JUMP JUMPDEST PUSH0 DUP2 ISZERO ISZERO SWAP1 POP SWAP2 SWAP1 POP JUMP JUMPDEST PUSH2 0xD51 DUP2 PUSH2 0xD3D JUMP JUMPDEST DUP3 MSTORE POP POP JUMP JUMPDEST PUSH0 PUSH1 0x20 DUP3 ADD SWAP1 POP PUSH2 0xD6A PUSH0 DUP4 ADD DUP5 PUSH2 0xD48 JUMP JUMPDEST SWAP3 SWAP2 POP POP JUMP JUMPDEST PUSH0 DUP1 REVERT JUMPDEST PUSH0 DUP1 REVERT JUMPDEST PUSH2 0xD81 DUP2 PUSH2 0xC90 JUMP JUMPDEST DUP2 EQ PUSH2 0xD8B JUMPI PUSH0 DUP1 REVERT JUMPDEST POP JUMP JUMPDEST PUSH0 DUP2 CALLDATALOAD SWAP1 POP PUSH2 0xD9C DUP2 PUSH2 0xD78 JUMP JUMPDEST SWAP3 SWAP2 POP POP JUMP JUMPDEST PUSH0 PUSH1 0x20 DUP3 DUP5 SUB SLT ISZERO PUSH2 0xDB7 JUMPI PUSH2 0xDB6 PUSH2 0xD70 JUMP JUMPDEST JUMPDEST PUSH0 PUSH2 0xDC4 DUP5 DUP3 DUP6 ADD PUSH2 0xD8E JUMP JUMPDEST SWAP2 POP POP SWAP3 SWAP2 POP POP JUMP JUMPDEST PUSH0 DUP2 SWAP1 POP SWAP2 SWAP1 POP JUMP JUMPDEST PUSH2 0xDDF DUP2 PUSH2 0xDCD JUMP JUMPDEST DUP2 EQ PUSH2 0xDE9 JUMPI PUSH0 DUP1 REVERT JUMPDEST POP JUMP JUMPDEST PUSH0 DUP2 CALLDATALOAD SWAP1 POP PUSH2 0xDFA DUP2 PUSH2 0xDD6 JUMP JUMPDEST SWAP3 SWAP2 POP POP JUMP JUMPDEST PUSH0 DUP1 PUSH1 0x40 DUP4 DUP6 SUB SLT ISZERO PUSH2 0xE16 JUMPI PUSH2 0xE15 PUSH2 0xD70 JUMP JUMPDEST JUMPDEST PUSH0 PUSH2 0xE23 DUP6 DUP3 DUP7 ADD PUSH2 0xD8E JUMP JUMPDEST SWAP3 POP POP PUSH1 0x20 PUSH2 0xE34 DUP6 DUP3 DUP7 ADD PUSH2 0xDEC JUMP JUMPDEST SWAP2 POP POP SWAP3 POP SWAP3 SWAP1 POP JUMP JUMPDEST PUSH0 DUP1 REVERT JUMPDEST PUSH0 DUP1 REVERT JUMPDEST PUSH0 DUP1 REVERT JUMPDEST PUSH0 DUP1 DUP4 PUSH1 0x1F DUP5 ADD SLT PUSH2 0xE5F JUMPI PUSH2 0xE5E PUSH2 0xE3E JUMP JUMPDEST JUMPDEST DUP3 CALLDATALOAD SWAP1 POP PUSH8 0xFFFFFFFFFFFFFFFF DUP2 GT ISZERO PUSH2 0xE7C JUMPI PUSH2 0xE7B PUSH2 0xE42 JUMP JUMPDEST JUMPDEST PUSH1 0x20 DUP4 ADD SWAP2 POP DUP4 PUSH1 0x1 DUP3 MUL DUP4 ADD GT ISZERO PUSH2 0xE98 JUMPI PUSH2 0xE97 PUSH2 0xE46 JUMP JUMPDEST JUMPDEST SWAP3 POP SWAP3 SWAP1 POP JUMP JUMPDEST PUSH0 DUP1 PUSH0 PUSH1 0x40 DUP5 DUP7 SUB SLT ISZERO PUSH2 0xEB6 JUMPI PUSH2 0xEB5 PUSH2 0xD70 JUMP JUMPDEST JUMPDEST PUSH0 DUP5 ADD CALLDATALOAD PUSH8 0xFFFFFFFFFFFFFFFF DUP2 GT ISZERO PUSH2 0xED3 JUMPI PUSH2 0xED2 PUSH2 0xD74 JUMP JUMPDEST JUMPDEST PUSH2 0xEDF DUP7 DUP3 DUP8 ADD PUSH2 0xE4A JUMP JUMPDEST SWAP4 POP SWAP4 POP POP PUSH1 0x20 PUSH2 0xEF2 DUP7 DUP3 DUP8 ADD PUSH2 0xDEC JUMP JUMPDEST SWAP2 POP POP SWAP3 POP SWAP3 POP SWAP3 JUMP JUMPDEST PUSH32 0x4E487B7100000000000000000000000000000000000000000000000000000000 PUSH0 MSTORE PUSH1 0x22 PUSH1 0x4 MSTORE PUSH1 0x24 PUSH0 REVERT JUMPDEST PUSH0 PUSH1 0x2 DUP3 DIV SWAP1 POP PUSH1 0x1 DUP3 AND DUP1 PUSH2 0xF40 JUMPI PUSH1 0x7F DUP3 AND SWAP2 POP JUMPDEST PUSH1 0x20 DUP3 LT DUP2 SUB PUSH2 0xF53 JUMPI PUSH2 0xF52 PUSH2 0xEFC JUMP JUMPDEST JUMPDEST POP SWAP2 SWAP1 POP JUMP JUMPDEST PUSH2 0xF62 DUP2 PUSH2 0xD3D JUMP JUMPDEST DUP2 EQ PUSH2 0xF6C JUMPI PUSH0 DUP1 REVERT JUMPDEST POP JUMP JUMPDEST PUSH0 DUP2 MLOAD SWAP1 POP PUSH2 0xF7D DUP2 PUSH2 0xF59 JUMP JUMPDEST SWAP3 SWAP2 POP POP JUMP JUMPDEST PUSH0 PUSH1 0x20 DUP3 DUP5 SUB SLT ISZERO PUSH2 0xF98 JUMPI PUSH2 0xF97 PUSH2 0xD70 JUMP JUMPDEST JUMPDEST PUSH0 PUSH2 0xFA5 DUP5 DUP3 DUP6 ADD PUSH2 0xF6F JUMP JUMPDEST SWAP2 POP POP SWAP3 SWAP2 POP POP JUMP JUMPDEST PUSH2 0xFB7 DUP2 PUSH2 0xDCD JUMP JUMPDEST DUP3 MSTORE POP POP JUMP JUMPDEST PUSH0 PUSH1 0x40 DUP3 ADD SWAP1 POP PUSH2 0xFD0 PUSH0 DUP4 ADD DUP6 PUSH2 0xCA1 JUMP JUMPDEST PUSH2 0xFDD PUSH1 0x20 DUP4 ADD DUP5 PUSH2 0xFAE JUMP JUMPDEST SWAP4 SWAP3 POP POP POP JUMP JUMPDEST PUSH0 DUP2 SWAP1 POP DUP2 PUSH0 MSTORE PUSH1 0x20 PUSH0 KECCAK256 SWAP1 POP SWAP2 SWAP1 POP JUMP JUMPDEST PUSH0 DUP2 SLOAD PUSH2 0x1002 DUP2 PUSH2 0xF29 JUMP JUMPDEST PUSH2 0x100C DUP2 DUP7 PUSH2 0xBEB JUMP JUMPDEST SWAP5 POP PUSH1 0x1 DUP3 AND PUSH0 DUP2 EQ PUSH2 0x1026 JUMPI PUSH1 0x1 DUP2 EQ PUSH2 0x103C JUMPI PUSH2 0x106E JUMP JUMPDEST PUSH1 0xFF NOT DUP4 AND DUP7 MSTORE DUP2 ISZERO ISZERO PUSH1 0x20 MUL DUP7 ADD SWAP4 POP PUSH2 0x106E JUMP JUMPDEST PUSH2 0x1045 DUP6 PUSH2 0xFE4 JUMP JUMPDEST PUSH0 JUMPDEST DUP4 DUP2 LT ISZERO PUSH2 0x1066 JUMPI DUP2 SLOAD DUP2 DUP10 ADD MSTORE PUSH1 0x1 DUP3 ADD SWAP2 POP PUSH1 0x20 DUP2 ADD SWAP1 POP PUSH2 0x1047 JUMP JUMPDEST DUP1 DUP9 ADD SWAP6 POP POP POP JUMPDEST POP POP POP SWAP3 SWAP2 POP POP JUMP JUMPDEST PUSH0 DUP2 MLOAD SWAP1 POP SWAP2 SWAP1 POP JUMP JUMPDEST PUSH0 DUP3 DUP3 MSTORE PUSH1 0x20 DUP3 ADD SWAP1 POP SWAP3 SWAP2 POP POP JUMP JUMPDEST PUSH0 PUSH2 0x109B DUP3 PUSH2 0x1077 JUMP JUMPDEST PUSH2 0x10A5 DUP2 DUP6 PUSH2 0x1081 JUMP JUMPDEST SWAP4 POP PUSH2 0x10B5 DUP2 DUP6 PUSH1 0x20 DUP7 ADD PUSH2 0xBFB JUMP JUMPDEST PUSH2 0x10BE DUP2 PUSH2 0xC09 JUMP JUMPDEST DUP5 ADD SWAP2 POP POP SWAP3 SWAP2 POP POP JUMP JUMPDEST PUSH0 PUSH1 0xA0 DUP3 ADD SWAP1 POP PUSH2 0x10DC PUSH0 DUP4 ADD DUP9 PUSH2 0xCA1 JUMP JUMPDEST DUP2 DUP2 SUB PUSH1 0x20 DUP4 ADD MSTORE PUSH2 0x10EE DUP2 DUP8 PUSH2 0xFF6 JUMP JUMPDEST SWAP1 POP DUP2 DUP2 SUB PUSH1 0x40 DUP4 ADD MSTORE PUSH2 0x1102 DUP2 DUP7 PUSH2 0xFF6 JUMP JUMPDEST SWAP1 POP DUP2 DUP2 SUB PUSH1 0x60 DUP4 ADD MSTORE PUSH2 0x1116 DUP2 DUP6 PUSH2 0x1091 JUMP JUMPDEST SWAP1 POP PUSH2 0x1125 PUSH1 0x80 DUP4 ADD DUP5 PUSH2 0xCA1 JUMP JUMPDEST SWAP7 SWAP6 POP POP POP POP POP POP JUMP JUMPDEST PUSH0 PUSH1 0x60 DUP3 ADD SWAP1 POP DUP2 DUP2 SUB PUSH0 DUP4 ADD MSTORE PUSH2 0x1147 DUP2 DUP7 PUSH2 0xFF6 JUMP JUMPDEST SWAP1 POP DUP2 DUP2 SUB PUSH1 0x20 DUP4 ADD MSTORE PUSH2 0x115B DUP2 DUP6 PUSH2 0xFF6 JUMP JUMPDEST SWAP1 POP DUP2 DUP2 SUB PUSH1 0x40 DUP4 ADD MSTORE PUSH2 0x116F DUP2 DUP5 PUSH2 0x1091 JUMP JUMPDEST SWAP1 POP SWAP5 SWAP4 POP POP POP POP JUMP INVALID LOG2 PUSH5 0x6970667358 0x22 SLT KECCAK256 0x22 PUSH0 SWAP2 0xA6 DUP13 0x2C SWAP15 0xC7 TIMESTAMP PUSH14 0x6573841002938FF1630A8655F4D3 0xD1 RETURNDATACOPY PC 0xBF RETURNDATASIZE PUSH14 0xAA2364736F6C634300081A003300 "
				},
				"gasEstimates": {
					"creation": {
						"codeDepositCost": "905400",
						"executionCost": "infinite",
						"totalCost": "infinite"
					},
					"external": {
						"axelarGatewayAddr()": "2531",
						"destAddr()": "infinite",
						"destChain()": "infinite",
						"gasService()": "infinite",
						"grantDatacap(bytes,uint256)": "infinite",
						"grantDatacapMock(address,uint256)": "infinite",
						"hasAccess()": "infinite",
						"owner()": "2626",
						"renounceOwnership()": "infinite",
						"setStorageProviderEscrowFactory(address)": "infinite",
						"storageProviderEscrowFactoryAddr()": "2552",
						"transferOwnership(address)": "infinite"
					}
				},
				"methodIdentifiers": {
					"axelarGatewayAddr()": "4cae3185",
					"destAddr()": "25d83b7a",
					"destChain()": "bc95b3b1",
					"gasService()": "6a22d8cc",
					"grantDatacap(bytes,uint256)": "f4bd456d",
					"grantDatacapMock(address,uint256)": "ca09c885",
					"hasAccess()": "85a2dd15",
					"owner()": "8da5cb5b",
					"renounceOwnership()": "715018a6",
					"setStorageProviderEscrowFactory(address)": "9b85622c",
					"storageProviderEscrowFactoryAddr()": "bcaf0d9a",
					"transferOwnership(address)": "f2fde38b"
				}
			},
			"storageLayout": {
				"storage": [
					{
						"astId": 728,
						"contract": "contracts/16_DatacapGatewayAxelar.sol:DatacapGatewayAxelar",
						"label": "_owner",
						"offset": 0,
						"slot": "0",
						"type": "t_address"
					},
					{
						"astId": 917,
						"contract": "contracts/16_DatacapGatewayAxelar.sol:DatacapGatewayAxelar",
						"label": "storageProviderEscrowFactoryAddr",
						"offset": 0,
						"slot": "1",
						"type": "t_address"
					},
					{
						"astId": 919,
						"contract": "contracts/16_DatacapGatewayAxelar.sol:DatacapGatewayAxelar",
						"label": "axelarGatewayAddr",
						"offset": 0,
						"slot": "2",
						"type": "t_address"
					},
					{
						"astId": 924,
						"contract": "contracts/16_DatacapGatewayAxelar.sol:DatacapGatewayAxelar",
						"label": "destChain",
						"offset": 0,
						"slot": "3",
						"type": "t_string_storage"
					},
					{
						"astId": 926,
						"contract": "contracts/16_DatacapGatewayAxelar.sol:DatacapGatewayAxelar",
						"label": "destAddr",
						"offset": 0,
						"slot": "4",
						"type": "t_string_storage"
					}
				],
				"types": {
					"t_address": {
						"encoding": "inplace",
						"label": "address",
						"numberOfBytes": "20"
					},
					"t_string_storage": {
						"encoding": "bytes",
						"label": "string",
						"numberOfBytes": "32"
					}
				}
			},
			"userdoc": {
				"kind": "user",
				"methods": {},
				"version": 1
			}
		}
	}
}