{
	"contracts/18_DatacapGatewayAxelarReceiverMock.sol": {
		"DatacapGatewayAxelarReceiverMock": {
			"abi": [
				{
					"inputs": [
						{
							"internalType": "address",
							"name": "axelarGateway",
							"type": "address"
						},
						{
							"internalType": "address",
							"name": "mockAllocatorAddr",
							"type": "address"
						}
					],
					"stateMutability": "nonpayable",
					"type": "constructor"
				},
				{
					"inputs": [],
					"name": "InvalidAddress",
					"type": "error"
				},
				{
					"inputs": [],
					"name": "NotApprovedByGateway",
					"type": "error"
				},
				{
					"inputs": [
						{
							"internalType": "string",
							"name": "addr",
							"type": "string"
						}
					],
					"name": "UnauthorizedSourceAddress",
					"type": "error"
				},
				{
					"inputs": [
						{
							"internalType": "string",
							"name": "chain",
							"type": "string"
						}
					],
					"name": "UnauthorizedSourceChain",
					"type": "error"
				},
				{
					"anonymous": false,
					"inputs": [
						{
							"indexed": false,
							"internalType": "bytes32",
							"name": "commandId",
							"type": "bytes32"
						},
						{
							"indexed": false,
							"internalType": "string",
							"name": "_from",
							"type": "string"
						},
						{
							"indexed": false,
							"internalType": "address",
							"name": "_clientFilecoinAddress",
							"type": "address"
						},
						{
							"indexed": false,
							"internalType": "uint256",
							"name": "_amount",
							"type": "uint256"
						}
					],
					"name": "Executed",
					"type": "event"
				},
				{
					"inputs": [],
					"name": "amount",
					"outputs": [
						{
							"internalType": "uint256",
							"name": "",
							"type": "uint256"
						}
					],
					"stateMutability": "view",
					"type": "function"
				},
				{
					"inputs": [],
					"name": "authorizedSourceAddress",
					"outputs": [
						{
							"internalType": "string",
							"name": "",
							"type": "string"
						}
					],
					"stateMutability": "view",
					"type": "function"
				},
				{
					"inputs": [],
					"name": "authorizedSourceChain",
					"outputs": [
						{
							"internalType": "string",
							"name": "",
							"type": "string"
						}
					],
					"stateMutability": "view",
					"type": "function"
				},
				{
					"inputs": [],
					"name": "clientFilecoinAddress",
					"outputs": [
						{
							"internalType": "address",
							"name": "",
							"type": "address"
						}
					],
					"stateMutability": "view",
					"type": "function"
				},
				{
					"inputs": [
						{
							"internalType": "bytes32",
							"name": "commandId",
							"type": "bytes32"
						},
						{
							"internalType": "string",
							"name": "sourceChain",
							"type": "string"
						},
						{
							"internalType": "string",
							"name": "sourceAddress",
							"type": "string"
						},
						{
							"internalType": "bytes",
							"name": "payload",
							"type": "bytes"
						}
					],
					"name": "execute",
					"outputs": [],
					"stateMutability": "nonpayable",
					"type": "function"
				},
				{
					"inputs": [],
					"name": "gateway",
					"outputs": [
						{
							"internalType": "contract IAxelarGateway",
							"name": "",
							"type": "address"
						}
					],
					"stateMutability": "view",
					"type": "function"
				},
				{
					"inputs": [
						{
							"internalType": "string",
							"name": "chain",
							"type": "string"
						},
						{
							"internalType": "string",
							"name": "addr",
							"type": "string"
						}
					],
					"name": "setAuthorizedSourceChainAndAddress",
					"outputs": [],
					"stateMutability": "nonpayable",
					"type": "function"
				},
				{
					"inputs": [],
					"name": "sourceAddress",
					"outputs": [
						{
							"internalType": "string",
							"name": "",
							"type": "string"
						}
					],
					"stateMutability": "view",
					"type": "function"
				},
				{
					"inputs": [],
					"name": "sourceChain",
					"outputs": [
						{
							"internalType": "string",
							"name": "",
							"type": "string"
						}
					],
					"stateMutability": "view",
					"type": "function"
				}
			],
			"devdoc": {
				"errors": {
					"InvalidAddress()": [
						{
							"details": "Thrown when a function is called with an invalid address."
						}
					],
					"NotApprovedByGateway()": [
						{
							"details": "Thrown when the call is not approved by the Axelar Gateway."
						}
					]
				},
				"kind": "dev",
				"methods": {
					"execute(bytes32,string,string,bytes)": {
						"details": "This function ensures the call is approved by Axelar Gateway before execution. It uses a hash of the payload for validation and internally calls _execute for the actual command execution. Reverts if the validation fails.",
						"params": {
							"commandId": "The unique identifier of the cross-chain message being executed.",
							"payload": "The payload of the message payload.",
							"sourceAddress": "The address on the source chain that sent the message.",
							"sourceChain": "The name of the source chain from which the message originated."
						}
					},
					"gateway()": {
						"returns": {
							"_0": "The Axelar Gateway instance."
						}
					}
				},
				"version": 1
			},
			"evm": {
				"assembly": "    /* \"contracts/18_DatacapGatewayAxelarReceiverMock.sol\":339:2437  contract DatacapGatewayAxelarReceiverMock is AxelarExecutable {... */\n  mstore(0x40, 0xa0)\n    /* \"contracts/18_DatacapGatewayAxelarReceiverMock.sol\":763:923  constructor(address axelarGateway, address mockAllocatorAddr) AxelarExecutable(axelarGateway) {... */\n  callvalue\n  dup1\n  iszero\n  tag_1\n  jumpi\n  0x00\n  dup1\n  revert\ntag_1:\n  pop\n  mload(0x40)\n  sub(codesize, bytecodeSize)\n  dup1\n  bytecodeSize\n  dup4\n  codecopy\n  dup2\n  dup2\n  add\n  0x40\n  mstore\n  dup2\n  add\n  swap1\n  tag_2\n  swap2\n  swap1\n  tag_3\n  jump\t// in\ntag_2:\n    /* \"contracts/18_DatacapGatewayAxelarReceiverMock.sol\":842:855  axelarGateway */\n  dup2\n    /* \"@axelar-network/axelar-gmp-sdk-solidity/contracts/executable/AxelarExecutable.sol\":846:847  0 */\n  0x00\n    /* \"@axelar-network/axelar-gmp-sdk-solidity/contracts/executable/AxelarExecutable.sol\":826:848  gateway_ == address(0) */\n  0xffffffffffffffffffffffffffffffffffffffff\n  and\n    /* \"@axelar-network/axelar-gmp-sdk-solidity/contracts/executable/AxelarExecutable.sol\":826:834  gateway_ */\n  dup2\n    /* \"@axelar-network/axelar-gmp-sdk-solidity/contracts/executable/AxelarExecutable.sol\":826:848  gateway_ == address(0) */\n  0xffffffffffffffffffffffffffffffffffffffff\n  and\n  sub\n    /* \"@axelar-network/axelar-gmp-sdk-solidity/contracts/executable/AxelarExecutable.sol\":822:873  if (gateway_ == address(0)) revert InvalidAddress() */\n  tag_7\n  jumpi\n    /* \"@axelar-network/axelar-gmp-sdk-solidity/contracts/executable/AxelarExecutable.sol\":857:873  InvalidAddress() */\n  mload(0x40)\n  0xe6c4247b00000000000000000000000000000000000000000000000000000000\n  dup2\n  mstore\n  0x04\n  add\n  mload(0x40)\n  dup1\n  swap2\n  sub\n  swap1\n  revert\n    /* \"@axelar-network/axelar-gmp-sdk-solidity/contracts/executable/AxelarExecutable.sol\":822:873  if (gateway_ == address(0)) revert InvalidAddress() */\ntag_7:\n    /* \"@axelar-network/axelar-gmp-sdk-solidity/contracts/executable/AxelarExecutable.sol\":901:909  gateway_ */\n  dup1\n    /* \"@axelar-network/axelar-gmp-sdk-solidity/contracts/executable/AxelarExecutable.sol\":884:909  gatewayAddress = gateway_ */\n  0xffffffffffffffffffffffffffffffffffffffff\n  and\n  0x80\n  dup2\n  0xffffffffffffffffffffffffffffffffffffffff\n  and\n  dup2\n  mstore\n  pop\n  pop\n    /* \"@axelar-network/axelar-gmp-sdk-solidity/contracts/executable/AxelarExecutable.sol\":782:916  constructor(address gateway_) {... */\n  pop\n    /* \"contracts/18_DatacapGatewayAxelarReceiverMock.sol\":898:915  mockAllocatorAddr */\n  dup1\n    /* \"contracts/18_DatacapGatewayAxelarReceiverMock.sol\":867:880  mockAllocator */\n  0x00\n  dup1\n    /* \"contracts/18_DatacapGatewayAxelarReceiverMock.sol\":867:916  mockAllocator = IMockAllocator(mockAllocatorAddr) */\n  0x0100\n  exp\n  dup2\n  sload\n  dup2\n  0xffffffffffffffffffffffffffffffffffffffff\n  mul\n  not\n  and\n  swap1\n  dup4\n  0xffffffffffffffffffffffffffffffffffffffff\n  and\n  mul\n  or\n  swap1\n  sstore\n  pop\n    /* \"contracts/18_DatacapGatewayAxelarReceiverMock.sol\":763:923  constructor(address axelarGateway, address mockAllocatorAddr) AxelarExecutable(axelarGateway) {... */\n  pop\n  pop\n    /* \"contracts/18_DatacapGatewayAxelarReceiverMock.sol\":339:2437  contract DatacapGatewayAxelarReceiverMock is AxelarExecutable {... */\n  jump(tag_9)\n    /* \"#utility.yul\":88:205   */\ntag_11:\n    /* \"#utility.yul\":197:198   */\n  0x00\n    /* \"#utility.yul\":194:195   */\n  dup1\n    /* \"#utility.yul\":187:199   */\n  revert\n    /* \"#utility.yul\":334:460   */\ntag_13:\n    /* \"#utility.yul\":371:378   */\n  0x00\n    /* \"#utility.yul\":411:453   */\n  0xffffffffffffffffffffffffffffffffffffffff\n    /* \"#utility.yul\":404:409   */\n  dup3\n    /* \"#utility.yul\":400:454   */\n  and\n    /* \"#utility.yul\":389:454   */\n  swap1\n  pop\n    /* \"#utility.yul\":334:460   */\n  swap2\n  swap1\n  pop\n  jump\t// out\n    /* \"#utility.yul\":466:562   */\ntag_14:\n    /* \"#utility.yul\":503:510   */\n  0x00\n    /* \"#utility.yul\":532:556   */\n  tag_23\n    /* \"#utility.yul\":550:555   */\n  dup3\n    /* \"#utility.yul\":532:556   */\n  tag_13\n  jump\t// in\ntag_23:\n    /* \"#utility.yul\":521:556   */\n  swap1\n  pop\n    /* \"#utility.yul\":466:562   */\n  swap2\n  swap1\n  pop\n  jump\t// out\n    /* \"#utility.yul\":568:690   */\ntag_15:\n    /* \"#utility.yul\":641:665   */\n  tag_25\n    /* \"#utility.yul\":659:664   */\n  dup2\n    /* \"#utility.yul\":641:665   */\n  tag_14\n  jump\t// in\ntag_25:\n    /* \"#utility.yul\":634:639   */\n  dup2\n    /* \"#utility.yul\":631:666   */\n  eq\n    /* \"#utility.yul\":621:684   */\n  tag_26\n  jumpi\n    /* \"#utility.yul\":680:681   */\n  0x00\n    /* \"#utility.yul\":677:678   */\n  dup1\n    /* \"#utility.yul\":670:682   */\n  revert\n    /* \"#utility.yul\":621:684   */\ntag_26:\n    /* \"#utility.yul\":568:690   */\n  pop\n  jump\t// out\n    /* \"#utility.yul\":696:839   */\ntag_16:\n    /* \"#utility.yul\":753:758   */\n  0x00\n    /* \"#utility.yul\":784:790   */\n  dup2\n    /* \"#utility.yul\":778:791   */\n  mload\n    /* \"#utility.yul\":769:791   */\n  swap1\n  pop\n    /* \"#utility.yul\":800:833   */\n  tag_28\n    /* \"#utility.yul\":827:832   */\n  dup2\n    /* \"#utility.yul\":800:833   */\n  tag_15\n  jump\t// in\ntag_28:\n    /* \"#utility.yul\":696:839   */\n  swap3\n  swap2\n  pop\n  pop\n  jump\t// out\n    /* \"#utility.yul\":845:1352   */\ntag_3:\n    /* \"#utility.yul\":924:930   */\n  0x00\n    /* \"#utility.yul\":932:938   */\n  dup1\n    /* \"#utility.yul\":981:983   */\n  0x40\n    /* \"#utility.yul\":969:978   */\n  dup4\n    /* \"#utility.yul\":960:967   */\n  dup6\n    /* \"#utility.yul\":956:979   */\n  sub\n    /* \"#utility.yul\":952:984   */\n  slt\n    /* \"#utility.yul\":949:1068   */\n  iszero\n  tag_30\n  jumpi\n    /* \"#utility.yul\":987:1066   */\n  tag_31\n  tag_11\n  jump\t// in\ntag_31:\n    /* \"#utility.yul\":949:1068   */\ntag_30:\n    /* \"#utility.yul\":1107:1108   */\n  0x00\n    /* \"#utility.yul\":1132:1196   */\n  tag_32\n    /* \"#utility.yul\":1188:1195   */\n  dup6\n    /* \"#utility.yul\":1179:1185   */\n  dup3\n    /* \"#utility.yul\":1168:1177   */\n  dup7\n    /* \"#utility.yul\":1164:1186   */\n  add\n    /* \"#utility.yul\":1132:1196   */\n  tag_16\n  jump\t// in\ntag_32:\n    /* \"#utility.yul\":1122:1196   */\n  swap3\n  pop\n    /* \"#utility.yul\":1078:1206   */\n  pop\n    /* \"#utility.yul\":1245:1247   */\n  0x20\n    /* \"#utility.yul\":1271:1335   */\n  tag_33\n    /* \"#utility.yul\":1327:1334   */\n  dup6\n    /* \"#utility.yul\":1318:1324   */\n  dup3\n    /* \"#utility.yul\":1307:1316   */\n  dup7\n    /* \"#utility.yul\":1303:1325   */\n  add\n    /* \"#utility.yul\":1271:1335   */\n  tag_16\n  jump\t// in\ntag_33:\n    /* \"#utility.yul\":1261:1335   */\n  swap2\n  pop\n    /* \"#utility.yul\":1216:1345   */\n  pop\n    /* \"#utility.yul\":845:1352   */\n  swap3\n  pop\n  swap3\n  swap1\n  pop\n  jump\t// out\n    /* \"contracts/18_DatacapGatewayAxelarReceiverMock.sol\":339:2437  contract DatacapGatewayAxelarReceiverMock is AxelarExecutable {... */\ntag_9:\n  mload(0x80)\n  codecopy(0x00, dataOffset(sub_0), dataSize(sub_0))\n  0x00\n  assignImmutable(\"0x7880aec93413f117ef14bd4e6d130875ab2c7d7d55a064fac3c2f7bd51516380\")\n  return(0x00, dataSize(sub_0))\nstop\n\nsub_0: assembly {\n        /* \"contracts/18_DatacapGatewayAxelarReceiverMock.sol\":339:2437  contract DatacapGatewayAxelarReceiverMock is AxelarExecutable {... */\n      mstore(0x40, 0x80)\n      callvalue\n      dup1\n      iszero\n      tag_1\n      jumpi\n      0x00\n      dup1\n      revert\n    tag_1:\n      pop\n      jumpi(tag_2, lt(calldatasize, 0x04))\n      shr(0xe0, calldataload(0x00))\n      dup1\n      0x5411a061\n      gt\n      tag_12\n      jumpi\n      dup1\n      0x5411a061\n      eq\n      tag_7\n      jumpi\n      dup1\n      0x9cb6239b\n      eq\n      tag_8\n      jumpi\n      dup1\n      0xaa8c217c\n      eq\n      tag_9\n      jumpi\n      dup1\n      0xb0fa8444\n      eq\n      tag_10\n      jumpi\n      dup1\n      0xf3fdf573\n      eq\n      tag_11\n      jumpi\n      jump(tag_2)\n    tag_12:\n      dup1\n      0x116191b6\n      eq\n      tag_3\n      jumpi\n      dup1\n      0x1c6ffa46\n      eq\n      tag_4\n      jumpi\n      dup1\n      0x27c79ae7\n      eq\n      tag_5\n      jumpi\n      dup1\n      0x49160658\n      eq\n      tag_6\n      jumpi\n    tag_2:\n      0x00\n      dup1\n      revert\n        /* \"@axelar-network/axelar-gmp-sdk-solidity/contracts/executable/AxelarExecutable.sol\":2851:2961  function gateway() public view returns (IAxelarGateway) {... */\n    tag_3:\n      tag_13\n      tag_14\n      jump\t// in\n    tag_13:\n      mload(0x40)\n      tag_15\n      swap2\n      swap1\n      tag_16\n      jump\t// in\n    tag_15:\n      mload(0x40)\n      dup1\n      swap2\n      sub\n      swap1\n      return\n        /* \"contracts/18_DatacapGatewayAxelarReceiverMock.sol\":595:620  string public sourceChain */\n    tag_4:\n      tag_17\n      tag_18\n      jump\t// in\n    tag_17:\n      mload(0x40)\n      tag_19\n      swap2\n      swap1\n      tag_20\n      jump\t// in\n    tag_19:\n      mload(0x40)\n      dup1\n      swap2\n      sub\n      swap1\n      return\n        /* \"contracts/18_DatacapGatewayAxelarReceiverMock.sol\":929:1107  function setAuthorizedSourceChainAndAddress(string memory chain, string memory addr) public {... */\n    tag_5:\n      tag_21\n      0x04\n      dup1\n      calldatasize\n      sub\n      dup2\n      add\n      swap1\n      tag_22\n      swap2\n      swap1\n      tag_23\n      jump\t// in\n    tag_22:\n      tag_24\n      jump\t// in\n    tag_21:\n      stop\n        /* \"@axelar-network/axelar-gmp-sdk-solidity/contracts/executable/AxelarExecutable.sol\":1598:2038  function execute(... */\n    tag_6:\n      tag_25\n      0x04\n      dup1\n      calldatasize\n      sub\n      dup2\n      add\n      swap1\n      tag_26\n      swap2\n      swap1\n      tag_27\n      jump\t// in\n    tag_26:\n      tag_28\n      jump\t// in\n    tag_25:\n      stop\n        /* \"contracts/18_DatacapGatewayAxelarReceiverMock.sol\":526:562  address public clientFilecoinAddress */\n    tag_7:\n      tag_29\n      tag_30\n      jump\t// in\n    tag_29:\n      mload(0x40)\n      tag_31\n      swap2\n      swap1\n      tag_32\n      jump\t// in\n    tag_31:\n      mload(0x40)\n      dup1\n      swap2\n      sub\n      swap1\n      return\n        /* \"contracts/18_DatacapGatewayAxelarReceiverMock.sol\":441:476  string public authorizedSourceChain */\n    tag_8:\n      tag_33\n      tag_34\n      jump\t// in\n    tag_33:\n      mload(0x40)\n      tag_35\n      swap2\n      swap1\n      tag_20\n      jump\t// in\n    tag_35:\n      mload(0x40)\n      dup1\n      swap2\n      sub\n      swap1\n      return\n        /* \"contracts/18_DatacapGatewayAxelarReceiverMock.sol\":568:589  uint256 public amount */\n    tag_9:\n      tag_36\n      tag_37\n      jump\t// in\n    tag_36:\n      mload(0x40)\n      tag_38\n      swap2\n      swap1\n      tag_39\n      jump\t// in\n    tag_38:\n      mload(0x40)\n      dup1\n      swap2\n      sub\n      swap1\n      return\n        /* \"contracts/18_DatacapGatewayAxelarReceiverMock.sol\":626:653  string public sourceAddress */\n    tag_10:\n      tag_40\n      tag_41\n      jump\t// in\n    tag_40:\n      mload(0x40)\n      tag_42\n      swap2\n      swap1\n      tag_20\n      jump\t// in\n    tag_42:\n      mload(0x40)\n      dup1\n      swap2\n      sub\n      swap1\n      return\n        /* \"contracts/18_DatacapGatewayAxelarReceiverMock.sol\":482:519  string public authorizedSourceAddress */\n    tag_11:\n      tag_43\n      tag_44\n      jump\t// in\n    tag_43:\n      mload(0x40)\n      tag_45\n      swap2\n      swap1\n      tag_20\n      jump\t// in\n    tag_45:\n      mload(0x40)\n      dup1\n      swap2\n      sub\n      swap1\n      return\n        /* \"@axelar-network/axelar-gmp-sdk-solidity/contracts/executable/AxelarExecutable.sol\":2851:2961  function gateway() public view returns (IAxelarGateway) {... */\n    tag_14:\n        /* \"@axelar-network/axelar-gmp-sdk-solidity/contracts/executable/AxelarExecutable.sol\":2891:2905  IAxelarGateway */\n      0x00\n        /* \"@axelar-network/axelar-gmp-sdk-solidity/contracts/executable/AxelarExecutable.sol\":2939:2953  gatewayAddress */\n      immutable(\"0x7880aec93413f117ef14bd4e6d130875ab2c7d7d55a064fac3c2f7bd51516380\")\n        /* \"@axelar-network/axelar-gmp-sdk-solidity/contracts/executable/AxelarExecutable.sol\":2917:2954  return IAxelarGateway(gatewayAddress) */\n      swap1\n      pop\n        /* \"@axelar-network/axelar-gmp-sdk-solidity/contracts/executable/AxelarExecutable.sol\":2851:2961  function gateway() public view returns (IAxelarGateway) {... */\n      swap1\n      jump\t// out\n        /* \"contracts/18_DatacapGatewayAxelarReceiverMock.sol\":595:620  string public sourceChain */\n    tag_18:\n      0x05\n      dup1\n      sload\n      tag_47\n      swap1\n      tag_48\n      jump\t// in\n    tag_47:\n      dup1\n      0x1f\n      add\n      0x20\n      dup1\n      swap2\n      div\n      mul\n      0x20\n      add\n      mload(0x40)\n      swap1\n      dup2\n      add\n      0x40\n      mstore\n      dup1\n      swap3\n      swap2\n      swap1\n      dup2\n      dup2\n      mstore\n      0x20\n      add\n      dup3\n      dup1\n      sload\n      tag_49\n      swap1\n      tag_48\n      jump\t// in\n    tag_49:\n      dup1\n      iszero\n      tag_50\n      jumpi\n      dup1\n      0x1f\n      lt\n      tag_51\n      jumpi\n      0x0100\n      dup1\n      dup4\n      sload\n      div\n      mul\n      dup4\n      mstore\n      swap2\n      0x20\n      add\n      swap2\n      jump(tag_50)\n    tag_51:\n      dup3\n      add\n      swap2\n      swap1\n      0x00\n      mstore\n      keccak256(0x00, 0x20)\n      swap1\n    tag_52:\n      dup2\n      sload\n      dup2\n      mstore\n      swap1\n      0x01\n      add\n      swap1\n      0x20\n      add\n      dup1\n      dup4\n      gt\n      tag_52\n      jumpi\n      dup3\n      swap1\n      sub\n      0x1f\n      and\n      dup3\n      add\n      swap2\n    tag_50:\n      pop\n      pop\n      pop\n      pop\n      pop\n      dup2\n      jump\t// out\n        /* \"contracts/18_DatacapGatewayAxelarReceiverMock.sol\":929:1107  function setAuthorizedSourceChainAndAddress(string memory chain, string memory addr) public {... */\n    tag_24:\n        /* \"contracts/18_DatacapGatewayAxelarReceiverMock.sol\":1055:1060  chain */\n      dup2\n        /* \"contracts/18_DatacapGatewayAxelarReceiverMock.sol\":1031:1052  authorizedSourceChain */\n      0x01\n        /* \"contracts/18_DatacapGatewayAxelarReceiverMock.sol\":1031:1060  authorizedSourceChain = chain */\n      swap1\n      dup2\n      tag_54\n      swap2\n      swap1\n      tag_55\n      jump\t// in\n    tag_54:\n      pop\n        /* \"contracts/18_DatacapGatewayAxelarReceiverMock.sol\":1096:1100  addr */\n      dup1\n        /* \"contracts/18_DatacapGatewayAxelarReceiverMock.sol\":1070:1093  authorizedSourceAddress */\n      0x02\n        /* \"contracts/18_DatacapGatewayAxelarReceiverMock.sol\":1070:1100  authorizedSourceAddress = addr */\n      swap1\n      dup2\n      tag_56\n      swap2\n      swap1\n      tag_55\n      jump\t// in\n    tag_56:\n      pop\n        /* \"contracts/18_DatacapGatewayAxelarReceiverMock.sol\":929:1107  function setAuthorizedSourceChainAndAddress(string memory chain, string memory addr) public {... */\n      pop\n      pop\n      jump\t// out\n        /* \"@axelar-network/axelar-gmp-sdk-solidity/contracts/executable/AxelarExecutable.sol\":1598:2038  function execute(... */\n    tag_28:\n        /* \"@axelar-network/axelar-gmp-sdk-solidity/contracts/executable/AxelarExecutable.sol\":1783:1802  bytes32 payloadHash */\n      0x00\n        /* \"@axelar-network/axelar-gmp-sdk-solidity/contracts/executable/AxelarExecutable.sol\":1815:1822  payload */\n      dup3\n      dup3\n        /* \"@axelar-network/axelar-gmp-sdk-solidity/contracts/executable/AxelarExecutable.sol\":1805:1823  keccak256(payload) */\n      mload(0x40)\n      tag_58\n      swap3\n      swap2\n      swap1\n      tag_59\n      jump\t// in\n    tag_58:\n      mload(0x40)\n      dup1\n      swap2\n      sub\n      swap1\n      keccak256\n        /* \"@axelar-network/axelar-gmp-sdk-solidity/contracts/executable/AxelarExecutable.sol\":1783:1823  bytes32 payloadHash = keccak256(payload) */\n      swap1\n      pop\n        /* \"@axelar-network/axelar-gmp-sdk-solidity/contracts/executable/AxelarExecutable.sol\":1839:1848  gateway() */\n      tag_60\n        /* \"@axelar-network/axelar-gmp-sdk-solidity/contracts/executable/AxelarExecutable.sol\":1839:1846  gateway */\n      tag_14\n        /* \"@axelar-network/axelar-gmp-sdk-solidity/contracts/executable/AxelarExecutable.sol\":1839:1848  gateway() */\n      jump\t// in\n    tag_60:\n        /* \"@axelar-network/axelar-gmp-sdk-solidity/contracts/executable/AxelarExecutable.sol\":1839:1869  gateway().validateContractCall */\n      0xffffffffffffffffffffffffffffffffffffffff\n      and\n      0x5f6970c3\n        /* \"@axelar-network/axelar-gmp-sdk-solidity/contracts/executable/AxelarExecutable.sol\":1870:1879  commandId */\n      dup10\n        /* \"@axelar-network/axelar-gmp-sdk-solidity/contracts/executable/AxelarExecutable.sol\":1881:1892  sourceChain */\n      dup10\n      dup10\n        /* \"@axelar-network/axelar-gmp-sdk-solidity/contracts/executable/AxelarExecutable.sol\":1894:1907  sourceAddress */\n      dup10\n      dup10\n        /* \"@axelar-network/axelar-gmp-sdk-solidity/contracts/executable/AxelarExecutable.sol\":1909:1920  payloadHash */\n      dup8\n        /* \"@axelar-network/axelar-gmp-sdk-solidity/contracts/executable/AxelarExecutable.sol\":1839:1921  gateway().validateContractCall(commandId, sourceChain, sourceAddress, payloadHash) */\n      mload(0x40)\n      dup8\n      0xffffffff\n      and\n      0xe0\n      shl\n      dup2\n      mstore\n      0x04\n      add\n      tag_61\n      swap7\n      swap6\n      swap5\n      swap4\n      swap3\n      swap2\n      swap1\n      tag_62\n      jump\t// in\n    tag_61:\n      0x20\n      mload(0x40)\n      dup1\n      dup4\n      sub\n      dup2\n      0x00\n      dup8\n      gas\n      call\n      iszero\n      dup1\n      iszero\n      tag_64\n      jumpi\n      returndatasize\n      0x00\n      dup1\n      returndatacopy\n      revert(0x00, returndatasize)\n    tag_64:\n      pop\n      pop\n      pop\n      pop\n      mload(0x40)\n      returndatasize\n      not(0x1f)\n      0x1f\n      dup3\n      add\n      and\n      dup3\n      add\n      dup1\n      0x40\n      mstore\n      pop\n      dup2\n      add\n      swap1\n      tag_65\n      swap2\n      swap1\n      tag_66\n      jump\t// in\n    tag_65:\n        /* \"@axelar-network/axelar-gmp-sdk-solidity/contracts/executable/AxelarExecutable.sol\":1834:1964  if (!gateway().validateContractCall(commandId, sourceChain, sourceAddress, payloadHash))... */\n      tag_67\n      jumpi\n        /* \"@axelar-network/axelar-gmp-sdk-solidity/contracts/executable/AxelarExecutable.sol\":1942:1964  NotApprovedByGateway() */\n      mload(0x40)\n      0x500c44b400000000000000000000000000000000000000000000000000000000\n      dup2\n      mstore\n      0x04\n      add\n      mload(0x40)\n      dup1\n      swap2\n      sub\n      swap1\n      revert\n        /* \"@axelar-network/axelar-gmp-sdk-solidity/contracts/executable/AxelarExecutable.sol\":1834:1964  if (!gateway().validateContractCall(commandId, sourceChain, sourceAddress, payloadHash))... */\n    tag_67:\n        /* \"@axelar-network/axelar-gmp-sdk-solidity/contracts/executable/AxelarExecutable.sol\":1975:2031  _execute(commandId, sourceChain, sourceAddress, payload) */\n      tag_68\n        /* \"@axelar-network/axelar-gmp-sdk-solidity/contracts/executable/AxelarExecutable.sol\":1984:1993  commandId */\n      dup9\n        /* \"@axelar-network/axelar-gmp-sdk-solidity/contracts/executable/AxelarExecutable.sol\":1995:2006  sourceChain */\n      dup9\n      dup9\n        /* \"@axelar-network/axelar-gmp-sdk-solidity/contracts/executable/AxelarExecutable.sol\":2008:2021  sourceAddress */\n      dup9\n      dup9\n        /* \"@axelar-network/axelar-gmp-sdk-solidity/contracts/executable/AxelarExecutable.sol\":2023:2030  payload */\n      dup9\n      dup9\n        /* \"@axelar-network/axelar-gmp-sdk-solidity/contracts/executable/AxelarExecutable.sol\":1975:1983  _execute */\n      tag_69\n        /* \"@axelar-network/axelar-gmp-sdk-solidity/contracts/executable/AxelarExecutable.sol\":1975:2031  _execute(commandId, sourceChain, sourceAddress, payload) */\n      jump\t// in\n    tag_68:\n        /* \"@axelar-network/axelar-gmp-sdk-solidity/contracts/executable/AxelarExecutable.sol\":1773:2038  {... */\n      pop\n        /* \"@axelar-network/axelar-gmp-sdk-solidity/contracts/executable/AxelarExecutable.sol\":1598:2038  function execute(... */\n      pop\n      pop\n      pop\n      pop\n      pop\n      pop\n      pop\n      jump\t// out\n        /* \"contracts/18_DatacapGatewayAxelarReceiverMock.sol\":526:562  address public clientFilecoinAddress */\n    tag_30:\n      0x03\n      0x00\n      swap1\n      sload\n      swap1\n      0x0100\n      exp\n      swap1\n      div\n      0xffffffffffffffffffffffffffffffffffffffff\n      and\n      dup2\n      jump\t// out\n        /* \"contracts/18_DatacapGatewayAxelarReceiverMock.sol\":441:476  string public authorizedSourceChain */\n    tag_34:\n      0x01\n      dup1\n      sload\n      tag_70\n      swap1\n      tag_48\n      jump\t// in\n    tag_70:\n      dup1\n      0x1f\n      add\n      0x20\n      dup1\n      swap2\n      div\n      mul\n      0x20\n      add\n      mload(0x40)\n      swap1\n      dup2\n      add\n      0x40\n      mstore\n      dup1\n      swap3\n      swap2\n      swap1\n      dup2\n      dup2\n      mstore\n      0x20\n      add\n      dup3\n      dup1\n      sload\n      tag_71\n      swap1\n      tag_48\n      jump\t// in\n    tag_71:\n      dup1\n      iszero\n      tag_72\n      jumpi\n      dup1\n      0x1f\n      lt\n      tag_73\n      jumpi\n      0x0100\n      dup1\n      dup4\n      sload\n      div\n      mul\n      dup4\n      mstore\n      swap2\n      0x20\n      add\n      swap2\n      jump(tag_72)\n    tag_73:\n      dup3\n      add\n      swap2\n      swap1\n      0x00\n      mstore\n      keccak256(0x00, 0x20)\n      swap1\n    tag_74:\n      dup2\n      sload\n      dup2\n      mstore\n      swap1\n      0x01\n      add\n      swap1\n      0x20\n      add\n      dup1\n      dup4\n      gt\n      tag_74\n      jumpi\n      dup3\n      swap1\n      sub\n      0x1f\n      and\n      dup3\n      add\n      swap2\n    tag_72:\n      pop\n      pop\n      pop\n      pop\n      pop\n      dup2\n      jump\t// out\n        /* \"contracts/18_DatacapGatewayAxelarReceiverMock.sol\":568:589  uint256 public amount */\n    tag_37:\n      sload(0x04)\n      dup2\n      jump\t// out\n        /* \"contracts/18_DatacapGatewayAxelarReceiverMock.sol\":626:653  string public sourceAddress */\n    tag_41:\n      0x06\n      dup1\n      sload\n      tag_75\n      swap1\n      tag_48\n      jump\t// in\n    tag_75:\n      dup1\n      0x1f\n      add\n      0x20\n      dup1\n      swap2\n      div\n      mul\n      0x20\n      add\n      mload(0x40)\n      swap1\n      dup2\n      add\n      0x40\n      mstore\n      dup1\n      swap3\n      swap2\n      swap1\n      dup2\n      dup2\n      mstore\n      0x20\n      add\n      dup3\n      dup1\n      sload\n      tag_76\n      swap1\n      tag_48\n      jump\t// in\n    tag_76:\n      dup1\n      iszero\n      tag_77\n      jumpi\n      dup1\n      0x1f\n      lt\n      tag_78\n      jumpi\n      0x0100\n      dup1\n      dup4\n      sload\n      div\n      mul\n      dup4\n      mstore\n      swap2\n      0x20\n      add\n      swap2\n      jump(tag_77)\n    tag_78:\n      dup3\n      add\n      swap2\n      swap1\n      0x00\n      mstore\n      keccak256(0x00, 0x20)\n      swap1\n    tag_79:\n      dup2\n      sload\n      dup2\n      mstore\n      swap1\n      0x01\n      add\n      swap1\n      0x20\n      add\n      dup1\n      dup4\n      gt\n      tag_79\n      jumpi\n      dup3\n      swap1\n      sub\n      0x1f\n      and\n      dup3\n      add\n      swap2\n    tag_77:\n      pop\n      pop\n      pop\n      pop\n      pop\n      dup2\n      jump\t// out\n        /* \"contracts/18_DatacapGatewayAxelarReceiverMock.sol\":482:519  string public authorizedSourceAddress */\n    tag_44:\n      0x02\n      dup1\n      sload\n      tag_80\n      swap1\n      tag_48\n      jump\t// in\n    tag_80:\n      dup1\n      0x1f\n      add\n      0x20\n      dup1\n      swap2\n      div\n      mul\n      0x20\n      add\n      mload(0x40)\n      swap1\n      dup2\n      add\n      0x40\n      mstore\n      dup1\n      swap3\n      swap2\n      swap1\n      dup2\n      dup2\n      mstore\n      0x20\n      add\n      dup3\n      dup1\n      sload\n      tag_81\n      swap1\n      tag_48\n      jump\t// in\n    tag_81:\n      dup1\n      iszero\n      tag_82\n      jumpi\n      dup1\n      0x1f\n      lt\n      tag_83\n      jumpi\n      0x0100\n      dup1\n      dup4\n      sload\n      div\n      mul\n      dup4\n      mstore\n      swap2\n      0x20\n      add\n      swap2\n      jump(tag_82)\n    tag_83:\n      dup3\n      add\n      swap2\n      swap1\n      0x00\n      mstore\n      keccak256(0x00, 0x20)\n      swap1\n    tag_84:\n      dup2\n      sload\n      dup2\n      mstore\n      swap1\n      0x01\n      add\n      swap1\n      0x20\n      add\n      dup1\n      dup4\n      gt\n      tag_84\n      jumpi\n      dup3\n      swap1\n      sub\n      0x1f\n      and\n      dup3\n      add\n      swap2\n    tag_82:\n      pop\n      pop\n      pop\n      pop\n      pop\n      dup2\n      jump\t// out\n        /* \"contracts/18_DatacapGatewayAxelarReceiverMock.sol\":1543:2435  function _execute(... */\n    tag_69:\n        /* \"contracts/18_DatacapGatewayAxelarReceiverMock.sol\":1778:1786  _payload */\n      dup2\n      dup2\n        /* \"contracts/18_DatacapGatewayAxelarReceiverMock.sol\":1767:1807  abi.decode(_payload, (address, uint256)) */\n      dup2\n      add\n      swap1\n      tag_86\n      swap2\n      swap1\n      tag_87\n      jump\t// in\n    tag_86:\n        /* \"contracts/18_DatacapGatewayAxelarReceiverMock.sol\":1734:1755  clientFilecoinAddress */\n      0x03\n      0x00\n        /* \"contracts/18_DatacapGatewayAxelarReceiverMock.sol\":1757:1763  amount */\n      0x04\n      0x00\n        /* \"contracts/18_DatacapGatewayAxelarReceiverMock.sol\":1733:1807  (clientFilecoinAddress, amount) = abi.decode(_payload, (address, uint256)) */\n      dup5\n      swap2\n      swap1\n      pop\n      sstore\n      dup4\n      swap2\n      swap1\n      0x0100\n      exp\n      dup2\n      sload\n      dup2\n      0xffffffffffffffffffffffffffffffffffffffff\n      mul\n      not\n      and\n      swap1\n      dup4\n      0xffffffffffffffffffffffffffffffffffffffff\n      and\n      mul\n      or\n      swap1\n      sstore\n      pop\n      pop\n      pop\n        /* \"contracts/18_DatacapGatewayAxelarReceiverMock.sol\":1831:1843  _sourceChain */\n      dup6\n      dup6\n        /* \"contracts/18_DatacapGatewayAxelarReceiverMock.sol\":1817:1828  sourceChain */\n      0x05\n        /* \"contracts/18_DatacapGatewayAxelarReceiverMock.sol\":1817:1843  sourceChain = _sourceChain */\n      swap2\n      dup3\n      tag_88\n      swap3\n      swap2\n      swap1\n      tag_89\n      jump\t// in\n    tag_88:\n      pop\n        /* \"contracts/18_DatacapGatewayAxelarReceiverMock.sol\":1869:1883  _sourceAddress */\n      dup4\n      dup4\n        /* \"contracts/18_DatacapGatewayAxelarReceiverMock.sol\":1853:1866  sourceAddress */\n      0x06\n        /* \"contracts/18_DatacapGatewayAxelarReceiverMock.sol\":1853:1883  sourceAddress = _sourceAddress */\n      swap2\n      dup3\n      tag_90\n      swap3\n      swap2\n      swap1\n      tag_89\n      jump\t// in\n    tag_90:\n      pop\n        /* \"contracts/18_DatacapGatewayAxelarReceiverMock.sol\":2286:2351  Executed(commandId, sourceAddress, clientFilecoinAddress, amount) */\n      0x8e73ead1ba5ac4085bdb804c6a5ea9f72c617280817c2db3215d473276e606ec\n        /* \"contracts/18_DatacapGatewayAxelarReceiverMock.sol\":2295:2304  commandId */\n      dup8\n        /* \"contracts/18_DatacapGatewayAxelarReceiverMock.sol\":2306:2319  sourceAddress */\n      0x06\n        /* \"contracts/18_DatacapGatewayAxelarReceiverMock.sol\":2321:2342  clientFilecoinAddress */\n      0x03\n      0x00\n      swap1\n      sload\n      swap1\n      0x0100\n      exp\n      swap1\n      div\n      0xffffffffffffffffffffffffffffffffffffffff\n      and\n        /* \"contracts/18_DatacapGatewayAxelarReceiverMock.sol\":2344:2350  amount */\n      sload(0x04)\n        /* \"contracts/18_DatacapGatewayAxelarReceiverMock.sol\":2286:2351  Executed(commandId, sourceAddress, clientFilecoinAddress, amount) */\n      mload(0x40)\n      tag_91\n      swap5\n      swap4\n      swap3\n      swap2\n      swap1\n      tag_92\n      jump\t// in\n    tag_91:\n      mload(0x40)\n      dup1\n      swap2\n      sub\n      swap1\n      log1\n        /* \"contracts/18_DatacapGatewayAxelarReceiverMock.sol\":2362:2375  mockAllocator */\n      0x00\n      dup1\n      sload\n      swap1\n      0x0100\n      exp\n      swap1\n      div\n      0xffffffffffffffffffffffffffffffffffffffff\n      and\n        /* \"contracts/18_DatacapGatewayAxelarReceiverMock.sol\":2362:2397  mockAllocator.addVerifiedClientMock */\n      0xffffffffffffffffffffffffffffffffffffffff\n      and\n      0x63d67dff\n        /* \"contracts/18_DatacapGatewayAxelarReceiverMock.sol\":2398:2419  clientFilecoinAddress */\n      0x03\n      0x00\n      swap1\n      sload\n      swap1\n      0x0100\n      exp\n      swap1\n      div\n      0xffffffffffffffffffffffffffffffffffffffff\n      and\n        /* \"contracts/18_DatacapGatewayAxelarReceiverMock.sol\":2421:2427  amount */\n      sload(0x04)\n        /* \"contracts/18_DatacapGatewayAxelarReceiverMock.sol\":2362:2428  mockAllocator.addVerifiedClientMock(clientFilecoinAddress, amount) */\n      mload(0x40)\n      dup4\n      0xffffffff\n      and\n      0xe0\n      shl\n      dup2\n      mstore\n      0x04\n      add\n      tag_93\n      swap3\n      swap2\n      swap1\n      tag_94\n      jump\t// in\n    tag_93:\n      0x00\n      mload(0x40)\n      dup1\n      dup4\n      sub\n      dup2\n      0x00\n      dup8\n      dup1\n      extcodesize\n      iszero\n      dup1\n      iszero\n      tag_95\n      jumpi\n      0x00\n      dup1\n      revert\n    tag_95:\n      pop\n      gas\n      call\n      iszero\n      dup1\n      iszero\n      tag_97\n      jumpi\n      returndatasize\n      0x00\n      dup1\n      returndatacopy\n      revert(0x00, returndatasize)\n    tag_97:\n      pop\n      pop\n      pop\n      pop\n        /* \"contracts/18_DatacapGatewayAxelarReceiverMock.sol\":1543:2435  function _execute(... */\n      pop\n      pop\n      pop\n      pop\n      pop\n      pop\n      pop\n      jump\t// out\n        /* \"#utility.yul\":7:133   */\n    tag_98:\n        /* \"#utility.yul\":44:51   */\n      0x00\n        /* \"#utility.yul\":84:126   */\n      0xffffffffffffffffffffffffffffffffffffffff\n        /* \"#utility.yul\":77:82   */\n      dup3\n        /* \"#utility.yul\":73:127   */\n      and\n        /* \"#utility.yul\":62:127   */\n      swap1\n      pop\n        /* \"#utility.yul\":7:133   */\n      swap2\n      swap1\n      pop\n      jump\t// out\n        /* \"#utility.yul\":139:199   */\n    tag_99:\n        /* \"#utility.yul\":167:170   */\n      0x00\n        /* \"#utility.yul\":188:193   */\n      dup2\n        /* \"#utility.yul\":181:193   */\n      swap1\n      pop\n        /* \"#utility.yul\":139:199   */\n      swap2\n      swap1\n      pop\n      jump\t// out\n        /* \"#utility.yul\":205:347   */\n    tag_100:\n        /* \"#utility.yul\":255:264   */\n      0x00\n        /* \"#utility.yul\":288:341   */\n      tag_165\n        /* \"#utility.yul\":306:340   */\n      tag_166\n        /* \"#utility.yul\":315:339   */\n      tag_167\n        /* \"#utility.yul\":333:338   */\n      dup5\n        /* \"#utility.yul\":315:339   */\n      tag_98\n      jump\t// in\n    tag_167:\n        /* \"#utility.yul\":306:340   */\n      tag_99\n      jump\t// in\n    tag_166:\n        /* \"#utility.yul\":288:341   */\n      tag_98\n      jump\t// in\n    tag_165:\n        /* \"#utility.yul\":275:341   */\n      swap1\n      pop\n        /* \"#utility.yul\":205:347   */\n      swap2\n      swap1\n      pop\n      jump\t// out\n        /* \"#utility.yul\":353:479   */\n    tag_101:\n        /* \"#utility.yul\":403:412   */\n      0x00\n        /* \"#utility.yul\":436:473   */\n      tag_169\n        /* \"#utility.yul\":467:472   */\n      dup3\n        /* \"#utility.yul\":436:473   */\n      tag_100\n      jump\t// in\n    tag_169:\n        /* \"#utility.yul\":423:473   */\n      swap1\n      pop\n        /* \"#utility.yul\":353:479   */\n      swap2\n      swap1\n      pop\n      jump\t// out\n        /* \"#utility.yul\":485:633   */\n    tag_102:\n        /* \"#utility.yul\":557:566   */\n      0x00\n        /* \"#utility.yul\":590:627   */\n      tag_171\n        /* \"#utility.yul\":621:626   */\n      dup3\n        /* \"#utility.yul\":590:627   */\n      tag_101\n      jump\t// in\n    tag_171:\n        /* \"#utility.yul\":577:627   */\n      swap1\n      pop\n        /* \"#utility.yul\":485:633   */\n      swap2\n      swap1\n      pop\n      jump\t// out\n        /* \"#utility.yul\":639:814   */\n    tag_103:\n        /* \"#utility.yul\":748:807   */\n      tag_173\n        /* \"#utility.yul\":801:806   */\n      dup2\n        /* \"#utility.yul\":748:807   */\n      tag_102\n      jump\t// in\n    tag_173:\n        /* \"#utility.yul\":743:746   */\n      dup3\n        /* \"#utility.yul\":736:808   */\n      mstore\n        /* \"#utility.yul\":639:814   */\n      pop\n      pop\n      jump\t// out\n        /* \"#utility.yul\":820:1086   */\n    tag_16:\n        /* \"#utility.yul\":935:939   */\n      0x00\n        /* \"#utility.yul\":973:975   */\n      0x20\n        /* \"#utility.yul\":962:971   */\n      dup3\n        /* \"#utility.yul\":958:976   */\n      add\n        /* \"#utility.yul\":950:976   */\n      swap1\n      pop\n        /* \"#utility.yul\":986:1079   */\n      tag_175\n        /* \"#utility.yul\":1076:1077   */\n      0x00\n        /* \"#utility.yul\":1065:1074   */\n      dup4\n        /* \"#utility.yul\":1061:1078   */\n      add\n        /* \"#utility.yul\":1052:1058   */\n      dup5\n        /* \"#utility.yul\":986:1079   */\n      tag_103\n      jump\t// in\n    tag_175:\n        /* \"#utility.yul\":820:1086   */\n      swap3\n      swap2\n      pop\n      pop\n      jump\t// out\n        /* \"#utility.yul\":1092:1191   */\n    tag_104:\n        /* \"#utility.yul\":1144:1150   */\n      0x00\n        /* \"#utility.yul\":1178:1183   */\n      dup2\n        /* \"#utility.yul\":1172:1184   */\n      mload\n        /* \"#utility.yul\":1162:1184   */\n      swap1\n      pop\n        /* \"#utility.yul\":1092:1191   */\n      swap2\n      swap1\n      pop\n      jump\t// out\n        /* \"#utility.yul\":1197:1366   */\n    tag_105:\n        /* \"#utility.yul\":1281:1292   */\n      0x00\n        /* \"#utility.yul\":1315:1321   */\n      dup3\n        /* \"#utility.yul\":1310:1313   */\n      dup3\n        /* \"#utility.yul\":1303:1322   */\n      mstore\n        /* \"#utility.yul\":1355:1359   */\n      0x20\n        /* \"#utility.yul\":1350:1353   */\n      dup3\n        /* \"#utility.yul\":1346:1360   */\n      add\n        /* \"#utility.yul\":1331:1360   */\n      swap1\n      pop\n        /* \"#utility.yul\":1197:1366   */\n      swap3\n      swap2\n      pop\n      pop\n      jump\t// out\n        /* \"#utility.yul\":1372:1511   */\n    tag_106:\n        /* \"#utility.yul\":1461:1467   */\n      dup3\n        /* \"#utility.yul\":1456:1459   */\n      dup2\n        /* \"#utility.yul\":1451:1454   */\n      dup4\n        /* \"#utility.yul\":1445:1468   */\n      mcopy\n        /* \"#utility.yul\":1502:1503   */\n      0x00\n        /* \"#utility.yul\":1493:1499   */\n      dup4\n        /* \"#utility.yul\":1488:1491   */\n      dup4\n        /* \"#utility.yul\":1484:1500   */\n      add\n        /* \"#utility.yul\":1477:1504   */\n      mstore\n        /* \"#utility.yul\":1372:1511   */\n      pop\n      pop\n      pop\n      jump\t// out\n        /* \"#utility.yul\":1517:1619   */\n    tag_107:\n        /* \"#utility.yul\":1558:1564   */\n      0x00\n        /* \"#utility.yul\":1609:1611   */\n      0x1f\n        /* \"#utility.yul\":1605:1612   */\n      not\n        /* \"#utility.yul\":1600:1602   */\n      0x1f\n        /* \"#utility.yul\":1593:1598   */\n      dup4\n        /* \"#utility.yul\":1589:1603   */\n      add\n        /* \"#utility.yul\":1585:1613   */\n      and\n        /* \"#utility.yul\":1575:1613   */\n      swap1\n      pop\n        /* \"#utility.yul\":1517:1619   */\n      swap2\n      swap1\n      pop\n      jump\t// out\n        /* \"#utility.yul\":1625:2002   */\n    tag_108:\n        /* \"#utility.yul\":1713:1716   */\n      0x00\n        /* \"#utility.yul\":1741:1780   */\n      tag_181\n        /* \"#utility.yul\":1774:1779   */\n      dup3\n        /* \"#utility.yul\":1741:1780   */\n      tag_104\n      jump\t// in\n    tag_181:\n        /* \"#utility.yul\":1796:1867   */\n      tag_182\n        /* \"#utility.yul\":1860:1866   */\n      dup2\n        /* \"#utility.yul\":1855:1858   */\n      dup6\n        /* \"#utility.yul\":1796:1867   */\n      tag_105\n      jump\t// in\n    tag_182:\n        /* \"#utility.yul\":1789:1867   */\n      swap4\n      pop\n        /* \"#utility.yul\":1876:1941   */\n      tag_183\n        /* \"#utility.yul\":1934:1940   */\n      dup2\n        /* \"#utility.yul\":1929:1932   */\n      dup6\n        /* \"#utility.yul\":1922:1926   */\n      0x20\n        /* \"#utility.yul\":1915:1920   */\n      dup7\n        /* \"#utility.yul\":1911:1927   */\n      add\n        /* \"#utility.yul\":1876:1941   */\n      tag_106\n      jump\t// in\n    tag_183:\n        /* \"#utility.yul\":1966:1995   */\n      tag_184\n        /* \"#utility.yul\":1988:1994   */\n      dup2\n        /* \"#utility.yul\":1966:1995   */\n      tag_107\n      jump\t// in\n    tag_184:\n        /* \"#utility.yul\":1961:1964   */\n      dup5\n        /* \"#utility.yul\":1957:1996   */\n      add\n        /* \"#utility.yul\":1950:1996   */\n      swap2\n      pop\n        /* \"#utility.yul\":1717:2002   */\n      pop\n        /* \"#utility.yul\":1625:2002   */\n      swap3\n      swap2\n      pop\n      pop\n      jump\t// out\n        /* \"#utility.yul\":2008:2321   */\n    tag_20:\n        /* \"#utility.yul\":2121:2125   */\n      0x00\n        /* \"#utility.yul\":2159:2161   */\n      0x20\n        /* \"#utility.yul\":2148:2157   */\n      dup3\n        /* \"#utility.yul\":2144:2162   */\n      add\n        /* \"#utility.yul\":2136:2162   */\n      swap1\n      pop\n        /* \"#utility.yul\":2208:2217   */\n      dup2\n        /* \"#utility.yul\":2202:2206   */\n      dup2\n        /* \"#utility.yul\":2198:2218   */\n      sub\n        /* \"#utility.yul\":2194:2195   */\n      0x00\n        /* \"#utility.yul\":2183:2192   */\n      dup4\n        /* \"#utility.yul\":2179:2196   */\n      add\n        /* \"#utility.yul\":2172:2219   */\n      mstore\n        /* \"#utility.yul\":2236:2314   */\n      tag_186\n        /* \"#utility.yul\":2309:2313   */\n      dup2\n        /* \"#utility.yul\":2300:2306   */\n      dup5\n        /* \"#utility.yul\":2236:2314   */\n      tag_108\n      jump\t// in\n    tag_186:\n        /* \"#utility.yul\":2228:2314   */\n      swap1\n      pop\n        /* \"#utility.yul\":2008:2321   */\n      swap3\n      swap2\n      pop\n      pop\n      jump\t// out\n        /* \"#utility.yul\":2327:2402   */\n    tag_109:\n        /* \"#utility.yul\":2360:2366   */\n      0x00\n        /* \"#utility.yul\":2393:2395   */\n      0x40\n        /* \"#utility.yul\":2387:2396   */\n      mload\n        /* \"#utility.yul\":2377:2396   */\n      swap1\n      pop\n        /* \"#utility.yul\":2327:2402   */\n      swap1\n      jump\t// out\n        /* \"#utility.yul\":2408:2525   */\n    tag_110:\n        /* \"#utility.yul\":2517:2518   */\n      0x00\n        /* \"#utility.yul\":2514:2515   */\n      dup1\n        /* \"#utility.yul\":2507:2519   */\n      revert\n        /* \"#utility.yul\":2531:2648   */\n    tag_111:\n        /* \"#utility.yul\":2640:2641   */\n      0x00\n        /* \"#utility.yul\":2637:2638   */\n      dup1\n        /* \"#utility.yul\":2630:2642   */\n      revert\n        /* \"#utility.yul\":2654:2771   */\n    tag_112:\n        /* \"#utility.yul\":2763:2764   */\n      0x00\n        /* \"#utility.yul\":2760:2761   */\n      dup1\n        /* \"#utility.yul\":2753:2765   */\n      revert\n        /* \"#utility.yul\":2777:2894   */\n    tag_113:\n        /* \"#utility.yul\":2886:2887   */\n      0x00\n        /* \"#utility.yul\":2883:2884   */\n      dup1\n        /* \"#utility.yul\":2876:2888   */\n      revert\n        /* \"#utility.yul\":2900:3080   */\n    tag_114:\n        /* \"#utility.yul\":2948:3025   */\n      0x4e487b7100000000000000000000000000000000000000000000000000000000\n        /* \"#utility.yul\":2945:2946   */\n      0x00\n        /* \"#utility.yul\":2938:3026   */\n      mstore\n        /* \"#utility.yul\":3045:3049   */\n      0x41\n        /* \"#utility.yul\":3042:3043   */\n      0x04\n        /* \"#utility.yul\":3035:3050   */\n      mstore\n        /* \"#utility.yul\":3069:3073   */\n      0x24\n        /* \"#utility.yul\":3066:3067   */\n      0x00\n        /* \"#utility.yul\":3059:3074   */\n      revert\n        /* \"#utility.yul\":3086:3367   */\n    tag_115:\n        /* \"#utility.yul\":3169:3196   */\n      tag_194\n        /* \"#utility.yul\":3191:3195   */\n      dup3\n        /* \"#utility.yul\":3169:3196   */\n      tag_107\n      jump\t// in\n    tag_194:\n        /* \"#utility.yul\":3161:3167   */\n      dup2\n        /* \"#utility.yul\":3157:3197   */\n      add\n        /* \"#utility.yul\":3299:3305   */\n      dup2\n        /* \"#utility.yul\":3287:3297   */\n      dup2\n        /* \"#utility.yul\":3284:3306   */\n      lt\n        /* \"#utility.yul\":3263:3281   */\n      0xffffffffffffffff\n        /* \"#utility.yul\":3251:3261   */\n      dup3\n        /* \"#utility.yul\":3248:3282   */\n      gt\n        /* \"#utility.yul\":3245:3307   */\n      or\n        /* \"#utility.yul\":3242:3330   */\n      iszero\n      tag_195\n      jumpi\n        /* \"#utility.yul\":3310:3328   */\n      tag_196\n      tag_114\n      jump\t// in\n    tag_196:\n        /* \"#utility.yul\":3242:3330   */\n    tag_195:\n        /* \"#utility.yul\":3350:3360   */\n      dup1\n        /* \"#utility.yul\":3346:3348   */\n      0x40\n        /* \"#utility.yul\":3339:3361   */\n      mstore\n        /* \"#utility.yul\":3129:3367   */\n      pop\n        /* \"#utility.yul\":3086:3367   */\n      pop\n      pop\n      jump\t// out\n        /* \"#utility.yul\":3373:3502   */\n    tag_116:\n        /* \"#utility.yul\":3407:3413   */\n      0x00\n        /* \"#utility.yul\":3434:3454   */\n      tag_198\n      tag_109\n      jump\t// in\n    tag_198:\n        /* \"#utility.yul\":3424:3454   */\n      swap1\n      pop\n        /* \"#utility.yul\":3463:3496   */\n      tag_199\n        /* \"#utility.yul\":3491:3495   */\n      dup3\n        /* \"#utility.yul\":3483:3489   */\n      dup3\n        /* \"#utility.yul\":3463:3496   */\n      tag_115\n      jump\t// in\n    tag_199:\n        /* \"#utility.yul\":3373:3502   */\n      swap2\n      swap1\n      pop\n      jump\t// out\n        /* \"#utility.yul\":3508:3816   */\n    tag_117:\n        /* \"#utility.yul\":3570:3574   */\n      0x00\n        /* \"#utility.yul\":3660:3678   */\n      0xffffffffffffffff\n        /* \"#utility.yul\":3652:3658   */\n      dup3\n        /* \"#utility.yul\":3649:3679   */\n      gt\n        /* \"#utility.yul\":3646:3702   */\n      iszero\n      tag_201\n      jumpi\n        /* \"#utility.yul\":3682:3700   */\n      tag_202\n      tag_114\n      jump\t// in\n    tag_202:\n        /* \"#utility.yul\":3646:3702   */\n    tag_201:\n        /* \"#utility.yul\":3720:3749   */\n      tag_203\n        /* \"#utility.yul\":3742:3748   */\n      dup3\n        /* \"#utility.yul\":3720:3749   */\n      tag_107\n      jump\t// in\n    tag_203:\n        /* \"#utility.yul\":3712:3749   */\n      swap1\n      pop\n        /* \"#utility.yul\":3804:3808   */\n      0x20\n        /* \"#utility.yul\":3798:3802   */\n      dup2\n        /* \"#utility.yul\":3794:3809   */\n      add\n        /* \"#utility.yul\":3786:3809   */\n      swap1\n      pop\n        /* \"#utility.yul\":3508:3816   */\n      swap2\n      swap1\n      pop\n      jump\t// out\n        /* \"#utility.yul\":3822:3970   */\n    tag_118:\n        /* \"#utility.yul\":3920:3926   */\n      dup3\n        /* \"#utility.yul\":3915:3918   */\n      dup2\n        /* \"#utility.yul\":3910:3913   */\n      dup4\n        /* \"#utility.yul\":3897:3927   */\n      calldatacopy\n        /* \"#utility.yul\":3961:3962   */\n      0x00\n        /* \"#utility.yul\":3952:3958   */\n      dup4\n        /* \"#utility.yul\":3947:3950   */\n      dup4\n        /* \"#utility.yul\":3943:3959   */\n      add\n        /* \"#utility.yul\":3936:3963   */\n      mstore\n        /* \"#utility.yul\":3822:3970   */\n      pop\n      pop\n      pop\n      jump\t// out\n        /* \"#utility.yul\":3976:4401   */\n    tag_119:\n        /* \"#utility.yul\":4054:4059   */\n      0x00\n        /* \"#utility.yul\":4079:4145   */\n      tag_206\n        /* \"#utility.yul\":4095:4144   */\n      tag_207\n        /* \"#utility.yul\":4137:4143   */\n      dup5\n        /* \"#utility.yul\":4095:4144   */\n      tag_117\n      jump\t// in\n    tag_207:\n        /* \"#utility.yul\":4079:4145   */\n      tag_116\n      jump\t// in\n    tag_206:\n        /* \"#utility.yul\":4070:4145   */\n      swap1\n      pop\n        /* \"#utility.yul\":4168:4174   */\n      dup3\n        /* \"#utility.yul\":4161:4166   */\n      dup2\n        /* \"#utility.yul\":4154:4175   */\n      mstore\n        /* \"#utility.yul\":4206:4210   */\n      0x20\n        /* \"#utility.yul\":4199:4204   */\n      dup2\n        /* \"#utility.yul\":4195:4211   */\n      add\n        /* \"#utility.yul\":4244:4247   */\n      dup5\n        /* \"#utility.yul\":4235:4241   */\n      dup5\n        /* \"#utility.yul\":4230:4233   */\n      dup5\n        /* \"#utility.yul\":4226:4242   */\n      add\n        /* \"#utility.yul\":4223:4248   */\n      gt\n        /* \"#utility.yul\":4220:4332   */\n      iszero\n      tag_208\n      jumpi\n        /* \"#utility.yul\":4251:4330   */\n      tag_209\n      tag_113\n      jump\t// in\n    tag_209:\n        /* \"#utility.yul\":4220:4332   */\n    tag_208:\n        /* \"#utility.yul\":4341:4395   */\n      tag_210\n        /* \"#utility.yul\":4388:4394   */\n      dup5\n        /* \"#utility.yul\":4383:4386   */\n      dup3\n        /* \"#utility.yul\":4378:4381   */\n      dup6\n        /* \"#utility.yul\":4341:4395   */\n      tag_118\n      jump\t// in\n    tag_210:\n        /* \"#utility.yul\":4060:4401   */\n      pop\n        /* \"#utility.yul\":3976:4401   */\n      swap4\n      swap3\n      pop\n      pop\n      pop\n      jump\t// out\n        /* \"#utility.yul\":4421:4761   */\n    tag_120:\n        /* \"#utility.yul\":4477:4482   */\n      0x00\n        /* \"#utility.yul\":4526:4529   */\n      dup3\n        /* \"#utility.yul\":4519:4523   */\n      0x1f\n        /* \"#utility.yul\":4511:4517   */\n      dup4\n        /* \"#utility.yul\":4507:4524   */\n      add\n        /* \"#utility.yul\":4503:4530   */\n      slt\n        /* \"#utility.yul\":4493:4615   */\n      tag_212\n      jumpi\n        /* \"#utility.yul\":4534:4613   */\n      tag_213\n      tag_112\n      jump\t// in\n    tag_213:\n        /* \"#utility.yul\":4493:4615   */\n    tag_212:\n        /* \"#utility.yul\":4651:4657   */\n      dup2\n        /* \"#utility.yul\":4638:4658   */\n      calldataload\n        /* \"#utility.yul\":4676:4755   */\n      tag_214\n        /* \"#utility.yul\":4751:4754   */\n      dup5\n        /* \"#utility.yul\":4743:4749   */\n      dup3\n        /* \"#utility.yul\":4736:4740   */\n      0x20\n        /* \"#utility.yul\":4728:4734   */\n      dup7\n        /* \"#utility.yul\":4724:4741   */\n      add\n        /* \"#utility.yul\":4676:4755   */\n      tag_119\n      jump\t// in\n    tag_214:\n        /* \"#utility.yul\":4667:4755   */\n      swap2\n      pop\n        /* \"#utility.yul\":4483:4761   */\n      pop\n        /* \"#utility.yul\":4421:4761   */\n      swap3\n      swap2\n      pop\n      pop\n      jump\t// out\n        /* \"#utility.yul\":4767:5601   */\n    tag_23:\n        /* \"#utility.yul\":4855:4861   */\n      0x00\n        /* \"#utility.yul\":4863:4869   */\n      dup1\n        /* \"#utility.yul\":4912:4914   */\n      0x40\n        /* \"#utility.yul\":4900:4909   */\n      dup4\n        /* \"#utility.yul\":4891:4898   */\n      dup6\n        /* \"#utility.yul\":4887:4910   */\n      sub\n        /* \"#utility.yul\":4883:4915   */\n      slt\n        /* \"#utility.yul\":4880:4999   */\n      iszero\n      tag_216\n      jumpi\n        /* \"#utility.yul\":4918:4997   */\n      tag_217\n      tag_110\n      jump\t// in\n    tag_217:\n        /* \"#utility.yul\":4880:4999   */\n    tag_216:\n        /* \"#utility.yul\":5066:5067   */\n      0x00\n        /* \"#utility.yul\":5055:5064   */\n      dup4\n        /* \"#utility.yul\":5051:5068   */\n      add\n        /* \"#utility.yul\":5038:5069   */\n      calldataload\n        /* \"#utility.yul\":5096:5114   */\n      0xffffffffffffffff\n        /* \"#utility.yul\":5088:5094   */\n      dup2\n        /* \"#utility.yul\":5085:5115   */\n      gt\n        /* \"#utility.yul\":5082:5199   */\n      iszero\n      tag_218\n      jumpi\n        /* \"#utility.yul\":5118:5197   */\n      tag_219\n      tag_111\n      jump\t// in\n    tag_219:\n        /* \"#utility.yul\":5082:5199   */\n    tag_218:\n        /* \"#utility.yul\":5223:5286   */\n      tag_220\n        /* \"#utility.yul\":5278:5285   */\n      dup6\n        /* \"#utility.yul\":5269:5275   */\n      dup3\n        /* \"#utility.yul\":5258:5267   */\n      dup7\n        /* \"#utility.yul\":5254:5276   */\n      add\n        /* \"#utility.yul\":5223:5286   */\n      tag_120\n      jump\t// in\n    tag_220:\n        /* \"#utility.yul\":5213:5286   */\n      swap3\n      pop\n        /* \"#utility.yul\":5009:5296   */\n      pop\n        /* \"#utility.yul\":5363:5365   */\n      0x20\n        /* \"#utility.yul\":5352:5361   */\n      dup4\n        /* \"#utility.yul\":5348:5366   */\n      add\n        /* \"#utility.yul\":5335:5367   */\n      calldataload\n        /* \"#utility.yul\":5394:5412   */\n      0xffffffffffffffff\n        /* \"#utility.yul\":5386:5392   */\n      dup2\n        /* \"#utility.yul\":5383:5413   */\n      gt\n        /* \"#utility.yul\":5380:5497   */\n      iszero\n      tag_221\n      jumpi\n        /* \"#utility.yul\":5416:5495   */\n      tag_222\n      tag_111\n      jump\t// in\n    tag_222:\n        /* \"#utility.yul\":5380:5497   */\n    tag_221:\n        /* \"#utility.yul\":5521:5584   */\n      tag_223\n        /* \"#utility.yul\":5576:5583   */\n      dup6\n        /* \"#utility.yul\":5567:5573   */\n      dup3\n        /* \"#utility.yul\":5556:5565   */\n      dup7\n        /* \"#utility.yul\":5552:5574   */\n      add\n        /* \"#utility.yul\":5521:5584   */\n      tag_120\n      jump\t// in\n    tag_223:\n        /* \"#utility.yul\":5511:5584   */\n      swap2\n      pop\n        /* \"#utility.yul\":5306:5594   */\n      pop\n        /* \"#utility.yul\":4767:5601   */\n      swap3\n      pop\n      swap3\n      swap1\n      pop\n      jump\t// out\n        /* \"#utility.yul\":5607:5684   */\n    tag_121:\n        /* \"#utility.yul\":5644:5651   */\n      0x00\n        /* \"#utility.yul\":5673:5678   */\n      dup2\n        /* \"#utility.yul\":5662:5678   */\n      swap1\n      pop\n        /* \"#utility.yul\":5607:5684   */\n      swap2\n      swap1\n      pop\n      jump\t// out\n        /* \"#utility.yul\":5690:5812   */\n    tag_122:\n        /* \"#utility.yul\":5763:5787   */\n      tag_226\n        /* \"#utility.yul\":5781:5786   */\n      dup2\n        /* \"#utility.yul\":5763:5787   */\n      tag_121\n      jump\t// in\n    tag_226:\n        /* \"#utility.yul\":5756:5761   */\n      dup2\n        /* \"#utility.yul\":5753:5788   */\n      eq\n        /* \"#utility.yul\":5743:5806   */\n      tag_227\n      jumpi\n        /* \"#utility.yul\":5802:5803   */\n      0x00\n        /* \"#utility.yul\":5799:5800   */\n      dup1\n        /* \"#utility.yul\":5792:5804   */\n      revert\n        /* \"#utility.yul\":5743:5806   */\n    tag_227:\n        /* \"#utility.yul\":5690:5812   */\n      pop\n      jump\t// out\n        /* \"#utility.yul\":5818:5957   */\n    tag_123:\n        /* \"#utility.yul\":5864:5869   */\n      0x00\n        /* \"#utility.yul\":5902:5908   */\n      dup2\n        /* \"#utility.yul\":5889:5909   */\n      calldataload\n        /* \"#utility.yul\":5880:5909   */\n      swap1\n      pop\n        /* \"#utility.yul\":5918:5951   */\n      tag_229\n        /* \"#utility.yul\":5945:5950   */\n      dup2\n        /* \"#utility.yul\":5918:5951   */\n      tag_122\n      jump\t// in\n    tag_229:\n        /* \"#utility.yul\":5818:5957   */\n      swap3\n      swap2\n      pop\n      pop\n      jump\t// out\n        /* \"#utility.yul\":5963:6080   */\n    tag_124:\n        /* \"#utility.yul\":6072:6073   */\n      0x00\n        /* \"#utility.yul\":6069:6070   */\n      dup1\n        /* \"#utility.yul\":6062:6074   */\n      revert\n        /* \"#utility.yul\":6086:6203   */\n    tag_125:\n        /* \"#utility.yul\":6195:6196   */\n      0x00\n        /* \"#utility.yul\":6192:6193   */\n      dup1\n        /* \"#utility.yul\":6185:6197   */\n      revert\n        /* \"#utility.yul\":6223:6776   */\n    tag_126:\n        /* \"#utility.yul\":6281:6289   */\n      0x00\n        /* \"#utility.yul\":6291:6297   */\n      dup1\n        /* \"#utility.yul\":6341:6344   */\n      dup4\n        /* \"#utility.yul\":6334:6338   */\n      0x1f\n        /* \"#utility.yul\":6326:6332   */\n      dup5\n        /* \"#utility.yul\":6322:6339   */\n      add\n        /* \"#utility.yul\":6318:6345   */\n      slt\n        /* \"#utility.yul\":6308:6430   */\n      tag_233\n      jumpi\n        /* \"#utility.yul\":6349:6428   */\n      tag_234\n      tag_112\n      jump\t// in\n    tag_234:\n        /* \"#utility.yul\":6308:6430   */\n    tag_233:\n        /* \"#utility.yul\":6462:6468   */\n      dup3\n        /* \"#utility.yul\":6449:6469   */\n      calldataload\n        /* \"#utility.yul\":6439:6469   */\n      swap1\n      pop\n        /* \"#utility.yul\":6492:6510   */\n      0xffffffffffffffff\n        /* \"#utility.yul\":6484:6490   */\n      dup2\n        /* \"#utility.yul\":6481:6511   */\n      gt\n        /* \"#utility.yul\":6478:6595   */\n      iszero\n      tag_235\n      jumpi\n        /* \"#utility.yul\":6514:6593   */\n      tag_236\n      tag_124\n      jump\t// in\n    tag_236:\n        /* \"#utility.yul\":6478:6595   */\n    tag_235:\n        /* \"#utility.yul\":6628:6632   */\n      0x20\n        /* \"#utility.yul\":6620:6626   */\n      dup4\n        /* \"#utility.yul\":6616:6633   */\n      add\n        /* \"#utility.yul\":6604:6633   */\n      swap2\n      pop\n        /* \"#utility.yul\":6682:6685   */\n      dup4\n        /* \"#utility.yul\":6674:6678   */\n      0x01\n        /* \"#utility.yul\":6666:6672   */\n      dup3\n        /* \"#utility.yul\":6662:6679   */\n      mul\n        /* \"#utility.yul\":6652:6660   */\n      dup4\n        /* \"#utility.yul\":6648:6680   */\n      add\n        /* \"#utility.yul\":6645:6686   */\n      gt\n        /* \"#utility.yul\":6642:6770   */\n      iszero\n      tag_237\n      jumpi\n        /* \"#utility.yul\":6689:6768   */\n      tag_238\n      tag_125\n      jump\t// in\n    tag_238:\n        /* \"#utility.yul\":6642:6770   */\n    tag_237:\n        /* \"#utility.yul\":6223:6776   */\n      swap3\n      pop\n      swap3\n      swap1\n      pop\n      jump\t// out\n        /* \"#utility.yul\":6795:7347   */\n    tag_127:\n        /* \"#utility.yul\":6852:6860   */\n      0x00\n        /* \"#utility.yul\":6862:6868   */\n      dup1\n        /* \"#utility.yul\":6912:6915   */\n      dup4\n        /* \"#utility.yul\":6905:6909   */\n      0x1f\n        /* \"#utility.yul\":6897:6903   */\n      dup5\n        /* \"#utility.yul\":6893:6910   */\n      add\n        /* \"#utility.yul\":6889:6916   */\n      slt\n        /* \"#utility.yul\":6879:7001   */\n      tag_240\n      jumpi\n        /* \"#utility.yul\":6920:6999   */\n      tag_241\n      tag_112\n      jump\t// in\n    tag_241:\n        /* \"#utility.yul\":6879:7001   */\n    tag_240:\n        /* \"#utility.yul\":7033:7039   */\n      dup3\n        /* \"#utility.yul\":7020:7040   */\n      calldataload\n        /* \"#utility.yul\":7010:7040   */\n      swap1\n      pop\n        /* \"#utility.yul\":7063:7081   */\n      0xffffffffffffffff\n        /* \"#utility.yul\":7055:7061   */\n      dup2\n        /* \"#utility.yul\":7052:7082   */\n      gt\n        /* \"#utility.yul\":7049:7166   */\n      iszero\n      tag_242\n      jumpi\n        /* \"#utility.yul\":7085:7164   */\n      tag_243\n      tag_124\n      jump\t// in\n    tag_243:\n        /* \"#utility.yul\":7049:7166   */\n    tag_242:\n        /* \"#utility.yul\":7199:7203   */\n      0x20\n        /* \"#utility.yul\":7191:7197   */\n      dup4\n        /* \"#utility.yul\":7187:7204   */\n      add\n        /* \"#utility.yul\":7175:7204   */\n      swap2\n      pop\n        /* \"#utility.yul\":7253:7256   */\n      dup4\n        /* \"#utility.yul\":7245:7249   */\n      0x01\n        /* \"#utility.yul\":7237:7243   */\n      dup3\n        /* \"#utility.yul\":7233:7250   */\n      mul\n        /* \"#utility.yul\":7223:7231   */\n      dup4\n        /* \"#utility.yul\":7219:7251   */\n      add\n        /* \"#utility.yul\":7216:7257   */\n      gt\n        /* \"#utility.yul\":7213:7341   */\n      iszero\n      tag_244\n      jumpi\n        /* \"#utility.yul\":7260:7339   */\n      tag_245\n      tag_125\n      jump\t// in\n    tag_245:\n        /* \"#utility.yul\":7213:7341   */\n    tag_244:\n        /* \"#utility.yul\":6795:7347   */\n      swap3\n      pop\n      swap3\n      swap1\n      pop\n      jump\t// out\n        /* \"#utility.yul\":7353:8716   */\n    tag_27:\n        /* \"#utility.yul\":7474:7480   */\n      0x00\n        /* \"#utility.yul\":7482:7488   */\n      dup1\n        /* \"#utility.yul\":7490:7496   */\n      0x00\n        /* \"#utility.yul\":7498:7504   */\n      dup1\n        /* \"#utility.yul\":7506:7512   */\n      0x00\n        /* \"#utility.yul\":7514:7520   */\n      dup1\n        /* \"#utility.yul\":7522:7528   */\n      0x00\n        /* \"#utility.yul\":7571:7574   */\n      0x80\n        /* \"#utility.yul\":7559:7568   */\n      dup9\n        /* \"#utility.yul\":7550:7557   */\n      dup11\n        /* \"#utility.yul\":7546:7569   */\n      sub\n        /* \"#utility.yul\":7542:7575   */\n      slt\n        /* \"#utility.yul\":7539:7659   */\n      iszero\n      tag_247\n      jumpi\n        /* \"#utility.yul\":7578:7657   */\n      tag_248\n      tag_110\n      jump\t// in\n    tag_248:\n        /* \"#utility.yul\":7539:7659   */\n    tag_247:\n        /* \"#utility.yul\":7698:7699   */\n      0x00\n        /* \"#utility.yul\":7723:7776   */\n      tag_249\n        /* \"#utility.yul\":7768:7775   */\n      dup11\n        /* \"#utility.yul\":7759:7765   */\n      dup3\n        /* \"#utility.yul\":7748:7757   */\n      dup12\n        /* \"#utility.yul\":7744:7766   */\n      add\n        /* \"#utility.yul\":7723:7776   */\n      tag_123\n      jump\t// in\n    tag_249:\n        /* \"#utility.yul\":7713:7776   */\n      swap8\n      pop\n        /* \"#utility.yul\":7669:7786   */\n      pop\n        /* \"#utility.yul\":7853:7855   */\n      0x20\n        /* \"#utility.yul\":7842:7851   */\n      dup9\n        /* \"#utility.yul\":7838:7856   */\n      add\n        /* \"#utility.yul\":7825:7857   */\n      calldataload\n        /* \"#utility.yul\":7884:7902   */\n      0xffffffffffffffff\n        /* \"#utility.yul\":7876:7882   */\n      dup2\n        /* \"#utility.yul\":7873:7903   */\n      gt\n        /* \"#utility.yul\":7870:7987   */\n      iszero\n      tag_250\n      jumpi\n        /* \"#utility.yul\":7906:7985   */\n      tag_251\n      tag_111\n      jump\t// in\n    tag_251:\n        /* \"#utility.yul\":7870:7987   */\n    tag_250:\n        /* \"#utility.yul\":8019:8084   */\n      tag_252\n        /* \"#utility.yul\":8076:8083   */\n      dup11\n        /* \"#utility.yul\":8067:8073   */\n      dup3\n        /* \"#utility.yul\":8056:8065   */\n      dup12\n        /* \"#utility.yul\":8052:8074   */\n      add\n        /* \"#utility.yul\":8019:8084   */\n      tag_126\n      jump\t// in\n    tag_252:\n        /* \"#utility.yul\":8001:8084   */\n      swap7\n      pop\n      swap7\n      pop\n        /* \"#utility.yul\":7796:8094   */\n      pop\n        /* \"#utility.yul\":8161:8163   */\n      0x40\n        /* \"#utility.yul\":8150:8159   */\n      dup9\n        /* \"#utility.yul\":8146:8164   */\n      add\n        /* \"#utility.yul\":8133:8165   */\n      calldataload\n        /* \"#utility.yul\":8192:8210   */\n      0xffffffffffffffff\n        /* \"#utility.yul\":8184:8190   */\n      dup2\n        /* \"#utility.yul\":8181:8211   */\n      gt\n        /* \"#utility.yul\":8178:8295   */\n      iszero\n      tag_253\n      jumpi\n        /* \"#utility.yul\":8214:8293   */\n      tag_254\n      tag_111\n      jump\t// in\n    tag_254:\n        /* \"#utility.yul\":8178:8295   */\n    tag_253:\n        /* \"#utility.yul\":8327:8392   */\n      tag_255\n        /* \"#utility.yul\":8384:8391   */\n      dup11\n        /* \"#utility.yul\":8375:8381   */\n      dup3\n        /* \"#utility.yul\":8364:8373   */\n      dup12\n        /* \"#utility.yul\":8360:8382   */\n      add\n        /* \"#utility.yul\":8327:8392   */\n      tag_126\n      jump\t// in\n    tag_255:\n        /* \"#utility.yul\":8309:8392   */\n      swap5\n      pop\n      swap5\n      pop\n        /* \"#utility.yul\":8104:8402   */\n      pop\n        /* \"#utility.yul\":8469:8471   */\n      0x60\n        /* \"#utility.yul\":8458:8467   */\n      dup9\n        /* \"#utility.yul\":8454:8472   */\n      add\n        /* \"#utility.yul\":8441:8473   */\n      calldataload\n        /* \"#utility.yul\":8500:8518   */\n      0xffffffffffffffff\n        /* \"#utility.yul\":8492:8498   */\n      dup2\n        /* \"#utility.yul\":8489:8519   */\n      gt\n        /* \"#utility.yul\":8486:8603   */\n      iszero\n      tag_256\n      jumpi\n        /* \"#utility.yul\":8522:8601   */\n      tag_257\n      tag_111\n      jump\t// in\n    tag_257:\n        /* \"#utility.yul\":8486:8603   */\n    tag_256:\n        /* \"#utility.yul\":8635:8699   */\n      tag_258\n        /* \"#utility.yul\":8691:8698   */\n      dup11\n        /* \"#utility.yul\":8682:8688   */\n      dup3\n        /* \"#utility.yul\":8671:8680   */\n      dup12\n        /* \"#utility.yul\":8667:8689   */\n      add\n        /* \"#utility.yul\":8635:8699   */\n      tag_127\n      jump\t// in\n    tag_258:\n        /* \"#utility.yul\":8617:8699   */\n      swap3\n      pop\n      swap3\n      pop\n        /* \"#utility.yul\":8412:8709   */\n      pop\n        /* \"#utility.yul\":7353:8716   */\n      swap3\n      swap6\n      swap9\n      swap2\n      swap5\n      swap8\n      pop\n      swap3\n      swap6\n      pop\n      jump\t// out\n        /* \"#utility.yul\":8722:8818   */\n    tag_128:\n        /* \"#utility.yul\":8759:8766   */\n      0x00\n        /* \"#utility.yul\":8788:8812   */\n      tag_260\n        /* \"#utility.yul\":8806:8811   */\n      dup3\n        /* \"#utility.yul\":8788:8812   */\n      tag_98\n      jump\t// in\n    tag_260:\n        /* \"#utility.yul\":8777:8812   */\n      swap1\n      pop\n        /* \"#utility.yul\":8722:8818   */\n      swap2\n      swap1\n      pop\n      jump\t// out\n        /* \"#utility.yul\":8824:8942   */\n    tag_129:\n        /* \"#utility.yul\":8911:8935   */\n      tag_262\n        /* \"#utility.yul\":8929:8934   */\n      dup2\n        /* \"#utility.yul\":8911:8935   */\n      tag_128\n      jump\t// in\n    tag_262:\n        /* \"#utility.yul\":8906:8909   */\n      dup3\n        /* \"#utility.yul\":8899:8936   */\n      mstore\n        /* \"#utility.yul\":8824:8942   */\n      pop\n      pop\n      jump\t// out\n        /* \"#utility.yul\":8948:9170   */\n    tag_32:\n        /* \"#utility.yul\":9041:9045   */\n      0x00\n        /* \"#utility.yul\":9079:9081   */\n      0x20\n        /* \"#utility.yul\":9068:9077   */\n      dup3\n        /* \"#utility.yul\":9064:9082   */\n      add\n        /* \"#utility.yul\":9056:9082   */\n      swap1\n      pop\n        /* \"#utility.yul\":9092:9163   */\n      tag_264\n        /* \"#utility.yul\":9160:9161   */\n      0x00\n        /* \"#utility.yul\":9149:9158   */\n      dup4\n        /* \"#utility.yul\":9145:9162   */\n      add\n        /* \"#utility.yul\":9136:9142   */\n      dup5\n        /* \"#utility.yul\":9092:9163   */\n      tag_129\n      jump\t// in\n    tag_264:\n        /* \"#utility.yul\":8948:9170   */\n      swap3\n      swap2\n      pop\n      pop\n      jump\t// out\n        /* \"#utility.yul\":9176:9253   */\n    tag_130:\n        /* \"#utility.yul\":9213:9220   */\n      0x00\n        /* \"#utility.yul\":9242:9247   */\n      dup2\n        /* \"#utility.yul\":9231:9247   */\n      swap1\n      pop\n        /* \"#utility.yul\":9176:9253   */\n      swap2\n      swap1\n      pop\n      jump\t// out\n        /* \"#utility.yul\":9259:9377   */\n    tag_131:\n        /* \"#utility.yul\":9346:9370   */\n      tag_267\n        /* \"#utility.yul\":9364:9369   */\n      dup2\n        /* \"#utility.yul\":9346:9370   */\n      tag_130\n      jump\t// in\n    tag_267:\n        /* \"#utility.yul\":9341:9344   */\n      dup3\n        /* \"#utility.yul\":9334:9371   */\n      mstore\n        /* \"#utility.yul\":9259:9377   */\n      pop\n      pop\n      jump\t// out\n        /* \"#utility.yul\":9383:9605   */\n    tag_39:\n        /* \"#utility.yul\":9476:9480   */\n      0x00\n        /* \"#utility.yul\":9514:9516   */\n      0x20\n        /* \"#utility.yul\":9503:9512   */\n      dup3\n        /* \"#utility.yul\":9499:9517   */\n      add\n        /* \"#utility.yul\":9491:9517   */\n      swap1\n      pop\n        /* \"#utility.yul\":9527:9598   */\n      tag_269\n        /* \"#utility.yul\":9595:9596   */\n      0x00\n        /* \"#utility.yul\":9584:9593   */\n      dup4\n        /* \"#utility.yul\":9580:9597   */\n      add\n        /* \"#utility.yul\":9571:9577   */\n      dup5\n        /* \"#utility.yul\":9527:9598   */\n      tag_131\n      jump\t// in\n    tag_269:\n        /* \"#utility.yul\":9383:9605   */\n      swap3\n      swap2\n      pop\n      pop\n      jump\t// out\n        /* \"#utility.yul\":9611:9791   */\n    tag_132:\n        /* \"#utility.yul\":9659:9736   */\n      0x4e487b7100000000000000000000000000000000000000000000000000000000\n        /* \"#utility.yul\":9656:9657   */\n      0x00\n        /* \"#utility.yul\":9649:9737   */\n      mstore\n        /* \"#utility.yul\":9756:9760   */\n      0x22\n        /* \"#utility.yul\":9753:9754   */\n      0x04\n        /* \"#utility.yul\":9746:9761   */\n      mstore\n        /* \"#utility.yul\":9780:9784   */\n      0x24\n        /* \"#utility.yul\":9777:9778   */\n      0x00\n        /* \"#utility.yul\":9770:9785   */\n      revert\n        /* \"#utility.yul\":9797:10117   */\n    tag_48:\n        /* \"#utility.yul\":9841:9847   */\n      0x00\n        /* \"#utility.yul\":9878:9879   */\n      0x02\n        /* \"#utility.yul\":9872:9876   */\n      dup3\n        /* \"#utility.yul\":9868:9880   */\n      div\n        /* \"#utility.yul\":9858:9880   */\n      swap1\n      pop\n        /* \"#utility.yul\":9925:9926   */\n      0x01\n        /* \"#utility.yul\":9919:9923   */\n      dup3\n        /* \"#utility.yul\":9915:9927   */\n      and\n        /* \"#utility.yul\":9946:9964   */\n      dup1\n        /* \"#utility.yul\":9936:10017   */\n      tag_272\n      jumpi\n        /* \"#utility.yul\":10002:10006   */\n      0x7f\n        /* \"#utility.yul\":9994:10000   */\n      dup3\n        /* \"#utility.yul\":9990:10007   */\n      and\n        /* \"#utility.yul\":9980:10007   */\n      swap2\n      pop\n        /* \"#utility.yul\":9936:10017   */\n    tag_272:\n        /* \"#utility.yul\":10064:10066   */\n      0x20\n        /* \"#utility.yul\":10056:10062   */\n      dup3\n        /* \"#utility.yul\":10053:10067   */\n      lt\n        /* \"#utility.yul\":10033:10051   */\n      dup2\n        /* \"#utility.yul\":10030:10068   */\n      sub\n        /* \"#utility.yul\":10027:10111   */\n      tag_273\n      jumpi\n        /* \"#utility.yul\":10083:10101   */\n      tag_274\n      tag_132\n      jump\t// in\n    tag_274:\n        /* \"#utility.yul\":10027:10111   */\n    tag_273:\n        /* \"#utility.yul\":9848:10117   */\n      pop\n        /* \"#utility.yul\":9797:10117   */\n      swap2\n      swap1\n      pop\n      jump\t// out\n        /* \"#utility.yul\":10123:10264   */\n    tag_133:\n        /* \"#utility.yul\":10172:10176   */\n      0x00\n        /* \"#utility.yul\":10195:10198   */\n      dup2\n        /* \"#utility.yul\":10187:10198   */\n      swap1\n      pop\n        /* \"#utility.yul\":10218:10221   */\n      dup2\n        /* \"#utility.yul\":10215:10216   */\n      0x00\n        /* \"#utility.yul\":10208:10222   */\n      mstore\n        /* \"#utility.yul\":10252:10256   */\n      0x20\n        /* \"#utility.yul\":10249:10250   */\n      0x00\n        /* \"#utility.yul\":10239:10257   */\n      keccak256\n        /* \"#utility.yul\":10231:10257   */\n      swap1\n      pop\n        /* \"#utility.yul\":10123:10264   */\n      swap2\n      swap1\n      pop\n      jump\t// out\n        /* \"#utility.yul\":10270:10363   */\n    tag_134:\n        /* \"#utility.yul\":10307:10313   */\n      0x00\n        /* \"#utility.yul\":10354:10356   */\n      0x20\n        /* \"#utility.yul\":10349:10351   */\n      0x1f\n        /* \"#utility.yul\":10342:10347   */\n      dup4\n        /* \"#utility.yul\":10338:10352   */\n      add\n        /* \"#utility.yul\":10334:10357   */\n      div\n        /* \"#utility.yul\":10324:10357   */\n      swap1\n      pop\n        /* \"#utility.yul\":10270:10363   */\n      swap2\n      swap1\n      pop\n      jump\t// out\n        /* \"#utility.yul\":10369:10476   */\n    tag_135:\n        /* \"#utility.yul\":10413:10421   */\n      0x00\n        /* \"#utility.yul\":10463:10468   */\n      dup3\n        /* \"#utility.yul\":10457:10461   */\n      dup3\n        /* \"#utility.yul\":10453:10469   */\n      shl\n        /* \"#utility.yul\":10432:10469   */\n      swap1\n      pop\n        /* \"#utility.yul\":10369:10476   */\n      swap3\n      swap2\n      pop\n      pop\n      jump\t// out\n        /* \"#utility.yul\":10482:10875   */\n    tag_136:\n        /* \"#utility.yul\":10551:10557   */\n      0x00\n        /* \"#utility.yul\":10601:10602   */\n      0x08\n        /* \"#utility.yul\":10589:10599   */\n      dup4\n        /* \"#utility.yul\":10585:10603   */\n      mul\n        /* \"#utility.yul\":10624:10721   */\n      tag_279\n        /* \"#utility.yul\":10654:10720   */\n      0xffffffffffffffffffffffffffffffffffffffffffffffffffffffffffffffff\n        /* \"#utility.yul\":10643:10652   */\n      dup3\n        /* \"#utility.yul\":10624:10721   */\n      tag_135\n      jump\t// in\n    tag_279:\n        /* \"#utility.yul\":10742:10781   */\n      tag_280\n        /* \"#utility.yul\":10772:10780   */\n      dup7\n        /* \"#utility.yul\":10761:10770   */\n      dup4\n        /* \"#utility.yul\":10742:10781   */\n      tag_135\n      jump\t// in\n    tag_280:\n        /* \"#utility.yul\":10730:10781   */\n      swap6\n      pop\n        /* \"#utility.yul\":10814:10818   */\n      dup1\n        /* \"#utility.yul\":10810:10819   */\n      not\n        /* \"#utility.yul\":10803:10808   */\n      dup5\n        /* \"#utility.yul\":10799:10820   */\n      and\n        /* \"#utility.yul\":10790:10820   */\n      swap4\n      pop\n        /* \"#utility.yul\":10863:10867   */\n      dup1\n        /* \"#utility.yul\":10853:10861   */\n      dup7\n        /* \"#utility.yul\":10849:10868   */\n      and\n        /* \"#utility.yul\":10842:10847   */\n      dup5\n        /* \"#utility.yul\":10839:10869   */\n      or\n        /* \"#utility.yul\":10829:10869   */\n      swap3\n      pop\n        /* \"#utility.yul\":10558:10875   */\n      pop\n      pop\n        /* \"#utility.yul\":10482:10875   */\n      swap4\n      swap3\n      pop\n      pop\n      pop\n      jump\t// out\n        /* \"#utility.yul\":10881:11023   */\n    tag_137:\n        /* \"#utility.yul\":10931:10940   */\n      0x00\n        /* \"#utility.yul\":10964:11017   */\n      tag_282\n        /* \"#utility.yul\":10982:11016   */\n      tag_283\n        /* \"#utility.yul\":10991:11015   */\n      tag_284\n        /* \"#utility.yul\":11009:11014   */\n      dup5\n        /* \"#utility.yul\":10991:11015   */\n      tag_130\n      jump\t// in\n    tag_284:\n        /* \"#utility.yul\":10982:11016   */\n      tag_99\n      jump\t// in\n    tag_283:\n        /* \"#utility.yul\":10964:11017   */\n      tag_130\n      jump\t// in\n    tag_282:\n        /* \"#utility.yul\":10951:11017   */\n      swap1\n      pop\n        /* \"#utility.yul\":10881:11023   */\n      swap2\n      swap1\n      pop\n      jump\t// out\n        /* \"#utility.yul\":11029:11104   */\n    tag_138:\n        /* \"#utility.yul\":11072:11075   */\n      0x00\n        /* \"#utility.yul\":11093:11098   */\n      dup2\n        /* \"#utility.yul\":11086:11098   */\n      swap1\n      pop\n        /* \"#utility.yul\":11029:11104   */\n      swap2\n      swap1\n      pop\n      jump\t// out\n        /* \"#utility.yul\":11110:11379   */\n    tag_139:\n        /* \"#utility.yul\":11220:11259   */\n      tag_287\n        /* \"#utility.yul\":11251:11258   */\n      dup4\n        /* \"#utility.yul\":11220:11259   */\n      tag_137\n      jump\t// in\n    tag_287:\n        /* \"#utility.yul\":11281:11372   */\n      tag_288\n        /* \"#utility.yul\":11330:11371   */\n      tag_289\n        /* \"#utility.yul\":11354:11370   */\n      dup3\n        /* \"#utility.yul\":11330:11371   */\n      tag_138\n      jump\t// in\n    tag_289:\n        /* \"#utility.yul\":11322:11328   */\n      dup5\n        /* \"#utility.yul\":11315:11319   */\n      dup5\n        /* \"#utility.yul\":11309:11320   */\n      sload\n        /* \"#utility.yul\":11281:11372   */\n      tag_136\n      jump\t// in\n    tag_288:\n        /* \"#utility.yul\":11275:11279   */\n      dup3\n        /* \"#utility.yul\":11268:11373   */\n      sstore\n        /* \"#utility.yul\":11186:11379   */\n      pop\n        /* \"#utility.yul\":11110:11379   */\n      pop\n      pop\n      pop\n      jump\t// out\n        /* \"#utility.yul\":11385:11458   */\n    tag_140:\n        /* \"#utility.yul\":11430:11433   */\n      0x00\n        /* \"#utility.yul\":11385:11458   */\n      swap1\n      jump\t// out\n        /* \"#utility.yul\":11464:11653   */\n    tag_141:\n        /* \"#utility.yul\":11541:11573   */\n      tag_292\n      tag_140\n      jump\t// in\n    tag_292:\n        /* \"#utility.yul\":11582:11647   */\n      tag_293\n        /* \"#utility.yul\":11640:11646   */\n      dup2\n        /* \"#utility.yul\":11632:11638   */\n      dup5\n        /* \"#utility.yul\":11626:11630   */\n      dup5\n        /* \"#utility.yul\":11582:11647   */\n      tag_139\n      jump\t// in\n    tag_293:\n        /* \"#utility.yul\":11517:11653   */\n      pop\n        /* \"#utility.yul\":11464:11653   */\n      pop\n      pop\n      jump\t// out\n        /* \"#utility.yul\":11659:11845   */\n    tag_142:\n        /* \"#utility.yul\":11719:11839   */\n    tag_295:\n        /* \"#utility.yul\":11736:11739   */\n      dup2\n        /* \"#utility.yul\":11729:11734   */\n      dup2\n        /* \"#utility.yul\":11726:11740   */\n      lt\n        /* \"#utility.yul\":11719:11839   */\n      iszero\n      tag_297\n      jumpi\n        /* \"#utility.yul\":11790:11829   */\n      tag_298\n        /* \"#utility.yul\":11827:11828   */\n      0x00\n        /* \"#utility.yul\":11820:11825   */\n      dup3\n        /* \"#utility.yul\":11790:11829   */\n      tag_141\n      jump\t// in\n    tag_298:\n        /* \"#utility.yul\":11763:11764   */\n      0x01\n        /* \"#utility.yul\":11756:11761   */\n      dup2\n        /* \"#utility.yul\":11752:11765   */\n      add\n        /* \"#utility.yul\":11743:11765   */\n      swap1\n      pop\n        /* \"#utility.yul\":11719:11839   */\n      jump(tag_295)\n    tag_297:\n        /* \"#utility.yul\":11659:11845   */\n      pop\n      pop\n      jump\t// out\n        /* \"#utility.yul\":11851:12394   */\n    tag_143:\n        /* \"#utility.yul\":11952:11954   */\n      0x1f\n        /* \"#utility.yul\":11947:11950   */\n      dup3\n        /* \"#utility.yul\":11944:11955   */\n      gt\n        /* \"#utility.yul\":11941:12387   */\n      iszero\n      tag_300\n      jumpi\n        /* \"#utility.yul\":11986:12024   */\n      tag_301\n        /* \"#utility.yul\":12018:12023   */\n      dup2\n        /* \"#utility.yul\":11986:12024   */\n      tag_133\n      jump\t// in\n    tag_301:\n        /* \"#utility.yul\":12070:12099   */\n      tag_302\n        /* \"#utility.yul\":12088:12098   */\n      dup5\n        /* \"#utility.yul\":12070:12099   */\n      tag_134\n      jump\t// in\n    tag_302:\n        /* \"#utility.yul\":12060:12068   */\n      dup2\n        /* \"#utility.yul\":12056:12100   */\n      add\n        /* \"#utility.yul\":12253:12255   */\n      0x20\n        /* \"#utility.yul\":12241:12251   */\n      dup6\n        /* \"#utility.yul\":12238:12256   */\n      lt\n        /* \"#utility.yul\":12235:12284   */\n      iszero\n      tag_303\n      jumpi\n        /* \"#utility.yul\":12274:12282   */\n      dup2\n        /* \"#utility.yul\":12259:12282   */\n      swap1\n      pop\n        /* \"#utility.yul\":12235:12284   */\n    tag_303:\n        /* \"#utility.yul\":12297:12377   */\n      tag_304\n        /* \"#utility.yul\":12353:12375   */\n      tag_305\n        /* \"#utility.yul\":12371:12374   */\n      dup6\n        /* \"#utility.yul\":12353:12375   */\n      tag_134\n      jump\t// in\n    tag_305:\n        /* \"#utility.yul\":12343:12351   */\n      dup4\n        /* \"#utility.yul\":12339:12376   */\n      add\n        /* \"#utility.yul\":12326:12337   */\n      dup3\n        /* \"#utility.yul\":12297:12377   */\n      tag_142\n      jump\t// in\n    tag_304:\n        /* \"#utility.yul\":11956:12387   */\n      pop\n      pop\n        /* \"#utility.yul\":11941:12387   */\n    tag_300:\n        /* \"#utility.yul\":11851:12394   */\n      pop\n      pop\n      pop\n      jump\t// out\n        /* \"#utility.yul\":12400:12517   */\n    tag_144:\n        /* \"#utility.yul\":12454:12462   */\n      0x00\n        /* \"#utility.yul\":12504:12509   */\n      dup3\n        /* \"#utility.yul\":12498:12502   */\n      dup3\n        /* \"#utility.yul\":12494:12510   */\n      shr\n        /* \"#utility.yul\":12473:12510   */\n      swap1\n      pop\n        /* \"#utility.yul\":12400:12517   */\n      swap3\n      swap2\n      pop\n      pop\n      jump\t// out\n        /* \"#utility.yul\":12523:12692   */\n    tag_145:\n        /* \"#utility.yul\":12567:12573   */\n      0x00\n        /* \"#utility.yul\":12600:12651   */\n      tag_308\n        /* \"#utility.yul\":12648:12649   */\n      0x00\n        /* \"#utility.yul\":12644:12650   */\n      not\n        /* \"#utility.yul\":12636:12641   */\n      dup5\n        /* \"#utility.yul\":12633:12634   */\n      0x08\n        /* \"#utility.yul\":12629:12642   */\n      mul\n        /* \"#utility.yul\":12600:12651   */\n      tag_144\n      jump\t// in\n    tag_308:\n        /* \"#utility.yul\":12596:12652   */\n      not\n        /* \"#utility.yul\":12681:12685   */\n      dup1\n        /* \"#utility.yul\":12675:12679   */\n      dup4\n        /* \"#utility.yul\":12671:12686   */\n      and\n        /* \"#utility.yul\":12661:12686   */\n      swap2\n      pop\n        /* \"#utility.yul\":12574:12692   */\n      pop\n        /* \"#utility.yul\":12523:12692   */\n      swap3\n      swap2\n      pop\n      pop\n      jump\t// out\n        /* \"#utility.yul\":12697:12992   */\n    tag_146:\n        /* \"#utility.yul\":12773:12777   */\n      0x00\n        /* \"#utility.yul\":12919:12948   */\n      tag_310\n        /* \"#utility.yul\":12944:12947   */\n      dup4\n        /* \"#utility.yul\":12938:12942   */\n      dup4\n        /* \"#utility.yul\":12919:12948   */\n      tag_145\n      jump\t// in\n    tag_310:\n        /* \"#utility.yul\":12911:12948   */\n      swap2\n      pop\n        /* \"#utility.yul\":12981:12984   */\n      dup3\n        /* \"#utility.yul\":12978:12979   */\n      0x02\n        /* \"#utility.yul\":12974:12985   */\n      mul\n        /* \"#utility.yul\":12968:12972   */\n      dup3\n        /* \"#utility.yul\":12965:12986   */\n      or\n        /* \"#utility.yul\":12957:12986   */\n      swap1\n      pop\n        /* \"#utility.yul\":12697:12992   */\n      swap3\n      swap2\n      pop\n      pop\n      jump\t// out\n        /* \"#utility.yul\":12997:14392   */\n    tag_55:\n        /* \"#utility.yul\":13114:13151   */\n      tag_312\n        /* \"#utility.yul\":13147:13150   */\n      dup3\n        /* \"#utility.yul\":13114:13151   */\n      tag_104\n      jump\t// in\n    tag_312:\n        /* \"#utility.yul\":13216:13234   */\n      0xffffffffffffffff\n        /* \"#utility.yul\":13208:13214   */\n      dup2\n        /* \"#utility.yul\":13205:13235   */\n      gt\n        /* \"#utility.yul\":13202:13258   */\n      iszero\n      tag_313\n      jumpi\n        /* \"#utility.yul\":13238:13256   */\n      tag_314\n      tag_114\n      jump\t// in\n    tag_314:\n        /* \"#utility.yul\":13202:13258   */\n    tag_313:\n        /* \"#utility.yul\":13282:13320   */\n      tag_315\n        /* \"#utility.yul\":13314:13318   */\n      dup3\n        /* \"#utility.yul\":13308:13319   */\n      sload\n        /* \"#utility.yul\":13282:13320   */\n      tag_48\n      jump\t// in\n    tag_315:\n        /* \"#utility.yul\":13367:13434   */\n      tag_316\n        /* \"#utility.yul\":13427:13433   */\n      dup3\n        /* \"#utility.yul\":13419:13425   */\n      dup3\n        /* \"#utility.yul\":13413:13417   */\n      dup6\n        /* \"#utility.yul\":13367:13434   */\n      tag_143\n      jump\t// in\n    tag_316:\n        /* \"#utility.yul\":13461:13462   */\n      0x00\n        /* \"#utility.yul\":13485:13489   */\n      0x20\n        /* \"#utility.yul\":13472:13489   */\n      swap1\n      pop\n        /* \"#utility.yul\":13517:13519   */\n      0x1f\n        /* \"#utility.yul\":13509:13515   */\n      dup4\n        /* \"#utility.yul\":13506:13520   */\n      gt\n        /* \"#utility.yul\":13534:13535   */\n      0x01\n        /* \"#utility.yul\":13529:14147   */\n      dup2\n      eq\n      tag_318\n      jumpi\n        /* \"#utility.yul\":14191:14192   */\n      0x00\n        /* \"#utility.yul\":14208:14214   */\n      dup5\n        /* \"#utility.yul\":14205:14282   */\n      iszero\n      tag_319\n      jumpi\n        /* \"#utility.yul\":14257:14266   */\n      dup3\n        /* \"#utility.yul\":14252:14255   */\n      dup8\n        /* \"#utility.yul\":14248:14267   */\n      add\n        /* \"#utility.yul\":14242:14268   */\n      mload\n        /* \"#utility.yul\":14233:14268   */\n      swap1\n      pop\n        /* \"#utility.yul\":14205:14282   */\n    tag_319:\n        /* \"#utility.yul\":14308:14375   */\n      tag_320\n        /* \"#utility.yul\":14368:14374   */\n      dup6\n        /* \"#utility.yul\":14361:14366   */\n      dup3\n        /* \"#utility.yul\":14308:14375   */\n      tag_146\n      jump\t// in\n    tag_320:\n        /* \"#utility.yul\":14302:14306   */\n      dup7\n        /* \"#utility.yul\":14295:14376   */\n      sstore\n        /* \"#utility.yul\":14164:14386   */\n      pop\n        /* \"#utility.yul\":13499:14386   */\n      jump(tag_317)\n        /* \"#utility.yul\":13529:14147   */\n    tag_318:\n        /* \"#utility.yul\":13581:13585   */\n      0x1f\n        /* \"#utility.yul\":13577:13586   */\n      not\n        /* \"#utility.yul\":13569:13575   */\n      dup5\n        /* \"#utility.yul\":13565:13587   */\n      and\n        /* \"#utility.yul\":13615:13652   */\n      tag_321\n        /* \"#utility.yul\":13647:13651   */\n      dup7\n        /* \"#utility.yul\":13615:13652   */\n      tag_133\n      jump\t// in\n    tag_321:\n        /* \"#utility.yul\":13674:13675   */\n      0x00\n        /* \"#utility.yul\":13688:13896   */\n    tag_322:\n        /* \"#utility.yul\":13702:13709   */\n      dup3\n        /* \"#utility.yul\":13699:13700   */\n      dup2\n        /* \"#utility.yul\":13696:13710   */\n      lt\n        /* \"#utility.yul\":13688:13896   */\n      iszero\n      tag_324\n      jumpi\n        /* \"#utility.yul\":13781:13790   */\n      dup5\n        /* \"#utility.yul\":13776:13779   */\n      dup10\n        /* \"#utility.yul\":13772:13791   */\n      add\n        /* \"#utility.yul\":13766:13792   */\n      mload\n        /* \"#utility.yul\":13758:13764   */\n      dup3\n        /* \"#utility.yul\":13751:13793   */\n      sstore\n        /* \"#utility.yul\":13832:13833   */\n      0x01\n        /* \"#utility.yul\":13824:13830   */\n      dup3\n        /* \"#utility.yul\":13820:13834   */\n      add\n        /* \"#utility.yul\":13810:13834   */\n      swap2\n      pop\n        /* \"#utility.yul\":13879:13881   */\n      0x20\n        /* \"#utility.yul\":13868:13877   */\n      dup6\n        /* \"#utility.yul\":13864:13882   */\n      add\n        /* \"#utility.yul\":13851:13882   */\n      swap5\n      pop\n        /* \"#utility.yul\":13725:13729   */\n      0x20\n        /* \"#utility.yul\":13722:13723   */\n      dup2\n        /* \"#utility.yul\":13718:13730   */\n      add\n        /* \"#utility.yul\":13713:13730   */\n      swap1\n      pop\n        /* \"#utility.yul\":13688:13896   */\n      jump(tag_322)\n    tag_324:\n        /* \"#utility.yul\":13924:13930   */\n      dup7\n        /* \"#utility.yul\":13915:13922   */\n      dup4\n        /* \"#utility.yul\":13912:13931   */\n      lt\n        /* \"#utility.yul\":13909:14088   */\n      iszero\n      tag_325\n      jumpi\n        /* \"#utility.yul\":13982:13991   */\n      dup5\n        /* \"#utility.yul\":13977:13980   */\n      dup10\n        /* \"#utility.yul\":13973:13992   */\n      add\n        /* \"#utility.yul\":13967:13993   */\n      mload\n        /* \"#utility.yul\":14025:14073   */\n      tag_326\n        /* \"#utility.yul\":14067:14071   */\n      0x1f\n        /* \"#utility.yul\":14059:14065   */\n      dup10\n        /* \"#utility.yul\":14055:14072   */\n      and\n        /* \"#utility.yul\":14044:14053   */\n      dup3\n        /* \"#utility.yul\":14025:14073   */\n      tag_145\n      jump\t// in\n    tag_326:\n        /* \"#utility.yul\":14017:14023   */\n      dup4\n        /* \"#utility.yul\":14010:14074   */\n      sstore\n        /* \"#utility.yul\":13932:14088   */\n      pop\n        /* \"#utility.yul\":13909:14088   */\n    tag_325:\n        /* \"#utility.yul\":14134:14135   */\n      0x01\n        /* \"#utility.yul\":14130:14131   */\n      0x02\n        /* \"#utility.yul\":14122:14128   */\n      dup9\n        /* \"#utility.yul\":14118:14132   */\n      mul\n        /* \"#utility.yul\":14114:14136   */\n      add\n        /* \"#utility.yul\":14108:14112   */\n      dup9\n        /* \"#utility.yul\":14101:14137   */\n      sstore\n        /* \"#utility.yul\":13536:14147   */\n      pop\n      pop\n      pop\n        /* \"#utility.yul\":13499:14386   */\n    tag_317:\n      pop\n        /* \"#utility.yul\":13089:14392   */\n      pop\n      pop\n      pop\n        /* \"#utility.yul\":12997:14392   */\n      pop\n      pop\n      jump\t// out\n        /* \"#utility.yul\":14398:14545   */\n    tag_147:\n        /* \"#utility.yul\":14499:14510   */\n      0x00\n        /* \"#utility.yul\":14536:14539   */\n      dup2\n        /* \"#utility.yul\":14521:14539   */\n      swap1\n      pop\n        /* \"#utility.yul\":14398:14545   */\n      swap3\n      swap2\n      pop\n      pop\n      jump\t// out\n        /* \"#utility.yul\":14573:14900   */\n    tag_148:\n        /* \"#utility.yul\":14687:14690   */\n      0x00\n        /* \"#utility.yul\":14708:14796   */\n      tag_329\n        /* \"#utility.yul\":14789:14795   */\n      dup4\n        /* \"#utility.yul\":14784:14787   */\n      dup6\n        /* \"#utility.yul\":14708:14796   */\n      tag_147\n      jump\t// in\n    tag_329:\n        /* \"#utility.yul\":14701:14796   */\n      swap4\n      pop\n        /* \"#utility.yul\":14806:14862   */\n      tag_330\n        /* \"#utility.yul\":14855:14861   */\n      dup4\n        /* \"#utility.yul\":14850:14853   */\n      dup6\n        /* \"#utility.yul\":14843:14848   */\n      dup5\n        /* \"#utility.yul\":14806:14862   */\n      tag_118\n      jump\t// in\n    tag_330:\n        /* \"#utility.yul\":14887:14893   */\n      dup3\n        /* \"#utility.yul\":14882:14885   */\n      dup5\n        /* \"#utility.yul\":14878:14894   */\n      add\n        /* \"#utility.yul\":14871:14894   */\n      swap1\n      pop\n        /* \"#utility.yul\":14573:14900   */\n      swap4\n      swap3\n      pop\n      pop\n      pop\n      jump\t// out\n        /* \"#utility.yul\":14906:15197   */\n    tag_59:\n        /* \"#utility.yul\":15046:15049   */\n      0x00\n        /* \"#utility.yul\":15068:15171   */\n      tag_332\n        /* \"#utility.yul\":15167:15170   */\n      dup3\n        /* \"#utility.yul\":15158:15164   */\n      dup5\n        /* \"#utility.yul\":15150:15156   */\n      dup7\n        /* \"#utility.yul\":15068:15171   */\n      tag_148\n      jump\t// in\n    tag_332:\n        /* \"#utility.yul\":15061:15171   */\n      swap2\n      pop\n        /* \"#utility.yul\":15188:15191   */\n      dup2\n        /* \"#utility.yul\":15181:15191   */\n      swap1\n      pop\n        /* \"#utility.yul\":14906:15197   */\n      swap4\n      swap3\n      pop\n      pop\n      pop\n      jump\t// out\n        /* \"#utility.yul\":15203:15321   */\n    tag_149:\n        /* \"#utility.yul\":15290:15314   */\n      tag_334\n        /* \"#utility.yul\":15308:15313   */\n      dup2\n        /* \"#utility.yul\":15290:15314   */\n      tag_121\n      jump\t// in\n    tag_334:\n        /* \"#utility.yul\":15285:15288   */\n      dup3\n        /* \"#utility.yul\":15278:15315   */\n      mstore\n        /* \"#utility.yul\":15203:15321   */\n      pop\n      pop\n      jump\t// out\n        /* \"#utility.yul\":15351:15668   */\n    tag_150:\n        /* \"#utility.yul\":15449:15452   */\n      0x00\n        /* \"#utility.yul\":15470:15541   */\n      tag_336\n        /* \"#utility.yul\":15534:15540   */\n      dup4\n        /* \"#utility.yul\":15529:15532   */\n      dup6\n        /* \"#utility.yul\":15470:15541   */\n      tag_105\n      jump\t// in\n    tag_336:\n        /* \"#utility.yul\":15463:15541   */\n      swap4\n      pop\n        /* \"#utility.yul\":15551:15607   */\n      tag_337\n        /* \"#utility.yul\":15600:15606   */\n      dup4\n        /* \"#utility.yul\":15595:15598   */\n      dup6\n        /* \"#utility.yul\":15588:15593   */\n      dup5\n        /* \"#utility.yul\":15551:15607   */\n      tag_118\n      jump\t// in\n    tag_337:\n        /* \"#utility.yul\":15632:15661   */\n      tag_338\n        /* \"#utility.yul\":15654:15660   */\n      dup4\n        /* \"#utility.yul\":15632:15661   */\n      tag_107\n      jump\t// in\n    tag_338:\n        /* \"#utility.yul\":15627:15630   */\n      dup5\n        /* \"#utility.yul\":15623:15662   */\n      add\n        /* \"#utility.yul\":15616:15662   */\n      swap1\n      pop\n        /* \"#utility.yul\":15351:15668   */\n      swap4\n      swap3\n      pop\n      pop\n      pop\n      jump\t// out\n        /* \"#utility.yul\":15674:16449   */\n    tag_62:\n        /* \"#utility.yul\":15911:15915   */\n      0x00\n        /* \"#utility.yul\":15949:15952   */\n      0x80\n        /* \"#utility.yul\":15938:15947   */\n      dup3\n        /* \"#utility.yul\":15934:15953   */\n      add\n        /* \"#utility.yul\":15926:15953   */\n      swap1\n      pop\n        /* \"#utility.yul\":15963:16034   */\n      tag_340\n        /* \"#utility.yul\":16031:16032   */\n      0x00\n        /* \"#utility.yul\":16020:16029   */\n      dup4\n        /* \"#utility.yul\":16016:16033   */\n      add\n        /* \"#utility.yul\":16007:16013   */\n      dup10\n        /* \"#utility.yul\":15963:16034   */\n      tag_149\n      jump\t// in\n    tag_340:\n        /* \"#utility.yul\":16081:16090   */\n      dup2\n        /* \"#utility.yul\":16075:16079   */\n      dup2\n        /* \"#utility.yul\":16071:16091   */\n      sub\n        /* \"#utility.yul\":16066:16068   */\n      0x20\n        /* \"#utility.yul\":16055:16064   */\n      dup4\n        /* \"#utility.yul\":16051:16069   */\n      add\n        /* \"#utility.yul\":16044:16092   */\n      mstore\n        /* \"#utility.yul\":16109:16197   */\n      tag_341\n        /* \"#utility.yul\":16192:16196   */\n      dup2\n        /* \"#utility.yul\":16183:16189   */\n      dup8\n        /* \"#utility.yul\":16175:16181   */\n      dup10\n        /* \"#utility.yul\":16109:16197   */\n      tag_150\n      jump\t// in\n    tag_341:\n        /* \"#utility.yul\":16101:16197   */\n      swap1\n      pop\n        /* \"#utility.yul\":16244:16253   */\n      dup2\n        /* \"#utility.yul\":16238:16242   */\n      dup2\n        /* \"#utility.yul\":16234:16254   */\n      sub\n        /* \"#utility.yul\":16229:16231   */\n      0x40\n        /* \"#utility.yul\":16218:16227   */\n      dup4\n        /* \"#utility.yul\":16214:16232   */\n      add\n        /* \"#utility.yul\":16207:16255   */\n      mstore\n        /* \"#utility.yul\":16272:16360   */\n      tag_342\n        /* \"#utility.yul\":16355:16359   */\n      dup2\n        /* \"#utility.yul\":16346:16352   */\n      dup6\n        /* \"#utility.yul\":16338:16344   */\n      dup8\n        /* \"#utility.yul\":16272:16360   */\n      tag_150\n      jump\t// in\n    tag_342:\n        /* \"#utility.yul\":16264:16360   */\n      swap1\n      pop\n        /* \"#utility.yul\":16370:16442   */\n      tag_343\n        /* \"#utility.yul\":16438:16440   */\n      0x60\n        /* \"#utility.yul\":16427:16436   */\n      dup4\n        /* \"#utility.yul\":16423:16441   */\n      add\n        /* \"#utility.yul\":16414:16420   */\n      dup5\n        /* \"#utility.yul\":16370:16442   */\n      tag_149\n      jump\t// in\n    tag_343:\n        /* \"#utility.yul\":15674:16449   */\n      swap8\n      swap7\n      pop\n      pop\n      pop\n      pop\n      pop\n      pop\n      pop\n      jump\t// out\n        /* \"#utility.yul\":16455:16545   */\n    tag_151:\n        /* \"#utility.yul\":16489:16496   */\n      0x00\n        /* \"#utility.yul\":16532:16537   */\n      dup2\n        /* \"#utility.yul\":16525:16538   */\n      iszero\n        /* \"#utility.yul\":16518:16539   */\n      iszero\n        /* \"#utility.yul\":16507:16539   */\n      swap1\n      pop\n        /* \"#utility.yul\":16455:16545   */\n      swap2\n      swap1\n      pop\n      jump\t// out\n        /* \"#utility.yul\":16551:16667   */\n    tag_152:\n        /* \"#utility.yul\":16621:16642   */\n      tag_346\n        /* \"#utility.yul\":16636:16641   */\n      dup2\n        /* \"#utility.yul\":16621:16642   */\n      tag_151\n      jump\t// in\n    tag_346:\n        /* \"#utility.yul\":16614:16619   */\n      dup2\n        /* \"#utility.yul\":16611:16643   */\n      eq\n        /* \"#utility.yul\":16601:16661   */\n      tag_347\n      jumpi\n        /* \"#utility.yul\":16657:16658   */\n      0x00\n        /* \"#utility.yul\":16654:16655   */\n      dup1\n        /* \"#utility.yul\":16647:16659   */\n      revert\n        /* \"#utility.yul\":16601:16661   */\n    tag_347:\n        /* \"#utility.yul\":16551:16667   */\n      pop\n      jump\t// out\n        /* \"#utility.yul\":16673:16810   */\n    tag_153:\n        /* \"#utility.yul\":16727:16732   */\n      0x00\n        /* \"#utility.yul\":16758:16764   */\n      dup2\n        /* \"#utility.yul\":16752:16765   */\n      mload\n        /* \"#utility.yul\":16743:16765   */\n      swap1\n      pop\n        /* \"#utility.yul\":16774:16804   */\n      tag_349\n        /* \"#utility.yul\":16798:16803   */\n      dup2\n        /* \"#utility.yul\":16774:16804   */\n      tag_152\n      jump\t// in\n    tag_349:\n        /* \"#utility.yul\":16673:16810   */\n      swap3\n      swap2\n      pop\n      pop\n      jump\t// out\n        /* \"#utility.yul\":16816:17161   */\n    tag_66:\n        /* \"#utility.yul\":16883:16889   */\n      0x00\n        /* \"#utility.yul\":16932:16934   */\n      0x20\n        /* \"#utility.yul\":16920:16929   */\n      dup3\n        /* \"#utility.yul\":16911:16918   */\n      dup5\n        /* \"#utility.yul\":16907:16930   */\n      sub\n        /* \"#utility.yul\":16903:16935   */\n      slt\n        /* \"#utility.yul\":16900:17019   */\n      iszero\n      tag_351\n      jumpi\n        /* \"#utility.yul\":16938:17017   */\n      tag_352\n      tag_110\n      jump\t// in\n    tag_352:\n        /* \"#utility.yul\":16900:17019   */\n    tag_351:\n        /* \"#utility.yul\":17058:17059   */\n      0x00\n        /* \"#utility.yul\":17083:17144   */\n      tag_353\n        /* \"#utility.yul\":17136:17143   */\n      dup5\n        /* \"#utility.yul\":17127:17133   */\n      dup3\n        /* \"#utility.yul\":17116:17125   */\n      dup6\n        /* \"#utility.yul\":17112:17134   */\n      add\n        /* \"#utility.yul\":17083:17144   */\n      tag_153\n      jump\t// in\n    tag_353:\n        /* \"#utility.yul\":17073:17144   */\n      swap2\n      pop\n        /* \"#utility.yul\":17029:17154   */\n      pop\n        /* \"#utility.yul\":16816:17161   */\n      swap3\n      swap2\n      pop\n      pop\n      jump\t// out\n        /* \"#utility.yul\":17167:17271   */\n    tag_154:\n        /* \"#utility.yul\":17212:17219   */\n      0x00\n        /* \"#utility.yul\":17241:17265   */\n      tag_355\n        /* \"#utility.yul\":17259:17264   */\n      dup3\n        /* \"#utility.yul\":17241:17265   */\n      tag_98\n      jump\t// in\n    tag_355:\n        /* \"#utility.yul\":17230:17265   */\n      swap1\n      pop\n        /* \"#utility.yul\":17167:17271   */\n      swap2\n      swap1\n      pop\n      jump\t// out\n        /* \"#utility.yul\":17277:17415   */\n    tag_155:\n        /* \"#utility.yul\":17358:17390   */\n      tag_357\n        /* \"#utility.yul\":17384:17389   */\n      dup2\n        /* \"#utility.yul\":17358:17390   */\n      tag_154\n      jump\t// in\n    tag_357:\n        /* \"#utility.yul\":17351:17356   */\n      dup2\n        /* \"#utility.yul\":17348:17391   */\n      eq\n        /* \"#utility.yul\":17338:17409   */\n      tag_358\n      jumpi\n        /* \"#utility.yul\":17405:17406   */\n      0x00\n        /* \"#utility.yul\":17402:17403   */\n      dup1\n        /* \"#utility.yul\":17395:17407   */\n      revert\n        /* \"#utility.yul\":17338:17409   */\n    tag_358:\n        /* \"#utility.yul\":17277:17415   */\n      pop\n      jump\t// out\n        /* \"#utility.yul\":17421:17576   */\n    tag_156:\n        /* \"#utility.yul\":17475:17480   */\n      0x00\n        /* \"#utility.yul\":17513:17519   */\n      dup2\n        /* \"#utility.yul\":17500:17520   */\n      calldataload\n        /* \"#utility.yul\":17491:17520   */\n      swap1\n      pop\n        /* \"#utility.yul\":17529:17570   */\n      tag_360\n        /* \"#utility.yul\":17564:17569   */\n      dup2\n        /* \"#utility.yul\":17529:17570   */\n      tag_155\n      jump\t// in\n    tag_360:\n        /* \"#utility.yul\":17421:17576   */\n      swap3\n      swap2\n      pop\n      pop\n      jump\t// out\n        /* \"#utility.yul\":17582:17704   */\n    tag_157:\n        /* \"#utility.yul\":17655:17679   */\n      tag_362\n        /* \"#utility.yul\":17673:17678   */\n      dup2\n        /* \"#utility.yul\":17655:17679   */\n      tag_130\n      jump\t// in\n    tag_362:\n        /* \"#utility.yul\":17648:17653   */\n      dup2\n        /* \"#utility.yul\":17645:17680   */\n      eq\n        /* \"#utility.yul\":17635:17698   */\n      tag_363\n      jumpi\n        /* \"#utility.yul\":17694:17695   */\n      0x00\n        /* \"#utility.yul\":17691:17692   */\n      dup1\n        /* \"#utility.yul\":17684:17696   */\n      revert\n        /* \"#utility.yul\":17635:17698   */\n    tag_363:\n        /* \"#utility.yul\":17582:17704   */\n      pop\n      jump\t// out\n        /* \"#utility.yul\":17710:17849   */\n    tag_158:\n        /* \"#utility.yul\":17756:17761   */\n      0x00\n        /* \"#utility.yul\":17794:17800   */\n      dup2\n        /* \"#utility.yul\":17781:17801   */\n      calldataload\n        /* \"#utility.yul\":17772:17801   */\n      swap1\n      pop\n        /* \"#utility.yul\":17810:17843   */\n      tag_365\n        /* \"#utility.yul\":17837:17842   */\n      dup2\n        /* \"#utility.yul\":17810:17843   */\n      tag_157\n      jump\t// in\n    tag_365:\n        /* \"#utility.yul\":17710:17849   */\n      swap3\n      swap2\n      pop\n      pop\n      jump\t// out\n        /* \"#utility.yul\":17855:18345   */\n    tag_87:\n        /* \"#utility.yul\":17931:17937   */\n      0x00\n        /* \"#utility.yul\":17939:17945   */\n      dup1\n        /* \"#utility.yul\":17988:17990   */\n      0x40\n        /* \"#utility.yul\":17976:17985   */\n      dup4\n        /* \"#utility.yul\":17967:17974   */\n      dup6\n        /* \"#utility.yul\":17963:17986   */\n      sub\n        /* \"#utility.yul\":17959:17991   */\n      slt\n        /* \"#utility.yul\":17956:18075   */\n      iszero\n      tag_367\n      jumpi\n        /* \"#utility.yul\":17994:18073   */\n      tag_368\n      tag_110\n      jump\t// in\n    tag_368:\n        /* \"#utility.yul\":17956:18075   */\n    tag_367:\n        /* \"#utility.yul\":18114:18115   */\n      0x00\n        /* \"#utility.yul\":18139:18200   */\n      tag_369\n        /* \"#utility.yul\":18192:18199   */\n      dup6\n        /* \"#utility.yul\":18183:18189   */\n      dup3\n        /* \"#utility.yul\":18172:18181   */\n      dup7\n        /* \"#utility.yul\":18168:18190   */\n      add\n        /* \"#utility.yul\":18139:18200   */\n      tag_156\n      jump\t// in\n    tag_369:\n        /* \"#utility.yul\":18129:18200   */\n      swap3\n      pop\n        /* \"#utility.yul\":18085:18210   */\n      pop\n        /* \"#utility.yul\":18249:18251   */\n      0x20\n        /* \"#utility.yul\":18275:18328   */\n      tag_370\n        /* \"#utility.yul\":18320:18327   */\n      dup6\n        /* \"#utility.yul\":18311:18317   */\n      dup3\n        /* \"#utility.yul\":18300:18309   */\n      dup7\n        /* \"#utility.yul\":18296:18318   */\n      add\n        /* \"#utility.yul\":18275:18328   */\n      tag_158\n      jump\t// in\n    tag_370:\n        /* \"#utility.yul\":18265:18328   */\n      swap2\n      pop\n        /* \"#utility.yul\":18220:18338   */\n      pop\n        /* \"#utility.yul\":17855:18345   */\n      swap3\n      pop\n      swap3\n      swap1\n      pop\n      jump\t// out\n        /* \"#utility.yul\":18351:18448   */\n    tag_159:\n        /* \"#utility.yul\":18410:18416   */\n      0x00\n        /* \"#utility.yul\":18438:18441   */\n      dup3\n        /* \"#utility.yul\":18428:18441   */\n      swap1\n      pop\n        /* \"#utility.yul\":18351:18448   */\n      swap3\n      swap2\n      pop\n      pop\n      jump\t// out\n        /* \"#utility.yul\":18454:19857   */\n    tag_89:\n        /* \"#utility.yul\":18578:18622   */\n      tag_373\n        /* \"#utility.yul\":18618:18621   */\n      dup4\n        /* \"#utility.yul\":18613:18616   */\n      dup4\n        /* \"#utility.yul\":18578:18622   */\n      tag_159\n      jump\t// in\n    tag_373:\n        /* \"#utility.yul\":18687:18705   */\n      0xffffffffffffffff\n        /* \"#utility.yul\":18679:18685   */\n      dup2\n        /* \"#utility.yul\":18676:18706   */\n      gt\n        /* \"#utility.yul\":18673:18729   */\n      iszero\n      tag_374\n      jumpi\n        /* \"#utility.yul\":18709:18727   */\n      tag_375\n      tag_114\n      jump\t// in\n    tag_375:\n        /* \"#utility.yul\":18673:18729   */\n    tag_374:\n        /* \"#utility.yul\":18753:18791   */\n      tag_376\n        /* \"#utility.yul\":18785:18789   */\n      dup3\n        /* \"#utility.yul\":18779:18790   */\n      sload\n        /* \"#utility.yul\":18753:18791   */\n      tag_48\n      jump\t// in\n    tag_376:\n        /* \"#utility.yul\":18838:18905   */\n      tag_377\n        /* \"#utility.yul\":18898:18904   */\n      dup3\n        /* \"#utility.yul\":18890:18896   */\n      dup3\n        /* \"#utility.yul\":18884:18888   */\n      dup6\n        /* \"#utility.yul\":18838:18905   */\n      tag_143\n      jump\t// in\n    tag_377:\n        /* \"#utility.yul\":18932:18933   */\n      0x00\n        /* \"#utility.yul\":18961:18963   */\n      0x1f\n        /* \"#utility.yul\":18953:18959   */\n      dup4\n        /* \"#utility.yul\":18950:18964   */\n      gt\n        /* \"#utility.yul\":18978:18979   */\n      0x01\n        /* \"#utility.yul\":18973:19605   */\n      dup2\n      eq\n      tag_379\n      jumpi\n        /* \"#utility.yul\":19649:19650   */\n      0x00\n        /* \"#utility.yul\":19666:19672   */\n      dup5\n        /* \"#utility.yul\":19663:19747   */\n      iszero\n      tag_380\n      jumpi\n        /* \"#utility.yul\":19722:19731   */\n      dup3\n        /* \"#utility.yul\":19717:19720   */\n      dup8\n        /* \"#utility.yul\":19713:19732   */\n      add\n        /* \"#utility.yul\":19700:19733   */\n      calldataload\n        /* \"#utility.yul\":19691:19733   */\n      swap1\n      pop\n        /* \"#utility.yul\":19663:19747   */\n    tag_380:\n        /* \"#utility.yul\":19773:19840   */\n      tag_381\n        /* \"#utility.yul\":19833:19839   */\n      dup6\n        /* \"#utility.yul\":19826:19831   */\n      dup3\n        /* \"#utility.yul\":19773:19840   */\n      tag_146\n      jump\t// in\n    tag_381:\n        /* \"#utility.yul\":19767:19771   */\n      dup7\n        /* \"#utility.yul\":19760:19841   */\n      sstore\n        /* \"#utility.yul\":19622:19851   */\n      pop\n        /* \"#utility.yul\":18943:19851   */\n      jump(tag_378)\n        /* \"#utility.yul\":18973:19605   */\n    tag_379:\n        /* \"#utility.yul\":19025:19029   */\n      0x1f\n        /* \"#utility.yul\":19021:19030   */\n      not\n        /* \"#utility.yul\":19013:19019   */\n      dup5\n        /* \"#utility.yul\":19009:19031   */\n      and\n        /* \"#utility.yul\":19059:19096   */\n      tag_382\n        /* \"#utility.yul\":19091:19095   */\n      dup7\n        /* \"#utility.yul\":19059:19096   */\n      tag_133\n      jump\t// in\n    tag_382:\n        /* \"#utility.yul\":19118:19119   */\n      0x00\n        /* \"#utility.yul\":19132:19347   */\n    tag_383:\n        /* \"#utility.yul\":19146:19153   */\n      dup3\n        /* \"#utility.yul\":19143:19144   */\n      dup2\n        /* \"#utility.yul\":19140:19154   */\n      lt\n        /* \"#utility.yul\":19132:19347   */\n      iszero\n      tag_385\n      jumpi\n        /* \"#utility.yul\":19232:19241   */\n      dup5\n        /* \"#utility.yul\":19227:19230   */\n      dup10\n        /* \"#utility.yul\":19223:19242   */\n      add\n        /* \"#utility.yul\":19210:19243   */\n      calldataload\n        /* \"#utility.yul\":19202:19208   */\n      dup3\n        /* \"#utility.yul\":19195:19244   */\n      sstore\n        /* \"#utility.yul\":19283:19284   */\n      0x01\n        /* \"#utility.yul\":19275:19281   */\n      dup3\n        /* \"#utility.yul\":19271:19285   */\n      add\n        /* \"#utility.yul\":19261:19285   */\n      swap2\n      pop\n        /* \"#utility.yul\":19330:19332   */\n      0x20\n        /* \"#utility.yul\":19319:19328   */\n      dup6\n        /* \"#utility.yul\":19315:19333   */\n      add\n        /* \"#utility.yul\":19302:19333   */\n      swap5\n      pop\n        /* \"#utility.yul\":19169:19173   */\n      0x20\n        /* \"#utility.yul\":19166:19167   */\n      dup2\n        /* \"#utility.yul\":19162:19174   */\n      add\n        /* \"#utility.yul\":19157:19174   */\n      swap1\n      pop\n        /* \"#utility.yul\":19132:19347   */\n      jump(tag_383)\n    tag_385:\n        /* \"#utility.yul\":19375:19381   */\n      dup7\n        /* \"#utility.yul\":19366:19373   */\n      dup4\n        /* \"#utility.yul\":19363:19382   */\n      lt\n        /* \"#utility.yul\":19360:19546   */\n      iszero\n      tag_386\n      jumpi\n        /* \"#utility.yul\":19440:19449   */\n      dup5\n        /* \"#utility.yul\":19435:19438   */\n      dup10\n        /* \"#utility.yul\":19431:19450   */\n      add\n        /* \"#utility.yul\":19418:19451   */\n      calldataload\n        /* \"#utility.yul\":19483:19531   */\n      tag_387\n        /* \"#utility.yul\":19525:19529   */\n      0x1f\n        /* \"#utility.yul\":19517:19523   */\n      dup10\n        /* \"#utility.yul\":19513:19530   */\n      and\n        /* \"#utility.yul\":19502:19511   */\n      dup3\n        /* \"#utility.yul\":19483:19531   */\n      tag_145\n      jump\t// in\n    tag_387:\n        /* \"#utility.yul\":19475:19481   */\n      dup4\n        /* \"#utility.yul\":19468:19532   */\n      sstore\n        /* \"#utility.yul\":19383:19546   */\n      pop\n        /* \"#utility.yul\":19360:19546   */\n    tag_386:\n        /* \"#utility.yul\":19592:19593   */\n      0x01\n        /* \"#utility.yul\":19588:19589   */\n      0x02\n        /* \"#utility.yul\":19580:19586   */\n      dup9\n        /* \"#utility.yul\":19576:19590   */\n      mul\n        /* \"#utility.yul\":19572:19594   */\n      add\n        /* \"#utility.yul\":19566:19570   */\n      dup9\n        /* \"#utility.yul\":19559:19595   */\n      sstore\n        /* \"#utility.yul\":18980:19605   */\n      pop\n      pop\n      pop\n        /* \"#utility.yul\":18943:19851   */\n    tag_378:\n      pop\n        /* \"#utility.yul\":18553:19857   */\n      pop\n      pop\n      pop\n        /* \"#utility.yul\":18454:19857   */\n      pop\n      pop\n      pop\n      jump\t// out\n        /* \"#utility.yul\":19887:20718   */\n    tag_160:\n        /* \"#utility.yul\":19972:19975   */\n      0x00\n        /* \"#utility.yul\":20009:20014   */\n      dup2\n        /* \"#utility.yul\":20003:20015   */\n      sload\n        /* \"#utility.yul\":20038:20074   */\n      tag_389\n        /* \"#utility.yul\":20064:20073   */\n      dup2\n        /* \"#utility.yul\":20038:20074   */\n      tag_48\n      jump\t// in\n    tag_389:\n        /* \"#utility.yul\":20090:20161   */\n      tag_390\n        /* \"#utility.yul\":20154:20160   */\n      dup2\n        /* \"#utility.yul\":20149:20152   */\n      dup7\n        /* \"#utility.yul\":20090:20161   */\n      tag_105\n      jump\t// in\n    tag_390:\n        /* \"#utility.yul\":20083:20161   */\n      swap5\n      pop\n        /* \"#utility.yul\":20192:20193   */\n      0x01\n        /* \"#utility.yul\":20181:20190   */\n      dup3\n        /* \"#utility.yul\":20177:20194   */\n      and\n        /* \"#utility.yul\":20208:20209   */\n      0x00\n        /* \"#utility.yul\":20203:20367   */\n      dup2\n      eq\n      tag_392\n      jumpi\n        /* \"#utility.yul\":20381:20382   */\n      0x01\n        /* \"#utility.yul\":20376:20712   */\n      dup2\n      eq\n      tag_393\n      jumpi\n        /* \"#utility.yul\":20170:20712   */\n      jump(tag_391)\n        /* \"#utility.yul\":20203:20367   */\n    tag_392:\n        /* \"#utility.yul\":20287:20291   */\n      0xff\n        /* \"#utility.yul\":20283:20292   */\n      not\n        /* \"#utility.yul\":20272:20281   */\n      dup4\n        /* \"#utility.yul\":20268:20293   */\n      and\n        /* \"#utility.yul\":20263:20266   */\n      dup7\n        /* \"#utility.yul\":20256:20294   */\n      mstore\n        /* \"#utility.yul\":20347:20353   */\n      dup2\n        /* \"#utility.yul\":20340:20354   */\n      iszero\n        /* \"#utility.yul\":20333:20355   */\n      iszero\n        /* \"#utility.yul\":20327:20331   */\n      0x20\n        /* \"#utility.yul\":20323:20356   */\n      mul\n        /* \"#utility.yul\":20318:20321   */\n      dup7\n        /* \"#utility.yul\":20314:20357   */\n      add\n        /* \"#utility.yul\":20307:20357   */\n      swap4\n      pop\n        /* \"#utility.yul\":20203:20367   */\n      jump(tag_391)\n        /* \"#utility.yul\":20376:20712   */\n    tag_393:\n        /* \"#utility.yul\":20443:20481   */\n      tag_394\n        /* \"#utility.yul\":20475:20480   */\n      dup6\n        /* \"#utility.yul\":20443:20481   */\n      tag_133\n      jump\t// in\n    tag_394:\n        /* \"#utility.yul\":20503:20504   */\n      0x00\n        /* \"#utility.yul\":20517:20671   */\n    tag_395:\n        /* \"#utility.yul\":20531:20537   */\n      dup4\n        /* \"#utility.yul\":20528:20529   */\n      dup2\n        /* \"#utility.yul\":20525:20538   */\n      lt\n        /* \"#utility.yul\":20517:20671   */\n      iszero\n      tag_397\n      jumpi\n        /* \"#utility.yul\":20605:20612   */\n      dup2\n        /* \"#utility.yul\":20599:20613   */\n      sload\n        /* \"#utility.yul\":20595:20596   */\n      dup2\n        /* \"#utility.yul\":20590:20593   */\n      dup10\n        /* \"#utility.yul\":20586:20597   */\n      add\n        /* \"#utility.yul\":20579:20614   */\n      mstore\n        /* \"#utility.yul\":20655:20656   */\n      0x01\n        /* \"#utility.yul\":20646:20653   */\n      dup3\n        /* \"#utility.yul\":20642:20657   */\n      add\n        /* \"#utility.yul\":20631:20657   */\n      swap2\n      pop\n        /* \"#utility.yul\":20553:20557   */\n      0x20\n        /* \"#utility.yul\":20550:20551   */\n      dup2\n        /* \"#utility.yul\":20546:20558   */\n      add\n        /* \"#utility.yul\":20541:20558   */\n      swap1\n      pop\n        /* \"#utility.yul\":20517:20671   */\n      jump(tag_395)\n    tag_397:\n        /* \"#utility.yul\":20700:20701   */\n      dup1\n        /* \"#utility.yul\":20695:20698   */\n      dup9\n        /* \"#utility.yul\":20691:20702   */\n      add\n        /* \"#utility.yul\":20684:20702   */\n      swap6\n      pop\n        /* \"#utility.yul\":20383:20712   */\n      pop\n      pop\n        /* \"#utility.yul\":20170:20712   */\n    tag_391:\n      pop\n        /* \"#utility.yul\":19976:20718   */\n      pop\n      pop\n        /* \"#utility.yul\":19887:20718   */\n      swap3\n      swap2\n      pop\n      pop\n      jump\t// out\n        /* \"#utility.yul\":20724:21362   */\n    tag_92:\n        /* \"#utility.yul\":20918:20922   */\n      0x00\n        /* \"#utility.yul\":20956:20959   */\n      0x80\n        /* \"#utility.yul\":20945:20954   */\n      dup3\n        /* \"#utility.yul\":20941:20960   */\n      add\n        /* \"#utility.yul\":20933:20960   */\n      swap1\n      pop\n        /* \"#utility.yul\":20970:21041   */\n      tag_399\n        /* \"#utility.yul\":21038:21039   */\n      0x00\n        /* \"#utility.yul\":21027:21036   */\n      dup4\n        /* \"#utility.yul\":21023:21040   */\n      add\n        /* \"#utility.yul\":21014:21020   */\n      dup8\n        /* \"#utility.yul\":20970:21041   */\n      tag_149\n      jump\t// in\n    tag_399:\n        /* \"#utility.yul\":21088:21097   */\n      dup2\n        /* \"#utility.yul\":21082:21086   */\n      dup2\n        /* \"#utility.yul\":21078:21098   */\n      sub\n        /* \"#utility.yul\":21073:21075   */\n      0x20\n        /* \"#utility.yul\":21062:21071   */\n      dup4\n        /* \"#utility.yul\":21058:21076   */\n      add\n        /* \"#utility.yul\":21051:21099   */\n      mstore\n        /* \"#utility.yul\":21116:21191   */\n      tag_400\n        /* \"#utility.yul\":21186:21190   */\n      dup2\n        /* \"#utility.yul\":21177:21183   */\n      dup7\n        /* \"#utility.yul\":21116:21191   */\n      tag_160\n      jump\t// in\n    tag_400:\n        /* \"#utility.yul\":21108:21191   */\n      swap1\n      pop\n        /* \"#utility.yul\":21201:21273   */\n      tag_401\n        /* \"#utility.yul\":21269:21271   */\n      0x40\n        /* \"#utility.yul\":21258:21267   */\n      dup4\n        /* \"#utility.yul\":21254:21272   */\n      add\n        /* \"#utility.yul\":21245:21251   */\n      dup6\n        /* \"#utility.yul\":21201:21273   */\n      tag_129\n      jump\t// in\n    tag_401:\n        /* \"#utility.yul\":21283:21355   */\n      tag_402\n        /* \"#utility.yul\":21351:21353   */\n      0x60\n        /* \"#utility.yul\":21340:21349   */\n      dup4\n        /* \"#utility.yul\":21336:21354   */\n      add\n        /* \"#utility.yul\":21327:21333   */\n      dup5\n        /* \"#utility.yul\":21283:21355   */\n      tag_131\n      jump\t// in\n    tag_402:\n        /* \"#utility.yul\":20724:21362   */\n      swap6\n      swap5\n      pop\n      pop\n      pop\n      pop\n      pop\n      jump\t// out\n        /* \"#utility.yul\":21368:21700   */\n    tag_94:\n        /* \"#utility.yul\":21489:21493   */\n      0x00\n        /* \"#utility.yul\":21527:21529   */\n      0x40\n        /* \"#utility.yul\":21516:21525   */\n      dup3\n        /* \"#utility.yul\":21512:21530   */\n      add\n        /* \"#utility.yul\":21504:21530   */\n      swap1\n      pop\n        /* \"#utility.yul\":21540:21611   */\n      tag_404\n        /* \"#utility.yul\":21608:21609   */\n      0x00\n        /* \"#utility.yul\":21597:21606   */\n      dup4\n        /* \"#utility.yul\":21593:21610   */\n      add\n        /* \"#utility.yul\":21584:21590   */\n      dup6\n        /* \"#utility.yul\":21540:21611   */\n      tag_129\n      jump\t// in\n    tag_404:\n        /* \"#utility.yul\":21621:21693   */\n      tag_405\n        /* \"#utility.yul\":21689:21691   */\n      0x20\n        /* \"#utility.yul\":21678:21687   */\n      dup4\n        /* \"#utility.yul\":21674:21692   */\n      add\n        /* \"#utility.yul\":21665:21671   */\n      dup5\n        /* \"#utility.yul\":21621:21693   */\n      tag_131\n      jump\t// in\n    tag_405:\n        /* \"#utility.yul\":21368:21700   */\n      swap4\n      swap3\n      pop\n      pop\n      pop\n      jump\t// out\n\n    auxdata: 0xa264697066735822122038d832eca1fe3dc285beb91a5608fc23528ef15497e62b36db227d57d6c86a2764736f6c634300081a0033\n}\n",
				"bytecode": {
					"linkReferences": {},
					"object": "60a060405234801561000f575f80fd5b5060405161141338038061141383398181016040528101906100319190610170565b815f73ffffffffffffffffffffffffffffffffffffffff168173ffffffffffffffffffffffffffffffffffffffff1603610097576040517fe6c4247b00000000000000000000000000000000000000000000000000000000815260040160405180910390fd5b8073ffffffffffffffffffffffffffffffffffffffff1660808173ffffffffffffffffffffffffffffffffffffffff168152505050805f806101000a81548173ffffffffffffffffffffffffffffffffffffffff021916908373ffffffffffffffffffffffffffffffffffffffff16021790555050506101ae565b5f80fd5b5f73ffffffffffffffffffffffffffffffffffffffff82169050919050565b5f61013f82610116565b9050919050565b61014f81610135565b8114610159575f80fd5b50565b5f8151905061016a81610146565b92915050565b5f806040838503121561018657610185610112565b5b5f6101938582860161015c565b92505060206101a48582860161015c565b9150509250929050565b60805161124d6101c65f395f6101a2015261124d5ff3fe608060405234801561000f575f80fd5b5060043610610091575f3560e01c80635411a061116100645780635411a061146101095780639cb6239b14610127578063aa8c217c14610145578063b0fa844414610163578063f3fdf5731461018157610091565b8063116191b6146100955780631c6ffa46146100b357806327c79ae7146100d157806349160658146100ed575b5f80fd5b61009d61019f565b6040516100aa9190610746565b60405180910390f35b6100bb6101c6565b6040516100c891906107cf565b60405180910390f35b6100eb60048036038101906100e6919061092c565b610252565b005b61010760048036038101906101029190610a87565b610276565b005b61011161036a565b60405161011e9190610b6b565b60405180910390f35b61012f61038f565b60405161013c91906107cf565b60405180910390f35b61014d61041b565b60405161015a9190610b9c565b60405180910390f35b61016b610421565b60405161017891906107cf565b60405180910390f35b6101896104ad565b60405161019691906107cf565b60405180910390f35b5f7f0000000000000000000000000000000000000000000000000000000000000000905090565b600580546101d390610be2565b80601f01602080910402602001604051908101604052809291908181526020018280546101ff90610be2565b801561024a5780601f106102215761010080835404028352916020019161024a565b820191905f5260205f20905b81548152906001019060200180831161022d57829003601f168201915b505050505081565b81600190816102619190610da6565b5080600290816102719190610da6565b505050565b5f8282604051610287929190610ea3565b6040518091039020905061029961019f565b73ffffffffffffffffffffffffffffffffffffffff16635f6970c38989898989876040518763ffffffff1660e01b81526004016102db96959493929190610ef6565b6020604051808303815f875af11580156102f7573d5f803e3d5ffd5b505050506040513d601f19601f8201168201806040525081019061031b9190610f80565b610351576040517f500c44b400000000000000000000000000000000000000000000000000000000815260040160405180910390fd5b61036088888888888888610539565b5050505050505050565b60035f9054906101000a900473ffffffffffffffffffffffffffffffffffffffff1681565b6001805461039c90610be2565b80601f01602080910402602001604051908101604052809291908181526020018280546103c890610be2565b80156104135780601f106103ea57610100808354040283529160200191610413565b820191905f5260205f20905b8154815290600101906020018083116103f657829003601f168201915b505050505081565b60045481565b6006805461042e90610be2565b80601f016020809104026020016040519081016040528092919081815260200182805461045a90610be2565b80156104a55780601f1061047c576101008083540402835291602001916104a5565b820191905f5260205f20905b81548152906001019060200180831161048857829003601f168201915b505050505081565b600280546104ba90610be2565b80601f01602080910402602001604051908101604052809291908181526020018280546104e690610be2565b80156105315780601f1061050857610100808354040283529160200191610531565b820191905f5260205f20905b81548152906001019060200180831161051457829003601f168201915b505050505081565b81818101906105489190611010565b60035f60045f84919050558391906101000a81548173ffffffffffffffffffffffffffffffffffffffff021916908373ffffffffffffffffffffffffffffffffffffffff16021790555050508585600591826105a5929190611058565b508383600691826105b7929190611058565b507f8e73ead1ba5ac4085bdb804c6a5ea9f72c617280817c2db3215d473276e606ec87600660035f9054906101000a900473ffffffffffffffffffffffffffffffffffffffff1660045460405161061194939291906111a6565b60405180910390a15f8054906101000a900473ffffffffffffffffffffffffffffffffffffffff1673ffffffffffffffffffffffffffffffffffffffff166363d67dff60035f9054906101000a900473ffffffffffffffffffffffffffffffffffffffff166004546040518363ffffffff1660e01b81526004016106969291906111f0565b5f604051808303815f87803b1580156106ad575f80fd5b505af11580156106bf573d5f803e3d5ffd5b5050505050505050505050565b5f73ffffffffffffffffffffffffffffffffffffffff82169050919050565b5f819050919050565b5f61070e610709610704846106cc565b6106eb565b6106cc565b9050919050565b5f61071f826106f4565b9050919050565b5f61073082610715565b9050919050565b61074081610726565b82525050565b5f6020820190506107595f830184610737565b92915050565b5f81519050919050565b5f82825260208201905092915050565b8281835e5f83830152505050565b5f601f19601f8301169050919050565b5f6107a18261075f565b6107ab8185610769565b93506107bb818560208601610779565b6107c481610787565b840191505092915050565b5f6020820190508181035f8301526107e78184610797565b905092915050565b5f604051905090565b5f80fd5b5f80fd5b5f80fd5b5f80fd5b7f4e487b71000000000000000000000000000000000000000000000000000000005f52604160045260245ffd5b61083e82610787565b810181811067ffffffffffffffff8211171561085d5761085c610808565b5b80604052505050565b5f61086f6107ef565b905061087b8282610835565b919050565b5f67ffffffffffffffff82111561089a57610899610808565b5b6108a382610787565b9050602081019050919050565b828183375f83830152505050565b5f6108d06108cb84610880565b610866565b9050828152602081018484840111156108ec576108eb610804565b5b6108f78482856108b0565b509392505050565b5f82601f83011261091357610912610800565b5b81356109238482602086016108be565b91505092915050565b5f8060408385031215610942576109416107f8565b5b5f83013567ffffffffffffffff81111561095f5761095e6107fc565b5b61096b858286016108ff565b925050602083013567ffffffffffffffff81111561098c5761098b6107fc565b5b610998858286016108ff565b9150509250929050565b5f819050919050565b6109b4816109a2565b81146109be575f80fd5b50565b5f813590506109cf816109ab565b92915050565b5f80fd5b5f80fd5b5f8083601f8401126109f2576109f1610800565b5b8235905067ffffffffffffffff811115610a0f57610a0e6109d5565b5b602083019150836001820283011115610a2b57610a2a6109d9565b5b9250929050565b5f8083601f840112610a4757610a46610800565b5b8235905067ffffffffffffffff811115610a6457610a636109d5565b5b602083019150836001820283011115610a8057610a7f6109d9565b5b9250929050565b5f805f805f805f6080888a031215610aa257610aa16107f8565b5b5f610aaf8a828b016109c1565b975050602088013567ffffffffffffffff811115610ad057610acf6107fc565b5b610adc8a828b016109dd565b9650965050604088013567ffffffffffffffff811115610aff57610afe6107fc565b5b610b0b8a828b016109dd565b9450945050606088013567ffffffffffffffff811115610b2e57610b2d6107fc565b5b610b3a8a828b01610a32565b925092505092959891949750929550565b5f610b55826106cc565b9050919050565b610b6581610b4b565b82525050565b5f602082019050610b7e5f830184610b5c565b92915050565b5f819050919050565b610b9681610b84565b82525050565b5f602082019050610baf5f830184610b8d565b92915050565b7f4e487b71000000000000000000000000000000000000000000000000000000005f52602260045260245ffd5b5f6002820490506001821680610bf957607f821691505b602082108103610c0c57610c0b610bb5565b5b50919050565b5f819050815f5260205f209050919050565b5f6020601f8301049050919050565b5f82821b905092915050565b5f60088302610c6e7fffffffffffffffffffffffffffffffffffffffffffffffffffffffffffffffff82610c33565b610c788683610c33565b95508019841693508086168417925050509392505050565b5f610caa610ca5610ca084610b84565b6106eb565b610b84565b9050919050565b5f819050919050565b610cc383610c90565b610cd7610ccf82610cb1565b848454610c3f565b825550505050565b5f90565b610ceb610cdf565b610cf6818484610cba565b505050565b5b81811015610d1957610d0e5f82610ce3565b600181019050610cfc565b5050565b601f821115610d5e57610d2f81610c12565b610d3884610c24565b81016020851015610d47578190505b610d5b610d5385610c24565b830182610cfb565b50505b505050565b5f82821c905092915050565b5f610d7e5f1984600802610d63565b1980831691505092915050565b5f610d968383610d6f565b9150826002028217905092915050565b610daf8261075f565b67ffffffffffffffff811115610dc857610dc7610808565b5b610dd28254610be2565b610ddd828285610d1d565b5f60209050601f831160018114610e0e575f8415610dfc578287015190505b610e068582610d8b565b865550610e6d565b601f198416610e1c86610c12565b5f5b82811015610e4357848901518255600182019150602085019450602081019050610e1e565b86831015610e605784890151610e5c601f891682610d6f565b8355505b6001600288020188555050505b505050505050565b5f81905092915050565b5f610e8a8385610e75565b9350610e978385846108b0565b82840190509392505050565b5f610eaf828486610e7f565b91508190509392505050565b610ec4816109a2565b82525050565b5f610ed58385610769565b9350610ee28385846108b0565b610eeb83610787565b840190509392505050565b5f608082019050610f095f830189610ebb565b8181036020830152610f1c818789610eca565b90508181036040830152610f31818587610eca565b9050610f406060830184610ebb565b979650505050505050565b5f8115159050919050565b610f5f81610f4b565b8114610f69575f80fd5b50565b5f81519050610f7a81610f56565b92915050565b5f60208284031215610f9557610f946107f8565b5b5f610fa284828501610f6c565b91505092915050565b5f610fb5826106cc565b9050919050565b610fc581610fab565b8114610fcf575f80fd5b50565b5f81359050610fe081610fbc565b92915050565b610fef81610b84565b8114610ff9575f80fd5b50565b5f8135905061100a81610fe6565b92915050565b5f8060408385031215611026576110256107f8565b5b5f61103385828601610fd2565b925050602061104485828601610ffc565b9150509250929050565b5f82905092915050565b611062838361104e565b67ffffffffffffffff81111561107b5761107a610808565b5b6110858254610be2565b611090828285610d1d565b5f601f8311600181146110bd575f84156110ab578287013590505b6110b58582610d8b565b86555061111c565b601f1984166110cb86610c12565b5f5b828110156110f2578489013582556001820191506020850194506020810190506110cd565b8683101561110f578489013561110b601f891682610d6f565b8355505b6001600288020188555050505b50505050505050565b5f815461113181610be2565b61113b8186610769565b9450600182165f8114611155576001811461116b5761119d565b60ff19831686528115156020028601935061119d565b61117485610c12565b5f5b8381101561119557815481890152600182019150602081019050611176565b808801955050505b50505092915050565b5f6080820190506111b95f830187610ebb565b81810360208301526111cb8186611125565b90506111da6040830185610b5c565b6111e76060830184610b8d565b95945050505050565b5f6040820190506112035f830185610b5c565b6112106020830184610b8d565b939250505056fea264697066735822122038d832eca1fe3dc285beb91a5608fc23528ef15497e62b36db227d57d6c86a2764736f6c634300081a0033",
					"opcodes": "PUSH1 0xA0 PUSH1 0x40 MSTORE CALLVALUE DUP1 ISZERO PUSH2 0xF JUMPI PUSH0 DUP1 REVERT JUMPDEST POP PUSH1 0x40 MLOAD PUSH2 0x1413 CODESIZE SUB DUP1 PUSH2 0x1413 DUP4 CODECOPY DUP2 DUP2 ADD PUSH1 0x40 MSTORE DUP2 ADD SWAP1 PUSH2 0x31 SWAP2 SWAP1 PUSH2 0x170 JUMP JUMPDEST DUP2 PUSH0 PUSH20 0xFFFFFFFFFFFFFFFFFFFFFFFFFFFFFFFFFFFFFFFF AND DUP2 PUSH20 0xFFFFFFFFFFFFFFFFFFFFFFFFFFFFFFFFFFFFFFFF AND SUB PUSH2 0x97 JUMPI PUSH1 0x40 MLOAD PUSH32 0xE6C4247B00000000000000000000000000000000000000000000000000000000 DUP2 MSTORE PUSH1 0x4 ADD PUSH1 0x40 MLOAD DUP1 SWAP2 SUB SWAP1 REVERT JUMPDEST DUP1 PUSH20 0xFFFFFFFFFFFFFFFFFFFFFFFFFFFFFFFFFFFFFFFF AND PUSH1 0x80 DUP2 PUSH20 0xFFFFFFFFFFFFFFFFFFFFFFFFFFFFFFFFFFFFFFFF AND DUP2 MSTORE POP POP POP DUP1 PUSH0 DUP1 PUSH2 0x100 EXP DUP2 SLOAD DUP2 PUSH20 0xFFFFFFFFFFFFFFFFFFFFFFFFFFFFFFFFFFFFFFFF MUL NOT AND SWAP1 DUP4 PUSH20 0xFFFFFFFFFFFFFFFFFFFFFFFFFFFFFFFFFFFFFFFF AND MUL OR SWAP1 SSTORE POP POP POP PUSH2 0x1AE JUMP JUMPDEST PUSH0 DUP1 REVERT JUMPDEST PUSH0 PUSH20 0xFFFFFFFFFFFFFFFFFFFFFFFFFFFFFFFFFFFFFFFF DUP3 AND SWAP1 POP SWAP2 SWAP1 POP JUMP JUMPDEST PUSH0 PUSH2 0x13F DUP3 PUSH2 0x116 JUMP JUMPDEST SWAP1 POP SWAP2 SWAP1 POP JUMP JUMPDEST PUSH2 0x14F DUP2 PUSH2 0x135 JUMP JUMPDEST DUP2 EQ PUSH2 0x159 JUMPI PUSH0 DUP1 REVERT JUMPDEST POP JUMP JUMPDEST PUSH0 DUP2 MLOAD SWAP1 POP PUSH2 0x16A DUP2 PUSH2 0x146 JUMP JUMPDEST SWAP3 SWAP2 POP POP JUMP JUMPDEST PUSH0 DUP1 PUSH1 0x40 DUP4 DUP6 SUB SLT ISZERO PUSH2 0x186 JUMPI PUSH2 0x185 PUSH2 0x112 JUMP JUMPDEST JUMPDEST PUSH0 PUSH2 0x193 DUP6 DUP3 DUP7 ADD PUSH2 0x15C JUMP JUMPDEST SWAP3 POP POP PUSH1 0x20 PUSH2 0x1A4 DUP6 DUP3 DUP7 ADD PUSH2 0x15C JUMP JUMPDEST SWAP2 POP POP SWAP3 POP SWAP3 SWAP1 POP JUMP JUMPDEST PUSH1 0x80 MLOAD PUSH2 0x124D PUSH2 0x1C6 PUSH0 CODECOPY PUSH0 PUSH2 0x1A2 ADD MSTORE PUSH2 0x124D PUSH0 RETURN INVALID PUSH1 0x80 PUSH1 0x40 MSTORE CALLVALUE DUP1 ISZERO PUSH2 0xF JUMPI PUSH0 DUP1 REVERT JUMPDEST POP PUSH1 0x4 CALLDATASIZE LT PUSH2 0x91 JUMPI PUSH0 CALLDATALOAD PUSH1 0xE0 SHR DUP1 PUSH4 0x5411A061 GT PUSH2 0x64 JUMPI DUP1 PUSH4 0x5411A061 EQ PUSH2 0x109 JUMPI DUP1 PUSH4 0x9CB6239B EQ PUSH2 0x127 JUMPI DUP1 PUSH4 0xAA8C217C EQ PUSH2 0x145 JUMPI DUP1 PUSH4 0xB0FA8444 EQ PUSH2 0x163 JUMPI DUP1 PUSH4 0xF3FDF573 EQ PUSH2 0x181 JUMPI PUSH2 0x91 JUMP JUMPDEST DUP1 PUSH4 0x116191B6 EQ PUSH2 0x95 JUMPI DUP1 PUSH4 0x1C6FFA46 EQ PUSH2 0xB3 JUMPI DUP1 PUSH4 0x27C79AE7 EQ PUSH2 0xD1 JUMPI DUP1 PUSH4 0x49160658 EQ PUSH2 0xED JUMPI JUMPDEST PUSH0 DUP1 REVERT JUMPDEST PUSH2 0x9D PUSH2 0x19F JUMP JUMPDEST PUSH1 0x40 MLOAD PUSH2 0xAA SWAP2 SWAP1 PUSH2 0x746 JUMP JUMPDEST PUSH1 0x40 MLOAD DUP1 SWAP2 SUB SWAP1 RETURN JUMPDEST PUSH2 0xBB PUSH2 0x1C6 JUMP JUMPDEST PUSH1 0x40 MLOAD PUSH2 0xC8 SWAP2 SWAP1 PUSH2 0x7CF JUMP JUMPDEST PUSH1 0x40 MLOAD DUP1 SWAP2 SUB SWAP1 RETURN JUMPDEST PUSH2 0xEB PUSH1 0x4 DUP1 CALLDATASIZE SUB DUP2 ADD SWAP1 PUSH2 0xE6 SWAP2 SWAP1 PUSH2 0x92C JUMP JUMPDEST PUSH2 0x252 JUMP JUMPDEST STOP JUMPDEST PUSH2 0x107 PUSH1 0x4 DUP1 CALLDATASIZE SUB DUP2 ADD SWAP1 PUSH2 0x102 SWAP2 SWAP1 PUSH2 0xA87 JUMP JUMPDEST PUSH2 0x276 JUMP JUMPDEST STOP JUMPDEST PUSH2 0x111 PUSH2 0x36A JUMP JUMPDEST PUSH1 0x40 MLOAD PUSH2 0x11E SWAP2 SWAP1 PUSH2 0xB6B JUMP JUMPDEST PUSH1 0x40 MLOAD DUP1 SWAP2 SUB SWAP1 RETURN JUMPDEST PUSH2 0x12F PUSH2 0x38F JUMP JUMPDEST PUSH1 0x40 MLOAD PUSH2 0x13C SWAP2 SWAP1 PUSH2 0x7CF JUMP JUMPDEST PUSH1 0x40 MLOAD DUP1 SWAP2 SUB SWAP1 RETURN JUMPDEST PUSH2 0x14D PUSH2 0x41B JUMP JUMPDEST PUSH1 0x40 MLOAD PUSH2 0x15A SWAP2 SWAP1 PUSH2 0xB9C JUMP JUMPDEST PUSH1 0x40 MLOAD DUP1 SWAP2 SUB SWAP1 RETURN JUMPDEST PUSH2 0x16B PUSH2 0x421 JUMP JUMPDEST PUSH1 0x40 MLOAD PUSH2 0x178 SWAP2 SWAP1 PUSH2 0x7CF JUMP JUMPDEST PUSH1 0x40 MLOAD DUP1 SWAP2 SUB SWAP1 RETURN JUMPDEST PUSH2 0x189 PUSH2 0x4AD JUMP JUMPDEST PUSH1 0x40 MLOAD PUSH2 0x196 SWAP2 SWAP1 PUSH2 0x7CF JUMP JUMPDEST PUSH1 0x40 MLOAD DUP1 SWAP2 SUB SWAP1 RETURN JUMPDEST PUSH0 PUSH32 0x0 SWAP1 POP SWAP1 JUMP JUMPDEST PUSH1 0x5 DUP1 SLOAD PUSH2 0x1D3 SWAP1 PUSH2 0xBE2 JUMP JUMPDEST DUP1 PUSH1 0x1F ADD PUSH1 0x20 DUP1 SWAP2 DIV MUL PUSH1 0x20 ADD PUSH1 0x40 MLOAD SWAP1 DUP2 ADD PUSH1 0x40 MSTORE DUP1 SWAP3 SWAP2 SWAP1 DUP2 DUP2 MSTORE PUSH1 0x20 ADD DUP3 DUP1 SLOAD PUSH2 0x1FF SWAP1 PUSH2 0xBE2 JUMP JUMPDEST DUP1 ISZERO PUSH2 0x24A JUMPI DUP1 PUSH1 0x1F LT PUSH2 0x221 JUMPI PUSH2 0x100 DUP1 DUP4 SLOAD DIV MUL DUP4 MSTORE SWAP2 PUSH1 0x20 ADD SWAP2 PUSH2 0x24A JUMP JUMPDEST DUP3 ADD SWAP2 SWAP1 PUSH0 MSTORE PUSH1 0x20 PUSH0 KECCAK256 SWAP1 JUMPDEST DUP2 SLOAD DUP2 MSTORE SWAP1 PUSH1 0x1 ADD SWAP1 PUSH1 0x20 ADD DUP1 DUP4 GT PUSH2 0x22D JUMPI DUP3 SWAP1 SUB PUSH1 0x1F AND DUP3 ADD SWAP2 JUMPDEST POP POP POP POP POP DUP2 JUMP JUMPDEST DUP2 PUSH1 0x1 SWAP1 DUP2 PUSH2 0x261 SWAP2 SWAP1 PUSH2 0xDA6 JUMP JUMPDEST POP DUP1 PUSH1 0x2 SWAP1 DUP2 PUSH2 0x271 SWAP2 SWAP1 PUSH2 0xDA6 JUMP JUMPDEST POP POP POP JUMP JUMPDEST PUSH0 DUP3 DUP3 PUSH1 0x40 MLOAD PUSH2 0x287 SWAP3 SWAP2 SWAP1 PUSH2 0xEA3 JUMP JUMPDEST PUSH1 0x40 MLOAD DUP1 SWAP2 SUB SWAP1 KECCAK256 SWAP1 POP PUSH2 0x299 PUSH2 0x19F JUMP JUMPDEST PUSH20 0xFFFFFFFFFFFFFFFFFFFFFFFFFFFFFFFFFFFFFFFF AND PUSH4 0x5F6970C3 DUP10 DUP10 DUP10 DUP10 DUP10 DUP8 PUSH1 0x40 MLOAD DUP8 PUSH4 0xFFFFFFFF AND PUSH1 0xE0 SHL DUP2 MSTORE PUSH1 0x4 ADD PUSH2 0x2DB SWAP7 SWAP6 SWAP5 SWAP4 SWAP3 SWAP2 SWAP1 PUSH2 0xEF6 JUMP JUMPDEST PUSH1 0x20 PUSH1 0x40 MLOAD DUP1 DUP4 SUB DUP2 PUSH0 DUP8 GAS CALL ISZERO DUP1 ISZERO PUSH2 0x2F7 JUMPI RETURNDATASIZE PUSH0 DUP1 RETURNDATACOPY RETURNDATASIZE PUSH0 REVERT JUMPDEST POP POP POP POP PUSH1 0x40 MLOAD RETURNDATASIZE PUSH1 0x1F NOT PUSH1 0x1F DUP3 ADD AND DUP3 ADD DUP1 PUSH1 0x40 MSTORE POP DUP2 ADD SWAP1 PUSH2 0x31B SWAP2 SWAP1 PUSH2 0xF80 JUMP JUMPDEST PUSH2 0x351 JUMPI PUSH1 0x40 MLOAD PUSH32 0x500C44B400000000000000000000000000000000000000000000000000000000 DUP2 MSTORE PUSH1 0x4 ADD PUSH1 0x40 MLOAD DUP1 SWAP2 SUB SWAP1 REVERT JUMPDEST PUSH2 0x360 DUP9 DUP9 DUP9 DUP9 DUP9 DUP9 DUP9 PUSH2 0x539 JUMP JUMPDEST POP POP POP POP POP POP POP POP JUMP JUMPDEST PUSH1 0x3 PUSH0 SWAP1 SLOAD SWAP1 PUSH2 0x100 EXP SWAP1 DIV PUSH20 0xFFFFFFFFFFFFFFFFFFFFFFFFFFFFFFFFFFFFFFFF AND DUP2 JUMP JUMPDEST PUSH1 0x1 DUP1 SLOAD PUSH2 0x39C SWAP1 PUSH2 0xBE2 JUMP JUMPDEST DUP1 PUSH1 0x1F ADD PUSH1 0x20 DUP1 SWAP2 DIV MUL PUSH1 0x20 ADD PUSH1 0x40 MLOAD SWAP1 DUP2 ADD PUSH1 0x40 MSTORE DUP1 SWAP3 SWAP2 SWAP1 DUP2 DUP2 MSTORE PUSH1 0x20 ADD DUP3 DUP1 SLOAD PUSH2 0x3C8 SWAP1 PUSH2 0xBE2 JUMP JUMPDEST DUP1 ISZERO PUSH2 0x413 JUMPI DUP1 PUSH1 0x1F LT PUSH2 0x3EA JUMPI PUSH2 0x100 DUP1 DUP4 SLOAD DIV MUL DUP4 MSTORE SWAP2 PUSH1 0x20 ADD SWAP2 PUSH2 0x413 JUMP JUMPDEST DUP3 ADD SWAP2 SWAP1 PUSH0 MSTORE PUSH1 0x20 PUSH0 KECCAK256 SWAP1 JUMPDEST DUP2 SLOAD DUP2 MSTORE SWAP1 PUSH1 0x1 ADD SWAP1 PUSH1 0x20 ADD DUP1 DUP4 GT PUSH2 0x3F6 JUMPI DUP3 SWAP1 SUB PUSH1 0x1F AND DUP3 ADD SWAP2 JUMPDEST POP POP POP POP POP DUP2 JUMP JUMPDEST PUSH1 0x4 SLOAD DUP2 JUMP JUMPDEST PUSH1 0x6 DUP1 SLOAD PUSH2 0x42E SWAP1 PUSH2 0xBE2 JUMP JUMPDEST DUP1 PUSH1 0x1F ADD PUSH1 0x20 DUP1 SWAP2 DIV MUL PUSH1 0x20 ADD PUSH1 0x40 MLOAD SWAP1 DUP2 ADD PUSH1 0x40 MSTORE DUP1 SWAP3 SWAP2 SWAP1 DUP2 DUP2 MSTORE PUSH1 0x20 ADD DUP3 DUP1 SLOAD PUSH2 0x45A SWAP1 PUSH2 0xBE2 JUMP JUMPDEST DUP1 ISZERO PUSH2 0x4A5 JUMPI DUP1 PUSH1 0x1F LT PUSH2 0x47C JUMPI PUSH2 0x100 DUP1 DUP4 SLOAD DIV MUL DUP4 MSTORE SWAP2 PUSH1 0x20 ADD SWAP2 PUSH2 0x4A5 JUMP JUMPDEST DUP3 ADD SWAP2 SWAP1 PUSH0 MSTORE PUSH1 0x20 PUSH0 KECCAK256 SWAP1 JUMPDEST DUP2 SLOAD DUP2 MSTORE SWAP1 PUSH1 0x1 ADD SWAP1 PUSH1 0x20 ADD DUP1 DUP4 GT PUSH2 0x488 JUMPI DUP3 SWAP1 SUB PUSH1 0x1F AND DUP3 ADD SWAP2 JUMPDEST POP POP POP POP POP DUP2 JUMP JUMPDEST PUSH1 0x2 DUP1 SLOAD PUSH2 0x4BA SWAP1 PUSH2 0xBE2 JUMP JUMPDEST DUP1 PUSH1 0x1F ADD PUSH1 0x20 DUP1 SWAP2 DIV MUL PUSH1 0x20 ADD PUSH1 0x40 MLOAD SWAP1 DUP2 ADD PUSH1 0x40 MSTORE DUP1 SWAP3 SWAP2 SWAP1 DUP2 DUP2 MSTORE PUSH1 0x20 ADD DUP3 DUP1 SLOAD PUSH2 0x4E6 SWAP1 PUSH2 0xBE2 JUMP JUMPDEST DUP1 ISZERO PUSH2 0x531 JUMPI DUP1 PUSH1 0x1F LT PUSH2 0x508 JUMPI PUSH2 0x100 DUP1 DUP4 SLOAD DIV MUL DUP4 MSTORE SWAP2 PUSH1 0x20 ADD SWAP2 PUSH2 0x531 JUMP JUMPDEST DUP3 ADD SWAP2 SWAP1 PUSH0 MSTORE PUSH1 0x20 PUSH0 KECCAK256 SWAP1 JUMPDEST DUP2 SLOAD DUP2 MSTORE SWAP1 PUSH1 0x1 ADD SWAP1 PUSH1 0x20 ADD DUP1 DUP4 GT PUSH2 0x514 JUMPI DUP3 SWAP1 SUB PUSH1 0x1F AND DUP3 ADD SWAP2 JUMPDEST POP POP POP POP POP DUP2 JUMP JUMPDEST DUP2 DUP2 DUP2 ADD SWAP1 PUSH2 0x548 SWAP2 SWAP1 PUSH2 0x1010 JUMP JUMPDEST PUSH1 0x3 PUSH0 PUSH1 0x4 PUSH0 DUP5 SWAP2 SWAP1 POP SSTORE DUP4 SWAP2 SWAP1 PUSH2 0x100 EXP DUP2 SLOAD DUP2 PUSH20 0xFFFFFFFFFFFFFFFFFFFFFFFFFFFFFFFFFFFFFFFF MUL NOT AND SWAP1 DUP4 PUSH20 0xFFFFFFFFFFFFFFFFFFFFFFFFFFFFFFFFFFFFFFFF AND MUL OR SWAP1 SSTORE POP POP POP DUP6 DUP6 PUSH1 0x5 SWAP2 DUP3 PUSH2 0x5A5 SWAP3 SWAP2 SWAP1 PUSH2 0x1058 JUMP JUMPDEST POP DUP4 DUP4 PUSH1 0x6 SWAP2 DUP3 PUSH2 0x5B7 SWAP3 SWAP2 SWAP1 PUSH2 0x1058 JUMP JUMPDEST POP PUSH32 0x8E73EAD1BA5AC4085BDB804C6A5EA9F72C617280817C2DB3215D473276E606EC DUP8 PUSH1 0x6 PUSH1 0x3 PUSH0 SWAP1 SLOAD SWAP1 PUSH2 0x100 EXP SWAP1 DIV PUSH20 0xFFFFFFFFFFFFFFFFFFFFFFFFFFFFFFFFFFFFFFFF AND PUSH1 0x4 SLOAD PUSH1 0x40 MLOAD PUSH2 0x611 SWAP5 SWAP4 SWAP3 SWAP2 SWAP1 PUSH2 0x11A6 JUMP JUMPDEST PUSH1 0x40 MLOAD DUP1 SWAP2 SUB SWAP1 LOG1 PUSH0 DUP1 SLOAD SWAP1 PUSH2 0x100 EXP SWAP1 DIV PUSH20 0xFFFFFFFFFFFFFFFFFFFFFFFFFFFFFFFFFFFFFFFF AND PUSH20 0xFFFFFFFFFFFFFFFFFFFFFFFFFFFFFFFFFFFFFFFF AND PUSH4 0x63D67DFF PUSH1 0x3 PUSH0 SWAP1 SLOAD SWAP1 PUSH2 0x100 EXP SWAP1 DIV PUSH20 0xFFFFFFFFFFFFFFFFFFFFFFFFFFFFFFFFFFFFFFFF AND PUSH1 0x4 SLOAD PUSH1 0x40 MLOAD DUP4 PUSH4 0xFFFFFFFF AND PUSH1 0xE0 SHL DUP2 MSTORE PUSH1 0x4 ADD PUSH2 0x696 SWAP3 SWAP2 SWAP1 PUSH2 0x11F0 JUMP JUMPDEST PUSH0 PUSH1 0x40 MLOAD DUP1 DUP4 SUB DUP2 PUSH0 DUP8 DUP1 EXTCODESIZE ISZERO DUP1 ISZERO PUSH2 0x6AD JUMPI PUSH0 DUP1 REVERT JUMPDEST POP GAS CALL ISZERO DUP1 ISZERO PUSH2 0x6BF JUMPI RETURNDATASIZE PUSH0 DUP1 RETURNDATACOPY RETURNDATASIZE PUSH0 REVERT JUMPDEST POP POP POP POP POP POP POP POP POP POP POP JUMP JUMPDEST PUSH0 PUSH20 0xFFFFFFFFFFFFFFFFFFFFFFFFFFFFFFFFFFFFFFFF DUP3 AND SWAP1 POP SWAP2 SWAP1 POP JUMP JUMPDEST PUSH0 DUP2 SWAP1 POP SWAP2 SWAP1 POP JUMP JUMPDEST PUSH0 PUSH2 0x70E PUSH2 0x709 PUSH2 0x704 DUP5 PUSH2 0x6CC JUMP JUMPDEST PUSH2 0x6EB JUMP JUMPDEST PUSH2 0x6CC JUMP JUMPDEST SWAP1 POP SWAP2 SWAP1 POP JUMP JUMPDEST PUSH0 PUSH2 0x71F DUP3 PUSH2 0x6F4 JUMP JUMPDEST SWAP1 POP SWAP2 SWAP1 POP JUMP JUMPDEST PUSH0 PUSH2 0x730 DUP3 PUSH2 0x715 JUMP JUMPDEST SWAP1 POP SWAP2 SWAP1 POP JUMP JUMPDEST PUSH2 0x740 DUP2 PUSH2 0x726 JUMP JUMPDEST DUP3 MSTORE POP POP JUMP JUMPDEST PUSH0 PUSH1 0x20 DUP3 ADD SWAP1 POP PUSH2 0x759 PUSH0 DUP4 ADD DUP5 PUSH2 0x737 JUMP JUMPDEST SWAP3 SWAP2 POP POP JUMP JUMPDEST PUSH0 DUP2 MLOAD SWAP1 POP SWAP2 SWAP1 POP JUMP JUMPDEST PUSH0 DUP3 DUP3 MSTORE PUSH1 0x20 DUP3 ADD SWAP1 POP SWAP3 SWAP2 POP POP JUMP JUMPDEST DUP3 DUP2 DUP4 MCOPY PUSH0 DUP4 DUP4 ADD MSTORE POP POP POP JUMP JUMPDEST PUSH0 PUSH1 0x1F NOT PUSH1 0x1F DUP4 ADD AND SWAP1 POP SWAP2 SWAP1 POP JUMP JUMPDEST PUSH0 PUSH2 0x7A1 DUP3 PUSH2 0x75F JUMP JUMPDEST PUSH2 0x7AB DUP2 DUP6 PUSH2 0x769 JUMP JUMPDEST SWAP4 POP PUSH2 0x7BB DUP2 DUP6 PUSH1 0x20 DUP7 ADD PUSH2 0x779 JUMP JUMPDEST PUSH2 0x7C4 DUP2 PUSH2 0x787 JUMP JUMPDEST DUP5 ADD SWAP2 POP POP SWAP3 SWAP2 POP POP JUMP JUMPDEST PUSH0 PUSH1 0x20 DUP3 ADD SWAP1 POP DUP2 DUP2 SUB PUSH0 DUP4 ADD MSTORE PUSH2 0x7E7 DUP2 DUP5 PUSH2 0x797 JUMP JUMPDEST SWAP1 POP SWAP3 SWAP2 POP POP JUMP JUMPDEST PUSH0 PUSH1 0x40 MLOAD SWAP1 POP SWAP1 JUMP JUMPDEST PUSH0 DUP1 REVERT JUMPDEST PUSH0 DUP1 REVERT JUMPDEST PUSH0 DUP1 REVERT JUMPDEST PUSH0 DUP1 REVERT JUMPDEST PUSH32 0x4E487B7100000000000000000000000000000000000000000000000000000000 PUSH0 MSTORE PUSH1 0x41 PUSH1 0x4 MSTORE PUSH1 0x24 PUSH0 REVERT JUMPDEST PUSH2 0x83E DUP3 PUSH2 0x787 JUMP JUMPDEST DUP2 ADD DUP2 DUP2 LT PUSH8 0xFFFFFFFFFFFFFFFF DUP3 GT OR ISZERO PUSH2 0x85D JUMPI PUSH2 0x85C PUSH2 0x808 JUMP JUMPDEST JUMPDEST DUP1 PUSH1 0x40 MSTORE POP POP POP JUMP JUMPDEST PUSH0 PUSH2 0x86F PUSH2 0x7EF JUMP JUMPDEST SWAP1 POP PUSH2 0x87B DUP3 DUP3 PUSH2 0x835 JUMP JUMPDEST SWAP2 SWAP1 POP JUMP JUMPDEST PUSH0 PUSH8 0xFFFFFFFFFFFFFFFF DUP3 GT ISZERO PUSH2 0x89A JUMPI PUSH2 0x899 PUSH2 0x808 JUMP JUMPDEST JUMPDEST PUSH2 0x8A3 DUP3 PUSH2 0x787 JUMP JUMPDEST SWAP1 POP PUSH1 0x20 DUP2 ADD SWAP1 POP SWAP2 SWAP1 POP JUMP JUMPDEST DUP3 DUP2 DUP4 CALLDATACOPY PUSH0 DUP4 DUP4 ADD MSTORE POP POP POP JUMP JUMPDEST PUSH0 PUSH2 0x8D0 PUSH2 0x8CB DUP5 PUSH2 0x880 JUMP JUMPDEST PUSH2 0x866 JUMP JUMPDEST SWAP1 POP DUP3 DUP2 MSTORE PUSH1 0x20 DUP2 ADD DUP5 DUP5 DUP5 ADD GT ISZERO PUSH2 0x8EC JUMPI PUSH2 0x8EB PUSH2 0x804 JUMP JUMPDEST JUMPDEST PUSH2 0x8F7 DUP5 DUP3 DUP6 PUSH2 0x8B0 JUMP JUMPDEST POP SWAP4 SWAP3 POP POP POP JUMP JUMPDEST PUSH0 DUP3 PUSH1 0x1F DUP4 ADD SLT PUSH2 0x913 JUMPI PUSH2 0x912 PUSH2 0x800 JUMP JUMPDEST JUMPDEST DUP2 CALLDATALOAD PUSH2 0x923 DUP5 DUP3 PUSH1 0x20 DUP7 ADD PUSH2 0x8BE JUMP JUMPDEST SWAP2 POP POP SWAP3 SWAP2 POP POP JUMP JUMPDEST PUSH0 DUP1 PUSH1 0x40 DUP4 DUP6 SUB SLT ISZERO PUSH2 0x942 JUMPI PUSH2 0x941 PUSH2 0x7F8 JUMP JUMPDEST JUMPDEST PUSH0 DUP4 ADD CALLDATALOAD PUSH8 0xFFFFFFFFFFFFFFFF DUP2 GT ISZERO PUSH2 0x95F JUMPI PUSH2 0x95E PUSH2 0x7FC JUMP JUMPDEST JUMPDEST PUSH2 0x96B DUP6 DUP3 DUP7 ADD PUSH2 0x8FF JUMP JUMPDEST SWAP3 POP POP PUSH1 0x20 DUP4 ADD CALLDATALOAD PUSH8 0xFFFFFFFFFFFFFFFF DUP2 GT ISZERO PUSH2 0x98C JUMPI PUSH2 0x98B PUSH2 0x7FC JUMP JUMPDEST JUMPDEST PUSH2 0x998 DUP6 DUP3 DUP7 ADD PUSH2 0x8FF JUMP JUMPDEST SWAP2 POP POP SWAP3 POP SWAP3 SWAP1 POP JUMP JUMPDEST PUSH0 DUP2 SWAP1 POP SWAP2 SWAP1 POP JUMP JUMPDEST PUSH2 0x9B4 DUP2 PUSH2 0x9A2 JUMP JUMPDEST DUP2 EQ PUSH2 0x9BE JUMPI PUSH0 DUP1 REVERT JUMPDEST POP JUMP JUMPDEST PUSH0 DUP2 CALLDATALOAD SWAP1 POP PUSH2 0x9CF DUP2 PUSH2 0x9AB JUMP JUMPDEST SWAP3 SWAP2 POP POP JUMP JUMPDEST PUSH0 DUP1 REVERT JUMPDEST PUSH0 DUP1 REVERT JUMPDEST PUSH0 DUP1 DUP4 PUSH1 0x1F DUP5 ADD SLT PUSH2 0x9F2 JUMPI PUSH2 0x9F1 PUSH2 0x800 JUMP JUMPDEST JUMPDEST DUP3 CALLDATALOAD SWAP1 POP PUSH8 0xFFFFFFFFFFFFFFFF DUP2 GT ISZERO PUSH2 0xA0F JUMPI PUSH2 0xA0E PUSH2 0x9D5 JUMP JUMPDEST JUMPDEST PUSH1 0x20 DUP4 ADD SWAP2 POP DUP4 PUSH1 0x1 DUP3 MUL DUP4 ADD GT ISZERO PUSH2 0xA2B JUMPI PUSH2 0xA2A PUSH2 0x9D9 JUMP JUMPDEST JUMPDEST SWAP3 POP SWAP3 SWAP1 POP JUMP JUMPDEST PUSH0 DUP1 DUP4 PUSH1 0x1F DUP5 ADD SLT PUSH2 0xA47 JUMPI PUSH2 0xA46 PUSH2 0x800 JUMP JUMPDEST JUMPDEST DUP3 CALLDATALOAD SWAP1 POP PUSH8 0xFFFFFFFFFFFFFFFF DUP2 GT ISZERO PUSH2 0xA64 JUMPI PUSH2 0xA63 PUSH2 0x9D5 JUMP JUMPDEST JUMPDEST PUSH1 0x20 DUP4 ADD SWAP2 POP DUP4 PUSH1 0x1 DUP3 MUL DUP4 ADD GT ISZERO PUSH2 0xA80 JUMPI PUSH2 0xA7F PUSH2 0x9D9 JUMP JUMPDEST JUMPDEST SWAP3 POP SWAP3 SWAP1 POP JUMP JUMPDEST PUSH0 DUP1 PUSH0 DUP1 PUSH0 DUP1 PUSH0 PUSH1 0x80 DUP9 DUP11 SUB SLT ISZERO PUSH2 0xAA2 JUMPI PUSH2 0xAA1 PUSH2 0x7F8 JUMP JUMPDEST JUMPDEST PUSH0 PUSH2 0xAAF DUP11 DUP3 DUP12 ADD PUSH2 0x9C1 JUMP JUMPDEST SWAP8 POP POP PUSH1 0x20 DUP9 ADD CALLDATALOAD PUSH8 0xFFFFFFFFFFFFFFFF DUP2 GT ISZERO PUSH2 0xAD0 JUMPI PUSH2 0xACF PUSH2 0x7FC JUMP JUMPDEST JUMPDEST PUSH2 0xADC DUP11 DUP3 DUP12 ADD PUSH2 0x9DD JUMP JUMPDEST SWAP7 POP SWAP7 POP POP PUSH1 0x40 DUP9 ADD CALLDATALOAD PUSH8 0xFFFFFFFFFFFFFFFF DUP2 GT ISZERO PUSH2 0xAFF JUMPI PUSH2 0xAFE PUSH2 0x7FC JUMP JUMPDEST JUMPDEST PUSH2 0xB0B DUP11 DUP3 DUP12 ADD PUSH2 0x9DD JUMP JUMPDEST SWAP5 POP SWAP5 POP POP PUSH1 0x60 DUP9 ADD CALLDATALOAD PUSH8 0xFFFFFFFFFFFFFFFF DUP2 GT ISZERO PUSH2 0xB2E JUMPI PUSH2 0xB2D PUSH2 0x7FC JUMP JUMPDEST JUMPDEST PUSH2 0xB3A DUP11 DUP3 DUP12 ADD PUSH2 0xA32 JUMP JUMPDEST SWAP3 POP SWAP3 POP POP SWAP3 SWAP6 SWAP9 SWAP2 SWAP5 SWAP8 POP SWAP3 SWAP6 POP JUMP JUMPDEST PUSH0 PUSH2 0xB55 DUP3 PUSH2 0x6CC JUMP JUMPDEST SWAP1 POP SWAP2 SWAP1 POP JUMP JUMPDEST PUSH2 0xB65 DUP2 PUSH2 0xB4B JUMP JUMPDEST DUP3 MSTORE POP POP JUMP JUMPDEST PUSH0 PUSH1 0x20 DUP3 ADD SWAP1 POP PUSH2 0xB7E PUSH0 DUP4 ADD DUP5 PUSH2 0xB5C JUMP JUMPDEST SWAP3 SWAP2 POP POP JUMP JUMPDEST PUSH0 DUP2 SWAP1 POP SWAP2 SWAP1 POP JUMP JUMPDEST PUSH2 0xB96 DUP2 PUSH2 0xB84 JUMP JUMPDEST DUP3 MSTORE POP POP JUMP JUMPDEST PUSH0 PUSH1 0x20 DUP3 ADD SWAP1 POP PUSH2 0xBAF PUSH0 DUP4 ADD DUP5 PUSH2 0xB8D JUMP JUMPDEST SWAP3 SWAP2 POP POP JUMP JUMPDEST PUSH32 0x4E487B7100000000000000000000000000000000000000000000000000000000 PUSH0 MSTORE PUSH1 0x22 PUSH1 0x4 MSTORE PUSH1 0x24 PUSH0 REVERT JUMPDEST PUSH0 PUSH1 0x2 DUP3 DIV SWAP1 POP PUSH1 0x1 DUP3 AND DUP1 PUSH2 0xBF9 JUMPI PUSH1 0x7F DUP3 AND SWAP2 POP JUMPDEST PUSH1 0x20 DUP3 LT DUP2 SUB PUSH2 0xC0C JUMPI PUSH2 0xC0B PUSH2 0xBB5 JUMP JUMPDEST JUMPDEST POP SWAP2 SWAP1 POP JUMP JUMPDEST PUSH0 DUP2 SWAP1 POP DUP2 PUSH0 MSTORE PUSH1 0x20 PUSH0 KECCAK256 SWAP1 POP SWAP2 SWAP1 POP JUMP JUMPDEST PUSH0 PUSH1 0x20 PUSH1 0x1F DUP4 ADD DIV SWAP1 POP SWAP2 SWAP1 POP JUMP JUMPDEST PUSH0 DUP3 DUP3 SHL SWAP1 POP SWAP3 SWAP2 POP POP JUMP JUMPDEST PUSH0 PUSH1 0x8 DUP4 MUL PUSH2 0xC6E PUSH32 0xFFFFFFFFFFFFFFFFFFFFFFFFFFFFFFFFFFFFFFFFFFFFFFFFFFFFFFFFFFFFFFFF DUP3 PUSH2 0xC33 JUMP JUMPDEST PUSH2 0xC78 DUP7 DUP4 PUSH2 0xC33 JUMP JUMPDEST SWAP6 POP DUP1 NOT DUP5 AND SWAP4 POP DUP1 DUP7 AND DUP5 OR SWAP3 POP POP POP SWAP4 SWAP3 POP POP POP JUMP JUMPDEST PUSH0 PUSH2 0xCAA PUSH2 0xCA5 PUSH2 0xCA0 DUP5 PUSH2 0xB84 JUMP JUMPDEST PUSH2 0x6EB JUMP JUMPDEST PUSH2 0xB84 JUMP JUMPDEST SWAP1 POP SWAP2 SWAP1 POP JUMP JUMPDEST PUSH0 DUP2 SWAP1 POP SWAP2 SWAP1 POP JUMP JUMPDEST PUSH2 0xCC3 DUP4 PUSH2 0xC90 JUMP JUMPDEST PUSH2 0xCD7 PUSH2 0xCCF DUP3 PUSH2 0xCB1 JUMP JUMPDEST DUP5 DUP5 SLOAD PUSH2 0xC3F JUMP JUMPDEST DUP3 SSTORE POP POP POP POP JUMP JUMPDEST PUSH0 SWAP1 JUMP JUMPDEST PUSH2 0xCEB PUSH2 0xCDF JUMP JUMPDEST PUSH2 0xCF6 DUP2 DUP5 DUP5 PUSH2 0xCBA JUMP JUMPDEST POP POP POP JUMP JUMPDEST JUMPDEST DUP2 DUP2 LT ISZERO PUSH2 0xD19 JUMPI PUSH2 0xD0E PUSH0 DUP3 PUSH2 0xCE3 JUMP JUMPDEST PUSH1 0x1 DUP2 ADD SWAP1 POP PUSH2 0xCFC JUMP JUMPDEST POP POP JUMP JUMPDEST PUSH1 0x1F DUP3 GT ISZERO PUSH2 0xD5E JUMPI PUSH2 0xD2F DUP2 PUSH2 0xC12 JUMP JUMPDEST PUSH2 0xD38 DUP5 PUSH2 0xC24 JUMP JUMPDEST DUP2 ADD PUSH1 0x20 DUP6 LT ISZERO PUSH2 0xD47 JUMPI DUP2 SWAP1 POP JUMPDEST PUSH2 0xD5B PUSH2 0xD53 DUP6 PUSH2 0xC24 JUMP JUMPDEST DUP4 ADD DUP3 PUSH2 0xCFB JUMP JUMPDEST POP POP JUMPDEST POP POP POP JUMP JUMPDEST PUSH0 DUP3 DUP3 SHR SWAP1 POP SWAP3 SWAP2 POP POP JUMP JUMPDEST PUSH0 PUSH2 0xD7E PUSH0 NOT DUP5 PUSH1 0x8 MUL PUSH2 0xD63 JUMP JUMPDEST NOT DUP1 DUP4 AND SWAP2 POP POP SWAP3 SWAP2 POP POP JUMP JUMPDEST PUSH0 PUSH2 0xD96 DUP4 DUP4 PUSH2 0xD6F JUMP JUMPDEST SWAP2 POP DUP3 PUSH1 0x2 MUL DUP3 OR SWAP1 POP SWAP3 SWAP2 POP POP JUMP JUMPDEST PUSH2 0xDAF DUP3 PUSH2 0x75F JUMP JUMPDEST PUSH8 0xFFFFFFFFFFFFFFFF DUP2 GT ISZERO PUSH2 0xDC8 JUMPI PUSH2 0xDC7 PUSH2 0x808 JUMP JUMPDEST JUMPDEST PUSH2 0xDD2 DUP3 SLOAD PUSH2 0xBE2 JUMP JUMPDEST PUSH2 0xDDD DUP3 DUP3 DUP6 PUSH2 0xD1D JUMP JUMPDEST PUSH0 PUSH1 0x20 SWAP1 POP PUSH1 0x1F DUP4 GT PUSH1 0x1 DUP2 EQ PUSH2 0xE0E JUMPI PUSH0 DUP5 ISZERO PUSH2 0xDFC JUMPI DUP3 DUP8 ADD MLOAD SWAP1 POP JUMPDEST PUSH2 0xE06 DUP6 DUP3 PUSH2 0xD8B JUMP JUMPDEST DUP7 SSTORE POP PUSH2 0xE6D JUMP JUMPDEST PUSH1 0x1F NOT DUP5 AND PUSH2 0xE1C DUP7 PUSH2 0xC12 JUMP JUMPDEST PUSH0 JUMPDEST DUP3 DUP2 LT ISZERO PUSH2 0xE43 JUMPI DUP5 DUP10 ADD MLOAD DUP3 SSTORE PUSH1 0x1 DUP3 ADD SWAP2 POP PUSH1 0x20 DUP6 ADD SWAP5 POP PUSH1 0x20 DUP2 ADD SWAP1 POP PUSH2 0xE1E JUMP JUMPDEST DUP7 DUP4 LT ISZERO PUSH2 0xE60 JUMPI DUP5 DUP10 ADD MLOAD PUSH2 0xE5C PUSH1 0x1F DUP10 AND DUP3 PUSH2 0xD6F JUMP JUMPDEST DUP4 SSTORE POP JUMPDEST PUSH1 0x1 PUSH1 0x2 DUP9 MUL ADD DUP9 SSTORE POP POP POP JUMPDEST POP POP POP POP POP POP JUMP JUMPDEST PUSH0 DUP2 SWAP1 POP SWAP3 SWAP2 POP POP JUMP JUMPDEST PUSH0 PUSH2 0xE8A DUP4 DUP6 PUSH2 0xE75 JUMP JUMPDEST SWAP4 POP PUSH2 0xE97 DUP4 DUP6 DUP5 PUSH2 0x8B0 JUMP JUMPDEST DUP3 DUP5 ADD SWAP1 POP SWAP4 SWAP3 POP POP POP JUMP JUMPDEST PUSH0 PUSH2 0xEAF DUP3 DUP5 DUP7 PUSH2 0xE7F JUMP JUMPDEST SWAP2 POP DUP2 SWAP1 POP SWAP4 SWAP3 POP POP POP JUMP JUMPDEST PUSH2 0xEC4 DUP2 PUSH2 0x9A2 JUMP JUMPDEST DUP3 MSTORE POP POP JUMP JUMPDEST PUSH0 PUSH2 0xED5 DUP4 DUP6 PUSH2 0x769 JUMP JUMPDEST SWAP4 POP PUSH2 0xEE2 DUP4 DUP6 DUP5 PUSH2 0x8B0 JUMP JUMPDEST PUSH2 0xEEB DUP4 PUSH2 0x787 JUMP JUMPDEST DUP5 ADD SWAP1 POP SWAP4 SWAP3 POP POP POP JUMP JUMPDEST PUSH0 PUSH1 0x80 DUP3 ADD SWAP1 POP PUSH2 0xF09 PUSH0 DUP4 ADD DUP10 PUSH2 0xEBB JUMP JUMPDEST DUP2 DUP2 SUB PUSH1 0x20 DUP4 ADD MSTORE PUSH2 0xF1C DUP2 DUP8 DUP10 PUSH2 0xECA JUMP JUMPDEST SWAP1 POP DUP2 DUP2 SUB PUSH1 0x40 DUP4 ADD MSTORE PUSH2 0xF31 DUP2 DUP6 DUP8 PUSH2 0xECA JUMP JUMPDEST SWAP1 POP PUSH2 0xF40 PUSH1 0x60 DUP4 ADD DUP5 PUSH2 0xEBB JUMP JUMPDEST SWAP8 SWAP7 POP POP POP POP POP POP POP JUMP JUMPDEST PUSH0 DUP2 ISZERO ISZERO SWAP1 POP SWAP2 SWAP1 POP JUMP JUMPDEST PUSH2 0xF5F DUP2 PUSH2 0xF4B JUMP JUMPDEST DUP2 EQ PUSH2 0xF69 JUMPI PUSH0 DUP1 REVERT JUMPDEST POP JUMP JUMPDEST PUSH0 DUP2 MLOAD SWAP1 POP PUSH2 0xF7A DUP2 PUSH2 0xF56 JUMP JUMPDEST SWAP3 SWAP2 POP POP JUMP JUMPDEST PUSH0 PUSH1 0x20 DUP3 DUP5 SUB SLT ISZERO PUSH2 0xF95 JUMPI PUSH2 0xF94 PUSH2 0x7F8 JUMP JUMPDEST JUMPDEST PUSH0 PUSH2 0xFA2 DUP5 DUP3 DUP6 ADD PUSH2 0xF6C JUMP JUMPDEST SWAP2 POP POP SWAP3 SWAP2 POP POP JUMP JUMPDEST PUSH0 PUSH2 0xFB5 DUP3 PUSH2 0x6CC JUMP JUMPDEST SWAP1 POP SWAP2 SWAP1 POP JUMP JUMPDEST PUSH2 0xFC5 DUP2 PUSH2 0xFAB JUMP JUMPDEST DUP2 EQ PUSH2 0xFCF JUMPI PUSH0 DUP1 REVERT JUMPDEST POP JUMP JUMPDEST PUSH0 DUP2 CALLDATALOAD SWAP1 POP PUSH2 0xFE0 DUP2 PUSH2 0xFBC JUMP JUMPDEST SWAP3 SWAP2 POP POP JUMP JUMPDEST PUSH2 0xFEF DUP2 PUSH2 0xB84 JUMP JUMPDEST DUP2 EQ PUSH2 0xFF9 JUMPI PUSH0 DUP1 REVERT JUMPDEST POP JUMP JUMPDEST PUSH0 DUP2 CALLDATALOAD SWAP1 POP PUSH2 0x100A DUP2 PUSH2 0xFE6 JUMP JUMPDEST SWAP3 SWAP2 POP POP JUMP JUMPDEST PUSH0 DUP1 PUSH1 0x40 DUP4 DUP6 SUB SLT ISZERO PUSH2 0x1026 JUMPI PUSH2 0x1025 PUSH2 0x7F8 JUMP JUMPDEST JUMPDEST PUSH0 PUSH2 0x1033 DUP6 DUP3 DUP7 ADD PUSH2 0xFD2 JUMP JUMPDEST SWAP3 POP POP PUSH1 0x20 PUSH2 0x1044 DUP6 DUP3 DUP7 ADD PUSH2 0xFFC JUMP JUMPDEST SWAP2 POP POP SWAP3 POP SWAP3 SWAP1 POP JUMP JUMPDEST PUSH0 DUP3 SWAP1 POP SWAP3 SWAP2 POP POP JUMP JUMPDEST PUSH2 0x1062 DUP4 DUP4 PUSH2 0x104E JUMP JUMPDEST PUSH8 0xFFFFFFFFFFFFFFFF DUP2 GT ISZERO PUSH2 0x107B JUMPI PUSH2 0x107A PUSH2 0x808 JUMP JUMPDEST JUMPDEST PUSH2 0x1085 DUP3 SLOAD PUSH2 0xBE2 JUMP JUMPDEST PUSH2 0x1090 DUP3 DUP3 DUP6 PUSH2 0xD1D JUMP JUMPDEST PUSH0 PUSH1 0x1F DUP4 GT PUSH1 0x1 DUP2 EQ PUSH2 0x10BD JUMPI PUSH0 DUP5 ISZERO PUSH2 0x10AB JUMPI DUP3 DUP8 ADD CALLDATALOAD SWAP1 POP JUMPDEST PUSH2 0x10B5 DUP6 DUP3 PUSH2 0xD8B JUMP JUMPDEST DUP7 SSTORE POP PUSH2 0x111C JUMP JUMPDEST PUSH1 0x1F NOT DUP5 AND PUSH2 0x10CB DUP7 PUSH2 0xC12 JUMP JUMPDEST PUSH0 JUMPDEST DUP3 DUP2 LT ISZERO PUSH2 0x10F2 JUMPI DUP5 DUP10 ADD CALLDATALOAD DUP3 SSTORE PUSH1 0x1 DUP3 ADD SWAP2 POP PUSH1 0x20 DUP6 ADD SWAP5 POP PUSH1 0x20 DUP2 ADD SWAP1 POP PUSH2 0x10CD JUMP JUMPDEST DUP7 DUP4 LT ISZERO PUSH2 0x110F JUMPI DUP5 DUP10 ADD CALLDATALOAD PUSH2 0x110B PUSH1 0x1F DUP10 AND DUP3 PUSH2 0xD6F JUMP JUMPDEST DUP4 SSTORE POP JUMPDEST PUSH1 0x1 PUSH1 0x2 DUP9 MUL ADD DUP9 SSTORE POP POP POP JUMPDEST POP POP POP POP POP POP POP JUMP JUMPDEST PUSH0 DUP2 SLOAD PUSH2 0x1131 DUP2 PUSH2 0xBE2 JUMP JUMPDEST PUSH2 0x113B DUP2 DUP7 PUSH2 0x769 JUMP JUMPDEST SWAP5 POP PUSH1 0x1 DUP3 AND PUSH0 DUP2 EQ PUSH2 0x1155 JUMPI PUSH1 0x1 DUP2 EQ PUSH2 0x116B JUMPI PUSH2 0x119D JUMP JUMPDEST PUSH1 0xFF NOT DUP4 AND DUP7 MSTORE DUP2 ISZERO ISZERO PUSH1 0x20 MUL DUP7 ADD SWAP4 POP PUSH2 0x119D JUMP JUMPDEST PUSH2 0x1174 DUP6 PUSH2 0xC12 JUMP JUMPDEST PUSH0 JUMPDEST DUP4 DUP2 LT ISZERO PUSH2 0x1195 JUMPI DUP2 SLOAD DUP2 DUP10 ADD MSTORE PUSH1 0x1 DUP3 ADD SWAP2 POP PUSH1 0x20 DUP2 ADD SWAP1 POP PUSH2 0x1176 JUMP JUMPDEST DUP1 DUP9 ADD SWAP6 POP POP POP JUMPDEST POP POP POP SWAP3 SWAP2 POP POP JUMP JUMPDEST PUSH0 PUSH1 0x80 DUP3 ADD SWAP1 POP PUSH2 0x11B9 PUSH0 DUP4 ADD DUP8 PUSH2 0xEBB JUMP JUMPDEST DUP2 DUP2 SUB PUSH1 0x20 DUP4 ADD MSTORE PUSH2 0x11CB DUP2 DUP7 PUSH2 0x1125 JUMP JUMPDEST SWAP1 POP PUSH2 0x11DA PUSH1 0x40 DUP4 ADD DUP6 PUSH2 0xB5C JUMP JUMPDEST PUSH2 0x11E7 PUSH1 0x60 DUP4 ADD DUP5 PUSH2 0xB8D JUMP JUMPDEST SWAP6 SWAP5 POP POP POP POP POP JUMP JUMPDEST PUSH0 PUSH1 0x40 DUP3 ADD SWAP1 POP PUSH2 0x1203 PUSH0 DUP4 ADD DUP6 PUSH2 0xB5C JUMP JUMPDEST PUSH2 0x1210 PUSH1 0x20 DUP4 ADD DUP5 PUSH2 0xB8D JUMP JUMPDEST SWAP4 SWAP3 POP POP POP JUMP INVALID LOG2 PUSH5 0x6970667358 0x22 SLT KECCAK256 CODESIZE 0xD8 ORIGIN 0xEC LOG1 INVALID RETURNDATASIZE 0xC2 DUP6 0xBE 0xB9 BYTE JUMP ADDMOD 0xFC 0x23 MSTORE DUP15 CALL SLOAD SWAP8 0xE6 0x2B CALLDATASIZE 0xDB 0x22 PUSH30 0x57D6C86A2764736F6C634300081A00330000000000000000000000000000 "
				},
				"gasEstimates": {
					"creation": {
						"codeDepositCost": "937000",
						"executionCost": "infinite",
						"totalCost": "infinite"
					},
					"external": {
						"amount()": "2469",
						"authorizedSourceAddress()": "infinite",
						"authorizedSourceChain()": "infinite",
						"clientFilecoinAddress()": "2508",
						"execute(bytes32,string,string,bytes)": "infinite",
						"gateway()": "infinite",
						"setAuthorizedSourceChainAndAddress(string,string)": "infinite",
						"sourceAddress()": "infinite",
						"sourceChain()": "infinite"
					},
					"internal": {
						"_execute(bytes32,string calldata,string calldata,bytes calldata)": "infinite"
					}
				},
				"methodIdentifiers": {
					"amount()": "aa8c217c",
					"authorizedSourceAddress()": "f3fdf573",
					"authorizedSourceChain()": "9cb6239b",
					"clientFilecoinAddress()": "5411a061",
					"execute(bytes32,string,string,bytes)": "49160658",
					"gateway()": "116191b6",
					"setAuthorizedSourceChainAndAddress(string,string)": "27c79ae7",
					"sourceAddress()": "b0fa8444",
					"sourceChain()": "1c6ffa46"
				}
			},
			"storageLayout": {
				"storage": [
					{
						"astId": 285,
						"contract": "contracts/18_DatacapGatewayAxelarReceiverMock.sol:DatacapGatewayAxelarReceiverMock",
						"label": "mockAllocator",
						"offset": 0,
						"slot": "0",
						"type": "t_contract(IMockAllocator)451"
					},
					{
						"astId": 287,
						"contract": "contracts/18_DatacapGatewayAxelarReceiverMock.sol:DatacapGatewayAxelarReceiverMock",
						"label": "authorizedSourceChain",
						"offset": 0,
						"slot": "1",
						"type": "t_string_storage"
					},
					{
						"astId": 289,
						"contract": "contracts/18_DatacapGatewayAxelarReceiverMock.sol:DatacapGatewayAxelarReceiverMock",
						"label": "authorizedSourceAddress",
						"offset": 0,
						"slot": "2",
						"type": "t_string_storage"
					},
					{
						"astId": 291,
						"contract": "contracts/18_DatacapGatewayAxelarReceiverMock.sol:DatacapGatewayAxelarReceiverMock",
						"label": "clientFilecoinAddress",
						"offset": 0,
						"slot": "3",
						"type": "t_address"
					},
					{
						"astId": 293,
						"contract": "contracts/18_DatacapGatewayAxelarReceiverMock.sol:DatacapGatewayAxelarReceiverMock",
						"label": "amount",
						"offset": 0,
						"slot": "4",
						"type": "t_uint256"
					},
					{
						"astId": 295,
						"contract": "contracts/18_DatacapGatewayAxelarReceiverMock.sol:DatacapGatewayAxelarReceiverMock",
						"label": "sourceChain",
						"offset": 0,
						"slot": "5",
						"type": "t_string_storage"
					},
					{
						"astId": 297,
						"contract": "contracts/18_DatacapGatewayAxelarReceiverMock.sol:DatacapGatewayAxelarReceiverMock",
						"label": "sourceAddress",
						"offset": 0,
						"slot": "6",
						"type": "t_string_storage"
					}
				],
				"types": {
					"t_address": {
						"encoding": "inplace",
						"label": "address",
						"numberOfBytes": "20"
					},
					"t_contract(IMockAllocator)451": {
						"encoding": "inplace",
						"label": "contract IMockAllocator",
						"numberOfBytes": "20"
					},
					"t_string_storage": {
						"encoding": "bytes",
						"label": "string",
						"numberOfBytes": "32"
					},
					"t_uint256": {
						"encoding": "inplace",
						"label": "uint256",
						"numberOfBytes": "32"
					}
				}
			},
			"userdoc": {
				"kind": "user",
				"methods": {
					"execute(bytes32,string,string,bytes)": {
						"notice": "Executes the cross-chain command after validating it with the Axelar Gateway."
					},
					"gateway()": {
						"notice": "Returns the address of the AxelarGateway contract."
					}
				},
				"version": 1
			}
		}
	}
}