{
	"contracts/16_DatacapGatewayAxelar.sol": {
		"DatacapGatewayAxelar": {
			"abi": [
				{
					"inputs": [
						{
							"internalType": "address",
							"name": "initialOwner",
							"type": "address"
						},
						{
							"internalType": "address",
							"name": "axelarGateway",
							"type": "address"
						},
						{
							"internalType": "address",
							"name": "axelarGasService",
							"type": "address"
						},
						{
							"internalType": "string",
							"name": "destinationChain",
							"type": "string"
						},
						{
							"internalType": "string",
							"name": "destinationAddress",
							"type": "string"
						}
					],
					"stateMutability": "nonpayable",
					"type": "constructor"
				},
				{
					"inputs": [
						{
							"internalType": "address",
							"name": "owner",
							"type": "address"
						}
					],
					"name": "OwnableInvalidOwner",
					"type": "error"
				},
				{
					"inputs": [
						{
							"internalType": "address",
							"name": "account",
							"type": "address"
						}
					],
					"name": "OwnableUnauthorizedAccount",
					"type": "error"
				},
				{
					"inputs": [],
					"name": "StorageProviderEscrowFactoryUnset",
					"type": "error"
				},
				{
					"inputs": [
						{
							"internalType": "address",
							"name": "account",
							"type": "address"
						}
					],
					"name": "UnauthorizedAccount",
					"type": "error"
				},
				{
					"anonymous": false,
					"inputs": [
						{
							"indexed": true,
							"internalType": "address",
							"name": "previousOwner",
							"type": "address"
						},
						{
							"indexed": true,
							"internalType": "address",
							"name": "newOwner",
							"type": "address"
						}
					],
					"name": "OwnershipTransferred",
					"type": "event"
				},
				{
					"inputs": [],
					"name": "axelarGatewayAddr",
					"outputs": [
						{
							"internalType": "address",
							"name": "",
							"type": "address"
						}
					],
					"stateMutability": "view",
					"type": "function"
				},
				{
					"inputs": [],
					"name": "destAddr",
					"outputs": [
						{
							"internalType": "string",
							"name": "",
							"type": "string"
						}
					],
					"stateMutability": "view",
					"type": "function"
				},
				{
					"inputs": [],
					"name": "destChain",
					"outputs": [
						{
							"internalType": "string",
							"name": "",
							"type": "string"
						}
					],
					"stateMutability": "view",
					"type": "function"
				},
				{
					"inputs": [],
					"name": "gasService",
					"outputs": [
						{
							"internalType": "contract IAxelarGasService",
							"name": "",
							"type": "address"
						}
					],
					"stateMutability": "view",
					"type": "function"
				},
				{
					"inputs": [
						{
							"internalType": "bytes",
							"name": "clientFilecoinAddress",
							"type": "bytes"
						},
						{
							"internalType": "uint256",
							"name": "amount",
							"type": "uint256"
						}
					],
					"name": "grantDatacap",
					"outputs": [],
					"stateMutability": "payable",
					"type": "function"
				},
				{
					"inputs": [
						{
							"internalType": "address",
							"name": "clientFilecoinAddress",
							"type": "address"
						},
						{
							"internalType": "uint256",
							"name": "amount",
							"type": "uint256"
						}
					],
					"name": "grantDatacapMock",
					"outputs": [],
					"stateMutability": "payable",
					"type": "function"
				},
				{
					"inputs": [],
					"name": "hasAccess",
					"outputs": [
						{
							"internalType": "bool",
							"name": "",
							"type": "bool"
						}
					],
					"stateMutability": "view",
					"type": "function"
				},
				{
					"inputs": [],
					"name": "owner",
					"outputs": [
						{
							"internalType": "address",
							"name": "",
							"type": "address"
						}
					],
					"stateMutability": "view",
					"type": "function"
				},
				{
					"inputs": [],
					"name": "renounceOwnership",
					"outputs": [],
					"stateMutability": "nonpayable",
					"type": "function"
				},
				{
					"inputs": [
						{
							"internalType": "string",
							"name": "destinationChain",
							"type": "string"
						},
						{
							"internalType": "string",
							"name": "destinationAddress",
							"type": "string"
						}
					],
					"name": "setDestChainAndAddress",
					"outputs": [],
					"stateMutability": "nonpayable",
					"type": "function"
				},
				{
					"inputs": [
						{
							"internalType": "address",
							"name": "storageProviderEscrowFactoryAddress",
							"type": "address"
						}
					],
					"name": "setStorageProviderEscrowFactory",
					"outputs": [],
					"stateMutability": "nonpayable",
					"type": "function"
				},
				{
					"inputs": [],
					"name": "storageProviderEscrowFactoryAddr",
					"outputs": [
						{
							"internalType": "address",
							"name": "",
							"type": "address"
						}
					],
					"stateMutability": "view",
					"type": "function"
				},
				{
					"inputs": [
						{
							"internalType": "address",
							"name": "newOwner",
							"type": "address"
						}
					],
					"name": "transferOwnership",
					"outputs": [],
					"stateMutability": "nonpayable",
					"type": "function"
				},
				{
					"stateMutability": "payable",
					"type": "receive"
				}
			],
			"devdoc": {
				"errors": {
					"OwnableInvalidOwner(address)": [
						{
							"details": "The owner is not a valid owner account. (eg. `address(0)`)"
						}
					],
					"OwnableUnauthorizedAccount(address)": [
						{
							"details": "The caller account is not authorized to perform an operation."
						}
					]
				},
				"kind": "dev",
				"methods": {
					"owner()": {
						"details": "Returns the address of the current owner."
					},
					"renounceOwnership()": {
						"details": "Leaves the contract without owner. It will not be possible to call `onlyOwner` functions. Can only be called by the current owner. NOTE: Renouncing ownership will leave the contract without an owner, thereby disabling any functionality that is only available to the owner."
					},
					"transferOwnership(address)": {
						"details": "Transfers ownership of the contract to a new account (`newOwner`). Can only be called by the current owner."
					}
				},
				"version": 1
			},
			"evm": {
				"assembly": "    /* \"contracts/16_DatacapGatewayAxelar.sol\":635:3298  contract DatacapGatewayAxelar is Ownable, IDatacapGateway {... */\n  mstore(0x40, 0xa0)\n    /* \"contracts/16_DatacapGatewayAxelar.sol\":903:1305  constructor(... */\n  callvalue\n  dup1\n  iszero\n  tag_1\n  jumpi\n  0x00\n  dup1\n  revert\ntag_1:\n  pop\n  mload(0x40)\n  sub(codesize, bytecodeSize)\n  dup1\n  bytecodeSize\n  dup4\n  codecopy\n  dup2\n  dup2\n  add\n  0x40\n  mstore\n  dup2\n  add\n  swap1\n  tag_2\n  swap2\n  swap1\n  tag_3\n  jump\t// in\ntag_2:\n    /* \"contracts/16_DatacapGatewayAxelar.sol\":1106:1118  initialOwner */\n  dup5\n    /* \"@openzeppelin/contracts/access/Ownable.sol\":1297:1298  0 */\n  0x00\n    /* \"@openzeppelin/contracts/access/Ownable.sol\":1273:1299  initialOwner == address(0) */\n  0xffffffffffffffffffffffffffffffffffffffff\n  and\n    /* \"@openzeppelin/contracts/access/Ownable.sol\":1273:1285  initialOwner */\n  dup2\n    /* \"@openzeppelin/contracts/access/Ownable.sol\":1273:1299  initialOwner == address(0) */\n  0xffffffffffffffffffffffffffffffffffffffff\n  and\n  sub\n    /* \"@openzeppelin/contracts/access/Ownable.sol\":1269:1364  if (initialOwner == address(0)) {... */\n  tag_7\n  jumpi\n    /* \"@openzeppelin/contracts/access/Ownable.sol\":1350:1351  0 */\n  0x00\n    /* \"@openzeppelin/contracts/access/Ownable.sol\":1322:1353  OwnableInvalidOwner(address(0)) */\n  mload(0x40)\n  0x1e4fbdf700000000000000000000000000000000000000000000000000000000\n  dup2\n  mstore\n  0x04\n  add\n  tag_8\n  swap2\n  swap1\n  tag_9\n  jump\t// in\ntag_8:\n  mload(0x40)\n  dup1\n  swap2\n  sub\n  swap1\n  revert\n    /* \"@openzeppelin/contracts/access/Ownable.sol\":1269:1364  if (initialOwner == address(0)) {... */\ntag_7:\n    /* \"@openzeppelin/contracts/access/Ownable.sol\":1373:1405  _transferOwnership(initialOwner) */\n  tag_10\n    /* \"@openzeppelin/contracts/access/Ownable.sol\":1392:1404  initialOwner */\n  dup2\n    /* \"@openzeppelin/contracts/access/Ownable.sol\":1373:1391  _transferOwnership */\n  shl(0x20, tag_11)\n    /* \"@openzeppelin/contracts/access/Ownable.sol\":1373:1405  _transferOwnership(initialOwner) */\n  0x20\n  shr\n  jump\t// in\ntag_10:\n    /* \"@openzeppelin/contracts/access/Ownable.sol\":1225:1412  constructor(address initialOwner) {... */\n  pop\n    /* \"contracts/16_DatacapGatewayAxelar.sol\":1150:1163  axelarGateway */\n  dup4\n    /* \"contracts/16_DatacapGatewayAxelar.sol\":1130:1147  axelarGatewayAddr */\n  0x02\n  0x00\n    /* \"contracts/16_DatacapGatewayAxelar.sol\":1130:1163  axelarGatewayAddr = axelarGateway */\n  0x0100\n  exp\n  dup2\n  sload\n  dup2\n  0xffffffffffffffffffffffffffffffffffffffff\n  mul\n  not\n  and\n  swap1\n  dup4\n  0xffffffffffffffffffffffffffffffffffffffff\n  and\n  mul\n  or\n  swap1\n  sstore\n  pop\n    /* \"contracts/16_DatacapGatewayAxelar.sol\":1204:1220  axelarGasService */\n  dup3\n    /* \"contracts/16_DatacapGatewayAxelar.sol\":1173:1221  gasService = IAxelarGasService(axelarGasService) */\n  0xffffffffffffffffffffffffffffffffffffffff\n  and\n  0x80\n  dup2\n  0xffffffffffffffffffffffffffffffffffffffff\n  and\n  dup2\n  mstore\n  pop\n  pop\n    /* \"contracts/16_DatacapGatewayAxelar.sol\":1243:1259  destinationChain */\n  dup2\n    /* \"contracts/16_DatacapGatewayAxelar.sol\":1231:1240  destChain */\n  0x03\n    /* \"contracts/16_DatacapGatewayAxelar.sol\":1231:1259  destChain = destinationChain */\n  swap1\n  dup2\n  tag_13\n  swap2\n  swap1\n  tag_14\n  jump\t// in\ntag_13:\n  pop\n    /* \"contracts/16_DatacapGatewayAxelar.sol\":1280:1298  destinationAddress */\n  dup1\n    /* \"contracts/16_DatacapGatewayAxelar.sol\":1269:1277  destAddr */\n  0x04\n    /* \"contracts/16_DatacapGatewayAxelar.sol\":1269:1298  destAddr = destinationAddress */\n  swap1\n  dup2\n  tag_15\n  swap2\n  swap1\n  tag_14\n  jump\t// in\ntag_15:\n  pop\n    /* \"contracts/16_DatacapGatewayAxelar.sol\":903:1305  constructor(... */\n  pop\n  pop\n  pop\n  pop\n  pop\n    /* \"contracts/16_DatacapGatewayAxelar.sol\":635:3298  contract DatacapGatewayAxelar is Ownable, IDatacapGateway {... */\n  jump(tag_16)\n    /* \"@openzeppelin/contracts/access/Ownable.sol\":2912:3099  function _transferOwnership(address newOwner) internal virtual {... */\ntag_11:\n    /* \"@openzeppelin/contracts/access/Ownable.sol\":2985:3001  address oldOwner */\n  0x00\n    /* \"@openzeppelin/contracts/access/Ownable.sol\":3004:3010  _owner */\n  dup1\n  0x00\n  swap1\n  sload\n  swap1\n  0x0100\n  exp\n  swap1\n  div\n  0xffffffffffffffffffffffffffffffffffffffff\n  and\n    /* \"@openzeppelin/contracts/access/Ownable.sol\":2985:3010  address oldOwner = _owner */\n  swap1\n  pop\n    /* \"@openzeppelin/contracts/access/Ownable.sol\":3029:3037  newOwner */\n  dup2\n    /* \"@openzeppelin/contracts/access/Ownable.sol\":3020:3026  _owner */\n  0x00\n  dup1\n    /* \"@openzeppelin/contracts/access/Ownable.sol\":3020:3037  _owner = newOwner */\n  0x0100\n  exp\n  dup2\n  sload\n  dup2\n  0xffffffffffffffffffffffffffffffffffffffff\n  mul\n  not\n  and\n  swap1\n  dup4\n  0xffffffffffffffffffffffffffffffffffffffff\n  and\n  mul\n  or\n  swap1\n  sstore\n  pop\n    /* \"@openzeppelin/contracts/access/Ownable.sol\":3083:3091  newOwner */\n  dup2\n    /* \"@openzeppelin/contracts/access/Ownable.sol\":3052:3092  OwnershipTransferred(oldOwner, newOwner) */\n  0xffffffffffffffffffffffffffffffffffffffff\n  and\n    /* \"@openzeppelin/contracts/access/Ownable.sol\":3073:3081  oldOwner */\n  dup2\n    /* \"@openzeppelin/contracts/access/Ownable.sol\":3052:3092  OwnershipTransferred(oldOwner, newOwner) */\n  0xffffffffffffffffffffffffffffffffffffffff\n  and\n  0x8be0079c531659141344cd1fd0a4f28419497f9722a3daafe3b4186f6b6457e0\n  mload(0x40)\n  mload(0x40)\n  dup1\n  swap2\n  sub\n  swap1\n  log3\n    /* \"@openzeppelin/contracts/access/Ownable.sol\":2975:3099  {... */\n  pop\n    /* \"@openzeppelin/contracts/access/Ownable.sol\":2912:3099  function _transferOwnership(address newOwner) internal virtual {... */\n  pop\n  jump\t// out\n    /* \"#utility.yul\":7:82   */\ntag_18:\n    /* \"#utility.yul\":40:46   */\n  0x00\n    /* \"#utility.yul\":73:75   */\n  0x40\n    /* \"#utility.yul\":67:76   */\n  mload\n    /* \"#utility.yul\":57:76   */\n  swap1\n  pop\n    /* \"#utility.yul\":7:82   */\n  swap1\n  jump\t// out\n    /* \"#utility.yul\":88:205   */\ntag_19:\n    /* \"#utility.yul\":197:198   */\n  0x00\n    /* \"#utility.yul\":194:195   */\n  dup1\n    /* \"#utility.yul\":187:199   */\n  revert\n    /* \"#utility.yul\":211:328   */\ntag_20:\n    /* \"#utility.yul\":320:321   */\n  0x00\n    /* \"#utility.yul\":317:318   */\n  dup1\n    /* \"#utility.yul\":310:322   */\n  revert\n    /* \"#utility.yul\":334:460   */\ntag_21:\n    /* \"#utility.yul\":371:378   */\n  0x00\n    /* \"#utility.yul\":411:453   */\n  0xffffffffffffffffffffffffffffffffffffffff\n    /* \"#utility.yul\":404:409   */\n  dup3\n    /* \"#utility.yul\":400:454   */\n  and\n    /* \"#utility.yul\":389:454   */\n  swap1\n  pop\n    /* \"#utility.yul\":334:460   */\n  swap2\n  swap1\n  pop\n  jump\t// out\n    /* \"#utility.yul\":466:562   */\ntag_22:\n    /* \"#utility.yul\":503:510   */\n  0x00\n    /* \"#utility.yul\":532:556   */\n  tag_61\n    /* \"#utility.yul\":550:555   */\n  dup3\n    /* \"#utility.yul\":532:556   */\n  tag_21\n  jump\t// in\ntag_61:\n    /* \"#utility.yul\":521:556   */\n  swap1\n  pop\n    /* \"#utility.yul\":466:562   */\n  swap2\n  swap1\n  pop\n  jump\t// out\n    /* \"#utility.yul\":568:690   */\ntag_23:\n    /* \"#utility.yul\":641:665   */\n  tag_63\n    /* \"#utility.yul\":659:664   */\n  dup2\n    /* \"#utility.yul\":641:665   */\n  tag_22\n  jump\t// in\ntag_63:\n    /* \"#utility.yul\":634:639   */\n  dup2\n    /* \"#utility.yul\":631:666   */\n  eq\n    /* \"#utility.yul\":621:684   */\n  tag_64\n  jumpi\n    /* \"#utility.yul\":680:681   */\n  0x00\n    /* \"#utility.yul\":677:678   */\n  dup1\n    /* \"#utility.yul\":670:682   */\n  revert\n    /* \"#utility.yul\":621:684   */\ntag_64:\n    /* \"#utility.yul\":568:690   */\n  pop\n  jump\t// out\n    /* \"#utility.yul\":696:839   */\ntag_24:\n    /* \"#utility.yul\":753:758   */\n  0x00\n    /* \"#utility.yul\":784:790   */\n  dup2\n    /* \"#utility.yul\":778:791   */\n  mload\n    /* \"#utility.yul\":769:791   */\n  swap1\n  pop\n    /* \"#utility.yul\":800:833   */\n  tag_66\n    /* \"#utility.yul\":827:832   */\n  dup2\n    /* \"#utility.yul\":800:833   */\n  tag_23\n  jump\t// in\ntag_66:\n    /* \"#utility.yul\":696:839   */\n  swap3\n  swap2\n  pop\n  pop\n  jump\t// out\n    /* \"#utility.yul\":845:962   */\ntag_25:\n    /* \"#utility.yul\":954:955   */\n  0x00\n    /* \"#utility.yul\":951:952   */\n  dup1\n    /* \"#utility.yul\":944:956   */\n  revert\n    /* \"#utility.yul\":968:1085   */\ntag_26:\n    /* \"#utility.yul\":1077:1078   */\n  0x00\n    /* \"#utility.yul\":1074:1075   */\n  dup1\n    /* \"#utility.yul\":1067:1079   */\n  revert\n    /* \"#utility.yul\":1091:1193   */\ntag_27:\n    /* \"#utility.yul\":1132:1138   */\n  0x00\n    /* \"#utility.yul\":1183:1185   */\n  0x1f\n    /* \"#utility.yul\":1179:1186   */\n  not\n    /* \"#utility.yul\":1174:1176   */\n  0x1f\n    /* \"#utility.yul\":1167:1172   */\n  dup4\n    /* \"#utility.yul\":1163:1177   */\n  add\n    /* \"#utility.yul\":1159:1187   */\n  and\n    /* \"#utility.yul\":1149:1187   */\n  swap1\n  pop\n    /* \"#utility.yul\":1091:1193   */\n  swap2\n  swap1\n  pop\n  jump\t// out\n    /* \"#utility.yul\":1199:1379   */\ntag_28:\n    /* \"#utility.yul\":1247:1324   */\n  0x4e487b7100000000000000000000000000000000000000000000000000000000\n    /* \"#utility.yul\":1244:1245   */\n  0x00\n    /* \"#utility.yul\":1237:1325   */\n  mstore\n    /* \"#utility.yul\":1344:1348   */\n  0x41\n    /* \"#utility.yul\":1341:1342   */\n  0x04\n    /* \"#utility.yul\":1334:1349   */\n  mstore\n    /* \"#utility.yul\":1368:1372   */\n  0x24\n    /* \"#utility.yul\":1365:1366   */\n  0x00\n    /* \"#utility.yul\":1358:1373   */\n  revert\n    /* \"#utility.yul\":1385:1666   */\ntag_29:\n    /* \"#utility.yul\":1468:1495   */\n  tag_72\n    /* \"#utility.yul\":1490:1494   */\n  dup3\n    /* \"#utility.yul\":1468:1495   */\n  tag_27\n  jump\t// in\ntag_72:\n    /* \"#utility.yul\":1460:1466   */\n  dup2\n    /* \"#utility.yul\":1456:1496   */\n  add\n    /* \"#utility.yul\":1598:1604   */\n  dup2\n    /* \"#utility.yul\":1586:1596   */\n  dup2\n    /* \"#utility.yul\":1583:1605   */\n  lt\n    /* \"#utility.yul\":1562:1580   */\n  0xffffffffffffffff\n    /* \"#utility.yul\":1550:1560   */\n  dup3\n    /* \"#utility.yul\":1547:1581   */\n  gt\n    /* \"#utility.yul\":1544:1606   */\n  or\n    /* \"#utility.yul\":1541:1629   */\n  iszero\n  tag_73\n  jumpi\n    /* \"#utility.yul\":1609:1627   */\n  tag_74\n  tag_28\n  jump\t// in\ntag_74:\n    /* \"#utility.yul\":1541:1629   */\ntag_73:\n    /* \"#utility.yul\":1649:1659   */\n  dup1\n    /* \"#utility.yul\":1645:1647   */\n  0x40\n    /* \"#utility.yul\":1638:1660   */\n  mstore\n    /* \"#utility.yul\":1428:1666   */\n  pop\n    /* \"#utility.yul\":1385:1666   */\n  pop\n  pop\n  jump\t// out\n    /* \"#utility.yul\":1672:1801   */\ntag_30:\n    /* \"#utility.yul\":1706:1712   */\n  0x00\n    /* \"#utility.yul\":1733:1753   */\n  tag_76\n  tag_18\n  jump\t// in\ntag_76:\n    /* \"#utility.yul\":1723:1753   */\n  swap1\n  pop\n    /* \"#utility.yul\":1762:1795   */\n  tag_77\n    /* \"#utility.yul\":1790:1794   */\n  dup3\n    /* \"#utility.yul\":1782:1788   */\n  dup3\n    /* \"#utility.yul\":1762:1795   */\n  tag_29\n  jump\t// in\ntag_77:\n    /* \"#utility.yul\":1672:1801   */\n  swap2\n  swap1\n  pop\n  jump\t// out\n    /* \"#utility.yul\":1807:2115   */\ntag_31:\n    /* \"#utility.yul\":1869:1873   */\n  0x00\n    /* \"#utility.yul\":1959:1977   */\n  0xffffffffffffffff\n    /* \"#utility.yul\":1951:1957   */\n  dup3\n    /* \"#utility.yul\":1948:1978   */\n  gt\n    /* \"#utility.yul\":1945:2001   */\n  iszero\n  tag_79\n  jumpi\n    /* \"#utility.yul\":1981:1999   */\n  tag_80\n  tag_28\n  jump\t// in\ntag_80:\n    /* \"#utility.yul\":1945:2001   */\ntag_79:\n    /* \"#utility.yul\":2019:2048   */\n  tag_81\n    /* \"#utility.yul\":2041:2047   */\n  dup3\n    /* \"#utility.yul\":2019:2048   */\n  tag_27\n  jump\t// in\ntag_81:\n    /* \"#utility.yul\":2011:2048   */\n  swap1\n  pop\n    /* \"#utility.yul\":2103:2107   */\n  0x20\n    /* \"#utility.yul\":2097:2101   */\n  dup2\n    /* \"#utility.yul\":2093:2108   */\n  add\n    /* \"#utility.yul\":2085:2108   */\n  swap1\n  pop\n    /* \"#utility.yul\":1807:2115   */\n  swap2\n  swap1\n  pop\n  jump\t// out\n    /* \"#utility.yul\":2121:2260   */\ntag_32:\n    /* \"#utility.yul\":2210:2216   */\n  dup3\n    /* \"#utility.yul\":2205:2208   */\n  dup2\n    /* \"#utility.yul\":2200:2203   */\n  dup4\n    /* \"#utility.yul\":2194:2217   */\n  mcopy\n    /* \"#utility.yul\":2251:2252   */\n  0x00\n    /* \"#utility.yul\":2242:2248   */\n  dup4\n    /* \"#utility.yul\":2237:2240   */\n  dup4\n    /* \"#utility.yul\":2233:2249   */\n  add\n    /* \"#utility.yul\":2226:2253   */\n  mstore\n    /* \"#utility.yul\":2121:2260   */\n  pop\n  pop\n  pop\n  jump\t// out\n    /* \"#utility.yul\":2266:2700   */\ntag_33:\n    /* \"#utility.yul\":2355:2360   */\n  0x00\n    /* \"#utility.yul\":2380:2446   */\n  tag_84\n    /* \"#utility.yul\":2396:2445   */\n  tag_85\n    /* \"#utility.yul\":2438:2444   */\n  dup5\n    /* \"#utility.yul\":2396:2445   */\n  tag_31\n  jump\t// in\ntag_85:\n    /* \"#utility.yul\":2380:2446   */\n  tag_30\n  jump\t// in\ntag_84:\n    /* \"#utility.yul\":2371:2446   */\n  swap1\n  pop\n    /* \"#utility.yul\":2469:2475   */\n  dup3\n    /* \"#utility.yul\":2462:2467   */\n  dup2\n    /* \"#utility.yul\":2455:2476   */\n  mstore\n    /* \"#utility.yul\":2507:2511   */\n  0x20\n    /* \"#utility.yul\":2500:2505   */\n  dup2\n    /* \"#utility.yul\":2496:2512   */\n  add\n    /* \"#utility.yul\":2545:2548   */\n  dup5\n    /* \"#utility.yul\":2536:2542   */\n  dup5\n    /* \"#utility.yul\":2531:2534   */\n  dup5\n    /* \"#utility.yul\":2527:2543   */\n  add\n    /* \"#utility.yul\":2524:2549   */\n  gt\n    /* \"#utility.yul\":2521:2633   */\n  iszero\n  tag_86\n  jumpi\n    /* \"#utility.yul\":2552:2631   */\n  tag_87\n  tag_26\n  jump\t// in\ntag_87:\n    /* \"#utility.yul\":2521:2633   */\ntag_86:\n    /* \"#utility.yul\":2642:2694   */\n  tag_88\n    /* \"#utility.yul\":2687:2693   */\n  dup5\n    /* \"#utility.yul\":2682:2685   */\n  dup3\n    /* \"#utility.yul\":2677:2680   */\n  dup6\n    /* \"#utility.yul\":2642:2694   */\n  tag_32\n  jump\t// in\ntag_88:\n    /* \"#utility.yul\":2361:2700   */\n  pop\n    /* \"#utility.yul\":2266:2700   */\n  swap4\n  swap3\n  pop\n  pop\n  pop\n  jump\t// out\n    /* \"#utility.yul\":2720:3075   */\ntag_34:\n    /* \"#utility.yul\":2787:2792   */\n  0x00\n    /* \"#utility.yul\":2836:2839   */\n  dup3\n    /* \"#utility.yul\":2829:2833   */\n  0x1f\n    /* \"#utility.yul\":2821:2827   */\n  dup4\n    /* \"#utility.yul\":2817:2834   */\n  add\n    /* \"#utility.yul\":2813:2840   */\n  slt\n    /* \"#utility.yul\":2803:2925   */\n  tag_90\n  jumpi\n    /* \"#utility.yul\":2844:2923   */\n  tag_91\n  tag_25\n  jump\t// in\ntag_91:\n    /* \"#utility.yul\":2803:2925   */\ntag_90:\n    /* \"#utility.yul\":2954:2960   */\n  dup2\n    /* \"#utility.yul\":2948:2961   */\n  mload\n    /* \"#utility.yul\":2979:3069   */\n  tag_92\n    /* \"#utility.yul\":3065:3068   */\n  dup5\n    /* \"#utility.yul\":3057:3063   */\n  dup3\n    /* \"#utility.yul\":3050:3054   */\n  0x20\n    /* \"#utility.yul\":3042:3048   */\n  dup7\n    /* \"#utility.yul\":3038:3055   */\n  add\n    /* \"#utility.yul\":2979:3069   */\n  tag_33\n  jump\t// in\ntag_92:\n    /* \"#utility.yul\":2970:3069   */\n  swap2\n  pop\n    /* \"#utility.yul\":2793:3075   */\n  pop\n    /* \"#utility.yul\":2720:3075   */\n  swap3\n  swap2\n  pop\n  pop\n  jump\t// out\n    /* \"#utility.yul\":3081:4404   */\ntag_3:\n    /* \"#utility.yul\":3207:3213   */\n  0x00\n    /* \"#utility.yul\":3215:3221   */\n  dup1\n    /* \"#utility.yul\":3223:3229   */\n  0x00\n    /* \"#utility.yul\":3231:3237   */\n  dup1\n    /* \"#utility.yul\":3239:3245   */\n  0x00\n    /* \"#utility.yul\":3288:3291   */\n  0xa0\n    /* \"#utility.yul\":3276:3285   */\n  dup7\n    /* \"#utility.yul\":3267:3274   */\n  dup9\n    /* \"#utility.yul\":3263:3286   */\n  sub\n    /* \"#utility.yul\":3259:3292   */\n  slt\n    /* \"#utility.yul\":3256:3376   */\n  iszero\n  tag_94\n  jumpi\n    /* \"#utility.yul\":3295:3374   */\n  tag_95\n  tag_19\n  jump\t// in\ntag_95:\n    /* \"#utility.yul\":3256:3376   */\ntag_94:\n    /* \"#utility.yul\":3415:3416   */\n  0x00\n    /* \"#utility.yul\":3440:3504   */\n  tag_96\n    /* \"#utility.yul\":3496:3503   */\n  dup9\n    /* \"#utility.yul\":3487:3493   */\n  dup3\n    /* \"#utility.yul\":3476:3485   */\n  dup10\n    /* \"#utility.yul\":3472:3494   */\n  add\n    /* \"#utility.yul\":3440:3504   */\n  tag_24\n  jump\t// in\ntag_96:\n    /* \"#utility.yul\":3430:3504   */\n  swap6\n  pop\n    /* \"#utility.yul\":3386:3514   */\n  pop\n    /* \"#utility.yul\":3553:3555   */\n  0x20\n    /* \"#utility.yul\":3579:3643   */\n  tag_97\n    /* \"#utility.yul\":3635:3642   */\n  dup9\n    /* \"#utility.yul\":3626:3632   */\n  dup3\n    /* \"#utility.yul\":3615:3624   */\n  dup10\n    /* \"#utility.yul\":3611:3633   */\n  add\n    /* \"#utility.yul\":3579:3643   */\n  tag_24\n  jump\t// in\ntag_97:\n    /* \"#utility.yul\":3569:3643   */\n  swap5\n  pop\n    /* \"#utility.yul\":3524:3653   */\n  pop\n    /* \"#utility.yul\":3692:3694   */\n  0x40\n    /* \"#utility.yul\":3718:3782   */\n  tag_98\n    /* \"#utility.yul\":3774:3781   */\n  dup9\n    /* \"#utility.yul\":3765:3771   */\n  dup3\n    /* \"#utility.yul\":3754:3763   */\n  dup10\n    /* \"#utility.yul\":3750:3772   */\n  add\n    /* \"#utility.yul\":3718:3782   */\n  tag_24\n  jump\t// in\ntag_98:\n    /* \"#utility.yul\":3708:3782   */\n  swap4\n  pop\n    /* \"#utility.yul\":3663:3792   */\n  pop\n    /* \"#utility.yul\":3852:3854   */\n  0x60\n    /* \"#utility.yul\":3841:3850   */\n  dup7\n    /* \"#utility.yul\":3837:3855   */\n  add\n    /* \"#utility.yul\":3831:3856   */\n  mload\n    /* \"#utility.yul\":3883:3901   */\n  0xffffffffffffffff\n    /* \"#utility.yul\":3875:3881   */\n  dup2\n    /* \"#utility.yul\":3872:3902   */\n  gt\n    /* \"#utility.yul\":3869:3986   */\n  iszero\n  tag_99\n  jumpi\n    /* \"#utility.yul\":3905:3984   */\n  tag_100\n  tag_20\n  jump\t// in\ntag_100:\n    /* \"#utility.yul\":3869:3986   */\ntag_99:\n    /* \"#utility.yul\":4010:4084   */\n  tag_101\n    /* \"#utility.yul\":4076:4083   */\n  dup9\n    /* \"#utility.yul\":4067:4073   */\n  dup3\n    /* \"#utility.yul\":4056:4065   */\n  dup10\n    /* \"#utility.yul\":4052:4074   */\n  add\n    /* \"#utility.yul\":4010:4084   */\n  tag_34\n  jump\t// in\ntag_101:\n    /* \"#utility.yul\":4000:4084   */\n  swap3\n  pop\n    /* \"#utility.yul\":3802:4094   */\n  pop\n    /* \"#utility.yul\":4154:4157   */\n  0x80\n    /* \"#utility.yul\":4143:4152   */\n  dup7\n    /* \"#utility.yul\":4139:4158   */\n  add\n    /* \"#utility.yul\":4133:4159   */\n  mload\n    /* \"#utility.yul\":4186:4204   */\n  0xffffffffffffffff\n    /* \"#utility.yul\":4178:4184   */\n  dup2\n    /* \"#utility.yul\":4175:4205   */\n  gt\n    /* \"#utility.yul\":4172:4289   */\n  iszero\n  tag_102\n  jumpi\n    /* \"#utility.yul\":4208:4287   */\n  tag_103\n  tag_20\n  jump\t// in\ntag_103:\n    /* \"#utility.yul\":4172:4289   */\ntag_102:\n    /* \"#utility.yul\":4313:4387   */\n  tag_104\n    /* \"#utility.yul\":4379:4386   */\n  dup9\n    /* \"#utility.yul\":4370:4376   */\n  dup3\n    /* \"#utility.yul\":4359:4368   */\n  dup10\n    /* \"#utility.yul\":4355:4377   */\n  add\n    /* \"#utility.yul\":4313:4387   */\n  tag_34\n  jump\t// in\ntag_104:\n    /* \"#utility.yul\":4303:4387   */\n  swap2\n  pop\n    /* \"#utility.yul\":4104:4397   */\n  pop\n    /* \"#utility.yul\":3081:4404   */\n  swap3\n  swap6\n  pop\n  swap3\n  swap6\n  swap1\n  swap4\n  pop\n  jump\t// out\n    /* \"#utility.yul\":4410:4528   */\ntag_35:\n    /* \"#utility.yul\":4497:4521   */\n  tag_106\n    /* \"#utility.yul\":4515:4520   */\n  dup2\n    /* \"#utility.yul\":4497:4521   */\n  tag_22\n  jump\t// in\ntag_106:\n    /* \"#utility.yul\":4492:4495   */\n  dup3\n    /* \"#utility.yul\":4485:4522   */\n  mstore\n    /* \"#utility.yul\":4410:4528   */\n  pop\n  pop\n  jump\t// out\n    /* \"#utility.yul\":4534:4756   */\ntag_9:\n    /* \"#utility.yul\":4627:4631   */\n  0x00\n    /* \"#utility.yul\":4665:4667   */\n  0x20\n    /* \"#utility.yul\":4654:4663   */\n  dup3\n    /* \"#utility.yul\":4650:4668   */\n  add\n    /* \"#utility.yul\":4642:4668   */\n  swap1\n  pop\n    /* \"#utility.yul\":4678:4749   */\n  tag_108\n    /* \"#utility.yul\":4746:4747   */\n  0x00\n    /* \"#utility.yul\":4735:4744   */\n  dup4\n    /* \"#utility.yul\":4731:4748   */\n  add\n    /* \"#utility.yul\":4722:4728   */\n  dup5\n    /* \"#utility.yul\":4678:4749   */\n  tag_35\n  jump\t// in\ntag_108:\n    /* \"#utility.yul\":4534:4756   */\n  swap3\n  swap2\n  pop\n  pop\n  jump\t// out\n    /* \"#utility.yul\":4762:4861   */\ntag_36:\n    /* \"#utility.yul\":4814:4820   */\n  0x00\n    /* \"#utility.yul\":4848:4853   */\n  dup2\n    /* \"#utility.yul\":4842:4854   */\n  mload\n    /* \"#utility.yul\":4832:4854   */\n  swap1\n  pop\n    /* \"#utility.yul\":4762:4861   */\n  swap2\n  swap1\n  pop\n  jump\t// out\n    /* \"#utility.yul\":4867:5047   */\ntag_37:\n    /* \"#utility.yul\":4915:4992   */\n  0x4e487b7100000000000000000000000000000000000000000000000000000000\n    /* \"#utility.yul\":4912:4913   */\n  0x00\n    /* \"#utility.yul\":4905:4993   */\n  mstore\n    /* \"#utility.yul\":5012:5016   */\n  0x22\n    /* \"#utility.yul\":5009:5010   */\n  0x04\n    /* \"#utility.yul\":5002:5017   */\n  mstore\n    /* \"#utility.yul\":5036:5040   */\n  0x24\n    /* \"#utility.yul\":5033:5034   */\n  0x00\n    /* \"#utility.yul\":5026:5041   */\n  revert\n    /* \"#utility.yul\":5053:5373   */\ntag_38:\n    /* \"#utility.yul\":5097:5103   */\n  0x00\n    /* \"#utility.yul\":5134:5135   */\n  0x02\n    /* \"#utility.yul\":5128:5132   */\n  dup3\n    /* \"#utility.yul\":5124:5136   */\n  div\n    /* \"#utility.yul\":5114:5136   */\n  swap1\n  pop\n    /* \"#utility.yul\":5181:5182   */\n  0x01\n    /* \"#utility.yul\":5175:5179   */\n  dup3\n    /* \"#utility.yul\":5171:5183   */\n  and\n    /* \"#utility.yul\":5202:5220   */\n  dup1\n    /* \"#utility.yul\":5192:5273   */\n  tag_112\n  jumpi\n    /* \"#utility.yul\":5258:5262   */\n  0x7f\n    /* \"#utility.yul\":5250:5256   */\n  dup3\n    /* \"#utility.yul\":5246:5263   */\n  and\n    /* \"#utility.yul\":5236:5263   */\n  swap2\n  pop\n    /* \"#utility.yul\":5192:5273   */\ntag_112:\n    /* \"#utility.yul\":5320:5322   */\n  0x20\n    /* \"#utility.yul\":5312:5318   */\n  dup3\n    /* \"#utility.yul\":5309:5323   */\n  lt\n    /* \"#utility.yul\":5289:5307   */\n  dup2\n    /* \"#utility.yul\":5286:5324   */\n  sub\n    /* \"#utility.yul\":5283:5367   */\n  tag_113\n  jumpi\n    /* \"#utility.yul\":5339:5357   */\n  tag_114\n  tag_37\n  jump\t// in\ntag_114:\n    /* \"#utility.yul\":5283:5367   */\ntag_113:\n    /* \"#utility.yul\":5104:5373   */\n  pop\n    /* \"#utility.yul\":5053:5373   */\n  swap2\n  swap1\n  pop\n  jump\t// out\n    /* \"#utility.yul\":5379:5520   */\ntag_39:\n    /* \"#utility.yul\":5428:5432   */\n  0x00\n    /* \"#utility.yul\":5451:5454   */\n  dup2\n    /* \"#utility.yul\":5443:5454   */\n  swap1\n  pop\n    /* \"#utility.yul\":5474:5477   */\n  dup2\n    /* \"#utility.yul\":5471:5472   */\n  0x00\n    /* \"#utility.yul\":5464:5478   */\n  mstore\n    /* \"#utility.yul\":5508:5512   */\n  0x20\n    /* \"#utility.yul\":5505:5506   */\n  0x00\n    /* \"#utility.yul\":5495:5513   */\n  keccak256\n    /* \"#utility.yul\":5487:5513   */\n  swap1\n  pop\n    /* \"#utility.yul\":5379:5520   */\n  swap2\n  swap1\n  pop\n  jump\t// out\n    /* \"#utility.yul\":5526:5619   */\ntag_40:\n    /* \"#utility.yul\":5563:5569   */\n  0x00\n    /* \"#utility.yul\":5610:5612   */\n  0x20\n    /* \"#utility.yul\":5605:5607   */\n  0x1f\n    /* \"#utility.yul\":5598:5603   */\n  dup4\n    /* \"#utility.yul\":5594:5608   */\n  add\n    /* \"#utility.yul\":5590:5613   */\n  div\n    /* \"#utility.yul\":5580:5613   */\n  swap1\n  pop\n    /* \"#utility.yul\":5526:5619   */\n  swap2\n  swap1\n  pop\n  jump\t// out\n    /* \"#utility.yul\":5625:5732   */\ntag_41:\n    /* \"#utility.yul\":5669:5677   */\n  0x00\n    /* \"#utility.yul\":5719:5724   */\n  dup3\n    /* \"#utility.yul\":5713:5717   */\n  dup3\n    /* \"#utility.yul\":5709:5725   */\n  shl\n    /* \"#utility.yul\":5688:5725   */\n  swap1\n  pop\n    /* \"#utility.yul\":5625:5732   */\n  swap3\n  swap2\n  pop\n  pop\n  jump\t// out\n    /* \"#utility.yul\":5738:6131   */\ntag_42:\n    /* \"#utility.yul\":5807:5813   */\n  0x00\n    /* \"#utility.yul\":5857:5858   */\n  0x08\n    /* \"#utility.yul\":5845:5855   */\n  dup4\n    /* \"#utility.yul\":5841:5859   */\n  mul\n    /* \"#utility.yul\":5880:5977   */\n  tag_119\n    /* \"#utility.yul\":5910:5976   */\n  0xffffffffffffffffffffffffffffffffffffffffffffffffffffffffffffffff\n    /* \"#utility.yul\":5899:5908   */\n  dup3\n    /* \"#utility.yul\":5880:5977   */\n  tag_41\n  jump\t// in\ntag_119:\n    /* \"#utility.yul\":5998:6037   */\n  tag_120\n    /* \"#utility.yul\":6028:6036   */\n  dup7\n    /* \"#utility.yul\":6017:6026   */\n  dup4\n    /* \"#utility.yul\":5998:6037   */\n  tag_41\n  jump\t// in\ntag_120:\n    /* \"#utility.yul\":5986:6037   */\n  swap6\n  pop\n    /* \"#utility.yul\":6070:6074   */\n  dup1\n    /* \"#utility.yul\":6066:6075   */\n  not\n    /* \"#utility.yul\":6059:6064   */\n  dup5\n    /* \"#utility.yul\":6055:6076   */\n  and\n    /* \"#utility.yul\":6046:6076   */\n  swap4\n  pop\n    /* \"#utility.yul\":6119:6123   */\n  dup1\n    /* \"#utility.yul\":6109:6117   */\n  dup7\n    /* \"#utility.yul\":6105:6124   */\n  and\n    /* \"#utility.yul\":6098:6103   */\n  dup5\n    /* \"#utility.yul\":6095:6125   */\n  or\n    /* \"#utility.yul\":6085:6125   */\n  swap3\n  pop\n    /* \"#utility.yul\":5814:6131   */\n  pop\n  pop\n    /* \"#utility.yul\":5738:6131   */\n  swap4\n  swap3\n  pop\n  pop\n  pop\n  jump\t// out\n    /* \"#utility.yul\":6137:6214   */\ntag_43:\n    /* \"#utility.yul\":6174:6181   */\n  0x00\n    /* \"#utility.yul\":6203:6208   */\n  dup2\n    /* \"#utility.yul\":6192:6208   */\n  swap1\n  pop\n    /* \"#utility.yul\":6137:6214   */\n  swap2\n  swap1\n  pop\n  jump\t// out\n    /* \"#utility.yul\":6220:6280   */\ntag_44:\n    /* \"#utility.yul\":6248:6251   */\n  0x00\n    /* \"#utility.yul\":6269:6274   */\n  dup2\n    /* \"#utility.yul\":6262:6274   */\n  swap1\n  pop\n    /* \"#utility.yul\":6220:6280   */\n  swap2\n  swap1\n  pop\n  jump\t// out\n    /* \"#utility.yul\":6286:6428   */\ntag_45:\n    /* \"#utility.yul\":6336:6345   */\n  0x00\n    /* \"#utility.yul\":6369:6422   */\n  tag_124\n    /* \"#utility.yul\":6387:6421   */\n  tag_125\n    /* \"#utility.yul\":6396:6420   */\n  tag_126\n    /* \"#utility.yul\":6414:6419   */\n  dup5\n    /* \"#utility.yul\":6396:6420   */\n  tag_43\n  jump\t// in\ntag_126:\n    /* \"#utility.yul\":6387:6421   */\n  tag_44\n  jump\t// in\ntag_125:\n    /* \"#utility.yul\":6369:6422   */\n  tag_43\n  jump\t// in\ntag_124:\n    /* \"#utility.yul\":6356:6422   */\n  swap1\n  pop\n    /* \"#utility.yul\":6286:6428   */\n  swap2\n  swap1\n  pop\n  jump\t// out\n    /* \"#utility.yul\":6434:6509   */\ntag_46:\n    /* \"#utility.yul\":6477:6480   */\n  0x00\n    /* \"#utility.yul\":6498:6503   */\n  dup2\n    /* \"#utility.yul\":6491:6503   */\n  swap1\n  pop\n    /* \"#utility.yul\":6434:6509   */\n  swap2\n  swap1\n  pop\n  jump\t// out\n    /* \"#utility.yul\":6515:6784   */\ntag_47:\n    /* \"#utility.yul\":6625:6664   */\n  tag_129\n    /* \"#utility.yul\":6656:6663   */\n  dup4\n    /* \"#utility.yul\":6625:6664   */\n  tag_45\n  jump\t// in\ntag_129:\n    /* \"#utility.yul\":6686:6777   */\n  tag_130\n    /* \"#utility.yul\":6735:6776   */\n  tag_131\n    /* \"#utility.yul\":6759:6775   */\n  dup3\n    /* \"#utility.yul\":6735:6776   */\n  tag_46\n  jump\t// in\ntag_131:\n    /* \"#utility.yul\":6727:6733   */\n  dup5\n    /* \"#utility.yul\":6720:6724   */\n  dup5\n    /* \"#utility.yul\":6714:6725   */\n  sload\n    /* \"#utility.yul\":6686:6777   */\n  tag_42\n  jump\t// in\ntag_130:\n    /* \"#utility.yul\":6680:6684   */\n  dup3\n    /* \"#utility.yul\":6673:6778   */\n  sstore\n    /* \"#utility.yul\":6591:6784   */\n  pop\n    /* \"#utility.yul\":6515:6784   */\n  pop\n  pop\n  pop\n  jump\t// out\n    /* \"#utility.yul\":6790:6863   */\ntag_48:\n    /* \"#utility.yul\":6835:6838   */\n  0x00\n    /* \"#utility.yul\":6790:6863   */\n  swap1\n  jump\t// out\n    /* \"#utility.yul\":6869:7058   */\ntag_49:\n    /* \"#utility.yul\":6946:6978   */\n  tag_134\n  tag_48\n  jump\t// in\ntag_134:\n    /* \"#utility.yul\":6987:7052   */\n  tag_135\n    /* \"#utility.yul\":7045:7051   */\n  dup2\n    /* \"#utility.yul\":7037:7043   */\n  dup5\n    /* \"#utility.yul\":7031:7035   */\n  dup5\n    /* \"#utility.yul\":6987:7052   */\n  tag_47\n  jump\t// in\ntag_135:\n    /* \"#utility.yul\":6922:7058   */\n  pop\n    /* \"#utility.yul\":6869:7058   */\n  pop\n  pop\n  jump\t// out\n    /* \"#utility.yul\":7064:7250   */\ntag_50:\n    /* \"#utility.yul\":7124:7244   */\ntag_137:\n    /* \"#utility.yul\":7141:7144   */\n  dup2\n    /* \"#utility.yul\":7134:7139   */\n  dup2\n    /* \"#utility.yul\":7131:7145   */\n  lt\n    /* \"#utility.yul\":7124:7244   */\n  iszero\n  tag_139\n  jumpi\n    /* \"#utility.yul\":7195:7234   */\n  tag_140\n    /* \"#utility.yul\":7232:7233   */\n  0x00\n    /* \"#utility.yul\":7225:7230   */\n  dup3\n    /* \"#utility.yul\":7195:7234   */\n  tag_49\n  jump\t// in\ntag_140:\n    /* \"#utility.yul\":7168:7169   */\n  0x01\n    /* \"#utility.yul\":7161:7166   */\n  dup2\n    /* \"#utility.yul\":7157:7170   */\n  add\n    /* \"#utility.yul\":7148:7170   */\n  swap1\n  pop\n    /* \"#utility.yul\":7124:7244   */\n  jump(tag_137)\ntag_139:\n    /* \"#utility.yul\":7064:7250   */\n  pop\n  pop\n  jump\t// out\n    /* \"#utility.yul\":7256:7799   */\ntag_51:\n    /* \"#utility.yul\":7357:7359   */\n  0x1f\n    /* \"#utility.yul\":7352:7355   */\n  dup3\n    /* \"#utility.yul\":7349:7360   */\n  gt\n    /* \"#utility.yul\":7346:7792   */\n  iszero\n  tag_142\n  jumpi\n    /* \"#utility.yul\":7391:7429   */\n  tag_143\n    /* \"#utility.yul\":7423:7428   */\n  dup2\n    /* \"#utility.yul\":7391:7429   */\n  tag_39\n  jump\t// in\ntag_143:\n    /* \"#utility.yul\":7475:7504   */\n  tag_144\n    /* \"#utility.yul\":7493:7503   */\n  dup5\n    /* \"#utility.yul\":7475:7504   */\n  tag_40\n  jump\t// in\ntag_144:\n    /* \"#utility.yul\":7465:7473   */\n  dup2\n    /* \"#utility.yul\":7461:7505   */\n  add\n    /* \"#utility.yul\":7658:7660   */\n  0x20\n    /* \"#utility.yul\":7646:7656   */\n  dup6\n    /* \"#utility.yul\":7643:7661   */\n  lt\n    /* \"#utility.yul\":7640:7689   */\n  iszero\n  tag_145\n  jumpi\n    /* \"#utility.yul\":7679:7687   */\n  dup2\n    /* \"#utility.yul\":7664:7687   */\n  swap1\n  pop\n    /* \"#utility.yul\":7640:7689   */\ntag_145:\n    /* \"#utility.yul\":7702:7782   */\n  tag_146\n    /* \"#utility.yul\":7758:7780   */\n  tag_147\n    /* \"#utility.yul\":7776:7779   */\n  dup6\n    /* \"#utility.yul\":7758:7780   */\n  tag_40\n  jump\t// in\ntag_147:\n    /* \"#utility.yul\":7748:7756   */\n  dup4\n    /* \"#utility.yul\":7744:7781   */\n  add\n    /* \"#utility.yul\":7731:7742   */\n  dup3\n    /* \"#utility.yul\":7702:7782   */\n  tag_50\n  jump\t// in\ntag_146:\n    /* \"#utility.yul\":7361:7792   */\n  pop\n  pop\n    /* \"#utility.yul\":7346:7792   */\ntag_142:\n    /* \"#utility.yul\":7256:7799   */\n  pop\n  pop\n  pop\n  jump\t// out\n    /* \"#utility.yul\":7805:7922   */\ntag_52:\n    /* \"#utility.yul\":7859:7867   */\n  0x00\n    /* \"#utility.yul\":7909:7914   */\n  dup3\n    /* \"#utility.yul\":7903:7907   */\n  dup3\n    /* \"#utility.yul\":7899:7915   */\n  shr\n    /* \"#utility.yul\":7878:7915   */\n  swap1\n  pop\n    /* \"#utility.yul\":7805:7922   */\n  swap3\n  swap2\n  pop\n  pop\n  jump\t// out\n    /* \"#utility.yul\":7928:8097   */\ntag_53:\n    /* \"#utility.yul\":7972:7978   */\n  0x00\n    /* \"#utility.yul\":8005:8056   */\n  tag_150\n    /* \"#utility.yul\":8053:8054   */\n  0x00\n    /* \"#utility.yul\":8049:8055   */\n  not\n    /* \"#utility.yul\":8041:8046   */\n  dup5\n    /* \"#utility.yul\":8038:8039   */\n  0x08\n    /* \"#utility.yul\":8034:8047   */\n  mul\n    /* \"#utility.yul\":8005:8056   */\n  tag_52\n  jump\t// in\ntag_150:\n    /* \"#utility.yul\":8001:8057   */\n  not\n    /* \"#utility.yul\":8086:8090   */\n  dup1\n    /* \"#utility.yul\":8080:8084   */\n  dup4\n    /* \"#utility.yul\":8076:8091   */\n  and\n    /* \"#utility.yul\":8066:8091   */\n  swap2\n  pop\n    /* \"#utility.yul\":7979:8097   */\n  pop\n    /* \"#utility.yul\":7928:8097   */\n  swap3\n  swap2\n  pop\n  pop\n  jump\t// out\n    /* \"#utility.yul\":8102:8397   */\ntag_54:\n    /* \"#utility.yul\":8178:8182   */\n  0x00\n    /* \"#utility.yul\":8324:8353   */\n  tag_152\n    /* \"#utility.yul\":8349:8352   */\n  dup4\n    /* \"#utility.yul\":8343:8347   */\n  dup4\n    /* \"#utility.yul\":8324:8353   */\n  tag_53\n  jump\t// in\ntag_152:\n    /* \"#utility.yul\":8316:8353   */\n  swap2\n  pop\n    /* \"#utility.yul\":8386:8389   */\n  dup3\n    /* \"#utility.yul\":8383:8384   */\n  0x02\n    /* \"#utility.yul\":8379:8390   */\n  mul\n    /* \"#utility.yul\":8373:8377   */\n  dup3\n    /* \"#utility.yul\":8370:8391   */\n  or\n    /* \"#utility.yul\":8362:8391   */\n  swap1\n  pop\n    /* \"#utility.yul\":8102:8397   */\n  swap3\n  swap2\n  pop\n  pop\n  jump\t// out\n    /* \"#utility.yul\":8402:9797   */\ntag_14:\n    /* \"#utility.yul\":8519:8556   */\n  tag_154\n    /* \"#utility.yul\":8552:8555   */\n  dup3\n    /* \"#utility.yul\":8519:8556   */\n  tag_36\n  jump\t// in\ntag_154:\n    /* \"#utility.yul\":8621:8639   */\n  0xffffffffffffffff\n    /* \"#utility.yul\":8613:8619   */\n  dup2\n    /* \"#utility.yul\":8610:8640   */\n  gt\n    /* \"#utility.yul\":8607:8663   */\n  iszero\n  tag_155\n  jumpi\n    /* \"#utility.yul\":8643:8661   */\n  tag_156\n  tag_28\n  jump\t// in\ntag_156:\n    /* \"#utility.yul\":8607:8663   */\ntag_155:\n    /* \"#utility.yul\":8687:8725   */\n  tag_157\n    /* \"#utility.yul\":8719:8723   */\n  dup3\n    /* \"#utility.yul\":8713:8724   */\n  sload\n    /* \"#utility.yul\":8687:8725   */\n  tag_38\n  jump\t// in\ntag_157:\n    /* \"#utility.yul\":8772:8839   */\n  tag_158\n    /* \"#utility.yul\":8832:8838   */\n  dup3\n    /* \"#utility.yul\":8824:8830   */\n  dup3\n    /* \"#utility.yul\":8818:8822   */\n  dup6\n    /* \"#utility.yul\":8772:8839   */\n  tag_51\n  jump\t// in\ntag_158:\n    /* \"#utility.yul\":8866:8867   */\n  0x00\n    /* \"#utility.yul\":8890:8894   */\n  0x20\n    /* \"#utility.yul\":8877:8894   */\n  swap1\n  pop\n    /* \"#utility.yul\":8922:8924   */\n  0x1f\n    /* \"#utility.yul\":8914:8920   */\n  dup4\n    /* \"#utility.yul\":8911:8925   */\n  gt\n    /* \"#utility.yul\":8939:8940   */\n  0x01\n    /* \"#utility.yul\":8934:9552   */\n  dup2\n  eq\n  tag_160\n  jumpi\n    /* \"#utility.yul\":9596:9597   */\n  0x00\n    /* \"#utility.yul\":9613:9619   */\n  dup5\n    /* \"#utility.yul\":9610:9687   */\n  iszero\n  tag_161\n  jumpi\n    /* \"#utility.yul\":9662:9671   */\n  dup3\n    /* \"#utility.yul\":9657:9660   */\n  dup8\n    /* \"#utility.yul\":9653:9672   */\n  add\n    /* \"#utility.yul\":9647:9673   */\n  mload\n    /* \"#utility.yul\":9638:9673   */\n  swap1\n  pop\n    /* \"#utility.yul\":9610:9687   */\ntag_161:\n    /* \"#utility.yul\":9713:9780   */\n  tag_162\n    /* \"#utility.yul\":9773:9779   */\n  dup6\n    /* \"#utility.yul\":9766:9771   */\n  dup3\n    /* \"#utility.yul\":9713:9780   */\n  tag_54\n  jump\t// in\ntag_162:\n    /* \"#utility.yul\":9707:9711   */\n  dup7\n    /* \"#utility.yul\":9700:9781   */\n  sstore\n    /* \"#utility.yul\":9569:9791   */\n  pop\n    /* \"#utility.yul\":8904:9791   */\n  jump(tag_159)\n    /* \"#utility.yul\":8934:9552   */\ntag_160:\n    /* \"#utility.yul\":8986:8990   */\n  0x1f\n    /* \"#utility.yul\":8982:8991   */\n  not\n    /* \"#utility.yul\":8974:8980   */\n  dup5\n    /* \"#utility.yul\":8970:8992   */\n  and\n    /* \"#utility.yul\":9020:9057   */\n  tag_163\n    /* \"#utility.yul\":9052:9056   */\n  dup7\n    /* \"#utility.yul\":9020:9057   */\n  tag_39\n  jump\t// in\ntag_163:\n    /* \"#utility.yul\":9079:9080   */\n  0x00\n    /* \"#utility.yul\":9093:9301   */\ntag_164:\n    /* \"#utility.yul\":9107:9114   */\n  dup3\n    /* \"#utility.yul\":9104:9105   */\n  dup2\n    /* \"#utility.yul\":9101:9115   */\n  lt\n    /* \"#utility.yul\":9093:9301   */\n  iszero\n  tag_166\n  jumpi\n    /* \"#utility.yul\":9186:9195   */\n  dup5\n    /* \"#utility.yul\":9181:9184   */\n  dup10\n    /* \"#utility.yul\":9177:9196   */\n  add\n    /* \"#utility.yul\":9171:9197   */\n  mload\n    /* \"#utility.yul\":9163:9169   */\n  dup3\n    /* \"#utility.yul\":9156:9198   */\n  sstore\n    /* \"#utility.yul\":9237:9238   */\n  0x01\n    /* \"#utility.yul\":9229:9235   */\n  dup3\n    /* \"#utility.yul\":9225:9239   */\n  add\n    /* \"#utility.yul\":9215:9239   */\n  swap2\n  pop\n    /* \"#utility.yul\":9284:9286   */\n  0x20\n    /* \"#utility.yul\":9273:9282   */\n  dup6\n    /* \"#utility.yul\":9269:9287   */\n  add\n    /* \"#utility.yul\":9256:9287   */\n  swap5\n  pop\n    /* \"#utility.yul\":9130:9134   */\n  0x20\n    /* \"#utility.yul\":9127:9128   */\n  dup2\n    /* \"#utility.yul\":9123:9135   */\n  add\n    /* \"#utility.yul\":9118:9135   */\n  swap1\n  pop\n    /* \"#utility.yul\":9093:9301   */\n  jump(tag_164)\ntag_166:\n    /* \"#utility.yul\":9329:9335   */\n  dup7\n    /* \"#utility.yul\":9320:9327   */\n  dup4\n    /* \"#utility.yul\":9317:9336   */\n  lt\n    /* \"#utility.yul\":9314:9493   */\n  iszero\n  tag_167\n  jumpi\n    /* \"#utility.yul\":9387:9396   */\n  dup5\n    /* \"#utility.yul\":9382:9385   */\n  dup10\n    /* \"#utility.yul\":9378:9397   */\n  add\n    /* \"#utility.yul\":9372:9398   */\n  mload\n    /* \"#utility.yul\":9430:9478   */\n  tag_168\n    /* \"#utility.yul\":9472:9476   */\n  0x1f\n    /* \"#utility.yul\":9464:9470   */\n  dup10\n    /* \"#utility.yul\":9460:9477   */\n  and\n    /* \"#utility.yul\":9449:9458   */\n  dup3\n    /* \"#utility.yul\":9430:9478   */\n  tag_53\n  jump\t// in\ntag_168:\n    /* \"#utility.yul\":9422:9428   */\n  dup4\n    /* \"#utility.yul\":9415:9479   */\n  sstore\n    /* \"#utility.yul\":9337:9493   */\n  pop\n    /* \"#utility.yul\":9314:9493   */\ntag_167:\n    /* \"#utility.yul\":9539:9540   */\n  0x01\n    /* \"#utility.yul\":9535:9536   */\n  0x02\n    /* \"#utility.yul\":9527:9533   */\n  dup9\n    /* \"#utility.yul\":9523:9537   */\n  mul\n    /* \"#utility.yul\":9519:9541   */\n  add\n    /* \"#utility.yul\":9513:9517   */\n  dup9\n    /* \"#utility.yul\":9506:9542   */\n  sstore\n    /* \"#utility.yul\":8941:9552   */\n  pop\n  pop\n  pop\n    /* \"#utility.yul\":8904:9791   */\ntag_159:\n  pop\n    /* \"#utility.yul\":8494:9797   */\n  pop\n  pop\n  pop\n    /* \"#utility.yul\":8402:9797   */\n  pop\n  pop\n  jump\t// out\n    /* \"contracts/16_DatacapGatewayAxelar.sol\":635:3298  contract DatacapGatewayAxelar is Ownable, IDatacapGateway {... */\ntag_16:\n  mload(0x80)\n  codecopy(0x00, dataOffset(sub_0), dataSize(sub_0))\n  0x00\n  assignImmutable(\"0xe3fb6c7a68b97a1574f1623712f47cd0a60a3212aae0a2101a56c312e7330127\")\n  return(0x00, dataSize(sub_0))\nstop\n\nsub_0: assembly {\n        /* \"contracts/16_DatacapGatewayAxelar.sol\":635:3298  contract DatacapGatewayAxelar is Ownable, IDatacapGateway {... */\n      mstore(0x40, 0x80)\n      jumpi(tag_1, lt(calldatasize, 0x04))\n      shr(0xe0, calldataload(0x00))\n      dup1\n      0x8da5cb5b\n      gt\n      tag_16\n      jumpi\n      dup1\n      0xbcaf0d9a\n      gt\n      tag_17\n      jumpi\n      dup1\n      0xbcaf0d9a\n      eq\n      tag_12\n      jumpi\n      dup1\n      0xca09c885\n      eq\n      tag_13\n      jumpi\n      dup1\n      0xf2fde38b\n      eq\n      tag_14\n      jumpi\n      dup1\n      0xf4bd456d\n      eq\n      tag_15\n      jumpi\n      jump(tag_2)\n    tag_17:\n      dup1\n      0x8da5cb5b\n      eq\n      tag_9\n      jumpi\n      dup1\n      0x9b85622c\n      eq\n      tag_10\n      jumpi\n      dup1\n      0xbc95b3b1\n      eq\n      tag_11\n      jumpi\n      jump(tag_2)\n    tag_16:\n      dup1\n      0x25d83b7a\n      eq\n      tag_3\n      jumpi\n      dup1\n      0x4cae3185\n      eq\n      tag_4\n      jumpi\n      dup1\n      0x6a22d8cc\n      eq\n      tag_5\n      jumpi\n      dup1\n      0x715018a6\n      eq\n      tag_6\n      jumpi\n      dup1\n      0x84272b59\n      eq\n      tag_7\n      jumpi\n      dup1\n      0x85a2dd15\n      eq\n      tag_8\n      jumpi\n      jump(tag_2)\n    tag_1:\n      jumpi(tag_2, calldatasize)\n      stop\n    tag_2:\n      0x00\n      dup1\n      revert\n        /* \"contracts/16_DatacapGatewayAxelar.sol\":874:896  string public destAddr */\n    tag_3:\n      callvalue\n      dup1\n      iszero\n      tag_20\n      jumpi\n      0x00\n      dup1\n      revert\n    tag_20:\n      pop\n      tag_21\n      tag_22\n      jump\t// in\n    tag_21:\n      mload(0x40)\n      tag_23\n      swap2\n      swap1\n      tag_24\n      jump\t// in\n    tag_23:\n      mload(0x40)\n      dup1\n      swap2\n      sub\n      swap1\n      return\n        /* \"contracts/16_DatacapGatewayAxelar.sol\":753:785  address public axelarGatewayAddr */\n    tag_4:\n      callvalue\n      dup1\n      iszero\n      tag_25\n      jumpi\n      0x00\n      dup1\n      revert\n    tag_25:\n      pop\n      tag_26\n      tag_27\n      jump\t// in\n    tag_26:\n      mload(0x40)\n      tag_28\n      swap2\n      swap1\n      tag_29\n      jump\t// in\n    tag_28:\n      mload(0x40)\n      dup1\n      swap2\n      sub\n      swap1\n      return\n        /* \"contracts/16_DatacapGatewayAxelar.sol\":792:837  IAxelarGasService public immutable gasService */\n    tag_5:\n      callvalue\n      dup1\n      iszero\n      tag_30\n      jumpi\n      0x00\n      dup1\n      revert\n    tag_30:\n      pop\n      tag_31\n      tag_32\n      jump\t// in\n    tag_31:\n      mload(0x40)\n      tag_33\n      swap2\n      swap1\n      tag_34\n      jump\t// in\n    tag_33:\n      mload(0x40)\n      dup1\n      swap2\n      sub\n      swap1\n      return\n        /* \"@openzeppelin/contracts/access/Ownable.sol\":2293:2394  function renounceOwnership() public virtual onlyOwner {... */\n    tag_6:\n      callvalue\n      dup1\n      iszero\n      tag_35\n      jumpi\n      0x00\n      dup1\n      revert\n    tag_35:\n      pop\n      tag_36\n      tag_37\n      jump\t// in\n    tag_36:\n      stop\n        /* \"contracts/16_DatacapGatewayAxelar.sol\":1346:1547  function setDestChainAndAddress(string memory destinationChain, string memory destinationAddress) external onlyOwner {... */\n    tag_7:\n      callvalue\n      dup1\n      iszero\n      tag_38\n      jumpi\n      0x00\n      dup1\n      revert\n    tag_38:\n      pop\n      tag_39\n      0x04\n      dup1\n      calldatasize\n      sub\n      dup2\n      add\n      swap1\n      tag_40\n      swap2\n      swap1\n      tag_41\n      jump\t// in\n    tag_40:\n      tag_42\n      jump\t// in\n    tag_39:\n      stop\n        /* \"contracts/16_DatacapGatewayAxelar.sol\":2155:2253  function hasAccess() external view onlyEscrowContracts returns (bool) {... */\n    tag_8:\n      callvalue\n      dup1\n      iszero\n      tag_43\n      jumpi\n      0x00\n      dup1\n      revert\n    tag_43:\n      pop\n      tag_44\n      tag_45\n      jump\t// in\n    tag_44:\n      mload(0x40)\n      tag_46\n      swap2\n      swap1\n      tag_47\n      jump\t// in\n    tag_46:\n      mload(0x40)\n      dup1\n      swap2\n      sub\n      swap1\n      return\n        /* \"@openzeppelin/contracts/access/Ownable.sol\":1638:1723  function owner() public view virtual returns (address) {... */\n    tag_9:\n      callvalue\n      dup1\n      iszero\n      tag_48\n      jumpi\n      0x00\n      dup1\n      revert\n    tag_48:\n      pop\n      tag_49\n      tag_50\n      jump\t// in\n    tag_49:\n      mload(0x40)\n      tag_51\n      swap2\n      swap1\n      tag_29\n      jump\t// in\n    tag_51:\n      mload(0x40)\n      dup1\n      swap2\n      sub\n      swap1\n      return\n        /* \"contracts/16_DatacapGatewayAxelar.sol\":1553:1745  function setStorageProviderEscrowFactory(address storageProviderEscrowFactoryAddress) external onlyOwner {... */\n    tag_10:\n      callvalue\n      dup1\n      iszero\n      tag_52\n      jumpi\n      0x00\n      dup1\n      revert\n    tag_52:\n      pop\n      tag_53\n      0x04\n      dup1\n      calldatasize\n      sub\n      dup2\n      add\n      swap1\n      tag_54\n      swap2\n      swap1\n      tag_55\n      jump\t// in\n    tag_54:\n      tag_56\n      jump\t// in\n    tag_53:\n      stop\n        /* \"contracts/16_DatacapGatewayAxelar.sol\":844:867  string public destChain */\n    tag_11:\n      callvalue\n      dup1\n      iszero\n      tag_57\n      jumpi\n      0x00\n      dup1\n      revert\n    tag_57:\n      pop\n      tag_58\n      tag_59\n      jump\t// in\n    tag_58:\n      mload(0x40)\n      tag_60\n      swap2\n      swap1\n      tag_24\n      jump\t// in\n    tag_60:\n      mload(0x40)\n      dup1\n      swap2\n      sub\n      swap1\n      return\n        /* \"contracts/16_DatacapGatewayAxelar.sol\":699:746  address public storageProviderEscrowFactoryAddr */\n    tag_12:\n      callvalue\n      dup1\n      iszero\n      tag_61\n      jumpi\n      0x00\n      dup1\n      revert\n    tag_61:\n      pop\n      tag_62\n      tag_63\n      jump\t// in\n    tag_62:\n      mload(0x40)\n      tag_64\n      swap2\n      swap1\n      tag_29\n      jump\t// in\n    tag_64:\n      mload(0x40)\n      dup1\n      swap2\n      sub\n      swap1\n      return\n        /* \"contracts/16_DatacapGatewayAxelar.sol\":2782:3296  function grantDatacapMock(address clientFilecoinAddress, uint256 amount) external payable onlyEscrowContracts {... */\n    tag_13:\n      tag_65\n      0x04\n      dup1\n      calldatasize\n      sub\n      dup2\n      add\n      swap1\n      tag_66\n      swap2\n      swap1\n      tag_67\n      jump\t// in\n    tag_66:\n      tag_68\n      jump\t// in\n    tag_65:\n      stop\n        /* \"@openzeppelin/contracts/access/Ownable.sol\":2543:2758  function transferOwnership(address newOwner) public virtual onlyOwner {... */\n    tag_14:\n      callvalue\n      dup1\n      iszero\n      tag_69\n      jumpi\n      0x00\n      dup1\n      revert\n    tag_69:\n      pop\n      tag_70\n      0x04\n      dup1\n      calldatasize\n      sub\n      dup2\n      add\n      swap1\n      tag_71\n      swap2\n      swap1\n      tag_55\n      jump\t// in\n    tag_71:\n      tag_72\n      jump\t// in\n    tag_70:\n      stop\n        /* \"contracts/16_DatacapGatewayAxelar.sol\":2259:2776  function grantDatacap(bytes calldata clientFilecoinAddress, uint256 amount) external payable onlyEscrowContracts {... */\n    tag_15:\n      tag_73\n      0x04\n      dup1\n      calldatasize\n      sub\n      dup2\n      add\n      swap1\n      tag_74\n      swap2\n      swap1\n      tag_75\n      jump\t// in\n    tag_74:\n      tag_76\n      jump\t// in\n    tag_73:\n      stop\n        /* \"contracts/16_DatacapGatewayAxelar.sol\":874:896  string public destAddr */\n    tag_22:\n      0x04\n      dup1\n      sload\n      tag_77\n      swap1\n      tag_78\n      jump\t// in\n    tag_77:\n      dup1\n      0x1f\n      add\n      0x20\n      dup1\n      swap2\n      div\n      mul\n      0x20\n      add\n      mload(0x40)\n      swap1\n      dup2\n      add\n      0x40\n      mstore\n      dup1\n      swap3\n      swap2\n      swap1\n      dup2\n      dup2\n      mstore\n      0x20\n      add\n      dup3\n      dup1\n      sload\n      tag_79\n      swap1\n      tag_78\n      jump\t// in\n    tag_79:\n      dup1\n      iszero\n      tag_80\n      jumpi\n      dup1\n      0x1f\n      lt\n      tag_81\n      jumpi\n      0x0100\n      dup1\n      dup4\n      sload\n      div\n      mul\n      dup4\n      mstore\n      swap2\n      0x20\n      add\n      swap2\n      jump(tag_80)\n    tag_81:\n      dup3\n      add\n      swap2\n      swap1\n      0x00\n      mstore\n      keccak256(0x00, 0x20)\n      swap1\n    tag_82:\n      dup2\n      sload\n      dup2\n      mstore\n      swap1\n      0x01\n      add\n      swap1\n      0x20\n      add\n      dup1\n      dup4\n      gt\n      tag_82\n      jumpi\n      dup3\n      swap1\n      sub\n      0x1f\n      and\n      dup3\n      add\n      swap2\n    tag_80:\n      pop\n      pop\n      pop\n      pop\n      pop\n      dup2\n      jump\t// out\n        /* \"contracts/16_DatacapGatewayAxelar.sol\":753:785  address public axelarGatewayAddr */\n    tag_27:\n      0x02\n      0x00\n      swap1\n      sload\n      swap1\n      0x0100\n      exp\n      swap1\n      div\n      0xffffffffffffffffffffffffffffffffffffffff\n      and\n      dup2\n      jump\t// out\n        /* \"contracts/16_DatacapGatewayAxelar.sol\":792:837  IAxelarGasService public immutable gasService */\n    tag_32:\n      immutable(\"0xe3fb6c7a68b97a1574f1623712f47cd0a60a3212aae0a2101a56c312e7330127\")\n      dup2\n      jump\t// out\n        /* \"@openzeppelin/contracts/access/Ownable.sol\":2293:2394  function renounceOwnership() public virtual onlyOwner {... */\n    tag_37:\n        /* \"@openzeppelin/contracts/access/Ownable.sol\":1531:1544  _checkOwner() */\n      tag_84\n        /* \"@openzeppelin/contracts/access/Ownable.sol\":1531:1542  _checkOwner */\n      tag_85\n        /* \"@openzeppelin/contracts/access/Ownable.sol\":1531:1544  _checkOwner() */\n      jump\t// in\n    tag_84:\n        /* \"@openzeppelin/contracts/access/Ownable.sol\":2357:2387  _transferOwnership(address(0)) */\n      tag_87\n        /* \"@openzeppelin/contracts/access/Ownable.sol\":2384:2385  0 */\n      0x00\n        /* \"@openzeppelin/contracts/access/Ownable.sol\":2357:2375  _transferOwnership */\n      tag_88\n        /* \"@openzeppelin/contracts/access/Ownable.sol\":2357:2387  _transferOwnership(address(0)) */\n      jump\t// in\n    tag_87:\n        /* \"@openzeppelin/contracts/access/Ownable.sol\":2293:2394  function renounceOwnership() public virtual onlyOwner {... */\n      jump\t// out\n        /* \"contracts/16_DatacapGatewayAxelar.sol\":1346:1547  function setDestChainAndAddress(string memory destinationChain, string memory destinationAddress) external onlyOwner {... */\n    tag_42:\n        /* \"@openzeppelin/contracts/access/Ownable.sol\":1531:1544  _checkOwner() */\n      tag_90\n        /* \"@openzeppelin/contracts/access/Ownable.sol\":1531:1542  _checkOwner */\n      tag_85\n        /* \"@openzeppelin/contracts/access/Ownable.sol\":1531:1544  _checkOwner() */\n      jump\t// in\n    tag_90:\n        /* \"contracts/16_DatacapGatewayAxelar.sol\":1485:1501  destinationChain */\n      dup2\n        /* \"contracts/16_DatacapGatewayAxelar.sol\":1473:1482  destChain */\n      0x03\n        /* \"contracts/16_DatacapGatewayAxelar.sol\":1473:1501  destChain = destinationChain */\n      swap1\n      dup2\n      tag_92\n      swap2\n      swap1\n      tag_93\n      jump\t// in\n    tag_92:\n      pop\n        /* \"contracts/16_DatacapGatewayAxelar.sol\":1522:1540  destinationAddress */\n      dup1\n        /* \"contracts/16_DatacapGatewayAxelar.sol\":1511:1519  destAddr */\n      0x04\n        /* \"contracts/16_DatacapGatewayAxelar.sol\":1511:1540  destAddr = destinationAddress */\n      swap1\n      dup2\n      tag_94\n      swap2\n      swap1\n      tag_93\n      jump\t// in\n    tag_94:\n      pop\n        /* \"contracts/16_DatacapGatewayAxelar.sol\":1346:1547  function setDestChainAndAddress(string memory destinationChain, string memory destinationAddress) external onlyOwner {... */\n      pop\n      pop\n      jump\t// out\n        /* \"contracts/16_DatacapGatewayAxelar.sol\":2155:2253  function hasAccess() external view onlyEscrowContracts returns (bool) {... */\n    tag_45:\n        /* \"contracts/16_DatacapGatewayAxelar.sol\":2219:2223  bool */\n      0x00\n        /* \"contracts/16_DatacapGatewayAxelar.sol\":1840:1841  0 */\n      dup1\n        /* \"contracts/16_DatacapGatewayAxelar.sol\":1796:1842  storageProviderEscrowFactoryAddr == address(0) */\n      0xffffffffffffffffffffffffffffffffffffffff\n      and\n        /* \"contracts/16_DatacapGatewayAxelar.sol\":1796:1828  storageProviderEscrowFactoryAddr */\n      0x01\n      0x00\n      swap1\n      sload\n      swap1\n      0x0100\n      exp\n      swap1\n      div\n      0xffffffffffffffffffffffffffffffffffffffff\n      and\n        /* \"contracts/16_DatacapGatewayAxelar.sol\":1796:1842  storageProviderEscrowFactoryAddr == address(0) */\n      0xffffffffffffffffffffffffffffffffffffffff\n      and\n      sub\n        /* \"contracts/16_DatacapGatewayAxelar.sol\":1792:1911  if (storageProviderEscrowFactoryAddr == address(0)) {... */\n      tag_96\n      jumpi\n        /* \"contracts/16_DatacapGatewayAxelar.sol\":1865:1900  StorageProviderEscrowFactoryUnset() */\n      mload(0x40)\n      0xf37741d700000000000000000000000000000000000000000000000000000000\n      dup2\n      mstore\n      0x04\n      add\n      mload(0x40)\n      dup1\n      swap2\n      sub\n      swap1\n      revert\n        /* \"contracts/16_DatacapGatewayAxelar.sol\":1792:1911  if (storageProviderEscrowFactoryAddr == address(0)) {... */\n    tag_96:\n        /* \"contracts/16_DatacapGatewayAxelar.sol\":1921:1958  IStorageProviderEscrowFactory factory */\n      0x00\n        /* \"contracts/16_DatacapGatewayAxelar.sol\":1991:2023  storageProviderEscrowFactoryAddr */\n      0x01\n      0x00\n      swap1\n      sload\n      swap1\n      0x0100\n      exp\n      swap1\n      div\n      0xffffffffffffffffffffffffffffffffffffffff\n      and\n        /* \"contracts/16_DatacapGatewayAxelar.sol\":1921:2024  IStorageProviderEscrowFactory factory = IStorageProviderEscrowFactory(storageProviderEscrowFactoryAddr) */\n      swap1\n      pop\n        /* \"contracts/16_DatacapGatewayAxelar.sol\":2039:2046  factory */\n      dup1\n        /* \"contracts/16_DatacapGatewayAxelar.sol\":2039:2055  factory.isEscrow */\n      0xffffffffffffffffffffffffffffffffffffffff\n      and\n      0xb166a09f\n        /* \"contracts/16_DatacapGatewayAxelar.sol\":2056:2066  msg.sender */\n      caller\n        /* \"contracts/16_DatacapGatewayAxelar.sol\":2039:2067  factory.isEscrow(msg.sender) */\n      mload(0x40)\n      dup3\n      0xffffffff\n      and\n      0xe0\n      shl\n      dup2\n      mstore\n      0x04\n      add\n      tag_97\n      swap2\n      swap1\n      tag_29\n      jump\t// in\n    tag_97:\n      0x20\n      mload(0x40)\n      dup1\n      dup4\n      sub\n      dup2\n      dup7\n      gas\n      staticcall\n      iszero\n      dup1\n      iszero\n      tag_99\n      jumpi\n      returndatasize\n      0x00\n      dup1\n      returndatacopy\n      revert(0x00, returndatasize)\n    tag_99:\n      pop\n      pop\n      pop\n      pop\n      mload(0x40)\n      returndatasize\n      not(0x1f)\n      0x1f\n      dup3\n      add\n      and\n      dup3\n      add\n      dup1\n      0x40\n      mstore\n      pop\n      dup2\n      add\n      swap1\n      tag_100\n      swap2\n      swap1\n      tag_101\n      jump\t// in\n    tag_100:\n        /* \"contracts/16_DatacapGatewayAxelar.sol\":2034:2132  if (!factory.isEscrow(msg.sender)) {... */\n      tag_102\n      jumpi\n        /* \"contracts/16_DatacapGatewayAxelar.sol\":2110:2120  msg.sender */\n      caller\n        /* \"contracts/16_DatacapGatewayAxelar.sol\":2090:2121  UnauthorizedAccount(msg.sender) */\n      mload(0x40)\n      0x32b2baa300000000000000000000000000000000000000000000000000000000\n      dup2\n      mstore\n      0x04\n      add\n      tag_103\n      swap2\n      swap1\n      tag_29\n      jump\t// in\n    tag_103:\n      mload(0x40)\n      dup1\n      swap2\n      sub\n      swap1\n      revert\n        /* \"contracts/16_DatacapGatewayAxelar.sol\":2034:2132  if (!factory.isEscrow(msg.sender)) {... */\n    tag_102:\n        /* \"contracts/16_DatacapGatewayAxelar.sol\":2242:2246  true */\n      0x01\n        /* \"contracts/16_DatacapGatewayAxelar.sol\":2235:2246  return true */\n      swap2\n      pop\n        /* \"contracts/16_DatacapGatewayAxelar.sol\":1782:2149  {... */\n      pop\n        /* \"contracts/16_DatacapGatewayAxelar.sol\":2155:2253  function hasAccess() external view onlyEscrowContracts returns (bool) {... */\n      swap1\n      jump\t// out\n        /* \"@openzeppelin/contracts/access/Ownable.sol\":1638:1723  function owner() public view virtual returns (address) {... */\n    tag_50:\n        /* \"@openzeppelin/contracts/access/Ownable.sol\":1684:1691  address */\n      0x00\n        /* \"@openzeppelin/contracts/access/Ownable.sol\":1710:1716  _owner */\n      dup1\n      0x00\n      swap1\n      sload\n      swap1\n      0x0100\n      exp\n      swap1\n      div\n      0xffffffffffffffffffffffffffffffffffffffff\n      and\n        /* \"@openzeppelin/contracts/access/Ownable.sol\":1703:1716  return _owner */\n      swap1\n      pop\n        /* \"@openzeppelin/contracts/access/Ownable.sol\":1638:1723  function owner() public view virtual returns (address) {... */\n      swap1\n      jump\t// out\n        /* \"contracts/16_DatacapGatewayAxelar.sol\":1553:1745  function setStorageProviderEscrowFactory(address storageProviderEscrowFactoryAddress) external onlyOwner {... */\n    tag_56:\n        /* \"@openzeppelin/contracts/access/Ownable.sol\":1531:1544  _checkOwner() */\n      tag_107\n        /* \"@openzeppelin/contracts/access/Ownable.sol\":1531:1542  _checkOwner */\n      tag_85\n        /* \"@openzeppelin/contracts/access/Ownable.sol\":1531:1544  _checkOwner() */\n      jump\t// in\n    tag_107:\n        /* \"contracts/16_DatacapGatewayAxelar.sol\":1703:1738  storageProviderEscrowFactoryAddress */\n      dup1\n        /* \"contracts/16_DatacapGatewayAxelar.sol\":1668:1700  storageProviderEscrowFactoryAddr */\n      0x01\n      0x00\n        /* \"contracts/16_DatacapGatewayAxelar.sol\":1668:1738  storageProviderEscrowFactoryAddr = storageProviderEscrowFactoryAddress */\n      0x0100\n      exp\n      dup2\n      sload\n      dup2\n      0xffffffffffffffffffffffffffffffffffffffff\n      mul\n      not\n      and\n      swap1\n      dup4\n      0xffffffffffffffffffffffffffffffffffffffff\n      and\n      mul\n      or\n      swap1\n      sstore\n      pop\n        /* \"contracts/16_DatacapGatewayAxelar.sol\":1553:1745  function setStorageProviderEscrowFactory(address storageProviderEscrowFactoryAddress) external onlyOwner {... */\n      pop\n      jump\t// out\n        /* \"contracts/16_DatacapGatewayAxelar.sol\":844:867  string public destChain */\n    tag_59:\n      0x03\n      dup1\n      sload\n      tag_109\n      swap1\n      tag_78\n      jump\t// in\n    tag_109:\n      dup1\n      0x1f\n      add\n      0x20\n      dup1\n      swap2\n      div\n      mul\n      0x20\n      add\n      mload(0x40)\n      swap1\n      dup2\n      add\n      0x40\n      mstore\n      dup1\n      swap3\n      swap2\n      swap1\n      dup2\n      dup2\n      mstore\n      0x20\n      add\n      dup3\n      dup1\n      sload\n      tag_110\n      swap1\n      tag_78\n      jump\t// in\n    tag_110:\n      dup1\n      iszero\n      tag_111\n      jumpi\n      dup1\n      0x1f\n      lt\n      tag_112\n      jumpi\n      0x0100\n      dup1\n      dup4\n      sload\n      div\n      mul\n      dup4\n      mstore\n      swap2\n      0x20\n      add\n      swap2\n      jump(tag_111)\n    tag_112:\n      dup3\n      add\n      swap2\n      swap1\n      0x00\n      mstore\n      keccak256(0x00, 0x20)\n      swap1\n    tag_113:\n      dup2\n      sload\n      dup2\n      mstore\n      swap1\n      0x01\n      add\n      swap1\n      0x20\n      add\n      dup1\n      dup4\n      gt\n      tag_113\n      jumpi\n      dup3\n      swap1\n      sub\n      0x1f\n      and\n      dup3\n      add\n      swap2\n    tag_111:\n      pop\n      pop\n      pop\n      pop\n      pop\n      dup2\n      jump\t// out\n        /* \"contracts/16_DatacapGatewayAxelar.sol\":699:746  address public storageProviderEscrowFactoryAddr */\n    tag_63:\n      0x01\n      0x00\n      swap1\n      sload\n      swap1\n      0x0100\n      exp\n      swap1\n      div\n      0xffffffffffffffffffffffffffffffffffffffff\n      and\n      dup2\n      jump\t// out\n        /* \"contracts/16_DatacapGatewayAxelar.sol\":2782:3296  function grantDatacapMock(address clientFilecoinAddress, uint256 amount) external payable onlyEscrowContracts {... */\n    tag_68:\n        /* \"contracts/16_DatacapGatewayAxelar.sol\":1840:1841  0 */\n      0x00\n        /* \"contracts/16_DatacapGatewayAxelar.sol\":1796:1842  storageProviderEscrowFactoryAddr == address(0) */\n      0xffffffffffffffffffffffffffffffffffffffff\n      and\n        /* \"contracts/16_DatacapGatewayAxelar.sol\":1796:1828  storageProviderEscrowFactoryAddr */\n      0x01\n      0x00\n      swap1\n      sload\n      swap1\n      0x0100\n      exp\n      swap1\n      div\n      0xffffffffffffffffffffffffffffffffffffffff\n      and\n        /* \"contracts/16_DatacapGatewayAxelar.sol\":1796:1842  storageProviderEscrowFactoryAddr == address(0) */\n      0xffffffffffffffffffffffffffffffffffffffff\n      and\n      sub\n        /* \"contracts/16_DatacapGatewayAxelar.sol\":1792:1911  if (storageProviderEscrowFactoryAddr == address(0)) {... */\n      tag_115\n      jumpi\n        /* \"contracts/16_DatacapGatewayAxelar.sol\":1865:1900  StorageProviderEscrowFactoryUnset() */\n      mload(0x40)\n      0xf37741d700000000000000000000000000000000000000000000000000000000\n      dup2\n      mstore\n      0x04\n      add\n      mload(0x40)\n      dup1\n      swap2\n      sub\n      swap1\n      revert\n        /* \"contracts/16_DatacapGatewayAxelar.sol\":1792:1911  if (storageProviderEscrowFactoryAddr == address(0)) {... */\n    tag_115:\n        /* \"contracts/16_DatacapGatewayAxelar.sol\":1921:1958  IStorageProviderEscrowFactory factory */\n      0x00\n        /* \"contracts/16_DatacapGatewayAxelar.sol\":1991:2023  storageProviderEscrowFactoryAddr */\n      0x01\n      0x00\n      swap1\n      sload\n      swap1\n      0x0100\n      exp\n      swap1\n      div\n      0xffffffffffffffffffffffffffffffffffffffff\n      and\n        /* \"contracts/16_DatacapGatewayAxelar.sol\":1921:2024  IStorageProviderEscrowFactory factory = IStorageProviderEscrowFactory(storageProviderEscrowFactoryAddr) */\n      swap1\n      pop\n        /* \"contracts/16_DatacapGatewayAxelar.sol\":2039:2046  factory */\n      dup1\n        /* \"contracts/16_DatacapGatewayAxelar.sol\":2039:2055  factory.isEscrow */\n      0xffffffffffffffffffffffffffffffffffffffff\n      and\n      0xb166a09f\n        /* \"contracts/16_DatacapGatewayAxelar.sol\":2056:2066  msg.sender */\n      caller\n        /* \"contracts/16_DatacapGatewayAxelar.sol\":2039:2067  factory.isEscrow(msg.sender) */\n      mload(0x40)\n      dup3\n      0xffffffff\n      and\n      0xe0\n      shl\n      dup2\n      mstore\n      0x04\n      add\n      tag_116\n      swap2\n      swap1\n      tag_29\n      jump\t// in\n    tag_116:\n      0x20\n      mload(0x40)\n      dup1\n      dup4\n      sub\n      dup2\n      dup7\n      gas\n      staticcall\n      iszero\n      dup1\n      iszero\n      tag_118\n      jumpi\n      returndatasize\n      0x00\n      dup1\n      returndatacopy\n      revert(0x00, returndatasize)\n    tag_118:\n      pop\n      pop\n      pop\n      pop\n      mload(0x40)\n      returndatasize\n      not(0x1f)\n      0x1f\n      dup3\n      add\n      and\n      dup3\n      add\n      dup1\n      0x40\n      mstore\n      pop\n      dup2\n      add\n      swap1\n      tag_119\n      swap2\n      swap1\n      tag_101\n      jump\t// in\n    tag_119:\n        /* \"contracts/16_DatacapGatewayAxelar.sol\":2034:2132  if (!factory.isEscrow(msg.sender)) {... */\n      tag_120\n      jumpi\n        /* \"contracts/16_DatacapGatewayAxelar.sol\":2110:2120  msg.sender */\n      caller\n        /* \"contracts/16_DatacapGatewayAxelar.sol\":2090:2121  UnauthorizedAccount(msg.sender) */\n      mload(0x40)\n      0x32b2baa300000000000000000000000000000000000000000000000000000000\n      dup2\n      mstore\n      0x04\n      add\n      tag_121\n      swap2\n      swap1\n      tag_29\n      jump\t// in\n    tag_121:\n      mload(0x40)\n      dup1\n      swap2\n      sub\n      swap1\n      revert\n        /* \"contracts/16_DatacapGatewayAxelar.sol\":2034:2132  if (!factory.isEscrow(msg.sender)) {... */\n    tag_120:\n        /* \"contracts/16_DatacapGatewayAxelar.sol\":2902:2922  bytes memory payload */\n      0x00\n        /* \"contracts/16_DatacapGatewayAxelar.sol\":2936:2957  clientFilecoinAddress */\n      dup4\n        /* \"contracts/16_DatacapGatewayAxelar.sol\":2959:2965  amount */\n      dup4\n        /* \"contracts/16_DatacapGatewayAxelar.sol\":2925:2966  abi.encode(clientFilecoinAddress, amount) */\n      add(0x20, mload(0x40))\n      tag_123\n      swap3\n      swap2\n      swap1\n      tag_124\n      jump\t// in\n    tag_123:\n      mload(0x40)\n      0x20\n      dup2\n      dup4\n      sub\n      sub\n      dup2\n      mstore\n      swap1\n      0x40\n      mstore\n        /* \"contracts/16_DatacapGatewayAxelar.sol\":2902:2966  bytes memory payload = abi.encode(clientFilecoinAddress, amount) */\n      swap1\n      pop\n        /* \"contracts/16_DatacapGatewayAxelar.sol\":2976:2986  gasService */\n      immutable(\"0xe3fb6c7a68b97a1574f1623712f47cd0a60a3212aae0a2101a56c312e7330127\")\n        /* \"contracts/16_DatacapGatewayAxelar.sol\":2976:3014  gasService.payNativeGasForContractCall */\n      0xffffffffffffffffffffffffffffffffffffffff\n      and\n      0x0c93e3bb\n        /* \"contracts/16_DatacapGatewayAxelar.sol\":3023:3032  msg.value */\n      callvalue\n        /* \"contracts/16_DatacapGatewayAxelar.sol\":3056:3060  this */\n      address\n        /* \"contracts/16_DatacapGatewayAxelar.sol\":3075:3084  destChain */\n      0x03\n        /* \"contracts/16_DatacapGatewayAxelar.sol\":3098:3106  destAddr */\n      0x04\n        /* \"contracts/16_DatacapGatewayAxelar.sol\":3120:3127  payload */\n      dup7\n        /* \"contracts/16_DatacapGatewayAxelar.sol\":3141:3151  msg.sender */\n      caller\n        /* \"contracts/16_DatacapGatewayAxelar.sol\":2976:3161  gasService.payNativeGasForContractCall{ value: msg.value }(... */\n      mload(0x40)\n      dup8\n      0xffffffff\n      and\n      0xe0\n      shl\n      dup2\n      mstore\n      0x04\n      add\n      tag_125\n      swap6\n      swap5\n      swap4\n      swap3\n      swap2\n      swap1\n      tag_126\n      jump\t// in\n    tag_125:\n      0x00\n      mload(0x40)\n      dup1\n      dup4\n      sub\n      dup2\n      dup6\n      dup9\n      dup1\n      extcodesize\n      iszero\n      dup1\n      iszero\n      tag_127\n      jumpi\n      0x00\n      dup1\n      revert\n    tag_127:\n      pop\n      gas\n      call\n      iszero\n      dup1\n      iszero\n      tag_129\n      jumpi\n      returndatasize\n      0x00\n      dup1\n      returndatacopy\n      revert(0x00, returndatasize)\n    tag_129:\n      pop\n      pop\n      pop\n      pop\n      pop\n        /* \"contracts/16_DatacapGatewayAxelar.sol\":3171:3193  IAxelarGateway gateway */\n      0x00\n        /* \"contracts/16_DatacapGatewayAxelar.sol\":3211:3228  axelarGatewayAddr */\n      0x02\n      0x00\n      swap1\n      sload\n      swap1\n      0x0100\n      exp\n      swap1\n      div\n      0xffffffffffffffffffffffffffffffffffffffff\n      and\n        /* \"contracts/16_DatacapGatewayAxelar.sol\":3171:3229  IAxelarGateway gateway = IAxelarGateway(axelarGatewayAddr) */\n      swap1\n      pop\n        /* \"contracts/16_DatacapGatewayAxelar.sol\":3239:3246  gateway */\n      dup1\n        /* \"contracts/16_DatacapGatewayAxelar.sol\":3239:3259  gateway.callContract */\n      0xffffffffffffffffffffffffffffffffffffffff\n      and\n      0x1c92115f\n        /* \"contracts/16_DatacapGatewayAxelar.sol\":3260:3269  destChain */\n      0x03\n        /* \"contracts/16_DatacapGatewayAxelar.sol\":3271:3279  destAddr */\n      0x04\n        /* \"contracts/16_DatacapGatewayAxelar.sol\":3281:3288  payload */\n      dup6\n        /* \"contracts/16_DatacapGatewayAxelar.sol\":3239:3289  gateway.callContract(destChain, destAddr, payload) */\n      mload(0x40)\n      dup5\n      0xffffffff\n      and\n      0xe0\n      shl\n      dup2\n      mstore\n      0x04\n      add\n      tag_130\n      swap4\n      swap3\n      swap2\n      swap1\n      tag_131\n      jump\t// in\n    tag_130:\n      0x00\n      mload(0x40)\n      dup1\n      dup4\n      sub\n      dup2\n      0x00\n      dup8\n      dup1\n      extcodesize\n      iszero\n      dup1\n      iszero\n      tag_132\n      jumpi\n      0x00\n      dup1\n      revert\n    tag_132:\n      pop\n      gas\n      call\n      iszero\n      dup1\n      iszero\n      tag_134\n      jumpi\n      returndatasize\n      0x00\n      dup1\n      returndatacopy\n      revert(0x00, returndatasize)\n    tag_134:\n      pop\n      pop\n      pop\n      pop\n        /* \"contracts/16_DatacapGatewayAxelar.sol\":2892:3296  {... */\n      pop\n      pop\n        /* \"contracts/16_DatacapGatewayAxelar.sol\":1782:2149  {... */\n      pop\n        /* \"contracts/16_DatacapGatewayAxelar.sol\":2782:3296  function grantDatacapMock(address clientFilecoinAddress, uint256 amount) external payable onlyEscrowContracts {... */\n      pop\n      pop\n      jump\t// out\n        /* \"@openzeppelin/contracts/access/Ownable.sol\":2543:2758  function transferOwnership(address newOwner) public virtual onlyOwner {... */\n    tag_72:\n        /* \"@openzeppelin/contracts/access/Ownable.sol\":1531:1544  _checkOwner() */\n      tag_136\n        /* \"@openzeppelin/contracts/access/Ownable.sol\":1531:1542  _checkOwner */\n      tag_85\n        /* \"@openzeppelin/contracts/access/Ownable.sol\":1531:1544  _checkOwner() */\n      jump\t// in\n    tag_136:\n        /* \"@openzeppelin/contracts/access/Ownable.sol\":2647:2648  0 */\n      0x00\n        /* \"@openzeppelin/contracts/access/Ownable.sol\":2627:2649  newOwner == address(0) */\n      0xffffffffffffffffffffffffffffffffffffffff\n      and\n        /* \"@openzeppelin/contracts/access/Ownable.sol\":2627:2635  newOwner */\n      dup2\n        /* \"@openzeppelin/contracts/access/Ownable.sol\":2627:2649  newOwner == address(0) */\n      0xffffffffffffffffffffffffffffffffffffffff\n      and\n      sub\n        /* \"@openzeppelin/contracts/access/Ownable.sol\":2623:2714  if (newOwner == address(0)) {... */\n      tag_138\n      jumpi\n        /* \"@openzeppelin/contracts/access/Ownable.sol\":2700:2701  0 */\n      0x00\n        /* \"@openzeppelin/contracts/access/Ownable.sol\":2672:2703  OwnableInvalidOwner(address(0)) */\n      mload(0x40)\n      0x1e4fbdf700000000000000000000000000000000000000000000000000000000\n      dup2\n      mstore\n      0x04\n      add\n      tag_139\n      swap2\n      swap1\n      tag_29\n      jump\t// in\n    tag_139:\n      mload(0x40)\n      dup1\n      swap2\n      sub\n      swap1\n      revert\n        /* \"@openzeppelin/contracts/access/Ownable.sol\":2623:2714  if (newOwner == address(0)) {... */\n    tag_138:\n        /* \"@openzeppelin/contracts/access/Ownable.sol\":2723:2751  _transferOwnership(newOwner) */\n      tag_140\n        /* \"@openzeppelin/contracts/access/Ownable.sol\":2742:2750  newOwner */\n      dup2\n        /* \"@openzeppelin/contracts/access/Ownable.sol\":2723:2741  _transferOwnership */\n      tag_88\n        /* \"@openzeppelin/contracts/access/Ownable.sol\":2723:2751  _transferOwnership(newOwner) */\n      jump\t// in\n    tag_140:\n        /* \"@openzeppelin/contracts/access/Ownable.sol\":2543:2758  function transferOwnership(address newOwner) public virtual onlyOwner {... */\n      pop\n      jump\t// out\n        /* \"contracts/16_DatacapGatewayAxelar.sol\":2259:2776  function grantDatacap(bytes calldata clientFilecoinAddress, uint256 amount) external payable onlyEscrowContracts {... */\n    tag_76:\n        /* \"contracts/16_DatacapGatewayAxelar.sol\":1840:1841  0 */\n      0x00\n        /* \"contracts/16_DatacapGatewayAxelar.sol\":1796:1842  storageProviderEscrowFactoryAddr == address(0) */\n      0xffffffffffffffffffffffffffffffffffffffff\n      and\n        /* \"contracts/16_DatacapGatewayAxelar.sol\":1796:1828  storageProviderEscrowFactoryAddr */\n      0x01\n      0x00\n      swap1\n      sload\n      swap1\n      0x0100\n      exp\n      swap1\n      div\n      0xffffffffffffffffffffffffffffffffffffffff\n      and\n        /* \"contracts/16_DatacapGatewayAxelar.sol\":1796:1842  storageProviderEscrowFactoryAddr == address(0) */\n      0xffffffffffffffffffffffffffffffffffffffff\n      and\n      sub\n        /* \"contracts/16_DatacapGatewayAxelar.sol\":1792:1911  if (storageProviderEscrowFactoryAddr == address(0)) {... */\n      tag_142\n      jumpi\n        /* \"contracts/16_DatacapGatewayAxelar.sol\":1865:1900  StorageProviderEscrowFactoryUnset() */\n      mload(0x40)\n      0xf37741d700000000000000000000000000000000000000000000000000000000\n      dup2\n      mstore\n      0x04\n      add\n      mload(0x40)\n      dup1\n      swap2\n      sub\n      swap1\n      revert\n        /* \"contracts/16_DatacapGatewayAxelar.sol\":1792:1911  if (storageProviderEscrowFactoryAddr == address(0)) {... */\n    tag_142:\n        /* \"contracts/16_DatacapGatewayAxelar.sol\":1921:1958  IStorageProviderEscrowFactory factory */\n      0x00\n        /* \"contracts/16_DatacapGatewayAxelar.sol\":1991:2023  storageProviderEscrowFactoryAddr */\n      0x01\n      0x00\n      swap1\n      sload\n      swap1\n      0x0100\n      exp\n      swap1\n      div\n      0xffffffffffffffffffffffffffffffffffffffff\n      and\n        /* \"contracts/16_DatacapGatewayAxelar.sol\":1921:2024  IStorageProviderEscrowFactory factory = IStorageProviderEscrowFactory(storageProviderEscrowFactoryAddr) */\n      swap1\n      pop\n        /* \"contracts/16_DatacapGatewayAxelar.sol\":2039:2046  factory */\n      dup1\n        /* \"contracts/16_DatacapGatewayAxelar.sol\":2039:2055  factory.isEscrow */\n      0xffffffffffffffffffffffffffffffffffffffff\n      and\n      0xb166a09f\n        /* \"contracts/16_DatacapGatewayAxelar.sol\":2056:2066  msg.sender */\n      caller\n        /* \"contracts/16_DatacapGatewayAxelar.sol\":2039:2067  factory.isEscrow(msg.sender) */\n      mload(0x40)\n      dup3\n      0xffffffff\n      and\n      0xe0\n      shl\n      dup2\n      mstore\n      0x04\n      add\n      tag_143\n      swap2\n      swap1\n      tag_29\n      jump\t// in\n    tag_143:\n      0x20\n      mload(0x40)\n      dup1\n      dup4\n      sub\n      dup2\n      dup7\n      gas\n      staticcall\n      iszero\n      dup1\n      iszero\n      tag_145\n      jumpi\n      returndatasize\n      0x00\n      dup1\n      returndatacopy\n      revert(0x00, returndatasize)\n    tag_145:\n      pop\n      pop\n      pop\n      pop\n      mload(0x40)\n      returndatasize\n      not(0x1f)\n      0x1f\n      dup3\n      add\n      and\n      dup3\n      add\n      dup1\n      0x40\n      mstore\n      pop\n      dup2\n      add\n      swap1\n      tag_146\n      swap2\n      swap1\n      tag_101\n      jump\t// in\n    tag_146:\n        /* \"contracts/16_DatacapGatewayAxelar.sol\":2034:2132  if (!factory.isEscrow(msg.sender)) {... */\n      tag_147\n      jumpi\n        /* \"contracts/16_DatacapGatewayAxelar.sol\":2110:2120  msg.sender */\n      caller\n        /* \"contracts/16_DatacapGatewayAxelar.sol\":2090:2121  UnauthorizedAccount(msg.sender) */\n      mload(0x40)\n      0x32b2baa300000000000000000000000000000000000000000000000000000000\n      dup2\n      mstore\n      0x04\n      add\n      tag_148\n      swap2\n      swap1\n      tag_29\n      jump\t// in\n    tag_148:\n      mload(0x40)\n      dup1\n      swap2\n      sub\n      swap1\n      revert\n        /* \"contracts/16_DatacapGatewayAxelar.sol\":2034:2132  if (!factory.isEscrow(msg.sender)) {... */\n    tag_147:\n        /* \"contracts/16_DatacapGatewayAxelar.sol\":2382:2402  bytes memory payload */\n      0x00\n        /* \"contracts/16_DatacapGatewayAxelar.sol\":2416:2437  clientFilecoinAddress */\n      dup5\n      dup5\n        /* \"contracts/16_DatacapGatewayAxelar.sol\":2439:2445  amount */\n      dup5\n        /* \"contracts/16_DatacapGatewayAxelar.sol\":2405:2446  abi.encode(clientFilecoinAddress, amount) */\n      add(0x20, mload(0x40))\n      tag_150\n      swap4\n      swap3\n      swap2\n      swap1\n      tag_151\n      jump\t// in\n    tag_150:\n      mload(0x40)\n      0x20\n      dup2\n      dup4\n      sub\n      sub\n      dup2\n      mstore\n      swap1\n      0x40\n      mstore\n        /* \"contracts/16_DatacapGatewayAxelar.sol\":2382:2446  bytes memory payload = abi.encode(clientFilecoinAddress, amount) */\n      swap1\n      pop\n        /* \"contracts/16_DatacapGatewayAxelar.sol\":2456:2466  gasService */\n      immutable(\"0xe3fb6c7a68b97a1574f1623712f47cd0a60a3212aae0a2101a56c312e7330127\")\n        /* \"contracts/16_DatacapGatewayAxelar.sol\":2456:2494  gasService.payNativeGasForContractCall */\n      0xffffffffffffffffffffffffffffffffffffffff\n      and\n      0x0c93e3bb\n        /* \"contracts/16_DatacapGatewayAxelar.sol\":2503:2512  msg.value */\n      callvalue\n        /* \"contracts/16_DatacapGatewayAxelar.sol\":2536:2540  this */\n      address\n        /* \"contracts/16_DatacapGatewayAxelar.sol\":2555:2564  destChain */\n      0x03\n        /* \"contracts/16_DatacapGatewayAxelar.sol\":2578:2586  destAddr */\n      0x04\n        /* \"contracts/16_DatacapGatewayAxelar.sol\":2600:2607  payload */\n      dup7\n        /* \"contracts/16_DatacapGatewayAxelar.sol\":2621:2631  msg.sender */\n      caller\n        /* \"contracts/16_DatacapGatewayAxelar.sol\":2456:2641  gasService.payNativeGasForContractCall{ value: msg.value }(... */\n      mload(0x40)\n      dup8\n      0xffffffff\n      and\n      0xe0\n      shl\n      dup2\n      mstore\n      0x04\n      add\n      tag_152\n      swap6\n      swap5\n      swap4\n      swap3\n      swap2\n      swap1\n      tag_126\n      jump\t// in\n    tag_152:\n      0x00\n      mload(0x40)\n      dup1\n      dup4\n      sub\n      dup2\n      dup6\n      dup9\n      dup1\n      extcodesize\n      iszero\n      dup1\n      iszero\n      tag_153\n      jumpi\n      0x00\n      dup1\n      revert\n    tag_153:\n      pop\n      gas\n      call\n      iszero\n      dup1\n      iszero\n      tag_155\n      jumpi\n      returndatasize\n      0x00\n      dup1\n      returndatacopy\n      revert(0x00, returndatasize)\n    tag_155:\n      pop\n      pop\n      pop\n      pop\n      pop\n        /* \"contracts/16_DatacapGatewayAxelar.sol\":2651:2673  IAxelarGateway gateway */\n      0x00\n        /* \"contracts/16_DatacapGatewayAxelar.sol\":2691:2708  axelarGatewayAddr */\n      0x02\n      0x00\n      swap1\n      sload\n      swap1\n      0x0100\n      exp\n      swap1\n      div\n      0xffffffffffffffffffffffffffffffffffffffff\n      and\n        /* \"contracts/16_DatacapGatewayAxelar.sol\":2651:2709  IAxelarGateway gateway = IAxelarGateway(axelarGatewayAddr) */\n      swap1\n      pop\n        /* \"contracts/16_DatacapGatewayAxelar.sol\":2719:2726  gateway */\n      dup1\n        /* \"contracts/16_DatacapGatewayAxelar.sol\":2719:2739  gateway.callContract */\n      0xffffffffffffffffffffffffffffffffffffffff\n      and\n      0x1c92115f\n        /* \"contracts/16_DatacapGatewayAxelar.sol\":2740:2749  destChain */\n      0x03\n        /* \"contracts/16_DatacapGatewayAxelar.sol\":2751:2759  destAddr */\n      0x04\n        /* \"contracts/16_DatacapGatewayAxelar.sol\":2761:2768  payload */\n      dup6\n        /* \"contracts/16_DatacapGatewayAxelar.sol\":2719:2769  gateway.callContract(destChain, destAddr, payload) */\n      mload(0x40)\n      dup5\n      0xffffffff\n      and\n      0xe0\n      shl\n      dup2\n      mstore\n      0x04\n      add\n      tag_156\n      swap4\n      swap3\n      swap2\n      swap1\n      tag_131\n      jump\t// in\n    tag_156:\n      0x00\n      mload(0x40)\n      dup1\n      dup4\n      sub\n      dup2\n      0x00\n      dup8\n      dup1\n      extcodesize\n      iszero\n      dup1\n      iszero\n      tag_157\n      jumpi\n      0x00\n      dup1\n      revert\n    tag_157:\n      pop\n      gas\n      call\n      iszero\n      dup1\n      iszero\n      tag_159\n      jumpi\n      returndatasize\n      0x00\n      dup1\n      returndatacopy\n      revert(0x00, returndatasize)\n    tag_159:\n      pop\n      pop\n      pop\n      pop\n        /* \"contracts/16_DatacapGatewayAxelar.sol\":2372:2776  {... */\n      pop\n      pop\n        /* \"contracts/16_DatacapGatewayAxelar.sol\":1782:2149  {... */\n      pop\n        /* \"contracts/16_DatacapGatewayAxelar.sol\":2259:2776  function grantDatacap(bytes calldata clientFilecoinAddress, uint256 amount) external payable onlyEscrowContracts {... */\n      pop\n      pop\n      pop\n      jump\t// out\n        /* \"@openzeppelin/contracts/access/Ownable.sol\":1796:1958  function _checkOwner() internal view virtual {... */\n    tag_85:\n        /* \"@openzeppelin/contracts/access/Ownable.sol\":1866:1878  _msgSender() */\n      tag_161\n        /* \"@openzeppelin/contracts/access/Ownable.sol\":1866:1876  _msgSender */\n      tag_162\n        /* \"@openzeppelin/contracts/access/Ownable.sol\":1866:1878  _msgSender() */\n      jump\t// in\n    tag_161:\n        /* \"@openzeppelin/contracts/access/Ownable.sol\":1855:1878  owner() != _msgSender() */\n      0xffffffffffffffffffffffffffffffffffffffff\n      and\n        /* \"@openzeppelin/contracts/access/Ownable.sol\":1855:1862  owner() */\n      tag_163\n        /* \"@openzeppelin/contracts/access/Ownable.sol\":1855:1860  owner */\n      tag_50\n        /* \"@openzeppelin/contracts/access/Ownable.sol\":1855:1862  owner() */\n      jump\t// in\n    tag_163:\n        /* \"@openzeppelin/contracts/access/Ownable.sol\":1855:1878  owner() != _msgSender() */\n      0xffffffffffffffffffffffffffffffffffffffff\n      and\n      eq\n        /* \"@openzeppelin/contracts/access/Ownable.sol\":1851:1952  if (owner() != _msgSender()) {... */\n      tag_164\n      jumpi\n        /* \"@openzeppelin/contracts/access/Ownable.sol\":1928:1940  _msgSender() */\n      tag_165\n        /* \"@openzeppelin/contracts/access/Ownable.sol\":1928:1938  _msgSender */\n      tag_162\n        /* \"@openzeppelin/contracts/access/Ownable.sol\":1928:1940  _msgSender() */\n      jump\t// in\n    tag_165:\n        /* \"@openzeppelin/contracts/access/Ownable.sol\":1901:1941  OwnableUnauthorizedAccount(_msgSender()) */\n      mload(0x40)\n      0x118cdaa700000000000000000000000000000000000000000000000000000000\n      dup2\n      mstore\n      0x04\n      add\n      tag_166\n      swap2\n      swap1\n      tag_29\n      jump\t// in\n    tag_166:\n      mload(0x40)\n      dup1\n      swap2\n      sub\n      swap1\n      revert\n        /* \"@openzeppelin/contracts/access/Ownable.sol\":1851:1952  if (owner() != _msgSender()) {... */\n    tag_164:\n        /* \"@openzeppelin/contracts/access/Ownable.sol\":1796:1958  function _checkOwner() internal view virtual {... */\n      jump\t// out\n        /* \"@openzeppelin/contracts/access/Ownable.sol\":2912:3099  function _transferOwnership(address newOwner) internal virtual {... */\n    tag_88:\n        /* \"@openzeppelin/contracts/access/Ownable.sol\":2985:3001  address oldOwner */\n      0x00\n        /* \"@openzeppelin/contracts/access/Ownable.sol\":3004:3010  _owner */\n      dup1\n      0x00\n      swap1\n      sload\n      swap1\n      0x0100\n      exp\n      swap1\n      div\n      0xffffffffffffffffffffffffffffffffffffffff\n      and\n        /* \"@openzeppelin/contracts/access/Ownable.sol\":2985:3010  address oldOwner = _owner */\n      swap1\n      pop\n        /* \"@openzeppelin/contracts/access/Ownable.sol\":3029:3037  newOwner */\n      dup2\n        /* \"@openzeppelin/contracts/access/Ownable.sol\":3020:3026  _owner */\n      0x00\n      dup1\n        /* \"@openzeppelin/contracts/access/Ownable.sol\":3020:3037  _owner = newOwner */\n      0x0100\n      exp\n      dup2\n      sload\n      dup2\n      0xffffffffffffffffffffffffffffffffffffffff\n      mul\n      not\n      and\n      swap1\n      dup4\n      0xffffffffffffffffffffffffffffffffffffffff\n      and\n      mul\n      or\n      swap1\n      sstore\n      pop\n        /* \"@openzeppelin/contracts/access/Ownable.sol\":3083:3091  newOwner */\n      dup2\n        /* \"@openzeppelin/contracts/access/Ownable.sol\":3052:3092  OwnershipTransferred(oldOwner, newOwner) */\n      0xffffffffffffffffffffffffffffffffffffffff\n      and\n        /* \"@openzeppelin/contracts/access/Ownable.sol\":3073:3081  oldOwner */\n      dup2\n        /* \"@openzeppelin/contracts/access/Ownable.sol\":3052:3092  OwnershipTransferred(oldOwner, newOwner) */\n      0xffffffffffffffffffffffffffffffffffffffff\n      and\n      0x8be0079c531659141344cd1fd0a4f28419497f9722a3daafe3b4186f6b6457e0\n      mload(0x40)\n      mload(0x40)\n      dup1\n      swap2\n      sub\n      swap1\n      log3\n        /* \"@openzeppelin/contracts/access/Ownable.sol\":2975:3099  {... */\n      pop\n        /* \"@openzeppelin/contracts/access/Ownable.sol\":2912:3099  function _transferOwnership(address newOwner) internal virtual {... */\n      pop\n      jump\t// out\n        /* \"@openzeppelin/contracts/utils/Context.sol\":656:752  function _msgSender() internal view virtual returns (address) {... */\n    tag_162:\n        /* \"@openzeppelin/contracts/utils/Context.sol\":709:716  address */\n      0x00\n        /* \"@openzeppelin/contracts/utils/Context.sol\":735:745  msg.sender */\n      caller\n        /* \"@openzeppelin/contracts/utils/Context.sol\":728:745  return msg.sender */\n      swap1\n      pop\n        /* \"@openzeppelin/contracts/utils/Context.sol\":656:752  function _msgSender() internal view virtual returns (address) {... */\n      swap1\n      jump\t// out\n        /* \"#utility.yul\":7:106   */\n    tag_169:\n        /* \"#utility.yul\":59:65   */\n      0x00\n        /* \"#utility.yul\":93:98   */\n      dup2\n        /* \"#utility.yul\":87:99   */\n      mload\n        /* \"#utility.yul\":77:99   */\n      swap1\n      pop\n        /* \"#utility.yul\":7:106   */\n      swap2\n      swap1\n      pop\n      jump\t// out\n        /* \"#utility.yul\":112:281   */\n    tag_170:\n        /* \"#utility.yul\":196:207   */\n      0x00\n        /* \"#utility.yul\":230:236   */\n      dup3\n        /* \"#utility.yul\":225:228   */\n      dup3\n        /* \"#utility.yul\":218:237   */\n      mstore\n        /* \"#utility.yul\":270:274   */\n      0x20\n        /* \"#utility.yul\":265:268   */\n      dup3\n        /* \"#utility.yul\":261:275   */\n      add\n        /* \"#utility.yul\":246:275   */\n      swap1\n      pop\n        /* \"#utility.yul\":112:281   */\n      swap3\n      swap2\n      pop\n      pop\n      jump\t// out\n        /* \"#utility.yul\":287:426   */\n    tag_171:\n        /* \"#utility.yul\":376:382   */\n      dup3\n        /* \"#utility.yul\":371:374   */\n      dup2\n        /* \"#utility.yul\":366:369   */\n      dup4\n        /* \"#utility.yul\":360:383   */\n      mcopy\n        /* \"#utility.yul\":417:418   */\n      0x00\n        /* \"#utility.yul\":408:414   */\n      dup4\n        /* \"#utility.yul\":403:406   */\n      dup4\n        /* \"#utility.yul\":399:415   */\n      add\n        /* \"#utility.yul\":392:419   */\n      mstore\n        /* \"#utility.yul\":287:426   */\n      pop\n      pop\n      pop\n      jump\t// out\n        /* \"#utility.yul\":432:534   */\n    tag_172:\n        /* \"#utility.yul\":473:479   */\n      0x00\n        /* \"#utility.yul\":524:526   */\n      0x1f\n        /* \"#utility.yul\":520:527   */\n      not\n        /* \"#utility.yul\":515:517   */\n      0x1f\n        /* \"#utility.yul\":508:513   */\n      dup4\n        /* \"#utility.yul\":504:518   */\n      add\n        /* \"#utility.yul\":500:528   */\n      and\n        /* \"#utility.yul\":490:528   */\n      swap1\n      pop\n        /* \"#utility.yul\":432:534   */\n      swap2\n      swap1\n      pop\n      jump\t// out\n        /* \"#utility.yul\":540:917   */\n    tag_173:\n        /* \"#utility.yul\":628:631   */\n      0x00\n        /* \"#utility.yul\":656:695   */\n      tag_233\n        /* \"#utility.yul\":689:694   */\n      dup3\n        /* \"#utility.yul\":656:695   */\n      tag_169\n      jump\t// in\n    tag_233:\n        /* \"#utility.yul\":711:782   */\n      tag_234\n        /* \"#utility.yul\":775:781   */\n      dup2\n        /* \"#utility.yul\":770:773   */\n      dup6\n        /* \"#utility.yul\":711:782   */\n      tag_170\n      jump\t// in\n    tag_234:\n        /* \"#utility.yul\":704:782   */\n      swap4\n      pop\n        /* \"#utility.yul\":791:856   */\n      tag_235\n        /* \"#utility.yul\":849:855   */\n      dup2\n        /* \"#utility.yul\":844:847   */\n      dup6\n        /* \"#utility.yul\":837:841   */\n      0x20\n        /* \"#utility.yul\":830:835   */\n      dup7\n        /* \"#utility.yul\":826:842   */\n      add\n        /* \"#utility.yul\":791:856   */\n      tag_171\n      jump\t// in\n    tag_235:\n        /* \"#utility.yul\":881:910   */\n      tag_236\n        /* \"#utility.yul\":903:909   */\n      dup2\n        /* \"#utility.yul\":881:910   */\n      tag_172\n      jump\t// in\n    tag_236:\n        /* \"#utility.yul\":876:879   */\n      dup5\n        /* \"#utility.yul\":872:911   */\n      add\n        /* \"#utility.yul\":865:911   */\n      swap2\n      pop\n        /* \"#utility.yul\":632:917   */\n      pop\n        /* \"#utility.yul\":540:917   */\n      swap3\n      swap2\n      pop\n      pop\n      jump\t// out\n        /* \"#utility.yul\":923:1236   */\n    tag_24:\n        /* \"#utility.yul\":1036:1040   */\n      0x00\n        /* \"#utility.yul\":1074:1076   */\n      0x20\n        /* \"#utility.yul\":1063:1072   */\n      dup3\n        /* \"#utility.yul\":1059:1077   */\n      add\n        /* \"#utility.yul\":1051:1077   */\n      swap1\n      pop\n        /* \"#utility.yul\":1123:1132   */\n      dup2\n        /* \"#utility.yul\":1117:1121   */\n      dup2\n        /* \"#utility.yul\":1113:1133   */\n      sub\n        /* \"#utility.yul\":1109:1110   */\n      0x00\n        /* \"#utility.yul\":1098:1107   */\n      dup4\n        /* \"#utility.yul\":1094:1111   */\n      add\n        /* \"#utility.yul\":1087:1134   */\n      mstore\n        /* \"#utility.yul\":1151:1229   */\n      tag_238\n        /* \"#utility.yul\":1224:1228   */\n      dup2\n        /* \"#utility.yul\":1215:1221   */\n      dup5\n        /* \"#utility.yul\":1151:1229   */\n      tag_173\n      jump\t// in\n    tag_238:\n        /* \"#utility.yul\":1143:1229   */\n      swap1\n      pop\n        /* \"#utility.yul\":923:1236   */\n      swap3\n      swap2\n      pop\n      pop\n      jump\t// out\n        /* \"#utility.yul\":1242:1368   */\n    tag_174:\n        /* \"#utility.yul\":1279:1286   */\n      0x00\n        /* \"#utility.yul\":1319:1361   */\n      0xffffffffffffffffffffffffffffffffffffffff\n        /* \"#utility.yul\":1312:1317   */\n      dup3\n        /* \"#utility.yul\":1308:1362   */\n      and\n        /* \"#utility.yul\":1297:1362   */\n      swap1\n      pop\n        /* \"#utility.yul\":1242:1368   */\n      swap2\n      swap1\n      pop\n      jump\t// out\n        /* \"#utility.yul\":1374:1470   */\n    tag_175:\n        /* \"#utility.yul\":1411:1418   */\n      0x00\n        /* \"#utility.yul\":1440:1464   */\n      tag_241\n        /* \"#utility.yul\":1458:1463   */\n      dup3\n        /* \"#utility.yul\":1440:1464   */\n      tag_174\n      jump\t// in\n    tag_241:\n        /* \"#utility.yul\":1429:1464   */\n      swap1\n      pop\n        /* \"#utility.yul\":1374:1470   */\n      swap2\n      swap1\n      pop\n      jump\t// out\n        /* \"#utility.yul\":1476:1594   */\n    tag_176:\n        /* \"#utility.yul\":1563:1587   */\n      tag_243\n        /* \"#utility.yul\":1581:1586   */\n      dup2\n        /* \"#utility.yul\":1563:1587   */\n      tag_175\n      jump\t// in\n    tag_243:\n        /* \"#utility.yul\":1558:1561   */\n      dup3\n        /* \"#utility.yul\":1551:1588   */\n      mstore\n        /* \"#utility.yul\":1476:1594   */\n      pop\n      pop\n      jump\t// out\n        /* \"#utility.yul\":1600:1822   */\n    tag_29:\n        /* \"#utility.yul\":1693:1697   */\n      0x00\n        /* \"#utility.yul\":1731:1733   */\n      0x20\n        /* \"#utility.yul\":1720:1729   */\n      dup3\n        /* \"#utility.yul\":1716:1734   */\n      add\n        /* \"#utility.yul\":1708:1734   */\n      swap1\n      pop\n        /* \"#utility.yul\":1744:1815   */\n      tag_245\n        /* \"#utility.yul\":1812:1813   */\n      0x00\n        /* \"#utility.yul\":1801:1810   */\n      dup4\n        /* \"#utility.yul\":1797:1814   */\n      add\n        /* \"#utility.yul\":1788:1794   */\n      dup5\n        /* \"#utility.yul\":1744:1815   */\n      tag_176\n      jump\t// in\n    tag_245:\n        /* \"#utility.yul\":1600:1822   */\n      swap3\n      swap2\n      pop\n      pop\n      jump\t// out\n        /* \"#utility.yul\":1828:1888   */\n    tag_177:\n        /* \"#utility.yul\":1856:1859   */\n      0x00\n        /* \"#utility.yul\":1877:1882   */\n      dup2\n        /* \"#utility.yul\":1870:1882   */\n      swap1\n      pop\n        /* \"#utility.yul\":1828:1888   */\n      swap2\n      swap1\n      pop\n      jump\t// out\n        /* \"#utility.yul\":1894:2036   */\n    tag_178:\n        /* \"#utility.yul\":1944:1953   */\n      0x00\n        /* \"#utility.yul\":1977:2030   */\n      tag_248\n        /* \"#utility.yul\":1995:2029   */\n      tag_249\n        /* \"#utility.yul\":2004:2028   */\n      tag_250\n        /* \"#utility.yul\":2022:2027   */\n      dup5\n        /* \"#utility.yul\":2004:2028   */\n      tag_174\n      jump\t// in\n    tag_250:\n        /* \"#utility.yul\":1995:2029   */\n      tag_177\n      jump\t// in\n    tag_249:\n        /* \"#utility.yul\":1977:2030   */\n      tag_174\n      jump\t// in\n    tag_248:\n        /* \"#utility.yul\":1964:2030   */\n      swap1\n      pop\n        /* \"#utility.yul\":1894:2036   */\n      swap2\n      swap1\n      pop\n      jump\t// out\n        /* \"#utility.yul\":2042:2168   */\n    tag_179:\n        /* \"#utility.yul\":2092:2101   */\n      0x00\n        /* \"#utility.yul\":2125:2162   */\n      tag_252\n        /* \"#utility.yul\":2156:2161   */\n      dup3\n        /* \"#utility.yul\":2125:2162   */\n      tag_178\n      jump\t// in\n    tag_252:\n        /* \"#utility.yul\":2112:2162   */\n      swap1\n      pop\n        /* \"#utility.yul\":2042:2168   */\n      swap2\n      swap1\n      pop\n      jump\t// out\n        /* \"#utility.yul\":2174:2325   */\n    tag_180:\n        /* \"#utility.yul\":2249:2258   */\n      0x00\n        /* \"#utility.yul\":2282:2319   */\n      tag_254\n        /* \"#utility.yul\":2313:2318   */\n      dup3\n        /* \"#utility.yul\":2282:2319   */\n      tag_179\n      jump\t// in\n    tag_254:\n        /* \"#utility.yul\":2269:2319   */\n      swap1\n      pop\n        /* \"#utility.yul\":2174:2325   */\n      swap2\n      swap1\n      pop\n      jump\t// out\n        /* \"#utility.yul\":2331:2512   */\n    tag_181:\n        /* \"#utility.yul\":2443:2505   */\n      tag_256\n        /* \"#utility.yul\":2499:2504   */\n      dup2\n        /* \"#utility.yul\":2443:2505   */\n      tag_180\n      jump\t// in\n    tag_256:\n        /* \"#utility.yul\":2438:2441   */\n      dup3\n        /* \"#utility.yul\":2431:2506   */\n      mstore\n        /* \"#utility.yul\":2331:2512   */\n      pop\n      pop\n      jump\t// out\n        /* \"#utility.yul\":2518:2790   */\n    tag_34:\n        /* \"#utility.yul\":2636:2640   */\n      0x00\n        /* \"#utility.yul\":2674:2676   */\n      0x20\n        /* \"#utility.yul\":2663:2672   */\n      dup3\n        /* \"#utility.yul\":2659:2677   */\n      add\n        /* \"#utility.yul\":2651:2677   */\n      swap1\n      pop\n        /* \"#utility.yul\":2687:2783   */\n      tag_258\n        /* \"#utility.yul\":2780:2781   */\n      0x00\n        /* \"#utility.yul\":2769:2778   */\n      dup4\n        /* \"#utility.yul\":2765:2782   */\n      add\n        /* \"#utility.yul\":2756:2762   */\n      dup5\n        /* \"#utility.yul\":2687:2783   */\n      tag_181\n      jump\t// in\n    tag_258:\n        /* \"#utility.yul\":2518:2790   */\n      swap3\n      swap2\n      pop\n      pop\n      jump\t// out\n        /* \"#utility.yul\":2796:2871   */\n    tag_182:\n        /* \"#utility.yul\":2829:2835   */\n      0x00\n        /* \"#utility.yul\":2862:2864   */\n      0x40\n        /* \"#utility.yul\":2856:2865   */\n      mload\n        /* \"#utility.yul\":2846:2865   */\n      swap1\n      pop\n        /* \"#utility.yul\":2796:2871   */\n      swap1\n      jump\t// out\n        /* \"#utility.yul\":2877:2994   */\n    tag_183:\n        /* \"#utility.yul\":2986:2987   */\n      0x00\n        /* \"#utility.yul\":2983:2984   */\n      dup1\n        /* \"#utility.yul\":2976:2988   */\n      revert\n        /* \"#utility.yul\":3000:3117   */\n    tag_184:\n        /* \"#utility.yul\":3109:3110   */\n      0x00\n        /* \"#utility.yul\":3106:3107   */\n      dup1\n        /* \"#utility.yul\":3099:3111   */\n      revert\n        /* \"#utility.yul\":3123:3240   */\n    tag_185:\n        /* \"#utility.yul\":3232:3233   */\n      0x00\n        /* \"#utility.yul\":3229:3230   */\n      dup1\n        /* \"#utility.yul\":3222:3234   */\n      revert\n        /* \"#utility.yul\":3246:3363   */\n    tag_186:\n        /* \"#utility.yul\":3355:3356   */\n      0x00\n        /* \"#utility.yul\":3352:3353   */\n      dup1\n        /* \"#utility.yul\":3345:3357   */\n      revert\n        /* \"#utility.yul\":3369:3549   */\n    tag_187:\n        /* \"#utility.yul\":3417:3494   */\n      0x4e487b7100000000000000000000000000000000000000000000000000000000\n        /* \"#utility.yul\":3414:3415   */\n      0x00\n        /* \"#utility.yul\":3407:3495   */\n      mstore\n        /* \"#utility.yul\":3514:3518   */\n      0x41\n        /* \"#utility.yul\":3511:3512   */\n      0x04\n        /* \"#utility.yul\":3504:3519   */\n      mstore\n        /* \"#utility.yul\":3538:3542   */\n      0x24\n        /* \"#utility.yul\":3535:3536   */\n      0x00\n        /* \"#utility.yul\":3528:3543   */\n      revert\n        /* \"#utility.yul\":3555:3836   */\n    tag_188:\n        /* \"#utility.yul\":3638:3665   */\n      tag_266\n        /* \"#utility.yul\":3660:3664   */\n      dup3\n        /* \"#utility.yul\":3638:3665   */\n      tag_172\n      jump\t// in\n    tag_266:\n        /* \"#utility.yul\":3630:3636   */\n      dup2\n        /* \"#utility.yul\":3626:3666   */\n      add\n        /* \"#utility.yul\":3768:3774   */\n      dup2\n        /* \"#utility.yul\":3756:3766   */\n      dup2\n        /* \"#utility.yul\":3753:3775   */\n      lt\n        /* \"#utility.yul\":3732:3750   */\n      0xffffffffffffffff\n        /* \"#utility.yul\":3720:3730   */\n      dup3\n        /* \"#utility.yul\":3717:3751   */\n      gt\n        /* \"#utility.yul\":3714:3776   */\n      or\n        /* \"#utility.yul\":3711:3799   */\n      iszero\n      tag_267\n      jumpi\n        /* \"#utility.yul\":3779:3797   */\n      tag_268\n      tag_187\n      jump\t// in\n    tag_268:\n        /* \"#utility.yul\":3711:3799   */\n    tag_267:\n        /* \"#utility.yul\":3819:3829   */\n      dup1\n        /* \"#utility.yul\":3815:3817   */\n      0x40\n        /* \"#utility.yul\":3808:3830   */\n      mstore\n        /* \"#utility.yul\":3598:3836   */\n      pop\n        /* \"#utility.yul\":3555:3836   */\n      pop\n      pop\n      jump\t// out\n        /* \"#utility.yul\":3842:3971   */\n    tag_189:\n        /* \"#utility.yul\":3876:3882   */\n      0x00\n        /* \"#utility.yul\":3903:3923   */\n      tag_270\n      tag_182\n      jump\t// in\n    tag_270:\n        /* \"#utility.yul\":3893:3923   */\n      swap1\n      pop\n        /* \"#utility.yul\":3932:3965   */\n      tag_271\n        /* \"#utility.yul\":3960:3964   */\n      dup3\n        /* \"#utility.yul\":3952:3958   */\n      dup3\n        /* \"#utility.yul\":3932:3965   */\n      tag_188\n      jump\t// in\n    tag_271:\n        /* \"#utility.yul\":3842:3971   */\n      swap2\n      swap1\n      pop\n      jump\t// out\n        /* \"#utility.yul\":3977:4285   */\n    tag_190:\n        /* \"#utility.yul\":4039:4043   */\n      0x00\n        /* \"#utility.yul\":4129:4147   */\n      0xffffffffffffffff\n        /* \"#utility.yul\":4121:4127   */\n      dup3\n        /* \"#utility.yul\":4118:4148   */\n      gt\n        /* \"#utility.yul\":4115:4171   */\n      iszero\n      tag_273\n      jumpi\n        /* \"#utility.yul\":4151:4169   */\n      tag_274\n      tag_187\n      jump\t// in\n    tag_274:\n        /* \"#utility.yul\":4115:4171   */\n    tag_273:\n        /* \"#utility.yul\":4189:4218   */\n      tag_275\n        /* \"#utility.yul\":4211:4217   */\n      dup3\n        /* \"#utility.yul\":4189:4218   */\n      tag_172\n      jump\t// in\n    tag_275:\n        /* \"#utility.yul\":4181:4218   */\n      swap1\n      pop\n        /* \"#utility.yul\":4273:4277   */\n      0x20\n        /* \"#utility.yul\":4267:4271   */\n      dup2\n        /* \"#utility.yul\":4263:4278   */\n      add\n        /* \"#utility.yul\":4255:4278   */\n      swap1\n      pop\n        /* \"#utility.yul\":3977:4285   */\n      swap2\n      swap1\n      pop\n      jump\t// out\n        /* \"#utility.yul\":4291:4439   */\n    tag_191:\n        /* \"#utility.yul\":4389:4395   */\n      dup3\n        /* \"#utility.yul\":4384:4387   */\n      dup2\n        /* \"#utility.yul\":4379:4382   */\n      dup4\n        /* \"#utility.yul\":4366:4396   */\n      calldatacopy\n        /* \"#utility.yul\":4430:4431   */\n      0x00\n        /* \"#utility.yul\":4421:4427   */\n      dup4\n        /* \"#utility.yul\":4416:4419   */\n      dup4\n        /* \"#utility.yul\":4412:4428   */\n      add\n        /* \"#utility.yul\":4405:4432   */\n      mstore\n        /* \"#utility.yul\":4291:4439   */\n      pop\n      pop\n      pop\n      jump\t// out\n        /* \"#utility.yul\":4445:4870   */\n    tag_192:\n        /* \"#utility.yul\":4523:4528   */\n      0x00\n        /* \"#utility.yul\":4548:4614   */\n      tag_278\n        /* \"#utility.yul\":4564:4613   */\n      tag_279\n        /* \"#utility.yul\":4606:4612   */\n      dup5\n        /* \"#utility.yul\":4564:4613   */\n      tag_190\n      jump\t// in\n    tag_279:\n        /* \"#utility.yul\":4548:4614   */\n      tag_189\n      jump\t// in\n    tag_278:\n        /* \"#utility.yul\":4539:4614   */\n      swap1\n      pop\n        /* \"#utility.yul\":4637:4643   */\n      dup3\n        /* \"#utility.yul\":4630:4635   */\n      dup2\n        /* \"#utility.yul\":4623:4644   */\n      mstore\n        /* \"#utility.yul\":4675:4679   */\n      0x20\n        /* \"#utility.yul\":4668:4673   */\n      dup2\n        /* \"#utility.yul\":4664:4680   */\n      add\n        /* \"#utility.yul\":4713:4716   */\n      dup5\n        /* \"#utility.yul\":4704:4710   */\n      dup5\n        /* \"#utility.yul\":4699:4702   */\n      dup5\n        /* \"#utility.yul\":4695:4711   */\n      add\n        /* \"#utility.yul\":4692:4717   */\n      gt\n        /* \"#utility.yul\":4689:4801   */\n      iszero\n      tag_280\n      jumpi\n        /* \"#utility.yul\":4720:4799   */\n      tag_281\n      tag_186\n      jump\t// in\n    tag_281:\n        /* \"#utility.yul\":4689:4801   */\n    tag_280:\n        /* \"#utility.yul\":4810:4864   */\n      tag_282\n        /* \"#utility.yul\":4857:4863   */\n      dup5\n        /* \"#utility.yul\":4852:4855   */\n      dup3\n        /* \"#utility.yul\":4847:4850   */\n      dup6\n        /* \"#utility.yul\":4810:4864   */\n      tag_191\n      jump\t// in\n    tag_282:\n        /* \"#utility.yul\":4529:4870   */\n      pop\n        /* \"#utility.yul\":4445:4870   */\n      swap4\n      swap3\n      pop\n      pop\n      pop\n      jump\t// out\n        /* \"#utility.yul\":4890:5230   */\n    tag_193:\n        /* \"#utility.yul\":4946:4951   */\n      0x00\n        /* \"#utility.yul\":4995:4998   */\n      dup3\n        /* \"#utility.yul\":4988:4992   */\n      0x1f\n        /* \"#utility.yul\":4980:4986   */\n      dup4\n        /* \"#utility.yul\":4976:4993   */\n      add\n        /* \"#utility.yul\":4972:4999   */\n      slt\n        /* \"#utility.yul\":4962:5084   */\n      tag_284\n      jumpi\n        /* \"#utility.yul\":5003:5082   */\n      tag_285\n      tag_185\n      jump\t// in\n    tag_285:\n        /* \"#utility.yul\":4962:5084   */\n    tag_284:\n        /* \"#utility.yul\":5120:5126   */\n      dup2\n        /* \"#utility.yul\":5107:5127   */\n      calldataload\n        /* \"#utility.yul\":5145:5224   */\n      tag_286\n        /* \"#utility.yul\":5220:5223   */\n      dup5\n        /* \"#utility.yul\":5212:5218   */\n      dup3\n        /* \"#utility.yul\":5205:5209   */\n      0x20\n        /* \"#utility.yul\":5197:5203   */\n      dup7\n        /* \"#utility.yul\":5193:5210   */\n      add\n        /* \"#utility.yul\":5145:5224   */\n      tag_192\n      jump\t// in\n    tag_286:\n        /* \"#utility.yul\":5136:5224   */\n      swap2\n      pop\n        /* \"#utility.yul\":4952:5230   */\n      pop\n        /* \"#utility.yul\":4890:5230   */\n      swap3\n      swap2\n      pop\n      pop\n      jump\t// out\n        /* \"#utility.yul\":5236:6070   */\n    tag_41:\n        /* \"#utility.yul\":5324:5330   */\n      0x00\n        /* \"#utility.yul\":5332:5338   */\n      dup1\n        /* \"#utility.yul\":5381:5383   */\n      0x40\n        /* \"#utility.yul\":5369:5378   */\n      dup4\n        /* \"#utility.yul\":5360:5367   */\n      dup6\n        /* \"#utility.yul\":5356:5379   */\n      sub\n        /* \"#utility.yul\":5352:5384   */\n      slt\n        /* \"#utility.yul\":5349:5468   */\n      iszero\n      tag_288\n      jumpi\n        /* \"#utility.yul\":5387:5466   */\n      tag_289\n      tag_183\n      jump\t// in\n    tag_289:\n        /* \"#utility.yul\":5349:5468   */\n    tag_288:\n        /* \"#utility.yul\":5535:5536   */\n      0x00\n        /* \"#utility.yul\":5524:5533   */\n      dup4\n        /* \"#utility.yul\":5520:5537   */\n      add\n        /* \"#utility.yul\":5507:5538   */\n      calldataload\n        /* \"#utility.yul\":5565:5583   */\n      0xffffffffffffffff\n        /* \"#utility.yul\":5557:5563   */\n      dup2\n        /* \"#utility.yul\":5554:5584   */\n      gt\n        /* \"#utility.yul\":5551:5668   */\n      iszero\n      tag_290\n      jumpi\n        /* \"#utility.yul\":5587:5666   */\n      tag_291\n      tag_184\n      jump\t// in\n    tag_291:\n        /* \"#utility.yul\":5551:5668   */\n    tag_290:\n        /* \"#utility.yul\":5692:5755   */\n      tag_292\n        /* \"#utility.yul\":5747:5754   */\n      dup6\n        /* \"#utility.yul\":5738:5744   */\n      dup3\n        /* \"#utility.yul\":5727:5736   */\n      dup7\n        /* \"#utility.yul\":5723:5745   */\n      add\n        /* \"#utility.yul\":5692:5755   */\n      tag_193\n      jump\t// in\n    tag_292:\n        /* \"#utility.yul\":5682:5755   */\n      swap3\n      pop\n        /* \"#utility.yul\":5478:5765   */\n      pop\n        /* \"#utility.yul\":5832:5834   */\n      0x20\n        /* \"#utility.yul\":5821:5830   */\n      dup4\n        /* \"#utility.yul\":5817:5835   */\n      add\n        /* \"#utility.yul\":5804:5836   */\n      calldataload\n        /* \"#utility.yul\":5863:5881   */\n      0xffffffffffffffff\n        /* \"#utility.yul\":5855:5861   */\n      dup2\n        /* \"#utility.yul\":5852:5882   */\n      gt\n        /* \"#utility.yul\":5849:5966   */\n      iszero\n      tag_293\n      jumpi\n        /* \"#utility.yul\":5885:5964   */\n      tag_294\n      tag_184\n      jump\t// in\n    tag_294:\n        /* \"#utility.yul\":5849:5966   */\n    tag_293:\n        /* \"#utility.yul\":5990:6053   */\n      tag_295\n        /* \"#utility.yul\":6045:6052   */\n      dup6\n        /* \"#utility.yul\":6036:6042   */\n      dup3\n        /* \"#utility.yul\":6025:6034   */\n      dup7\n        /* \"#utility.yul\":6021:6043   */\n      add\n        /* \"#utility.yul\":5990:6053   */\n      tag_193\n      jump\t// in\n    tag_295:\n        /* \"#utility.yul\":5980:6053   */\n      swap2\n      pop\n        /* \"#utility.yul\":5775:6063   */\n      pop\n        /* \"#utility.yul\":5236:6070   */\n      swap3\n      pop\n      swap3\n      swap1\n      pop\n      jump\t// out\n        /* \"#utility.yul\":6076:6166   */\n    tag_194:\n        /* \"#utility.yul\":6110:6117   */\n      0x00\n        /* \"#utility.yul\":6153:6158   */\n      dup2\n        /* \"#utility.yul\":6146:6159   */\n      iszero\n        /* \"#utility.yul\":6139:6160   */\n      iszero\n        /* \"#utility.yul\":6128:6160   */\n      swap1\n      pop\n        /* \"#utility.yul\":6076:6166   */\n      swap2\n      swap1\n      pop\n      jump\t// out\n        /* \"#utility.yul\":6172:6281   */\n    tag_195:\n        /* \"#utility.yul\":6253:6274   */\n      tag_298\n        /* \"#utility.yul\":6268:6273   */\n      dup2\n        /* \"#utility.yul\":6253:6274   */\n      tag_194\n      jump\t// in\n    tag_298:\n        /* \"#utility.yul\":6248:6251   */\n      dup3\n        /* \"#utility.yul\":6241:6275   */\n      mstore\n        /* \"#utility.yul\":6172:6281   */\n      pop\n      pop\n      jump\t// out\n        /* \"#utility.yul\":6287:6497   */\n    tag_47:\n        /* \"#utility.yul\":6374:6378   */\n      0x00\n        /* \"#utility.yul\":6412:6414   */\n      0x20\n        /* \"#utility.yul\":6401:6410   */\n      dup3\n        /* \"#utility.yul\":6397:6415   */\n      add\n        /* \"#utility.yul\":6389:6415   */\n      swap1\n      pop\n        /* \"#utility.yul\":6425:6490   */\n      tag_300\n        /* \"#utility.yul\":6487:6488   */\n      0x00\n        /* \"#utility.yul\":6476:6485   */\n      dup4\n        /* \"#utility.yul\":6472:6489   */\n      add\n        /* \"#utility.yul\":6463:6469   */\n      dup5\n        /* \"#utility.yul\":6425:6490   */\n      tag_195\n      jump\t// in\n    tag_300:\n        /* \"#utility.yul\":6287:6497   */\n      swap3\n      swap2\n      pop\n      pop\n      jump\t// out\n        /* \"#utility.yul\":6503:6625   */\n    tag_196:\n        /* \"#utility.yul\":6576:6600   */\n      tag_302\n        /* \"#utility.yul\":6594:6599   */\n      dup2\n        /* \"#utility.yul\":6576:6600   */\n      tag_175\n      jump\t// in\n    tag_302:\n        /* \"#utility.yul\":6569:6574   */\n      dup2\n        /* \"#utility.yul\":6566:6601   */\n      eq\n        /* \"#utility.yul\":6556:6619   */\n      tag_303\n      jumpi\n        /* \"#utility.yul\":6615:6616   */\n      0x00\n        /* \"#utility.yul\":6612:6613   */\n      dup1\n        /* \"#utility.yul\":6605:6617   */\n      revert\n        /* \"#utility.yul\":6556:6619   */\n    tag_303:\n        /* \"#utility.yul\":6503:6625   */\n      pop\n      jump\t// out\n        /* \"#utility.yul\":6631:6770   */\n    tag_197:\n        /* \"#utility.yul\":6677:6682   */\n      0x00\n        /* \"#utility.yul\":6715:6721   */\n      dup2\n        /* \"#utility.yul\":6702:6722   */\n      calldataload\n        /* \"#utility.yul\":6693:6722   */\n      swap1\n      pop\n        /* \"#utility.yul\":6731:6764   */\n      tag_305\n        /* \"#utility.yul\":6758:6763   */\n      dup2\n        /* \"#utility.yul\":6731:6764   */\n      tag_196\n      jump\t// in\n    tag_305:\n        /* \"#utility.yul\":6631:6770   */\n      swap3\n      swap2\n      pop\n      pop\n      jump\t// out\n        /* \"#utility.yul\":6776:7105   */\n    tag_55:\n        /* \"#utility.yul\":6835:6841   */\n      0x00\n        /* \"#utility.yul\":6884:6886   */\n      0x20\n        /* \"#utility.yul\":6872:6881   */\n      dup3\n        /* \"#utility.yul\":6863:6870   */\n      dup5\n        /* \"#utility.yul\":6859:6882   */\n      sub\n        /* \"#utility.yul\":6855:6887   */\n      slt\n        /* \"#utility.yul\":6852:6971   */\n      iszero\n      tag_307\n      jumpi\n        /* \"#utility.yul\":6890:6969   */\n      tag_308\n      tag_183\n      jump\t// in\n    tag_308:\n        /* \"#utility.yul\":6852:6971   */\n    tag_307:\n        /* \"#utility.yul\":7010:7011   */\n      0x00\n        /* \"#utility.yul\":7035:7088   */\n      tag_309\n        /* \"#utility.yul\":7080:7087   */\n      dup5\n        /* \"#utility.yul\":7071:7077   */\n      dup3\n        /* \"#utility.yul\":7060:7069   */\n      dup6\n        /* \"#utility.yul\":7056:7078   */\n      add\n        /* \"#utility.yul\":7035:7088   */\n      tag_197\n      jump\t// in\n    tag_309:\n        /* \"#utility.yul\":7025:7088   */\n      swap2\n      pop\n        /* \"#utility.yul\":6981:7098   */\n      pop\n        /* \"#utility.yul\":6776:7105   */\n      swap3\n      swap2\n      pop\n      pop\n      jump\t// out\n        /* \"#utility.yul\":7111:7188   */\n    tag_198:\n        /* \"#utility.yul\":7148:7155   */\n      0x00\n        /* \"#utility.yul\":7177:7182   */\n      dup2\n        /* \"#utility.yul\":7166:7182   */\n      swap1\n      pop\n        /* \"#utility.yul\":7111:7188   */\n      swap2\n      swap1\n      pop\n      jump\t// out\n        /* \"#utility.yul\":7194:7316   */\n    tag_199:\n        /* \"#utility.yul\":7267:7291   */\n      tag_312\n        /* \"#utility.yul\":7285:7290   */\n      dup2\n        /* \"#utility.yul\":7267:7291   */\n      tag_198\n      jump\t// in\n    tag_312:\n        /* \"#utility.yul\":7260:7265   */\n      dup2\n        /* \"#utility.yul\":7257:7292   */\n      eq\n        /* \"#utility.yul\":7247:7310   */\n      tag_313\n      jumpi\n        /* \"#utility.yul\":7306:7307   */\n      0x00\n        /* \"#utility.yul\":7303:7304   */\n      dup1\n        /* \"#utility.yul\":7296:7308   */\n      revert\n        /* \"#utility.yul\":7247:7310   */\n    tag_313:\n        /* \"#utility.yul\":7194:7316   */\n      pop\n      jump\t// out\n        /* \"#utility.yul\":7322:7461   */\n    tag_200:\n        /* \"#utility.yul\":7368:7373   */\n      0x00\n        /* \"#utility.yul\":7406:7412   */\n      dup2\n        /* \"#utility.yul\":7393:7413   */\n      calldataload\n        /* \"#utility.yul\":7384:7413   */\n      swap1\n      pop\n        /* \"#utility.yul\":7422:7455   */\n      tag_315\n        /* \"#utility.yul\":7449:7454   */\n      dup2\n        /* \"#utility.yul\":7422:7455   */\n      tag_199\n      jump\t// in\n    tag_315:\n        /* \"#utility.yul\":7322:7461   */\n      swap3\n      swap2\n      pop\n      pop\n      jump\t// out\n        /* \"#utility.yul\":7467:7941   */\n    tag_67:\n        /* \"#utility.yul\":7535:7541   */\n      0x00\n        /* \"#utility.yul\":7543:7549   */\n      dup1\n        /* \"#utility.yul\":7592:7594   */\n      0x40\n        /* \"#utility.yul\":7580:7589   */\n      dup4\n        /* \"#utility.yul\":7571:7578   */\n      dup6\n        /* \"#utility.yul\":7567:7590   */\n      sub\n        /* \"#utility.yul\":7563:7595   */\n      slt\n        /* \"#utility.yul\":7560:7679   */\n      iszero\n      tag_317\n      jumpi\n        /* \"#utility.yul\":7598:7677   */\n      tag_318\n      tag_183\n      jump\t// in\n    tag_318:\n        /* \"#utility.yul\":7560:7679   */\n    tag_317:\n        /* \"#utility.yul\":7718:7719   */\n      0x00\n        /* \"#utility.yul\":7743:7796   */\n      tag_319\n        /* \"#utility.yul\":7788:7795   */\n      dup6\n        /* \"#utility.yul\":7779:7785   */\n      dup3\n        /* \"#utility.yul\":7768:7777   */\n      dup7\n        /* \"#utility.yul\":7764:7786   */\n      add\n        /* \"#utility.yul\":7743:7796   */\n      tag_197\n      jump\t// in\n    tag_319:\n        /* \"#utility.yul\":7733:7796   */\n      swap3\n      pop\n        /* \"#utility.yul\":7689:7806   */\n      pop\n        /* \"#utility.yul\":7845:7847   */\n      0x20\n        /* \"#utility.yul\":7871:7924   */\n      tag_320\n        /* \"#utility.yul\":7916:7923   */\n      dup6\n        /* \"#utility.yul\":7907:7913   */\n      dup3\n        /* \"#utility.yul\":7896:7905   */\n      dup7\n        /* \"#utility.yul\":7892:7914   */\n      add\n        /* \"#utility.yul\":7871:7924   */\n      tag_200\n      jump\t// in\n    tag_320:\n        /* \"#utility.yul\":7861:7924   */\n      swap2\n      pop\n        /* \"#utility.yul\":7816:7934   */\n      pop\n        /* \"#utility.yul\":7467:7941   */\n      swap3\n      pop\n      swap3\n      swap1\n      pop\n      jump\t// out\n        /* \"#utility.yul\":7947:8064   */\n    tag_201:\n        /* \"#utility.yul\":8056:8057   */\n      0x00\n        /* \"#utility.yul\":8053:8054   */\n      dup1\n        /* \"#utility.yul\":8046:8058   */\n      revert\n        /* \"#utility.yul\":8070:8187   */\n    tag_202:\n        /* \"#utility.yul\":8179:8180   */\n      0x00\n        /* \"#utility.yul\":8176:8177   */\n      dup1\n        /* \"#utility.yul\":8169:8181   */\n      revert\n        /* \"#utility.yul\":8206:8758   */\n    tag_203:\n        /* \"#utility.yul\":8263:8271   */\n      0x00\n        /* \"#utility.yul\":8273:8279   */\n      dup1\n        /* \"#utility.yul\":8323:8326   */\n      dup4\n        /* \"#utility.yul\":8316:8320   */\n      0x1f\n        /* \"#utility.yul\":8308:8314   */\n      dup5\n        /* \"#utility.yul\":8304:8321   */\n      add\n        /* \"#utility.yul\":8300:8327   */\n      slt\n        /* \"#utility.yul\":8290:8412   */\n      tag_324\n      jumpi\n        /* \"#utility.yul\":8331:8410   */\n      tag_325\n      tag_185\n      jump\t// in\n    tag_325:\n        /* \"#utility.yul\":8290:8412   */\n    tag_324:\n        /* \"#utility.yul\":8444:8450   */\n      dup3\n        /* \"#utility.yul\":8431:8451   */\n      calldataload\n        /* \"#utility.yul\":8421:8451   */\n      swap1\n      pop\n        /* \"#utility.yul\":8474:8492   */\n      0xffffffffffffffff\n        /* \"#utility.yul\":8466:8472   */\n      dup2\n        /* \"#utility.yul\":8463:8493   */\n      gt\n        /* \"#utility.yul\":8460:8577   */\n      iszero\n      tag_326\n      jumpi\n        /* \"#utility.yul\":8496:8575   */\n      tag_327\n      tag_201\n      jump\t// in\n    tag_327:\n        /* \"#utility.yul\":8460:8577   */\n    tag_326:\n        /* \"#utility.yul\":8610:8614   */\n      0x20\n        /* \"#utility.yul\":8602:8608   */\n      dup4\n        /* \"#utility.yul\":8598:8615   */\n      add\n        /* \"#utility.yul\":8586:8615   */\n      swap2\n      pop\n        /* \"#utility.yul\":8664:8667   */\n      dup4\n        /* \"#utility.yul\":8656:8660   */\n      0x01\n        /* \"#utility.yul\":8648:8654   */\n      dup3\n        /* \"#utility.yul\":8644:8661   */\n      mul\n        /* \"#utility.yul\":8634:8642   */\n      dup4\n        /* \"#utility.yul\":8630:8662   */\n      add\n        /* \"#utility.yul\":8627:8668   */\n      gt\n        /* \"#utility.yul\":8624:8752   */\n      iszero\n      tag_328\n      jumpi\n        /* \"#utility.yul\":8671:8750   */\n      tag_329\n      tag_202\n      jump\t// in\n    tag_329:\n        /* \"#utility.yul\":8624:8752   */\n    tag_328:\n        /* \"#utility.yul\":8206:8758   */\n      swap3\n      pop\n      swap3\n      swap1\n      pop\n      jump\t// out\n        /* \"#utility.yul\":8764:9436   */\n    tag_75:\n        /* \"#utility.yul\":8843:8849   */\n      0x00\n        /* \"#utility.yul\":8851:8857   */\n      dup1\n        /* \"#utility.yul\":8859:8865   */\n      0x00\n        /* \"#utility.yul\":8908:8910   */\n      0x40\n        /* \"#utility.yul\":8896:8905   */\n      dup5\n        /* \"#utility.yul\":8887:8894   */\n      dup7\n        /* \"#utility.yul\":8883:8906   */\n      sub\n        /* \"#utility.yul\":8879:8911   */\n      slt\n        /* \"#utility.yul\":8876:8995   */\n      iszero\n      tag_331\n      jumpi\n        /* \"#utility.yul\":8914:8993   */\n      tag_332\n      tag_183\n      jump\t// in\n    tag_332:\n        /* \"#utility.yul\":8876:8995   */\n    tag_331:\n        /* \"#utility.yul\":9062:9063   */\n      0x00\n        /* \"#utility.yul\":9051:9060   */\n      dup5\n        /* \"#utility.yul\":9047:9064   */\n      add\n        /* \"#utility.yul\":9034:9065   */\n      calldataload\n        /* \"#utility.yul\":9092:9110   */\n      0xffffffffffffffff\n        /* \"#utility.yul\":9084:9090   */\n      dup2\n        /* \"#utility.yul\":9081:9111   */\n      gt\n        /* \"#utility.yul\":9078:9195   */\n      iszero\n      tag_333\n      jumpi\n        /* \"#utility.yul\":9114:9193   */\n      tag_334\n      tag_184\n      jump\t// in\n    tag_334:\n        /* \"#utility.yul\":9078:9195   */\n    tag_333:\n        /* \"#utility.yul\":9227:9291   */\n      tag_335\n        /* \"#utility.yul\":9283:9290   */\n      dup7\n        /* \"#utility.yul\":9274:9280   */\n      dup3\n        /* \"#utility.yul\":9263:9272   */\n      dup8\n        /* \"#utility.yul\":9259:9281   */\n      add\n        /* \"#utility.yul\":9227:9291   */\n      tag_203\n      jump\t// in\n    tag_335:\n        /* \"#utility.yul\":9209:9291   */\n      swap4\n      pop\n      swap4\n      pop\n        /* \"#utility.yul\":9005:9301   */\n      pop\n        /* \"#utility.yul\":9340:9342   */\n      0x20\n        /* \"#utility.yul\":9366:9419   */\n      tag_336\n        /* \"#utility.yul\":9411:9418   */\n      dup7\n        /* \"#utility.yul\":9402:9408   */\n      dup3\n        /* \"#utility.yul\":9391:9400   */\n      dup8\n        /* \"#utility.yul\":9387:9409   */\n      add\n        /* \"#utility.yul\":9366:9419   */\n      tag_200\n      jump\t// in\n    tag_336:\n        /* \"#utility.yul\":9356:9419   */\n      swap2\n      pop\n        /* \"#utility.yul\":9311:9429   */\n      pop\n        /* \"#utility.yul\":8764:9436   */\n      swap3\n      pop\n      swap3\n      pop\n      swap3\n      jump\t// out\n        /* \"#utility.yul\":9442:9622   */\n    tag_204:\n        /* \"#utility.yul\":9490:9567   */\n      0x4e487b7100000000000000000000000000000000000000000000000000000000\n        /* \"#utility.yul\":9487:9488   */\n      0x00\n        /* \"#utility.yul\":9480:9568   */\n      mstore\n        /* \"#utility.yul\":9587:9591   */\n      0x22\n        /* \"#utility.yul\":9584:9585   */\n      0x04\n        /* \"#utility.yul\":9577:9592   */\n      mstore\n        /* \"#utility.yul\":9611:9615   */\n      0x24\n        /* \"#utility.yul\":9608:9609   */\n      0x00\n        /* \"#utility.yul\":9601:9616   */\n      revert\n        /* \"#utility.yul\":9628:9948   */\n    tag_78:\n        /* \"#utility.yul\":9672:9678   */\n      0x00\n        /* \"#utility.yul\":9709:9710   */\n      0x02\n        /* \"#utility.yul\":9703:9707   */\n      dup3\n        /* \"#utility.yul\":9699:9711   */\n      div\n        /* \"#utility.yul\":9689:9711   */\n      swap1\n      pop\n        /* \"#utility.yul\":9756:9757   */\n      0x01\n        /* \"#utility.yul\":9750:9754   */\n      dup3\n        /* \"#utility.yul\":9746:9758   */\n      and\n        /* \"#utility.yul\":9777:9795   */\n      dup1\n        /* \"#utility.yul\":9767:9848   */\n      tag_339\n      jumpi\n        /* \"#utility.yul\":9833:9837   */\n      0x7f\n        /* \"#utility.yul\":9825:9831   */\n      dup3\n        /* \"#utility.yul\":9821:9838   */\n      and\n        /* \"#utility.yul\":9811:9838   */\n      swap2\n      pop\n        /* \"#utility.yul\":9767:9848   */\n    tag_339:\n        /* \"#utility.yul\":9895:9897   */\n      0x20\n        /* \"#utility.yul\":9887:9893   */\n      dup3\n        /* \"#utility.yul\":9884:9898   */\n      lt\n        /* \"#utility.yul\":9864:9882   */\n      dup2\n        /* \"#utility.yul\":9861:9899   */\n      sub\n        /* \"#utility.yul\":9858:9942   */\n      tag_340\n      jumpi\n        /* \"#utility.yul\":9914:9932   */\n      tag_341\n      tag_204\n      jump\t// in\n    tag_341:\n        /* \"#utility.yul\":9858:9942   */\n    tag_340:\n        /* \"#utility.yul\":9679:9948   */\n      pop\n        /* \"#utility.yul\":9628:9948   */\n      swap2\n      swap1\n      pop\n      jump\t// out\n        /* \"#utility.yul\":9954:10095   */\n    tag_205:\n        /* \"#utility.yul\":10003:10007   */\n      0x00\n        /* \"#utility.yul\":10026:10029   */\n      dup2\n        /* \"#utility.yul\":10018:10029   */\n      swap1\n      pop\n        /* \"#utility.yul\":10049:10052   */\n      dup2\n        /* \"#utility.yul\":10046:10047   */\n      0x00\n        /* \"#utility.yul\":10039:10053   */\n      mstore\n        /* \"#utility.yul\":10083:10087   */\n      0x20\n        /* \"#utility.yul\":10080:10081   */\n      0x00\n        /* \"#utility.yul\":10070:10088   */\n      keccak256\n        /* \"#utility.yul\":10062:10088   */\n      swap1\n      pop\n        /* \"#utility.yul\":9954:10095   */\n      swap2\n      swap1\n      pop\n      jump\t// out\n        /* \"#utility.yul\":10101:10194   */\n    tag_206:\n        /* \"#utility.yul\":10138:10144   */\n      0x00\n        /* \"#utility.yul\":10185:10187   */\n      0x20\n        /* \"#utility.yul\":10180:10182   */\n      0x1f\n        /* \"#utility.yul\":10173:10178   */\n      dup4\n        /* \"#utility.yul\":10169:10183   */\n      add\n        /* \"#utility.yul\":10165:10188   */\n      div\n        /* \"#utility.yul\":10155:10188   */\n      swap1\n      pop\n        /* \"#utility.yul\":10101:10194   */\n      swap2\n      swap1\n      pop\n      jump\t// out\n        /* \"#utility.yul\":10200:10307   */\n    tag_207:\n        /* \"#utility.yul\":10244:10252   */\n      0x00\n        /* \"#utility.yul\":10294:10299   */\n      dup3\n        /* \"#utility.yul\":10288:10292   */\n      dup3\n        /* \"#utility.yul\":10284:10300   */\n      shl\n        /* \"#utility.yul\":10263:10300   */\n      swap1\n      pop\n        /* \"#utility.yul\":10200:10307   */\n      swap3\n      swap2\n      pop\n      pop\n      jump\t// out\n        /* \"#utility.yul\":10313:10706   */\n    tag_208:\n        /* \"#utility.yul\":10382:10388   */\n      0x00\n        /* \"#utility.yul\":10432:10433   */\n      0x08\n        /* \"#utility.yul\":10420:10430   */\n      dup4\n        /* \"#utility.yul\":10416:10434   */\n      mul\n        /* \"#utility.yul\":10455:10552   */\n      tag_346\n        /* \"#utility.yul\":10485:10551   */\n      0xffffffffffffffffffffffffffffffffffffffffffffffffffffffffffffffff\n        /* \"#utility.yul\":10474:10483   */\n      dup3\n        /* \"#utility.yul\":10455:10552   */\n      tag_207\n      jump\t// in\n    tag_346:\n        /* \"#utility.yul\":10573:10612   */\n      tag_347\n        /* \"#utility.yul\":10603:10611   */\n      dup7\n        /* \"#utility.yul\":10592:10601   */\n      dup4\n        /* \"#utility.yul\":10573:10612   */\n      tag_207\n      jump\t// in\n    tag_347:\n        /* \"#utility.yul\":10561:10612   */\n      swap6\n      pop\n        /* \"#utility.yul\":10645:10649   */\n      dup1\n        /* \"#utility.yul\":10641:10650   */\n      not\n        /* \"#utility.yul\":10634:10639   */\n      dup5\n        /* \"#utility.yul\":10630:10651   */\n      and\n        /* \"#utility.yul\":10621:10651   */\n      swap4\n      pop\n        /* \"#utility.yul\":10694:10698   */\n      dup1\n        /* \"#utility.yul\":10684:10692   */\n      dup7\n        /* \"#utility.yul\":10680:10699   */\n      and\n        /* \"#utility.yul\":10673:10678   */\n      dup5\n        /* \"#utility.yul\":10670:10700   */\n      or\n        /* \"#utility.yul\":10660:10700   */\n      swap3\n      pop\n        /* \"#utility.yul\":10389:10706   */\n      pop\n      pop\n        /* \"#utility.yul\":10313:10706   */\n      swap4\n      swap3\n      pop\n      pop\n      pop\n      jump\t// out\n        /* \"#utility.yul\":10712:10854   */\n    tag_209:\n        /* \"#utility.yul\":10762:10771   */\n      0x00\n        /* \"#utility.yul\":10795:10848   */\n      tag_349\n        /* \"#utility.yul\":10813:10847   */\n      tag_350\n        /* \"#utility.yul\":10822:10846   */\n      tag_351\n        /* \"#utility.yul\":10840:10845   */\n      dup5\n        /* \"#utility.yul\":10822:10846   */\n      tag_198\n      jump\t// in\n    tag_351:\n        /* \"#utility.yul\":10813:10847   */\n      tag_177\n      jump\t// in\n    tag_350:\n        /* \"#utility.yul\":10795:10848   */\n      tag_198\n      jump\t// in\n    tag_349:\n        /* \"#utility.yul\":10782:10848   */\n      swap1\n      pop\n        /* \"#utility.yul\":10712:10854   */\n      swap2\n      swap1\n      pop\n      jump\t// out\n        /* \"#utility.yul\":10860:10935   */\n    tag_210:\n        /* \"#utility.yul\":10903:10906   */\n      0x00\n        /* \"#utility.yul\":10924:10929   */\n      dup2\n        /* \"#utility.yul\":10917:10929   */\n      swap1\n      pop\n        /* \"#utility.yul\":10860:10935   */\n      swap2\n      swap1\n      pop\n      jump\t// out\n        /* \"#utility.yul\":10941:11210   */\n    tag_211:\n        /* \"#utility.yul\":11051:11090   */\n      tag_354\n        /* \"#utility.yul\":11082:11089   */\n      dup4\n        /* \"#utility.yul\":11051:11090   */\n      tag_209\n      jump\t// in\n    tag_354:\n        /* \"#utility.yul\":11112:11203   */\n      tag_355\n        /* \"#utility.yul\":11161:11202   */\n      tag_356\n        /* \"#utility.yul\":11185:11201   */\n      dup3\n        /* \"#utility.yul\":11161:11202   */\n      tag_210\n      jump\t// in\n    tag_356:\n        /* \"#utility.yul\":11153:11159   */\n      dup5\n        /* \"#utility.yul\":11146:11150   */\n      dup5\n        /* \"#utility.yul\":11140:11151   */\n      sload\n        /* \"#utility.yul\":11112:11203   */\n      tag_208\n      jump\t// in\n    tag_355:\n        /* \"#utility.yul\":11106:11110   */\n      dup3\n        /* \"#utility.yul\":11099:11204   */\n      sstore\n        /* \"#utility.yul\":11017:11210   */\n      pop\n        /* \"#utility.yul\":10941:11210   */\n      pop\n      pop\n      pop\n      jump\t// out\n        /* \"#utility.yul\":11216:11289   */\n    tag_212:\n        /* \"#utility.yul\":11261:11264   */\n      0x00\n        /* \"#utility.yul\":11216:11289   */\n      swap1\n      jump\t// out\n        /* \"#utility.yul\":11295:11484   */\n    tag_213:\n        /* \"#utility.yul\":11372:11404   */\n      tag_359\n      tag_212\n      jump\t// in\n    tag_359:\n        /* \"#utility.yul\":11413:11478   */\n      tag_360\n        /* \"#utility.yul\":11471:11477   */\n      dup2\n        /* \"#utility.yul\":11463:11469   */\n      dup5\n        /* \"#utility.yul\":11457:11461   */\n      dup5\n        /* \"#utility.yul\":11413:11478   */\n      tag_211\n      jump\t// in\n    tag_360:\n        /* \"#utility.yul\":11348:11484   */\n      pop\n        /* \"#utility.yul\":11295:11484   */\n      pop\n      pop\n      jump\t// out\n        /* \"#utility.yul\":11490:11676   */\n    tag_214:\n        /* \"#utility.yul\":11550:11670   */\n    tag_362:\n        /* \"#utility.yul\":11567:11570   */\n      dup2\n        /* \"#utility.yul\":11560:11565   */\n      dup2\n        /* \"#utility.yul\":11557:11571   */\n      lt\n        /* \"#utility.yul\":11550:11670   */\n      iszero\n      tag_364\n      jumpi\n        /* \"#utility.yul\":11621:11660   */\n      tag_365\n        /* \"#utility.yul\":11658:11659   */\n      0x00\n        /* \"#utility.yul\":11651:11656   */\n      dup3\n        /* \"#utility.yul\":11621:11660   */\n      tag_213\n      jump\t// in\n    tag_365:\n        /* \"#utility.yul\":11594:11595   */\n      0x01\n        /* \"#utility.yul\":11587:11592   */\n      dup2\n        /* \"#utility.yul\":11583:11596   */\n      add\n        /* \"#utility.yul\":11574:11596   */\n      swap1\n      pop\n        /* \"#utility.yul\":11550:11670   */\n      jump(tag_362)\n    tag_364:\n        /* \"#utility.yul\":11490:11676   */\n      pop\n      pop\n      jump\t// out\n        /* \"#utility.yul\":11682:12225   */\n    tag_215:\n        /* \"#utility.yul\":11783:11785   */\n      0x1f\n        /* \"#utility.yul\":11778:11781   */\n      dup3\n        /* \"#utility.yul\":11775:11786   */\n      gt\n        /* \"#utility.yul\":11772:12218   */\n      iszero\n      tag_367\n      jumpi\n        /* \"#utility.yul\":11817:11855   */\n      tag_368\n        /* \"#utility.yul\":11849:11854   */\n      dup2\n        /* \"#utility.yul\":11817:11855   */\n      tag_205\n      jump\t// in\n    tag_368:\n        /* \"#utility.yul\":11901:11930   */\n      tag_369\n        /* \"#utility.yul\":11919:11929   */\n      dup5\n        /* \"#utility.yul\":11901:11930   */\n      tag_206\n      jump\t// in\n    tag_369:\n        /* \"#utility.yul\":11891:11899   */\n      dup2\n        /* \"#utility.yul\":11887:11931   */\n      add\n        /* \"#utility.yul\":12084:12086   */\n      0x20\n        /* \"#utility.yul\":12072:12082   */\n      dup6\n        /* \"#utility.yul\":12069:12087   */\n      lt\n        /* \"#utility.yul\":12066:12115   */\n      iszero\n      tag_370\n      jumpi\n        /* \"#utility.yul\":12105:12113   */\n      dup2\n        /* \"#utility.yul\":12090:12113   */\n      swap1\n      pop\n        /* \"#utility.yul\":12066:12115   */\n    tag_370:\n        /* \"#utility.yul\":12128:12208   */\n      tag_371\n        /* \"#utility.yul\":12184:12206   */\n      tag_372\n        /* \"#utility.yul\":12202:12205   */\n      dup6\n        /* \"#utility.yul\":12184:12206   */\n      tag_206\n      jump\t// in\n    tag_372:\n        /* \"#utility.yul\":12174:12182   */\n      dup4\n        /* \"#utility.yul\":12170:12207   */\n      add\n        /* \"#utility.yul\":12157:12168   */\n      dup3\n        /* \"#utility.yul\":12128:12208   */\n      tag_214\n      jump\t// in\n    tag_371:\n        /* \"#utility.yul\":11787:12218   */\n      pop\n      pop\n        /* \"#utility.yul\":11772:12218   */\n    tag_367:\n        /* \"#utility.yul\":11682:12225   */\n      pop\n      pop\n      pop\n      jump\t// out\n        /* \"#utility.yul\":12231:12348   */\n    tag_216:\n        /* \"#utility.yul\":12285:12293   */\n      0x00\n        /* \"#utility.yul\":12335:12340   */\n      dup3\n        /* \"#utility.yul\":12329:12333   */\n      dup3\n        /* \"#utility.yul\":12325:12341   */\n      shr\n        /* \"#utility.yul\":12304:12341   */\n      swap1\n      pop\n        /* \"#utility.yul\":12231:12348   */\n      swap3\n      swap2\n      pop\n      pop\n      jump\t// out\n        /* \"#utility.yul\":12354:12523   */\n    tag_217:\n        /* \"#utility.yul\":12398:12404   */\n      0x00\n        /* \"#utility.yul\":12431:12482   */\n      tag_375\n        /* \"#utility.yul\":12479:12480   */\n      0x00\n        /* \"#utility.yul\":12475:12481   */\n      not\n        /* \"#utility.yul\":12467:12472   */\n      dup5\n        /* \"#utility.yul\":12464:12465   */\n      0x08\n        /* \"#utility.yul\":12460:12473   */\n      mul\n        /* \"#utility.yul\":12431:12482   */\n      tag_216\n      jump\t// in\n    tag_375:\n        /* \"#utility.yul\":12427:12483   */\n      not\n        /* \"#utility.yul\":12512:12516   */\n      dup1\n        /* \"#utility.yul\":12506:12510   */\n      dup4\n        /* \"#utility.yul\":12502:12517   */\n      and\n        /* \"#utility.yul\":12492:12517   */\n      swap2\n      pop\n        /* \"#utility.yul\":12405:12523   */\n      pop\n        /* \"#utility.yul\":12354:12523   */\n      swap3\n      swap2\n      pop\n      pop\n      jump\t// out\n        /* \"#utility.yul\":12528:12823   */\n    tag_218:\n        /* \"#utility.yul\":12604:12608   */\n      0x00\n        /* \"#utility.yul\":12750:12779   */\n      tag_377\n        /* \"#utility.yul\":12775:12778   */\n      dup4\n        /* \"#utility.yul\":12769:12773   */\n      dup4\n        /* \"#utility.yul\":12750:12779   */\n      tag_217\n      jump\t// in\n    tag_377:\n        /* \"#utility.yul\":12742:12779   */\n      swap2\n      pop\n        /* \"#utility.yul\":12812:12815   */\n      dup3\n        /* \"#utility.yul\":12809:12810   */\n      0x02\n        /* \"#utility.yul\":12805:12816   */\n      mul\n        /* \"#utility.yul\":12799:12803   */\n      dup3\n        /* \"#utility.yul\":12796:12817   */\n      or\n        /* \"#utility.yul\":12788:12817   */\n      swap1\n      pop\n        /* \"#utility.yul\":12528:12823   */\n      swap3\n      swap2\n      pop\n      pop\n      jump\t// out\n        /* \"#utility.yul\":12828:14223   */\n    tag_93:\n        /* \"#utility.yul\":12945:12982   */\n      tag_379\n        /* \"#utility.yul\":12978:12981   */\n      dup3\n        /* \"#utility.yul\":12945:12982   */\n      tag_169\n      jump\t// in\n    tag_379:\n        /* \"#utility.yul\":13047:13065   */\n      0xffffffffffffffff\n        /* \"#utility.yul\":13039:13045   */\n      dup2\n        /* \"#utility.yul\":13036:13066   */\n      gt\n        /* \"#utility.yul\":13033:13089   */\n      iszero\n      tag_380\n      jumpi\n        /* \"#utility.yul\":13069:13087   */\n      tag_381\n      tag_187\n      jump\t// in\n    tag_381:\n        /* \"#utility.yul\":13033:13089   */\n    tag_380:\n        /* \"#utility.yul\":13113:13151   */\n      tag_382\n        /* \"#utility.yul\":13145:13149   */\n      dup3\n        /* \"#utility.yul\":13139:13150   */\n      sload\n        /* \"#utility.yul\":13113:13151   */\n      tag_78\n      jump\t// in\n    tag_382:\n        /* \"#utility.yul\":13198:13265   */\n      tag_383\n        /* \"#utility.yul\":13258:13264   */\n      dup3\n        /* \"#utility.yul\":13250:13256   */\n      dup3\n        /* \"#utility.yul\":13244:13248   */\n      dup6\n        /* \"#utility.yul\":13198:13265   */\n      tag_215\n      jump\t// in\n    tag_383:\n        /* \"#utility.yul\":13292:13293   */\n      0x00\n        /* \"#utility.yul\":13316:13320   */\n      0x20\n        /* \"#utility.yul\":13303:13320   */\n      swap1\n      pop\n        /* \"#utility.yul\":13348:13350   */\n      0x1f\n        /* \"#utility.yul\":13340:13346   */\n      dup4\n        /* \"#utility.yul\":13337:13351   */\n      gt\n        /* \"#utility.yul\":13365:13366   */\n      0x01\n        /* \"#utility.yul\":13360:13978   */\n      dup2\n      eq\n      tag_385\n      jumpi\n        /* \"#utility.yul\":14022:14023   */\n      0x00\n        /* \"#utility.yul\":14039:14045   */\n      dup5\n        /* \"#utility.yul\":14036:14113   */\n      iszero\n      tag_386\n      jumpi\n        /* \"#utility.yul\":14088:14097   */\n      dup3\n        /* \"#utility.yul\":14083:14086   */\n      dup8\n        /* \"#utility.yul\":14079:14098   */\n      add\n        /* \"#utility.yul\":14073:14099   */\n      mload\n        /* \"#utility.yul\":14064:14099   */\n      swap1\n      pop\n        /* \"#utility.yul\":14036:14113   */\n    tag_386:\n        /* \"#utility.yul\":14139:14206   */\n      tag_387\n        /* \"#utility.yul\":14199:14205   */\n      dup6\n        /* \"#utility.yul\":14192:14197   */\n      dup3\n        /* \"#utility.yul\":14139:14206   */\n      tag_218\n      jump\t// in\n    tag_387:\n        /* \"#utility.yul\":14133:14137   */\n      dup7\n        /* \"#utility.yul\":14126:14207   */\n      sstore\n        /* \"#utility.yul\":13995:14217   */\n      pop\n        /* \"#utility.yul\":13330:14217   */\n      jump(tag_384)\n        /* \"#utility.yul\":13360:13978   */\n    tag_385:\n        /* \"#utility.yul\":13412:13416   */\n      0x1f\n        /* \"#utility.yul\":13408:13417   */\n      not\n        /* \"#utility.yul\":13400:13406   */\n      dup5\n        /* \"#utility.yul\":13396:13418   */\n      and\n        /* \"#utility.yul\":13446:13483   */\n      tag_388\n        /* \"#utility.yul\":13478:13482   */\n      dup7\n        /* \"#utility.yul\":13446:13483   */\n      tag_205\n      jump\t// in\n    tag_388:\n        /* \"#utility.yul\":13505:13506   */\n      0x00\n        /* \"#utility.yul\":13519:13727   */\n    tag_389:\n        /* \"#utility.yul\":13533:13540   */\n      dup3\n        /* \"#utility.yul\":13530:13531   */\n      dup2\n        /* \"#utility.yul\":13527:13541   */\n      lt\n        /* \"#utility.yul\":13519:13727   */\n      iszero\n      tag_391\n      jumpi\n        /* \"#utility.yul\":13612:13621   */\n      dup5\n        /* \"#utility.yul\":13607:13610   */\n      dup10\n        /* \"#utility.yul\":13603:13622   */\n      add\n        /* \"#utility.yul\":13597:13623   */\n      mload\n        /* \"#utility.yul\":13589:13595   */\n      dup3\n        /* \"#utility.yul\":13582:13624   */\n      sstore\n        /* \"#utility.yul\":13663:13664   */\n      0x01\n        /* \"#utility.yul\":13655:13661   */\n      dup3\n        /* \"#utility.yul\":13651:13665   */\n      add\n        /* \"#utility.yul\":13641:13665   */\n      swap2\n      pop\n        /* \"#utility.yul\":13710:13712   */\n      0x20\n        /* \"#utility.yul\":13699:13708   */\n      dup6\n        /* \"#utility.yul\":13695:13713   */\n      add\n        /* \"#utility.yul\":13682:13713   */\n      swap5\n      pop\n        /* \"#utility.yul\":13556:13560   */\n      0x20\n        /* \"#utility.yul\":13553:13554   */\n      dup2\n        /* \"#utility.yul\":13549:13561   */\n      add\n        /* \"#utility.yul\":13544:13561   */\n      swap1\n      pop\n        /* \"#utility.yul\":13519:13727   */\n      jump(tag_389)\n    tag_391:\n        /* \"#utility.yul\":13755:13761   */\n      dup7\n        /* \"#utility.yul\":13746:13753   */\n      dup4\n        /* \"#utility.yul\":13743:13762   */\n      lt\n        /* \"#utility.yul\":13740:13919   */\n      iszero\n      tag_392\n      jumpi\n        /* \"#utility.yul\":13813:13822   */\n      dup5\n        /* \"#utility.yul\":13808:13811   */\n      dup10\n        /* \"#utility.yul\":13804:13823   */\n      add\n        /* \"#utility.yul\":13798:13824   */\n      mload\n        /* \"#utility.yul\":13856:13904   */\n      tag_393\n        /* \"#utility.yul\":13898:13902   */\n      0x1f\n        /* \"#utility.yul\":13890:13896   */\n      dup10\n        /* \"#utility.yul\":13886:13903   */\n      and\n        /* \"#utility.yul\":13875:13884   */\n      dup3\n        /* \"#utility.yul\":13856:13904   */\n      tag_217\n      jump\t// in\n    tag_393:\n        /* \"#utility.yul\":13848:13854   */\n      dup4\n        /* \"#utility.yul\":13841:13905   */\n      sstore\n        /* \"#utility.yul\":13763:13919   */\n      pop\n        /* \"#utility.yul\":13740:13919   */\n    tag_392:\n        /* \"#utility.yul\":13965:13966   */\n      0x01\n        /* \"#utility.yul\":13961:13962   */\n      0x02\n        /* \"#utility.yul\":13953:13959   */\n      dup9\n        /* \"#utility.yul\":13949:13963   */\n      mul\n        /* \"#utility.yul\":13945:13967   */\n      add\n        /* \"#utility.yul\":13939:13943   */\n      dup9\n        /* \"#utility.yul\":13932:13968   */\n      sstore\n        /* \"#utility.yul\":13367:13978   */\n      pop\n      pop\n      pop\n        /* \"#utility.yul\":13330:14217   */\n    tag_384:\n      pop\n        /* \"#utility.yul\":12920:14223   */\n      pop\n      pop\n      pop\n        /* \"#utility.yul\":12828:14223   */\n      pop\n      pop\n      jump\t// out\n        /* \"#utility.yul\":14229:14345   */\n    tag_219:\n        /* \"#utility.yul\":14299:14320   */\n      tag_395\n        /* \"#utility.yul\":14314:14319   */\n      dup2\n        /* \"#utility.yul\":14299:14320   */\n      tag_194\n      jump\t// in\n    tag_395:\n        /* \"#utility.yul\":14292:14297   */\n      dup2\n        /* \"#utility.yul\":14289:14321   */\n      eq\n        /* \"#utility.yul\":14279:14339   */\n      tag_396\n      jumpi\n        /* \"#utility.yul\":14335:14336   */\n      0x00\n        /* \"#utility.yul\":14332:14333   */\n      dup1\n        /* \"#utility.yul\":14325:14337   */\n      revert\n        /* \"#utility.yul\":14279:14339   */\n    tag_396:\n        /* \"#utility.yul\":14229:14345   */\n      pop\n      jump\t// out\n        /* \"#utility.yul\":14351:14488   */\n    tag_220:\n        /* \"#utility.yul\":14405:14410   */\n      0x00\n        /* \"#utility.yul\":14436:14442   */\n      dup2\n        /* \"#utility.yul\":14430:14443   */\n      mload\n        /* \"#utility.yul\":14421:14443   */\n      swap1\n      pop\n        /* \"#utility.yul\":14452:14482   */\n      tag_398\n        /* \"#utility.yul\":14476:14481   */\n      dup2\n        /* \"#utility.yul\":14452:14482   */\n      tag_219\n      jump\t// in\n    tag_398:\n        /* \"#utility.yul\":14351:14488   */\n      swap3\n      swap2\n      pop\n      pop\n      jump\t// out\n        /* \"#utility.yul\":14494:14839   */\n    tag_101:\n        /* \"#utility.yul\":14561:14567   */\n      0x00\n        /* \"#utility.yul\":14610:14612   */\n      0x20\n        /* \"#utility.yul\":14598:14607   */\n      dup3\n        /* \"#utility.yul\":14589:14596   */\n      dup5\n        /* \"#utility.yul\":14585:14608   */\n      sub\n        /* \"#utility.yul\":14581:14613   */\n      slt\n        /* \"#utility.yul\":14578:14697   */\n      iszero\n      tag_400\n      jumpi\n        /* \"#utility.yul\":14616:14695   */\n      tag_401\n      tag_183\n      jump\t// in\n    tag_401:\n        /* \"#utility.yul\":14578:14697   */\n    tag_400:\n        /* \"#utility.yul\":14736:14737   */\n      0x00\n        /* \"#utility.yul\":14761:14822   */\n      tag_402\n        /* \"#utility.yul\":14814:14821   */\n      dup5\n        /* \"#utility.yul\":14805:14811   */\n      dup3\n        /* \"#utility.yul\":14794:14803   */\n      dup6\n        /* \"#utility.yul\":14790:14812   */\n      add\n        /* \"#utility.yul\":14761:14822   */\n      tag_220\n      jump\t// in\n    tag_402:\n        /* \"#utility.yul\":14751:14822   */\n      swap2\n      pop\n        /* \"#utility.yul\":14707:14832   */\n      pop\n        /* \"#utility.yul\":14494:14839   */\n      swap3\n      swap2\n      pop\n      pop\n      jump\t// out\n        /* \"#utility.yul\":14845:14963   */\n    tag_221:\n        /* \"#utility.yul\":14932:14956   */\n      tag_404\n        /* \"#utility.yul\":14950:14955   */\n      dup2\n        /* \"#utility.yul\":14932:14956   */\n      tag_198\n      jump\t// in\n    tag_404:\n        /* \"#utility.yul\":14927:14930   */\n      dup3\n        /* \"#utility.yul\":14920:14957   */\n      mstore\n        /* \"#utility.yul\":14845:14963   */\n      pop\n      pop\n      jump\t// out\n        /* \"#utility.yul\":14969:15301   */\n    tag_124:\n        /* \"#utility.yul\":15090:15094   */\n      0x00\n        /* \"#utility.yul\":15128:15130   */\n      0x40\n        /* \"#utility.yul\":15117:15126   */\n      dup3\n        /* \"#utility.yul\":15113:15131   */\n      add\n        /* \"#utility.yul\":15105:15131   */\n      swap1\n      pop\n        /* \"#utility.yul\":15141:15212   */\n      tag_406\n        /* \"#utility.yul\":15209:15210   */\n      0x00\n        /* \"#utility.yul\":15198:15207   */\n      dup4\n        /* \"#utility.yul\":15194:15211   */\n      add\n        /* \"#utility.yul\":15185:15191   */\n      dup6\n        /* \"#utility.yul\":15141:15212   */\n      tag_176\n      jump\t// in\n    tag_406:\n        /* \"#utility.yul\":15222:15294   */\n      tag_407\n        /* \"#utility.yul\":15290:15292   */\n      0x20\n        /* \"#utility.yul\":15279:15288   */\n      dup4\n        /* \"#utility.yul\":15275:15293   */\n      add\n        /* \"#utility.yul\":15266:15272   */\n      dup5\n        /* \"#utility.yul\":15222:15294   */\n      tag_221\n      jump\t// in\n    tag_407:\n        /* \"#utility.yul\":14969:15301   */\n      swap4\n      swap3\n      pop\n      pop\n      pop\n      jump\t// out\n        /* \"#utility.yul\":15331:16162   */\n    tag_222:\n        /* \"#utility.yul\":15416:15419   */\n      0x00\n        /* \"#utility.yul\":15453:15458   */\n      dup2\n        /* \"#utility.yul\":15447:15459   */\n      sload\n        /* \"#utility.yul\":15482:15518   */\n      tag_409\n        /* \"#utility.yul\":15508:15517   */\n      dup2\n        /* \"#utility.yul\":15482:15518   */\n      tag_78\n      jump\t// in\n    tag_409:\n        /* \"#utility.yul\":15534:15605   */\n      tag_410\n        /* \"#utility.yul\":15598:15604   */\n      dup2\n        /* \"#utility.yul\":15593:15596   */\n      dup7\n        /* \"#utility.yul\":15534:15605   */\n      tag_170\n      jump\t// in\n    tag_410:\n        /* \"#utility.yul\":15527:15605   */\n      swap5\n      pop\n        /* \"#utility.yul\":15636:15637   */\n      0x01\n        /* \"#utility.yul\":15625:15634   */\n      dup3\n        /* \"#utility.yul\":15621:15638   */\n      and\n        /* \"#utility.yul\":15652:15653   */\n      0x00\n        /* \"#utility.yul\":15647:15811   */\n      dup2\n      eq\n      tag_412\n      jumpi\n        /* \"#utility.yul\":15825:15826   */\n      0x01\n        /* \"#utility.yul\":15820:16156   */\n      dup2\n      eq\n      tag_413\n      jumpi\n        /* \"#utility.yul\":15614:16156   */\n      jump(tag_411)\n        /* \"#utility.yul\":15647:15811   */\n    tag_412:\n        /* \"#utility.yul\":15731:15735   */\n      0xff\n        /* \"#utility.yul\":15727:15736   */\n      not\n        /* \"#utility.yul\":15716:15725   */\n      dup4\n        /* \"#utility.yul\":15712:15737   */\n      and\n        /* \"#utility.yul\":15707:15710   */\n      dup7\n        /* \"#utility.yul\":15700:15738   */\n      mstore\n        /* \"#utility.yul\":15791:15797   */\n      dup2\n        /* \"#utility.yul\":15784:15798   */\n      iszero\n        /* \"#utility.yul\":15777:15799   */\n      iszero\n        /* \"#utility.yul\":15771:15775   */\n      0x20\n        /* \"#utility.yul\":15767:15800   */\n      mul\n        /* \"#utility.yul\":15762:15765   */\n      dup7\n        /* \"#utility.yul\":15758:15801   */\n      add\n        /* \"#utility.yul\":15751:15801   */\n      swap4\n      pop\n        /* \"#utility.yul\":15647:15811   */\n      jump(tag_411)\n        /* \"#utility.yul\":15820:16156   */\n    tag_413:\n        /* \"#utility.yul\":15887:15925   */\n      tag_414\n        /* \"#utility.yul\":15919:15924   */\n      dup6\n        /* \"#utility.yul\":15887:15925   */\n      tag_205\n      jump\t// in\n    tag_414:\n        /* \"#utility.yul\":15947:15948   */\n      0x00\n        /* \"#utility.yul\":15961:16115   */\n    tag_415:\n        /* \"#utility.yul\":15975:15981   */\n      dup4\n        /* \"#utility.yul\":15972:15973   */\n      dup2\n        /* \"#utility.yul\":15969:15982   */\n      lt\n        /* \"#utility.yul\":15961:16115   */\n      iszero\n      tag_417\n      jumpi\n        /* \"#utility.yul\":16049:16056   */\n      dup2\n        /* \"#utility.yul\":16043:16057   */\n      sload\n        /* \"#utility.yul\":16039:16040   */\n      dup2\n        /* \"#utility.yul\":16034:16037   */\n      dup10\n        /* \"#utility.yul\":16030:16041   */\n      add\n        /* \"#utility.yul\":16023:16058   */\n      mstore\n        /* \"#utility.yul\":16099:16100   */\n      0x01\n        /* \"#utility.yul\":16090:16097   */\n      dup3\n        /* \"#utility.yul\":16086:16101   */\n      add\n        /* \"#utility.yul\":16075:16101   */\n      swap2\n      pop\n        /* \"#utility.yul\":15997:16001   */\n      0x20\n        /* \"#utility.yul\":15994:15995   */\n      dup2\n        /* \"#utility.yul\":15990:16002   */\n      add\n        /* \"#utility.yul\":15985:16002   */\n      swap1\n      pop\n        /* \"#utility.yul\":15961:16115   */\n      jump(tag_415)\n    tag_417:\n        /* \"#utility.yul\":16144:16145   */\n      dup1\n        /* \"#utility.yul\":16139:16142   */\n      dup9\n        /* \"#utility.yul\":16135:16146   */\n      add\n        /* \"#utility.yul\":16128:16146   */\n      swap6\n      pop\n        /* \"#utility.yul\":15827:16156   */\n      pop\n      pop\n        /* \"#utility.yul\":15614:16156   */\n    tag_411:\n      pop\n        /* \"#utility.yul\":15420:16162   */\n      pop\n      pop\n        /* \"#utility.yul\":15331:16162   */\n      swap3\n      swap2\n      pop\n      pop\n      jump\t// out\n        /* \"#utility.yul\":16168:16266   */\n    tag_223:\n        /* \"#utility.yul\":16219:16225   */\n      0x00\n        /* \"#utility.yul\":16253:16258   */\n      dup2\n        /* \"#utility.yul\":16247:16259   */\n      mload\n        /* \"#utility.yul\":16237:16259   */\n      swap1\n      pop\n        /* \"#utility.yul\":16168:16266   */\n      swap2\n      swap1\n      pop\n      jump\t// out\n        /* \"#utility.yul\":16272:16440   */\n    tag_224:\n        /* \"#utility.yul\":16355:16366   */\n      0x00\n        /* \"#utility.yul\":16389:16395   */\n      dup3\n        /* \"#utility.yul\":16384:16387   */\n      dup3\n        /* \"#utility.yul\":16377:16396   */\n      mstore\n        /* \"#utility.yul\":16429:16433   */\n      0x20\n        /* \"#utility.yul\":16424:16427   */\n      dup3\n        /* \"#utility.yul\":16420:16434   */\n      add\n        /* \"#utility.yul\":16405:16434   */\n      swap1\n      pop\n        /* \"#utility.yul\":16272:16440   */\n      swap3\n      swap2\n      pop\n      pop\n      jump\t// out\n        /* \"#utility.yul\":16446:16819   */\n    tag_225:\n        /* \"#utility.yul\":16532:16535   */\n      0x00\n        /* \"#utility.yul\":16560:16598   */\n      tag_421\n        /* \"#utility.yul\":16592:16597   */\n      dup3\n        /* \"#utility.yul\":16560:16598   */\n      tag_223\n      jump\t// in\n    tag_421:\n        /* \"#utility.yul\":16614:16684   */\n      tag_422\n        /* \"#utility.yul\":16677:16683   */\n      dup2\n        /* \"#utility.yul\":16672:16675   */\n      dup6\n        /* \"#utility.yul\":16614:16684   */\n      tag_224\n      jump\t// in\n    tag_422:\n        /* \"#utility.yul\":16607:16684   */\n      swap4\n      pop\n        /* \"#utility.yul\":16693:16758   */\n      tag_423\n        /* \"#utility.yul\":16751:16757   */\n      dup2\n        /* \"#utility.yul\":16746:16749   */\n      dup6\n        /* \"#utility.yul\":16739:16743   */\n      0x20\n        /* \"#utility.yul\":16732:16737   */\n      dup7\n        /* \"#utility.yul\":16728:16744   */\n      add\n        /* \"#utility.yul\":16693:16758   */\n      tag_171\n      jump\t// in\n    tag_423:\n        /* \"#utility.yul\":16783:16812   */\n      tag_424\n        /* \"#utility.yul\":16805:16811   */\n      dup2\n        /* \"#utility.yul\":16783:16812   */\n      tag_172\n      jump\t// in\n    tag_424:\n        /* \"#utility.yul\":16778:16781   */\n      dup5\n        /* \"#utility.yul\":16774:16813   */\n      add\n        /* \"#utility.yul\":16767:16813   */\n      swap2\n      pop\n        /* \"#utility.yul\":16536:16819   */\n      pop\n        /* \"#utility.yul\":16446:16819   */\n      swap3\n      swap2\n      pop\n      pop\n      jump\t// out\n        /* \"#utility.yul\":16825:17746   */\n    tag_126:\n        /* \"#utility.yul\":17082:17086   */\n      0x00\n        /* \"#utility.yul\":17120:17123   */\n      0xa0\n        /* \"#utility.yul\":17109:17118   */\n      dup3\n        /* \"#utility.yul\":17105:17124   */\n      add\n        /* \"#utility.yul\":17097:17124   */\n      swap1\n      pop\n        /* \"#utility.yul\":17134:17205   */\n      tag_426\n        /* \"#utility.yul\":17202:17203   */\n      0x00\n        /* \"#utility.yul\":17191:17200   */\n      dup4\n        /* \"#utility.yul\":17187:17204   */\n      add\n        /* \"#utility.yul\":17178:17184   */\n      dup9\n        /* \"#utility.yul\":17134:17205   */\n      tag_176\n      jump\t// in\n    tag_426:\n        /* \"#utility.yul\":17252:17261   */\n      dup2\n        /* \"#utility.yul\":17246:17250   */\n      dup2\n        /* \"#utility.yul\":17242:17262   */\n      sub\n        /* \"#utility.yul\":17237:17239   */\n      0x20\n        /* \"#utility.yul\":17226:17235   */\n      dup4\n        /* \"#utility.yul\":17222:17240   */\n      add\n        /* \"#utility.yul\":17215:17263   */\n      mstore\n        /* \"#utility.yul\":17280:17355   */\n      tag_427\n        /* \"#utility.yul\":17350:17354   */\n      dup2\n        /* \"#utility.yul\":17341:17347   */\n      dup8\n        /* \"#utility.yul\":17280:17355   */\n      tag_222\n      jump\t// in\n    tag_427:\n        /* \"#utility.yul\":17272:17355   */\n      swap1\n      pop\n        /* \"#utility.yul\":17402:17411   */\n      dup2\n        /* \"#utility.yul\":17396:17400   */\n      dup2\n        /* \"#utility.yul\":17392:17412   */\n      sub\n        /* \"#utility.yul\":17387:17389   */\n      0x40\n        /* \"#utility.yul\":17376:17385   */\n      dup4\n        /* \"#utility.yul\":17372:17390   */\n      add\n        /* \"#utility.yul\":17365:17413   */\n      mstore\n        /* \"#utility.yul\":17430:17505   */\n      tag_428\n        /* \"#utility.yul\":17500:17504   */\n      dup2\n        /* \"#utility.yul\":17491:17497   */\n      dup7\n        /* \"#utility.yul\":17430:17505   */\n      tag_222\n      jump\t// in\n    tag_428:\n        /* \"#utility.yul\":17422:17505   */\n      swap1\n      pop\n        /* \"#utility.yul\":17552:17561   */\n      dup2\n        /* \"#utility.yul\":17546:17550   */\n      dup2\n        /* \"#utility.yul\":17542:17562   */\n      sub\n        /* \"#utility.yul\":17537:17539   */\n      0x60\n        /* \"#utility.yul\":17526:17535   */\n      dup4\n        /* \"#utility.yul\":17522:17540   */\n      add\n        /* \"#utility.yul\":17515:17563   */\n      mstore\n        /* \"#utility.yul\":17580:17656   */\n      tag_429\n        /* \"#utility.yul\":17651:17655   */\n      dup2\n        /* \"#utility.yul\":17642:17648   */\n      dup6\n        /* \"#utility.yul\":17580:17656   */\n      tag_225\n      jump\t// in\n    tag_429:\n        /* \"#utility.yul\":17572:17656   */\n      swap1\n      pop\n        /* \"#utility.yul\":17666:17739   */\n      tag_430\n        /* \"#utility.yul\":17734:17737   */\n      0x80\n        /* \"#utility.yul\":17723:17732   */\n      dup4\n        /* \"#utility.yul\":17719:17738   */\n      add\n        /* \"#utility.yul\":17710:17716   */\n      dup5\n        /* \"#utility.yul\":17666:17739   */\n      tag_176\n      jump\t// in\n    tag_430:\n        /* \"#utility.yul\":16825:17746   */\n      swap7\n      swap6\n      pop\n      pop\n      pop\n      pop\n      pop\n      pop\n      jump\t// out\n        /* \"#utility.yul\":17752:18451   */\n    tag_131:\n        /* \"#utility.yul\":17953:17957   */\n      0x00\n        /* \"#utility.yul\":17991:17993   */\n      0x60\n        /* \"#utility.yul\":17980:17989   */\n      dup3\n        /* \"#utility.yul\":17976:17994   */\n      add\n        /* \"#utility.yul\":17968:17994   */\n      swap1\n      pop\n        /* \"#utility.yul\":18040:18049   */\n      dup2\n        /* \"#utility.yul\":18034:18038   */\n      dup2\n        /* \"#utility.yul\":18030:18050   */\n      sub\n        /* \"#utility.yul\":18026:18027   */\n      0x00\n        /* \"#utility.yul\":18015:18024   */\n      dup4\n        /* \"#utility.yul\":18011:18028   */\n      add\n        /* \"#utility.yul\":18004:18051   */\n      mstore\n        /* \"#utility.yul\":18068:18143   */\n      tag_432\n        /* \"#utility.yul\":18138:18142   */\n      dup2\n        /* \"#utility.yul\":18129:18135   */\n      dup7\n        /* \"#utility.yul\":18068:18143   */\n      tag_222\n      jump\t// in\n    tag_432:\n        /* \"#utility.yul\":18060:18143   */\n      swap1\n      pop\n        /* \"#utility.yul\":18190:18199   */\n      dup2\n        /* \"#utility.yul\":18184:18188   */\n      dup2\n        /* \"#utility.yul\":18180:18200   */\n      sub\n        /* \"#utility.yul\":18175:18177   */\n      0x20\n        /* \"#utility.yul\":18164:18173   */\n      dup4\n        /* \"#utility.yul\":18160:18178   */\n      add\n        /* \"#utility.yul\":18153:18201   */\n      mstore\n        /* \"#utility.yul\":18218:18293   */\n      tag_433\n        /* \"#utility.yul\":18288:18292   */\n      dup2\n        /* \"#utility.yul\":18279:18285   */\n      dup6\n        /* \"#utility.yul\":18218:18293   */\n      tag_222\n      jump\t// in\n    tag_433:\n        /* \"#utility.yul\":18210:18293   */\n      swap1\n      pop\n        /* \"#utility.yul\":18340:18349   */\n      dup2\n        /* \"#utility.yul\":18334:18338   */\n      dup2\n        /* \"#utility.yul\":18330:18350   */\n      sub\n        /* \"#utility.yul\":18325:18327   */\n      0x40\n        /* \"#utility.yul\":18314:18323   */\n      dup4\n        /* \"#utility.yul\":18310:18328   */\n      add\n        /* \"#utility.yul\":18303:18351   */\n      mstore\n        /* \"#utility.yul\":18368:18444   */\n      tag_434\n        /* \"#utility.yul\":18439:18443   */\n      dup2\n        /* \"#utility.yul\":18430:18436   */\n      dup5\n        /* \"#utility.yul\":18368:18444   */\n      tag_225\n      jump\t// in\n    tag_434:\n        /* \"#utility.yul\":18360:18444   */\n      swap1\n      pop\n        /* \"#utility.yul\":17752:18451   */\n      swap5\n      swap4\n      pop\n      pop\n      pop\n      pop\n      jump\t// out\n        /* \"#utility.yul\":18479:18793   */\n    tag_226:\n        /* \"#utility.yul\":18575:18578   */\n      0x00\n        /* \"#utility.yul\":18596:18666   */\n      tag_436\n        /* \"#utility.yul\":18659:18665   */\n      dup4\n        /* \"#utility.yul\":18654:18657   */\n      dup6\n        /* \"#utility.yul\":18596:18666   */\n      tag_224\n      jump\t// in\n    tag_436:\n        /* \"#utility.yul\":18589:18666   */\n      swap4\n      pop\n        /* \"#utility.yul\":18676:18732   */\n      tag_437\n        /* \"#utility.yul\":18725:18731   */\n      dup4\n        /* \"#utility.yul\":18720:18723   */\n      dup6\n        /* \"#utility.yul\":18713:18718   */\n      dup5\n        /* \"#utility.yul\":18676:18732   */\n      tag_191\n      jump\t// in\n    tag_437:\n        /* \"#utility.yul\":18757:18786   */\n      tag_438\n        /* \"#utility.yul\":18779:18785   */\n      dup4\n        /* \"#utility.yul\":18757:18786   */\n      tag_172\n      jump\t// in\n    tag_438:\n        /* \"#utility.yul\":18752:18755   */\n      dup5\n        /* \"#utility.yul\":18748:18787   */\n      add\n        /* \"#utility.yul\":18741:18787   */\n      swap1\n      pop\n        /* \"#utility.yul\":18479:18793   */\n      swap4\n      swap3\n      pop\n      pop\n      pop\n      jump\t// out\n        /* \"#utility.yul\":18799:19238   */\n    tag_151:\n        /* \"#utility.yul\":18948:18952   */\n      0x00\n        /* \"#utility.yul\":18986:18988   */\n      0x40\n        /* \"#utility.yul\":18975:18984   */\n      dup3\n        /* \"#utility.yul\":18971:18989   */\n      add\n        /* \"#utility.yul\":18963:18989   */\n      swap1\n      pop\n        /* \"#utility.yul\":19035:19044   */\n      dup2\n        /* \"#utility.yul\":19029:19033   */\n      dup2\n        /* \"#utility.yul\":19025:19045   */\n      sub\n        /* \"#utility.yul\":19021:19022   */\n      0x00\n        /* \"#utility.yul\":19010:19019   */\n      dup4\n        /* \"#utility.yul\":19006:19023   */\n      add\n        /* \"#utility.yul\":18999:19046   */\n      mstore\n        /* \"#utility.yul\":19063:19149   */\n      tag_440\n        /* \"#utility.yul\":19144:19148   */\n      dup2\n        /* \"#utility.yul\":19135:19141   */\n      dup6\n        /* \"#utility.yul\":19127:19133   */\n      dup8\n        /* \"#utility.yul\":19063:19149   */\n      tag_226\n      jump\t// in\n    tag_440:\n        /* \"#utility.yul\":19055:19149   */\n      swap1\n      pop\n        /* \"#utility.yul\":19159:19231   */\n      tag_441\n        /* \"#utility.yul\":19227:19229   */\n      0x20\n        /* \"#utility.yul\":19216:19225   */\n      dup4\n        /* \"#utility.yul\":19212:19230   */\n      add\n        /* \"#utility.yul\":19203:19209   */\n      dup5\n        /* \"#utility.yul\":19159:19231   */\n      tag_221\n      jump\t// in\n    tag_441:\n        /* \"#utility.yul\":18799:19238   */\n      swap5\n      swap4\n      pop\n      pop\n      pop\n      pop\n      jump\t// out\n\n    auxdata: 0xa2646970667358221220abde74203415afdb65851418d3cacec47984228dadd1b9503bbec9e86f890d7564736f6c634300081a0033\n}\n",
				"bytecode": {
					"linkReferences": {},
					"object": "60a060405234801561000f575f80fd5b50604051611f4f380380611f4f833981810160405281019061003191906103b8565b845f73ffffffffffffffffffffffffffffffffffffffff168173ffffffffffffffffffffffffffffffffffffffff16036100a2575f6040517f1e4fbdf70000000000000000000000000000000000000000000000000000000081526004016100999190610476565b60405180910390fd5b6100b18161015060201b60201c565b508360025f6101000a81548173ffffffffffffffffffffffffffffffffffffffff021916908373ffffffffffffffffffffffffffffffffffffffff1602179055508273ffffffffffffffffffffffffffffffffffffffff1660808173ffffffffffffffffffffffffffffffffffffffff16815250508160039081610135919061069c565b508060049081610145919061069c565b50505050505061076b565b5f805f9054906101000a900473ffffffffffffffffffffffffffffffffffffffff169050815f806101000a81548173ffffffffffffffffffffffffffffffffffffffff021916908373ffffffffffffffffffffffffffffffffffffffff1602179055508173ffffffffffffffffffffffffffffffffffffffff168173ffffffffffffffffffffffffffffffffffffffff167f8be0079c531659141344cd1fd0a4f28419497f9722a3daafe3b4186f6b6457e060405160405180910390a35050565b5f604051905090565b5f80fd5b5f80fd5b5f73ffffffffffffffffffffffffffffffffffffffff82169050919050565b5f61024b82610222565b9050919050565b61025b81610241565b8114610265575f80fd5b50565b5f8151905061027681610252565b92915050565b5f80fd5b5f80fd5b5f601f19601f8301169050919050565b7f4e487b71000000000000000000000000000000000000000000000000000000005f52604160045260245ffd5b6102ca82610284565b810181811067ffffffffffffffff821117156102e9576102e8610294565b5b80604052505050565b5f6102fb610211565b905061030782826102c1565b919050565b5f67ffffffffffffffff82111561032657610325610294565b5b61032f82610284565b9050602081019050919050565b8281835e5f83830152505050565b5f61035c6103578461030c565b6102f2565b90508281526020810184848401111561037857610377610280565b5b61038384828561033c565b509392505050565b5f82601f83011261039f5761039e61027c565b5b81516103af84826020860161034a565b91505092915050565b5f805f805f60a086880312156103d1576103d061021a565b5b5f6103de88828901610268565b95505060206103ef88828901610268565b945050604061040088828901610268565b935050606086015167ffffffffffffffff8111156104215761042061021e565b5b61042d8882890161038b565b925050608086015167ffffffffffffffff81111561044e5761044d61021e565b5b61045a8882890161038b565b9150509295509295909350565b61047081610241565b82525050565b5f6020820190506104895f830184610467565b92915050565b5f81519050919050565b7f4e487b71000000000000000000000000000000000000000000000000000000005f52602260045260245ffd5b5f60028204905060018216806104dd57607f821691505b6020821081036104f0576104ef610499565b5b50919050565b5f819050815f5260205f209050919050565b5f6020601f8301049050919050565b5f82821b905092915050565b5f600883026105527fffffffffffffffffffffffffffffffffffffffffffffffffffffffffffffffff82610517565b61055c8683610517565b95508019841693508086168417925050509392505050565b5f819050919050565b5f819050919050565b5f6105a061059b61059684610574565b61057d565b610574565b9050919050565b5f819050919050565b6105b983610586565b6105cd6105c5826105a7565b848454610523565b825550505050565b5f90565b6105e16105d5565b6105ec8184846105b0565b505050565b5b8181101561060f576106045f826105d9565b6001810190506105f2565b5050565b601f82111561065457610625816104f6565b61062e84610508565b8101602085101561063d578190505b61065161064985610508565b8301826105f1565b50505b505050565b5f82821c905092915050565b5f6106745f1984600802610659565b1980831691505092915050565b5f61068c8383610665565b9150826002028217905092915050565b6106a58261048f565b67ffffffffffffffff8111156106be576106bd610294565b5b6106c882546104c6565b6106d3828285610613565b5f60209050601f831160018114610704575f84156106f2578287015190505b6106fc8582610681565b865550610763565b601f198416610712866104f6565b5f5b8281101561073957848901518255600182019150602085019450602081019050610714565b868310156107565784890151610752601f891682610665565b8355505b6001600288020188555050505b505050505050565b6080516117be6107915f395f818161036f015281816107eb0152610b2401526117be5ff3fe6080604052600436106100c5575f3560e01c80638da5cb5b1161007e578063bcaf0d9a11610058578063bcaf0d9a14610232578063ca09c8851461025c578063f2fde38b14610278578063f4bd456d146102a0576100cc565b80638da5cb5b146101b65780639b85622c146101e0578063bc95b3b114610208576100cc565b806325d83b7a146100d05780634cae3185146100fa5780636a22d8cc14610124578063715018a61461014e57806384272b591461016457806385a2dd151461018c576100cc565b366100cc57005b5f80fd5b3480156100db575f80fd5b506100e46102bc565b6040516100f19190610e0c565b60405180910390f35b348015610105575f80fd5b5061010e610348565b60405161011b9190610e6b565b60405180910390f35b34801561012f575f80fd5b5061013861036d565b6040516101459190610edf565b60405180910390f35b348015610159575f80fd5b50610162610391565b005b34801561016f575f80fd5b5061018a60048036038101906101859190611035565b6103a4565b005b348015610197575f80fd5b506101a06103d0565b6040516101ad91906110c5565b60405180910390f35b3480156101c1575f80fd5b506101ca61053d565b6040516101d79190610e6b565b60405180910390f35b3480156101eb575f80fd5b5061020660048036038101906102019190611108565b610564565b005b348015610213575f80fd5b5061021c6105af565b6040516102299190610e0c565b60405180910390f35b34801561023d575f80fd5b5061024661063b565b6040516102539190610e6b565b60405180910390f35b61027660048036038101906102719190611166565b610660565b005b348015610283575f80fd5b5061029e60048036038101906102999190611108565b610913565b005b6102ba60048036038101906102b59190611201565b610997565b005b600480546102c99061128b565b80601f01602080910402602001604051908101604052809291908181526020018280546102f59061128b565b80156103405780601f1061031757610100808354040283529160200191610340565b820191905f5260205f20905b81548152906001019060200180831161032357829003601f168201915b505050505081565b60025f9054906101000a900473ffffffffffffffffffffffffffffffffffffffff1681565b7f000000000000000000000000000000000000000000000000000000000000000081565b610399610c4d565b6103a25f610cd4565b565b6103ac610c4d565b81600390816103bb919061144f565b5080600490816103cb919061144f565b505050565b5f8073ffffffffffffffffffffffffffffffffffffffff1660015f9054906101000a900473ffffffffffffffffffffffffffffffffffffffff1673ffffffffffffffffffffffffffffffffffffffff1603610457576040517ff37741d700000000000000000000000000000000000000000000000000000000815260040160405180910390fd5b5f60015f9054906101000a900473ffffffffffffffffffffffffffffffffffffffff1690508073ffffffffffffffffffffffffffffffffffffffff1663b166a09f336040518263ffffffff1660e01b81526004016104b59190610e6b565b602060405180830381865afa1580156104d0573d5f803e3d5ffd5b505050506040513d601f19601f820116820180604052508101906104f49190611548565b61053557336040517f32b2baa300000000000000000000000000000000000000000000000000000000815260040161052c9190610e6b565b60405180910390fd5b600191505090565b5f805f9054906101000a900473ffffffffffffffffffffffffffffffffffffffff16905090565b61056c610c4d565b8060015f6101000a81548173ffffffffffffffffffffffffffffffffffffffff021916908373ffffffffffffffffffffffffffffffffffffffff16021790555050565b600380546105bc9061128b565b80601f01602080910402602001604051908101604052809291908181526020018280546105e89061128b565b80156106335780601f1061060a57610100808354040283529160200191610633565b820191905f5260205f20905b81548152906001019060200180831161061657829003601f168201915b505050505081565b60015f9054906101000a900473ffffffffffffffffffffffffffffffffffffffff1681565b5f73ffffffffffffffffffffffffffffffffffffffff1660015f9054906101000a900473ffffffffffffffffffffffffffffffffffffffff1673ffffffffffffffffffffffffffffffffffffffff16036106e6576040517ff37741d700000000000000000000000000000000000000000000000000000000815260040160405180910390fd5b5f60015f9054906101000a900473ffffffffffffffffffffffffffffffffffffffff1690508073ffffffffffffffffffffffffffffffffffffffff1663b166a09f336040518263ffffffff1660e01b81526004016107449190610e6b565b602060405180830381865afa15801561075f573d5f803e3d5ffd5b505050506040513d601f19601f820116820180604052508101906107839190611548565b6107c457336040517f32b2baa30000000000000000000000000000000000000000000000000000000081526004016107bb9190610e6b565b60405180910390fd5b5f83836040516020016107d8929190611582565b60405160208183030381529060405290507f000000000000000000000000000000000000000000000000000000000000000073ffffffffffffffffffffffffffffffffffffffff16630c93e3bb34306003600486336040518763ffffffff1660e01b815260040161084d95949392919061167c565b5f604051808303818588803b158015610864575f80fd5b505af1158015610876573d5f803e3d5ffd5b50505050505f60025f9054906101000a900473ffffffffffffffffffffffffffffffffffffffff1690508073ffffffffffffffffffffffffffffffffffffffff16631c92115f60036004856040518463ffffffff1660e01b81526004016108df939291906116e2565b5f604051808303815f87803b1580156108f6575f80fd5b505af1158015610908573d5f803e3d5ffd5b505050505050505050565b61091b610c4d565b5f73ffffffffffffffffffffffffffffffffffffffff168173ffffffffffffffffffffffffffffffffffffffff160361098b575f6040517f1e4fbdf70000000000000000000000000000000000000000000000000000000081526004016109829190610e6b565b60405180910390fd5b61099481610cd4565b50565b5f73ffffffffffffffffffffffffffffffffffffffff1660015f9054906101000a900473ffffffffffffffffffffffffffffffffffffffff1673ffffffffffffffffffffffffffffffffffffffff1603610a1d576040517ff37741d700000000000000000000000000000000000000000000000000000000815260040160405180910390fd5b5f60015f9054906101000a900473ffffffffffffffffffffffffffffffffffffffff1690508073ffffffffffffffffffffffffffffffffffffffff1663b166a09f336040518263ffffffff1660e01b8152600401610a7b9190610e6b565b602060405180830381865afa158015610a96573d5f803e3d5ffd5b505050506040513d601f19601f82011682018060405250810190610aba9190611548565b610afb57336040517f32b2baa3000000000000000000000000000000000000000000000000000000008152600401610af29190610e6b565b60405180910390fd5b5f848484604051602001610b1193929190611758565b60405160208183030381529060405290507f000000000000000000000000000000000000000000000000000000000000000073ffffffffffffffffffffffffffffffffffffffff16630c93e3bb34306003600486336040518763ffffffff1660e01b8152600401610b8695949392919061167c565b5f604051808303818588803b158015610b9d575f80fd5b505af1158015610baf573d5f803e3d5ffd5b50505050505f60025f9054906101000a900473ffffffffffffffffffffffffffffffffffffffff1690508073ffffffffffffffffffffffffffffffffffffffff16631c92115f60036004856040518463ffffffff1660e01b8152600401610c18939291906116e2565b5f604051808303815f87803b158015610c2f575f80fd5b505af1158015610c41573d5f803e3d5ffd5b50505050505050505050565b610c55610d95565b73ffffffffffffffffffffffffffffffffffffffff16610c7361053d565b73ffffffffffffffffffffffffffffffffffffffff1614610cd257610c96610d95565b6040517f118cdaa7000000000000000000000000000000000000000000000000000000008152600401610cc99190610e6b565b60405180910390fd5b565b5f805f9054906101000a900473ffffffffffffffffffffffffffffffffffffffff169050815f806101000a81548173ffffffffffffffffffffffffffffffffffffffff021916908373ffffffffffffffffffffffffffffffffffffffff1602179055508173ffffffffffffffffffffffffffffffffffffffff168173ffffffffffffffffffffffffffffffffffffffff167f8be0079c531659141344cd1fd0a4f28419497f9722a3daafe3b4186f6b6457e060405160405180910390a35050565b5f33905090565b5f81519050919050565b5f82825260208201905092915050565b8281835e5f83830152505050565b5f601f19601f8301169050919050565b5f610dde82610d9c565b610de88185610da6565b9350610df8818560208601610db6565b610e0181610dc4565b840191505092915050565b5f6020820190508181035f830152610e248184610dd4565b905092915050565b5f73ffffffffffffffffffffffffffffffffffffffff82169050919050565b5f610e5582610e2c565b9050919050565b610e6581610e4b565b82525050565b5f602082019050610e7e5f830184610e5c565b92915050565b5f819050919050565b5f610ea7610ea2610e9d84610e2c565b610e84565b610e2c565b9050919050565b5f610eb882610e8d565b9050919050565b5f610ec982610eae565b9050919050565b610ed981610ebf565b82525050565b5f602082019050610ef25f830184610ed0565b92915050565b5f604051905090565b5f80fd5b5f80fd5b5f80fd5b5f80fd5b7f4e487b71000000000000000000000000000000000000000000000000000000005f52604160045260245ffd5b610f4782610dc4565b810181811067ffffffffffffffff82111715610f6657610f65610f11565b5b80604052505050565b5f610f78610ef8565b9050610f848282610f3e565b919050565b5f67ffffffffffffffff821115610fa357610fa2610f11565b5b610fac82610dc4565b9050602081019050919050565b828183375f83830152505050565b5f610fd9610fd484610f89565b610f6f565b905082815260208101848484011115610ff557610ff4610f0d565b5b611000848285610fb9565b509392505050565b5f82601f83011261101c5761101b610f09565b5b813561102c848260208601610fc7565b91505092915050565b5f806040838503121561104b5761104a610f01565b5b5f83013567ffffffffffffffff81111561106857611067610f05565b5b61107485828601611008565b925050602083013567ffffffffffffffff81111561109557611094610f05565b5b6110a185828601611008565b9150509250929050565b5f8115159050919050565b6110bf816110ab565b82525050565b5f6020820190506110d85f8301846110b6565b92915050565b6110e781610e4b565b81146110f1575f80fd5b50565b5f81359050611102816110de565b92915050565b5f6020828403121561111d5761111c610f01565b5b5f61112a848285016110f4565b91505092915050565b5f819050919050565b61114581611133565b811461114f575f80fd5b50565b5f813590506111608161113c565b92915050565b5f806040838503121561117c5761117b610f01565b5b5f611189858286016110f4565b925050602061119a85828601611152565b9150509250929050565b5f80fd5b5f80fd5b5f8083601f8401126111c1576111c0610f09565b5b8235905067ffffffffffffffff8111156111de576111dd6111a4565b5b6020830191508360018202830111156111fa576111f96111a8565b5b9250929050565b5f805f6040848603121561121857611217610f01565b5b5f84013567ffffffffffffffff81111561123557611234610f05565b5b611241868287016111ac565b9350935050602061125486828701611152565b9150509250925092565b7f4e487b71000000000000000000000000000000000000000000000000000000005f52602260045260245ffd5b5f60028204905060018216806112a257607f821691505b6020821081036112b5576112b461125e565b5b50919050565b5f819050815f5260205f209050919050565b5f6020601f8301049050919050565b5f82821b905092915050565b5f600883026113177fffffffffffffffffffffffffffffffffffffffffffffffffffffffffffffffff826112dc565b61132186836112dc565b95508019841693508086168417925050509392505050565b5f61135361134e61134984611133565b610e84565b611133565b9050919050565b5f819050919050565b61136c83611339565b6113806113788261135a565b8484546112e8565b825550505050565b5f90565b611394611388565b61139f818484611363565b505050565b5b818110156113c2576113b75f8261138c565b6001810190506113a5565b5050565b601f821115611407576113d8816112bb565b6113e1846112cd565b810160208510156113f0578190505b6114046113fc856112cd565b8301826113a4565b50505b505050565b5f82821c905092915050565b5f6114275f198460080261140c565b1980831691505092915050565b5f61143f8383611418565b9150826002028217905092915050565b61145882610d9c565b67ffffffffffffffff81111561147157611470610f11565b5b61147b825461128b565b6114868282856113c6565b5f60209050601f8311600181146114b7575f84156114a5578287015190505b6114af8582611434565b865550611516565b601f1984166114c5866112bb565b5f5b828110156114ec578489015182556001820191506020850194506020810190506114c7565b868310156115095784890151611505601f891682611418565b8355505b6001600288020188555050505b505050505050565b611527816110ab565b8114611531575f80fd5b50565b5f815190506115428161151e565b92915050565b5f6020828403121561155d5761155c610f01565b5b5f61156a84828501611534565b91505092915050565b61157c81611133565b82525050565b5f6040820190506115955f830185610e5c565b6115a26020830184611573565b9392505050565b5f81546115b58161128b565b6115bf8186610da6565b9450600182165f81146115d957600181146115ef57611621565b60ff198316865281151560200286019350611621565b6115f8856112bb565b5f5b83811015611619578154818901526001820191506020810190506115fa565b808801955050505b50505092915050565b5f81519050919050565b5f82825260208201905092915050565b5f61164e8261162a565b6116588185611634565b9350611668818560208601610db6565b61167181610dc4565b840191505092915050565b5f60a08201905061168f5f830188610e5c565b81810360208301526116a181876115a9565b905081810360408301526116b581866115a9565b905081810360608301526116c98185611644565b90506116d86080830184610e5c565b9695505050505050565b5f6060820190508181035f8301526116fa81866115a9565b9050818103602083015261170e81856115a9565b905081810360408301526117228184611644565b9050949350505050565b5f6117378385611634565b9350611744838584610fb9565b61174d83610dc4565b840190509392505050565b5f6040820190508181035f83015261177181858761172c565b90506117806020830184611573565b94935050505056fea2646970667358221220abde74203415afdb65851418d3cacec47984228dadd1b9503bbec9e86f890d7564736f6c634300081a0033",
					"opcodes": "PUSH1 0xA0 PUSH1 0x40 MSTORE CALLVALUE DUP1 ISZERO PUSH2 0xF JUMPI PUSH0 DUP1 REVERT JUMPDEST POP PUSH1 0x40 MLOAD PUSH2 0x1F4F CODESIZE SUB DUP1 PUSH2 0x1F4F DUP4 CODECOPY DUP2 DUP2 ADD PUSH1 0x40 MSTORE DUP2 ADD SWAP1 PUSH2 0x31 SWAP2 SWAP1 PUSH2 0x3B8 JUMP JUMPDEST DUP5 PUSH0 PUSH20 0xFFFFFFFFFFFFFFFFFFFFFFFFFFFFFFFFFFFFFFFF AND DUP2 PUSH20 0xFFFFFFFFFFFFFFFFFFFFFFFFFFFFFFFFFFFFFFFF AND SUB PUSH2 0xA2 JUMPI PUSH0 PUSH1 0x40 MLOAD PUSH32 0x1E4FBDF700000000000000000000000000000000000000000000000000000000 DUP2 MSTORE PUSH1 0x4 ADD PUSH2 0x99 SWAP2 SWAP1 PUSH2 0x476 JUMP JUMPDEST PUSH1 0x40 MLOAD DUP1 SWAP2 SUB SWAP1 REVERT JUMPDEST PUSH2 0xB1 DUP2 PUSH2 0x150 PUSH1 0x20 SHL PUSH1 0x20 SHR JUMP JUMPDEST POP DUP4 PUSH1 0x2 PUSH0 PUSH2 0x100 EXP DUP2 SLOAD DUP2 PUSH20 0xFFFFFFFFFFFFFFFFFFFFFFFFFFFFFFFFFFFFFFFF MUL NOT AND SWAP1 DUP4 PUSH20 0xFFFFFFFFFFFFFFFFFFFFFFFFFFFFFFFFFFFFFFFF AND MUL OR SWAP1 SSTORE POP DUP3 PUSH20 0xFFFFFFFFFFFFFFFFFFFFFFFFFFFFFFFFFFFFFFFF AND PUSH1 0x80 DUP2 PUSH20 0xFFFFFFFFFFFFFFFFFFFFFFFFFFFFFFFFFFFFFFFF AND DUP2 MSTORE POP POP DUP2 PUSH1 0x3 SWAP1 DUP2 PUSH2 0x135 SWAP2 SWAP1 PUSH2 0x69C JUMP JUMPDEST POP DUP1 PUSH1 0x4 SWAP1 DUP2 PUSH2 0x145 SWAP2 SWAP1 PUSH2 0x69C JUMP JUMPDEST POP POP POP POP POP POP PUSH2 0x76B JUMP JUMPDEST PUSH0 DUP1 PUSH0 SWAP1 SLOAD SWAP1 PUSH2 0x100 EXP SWAP1 DIV PUSH20 0xFFFFFFFFFFFFFFFFFFFFFFFFFFFFFFFFFFFFFFFF AND SWAP1 POP DUP2 PUSH0 DUP1 PUSH2 0x100 EXP DUP2 SLOAD DUP2 PUSH20 0xFFFFFFFFFFFFFFFFFFFFFFFFFFFFFFFFFFFFFFFF MUL NOT AND SWAP1 DUP4 PUSH20 0xFFFFFFFFFFFFFFFFFFFFFFFFFFFFFFFFFFFFFFFF AND MUL OR SWAP1 SSTORE POP DUP2 PUSH20 0xFFFFFFFFFFFFFFFFFFFFFFFFFFFFFFFFFFFFFFFF AND DUP2 PUSH20 0xFFFFFFFFFFFFFFFFFFFFFFFFFFFFFFFFFFFFFFFF AND PUSH32 0x8BE0079C531659141344CD1FD0A4F28419497F9722A3DAAFE3B4186F6B6457E0 PUSH1 0x40 MLOAD PUSH1 0x40 MLOAD DUP1 SWAP2 SUB SWAP1 LOG3 POP POP JUMP JUMPDEST PUSH0 PUSH1 0x40 MLOAD SWAP1 POP SWAP1 JUMP JUMPDEST PUSH0 DUP1 REVERT JUMPDEST PUSH0 DUP1 REVERT JUMPDEST PUSH0 PUSH20 0xFFFFFFFFFFFFFFFFFFFFFFFFFFFFFFFFFFFFFFFF DUP3 AND SWAP1 POP SWAP2 SWAP1 POP JUMP JUMPDEST PUSH0 PUSH2 0x24B DUP3 PUSH2 0x222 JUMP JUMPDEST SWAP1 POP SWAP2 SWAP1 POP JUMP JUMPDEST PUSH2 0x25B DUP2 PUSH2 0x241 JUMP JUMPDEST DUP2 EQ PUSH2 0x265 JUMPI PUSH0 DUP1 REVERT JUMPDEST POP JUMP JUMPDEST PUSH0 DUP2 MLOAD SWAP1 POP PUSH2 0x276 DUP2 PUSH2 0x252 JUMP JUMPDEST SWAP3 SWAP2 POP POP JUMP JUMPDEST PUSH0 DUP1 REVERT JUMPDEST PUSH0 DUP1 REVERT JUMPDEST PUSH0 PUSH1 0x1F NOT PUSH1 0x1F DUP4 ADD AND SWAP1 POP SWAP2 SWAP1 POP JUMP JUMPDEST PUSH32 0x4E487B7100000000000000000000000000000000000000000000000000000000 PUSH0 MSTORE PUSH1 0x41 PUSH1 0x4 MSTORE PUSH1 0x24 PUSH0 REVERT JUMPDEST PUSH2 0x2CA DUP3 PUSH2 0x284 JUMP JUMPDEST DUP2 ADD DUP2 DUP2 LT PUSH8 0xFFFFFFFFFFFFFFFF DUP3 GT OR ISZERO PUSH2 0x2E9 JUMPI PUSH2 0x2E8 PUSH2 0x294 JUMP JUMPDEST JUMPDEST DUP1 PUSH1 0x40 MSTORE POP POP POP JUMP JUMPDEST PUSH0 PUSH2 0x2FB PUSH2 0x211 JUMP JUMPDEST SWAP1 POP PUSH2 0x307 DUP3 DUP3 PUSH2 0x2C1 JUMP JUMPDEST SWAP2 SWAP1 POP JUMP JUMPDEST PUSH0 PUSH8 0xFFFFFFFFFFFFFFFF DUP3 GT ISZERO PUSH2 0x326 JUMPI PUSH2 0x325 PUSH2 0x294 JUMP JUMPDEST JUMPDEST PUSH2 0x32F DUP3 PUSH2 0x284 JUMP JUMPDEST SWAP1 POP PUSH1 0x20 DUP2 ADD SWAP1 POP SWAP2 SWAP1 POP JUMP JUMPDEST DUP3 DUP2 DUP4 MCOPY PUSH0 DUP4 DUP4 ADD MSTORE POP POP POP JUMP JUMPDEST PUSH0 PUSH2 0x35C PUSH2 0x357 DUP5 PUSH2 0x30C JUMP JUMPDEST PUSH2 0x2F2 JUMP JUMPDEST SWAP1 POP DUP3 DUP2 MSTORE PUSH1 0x20 DUP2 ADD DUP5 DUP5 DUP5 ADD GT ISZERO PUSH2 0x378 JUMPI PUSH2 0x377 PUSH2 0x280 JUMP JUMPDEST JUMPDEST PUSH2 0x383 DUP5 DUP3 DUP6 PUSH2 0x33C JUMP JUMPDEST POP SWAP4 SWAP3 POP POP POP JUMP JUMPDEST PUSH0 DUP3 PUSH1 0x1F DUP4 ADD SLT PUSH2 0x39F JUMPI PUSH2 0x39E PUSH2 0x27C JUMP JUMPDEST JUMPDEST DUP2 MLOAD PUSH2 0x3AF DUP5 DUP3 PUSH1 0x20 DUP7 ADD PUSH2 0x34A JUMP JUMPDEST SWAP2 POP POP SWAP3 SWAP2 POP POP JUMP JUMPDEST PUSH0 DUP1 PUSH0 DUP1 PUSH0 PUSH1 0xA0 DUP7 DUP9 SUB SLT ISZERO PUSH2 0x3D1 JUMPI PUSH2 0x3D0 PUSH2 0x21A JUMP JUMPDEST JUMPDEST PUSH0 PUSH2 0x3DE DUP9 DUP3 DUP10 ADD PUSH2 0x268 JUMP JUMPDEST SWAP6 POP POP PUSH1 0x20 PUSH2 0x3EF DUP9 DUP3 DUP10 ADD PUSH2 0x268 JUMP JUMPDEST SWAP5 POP POP PUSH1 0x40 PUSH2 0x400 DUP9 DUP3 DUP10 ADD PUSH2 0x268 JUMP JUMPDEST SWAP4 POP POP PUSH1 0x60 DUP7 ADD MLOAD PUSH8 0xFFFFFFFFFFFFFFFF DUP2 GT ISZERO PUSH2 0x421 JUMPI PUSH2 0x420 PUSH2 0x21E JUMP JUMPDEST JUMPDEST PUSH2 0x42D DUP9 DUP3 DUP10 ADD PUSH2 0x38B JUMP JUMPDEST SWAP3 POP POP PUSH1 0x80 DUP7 ADD MLOAD PUSH8 0xFFFFFFFFFFFFFFFF DUP2 GT ISZERO PUSH2 0x44E JUMPI PUSH2 0x44D PUSH2 0x21E JUMP JUMPDEST JUMPDEST PUSH2 0x45A DUP9 DUP3 DUP10 ADD PUSH2 0x38B JUMP JUMPDEST SWAP2 POP POP SWAP3 SWAP6 POP SWAP3 SWAP6 SWAP1 SWAP4 POP JUMP JUMPDEST PUSH2 0x470 DUP2 PUSH2 0x241 JUMP JUMPDEST DUP3 MSTORE POP POP JUMP JUMPDEST PUSH0 PUSH1 0x20 DUP3 ADD SWAP1 POP PUSH2 0x489 PUSH0 DUP4 ADD DUP5 PUSH2 0x467 JUMP JUMPDEST SWAP3 SWAP2 POP POP JUMP JUMPDEST PUSH0 DUP2 MLOAD SWAP1 POP SWAP2 SWAP1 POP JUMP JUMPDEST PUSH32 0x4E487B7100000000000000000000000000000000000000000000000000000000 PUSH0 MSTORE PUSH1 0x22 PUSH1 0x4 MSTORE PUSH1 0x24 PUSH0 REVERT JUMPDEST PUSH0 PUSH1 0x2 DUP3 DIV SWAP1 POP PUSH1 0x1 DUP3 AND DUP1 PUSH2 0x4DD JUMPI PUSH1 0x7F DUP3 AND SWAP2 POP JUMPDEST PUSH1 0x20 DUP3 LT DUP2 SUB PUSH2 0x4F0 JUMPI PUSH2 0x4EF PUSH2 0x499 JUMP JUMPDEST JUMPDEST POP SWAP2 SWAP1 POP JUMP JUMPDEST PUSH0 DUP2 SWAP1 POP DUP2 PUSH0 MSTORE PUSH1 0x20 PUSH0 KECCAK256 SWAP1 POP SWAP2 SWAP1 POP JUMP JUMPDEST PUSH0 PUSH1 0x20 PUSH1 0x1F DUP4 ADD DIV SWAP1 POP SWAP2 SWAP1 POP JUMP JUMPDEST PUSH0 DUP3 DUP3 SHL SWAP1 POP SWAP3 SWAP2 POP POP JUMP JUMPDEST PUSH0 PUSH1 0x8 DUP4 MUL PUSH2 0x552 PUSH32 0xFFFFFFFFFFFFFFFFFFFFFFFFFFFFFFFFFFFFFFFFFFFFFFFFFFFFFFFFFFFFFFFF DUP3 PUSH2 0x517 JUMP JUMPDEST PUSH2 0x55C DUP7 DUP4 PUSH2 0x517 JUMP JUMPDEST SWAP6 POP DUP1 NOT DUP5 AND SWAP4 POP DUP1 DUP7 AND DUP5 OR SWAP3 POP POP POP SWAP4 SWAP3 POP POP POP JUMP JUMPDEST PUSH0 DUP2 SWAP1 POP SWAP2 SWAP1 POP JUMP JUMPDEST PUSH0 DUP2 SWAP1 POP SWAP2 SWAP1 POP JUMP JUMPDEST PUSH0 PUSH2 0x5A0 PUSH2 0x59B PUSH2 0x596 DUP5 PUSH2 0x574 JUMP JUMPDEST PUSH2 0x57D JUMP JUMPDEST PUSH2 0x574 JUMP JUMPDEST SWAP1 POP SWAP2 SWAP1 POP JUMP JUMPDEST PUSH0 DUP2 SWAP1 POP SWAP2 SWAP1 POP JUMP JUMPDEST PUSH2 0x5B9 DUP4 PUSH2 0x586 JUMP JUMPDEST PUSH2 0x5CD PUSH2 0x5C5 DUP3 PUSH2 0x5A7 JUMP JUMPDEST DUP5 DUP5 SLOAD PUSH2 0x523 JUMP JUMPDEST DUP3 SSTORE POP POP POP POP JUMP JUMPDEST PUSH0 SWAP1 JUMP JUMPDEST PUSH2 0x5E1 PUSH2 0x5D5 JUMP JUMPDEST PUSH2 0x5EC DUP2 DUP5 DUP5 PUSH2 0x5B0 JUMP JUMPDEST POP POP POP JUMP JUMPDEST JUMPDEST DUP2 DUP2 LT ISZERO PUSH2 0x60F JUMPI PUSH2 0x604 PUSH0 DUP3 PUSH2 0x5D9 JUMP JUMPDEST PUSH1 0x1 DUP2 ADD SWAP1 POP PUSH2 0x5F2 JUMP JUMPDEST POP POP JUMP JUMPDEST PUSH1 0x1F DUP3 GT ISZERO PUSH2 0x654 JUMPI PUSH2 0x625 DUP2 PUSH2 0x4F6 JUMP JUMPDEST PUSH2 0x62E DUP5 PUSH2 0x508 JUMP JUMPDEST DUP2 ADD PUSH1 0x20 DUP6 LT ISZERO PUSH2 0x63D JUMPI DUP2 SWAP1 POP JUMPDEST PUSH2 0x651 PUSH2 0x649 DUP6 PUSH2 0x508 JUMP JUMPDEST DUP4 ADD DUP3 PUSH2 0x5F1 JUMP JUMPDEST POP POP JUMPDEST POP POP POP JUMP JUMPDEST PUSH0 DUP3 DUP3 SHR SWAP1 POP SWAP3 SWAP2 POP POP JUMP JUMPDEST PUSH0 PUSH2 0x674 PUSH0 NOT DUP5 PUSH1 0x8 MUL PUSH2 0x659 JUMP JUMPDEST NOT DUP1 DUP4 AND SWAP2 POP POP SWAP3 SWAP2 POP POP JUMP JUMPDEST PUSH0 PUSH2 0x68C DUP4 DUP4 PUSH2 0x665 JUMP JUMPDEST SWAP2 POP DUP3 PUSH1 0x2 MUL DUP3 OR SWAP1 POP SWAP3 SWAP2 POP POP JUMP JUMPDEST PUSH2 0x6A5 DUP3 PUSH2 0x48F JUMP JUMPDEST PUSH8 0xFFFFFFFFFFFFFFFF DUP2 GT ISZERO PUSH2 0x6BE JUMPI PUSH2 0x6BD PUSH2 0x294 JUMP JUMPDEST JUMPDEST PUSH2 0x6C8 DUP3 SLOAD PUSH2 0x4C6 JUMP JUMPDEST PUSH2 0x6D3 DUP3 DUP3 DUP6 PUSH2 0x613 JUMP JUMPDEST PUSH0 PUSH1 0x20 SWAP1 POP PUSH1 0x1F DUP4 GT PUSH1 0x1 DUP2 EQ PUSH2 0x704 JUMPI PUSH0 DUP5 ISZERO PUSH2 0x6F2 JUMPI DUP3 DUP8 ADD MLOAD SWAP1 POP JUMPDEST PUSH2 0x6FC DUP6 DUP3 PUSH2 0x681 JUMP JUMPDEST DUP7 SSTORE POP PUSH2 0x763 JUMP JUMPDEST PUSH1 0x1F NOT DUP5 AND PUSH2 0x712 DUP7 PUSH2 0x4F6 JUMP JUMPDEST PUSH0 JUMPDEST DUP3 DUP2 LT ISZERO PUSH2 0x739 JUMPI DUP5 DUP10 ADD MLOAD DUP3 SSTORE PUSH1 0x1 DUP3 ADD SWAP2 POP PUSH1 0x20 DUP6 ADD SWAP5 POP PUSH1 0x20 DUP2 ADD SWAP1 POP PUSH2 0x714 JUMP JUMPDEST DUP7 DUP4 LT ISZERO PUSH2 0x756 JUMPI DUP5 DUP10 ADD MLOAD PUSH2 0x752 PUSH1 0x1F DUP10 AND DUP3 PUSH2 0x665 JUMP JUMPDEST DUP4 SSTORE POP JUMPDEST PUSH1 0x1 PUSH1 0x2 DUP9 MUL ADD DUP9 SSTORE POP POP POP JUMPDEST POP POP POP POP POP POP JUMP JUMPDEST PUSH1 0x80 MLOAD PUSH2 0x17BE PUSH2 0x791 PUSH0 CODECOPY PUSH0 DUP2 DUP2 PUSH2 0x36F ADD MSTORE DUP2 DUP2 PUSH2 0x7EB ADD MSTORE PUSH2 0xB24 ADD MSTORE PUSH2 0x17BE PUSH0 RETURN INVALID PUSH1 0x80 PUSH1 0x40 MSTORE PUSH1 0x4 CALLDATASIZE LT PUSH2 0xC5 JUMPI PUSH0 CALLDATALOAD PUSH1 0xE0 SHR DUP1 PUSH4 0x8DA5CB5B GT PUSH2 0x7E JUMPI DUP1 PUSH4 0xBCAF0D9A GT PUSH2 0x58 JUMPI DUP1 PUSH4 0xBCAF0D9A EQ PUSH2 0x232 JUMPI DUP1 PUSH4 0xCA09C885 EQ PUSH2 0x25C JUMPI DUP1 PUSH4 0xF2FDE38B EQ PUSH2 0x278 JUMPI DUP1 PUSH4 0xF4BD456D EQ PUSH2 0x2A0 JUMPI PUSH2 0xCC JUMP JUMPDEST DUP1 PUSH4 0x8DA5CB5B EQ PUSH2 0x1B6 JUMPI DUP1 PUSH4 0x9B85622C EQ PUSH2 0x1E0 JUMPI DUP1 PUSH4 0xBC95B3B1 EQ PUSH2 0x208 JUMPI PUSH2 0xCC JUMP JUMPDEST DUP1 PUSH4 0x25D83B7A EQ PUSH2 0xD0 JUMPI DUP1 PUSH4 0x4CAE3185 EQ PUSH2 0xFA JUMPI DUP1 PUSH4 0x6A22D8CC EQ PUSH2 0x124 JUMPI DUP1 PUSH4 0x715018A6 EQ PUSH2 0x14E JUMPI DUP1 PUSH4 0x84272B59 EQ PUSH2 0x164 JUMPI DUP1 PUSH4 0x85A2DD15 EQ PUSH2 0x18C JUMPI PUSH2 0xCC JUMP JUMPDEST CALLDATASIZE PUSH2 0xCC JUMPI STOP JUMPDEST PUSH0 DUP1 REVERT JUMPDEST CALLVALUE DUP1 ISZERO PUSH2 0xDB JUMPI PUSH0 DUP1 REVERT JUMPDEST POP PUSH2 0xE4 PUSH2 0x2BC JUMP JUMPDEST PUSH1 0x40 MLOAD PUSH2 0xF1 SWAP2 SWAP1 PUSH2 0xE0C JUMP JUMPDEST PUSH1 0x40 MLOAD DUP1 SWAP2 SUB SWAP1 RETURN JUMPDEST CALLVALUE DUP1 ISZERO PUSH2 0x105 JUMPI PUSH0 DUP1 REVERT JUMPDEST POP PUSH2 0x10E PUSH2 0x348 JUMP JUMPDEST PUSH1 0x40 MLOAD PUSH2 0x11B SWAP2 SWAP1 PUSH2 0xE6B JUMP JUMPDEST PUSH1 0x40 MLOAD DUP1 SWAP2 SUB SWAP1 RETURN JUMPDEST CALLVALUE DUP1 ISZERO PUSH2 0x12F JUMPI PUSH0 DUP1 REVERT JUMPDEST POP PUSH2 0x138 PUSH2 0x36D JUMP JUMPDEST PUSH1 0x40 MLOAD PUSH2 0x145 SWAP2 SWAP1 PUSH2 0xEDF JUMP JUMPDEST PUSH1 0x40 MLOAD DUP1 SWAP2 SUB SWAP1 RETURN JUMPDEST CALLVALUE DUP1 ISZERO PUSH2 0x159 JUMPI PUSH0 DUP1 REVERT JUMPDEST POP PUSH2 0x162 PUSH2 0x391 JUMP JUMPDEST STOP JUMPDEST CALLVALUE DUP1 ISZERO PUSH2 0x16F JUMPI PUSH0 DUP1 REVERT JUMPDEST POP PUSH2 0x18A PUSH1 0x4 DUP1 CALLDATASIZE SUB DUP2 ADD SWAP1 PUSH2 0x185 SWAP2 SWAP1 PUSH2 0x1035 JUMP JUMPDEST PUSH2 0x3A4 JUMP JUMPDEST STOP JUMPDEST CALLVALUE DUP1 ISZERO PUSH2 0x197 JUMPI PUSH0 DUP1 REVERT JUMPDEST POP PUSH2 0x1A0 PUSH2 0x3D0 JUMP JUMPDEST PUSH1 0x40 MLOAD PUSH2 0x1AD SWAP2 SWAP1 PUSH2 0x10C5 JUMP JUMPDEST PUSH1 0x40 MLOAD DUP1 SWAP2 SUB SWAP1 RETURN JUMPDEST CALLVALUE DUP1 ISZERO PUSH2 0x1C1 JUMPI PUSH0 DUP1 REVERT JUMPDEST POP PUSH2 0x1CA PUSH2 0x53D JUMP JUMPDEST PUSH1 0x40 MLOAD PUSH2 0x1D7 SWAP2 SWAP1 PUSH2 0xE6B JUMP JUMPDEST PUSH1 0x40 MLOAD DUP1 SWAP2 SUB SWAP1 RETURN JUMPDEST CALLVALUE DUP1 ISZERO PUSH2 0x1EB JUMPI PUSH0 DUP1 REVERT JUMPDEST POP PUSH2 0x206 PUSH1 0x4 DUP1 CALLDATASIZE SUB DUP2 ADD SWAP1 PUSH2 0x201 SWAP2 SWAP1 PUSH2 0x1108 JUMP JUMPDEST PUSH2 0x564 JUMP JUMPDEST STOP JUMPDEST CALLVALUE DUP1 ISZERO PUSH2 0x213 JUMPI PUSH0 DUP1 REVERT JUMPDEST POP PUSH2 0x21C PUSH2 0x5AF JUMP JUMPDEST PUSH1 0x40 MLOAD PUSH2 0x229 SWAP2 SWAP1 PUSH2 0xE0C JUMP JUMPDEST PUSH1 0x40 MLOAD DUP1 SWAP2 SUB SWAP1 RETURN JUMPDEST CALLVALUE DUP1 ISZERO PUSH2 0x23D JUMPI PUSH0 DUP1 REVERT JUMPDEST POP PUSH2 0x246 PUSH2 0x63B JUMP JUMPDEST PUSH1 0x40 MLOAD PUSH2 0x253 SWAP2 SWAP1 PUSH2 0xE6B JUMP JUMPDEST PUSH1 0x40 MLOAD DUP1 SWAP2 SUB SWAP1 RETURN JUMPDEST PUSH2 0x276 PUSH1 0x4 DUP1 CALLDATASIZE SUB DUP2 ADD SWAP1 PUSH2 0x271 SWAP2 SWAP1 PUSH2 0x1166 JUMP JUMPDEST PUSH2 0x660 JUMP JUMPDEST STOP JUMPDEST CALLVALUE DUP1 ISZERO PUSH2 0x283 JUMPI PUSH0 DUP1 REVERT JUMPDEST POP PUSH2 0x29E PUSH1 0x4 DUP1 CALLDATASIZE SUB DUP2 ADD SWAP1 PUSH2 0x299 SWAP2 SWAP1 PUSH2 0x1108 JUMP JUMPDEST PUSH2 0x913 JUMP JUMPDEST STOP JUMPDEST PUSH2 0x2BA PUSH1 0x4 DUP1 CALLDATASIZE SUB DUP2 ADD SWAP1 PUSH2 0x2B5 SWAP2 SWAP1 PUSH2 0x1201 JUMP JUMPDEST PUSH2 0x997 JUMP JUMPDEST STOP JUMPDEST PUSH1 0x4 DUP1 SLOAD PUSH2 0x2C9 SWAP1 PUSH2 0x128B JUMP JUMPDEST DUP1 PUSH1 0x1F ADD PUSH1 0x20 DUP1 SWAP2 DIV MUL PUSH1 0x20 ADD PUSH1 0x40 MLOAD SWAP1 DUP2 ADD PUSH1 0x40 MSTORE DUP1 SWAP3 SWAP2 SWAP1 DUP2 DUP2 MSTORE PUSH1 0x20 ADD DUP3 DUP1 SLOAD PUSH2 0x2F5 SWAP1 PUSH2 0x128B JUMP JUMPDEST DUP1 ISZERO PUSH2 0x340 JUMPI DUP1 PUSH1 0x1F LT PUSH2 0x317 JUMPI PUSH2 0x100 DUP1 DUP4 SLOAD DIV MUL DUP4 MSTORE SWAP2 PUSH1 0x20 ADD SWAP2 PUSH2 0x340 JUMP JUMPDEST DUP3 ADD SWAP2 SWAP1 PUSH0 MSTORE PUSH1 0x20 PUSH0 KECCAK256 SWAP1 JUMPDEST DUP2 SLOAD DUP2 MSTORE SWAP1 PUSH1 0x1 ADD SWAP1 PUSH1 0x20 ADD DUP1 DUP4 GT PUSH2 0x323 JUMPI DUP3 SWAP1 SUB PUSH1 0x1F AND DUP3 ADD SWAP2 JUMPDEST POP POP POP POP POP DUP2 JUMP JUMPDEST PUSH1 0x2 PUSH0 SWAP1 SLOAD SWAP1 PUSH2 0x100 EXP SWAP1 DIV PUSH20 0xFFFFFFFFFFFFFFFFFFFFFFFFFFFFFFFFFFFFFFFF AND DUP2 JUMP JUMPDEST PUSH32 0x0 DUP2 JUMP JUMPDEST PUSH2 0x399 PUSH2 0xC4D JUMP JUMPDEST PUSH2 0x3A2 PUSH0 PUSH2 0xCD4 JUMP JUMPDEST JUMP JUMPDEST PUSH2 0x3AC PUSH2 0xC4D JUMP JUMPDEST DUP2 PUSH1 0x3 SWAP1 DUP2 PUSH2 0x3BB SWAP2 SWAP1 PUSH2 0x144F JUMP JUMPDEST POP DUP1 PUSH1 0x4 SWAP1 DUP2 PUSH2 0x3CB SWAP2 SWAP1 PUSH2 0x144F JUMP JUMPDEST POP POP POP JUMP JUMPDEST PUSH0 DUP1 PUSH20 0xFFFFFFFFFFFFFFFFFFFFFFFFFFFFFFFFFFFFFFFF AND PUSH1 0x1 PUSH0 SWAP1 SLOAD SWAP1 PUSH2 0x100 EXP SWAP1 DIV PUSH20 0xFFFFFFFFFFFFFFFFFFFFFFFFFFFFFFFFFFFFFFFF AND PUSH20 0xFFFFFFFFFFFFFFFFFFFFFFFFFFFFFFFFFFFFFFFF AND SUB PUSH2 0x457 JUMPI PUSH1 0x40 MLOAD PUSH32 0xF37741D700000000000000000000000000000000000000000000000000000000 DUP2 MSTORE PUSH1 0x4 ADD PUSH1 0x40 MLOAD DUP1 SWAP2 SUB SWAP1 REVERT JUMPDEST PUSH0 PUSH1 0x1 PUSH0 SWAP1 SLOAD SWAP1 PUSH2 0x100 EXP SWAP1 DIV PUSH20 0xFFFFFFFFFFFFFFFFFFFFFFFFFFFFFFFFFFFFFFFF AND SWAP1 POP DUP1 PUSH20 0xFFFFFFFFFFFFFFFFFFFFFFFFFFFFFFFFFFFFFFFF AND PUSH4 0xB166A09F CALLER PUSH1 0x40 MLOAD DUP3 PUSH4 0xFFFFFFFF AND PUSH1 0xE0 SHL DUP2 MSTORE PUSH1 0x4 ADD PUSH2 0x4B5 SWAP2 SWAP1 PUSH2 0xE6B JUMP JUMPDEST PUSH1 0x20 PUSH1 0x40 MLOAD DUP1 DUP4 SUB DUP2 DUP7 GAS STATICCALL ISZERO DUP1 ISZERO PUSH2 0x4D0 JUMPI RETURNDATASIZE PUSH0 DUP1 RETURNDATACOPY RETURNDATASIZE PUSH0 REVERT JUMPDEST POP POP POP POP PUSH1 0x40 MLOAD RETURNDATASIZE PUSH1 0x1F NOT PUSH1 0x1F DUP3 ADD AND DUP3 ADD DUP1 PUSH1 0x40 MSTORE POP DUP2 ADD SWAP1 PUSH2 0x4F4 SWAP2 SWAP1 PUSH2 0x1548 JUMP JUMPDEST PUSH2 0x535 JUMPI CALLER PUSH1 0x40 MLOAD PUSH32 0x32B2BAA300000000000000000000000000000000000000000000000000000000 DUP2 MSTORE PUSH1 0x4 ADD PUSH2 0x52C SWAP2 SWAP1 PUSH2 0xE6B JUMP JUMPDEST PUSH1 0x40 MLOAD DUP1 SWAP2 SUB SWAP1 REVERT JUMPDEST PUSH1 0x1 SWAP2 POP POP SWAP1 JUMP JUMPDEST PUSH0 DUP1 PUSH0 SWAP1 SLOAD SWAP1 PUSH2 0x100 EXP SWAP1 DIV PUSH20 0xFFFFFFFFFFFFFFFFFFFFFFFFFFFFFFFFFFFFFFFF AND SWAP1 POP SWAP1 JUMP JUMPDEST PUSH2 0x56C PUSH2 0xC4D JUMP JUMPDEST DUP1 PUSH1 0x1 PUSH0 PUSH2 0x100 EXP DUP2 SLOAD DUP2 PUSH20 0xFFFFFFFFFFFFFFFFFFFFFFFFFFFFFFFFFFFFFFFF MUL NOT AND SWAP1 DUP4 PUSH20 0xFFFFFFFFFFFFFFFFFFFFFFFFFFFFFFFFFFFFFFFF AND MUL OR SWAP1 SSTORE POP POP JUMP JUMPDEST PUSH1 0x3 DUP1 SLOAD PUSH2 0x5BC SWAP1 PUSH2 0x128B JUMP JUMPDEST DUP1 PUSH1 0x1F ADD PUSH1 0x20 DUP1 SWAP2 DIV MUL PUSH1 0x20 ADD PUSH1 0x40 MLOAD SWAP1 DUP2 ADD PUSH1 0x40 MSTORE DUP1 SWAP3 SWAP2 SWAP1 DUP2 DUP2 MSTORE PUSH1 0x20 ADD DUP3 DUP1 SLOAD PUSH2 0x5E8 SWAP1 PUSH2 0x128B JUMP JUMPDEST DUP1 ISZERO PUSH2 0x633 JUMPI DUP1 PUSH1 0x1F LT PUSH2 0x60A JUMPI PUSH2 0x100 DUP1 DUP4 SLOAD DIV MUL DUP4 MSTORE SWAP2 PUSH1 0x20 ADD SWAP2 PUSH2 0x633 JUMP JUMPDEST DUP3 ADD SWAP2 SWAP1 PUSH0 MSTORE PUSH1 0x20 PUSH0 KECCAK256 SWAP1 JUMPDEST DUP2 SLOAD DUP2 MSTORE SWAP1 PUSH1 0x1 ADD SWAP1 PUSH1 0x20 ADD DUP1 DUP4 GT PUSH2 0x616 JUMPI DUP3 SWAP1 SUB PUSH1 0x1F AND DUP3 ADD SWAP2 JUMPDEST POP POP POP POP POP DUP2 JUMP JUMPDEST PUSH1 0x1 PUSH0 SWAP1 SLOAD SWAP1 PUSH2 0x100 EXP SWAP1 DIV PUSH20 0xFFFFFFFFFFFFFFFFFFFFFFFFFFFFFFFFFFFFFFFF AND DUP2 JUMP JUMPDEST PUSH0 PUSH20 0xFFFFFFFFFFFFFFFFFFFFFFFFFFFFFFFFFFFFFFFF AND PUSH1 0x1 PUSH0 SWAP1 SLOAD SWAP1 PUSH2 0x100 EXP SWAP1 DIV PUSH20 0xFFFFFFFFFFFFFFFFFFFFFFFFFFFFFFFFFFFFFFFF AND PUSH20 0xFFFFFFFFFFFFFFFFFFFFFFFFFFFFFFFFFFFFFFFF AND SUB PUSH2 0x6E6 JUMPI PUSH1 0x40 MLOAD PUSH32 0xF37741D700000000000000000000000000000000000000000000000000000000 DUP2 MSTORE PUSH1 0x4 ADD PUSH1 0x40 MLOAD DUP1 SWAP2 SUB SWAP1 REVERT JUMPDEST PUSH0 PUSH1 0x1 PUSH0 SWAP1 SLOAD SWAP1 PUSH2 0x100 EXP SWAP1 DIV PUSH20 0xFFFFFFFFFFFFFFFFFFFFFFFFFFFFFFFFFFFFFFFF AND SWAP1 POP DUP1 PUSH20 0xFFFFFFFFFFFFFFFFFFFFFFFFFFFFFFFFFFFFFFFF AND PUSH4 0xB166A09F CALLER PUSH1 0x40 MLOAD DUP3 PUSH4 0xFFFFFFFF AND PUSH1 0xE0 SHL DUP2 MSTORE PUSH1 0x4 ADD PUSH2 0x744 SWAP2 SWAP1 PUSH2 0xE6B JUMP JUMPDEST PUSH1 0x20 PUSH1 0x40 MLOAD DUP1 DUP4 SUB DUP2 DUP7 GAS STATICCALL ISZERO DUP1 ISZERO PUSH2 0x75F JUMPI RETURNDATASIZE PUSH0 DUP1 RETURNDATACOPY RETURNDATASIZE PUSH0 REVERT JUMPDEST POP POP POP POP PUSH1 0x40 MLOAD RETURNDATASIZE PUSH1 0x1F NOT PUSH1 0x1F DUP3 ADD AND DUP3 ADD DUP1 PUSH1 0x40 MSTORE POP DUP2 ADD SWAP1 PUSH2 0x783 SWAP2 SWAP1 PUSH2 0x1548 JUMP JUMPDEST PUSH2 0x7C4 JUMPI CALLER PUSH1 0x40 MLOAD PUSH32 0x32B2BAA300000000000000000000000000000000000000000000000000000000 DUP2 MSTORE PUSH1 0x4 ADD PUSH2 0x7BB SWAP2 SWAP1 PUSH2 0xE6B JUMP JUMPDEST PUSH1 0x40 MLOAD DUP1 SWAP2 SUB SWAP1 REVERT JUMPDEST PUSH0 DUP4 DUP4 PUSH1 0x40 MLOAD PUSH1 0x20 ADD PUSH2 0x7D8 SWAP3 SWAP2 SWAP1 PUSH2 0x1582 JUMP JUMPDEST PUSH1 0x40 MLOAD PUSH1 0x20 DUP2 DUP4 SUB SUB DUP2 MSTORE SWAP1 PUSH1 0x40 MSTORE SWAP1 POP PUSH32 0x0 PUSH20 0xFFFFFFFFFFFFFFFFFFFFFFFFFFFFFFFFFFFFFFFF AND PUSH4 0xC93E3BB CALLVALUE ADDRESS PUSH1 0x3 PUSH1 0x4 DUP7 CALLER PUSH1 0x40 MLOAD DUP8 PUSH4 0xFFFFFFFF AND PUSH1 0xE0 SHL DUP2 MSTORE PUSH1 0x4 ADD PUSH2 0x84D SWAP6 SWAP5 SWAP4 SWAP3 SWAP2 SWAP1 PUSH2 0x167C JUMP JUMPDEST PUSH0 PUSH1 0x40 MLOAD DUP1 DUP4 SUB DUP2 DUP6 DUP9 DUP1 EXTCODESIZE ISZERO DUP1 ISZERO PUSH2 0x864 JUMPI PUSH0 DUP1 REVERT JUMPDEST POP GAS CALL ISZERO DUP1 ISZERO PUSH2 0x876 JUMPI RETURNDATASIZE PUSH0 DUP1 RETURNDATACOPY RETURNDATASIZE PUSH0 REVERT JUMPDEST POP POP POP POP POP PUSH0 PUSH1 0x2 PUSH0 SWAP1 SLOAD SWAP1 PUSH2 0x100 EXP SWAP1 DIV PUSH20 0xFFFFFFFFFFFFFFFFFFFFFFFFFFFFFFFFFFFFFFFF AND SWAP1 POP DUP1 PUSH20 0xFFFFFFFFFFFFFFFFFFFFFFFFFFFFFFFFFFFFFFFF AND PUSH4 0x1C92115F PUSH1 0x3 PUSH1 0x4 DUP6 PUSH1 0x40 MLOAD DUP5 PUSH4 0xFFFFFFFF AND PUSH1 0xE0 SHL DUP2 MSTORE PUSH1 0x4 ADD PUSH2 0x8DF SWAP4 SWAP3 SWAP2 SWAP1 PUSH2 0x16E2 JUMP JUMPDEST PUSH0 PUSH1 0x40 MLOAD DUP1 DUP4 SUB DUP2 PUSH0 DUP8 DUP1 EXTCODESIZE ISZERO DUP1 ISZERO PUSH2 0x8F6 JUMPI PUSH0 DUP1 REVERT JUMPDEST POP GAS CALL ISZERO DUP1 ISZERO PUSH2 0x908 JUMPI RETURNDATASIZE PUSH0 DUP1 RETURNDATACOPY RETURNDATASIZE PUSH0 REVERT JUMPDEST POP POP POP POP POP POP POP POP POP JUMP JUMPDEST PUSH2 0x91B PUSH2 0xC4D JUMP JUMPDEST PUSH0 PUSH20 0xFFFFFFFFFFFFFFFFFFFFFFFFFFFFFFFFFFFFFFFF AND DUP2 PUSH20 0xFFFFFFFFFFFFFFFFFFFFFFFFFFFFFFFFFFFFFFFF AND SUB PUSH2 0x98B JUMPI PUSH0 PUSH1 0x40 MLOAD PUSH32 0x1E4FBDF700000000000000000000000000000000000000000000000000000000 DUP2 MSTORE PUSH1 0x4 ADD PUSH2 0x982 SWAP2 SWAP1 PUSH2 0xE6B JUMP JUMPDEST PUSH1 0x40 MLOAD DUP1 SWAP2 SUB SWAP1 REVERT JUMPDEST PUSH2 0x994 DUP2 PUSH2 0xCD4 JUMP JUMPDEST POP JUMP JUMPDEST PUSH0 PUSH20 0xFFFFFFFFFFFFFFFFFFFFFFFFFFFFFFFFFFFFFFFF AND PUSH1 0x1 PUSH0 SWAP1 SLOAD SWAP1 PUSH2 0x100 EXP SWAP1 DIV PUSH20 0xFFFFFFFFFFFFFFFFFFFFFFFFFFFFFFFFFFFFFFFF AND PUSH20 0xFFFFFFFFFFFFFFFFFFFFFFFFFFFFFFFFFFFFFFFF AND SUB PUSH2 0xA1D JUMPI PUSH1 0x40 MLOAD PUSH32 0xF37741D700000000000000000000000000000000000000000000000000000000 DUP2 MSTORE PUSH1 0x4 ADD PUSH1 0x40 MLOAD DUP1 SWAP2 SUB SWAP1 REVERT JUMPDEST PUSH0 PUSH1 0x1 PUSH0 SWAP1 SLOAD SWAP1 PUSH2 0x100 EXP SWAP1 DIV PUSH20 0xFFFFFFFFFFFFFFFFFFFFFFFFFFFFFFFFFFFFFFFF AND SWAP1 POP DUP1 PUSH20 0xFFFFFFFFFFFFFFFFFFFFFFFFFFFFFFFFFFFFFFFF AND PUSH4 0xB166A09F CALLER PUSH1 0x40 MLOAD DUP3 PUSH4 0xFFFFFFFF AND PUSH1 0xE0 SHL DUP2 MSTORE PUSH1 0x4 ADD PUSH2 0xA7B SWAP2 SWAP1 PUSH2 0xE6B JUMP JUMPDEST PUSH1 0x20 PUSH1 0x40 MLOAD DUP1 DUP4 SUB DUP2 DUP7 GAS STATICCALL ISZERO DUP1 ISZERO PUSH2 0xA96 JUMPI RETURNDATASIZE PUSH0 DUP1 RETURNDATACOPY RETURNDATASIZE PUSH0 REVERT JUMPDEST POP POP POP POP PUSH1 0x40 MLOAD RETURNDATASIZE PUSH1 0x1F NOT PUSH1 0x1F DUP3 ADD AND DUP3 ADD DUP1 PUSH1 0x40 MSTORE POP DUP2 ADD SWAP1 PUSH2 0xABA SWAP2 SWAP1 PUSH2 0x1548 JUMP JUMPDEST PUSH2 0xAFB JUMPI CALLER PUSH1 0x40 MLOAD PUSH32 0x32B2BAA300000000000000000000000000000000000000000000000000000000 DUP2 MSTORE PUSH1 0x4 ADD PUSH2 0xAF2 SWAP2 SWAP1 PUSH2 0xE6B JUMP JUMPDEST PUSH1 0x40 MLOAD DUP1 SWAP2 SUB SWAP1 REVERT JUMPDEST PUSH0 DUP5 DUP5 DUP5 PUSH1 0x40 MLOAD PUSH1 0x20 ADD PUSH2 0xB11 SWAP4 SWAP3 SWAP2 SWAP1 PUSH2 0x1758 JUMP JUMPDEST PUSH1 0x40 MLOAD PUSH1 0x20 DUP2 DUP4 SUB SUB DUP2 MSTORE SWAP1 PUSH1 0x40 MSTORE SWAP1 POP PUSH32 0x0 PUSH20 0xFFFFFFFFFFFFFFFFFFFFFFFFFFFFFFFFFFFFFFFF AND PUSH4 0xC93E3BB CALLVALUE ADDRESS PUSH1 0x3 PUSH1 0x4 DUP7 CALLER PUSH1 0x40 MLOAD DUP8 PUSH4 0xFFFFFFFF AND PUSH1 0xE0 SHL DUP2 MSTORE PUSH1 0x4 ADD PUSH2 0xB86 SWAP6 SWAP5 SWAP4 SWAP3 SWAP2 SWAP1 PUSH2 0x167C JUMP JUMPDEST PUSH0 PUSH1 0x40 MLOAD DUP1 DUP4 SUB DUP2 DUP6 DUP9 DUP1 EXTCODESIZE ISZERO DUP1 ISZERO PUSH2 0xB9D JUMPI PUSH0 DUP1 REVERT JUMPDEST POP GAS CALL ISZERO DUP1 ISZERO PUSH2 0xBAF JUMPI RETURNDATASIZE PUSH0 DUP1 RETURNDATACOPY RETURNDATASIZE PUSH0 REVERT JUMPDEST POP POP POP POP POP PUSH0 PUSH1 0x2 PUSH0 SWAP1 SLOAD SWAP1 PUSH2 0x100 EXP SWAP1 DIV PUSH20 0xFFFFFFFFFFFFFFFFFFFFFFFFFFFFFFFFFFFFFFFF AND SWAP1 POP DUP1 PUSH20 0xFFFFFFFFFFFFFFFFFFFFFFFFFFFFFFFFFFFFFFFF AND PUSH4 0x1C92115F PUSH1 0x3 PUSH1 0x4 DUP6 PUSH1 0x40 MLOAD DUP5 PUSH4 0xFFFFFFFF AND PUSH1 0xE0 SHL DUP2 MSTORE PUSH1 0x4 ADD PUSH2 0xC18 SWAP4 SWAP3 SWAP2 SWAP1 PUSH2 0x16E2 JUMP JUMPDEST PUSH0 PUSH1 0x40 MLOAD DUP1 DUP4 SUB DUP2 PUSH0 DUP8 DUP1 EXTCODESIZE ISZERO DUP1 ISZERO PUSH2 0xC2F JUMPI PUSH0 DUP1 REVERT JUMPDEST POP GAS CALL ISZERO DUP1 ISZERO PUSH2 0xC41 JUMPI RETURNDATASIZE PUSH0 DUP1 RETURNDATACOPY RETURNDATASIZE PUSH0 REVERT JUMPDEST POP POP POP POP POP POP POP POP POP POP JUMP JUMPDEST PUSH2 0xC55 PUSH2 0xD95 JUMP JUMPDEST PUSH20 0xFFFFFFFFFFFFFFFFFFFFFFFFFFFFFFFFFFFFFFFF AND PUSH2 0xC73 PUSH2 0x53D JUMP JUMPDEST PUSH20 0xFFFFFFFFFFFFFFFFFFFFFFFFFFFFFFFFFFFFFFFF AND EQ PUSH2 0xCD2 JUMPI PUSH2 0xC96 PUSH2 0xD95 JUMP JUMPDEST PUSH1 0x40 MLOAD PUSH32 0x118CDAA700000000000000000000000000000000000000000000000000000000 DUP2 MSTORE PUSH1 0x4 ADD PUSH2 0xCC9 SWAP2 SWAP1 PUSH2 0xE6B JUMP JUMPDEST PUSH1 0x40 MLOAD DUP1 SWAP2 SUB SWAP1 REVERT JUMPDEST JUMP JUMPDEST PUSH0 DUP1 PUSH0 SWAP1 SLOAD SWAP1 PUSH2 0x100 EXP SWAP1 DIV PUSH20 0xFFFFFFFFFFFFFFFFFFFFFFFFFFFFFFFFFFFFFFFF AND SWAP1 POP DUP2 PUSH0 DUP1 PUSH2 0x100 EXP DUP2 SLOAD DUP2 PUSH20 0xFFFFFFFFFFFFFFFFFFFFFFFFFFFFFFFFFFFFFFFF MUL NOT AND SWAP1 DUP4 PUSH20 0xFFFFFFFFFFFFFFFFFFFFFFFFFFFFFFFFFFFFFFFF AND MUL OR SWAP1 SSTORE POP DUP2 PUSH20 0xFFFFFFFFFFFFFFFFFFFFFFFFFFFFFFFFFFFFFFFF AND DUP2 PUSH20 0xFFFFFFFFFFFFFFFFFFFFFFFFFFFFFFFFFFFFFFFF AND PUSH32 0x8BE0079C531659141344CD1FD0A4F28419497F9722A3DAAFE3B4186F6B6457E0 PUSH1 0x40 MLOAD PUSH1 0x40 MLOAD DUP1 SWAP2 SUB SWAP1 LOG3 POP POP JUMP JUMPDEST PUSH0 CALLER SWAP1 POP SWAP1 JUMP JUMPDEST PUSH0 DUP2 MLOAD SWAP1 POP SWAP2 SWAP1 POP JUMP JUMPDEST PUSH0 DUP3 DUP3 MSTORE PUSH1 0x20 DUP3 ADD SWAP1 POP SWAP3 SWAP2 POP POP JUMP JUMPDEST DUP3 DUP2 DUP4 MCOPY PUSH0 DUP4 DUP4 ADD MSTORE POP POP POP JUMP JUMPDEST PUSH0 PUSH1 0x1F NOT PUSH1 0x1F DUP4 ADD AND SWAP1 POP SWAP2 SWAP1 POP JUMP JUMPDEST PUSH0 PUSH2 0xDDE DUP3 PUSH2 0xD9C JUMP JUMPDEST PUSH2 0xDE8 DUP2 DUP6 PUSH2 0xDA6 JUMP JUMPDEST SWAP4 POP PUSH2 0xDF8 DUP2 DUP6 PUSH1 0x20 DUP7 ADD PUSH2 0xDB6 JUMP JUMPDEST PUSH2 0xE01 DUP2 PUSH2 0xDC4 JUMP JUMPDEST DUP5 ADD SWAP2 POP POP SWAP3 SWAP2 POP POP JUMP JUMPDEST PUSH0 PUSH1 0x20 DUP3 ADD SWAP1 POP DUP2 DUP2 SUB PUSH0 DUP4 ADD MSTORE PUSH2 0xE24 DUP2 DUP5 PUSH2 0xDD4 JUMP JUMPDEST SWAP1 POP SWAP3 SWAP2 POP POP JUMP JUMPDEST PUSH0 PUSH20 0xFFFFFFFFFFFFFFFFFFFFFFFFFFFFFFFFFFFFFFFF DUP3 AND SWAP1 POP SWAP2 SWAP1 POP JUMP JUMPDEST PUSH0 PUSH2 0xE55 DUP3 PUSH2 0xE2C JUMP JUMPDEST SWAP1 POP SWAP2 SWAP1 POP JUMP JUMPDEST PUSH2 0xE65 DUP2 PUSH2 0xE4B JUMP JUMPDEST DUP3 MSTORE POP POP JUMP JUMPDEST PUSH0 PUSH1 0x20 DUP3 ADD SWAP1 POP PUSH2 0xE7E PUSH0 DUP4 ADD DUP5 PUSH2 0xE5C JUMP JUMPDEST SWAP3 SWAP2 POP POP JUMP JUMPDEST PUSH0 DUP2 SWAP1 POP SWAP2 SWAP1 POP JUMP JUMPDEST PUSH0 PUSH2 0xEA7 PUSH2 0xEA2 PUSH2 0xE9D DUP5 PUSH2 0xE2C JUMP JUMPDEST PUSH2 0xE84 JUMP JUMPDEST PUSH2 0xE2C JUMP JUMPDEST SWAP1 POP SWAP2 SWAP1 POP JUMP JUMPDEST PUSH0 PUSH2 0xEB8 DUP3 PUSH2 0xE8D JUMP JUMPDEST SWAP1 POP SWAP2 SWAP1 POP JUMP JUMPDEST PUSH0 PUSH2 0xEC9 DUP3 PUSH2 0xEAE JUMP JUMPDEST SWAP1 POP SWAP2 SWAP1 POP JUMP JUMPDEST PUSH2 0xED9 DUP2 PUSH2 0xEBF JUMP JUMPDEST DUP3 MSTORE POP POP JUMP JUMPDEST PUSH0 PUSH1 0x20 DUP3 ADD SWAP1 POP PUSH2 0xEF2 PUSH0 DUP4 ADD DUP5 PUSH2 0xED0 JUMP JUMPDEST SWAP3 SWAP2 POP POP JUMP JUMPDEST PUSH0 PUSH1 0x40 MLOAD SWAP1 POP SWAP1 JUMP JUMPDEST PUSH0 DUP1 REVERT JUMPDEST PUSH0 DUP1 REVERT JUMPDEST PUSH0 DUP1 REVERT JUMPDEST PUSH0 DUP1 REVERT JUMPDEST PUSH32 0x4E487B7100000000000000000000000000000000000000000000000000000000 PUSH0 MSTORE PUSH1 0x41 PUSH1 0x4 MSTORE PUSH1 0x24 PUSH0 REVERT JUMPDEST PUSH2 0xF47 DUP3 PUSH2 0xDC4 JUMP JUMPDEST DUP2 ADD DUP2 DUP2 LT PUSH8 0xFFFFFFFFFFFFFFFF DUP3 GT OR ISZERO PUSH2 0xF66 JUMPI PUSH2 0xF65 PUSH2 0xF11 JUMP JUMPDEST JUMPDEST DUP1 PUSH1 0x40 MSTORE POP POP POP JUMP JUMPDEST PUSH0 PUSH2 0xF78 PUSH2 0xEF8 JUMP JUMPDEST SWAP1 POP PUSH2 0xF84 DUP3 DUP3 PUSH2 0xF3E JUMP JUMPDEST SWAP2 SWAP1 POP JUMP JUMPDEST PUSH0 PUSH8 0xFFFFFFFFFFFFFFFF DUP3 GT ISZERO PUSH2 0xFA3 JUMPI PUSH2 0xFA2 PUSH2 0xF11 JUMP JUMPDEST JUMPDEST PUSH2 0xFAC DUP3 PUSH2 0xDC4 JUMP JUMPDEST SWAP1 POP PUSH1 0x20 DUP2 ADD SWAP1 POP SWAP2 SWAP1 POP JUMP JUMPDEST DUP3 DUP2 DUP4 CALLDATACOPY PUSH0 DUP4 DUP4 ADD MSTORE POP POP POP JUMP JUMPDEST PUSH0 PUSH2 0xFD9 PUSH2 0xFD4 DUP5 PUSH2 0xF89 JUMP JUMPDEST PUSH2 0xF6F JUMP JUMPDEST SWAP1 POP DUP3 DUP2 MSTORE PUSH1 0x20 DUP2 ADD DUP5 DUP5 DUP5 ADD GT ISZERO PUSH2 0xFF5 JUMPI PUSH2 0xFF4 PUSH2 0xF0D JUMP JUMPDEST JUMPDEST PUSH2 0x1000 DUP5 DUP3 DUP6 PUSH2 0xFB9 JUMP JUMPDEST POP SWAP4 SWAP3 POP POP POP JUMP JUMPDEST PUSH0 DUP3 PUSH1 0x1F DUP4 ADD SLT PUSH2 0x101C JUMPI PUSH2 0x101B PUSH2 0xF09 JUMP JUMPDEST JUMPDEST DUP2 CALLDATALOAD PUSH2 0x102C DUP5 DUP3 PUSH1 0x20 DUP7 ADD PUSH2 0xFC7 JUMP JUMPDEST SWAP2 POP POP SWAP3 SWAP2 POP POP JUMP JUMPDEST PUSH0 DUP1 PUSH1 0x40 DUP4 DUP6 SUB SLT ISZERO PUSH2 0x104B JUMPI PUSH2 0x104A PUSH2 0xF01 JUMP JUMPDEST JUMPDEST PUSH0 DUP4 ADD CALLDATALOAD PUSH8 0xFFFFFFFFFFFFFFFF DUP2 GT ISZERO PUSH2 0x1068 JUMPI PUSH2 0x1067 PUSH2 0xF05 JUMP JUMPDEST JUMPDEST PUSH2 0x1074 DUP6 DUP3 DUP7 ADD PUSH2 0x1008 JUMP JUMPDEST SWAP3 POP POP PUSH1 0x20 DUP4 ADD CALLDATALOAD PUSH8 0xFFFFFFFFFFFFFFFF DUP2 GT ISZERO PUSH2 0x1095 JUMPI PUSH2 0x1094 PUSH2 0xF05 JUMP JUMPDEST JUMPDEST PUSH2 0x10A1 DUP6 DUP3 DUP7 ADD PUSH2 0x1008 JUMP JUMPDEST SWAP2 POP POP SWAP3 POP SWAP3 SWAP1 POP JUMP JUMPDEST PUSH0 DUP2 ISZERO ISZERO SWAP1 POP SWAP2 SWAP1 POP JUMP JUMPDEST PUSH2 0x10BF DUP2 PUSH2 0x10AB JUMP JUMPDEST DUP3 MSTORE POP POP JUMP JUMPDEST PUSH0 PUSH1 0x20 DUP3 ADD SWAP1 POP PUSH2 0x10D8 PUSH0 DUP4 ADD DUP5 PUSH2 0x10B6 JUMP JUMPDEST SWAP3 SWAP2 POP POP JUMP JUMPDEST PUSH2 0x10E7 DUP2 PUSH2 0xE4B JUMP JUMPDEST DUP2 EQ PUSH2 0x10F1 JUMPI PUSH0 DUP1 REVERT JUMPDEST POP JUMP JUMPDEST PUSH0 DUP2 CALLDATALOAD SWAP1 POP PUSH2 0x1102 DUP2 PUSH2 0x10DE JUMP JUMPDEST SWAP3 SWAP2 POP POP JUMP JUMPDEST PUSH0 PUSH1 0x20 DUP3 DUP5 SUB SLT ISZERO PUSH2 0x111D JUMPI PUSH2 0x111C PUSH2 0xF01 JUMP JUMPDEST JUMPDEST PUSH0 PUSH2 0x112A DUP5 DUP3 DUP6 ADD PUSH2 0x10F4 JUMP JUMPDEST SWAP2 POP POP SWAP3 SWAP2 POP POP JUMP JUMPDEST PUSH0 DUP2 SWAP1 POP SWAP2 SWAP1 POP JUMP JUMPDEST PUSH2 0x1145 DUP2 PUSH2 0x1133 JUMP JUMPDEST DUP2 EQ PUSH2 0x114F JUMPI PUSH0 DUP1 REVERT JUMPDEST POP JUMP JUMPDEST PUSH0 DUP2 CALLDATALOAD SWAP1 POP PUSH2 0x1160 DUP2 PUSH2 0x113C JUMP JUMPDEST SWAP3 SWAP2 POP POP JUMP JUMPDEST PUSH0 DUP1 PUSH1 0x40 DUP4 DUP6 SUB SLT ISZERO PUSH2 0x117C JUMPI PUSH2 0x117B PUSH2 0xF01 JUMP JUMPDEST JUMPDEST PUSH0 PUSH2 0x1189 DUP6 DUP3 DUP7 ADD PUSH2 0x10F4 JUMP JUMPDEST SWAP3 POP POP PUSH1 0x20 PUSH2 0x119A DUP6 DUP3 DUP7 ADD PUSH2 0x1152 JUMP JUMPDEST SWAP2 POP POP SWAP3 POP SWAP3 SWAP1 POP JUMP JUMPDEST PUSH0 DUP1 REVERT JUMPDEST PUSH0 DUP1 REVERT JUMPDEST PUSH0 DUP1 DUP4 PUSH1 0x1F DUP5 ADD SLT PUSH2 0x11C1 JUMPI PUSH2 0x11C0 PUSH2 0xF09 JUMP JUMPDEST JUMPDEST DUP3 CALLDATALOAD SWAP1 POP PUSH8 0xFFFFFFFFFFFFFFFF DUP2 GT ISZERO PUSH2 0x11DE JUMPI PUSH2 0x11DD PUSH2 0x11A4 JUMP JUMPDEST JUMPDEST PUSH1 0x20 DUP4 ADD SWAP2 POP DUP4 PUSH1 0x1 DUP3 MUL DUP4 ADD GT ISZERO PUSH2 0x11FA JUMPI PUSH2 0x11F9 PUSH2 0x11A8 JUMP JUMPDEST JUMPDEST SWAP3 POP SWAP3 SWAP1 POP JUMP JUMPDEST PUSH0 DUP1 PUSH0 PUSH1 0x40 DUP5 DUP7 SUB SLT ISZERO PUSH2 0x1218 JUMPI PUSH2 0x1217 PUSH2 0xF01 JUMP JUMPDEST JUMPDEST PUSH0 DUP5 ADD CALLDATALOAD PUSH8 0xFFFFFFFFFFFFFFFF DUP2 GT ISZERO PUSH2 0x1235 JUMPI PUSH2 0x1234 PUSH2 0xF05 JUMP JUMPDEST JUMPDEST PUSH2 0x1241 DUP7 DUP3 DUP8 ADD PUSH2 0x11AC JUMP JUMPDEST SWAP4 POP SWAP4 POP POP PUSH1 0x20 PUSH2 0x1254 DUP7 DUP3 DUP8 ADD PUSH2 0x1152 JUMP JUMPDEST SWAP2 POP POP SWAP3 POP SWAP3 POP SWAP3 JUMP JUMPDEST PUSH32 0x4E487B7100000000000000000000000000000000000000000000000000000000 PUSH0 MSTORE PUSH1 0x22 PUSH1 0x4 MSTORE PUSH1 0x24 PUSH0 REVERT JUMPDEST PUSH0 PUSH1 0x2 DUP3 DIV SWAP1 POP PUSH1 0x1 DUP3 AND DUP1 PUSH2 0x12A2 JUMPI PUSH1 0x7F DUP3 AND SWAP2 POP JUMPDEST PUSH1 0x20 DUP3 LT DUP2 SUB PUSH2 0x12B5 JUMPI PUSH2 0x12B4 PUSH2 0x125E JUMP JUMPDEST JUMPDEST POP SWAP2 SWAP1 POP JUMP JUMPDEST PUSH0 DUP2 SWAP1 POP DUP2 PUSH0 MSTORE PUSH1 0x20 PUSH0 KECCAK256 SWAP1 POP SWAP2 SWAP1 POP JUMP JUMPDEST PUSH0 PUSH1 0x20 PUSH1 0x1F DUP4 ADD DIV SWAP1 POP SWAP2 SWAP1 POP JUMP JUMPDEST PUSH0 DUP3 DUP3 SHL SWAP1 POP SWAP3 SWAP2 POP POP JUMP JUMPDEST PUSH0 PUSH1 0x8 DUP4 MUL PUSH2 0x1317 PUSH32 0xFFFFFFFFFFFFFFFFFFFFFFFFFFFFFFFFFFFFFFFFFFFFFFFFFFFFFFFFFFFFFFFF DUP3 PUSH2 0x12DC JUMP JUMPDEST PUSH2 0x1321 DUP7 DUP4 PUSH2 0x12DC JUMP JUMPDEST SWAP6 POP DUP1 NOT DUP5 AND SWAP4 POP DUP1 DUP7 AND DUP5 OR SWAP3 POP POP POP SWAP4 SWAP3 POP POP POP JUMP JUMPDEST PUSH0 PUSH2 0x1353 PUSH2 0x134E PUSH2 0x1349 DUP5 PUSH2 0x1133 JUMP JUMPDEST PUSH2 0xE84 JUMP JUMPDEST PUSH2 0x1133 JUMP JUMPDEST SWAP1 POP SWAP2 SWAP1 POP JUMP JUMPDEST PUSH0 DUP2 SWAP1 POP SWAP2 SWAP1 POP JUMP JUMPDEST PUSH2 0x136C DUP4 PUSH2 0x1339 JUMP JUMPDEST PUSH2 0x1380 PUSH2 0x1378 DUP3 PUSH2 0x135A JUMP JUMPDEST DUP5 DUP5 SLOAD PUSH2 0x12E8 JUMP JUMPDEST DUP3 SSTORE POP POP POP POP JUMP JUMPDEST PUSH0 SWAP1 JUMP JUMPDEST PUSH2 0x1394 PUSH2 0x1388 JUMP JUMPDEST PUSH2 0x139F DUP2 DUP5 DUP5 PUSH2 0x1363 JUMP JUMPDEST POP POP POP JUMP JUMPDEST JUMPDEST DUP2 DUP2 LT ISZERO PUSH2 0x13C2 JUMPI PUSH2 0x13B7 PUSH0 DUP3 PUSH2 0x138C JUMP JUMPDEST PUSH1 0x1 DUP2 ADD SWAP1 POP PUSH2 0x13A5 JUMP JUMPDEST POP POP JUMP JUMPDEST PUSH1 0x1F DUP3 GT ISZERO PUSH2 0x1407 JUMPI PUSH2 0x13D8 DUP2 PUSH2 0x12BB JUMP JUMPDEST PUSH2 0x13E1 DUP5 PUSH2 0x12CD JUMP JUMPDEST DUP2 ADD PUSH1 0x20 DUP6 LT ISZERO PUSH2 0x13F0 JUMPI DUP2 SWAP1 POP JUMPDEST PUSH2 0x1404 PUSH2 0x13FC DUP6 PUSH2 0x12CD JUMP JUMPDEST DUP4 ADD DUP3 PUSH2 0x13A4 JUMP JUMPDEST POP POP JUMPDEST POP POP POP JUMP JUMPDEST PUSH0 DUP3 DUP3 SHR SWAP1 POP SWAP3 SWAP2 POP POP JUMP JUMPDEST PUSH0 PUSH2 0x1427 PUSH0 NOT DUP5 PUSH1 0x8 MUL PUSH2 0x140C JUMP JUMPDEST NOT DUP1 DUP4 AND SWAP2 POP POP SWAP3 SWAP2 POP POP JUMP JUMPDEST PUSH0 PUSH2 0x143F DUP4 DUP4 PUSH2 0x1418 JUMP JUMPDEST SWAP2 POP DUP3 PUSH1 0x2 MUL DUP3 OR SWAP1 POP SWAP3 SWAP2 POP POP JUMP JUMPDEST PUSH2 0x1458 DUP3 PUSH2 0xD9C JUMP JUMPDEST PUSH8 0xFFFFFFFFFFFFFFFF DUP2 GT ISZERO PUSH2 0x1471 JUMPI PUSH2 0x1470 PUSH2 0xF11 JUMP JUMPDEST JUMPDEST PUSH2 0x147B DUP3 SLOAD PUSH2 0x128B JUMP JUMPDEST PUSH2 0x1486 DUP3 DUP3 DUP6 PUSH2 0x13C6 JUMP JUMPDEST PUSH0 PUSH1 0x20 SWAP1 POP PUSH1 0x1F DUP4 GT PUSH1 0x1 DUP2 EQ PUSH2 0x14B7 JUMPI PUSH0 DUP5 ISZERO PUSH2 0x14A5 JUMPI DUP3 DUP8 ADD MLOAD SWAP1 POP JUMPDEST PUSH2 0x14AF DUP6 DUP3 PUSH2 0x1434 JUMP JUMPDEST DUP7 SSTORE POP PUSH2 0x1516 JUMP JUMPDEST PUSH1 0x1F NOT DUP5 AND PUSH2 0x14C5 DUP7 PUSH2 0x12BB JUMP JUMPDEST PUSH0 JUMPDEST DUP3 DUP2 LT ISZERO PUSH2 0x14EC JUMPI DUP5 DUP10 ADD MLOAD DUP3 SSTORE PUSH1 0x1 DUP3 ADD SWAP2 POP PUSH1 0x20 DUP6 ADD SWAP5 POP PUSH1 0x20 DUP2 ADD SWAP1 POP PUSH2 0x14C7 JUMP JUMPDEST DUP7 DUP4 LT ISZERO PUSH2 0x1509 JUMPI DUP5 DUP10 ADD MLOAD PUSH2 0x1505 PUSH1 0x1F DUP10 AND DUP3 PUSH2 0x1418 JUMP JUMPDEST DUP4 SSTORE POP JUMPDEST PUSH1 0x1 PUSH1 0x2 DUP9 MUL ADD DUP9 SSTORE POP POP POP JUMPDEST POP POP POP POP POP POP JUMP JUMPDEST PUSH2 0x1527 DUP2 PUSH2 0x10AB JUMP JUMPDEST DUP2 EQ PUSH2 0x1531 JUMPI PUSH0 DUP1 REVERT JUMPDEST POP JUMP JUMPDEST PUSH0 DUP2 MLOAD SWAP1 POP PUSH2 0x1542 DUP2 PUSH2 0x151E JUMP JUMPDEST SWAP3 SWAP2 POP POP JUMP JUMPDEST PUSH0 PUSH1 0x20 DUP3 DUP5 SUB SLT ISZERO PUSH2 0x155D JUMPI PUSH2 0x155C PUSH2 0xF01 JUMP JUMPDEST JUMPDEST PUSH0 PUSH2 0x156A DUP5 DUP3 DUP6 ADD PUSH2 0x1534 JUMP JUMPDEST SWAP2 POP POP SWAP3 SWAP2 POP POP JUMP JUMPDEST PUSH2 0x157C DUP2 PUSH2 0x1133 JUMP JUMPDEST DUP3 MSTORE POP POP JUMP JUMPDEST PUSH0 PUSH1 0x40 DUP3 ADD SWAP1 POP PUSH2 0x1595 PUSH0 DUP4 ADD DUP6 PUSH2 0xE5C JUMP JUMPDEST PUSH2 0x15A2 PUSH1 0x20 DUP4 ADD DUP5 PUSH2 0x1573 JUMP JUMPDEST SWAP4 SWAP3 POP POP POP JUMP JUMPDEST PUSH0 DUP2 SLOAD PUSH2 0x15B5 DUP2 PUSH2 0x128B JUMP JUMPDEST PUSH2 0x15BF DUP2 DUP7 PUSH2 0xDA6 JUMP JUMPDEST SWAP5 POP PUSH1 0x1 DUP3 AND PUSH0 DUP2 EQ PUSH2 0x15D9 JUMPI PUSH1 0x1 DUP2 EQ PUSH2 0x15EF JUMPI PUSH2 0x1621 JUMP JUMPDEST PUSH1 0xFF NOT DUP4 AND DUP7 MSTORE DUP2 ISZERO ISZERO PUSH1 0x20 MUL DUP7 ADD SWAP4 POP PUSH2 0x1621 JUMP JUMPDEST PUSH2 0x15F8 DUP6 PUSH2 0x12BB JUMP JUMPDEST PUSH0 JUMPDEST DUP4 DUP2 LT ISZERO PUSH2 0x1619 JUMPI DUP2 SLOAD DUP2 DUP10 ADD MSTORE PUSH1 0x1 DUP3 ADD SWAP2 POP PUSH1 0x20 DUP2 ADD SWAP1 POP PUSH2 0x15FA JUMP JUMPDEST DUP1 DUP9 ADD SWAP6 POP POP POP JUMPDEST POP POP POP SWAP3 SWAP2 POP POP JUMP JUMPDEST PUSH0 DUP2 MLOAD SWAP1 POP SWAP2 SWAP1 POP JUMP JUMPDEST PUSH0 DUP3 DUP3 MSTORE PUSH1 0x20 DUP3 ADD SWAP1 POP SWAP3 SWAP2 POP POP JUMP JUMPDEST PUSH0 PUSH2 0x164E DUP3 PUSH2 0x162A JUMP JUMPDEST PUSH2 0x1658 DUP2 DUP6 PUSH2 0x1634 JUMP JUMPDEST SWAP4 POP PUSH2 0x1668 DUP2 DUP6 PUSH1 0x20 DUP7 ADD PUSH2 0xDB6 JUMP JUMPDEST PUSH2 0x1671 DUP2 PUSH2 0xDC4 JUMP JUMPDEST DUP5 ADD SWAP2 POP POP SWAP3 SWAP2 POP POP JUMP JUMPDEST PUSH0 PUSH1 0xA0 DUP3 ADD SWAP1 POP PUSH2 0x168F PUSH0 DUP4 ADD DUP9 PUSH2 0xE5C JUMP JUMPDEST DUP2 DUP2 SUB PUSH1 0x20 DUP4 ADD MSTORE PUSH2 0x16A1 DUP2 DUP8 PUSH2 0x15A9 JUMP JUMPDEST SWAP1 POP DUP2 DUP2 SUB PUSH1 0x40 DUP4 ADD MSTORE PUSH2 0x16B5 DUP2 DUP7 PUSH2 0x15A9 JUMP JUMPDEST SWAP1 POP DUP2 DUP2 SUB PUSH1 0x60 DUP4 ADD MSTORE PUSH2 0x16C9 DUP2 DUP6 PUSH2 0x1644 JUMP JUMPDEST SWAP1 POP PUSH2 0x16D8 PUSH1 0x80 DUP4 ADD DUP5 PUSH2 0xE5C JUMP JUMPDEST SWAP7 SWAP6 POP POP POP POP POP POP JUMP JUMPDEST PUSH0 PUSH1 0x60 DUP3 ADD SWAP1 POP DUP2 DUP2 SUB PUSH0 DUP4 ADD MSTORE PUSH2 0x16FA DUP2 DUP7 PUSH2 0x15A9 JUMP JUMPDEST SWAP1 POP DUP2 DUP2 SUB PUSH1 0x20 DUP4 ADD MSTORE PUSH2 0x170E DUP2 DUP6 PUSH2 0x15A9 JUMP JUMPDEST SWAP1 POP DUP2 DUP2 SUB PUSH1 0x40 DUP4 ADD MSTORE PUSH2 0x1722 DUP2 DUP5 PUSH2 0x1644 JUMP JUMPDEST SWAP1 POP SWAP5 SWAP4 POP POP POP POP JUMP JUMPDEST PUSH0 PUSH2 0x1737 DUP4 DUP6 PUSH2 0x1634 JUMP JUMPDEST SWAP4 POP PUSH2 0x1744 DUP4 DUP6 DUP5 PUSH2 0xFB9 JUMP JUMPDEST PUSH2 0x174D DUP4 PUSH2 0xDC4 JUMP JUMPDEST DUP5 ADD SWAP1 POP SWAP4 SWAP3 POP POP POP JUMP JUMPDEST PUSH0 PUSH1 0x40 DUP3 ADD SWAP1 POP DUP2 DUP2 SUB PUSH0 DUP4 ADD MSTORE PUSH2 0x1771 DUP2 DUP6 DUP8 PUSH2 0x172C JUMP JUMPDEST SWAP1 POP PUSH2 0x1780 PUSH1 0x20 DUP4 ADD DUP5 PUSH2 0x1573 JUMP JUMPDEST SWAP5 SWAP4 POP POP POP POP JUMP INVALID LOG2 PUSH5 0x6970667358 0x22 SLT KECCAK256 0xAB 0xDE PUSH21 0x203415AFDB65851418D3CACEC47984228DADD1B950 EXTCODESIZE 0xBE 0xC9 0xE8 PUSH16 0x890D7564736F6C634300081A00330000 "
				},
				"gasEstimates": {
					"creation": {
						"codeDepositCost": "1215600",
						"executionCost": "infinite",
						"totalCost": "infinite"
					},
					"external": {
						"axelarGatewayAddr()": "2531",
						"destAddr()": "infinite",
						"destChain()": "infinite",
						"gasService()": "infinite",
						"grantDatacap(bytes,uint256)": "infinite",
						"grantDatacapMock(address,uint256)": "infinite",
						"hasAccess()": "infinite",
						"owner()": "2538",
						"renounceOwnership()": "infinite",
						"setDestChainAndAddress(string,string)": "infinite",
						"setStorageProviderEscrowFactory(address)": "infinite",
						"storageProviderEscrowFactoryAddr()": "2530",
						"transferOwnership(address)": "infinite"
					}
				},
				"methodIdentifiers": {
					"axelarGatewayAddr()": "4cae3185",
					"destAddr()": "25d83b7a",
					"destChain()": "bc95b3b1",
					"gasService()": "6a22d8cc",
					"grantDatacap(bytes,uint256)": "f4bd456d",
					"grantDatacapMock(address,uint256)": "ca09c885",
					"hasAccess()": "85a2dd15",
					"owner()": "8da5cb5b",
					"renounceOwnership()": "715018a6",
					"setDestChainAndAddress(string,string)": "84272b59",
					"setStorageProviderEscrowFactory(address)": "9b85622c",
					"storageProviderEscrowFactoryAddr()": "bcaf0d9a",
					"transferOwnership(address)": "f2fde38b"
				}
			},
			"storageLayout": {
				"storage": [
					{
						"astId": 728,
						"contract": "contracts/16_DatacapGatewayAxelar.sol:DatacapGatewayAxelar",
						"label": "_owner",
						"offset": 0,
						"slot": "0",
						"type": "t_address"
					},
					{
						"astId": 917,
						"contract": "contracts/16_DatacapGatewayAxelar.sol:DatacapGatewayAxelar",
						"label": "storageProviderEscrowFactoryAddr",
						"offset": 0,
						"slot": "1",
						"type": "t_address"
					},
					{
						"astId": 919,
						"contract": "contracts/16_DatacapGatewayAxelar.sol:DatacapGatewayAxelar",
						"label": "axelarGatewayAddr",
						"offset": 0,
						"slot": "2",
						"type": "t_address"
					},
					{
						"astId": 924,
						"contract": "contracts/16_DatacapGatewayAxelar.sol:DatacapGatewayAxelar",
						"label": "destChain",
						"offset": 0,
						"slot": "3",
						"type": "t_string_storage"
					},
					{
						"astId": 926,
						"contract": "contracts/16_DatacapGatewayAxelar.sol:DatacapGatewayAxelar",
						"label": "destAddr",
						"offset": 0,
						"slot": "4",
						"type": "t_string_storage"
					}
				],
				"types": {
					"t_address": {
						"encoding": "inplace",
						"label": "address",
						"numberOfBytes": "20"
					},
					"t_string_storage": {
						"encoding": "bytes",
						"label": "string",
						"numberOfBytes": "32"
					}
				}
			},
			"userdoc": {
				"kind": "user",
				"methods": {},
				"version": 1
			}
		}
	}
}