{
	"contracts/05_Axelar_CallContract.sol": {
		"CallContract": {
			"abi": [
				{
					"inputs": [
						{
							"internalType": "address",
							"name": "_gateway",
							"type": "address"
						},
						{
							"internalType": "address",
							"name": "_gasReceiver",
							"type": "address"
						}
					],
					"stateMutability": "nonpayable",
					"type": "constructor"
				},
				{
					"inputs": [],
					"name": "InvalidAddress",
					"type": "error"
				},
				{
					"inputs": [],
					"name": "NotApprovedByGateway",
					"type": "error"
				},
				{
					"anonymous": false,
					"inputs": [
						{
							"indexed": false,
							"internalType": "bytes32",
							"name": "commandId",
							"type": "bytes32"
						},
						{
							"indexed": false,
							"internalType": "string",
							"name": "_from",
							"type": "string"
						},
						{
							"indexed": false,
							"internalType": "string",
							"name": "_message",
							"type": "string"
						}
					],
					"name": "Executed",
					"type": "event"
				},
				{
					"inputs": [
						{
							"internalType": "bytes32",
							"name": "commandId",
							"type": "bytes32"
						},
						{
							"internalType": "string",
							"name": "sourceChain",
							"type": "string"
						},
						{
							"internalType": "string",
							"name": "sourceAddress",
							"type": "string"
						},
						{
							"internalType": "bytes",
							"name": "payload",
							"type": "bytes"
						}
					],
					"name": "execute",
					"outputs": [],
					"stateMutability": "nonpayable",
					"type": "function"
				},
				{
					"inputs": [],
					"name": "gasService",
					"outputs": [
						{
							"internalType": "contract IAxelarGasService",
							"name": "",
							"type": "address"
						}
					],
					"stateMutability": "view",
					"type": "function"
				},
				{
					"inputs": [],
					"name": "gateway",
					"outputs": [
						{
							"internalType": "contract IAxelarGateway",
							"name": "",
							"type": "address"
						}
					],
					"stateMutability": "view",
					"type": "function"
				},
				{
					"inputs": [],
					"name": "message",
					"outputs": [
						{
							"internalType": "string",
							"name": "",
							"type": "string"
						}
					],
					"stateMutability": "view",
					"type": "function"
				},
				{
					"inputs": [
						{
							"internalType": "string",
							"name": "destinationChain",
							"type": "string"
						},
						{
							"internalType": "string",
							"name": "destinationAddress",
							"type": "string"
						},
						{
							"internalType": "string",
							"name": "_message",
							"type": "string"
						}
					],
					"name": "setRemoteValue",
					"outputs": [],
					"stateMutability": "payable",
					"type": "function"
				},
				{
					"inputs": [],
					"name": "sourceAddress",
					"outputs": [
						{
							"internalType": "string",
							"name": "",
							"type": "string"
						}
					],
					"stateMutability": "view",
					"type": "function"
				},
				{
					"inputs": [],
					"name": "sourceChain",
					"outputs": [
						{
							"internalType": "string",
							"name": "",
							"type": "string"
						}
					],
					"stateMutability": "view",
					"type": "function"
				}
			],
			"devdoc": {
				"errors": {
					"InvalidAddress()": [
						{
							"details": "Thrown when a function is called with an invalid address."
						}
					],
					"NotApprovedByGateway()": [
						{
							"details": "Thrown when the call is not approved by the Axelar Gateway."
						}
					]
				},
				"kind": "dev",
				"methods": {
					"constructor": {
						"params": {
							"_gasReceiver": "address of axl gas service on deployed chain",
							"_gateway": "address of axl gateway on deployed chain"
						}
					},
					"execute(bytes32,string,string,bytes)": {
						"details": "This function ensures the call is approved by Axelar Gateway before execution. It uses a hash of the payload for validation and internally calls _execute for the actual command execution. Reverts if the validation fails.",
						"params": {
							"commandId": "The unique identifier of the cross-chain message being executed.",
							"payload": "The payload of the message payload.",
							"sourceAddress": "The address on the source chain that sent the message.",
							"sourceChain": "The name of the source chain from which the message originated."
						}
					},
					"gateway()": {
						"returns": {
							"_0": "The Axelar Gateway instance."
						}
					},
					"setRemoteValue(string,string,string)": {
						"details": "message param is passed in as gmp message",
						"params": {
							"_message": "message to be sent",
							"destinationAddress": "address on dest chain this tx is going to",
							"destinationChain": "name of the dest chain (ex. \"Fantom\")"
						}
					}
				},
				"title": "CallContract",
				"version": 1
			},
			"evm": {
				"assembly": "    /* \"contracts/05_Axelar_CallContract.sol\":558:2723  contract CallContract is AxelarExecutable {... */\n  mstore(0x40, 0xc0)\n    /* \"contracts/05_Axelar_CallContract.sol\":979:1119  constructor(address _gateway, address _gasReceiver) AxelarExecutable(_gateway) {... */\n  callvalue\n  dup1\n  iszero\n  tag_1\n  jumpi\n  0x00\n  dup1\n  revert\ntag_1:\n  pop\n  mload(0x40)\n  sub(codesize, bytecodeSize)\n  dup1\n  bytecodeSize\n  dup4\n  codecopy\n  dup2\n  dup2\n  add\n  0x40\n  mstore\n  dup2\n  add\n  swap1\n  tag_2\n  swap2\n  swap1\n  tag_3\n  jump\t// in\ntag_2:\n    /* \"contracts/05_Axelar_CallContract.sol\":1048:1056  _gateway */\n  dup2\n    /* \"@axelar-network/axelar-gmp-sdk-solidity/contracts/executable/AxelarExecutable.sol\":846:847  0 */\n  0x00\n    /* \"@axelar-network/axelar-gmp-sdk-solidity/contracts/executable/AxelarExecutable.sol\":826:848  gateway_ == address(0) */\n  0xffffffffffffffffffffffffffffffffffffffff\n  and\n    /* \"@axelar-network/axelar-gmp-sdk-solidity/contracts/executable/AxelarExecutable.sol\":826:834  gateway_ */\n  dup2\n    /* \"@axelar-network/axelar-gmp-sdk-solidity/contracts/executable/AxelarExecutable.sol\":826:848  gateway_ == address(0) */\n  0xffffffffffffffffffffffffffffffffffffffff\n  and\n  sub\n    /* \"@axelar-network/axelar-gmp-sdk-solidity/contracts/executable/AxelarExecutable.sol\":822:873  if (gateway_ == address(0)) revert InvalidAddress() */\n  tag_7\n  jumpi\n    /* \"@axelar-network/axelar-gmp-sdk-solidity/contracts/executable/AxelarExecutable.sol\":857:873  InvalidAddress() */\n  mload(0x40)\n  0xe6c4247b00000000000000000000000000000000000000000000000000000000\n  dup2\n  mstore\n  0x04\n  add\n  mload(0x40)\n  dup1\n  swap2\n  sub\n  swap1\n  revert\n    /* \"@axelar-network/axelar-gmp-sdk-solidity/contracts/executable/AxelarExecutable.sol\":822:873  if (gateway_ == address(0)) revert InvalidAddress() */\ntag_7:\n    /* \"@axelar-network/axelar-gmp-sdk-solidity/contracts/executable/AxelarExecutable.sol\":901:909  gateway_ */\n  dup1\n    /* \"@axelar-network/axelar-gmp-sdk-solidity/contracts/executable/AxelarExecutable.sol\":884:909  gatewayAddress = gateway_ */\n  0xffffffffffffffffffffffffffffffffffffffff\n  and\n  0x80\n  dup2\n  0xffffffffffffffffffffffffffffffffffffffff\n  and\n  dup2\n  mstore\n  pop\n  pop\n    /* \"@axelar-network/axelar-gmp-sdk-solidity/contracts/executable/AxelarExecutable.sol\":782:916  constructor(address gateway_) {... */\n  pop\n    /* \"contracts/05_Axelar_CallContract.sol\":1099:1111  _gasReceiver */\n  dup1\n    /* \"contracts/05_Axelar_CallContract.sol\":1068:1112  gasService = IAxelarGasService(_gasReceiver) */\n  0xffffffffffffffffffffffffffffffffffffffff\n  and\n  0xa0\n  dup2\n  0xffffffffffffffffffffffffffffffffffffffff\n  and\n  dup2\n  mstore\n  pop\n  pop\n    /* \"contracts/05_Axelar_CallContract.sol\":979:1119  constructor(address _gateway, address _gasReceiver) AxelarExecutable(_gateway) {... */\n  pop\n  pop\n    /* \"contracts/05_Axelar_CallContract.sol\":558:2723  contract CallContract is AxelarExecutable {... */\n  jump(tag_9)\n    /* \"#utility.yul\":88:205   */\ntag_11:\n    /* \"#utility.yul\":197:198   */\n  0x00\n    /* \"#utility.yul\":194:195   */\n  dup1\n    /* \"#utility.yul\":187:199   */\n  revert\n    /* \"#utility.yul\":334:460   */\ntag_13:\n    /* \"#utility.yul\":371:378   */\n  0x00\n    /* \"#utility.yul\":411:453   */\n  0xffffffffffffffffffffffffffffffffffffffff\n    /* \"#utility.yul\":404:409   */\n  dup3\n    /* \"#utility.yul\":400:454   */\n  and\n    /* \"#utility.yul\":389:454   */\n  swap1\n  pop\n    /* \"#utility.yul\":334:460   */\n  swap2\n  swap1\n  pop\n  jump\t// out\n    /* \"#utility.yul\":466:562   */\ntag_14:\n    /* \"#utility.yul\":503:510   */\n  0x00\n    /* \"#utility.yul\":532:556   */\n  tag_23\n    /* \"#utility.yul\":550:555   */\n  dup3\n    /* \"#utility.yul\":532:556   */\n  tag_13\n  jump\t// in\ntag_23:\n    /* \"#utility.yul\":521:556   */\n  swap1\n  pop\n    /* \"#utility.yul\":466:562   */\n  swap2\n  swap1\n  pop\n  jump\t// out\n    /* \"#utility.yul\":568:690   */\ntag_15:\n    /* \"#utility.yul\":641:665   */\n  tag_25\n    /* \"#utility.yul\":659:664   */\n  dup2\n    /* \"#utility.yul\":641:665   */\n  tag_14\n  jump\t// in\ntag_25:\n    /* \"#utility.yul\":634:639   */\n  dup2\n    /* \"#utility.yul\":631:666   */\n  eq\n    /* \"#utility.yul\":621:684   */\n  tag_26\n  jumpi\n    /* \"#utility.yul\":680:681   */\n  0x00\n    /* \"#utility.yul\":677:678   */\n  dup1\n    /* \"#utility.yul\":670:682   */\n  revert\n    /* \"#utility.yul\":621:684   */\ntag_26:\n    /* \"#utility.yul\":568:690   */\n  pop\n  jump\t// out\n    /* \"#utility.yul\":696:839   */\ntag_16:\n    /* \"#utility.yul\":753:758   */\n  0x00\n    /* \"#utility.yul\":784:790   */\n  dup2\n    /* \"#utility.yul\":778:791   */\n  mload\n    /* \"#utility.yul\":769:791   */\n  swap1\n  pop\n    /* \"#utility.yul\":800:833   */\n  tag_28\n    /* \"#utility.yul\":827:832   */\n  dup2\n    /* \"#utility.yul\":800:833   */\n  tag_15\n  jump\t// in\ntag_28:\n    /* \"#utility.yul\":696:839   */\n  swap3\n  swap2\n  pop\n  pop\n  jump\t// out\n    /* \"#utility.yul\":845:1352   */\ntag_3:\n    /* \"#utility.yul\":924:930   */\n  0x00\n    /* \"#utility.yul\":932:938   */\n  dup1\n    /* \"#utility.yul\":981:983   */\n  0x40\n    /* \"#utility.yul\":969:978   */\n  dup4\n    /* \"#utility.yul\":960:967   */\n  dup6\n    /* \"#utility.yul\":956:979   */\n  sub\n    /* \"#utility.yul\":952:984   */\n  slt\n    /* \"#utility.yul\":949:1068   */\n  iszero\n  tag_30\n  jumpi\n    /* \"#utility.yul\":987:1066   */\n  tag_31\n  tag_11\n  jump\t// in\ntag_31:\n    /* \"#utility.yul\":949:1068   */\ntag_30:\n    /* \"#utility.yul\":1107:1108   */\n  0x00\n    /* \"#utility.yul\":1132:1196   */\n  tag_32\n    /* \"#utility.yul\":1188:1195   */\n  dup6\n    /* \"#utility.yul\":1179:1185   */\n  dup3\n    /* \"#utility.yul\":1168:1177   */\n  dup7\n    /* \"#utility.yul\":1164:1186   */\n  add\n    /* \"#utility.yul\":1132:1196   */\n  tag_16\n  jump\t// in\ntag_32:\n    /* \"#utility.yul\":1122:1196   */\n  swap3\n  pop\n    /* \"#utility.yul\":1078:1206   */\n  pop\n    /* \"#utility.yul\":1245:1247   */\n  0x20\n    /* \"#utility.yul\":1271:1335   */\n  tag_33\n    /* \"#utility.yul\":1327:1334   */\n  dup6\n    /* \"#utility.yul\":1318:1324   */\n  dup3\n    /* \"#utility.yul\":1307:1316   */\n  dup7\n    /* \"#utility.yul\":1303:1325   */\n  add\n    /* \"#utility.yul\":1271:1335   */\n  tag_16\n  jump\t// in\ntag_33:\n    /* \"#utility.yul\":1261:1335   */\n  swap2\n  pop\n    /* \"#utility.yul\":1216:1345   */\n  pop\n    /* \"#utility.yul\":845:1352   */\n  swap3\n  pop\n  swap3\n  swap1\n  pop\n  jump\t// out\n    /* \"contracts/05_Axelar_CallContract.sol\":558:2723  contract CallContract is AxelarExecutable {... */\ntag_9:\n  mload(0x80)\n  mload(0xa0)\n  codecopy(0x00, dataOffset(sub_0), dataSize(sub_0))\n  0x00\n  assignImmutable(\"0x800e5167fcdf08619843f8e892e4ee5b0c228c18c17637b1d2ba8ec6b4153b4e\")\n  0x00\n  assignImmutable(\"0x7880aec93413f117ef14bd4e6d130875ab2c7d7d55a064fac3c2f7bd51516380\")\n  return(0x00, dataSize(sub_0))\nstop\n\nsub_0: assembly {\n        /* \"contracts/05_Axelar_CallContract.sol\":558:2723  contract CallContract is AxelarExecutable {... */\n      mstore(0x40, 0x80)\n      jumpi(tag_1, lt(calldatasize, 0x04))\n      shr(0xe0, calldataload(0x00))\n      dup1\n      0x6a22d8cc\n      gt\n      tag_9\n      jumpi\n      dup1\n      0x6a22d8cc\n      eq\n      tag_5\n      jumpi\n      dup1\n      0x80d32697\n      eq\n      tag_6\n      jumpi\n      dup1\n      0xb0fa8444\n      eq\n      tag_7\n      jumpi\n      dup1\n      0xe21f37ce\n      eq\n      tag_8\n      jumpi\n      jump(tag_1)\n    tag_9:\n      dup1\n      0x116191b6\n      eq\n      tag_2\n      jumpi\n      dup1\n      0x1c6ffa46\n      eq\n      tag_3\n      jumpi\n      dup1\n      0x49160658\n      eq\n      tag_4\n      jumpi\n    tag_1:\n      0x00\n      dup1\n      revert\n        /* \"@axelar-network/axelar-gmp-sdk-solidity/contracts/executable/AxelarExecutable.sol\":2851:2961  function gateway() public view returns (IAxelarGateway) {... */\n    tag_2:\n      callvalue\n      dup1\n      iszero\n      tag_10\n      jumpi\n      0x00\n      dup1\n      revert\n    tag_10:\n      pop\n      tag_11\n      tag_12\n      jump\t// in\n    tag_11:\n      mload(0x40)\n      tag_13\n      swap2\n      swap1\n      tag_14\n      jump\t// in\n    tag_13:\n      mload(0x40)\n      dup1\n      swap2\n      sub\n      swap1\n      return\n        /* \"contracts/05_Axelar_CallContract.sol\":633:658  string public sourceChain */\n    tag_3:\n      callvalue\n      dup1\n      iszero\n      tag_15\n      jumpi\n      0x00\n      dup1\n      revert\n    tag_15:\n      pop\n      tag_16\n      tag_17\n      jump\t// in\n    tag_16:\n      mload(0x40)\n      tag_18\n      swap2\n      swap1\n      tag_19\n      jump\t// in\n    tag_18:\n      mload(0x40)\n      dup1\n      swap2\n      sub\n      swap1\n      return\n        /* \"@axelar-network/axelar-gmp-sdk-solidity/contracts/executable/AxelarExecutable.sol\":1598:2038  function execute(... */\n    tag_4:\n      callvalue\n      dup1\n      iszero\n      tag_20\n      jumpi\n      0x00\n      dup1\n      revert\n    tag_20:\n      pop\n      tag_21\n      0x04\n      dup1\n      calldatasize\n      sub\n      dup2\n      add\n      swap1\n      tag_22\n      swap2\n      swap1\n      tag_23\n      jump\t// in\n    tag_22:\n      tag_24\n      jump\t// in\n    tag_21:\n      stop\n        /* \"contracts/05_Axelar_CallContract.sol\":697:742  IAxelarGasService public immutable gasService */\n    tag_5:\n      callvalue\n      dup1\n      iszero\n      tag_25\n      jumpi\n      0x00\n      dup1\n      revert\n    tag_25:\n      pop\n      tag_26\n      tag_27\n      jump\t// in\n    tag_26:\n      mload(0x40)\n      tag_28\n      swap2\n      swap1\n      tag_29\n      jump\t// in\n    tag_28:\n      mload(0x40)\n      dup1\n      swap2\n      sub\n      swap1\n      return\n        /* \"contracts/05_Axelar_CallContract.sol\":1433:2011  function setRemoteValue(... */\n    tag_6:\n      tag_30\n      0x04\n      dup1\n      calldatasize\n      sub\n      dup2\n      add\n      swap1\n      tag_31\n      swap2\n      swap1\n      tag_32\n      jump\t// in\n    tag_31:\n      tag_33\n      jump\t// in\n    tag_30:\n      stop\n        /* \"contracts/05_Axelar_CallContract.sol\":664:691  string public sourceAddress */\n    tag_7:\n      callvalue\n      dup1\n      iszero\n      tag_34\n      jumpi\n      0x00\n      dup1\n      revert\n    tag_34:\n      pop\n      tag_35\n      tag_36\n      jump\t// in\n    tag_35:\n      mload(0x40)\n      tag_37\n      swap2\n      swap1\n      tag_19\n      jump\t// in\n    tag_37:\n      mload(0x40)\n      dup1\n      swap2\n      sub\n      swap1\n      return\n        /* \"contracts/05_Axelar_CallContract.sol\":606:627  string public message */\n    tag_8:\n      callvalue\n      dup1\n      iszero\n      tag_38\n      jumpi\n      0x00\n      dup1\n      revert\n    tag_38:\n      pop\n      tag_39\n      tag_40\n      jump\t// in\n    tag_39:\n      mload(0x40)\n      tag_41\n      swap2\n      swap1\n      tag_19\n      jump\t// in\n    tag_41:\n      mload(0x40)\n      dup1\n      swap2\n      sub\n      swap1\n      return\n        /* \"@axelar-network/axelar-gmp-sdk-solidity/contracts/executable/AxelarExecutable.sol\":2851:2961  function gateway() public view returns (IAxelarGateway) {... */\n    tag_12:\n        /* \"@axelar-network/axelar-gmp-sdk-solidity/contracts/executable/AxelarExecutable.sol\":2891:2905  IAxelarGateway */\n      0x00\n        /* \"@axelar-network/axelar-gmp-sdk-solidity/contracts/executable/AxelarExecutable.sol\":2939:2953  gatewayAddress */\n      immutable(\"0x7880aec93413f117ef14bd4e6d130875ab2c7d7d55a064fac3c2f7bd51516380\")\n        /* \"@axelar-network/axelar-gmp-sdk-solidity/contracts/executable/AxelarExecutable.sol\":2917:2954  return IAxelarGateway(gatewayAddress) */\n      swap1\n      pop\n        /* \"@axelar-network/axelar-gmp-sdk-solidity/contracts/executable/AxelarExecutable.sol\":2851:2961  function gateway() public view returns (IAxelarGateway) {... */\n      swap1\n      jump\t// out\n        /* \"contracts/05_Axelar_CallContract.sol\":633:658  string public sourceChain */\n    tag_17:\n      0x01\n      dup1\n      sload\n      tag_43\n      swap1\n      tag_44\n      jump\t// in\n    tag_43:\n      dup1\n      0x1f\n      add\n      0x20\n      dup1\n      swap2\n      div\n      mul\n      0x20\n      add\n      mload(0x40)\n      swap1\n      dup2\n      add\n      0x40\n      mstore\n      dup1\n      swap3\n      swap2\n      swap1\n      dup2\n      dup2\n      mstore\n      0x20\n      add\n      dup3\n      dup1\n      sload\n      tag_45\n      swap1\n      tag_44\n      jump\t// in\n    tag_45:\n      dup1\n      iszero\n      tag_46\n      jumpi\n      dup1\n      0x1f\n      lt\n      tag_47\n      jumpi\n      0x0100\n      dup1\n      dup4\n      sload\n      div\n      mul\n      dup4\n      mstore\n      swap2\n      0x20\n      add\n      swap2\n      jump(tag_46)\n    tag_47:\n      dup3\n      add\n      swap2\n      swap1\n      0x00\n      mstore\n      keccak256(0x00, 0x20)\n      swap1\n    tag_48:\n      dup2\n      sload\n      dup2\n      mstore\n      swap1\n      0x01\n      add\n      swap1\n      0x20\n      add\n      dup1\n      dup4\n      gt\n      tag_48\n      jumpi\n      dup3\n      swap1\n      sub\n      0x1f\n      and\n      dup3\n      add\n      swap2\n    tag_46:\n      pop\n      pop\n      pop\n      pop\n      pop\n      dup2\n      jump\t// out\n        /* \"@axelar-network/axelar-gmp-sdk-solidity/contracts/executable/AxelarExecutable.sol\":1598:2038  function execute(... */\n    tag_24:\n        /* \"@axelar-network/axelar-gmp-sdk-solidity/contracts/executable/AxelarExecutable.sol\":1783:1802  bytes32 payloadHash */\n      0x00\n        /* \"@axelar-network/axelar-gmp-sdk-solidity/contracts/executable/AxelarExecutable.sol\":1815:1822  payload */\n      dup3\n      dup3\n        /* \"@axelar-network/axelar-gmp-sdk-solidity/contracts/executable/AxelarExecutable.sol\":1805:1823  keccak256(payload) */\n      mload(0x40)\n      tag_50\n      swap3\n      swap2\n      swap1\n      tag_51\n      jump\t// in\n    tag_50:\n      mload(0x40)\n      dup1\n      swap2\n      sub\n      swap1\n      keccak256\n        /* \"@axelar-network/axelar-gmp-sdk-solidity/contracts/executable/AxelarExecutable.sol\":1783:1823  bytes32 payloadHash = keccak256(payload) */\n      swap1\n      pop\n        /* \"@axelar-network/axelar-gmp-sdk-solidity/contracts/executable/AxelarExecutable.sol\":1839:1848  gateway() */\n      tag_52\n        /* \"@axelar-network/axelar-gmp-sdk-solidity/contracts/executable/AxelarExecutable.sol\":1839:1846  gateway */\n      tag_12\n        /* \"@axelar-network/axelar-gmp-sdk-solidity/contracts/executable/AxelarExecutable.sol\":1839:1848  gateway() */\n      jump\t// in\n    tag_52:\n        /* \"@axelar-network/axelar-gmp-sdk-solidity/contracts/executable/AxelarExecutable.sol\":1839:1869  gateway().validateContractCall */\n      0xffffffffffffffffffffffffffffffffffffffff\n      and\n      0x5f6970c3\n        /* \"@axelar-network/axelar-gmp-sdk-solidity/contracts/executable/AxelarExecutable.sol\":1870:1879  commandId */\n      dup10\n        /* \"@axelar-network/axelar-gmp-sdk-solidity/contracts/executable/AxelarExecutable.sol\":1881:1892  sourceChain */\n      dup10\n      dup10\n        /* \"@axelar-network/axelar-gmp-sdk-solidity/contracts/executable/AxelarExecutable.sol\":1894:1907  sourceAddress */\n      dup10\n      dup10\n        /* \"@axelar-network/axelar-gmp-sdk-solidity/contracts/executable/AxelarExecutable.sol\":1909:1920  payloadHash */\n      dup8\n        /* \"@axelar-network/axelar-gmp-sdk-solidity/contracts/executable/AxelarExecutable.sol\":1839:1921  gateway().validateContractCall(commandId, sourceChain, sourceAddress, payloadHash) */\n      mload(0x40)\n      dup8\n      0xffffffff\n      and\n      0xe0\n      shl\n      dup2\n      mstore\n      0x04\n      add\n      tag_53\n      swap7\n      swap6\n      swap5\n      swap4\n      swap3\n      swap2\n      swap1\n      tag_54\n      jump\t// in\n    tag_53:\n      0x20\n      mload(0x40)\n      dup1\n      dup4\n      sub\n      dup2\n      0x00\n      dup8\n      gas\n      call\n      iszero\n      dup1\n      iszero\n      tag_56\n      jumpi\n      returndatasize\n      0x00\n      dup1\n      returndatacopy\n      revert(0x00, returndatasize)\n    tag_56:\n      pop\n      pop\n      pop\n      pop\n      mload(0x40)\n      returndatasize\n      not(0x1f)\n      0x1f\n      dup3\n      add\n      and\n      dup3\n      add\n      dup1\n      0x40\n      mstore\n      pop\n      dup2\n      add\n      swap1\n      tag_57\n      swap2\n      swap1\n      tag_58\n      jump\t// in\n    tag_57:\n        /* \"@axelar-network/axelar-gmp-sdk-solidity/contracts/executable/AxelarExecutable.sol\":1834:1964  if (!gateway().validateContractCall(commandId, sourceChain, sourceAddress, payloadHash))... */\n      tag_59\n      jumpi\n        /* \"@axelar-network/axelar-gmp-sdk-solidity/contracts/executable/AxelarExecutable.sol\":1942:1964  NotApprovedByGateway() */\n      mload(0x40)\n      0x500c44b400000000000000000000000000000000000000000000000000000000\n      dup2\n      mstore\n      0x04\n      add\n      mload(0x40)\n      dup1\n      swap2\n      sub\n      swap1\n      revert\n        /* \"@axelar-network/axelar-gmp-sdk-solidity/contracts/executable/AxelarExecutable.sol\":1834:1964  if (!gateway().validateContractCall(commandId, sourceChain, sourceAddress, payloadHash))... */\n    tag_59:\n        /* \"@axelar-network/axelar-gmp-sdk-solidity/contracts/executable/AxelarExecutable.sol\":1975:2031  _execute(commandId, sourceChain, sourceAddress, payload) */\n      tag_60\n        /* \"@axelar-network/axelar-gmp-sdk-solidity/contracts/executable/AxelarExecutable.sol\":1984:1993  commandId */\n      dup9\n        /* \"@axelar-network/axelar-gmp-sdk-solidity/contracts/executable/AxelarExecutable.sol\":1995:2006  sourceChain */\n      dup9\n      dup9\n        /* \"@axelar-network/axelar-gmp-sdk-solidity/contracts/executable/AxelarExecutable.sol\":2008:2021  sourceAddress */\n      dup9\n      dup9\n        /* \"@axelar-network/axelar-gmp-sdk-solidity/contracts/executable/AxelarExecutable.sol\":2023:2030  payload */\n      dup9\n      dup9\n        /* \"@axelar-network/axelar-gmp-sdk-solidity/contracts/executable/AxelarExecutable.sol\":1975:1983  _execute */\n      tag_61\n        /* \"@axelar-network/axelar-gmp-sdk-solidity/contracts/executable/AxelarExecutable.sol\":1975:2031  _execute(commandId, sourceChain, sourceAddress, payload) */\n      jump\t// in\n    tag_60:\n        /* \"@axelar-network/axelar-gmp-sdk-solidity/contracts/executable/AxelarExecutable.sol\":1773:2038  {... */\n      pop\n        /* \"@axelar-network/axelar-gmp-sdk-solidity/contracts/executable/AxelarExecutable.sol\":1598:2038  function execute(... */\n      pop\n      pop\n      pop\n      pop\n      pop\n      pop\n      pop\n      jump\t// out\n        /* \"contracts/05_Axelar_CallContract.sol\":697:742  IAxelarGasService public immutable gasService */\n    tag_27:\n      immutable(\"0x800e5167fcdf08619843f8e892e4ee5b0c228c18c17637b1d2ba8ec6b4153b4e\")\n      dup2\n      jump\t// out\n        /* \"contracts/05_Axelar_CallContract.sol\":1433:2011  function setRemoteValue(... */\n    tag_33:\n        /* \"contracts/05_Axelar_CallContract.sol\":1630:1631  0 */\n      0x00\n        /* \"contracts/05_Axelar_CallContract.sol\":1618:1627  msg.value */\n      callvalue\n        /* \"contracts/05_Axelar_CallContract.sol\":1618:1631  msg.value > 0 */\n      gt\n        /* \"contracts/05_Axelar_CallContract.sol\":1610:1659  require(msg.value > 0, 'Gas payment is required') */\n      tag_63\n      jumpi\n      mload(0x40)\n      0x08c379a000000000000000000000000000000000000000000000000000000000\n      dup2\n      mstore\n      0x04\n      add\n      tag_64\n      swap1\n      tag_65\n      jump\t// in\n    tag_64:\n      mload(0x40)\n      dup1\n      swap2\n      sub\n      swap1\n      revert\n    tag_63:\n        /* \"contracts/05_Axelar_CallContract.sol\":1670:1690  bytes memory payload */\n      0x00\n        /* \"contracts/05_Axelar_CallContract.sol\":1704:1712  _message */\n      dup3\n      dup3\n        /* \"contracts/05_Axelar_CallContract.sol\":1693:1713  abi.encode(_message) */\n      add(0x20, mload(0x40))\n      tag_66\n      swap3\n      swap2\n      swap1\n      tag_67\n      jump\t// in\n    tag_66:\n      mload(0x40)\n      0x20\n      dup2\n      dup4\n      sub\n      sub\n      dup2\n      mstore\n      swap1\n      0x40\n      mstore\n        /* \"contracts/05_Axelar_CallContract.sol\":1670:1713  bytes memory payload = abi.encode(_message) */\n      swap1\n      pop\n        /* \"contracts/05_Axelar_CallContract.sol\":1723:1733  gasService */\n      immutable(\"0x800e5167fcdf08619843f8e892e4ee5b0c228c18c17637b1d2ba8ec6b4153b4e\")\n        /* \"contracts/05_Axelar_CallContract.sol\":1723:1761  gasService.payNativeGasForContractCall */\n      0xffffffffffffffffffffffffffffffffffffffff\n      and\n      0x0c93e3bb\n        /* \"contracts/05_Axelar_CallContract.sol\":1770:1779  msg.value */\n      callvalue\n        /* \"contracts/05_Axelar_CallContract.sol\":1803:1807  this */\n      address\n        /* \"contracts/05_Axelar_CallContract.sol\":1822:1838  destinationChain */\n      dup11\n      dup11\n        /* \"contracts/05_Axelar_CallContract.sol\":1852:1870  destinationAddress */\n      dup11\n      dup11\n        /* \"contracts/05_Axelar_CallContract.sol\":1884:1891  payload */\n      dup9\n        /* \"contracts/05_Axelar_CallContract.sol\":1905:1915  msg.sender */\n      caller\n        /* \"contracts/05_Axelar_CallContract.sol\":1723:1925  gasService.payNativeGasForContractCall{ value: msg.value }(... */\n      mload(0x40)\n      dup10\n      0xffffffff\n      and\n      0xe0\n      shl\n      dup2\n      mstore\n      0x04\n      add\n      tag_68\n      swap8\n      swap7\n      swap6\n      swap5\n      swap4\n      swap3\n      swap2\n      swap1\n      tag_69\n      jump\t// in\n    tag_68:\n      0x00\n      mload(0x40)\n      dup1\n      dup4\n      sub\n      dup2\n      dup6\n      dup9\n      dup1\n      extcodesize\n      iszero\n      dup1\n      iszero\n      tag_70\n      jumpi\n      0x00\n      dup1\n      revert\n    tag_70:\n      pop\n      gas\n      call\n      iszero\n      dup1\n      iszero\n      tag_72\n      jumpi\n      returndatasize\n      0x00\n      dup1\n      returndatacopy\n      revert(0x00, returndatasize)\n    tag_72:\n      pop\n      pop\n      pop\n      pop\n      pop\n        /* \"contracts/05_Axelar_CallContract.sol\":1935:1944  gateway() */\n      tag_73\n        /* \"contracts/05_Axelar_CallContract.sol\":1935:1942  gateway */\n      tag_12\n        /* \"contracts/05_Axelar_CallContract.sol\":1935:1944  gateway() */\n      jump\t// in\n    tag_73:\n        /* \"contracts/05_Axelar_CallContract.sol\":1935:1957  gateway().callContract */\n      0xffffffffffffffffffffffffffffffffffffffff\n      and\n      0x1c92115f\n        /* \"contracts/05_Axelar_CallContract.sol\":1958:1974  destinationChain */\n      dup9\n      dup9\n        /* \"contracts/05_Axelar_CallContract.sol\":1976:1994  destinationAddress */\n      dup9\n      dup9\n        /* \"contracts/05_Axelar_CallContract.sol\":1996:2003  payload */\n      dup7\n        /* \"contracts/05_Axelar_CallContract.sol\":1935:2004  gateway().callContract(destinationChain, destinationAddress, payload) */\n      mload(0x40)\n      dup7\n      0xffffffff\n      and\n      0xe0\n      shl\n      dup2\n      mstore\n      0x04\n      add\n      tag_74\n      swap6\n      swap5\n      swap4\n      swap3\n      swap2\n      swap1\n      tag_75\n      jump\t// in\n    tag_74:\n      0x00\n      mload(0x40)\n      dup1\n      dup4\n      sub\n      dup2\n      0x00\n      dup8\n      dup1\n      extcodesize\n      iszero\n      dup1\n      iszero\n      tag_76\n      jumpi\n      0x00\n      dup1\n      revert\n    tag_76:\n      pop\n      gas\n      call\n      iszero\n      dup1\n      iszero\n      tag_78\n      jumpi\n      returndatasize\n      0x00\n      dup1\n      returndatacopy\n      revert(0x00, returndatasize)\n    tag_78:\n      pop\n      pop\n      pop\n      pop\n        /* \"contracts/05_Axelar_CallContract.sol\":1600:2011  {... */\n      pop\n        /* \"contracts/05_Axelar_CallContract.sol\":1433:2011  function setRemoteValue(... */\n      pop\n      pop\n      pop\n      pop\n      pop\n      pop\n      jump\t// out\n        /* \"contracts/05_Axelar_CallContract.sol\":664:691  string public sourceAddress */\n    tag_36:\n      0x02\n      dup1\n      sload\n      tag_79\n      swap1\n      tag_44\n      jump\t// in\n    tag_79:\n      dup1\n      0x1f\n      add\n      0x20\n      dup1\n      swap2\n      div\n      mul\n      0x20\n      add\n      mload(0x40)\n      swap1\n      dup2\n      add\n      0x40\n      mstore\n      dup1\n      swap3\n      swap2\n      swap1\n      dup2\n      dup2\n      mstore\n      0x20\n      add\n      dup3\n      dup1\n      sload\n      tag_80\n      swap1\n      tag_44\n      jump\t// in\n    tag_80:\n      dup1\n      iszero\n      tag_81\n      jumpi\n      dup1\n      0x1f\n      lt\n      tag_82\n      jumpi\n      0x0100\n      dup1\n      dup4\n      sload\n      div\n      mul\n      dup4\n      mstore\n      swap2\n      0x20\n      add\n      swap2\n      jump(tag_81)\n    tag_82:\n      dup3\n      add\n      swap2\n      swap1\n      0x00\n      mstore\n      keccak256(0x00, 0x20)\n      swap1\n    tag_83:\n      dup2\n      sload\n      dup2\n      mstore\n      swap1\n      0x01\n      add\n      swap1\n      0x20\n      add\n      dup1\n      dup4\n      gt\n      tag_83\n      jumpi\n      dup3\n      swap1\n      sub\n      0x1f\n      and\n      dup3\n      add\n      swap2\n    tag_81:\n      pop\n      pop\n      pop\n      pop\n      pop\n      dup2\n      jump\t// out\n        /* \"contracts/05_Axelar_CallContract.sol\":606:627  string public message */\n    tag_40:\n      0x00\n      dup1\n      sload\n      tag_84\n      swap1\n      tag_44\n      jump\t// in\n    tag_84:\n      dup1\n      0x1f\n      add\n      0x20\n      dup1\n      swap2\n      div\n      mul\n      0x20\n      add\n      mload(0x40)\n      swap1\n      dup2\n      add\n      0x40\n      mstore\n      dup1\n      swap3\n      swap2\n      swap1\n      dup2\n      dup2\n      mstore\n      0x20\n      add\n      dup3\n      dup1\n      sload\n      tag_85\n      swap1\n      tag_44\n      jump\t// in\n    tag_85:\n      dup1\n      iszero\n      tag_86\n      jumpi\n      dup1\n      0x1f\n      lt\n      tag_87\n      jumpi\n      0x0100\n      dup1\n      dup4\n      sload\n      div\n      mul\n      dup4\n      mstore\n      swap2\n      0x20\n      add\n      swap2\n      jump(tag_86)\n    tag_87:\n      dup3\n      add\n      swap2\n      swap1\n      0x00\n      mstore\n      keccak256(0x00, 0x20)\n      swap1\n    tag_88:\n      dup2\n      sload\n      dup2\n      mstore\n      swap1\n      0x01\n      add\n      swap1\n      0x20\n      add\n      dup1\n      dup4\n      gt\n      tag_88\n      jumpi\n      dup3\n      swap1\n      sub\n      0x1f\n      and\n      dup3\n      add\n      swap2\n    tag_86:\n      pop\n      pop\n      pop\n      pop\n      pop\n      dup2\n      jump\t// out\n        /* \"contracts/05_Axelar_CallContract.sol\":2347:2721  function _execute(... */\n    tag_61:\n        /* \"contracts/05_Axelar_CallContract.sol\":2560:2568  _payload */\n      dup2\n      dup2\n        /* \"contracts/05_Axelar_CallContract.sol\":2549:2579  abi.decode(_payload, (string)) */\n      dup2\n      add\n      swap1\n      tag_90\n      swap2\n      swap1\n      tag_91\n      jump\t// in\n    tag_90:\n        /* \"contracts/05_Axelar_CallContract.sol\":2538:2545  message */\n      0x00\n        /* \"contracts/05_Axelar_CallContract.sol\":2537:2579  (message) = abi.decode(_payload, (string)) */\n      swap1\n      dup2\n      tag_92\n      swap2\n      swap1\n      tag_93\n      jump\t// in\n    tag_92:\n      pop\n        /* \"contracts/05_Axelar_CallContract.sol\":2603:2615  _sourceChain */\n      dup6\n      dup6\n        /* \"contracts/05_Axelar_CallContract.sol\":2589:2600  sourceChain */\n      0x01\n        /* \"contracts/05_Axelar_CallContract.sol\":2589:2615  sourceChain = _sourceChain */\n      swap2\n      dup3\n      tag_94\n      swap3\n      swap2\n      swap1\n      tag_95\n      jump\t// in\n    tag_94:\n      pop\n        /* \"contracts/05_Axelar_CallContract.sol\":2641:2655  _sourceAddress */\n      dup4\n      dup4\n        /* \"contracts/05_Axelar_CallContract.sol\":2625:2638  sourceAddress */\n      0x02\n        /* \"contracts/05_Axelar_CallContract.sol\":2625:2655  sourceAddress = _sourceAddress */\n      swap2\n      dup3\n      tag_96\n      swap3\n      swap2\n      swap1\n      tag_95\n      jump\t// in\n    tag_96:\n      pop\n        /* \"contracts/05_Axelar_CallContract.sol\":2671:2714  Executed(commandId, sourceAddress, message) */\n      0xf2693fb07ee2135b1b5a6bcf8b3322050693da3a1e6ba260799a25612f142a9b\n        /* \"contracts/05_Axelar_CallContract.sol\":2680:2689  commandId */\n      dup8\n        /* \"contracts/05_Axelar_CallContract.sol\":2691:2704  sourceAddress */\n      0x02\n        /* \"contracts/05_Axelar_CallContract.sol\":2706:2713  message */\n      0x00\n        /* \"contracts/05_Axelar_CallContract.sol\":2671:2714  Executed(commandId, sourceAddress, message) */\n      mload(0x40)\n      tag_97\n      swap4\n      swap3\n      swap2\n      swap1\n      tag_98\n      jump\t// in\n    tag_97:\n      mload(0x40)\n      dup1\n      swap2\n      sub\n      swap1\n      log1\n        /* \"contracts/05_Axelar_CallContract.sol\":2347:2721  function _execute(... */\n      pop\n      pop\n      pop\n      pop\n      pop\n      pop\n      pop\n      jump\t// out\n        /* \"#utility.yul\":7:133   */\n    tag_99:\n        /* \"#utility.yul\":44:51   */\n      0x00\n        /* \"#utility.yul\":84:126   */\n      0xffffffffffffffffffffffffffffffffffffffff\n        /* \"#utility.yul\":77:82   */\n      dup3\n        /* \"#utility.yul\":73:127   */\n      and\n        /* \"#utility.yul\":62:127   */\n      swap1\n      pop\n        /* \"#utility.yul\":7:133   */\n      swap2\n      swap1\n      pop\n      jump\t// out\n        /* \"#utility.yul\":139:199   */\n    tag_100:\n        /* \"#utility.yul\":167:170   */\n      0x00\n        /* \"#utility.yul\":188:193   */\n      dup2\n        /* \"#utility.yul\":181:193   */\n      swap1\n      pop\n        /* \"#utility.yul\":139:199   */\n      swap2\n      swap1\n      pop\n      jump\t// out\n        /* \"#utility.yul\":205:347   */\n    tag_101:\n        /* \"#utility.yul\":255:264   */\n      0x00\n        /* \"#utility.yul\":288:341   */\n      tag_167\n        /* \"#utility.yul\":306:340   */\n      tag_168\n        /* \"#utility.yul\":315:339   */\n      tag_169\n        /* \"#utility.yul\":333:338   */\n      dup5\n        /* \"#utility.yul\":315:339   */\n      tag_99\n      jump\t// in\n    tag_169:\n        /* \"#utility.yul\":306:340   */\n      tag_100\n      jump\t// in\n    tag_168:\n        /* \"#utility.yul\":288:341   */\n      tag_99\n      jump\t// in\n    tag_167:\n        /* \"#utility.yul\":275:341   */\n      swap1\n      pop\n        /* \"#utility.yul\":205:347   */\n      swap2\n      swap1\n      pop\n      jump\t// out\n        /* \"#utility.yul\":353:479   */\n    tag_102:\n        /* \"#utility.yul\":403:412   */\n      0x00\n        /* \"#utility.yul\":436:473   */\n      tag_171\n        /* \"#utility.yul\":467:472   */\n      dup3\n        /* \"#utility.yul\":436:473   */\n      tag_101\n      jump\t// in\n    tag_171:\n        /* \"#utility.yul\":423:473   */\n      swap1\n      pop\n        /* \"#utility.yul\":353:479   */\n      swap2\n      swap1\n      pop\n      jump\t// out\n        /* \"#utility.yul\":485:633   */\n    tag_103:\n        /* \"#utility.yul\":557:566   */\n      0x00\n        /* \"#utility.yul\":590:627   */\n      tag_173\n        /* \"#utility.yul\":621:626   */\n      dup3\n        /* \"#utility.yul\":590:627   */\n      tag_102\n      jump\t// in\n    tag_173:\n        /* \"#utility.yul\":577:627   */\n      swap1\n      pop\n        /* \"#utility.yul\":485:633   */\n      swap2\n      swap1\n      pop\n      jump\t// out\n        /* \"#utility.yul\":639:814   */\n    tag_104:\n        /* \"#utility.yul\":748:807   */\n      tag_175\n        /* \"#utility.yul\":801:806   */\n      dup2\n        /* \"#utility.yul\":748:807   */\n      tag_103\n      jump\t// in\n    tag_175:\n        /* \"#utility.yul\":743:746   */\n      dup3\n        /* \"#utility.yul\":736:808   */\n      mstore\n        /* \"#utility.yul\":639:814   */\n      pop\n      pop\n      jump\t// out\n        /* \"#utility.yul\":820:1086   */\n    tag_14:\n        /* \"#utility.yul\":935:939   */\n      0x00\n        /* \"#utility.yul\":973:975   */\n      0x20\n        /* \"#utility.yul\":962:971   */\n      dup3\n        /* \"#utility.yul\":958:976   */\n      add\n        /* \"#utility.yul\":950:976   */\n      swap1\n      pop\n        /* \"#utility.yul\":986:1079   */\n      tag_177\n        /* \"#utility.yul\":1076:1077   */\n      0x00\n        /* \"#utility.yul\":1065:1074   */\n      dup4\n        /* \"#utility.yul\":1061:1078   */\n      add\n        /* \"#utility.yul\":1052:1058   */\n      dup5\n        /* \"#utility.yul\":986:1079   */\n      tag_104\n      jump\t// in\n    tag_177:\n        /* \"#utility.yul\":820:1086   */\n      swap3\n      swap2\n      pop\n      pop\n      jump\t// out\n        /* \"#utility.yul\":1092:1191   */\n    tag_105:\n        /* \"#utility.yul\":1144:1150   */\n      0x00\n        /* \"#utility.yul\":1178:1183   */\n      dup2\n        /* \"#utility.yul\":1172:1184   */\n      mload\n        /* \"#utility.yul\":1162:1184   */\n      swap1\n      pop\n        /* \"#utility.yul\":1092:1191   */\n      swap2\n      swap1\n      pop\n      jump\t// out\n        /* \"#utility.yul\":1197:1366   */\n    tag_106:\n        /* \"#utility.yul\":1281:1292   */\n      0x00\n        /* \"#utility.yul\":1315:1321   */\n      dup3\n        /* \"#utility.yul\":1310:1313   */\n      dup3\n        /* \"#utility.yul\":1303:1322   */\n      mstore\n        /* \"#utility.yul\":1355:1359   */\n      0x20\n        /* \"#utility.yul\":1350:1353   */\n      dup3\n        /* \"#utility.yul\":1346:1360   */\n      add\n        /* \"#utility.yul\":1331:1360   */\n      swap1\n      pop\n        /* \"#utility.yul\":1197:1366   */\n      swap3\n      swap2\n      pop\n      pop\n      jump\t// out\n        /* \"#utility.yul\":1372:1511   */\n    tag_107:\n        /* \"#utility.yul\":1461:1467   */\n      dup3\n        /* \"#utility.yul\":1456:1459   */\n      dup2\n        /* \"#utility.yul\":1451:1454   */\n      dup4\n        /* \"#utility.yul\":1445:1468   */\n      mcopy\n        /* \"#utility.yul\":1502:1503   */\n      0x00\n        /* \"#utility.yul\":1493:1499   */\n      dup4\n        /* \"#utility.yul\":1488:1491   */\n      dup4\n        /* \"#utility.yul\":1484:1500   */\n      add\n        /* \"#utility.yul\":1477:1504   */\n      mstore\n        /* \"#utility.yul\":1372:1511   */\n      pop\n      pop\n      pop\n      jump\t// out\n        /* \"#utility.yul\":1517:1619   */\n    tag_108:\n        /* \"#utility.yul\":1558:1564   */\n      0x00\n        /* \"#utility.yul\":1609:1611   */\n      0x1f\n        /* \"#utility.yul\":1605:1612   */\n      not\n        /* \"#utility.yul\":1600:1602   */\n      0x1f\n        /* \"#utility.yul\":1593:1598   */\n      dup4\n        /* \"#utility.yul\":1589:1603   */\n      add\n        /* \"#utility.yul\":1585:1613   */\n      and\n        /* \"#utility.yul\":1575:1613   */\n      swap1\n      pop\n        /* \"#utility.yul\":1517:1619   */\n      swap2\n      swap1\n      pop\n      jump\t// out\n        /* \"#utility.yul\":1625:2002   */\n    tag_109:\n        /* \"#utility.yul\":1713:1716   */\n      0x00\n        /* \"#utility.yul\":1741:1780   */\n      tag_183\n        /* \"#utility.yul\":1774:1779   */\n      dup3\n        /* \"#utility.yul\":1741:1780   */\n      tag_105\n      jump\t// in\n    tag_183:\n        /* \"#utility.yul\":1796:1867   */\n      tag_184\n        /* \"#utility.yul\":1860:1866   */\n      dup2\n        /* \"#utility.yul\":1855:1858   */\n      dup6\n        /* \"#utility.yul\":1796:1867   */\n      tag_106\n      jump\t// in\n    tag_184:\n        /* \"#utility.yul\":1789:1867   */\n      swap4\n      pop\n        /* \"#utility.yul\":1876:1941   */\n      tag_185\n        /* \"#utility.yul\":1934:1940   */\n      dup2\n        /* \"#utility.yul\":1929:1932   */\n      dup6\n        /* \"#utility.yul\":1922:1926   */\n      0x20\n        /* \"#utility.yul\":1915:1920   */\n      dup7\n        /* \"#utility.yul\":1911:1927   */\n      add\n        /* \"#utility.yul\":1876:1941   */\n      tag_107\n      jump\t// in\n    tag_185:\n        /* \"#utility.yul\":1966:1995   */\n      tag_186\n        /* \"#utility.yul\":1988:1994   */\n      dup2\n        /* \"#utility.yul\":1966:1995   */\n      tag_108\n      jump\t// in\n    tag_186:\n        /* \"#utility.yul\":1961:1964   */\n      dup5\n        /* \"#utility.yul\":1957:1996   */\n      add\n        /* \"#utility.yul\":1950:1996   */\n      swap2\n      pop\n        /* \"#utility.yul\":1717:2002   */\n      pop\n        /* \"#utility.yul\":1625:2002   */\n      swap3\n      swap2\n      pop\n      pop\n      jump\t// out\n        /* \"#utility.yul\":2008:2321   */\n    tag_19:\n        /* \"#utility.yul\":2121:2125   */\n      0x00\n        /* \"#utility.yul\":2159:2161   */\n      0x20\n        /* \"#utility.yul\":2148:2157   */\n      dup3\n        /* \"#utility.yul\":2144:2162   */\n      add\n        /* \"#utility.yul\":2136:2162   */\n      swap1\n      pop\n        /* \"#utility.yul\":2208:2217   */\n      dup2\n        /* \"#utility.yul\":2202:2206   */\n      dup2\n        /* \"#utility.yul\":2198:2218   */\n      sub\n        /* \"#utility.yul\":2194:2195   */\n      0x00\n        /* \"#utility.yul\":2183:2192   */\n      dup4\n        /* \"#utility.yul\":2179:2196   */\n      add\n        /* \"#utility.yul\":2172:2219   */\n      mstore\n        /* \"#utility.yul\":2236:2314   */\n      tag_188\n        /* \"#utility.yul\":2309:2313   */\n      dup2\n        /* \"#utility.yul\":2300:2306   */\n      dup5\n        /* \"#utility.yul\":2236:2314   */\n      tag_109\n      jump\t// in\n    tag_188:\n        /* \"#utility.yul\":2228:2314   */\n      swap1\n      pop\n        /* \"#utility.yul\":2008:2321   */\n      swap3\n      swap2\n      pop\n      pop\n      jump\t// out\n        /* \"#utility.yul\":2327:2402   */\n    tag_110:\n        /* \"#utility.yul\":2360:2366   */\n      0x00\n        /* \"#utility.yul\":2393:2395   */\n      0x40\n        /* \"#utility.yul\":2387:2396   */\n      mload\n        /* \"#utility.yul\":2377:2396   */\n      swap1\n      pop\n        /* \"#utility.yul\":2327:2402   */\n      swap1\n      jump\t// out\n        /* \"#utility.yul\":2408:2525   */\n    tag_111:\n        /* \"#utility.yul\":2517:2518   */\n      0x00\n        /* \"#utility.yul\":2514:2515   */\n      dup1\n        /* \"#utility.yul\":2507:2519   */\n      revert\n        /* \"#utility.yul\":2531:2648   */\n    tag_112:\n        /* \"#utility.yul\":2640:2641   */\n      0x00\n        /* \"#utility.yul\":2637:2638   */\n      dup1\n        /* \"#utility.yul\":2630:2642   */\n      revert\n        /* \"#utility.yul\":2654:2731   */\n    tag_113:\n        /* \"#utility.yul\":2691:2698   */\n      0x00\n        /* \"#utility.yul\":2720:2725   */\n      dup2\n        /* \"#utility.yul\":2709:2725   */\n      swap1\n      pop\n        /* \"#utility.yul\":2654:2731   */\n      swap2\n      swap1\n      pop\n      jump\t// out\n        /* \"#utility.yul\":2737:2859   */\n    tag_114:\n        /* \"#utility.yul\":2810:2834   */\n      tag_194\n        /* \"#utility.yul\":2828:2833   */\n      dup2\n        /* \"#utility.yul\":2810:2834   */\n      tag_113\n      jump\t// in\n    tag_194:\n        /* \"#utility.yul\":2803:2808   */\n      dup2\n        /* \"#utility.yul\":2800:2835   */\n      eq\n        /* \"#utility.yul\":2790:2853   */\n      tag_195\n      jumpi\n        /* \"#utility.yul\":2849:2850   */\n      0x00\n        /* \"#utility.yul\":2846:2847   */\n      dup1\n        /* \"#utility.yul\":2839:2851   */\n      revert\n        /* \"#utility.yul\":2790:2853   */\n    tag_195:\n        /* \"#utility.yul\":2737:2859   */\n      pop\n      jump\t// out\n        /* \"#utility.yul\":2865:3004   */\n    tag_115:\n        /* \"#utility.yul\":2911:2916   */\n      0x00\n        /* \"#utility.yul\":2949:2955   */\n      dup2\n        /* \"#utility.yul\":2936:2956   */\n      calldataload\n        /* \"#utility.yul\":2927:2956   */\n      swap1\n      pop\n        /* \"#utility.yul\":2965:2998   */\n      tag_197\n        /* \"#utility.yul\":2992:2997   */\n      dup2\n        /* \"#utility.yul\":2965:2998   */\n      tag_114\n      jump\t// in\n    tag_197:\n        /* \"#utility.yul\":2865:3004   */\n      swap3\n      swap2\n      pop\n      pop\n      jump\t// out\n        /* \"#utility.yul\":3010:3127   */\n    tag_116:\n        /* \"#utility.yul\":3119:3120   */\n      0x00\n        /* \"#utility.yul\":3116:3117   */\n      dup1\n        /* \"#utility.yul\":3109:3121   */\n      revert\n        /* \"#utility.yul\":3133:3250   */\n    tag_117:\n        /* \"#utility.yul\":3242:3243   */\n      0x00\n        /* \"#utility.yul\":3239:3240   */\n      dup1\n        /* \"#utility.yul\":3232:3244   */\n      revert\n        /* \"#utility.yul\":3256:3373   */\n    tag_118:\n        /* \"#utility.yul\":3365:3366   */\n      0x00\n        /* \"#utility.yul\":3362:3363   */\n      dup1\n        /* \"#utility.yul\":3355:3367   */\n      revert\n        /* \"#utility.yul\":3393:3946   */\n    tag_119:\n        /* \"#utility.yul\":3451:3459   */\n      0x00\n        /* \"#utility.yul\":3461:3467   */\n      dup1\n        /* \"#utility.yul\":3511:3514   */\n      dup4\n        /* \"#utility.yul\":3504:3508   */\n      0x1f\n        /* \"#utility.yul\":3496:3502   */\n      dup5\n        /* \"#utility.yul\":3492:3509   */\n      add\n        /* \"#utility.yul\":3488:3515   */\n      slt\n        /* \"#utility.yul\":3478:3600   */\n      tag_202\n      jumpi\n        /* \"#utility.yul\":3519:3598   */\n      tag_203\n      tag_116\n      jump\t// in\n    tag_203:\n        /* \"#utility.yul\":3478:3600   */\n    tag_202:\n        /* \"#utility.yul\":3632:3638   */\n      dup3\n        /* \"#utility.yul\":3619:3639   */\n      calldataload\n        /* \"#utility.yul\":3609:3639   */\n      swap1\n      pop\n        /* \"#utility.yul\":3662:3680   */\n      0xffffffffffffffff\n        /* \"#utility.yul\":3654:3660   */\n      dup2\n        /* \"#utility.yul\":3651:3681   */\n      gt\n        /* \"#utility.yul\":3648:3765   */\n      iszero\n      tag_204\n      jumpi\n        /* \"#utility.yul\":3684:3763   */\n      tag_205\n      tag_117\n      jump\t// in\n    tag_205:\n        /* \"#utility.yul\":3648:3765   */\n    tag_204:\n        /* \"#utility.yul\":3798:3802   */\n      0x20\n        /* \"#utility.yul\":3790:3796   */\n      dup4\n        /* \"#utility.yul\":3786:3803   */\n      add\n        /* \"#utility.yul\":3774:3803   */\n      swap2\n      pop\n        /* \"#utility.yul\":3852:3855   */\n      dup4\n        /* \"#utility.yul\":3844:3848   */\n      0x01\n        /* \"#utility.yul\":3836:3842   */\n      dup3\n        /* \"#utility.yul\":3832:3849   */\n      mul\n        /* \"#utility.yul\":3822:3830   */\n      dup4\n        /* \"#utility.yul\":3818:3850   */\n      add\n        /* \"#utility.yul\":3815:3856   */\n      gt\n        /* \"#utility.yul\":3812:3940   */\n      iszero\n      tag_206\n      jumpi\n        /* \"#utility.yul\":3859:3938   */\n      tag_207\n      tag_118\n      jump\t// in\n    tag_207:\n        /* \"#utility.yul\":3812:3940   */\n    tag_206:\n        /* \"#utility.yul\":3393:3946   */\n      swap3\n      pop\n      swap3\n      swap1\n      pop\n      jump\t// out\n        /* \"#utility.yul\":3965:4517   */\n    tag_120:\n        /* \"#utility.yul\":4022:4030   */\n      0x00\n        /* \"#utility.yul\":4032:4038   */\n      dup1\n        /* \"#utility.yul\":4082:4085   */\n      dup4\n        /* \"#utility.yul\":4075:4079   */\n      0x1f\n        /* \"#utility.yul\":4067:4073   */\n      dup5\n        /* \"#utility.yul\":4063:4080   */\n      add\n        /* \"#utility.yul\":4059:4086   */\n      slt\n        /* \"#utility.yul\":4049:4171   */\n      tag_209\n      jumpi\n        /* \"#utility.yul\":4090:4169   */\n      tag_210\n      tag_116\n      jump\t// in\n    tag_210:\n        /* \"#utility.yul\":4049:4171   */\n    tag_209:\n        /* \"#utility.yul\":4203:4209   */\n      dup3\n        /* \"#utility.yul\":4190:4210   */\n      calldataload\n        /* \"#utility.yul\":4180:4210   */\n      swap1\n      pop\n        /* \"#utility.yul\":4233:4251   */\n      0xffffffffffffffff\n        /* \"#utility.yul\":4225:4231   */\n      dup2\n        /* \"#utility.yul\":4222:4252   */\n      gt\n        /* \"#utility.yul\":4219:4336   */\n      iszero\n      tag_211\n      jumpi\n        /* \"#utility.yul\":4255:4334   */\n      tag_212\n      tag_117\n      jump\t// in\n    tag_212:\n        /* \"#utility.yul\":4219:4336   */\n    tag_211:\n        /* \"#utility.yul\":4369:4373   */\n      0x20\n        /* \"#utility.yul\":4361:4367   */\n      dup4\n        /* \"#utility.yul\":4357:4374   */\n      add\n        /* \"#utility.yul\":4345:4374   */\n      swap2\n      pop\n        /* \"#utility.yul\":4423:4426   */\n      dup4\n        /* \"#utility.yul\":4415:4419   */\n      0x01\n        /* \"#utility.yul\":4407:4413   */\n      dup3\n        /* \"#utility.yul\":4403:4420   */\n      mul\n        /* \"#utility.yul\":4393:4401   */\n      dup4\n        /* \"#utility.yul\":4389:4421   */\n      add\n        /* \"#utility.yul\":4386:4427   */\n      gt\n        /* \"#utility.yul\":4383:4511   */\n      iszero\n      tag_213\n      jumpi\n        /* \"#utility.yul\":4430:4509   */\n      tag_214\n      tag_118\n      jump\t// in\n    tag_214:\n        /* \"#utility.yul\":4383:4511   */\n    tag_213:\n        /* \"#utility.yul\":3965:4517   */\n      swap3\n      pop\n      swap3\n      swap1\n      pop\n      jump\t// out\n        /* \"#utility.yul\":4523:5886   */\n    tag_23:\n        /* \"#utility.yul\":4644:4650   */\n      0x00\n        /* \"#utility.yul\":4652:4658   */\n      dup1\n        /* \"#utility.yul\":4660:4666   */\n      0x00\n        /* \"#utility.yul\":4668:4674   */\n      dup1\n        /* \"#utility.yul\":4676:4682   */\n      0x00\n        /* \"#utility.yul\":4684:4690   */\n      dup1\n        /* \"#utility.yul\":4692:4698   */\n      0x00\n        /* \"#utility.yul\":4741:4744   */\n      0x80\n        /* \"#utility.yul\":4729:4738   */\n      dup9\n        /* \"#utility.yul\":4720:4727   */\n      dup11\n        /* \"#utility.yul\":4716:4739   */\n      sub\n        /* \"#utility.yul\":4712:4745   */\n      slt\n        /* \"#utility.yul\":4709:4829   */\n      iszero\n      tag_216\n      jumpi\n        /* \"#utility.yul\":4748:4827   */\n      tag_217\n      tag_111\n      jump\t// in\n    tag_217:\n        /* \"#utility.yul\":4709:4829   */\n    tag_216:\n        /* \"#utility.yul\":4868:4869   */\n      0x00\n        /* \"#utility.yul\":4893:4946   */\n      tag_218\n        /* \"#utility.yul\":4938:4945   */\n      dup11\n        /* \"#utility.yul\":4929:4935   */\n      dup3\n        /* \"#utility.yul\":4918:4927   */\n      dup12\n        /* \"#utility.yul\":4914:4936   */\n      add\n        /* \"#utility.yul\":4893:4946   */\n      tag_115\n      jump\t// in\n    tag_218:\n        /* \"#utility.yul\":4883:4946   */\n      swap8\n      pop\n        /* \"#utility.yul\":4839:4956   */\n      pop\n        /* \"#utility.yul\":5023:5025   */\n      0x20\n        /* \"#utility.yul\":5012:5021   */\n      dup9\n        /* \"#utility.yul\":5008:5026   */\n      add\n        /* \"#utility.yul\":4995:5027   */\n      calldataload\n        /* \"#utility.yul\":5054:5072   */\n      0xffffffffffffffff\n        /* \"#utility.yul\":5046:5052   */\n      dup2\n        /* \"#utility.yul\":5043:5073   */\n      gt\n        /* \"#utility.yul\":5040:5157   */\n      iszero\n      tag_219\n      jumpi\n        /* \"#utility.yul\":5076:5155   */\n      tag_220\n      tag_112\n      jump\t// in\n    tag_220:\n        /* \"#utility.yul\":5040:5157   */\n    tag_219:\n        /* \"#utility.yul\":5189:5254   */\n      tag_221\n        /* \"#utility.yul\":5246:5253   */\n      dup11\n        /* \"#utility.yul\":5237:5243   */\n      dup3\n        /* \"#utility.yul\":5226:5235   */\n      dup12\n        /* \"#utility.yul\":5222:5244   */\n      add\n        /* \"#utility.yul\":5189:5254   */\n      tag_119\n      jump\t// in\n    tag_221:\n        /* \"#utility.yul\":5171:5254   */\n      swap7\n      pop\n      swap7\n      pop\n        /* \"#utility.yul\":4966:5264   */\n      pop\n        /* \"#utility.yul\":5331:5333   */\n      0x40\n        /* \"#utility.yul\":5320:5329   */\n      dup9\n        /* \"#utility.yul\":5316:5334   */\n      add\n        /* \"#utility.yul\":5303:5335   */\n      calldataload\n        /* \"#utility.yul\":5362:5380   */\n      0xffffffffffffffff\n        /* \"#utility.yul\":5354:5360   */\n      dup2\n        /* \"#utility.yul\":5351:5381   */\n      gt\n        /* \"#utility.yul\":5348:5465   */\n      iszero\n      tag_222\n      jumpi\n        /* \"#utility.yul\":5384:5463   */\n      tag_223\n      tag_112\n      jump\t// in\n    tag_223:\n        /* \"#utility.yul\":5348:5465   */\n    tag_222:\n        /* \"#utility.yul\":5497:5562   */\n      tag_224\n        /* \"#utility.yul\":5554:5561   */\n      dup11\n        /* \"#utility.yul\":5545:5551   */\n      dup3\n        /* \"#utility.yul\":5534:5543   */\n      dup12\n        /* \"#utility.yul\":5530:5552   */\n      add\n        /* \"#utility.yul\":5497:5562   */\n      tag_119\n      jump\t// in\n    tag_224:\n        /* \"#utility.yul\":5479:5562   */\n      swap5\n      pop\n      swap5\n      pop\n        /* \"#utility.yul\":5274:5572   */\n      pop\n        /* \"#utility.yul\":5639:5641   */\n      0x60\n        /* \"#utility.yul\":5628:5637   */\n      dup9\n        /* \"#utility.yul\":5624:5642   */\n      add\n        /* \"#utility.yul\":5611:5643   */\n      calldataload\n        /* \"#utility.yul\":5670:5688   */\n      0xffffffffffffffff\n        /* \"#utility.yul\":5662:5668   */\n      dup2\n        /* \"#utility.yul\":5659:5689   */\n      gt\n        /* \"#utility.yul\":5656:5773   */\n      iszero\n      tag_225\n      jumpi\n        /* \"#utility.yul\":5692:5771   */\n      tag_226\n      tag_112\n      jump\t// in\n    tag_226:\n        /* \"#utility.yul\":5656:5773   */\n    tag_225:\n        /* \"#utility.yul\":5805:5869   */\n      tag_227\n        /* \"#utility.yul\":5861:5868   */\n      dup11\n        /* \"#utility.yul\":5852:5858   */\n      dup3\n        /* \"#utility.yul\":5841:5850   */\n      dup12\n        /* \"#utility.yul\":5837:5859   */\n      add\n        /* \"#utility.yul\":5805:5869   */\n      tag_120\n      jump\t// in\n    tag_227:\n        /* \"#utility.yul\":5787:5869   */\n      swap3\n      pop\n      swap3\n      pop\n        /* \"#utility.yul\":5582:5879   */\n      pop\n        /* \"#utility.yul\":4523:5886   */\n      swap3\n      swap6\n      swap9\n      swap2\n      swap5\n      swap8\n      pop\n      swap3\n      swap6\n      pop\n      jump\t// out\n        /* \"#utility.yul\":5892:6043   */\n    tag_121:\n        /* \"#utility.yul\":5967:5976   */\n      0x00\n        /* \"#utility.yul\":6000:6037   */\n      tag_229\n        /* \"#utility.yul\":6031:6036   */\n      dup3\n        /* \"#utility.yul\":6000:6037   */\n      tag_102\n      jump\t// in\n    tag_229:\n        /* \"#utility.yul\":5987:6037   */\n      swap1\n      pop\n        /* \"#utility.yul\":5892:6043   */\n      swap2\n      swap1\n      pop\n      jump\t// out\n        /* \"#utility.yul\":6049:6230   */\n    tag_122:\n        /* \"#utility.yul\":6161:6223   */\n      tag_231\n        /* \"#utility.yul\":6217:6222   */\n      dup2\n        /* \"#utility.yul\":6161:6223   */\n      tag_121\n      jump\t// in\n    tag_231:\n        /* \"#utility.yul\":6156:6159   */\n      dup3\n        /* \"#utility.yul\":6149:6224   */\n      mstore\n        /* \"#utility.yul\":6049:6230   */\n      pop\n      pop\n      jump\t// out\n        /* \"#utility.yul\":6236:6508   */\n    tag_29:\n        /* \"#utility.yul\":6354:6358   */\n      0x00\n        /* \"#utility.yul\":6392:6394   */\n      0x20\n        /* \"#utility.yul\":6381:6390   */\n      dup3\n        /* \"#utility.yul\":6377:6395   */\n      add\n        /* \"#utility.yul\":6369:6395   */\n      swap1\n      pop\n        /* \"#utility.yul\":6405:6501   */\n      tag_233\n        /* \"#utility.yul\":6498:6499   */\n      0x00\n        /* \"#utility.yul\":6487:6496   */\n      dup4\n        /* \"#utility.yul\":6483:6500   */\n      add\n        /* \"#utility.yul\":6474:6480   */\n      dup5\n        /* \"#utility.yul\":6405:6501   */\n      tag_122\n      jump\t// in\n    tag_233:\n        /* \"#utility.yul\":6236:6508   */\n      swap3\n      swap2\n      pop\n      pop\n      jump\t// out\n        /* \"#utility.yul\":6514:7733   */\n    tag_32:\n        /* \"#utility.yul\":6627:6633   */\n      0x00\n        /* \"#utility.yul\":6635:6641   */\n      dup1\n        /* \"#utility.yul\":6643:6649   */\n      0x00\n        /* \"#utility.yul\":6651:6657   */\n      dup1\n        /* \"#utility.yul\":6659:6665   */\n      0x00\n        /* \"#utility.yul\":6667:6673   */\n      dup1\n        /* \"#utility.yul\":6716:6718   */\n      0x60\n        /* \"#utility.yul\":6704:6713   */\n      dup8\n        /* \"#utility.yul\":6695:6702   */\n      dup10\n        /* \"#utility.yul\":6691:6714   */\n      sub\n        /* \"#utility.yul\":6687:6719   */\n      slt\n        /* \"#utility.yul\":6684:6803   */\n      iszero\n      tag_235\n      jumpi\n        /* \"#utility.yul\":6722:6801   */\n      tag_236\n      tag_111\n      jump\t// in\n    tag_236:\n        /* \"#utility.yul\":6684:6803   */\n    tag_235:\n        /* \"#utility.yul\":6870:6871   */\n      0x00\n        /* \"#utility.yul\":6859:6868   */\n      dup8\n        /* \"#utility.yul\":6855:6872   */\n      add\n        /* \"#utility.yul\":6842:6873   */\n      calldataload\n        /* \"#utility.yul\":6900:6918   */\n      0xffffffffffffffff\n        /* \"#utility.yul\":6892:6898   */\n      dup2\n        /* \"#utility.yul\":6889:6919   */\n      gt\n        /* \"#utility.yul\":6886:7003   */\n      iszero\n      tag_237\n      jumpi\n        /* \"#utility.yul\":6922:7001   */\n      tag_238\n      tag_112\n      jump\t// in\n    tag_238:\n        /* \"#utility.yul\":6886:7003   */\n    tag_237:\n        /* \"#utility.yul\":7035:7100   */\n      tag_239\n        /* \"#utility.yul\":7092:7099   */\n      dup10\n        /* \"#utility.yul\":7083:7089   */\n      dup3\n        /* \"#utility.yul\":7072:7081   */\n      dup11\n        /* \"#utility.yul\":7068:7090   */\n      add\n        /* \"#utility.yul\":7035:7100   */\n      tag_119\n      jump\t// in\n    tag_239:\n        /* \"#utility.yul\":7017:7100   */\n      swap7\n      pop\n      swap7\n      pop\n        /* \"#utility.yul\":6813:7110   */\n      pop\n        /* \"#utility.yul\":7177:7179   */\n      0x20\n        /* \"#utility.yul\":7166:7175   */\n      dup8\n        /* \"#utility.yul\":7162:7180   */\n      add\n        /* \"#utility.yul\":7149:7181   */\n      calldataload\n        /* \"#utility.yul\":7208:7226   */\n      0xffffffffffffffff\n        /* \"#utility.yul\":7200:7206   */\n      dup2\n        /* \"#utility.yul\":7197:7227   */\n      gt\n        /* \"#utility.yul\":7194:7311   */\n      iszero\n      tag_240\n      jumpi\n        /* \"#utility.yul\":7230:7309   */\n      tag_241\n      tag_112\n      jump\t// in\n    tag_241:\n        /* \"#utility.yul\":7194:7311   */\n    tag_240:\n        /* \"#utility.yul\":7343:7408   */\n      tag_242\n        /* \"#utility.yul\":7400:7407   */\n      dup10\n        /* \"#utility.yul\":7391:7397   */\n      dup3\n        /* \"#utility.yul\":7380:7389   */\n      dup11\n        /* \"#utility.yul\":7376:7398   */\n      add\n        /* \"#utility.yul\":7343:7408   */\n      tag_119\n      jump\t// in\n    tag_242:\n        /* \"#utility.yul\":7325:7408   */\n      swap5\n      pop\n      swap5\n      pop\n        /* \"#utility.yul\":7120:7418   */\n      pop\n        /* \"#utility.yul\":7485:7487   */\n      0x40\n        /* \"#utility.yul\":7474:7483   */\n      dup8\n        /* \"#utility.yul\":7470:7488   */\n      add\n        /* \"#utility.yul\":7457:7489   */\n      calldataload\n        /* \"#utility.yul\":7516:7534   */\n      0xffffffffffffffff\n        /* \"#utility.yul\":7508:7514   */\n      dup2\n        /* \"#utility.yul\":7505:7535   */\n      gt\n        /* \"#utility.yul\":7502:7619   */\n      iszero\n      tag_243\n      jumpi\n        /* \"#utility.yul\":7538:7617   */\n      tag_244\n      tag_112\n      jump\t// in\n    tag_244:\n        /* \"#utility.yul\":7502:7619   */\n    tag_243:\n        /* \"#utility.yul\":7651:7716   */\n      tag_245\n        /* \"#utility.yul\":7708:7715   */\n      dup10\n        /* \"#utility.yul\":7699:7705   */\n      dup3\n        /* \"#utility.yul\":7688:7697   */\n      dup11\n        /* \"#utility.yul\":7684:7706   */\n      add\n        /* \"#utility.yul\":7651:7716   */\n      tag_119\n      jump\t// in\n    tag_245:\n        /* \"#utility.yul\":7633:7716   */\n      swap3\n      pop\n      swap3\n      pop\n        /* \"#utility.yul\":7428:7726   */\n      pop\n        /* \"#utility.yul\":6514:7733   */\n      swap3\n      swap6\n      pop\n      swap3\n      swap6\n      pop\n      swap3\n      swap6\n      jump\t// out\n        /* \"#utility.yul\":7739:7919   */\n    tag_123:\n        /* \"#utility.yul\":7787:7864   */\n      0x4e487b7100000000000000000000000000000000000000000000000000000000\n        /* \"#utility.yul\":7784:7785   */\n      0x00\n        /* \"#utility.yul\":7777:7865   */\n      mstore\n        /* \"#utility.yul\":7884:7888   */\n      0x22\n        /* \"#utility.yul\":7881:7882   */\n      0x04\n        /* \"#utility.yul\":7874:7889   */\n      mstore\n        /* \"#utility.yul\":7908:7912   */\n      0x24\n        /* \"#utility.yul\":7905:7906   */\n      0x00\n        /* \"#utility.yul\":7898:7913   */\n      revert\n        /* \"#utility.yul\":7925:8245   */\n    tag_44:\n        /* \"#utility.yul\":7969:7975   */\n      0x00\n        /* \"#utility.yul\":8006:8007   */\n      0x02\n        /* \"#utility.yul\":8000:8004   */\n      dup3\n        /* \"#utility.yul\":7996:8008   */\n      div\n        /* \"#utility.yul\":7986:8008   */\n      swap1\n      pop\n        /* \"#utility.yul\":8053:8054   */\n      0x01\n        /* \"#utility.yul\":8047:8051   */\n      dup3\n        /* \"#utility.yul\":8043:8055   */\n      and\n        /* \"#utility.yul\":8074:8092   */\n      dup1\n        /* \"#utility.yul\":8064:8145   */\n      tag_248\n      jumpi\n        /* \"#utility.yul\":8130:8134   */\n      0x7f\n        /* \"#utility.yul\":8122:8128   */\n      dup3\n        /* \"#utility.yul\":8118:8135   */\n      and\n        /* \"#utility.yul\":8108:8135   */\n      swap2\n      pop\n        /* \"#utility.yul\":8064:8145   */\n    tag_248:\n        /* \"#utility.yul\":8192:8194   */\n      0x20\n        /* \"#utility.yul\":8184:8190   */\n      dup3\n        /* \"#utility.yul\":8181:8195   */\n      lt\n        /* \"#utility.yul\":8161:8179   */\n      dup2\n        /* \"#utility.yul\":8158:8196   */\n      sub\n        /* \"#utility.yul\":8155:8239   */\n      tag_249\n      jumpi\n        /* \"#utility.yul\":8211:8229   */\n      tag_250\n      tag_123\n      jump\t// in\n    tag_250:\n        /* \"#utility.yul\":8155:8239   */\n    tag_249:\n        /* \"#utility.yul\":7976:8245   */\n      pop\n        /* \"#utility.yul\":7925:8245   */\n      swap2\n      swap1\n      pop\n      jump\t// out\n        /* \"#utility.yul\":8251:8398   */\n    tag_124:\n        /* \"#utility.yul\":8352:8363   */\n      0x00\n        /* \"#utility.yul\":8389:8392   */\n      dup2\n        /* \"#utility.yul\":8374:8392   */\n      swap1\n      pop\n        /* \"#utility.yul\":8251:8398   */\n      swap3\n      swap2\n      pop\n      pop\n      jump\t// out\n        /* \"#utility.yul\":8404:8552   */\n    tag_125:\n        /* \"#utility.yul\":8502:8508   */\n      dup3\n        /* \"#utility.yul\":8497:8500   */\n      dup2\n        /* \"#utility.yul\":8492:8495   */\n      dup4\n        /* \"#utility.yul\":8479:8509   */\n      calldatacopy\n        /* \"#utility.yul\":8543:8544   */\n      0x00\n        /* \"#utility.yul\":8534:8540   */\n      dup4\n        /* \"#utility.yul\":8529:8532   */\n      dup4\n        /* \"#utility.yul\":8525:8541   */\n      add\n        /* \"#utility.yul\":8518:8545   */\n      mstore\n        /* \"#utility.yul\":8404:8552   */\n      pop\n      pop\n      pop\n      jump\t// out\n        /* \"#utility.yul\":8580:8907   */\n    tag_126:\n        /* \"#utility.yul\":8694:8697   */\n      0x00\n        /* \"#utility.yul\":8715:8803   */\n      tag_254\n        /* \"#utility.yul\":8796:8802   */\n      dup4\n        /* \"#utility.yul\":8791:8794   */\n      dup6\n        /* \"#utility.yul\":8715:8803   */\n      tag_124\n      jump\t// in\n    tag_254:\n        /* \"#utility.yul\":8708:8803   */\n      swap4\n      pop\n        /* \"#utility.yul\":8813:8869   */\n      tag_255\n        /* \"#utility.yul\":8862:8868   */\n      dup4\n        /* \"#utility.yul\":8857:8860   */\n      dup6\n        /* \"#utility.yul\":8850:8855   */\n      dup5\n        /* \"#utility.yul\":8813:8869   */\n      tag_125\n      jump\t// in\n    tag_255:\n        /* \"#utility.yul\":8894:8900   */\n      dup3\n        /* \"#utility.yul\":8889:8892   */\n      dup5\n        /* \"#utility.yul\":8885:8901   */\n      add\n        /* \"#utility.yul\":8878:8901   */\n      swap1\n      pop\n        /* \"#utility.yul\":8580:8907   */\n      swap4\n      swap3\n      pop\n      pop\n      pop\n      jump\t// out\n        /* \"#utility.yul\":8913:9204   */\n    tag_51:\n        /* \"#utility.yul\":9053:9056   */\n      0x00\n        /* \"#utility.yul\":9075:9178   */\n      tag_257\n        /* \"#utility.yul\":9174:9177   */\n      dup3\n        /* \"#utility.yul\":9165:9171   */\n      dup5\n        /* \"#utility.yul\":9157:9163   */\n      dup7\n        /* \"#utility.yul\":9075:9178   */\n      tag_126\n      jump\t// in\n    tag_257:\n        /* \"#utility.yul\":9068:9178   */\n      swap2\n      pop\n        /* \"#utility.yul\":9195:9198   */\n      dup2\n        /* \"#utility.yul\":9188:9198   */\n      swap1\n      pop\n        /* \"#utility.yul\":8913:9204   */\n      swap4\n      swap3\n      pop\n      pop\n      pop\n      jump\t// out\n        /* \"#utility.yul\":9210:9328   */\n    tag_127:\n        /* \"#utility.yul\":9297:9321   */\n      tag_259\n        /* \"#utility.yul\":9315:9320   */\n      dup2\n        /* \"#utility.yul\":9297:9321   */\n      tag_113\n      jump\t// in\n    tag_259:\n        /* \"#utility.yul\":9292:9295   */\n      dup3\n        /* \"#utility.yul\":9285:9322   */\n      mstore\n        /* \"#utility.yul\":9210:9328   */\n      pop\n      pop\n      jump\t// out\n        /* \"#utility.yul\":9358:9675   */\n    tag_128:\n        /* \"#utility.yul\":9456:9459   */\n      0x00\n        /* \"#utility.yul\":9477:9548   */\n      tag_261\n        /* \"#utility.yul\":9541:9547   */\n      dup4\n        /* \"#utility.yul\":9536:9539   */\n      dup6\n        /* \"#utility.yul\":9477:9548   */\n      tag_106\n      jump\t// in\n    tag_261:\n        /* \"#utility.yul\":9470:9548   */\n      swap4\n      pop\n        /* \"#utility.yul\":9558:9614   */\n      tag_262\n        /* \"#utility.yul\":9607:9613   */\n      dup4\n        /* \"#utility.yul\":9602:9605   */\n      dup6\n        /* \"#utility.yul\":9595:9600   */\n      dup5\n        /* \"#utility.yul\":9558:9614   */\n      tag_125\n      jump\t// in\n    tag_262:\n        /* \"#utility.yul\":9639:9668   */\n      tag_263\n        /* \"#utility.yul\":9661:9667   */\n      dup4\n        /* \"#utility.yul\":9639:9668   */\n      tag_108\n      jump\t// in\n    tag_263:\n        /* \"#utility.yul\":9634:9637   */\n      dup5\n        /* \"#utility.yul\":9630:9669   */\n      add\n        /* \"#utility.yul\":9623:9669   */\n      swap1\n      pop\n        /* \"#utility.yul\":9358:9675   */\n      swap4\n      swap3\n      pop\n      pop\n      pop\n      jump\t// out\n        /* \"#utility.yul\":9681:10456   */\n    tag_54:\n        /* \"#utility.yul\":9918:9922   */\n      0x00\n        /* \"#utility.yul\":9956:9959   */\n      0x80\n        /* \"#utility.yul\":9945:9954   */\n      dup3\n        /* \"#utility.yul\":9941:9960   */\n      add\n        /* \"#utility.yul\":9933:9960   */\n      swap1\n      pop\n        /* \"#utility.yul\":9970:10041   */\n      tag_265\n        /* \"#utility.yul\":10038:10039   */\n      0x00\n        /* \"#utility.yul\":10027:10036   */\n      dup4\n        /* \"#utility.yul\":10023:10040   */\n      add\n        /* \"#utility.yul\":10014:10020   */\n      dup10\n        /* \"#utility.yul\":9970:10041   */\n      tag_127\n      jump\t// in\n    tag_265:\n        /* \"#utility.yul\":10088:10097   */\n      dup2\n        /* \"#utility.yul\":10082:10086   */\n      dup2\n        /* \"#utility.yul\":10078:10098   */\n      sub\n        /* \"#utility.yul\":10073:10075   */\n      0x20\n        /* \"#utility.yul\":10062:10071   */\n      dup4\n        /* \"#utility.yul\":10058:10076   */\n      add\n        /* \"#utility.yul\":10051:10099   */\n      mstore\n        /* \"#utility.yul\":10116:10204   */\n      tag_266\n        /* \"#utility.yul\":10199:10203   */\n      dup2\n        /* \"#utility.yul\":10190:10196   */\n      dup8\n        /* \"#utility.yul\":10182:10188   */\n      dup10\n        /* \"#utility.yul\":10116:10204   */\n      tag_128\n      jump\t// in\n    tag_266:\n        /* \"#utility.yul\":10108:10204   */\n      swap1\n      pop\n        /* \"#utility.yul\":10251:10260   */\n      dup2\n        /* \"#utility.yul\":10245:10249   */\n      dup2\n        /* \"#utility.yul\":10241:10261   */\n      sub\n        /* \"#utility.yul\":10236:10238   */\n      0x40\n        /* \"#utility.yul\":10225:10234   */\n      dup4\n        /* \"#utility.yul\":10221:10239   */\n      add\n        /* \"#utility.yul\":10214:10262   */\n      mstore\n        /* \"#utility.yul\":10279:10367   */\n      tag_267\n        /* \"#utility.yul\":10362:10366   */\n      dup2\n        /* \"#utility.yul\":10353:10359   */\n      dup6\n        /* \"#utility.yul\":10345:10351   */\n      dup8\n        /* \"#utility.yul\":10279:10367   */\n      tag_128\n      jump\t// in\n    tag_267:\n        /* \"#utility.yul\":10271:10367   */\n      swap1\n      pop\n        /* \"#utility.yul\":10377:10449   */\n      tag_268\n        /* \"#utility.yul\":10445:10447   */\n      0x60\n        /* \"#utility.yul\":10434:10443   */\n      dup4\n        /* \"#utility.yul\":10430:10448   */\n      add\n        /* \"#utility.yul\":10421:10427   */\n      dup5\n        /* \"#utility.yul\":10377:10449   */\n      tag_127\n      jump\t// in\n    tag_268:\n        /* \"#utility.yul\":9681:10456   */\n      swap8\n      swap7\n      pop\n      pop\n      pop\n      pop\n      pop\n      pop\n      pop\n      jump\t// out\n        /* \"#utility.yul\":10462:10552   */\n    tag_129:\n        /* \"#utility.yul\":10496:10503   */\n      0x00\n        /* \"#utility.yul\":10539:10544   */\n      dup2\n        /* \"#utility.yul\":10532:10545   */\n      iszero\n        /* \"#utility.yul\":10525:10546   */\n      iszero\n        /* \"#utility.yul\":10514:10546   */\n      swap1\n      pop\n        /* \"#utility.yul\":10462:10552   */\n      swap2\n      swap1\n      pop\n      jump\t// out\n        /* \"#utility.yul\":10558:10674   */\n    tag_130:\n        /* \"#utility.yul\":10628:10649   */\n      tag_271\n        /* \"#utility.yul\":10643:10648   */\n      dup2\n        /* \"#utility.yul\":10628:10649   */\n      tag_129\n      jump\t// in\n    tag_271:\n        /* \"#utility.yul\":10621:10626   */\n      dup2\n        /* \"#utility.yul\":10618:10650   */\n      eq\n        /* \"#utility.yul\":10608:10668   */\n      tag_272\n      jumpi\n        /* \"#utility.yul\":10664:10665   */\n      0x00\n        /* \"#utility.yul\":10661:10662   */\n      dup1\n        /* \"#utility.yul\":10654:10666   */\n      revert\n        /* \"#utility.yul\":10608:10668   */\n    tag_272:\n        /* \"#utility.yul\":10558:10674   */\n      pop\n      jump\t// out\n        /* \"#utility.yul\":10680:10817   */\n    tag_131:\n        /* \"#utility.yul\":10734:10739   */\n      0x00\n        /* \"#utility.yul\":10765:10771   */\n      dup2\n        /* \"#utility.yul\":10759:10772   */\n      mload\n        /* \"#utility.yul\":10750:10772   */\n      swap1\n      pop\n        /* \"#utility.yul\":10781:10811   */\n      tag_274\n        /* \"#utility.yul\":10805:10810   */\n      dup2\n        /* \"#utility.yul\":10781:10811   */\n      tag_130\n      jump\t// in\n    tag_274:\n        /* \"#utility.yul\":10680:10817   */\n      swap3\n      swap2\n      pop\n      pop\n      jump\t// out\n        /* \"#utility.yul\":10823:11168   */\n    tag_58:\n        /* \"#utility.yul\":10890:10896   */\n      0x00\n        /* \"#utility.yul\":10939:10941   */\n      0x20\n        /* \"#utility.yul\":10927:10936   */\n      dup3\n        /* \"#utility.yul\":10918:10925   */\n      dup5\n        /* \"#utility.yul\":10914:10937   */\n      sub\n        /* \"#utility.yul\":10910:10942   */\n      slt\n        /* \"#utility.yul\":10907:11026   */\n      iszero\n      tag_276\n      jumpi\n        /* \"#utility.yul\":10945:11024   */\n      tag_277\n      tag_111\n      jump\t// in\n    tag_277:\n        /* \"#utility.yul\":10907:11026   */\n    tag_276:\n        /* \"#utility.yul\":11065:11066   */\n      0x00\n        /* \"#utility.yul\":11090:11151   */\n      tag_278\n        /* \"#utility.yul\":11143:11150   */\n      dup5\n        /* \"#utility.yul\":11134:11140   */\n      dup3\n        /* \"#utility.yul\":11123:11132   */\n      dup6\n        /* \"#utility.yul\":11119:11141   */\n      add\n        /* \"#utility.yul\":11090:11151   */\n      tag_131\n      jump\t// in\n    tag_278:\n        /* \"#utility.yul\":11080:11151   */\n      swap2\n      pop\n        /* \"#utility.yul\":11036:11161   */\n      pop\n        /* \"#utility.yul\":10823:11168   */\n      swap3\n      swap2\n      pop\n      pop\n      jump\t// out\n        /* \"#utility.yul\":11174:11347   */\n    tag_132:\n        /* \"#utility.yul\":11314:11339   */\n      0x476173207061796d656e74206973207265717569726564000000000000000000\n        /* \"#utility.yul\":11310:11311   */\n      0x00\n        /* \"#utility.yul\":11302:11308   */\n      dup3\n        /* \"#utility.yul\":11298:11312   */\n      add\n        /* \"#utility.yul\":11291:11340   */\n      mstore\n        /* \"#utility.yul\":11174:11347   */\n      pop\n      jump\t// out\n        /* \"#utility.yul\":11353:11719   */\n    tag_133:\n        /* \"#utility.yul\":11495:11498   */\n      0x00\n        /* \"#utility.yul\":11516:11583   */\n      tag_281\n        /* \"#utility.yul\":11580:11582   */\n      0x17\n        /* \"#utility.yul\":11575:11578   */\n      dup4\n        /* \"#utility.yul\":11516:11583   */\n      tag_106\n      jump\t// in\n    tag_281:\n        /* \"#utility.yul\":11509:11583   */\n      swap2\n      pop\n        /* \"#utility.yul\":11592:11685   */\n      tag_282\n        /* \"#utility.yul\":11681:11684   */\n      dup3\n        /* \"#utility.yul\":11592:11685   */\n      tag_132\n      jump\t// in\n    tag_282:\n        /* \"#utility.yul\":11710:11712   */\n      0x20\n        /* \"#utility.yul\":11705:11708   */\n      dup3\n        /* \"#utility.yul\":11701:11713   */\n      add\n        /* \"#utility.yul\":11694:11713   */\n      swap1\n      pop\n        /* \"#utility.yul\":11353:11719   */\n      swap2\n      swap1\n      pop\n      jump\t// out\n        /* \"#utility.yul\":11725:12144   */\n    tag_65:\n        /* \"#utility.yul\":11891:11895   */\n      0x00\n        /* \"#utility.yul\":11929:11931   */\n      0x20\n        /* \"#utility.yul\":11918:11927   */\n      dup3\n        /* \"#utility.yul\":11914:11932   */\n      add\n        /* \"#utility.yul\":11906:11932   */\n      swap1\n      pop\n        /* \"#utility.yul\":11978:11987   */\n      dup2\n        /* \"#utility.yul\":11972:11976   */\n      dup2\n        /* \"#utility.yul\":11968:11988   */\n      sub\n        /* \"#utility.yul\":11964:11965   */\n      0x00\n        /* \"#utility.yul\":11953:11962   */\n      dup4\n        /* \"#utility.yul\":11949:11966   */\n      add\n        /* \"#utility.yul\":11942:11989   */\n      mstore\n        /* \"#utility.yul\":12006:12137   */\n      tag_284\n        /* \"#utility.yul\":12132:12136   */\n      dup2\n        /* \"#utility.yul\":12006:12137   */\n      tag_133\n      jump\t// in\n    tag_284:\n        /* \"#utility.yul\":11998:12137   */\n      swap1\n      pop\n        /* \"#utility.yul\":11725:12144   */\n      swap2\n      swap1\n      pop\n      jump\t// out\n        /* \"#utility.yul\":12150:12483   */\n    tag_67:\n        /* \"#utility.yul\":12273:12277   */\n      0x00\n        /* \"#utility.yul\":12311:12313   */\n      0x20\n        /* \"#utility.yul\":12300:12309   */\n      dup3\n        /* \"#utility.yul\":12296:12314   */\n      add\n        /* \"#utility.yul\":12288:12314   */\n      swap1\n      pop\n        /* \"#utility.yul\":12360:12369   */\n      dup2\n        /* \"#utility.yul\":12354:12358   */\n      dup2\n        /* \"#utility.yul\":12350:12370   */\n      sub\n        /* \"#utility.yul\":12346:12347   */\n      0x00\n        /* \"#utility.yul\":12335:12344   */\n      dup4\n        /* \"#utility.yul\":12331:12348   */\n      add\n        /* \"#utility.yul\":12324:12371   */\n      mstore\n        /* \"#utility.yul\":12388:12476   */\n      tag_286\n        /* \"#utility.yul\":12471:12475   */\n      dup2\n        /* \"#utility.yul\":12462:12468   */\n      dup5\n        /* \"#utility.yul\":12454:12460   */\n      dup7\n        /* \"#utility.yul\":12388:12476   */\n      tag_128\n      jump\t// in\n    tag_286:\n        /* \"#utility.yul\":12380:12476   */\n      swap1\n      pop\n        /* \"#utility.yul\":12150:12483   */\n      swap4\n      swap3\n      pop\n      pop\n      pop\n      jump\t// out\n        /* \"#utility.yul\":12489:12585   */\n    tag_134:\n        /* \"#utility.yul\":12526:12533   */\n      0x00\n        /* \"#utility.yul\":12555:12579   */\n      tag_288\n        /* \"#utility.yul\":12573:12578   */\n      dup3\n        /* \"#utility.yul\":12555:12579   */\n      tag_99\n      jump\t// in\n    tag_288:\n        /* \"#utility.yul\":12544:12579   */\n      swap1\n      pop\n        /* \"#utility.yul\":12489:12585   */\n      swap2\n      swap1\n      pop\n      jump\t// out\n        /* \"#utility.yul\":12591:12709   */\n    tag_135:\n        /* \"#utility.yul\":12678:12702   */\n      tag_290\n        /* \"#utility.yul\":12696:12701   */\n      dup2\n        /* \"#utility.yul\":12678:12702   */\n      tag_134\n      jump\t// in\n    tag_290:\n        /* \"#utility.yul\":12673:12676   */\n      dup3\n        /* \"#utility.yul\":12666:12703   */\n      mstore\n        /* \"#utility.yul\":12591:12709   */\n      pop\n      pop\n      jump\t// out\n        /* \"#utility.yul\":12715:12813   */\n    tag_136:\n        /* \"#utility.yul\":12766:12772   */\n      0x00\n        /* \"#utility.yul\":12800:12805   */\n      dup2\n        /* \"#utility.yul\":12794:12806   */\n      mload\n        /* \"#utility.yul\":12784:12806   */\n      swap1\n      pop\n        /* \"#utility.yul\":12715:12813   */\n      swap2\n      swap1\n      pop\n      jump\t// out\n        /* \"#utility.yul\":12819:12987   */\n    tag_137:\n        /* \"#utility.yul\":12902:12913   */\n      0x00\n        /* \"#utility.yul\":12936:12942   */\n      dup3\n        /* \"#utility.yul\":12931:12934   */\n      dup3\n        /* \"#utility.yul\":12924:12943   */\n      mstore\n        /* \"#utility.yul\":12976:12980   */\n      0x20\n        /* \"#utility.yul\":12971:12974   */\n      dup3\n        /* \"#utility.yul\":12967:12981   */\n      add\n        /* \"#utility.yul\":12952:12981   */\n      swap1\n      pop\n        /* \"#utility.yul\":12819:12987   */\n      swap3\n      swap2\n      pop\n      pop\n      jump\t// out\n        /* \"#utility.yul\":12993:13366   */\n    tag_138:\n        /* \"#utility.yul\":13079:13082   */\n      0x00\n        /* \"#utility.yul\":13107:13145   */\n      tag_294\n        /* \"#utility.yul\":13139:13144   */\n      dup3\n        /* \"#utility.yul\":13107:13145   */\n      tag_136\n      jump\t// in\n    tag_294:\n        /* \"#utility.yul\":13161:13231   */\n      tag_295\n        /* \"#utility.yul\":13224:13230   */\n      dup2\n        /* \"#utility.yul\":13219:13222   */\n      dup6\n        /* \"#utility.yul\":13161:13231   */\n      tag_137\n      jump\t// in\n    tag_295:\n        /* \"#utility.yul\":13154:13231   */\n      swap4\n      pop\n        /* \"#utility.yul\":13240:13305   */\n      tag_296\n        /* \"#utility.yul\":13298:13304   */\n      dup2\n        /* \"#utility.yul\":13293:13296   */\n      dup6\n        /* \"#utility.yul\":13286:13290   */\n      0x20\n        /* \"#utility.yul\":13279:13284   */\n      dup7\n        /* \"#utility.yul\":13275:13291   */\n      add\n        /* \"#utility.yul\":13240:13305   */\n      tag_107\n      jump\t// in\n    tag_296:\n        /* \"#utility.yul\":13330:13359   */\n      tag_297\n        /* \"#utility.yul\":13352:13358   */\n      dup2\n        /* \"#utility.yul\":13330:13359   */\n      tag_108\n      jump\t// in\n    tag_297:\n        /* \"#utility.yul\":13325:13328   */\n      dup5\n        /* \"#utility.yul\":13321:13360   */\n      add\n        /* \"#utility.yul\":13314:13360   */\n      swap2\n      pop\n        /* \"#utility.yul\":13083:13366   */\n      pop\n        /* \"#utility.yul\":12993:13366   */\n      swap3\n      swap2\n      pop\n      pop\n      jump\t// out\n        /* \"#utility.yul\":13372:14345   */\n    tag_69:\n        /* \"#utility.yul\":13655:13659   */\n      0x00\n        /* \"#utility.yul\":13693:13696   */\n      0xa0\n        /* \"#utility.yul\":13682:13691   */\n      dup3\n        /* \"#utility.yul\":13678:13697   */\n      add\n        /* \"#utility.yul\":13670:13697   */\n      swap1\n      pop\n        /* \"#utility.yul\":13707:13778   */\n      tag_299\n        /* \"#utility.yul\":13775:13776   */\n      0x00\n        /* \"#utility.yul\":13764:13773   */\n      dup4\n        /* \"#utility.yul\":13760:13777   */\n      add\n        /* \"#utility.yul\":13751:13757   */\n      dup11\n        /* \"#utility.yul\":13707:13778   */\n      tag_135\n      jump\t// in\n    tag_299:\n        /* \"#utility.yul\":13825:13834   */\n      dup2\n        /* \"#utility.yul\":13819:13823   */\n      dup2\n        /* \"#utility.yul\":13815:13835   */\n      sub\n        /* \"#utility.yul\":13810:13812   */\n      0x20\n        /* \"#utility.yul\":13799:13808   */\n      dup4\n        /* \"#utility.yul\":13795:13813   */\n      add\n        /* \"#utility.yul\":13788:13836   */\n      mstore\n        /* \"#utility.yul\":13853:13941   */\n      tag_300\n        /* \"#utility.yul\":13936:13940   */\n      dup2\n        /* \"#utility.yul\":13927:13933   */\n      dup9\n        /* \"#utility.yul\":13919:13925   */\n      dup11\n        /* \"#utility.yul\":13853:13941   */\n      tag_128\n      jump\t// in\n    tag_300:\n        /* \"#utility.yul\":13845:13941   */\n      swap1\n      pop\n        /* \"#utility.yul\":13988:13997   */\n      dup2\n        /* \"#utility.yul\":13982:13986   */\n      dup2\n        /* \"#utility.yul\":13978:13998   */\n      sub\n        /* \"#utility.yul\":13973:13975   */\n      0x40\n        /* \"#utility.yul\":13962:13971   */\n      dup4\n        /* \"#utility.yul\":13958:13976   */\n      add\n        /* \"#utility.yul\":13951:13999   */\n      mstore\n        /* \"#utility.yul\":14016:14104   */\n      tag_301\n        /* \"#utility.yul\":14099:14103   */\n      dup2\n        /* \"#utility.yul\":14090:14096   */\n      dup7\n        /* \"#utility.yul\":14082:14088   */\n      dup9\n        /* \"#utility.yul\":14016:14104   */\n      tag_128\n      jump\t// in\n    tag_301:\n        /* \"#utility.yul\":14008:14104   */\n      swap1\n      pop\n        /* \"#utility.yul\":14151:14160   */\n      dup2\n        /* \"#utility.yul\":14145:14149   */\n      dup2\n        /* \"#utility.yul\":14141:14161   */\n      sub\n        /* \"#utility.yul\":14136:14138   */\n      0x60\n        /* \"#utility.yul\":14125:14134   */\n      dup4\n        /* \"#utility.yul\":14121:14139   */\n      add\n        /* \"#utility.yul\":14114:14162   */\n      mstore\n        /* \"#utility.yul\":14179:14255   */\n      tag_302\n        /* \"#utility.yul\":14250:14254   */\n      dup2\n        /* \"#utility.yul\":14241:14247   */\n      dup6\n        /* \"#utility.yul\":14179:14255   */\n      tag_138\n      jump\t// in\n    tag_302:\n        /* \"#utility.yul\":14171:14255   */\n      swap1\n      pop\n        /* \"#utility.yul\":14265:14338   */\n      tag_303\n        /* \"#utility.yul\":14333:14336   */\n      0x80\n        /* \"#utility.yul\":14322:14331   */\n      dup4\n        /* \"#utility.yul\":14318:14337   */\n      add\n        /* \"#utility.yul\":14309:14315   */\n      dup5\n        /* \"#utility.yul\":14265:14338   */\n      tag_135\n      jump\t// in\n    tag_303:\n        /* \"#utility.yul\":13372:14345   */\n      swap9\n      swap8\n      pop\n      pop\n      pop\n      pop\n      pop\n      pop\n      pop\n      pop\n      jump\t// out\n        /* \"#utility.yul\":14351:15102   */\n    tag_75:\n        /* \"#utility.yul\":14578:14582   */\n      0x00\n        /* \"#utility.yul\":14616:14618   */\n      0x60\n        /* \"#utility.yul\":14605:14614   */\n      dup3\n        /* \"#utility.yul\":14601:14619   */\n      add\n        /* \"#utility.yul\":14593:14619   */\n      swap1\n      pop\n        /* \"#utility.yul\":14665:14674   */\n      dup2\n        /* \"#utility.yul\":14659:14663   */\n      dup2\n        /* \"#utility.yul\":14655:14675   */\n      sub\n        /* \"#utility.yul\":14651:14652   */\n      0x00\n        /* \"#utility.yul\":14640:14649   */\n      dup4\n        /* \"#utility.yul\":14636:14653   */\n      add\n        /* \"#utility.yul\":14629:14676   */\n      mstore\n        /* \"#utility.yul\":14693:14781   */\n      tag_305\n        /* \"#utility.yul\":14776:14780   */\n      dup2\n        /* \"#utility.yul\":14767:14773   */\n      dup8\n        /* \"#utility.yul\":14759:14765   */\n      dup10\n        /* \"#utility.yul\":14693:14781   */\n      tag_128\n      jump\t// in\n    tag_305:\n        /* \"#utility.yul\":14685:14781   */\n      swap1\n      pop\n        /* \"#utility.yul\":14828:14837   */\n      dup2\n        /* \"#utility.yul\":14822:14826   */\n      dup2\n        /* \"#utility.yul\":14818:14838   */\n      sub\n        /* \"#utility.yul\":14813:14815   */\n      0x20\n        /* \"#utility.yul\":14802:14811   */\n      dup4\n        /* \"#utility.yul\":14798:14816   */\n      add\n        /* \"#utility.yul\":14791:14839   */\n      mstore\n        /* \"#utility.yul\":14856:14944   */\n      tag_306\n        /* \"#utility.yul\":14939:14943   */\n      dup2\n        /* \"#utility.yul\":14930:14936   */\n      dup6\n        /* \"#utility.yul\":14922:14928   */\n      dup8\n        /* \"#utility.yul\":14856:14944   */\n      tag_128\n      jump\t// in\n    tag_306:\n        /* \"#utility.yul\":14848:14944   */\n      swap1\n      pop\n        /* \"#utility.yul\":14991:15000   */\n      dup2\n        /* \"#utility.yul\":14985:14989   */\n      dup2\n        /* \"#utility.yul\":14981:15001   */\n      sub\n        /* \"#utility.yul\":14976:14978   */\n      0x40\n        /* \"#utility.yul\":14965:14974   */\n      dup4\n        /* \"#utility.yul\":14961:14979   */\n      add\n        /* \"#utility.yul\":14954:15002   */\n      mstore\n        /* \"#utility.yul\":15019:15095   */\n      tag_307\n        /* \"#utility.yul\":15090:15094   */\n      dup2\n        /* \"#utility.yul\":15081:15087   */\n      dup5\n        /* \"#utility.yul\":15019:15095   */\n      tag_138\n      jump\t// in\n    tag_307:\n        /* \"#utility.yul\":15011:15095   */\n      swap1\n      pop\n        /* \"#utility.yul\":14351:15102   */\n      swap7\n      swap6\n      pop\n      pop\n      pop\n      pop\n      pop\n      pop\n      jump\t// out\n        /* \"#utility.yul\":15108:15225   */\n    tag_139:\n        /* \"#utility.yul\":15217:15218   */\n      0x00\n        /* \"#utility.yul\":15214:15215   */\n      dup1\n        /* \"#utility.yul\":15207:15219   */\n      revert\n        /* \"#utility.yul\":15231:15411   */\n    tag_140:\n        /* \"#utility.yul\":15279:15356   */\n      0x4e487b7100000000000000000000000000000000000000000000000000000000\n        /* \"#utility.yul\":15276:15277   */\n      0x00\n        /* \"#utility.yul\":15269:15357   */\n      mstore\n        /* \"#utility.yul\":15376:15380   */\n      0x41\n        /* \"#utility.yul\":15373:15374   */\n      0x04\n        /* \"#utility.yul\":15366:15381   */\n      mstore\n        /* \"#utility.yul\":15400:15404   */\n      0x24\n        /* \"#utility.yul\":15397:15398   */\n      0x00\n        /* \"#utility.yul\":15390:15405   */\n      revert\n        /* \"#utility.yul\":15417:15698   */\n    tag_141:\n        /* \"#utility.yul\":15500:15527   */\n      tag_311\n        /* \"#utility.yul\":15522:15526   */\n      dup3\n        /* \"#utility.yul\":15500:15527   */\n      tag_108\n      jump\t// in\n    tag_311:\n        /* \"#utility.yul\":15492:15498   */\n      dup2\n        /* \"#utility.yul\":15488:15528   */\n      add\n        /* \"#utility.yul\":15630:15636   */\n      dup2\n        /* \"#utility.yul\":15618:15628   */\n      dup2\n        /* \"#utility.yul\":15615:15637   */\n      lt\n        /* \"#utility.yul\":15594:15612   */\n      0xffffffffffffffff\n        /* \"#utility.yul\":15582:15592   */\n      dup3\n        /* \"#utility.yul\":15579:15613   */\n      gt\n        /* \"#utility.yul\":15576:15638   */\n      or\n        /* \"#utility.yul\":15573:15661   */\n      iszero\n      tag_312\n      jumpi\n        /* \"#utility.yul\":15641:15659   */\n      tag_313\n      tag_140\n      jump\t// in\n    tag_313:\n        /* \"#utility.yul\":15573:15661   */\n    tag_312:\n        /* \"#utility.yul\":15681:15691   */\n      dup1\n        /* \"#utility.yul\":15677:15679   */\n      0x40\n        /* \"#utility.yul\":15670:15692   */\n      mstore\n        /* \"#utility.yul\":15460:15698   */\n      pop\n        /* \"#utility.yul\":15417:15698   */\n      pop\n      pop\n      jump\t// out\n        /* \"#utility.yul\":15704:15833   */\n    tag_142:\n        /* \"#utility.yul\":15738:15744   */\n      0x00\n        /* \"#utility.yul\":15765:15785   */\n      tag_315\n      tag_110\n      jump\t// in\n    tag_315:\n        /* \"#utility.yul\":15755:15785   */\n      swap1\n      pop\n        /* \"#utility.yul\":15794:15827   */\n      tag_316\n        /* \"#utility.yul\":15822:15826   */\n      dup3\n        /* \"#utility.yul\":15814:15820   */\n      dup3\n        /* \"#utility.yul\":15794:15827   */\n      tag_141\n      jump\t// in\n    tag_316:\n        /* \"#utility.yul\":15704:15833   */\n      swap2\n      swap1\n      pop\n      jump\t// out\n        /* \"#utility.yul\":15839:16147   */\n    tag_143:\n        /* \"#utility.yul\":15901:15905   */\n      0x00\n        /* \"#utility.yul\":15991:16009   */\n      0xffffffffffffffff\n        /* \"#utility.yul\":15983:15989   */\n      dup3\n        /* \"#utility.yul\":15980:16010   */\n      gt\n        /* \"#utility.yul\":15977:16033   */\n      iszero\n      tag_318\n      jumpi\n        /* \"#utility.yul\":16013:16031   */\n      tag_319\n      tag_140\n      jump\t// in\n    tag_319:\n        /* \"#utility.yul\":15977:16033   */\n    tag_318:\n        /* \"#utility.yul\":16051:16080   */\n      tag_320\n        /* \"#utility.yul\":16073:16079   */\n      dup3\n        /* \"#utility.yul\":16051:16080   */\n      tag_108\n      jump\t// in\n    tag_320:\n        /* \"#utility.yul\":16043:16080   */\n      swap1\n      pop\n        /* \"#utility.yul\":16135:16139   */\n      0x20\n        /* \"#utility.yul\":16129:16133   */\n      dup2\n        /* \"#utility.yul\":16125:16140   */\n      add\n        /* \"#utility.yul\":16117:16140   */\n      swap1\n      pop\n        /* \"#utility.yul\":15839:16147   */\n      swap2\n      swap1\n      pop\n      jump\t// out\n        /* \"#utility.yul\":16153:16578   */\n    tag_144:\n        /* \"#utility.yul\":16231:16236   */\n      0x00\n        /* \"#utility.yul\":16256:16322   */\n      tag_322\n        /* \"#utility.yul\":16272:16321   */\n      tag_323\n        /* \"#utility.yul\":16314:16320   */\n      dup5\n        /* \"#utility.yul\":16272:16321   */\n      tag_143\n      jump\t// in\n    tag_323:\n        /* \"#utility.yul\":16256:16322   */\n      tag_142\n      jump\t// in\n    tag_322:\n        /* \"#utility.yul\":16247:16322   */\n      swap1\n      pop\n        /* \"#utility.yul\":16345:16351   */\n      dup3\n        /* \"#utility.yul\":16338:16343   */\n      dup2\n        /* \"#utility.yul\":16331:16352   */\n      mstore\n        /* \"#utility.yul\":16383:16387   */\n      0x20\n        /* \"#utility.yul\":16376:16381   */\n      dup2\n        /* \"#utility.yul\":16372:16388   */\n      add\n        /* \"#utility.yul\":16421:16424   */\n      dup5\n        /* \"#utility.yul\":16412:16418   */\n      dup5\n        /* \"#utility.yul\":16407:16410   */\n      dup5\n        /* \"#utility.yul\":16403:16419   */\n      add\n        /* \"#utility.yul\":16400:16425   */\n      gt\n        /* \"#utility.yul\":16397:16509   */\n      iszero\n      tag_324\n      jumpi\n        /* \"#utility.yul\":16428:16507   */\n      tag_325\n      tag_139\n      jump\t// in\n    tag_325:\n        /* \"#utility.yul\":16397:16509   */\n    tag_324:\n        /* \"#utility.yul\":16518:16572   */\n      tag_326\n        /* \"#utility.yul\":16565:16571   */\n      dup5\n        /* \"#utility.yul\":16560:16563   */\n      dup3\n        /* \"#utility.yul\":16555:16558   */\n      dup6\n        /* \"#utility.yul\":16518:16572   */\n      tag_125\n      jump\t// in\n    tag_326:\n        /* \"#utility.yul\":16237:16578   */\n      pop\n        /* \"#utility.yul\":16153:16578   */\n      swap4\n      swap3\n      pop\n      pop\n      pop\n      jump\t// out\n        /* \"#utility.yul\":16598:16938   */\n    tag_145:\n        /* \"#utility.yul\":16654:16659   */\n      0x00\n        /* \"#utility.yul\":16703:16706   */\n      dup3\n        /* \"#utility.yul\":16696:16700   */\n      0x1f\n        /* \"#utility.yul\":16688:16694   */\n      dup4\n        /* \"#utility.yul\":16684:16701   */\n      add\n        /* \"#utility.yul\":16680:16707   */\n      slt\n        /* \"#utility.yul\":16670:16792   */\n      tag_328\n      jumpi\n        /* \"#utility.yul\":16711:16790   */\n      tag_329\n      tag_116\n      jump\t// in\n    tag_329:\n        /* \"#utility.yul\":16670:16792   */\n    tag_328:\n        /* \"#utility.yul\":16828:16834   */\n      dup2\n        /* \"#utility.yul\":16815:16835   */\n      calldataload\n        /* \"#utility.yul\":16853:16932   */\n      tag_330\n        /* \"#utility.yul\":16928:16931   */\n      dup5\n        /* \"#utility.yul\":16920:16926   */\n      dup3\n        /* \"#utility.yul\":16913:16917   */\n      0x20\n        /* \"#utility.yul\":16905:16911   */\n      dup7\n        /* \"#utility.yul\":16901:16918   */\n      add\n        /* \"#utility.yul\":16853:16932   */\n      tag_144\n      jump\t// in\n    tag_330:\n        /* \"#utility.yul\":16844:16932   */\n      swap2\n      pop\n        /* \"#utility.yul\":16660:16938   */\n      pop\n        /* \"#utility.yul\":16598:16938   */\n      swap3\n      swap2\n      pop\n      pop\n      jump\t// out\n        /* \"#utility.yul\":16944:17453   */\n    tag_91:\n        /* \"#utility.yul\":17013:17019   */\n      0x00\n        /* \"#utility.yul\":17062:17064   */\n      0x20\n        /* \"#utility.yul\":17050:17059   */\n      dup3\n        /* \"#utility.yul\":17041:17048   */\n      dup5\n        /* \"#utility.yul\":17037:17060   */\n      sub\n        /* \"#utility.yul\":17033:17065   */\n      slt\n        /* \"#utility.yul\":17030:17149   */\n      iszero\n      tag_332\n      jumpi\n        /* \"#utility.yul\":17068:17147   */\n      tag_333\n      tag_111\n      jump\t// in\n    tag_333:\n        /* \"#utility.yul\":17030:17149   */\n    tag_332:\n        /* \"#utility.yul\":17216:17217   */\n      0x00\n        /* \"#utility.yul\":17205:17214   */\n      dup3\n        /* \"#utility.yul\":17201:17218   */\n      add\n        /* \"#utility.yul\":17188:17219   */\n      calldataload\n        /* \"#utility.yul\":17246:17264   */\n      0xffffffffffffffff\n        /* \"#utility.yul\":17238:17244   */\n      dup2\n        /* \"#utility.yul\":17235:17265   */\n      gt\n        /* \"#utility.yul\":17232:17349   */\n      iszero\n      tag_334\n      jumpi\n        /* \"#utility.yul\":17268:17347   */\n      tag_335\n      tag_112\n      jump\t// in\n    tag_335:\n        /* \"#utility.yul\":17232:17349   */\n    tag_334:\n        /* \"#utility.yul\":17373:17436   */\n      tag_336\n        /* \"#utility.yul\":17428:17435   */\n      dup5\n        /* \"#utility.yul\":17419:17425   */\n      dup3\n        /* \"#utility.yul\":17408:17417   */\n      dup6\n        /* \"#utility.yul\":17404:17426   */\n      add\n        /* \"#utility.yul\":17373:17436   */\n      tag_145\n      jump\t// in\n    tag_336:\n        /* \"#utility.yul\":17363:17436   */\n      swap2\n      pop\n        /* \"#utility.yul\":17159:17446   */\n      pop\n        /* \"#utility.yul\":16944:17453   */\n      swap3\n      swap2\n      pop\n      pop\n      jump\t// out\n        /* \"#utility.yul\":17459:17600   */\n    tag_146:\n        /* \"#utility.yul\":17508:17512   */\n      0x00\n        /* \"#utility.yul\":17531:17534   */\n      dup2\n        /* \"#utility.yul\":17523:17534   */\n      swap1\n      pop\n        /* \"#utility.yul\":17554:17557   */\n      dup2\n        /* \"#utility.yul\":17551:17552   */\n      0x00\n        /* \"#utility.yul\":17544:17558   */\n      mstore\n        /* \"#utility.yul\":17588:17592   */\n      0x20\n        /* \"#utility.yul\":17585:17586   */\n      0x00\n        /* \"#utility.yul\":17575:17593   */\n      keccak256\n        /* \"#utility.yul\":17567:17593   */\n      swap1\n      pop\n        /* \"#utility.yul\":17459:17600   */\n      swap2\n      swap1\n      pop\n      jump\t// out\n        /* \"#utility.yul\":17606:17699   */\n    tag_147:\n        /* \"#utility.yul\":17643:17649   */\n      0x00\n        /* \"#utility.yul\":17690:17692   */\n      0x20\n        /* \"#utility.yul\":17685:17687   */\n      0x1f\n        /* \"#utility.yul\":17678:17683   */\n      dup4\n        /* \"#utility.yul\":17674:17688   */\n      add\n        /* \"#utility.yul\":17670:17693   */\n      div\n        /* \"#utility.yul\":17660:17693   */\n      swap1\n      pop\n        /* \"#utility.yul\":17606:17699   */\n      swap2\n      swap1\n      pop\n      jump\t// out\n        /* \"#utility.yul\":17705:17812   */\n    tag_148:\n        /* \"#utility.yul\":17749:17757   */\n      0x00\n        /* \"#utility.yul\":17799:17804   */\n      dup3\n        /* \"#utility.yul\":17793:17797   */\n      dup3\n        /* \"#utility.yul\":17789:17805   */\n      shl\n        /* \"#utility.yul\":17768:17805   */\n      swap1\n      pop\n        /* \"#utility.yul\":17705:17812   */\n      swap3\n      swap2\n      pop\n      pop\n      jump\t// out\n        /* \"#utility.yul\":17818:18211   */\n    tag_149:\n        /* \"#utility.yul\":17887:17893   */\n      0x00\n        /* \"#utility.yul\":17937:17938   */\n      0x08\n        /* \"#utility.yul\":17925:17935   */\n      dup4\n        /* \"#utility.yul\":17921:17939   */\n      mul\n        /* \"#utility.yul\":17960:18057   */\n      tag_341\n        /* \"#utility.yul\":17990:18056   */\n      0xffffffffffffffffffffffffffffffffffffffffffffffffffffffffffffffff\n        /* \"#utility.yul\":17979:17988   */\n      dup3\n        /* \"#utility.yul\":17960:18057   */\n      tag_148\n      jump\t// in\n    tag_341:\n        /* \"#utility.yul\":18078:18117   */\n      tag_342\n        /* \"#utility.yul\":18108:18116   */\n      dup7\n        /* \"#utility.yul\":18097:18106   */\n      dup4\n        /* \"#utility.yul\":18078:18117   */\n      tag_148\n      jump\t// in\n    tag_342:\n        /* \"#utility.yul\":18066:18117   */\n      swap6\n      pop\n        /* \"#utility.yul\":18150:18154   */\n      dup1\n        /* \"#utility.yul\":18146:18155   */\n      not\n        /* \"#utility.yul\":18139:18144   */\n      dup5\n        /* \"#utility.yul\":18135:18156   */\n      and\n        /* \"#utility.yul\":18126:18156   */\n      swap4\n      pop\n        /* \"#utility.yul\":18199:18203   */\n      dup1\n        /* \"#utility.yul\":18189:18197   */\n      dup7\n        /* \"#utility.yul\":18185:18204   */\n      and\n        /* \"#utility.yul\":18178:18183   */\n      dup5\n        /* \"#utility.yul\":18175:18205   */\n      or\n        /* \"#utility.yul\":18165:18205   */\n      swap3\n      pop\n        /* \"#utility.yul\":17894:18211   */\n      pop\n      pop\n        /* \"#utility.yul\":17818:18211   */\n      swap4\n      swap3\n      pop\n      pop\n      pop\n      jump\t// out\n        /* \"#utility.yul\":18217:18294   */\n    tag_150:\n        /* \"#utility.yul\":18254:18261   */\n      0x00\n        /* \"#utility.yul\":18283:18288   */\n      dup2\n        /* \"#utility.yul\":18272:18288   */\n      swap1\n      pop\n        /* \"#utility.yul\":18217:18294   */\n      swap2\n      swap1\n      pop\n      jump\t// out\n        /* \"#utility.yul\":18300:18442   */\n    tag_151:\n        /* \"#utility.yul\":18350:18359   */\n      0x00\n        /* \"#utility.yul\":18383:18436   */\n      tag_345\n        /* \"#utility.yul\":18401:18435   */\n      tag_346\n        /* \"#utility.yul\":18410:18434   */\n      tag_347\n        /* \"#utility.yul\":18428:18433   */\n      dup5\n        /* \"#utility.yul\":18410:18434   */\n      tag_150\n      jump\t// in\n    tag_347:\n        /* \"#utility.yul\":18401:18435   */\n      tag_100\n      jump\t// in\n    tag_346:\n        /* \"#utility.yul\":18383:18436   */\n      tag_150\n      jump\t// in\n    tag_345:\n        /* \"#utility.yul\":18370:18436   */\n      swap1\n      pop\n        /* \"#utility.yul\":18300:18442   */\n      swap2\n      swap1\n      pop\n      jump\t// out\n        /* \"#utility.yul\":18448:18523   */\n    tag_152:\n        /* \"#utility.yul\":18491:18494   */\n      0x00\n        /* \"#utility.yul\":18512:18517   */\n      dup2\n        /* \"#utility.yul\":18505:18517   */\n      swap1\n      pop\n        /* \"#utility.yul\":18448:18523   */\n      swap2\n      swap1\n      pop\n      jump\t// out\n        /* \"#utility.yul\":18529:18798   */\n    tag_153:\n        /* \"#utility.yul\":18639:18678   */\n      tag_350\n        /* \"#utility.yul\":18670:18677   */\n      dup4\n        /* \"#utility.yul\":18639:18678   */\n      tag_151\n      jump\t// in\n    tag_350:\n        /* \"#utility.yul\":18700:18791   */\n      tag_351\n        /* \"#utility.yul\":18749:18790   */\n      tag_352\n        /* \"#utility.yul\":18773:18789   */\n      dup3\n        /* \"#utility.yul\":18749:18790   */\n      tag_152\n      jump\t// in\n    tag_352:\n        /* \"#utility.yul\":18741:18747   */\n      dup5\n        /* \"#utility.yul\":18734:18738   */\n      dup5\n        /* \"#utility.yul\":18728:18739   */\n      sload\n        /* \"#utility.yul\":18700:18791   */\n      tag_149\n      jump\t// in\n    tag_351:\n        /* \"#utility.yul\":18694:18698   */\n      dup3\n        /* \"#utility.yul\":18687:18792   */\n      sstore\n        /* \"#utility.yul\":18605:18798   */\n      pop\n        /* \"#utility.yul\":18529:18798   */\n      pop\n      pop\n      pop\n      jump\t// out\n        /* \"#utility.yul\":18804:18877   */\n    tag_154:\n        /* \"#utility.yul\":18849:18852   */\n      0x00\n        /* \"#utility.yul\":18804:18877   */\n      swap1\n      jump\t// out\n        /* \"#utility.yul\":18883:19072   */\n    tag_155:\n        /* \"#utility.yul\":18960:18992   */\n      tag_355\n      tag_154\n      jump\t// in\n    tag_355:\n        /* \"#utility.yul\":19001:19066   */\n      tag_356\n        /* \"#utility.yul\":19059:19065   */\n      dup2\n        /* \"#utility.yul\":19051:19057   */\n      dup5\n        /* \"#utility.yul\":19045:19049   */\n      dup5\n        /* \"#utility.yul\":19001:19066   */\n      tag_153\n      jump\t// in\n    tag_356:\n        /* \"#utility.yul\":18936:19072   */\n      pop\n        /* \"#utility.yul\":18883:19072   */\n      pop\n      pop\n      jump\t// out\n        /* \"#utility.yul\":19078:19264   */\n    tag_156:\n        /* \"#utility.yul\":19138:19258   */\n    tag_358:\n        /* \"#utility.yul\":19155:19158   */\n      dup2\n        /* \"#utility.yul\":19148:19153   */\n      dup2\n        /* \"#utility.yul\":19145:19159   */\n      lt\n        /* \"#utility.yul\":19138:19258   */\n      iszero\n      tag_360\n      jumpi\n        /* \"#utility.yul\":19209:19248   */\n      tag_361\n        /* \"#utility.yul\":19246:19247   */\n      0x00\n        /* \"#utility.yul\":19239:19244   */\n      dup3\n        /* \"#utility.yul\":19209:19248   */\n      tag_155\n      jump\t// in\n    tag_361:\n        /* \"#utility.yul\":19182:19183   */\n      0x01\n        /* \"#utility.yul\":19175:19180   */\n      dup2\n        /* \"#utility.yul\":19171:19184   */\n      add\n        /* \"#utility.yul\":19162:19184   */\n      swap1\n      pop\n        /* \"#utility.yul\":19138:19258   */\n      jump(tag_358)\n    tag_360:\n        /* \"#utility.yul\":19078:19264   */\n      pop\n      pop\n      jump\t// out\n        /* \"#utility.yul\":19270:19813   */\n    tag_157:\n        /* \"#utility.yul\":19371:19373   */\n      0x1f\n        /* \"#utility.yul\":19366:19369   */\n      dup3\n        /* \"#utility.yul\":19363:19374   */\n      gt\n        /* \"#utility.yul\":19360:19806   */\n      iszero\n      tag_363\n      jumpi\n        /* \"#utility.yul\":19405:19443   */\n      tag_364\n        /* \"#utility.yul\":19437:19442   */\n      dup2\n        /* \"#utility.yul\":19405:19443   */\n      tag_146\n      jump\t// in\n    tag_364:\n        /* \"#utility.yul\":19489:19518   */\n      tag_365\n        /* \"#utility.yul\":19507:19517   */\n      dup5\n        /* \"#utility.yul\":19489:19518   */\n      tag_147\n      jump\t// in\n    tag_365:\n        /* \"#utility.yul\":19479:19487   */\n      dup2\n        /* \"#utility.yul\":19475:19519   */\n      add\n        /* \"#utility.yul\":19672:19674   */\n      0x20\n        /* \"#utility.yul\":19660:19670   */\n      dup6\n        /* \"#utility.yul\":19657:19675   */\n      lt\n        /* \"#utility.yul\":19654:19703   */\n      iszero\n      tag_366\n      jumpi\n        /* \"#utility.yul\":19693:19701   */\n      dup2\n        /* \"#utility.yul\":19678:19701   */\n      swap1\n      pop\n        /* \"#utility.yul\":19654:19703   */\n    tag_366:\n        /* \"#utility.yul\":19716:19796   */\n      tag_367\n        /* \"#utility.yul\":19772:19794   */\n      tag_368\n        /* \"#utility.yul\":19790:19793   */\n      dup6\n        /* \"#utility.yul\":19772:19794   */\n      tag_147\n      jump\t// in\n    tag_368:\n        /* \"#utility.yul\":19762:19770   */\n      dup4\n        /* \"#utility.yul\":19758:19795   */\n      add\n        /* \"#utility.yul\":19745:19756   */\n      dup3\n        /* \"#utility.yul\":19716:19796   */\n      tag_156\n      jump\t// in\n    tag_367:\n        /* \"#utility.yul\":19375:19806   */\n      pop\n      pop\n        /* \"#utility.yul\":19360:19806   */\n    tag_363:\n        /* \"#utility.yul\":19270:19813   */\n      pop\n      pop\n      pop\n      jump\t// out\n        /* \"#utility.yul\":19819:19936   */\n    tag_158:\n        /* \"#utility.yul\":19873:19881   */\n      0x00\n        /* \"#utility.yul\":19923:19928   */\n      dup3\n        /* \"#utility.yul\":19917:19921   */\n      dup3\n        /* \"#utility.yul\":19913:19929   */\n      shr\n        /* \"#utility.yul\":19892:19929   */\n      swap1\n      pop\n        /* \"#utility.yul\":19819:19936   */\n      swap3\n      swap2\n      pop\n      pop\n      jump\t// out\n        /* \"#utility.yul\":19942:20111   */\n    tag_159:\n        /* \"#utility.yul\":19986:19992   */\n      0x00\n        /* \"#utility.yul\":20019:20070   */\n      tag_371\n        /* \"#utility.yul\":20067:20068   */\n      0x00\n        /* \"#utility.yul\":20063:20069   */\n      not\n        /* \"#utility.yul\":20055:20060   */\n      dup5\n        /* \"#utility.yul\":20052:20053   */\n      0x08\n        /* \"#utility.yul\":20048:20061   */\n      mul\n        /* \"#utility.yul\":20019:20070   */\n      tag_158\n      jump\t// in\n    tag_371:\n        /* \"#utility.yul\":20015:20071   */\n      not\n        /* \"#utility.yul\":20100:20104   */\n      dup1\n        /* \"#utility.yul\":20094:20098   */\n      dup4\n        /* \"#utility.yul\":20090:20105   */\n      and\n        /* \"#utility.yul\":20080:20105   */\n      swap2\n      pop\n        /* \"#utility.yul\":19993:20111   */\n      pop\n        /* \"#utility.yul\":19942:20111   */\n      swap3\n      swap2\n      pop\n      pop\n      jump\t// out\n        /* \"#utility.yul\":20116:20411   */\n    tag_160:\n        /* \"#utility.yul\":20192:20196   */\n      0x00\n        /* \"#utility.yul\":20338:20367   */\n      tag_373\n        /* \"#utility.yul\":20363:20366   */\n      dup4\n        /* \"#utility.yul\":20357:20361   */\n      dup4\n        /* \"#utility.yul\":20338:20367   */\n      tag_159\n      jump\t// in\n    tag_373:\n        /* \"#utility.yul\":20330:20367   */\n      swap2\n      pop\n        /* \"#utility.yul\":20400:20403   */\n      dup3\n        /* \"#utility.yul\":20397:20398   */\n      0x02\n        /* \"#utility.yul\":20393:20404   */\n      mul\n        /* \"#utility.yul\":20387:20391   */\n      dup3\n        /* \"#utility.yul\":20384:20405   */\n      or\n        /* \"#utility.yul\":20376:20405   */\n      swap1\n      pop\n        /* \"#utility.yul\":20116:20411   */\n      swap3\n      swap2\n      pop\n      pop\n      jump\t// out\n        /* \"#utility.yul\":20416:21811   */\n    tag_93:\n        /* \"#utility.yul\":20533:20570   */\n      tag_375\n        /* \"#utility.yul\":20566:20569   */\n      dup3\n        /* \"#utility.yul\":20533:20570   */\n      tag_105\n      jump\t// in\n    tag_375:\n        /* \"#utility.yul\":20635:20653   */\n      0xffffffffffffffff\n        /* \"#utility.yul\":20627:20633   */\n      dup2\n        /* \"#utility.yul\":20624:20654   */\n      gt\n        /* \"#utility.yul\":20621:20677   */\n      iszero\n      tag_376\n      jumpi\n        /* \"#utility.yul\":20657:20675   */\n      tag_377\n      tag_140\n      jump\t// in\n    tag_377:\n        /* \"#utility.yul\":20621:20677   */\n    tag_376:\n        /* \"#utility.yul\":20701:20739   */\n      tag_378\n        /* \"#utility.yul\":20733:20737   */\n      dup3\n        /* \"#utility.yul\":20727:20738   */\n      sload\n        /* \"#utility.yul\":20701:20739   */\n      tag_44\n      jump\t// in\n    tag_378:\n        /* \"#utility.yul\":20786:20853   */\n      tag_379\n        /* \"#utility.yul\":20846:20852   */\n      dup3\n        /* \"#utility.yul\":20838:20844   */\n      dup3\n        /* \"#utility.yul\":20832:20836   */\n      dup6\n        /* \"#utility.yul\":20786:20853   */\n      tag_157\n      jump\t// in\n    tag_379:\n        /* \"#utility.yul\":20880:20881   */\n      0x00\n        /* \"#utility.yul\":20904:20908   */\n      0x20\n        /* \"#utility.yul\":20891:20908   */\n      swap1\n      pop\n        /* \"#utility.yul\":20936:20938   */\n      0x1f\n        /* \"#utility.yul\":20928:20934   */\n      dup4\n        /* \"#utility.yul\":20925:20939   */\n      gt\n        /* \"#utility.yul\":20953:20954   */\n      0x01\n        /* \"#utility.yul\":20948:21566   */\n      dup2\n      eq\n      tag_381\n      jumpi\n        /* \"#utility.yul\":21610:21611   */\n      0x00\n        /* \"#utility.yul\":21627:21633   */\n      dup5\n        /* \"#utility.yul\":21624:21701   */\n      iszero\n      tag_382\n      jumpi\n        /* \"#utility.yul\":21676:21685   */\n      dup3\n        /* \"#utility.yul\":21671:21674   */\n      dup8\n        /* \"#utility.yul\":21667:21686   */\n      add\n        /* \"#utility.yul\":21661:21687   */\n      mload\n        /* \"#utility.yul\":21652:21687   */\n      swap1\n      pop\n        /* \"#utility.yul\":21624:21701   */\n    tag_382:\n        /* \"#utility.yul\":21727:21794   */\n      tag_383\n        /* \"#utility.yul\":21787:21793   */\n      dup6\n        /* \"#utility.yul\":21780:21785   */\n      dup3\n        /* \"#utility.yul\":21727:21794   */\n      tag_160\n      jump\t// in\n    tag_383:\n        /* \"#utility.yul\":21721:21725   */\n      dup7\n        /* \"#utility.yul\":21714:21795   */\n      sstore\n        /* \"#utility.yul\":21583:21805   */\n      pop\n        /* \"#utility.yul\":20918:21805   */\n      jump(tag_380)\n        /* \"#utility.yul\":20948:21566   */\n    tag_381:\n        /* \"#utility.yul\":21000:21004   */\n      0x1f\n        /* \"#utility.yul\":20996:21005   */\n      not\n        /* \"#utility.yul\":20988:20994   */\n      dup5\n        /* \"#utility.yul\":20984:21006   */\n      and\n        /* \"#utility.yul\":21034:21071   */\n      tag_384\n        /* \"#utility.yul\":21066:21070   */\n      dup7\n        /* \"#utility.yul\":21034:21071   */\n      tag_146\n      jump\t// in\n    tag_384:\n        /* \"#utility.yul\":21093:21094   */\n      0x00\n        /* \"#utility.yul\":21107:21315   */\n    tag_385:\n        /* \"#utility.yul\":21121:21128   */\n      dup3\n        /* \"#utility.yul\":21118:21119   */\n      dup2\n        /* \"#utility.yul\":21115:21129   */\n      lt\n        /* \"#utility.yul\":21107:21315   */\n      iszero\n      tag_387\n      jumpi\n        /* \"#utility.yul\":21200:21209   */\n      dup5\n        /* \"#utility.yul\":21195:21198   */\n      dup10\n        /* \"#utility.yul\":21191:21210   */\n      add\n        /* \"#utility.yul\":21185:21211   */\n      mload\n        /* \"#utility.yul\":21177:21183   */\n      dup3\n        /* \"#utility.yul\":21170:21212   */\n      sstore\n        /* \"#utility.yul\":21251:21252   */\n      0x01\n        /* \"#utility.yul\":21243:21249   */\n      dup3\n        /* \"#utility.yul\":21239:21253   */\n      add\n        /* \"#utility.yul\":21229:21253   */\n      swap2\n      pop\n        /* \"#utility.yul\":21298:21300   */\n      0x20\n        /* \"#utility.yul\":21287:21296   */\n      dup6\n        /* \"#utility.yul\":21283:21301   */\n      add\n        /* \"#utility.yul\":21270:21301   */\n      swap5\n      pop\n        /* \"#utility.yul\":21144:21148   */\n      0x20\n        /* \"#utility.yul\":21141:21142   */\n      dup2\n        /* \"#utility.yul\":21137:21149   */\n      add\n        /* \"#utility.yul\":21132:21149   */\n      swap1\n      pop\n        /* \"#utility.yul\":21107:21315   */\n      jump(tag_385)\n    tag_387:\n        /* \"#utility.yul\":21343:21349   */\n      dup7\n        /* \"#utility.yul\":21334:21341   */\n      dup4\n        /* \"#utility.yul\":21331:21350   */\n      lt\n        /* \"#utility.yul\":21328:21507   */\n      iszero\n      tag_388\n      jumpi\n        /* \"#utility.yul\":21401:21410   */\n      dup5\n        /* \"#utility.yul\":21396:21399   */\n      dup10\n        /* \"#utility.yul\":21392:21411   */\n      add\n        /* \"#utility.yul\":21386:21412   */\n      mload\n        /* \"#utility.yul\":21444:21492   */\n      tag_389\n        /* \"#utility.yul\":21486:21490   */\n      0x1f\n        /* \"#utility.yul\":21478:21484   */\n      dup10\n        /* \"#utility.yul\":21474:21491   */\n      and\n        /* \"#utility.yul\":21463:21472   */\n      dup3\n        /* \"#utility.yul\":21444:21492   */\n      tag_159\n      jump\t// in\n    tag_389:\n        /* \"#utility.yul\":21436:21442   */\n      dup4\n        /* \"#utility.yul\":21429:21493   */\n      sstore\n        /* \"#utility.yul\":21351:21507   */\n      pop\n        /* \"#utility.yul\":21328:21507   */\n    tag_388:\n        /* \"#utility.yul\":21553:21554   */\n      0x01\n        /* \"#utility.yul\":21549:21550   */\n      0x02\n        /* \"#utility.yul\":21541:21547   */\n      dup9\n        /* \"#utility.yul\":21537:21551   */\n      mul\n        /* \"#utility.yul\":21533:21555   */\n      add\n        /* \"#utility.yul\":21527:21531   */\n      dup9\n        /* \"#utility.yul\":21520:21556   */\n      sstore\n        /* \"#utility.yul\":20955:21566   */\n      pop\n      pop\n      pop\n        /* \"#utility.yul\":20918:21805   */\n    tag_380:\n      pop\n        /* \"#utility.yul\":20508:21811   */\n      pop\n      pop\n      pop\n        /* \"#utility.yul\":20416:21811   */\n      pop\n      pop\n      jump\t// out\n        /* \"#utility.yul\":21817:21914   */\n    tag_161:\n        /* \"#utility.yul\":21876:21882   */\n      0x00\n        /* \"#utility.yul\":21904:21907   */\n      dup3\n        /* \"#utility.yul\":21894:21907   */\n      swap1\n      pop\n        /* \"#utility.yul\":21817:21914   */\n      swap3\n      swap2\n      pop\n      pop\n      jump\t// out\n        /* \"#utility.yul\":21920:23323   */\n    tag_95:\n        /* \"#utility.yul\":22044:22088   */\n      tag_392\n        /* \"#utility.yul\":22084:22087   */\n      dup4\n        /* \"#utility.yul\":22079:22082   */\n      dup4\n        /* \"#utility.yul\":22044:22088   */\n      tag_161\n      jump\t// in\n    tag_392:\n        /* \"#utility.yul\":22153:22171   */\n      0xffffffffffffffff\n        /* \"#utility.yul\":22145:22151   */\n      dup2\n        /* \"#utility.yul\":22142:22172   */\n      gt\n        /* \"#utility.yul\":22139:22195   */\n      iszero\n      tag_393\n      jumpi\n        /* \"#utility.yul\":22175:22193   */\n      tag_394\n      tag_140\n      jump\t// in\n    tag_394:\n        /* \"#utility.yul\":22139:22195   */\n    tag_393:\n        /* \"#utility.yul\":22219:22257   */\n      tag_395\n        /* \"#utility.yul\":22251:22255   */\n      dup3\n        /* \"#utility.yul\":22245:22256   */\n      sload\n        /* \"#utility.yul\":22219:22257   */\n      tag_44\n      jump\t// in\n    tag_395:\n        /* \"#utility.yul\":22304:22371   */\n      tag_396\n        /* \"#utility.yul\":22364:22370   */\n      dup3\n        /* \"#utility.yul\":22356:22362   */\n      dup3\n        /* \"#utility.yul\":22350:22354   */\n      dup6\n        /* \"#utility.yul\":22304:22371   */\n      tag_157\n      jump\t// in\n    tag_396:\n        /* \"#utility.yul\":22398:22399   */\n      0x00\n        /* \"#utility.yul\":22427:22429   */\n      0x1f\n        /* \"#utility.yul\":22419:22425   */\n      dup4\n        /* \"#utility.yul\":22416:22430   */\n      gt\n        /* \"#utility.yul\":22444:22445   */\n      0x01\n        /* \"#utility.yul\":22439:23071   */\n      dup2\n      eq\n      tag_398\n      jumpi\n        /* \"#utility.yul\":23115:23116   */\n      0x00\n        /* \"#utility.yul\":23132:23138   */\n      dup5\n        /* \"#utility.yul\":23129:23213   */\n      iszero\n      tag_399\n      jumpi\n        /* \"#utility.yul\":23188:23197   */\n      dup3\n        /* \"#utility.yul\":23183:23186   */\n      dup8\n        /* \"#utility.yul\":23179:23198   */\n      add\n        /* \"#utility.yul\":23166:23199   */\n      calldataload\n        /* \"#utility.yul\":23157:23199   */\n      swap1\n      pop\n        /* \"#utility.yul\":23129:23213   */\n    tag_399:\n        /* \"#utility.yul\":23239:23306   */\n      tag_400\n        /* \"#utility.yul\":23299:23305   */\n      dup6\n        /* \"#utility.yul\":23292:23297   */\n      dup3\n        /* \"#utility.yul\":23239:23306   */\n      tag_160\n      jump\t// in\n    tag_400:\n        /* \"#utility.yul\":23233:23237   */\n      dup7\n        /* \"#utility.yul\":23226:23307   */\n      sstore\n        /* \"#utility.yul\":23088:23317   */\n      pop\n        /* \"#utility.yul\":22409:23317   */\n      jump(tag_397)\n        /* \"#utility.yul\":22439:23071   */\n    tag_398:\n        /* \"#utility.yul\":22491:22495   */\n      0x1f\n        /* \"#utility.yul\":22487:22496   */\n      not\n        /* \"#utility.yul\":22479:22485   */\n      dup5\n        /* \"#utility.yul\":22475:22497   */\n      and\n        /* \"#utility.yul\":22525:22562   */\n      tag_401\n        /* \"#utility.yul\":22557:22561   */\n      dup7\n        /* \"#utility.yul\":22525:22562   */\n      tag_146\n      jump\t// in\n    tag_401:\n        /* \"#utility.yul\":22584:22585   */\n      0x00\n        /* \"#utility.yul\":22598:22813   */\n    tag_402:\n        /* \"#utility.yul\":22612:22619   */\n      dup3\n        /* \"#utility.yul\":22609:22610   */\n      dup2\n        /* \"#utility.yul\":22606:22620   */\n      lt\n        /* \"#utility.yul\":22598:22813   */\n      iszero\n      tag_404\n      jumpi\n        /* \"#utility.yul\":22698:22707   */\n      dup5\n        /* \"#utility.yul\":22693:22696   */\n      dup10\n        /* \"#utility.yul\":22689:22708   */\n      add\n        /* \"#utility.yul\":22676:22709   */\n      calldataload\n        /* \"#utility.yul\":22668:22674   */\n      dup3\n        /* \"#utility.yul\":22661:22710   */\n      sstore\n        /* \"#utility.yul\":22749:22750   */\n      0x01\n        /* \"#utility.yul\":22741:22747   */\n      dup3\n        /* \"#utility.yul\":22737:22751   */\n      add\n        /* \"#utility.yul\":22727:22751   */\n      swap2\n      pop\n        /* \"#utility.yul\":22796:22798   */\n      0x20\n        /* \"#utility.yul\":22785:22794   */\n      dup6\n        /* \"#utility.yul\":22781:22799   */\n      add\n        /* \"#utility.yul\":22768:22799   */\n      swap5\n      pop\n        /* \"#utility.yul\":22635:22639   */\n      0x20\n        /* \"#utility.yul\":22632:22633   */\n      dup2\n        /* \"#utility.yul\":22628:22640   */\n      add\n        /* \"#utility.yul\":22623:22640   */\n      swap1\n      pop\n        /* \"#utility.yul\":22598:22813   */\n      jump(tag_402)\n    tag_404:\n        /* \"#utility.yul\":22841:22847   */\n      dup7\n        /* \"#utility.yul\":22832:22839   */\n      dup4\n        /* \"#utility.yul\":22829:22848   */\n      lt\n        /* \"#utility.yul\":22826:23012   */\n      iszero\n      tag_405\n      jumpi\n        /* \"#utility.yul\":22906:22915   */\n      dup5\n        /* \"#utility.yul\":22901:22904   */\n      dup10\n        /* \"#utility.yul\":22897:22916   */\n      add\n        /* \"#utility.yul\":22884:22917   */\n      calldataload\n        /* \"#utility.yul\":22949:22997   */\n      tag_406\n        /* \"#utility.yul\":22991:22995   */\n      0x1f\n        /* \"#utility.yul\":22983:22989   */\n      dup10\n        /* \"#utility.yul\":22979:22996   */\n      and\n        /* \"#utility.yul\":22968:22977   */\n      dup3\n        /* \"#utility.yul\":22949:22997   */\n      tag_159\n      jump\t// in\n    tag_406:\n        /* \"#utility.yul\":22941:22947   */\n      dup4\n        /* \"#utility.yul\":22934:22998   */\n      sstore\n        /* \"#utility.yul\":22849:23012   */\n      pop\n        /* \"#utility.yul\":22826:23012   */\n    tag_405:\n        /* \"#utility.yul\":23058:23059   */\n      0x01\n        /* \"#utility.yul\":23054:23055   */\n      0x02\n        /* \"#utility.yul\":23046:23052   */\n      dup9\n        /* \"#utility.yul\":23042:23056   */\n      mul\n        /* \"#utility.yul\":23038:23060   */\n      add\n        /* \"#utility.yul\":23032:23036   */\n      dup9\n        /* \"#utility.yul\":23025:23061   */\n      sstore\n        /* \"#utility.yul\":22446:23071   */\n      pop\n      pop\n      pop\n        /* \"#utility.yul\":22409:23317   */\n    tag_397:\n      pop\n        /* \"#utility.yul\":22019:23323   */\n      pop\n      pop\n      pop\n        /* \"#utility.yul\":21920:23323   */\n      pop\n      pop\n      pop\n      jump\t// out\n        /* \"#utility.yul\":23353:24184   */\n    tag_162:\n        /* \"#utility.yul\":23438:23441   */\n      0x00\n        /* \"#utility.yul\":23475:23480   */\n      dup2\n        /* \"#utility.yul\":23469:23481   */\n      sload\n        /* \"#utility.yul\":23504:23540   */\n      tag_408\n        /* \"#utility.yul\":23530:23539   */\n      dup2\n        /* \"#utility.yul\":23504:23540   */\n      tag_44\n      jump\t// in\n    tag_408:\n        /* \"#utility.yul\":23556:23627   */\n      tag_409\n        /* \"#utility.yul\":23620:23626   */\n      dup2\n        /* \"#utility.yul\":23615:23618   */\n      dup7\n        /* \"#utility.yul\":23556:23627   */\n      tag_106\n      jump\t// in\n    tag_409:\n        /* \"#utility.yul\":23549:23627   */\n      swap5\n      pop\n        /* \"#utility.yul\":23658:23659   */\n      0x01\n        /* \"#utility.yul\":23647:23656   */\n      dup3\n        /* \"#utility.yul\":23643:23660   */\n      and\n        /* \"#utility.yul\":23674:23675   */\n      0x00\n        /* \"#utility.yul\":23669:23833   */\n      dup2\n      eq\n      tag_411\n      jumpi\n        /* \"#utility.yul\":23847:23848   */\n      0x01\n        /* \"#utility.yul\":23842:24178   */\n      dup2\n      eq\n      tag_412\n      jumpi\n        /* \"#utility.yul\":23636:24178   */\n      jump(tag_410)\n        /* \"#utility.yul\":23669:23833   */\n    tag_411:\n        /* \"#utility.yul\":23753:23757   */\n      0xff\n        /* \"#utility.yul\":23749:23758   */\n      not\n        /* \"#utility.yul\":23738:23747   */\n      dup4\n        /* \"#utility.yul\":23734:23759   */\n      and\n        /* \"#utility.yul\":23729:23732   */\n      dup7\n        /* \"#utility.yul\":23722:23760   */\n      mstore\n        /* \"#utility.yul\":23813:23819   */\n      dup2\n        /* \"#utility.yul\":23806:23820   */\n      iszero\n        /* \"#utility.yul\":23799:23821   */\n      iszero\n        /* \"#utility.yul\":23793:23797   */\n      0x20\n        /* \"#utility.yul\":23789:23822   */\n      mul\n        /* \"#utility.yul\":23784:23787   */\n      dup7\n        /* \"#utility.yul\":23780:23823   */\n      add\n        /* \"#utility.yul\":23773:23823   */\n      swap4\n      pop\n        /* \"#utility.yul\":23669:23833   */\n      jump(tag_410)\n        /* \"#utility.yul\":23842:24178   */\n    tag_412:\n        /* \"#utility.yul\":23909:23947   */\n      tag_413\n        /* \"#utility.yul\":23941:23946   */\n      dup6\n        /* \"#utility.yul\":23909:23947   */\n      tag_146\n      jump\t// in\n    tag_413:\n        /* \"#utility.yul\":23969:23970   */\n      0x00\n        /* \"#utility.yul\":23983:24137   */\n    tag_414:\n        /* \"#utility.yul\":23997:24003   */\n      dup4\n        /* \"#utility.yul\":23994:23995   */\n      dup2\n        /* \"#utility.yul\":23991:24004   */\n      lt\n        /* \"#utility.yul\":23983:24137   */\n      iszero\n      tag_416\n      jumpi\n        /* \"#utility.yul\":24071:24078   */\n      dup2\n        /* \"#utility.yul\":24065:24079   */\n      sload\n        /* \"#utility.yul\":24061:24062   */\n      dup2\n        /* \"#utility.yul\":24056:24059   */\n      dup10\n        /* \"#utility.yul\":24052:24063   */\n      add\n        /* \"#utility.yul\":24045:24080   */\n      mstore\n        /* \"#utility.yul\":24121:24122   */\n      0x01\n        /* \"#utility.yul\":24112:24119   */\n      dup3\n        /* \"#utility.yul\":24108:24123   */\n      add\n        /* \"#utility.yul\":24097:24123   */\n      swap2\n      pop\n        /* \"#utility.yul\":24019:24023   */\n      0x20\n        /* \"#utility.yul\":24016:24017   */\n      dup2\n        /* \"#utility.yul\":24012:24024   */\n      add\n        /* \"#utility.yul\":24007:24024   */\n      swap1\n      pop\n        /* \"#utility.yul\":23983:24137   */\n      jump(tag_414)\n    tag_416:\n        /* \"#utility.yul\":24166:24167   */\n      dup1\n        /* \"#utility.yul\":24161:24164   */\n      dup9\n        /* \"#utility.yul\":24157:24168   */\n      add\n        /* \"#utility.yul\":24150:24168   */\n      swap6\n      pop\n        /* \"#utility.yul\":23849:24178   */\n      pop\n      pop\n        /* \"#utility.yul\":23636:24178   */\n    tag_410:\n      pop\n        /* \"#utility.yul\":23442:24184   */\n      pop\n      pop\n        /* \"#utility.yul\":23353:24184   */\n      swap3\n      swap2\n      pop\n      pop\n      jump\t// out\n        /* \"#utility.yul\":24190:24802   */\n    tag_98:\n        /* \"#utility.yul\":24373:24377   */\n      0x00\n        /* \"#utility.yul\":24411:24413   */\n      0x60\n        /* \"#utility.yul\":24400:24409   */\n      dup3\n        /* \"#utility.yul\":24396:24414   */\n      add\n        /* \"#utility.yul\":24388:24414   */\n      swap1\n      pop\n        /* \"#utility.yul\":24424:24495   */\n      tag_418\n        /* \"#utility.yul\":24492:24493   */\n      0x00\n        /* \"#utility.yul\":24481:24490   */\n      dup4\n        /* \"#utility.yul\":24477:24494   */\n      add\n        /* \"#utility.yul\":24468:24474   */\n      dup7\n        /* \"#utility.yul\":24424:24495   */\n      tag_127\n      jump\t// in\n    tag_418:\n        /* \"#utility.yul\":24542:24551   */\n      dup2\n        /* \"#utility.yul\":24536:24540   */\n      dup2\n        /* \"#utility.yul\":24532:24552   */\n      sub\n        /* \"#utility.yul\":24527:24529   */\n      0x20\n        /* \"#utility.yul\":24516:24525   */\n      dup4\n        /* \"#utility.yul\":24512:24530   */\n      add\n        /* \"#utility.yul\":24505:24553   */\n      mstore\n        /* \"#utility.yul\":24570:24645   */\n      tag_419\n        /* \"#utility.yul\":24640:24644   */\n      dup2\n        /* \"#utility.yul\":24631:24637   */\n      dup6\n        /* \"#utility.yul\":24570:24645   */\n      tag_162\n      jump\t// in\n    tag_419:\n        /* \"#utility.yul\":24562:24645   */\n      swap1\n      pop\n        /* \"#utility.yul\":24692:24701   */\n      dup2\n        /* \"#utility.yul\":24686:24690   */\n      dup2\n        /* \"#utility.yul\":24682:24702   */\n      sub\n        /* \"#utility.yul\":24677:24679   */\n      0x40\n        /* \"#utility.yul\":24666:24675   */\n      dup4\n        /* \"#utility.yul\":24662:24680   */\n      add\n        /* \"#utility.yul\":24655:24703   */\n      mstore\n        /* \"#utility.yul\":24720:24795   */\n      tag_420\n        /* \"#utility.yul\":24790:24794   */\n      dup2\n        /* \"#utility.yul\":24781:24787   */\n      dup5\n        /* \"#utility.yul\":24720:24795   */\n      tag_162\n      jump\t// in\n    tag_420:\n        /* \"#utility.yul\":24712:24795   */\n      swap1\n      pop\n        /* \"#utility.yul\":24190:24802   */\n      swap5\n      swap4\n      pop\n      pop\n      pop\n      pop\n      jump\t// out\n\n    auxdata: 0xa2646970667358221220f1a8cd8b90a3178f0797b0995f2180d7f7b792fd377aead3f47c9d8d09f3fd5464736f6c634300081a0033\n}\n",
				"bytecode": {
					"linkReferences": {},
					"object": "60c060405234801561000f575f80fd5b506040516114f23803806114f283398181016040528101906100319190610165565b815f73ffffffffffffffffffffffffffffffffffffffff168173ffffffffffffffffffffffffffffffffffffffff1603610097576040517fe6c4247b00000000000000000000000000000000000000000000000000000000815260040160405180910390fd5b8073ffffffffffffffffffffffffffffffffffffffff1660808173ffffffffffffffffffffffffffffffffffffffff1681525050508073ffffffffffffffffffffffffffffffffffffffff1660a08173ffffffffffffffffffffffffffffffffffffffff168152505050506101a3565b5f80fd5b5f73ffffffffffffffffffffffffffffffffffffffff82169050919050565b5f6101348261010b565b9050919050565b6101448161012a565b811461014e575f80fd5b50565b5f8151905061015f8161013b565b92915050565b5f806040838503121561017b5761017a610107565b5b5f61018885828601610151565b925050602061019985828601610151565b9150509250929050565b60805160a0516113276101cb5f395f818161033201526103bd01525f61018c01526113275ff3fe60806040526004361061006f575f3560e01c80636a22d8cc1161004d5780636a22d8cc146100ef57806380d3269714610119578063b0fa844414610135578063e21f37ce1461015f5761006f565b8063116191b6146100735780631c6ffa461461009d57806349160658146100c7575b5f80fd5b34801561007e575f80fd5b50610087610189565b60405161009491906106e4565b60405180910390f35b3480156100a8575f80fd5b506100b16101b0565b6040516100be919061076d565b60405180910390f35b3480156100d2575f80fd5b506100ed60048036038101906100e89190610887565b61023c565b005b3480156100fa575f80fd5b50610103610330565b604051610110919061096b565b60405180910390f35b610133600480360381019061012e9190610984565b610354565b005b348015610140575f80fd5b506101496104cd565b604051610156919061076d565b60405180910390f35b34801561016a575f80fd5b50610173610559565b604051610180919061076d565b60405180910390f35b5f7f0000000000000000000000000000000000000000000000000000000000000000905090565b600180546101bd90610a61565b80601f01602080910402602001604051908101604052809291908181526020018280546101e990610a61565b80156102345780601f1061020b57610100808354040283529160200191610234565b820191905f5260205f20905b81548152906001019060200180831161021757829003601f168201915b505050505081565b5f828260405161024d929190610acd565b6040518091039020905061025f610189565b73ffffffffffffffffffffffffffffffffffffffff16635f6970c38989898989876040518763ffffffff1660e01b81526004016102a196959493929190610b20565b6020604051808303815f875af11580156102bd573d5f803e3d5ffd5b505050506040513d601f19601f820116820180604052508101906102e19190610baa565b610317576040517f500c44b400000000000000000000000000000000000000000000000000000000815260040160405180910390fd5b610326888888888888886105e4565b5050505050505050565b7f000000000000000000000000000000000000000000000000000000000000000081565b5f3411610396576040517f08c379a000000000000000000000000000000000000000000000000000000000815260040161038d90610c1f565b60405180910390fd5b5f82826040516020016103aa929190610c3d565b60405160208183030381529060405290507f000000000000000000000000000000000000000000000000000000000000000073ffffffffffffffffffffffffffffffffffffffff16630c93e3bb34308a8a8a8a88336040518963ffffffff1660e01b81526004016104219796959493929190610cd1565b5f604051808303818588803b158015610438575f80fd5b505af115801561044a573d5f803e3d5ffd5b5050505050610457610189565b73ffffffffffffffffffffffffffffffffffffffff16631c92115f88888888866040518663ffffffff1660e01b8152600401610497959493929190610d3b565b5f604051808303815f87803b1580156104ae575f80fd5b505af11580156104c0573d5f803e3d5ffd5b5050505050505050505050565b600280546104da90610a61565b80601f016020809104026020016040519081016040528092919081815260200182805461050690610a61565b80156105515780601f1061052857610100808354040283529160200191610551565b820191905f5260205f20905b81548152906001019060200180831161053457829003601f168201915b505050505081565b5f805461056590610a61565b80601f016020809104026020016040519081016040528092919081815260200182805461059190610a61565b80156105dc5780601f106105b3576101008083540402835291602001916105dc565b820191905f5260205f20905b8154815290600101906020018083116105bf57829003601f168201915b505050505081565b81818101906105f39190610ea3565b5f90816106009190611087565b50858560019182610612929190611160565b50838360029182610624929190611160565b507ff2693fb07ee2135b1b5a6bcf8b3322050693da3a1e6ba260799a25612f142a9b8760025f604051610659939291906112ae565b60405180910390a150505050505050565b5f73ffffffffffffffffffffffffffffffffffffffff82169050919050565b5f819050919050565b5f6106ac6106a76106a28461066a565b610689565b61066a565b9050919050565b5f6106bd82610692565b9050919050565b5f6106ce826106b3565b9050919050565b6106de816106c4565b82525050565b5f6020820190506106f75f8301846106d5565b92915050565b5f81519050919050565b5f82825260208201905092915050565b8281835e5f83830152505050565b5f601f19601f8301169050919050565b5f61073f826106fd565b6107498185610707565b9350610759818560208601610717565b61076281610725565b840191505092915050565b5f6020820190508181035f8301526107858184610735565b905092915050565b5f604051905090565b5f80fd5b5f80fd5b5f819050919050565b6107b08161079e565b81146107ba575f80fd5b50565b5f813590506107cb816107a7565b92915050565b5f80fd5b5f80fd5b5f80fd5b5f8083601f8401126107f2576107f16107d1565b5b8235905067ffffffffffffffff81111561080f5761080e6107d5565b5b60208301915083600182028301111561082b5761082a6107d9565b5b9250929050565b5f8083601f840112610847576108466107d1565b5b8235905067ffffffffffffffff811115610864576108636107d5565b5b6020830191508360018202830111156108805761087f6107d9565b5b9250929050565b5f805f805f805f6080888a0312156108a2576108a1610796565b5b5f6108af8a828b016107bd565b975050602088013567ffffffffffffffff8111156108d0576108cf61079a565b5b6108dc8a828b016107dd565b9650965050604088013567ffffffffffffffff8111156108ff576108fe61079a565b5b61090b8a828b016107dd565b9450945050606088013567ffffffffffffffff81111561092e5761092d61079a565b5b61093a8a828b01610832565b925092505092959891949750929550565b5f610955826106b3565b9050919050565b6109658161094b565b82525050565b5f60208201905061097e5f83018461095c565b92915050565b5f805f805f806060878903121561099e5761099d610796565b5b5f87013567ffffffffffffffff8111156109bb576109ba61079a565b5b6109c789828a016107dd565b9650965050602087013567ffffffffffffffff8111156109ea576109e961079a565b5b6109f689828a016107dd565b9450945050604087013567ffffffffffffffff811115610a1957610a1861079a565b5b610a2589828a016107dd565b92509250509295509295509295565b7f4e487b71000000000000000000000000000000000000000000000000000000005f52602260045260245ffd5b5f6002820490506001821680610a7857607f821691505b602082108103610a8b57610a8a610a34565b5b50919050565b5f81905092915050565b828183375f83830152505050565b5f610ab48385610a91565b9350610ac1838584610a9b565b82840190509392505050565b5f610ad9828486610aa9565b91508190509392505050565b610aee8161079e565b82525050565b5f610aff8385610707565b9350610b0c838584610a9b565b610b1583610725565b840190509392505050565b5f608082019050610b335f830189610ae5565b8181036020830152610b46818789610af4565b90508181036040830152610b5b818587610af4565b9050610b6a6060830184610ae5565b979650505050505050565b5f8115159050919050565b610b8981610b75565b8114610b93575f80fd5b50565b5f81519050610ba481610b80565b92915050565b5f60208284031215610bbf57610bbe610796565b5b5f610bcc84828501610b96565b91505092915050565b7f476173207061796d656e742069732072657175697265640000000000000000005f82015250565b5f610c09601783610707565b9150610c1482610bd5565b602082019050919050565b5f6020820190508181035f830152610c3681610bfd565b9050919050565b5f6020820190508181035f830152610c56818486610af4565b90509392505050565b5f610c698261066a565b9050919050565b610c7981610c5f565b82525050565b5f81519050919050565b5f82825260208201905092915050565b5f610ca382610c7f565b610cad8185610c89565b9350610cbd818560208601610717565b610cc681610725565b840191505092915050565b5f60a082019050610ce45f83018a610c70565b8181036020830152610cf781888a610af4565b90508181036040830152610d0c818688610af4565b90508181036060830152610d208185610c99565b9050610d2f6080830184610c70565b98975050505050505050565b5f6060820190508181035f830152610d54818789610af4565b90508181036020830152610d69818587610af4565b90508181036040830152610d7d8184610c99565b90509695505050505050565b5f80fd5b7f4e487b71000000000000000000000000000000000000000000000000000000005f52604160045260245ffd5b610dc382610725565b810181811067ffffffffffffffff82111715610de257610de1610d8d565b5b80604052505050565b5f610df461078d565b9050610e008282610dba565b919050565b5f67ffffffffffffffff821115610e1f57610e1e610d8d565b5b610e2882610725565b9050602081019050919050565b5f610e47610e4284610e05565b610deb565b905082815260208101848484011115610e6357610e62610d89565b5b610e6e848285610a9b565b509392505050565b5f82601f830112610e8a57610e896107d1565b5b8135610e9a848260208601610e35565b91505092915050565b5f60208284031215610eb857610eb7610796565b5b5f82013567ffffffffffffffff811115610ed557610ed461079a565b5b610ee184828501610e76565b91505092915050565b5f819050815f5260205f209050919050565b5f6020601f8301049050919050565b5f82821b905092915050565b5f60088302610f467fffffffffffffffffffffffffffffffffffffffffffffffffffffffffffffffff82610f0b565b610f508683610f0b565b95508019841693508086168417925050509392505050565b5f819050919050565b5f610f8b610f86610f8184610f68565b610689565b610f68565b9050919050565b5f819050919050565b610fa483610f71565b610fb8610fb082610f92565b848454610f17565b825550505050565b5f90565b610fcc610fc0565b610fd7818484610f9b565b505050565b5b81811015610ffa57610fef5f82610fc4565b600181019050610fdd565b5050565b601f82111561103f5761101081610eea565b61101984610efc565b81016020851015611028578190505b61103c61103485610efc565b830182610fdc565b50505b505050565b5f82821c905092915050565b5f61105f5f1984600802611044565b1980831691505092915050565b5f6110778383611050565b9150826002028217905092915050565b611090826106fd565b67ffffffffffffffff8111156110a9576110a8610d8d565b5b6110b38254610a61565b6110be828285610ffe565b5f60209050601f8311600181146110ef575f84156110dd578287015190505b6110e7858261106c565b86555061114e565b601f1984166110fd86610eea565b5f5b82811015611124578489015182556001820191506020850194506020810190506110ff565b86831015611141578489015161113d601f891682611050565b8355505b6001600288020188555050505b505050505050565b5f82905092915050565b61116a8383611156565b67ffffffffffffffff81111561118357611182610d8d565b5b61118d8254610a61565b611198828285610ffe565b5f601f8311600181146111c5575f84156111b3578287013590505b6111bd858261106c565b865550611224565b601f1984166111d386610eea565b5f5b828110156111fa578489013582556001820191506020850194506020810190506111d5565b868310156112175784890135611213601f891682611050565b8355505b6001600288020188555050505b50505050505050565b5f815461123981610a61565b6112438186610707565b9450600182165f811461125d5760018114611273576112a5565b60ff1983168652811515602002860193506112a5565b61127c85610eea565b5f5b8381101561129d5781548189015260018201915060208101905061127e565b808801955050505b50505092915050565b5f6060820190506112c15f830186610ae5565b81810360208301526112d3818561122d565b905081810360408301526112e7818461122d565b905094935050505056fea2646970667358221220f1a8cd8b90a3178f0797b0995f2180d7f7b792fd377aead3f47c9d8d09f3fd5464736f6c634300081a0033",
					"opcodes": "PUSH1 0xC0 PUSH1 0x40 MSTORE CALLVALUE DUP1 ISZERO PUSH2 0xF JUMPI PUSH0 DUP1 REVERT JUMPDEST POP PUSH1 0x40 MLOAD PUSH2 0x14F2 CODESIZE SUB DUP1 PUSH2 0x14F2 DUP4 CODECOPY DUP2 DUP2 ADD PUSH1 0x40 MSTORE DUP2 ADD SWAP1 PUSH2 0x31 SWAP2 SWAP1 PUSH2 0x165 JUMP JUMPDEST DUP2 PUSH0 PUSH20 0xFFFFFFFFFFFFFFFFFFFFFFFFFFFFFFFFFFFFFFFF AND DUP2 PUSH20 0xFFFFFFFFFFFFFFFFFFFFFFFFFFFFFFFFFFFFFFFF AND SUB PUSH2 0x97 JUMPI PUSH1 0x40 MLOAD PUSH32 0xE6C4247B00000000000000000000000000000000000000000000000000000000 DUP2 MSTORE PUSH1 0x4 ADD PUSH1 0x40 MLOAD DUP1 SWAP2 SUB SWAP1 REVERT JUMPDEST DUP1 PUSH20 0xFFFFFFFFFFFFFFFFFFFFFFFFFFFFFFFFFFFFFFFF AND PUSH1 0x80 DUP2 PUSH20 0xFFFFFFFFFFFFFFFFFFFFFFFFFFFFFFFFFFFFFFFF AND DUP2 MSTORE POP POP POP DUP1 PUSH20 0xFFFFFFFFFFFFFFFFFFFFFFFFFFFFFFFFFFFFFFFF AND PUSH1 0xA0 DUP2 PUSH20 0xFFFFFFFFFFFFFFFFFFFFFFFFFFFFFFFFFFFFFFFF AND DUP2 MSTORE POP POP POP POP PUSH2 0x1A3 JUMP JUMPDEST PUSH0 DUP1 REVERT JUMPDEST PUSH0 PUSH20 0xFFFFFFFFFFFFFFFFFFFFFFFFFFFFFFFFFFFFFFFF DUP3 AND SWAP1 POP SWAP2 SWAP1 POP JUMP JUMPDEST PUSH0 PUSH2 0x134 DUP3 PUSH2 0x10B JUMP JUMPDEST SWAP1 POP SWAP2 SWAP1 POP JUMP JUMPDEST PUSH2 0x144 DUP2 PUSH2 0x12A JUMP JUMPDEST DUP2 EQ PUSH2 0x14E JUMPI PUSH0 DUP1 REVERT JUMPDEST POP JUMP JUMPDEST PUSH0 DUP2 MLOAD SWAP1 POP PUSH2 0x15F DUP2 PUSH2 0x13B JUMP JUMPDEST SWAP3 SWAP2 POP POP JUMP JUMPDEST PUSH0 DUP1 PUSH1 0x40 DUP4 DUP6 SUB SLT ISZERO PUSH2 0x17B JUMPI PUSH2 0x17A PUSH2 0x107 JUMP JUMPDEST JUMPDEST PUSH0 PUSH2 0x188 DUP6 DUP3 DUP7 ADD PUSH2 0x151 JUMP JUMPDEST SWAP3 POP POP PUSH1 0x20 PUSH2 0x199 DUP6 DUP3 DUP7 ADD PUSH2 0x151 JUMP JUMPDEST SWAP2 POP POP SWAP3 POP SWAP3 SWAP1 POP JUMP JUMPDEST PUSH1 0x80 MLOAD PUSH1 0xA0 MLOAD PUSH2 0x1327 PUSH2 0x1CB PUSH0 CODECOPY PUSH0 DUP2 DUP2 PUSH2 0x332 ADD MSTORE PUSH2 0x3BD ADD MSTORE PUSH0 PUSH2 0x18C ADD MSTORE PUSH2 0x1327 PUSH0 RETURN INVALID PUSH1 0x80 PUSH1 0x40 MSTORE PUSH1 0x4 CALLDATASIZE LT PUSH2 0x6F JUMPI PUSH0 CALLDATALOAD PUSH1 0xE0 SHR DUP1 PUSH4 0x6A22D8CC GT PUSH2 0x4D JUMPI DUP1 PUSH4 0x6A22D8CC EQ PUSH2 0xEF JUMPI DUP1 PUSH4 0x80D32697 EQ PUSH2 0x119 JUMPI DUP1 PUSH4 0xB0FA8444 EQ PUSH2 0x135 JUMPI DUP1 PUSH4 0xE21F37CE EQ PUSH2 0x15F JUMPI PUSH2 0x6F JUMP JUMPDEST DUP1 PUSH4 0x116191B6 EQ PUSH2 0x73 JUMPI DUP1 PUSH4 0x1C6FFA46 EQ PUSH2 0x9D JUMPI DUP1 PUSH4 0x49160658 EQ PUSH2 0xC7 JUMPI JUMPDEST PUSH0 DUP1 REVERT JUMPDEST CALLVALUE DUP1 ISZERO PUSH2 0x7E JUMPI PUSH0 DUP1 REVERT JUMPDEST POP PUSH2 0x87 PUSH2 0x189 JUMP JUMPDEST PUSH1 0x40 MLOAD PUSH2 0x94 SWAP2 SWAP1 PUSH2 0x6E4 JUMP JUMPDEST PUSH1 0x40 MLOAD DUP1 SWAP2 SUB SWAP1 RETURN JUMPDEST CALLVALUE DUP1 ISZERO PUSH2 0xA8 JUMPI PUSH0 DUP1 REVERT JUMPDEST POP PUSH2 0xB1 PUSH2 0x1B0 JUMP JUMPDEST PUSH1 0x40 MLOAD PUSH2 0xBE SWAP2 SWAP1 PUSH2 0x76D JUMP JUMPDEST PUSH1 0x40 MLOAD DUP1 SWAP2 SUB SWAP1 RETURN JUMPDEST CALLVALUE DUP1 ISZERO PUSH2 0xD2 JUMPI PUSH0 DUP1 REVERT JUMPDEST POP PUSH2 0xED PUSH1 0x4 DUP1 CALLDATASIZE SUB DUP2 ADD SWAP1 PUSH2 0xE8 SWAP2 SWAP1 PUSH2 0x887 JUMP JUMPDEST PUSH2 0x23C JUMP JUMPDEST STOP JUMPDEST CALLVALUE DUP1 ISZERO PUSH2 0xFA JUMPI PUSH0 DUP1 REVERT JUMPDEST POP PUSH2 0x103 PUSH2 0x330 JUMP JUMPDEST PUSH1 0x40 MLOAD PUSH2 0x110 SWAP2 SWAP1 PUSH2 0x96B JUMP JUMPDEST PUSH1 0x40 MLOAD DUP1 SWAP2 SUB SWAP1 RETURN JUMPDEST PUSH2 0x133 PUSH1 0x4 DUP1 CALLDATASIZE SUB DUP2 ADD SWAP1 PUSH2 0x12E SWAP2 SWAP1 PUSH2 0x984 JUMP JUMPDEST PUSH2 0x354 JUMP JUMPDEST STOP JUMPDEST CALLVALUE DUP1 ISZERO PUSH2 0x140 JUMPI PUSH0 DUP1 REVERT JUMPDEST POP PUSH2 0x149 PUSH2 0x4CD JUMP JUMPDEST PUSH1 0x40 MLOAD PUSH2 0x156 SWAP2 SWAP1 PUSH2 0x76D JUMP JUMPDEST PUSH1 0x40 MLOAD DUP1 SWAP2 SUB SWAP1 RETURN JUMPDEST CALLVALUE DUP1 ISZERO PUSH2 0x16A JUMPI PUSH0 DUP1 REVERT JUMPDEST POP PUSH2 0x173 PUSH2 0x559 JUMP JUMPDEST PUSH1 0x40 MLOAD PUSH2 0x180 SWAP2 SWAP1 PUSH2 0x76D JUMP JUMPDEST PUSH1 0x40 MLOAD DUP1 SWAP2 SUB SWAP1 RETURN JUMPDEST PUSH0 PUSH32 0x0 SWAP1 POP SWAP1 JUMP JUMPDEST PUSH1 0x1 DUP1 SLOAD PUSH2 0x1BD SWAP1 PUSH2 0xA61 JUMP JUMPDEST DUP1 PUSH1 0x1F ADD PUSH1 0x20 DUP1 SWAP2 DIV MUL PUSH1 0x20 ADD PUSH1 0x40 MLOAD SWAP1 DUP2 ADD PUSH1 0x40 MSTORE DUP1 SWAP3 SWAP2 SWAP1 DUP2 DUP2 MSTORE PUSH1 0x20 ADD DUP3 DUP1 SLOAD PUSH2 0x1E9 SWAP1 PUSH2 0xA61 JUMP JUMPDEST DUP1 ISZERO PUSH2 0x234 JUMPI DUP1 PUSH1 0x1F LT PUSH2 0x20B JUMPI PUSH2 0x100 DUP1 DUP4 SLOAD DIV MUL DUP4 MSTORE SWAP2 PUSH1 0x20 ADD SWAP2 PUSH2 0x234 JUMP JUMPDEST DUP3 ADD SWAP2 SWAP1 PUSH0 MSTORE PUSH1 0x20 PUSH0 KECCAK256 SWAP1 JUMPDEST DUP2 SLOAD DUP2 MSTORE SWAP1 PUSH1 0x1 ADD SWAP1 PUSH1 0x20 ADD DUP1 DUP4 GT PUSH2 0x217 JUMPI DUP3 SWAP1 SUB PUSH1 0x1F AND DUP3 ADD SWAP2 JUMPDEST POP POP POP POP POP DUP2 JUMP JUMPDEST PUSH0 DUP3 DUP3 PUSH1 0x40 MLOAD PUSH2 0x24D SWAP3 SWAP2 SWAP1 PUSH2 0xACD JUMP JUMPDEST PUSH1 0x40 MLOAD DUP1 SWAP2 SUB SWAP1 KECCAK256 SWAP1 POP PUSH2 0x25F PUSH2 0x189 JUMP JUMPDEST PUSH20 0xFFFFFFFFFFFFFFFFFFFFFFFFFFFFFFFFFFFFFFFF AND PUSH4 0x5F6970C3 DUP10 DUP10 DUP10 DUP10 DUP10 DUP8 PUSH1 0x40 MLOAD DUP8 PUSH4 0xFFFFFFFF AND PUSH1 0xE0 SHL DUP2 MSTORE PUSH1 0x4 ADD PUSH2 0x2A1 SWAP7 SWAP6 SWAP5 SWAP4 SWAP3 SWAP2 SWAP1 PUSH2 0xB20 JUMP JUMPDEST PUSH1 0x20 PUSH1 0x40 MLOAD DUP1 DUP4 SUB DUP2 PUSH0 DUP8 GAS CALL ISZERO DUP1 ISZERO PUSH2 0x2BD JUMPI RETURNDATASIZE PUSH0 DUP1 RETURNDATACOPY RETURNDATASIZE PUSH0 REVERT JUMPDEST POP POP POP POP PUSH1 0x40 MLOAD RETURNDATASIZE PUSH1 0x1F NOT PUSH1 0x1F DUP3 ADD AND DUP3 ADD DUP1 PUSH1 0x40 MSTORE POP DUP2 ADD SWAP1 PUSH2 0x2E1 SWAP2 SWAP1 PUSH2 0xBAA JUMP JUMPDEST PUSH2 0x317 JUMPI PUSH1 0x40 MLOAD PUSH32 0x500C44B400000000000000000000000000000000000000000000000000000000 DUP2 MSTORE PUSH1 0x4 ADD PUSH1 0x40 MLOAD DUP1 SWAP2 SUB SWAP1 REVERT JUMPDEST PUSH2 0x326 DUP9 DUP9 DUP9 DUP9 DUP9 DUP9 DUP9 PUSH2 0x5E4 JUMP JUMPDEST POP POP POP POP POP POP POP POP JUMP JUMPDEST PUSH32 0x0 DUP2 JUMP JUMPDEST PUSH0 CALLVALUE GT PUSH2 0x396 JUMPI PUSH1 0x40 MLOAD PUSH32 0x8C379A000000000000000000000000000000000000000000000000000000000 DUP2 MSTORE PUSH1 0x4 ADD PUSH2 0x38D SWAP1 PUSH2 0xC1F JUMP JUMPDEST PUSH1 0x40 MLOAD DUP1 SWAP2 SUB SWAP1 REVERT JUMPDEST PUSH0 DUP3 DUP3 PUSH1 0x40 MLOAD PUSH1 0x20 ADD PUSH2 0x3AA SWAP3 SWAP2 SWAP1 PUSH2 0xC3D JUMP JUMPDEST PUSH1 0x40 MLOAD PUSH1 0x20 DUP2 DUP4 SUB SUB DUP2 MSTORE SWAP1 PUSH1 0x40 MSTORE SWAP1 POP PUSH32 0x0 PUSH20 0xFFFFFFFFFFFFFFFFFFFFFFFFFFFFFFFFFFFFFFFF AND PUSH4 0xC93E3BB CALLVALUE ADDRESS DUP11 DUP11 DUP11 DUP11 DUP9 CALLER PUSH1 0x40 MLOAD DUP10 PUSH4 0xFFFFFFFF AND PUSH1 0xE0 SHL DUP2 MSTORE PUSH1 0x4 ADD PUSH2 0x421 SWAP8 SWAP7 SWAP6 SWAP5 SWAP4 SWAP3 SWAP2 SWAP1 PUSH2 0xCD1 JUMP JUMPDEST PUSH0 PUSH1 0x40 MLOAD DUP1 DUP4 SUB DUP2 DUP6 DUP9 DUP1 EXTCODESIZE ISZERO DUP1 ISZERO PUSH2 0x438 JUMPI PUSH0 DUP1 REVERT JUMPDEST POP GAS CALL ISZERO DUP1 ISZERO PUSH2 0x44A JUMPI RETURNDATASIZE PUSH0 DUP1 RETURNDATACOPY RETURNDATASIZE PUSH0 REVERT JUMPDEST POP POP POP POP POP PUSH2 0x457 PUSH2 0x189 JUMP JUMPDEST PUSH20 0xFFFFFFFFFFFFFFFFFFFFFFFFFFFFFFFFFFFFFFFF AND PUSH4 0x1C92115F DUP9 DUP9 DUP9 DUP9 DUP7 PUSH1 0x40 MLOAD DUP7 PUSH4 0xFFFFFFFF AND PUSH1 0xE0 SHL DUP2 MSTORE PUSH1 0x4 ADD PUSH2 0x497 SWAP6 SWAP5 SWAP4 SWAP3 SWAP2 SWAP1 PUSH2 0xD3B JUMP JUMPDEST PUSH0 PUSH1 0x40 MLOAD DUP1 DUP4 SUB DUP2 PUSH0 DUP8 DUP1 EXTCODESIZE ISZERO DUP1 ISZERO PUSH2 0x4AE JUMPI PUSH0 DUP1 REVERT JUMPDEST POP GAS CALL ISZERO DUP1 ISZERO PUSH2 0x4C0 JUMPI RETURNDATASIZE PUSH0 DUP1 RETURNDATACOPY RETURNDATASIZE PUSH0 REVERT JUMPDEST POP POP POP POP POP POP POP POP POP POP POP JUMP JUMPDEST PUSH1 0x2 DUP1 SLOAD PUSH2 0x4DA SWAP1 PUSH2 0xA61 JUMP JUMPDEST DUP1 PUSH1 0x1F ADD PUSH1 0x20 DUP1 SWAP2 DIV MUL PUSH1 0x20 ADD PUSH1 0x40 MLOAD SWAP1 DUP2 ADD PUSH1 0x40 MSTORE DUP1 SWAP3 SWAP2 SWAP1 DUP2 DUP2 MSTORE PUSH1 0x20 ADD DUP3 DUP1 SLOAD PUSH2 0x506 SWAP1 PUSH2 0xA61 JUMP JUMPDEST DUP1 ISZERO PUSH2 0x551 JUMPI DUP1 PUSH1 0x1F LT PUSH2 0x528 JUMPI PUSH2 0x100 DUP1 DUP4 SLOAD DIV MUL DUP4 MSTORE SWAP2 PUSH1 0x20 ADD SWAP2 PUSH2 0x551 JUMP JUMPDEST DUP3 ADD SWAP2 SWAP1 PUSH0 MSTORE PUSH1 0x20 PUSH0 KECCAK256 SWAP1 JUMPDEST DUP2 SLOAD DUP2 MSTORE SWAP1 PUSH1 0x1 ADD SWAP1 PUSH1 0x20 ADD DUP1 DUP4 GT PUSH2 0x534 JUMPI DUP3 SWAP1 SUB PUSH1 0x1F AND DUP3 ADD SWAP2 JUMPDEST POP POP POP POP POP DUP2 JUMP JUMPDEST PUSH0 DUP1 SLOAD PUSH2 0x565 SWAP1 PUSH2 0xA61 JUMP JUMPDEST DUP1 PUSH1 0x1F ADD PUSH1 0x20 DUP1 SWAP2 DIV MUL PUSH1 0x20 ADD PUSH1 0x40 MLOAD SWAP1 DUP2 ADD PUSH1 0x40 MSTORE DUP1 SWAP3 SWAP2 SWAP1 DUP2 DUP2 MSTORE PUSH1 0x20 ADD DUP3 DUP1 SLOAD PUSH2 0x591 SWAP1 PUSH2 0xA61 JUMP JUMPDEST DUP1 ISZERO PUSH2 0x5DC JUMPI DUP1 PUSH1 0x1F LT PUSH2 0x5B3 JUMPI PUSH2 0x100 DUP1 DUP4 SLOAD DIV MUL DUP4 MSTORE SWAP2 PUSH1 0x20 ADD SWAP2 PUSH2 0x5DC JUMP JUMPDEST DUP3 ADD SWAP2 SWAP1 PUSH0 MSTORE PUSH1 0x20 PUSH0 KECCAK256 SWAP1 JUMPDEST DUP2 SLOAD DUP2 MSTORE SWAP1 PUSH1 0x1 ADD SWAP1 PUSH1 0x20 ADD DUP1 DUP4 GT PUSH2 0x5BF JUMPI DUP3 SWAP1 SUB PUSH1 0x1F AND DUP3 ADD SWAP2 JUMPDEST POP POP POP POP POP DUP2 JUMP JUMPDEST DUP2 DUP2 DUP2 ADD SWAP1 PUSH2 0x5F3 SWAP2 SWAP1 PUSH2 0xEA3 JUMP JUMPDEST PUSH0 SWAP1 DUP2 PUSH2 0x600 SWAP2 SWAP1 PUSH2 0x1087 JUMP JUMPDEST POP DUP6 DUP6 PUSH1 0x1 SWAP2 DUP3 PUSH2 0x612 SWAP3 SWAP2 SWAP1 PUSH2 0x1160 JUMP JUMPDEST POP DUP4 DUP4 PUSH1 0x2 SWAP2 DUP3 PUSH2 0x624 SWAP3 SWAP2 SWAP1 PUSH2 0x1160 JUMP JUMPDEST POP PUSH32 0xF2693FB07EE2135B1B5A6BCF8B3322050693DA3A1E6BA260799A25612F142A9B DUP8 PUSH1 0x2 PUSH0 PUSH1 0x40 MLOAD PUSH2 0x659 SWAP4 SWAP3 SWAP2 SWAP1 PUSH2 0x12AE JUMP JUMPDEST PUSH1 0x40 MLOAD DUP1 SWAP2 SUB SWAP1 LOG1 POP POP POP POP POP POP POP JUMP JUMPDEST PUSH0 PUSH20 0xFFFFFFFFFFFFFFFFFFFFFFFFFFFFFFFFFFFFFFFF DUP3 AND SWAP1 POP SWAP2 SWAP1 POP JUMP JUMPDEST PUSH0 DUP2 SWAP1 POP SWAP2 SWAP1 POP JUMP JUMPDEST PUSH0 PUSH2 0x6AC PUSH2 0x6A7 PUSH2 0x6A2 DUP5 PUSH2 0x66A JUMP JUMPDEST PUSH2 0x689 JUMP JUMPDEST PUSH2 0x66A JUMP JUMPDEST SWAP1 POP SWAP2 SWAP1 POP JUMP JUMPDEST PUSH0 PUSH2 0x6BD DUP3 PUSH2 0x692 JUMP JUMPDEST SWAP1 POP SWAP2 SWAP1 POP JUMP JUMPDEST PUSH0 PUSH2 0x6CE DUP3 PUSH2 0x6B3 JUMP JUMPDEST SWAP1 POP SWAP2 SWAP1 POP JUMP JUMPDEST PUSH2 0x6DE DUP2 PUSH2 0x6C4 JUMP JUMPDEST DUP3 MSTORE POP POP JUMP JUMPDEST PUSH0 PUSH1 0x20 DUP3 ADD SWAP1 POP PUSH2 0x6F7 PUSH0 DUP4 ADD DUP5 PUSH2 0x6D5 JUMP JUMPDEST SWAP3 SWAP2 POP POP JUMP JUMPDEST PUSH0 DUP2 MLOAD SWAP1 POP SWAP2 SWAP1 POP JUMP JUMPDEST PUSH0 DUP3 DUP3 MSTORE PUSH1 0x20 DUP3 ADD SWAP1 POP SWAP3 SWAP2 POP POP JUMP JUMPDEST DUP3 DUP2 DUP4 MCOPY PUSH0 DUP4 DUP4 ADD MSTORE POP POP POP JUMP JUMPDEST PUSH0 PUSH1 0x1F NOT PUSH1 0x1F DUP4 ADD AND SWAP1 POP SWAP2 SWAP1 POP JUMP JUMPDEST PUSH0 PUSH2 0x73F DUP3 PUSH2 0x6FD JUMP JUMPDEST PUSH2 0x749 DUP2 DUP6 PUSH2 0x707 JUMP JUMPDEST SWAP4 POP PUSH2 0x759 DUP2 DUP6 PUSH1 0x20 DUP7 ADD PUSH2 0x717 JUMP JUMPDEST PUSH2 0x762 DUP2 PUSH2 0x725 JUMP JUMPDEST DUP5 ADD SWAP2 POP POP SWAP3 SWAP2 POP POP JUMP JUMPDEST PUSH0 PUSH1 0x20 DUP3 ADD SWAP1 POP DUP2 DUP2 SUB PUSH0 DUP4 ADD MSTORE PUSH2 0x785 DUP2 DUP5 PUSH2 0x735 JUMP JUMPDEST SWAP1 POP SWAP3 SWAP2 POP POP JUMP JUMPDEST PUSH0 PUSH1 0x40 MLOAD SWAP1 POP SWAP1 JUMP JUMPDEST PUSH0 DUP1 REVERT JUMPDEST PUSH0 DUP1 REVERT JUMPDEST PUSH0 DUP2 SWAP1 POP SWAP2 SWAP1 POP JUMP JUMPDEST PUSH2 0x7B0 DUP2 PUSH2 0x79E JUMP JUMPDEST DUP2 EQ PUSH2 0x7BA JUMPI PUSH0 DUP1 REVERT JUMPDEST POP JUMP JUMPDEST PUSH0 DUP2 CALLDATALOAD SWAP1 POP PUSH2 0x7CB DUP2 PUSH2 0x7A7 JUMP JUMPDEST SWAP3 SWAP2 POP POP JUMP JUMPDEST PUSH0 DUP1 REVERT JUMPDEST PUSH0 DUP1 REVERT JUMPDEST PUSH0 DUP1 REVERT JUMPDEST PUSH0 DUP1 DUP4 PUSH1 0x1F DUP5 ADD SLT PUSH2 0x7F2 JUMPI PUSH2 0x7F1 PUSH2 0x7D1 JUMP JUMPDEST JUMPDEST DUP3 CALLDATALOAD SWAP1 POP PUSH8 0xFFFFFFFFFFFFFFFF DUP2 GT ISZERO PUSH2 0x80F JUMPI PUSH2 0x80E PUSH2 0x7D5 JUMP JUMPDEST JUMPDEST PUSH1 0x20 DUP4 ADD SWAP2 POP DUP4 PUSH1 0x1 DUP3 MUL DUP4 ADD GT ISZERO PUSH2 0x82B JUMPI PUSH2 0x82A PUSH2 0x7D9 JUMP JUMPDEST JUMPDEST SWAP3 POP SWAP3 SWAP1 POP JUMP JUMPDEST PUSH0 DUP1 DUP4 PUSH1 0x1F DUP5 ADD SLT PUSH2 0x847 JUMPI PUSH2 0x846 PUSH2 0x7D1 JUMP JUMPDEST JUMPDEST DUP3 CALLDATALOAD SWAP1 POP PUSH8 0xFFFFFFFFFFFFFFFF DUP2 GT ISZERO PUSH2 0x864 JUMPI PUSH2 0x863 PUSH2 0x7D5 JUMP JUMPDEST JUMPDEST PUSH1 0x20 DUP4 ADD SWAP2 POP DUP4 PUSH1 0x1 DUP3 MUL DUP4 ADD GT ISZERO PUSH2 0x880 JUMPI PUSH2 0x87F PUSH2 0x7D9 JUMP JUMPDEST JUMPDEST SWAP3 POP SWAP3 SWAP1 POP JUMP JUMPDEST PUSH0 DUP1 PUSH0 DUP1 PUSH0 DUP1 PUSH0 PUSH1 0x80 DUP9 DUP11 SUB SLT ISZERO PUSH2 0x8A2 JUMPI PUSH2 0x8A1 PUSH2 0x796 JUMP JUMPDEST JUMPDEST PUSH0 PUSH2 0x8AF DUP11 DUP3 DUP12 ADD PUSH2 0x7BD JUMP JUMPDEST SWAP8 POP POP PUSH1 0x20 DUP9 ADD CALLDATALOAD PUSH8 0xFFFFFFFFFFFFFFFF DUP2 GT ISZERO PUSH2 0x8D0 JUMPI PUSH2 0x8CF PUSH2 0x79A JUMP JUMPDEST JUMPDEST PUSH2 0x8DC DUP11 DUP3 DUP12 ADD PUSH2 0x7DD JUMP JUMPDEST SWAP7 POP SWAP7 POP POP PUSH1 0x40 DUP9 ADD CALLDATALOAD PUSH8 0xFFFFFFFFFFFFFFFF DUP2 GT ISZERO PUSH2 0x8FF JUMPI PUSH2 0x8FE PUSH2 0x79A JUMP JUMPDEST JUMPDEST PUSH2 0x90B DUP11 DUP3 DUP12 ADD PUSH2 0x7DD JUMP JUMPDEST SWAP5 POP SWAP5 POP POP PUSH1 0x60 DUP9 ADD CALLDATALOAD PUSH8 0xFFFFFFFFFFFFFFFF DUP2 GT ISZERO PUSH2 0x92E JUMPI PUSH2 0x92D PUSH2 0x79A JUMP JUMPDEST JUMPDEST PUSH2 0x93A DUP11 DUP3 DUP12 ADD PUSH2 0x832 JUMP JUMPDEST SWAP3 POP SWAP3 POP POP SWAP3 SWAP6 SWAP9 SWAP2 SWAP5 SWAP8 POP SWAP3 SWAP6 POP JUMP JUMPDEST PUSH0 PUSH2 0x955 DUP3 PUSH2 0x6B3 JUMP JUMPDEST SWAP1 POP SWAP2 SWAP1 POP JUMP JUMPDEST PUSH2 0x965 DUP2 PUSH2 0x94B JUMP JUMPDEST DUP3 MSTORE POP POP JUMP JUMPDEST PUSH0 PUSH1 0x20 DUP3 ADD SWAP1 POP PUSH2 0x97E PUSH0 DUP4 ADD DUP5 PUSH2 0x95C JUMP JUMPDEST SWAP3 SWAP2 POP POP JUMP JUMPDEST PUSH0 DUP1 PUSH0 DUP1 PUSH0 DUP1 PUSH1 0x60 DUP8 DUP10 SUB SLT ISZERO PUSH2 0x99E JUMPI PUSH2 0x99D PUSH2 0x796 JUMP JUMPDEST JUMPDEST PUSH0 DUP8 ADD CALLDATALOAD PUSH8 0xFFFFFFFFFFFFFFFF DUP2 GT ISZERO PUSH2 0x9BB JUMPI PUSH2 0x9BA PUSH2 0x79A JUMP JUMPDEST JUMPDEST PUSH2 0x9C7 DUP10 DUP3 DUP11 ADD PUSH2 0x7DD JUMP JUMPDEST SWAP7 POP SWAP7 POP POP PUSH1 0x20 DUP8 ADD CALLDATALOAD PUSH8 0xFFFFFFFFFFFFFFFF DUP2 GT ISZERO PUSH2 0x9EA JUMPI PUSH2 0x9E9 PUSH2 0x79A JUMP JUMPDEST JUMPDEST PUSH2 0x9F6 DUP10 DUP3 DUP11 ADD PUSH2 0x7DD JUMP JUMPDEST SWAP5 POP SWAP5 POP POP PUSH1 0x40 DUP8 ADD CALLDATALOAD PUSH8 0xFFFFFFFFFFFFFFFF DUP2 GT ISZERO PUSH2 0xA19 JUMPI PUSH2 0xA18 PUSH2 0x79A JUMP JUMPDEST JUMPDEST PUSH2 0xA25 DUP10 DUP3 DUP11 ADD PUSH2 0x7DD JUMP JUMPDEST SWAP3 POP SWAP3 POP POP SWAP3 SWAP6 POP SWAP3 SWAP6 POP SWAP3 SWAP6 JUMP JUMPDEST PUSH32 0x4E487B7100000000000000000000000000000000000000000000000000000000 PUSH0 MSTORE PUSH1 0x22 PUSH1 0x4 MSTORE PUSH1 0x24 PUSH0 REVERT JUMPDEST PUSH0 PUSH1 0x2 DUP3 DIV SWAP1 POP PUSH1 0x1 DUP3 AND DUP1 PUSH2 0xA78 JUMPI PUSH1 0x7F DUP3 AND SWAP2 POP JUMPDEST PUSH1 0x20 DUP3 LT DUP2 SUB PUSH2 0xA8B JUMPI PUSH2 0xA8A PUSH2 0xA34 JUMP JUMPDEST JUMPDEST POP SWAP2 SWAP1 POP JUMP JUMPDEST PUSH0 DUP2 SWAP1 POP SWAP3 SWAP2 POP POP JUMP JUMPDEST DUP3 DUP2 DUP4 CALLDATACOPY PUSH0 DUP4 DUP4 ADD MSTORE POP POP POP JUMP JUMPDEST PUSH0 PUSH2 0xAB4 DUP4 DUP6 PUSH2 0xA91 JUMP JUMPDEST SWAP4 POP PUSH2 0xAC1 DUP4 DUP6 DUP5 PUSH2 0xA9B JUMP JUMPDEST DUP3 DUP5 ADD SWAP1 POP SWAP4 SWAP3 POP POP POP JUMP JUMPDEST PUSH0 PUSH2 0xAD9 DUP3 DUP5 DUP7 PUSH2 0xAA9 JUMP JUMPDEST SWAP2 POP DUP2 SWAP1 POP SWAP4 SWAP3 POP POP POP JUMP JUMPDEST PUSH2 0xAEE DUP2 PUSH2 0x79E JUMP JUMPDEST DUP3 MSTORE POP POP JUMP JUMPDEST PUSH0 PUSH2 0xAFF DUP4 DUP6 PUSH2 0x707 JUMP JUMPDEST SWAP4 POP PUSH2 0xB0C DUP4 DUP6 DUP5 PUSH2 0xA9B JUMP JUMPDEST PUSH2 0xB15 DUP4 PUSH2 0x725 JUMP JUMPDEST DUP5 ADD SWAP1 POP SWAP4 SWAP3 POP POP POP JUMP JUMPDEST PUSH0 PUSH1 0x80 DUP3 ADD SWAP1 POP PUSH2 0xB33 PUSH0 DUP4 ADD DUP10 PUSH2 0xAE5 JUMP JUMPDEST DUP2 DUP2 SUB PUSH1 0x20 DUP4 ADD MSTORE PUSH2 0xB46 DUP2 DUP8 DUP10 PUSH2 0xAF4 JUMP JUMPDEST SWAP1 POP DUP2 DUP2 SUB PUSH1 0x40 DUP4 ADD MSTORE PUSH2 0xB5B DUP2 DUP6 DUP8 PUSH2 0xAF4 JUMP JUMPDEST SWAP1 POP PUSH2 0xB6A PUSH1 0x60 DUP4 ADD DUP5 PUSH2 0xAE5 JUMP JUMPDEST SWAP8 SWAP7 POP POP POP POP POP POP POP JUMP JUMPDEST PUSH0 DUP2 ISZERO ISZERO SWAP1 POP SWAP2 SWAP1 POP JUMP JUMPDEST PUSH2 0xB89 DUP2 PUSH2 0xB75 JUMP JUMPDEST DUP2 EQ PUSH2 0xB93 JUMPI PUSH0 DUP1 REVERT JUMPDEST POP JUMP JUMPDEST PUSH0 DUP2 MLOAD SWAP1 POP PUSH2 0xBA4 DUP2 PUSH2 0xB80 JUMP JUMPDEST SWAP3 SWAP2 POP POP JUMP JUMPDEST PUSH0 PUSH1 0x20 DUP3 DUP5 SUB SLT ISZERO PUSH2 0xBBF JUMPI PUSH2 0xBBE PUSH2 0x796 JUMP JUMPDEST JUMPDEST PUSH0 PUSH2 0xBCC DUP5 DUP3 DUP6 ADD PUSH2 0xB96 JUMP JUMPDEST SWAP2 POP POP SWAP3 SWAP2 POP POP JUMP JUMPDEST PUSH32 0x476173207061796D656E74206973207265717569726564000000000000000000 PUSH0 DUP3 ADD MSTORE POP JUMP JUMPDEST PUSH0 PUSH2 0xC09 PUSH1 0x17 DUP4 PUSH2 0x707 JUMP JUMPDEST SWAP2 POP PUSH2 0xC14 DUP3 PUSH2 0xBD5 JUMP JUMPDEST PUSH1 0x20 DUP3 ADD SWAP1 POP SWAP2 SWAP1 POP JUMP JUMPDEST PUSH0 PUSH1 0x20 DUP3 ADD SWAP1 POP DUP2 DUP2 SUB PUSH0 DUP4 ADD MSTORE PUSH2 0xC36 DUP2 PUSH2 0xBFD JUMP JUMPDEST SWAP1 POP SWAP2 SWAP1 POP JUMP JUMPDEST PUSH0 PUSH1 0x20 DUP3 ADD SWAP1 POP DUP2 DUP2 SUB PUSH0 DUP4 ADD MSTORE PUSH2 0xC56 DUP2 DUP5 DUP7 PUSH2 0xAF4 JUMP JUMPDEST SWAP1 POP SWAP4 SWAP3 POP POP POP JUMP JUMPDEST PUSH0 PUSH2 0xC69 DUP3 PUSH2 0x66A JUMP JUMPDEST SWAP1 POP SWAP2 SWAP1 POP JUMP JUMPDEST PUSH2 0xC79 DUP2 PUSH2 0xC5F JUMP JUMPDEST DUP3 MSTORE POP POP JUMP JUMPDEST PUSH0 DUP2 MLOAD SWAP1 POP SWAP2 SWAP1 POP JUMP JUMPDEST PUSH0 DUP3 DUP3 MSTORE PUSH1 0x20 DUP3 ADD SWAP1 POP SWAP3 SWAP2 POP POP JUMP JUMPDEST PUSH0 PUSH2 0xCA3 DUP3 PUSH2 0xC7F JUMP JUMPDEST PUSH2 0xCAD DUP2 DUP6 PUSH2 0xC89 JUMP JUMPDEST SWAP4 POP PUSH2 0xCBD DUP2 DUP6 PUSH1 0x20 DUP7 ADD PUSH2 0x717 JUMP JUMPDEST PUSH2 0xCC6 DUP2 PUSH2 0x725 JUMP JUMPDEST DUP5 ADD SWAP2 POP POP SWAP3 SWAP2 POP POP JUMP JUMPDEST PUSH0 PUSH1 0xA0 DUP3 ADD SWAP1 POP PUSH2 0xCE4 PUSH0 DUP4 ADD DUP11 PUSH2 0xC70 JUMP JUMPDEST DUP2 DUP2 SUB PUSH1 0x20 DUP4 ADD MSTORE PUSH2 0xCF7 DUP2 DUP9 DUP11 PUSH2 0xAF4 JUMP JUMPDEST SWAP1 POP DUP2 DUP2 SUB PUSH1 0x40 DUP4 ADD MSTORE PUSH2 0xD0C DUP2 DUP7 DUP9 PUSH2 0xAF4 JUMP JUMPDEST SWAP1 POP DUP2 DUP2 SUB PUSH1 0x60 DUP4 ADD MSTORE PUSH2 0xD20 DUP2 DUP6 PUSH2 0xC99 JUMP JUMPDEST SWAP1 POP PUSH2 0xD2F PUSH1 0x80 DUP4 ADD DUP5 PUSH2 0xC70 JUMP JUMPDEST SWAP9 SWAP8 POP POP POP POP POP POP POP POP JUMP JUMPDEST PUSH0 PUSH1 0x60 DUP3 ADD SWAP1 POP DUP2 DUP2 SUB PUSH0 DUP4 ADD MSTORE PUSH2 0xD54 DUP2 DUP8 DUP10 PUSH2 0xAF4 JUMP JUMPDEST SWAP1 POP DUP2 DUP2 SUB PUSH1 0x20 DUP4 ADD MSTORE PUSH2 0xD69 DUP2 DUP6 DUP8 PUSH2 0xAF4 JUMP JUMPDEST SWAP1 POP DUP2 DUP2 SUB PUSH1 0x40 DUP4 ADD MSTORE PUSH2 0xD7D DUP2 DUP5 PUSH2 0xC99 JUMP JUMPDEST SWAP1 POP SWAP7 SWAP6 POP POP POP POP POP POP JUMP JUMPDEST PUSH0 DUP1 REVERT JUMPDEST PUSH32 0x4E487B7100000000000000000000000000000000000000000000000000000000 PUSH0 MSTORE PUSH1 0x41 PUSH1 0x4 MSTORE PUSH1 0x24 PUSH0 REVERT JUMPDEST PUSH2 0xDC3 DUP3 PUSH2 0x725 JUMP JUMPDEST DUP2 ADD DUP2 DUP2 LT PUSH8 0xFFFFFFFFFFFFFFFF DUP3 GT OR ISZERO PUSH2 0xDE2 JUMPI PUSH2 0xDE1 PUSH2 0xD8D JUMP JUMPDEST JUMPDEST DUP1 PUSH1 0x40 MSTORE POP POP POP JUMP JUMPDEST PUSH0 PUSH2 0xDF4 PUSH2 0x78D JUMP JUMPDEST SWAP1 POP PUSH2 0xE00 DUP3 DUP3 PUSH2 0xDBA JUMP JUMPDEST SWAP2 SWAP1 POP JUMP JUMPDEST PUSH0 PUSH8 0xFFFFFFFFFFFFFFFF DUP3 GT ISZERO PUSH2 0xE1F JUMPI PUSH2 0xE1E PUSH2 0xD8D JUMP JUMPDEST JUMPDEST PUSH2 0xE28 DUP3 PUSH2 0x725 JUMP JUMPDEST SWAP1 POP PUSH1 0x20 DUP2 ADD SWAP1 POP SWAP2 SWAP1 POP JUMP JUMPDEST PUSH0 PUSH2 0xE47 PUSH2 0xE42 DUP5 PUSH2 0xE05 JUMP JUMPDEST PUSH2 0xDEB JUMP JUMPDEST SWAP1 POP DUP3 DUP2 MSTORE PUSH1 0x20 DUP2 ADD DUP5 DUP5 DUP5 ADD GT ISZERO PUSH2 0xE63 JUMPI PUSH2 0xE62 PUSH2 0xD89 JUMP JUMPDEST JUMPDEST PUSH2 0xE6E DUP5 DUP3 DUP6 PUSH2 0xA9B JUMP JUMPDEST POP SWAP4 SWAP3 POP POP POP JUMP JUMPDEST PUSH0 DUP3 PUSH1 0x1F DUP4 ADD SLT PUSH2 0xE8A JUMPI PUSH2 0xE89 PUSH2 0x7D1 JUMP JUMPDEST JUMPDEST DUP2 CALLDATALOAD PUSH2 0xE9A DUP5 DUP3 PUSH1 0x20 DUP7 ADD PUSH2 0xE35 JUMP JUMPDEST SWAP2 POP POP SWAP3 SWAP2 POP POP JUMP JUMPDEST PUSH0 PUSH1 0x20 DUP3 DUP5 SUB SLT ISZERO PUSH2 0xEB8 JUMPI PUSH2 0xEB7 PUSH2 0x796 JUMP JUMPDEST JUMPDEST PUSH0 DUP3 ADD CALLDATALOAD PUSH8 0xFFFFFFFFFFFFFFFF DUP2 GT ISZERO PUSH2 0xED5 JUMPI PUSH2 0xED4 PUSH2 0x79A JUMP JUMPDEST JUMPDEST PUSH2 0xEE1 DUP5 DUP3 DUP6 ADD PUSH2 0xE76 JUMP JUMPDEST SWAP2 POP POP SWAP3 SWAP2 POP POP JUMP JUMPDEST PUSH0 DUP2 SWAP1 POP DUP2 PUSH0 MSTORE PUSH1 0x20 PUSH0 KECCAK256 SWAP1 POP SWAP2 SWAP1 POP JUMP JUMPDEST PUSH0 PUSH1 0x20 PUSH1 0x1F DUP4 ADD DIV SWAP1 POP SWAP2 SWAP1 POP JUMP JUMPDEST PUSH0 DUP3 DUP3 SHL SWAP1 POP SWAP3 SWAP2 POP POP JUMP JUMPDEST PUSH0 PUSH1 0x8 DUP4 MUL PUSH2 0xF46 PUSH32 0xFFFFFFFFFFFFFFFFFFFFFFFFFFFFFFFFFFFFFFFFFFFFFFFFFFFFFFFFFFFFFFFF DUP3 PUSH2 0xF0B JUMP JUMPDEST PUSH2 0xF50 DUP7 DUP4 PUSH2 0xF0B JUMP JUMPDEST SWAP6 POP DUP1 NOT DUP5 AND SWAP4 POP DUP1 DUP7 AND DUP5 OR SWAP3 POP POP POP SWAP4 SWAP3 POP POP POP JUMP JUMPDEST PUSH0 DUP2 SWAP1 POP SWAP2 SWAP1 POP JUMP JUMPDEST PUSH0 PUSH2 0xF8B PUSH2 0xF86 PUSH2 0xF81 DUP5 PUSH2 0xF68 JUMP JUMPDEST PUSH2 0x689 JUMP JUMPDEST PUSH2 0xF68 JUMP JUMPDEST SWAP1 POP SWAP2 SWAP1 POP JUMP JUMPDEST PUSH0 DUP2 SWAP1 POP SWAP2 SWAP1 POP JUMP JUMPDEST PUSH2 0xFA4 DUP4 PUSH2 0xF71 JUMP JUMPDEST PUSH2 0xFB8 PUSH2 0xFB0 DUP3 PUSH2 0xF92 JUMP JUMPDEST DUP5 DUP5 SLOAD PUSH2 0xF17 JUMP JUMPDEST DUP3 SSTORE POP POP POP POP JUMP JUMPDEST PUSH0 SWAP1 JUMP JUMPDEST PUSH2 0xFCC PUSH2 0xFC0 JUMP JUMPDEST PUSH2 0xFD7 DUP2 DUP5 DUP5 PUSH2 0xF9B JUMP JUMPDEST POP POP POP JUMP JUMPDEST JUMPDEST DUP2 DUP2 LT ISZERO PUSH2 0xFFA JUMPI PUSH2 0xFEF PUSH0 DUP3 PUSH2 0xFC4 JUMP JUMPDEST PUSH1 0x1 DUP2 ADD SWAP1 POP PUSH2 0xFDD JUMP JUMPDEST POP POP JUMP JUMPDEST PUSH1 0x1F DUP3 GT ISZERO PUSH2 0x103F JUMPI PUSH2 0x1010 DUP2 PUSH2 0xEEA JUMP JUMPDEST PUSH2 0x1019 DUP5 PUSH2 0xEFC JUMP JUMPDEST DUP2 ADD PUSH1 0x20 DUP6 LT ISZERO PUSH2 0x1028 JUMPI DUP2 SWAP1 POP JUMPDEST PUSH2 0x103C PUSH2 0x1034 DUP6 PUSH2 0xEFC JUMP JUMPDEST DUP4 ADD DUP3 PUSH2 0xFDC JUMP JUMPDEST POP POP JUMPDEST POP POP POP JUMP JUMPDEST PUSH0 DUP3 DUP3 SHR SWAP1 POP SWAP3 SWAP2 POP POP JUMP JUMPDEST PUSH0 PUSH2 0x105F PUSH0 NOT DUP5 PUSH1 0x8 MUL PUSH2 0x1044 JUMP JUMPDEST NOT DUP1 DUP4 AND SWAP2 POP POP SWAP3 SWAP2 POP POP JUMP JUMPDEST PUSH0 PUSH2 0x1077 DUP4 DUP4 PUSH2 0x1050 JUMP JUMPDEST SWAP2 POP DUP3 PUSH1 0x2 MUL DUP3 OR SWAP1 POP SWAP3 SWAP2 POP POP JUMP JUMPDEST PUSH2 0x1090 DUP3 PUSH2 0x6FD JUMP JUMPDEST PUSH8 0xFFFFFFFFFFFFFFFF DUP2 GT ISZERO PUSH2 0x10A9 JUMPI PUSH2 0x10A8 PUSH2 0xD8D JUMP JUMPDEST JUMPDEST PUSH2 0x10B3 DUP3 SLOAD PUSH2 0xA61 JUMP JUMPDEST PUSH2 0x10BE DUP3 DUP3 DUP6 PUSH2 0xFFE JUMP JUMPDEST PUSH0 PUSH1 0x20 SWAP1 POP PUSH1 0x1F DUP4 GT PUSH1 0x1 DUP2 EQ PUSH2 0x10EF JUMPI PUSH0 DUP5 ISZERO PUSH2 0x10DD JUMPI DUP3 DUP8 ADD MLOAD SWAP1 POP JUMPDEST PUSH2 0x10E7 DUP6 DUP3 PUSH2 0x106C JUMP JUMPDEST DUP7 SSTORE POP PUSH2 0x114E JUMP JUMPDEST PUSH1 0x1F NOT DUP5 AND PUSH2 0x10FD DUP7 PUSH2 0xEEA JUMP JUMPDEST PUSH0 JUMPDEST DUP3 DUP2 LT ISZERO PUSH2 0x1124 JUMPI DUP5 DUP10 ADD MLOAD DUP3 SSTORE PUSH1 0x1 DUP3 ADD SWAP2 POP PUSH1 0x20 DUP6 ADD SWAP5 POP PUSH1 0x20 DUP2 ADD SWAP1 POP PUSH2 0x10FF JUMP JUMPDEST DUP7 DUP4 LT ISZERO PUSH2 0x1141 JUMPI DUP5 DUP10 ADD MLOAD PUSH2 0x113D PUSH1 0x1F DUP10 AND DUP3 PUSH2 0x1050 JUMP JUMPDEST DUP4 SSTORE POP JUMPDEST PUSH1 0x1 PUSH1 0x2 DUP9 MUL ADD DUP9 SSTORE POP POP POP JUMPDEST POP POP POP POP POP POP JUMP JUMPDEST PUSH0 DUP3 SWAP1 POP SWAP3 SWAP2 POP POP JUMP JUMPDEST PUSH2 0x116A DUP4 DUP4 PUSH2 0x1156 JUMP JUMPDEST PUSH8 0xFFFFFFFFFFFFFFFF DUP2 GT ISZERO PUSH2 0x1183 JUMPI PUSH2 0x1182 PUSH2 0xD8D JUMP JUMPDEST JUMPDEST PUSH2 0x118D DUP3 SLOAD PUSH2 0xA61 JUMP JUMPDEST PUSH2 0x1198 DUP3 DUP3 DUP6 PUSH2 0xFFE JUMP JUMPDEST PUSH0 PUSH1 0x1F DUP4 GT PUSH1 0x1 DUP2 EQ PUSH2 0x11C5 JUMPI PUSH0 DUP5 ISZERO PUSH2 0x11B3 JUMPI DUP3 DUP8 ADD CALLDATALOAD SWAP1 POP JUMPDEST PUSH2 0x11BD DUP6 DUP3 PUSH2 0x106C JUMP JUMPDEST DUP7 SSTORE POP PUSH2 0x1224 JUMP JUMPDEST PUSH1 0x1F NOT DUP5 AND PUSH2 0x11D3 DUP7 PUSH2 0xEEA JUMP JUMPDEST PUSH0 JUMPDEST DUP3 DUP2 LT ISZERO PUSH2 0x11FA JUMPI DUP5 DUP10 ADD CALLDATALOAD DUP3 SSTORE PUSH1 0x1 DUP3 ADD SWAP2 POP PUSH1 0x20 DUP6 ADD SWAP5 POP PUSH1 0x20 DUP2 ADD SWAP1 POP PUSH2 0x11D5 JUMP JUMPDEST DUP7 DUP4 LT ISZERO PUSH2 0x1217 JUMPI DUP5 DUP10 ADD CALLDATALOAD PUSH2 0x1213 PUSH1 0x1F DUP10 AND DUP3 PUSH2 0x1050 JUMP JUMPDEST DUP4 SSTORE POP JUMPDEST PUSH1 0x1 PUSH1 0x2 DUP9 MUL ADD DUP9 SSTORE POP POP POP JUMPDEST POP POP POP POP POP POP POP JUMP JUMPDEST PUSH0 DUP2 SLOAD PUSH2 0x1239 DUP2 PUSH2 0xA61 JUMP JUMPDEST PUSH2 0x1243 DUP2 DUP7 PUSH2 0x707 JUMP JUMPDEST SWAP5 POP PUSH1 0x1 DUP3 AND PUSH0 DUP2 EQ PUSH2 0x125D JUMPI PUSH1 0x1 DUP2 EQ PUSH2 0x1273 JUMPI PUSH2 0x12A5 JUMP JUMPDEST PUSH1 0xFF NOT DUP4 AND DUP7 MSTORE DUP2 ISZERO ISZERO PUSH1 0x20 MUL DUP7 ADD SWAP4 POP PUSH2 0x12A5 JUMP JUMPDEST PUSH2 0x127C DUP6 PUSH2 0xEEA JUMP JUMPDEST PUSH0 JUMPDEST DUP4 DUP2 LT ISZERO PUSH2 0x129D JUMPI DUP2 SLOAD DUP2 DUP10 ADD MSTORE PUSH1 0x1 DUP3 ADD SWAP2 POP PUSH1 0x20 DUP2 ADD SWAP1 POP PUSH2 0x127E JUMP JUMPDEST DUP1 DUP9 ADD SWAP6 POP POP POP JUMPDEST POP POP POP SWAP3 SWAP2 POP POP JUMP JUMPDEST PUSH0 PUSH1 0x60 DUP3 ADD SWAP1 POP PUSH2 0x12C1 PUSH0 DUP4 ADD DUP7 PUSH2 0xAE5 JUMP JUMPDEST DUP2 DUP2 SUB PUSH1 0x20 DUP4 ADD MSTORE PUSH2 0x12D3 DUP2 DUP6 PUSH2 0x122D JUMP JUMPDEST SWAP1 POP DUP2 DUP2 SUB PUSH1 0x40 DUP4 ADD MSTORE PUSH2 0x12E7 DUP2 DUP5 PUSH2 0x122D JUMP JUMPDEST SWAP1 POP SWAP5 SWAP4 POP POP POP POP JUMP INVALID LOG2 PUSH5 0x6970667358 0x22 SLT KECCAK256 CALL 0xA8 0xCD DUP12 SWAP1 LOG3 OR DUP16 SMOD SWAP8 0xB0 SWAP10 PUSH0 0x21 DUP1 0xD7 0xF7 0xB7 SWAP3 REVERT CALLDATACOPY PUSH27 0xEAD3F47C9D8D09F3FD5464736F6C634300081A0033000000000000 "
				},
				"gasEstimates": {
					"creation": {
						"codeDepositCost": "980600",
						"executionCost": "infinite",
						"totalCost": "infinite"
					},
					"external": {
						"execute(bytes32,string,string,bytes)": "infinite",
						"gasService()": "infinite",
						"gateway()": "infinite",
						"message()": "infinite",
						"setRemoteValue(string,string,string)": "infinite",
						"sourceAddress()": "infinite",
						"sourceChain()": "infinite"
					},
					"internal": {
						"_execute(bytes32,string calldata,string calldata,bytes calldata)": "infinite"
					}
				},
				"methodIdentifiers": {
					"execute(bytes32,string,string,bytes)": "49160658",
					"gasService()": "6a22d8cc",
					"gateway()": "116191b6",
					"message()": "e21f37ce",
					"setRemoteValue(string,string,string)": "80d32697",
					"sourceAddress()": "b0fa8444",
					"sourceChain()": "1c6ffa46"
				}
			},
			"storageLayout": {
				"storage": [
					{
						"astId": 940,
						"contract": "contracts/05_Axelar_CallContract.sol:CallContract",
						"label": "message",
						"offset": 0,
						"slot": "0",
						"type": "t_string_storage"
					},
					{
						"astId": 942,
						"contract": "contracts/05_Axelar_CallContract.sol:CallContract",
						"label": "sourceChain",
						"offset": 0,
						"slot": "1",
						"type": "t_string_storage"
					},
					{
						"astId": 944,
						"contract": "contracts/05_Axelar_CallContract.sol:CallContract",
						"label": "sourceAddress",
						"offset": 0,
						"slot": "2",
						"type": "t_string_storage"
					}
				],
				"types": {
					"t_string_storage": {
						"encoding": "bytes",
						"label": "string",
						"numberOfBytes": "32"
					}
				}
			},
			"userdoc": {
				"kind": "user",
				"methods": {
					"execute(bytes32,string,string,bytes)": {
						"notice": "Executes the cross-chain command after validating it with the Axelar Gateway."
					},
					"gateway()": {
						"notice": "Returns the address of the AxelarGateway contract."
					},
					"setRemoteValue(string,string,string)": {
						"notice": "Send message from chain A to chain B"
					}
				},
				"notice": "Send a message from chain A to chain B and stores gmp message",
				"version": 1
			}
		}
	}
}