{
	"contracts/13_StorageProviderEscrow.sol": {
		"StorageProviderEscrow": {
			"abi": [
				{
					"inputs": [
						{
							"internalType": "address",
							"name": "initialOwner",
							"type": "address"
						},
						{
							"internalType": "address",
							"name": "usdcAddress",
							"type": "address"
						},
						{
							"internalType": "address",
							"name": "datacapGatewayAddress",
							"type": "address"
						},
						{
							"internalType": "uint256",
							"name": "newId",
							"type": "uint256"
						}
					],
					"stateMutability": "nonpayable",
					"type": "constructor"
				},
				{
					"inputs": [],
					"name": "InsufficientDatacap",
					"type": "error"
				},
				{
					"inputs": [
						{
							"internalType": "address",
							"name": "owner",
							"type": "address"
						}
					],
					"name": "OwnableInvalidOwner",
					"type": "error"
				},
				{
					"inputs": [
						{
							"internalType": "address",
							"name": "account",
							"type": "address"
						}
					],
					"name": "OwnableUnauthorizedAccount",
					"type": "error"
				},
				{
					"anonymous": false,
					"inputs": [
						{
							"indexed": true,
							"internalType": "bytes",
							"name": "client",
							"type": "bytes"
						},
						{
							"indexed": false,
							"internalType": "uint256",
							"name": "amount",
							"type": "uint256"
						}
					],
					"name": "DatacapGranted",
					"type": "event"
				},
				{
					"anonymous": false,
					"inputs": [
						{
							"indexed": true,
							"internalType": "address",
							"name": "client",
							"type": "address"
						},
						{
							"indexed": false,
							"internalType": "uint256",
							"name": "amount",
							"type": "uint256"
						}
					],
					"name": "DatacapGrantedMock",
					"type": "event"
				},
				{
					"anonymous": false,
					"inputs": [
						{
							"indexed": true,
							"internalType": "address",
							"name": "previousOwner",
							"type": "address"
						},
						{
							"indexed": true,
							"internalType": "address",
							"name": "newOwner",
							"type": "address"
						}
					],
					"name": "OwnershipTransferred",
					"type": "event"
				},
				{
					"inputs": [
						{
							"internalType": "uint256",
							"name": "amount",
							"type": "uint256"
						}
					],
					"name": "addDatacap",
					"outputs": [],
					"stateMutability": "nonpayable",
					"type": "function"
				},
				{
					"inputs": [
						{
							"internalType": "address",
							"name": "spender",
							"type": "address"
						},
						{
							"internalType": "uint256",
							"name": "value",
							"type": "uint256"
						}
					],
					"name": "approve",
					"outputs": [
						{
							"internalType": "bool",
							"name": "",
							"type": "bool"
						}
					],
					"stateMutability": "nonpayable",
					"type": "function"
				},
				{
					"inputs": [],
					"name": "datacapGatewayAddr",
					"outputs": [
						{
							"internalType": "address",
							"name": "",
							"type": "address"
						}
					],
					"stateMutability": "view",
					"type": "function"
				},
				{
					"inputs": [
						{
							"internalType": "bytes",
							"name": "clientFilecoinAddress",
							"type": "bytes"
						},
						{
							"internalType": "uint256",
							"name": "amount",
							"type": "uint256"
						}
					],
					"name": "grantDatacap",
					"outputs": [],
					"stateMutability": "nonpayable",
					"type": "function"
				},
				{
					"inputs": [
						{
							"internalType": "address",
							"name": "clientFilecoinAddress",
							"type": "address"
						},
						{
							"internalType": "uint256",
							"name": "amount",
							"type": "uint256"
						}
					],
					"name": "grantDatacapMock",
					"outputs": [],
					"stateMutability": "nonpayable",
					"type": "function"
				},
				{
					"inputs": [],
					"name": "hasDatacapGatewayAccess",
					"outputs": [
						{
							"internalType": "bool",
							"name": "",
							"type": "bool"
						}
					],
					"stateMutability": "view",
					"type": "function"
				},
				{
					"inputs": [],
					"name": "id",
					"outputs": [
						{
							"internalType": "uint256",
							"name": "",
							"type": "uint256"
						}
					],
					"stateMutability": "view",
					"type": "function"
				},
				{
					"inputs": [],
					"name": "owner",
					"outputs": [
						{
							"internalType": "address",
							"name": "",
							"type": "address"
						}
					],
					"stateMutability": "view",
					"type": "function"
				},
				{
					"inputs": [],
					"name": "remainingDatacap",
					"outputs": [
						{
							"internalType": "uint256",
							"name": "",
							"type": "uint256"
						}
					],
					"stateMutability": "view",
					"type": "function"
				},
				{
					"inputs": [],
					"name": "renounceOwnership",
					"outputs": [],
					"stateMutability": "nonpayable",
					"type": "function"
				},
				{
					"inputs": [
						{
							"internalType": "uint256",
							"name": "amount",
							"type": "uint256"
						}
					],
					"name": "setDatacap",
					"outputs": [],
					"stateMutability": "nonpayable",
					"type": "function"
				},
				{
					"inputs": [
						{
							"internalType": "address",
							"name": "to",
							"type": "address"
						},
						{
							"internalType": "uint256",
							"name": "value",
							"type": "uint256"
						}
					],
					"name": "transfer",
					"outputs": [
						{
							"internalType": "bool",
							"name": "",
							"type": "bool"
						}
					],
					"stateMutability": "nonpayable",
					"type": "function"
				},
				{
					"inputs": [
						{
							"internalType": "address",
							"name": "newOwner",
							"type": "address"
						}
					],
					"name": "transferOwnership",
					"outputs": [],
					"stateMutability": "nonpayable",
					"type": "function"
				},
				{
					"inputs": [],
					"name": "usdcAddr",
					"outputs": [
						{
							"internalType": "address",
							"name": "",
							"type": "address"
						}
					],
					"stateMutability": "view",
					"type": "function"
				}
			],
			"devdoc": {
				"errors": {
					"OwnableInvalidOwner(address)": [
						{
							"details": "The owner is not a valid owner account. (eg. `address(0)`)"
						}
					],
					"OwnableUnauthorizedAccount(address)": [
						{
							"details": "The caller account is not authorized to perform an operation."
						}
					]
				},
				"kind": "dev",
				"methods": {
					"approve(address,uint256)": {
						"details": "Sets a `value` amount of tokens as the allowance of `spender` over the caller's tokens. Returns a boolean value indicating whether the operation succeeded. IMPORTANT: Beware that changing an allowance with this method brings the risk that someone may use both the old and the new allowance by unfortunate transaction ordering. One possible solution to mitigate this race condition is to first reduce the spender's allowance to 0 and set the desired value afterwards: https://github.com/ethereum/EIPs/issues/20#issuecomment-263524729 Emits an {Approval} event."
					},
					"owner()": {
						"details": "Returns the address of the current owner."
					},
					"renounceOwnership()": {
						"details": "Leaves the contract without owner. It will not be possible to call `onlyOwner` functions. Can only be called by the current owner. NOTE: Renouncing ownership will leave the contract without an owner, thereby disabling any functionality that is only available to the owner."
					},
					"transfer(address,uint256)": {
						"details": "Moves a `value` amount of tokens from the caller's account to `to`. Returns a boolean value indicating whether the operation succeeded. Emits a {Transfer} event."
					},
					"transferOwnership(address)": {
						"details": "Transfers ownership of the contract to a new account (`newOwner`). Can only be called by the current owner."
					}
				},
				"version": 1
			},
			"evm": {
				"assembly": "    /* \"contracts/13_StorageProviderEscrow.sol\":313:3433  contract StorageProviderEscrow is Ownable {... */\n  mstore(0x40, 0x80)\n    /* \"contracts/13_StorageProviderEscrow.sol\":493:727  constructor(address initialOwner, address usdcAddress, address datacapGatewayAddress, uint256 newId) Ownable(initialOwner) {... */\n  callvalue\n  dup1\n  iszero\n  tag_1\n  jumpi\n  0x00\n  dup1\n  revert\ntag_1:\n  pop\n  mload(0x40)\n  sub(codesize, bytecodeSize)\n  dup1\n  bytecodeSize\n  dup4\n  codecopy\n  dup2\n  dup2\n  add\n  0x40\n  mstore\n  dup2\n  add\n  swap1\n  tag_2\n  swap2\n  swap1\n  tag_3\n  jump\t// in\ntag_2:\n    /* \"contracts/13_StorageProviderEscrow.sol\":602:614  initialOwner */\n  dup4\n    /* \"@openzeppelin/contracts/access/Ownable.sol\":1297:1298  0 */\n  0x00\n    /* \"@openzeppelin/contracts/access/Ownable.sol\":1273:1299  initialOwner == address(0) */\n  0xffffffffffffffffffffffffffffffffffffffff\n  and\n    /* \"@openzeppelin/contracts/access/Ownable.sol\":1273:1285  initialOwner */\n  dup2\n    /* \"@openzeppelin/contracts/access/Ownable.sol\":1273:1299  initialOwner == address(0) */\n  0xffffffffffffffffffffffffffffffffffffffff\n  and\n  sub\n    /* \"@openzeppelin/contracts/access/Ownable.sol\":1269:1364  if (initialOwner == address(0)) {... */\n  tag_7\n  jumpi\n    /* \"@openzeppelin/contracts/access/Ownable.sol\":1350:1351  0 */\n  0x00\n    /* \"@openzeppelin/contracts/access/Ownable.sol\":1322:1353  OwnableInvalidOwner(address(0)) */\n  mload(0x40)\n  0x1e4fbdf700000000000000000000000000000000000000000000000000000000\n  dup2\n  mstore\n  0x04\n  add\n  tag_8\n  swap2\n  swap1\n  tag_9\n  jump\t// in\ntag_8:\n  mload(0x40)\n  dup1\n  swap2\n  sub\n  swap1\n  revert\n    /* \"@openzeppelin/contracts/access/Ownable.sol\":1269:1364  if (initialOwner == address(0)) {... */\ntag_7:\n    /* \"@openzeppelin/contracts/access/Ownable.sol\":1373:1405  _transferOwnership(initialOwner) */\n  tag_10\n    /* \"@openzeppelin/contracts/access/Ownable.sol\":1392:1404  initialOwner */\n  dup2\n    /* \"@openzeppelin/contracts/access/Ownable.sol\":1373:1391  _transferOwnership */\n  shl(0x20, tag_11)\n    /* \"@openzeppelin/contracts/access/Ownable.sol\":1373:1405  _transferOwnership(initialOwner) */\n  0x20\n  shr\n  jump\t// in\ntag_10:\n    /* \"@openzeppelin/contracts/access/Ownable.sol\":1225:1412  constructor(address initialOwner) {... */\n  pop\n    /* \"contracts/13_StorageProviderEscrow.sol\":631:636  newId */\n  dup1\n    /* \"contracts/13_StorageProviderEscrow.sol\":626:628  id */\n  0x03\n    /* \"contracts/13_StorageProviderEscrow.sol\":626:636  id = newId */\n  dup2\n  swap1\n  sstore\n  pop\n    /* \"contracts/13_StorageProviderEscrow.sol\":657:668  usdcAddress */\n  dup3\n    /* \"contracts/13_StorageProviderEscrow.sol\":646:654  usdcAddr */\n  0x01\n  0x00\n    /* \"contracts/13_StorageProviderEscrow.sol\":646:668  usdcAddr = usdcAddress */\n  0x0100\n  exp\n  dup2\n  sload\n  dup2\n  0xffffffffffffffffffffffffffffffffffffffff\n  mul\n  not\n  and\n  swap1\n  dup4\n  0xffffffffffffffffffffffffffffffffffffffff\n  and\n  mul\n  or\n  swap1\n  sstore\n  pop\n    /* \"contracts/13_StorageProviderEscrow.sol\":699:720  datacapGatewayAddress */\n  dup2\n    /* \"contracts/13_StorageProviderEscrow.sol\":678:696  datacapGatewayAddr */\n  0x02\n  0x00\n    /* \"contracts/13_StorageProviderEscrow.sol\":678:720  datacapGatewayAddr = datacapGatewayAddress */\n  0x0100\n  exp\n  dup2\n  sload\n  dup2\n  0xffffffffffffffffffffffffffffffffffffffff\n  mul\n  not\n  and\n  swap1\n  dup4\n  0xffffffffffffffffffffffffffffffffffffffff\n  and\n  mul\n  or\n  swap1\n  sstore\n  pop\n    /* \"contracts/13_StorageProviderEscrow.sol\":493:727  constructor(address initialOwner, address usdcAddress, address datacapGatewayAddress, uint256 newId) Ownable(initialOwner) {... */\n  pop\n  pop\n  pop\n  pop\n    /* \"contracts/13_StorageProviderEscrow.sol\":313:3433  contract StorageProviderEscrow is Ownable {... */\n  jump(tag_13)\n    /* \"@openzeppelin/contracts/access/Ownable.sol\":2912:3099  function _transferOwnership(address newOwner) internal virtual {... */\ntag_11:\n    /* \"@openzeppelin/contracts/access/Ownable.sol\":2985:3001  address oldOwner */\n  0x00\n    /* \"@openzeppelin/contracts/access/Ownable.sol\":3004:3010  _owner */\n  dup1\n  0x00\n  swap1\n  sload\n  swap1\n  0x0100\n  exp\n  swap1\n  div\n  0xffffffffffffffffffffffffffffffffffffffff\n  and\n    /* \"@openzeppelin/contracts/access/Ownable.sol\":2985:3010  address oldOwner = _owner */\n  swap1\n  pop\n    /* \"@openzeppelin/contracts/access/Ownable.sol\":3029:3037  newOwner */\n  dup2\n    /* \"@openzeppelin/contracts/access/Ownable.sol\":3020:3026  _owner */\n  0x00\n  dup1\n    /* \"@openzeppelin/contracts/access/Ownable.sol\":3020:3037  _owner = newOwner */\n  0x0100\n  exp\n  dup2\n  sload\n  dup2\n  0xffffffffffffffffffffffffffffffffffffffff\n  mul\n  not\n  and\n  swap1\n  dup4\n  0xffffffffffffffffffffffffffffffffffffffff\n  and\n  mul\n  or\n  swap1\n  sstore\n  pop\n    /* \"@openzeppelin/contracts/access/Ownable.sol\":3083:3091  newOwner */\n  dup2\n    /* \"@openzeppelin/contracts/access/Ownable.sol\":3052:3092  OwnershipTransferred(oldOwner, newOwner) */\n  0xffffffffffffffffffffffffffffffffffffffff\n  and\n    /* \"@openzeppelin/contracts/access/Ownable.sol\":3073:3081  oldOwner */\n  dup2\n    /* \"@openzeppelin/contracts/access/Ownable.sol\":3052:3092  OwnershipTransferred(oldOwner, newOwner) */\n  0xffffffffffffffffffffffffffffffffffffffff\n  and\n  0x8be0079c531659141344cd1fd0a4f28419497f9722a3daafe3b4186f6b6457e0\n  mload(0x40)\n  mload(0x40)\n  dup1\n  swap2\n  sub\n  swap1\n  log3\n    /* \"@openzeppelin/contracts/access/Ownable.sol\":2975:3099  {... */\n  pop\n    /* \"@openzeppelin/contracts/access/Ownable.sol\":2912:3099  function _transferOwnership(address newOwner) internal virtual {... */\n  pop\n  jump\t// out\n    /* \"#utility.yul\":88:205   */\ntag_16:\n    /* \"#utility.yul\":197:198   */\n  0x00\n    /* \"#utility.yul\":194:195   */\n  dup1\n    /* \"#utility.yul\":187:199   */\n  revert\n    /* \"#utility.yul\":334:460   */\ntag_18:\n    /* \"#utility.yul\":371:378   */\n  0x00\n    /* \"#utility.yul\":411:453   */\n  0xffffffffffffffffffffffffffffffffffffffff\n    /* \"#utility.yul\":404:409   */\n  dup3\n    /* \"#utility.yul\":400:454   */\n  and\n    /* \"#utility.yul\":389:454   */\n  swap1\n  pop\n    /* \"#utility.yul\":334:460   */\n  swap2\n  swap1\n  pop\n  jump\t// out\n    /* \"#utility.yul\":466:562   */\ntag_19:\n    /* \"#utility.yul\":503:510   */\n  0x00\n    /* \"#utility.yul\":532:556   */\n  tag_32\n    /* \"#utility.yul\":550:555   */\n  dup3\n    /* \"#utility.yul\":532:556   */\n  tag_18\n  jump\t// in\ntag_32:\n    /* \"#utility.yul\":521:556   */\n  swap1\n  pop\n    /* \"#utility.yul\":466:562   */\n  swap2\n  swap1\n  pop\n  jump\t// out\n    /* \"#utility.yul\":568:690   */\ntag_20:\n    /* \"#utility.yul\":641:665   */\n  tag_34\n    /* \"#utility.yul\":659:664   */\n  dup2\n    /* \"#utility.yul\":641:665   */\n  tag_19\n  jump\t// in\ntag_34:\n    /* \"#utility.yul\":634:639   */\n  dup2\n    /* \"#utility.yul\":631:666   */\n  eq\n    /* \"#utility.yul\":621:684   */\n  tag_35\n  jumpi\n    /* \"#utility.yul\":680:681   */\n  0x00\n    /* \"#utility.yul\":677:678   */\n  dup1\n    /* \"#utility.yul\":670:682   */\n  revert\n    /* \"#utility.yul\":621:684   */\ntag_35:\n    /* \"#utility.yul\":568:690   */\n  pop\n  jump\t// out\n    /* \"#utility.yul\":696:839   */\ntag_21:\n    /* \"#utility.yul\":753:758   */\n  0x00\n    /* \"#utility.yul\":784:790   */\n  dup2\n    /* \"#utility.yul\":778:791   */\n  mload\n    /* \"#utility.yul\":769:791   */\n  swap1\n  pop\n    /* \"#utility.yul\":800:833   */\n  tag_37\n    /* \"#utility.yul\":827:832   */\n  dup2\n    /* \"#utility.yul\":800:833   */\n  tag_20\n  jump\t// in\ntag_37:\n    /* \"#utility.yul\":696:839   */\n  swap3\n  swap2\n  pop\n  pop\n  jump\t// out\n    /* \"#utility.yul\":845:922   */\ntag_22:\n    /* \"#utility.yul\":882:889   */\n  0x00\n    /* \"#utility.yul\":911:916   */\n  dup2\n    /* \"#utility.yul\":900:916   */\n  swap1\n  pop\n    /* \"#utility.yul\":845:922   */\n  swap2\n  swap1\n  pop\n  jump\t// out\n    /* \"#utility.yul\":928:1050   */\ntag_23:\n    /* \"#utility.yul\":1001:1025   */\n  tag_40\n    /* \"#utility.yul\":1019:1024   */\n  dup2\n    /* \"#utility.yul\":1001:1025   */\n  tag_22\n  jump\t// in\ntag_40:\n    /* \"#utility.yul\":994:999   */\n  dup2\n    /* \"#utility.yul\":991:1026   */\n  eq\n    /* \"#utility.yul\":981:1044   */\n  tag_41\n  jumpi\n    /* \"#utility.yul\":1040:1041   */\n  0x00\n    /* \"#utility.yul\":1037:1038   */\n  dup1\n    /* \"#utility.yul\":1030:1042   */\n  revert\n    /* \"#utility.yul\":981:1044   */\ntag_41:\n    /* \"#utility.yul\":928:1050   */\n  pop\n  jump\t// out\n    /* \"#utility.yul\":1056:1199   */\ntag_24:\n    /* \"#utility.yul\":1113:1118   */\n  0x00\n    /* \"#utility.yul\":1144:1150   */\n  dup2\n    /* \"#utility.yul\":1138:1151   */\n  mload\n    /* \"#utility.yul\":1129:1151   */\n  swap1\n  pop\n    /* \"#utility.yul\":1160:1193   */\n  tag_43\n    /* \"#utility.yul\":1187:1192   */\n  dup2\n    /* \"#utility.yul\":1160:1193   */\n  tag_23\n  jump\t// in\ntag_43:\n    /* \"#utility.yul\":1056:1199   */\n  swap3\n  swap2\n  pop\n  pop\n  jump\t// out\n    /* \"#utility.yul\":1205:2025   */\ntag_3:\n    /* \"#utility.yul\":1302:1308   */\n  0x00\n    /* \"#utility.yul\":1310:1316   */\n  dup1\n    /* \"#utility.yul\":1318:1324   */\n  0x00\n    /* \"#utility.yul\":1326:1332   */\n  dup1\n    /* \"#utility.yul\":1375:1378   */\n  0x80\n    /* \"#utility.yul\":1363:1372   */\n  dup6\n    /* \"#utility.yul\":1354:1361   */\n  dup8\n    /* \"#utility.yul\":1350:1373   */\n  sub\n    /* \"#utility.yul\":1346:1379   */\n  slt\n    /* \"#utility.yul\":1343:1463   */\n  iszero\n  tag_45\n  jumpi\n    /* \"#utility.yul\":1382:1461   */\n  tag_46\n  tag_16\n  jump\t// in\ntag_46:\n    /* \"#utility.yul\":1343:1463   */\ntag_45:\n    /* \"#utility.yul\":1502:1503   */\n  0x00\n    /* \"#utility.yul\":1527:1591   */\n  tag_47\n    /* \"#utility.yul\":1583:1590   */\n  dup8\n    /* \"#utility.yul\":1574:1580   */\n  dup3\n    /* \"#utility.yul\":1563:1572   */\n  dup9\n    /* \"#utility.yul\":1559:1581   */\n  add\n    /* \"#utility.yul\":1527:1591   */\n  tag_21\n  jump\t// in\ntag_47:\n    /* \"#utility.yul\":1517:1591   */\n  swap5\n  pop\n    /* \"#utility.yul\":1473:1601   */\n  pop\n    /* \"#utility.yul\":1640:1642   */\n  0x20\n    /* \"#utility.yul\":1666:1730   */\n  tag_48\n    /* \"#utility.yul\":1722:1729   */\n  dup8\n    /* \"#utility.yul\":1713:1719   */\n  dup3\n    /* \"#utility.yul\":1702:1711   */\n  dup9\n    /* \"#utility.yul\":1698:1720   */\n  add\n    /* \"#utility.yul\":1666:1730   */\n  tag_21\n  jump\t// in\ntag_48:\n    /* \"#utility.yul\":1656:1730   */\n  swap4\n  pop\n    /* \"#utility.yul\":1611:1740   */\n  pop\n    /* \"#utility.yul\":1779:1781   */\n  0x40\n    /* \"#utility.yul\":1805:1869   */\n  tag_49\n    /* \"#utility.yul\":1861:1868   */\n  dup8\n    /* \"#utility.yul\":1852:1858   */\n  dup3\n    /* \"#utility.yul\":1841:1850   */\n  dup9\n    /* \"#utility.yul\":1837:1859   */\n  add\n    /* \"#utility.yul\":1805:1869   */\n  tag_21\n  jump\t// in\ntag_49:\n    /* \"#utility.yul\":1795:1869   */\n  swap3\n  pop\n    /* \"#utility.yul\":1750:1879   */\n  pop\n    /* \"#utility.yul\":1918:1920   */\n  0x60\n    /* \"#utility.yul\":1944:2008   */\n  tag_50\n    /* \"#utility.yul\":2000:2007   */\n  dup8\n    /* \"#utility.yul\":1991:1997   */\n  dup3\n    /* \"#utility.yul\":1980:1989   */\n  dup9\n    /* \"#utility.yul\":1976:1998   */\n  add\n    /* \"#utility.yul\":1944:2008   */\n  tag_24\n  jump\t// in\ntag_50:\n    /* \"#utility.yul\":1934:2008   */\n  swap2\n  pop\n    /* \"#utility.yul\":1889:2018   */\n  pop\n    /* \"#utility.yul\":1205:2025   */\n  swap3\n  swap6\n  swap2\n  swap5\n  pop\n  swap3\n  pop\n  jump\t// out\n    /* \"#utility.yul\":2031:2149   */\ntag_25:\n    /* \"#utility.yul\":2118:2142   */\n  tag_52\n    /* \"#utility.yul\":2136:2141   */\n  dup2\n    /* \"#utility.yul\":2118:2142   */\n  tag_19\n  jump\t// in\ntag_52:\n    /* \"#utility.yul\":2113:2116   */\n  dup3\n    /* \"#utility.yul\":2106:2143   */\n  mstore\n    /* \"#utility.yul\":2031:2149   */\n  pop\n  pop\n  jump\t// out\n    /* \"#utility.yul\":2155:2377   */\ntag_9:\n    /* \"#utility.yul\":2248:2252   */\n  0x00\n    /* \"#utility.yul\":2286:2288   */\n  0x20\n    /* \"#utility.yul\":2275:2284   */\n  dup3\n    /* \"#utility.yul\":2271:2289   */\n  add\n    /* \"#utility.yul\":2263:2289   */\n  swap1\n  pop\n    /* \"#utility.yul\":2299:2370   */\n  tag_54\n    /* \"#utility.yul\":2367:2368   */\n  0x00\n    /* \"#utility.yul\":2356:2365   */\n  dup4\n    /* \"#utility.yul\":2352:2369   */\n  add\n    /* \"#utility.yul\":2343:2349   */\n  dup5\n    /* \"#utility.yul\":2299:2370   */\n  tag_25\n  jump\t// in\ntag_54:\n    /* \"#utility.yul\":2155:2377   */\n  swap3\n  swap2\n  pop\n  pop\n  jump\t// out\n    /* \"contracts/13_StorageProviderEscrow.sol\":313:3433  contract StorageProviderEscrow is Ownable {... */\ntag_13:\n  dataSize(sub_0)\n  dup1\n  dataOffset(sub_0)\n  0x00\n  codecopy\n  0x00\n  return\nstop\n\nsub_0: assembly {\n        /* \"contracts/13_StorageProviderEscrow.sol\":313:3433  contract StorageProviderEscrow is Ownable {... */\n      mstore(0x40, 0x80)\n      callvalue\n      dup1\n      iszero\n      tag_1\n      jumpi\n      0x00\n      dup1\n      revert\n    tag_1:\n      pop\n      jumpi(tag_2, lt(calldatasize, 0x04))\n      shr(0xe0, calldataload(0x00))\n      dup1\n      0x903e4fc3\n      gt\n      tag_17\n      jumpi\n      dup1\n      0xca09c885\n      gt\n      tag_18\n      jumpi\n      dup1\n      0xca09c885\n      eq\n      tag_13\n      jumpi\n      dup1\n      0xdb1411e0\n      eq\n      tag_14\n      jumpi\n      dup1\n      0xf2fde38b\n      eq\n      tag_15\n      jumpi\n      dup1\n      0xf4bd456d\n      eq\n      tag_16\n      jumpi\n      jump(tag_2)\n    tag_18:\n      dup1\n      0x903e4fc3\n      eq\n      tag_10\n      jumpi\n      dup1\n      0xa9059cbb\n      eq\n      tag_11\n      jumpi\n      dup1\n      0xaf640d0f\n      eq\n      tag_12\n      jumpi\n      jump(tag_2)\n    tag_17:\n      dup1\n      0x28426fc4\n      gt\n      tag_19\n      jumpi\n      dup1\n      0x28426fc4\n      eq\n      tag_6\n      jumpi\n      dup1\n      0x34780963\n      eq\n      tag_7\n      jumpi\n      dup1\n      0x715018a6\n      eq\n      tag_8\n      jumpi\n      dup1\n      0x8da5cb5b\n      eq\n      tag_9\n      jumpi\n      jump(tag_2)\n    tag_19:\n      dup1\n      0x04b507c1\n      eq\n      tag_3\n      jumpi\n      dup1\n      0x095ea7b3\n      eq\n      tag_4\n      jumpi\n      dup1\n      0x21ccfd1e\n      eq\n      tag_5\n      jumpi\n    tag_2:\n      0x00\n      dup1\n      revert\n        /* \"contracts/13_StorageProviderEscrow.sol\":917:1014  function setDatacap(uint256 amount) external onlyOwner {... */\n    tag_3:\n      tag_20\n      0x04\n      dup1\n      calldatasize\n      sub\n      dup2\n      add\n      swap1\n      tag_21\n      swap2\n      swap1\n      tag_22\n      jump\t// in\n    tag_21:\n      tag_23\n      jump\t// in\n    tag_20:\n      stop\n        /* \"contracts/13_StorageProviderEscrow.sol\":3266:3431  function approve(address spender, uint256 value) external returns (bool) {... */\n    tag_4:\n      tag_24\n      0x04\n      dup1\n      calldatasize\n      sub\n      dup2\n      add\n      swap1\n      tag_25\n      swap2\n      swap1\n      tag_26\n      jump\t// in\n    tag_25:\n      tag_27\n      jump\t// in\n    tag_24:\n      mload(0x40)\n      tag_28\n      swap2\n      swap1\n      tag_29\n      jump\t// in\n    tag_28:\n      mload(0x40)\n      dup1\n      swap2\n      sub\n      swap1\n      return\n        /* \"contracts/13_StorageProviderEscrow.sol\":391:424  address public datacapGatewayAddr */\n    tag_5:\n      tag_30\n      tag_31\n      jump\t// in\n    tag_30:\n      mload(0x40)\n      tag_32\n      swap2\n      swap1\n      tag_33\n      jump\t// in\n    tag_32:\n      mload(0x40)\n      dup1\n      swap2\n      sub\n      swap1\n      return\n        /* \"contracts/13_StorageProviderEscrow.sol\":455:486  uint256 public remainingDatacap */\n    tag_6:\n      tag_34\n      tag_35\n      jump\t// in\n    tag_34:\n      mload(0x40)\n      tag_36\n      swap2\n      swap1\n      tag_37\n      jump\t// in\n    tag_36:\n      mload(0x40)\n      dup1\n      swap2\n      sub\n      swap1\n      return\n        /* \"contracts/13_StorageProviderEscrow.sol\":733:911  function hasDatacapGatewayAccess() external view returns (bool) {... */\n    tag_7:\n      tag_38\n      tag_39\n      jump\t// in\n    tag_38:\n      mload(0x40)\n      tag_40\n      swap2\n      swap1\n      tag_29\n      jump\t// in\n    tag_40:\n      mload(0x40)\n      dup1\n      swap2\n      sub\n      swap1\n      return\n        /* \"@openzeppelin/contracts/access/Ownable.sol\":2293:2394  function renounceOwnership() public virtual onlyOwner {... */\n    tag_8:\n      tag_41\n      tag_42\n      jump\t// in\n    tag_41:\n      stop\n        /* \"@openzeppelin/contracts/access/Ownable.sol\":1638:1723  function owner() public view virtual returns (address) {... */\n    tag_9:\n      tag_43\n      tag_44\n      jump\t// in\n    tag_43:\n      mload(0x40)\n      tag_45\n      swap2\n      swap1\n      tag_33\n      jump\t// in\n    tag_45:\n      mload(0x40)\n      dup1\n      swap2\n      sub\n      swap1\n      return\n        /* \"contracts/13_StorageProviderEscrow.sol\":361:384  address public usdcAddr */\n    tag_10:\n      tag_46\n      tag_47\n      jump\t// in\n    tag_46:\n      mload(0x40)\n      tag_48\n      swap2\n      swap1\n      tag_33\n      jump\t// in\n    tag_48:\n      mload(0x40)\n      dup1\n      swap2\n      sub\n      swap1\n      return\n        /* \"contracts/13_StorageProviderEscrow.sol\":2401:2558  function transfer(address to, uint256 value) external returns (bool) {... */\n    tag_11:\n      tag_49\n      0x04\n      dup1\n      calldatasize\n      sub\n      dup2\n      add\n      swap1\n      tag_50\n      swap2\n      swap1\n      tag_26\n      jump\t// in\n    tag_50:\n      tag_51\n      jump\t// in\n    tag_49:\n      mload(0x40)\n      tag_52\n      swap2\n      swap1\n      tag_29\n      jump\t// in\n    tag_52:\n      mload(0x40)\n      dup1\n      swap2\n      sub\n      swap1\n      return\n        /* \"contracts/13_StorageProviderEscrow.sol\":431:448  uint256 public id */\n    tag_12:\n      tag_53\n      tag_54\n      jump\t// in\n    tag_53:\n      mload(0x40)\n      tag_55\n      swap2\n      swap1\n      tag_37\n      jump\t// in\n    tag_55:\n      mload(0x40)\n      dup1\n      swap2\n      sub\n      swap1\n      return\n        /* \"contracts/13_StorageProviderEscrow.sol\":1771:2126  function grantDatacapMock(address clientFilecoinAddress, uint256 amount) external {... */\n    tag_13:\n      tag_56\n      0x04\n      dup1\n      calldatasize\n      sub\n      dup2\n      add\n      swap1\n      tag_57\n      swap2\n      swap1\n      tag_26\n      jump\t// in\n    tag_57:\n      tag_58\n      jump\t// in\n    tag_56:\n      stop\n        /* \"contracts/13_StorageProviderEscrow.sol\":1020:1118  function addDatacap(uint256 amount) external onlyOwner {... */\n    tag_14:\n      tag_59\n      0x04\n      dup1\n      calldatasize\n      sub\n      dup2\n      add\n      swap1\n      tag_60\n      swap2\n      swap1\n      tag_22\n      jump\t// in\n    tag_60:\n      tag_61\n      jump\t// in\n    tag_59:\n      stop\n        /* \"@openzeppelin/contracts/access/Ownable.sol\":2543:2758  function transferOwnership(address newOwner) public virtual onlyOwner {... */\n    tag_15:\n      tag_62\n      0x04\n      dup1\n      calldatasize\n      sub\n      dup2\n      add\n      swap1\n      tag_63\n      swap2\n      swap1\n      tag_64\n      jump\t// in\n    tag_63:\n      tag_65\n      jump\t// in\n    tag_62:\n      stop\n        /* \"contracts/13_StorageProviderEscrow.sol\":1252:1665  function grantDatacap(bytes calldata clientFilecoinAddress, uint256 amount) external {... */\n    tag_16:\n      tag_66\n      0x04\n      dup1\n      calldatasize\n      sub\n      dup2\n      add\n      swap1\n      tag_67\n      swap2\n      swap1\n      tag_68\n      jump\t// in\n    tag_67:\n      tag_69\n      jump\t// in\n    tag_66:\n      stop\n        /* \"contracts/13_StorageProviderEscrow.sol\":917:1014  function setDatacap(uint256 amount) external onlyOwner {... */\n    tag_23:\n        /* \"@openzeppelin/contracts/access/Ownable.sol\":1531:1544  _checkOwner() */\n      tag_71\n        /* \"@openzeppelin/contracts/access/Ownable.sol\":1531:1542  _checkOwner */\n      tag_72\n        /* \"@openzeppelin/contracts/access/Ownable.sol\":1531:1544  _checkOwner() */\n      jump\t// in\n    tag_71:\n        /* \"contracts/13_StorageProviderEscrow.sol\":1001:1007  amount */\n      dup1\n        /* \"contracts/13_StorageProviderEscrow.sol\":982:998  remainingDatacap */\n      0x04\n        /* \"contracts/13_StorageProviderEscrow.sol\":982:1007  remainingDatacap = amount */\n      dup2\n      swap1\n      sstore\n      pop\n        /* \"contracts/13_StorageProviderEscrow.sol\":917:1014  function setDatacap(uint256 amount) external onlyOwner {... */\n      pop\n      jump\t// out\n        /* \"contracts/13_StorageProviderEscrow.sol\":3266:3431  function approve(address spender, uint256 value) external returns (bool) {... */\n    tag_27:\n        /* \"contracts/13_StorageProviderEscrow.sol\":3333:3337  bool */\n      0x00\n        /* \"contracts/13_StorageProviderEscrow.sol\":3349:3360  IERC20 usdc */\n      dup1\n        /* \"contracts/13_StorageProviderEscrow.sol\":3370:3378  usdcAddr */\n      0x01\n      0x00\n      swap1\n      sload\n      swap1\n      0x0100\n      exp\n      swap1\n      div\n      0xffffffffffffffffffffffffffffffffffffffff\n      and\n        /* \"contracts/13_StorageProviderEscrow.sol\":3349:3379  IERC20 usdc = IERC20(usdcAddr) */\n      swap1\n      pop\n        /* \"contracts/13_StorageProviderEscrow.sol\":3396:3400  usdc */\n      dup1\n        /* \"contracts/13_StorageProviderEscrow.sol\":3396:3408  usdc.approve */\n      0xffffffffffffffffffffffffffffffffffffffff\n      and\n      0x095ea7b3\n        /* \"contracts/13_StorageProviderEscrow.sol\":3409:3416  spender */\n      dup6\n        /* \"contracts/13_StorageProviderEscrow.sol\":3418:3423  value */\n      dup6\n        /* \"contracts/13_StorageProviderEscrow.sol\":3396:3424  usdc.approve(spender, value) */\n      mload(0x40)\n      dup4\n      0xffffffff\n      and\n      0xe0\n      shl\n      dup2\n      mstore\n      0x04\n      add\n      tag_75\n      swap3\n      swap2\n      swap1\n      tag_76\n      jump\t// in\n    tag_75:\n      0x20\n      mload(0x40)\n      dup1\n      dup4\n      sub\n      dup2\n      0x00\n      dup8\n      gas\n      call\n      iszero\n      dup1\n      iszero\n      tag_78\n      jumpi\n      returndatasize\n      0x00\n      dup1\n      returndatacopy\n      revert(0x00, returndatasize)\n    tag_78:\n      pop\n      pop\n      pop\n      pop\n      mload(0x40)\n      returndatasize\n      not(0x1f)\n      0x1f\n      dup3\n      add\n      and\n      dup3\n      add\n      dup1\n      0x40\n      mstore\n      pop\n      dup2\n      add\n      swap1\n      tag_79\n      swap2\n      swap1\n      tag_80\n      jump\t// in\n    tag_79:\n        /* \"contracts/13_StorageProviderEscrow.sol\":3389:3424  return usdc.approve(spender, value) */\n      swap2\n      pop\n      pop\n        /* \"contracts/13_StorageProviderEscrow.sol\":3266:3431  function approve(address spender, uint256 value) external returns (bool) {... */\n      swap3\n      swap2\n      pop\n      pop\n      jump\t// out\n        /* \"contracts/13_StorageProviderEscrow.sol\":391:424  address public datacapGatewayAddr */\n    tag_31:\n      0x02\n      0x00\n      swap1\n      sload\n      swap1\n      0x0100\n      exp\n      swap1\n      div\n      0xffffffffffffffffffffffffffffffffffffffff\n      and\n      dup2\n      jump\t// out\n        /* \"contracts/13_StorageProviderEscrow.sol\":455:486  uint256 public remainingDatacap */\n    tag_35:\n      sload(0x04)\n      dup2\n      jump\t// out\n        /* \"contracts/13_StorageProviderEscrow.sol\":733:911  function hasDatacapGatewayAccess() external view returns (bool) {... */\n    tag_39:\n        /* \"contracts/13_StorageProviderEscrow.sol\":791:795  bool */\n      0x00\n        /* \"contracts/13_StorageProviderEscrow.sol\":807:830  IDatacapGateway gateway */\n      dup1\n        /* \"contracts/13_StorageProviderEscrow.sol\":849:867  datacapGatewayAddr */\n      0x02\n      0x00\n      swap1\n      sload\n      swap1\n      0x0100\n      exp\n      swap1\n      div\n      0xffffffffffffffffffffffffffffffffffffffff\n      and\n        /* \"contracts/13_StorageProviderEscrow.sol\":807:868  IDatacapGateway gateway = IDatacapGateway(datacapGatewayAddr) */\n      swap1\n      pop\n        /* \"contracts/13_StorageProviderEscrow.sol\":885:892  gateway */\n      dup1\n        /* \"contracts/13_StorageProviderEscrow.sol\":885:902  gateway.hasAccess */\n      0xffffffffffffffffffffffffffffffffffffffff\n      and\n      0x85a2dd15\n        /* \"contracts/13_StorageProviderEscrow.sol\":885:904  gateway.hasAccess() */\n      mload(0x40)\n      dup2\n      0xffffffff\n      and\n      0xe0\n      shl\n      dup2\n      mstore\n      0x04\n      add\n      0x20\n      mload(0x40)\n      dup1\n      dup4\n      sub\n      dup2\n      dup7\n      gas\n      staticcall\n      iszero\n      dup1\n      iszero\n      tag_83\n      jumpi\n      returndatasize\n      0x00\n      dup1\n      returndatacopy\n      revert(0x00, returndatasize)\n    tag_83:\n      pop\n      pop\n      pop\n      pop\n      mload(0x40)\n      returndatasize\n      not(0x1f)\n      0x1f\n      dup3\n      add\n      and\n      dup3\n      add\n      dup1\n      0x40\n      mstore\n      pop\n      dup2\n      add\n      swap1\n      tag_84\n      swap2\n      swap1\n      tag_80\n      jump\t// in\n    tag_84:\n        /* \"contracts/13_StorageProviderEscrow.sol\":878:904  return gateway.hasAccess() */\n      swap2\n      pop\n      pop\n        /* \"contracts/13_StorageProviderEscrow.sol\":733:911  function hasDatacapGatewayAccess() external view returns (bool) {... */\n      swap1\n      jump\t// out\n        /* \"@openzeppelin/contracts/access/Ownable.sol\":2293:2394  function renounceOwnership() public virtual onlyOwner {... */\n    tag_42:\n        /* \"@openzeppelin/contracts/access/Ownable.sol\":1531:1544  _checkOwner() */\n      tag_86\n        /* \"@openzeppelin/contracts/access/Ownable.sol\":1531:1542  _checkOwner */\n      tag_72\n        /* \"@openzeppelin/contracts/access/Ownable.sol\":1531:1544  _checkOwner() */\n      jump\t// in\n    tag_86:\n        /* \"@openzeppelin/contracts/access/Ownable.sol\":2357:2387  _transferOwnership(address(0)) */\n      tag_88\n        /* \"@openzeppelin/contracts/access/Ownable.sol\":2384:2385  0 */\n      0x00\n        /* \"@openzeppelin/contracts/access/Ownable.sol\":2357:2375  _transferOwnership */\n      tag_89\n        /* \"@openzeppelin/contracts/access/Ownable.sol\":2357:2387  _transferOwnership(address(0)) */\n      jump\t// in\n    tag_88:\n        /* \"@openzeppelin/contracts/access/Ownable.sol\":2293:2394  function renounceOwnership() public virtual onlyOwner {... */\n      jump\t// out\n        /* \"@openzeppelin/contracts/access/Ownable.sol\":1638:1723  function owner() public view virtual returns (address) {... */\n    tag_44:\n        /* \"@openzeppelin/contracts/access/Ownable.sol\":1684:1691  address */\n      0x00\n        /* \"@openzeppelin/contracts/access/Ownable.sol\":1710:1716  _owner */\n      dup1\n      0x00\n      swap1\n      sload\n      swap1\n      0x0100\n      exp\n      swap1\n      div\n      0xffffffffffffffffffffffffffffffffffffffff\n      and\n        /* \"@openzeppelin/contracts/access/Ownable.sol\":1703:1716  return _owner */\n      swap1\n      pop\n        /* \"@openzeppelin/contracts/access/Ownable.sol\":1638:1723  function owner() public view virtual returns (address) {... */\n      swap1\n      jump\t// out\n        /* \"contracts/13_StorageProviderEscrow.sol\":361:384  address public usdcAddr */\n    tag_47:\n      0x01\n      0x00\n      swap1\n      sload\n      swap1\n      0x0100\n      exp\n      swap1\n      div\n      0xffffffffffffffffffffffffffffffffffffffff\n      and\n      dup2\n      jump\t// out\n        /* \"contracts/13_StorageProviderEscrow.sol\":2401:2558  function transfer(address to, uint256 value) external returns (bool) {... */\n    tag_51:\n        /* \"contracts/13_StorageProviderEscrow.sol\":2464:2468  bool */\n      0x00\n        /* \"contracts/13_StorageProviderEscrow.sol\":2480:2491  IERC20 usdc */\n      dup1\n        /* \"contracts/13_StorageProviderEscrow.sol\":2501:2509  usdcAddr */\n      0x01\n      0x00\n      swap1\n      sload\n      swap1\n      0x0100\n      exp\n      swap1\n      div\n      0xffffffffffffffffffffffffffffffffffffffff\n      and\n        /* \"contracts/13_StorageProviderEscrow.sol\":2480:2510  IERC20 usdc = IERC20(usdcAddr) */\n      swap1\n      pop\n        /* \"contracts/13_StorageProviderEscrow.sol\":2527:2531  usdc */\n      dup1\n        /* \"contracts/13_StorageProviderEscrow.sol\":2527:2540  usdc.transfer */\n      0xffffffffffffffffffffffffffffffffffffffff\n      and\n      0xa9059cbb\n        /* \"contracts/13_StorageProviderEscrow.sol\":2541:2543  to */\n      dup6\n        /* \"contracts/13_StorageProviderEscrow.sol\":2545:2550  value */\n      dup6\n        /* \"contracts/13_StorageProviderEscrow.sol\":2527:2551  usdc.transfer(to, value) */\n      mload(0x40)\n      dup4\n      0xffffffff\n      and\n      0xe0\n      shl\n      dup2\n      mstore\n      0x04\n      add\n      tag_92\n      swap3\n      swap2\n      swap1\n      tag_76\n      jump\t// in\n    tag_92:\n      0x20\n      mload(0x40)\n      dup1\n      dup4\n      sub\n      dup2\n      0x00\n      dup8\n      gas\n      call\n      iszero\n      dup1\n      iszero\n      tag_94\n      jumpi\n      returndatasize\n      0x00\n      dup1\n      returndatacopy\n      revert(0x00, returndatasize)\n    tag_94:\n      pop\n      pop\n      pop\n      pop\n      mload(0x40)\n      returndatasize\n      not(0x1f)\n      0x1f\n      dup3\n      add\n      and\n      dup3\n      add\n      dup1\n      0x40\n      mstore\n      pop\n      dup2\n      add\n      swap1\n      tag_95\n      swap2\n      swap1\n      tag_80\n      jump\t// in\n    tag_95:\n        /* \"contracts/13_StorageProviderEscrow.sol\":2520:2551  return usdc.transfer(to, value) */\n      swap2\n      pop\n      pop\n        /* \"contracts/13_StorageProviderEscrow.sol\":2401:2558  function transfer(address to, uint256 value) external returns (bool) {... */\n      swap3\n      swap2\n      pop\n      pop\n      jump\t// out\n        /* \"contracts/13_StorageProviderEscrow.sol\":431:448  uint256 public id */\n    tag_54:\n      sload(0x03)\n      dup2\n      jump\t// out\n        /* \"contracts/13_StorageProviderEscrow.sol\":1771:2126  function grantDatacapMock(address clientFilecoinAddress, uint256 amount) external {... */\n    tag_58:\n        /* \"contracts/13_StorageProviderEscrow.sol\":1887:1893  amount */\n      dup1\n        /* \"contracts/13_StorageProviderEscrow.sol\":1868:1884  remainingDatacap */\n      sload(0x04)\n        /* \"contracts/13_StorageProviderEscrow.sol\":1868:1893  remainingDatacap < amount */\n      lt\n        /* \"contracts/13_StorageProviderEscrow.sol\":1864:1948  if (remainingDatacap < amount) {... */\n      iszero\n      tag_97\n      jumpi\n        /* \"contracts/13_StorageProviderEscrow.sol\":1916:1937  InsufficientDatacap() */\n      mload(0x40)\n      0x6780822b00000000000000000000000000000000000000000000000000000000\n      dup2\n      mstore\n      0x04\n      add\n      mload(0x40)\n      dup1\n      swap2\n      sub\n      swap1\n      revert\n        /* \"contracts/13_StorageProviderEscrow.sol\":1864:1948  if (remainingDatacap < amount) {... */\n    tag_97:\n        /* \"contracts/13_StorageProviderEscrow.sol\":1977:1983  amount */\n      dup1\n        /* \"contracts/13_StorageProviderEscrow.sol\":1957:1973  remainingDatacap */\n      0x04\n      0x00\n        /* \"contracts/13_StorageProviderEscrow.sol\":1957:1983  remainingDatacap -= amount */\n      dup3\n      dup3\n      sload\n      tag_98\n      swap2\n      swap1\n      tag_99\n      jump\t// in\n    tag_98:\n      swap3\n      pop\n      pop\n      dup2\n      swap1\n      sstore\n      pop\n        /* \"contracts/13_StorageProviderEscrow.sol\":1993:2016  IDatacapGateway gateway */\n      0x00\n        /* \"contracts/13_StorageProviderEscrow.sol\":2035:2053  datacapGatewayAddr */\n      0x02\n      0x00\n      swap1\n      sload\n      swap1\n      0x0100\n      exp\n      swap1\n      div\n      0xffffffffffffffffffffffffffffffffffffffff\n      and\n        /* \"contracts/13_StorageProviderEscrow.sol\":1993:2054  IDatacapGateway gateway = IDatacapGateway(datacapGatewayAddr) */\n      swap1\n      pop\n        /* \"contracts/13_StorageProviderEscrow.sol\":2064:2071  gateway */\n      dup1\n        /* \"contracts/13_StorageProviderEscrow.sol\":2064:2088  gateway.grantDatacapMock */\n      0xffffffffffffffffffffffffffffffffffffffff\n      and\n      0xca09c885\n        /* \"contracts/13_StorageProviderEscrow.sol\":2089:2110  clientFilecoinAddress */\n      dup5\n        /* \"contracts/13_StorageProviderEscrow.sol\":2112:2118  amount */\n      dup5\n        /* \"contracts/13_StorageProviderEscrow.sol\":2064:2119  gateway.grantDatacapMock(clientFilecoinAddress, amount) */\n      mload(0x40)\n      dup4\n      0xffffffff\n      and\n      0xe0\n      shl\n      dup2\n      mstore\n      0x04\n      add\n      tag_100\n      swap3\n      swap2\n      swap1\n      tag_76\n      jump\t// in\n    tag_100:\n      0x00\n      mload(0x40)\n      dup1\n      dup4\n      sub\n      dup2\n      0x00\n      dup8\n      dup1\n      extcodesize\n      iszero\n      dup1\n      iszero\n      tag_101\n      jumpi\n      0x00\n      dup1\n      revert\n    tag_101:\n      pop\n      gas\n      call\n      iszero\n      dup1\n      iszero\n      tag_103\n      jumpi\n      returndatasize\n      0x00\n      dup1\n      returndatacopy\n      revert(0x00, returndatasize)\n    tag_103:\n      pop\n      pop\n      pop\n      pop\n        /* \"contracts/13_StorageProviderEscrow.sol\":1853:2126  {... */\n      pop\n        /* \"contracts/13_StorageProviderEscrow.sol\":1771:2126  function grantDatacapMock(address clientFilecoinAddress, uint256 amount) external {... */\n      pop\n      pop\n      jump\t// out\n        /* \"contracts/13_StorageProviderEscrow.sol\":1020:1118  function addDatacap(uint256 amount) external onlyOwner {... */\n    tag_61:\n        /* \"@openzeppelin/contracts/access/Ownable.sol\":1531:1544  _checkOwner() */\n      tag_105\n        /* \"@openzeppelin/contracts/access/Ownable.sol\":1531:1542  _checkOwner */\n      tag_72\n        /* \"@openzeppelin/contracts/access/Ownable.sol\":1531:1544  _checkOwner() */\n      jump\t// in\n    tag_105:\n        /* \"contracts/13_StorageProviderEscrow.sol\":1105:1111  amount */\n      dup1\n        /* \"contracts/13_StorageProviderEscrow.sol\":1085:1101  remainingDatacap */\n      0x04\n      0x00\n        /* \"contracts/13_StorageProviderEscrow.sol\":1085:1111  remainingDatacap += amount */\n      dup3\n      dup3\n      sload\n      tag_107\n      swap2\n      swap1\n      tag_108\n      jump\t// in\n    tag_107:\n      swap3\n      pop\n      pop\n      dup2\n      swap1\n      sstore\n      pop\n        /* \"contracts/13_StorageProviderEscrow.sol\":1020:1118  function addDatacap(uint256 amount) external onlyOwner {... */\n      pop\n      jump\t// out\n        /* \"@openzeppelin/contracts/access/Ownable.sol\":2543:2758  function transferOwnership(address newOwner) public virtual onlyOwner {... */\n    tag_65:\n        /* \"@openzeppelin/contracts/access/Ownable.sol\":1531:1544  _checkOwner() */\n      tag_110\n        /* \"@openzeppelin/contracts/access/Ownable.sol\":1531:1542  _checkOwner */\n      tag_72\n        /* \"@openzeppelin/contracts/access/Ownable.sol\":1531:1544  _checkOwner() */\n      jump\t// in\n    tag_110:\n        /* \"@openzeppelin/contracts/access/Ownable.sol\":2647:2648  0 */\n      0x00\n        /* \"@openzeppelin/contracts/access/Ownable.sol\":2627:2649  newOwner == address(0) */\n      0xffffffffffffffffffffffffffffffffffffffff\n      and\n        /* \"@openzeppelin/contracts/access/Ownable.sol\":2627:2635  newOwner */\n      dup2\n        /* \"@openzeppelin/contracts/access/Ownable.sol\":2627:2649  newOwner == address(0) */\n      0xffffffffffffffffffffffffffffffffffffffff\n      and\n      sub\n        /* \"@openzeppelin/contracts/access/Ownable.sol\":2623:2714  if (newOwner == address(0)) {... */\n      tag_112\n      jumpi\n        /* \"@openzeppelin/contracts/access/Ownable.sol\":2700:2701  0 */\n      0x00\n        /* \"@openzeppelin/contracts/access/Ownable.sol\":2672:2703  OwnableInvalidOwner(address(0)) */\n      mload(0x40)\n      0x1e4fbdf700000000000000000000000000000000000000000000000000000000\n      dup2\n      mstore\n      0x04\n      add\n      tag_113\n      swap2\n      swap1\n      tag_33\n      jump\t// in\n    tag_113:\n      mload(0x40)\n      dup1\n      swap2\n      sub\n      swap1\n      revert\n        /* \"@openzeppelin/contracts/access/Ownable.sol\":2623:2714  if (newOwner == address(0)) {... */\n    tag_112:\n        /* \"@openzeppelin/contracts/access/Ownable.sol\":2723:2751  _transferOwnership(newOwner) */\n      tag_114\n        /* \"@openzeppelin/contracts/access/Ownable.sol\":2742:2750  newOwner */\n      dup2\n        /* \"@openzeppelin/contracts/access/Ownable.sol\":2723:2741  _transferOwnership */\n      tag_89\n        /* \"@openzeppelin/contracts/access/Ownable.sol\":2723:2751  _transferOwnership(newOwner) */\n      jump\t// in\n    tag_114:\n        /* \"@openzeppelin/contracts/access/Ownable.sol\":2543:2758  function transferOwnership(address newOwner) public virtual onlyOwner {... */\n      pop\n      jump\t// out\n        /* \"contracts/13_StorageProviderEscrow.sol\":1252:1665  function grantDatacap(bytes calldata clientFilecoinAddress, uint256 amount) external {... */\n    tag_69:\n        /* \"contracts/13_StorageProviderEscrow.sol\":1370:1376  amount */\n      dup1\n        /* \"contracts/13_StorageProviderEscrow.sol\":1351:1367  remainingDatacap */\n      sload(0x04)\n        /* \"contracts/13_StorageProviderEscrow.sol\":1351:1376  remainingDatacap < amount */\n      lt\n        /* \"contracts/13_StorageProviderEscrow.sol\":1347:1431  if (remainingDatacap < amount) {... */\n      iszero\n      tag_116\n      jumpi\n        /* \"contracts/13_StorageProviderEscrow.sol\":1399:1420  InsufficientDatacap() */\n      mload(0x40)\n      0x6780822b00000000000000000000000000000000000000000000000000000000\n      dup2\n      mstore\n      0x04\n      add\n      mload(0x40)\n      dup1\n      swap2\n      sub\n      swap1\n      revert\n        /* \"contracts/13_StorageProviderEscrow.sol\":1347:1431  if (remainingDatacap < amount) {... */\n    tag_116:\n        /* \"contracts/13_StorageProviderEscrow.sol\":1460:1466  amount */\n      dup1\n        /* \"contracts/13_StorageProviderEscrow.sol\":1440:1456  remainingDatacap */\n      0x04\n      0x00\n        /* \"contracts/13_StorageProviderEscrow.sol\":1440:1466  remainingDatacap -= amount */\n      dup3\n      dup3\n      sload\n      tag_117\n      swap2\n      swap1\n      tag_99\n      jump\t// in\n    tag_117:\n      swap3\n      pop\n      pop\n      dup2\n      swap1\n      sstore\n      pop\n        /* \"contracts/13_StorageProviderEscrow.sol\":1476:1499  IDatacapGateway gateway */\n      0x00\n        /* \"contracts/13_StorageProviderEscrow.sol\":1518:1536  datacapGatewayAddr */\n      0x02\n      0x00\n      swap1\n      sload\n      swap1\n      0x0100\n      exp\n      swap1\n      div\n      0xffffffffffffffffffffffffffffffffffffffff\n      and\n        /* \"contracts/13_StorageProviderEscrow.sol\":1476:1537  IDatacapGateway gateway = IDatacapGateway(datacapGatewayAddr) */\n      swap1\n      pop\n        /* \"contracts/13_StorageProviderEscrow.sol\":1547:1554  gateway */\n      dup1\n        /* \"contracts/13_StorageProviderEscrow.sol\":1547:1567  gateway.grantDatacap */\n      0xffffffffffffffffffffffffffffffffffffffff\n      and\n      0xf4bd456d\n        /* \"contracts/13_StorageProviderEscrow.sol\":1568:1589  clientFilecoinAddress */\n      dup6\n      dup6\n        /* \"contracts/13_StorageProviderEscrow.sol\":1591:1597  amount */\n      dup6\n        /* \"contracts/13_StorageProviderEscrow.sol\":1547:1598  gateway.grantDatacap(clientFilecoinAddress, amount) */\n      mload(0x40)\n      dup5\n      0xffffffff\n      and\n      0xe0\n      shl\n      dup2\n      mstore\n      0x04\n      add\n      tag_118\n      swap4\n      swap3\n      swap2\n      swap1\n      tag_119\n      jump\t// in\n    tag_118:\n      0x00\n      mload(0x40)\n      dup1\n      dup4\n      sub\n      dup2\n      0x00\n      dup8\n      dup1\n      extcodesize\n      iszero\n      dup1\n      iszero\n      tag_120\n      jumpi\n      0x00\n      dup1\n      revert\n    tag_120:\n      pop\n      gas\n      call\n      iszero\n      dup1\n      iszero\n      tag_122\n      jumpi\n      returndatasize\n      0x00\n      dup1\n      returndatacopy\n      revert(0x00, returndatasize)\n    tag_122:\n      pop\n      pop\n      pop\n      pop\n        /* \"contracts/13_StorageProviderEscrow.sol\":1628:1649  clientFilecoinAddress */\n      dup4\n      dup4\n        /* \"contracts/13_StorageProviderEscrow.sol\":1613:1658  DatacapGranted(clientFilecoinAddress, amount) */\n      mload(0x40)\n      tag_123\n      swap3\n      swap2\n      swap1\n      tag_124\n      jump\t// in\n    tag_123:\n      mload(0x40)\n      dup1\n      swap2\n      sub\n      swap1\n      keccak256\n      0x0ed8e2ab11e77ce46aaa782a6083800d96ae9f35f27b8aa39066cc5bec988fe4\n        /* \"contracts/13_StorageProviderEscrow.sol\":1651:1657  amount */\n      dup4\n        /* \"contracts/13_StorageProviderEscrow.sol\":1613:1658  DatacapGranted(clientFilecoinAddress, amount) */\n      mload(0x40)\n      tag_125\n      swap2\n      swap1\n      tag_37\n      jump\t// in\n    tag_125:\n      mload(0x40)\n      dup1\n      swap2\n      sub\n      swap1\n      log2\n        /* \"contracts/13_StorageProviderEscrow.sol\":1337:1665  {... */\n      pop\n        /* \"contracts/13_StorageProviderEscrow.sol\":1252:1665  function grantDatacap(bytes calldata clientFilecoinAddress, uint256 amount) external {... */\n      pop\n      pop\n      pop\n      jump\t// out\n        /* \"@openzeppelin/contracts/access/Ownable.sol\":1796:1958  function _checkOwner() internal view virtual {... */\n    tag_72:\n        /* \"@openzeppelin/contracts/access/Ownable.sol\":1866:1878  _msgSender() */\n      tag_127\n        /* \"@openzeppelin/contracts/access/Ownable.sol\":1866:1876  _msgSender */\n      tag_128\n        /* \"@openzeppelin/contracts/access/Ownable.sol\":1866:1878  _msgSender() */\n      jump\t// in\n    tag_127:\n        /* \"@openzeppelin/contracts/access/Ownable.sol\":1855:1878  owner() != _msgSender() */\n      0xffffffffffffffffffffffffffffffffffffffff\n      and\n        /* \"@openzeppelin/contracts/access/Ownable.sol\":1855:1862  owner() */\n      tag_129\n        /* \"@openzeppelin/contracts/access/Ownable.sol\":1855:1860  owner */\n      tag_44\n        /* \"@openzeppelin/contracts/access/Ownable.sol\":1855:1862  owner() */\n      jump\t// in\n    tag_129:\n        /* \"@openzeppelin/contracts/access/Ownable.sol\":1855:1878  owner() != _msgSender() */\n      0xffffffffffffffffffffffffffffffffffffffff\n      and\n      eq\n        /* \"@openzeppelin/contracts/access/Ownable.sol\":1851:1952  if (owner() != _msgSender()) {... */\n      tag_130\n      jumpi\n        /* \"@openzeppelin/contracts/access/Ownable.sol\":1928:1940  _msgSender() */\n      tag_131\n        /* \"@openzeppelin/contracts/access/Ownable.sol\":1928:1938  _msgSender */\n      tag_128\n        /* \"@openzeppelin/contracts/access/Ownable.sol\":1928:1940  _msgSender() */\n      jump\t// in\n    tag_131:\n        /* \"@openzeppelin/contracts/access/Ownable.sol\":1901:1941  OwnableUnauthorizedAccount(_msgSender()) */\n      mload(0x40)\n      0x118cdaa700000000000000000000000000000000000000000000000000000000\n      dup2\n      mstore\n      0x04\n      add\n      tag_132\n      swap2\n      swap1\n      tag_33\n      jump\t// in\n    tag_132:\n      mload(0x40)\n      dup1\n      swap2\n      sub\n      swap1\n      revert\n        /* \"@openzeppelin/contracts/access/Ownable.sol\":1851:1952  if (owner() != _msgSender()) {... */\n    tag_130:\n        /* \"@openzeppelin/contracts/access/Ownable.sol\":1796:1958  function _checkOwner() internal view virtual {... */\n      jump\t// out\n        /* \"@openzeppelin/contracts/access/Ownable.sol\":2912:3099  function _transferOwnership(address newOwner) internal virtual {... */\n    tag_89:\n        /* \"@openzeppelin/contracts/access/Ownable.sol\":2985:3001  address oldOwner */\n      0x00\n        /* \"@openzeppelin/contracts/access/Ownable.sol\":3004:3010  _owner */\n      dup1\n      0x00\n      swap1\n      sload\n      swap1\n      0x0100\n      exp\n      swap1\n      div\n      0xffffffffffffffffffffffffffffffffffffffff\n      and\n        /* \"@openzeppelin/contracts/access/Ownable.sol\":2985:3010  address oldOwner = _owner */\n      swap1\n      pop\n        /* \"@openzeppelin/contracts/access/Ownable.sol\":3029:3037  newOwner */\n      dup2\n        /* \"@openzeppelin/contracts/access/Ownable.sol\":3020:3026  _owner */\n      0x00\n      dup1\n        /* \"@openzeppelin/contracts/access/Ownable.sol\":3020:3037  _owner = newOwner */\n      0x0100\n      exp\n      dup2\n      sload\n      dup2\n      0xffffffffffffffffffffffffffffffffffffffff\n      mul\n      not\n      and\n      swap1\n      dup4\n      0xffffffffffffffffffffffffffffffffffffffff\n      and\n      mul\n      or\n      swap1\n      sstore\n      pop\n        /* \"@openzeppelin/contracts/access/Ownable.sol\":3083:3091  newOwner */\n      dup2\n        /* \"@openzeppelin/contracts/access/Ownable.sol\":3052:3092  OwnershipTransferred(oldOwner, newOwner) */\n      0xffffffffffffffffffffffffffffffffffffffff\n      and\n        /* \"@openzeppelin/contracts/access/Ownable.sol\":3073:3081  oldOwner */\n      dup2\n        /* \"@openzeppelin/contracts/access/Ownable.sol\":3052:3092  OwnershipTransferred(oldOwner, newOwner) */\n      0xffffffffffffffffffffffffffffffffffffffff\n      and\n      0x8be0079c531659141344cd1fd0a4f28419497f9722a3daafe3b4186f6b6457e0\n      mload(0x40)\n      mload(0x40)\n      dup1\n      swap2\n      sub\n      swap1\n      log3\n        /* \"@openzeppelin/contracts/access/Ownable.sol\":2975:3099  {... */\n      pop\n        /* \"@openzeppelin/contracts/access/Ownable.sol\":2912:3099  function _transferOwnership(address newOwner) internal virtual {... */\n      pop\n      jump\t// out\n        /* \"@openzeppelin/contracts/utils/Context.sol\":656:752  function _msgSender() internal view virtual returns (address) {... */\n    tag_128:\n        /* \"@openzeppelin/contracts/utils/Context.sol\":709:716  address */\n      0x00\n        /* \"@openzeppelin/contracts/utils/Context.sol\":735:745  msg.sender */\n      caller\n        /* \"@openzeppelin/contracts/utils/Context.sol\":728:745  return msg.sender */\n      swap1\n      pop\n        /* \"@openzeppelin/contracts/utils/Context.sol\":656:752  function _msgSender() internal view virtual returns (address) {... */\n      swap1\n      jump\t// out\n        /* \"#utility.yul\":88:205   */\n    tag_136:\n        /* \"#utility.yul\":197:198   */\n      0x00\n        /* \"#utility.yul\":194:195   */\n      dup1\n        /* \"#utility.yul\":187:199   */\n      revert\n        /* \"#utility.yul\":211:328   */\n    tag_137:\n        /* \"#utility.yul\":320:321   */\n      0x00\n        /* \"#utility.yul\":317:318   */\n      dup1\n        /* \"#utility.yul\":310:322   */\n      revert\n        /* \"#utility.yul\":334:411   */\n    tag_138:\n        /* \"#utility.yul\":371:378   */\n      0x00\n        /* \"#utility.yul\":400:405   */\n      dup2\n        /* \"#utility.yul\":389:405   */\n      swap1\n      pop\n        /* \"#utility.yul\":334:411   */\n      swap2\n      swap1\n      pop\n      jump\t// out\n        /* \"#utility.yul\":417:539   */\n    tag_139:\n        /* \"#utility.yul\":490:514   */\n      tag_168\n        /* \"#utility.yul\":508:513   */\n      dup2\n        /* \"#utility.yul\":490:514   */\n      tag_138\n      jump\t// in\n    tag_168:\n        /* \"#utility.yul\":483:488   */\n      dup2\n        /* \"#utility.yul\":480:515   */\n      eq\n        /* \"#utility.yul\":470:533   */\n      tag_169\n      jumpi\n        /* \"#utility.yul\":529:530   */\n      0x00\n        /* \"#utility.yul\":526:527   */\n      dup1\n        /* \"#utility.yul\":519:531   */\n      revert\n        /* \"#utility.yul\":470:533   */\n    tag_169:\n        /* \"#utility.yul\":417:539   */\n      pop\n      jump\t// out\n        /* \"#utility.yul\":545:684   */\n    tag_140:\n        /* \"#utility.yul\":591:596   */\n      0x00\n        /* \"#utility.yul\":629:635   */\n      dup2\n        /* \"#utility.yul\":616:636   */\n      calldataload\n        /* \"#utility.yul\":607:636   */\n      swap1\n      pop\n        /* \"#utility.yul\":645:678   */\n      tag_171\n        /* \"#utility.yul\":672:677   */\n      dup2\n        /* \"#utility.yul\":645:678   */\n      tag_139\n      jump\t// in\n    tag_171:\n        /* \"#utility.yul\":545:684   */\n      swap3\n      swap2\n      pop\n      pop\n      jump\t// out\n        /* \"#utility.yul\":690:1019   */\n    tag_22:\n        /* \"#utility.yul\":749:755   */\n      0x00\n        /* \"#utility.yul\":798:800   */\n      0x20\n        /* \"#utility.yul\":786:795   */\n      dup3\n        /* \"#utility.yul\":777:784   */\n      dup5\n        /* \"#utility.yul\":773:796   */\n      sub\n        /* \"#utility.yul\":769:801   */\n      slt\n        /* \"#utility.yul\":766:885   */\n      iszero\n      tag_173\n      jumpi\n        /* \"#utility.yul\":804:883   */\n      tag_174\n      tag_136\n      jump\t// in\n    tag_174:\n        /* \"#utility.yul\":766:885   */\n    tag_173:\n        /* \"#utility.yul\":924:925   */\n      0x00\n        /* \"#utility.yul\":949:1002   */\n      tag_175\n        /* \"#utility.yul\":994:1001   */\n      dup5\n        /* \"#utility.yul\":985:991   */\n      dup3\n        /* \"#utility.yul\":974:983   */\n      dup6\n        /* \"#utility.yul\":970:992   */\n      add\n        /* \"#utility.yul\":949:1002   */\n      tag_140\n      jump\t// in\n    tag_175:\n        /* \"#utility.yul\":939:1002   */\n      swap2\n      pop\n        /* \"#utility.yul\":895:1012   */\n      pop\n        /* \"#utility.yul\":690:1019   */\n      swap3\n      swap2\n      pop\n      pop\n      jump\t// out\n        /* \"#utility.yul\":1025:1151   */\n    tag_141:\n        /* \"#utility.yul\":1062:1069   */\n      0x00\n        /* \"#utility.yul\":1102:1144   */\n      0xffffffffffffffffffffffffffffffffffffffff\n        /* \"#utility.yul\":1095:1100   */\n      dup3\n        /* \"#utility.yul\":1091:1145   */\n      and\n        /* \"#utility.yul\":1080:1145   */\n      swap1\n      pop\n        /* \"#utility.yul\":1025:1151   */\n      swap2\n      swap1\n      pop\n      jump\t// out\n        /* \"#utility.yul\":1157:1253   */\n    tag_142:\n        /* \"#utility.yul\":1194:1201   */\n      0x00\n        /* \"#utility.yul\":1223:1247   */\n      tag_178\n        /* \"#utility.yul\":1241:1246   */\n      dup3\n        /* \"#utility.yul\":1223:1247   */\n      tag_141\n      jump\t// in\n    tag_178:\n        /* \"#utility.yul\":1212:1247   */\n      swap1\n      pop\n        /* \"#utility.yul\":1157:1253   */\n      swap2\n      swap1\n      pop\n      jump\t// out\n        /* \"#utility.yul\":1259:1381   */\n    tag_143:\n        /* \"#utility.yul\":1332:1356   */\n      tag_180\n        /* \"#utility.yul\":1350:1355   */\n      dup2\n        /* \"#utility.yul\":1332:1356   */\n      tag_142\n      jump\t// in\n    tag_180:\n        /* \"#utility.yul\":1325:1330   */\n      dup2\n        /* \"#utility.yul\":1322:1357   */\n      eq\n        /* \"#utility.yul\":1312:1375   */\n      tag_181\n      jumpi\n        /* \"#utility.yul\":1371:1372   */\n      0x00\n        /* \"#utility.yul\":1368:1369   */\n      dup1\n        /* \"#utility.yul\":1361:1373   */\n      revert\n        /* \"#utility.yul\":1312:1375   */\n    tag_181:\n        /* \"#utility.yul\":1259:1381   */\n      pop\n      jump\t// out\n        /* \"#utility.yul\":1387:1526   */\n    tag_144:\n        /* \"#utility.yul\":1433:1438   */\n      0x00\n        /* \"#utility.yul\":1471:1477   */\n      dup2\n        /* \"#utility.yul\":1458:1478   */\n      calldataload\n        /* \"#utility.yul\":1449:1478   */\n      swap1\n      pop\n        /* \"#utility.yul\":1487:1520   */\n      tag_183\n        /* \"#utility.yul\":1514:1519   */\n      dup2\n        /* \"#utility.yul\":1487:1520   */\n      tag_143\n      jump\t// in\n    tag_183:\n        /* \"#utility.yul\":1387:1526   */\n      swap3\n      swap2\n      pop\n      pop\n      jump\t// out\n        /* \"#utility.yul\":1532:2006   */\n    tag_26:\n        /* \"#utility.yul\":1600:1606   */\n      0x00\n        /* \"#utility.yul\":1608:1614   */\n      dup1\n        /* \"#utility.yul\":1657:1659   */\n      0x40\n        /* \"#utility.yul\":1645:1654   */\n      dup4\n        /* \"#utility.yul\":1636:1643   */\n      dup6\n        /* \"#utility.yul\":1632:1655   */\n      sub\n        /* \"#utility.yul\":1628:1660   */\n      slt\n        /* \"#utility.yul\":1625:1744   */\n      iszero\n      tag_185\n      jumpi\n        /* \"#utility.yul\":1663:1742   */\n      tag_186\n      tag_136\n      jump\t// in\n    tag_186:\n        /* \"#utility.yul\":1625:1744   */\n    tag_185:\n        /* \"#utility.yul\":1783:1784   */\n      0x00\n        /* \"#utility.yul\":1808:1861   */\n      tag_187\n        /* \"#utility.yul\":1853:1860   */\n      dup6\n        /* \"#utility.yul\":1844:1850   */\n      dup3\n        /* \"#utility.yul\":1833:1842   */\n      dup7\n        /* \"#utility.yul\":1829:1851   */\n      add\n        /* \"#utility.yul\":1808:1861   */\n      tag_144\n      jump\t// in\n    tag_187:\n        /* \"#utility.yul\":1798:1861   */\n      swap3\n      pop\n        /* \"#utility.yul\":1754:1871   */\n      pop\n        /* \"#utility.yul\":1910:1912   */\n      0x20\n        /* \"#utility.yul\":1936:1989   */\n      tag_188\n        /* \"#utility.yul\":1981:1988   */\n      dup6\n        /* \"#utility.yul\":1972:1978   */\n      dup3\n        /* \"#utility.yul\":1961:1970   */\n      dup7\n        /* \"#utility.yul\":1957:1979   */\n      add\n        /* \"#utility.yul\":1936:1989   */\n      tag_140\n      jump\t// in\n    tag_188:\n        /* \"#utility.yul\":1926:1989   */\n      swap2\n      pop\n        /* \"#utility.yul\":1881:1999   */\n      pop\n        /* \"#utility.yul\":1532:2006   */\n      swap3\n      pop\n      swap3\n      swap1\n      pop\n      jump\t// out\n        /* \"#utility.yul\":2012:2102   */\n    tag_145:\n        /* \"#utility.yul\":2046:2053   */\n      0x00\n        /* \"#utility.yul\":2089:2094   */\n      dup2\n        /* \"#utility.yul\":2082:2095   */\n      iszero\n        /* \"#utility.yul\":2075:2096   */\n      iszero\n        /* \"#utility.yul\":2064:2096   */\n      swap1\n      pop\n        /* \"#utility.yul\":2012:2102   */\n      swap2\n      swap1\n      pop\n      jump\t// out\n        /* \"#utility.yul\":2108:2217   */\n    tag_146:\n        /* \"#utility.yul\":2189:2210   */\n      tag_191\n        /* \"#utility.yul\":2204:2209   */\n      dup2\n        /* \"#utility.yul\":2189:2210   */\n      tag_145\n      jump\t// in\n    tag_191:\n        /* \"#utility.yul\":2184:2187   */\n      dup3\n        /* \"#utility.yul\":2177:2211   */\n      mstore\n        /* \"#utility.yul\":2108:2217   */\n      pop\n      pop\n      jump\t// out\n        /* \"#utility.yul\":2223:2433   */\n    tag_29:\n        /* \"#utility.yul\":2310:2314   */\n      0x00\n        /* \"#utility.yul\":2348:2350   */\n      0x20\n        /* \"#utility.yul\":2337:2346   */\n      dup3\n        /* \"#utility.yul\":2333:2351   */\n      add\n        /* \"#utility.yul\":2325:2351   */\n      swap1\n      pop\n        /* \"#utility.yul\":2361:2426   */\n      tag_193\n        /* \"#utility.yul\":2423:2424   */\n      0x00\n        /* \"#utility.yul\":2412:2421   */\n      dup4\n        /* \"#utility.yul\":2408:2425   */\n      add\n        /* \"#utility.yul\":2399:2405   */\n      dup5\n        /* \"#utility.yul\":2361:2426   */\n      tag_146\n      jump\t// in\n    tag_193:\n        /* \"#utility.yul\":2223:2433   */\n      swap3\n      swap2\n      pop\n      pop\n      jump\t// out\n        /* \"#utility.yul\":2439:2557   */\n    tag_147:\n        /* \"#utility.yul\":2526:2550   */\n      tag_195\n        /* \"#utility.yul\":2544:2549   */\n      dup2\n        /* \"#utility.yul\":2526:2550   */\n      tag_142\n      jump\t// in\n    tag_195:\n        /* \"#utility.yul\":2521:2524   */\n      dup3\n        /* \"#utility.yul\":2514:2551   */\n      mstore\n        /* \"#utility.yul\":2439:2557   */\n      pop\n      pop\n      jump\t// out\n        /* \"#utility.yul\":2563:2785   */\n    tag_33:\n        /* \"#utility.yul\":2656:2660   */\n      0x00\n        /* \"#utility.yul\":2694:2696   */\n      0x20\n        /* \"#utility.yul\":2683:2692   */\n      dup3\n        /* \"#utility.yul\":2679:2697   */\n      add\n        /* \"#utility.yul\":2671:2697   */\n      swap1\n      pop\n        /* \"#utility.yul\":2707:2778   */\n      tag_197\n        /* \"#utility.yul\":2775:2776   */\n      0x00\n        /* \"#utility.yul\":2764:2773   */\n      dup4\n        /* \"#utility.yul\":2760:2777   */\n      add\n        /* \"#utility.yul\":2751:2757   */\n      dup5\n        /* \"#utility.yul\":2707:2778   */\n      tag_147\n      jump\t// in\n    tag_197:\n        /* \"#utility.yul\":2563:2785   */\n      swap3\n      swap2\n      pop\n      pop\n      jump\t// out\n        /* \"#utility.yul\":2791:2909   */\n    tag_148:\n        /* \"#utility.yul\":2878:2902   */\n      tag_199\n        /* \"#utility.yul\":2896:2901   */\n      dup2\n        /* \"#utility.yul\":2878:2902   */\n      tag_138\n      jump\t// in\n    tag_199:\n        /* \"#utility.yul\":2873:2876   */\n      dup3\n        /* \"#utility.yul\":2866:2903   */\n      mstore\n        /* \"#utility.yul\":2791:2909   */\n      pop\n      pop\n      jump\t// out\n        /* \"#utility.yul\":2915:3137   */\n    tag_37:\n        /* \"#utility.yul\":3008:3012   */\n      0x00\n        /* \"#utility.yul\":3046:3048   */\n      0x20\n        /* \"#utility.yul\":3035:3044   */\n      dup3\n        /* \"#utility.yul\":3031:3049   */\n      add\n        /* \"#utility.yul\":3023:3049   */\n      swap1\n      pop\n        /* \"#utility.yul\":3059:3130   */\n      tag_201\n        /* \"#utility.yul\":3127:3128   */\n      0x00\n        /* \"#utility.yul\":3116:3125   */\n      dup4\n        /* \"#utility.yul\":3112:3129   */\n      add\n        /* \"#utility.yul\":3103:3109   */\n      dup5\n        /* \"#utility.yul\":3059:3130   */\n      tag_148\n      jump\t// in\n    tag_201:\n        /* \"#utility.yul\":2915:3137   */\n      swap3\n      swap2\n      pop\n      pop\n      jump\t// out\n        /* \"#utility.yul\":3143:3472   */\n    tag_64:\n        /* \"#utility.yul\":3202:3208   */\n      0x00\n        /* \"#utility.yul\":3251:3253   */\n      0x20\n        /* \"#utility.yul\":3239:3248   */\n      dup3\n        /* \"#utility.yul\":3230:3237   */\n      dup5\n        /* \"#utility.yul\":3226:3249   */\n      sub\n        /* \"#utility.yul\":3222:3254   */\n      slt\n        /* \"#utility.yul\":3219:3338   */\n      iszero\n      tag_203\n      jumpi\n        /* \"#utility.yul\":3257:3336   */\n      tag_204\n      tag_136\n      jump\t// in\n    tag_204:\n        /* \"#utility.yul\":3219:3338   */\n    tag_203:\n        /* \"#utility.yul\":3377:3378   */\n      0x00\n        /* \"#utility.yul\":3402:3455   */\n      tag_205\n        /* \"#utility.yul\":3447:3454   */\n      dup5\n        /* \"#utility.yul\":3438:3444   */\n      dup3\n        /* \"#utility.yul\":3427:3436   */\n      dup6\n        /* \"#utility.yul\":3423:3445   */\n      add\n        /* \"#utility.yul\":3402:3455   */\n      tag_144\n      jump\t// in\n    tag_205:\n        /* \"#utility.yul\":3392:3455   */\n      swap2\n      pop\n        /* \"#utility.yul\":3348:3465   */\n      pop\n        /* \"#utility.yul\":3143:3472   */\n      swap3\n      swap2\n      pop\n      pop\n      jump\t// out\n        /* \"#utility.yul\":3478:3595   */\n    tag_149:\n        /* \"#utility.yul\":3587:3588   */\n      0x00\n        /* \"#utility.yul\":3584:3585   */\n      dup1\n        /* \"#utility.yul\":3577:3589   */\n      revert\n        /* \"#utility.yul\":3601:3718   */\n    tag_150:\n        /* \"#utility.yul\":3710:3711   */\n      0x00\n        /* \"#utility.yul\":3707:3708   */\n      dup1\n        /* \"#utility.yul\":3700:3712   */\n      revert\n        /* \"#utility.yul\":3724:3841   */\n    tag_151:\n        /* \"#utility.yul\":3833:3834   */\n      0x00\n        /* \"#utility.yul\":3830:3831   */\n      dup1\n        /* \"#utility.yul\":3823:3835   */\n      revert\n        /* \"#utility.yul\":3860:4412   */\n    tag_152:\n        /* \"#utility.yul\":3917:3925   */\n      0x00\n        /* \"#utility.yul\":3927:3933   */\n      dup1\n        /* \"#utility.yul\":3977:3980   */\n      dup4\n        /* \"#utility.yul\":3970:3974   */\n      0x1f\n        /* \"#utility.yul\":3962:3968   */\n      dup5\n        /* \"#utility.yul\":3958:3975   */\n      add\n        /* \"#utility.yul\":3954:3981   */\n      slt\n        /* \"#utility.yul\":3944:4066   */\n      tag_210\n      jumpi\n        /* \"#utility.yul\":3985:4064   */\n      tag_211\n      tag_149\n      jump\t// in\n    tag_211:\n        /* \"#utility.yul\":3944:4066   */\n    tag_210:\n        /* \"#utility.yul\":4098:4104   */\n      dup3\n        /* \"#utility.yul\":4085:4105   */\n      calldataload\n        /* \"#utility.yul\":4075:4105   */\n      swap1\n      pop\n        /* \"#utility.yul\":4128:4146   */\n      0xffffffffffffffff\n        /* \"#utility.yul\":4120:4126   */\n      dup2\n        /* \"#utility.yul\":4117:4147   */\n      gt\n        /* \"#utility.yul\":4114:4231   */\n      iszero\n      tag_212\n      jumpi\n        /* \"#utility.yul\":4150:4229   */\n      tag_213\n      tag_150\n      jump\t// in\n    tag_213:\n        /* \"#utility.yul\":4114:4231   */\n    tag_212:\n        /* \"#utility.yul\":4264:4268   */\n      0x20\n        /* \"#utility.yul\":4256:4262   */\n      dup4\n        /* \"#utility.yul\":4252:4269   */\n      add\n        /* \"#utility.yul\":4240:4269   */\n      swap2\n      pop\n        /* \"#utility.yul\":4318:4321   */\n      dup4\n        /* \"#utility.yul\":4310:4314   */\n      0x01\n        /* \"#utility.yul\":4302:4308   */\n      dup3\n        /* \"#utility.yul\":4298:4315   */\n      mul\n        /* \"#utility.yul\":4288:4296   */\n      dup4\n        /* \"#utility.yul\":4284:4316   */\n      add\n        /* \"#utility.yul\":4281:4322   */\n      gt\n        /* \"#utility.yul\":4278:4406   */\n      iszero\n      tag_214\n      jumpi\n        /* \"#utility.yul\":4325:4404   */\n      tag_215\n      tag_151\n      jump\t// in\n    tag_215:\n        /* \"#utility.yul\":4278:4406   */\n    tag_214:\n        /* \"#utility.yul\":3860:4412   */\n      swap3\n      pop\n      swap3\n      swap1\n      pop\n      jump\t// out\n        /* \"#utility.yul\":4418:5090   */\n    tag_68:\n        /* \"#utility.yul\":4497:4503   */\n      0x00\n        /* \"#utility.yul\":4505:4511   */\n      dup1\n        /* \"#utility.yul\":4513:4519   */\n      0x00\n        /* \"#utility.yul\":4562:4564   */\n      0x40\n        /* \"#utility.yul\":4550:4559   */\n      dup5\n        /* \"#utility.yul\":4541:4548   */\n      dup7\n        /* \"#utility.yul\":4537:4560   */\n      sub\n        /* \"#utility.yul\":4533:4565   */\n      slt\n        /* \"#utility.yul\":4530:4649   */\n      iszero\n      tag_217\n      jumpi\n        /* \"#utility.yul\":4568:4647   */\n      tag_218\n      tag_136\n      jump\t// in\n    tag_218:\n        /* \"#utility.yul\":4530:4649   */\n    tag_217:\n        /* \"#utility.yul\":4716:4717   */\n      0x00\n        /* \"#utility.yul\":4705:4714   */\n      dup5\n        /* \"#utility.yul\":4701:4718   */\n      add\n        /* \"#utility.yul\":4688:4719   */\n      calldataload\n        /* \"#utility.yul\":4746:4764   */\n      0xffffffffffffffff\n        /* \"#utility.yul\":4738:4744   */\n      dup2\n        /* \"#utility.yul\":4735:4765   */\n      gt\n        /* \"#utility.yul\":4732:4849   */\n      iszero\n      tag_219\n      jumpi\n        /* \"#utility.yul\":4768:4847   */\n      tag_220\n      tag_137\n      jump\t// in\n    tag_220:\n        /* \"#utility.yul\":4732:4849   */\n    tag_219:\n        /* \"#utility.yul\":4881:4945   */\n      tag_221\n        /* \"#utility.yul\":4937:4944   */\n      dup7\n        /* \"#utility.yul\":4928:4934   */\n      dup3\n        /* \"#utility.yul\":4917:4926   */\n      dup8\n        /* \"#utility.yul\":4913:4935   */\n      add\n        /* \"#utility.yul\":4881:4945   */\n      tag_152\n      jump\t// in\n    tag_221:\n        /* \"#utility.yul\":4863:4945   */\n      swap4\n      pop\n      swap4\n      pop\n        /* \"#utility.yul\":4659:4955   */\n      pop\n        /* \"#utility.yul\":4994:4996   */\n      0x20\n        /* \"#utility.yul\":5020:5073   */\n      tag_222\n        /* \"#utility.yul\":5065:5072   */\n      dup7\n        /* \"#utility.yul\":5056:5062   */\n      dup3\n        /* \"#utility.yul\":5045:5054   */\n      dup8\n        /* \"#utility.yul\":5041:5063   */\n      add\n        /* \"#utility.yul\":5020:5073   */\n      tag_140\n      jump\t// in\n    tag_222:\n        /* \"#utility.yul\":5010:5073   */\n      swap2\n      pop\n        /* \"#utility.yul\":4965:5083   */\n      pop\n        /* \"#utility.yul\":4418:5090   */\n      swap3\n      pop\n      swap3\n      pop\n      swap3\n      jump\t// out\n        /* \"#utility.yul\":5096:5428   */\n    tag_76:\n        /* \"#utility.yul\":5217:5221   */\n      0x00\n        /* \"#utility.yul\":5255:5257   */\n      0x40\n        /* \"#utility.yul\":5244:5253   */\n      dup3\n        /* \"#utility.yul\":5240:5258   */\n      add\n        /* \"#utility.yul\":5232:5258   */\n      swap1\n      pop\n        /* \"#utility.yul\":5268:5339   */\n      tag_224\n        /* \"#utility.yul\":5336:5337   */\n      0x00\n        /* \"#utility.yul\":5325:5334   */\n      dup4\n        /* \"#utility.yul\":5321:5338   */\n      add\n        /* \"#utility.yul\":5312:5318   */\n      dup6\n        /* \"#utility.yul\":5268:5339   */\n      tag_147\n      jump\t// in\n    tag_224:\n        /* \"#utility.yul\":5349:5421   */\n      tag_225\n        /* \"#utility.yul\":5417:5419   */\n      0x20\n        /* \"#utility.yul\":5406:5415   */\n      dup4\n        /* \"#utility.yul\":5402:5420   */\n      add\n        /* \"#utility.yul\":5393:5399   */\n      dup5\n        /* \"#utility.yul\":5349:5421   */\n      tag_148\n      jump\t// in\n    tag_225:\n        /* \"#utility.yul\":5096:5428   */\n      swap4\n      swap3\n      pop\n      pop\n      pop\n      jump\t// out\n        /* \"#utility.yul\":5434:5550   */\n    tag_153:\n        /* \"#utility.yul\":5504:5525   */\n      tag_227\n        /* \"#utility.yul\":5519:5524   */\n      dup2\n        /* \"#utility.yul\":5504:5525   */\n      tag_145\n      jump\t// in\n    tag_227:\n        /* \"#utility.yul\":5497:5502   */\n      dup2\n        /* \"#utility.yul\":5494:5526   */\n      eq\n        /* \"#utility.yul\":5484:5544   */\n      tag_228\n      jumpi\n        /* \"#utility.yul\":5540:5541   */\n      0x00\n        /* \"#utility.yul\":5537:5538   */\n      dup1\n        /* \"#utility.yul\":5530:5542   */\n      revert\n        /* \"#utility.yul\":5484:5544   */\n    tag_228:\n        /* \"#utility.yul\":5434:5550   */\n      pop\n      jump\t// out\n        /* \"#utility.yul\":5556:5693   */\n    tag_154:\n        /* \"#utility.yul\":5610:5615   */\n      0x00\n        /* \"#utility.yul\":5641:5647   */\n      dup2\n        /* \"#utility.yul\":5635:5648   */\n      mload\n        /* \"#utility.yul\":5626:5648   */\n      swap1\n      pop\n        /* \"#utility.yul\":5657:5687   */\n      tag_230\n        /* \"#utility.yul\":5681:5686   */\n      dup2\n        /* \"#utility.yul\":5657:5687   */\n      tag_153\n      jump\t// in\n    tag_230:\n        /* \"#utility.yul\":5556:5693   */\n      swap3\n      swap2\n      pop\n      pop\n      jump\t// out\n        /* \"#utility.yul\":5699:6044   */\n    tag_80:\n        /* \"#utility.yul\":5766:5772   */\n      0x00\n        /* \"#utility.yul\":5815:5817   */\n      0x20\n        /* \"#utility.yul\":5803:5812   */\n      dup3\n        /* \"#utility.yul\":5794:5801   */\n      dup5\n        /* \"#utility.yul\":5790:5813   */\n      sub\n        /* \"#utility.yul\":5786:5818   */\n      slt\n        /* \"#utility.yul\":5783:5902   */\n      iszero\n      tag_232\n      jumpi\n        /* \"#utility.yul\":5821:5900   */\n      tag_233\n      tag_136\n      jump\t// in\n    tag_233:\n        /* \"#utility.yul\":5783:5902   */\n    tag_232:\n        /* \"#utility.yul\":5941:5942   */\n      0x00\n        /* \"#utility.yul\":5966:6027   */\n      tag_234\n        /* \"#utility.yul\":6019:6026   */\n      dup5\n        /* \"#utility.yul\":6010:6016   */\n      dup3\n        /* \"#utility.yul\":5999:6008   */\n      dup6\n        /* \"#utility.yul\":5995:6017   */\n      add\n        /* \"#utility.yul\":5966:6027   */\n      tag_154\n      jump\t// in\n    tag_234:\n        /* \"#utility.yul\":5956:6027   */\n      swap2\n      pop\n        /* \"#utility.yul\":5912:6037   */\n      pop\n        /* \"#utility.yul\":5699:6044   */\n      swap3\n      swap2\n      pop\n      pop\n      jump\t// out\n        /* \"#utility.yul\":6050:6230   */\n    tag_155:\n        /* \"#utility.yul\":6098:6175   */\n      0x4e487b7100000000000000000000000000000000000000000000000000000000\n        /* \"#utility.yul\":6095:6096   */\n      0x00\n        /* \"#utility.yul\":6088:6176   */\n      mstore\n        /* \"#utility.yul\":6195:6199   */\n      0x11\n        /* \"#utility.yul\":6192:6193   */\n      0x04\n        /* \"#utility.yul\":6185:6200   */\n      mstore\n        /* \"#utility.yul\":6219:6223   */\n      0x24\n        /* \"#utility.yul\":6216:6217   */\n      0x00\n        /* \"#utility.yul\":6209:6224   */\n      revert\n        /* \"#utility.yul\":6236:6430   */\n    tag_99:\n        /* \"#utility.yul\":6276:6280   */\n      0x00\n        /* \"#utility.yul\":6296:6316   */\n      tag_237\n        /* \"#utility.yul\":6314:6315   */\n      dup3\n        /* \"#utility.yul\":6296:6316   */\n      tag_138\n      jump\t// in\n    tag_237:\n        /* \"#utility.yul\":6291:6316   */\n      swap2\n      pop\n        /* \"#utility.yul\":6330:6350   */\n      tag_238\n        /* \"#utility.yul\":6348:6349   */\n      dup4\n        /* \"#utility.yul\":6330:6350   */\n      tag_138\n      jump\t// in\n    tag_238:\n        /* \"#utility.yul\":6325:6350   */\n      swap3\n      pop\n        /* \"#utility.yul\":6374:6375   */\n      dup3\n        /* \"#utility.yul\":6371:6372   */\n      dup3\n        /* \"#utility.yul\":6367:6376   */\n      sub\n        /* \"#utility.yul\":6359:6376   */\n      swap1\n      pop\n        /* \"#utility.yul\":6398:6399   */\n      dup2\n        /* \"#utility.yul\":6392:6396   */\n      dup2\n        /* \"#utility.yul\":6389:6400   */\n      gt\n        /* \"#utility.yul\":6386:6423   */\n      iszero\n      tag_239\n      jumpi\n        /* \"#utility.yul\":6403:6421   */\n      tag_240\n      tag_155\n      jump\t// in\n    tag_240:\n        /* \"#utility.yul\":6386:6423   */\n    tag_239:\n        /* \"#utility.yul\":6236:6430   */\n      swap3\n      swap2\n      pop\n      pop\n      jump\t// out\n        /* \"#utility.yul\":6436:6627   */\n    tag_108:\n        /* \"#utility.yul\":6476:6479   */\n      0x00\n        /* \"#utility.yul\":6495:6515   */\n      tag_242\n        /* \"#utility.yul\":6513:6514   */\n      dup3\n        /* \"#utility.yul\":6495:6515   */\n      tag_138\n      jump\t// in\n    tag_242:\n        /* \"#utility.yul\":6490:6515   */\n      swap2\n      pop\n        /* \"#utility.yul\":6529:6549   */\n      tag_243\n        /* \"#utility.yul\":6547:6548   */\n      dup4\n        /* \"#utility.yul\":6529:6549   */\n      tag_138\n      jump\t// in\n    tag_243:\n        /* \"#utility.yul\":6524:6549   */\n      swap3\n      pop\n        /* \"#utility.yul\":6572:6573   */\n      dup3\n        /* \"#utility.yul\":6569:6570   */\n      dup3\n        /* \"#utility.yul\":6565:6574   */\n      add\n        /* \"#utility.yul\":6558:6574   */\n      swap1\n      pop\n        /* \"#utility.yul\":6593:6596   */\n      dup1\n        /* \"#utility.yul\":6590:6591   */\n      dup3\n        /* \"#utility.yul\":6587:6597   */\n      gt\n        /* \"#utility.yul\":6584:6620   */\n      iszero\n      tag_244\n      jumpi\n        /* \"#utility.yul\":6600:6618   */\n      tag_245\n      tag_155\n      jump\t// in\n    tag_245:\n        /* \"#utility.yul\":6584:6620   */\n    tag_244:\n        /* \"#utility.yul\":6436:6627   */\n      swap3\n      swap2\n      pop\n      pop\n      jump\t// out\n        /* \"#utility.yul\":6633:6801   */\n    tag_156:\n        /* \"#utility.yul\":6716:6727   */\n      0x00\n        /* \"#utility.yul\":6750:6756   */\n      dup3\n        /* \"#utility.yul\":6745:6748   */\n      dup3\n        /* \"#utility.yul\":6738:6757   */\n      mstore\n        /* \"#utility.yul\":6790:6794   */\n      0x20\n        /* \"#utility.yul\":6785:6788   */\n      dup3\n        /* \"#utility.yul\":6781:6795   */\n      add\n        /* \"#utility.yul\":6766:6795   */\n      swap1\n      pop\n        /* \"#utility.yul\":6633:6801   */\n      swap3\n      swap2\n      pop\n      pop\n      jump\t// out\n        /* \"#utility.yul\":6807:6955   */\n    tag_157:\n        /* \"#utility.yul\":6905:6911   */\n      dup3\n        /* \"#utility.yul\":6900:6903   */\n      dup2\n        /* \"#utility.yul\":6895:6898   */\n      dup4\n        /* \"#utility.yul\":6882:6912   */\n      calldatacopy\n        /* \"#utility.yul\":6946:6947   */\n      0x00\n        /* \"#utility.yul\":6937:6943   */\n      dup4\n        /* \"#utility.yul\":6932:6935   */\n      dup4\n        /* \"#utility.yul\":6928:6944   */\n      add\n        /* \"#utility.yul\":6921:6948   */\n      mstore\n        /* \"#utility.yul\":6807:6955   */\n      pop\n      pop\n      pop\n      jump\t// out\n        /* \"#utility.yul\":6961:7063   */\n    tag_158:\n        /* \"#utility.yul\":7002:7008   */\n      0x00\n        /* \"#utility.yul\":7053:7055   */\n      0x1f\n        /* \"#utility.yul\":7049:7056   */\n      not\n        /* \"#utility.yul\":7044:7046   */\n      0x1f\n        /* \"#utility.yul\":7037:7042   */\n      dup4\n        /* \"#utility.yul\":7033:7047   */\n      add\n        /* \"#utility.yul\":7029:7057   */\n      and\n        /* \"#utility.yul\":7019:7057   */\n      swap1\n      pop\n        /* \"#utility.yul\":6961:7063   */\n      swap2\n      swap1\n      pop\n      jump\t// out\n        /* \"#utility.yul\":7091:7405   */\n    tag_159:\n        /* \"#utility.yul\":7187:7190   */\n      0x00\n        /* \"#utility.yul\":7208:7278   */\n      tag_250\n        /* \"#utility.yul\":7271:7277   */\n      dup4\n        /* \"#utility.yul\":7266:7269   */\n      dup6\n        /* \"#utility.yul\":7208:7278   */\n      tag_156\n      jump\t// in\n    tag_250:\n        /* \"#utility.yul\":7201:7278   */\n      swap4\n      pop\n        /* \"#utility.yul\":7288:7344   */\n      tag_251\n        /* \"#utility.yul\":7337:7343   */\n      dup4\n        /* \"#utility.yul\":7332:7335   */\n      dup6\n        /* \"#utility.yul\":7325:7330   */\n      dup5\n        /* \"#utility.yul\":7288:7344   */\n      tag_157\n      jump\t// in\n    tag_251:\n        /* \"#utility.yul\":7369:7398   */\n      tag_252\n        /* \"#utility.yul\":7391:7397   */\n      dup4\n        /* \"#utility.yul\":7369:7398   */\n      tag_158\n      jump\t// in\n    tag_252:\n        /* \"#utility.yul\":7364:7367   */\n      dup5\n        /* \"#utility.yul\":7360:7399   */\n      add\n        /* \"#utility.yul\":7353:7399   */\n      swap1\n      pop\n        /* \"#utility.yul\":7091:7405   */\n      swap4\n      swap3\n      pop\n      pop\n      pop\n      jump\t// out\n        /* \"#utility.yul\":7411:7850   */\n    tag_119:\n        /* \"#utility.yul\":7560:7564   */\n      0x00\n        /* \"#utility.yul\":7598:7600   */\n      0x40\n        /* \"#utility.yul\":7587:7596   */\n      dup3\n        /* \"#utility.yul\":7583:7601   */\n      add\n        /* \"#utility.yul\":7575:7601   */\n      swap1\n      pop\n        /* \"#utility.yul\":7647:7656   */\n      dup2\n        /* \"#utility.yul\":7641:7645   */\n      dup2\n        /* \"#utility.yul\":7637:7657   */\n      sub\n        /* \"#utility.yul\":7633:7634   */\n      0x00\n        /* \"#utility.yul\":7622:7631   */\n      dup4\n        /* \"#utility.yul\":7618:7635   */\n      add\n        /* \"#utility.yul\":7611:7658   */\n      mstore\n        /* \"#utility.yul\":7675:7761   */\n      tag_254\n        /* \"#utility.yul\":7756:7760   */\n      dup2\n        /* \"#utility.yul\":7747:7753   */\n      dup6\n        /* \"#utility.yul\":7739:7745   */\n      dup8\n        /* \"#utility.yul\":7675:7761   */\n      tag_159\n      jump\t// in\n    tag_254:\n        /* \"#utility.yul\":7667:7761   */\n      swap1\n      pop\n        /* \"#utility.yul\":7771:7843   */\n      tag_255\n        /* \"#utility.yul\":7839:7841   */\n      0x20\n        /* \"#utility.yul\":7828:7837   */\n      dup4\n        /* \"#utility.yul\":7824:7842   */\n      add\n        /* \"#utility.yul\":7815:7821   */\n      dup5\n        /* \"#utility.yul\":7771:7843   */\n      tag_148\n      jump\t// in\n    tag_255:\n        /* \"#utility.yul\":7411:7850   */\n      swap5\n      swap4\n      pop\n      pop\n      pop\n      pop\n      jump\t// out\n        /* \"#utility.yul\":7856:8003   */\n    tag_160:\n        /* \"#utility.yul\":7957:7968   */\n      0x00\n        /* \"#utility.yul\":7994:7997   */\n      dup2\n        /* \"#utility.yul\":7979:7997   */\n      swap1\n      pop\n        /* \"#utility.yul\":7856:8003   */\n      swap3\n      swap2\n      pop\n      pop\n      jump\t// out\n        /* \"#utility.yul\":8031:8358   */\n    tag_161:\n        /* \"#utility.yul\":8145:8148   */\n      0x00\n        /* \"#utility.yul\":8166:8254   */\n      tag_258\n        /* \"#utility.yul\":8247:8253   */\n      dup4\n        /* \"#utility.yul\":8242:8245   */\n      dup6\n        /* \"#utility.yul\":8166:8254   */\n      tag_160\n      jump\t// in\n    tag_258:\n        /* \"#utility.yul\":8159:8254   */\n      swap4\n      pop\n        /* \"#utility.yul\":8264:8320   */\n      tag_259\n        /* \"#utility.yul\":8313:8319   */\n      dup4\n        /* \"#utility.yul\":8308:8311   */\n      dup6\n        /* \"#utility.yul\":8301:8306   */\n      dup5\n        /* \"#utility.yul\":8264:8320   */\n      tag_157\n      jump\t// in\n    tag_259:\n        /* \"#utility.yul\":8345:8351   */\n      dup3\n        /* \"#utility.yul\":8340:8343   */\n      dup5\n        /* \"#utility.yul\":8336:8352   */\n      add\n        /* \"#utility.yul\":8329:8352   */\n      swap1\n      pop\n        /* \"#utility.yul\":8031:8358   */\n      swap4\n      swap3\n      pop\n      pop\n      pop\n      jump\t// out\n        /* \"#utility.yul\":8364:8655   */\n    tag_124:\n        /* \"#utility.yul\":8504:8507   */\n      0x00\n        /* \"#utility.yul\":8526:8629   */\n      tag_261\n        /* \"#utility.yul\":8625:8628   */\n      dup3\n        /* \"#utility.yul\":8616:8622   */\n      dup5\n        /* \"#utility.yul\":8608:8614   */\n      dup7\n        /* \"#utility.yul\":8526:8629   */\n      tag_161\n      jump\t// in\n    tag_261:\n        /* \"#utility.yul\":8519:8629   */\n      swap2\n      pop\n        /* \"#utility.yul\":8646:8649   */\n      dup2\n        /* \"#utility.yul\":8639:8649   */\n      swap1\n      pop\n        /* \"#utility.yul\":8364:8655   */\n      swap4\n      swap3\n      pop\n      pop\n      pop\n      jump\t// out\n\n    auxdata: 0xa2646970667358221220fc173dcb75897a81d11ef7e62c4ab39da9c40af3a0523d301a707a6fe7e9eb2f64736f6c634300081a0033\n}\n",
				"bytecode": {
					"linkReferences": {},
					"object": "608060405234801561000f575f80fd5b506040516110e53803806110e583398181016040528101906100319190610294565b835f73ffffffffffffffffffffffffffffffffffffffff168173ffffffffffffffffffffffffffffffffffffffff16036100a2575f6040517f1e4fbdf70000000000000000000000000000000000000000000000000000000081526004016100999190610307565b60405180910390fd5b6100b18161014260201b60201c565b50806003819055508260015f6101000a81548173ffffffffffffffffffffffffffffffffffffffff021916908373ffffffffffffffffffffffffffffffffffffffff1602179055508160025f6101000a81548173ffffffffffffffffffffffffffffffffffffffff021916908373ffffffffffffffffffffffffffffffffffffffff16021790555050505050610320565b5f805f9054906101000a900473ffffffffffffffffffffffffffffffffffffffff169050815f806101000a81548173ffffffffffffffffffffffffffffffffffffffff021916908373ffffffffffffffffffffffffffffffffffffffff1602179055508173ffffffffffffffffffffffffffffffffffffffff168173ffffffffffffffffffffffffffffffffffffffff167f8be0079c531659141344cd1fd0a4f28419497f9722a3daafe3b4186f6b6457e060405160405180910390a35050565b5f80fd5b5f73ffffffffffffffffffffffffffffffffffffffff82169050919050565b5f61023082610207565b9050919050565b61024081610226565b811461024a575f80fd5b50565b5f8151905061025b81610237565b92915050565b5f819050919050565b61027381610261565b811461027d575f80fd5b50565b5f8151905061028e8161026a565b92915050565b5f805f80608085870312156102ac576102ab610203565b5b5f6102b98782880161024d565b94505060206102ca8782880161024d565b93505060406102db8782880161024d565b92505060606102ec87828801610280565b91505092959194509250565b61030181610226565b82525050565b5f60208201905061031a5f8301846102f8565b92915050565b610db88061032d5f395ff3fe608060405234801561000f575f80fd5b50600436106100e8575f3560e01c8063903e4fc31161008a578063ca09c88511610064578063ca09c88514610226578063db1411e014610242578063f2fde38b1461025e578063f4bd456d1461027a576100e8565b8063903e4fc3146101ba578063a9059cbb146101d8578063af640d0f14610208576100e8565b806328426fc4116100c657806328426fc4146101565780633478096314610174578063715018a6146101925780638da5cb5b1461019c576100e8565b806304b507c1146100ec578063095ea7b31461010857806321ccfd1e14610138575b5f80fd5b61010660048036038101906101019190610974565b610296565b005b610122600480360381019061011d91906109f9565b6102a8565b60405161012f9190610a51565b60405180910390f35b610140610352565b60405161014d9190610a79565b60405180910390f35b61015e610377565b60405161016b9190610aa1565b60405180910390f35b61017c61037d565b6040516101899190610a51565b60405180910390f35b61019a610416565b005b6101a4610429565b6040516101b19190610a79565b60405180910390f35b6101c2610450565b6040516101cf9190610a79565b60405180910390f35b6101f260048036038101906101ed91906109f9565b610475565b6040516101ff9190610a51565b60405180910390f35b61021061051f565b60405161021d9190610aa1565b60405180910390f35b610240600480360381019061023b91906109f9565b610525565b005b61025c60048036038101906102579190610974565b61060b565b005b61027860048036038101906102739190610aba565b61062e565b005b610294600480360381019061028f9190610b46565b6106b2565b005b61029e6107ea565b8060048190555050565b5f8060015f9054906101000a900473ffffffffffffffffffffffffffffffffffffffff1690508073ffffffffffffffffffffffffffffffffffffffff1663095ea7b385856040518363ffffffff1660e01b8152600401610309929190610ba3565b6020604051808303815f875af1158015610325573d5f803e3d5ffd5b505050506040513d601f19601f820116820180604052508101906103499190610bf4565b91505092915050565b60025f9054906101000a900473ffffffffffffffffffffffffffffffffffffffff1681565b60045481565b5f8060025f9054906101000a900473ffffffffffffffffffffffffffffffffffffffff1690508073ffffffffffffffffffffffffffffffffffffffff166385a2dd156040518163ffffffff1660e01b8152600401602060405180830381865afa1580156103ec573d5f803e3d5ffd5b505050506040513d601f19601f820116820180604052508101906104109190610bf4565b91505090565b61041e6107ea565b6104275f610871565b565b5f805f9054906101000a900473ffffffffffffffffffffffffffffffffffffffff16905090565b60015f9054906101000a900473ffffffffffffffffffffffffffffffffffffffff1681565b5f8060015f9054906101000a900473ffffffffffffffffffffffffffffffffffffffff1690508073ffffffffffffffffffffffffffffffffffffffff1663a9059cbb85856040518363ffffffff1660e01b81526004016104d6929190610ba3565b6020604051808303815f875af11580156104f2573d5f803e3d5ffd5b505050506040513d601f19601f820116820180604052508101906105169190610bf4565b91505092915050565b60035481565b806004541015610561576040517f6780822b00000000000000000000000000000000000000000000000000000000815260040160405180910390fd5b8060045f8282546105729190610c4c565b925050819055505f60025f9054906101000a900473ffffffffffffffffffffffffffffffffffffffff1690508073ffffffffffffffffffffffffffffffffffffffff1663ca09c88584846040518363ffffffff1660e01b81526004016105d9929190610ba3565b5f604051808303815f87803b1580156105f0575f80fd5b505af1158015610602573d5f803e3d5ffd5b50505050505050565b6106136107ea565b8060045f8282546106249190610c7f565b9250508190555050565b6106366107ea565b5f73ffffffffffffffffffffffffffffffffffffffff168173ffffffffffffffffffffffffffffffffffffffff16036106a6575f6040517f1e4fbdf700000000000000000000000000000000000000000000000000000000815260040161069d9190610a79565b60405180910390fd5b6106af81610871565b50565b8060045410156106ee576040517f6780822b00000000000000000000000000000000000000000000000000000000815260040160405180910390fd5b8060045f8282546106ff9190610c4c565b925050819055505f60025f9054906101000a900473ffffffffffffffffffffffffffffffffffffffff1690508073ffffffffffffffffffffffffffffffffffffffff1663f4bd456d8585856040518463ffffffff1660e01b815260040161076893929190610d0c565b5f604051808303815f87803b15801561077f575f80fd5b505af1158015610791573d5f803e3d5ffd5b5050505083836040516107a5929190610d6a565b60405180910390207f0ed8e2ab11e77ce46aaa782a6083800d96ae9f35f27b8aa39066cc5bec988fe4836040516107dc9190610aa1565b60405180910390a250505050565b6107f2610932565b73ffffffffffffffffffffffffffffffffffffffff16610810610429565b73ffffffffffffffffffffffffffffffffffffffff161461086f57610833610932565b6040517f118cdaa70000000000000000000000000000000000000000000000000000000081526004016108669190610a79565b60405180910390fd5b565b5f805f9054906101000a900473ffffffffffffffffffffffffffffffffffffffff169050815f806101000a81548173ffffffffffffffffffffffffffffffffffffffff021916908373ffffffffffffffffffffffffffffffffffffffff1602179055508173ffffffffffffffffffffffffffffffffffffffff168173ffffffffffffffffffffffffffffffffffffffff167f8be0079c531659141344cd1fd0a4f28419497f9722a3daafe3b4186f6b6457e060405160405180910390a35050565b5f33905090565b5f80fd5b5f80fd5b5f819050919050565b61095381610941565b811461095d575f80fd5b50565b5f8135905061096e8161094a565b92915050565b5f6020828403121561098957610988610939565b5b5f61099684828501610960565b91505092915050565b5f73ffffffffffffffffffffffffffffffffffffffff82169050919050565b5f6109c88261099f565b9050919050565b6109d8816109be565b81146109e2575f80fd5b50565b5f813590506109f3816109cf565b92915050565b5f8060408385031215610a0f57610a0e610939565b5b5f610a1c858286016109e5565b9250506020610a2d85828601610960565b9150509250929050565b5f8115159050919050565b610a4b81610a37565b82525050565b5f602082019050610a645f830184610a42565b92915050565b610a73816109be565b82525050565b5f602082019050610a8c5f830184610a6a565b92915050565b610a9b81610941565b82525050565b5f602082019050610ab45f830184610a92565b92915050565b5f60208284031215610acf57610ace610939565b5b5f610adc848285016109e5565b91505092915050565b5f80fd5b5f80fd5b5f80fd5b5f8083601f840112610b0657610b05610ae5565b5b8235905067ffffffffffffffff811115610b2357610b22610ae9565b5b602083019150836001820283011115610b3f57610b3e610aed565b5b9250929050565b5f805f60408486031215610b5d57610b5c610939565b5b5f84013567ffffffffffffffff811115610b7a57610b7961093d565b5b610b8686828701610af1565b93509350506020610b9986828701610960565b9150509250925092565b5f604082019050610bb65f830185610a6a565b610bc36020830184610a92565b9392505050565b610bd381610a37565b8114610bdd575f80fd5b50565b5f81519050610bee81610bca565b92915050565b5f60208284031215610c0957610c08610939565b5b5f610c1684828501610be0565b91505092915050565b7f4e487b71000000000000000000000000000000000000000000000000000000005f52601160045260245ffd5b5f610c5682610941565b9150610c6183610941565b9250828203905081811115610c7957610c78610c1f565b5b92915050565b5f610c8982610941565b9150610c9483610941565b9250828201905080821115610cac57610cab610c1f565b5b92915050565b5f82825260208201905092915050565b828183375f83830152505050565b5f601f19601f8301169050919050565b5f610ceb8385610cb2565b9350610cf8838584610cc2565b610d0183610cd0565b840190509392505050565b5f6040820190508181035f830152610d25818587610ce0565b9050610d346020830184610a92565b949350505050565b5f81905092915050565b5f610d518385610d3c565b9350610d5e838584610cc2565b82840190509392505050565b5f610d76828486610d46565b9150819050939250505056fea2646970667358221220fc173dcb75897a81d11ef7e62c4ab39da9c40af3a0523d301a707a6fe7e9eb2f64736f6c634300081a0033",
					"opcodes": "PUSH1 0x80 PUSH1 0x40 MSTORE CALLVALUE DUP1 ISZERO PUSH2 0xF JUMPI PUSH0 DUP1 REVERT JUMPDEST POP PUSH1 0x40 MLOAD PUSH2 0x10E5 CODESIZE SUB DUP1 PUSH2 0x10E5 DUP4 CODECOPY DUP2 DUP2 ADD PUSH1 0x40 MSTORE DUP2 ADD SWAP1 PUSH2 0x31 SWAP2 SWAP1 PUSH2 0x294 JUMP JUMPDEST DUP4 PUSH0 PUSH20 0xFFFFFFFFFFFFFFFFFFFFFFFFFFFFFFFFFFFFFFFF AND DUP2 PUSH20 0xFFFFFFFFFFFFFFFFFFFFFFFFFFFFFFFFFFFFFFFF AND SUB PUSH2 0xA2 JUMPI PUSH0 PUSH1 0x40 MLOAD PUSH32 0x1E4FBDF700000000000000000000000000000000000000000000000000000000 DUP2 MSTORE PUSH1 0x4 ADD PUSH2 0x99 SWAP2 SWAP1 PUSH2 0x307 JUMP JUMPDEST PUSH1 0x40 MLOAD DUP1 SWAP2 SUB SWAP1 REVERT JUMPDEST PUSH2 0xB1 DUP2 PUSH2 0x142 PUSH1 0x20 SHL PUSH1 0x20 SHR JUMP JUMPDEST POP DUP1 PUSH1 0x3 DUP2 SWAP1 SSTORE POP DUP3 PUSH1 0x1 PUSH0 PUSH2 0x100 EXP DUP2 SLOAD DUP2 PUSH20 0xFFFFFFFFFFFFFFFFFFFFFFFFFFFFFFFFFFFFFFFF MUL NOT AND SWAP1 DUP4 PUSH20 0xFFFFFFFFFFFFFFFFFFFFFFFFFFFFFFFFFFFFFFFF AND MUL OR SWAP1 SSTORE POP DUP2 PUSH1 0x2 PUSH0 PUSH2 0x100 EXP DUP2 SLOAD DUP2 PUSH20 0xFFFFFFFFFFFFFFFFFFFFFFFFFFFFFFFFFFFFFFFF MUL NOT AND SWAP1 DUP4 PUSH20 0xFFFFFFFFFFFFFFFFFFFFFFFFFFFFFFFFFFFFFFFF AND MUL OR SWAP1 SSTORE POP POP POP POP POP PUSH2 0x320 JUMP JUMPDEST PUSH0 DUP1 PUSH0 SWAP1 SLOAD SWAP1 PUSH2 0x100 EXP SWAP1 DIV PUSH20 0xFFFFFFFFFFFFFFFFFFFFFFFFFFFFFFFFFFFFFFFF AND SWAP1 POP DUP2 PUSH0 DUP1 PUSH2 0x100 EXP DUP2 SLOAD DUP2 PUSH20 0xFFFFFFFFFFFFFFFFFFFFFFFFFFFFFFFFFFFFFFFF MUL NOT AND SWAP1 DUP4 PUSH20 0xFFFFFFFFFFFFFFFFFFFFFFFFFFFFFFFFFFFFFFFF AND MUL OR SWAP1 SSTORE POP DUP2 PUSH20 0xFFFFFFFFFFFFFFFFFFFFFFFFFFFFFFFFFFFFFFFF AND DUP2 PUSH20 0xFFFFFFFFFFFFFFFFFFFFFFFFFFFFFFFFFFFFFFFF AND PUSH32 0x8BE0079C531659141344CD1FD0A4F28419497F9722A3DAAFE3B4186F6B6457E0 PUSH1 0x40 MLOAD PUSH1 0x40 MLOAD DUP1 SWAP2 SUB SWAP1 LOG3 POP POP JUMP JUMPDEST PUSH0 DUP1 REVERT JUMPDEST PUSH0 PUSH20 0xFFFFFFFFFFFFFFFFFFFFFFFFFFFFFFFFFFFFFFFF DUP3 AND SWAP1 POP SWAP2 SWAP1 POP JUMP JUMPDEST PUSH0 PUSH2 0x230 DUP3 PUSH2 0x207 JUMP JUMPDEST SWAP1 POP SWAP2 SWAP1 POP JUMP JUMPDEST PUSH2 0x240 DUP2 PUSH2 0x226 JUMP JUMPDEST DUP2 EQ PUSH2 0x24A JUMPI PUSH0 DUP1 REVERT JUMPDEST POP JUMP JUMPDEST PUSH0 DUP2 MLOAD SWAP1 POP PUSH2 0x25B DUP2 PUSH2 0x237 JUMP JUMPDEST SWAP3 SWAP2 POP POP JUMP JUMPDEST PUSH0 DUP2 SWAP1 POP SWAP2 SWAP1 POP JUMP JUMPDEST PUSH2 0x273 DUP2 PUSH2 0x261 JUMP JUMPDEST DUP2 EQ PUSH2 0x27D JUMPI PUSH0 DUP1 REVERT JUMPDEST POP JUMP JUMPDEST PUSH0 DUP2 MLOAD SWAP1 POP PUSH2 0x28E DUP2 PUSH2 0x26A JUMP JUMPDEST SWAP3 SWAP2 POP POP JUMP JUMPDEST PUSH0 DUP1 PUSH0 DUP1 PUSH1 0x80 DUP6 DUP8 SUB SLT ISZERO PUSH2 0x2AC JUMPI PUSH2 0x2AB PUSH2 0x203 JUMP JUMPDEST JUMPDEST PUSH0 PUSH2 0x2B9 DUP8 DUP3 DUP9 ADD PUSH2 0x24D JUMP JUMPDEST SWAP5 POP POP PUSH1 0x20 PUSH2 0x2CA DUP8 DUP3 DUP9 ADD PUSH2 0x24D JUMP JUMPDEST SWAP4 POP POP PUSH1 0x40 PUSH2 0x2DB DUP8 DUP3 DUP9 ADD PUSH2 0x24D JUMP JUMPDEST SWAP3 POP POP PUSH1 0x60 PUSH2 0x2EC DUP8 DUP3 DUP9 ADD PUSH2 0x280 JUMP JUMPDEST SWAP2 POP POP SWAP3 SWAP6 SWAP2 SWAP5 POP SWAP3 POP JUMP JUMPDEST PUSH2 0x301 DUP2 PUSH2 0x226 JUMP JUMPDEST DUP3 MSTORE POP POP JUMP JUMPDEST PUSH0 PUSH1 0x20 DUP3 ADD SWAP1 POP PUSH2 0x31A PUSH0 DUP4 ADD DUP5 PUSH2 0x2F8 JUMP JUMPDEST SWAP3 SWAP2 POP POP JUMP JUMPDEST PUSH2 0xDB8 DUP1 PUSH2 0x32D PUSH0 CODECOPY PUSH0 RETURN INVALID PUSH1 0x80 PUSH1 0x40 MSTORE CALLVALUE DUP1 ISZERO PUSH2 0xF JUMPI PUSH0 DUP1 REVERT JUMPDEST POP PUSH1 0x4 CALLDATASIZE LT PUSH2 0xE8 JUMPI PUSH0 CALLDATALOAD PUSH1 0xE0 SHR DUP1 PUSH4 0x903E4FC3 GT PUSH2 0x8A JUMPI DUP1 PUSH4 0xCA09C885 GT PUSH2 0x64 JUMPI DUP1 PUSH4 0xCA09C885 EQ PUSH2 0x226 JUMPI DUP1 PUSH4 0xDB1411E0 EQ PUSH2 0x242 JUMPI DUP1 PUSH4 0xF2FDE38B EQ PUSH2 0x25E JUMPI DUP1 PUSH4 0xF4BD456D EQ PUSH2 0x27A JUMPI PUSH2 0xE8 JUMP JUMPDEST DUP1 PUSH4 0x903E4FC3 EQ PUSH2 0x1BA JUMPI DUP1 PUSH4 0xA9059CBB EQ PUSH2 0x1D8 JUMPI DUP1 PUSH4 0xAF640D0F EQ PUSH2 0x208 JUMPI PUSH2 0xE8 JUMP JUMPDEST DUP1 PUSH4 0x28426FC4 GT PUSH2 0xC6 JUMPI DUP1 PUSH4 0x28426FC4 EQ PUSH2 0x156 JUMPI DUP1 PUSH4 0x34780963 EQ PUSH2 0x174 JUMPI DUP1 PUSH4 0x715018A6 EQ PUSH2 0x192 JUMPI DUP1 PUSH4 0x8DA5CB5B EQ PUSH2 0x19C JUMPI PUSH2 0xE8 JUMP JUMPDEST DUP1 PUSH4 0x4B507C1 EQ PUSH2 0xEC JUMPI DUP1 PUSH4 0x95EA7B3 EQ PUSH2 0x108 JUMPI DUP1 PUSH4 0x21CCFD1E EQ PUSH2 0x138 JUMPI JUMPDEST PUSH0 DUP1 REVERT JUMPDEST PUSH2 0x106 PUSH1 0x4 DUP1 CALLDATASIZE SUB DUP2 ADD SWAP1 PUSH2 0x101 SWAP2 SWAP1 PUSH2 0x974 JUMP JUMPDEST PUSH2 0x296 JUMP JUMPDEST STOP JUMPDEST PUSH2 0x122 PUSH1 0x4 DUP1 CALLDATASIZE SUB DUP2 ADD SWAP1 PUSH2 0x11D SWAP2 SWAP1 PUSH2 0x9F9 JUMP JUMPDEST PUSH2 0x2A8 JUMP JUMPDEST PUSH1 0x40 MLOAD PUSH2 0x12F SWAP2 SWAP1 PUSH2 0xA51 JUMP JUMPDEST PUSH1 0x40 MLOAD DUP1 SWAP2 SUB SWAP1 RETURN JUMPDEST PUSH2 0x140 PUSH2 0x352 JUMP JUMPDEST PUSH1 0x40 MLOAD PUSH2 0x14D SWAP2 SWAP1 PUSH2 0xA79 JUMP JUMPDEST PUSH1 0x40 MLOAD DUP1 SWAP2 SUB SWAP1 RETURN JUMPDEST PUSH2 0x15E PUSH2 0x377 JUMP JUMPDEST PUSH1 0x40 MLOAD PUSH2 0x16B SWAP2 SWAP1 PUSH2 0xAA1 JUMP JUMPDEST PUSH1 0x40 MLOAD DUP1 SWAP2 SUB SWAP1 RETURN JUMPDEST PUSH2 0x17C PUSH2 0x37D JUMP JUMPDEST PUSH1 0x40 MLOAD PUSH2 0x189 SWAP2 SWAP1 PUSH2 0xA51 JUMP JUMPDEST PUSH1 0x40 MLOAD DUP1 SWAP2 SUB SWAP1 RETURN JUMPDEST PUSH2 0x19A PUSH2 0x416 JUMP JUMPDEST STOP JUMPDEST PUSH2 0x1A4 PUSH2 0x429 JUMP JUMPDEST PUSH1 0x40 MLOAD PUSH2 0x1B1 SWAP2 SWAP1 PUSH2 0xA79 JUMP JUMPDEST PUSH1 0x40 MLOAD DUP1 SWAP2 SUB SWAP1 RETURN JUMPDEST PUSH2 0x1C2 PUSH2 0x450 JUMP JUMPDEST PUSH1 0x40 MLOAD PUSH2 0x1CF SWAP2 SWAP1 PUSH2 0xA79 JUMP JUMPDEST PUSH1 0x40 MLOAD DUP1 SWAP2 SUB SWAP1 RETURN JUMPDEST PUSH2 0x1F2 PUSH1 0x4 DUP1 CALLDATASIZE SUB DUP2 ADD SWAP1 PUSH2 0x1ED SWAP2 SWAP1 PUSH2 0x9F9 JUMP JUMPDEST PUSH2 0x475 JUMP JUMPDEST PUSH1 0x40 MLOAD PUSH2 0x1FF SWAP2 SWAP1 PUSH2 0xA51 JUMP JUMPDEST PUSH1 0x40 MLOAD DUP1 SWAP2 SUB SWAP1 RETURN JUMPDEST PUSH2 0x210 PUSH2 0x51F JUMP JUMPDEST PUSH1 0x40 MLOAD PUSH2 0x21D SWAP2 SWAP1 PUSH2 0xAA1 JUMP JUMPDEST PUSH1 0x40 MLOAD DUP1 SWAP2 SUB SWAP1 RETURN JUMPDEST PUSH2 0x240 PUSH1 0x4 DUP1 CALLDATASIZE SUB DUP2 ADD SWAP1 PUSH2 0x23B SWAP2 SWAP1 PUSH2 0x9F9 JUMP JUMPDEST PUSH2 0x525 JUMP JUMPDEST STOP JUMPDEST PUSH2 0x25C PUSH1 0x4 DUP1 CALLDATASIZE SUB DUP2 ADD SWAP1 PUSH2 0x257 SWAP2 SWAP1 PUSH2 0x974 JUMP JUMPDEST PUSH2 0x60B JUMP JUMPDEST STOP JUMPDEST PUSH2 0x278 PUSH1 0x4 DUP1 CALLDATASIZE SUB DUP2 ADD SWAP1 PUSH2 0x273 SWAP2 SWAP1 PUSH2 0xABA JUMP JUMPDEST PUSH2 0x62E JUMP JUMPDEST STOP JUMPDEST PUSH2 0x294 PUSH1 0x4 DUP1 CALLDATASIZE SUB DUP2 ADD SWAP1 PUSH2 0x28F SWAP2 SWAP1 PUSH2 0xB46 JUMP JUMPDEST PUSH2 0x6B2 JUMP JUMPDEST STOP JUMPDEST PUSH2 0x29E PUSH2 0x7EA JUMP JUMPDEST DUP1 PUSH1 0x4 DUP2 SWAP1 SSTORE POP POP JUMP JUMPDEST PUSH0 DUP1 PUSH1 0x1 PUSH0 SWAP1 SLOAD SWAP1 PUSH2 0x100 EXP SWAP1 DIV PUSH20 0xFFFFFFFFFFFFFFFFFFFFFFFFFFFFFFFFFFFFFFFF AND SWAP1 POP DUP1 PUSH20 0xFFFFFFFFFFFFFFFFFFFFFFFFFFFFFFFFFFFFFFFF AND PUSH4 0x95EA7B3 DUP6 DUP6 PUSH1 0x40 MLOAD DUP4 PUSH4 0xFFFFFFFF AND PUSH1 0xE0 SHL DUP2 MSTORE PUSH1 0x4 ADD PUSH2 0x309 SWAP3 SWAP2 SWAP1 PUSH2 0xBA3 JUMP JUMPDEST PUSH1 0x20 PUSH1 0x40 MLOAD DUP1 DUP4 SUB DUP2 PUSH0 DUP8 GAS CALL ISZERO DUP1 ISZERO PUSH2 0x325 JUMPI RETURNDATASIZE PUSH0 DUP1 RETURNDATACOPY RETURNDATASIZE PUSH0 REVERT JUMPDEST POP POP POP POP PUSH1 0x40 MLOAD RETURNDATASIZE PUSH1 0x1F NOT PUSH1 0x1F DUP3 ADD AND DUP3 ADD DUP1 PUSH1 0x40 MSTORE POP DUP2 ADD SWAP1 PUSH2 0x349 SWAP2 SWAP1 PUSH2 0xBF4 JUMP JUMPDEST SWAP2 POP POP SWAP3 SWAP2 POP POP JUMP JUMPDEST PUSH1 0x2 PUSH0 SWAP1 SLOAD SWAP1 PUSH2 0x100 EXP SWAP1 DIV PUSH20 0xFFFFFFFFFFFFFFFFFFFFFFFFFFFFFFFFFFFFFFFF AND DUP2 JUMP JUMPDEST PUSH1 0x4 SLOAD DUP2 JUMP JUMPDEST PUSH0 DUP1 PUSH1 0x2 PUSH0 SWAP1 SLOAD SWAP1 PUSH2 0x100 EXP SWAP1 DIV PUSH20 0xFFFFFFFFFFFFFFFFFFFFFFFFFFFFFFFFFFFFFFFF AND SWAP1 POP DUP1 PUSH20 0xFFFFFFFFFFFFFFFFFFFFFFFFFFFFFFFFFFFFFFFF AND PUSH4 0x85A2DD15 PUSH1 0x40 MLOAD DUP2 PUSH4 0xFFFFFFFF AND PUSH1 0xE0 SHL DUP2 MSTORE PUSH1 0x4 ADD PUSH1 0x20 PUSH1 0x40 MLOAD DUP1 DUP4 SUB DUP2 DUP7 GAS STATICCALL ISZERO DUP1 ISZERO PUSH2 0x3EC JUMPI RETURNDATASIZE PUSH0 DUP1 RETURNDATACOPY RETURNDATASIZE PUSH0 REVERT JUMPDEST POP POP POP POP PUSH1 0x40 MLOAD RETURNDATASIZE PUSH1 0x1F NOT PUSH1 0x1F DUP3 ADD AND DUP3 ADD DUP1 PUSH1 0x40 MSTORE POP DUP2 ADD SWAP1 PUSH2 0x410 SWAP2 SWAP1 PUSH2 0xBF4 JUMP JUMPDEST SWAP2 POP POP SWAP1 JUMP JUMPDEST PUSH2 0x41E PUSH2 0x7EA JUMP JUMPDEST PUSH2 0x427 PUSH0 PUSH2 0x871 JUMP JUMPDEST JUMP JUMPDEST PUSH0 DUP1 PUSH0 SWAP1 SLOAD SWAP1 PUSH2 0x100 EXP SWAP1 DIV PUSH20 0xFFFFFFFFFFFFFFFFFFFFFFFFFFFFFFFFFFFFFFFF AND SWAP1 POP SWAP1 JUMP JUMPDEST PUSH1 0x1 PUSH0 SWAP1 SLOAD SWAP1 PUSH2 0x100 EXP SWAP1 DIV PUSH20 0xFFFFFFFFFFFFFFFFFFFFFFFFFFFFFFFFFFFFFFFF AND DUP2 JUMP JUMPDEST PUSH0 DUP1 PUSH1 0x1 PUSH0 SWAP1 SLOAD SWAP1 PUSH2 0x100 EXP SWAP1 DIV PUSH20 0xFFFFFFFFFFFFFFFFFFFFFFFFFFFFFFFFFFFFFFFF AND SWAP1 POP DUP1 PUSH20 0xFFFFFFFFFFFFFFFFFFFFFFFFFFFFFFFFFFFFFFFF AND PUSH4 0xA9059CBB DUP6 DUP6 PUSH1 0x40 MLOAD DUP4 PUSH4 0xFFFFFFFF AND PUSH1 0xE0 SHL DUP2 MSTORE PUSH1 0x4 ADD PUSH2 0x4D6 SWAP3 SWAP2 SWAP1 PUSH2 0xBA3 JUMP JUMPDEST PUSH1 0x20 PUSH1 0x40 MLOAD DUP1 DUP4 SUB DUP2 PUSH0 DUP8 GAS CALL ISZERO DUP1 ISZERO PUSH2 0x4F2 JUMPI RETURNDATASIZE PUSH0 DUP1 RETURNDATACOPY RETURNDATASIZE PUSH0 REVERT JUMPDEST POP POP POP POP PUSH1 0x40 MLOAD RETURNDATASIZE PUSH1 0x1F NOT PUSH1 0x1F DUP3 ADD AND DUP3 ADD DUP1 PUSH1 0x40 MSTORE POP DUP2 ADD SWAP1 PUSH2 0x516 SWAP2 SWAP1 PUSH2 0xBF4 JUMP JUMPDEST SWAP2 POP POP SWAP3 SWAP2 POP POP JUMP JUMPDEST PUSH1 0x3 SLOAD DUP2 JUMP JUMPDEST DUP1 PUSH1 0x4 SLOAD LT ISZERO PUSH2 0x561 JUMPI PUSH1 0x40 MLOAD PUSH32 0x6780822B00000000000000000000000000000000000000000000000000000000 DUP2 MSTORE PUSH1 0x4 ADD PUSH1 0x40 MLOAD DUP1 SWAP2 SUB SWAP1 REVERT JUMPDEST DUP1 PUSH1 0x4 PUSH0 DUP3 DUP3 SLOAD PUSH2 0x572 SWAP2 SWAP1 PUSH2 0xC4C JUMP JUMPDEST SWAP3 POP POP DUP2 SWAP1 SSTORE POP PUSH0 PUSH1 0x2 PUSH0 SWAP1 SLOAD SWAP1 PUSH2 0x100 EXP SWAP1 DIV PUSH20 0xFFFFFFFFFFFFFFFFFFFFFFFFFFFFFFFFFFFFFFFF AND SWAP1 POP DUP1 PUSH20 0xFFFFFFFFFFFFFFFFFFFFFFFFFFFFFFFFFFFFFFFF AND PUSH4 0xCA09C885 DUP5 DUP5 PUSH1 0x40 MLOAD DUP4 PUSH4 0xFFFFFFFF AND PUSH1 0xE0 SHL DUP2 MSTORE PUSH1 0x4 ADD PUSH2 0x5D9 SWAP3 SWAP2 SWAP1 PUSH2 0xBA3 JUMP JUMPDEST PUSH0 PUSH1 0x40 MLOAD DUP1 DUP4 SUB DUP2 PUSH0 DUP8 DUP1 EXTCODESIZE ISZERO DUP1 ISZERO PUSH2 0x5F0 JUMPI PUSH0 DUP1 REVERT JUMPDEST POP GAS CALL ISZERO DUP1 ISZERO PUSH2 0x602 JUMPI RETURNDATASIZE PUSH0 DUP1 RETURNDATACOPY RETURNDATASIZE PUSH0 REVERT JUMPDEST POP POP POP POP POP POP POP JUMP JUMPDEST PUSH2 0x613 PUSH2 0x7EA JUMP JUMPDEST DUP1 PUSH1 0x4 PUSH0 DUP3 DUP3 SLOAD PUSH2 0x624 SWAP2 SWAP1 PUSH2 0xC7F JUMP JUMPDEST SWAP3 POP POP DUP2 SWAP1 SSTORE POP POP JUMP JUMPDEST PUSH2 0x636 PUSH2 0x7EA JUMP JUMPDEST PUSH0 PUSH20 0xFFFFFFFFFFFFFFFFFFFFFFFFFFFFFFFFFFFFFFFF AND DUP2 PUSH20 0xFFFFFFFFFFFFFFFFFFFFFFFFFFFFFFFFFFFFFFFF AND SUB PUSH2 0x6A6 JUMPI PUSH0 PUSH1 0x40 MLOAD PUSH32 0x1E4FBDF700000000000000000000000000000000000000000000000000000000 DUP2 MSTORE PUSH1 0x4 ADD PUSH2 0x69D SWAP2 SWAP1 PUSH2 0xA79 JUMP JUMPDEST PUSH1 0x40 MLOAD DUP1 SWAP2 SUB SWAP1 REVERT JUMPDEST PUSH2 0x6AF DUP2 PUSH2 0x871 JUMP JUMPDEST POP JUMP JUMPDEST DUP1 PUSH1 0x4 SLOAD LT ISZERO PUSH2 0x6EE JUMPI PUSH1 0x40 MLOAD PUSH32 0x6780822B00000000000000000000000000000000000000000000000000000000 DUP2 MSTORE PUSH1 0x4 ADD PUSH1 0x40 MLOAD DUP1 SWAP2 SUB SWAP1 REVERT JUMPDEST DUP1 PUSH1 0x4 PUSH0 DUP3 DUP3 SLOAD PUSH2 0x6FF SWAP2 SWAP1 PUSH2 0xC4C JUMP JUMPDEST SWAP3 POP POP DUP2 SWAP1 SSTORE POP PUSH0 PUSH1 0x2 PUSH0 SWAP1 SLOAD SWAP1 PUSH2 0x100 EXP SWAP1 DIV PUSH20 0xFFFFFFFFFFFFFFFFFFFFFFFFFFFFFFFFFFFFFFFF AND SWAP1 POP DUP1 PUSH20 0xFFFFFFFFFFFFFFFFFFFFFFFFFFFFFFFFFFFFFFFF AND PUSH4 0xF4BD456D DUP6 DUP6 DUP6 PUSH1 0x40 MLOAD DUP5 PUSH4 0xFFFFFFFF AND PUSH1 0xE0 SHL DUP2 MSTORE PUSH1 0x4 ADD PUSH2 0x768 SWAP4 SWAP3 SWAP2 SWAP1 PUSH2 0xD0C JUMP JUMPDEST PUSH0 PUSH1 0x40 MLOAD DUP1 DUP4 SUB DUP2 PUSH0 DUP8 DUP1 EXTCODESIZE ISZERO DUP1 ISZERO PUSH2 0x77F JUMPI PUSH0 DUP1 REVERT JUMPDEST POP GAS CALL ISZERO DUP1 ISZERO PUSH2 0x791 JUMPI RETURNDATASIZE PUSH0 DUP1 RETURNDATACOPY RETURNDATASIZE PUSH0 REVERT JUMPDEST POP POP POP POP DUP4 DUP4 PUSH1 0x40 MLOAD PUSH2 0x7A5 SWAP3 SWAP2 SWAP1 PUSH2 0xD6A JUMP JUMPDEST PUSH1 0x40 MLOAD DUP1 SWAP2 SUB SWAP1 KECCAK256 PUSH32 0xED8E2AB11E77CE46AAA782A6083800D96AE9F35F27B8AA39066CC5BEC988FE4 DUP4 PUSH1 0x40 MLOAD PUSH2 0x7DC SWAP2 SWAP1 PUSH2 0xAA1 JUMP JUMPDEST PUSH1 0x40 MLOAD DUP1 SWAP2 SUB SWAP1 LOG2 POP POP POP POP JUMP JUMPDEST PUSH2 0x7F2 PUSH2 0x932 JUMP JUMPDEST PUSH20 0xFFFFFFFFFFFFFFFFFFFFFFFFFFFFFFFFFFFFFFFF AND PUSH2 0x810 PUSH2 0x429 JUMP JUMPDEST PUSH20 0xFFFFFFFFFFFFFFFFFFFFFFFFFFFFFFFFFFFFFFFF AND EQ PUSH2 0x86F JUMPI PUSH2 0x833 PUSH2 0x932 JUMP JUMPDEST PUSH1 0x40 MLOAD PUSH32 0x118CDAA700000000000000000000000000000000000000000000000000000000 DUP2 MSTORE PUSH1 0x4 ADD PUSH2 0x866 SWAP2 SWAP1 PUSH2 0xA79 JUMP JUMPDEST PUSH1 0x40 MLOAD DUP1 SWAP2 SUB SWAP1 REVERT JUMPDEST JUMP JUMPDEST PUSH0 DUP1 PUSH0 SWAP1 SLOAD SWAP1 PUSH2 0x100 EXP SWAP1 DIV PUSH20 0xFFFFFFFFFFFFFFFFFFFFFFFFFFFFFFFFFFFFFFFF AND SWAP1 POP DUP2 PUSH0 DUP1 PUSH2 0x100 EXP DUP2 SLOAD DUP2 PUSH20 0xFFFFFFFFFFFFFFFFFFFFFFFFFFFFFFFFFFFFFFFF MUL NOT AND SWAP1 DUP4 PUSH20 0xFFFFFFFFFFFFFFFFFFFFFFFFFFFFFFFFFFFFFFFF AND MUL OR SWAP1 SSTORE POP DUP2 PUSH20 0xFFFFFFFFFFFFFFFFFFFFFFFFFFFFFFFFFFFFFFFF AND DUP2 PUSH20 0xFFFFFFFFFFFFFFFFFFFFFFFFFFFFFFFFFFFFFFFF AND PUSH32 0x8BE0079C531659141344CD1FD0A4F28419497F9722A3DAAFE3B4186F6B6457E0 PUSH1 0x40 MLOAD PUSH1 0x40 MLOAD DUP1 SWAP2 SUB SWAP1 LOG3 POP POP JUMP JUMPDEST PUSH0 CALLER SWAP1 POP SWAP1 JUMP JUMPDEST PUSH0 DUP1 REVERT JUMPDEST PUSH0 DUP1 REVERT JUMPDEST PUSH0 DUP2 SWAP1 POP SWAP2 SWAP1 POP JUMP JUMPDEST PUSH2 0x953 DUP2 PUSH2 0x941 JUMP JUMPDEST DUP2 EQ PUSH2 0x95D JUMPI PUSH0 DUP1 REVERT JUMPDEST POP JUMP JUMPDEST PUSH0 DUP2 CALLDATALOAD SWAP1 POP PUSH2 0x96E DUP2 PUSH2 0x94A JUMP JUMPDEST SWAP3 SWAP2 POP POP JUMP JUMPDEST PUSH0 PUSH1 0x20 DUP3 DUP5 SUB SLT ISZERO PUSH2 0x989 JUMPI PUSH2 0x988 PUSH2 0x939 JUMP JUMPDEST JUMPDEST PUSH0 PUSH2 0x996 DUP5 DUP3 DUP6 ADD PUSH2 0x960 JUMP JUMPDEST SWAP2 POP POP SWAP3 SWAP2 POP POP JUMP JUMPDEST PUSH0 PUSH20 0xFFFFFFFFFFFFFFFFFFFFFFFFFFFFFFFFFFFFFFFF DUP3 AND SWAP1 POP SWAP2 SWAP1 POP JUMP JUMPDEST PUSH0 PUSH2 0x9C8 DUP3 PUSH2 0x99F JUMP JUMPDEST SWAP1 POP SWAP2 SWAP1 POP JUMP JUMPDEST PUSH2 0x9D8 DUP2 PUSH2 0x9BE JUMP JUMPDEST DUP2 EQ PUSH2 0x9E2 JUMPI PUSH0 DUP1 REVERT JUMPDEST POP JUMP JUMPDEST PUSH0 DUP2 CALLDATALOAD SWAP1 POP PUSH2 0x9F3 DUP2 PUSH2 0x9CF JUMP JUMPDEST SWAP3 SWAP2 POP POP JUMP JUMPDEST PUSH0 DUP1 PUSH1 0x40 DUP4 DUP6 SUB SLT ISZERO PUSH2 0xA0F JUMPI PUSH2 0xA0E PUSH2 0x939 JUMP JUMPDEST JUMPDEST PUSH0 PUSH2 0xA1C DUP6 DUP3 DUP7 ADD PUSH2 0x9E5 JUMP JUMPDEST SWAP3 POP POP PUSH1 0x20 PUSH2 0xA2D DUP6 DUP3 DUP7 ADD PUSH2 0x960 JUMP JUMPDEST SWAP2 POP POP SWAP3 POP SWAP3 SWAP1 POP JUMP JUMPDEST PUSH0 DUP2 ISZERO ISZERO SWAP1 POP SWAP2 SWAP1 POP JUMP JUMPDEST PUSH2 0xA4B DUP2 PUSH2 0xA37 JUMP JUMPDEST DUP3 MSTORE POP POP JUMP JUMPDEST PUSH0 PUSH1 0x20 DUP3 ADD SWAP1 POP PUSH2 0xA64 PUSH0 DUP4 ADD DUP5 PUSH2 0xA42 JUMP JUMPDEST SWAP3 SWAP2 POP POP JUMP JUMPDEST PUSH2 0xA73 DUP2 PUSH2 0x9BE JUMP JUMPDEST DUP3 MSTORE POP POP JUMP JUMPDEST PUSH0 PUSH1 0x20 DUP3 ADD SWAP1 POP PUSH2 0xA8C PUSH0 DUP4 ADD DUP5 PUSH2 0xA6A JUMP JUMPDEST SWAP3 SWAP2 POP POP JUMP JUMPDEST PUSH2 0xA9B DUP2 PUSH2 0x941 JUMP JUMPDEST DUP3 MSTORE POP POP JUMP JUMPDEST PUSH0 PUSH1 0x20 DUP3 ADD SWAP1 POP PUSH2 0xAB4 PUSH0 DUP4 ADD DUP5 PUSH2 0xA92 JUMP JUMPDEST SWAP3 SWAP2 POP POP JUMP JUMPDEST PUSH0 PUSH1 0x20 DUP3 DUP5 SUB SLT ISZERO PUSH2 0xACF JUMPI PUSH2 0xACE PUSH2 0x939 JUMP JUMPDEST JUMPDEST PUSH0 PUSH2 0xADC DUP5 DUP3 DUP6 ADD PUSH2 0x9E5 JUMP JUMPDEST SWAP2 POP POP SWAP3 SWAP2 POP POP JUMP JUMPDEST PUSH0 DUP1 REVERT JUMPDEST PUSH0 DUP1 REVERT JUMPDEST PUSH0 DUP1 REVERT JUMPDEST PUSH0 DUP1 DUP4 PUSH1 0x1F DUP5 ADD SLT PUSH2 0xB06 JUMPI PUSH2 0xB05 PUSH2 0xAE5 JUMP JUMPDEST JUMPDEST DUP3 CALLDATALOAD SWAP1 POP PUSH8 0xFFFFFFFFFFFFFFFF DUP2 GT ISZERO PUSH2 0xB23 JUMPI PUSH2 0xB22 PUSH2 0xAE9 JUMP JUMPDEST JUMPDEST PUSH1 0x20 DUP4 ADD SWAP2 POP DUP4 PUSH1 0x1 DUP3 MUL DUP4 ADD GT ISZERO PUSH2 0xB3F JUMPI PUSH2 0xB3E PUSH2 0xAED JUMP JUMPDEST JUMPDEST SWAP3 POP SWAP3 SWAP1 POP JUMP JUMPDEST PUSH0 DUP1 PUSH0 PUSH1 0x40 DUP5 DUP7 SUB SLT ISZERO PUSH2 0xB5D JUMPI PUSH2 0xB5C PUSH2 0x939 JUMP JUMPDEST JUMPDEST PUSH0 DUP5 ADD CALLDATALOAD PUSH8 0xFFFFFFFFFFFFFFFF DUP2 GT ISZERO PUSH2 0xB7A JUMPI PUSH2 0xB79 PUSH2 0x93D JUMP JUMPDEST JUMPDEST PUSH2 0xB86 DUP7 DUP3 DUP8 ADD PUSH2 0xAF1 JUMP JUMPDEST SWAP4 POP SWAP4 POP POP PUSH1 0x20 PUSH2 0xB99 DUP7 DUP3 DUP8 ADD PUSH2 0x960 JUMP JUMPDEST SWAP2 POP POP SWAP3 POP SWAP3 POP SWAP3 JUMP JUMPDEST PUSH0 PUSH1 0x40 DUP3 ADD SWAP1 POP PUSH2 0xBB6 PUSH0 DUP4 ADD DUP6 PUSH2 0xA6A JUMP JUMPDEST PUSH2 0xBC3 PUSH1 0x20 DUP4 ADD DUP5 PUSH2 0xA92 JUMP JUMPDEST SWAP4 SWAP3 POP POP POP JUMP JUMPDEST PUSH2 0xBD3 DUP2 PUSH2 0xA37 JUMP JUMPDEST DUP2 EQ PUSH2 0xBDD JUMPI PUSH0 DUP1 REVERT JUMPDEST POP JUMP JUMPDEST PUSH0 DUP2 MLOAD SWAP1 POP PUSH2 0xBEE DUP2 PUSH2 0xBCA JUMP JUMPDEST SWAP3 SWAP2 POP POP JUMP JUMPDEST PUSH0 PUSH1 0x20 DUP3 DUP5 SUB SLT ISZERO PUSH2 0xC09 JUMPI PUSH2 0xC08 PUSH2 0x939 JUMP JUMPDEST JUMPDEST PUSH0 PUSH2 0xC16 DUP5 DUP3 DUP6 ADD PUSH2 0xBE0 JUMP JUMPDEST SWAP2 POP POP SWAP3 SWAP2 POP POP JUMP JUMPDEST PUSH32 0x4E487B7100000000000000000000000000000000000000000000000000000000 PUSH0 MSTORE PUSH1 0x11 PUSH1 0x4 MSTORE PUSH1 0x24 PUSH0 REVERT JUMPDEST PUSH0 PUSH2 0xC56 DUP3 PUSH2 0x941 JUMP JUMPDEST SWAP2 POP PUSH2 0xC61 DUP4 PUSH2 0x941 JUMP JUMPDEST SWAP3 POP DUP3 DUP3 SUB SWAP1 POP DUP2 DUP2 GT ISZERO PUSH2 0xC79 JUMPI PUSH2 0xC78 PUSH2 0xC1F JUMP JUMPDEST JUMPDEST SWAP3 SWAP2 POP POP JUMP JUMPDEST PUSH0 PUSH2 0xC89 DUP3 PUSH2 0x941 JUMP JUMPDEST SWAP2 POP PUSH2 0xC94 DUP4 PUSH2 0x941 JUMP JUMPDEST SWAP3 POP DUP3 DUP3 ADD SWAP1 POP DUP1 DUP3 GT ISZERO PUSH2 0xCAC JUMPI PUSH2 0xCAB PUSH2 0xC1F JUMP JUMPDEST JUMPDEST SWAP3 SWAP2 POP POP JUMP JUMPDEST PUSH0 DUP3 DUP3 MSTORE PUSH1 0x20 DUP3 ADD SWAP1 POP SWAP3 SWAP2 POP POP JUMP JUMPDEST DUP3 DUP2 DUP4 CALLDATACOPY PUSH0 DUP4 DUP4 ADD MSTORE POP POP POP JUMP JUMPDEST PUSH0 PUSH1 0x1F NOT PUSH1 0x1F DUP4 ADD AND SWAP1 POP SWAP2 SWAP1 POP JUMP JUMPDEST PUSH0 PUSH2 0xCEB DUP4 DUP6 PUSH2 0xCB2 JUMP JUMPDEST SWAP4 POP PUSH2 0xCF8 DUP4 DUP6 DUP5 PUSH2 0xCC2 JUMP JUMPDEST PUSH2 0xD01 DUP4 PUSH2 0xCD0 JUMP JUMPDEST DUP5 ADD SWAP1 POP SWAP4 SWAP3 POP POP POP JUMP JUMPDEST PUSH0 PUSH1 0x40 DUP3 ADD SWAP1 POP DUP2 DUP2 SUB PUSH0 DUP4 ADD MSTORE PUSH2 0xD25 DUP2 DUP6 DUP8 PUSH2 0xCE0 JUMP JUMPDEST SWAP1 POP PUSH2 0xD34 PUSH1 0x20 DUP4 ADD DUP5 PUSH2 0xA92 JUMP JUMPDEST SWAP5 SWAP4 POP POP POP POP JUMP JUMPDEST PUSH0 DUP2 SWAP1 POP SWAP3 SWAP2 POP POP JUMP JUMPDEST PUSH0 PUSH2 0xD51 DUP4 DUP6 PUSH2 0xD3C JUMP JUMPDEST SWAP4 POP PUSH2 0xD5E DUP4 DUP6 DUP5 PUSH2 0xCC2 JUMP JUMPDEST DUP3 DUP5 ADD SWAP1 POP SWAP4 SWAP3 POP POP POP JUMP JUMPDEST PUSH0 PUSH2 0xD76 DUP3 DUP5 DUP7 PUSH2 0xD46 JUMP JUMPDEST SWAP2 POP DUP2 SWAP1 POP SWAP4 SWAP3 POP POP POP JUMP INVALID LOG2 PUSH5 0x6970667358 0x22 SLT KECCAK256 0xFC OR RETURNDATASIZE 0xCB PUSH22 0x897A81D11EF7E62C4AB39DA9C40AF3A0523D301A707A PUSH16 0xE7E9EB2F64736F6C634300081A003300 "
				},
				"gasEstimates": {
					"creation": {
						"codeDepositCost": "702400",
						"executionCost": "infinite",
						"totalCost": "infinite"
					},
					"external": {
						"addDatacap(uint256)": "infinite",
						"approve(address,uint256)": "infinite",
						"datacapGatewayAddr()": "2576",
						"grantDatacap(bytes,uint256)": "infinite",
						"grantDatacapMock(address,uint256)": "infinite",
						"hasDatacapGatewayAccess()": "infinite",
						"id()": "2492",
						"owner()": "2604",
						"remainingDatacap()": "2448",
						"renounceOwnership()": "infinite",
						"setDatacap(uint256)": "infinite",
						"transfer(address,uint256)": "infinite",
						"transferOwnership(address)": "infinite",
						"usdcAddr()": "2531"
					}
				},
				"methodIdentifiers": {
					"addDatacap(uint256)": "db1411e0",
					"approve(address,uint256)": "095ea7b3",
					"datacapGatewayAddr()": "21ccfd1e",
					"grantDatacap(bytes,uint256)": "f4bd456d",
					"grantDatacapMock(address,uint256)": "ca09c885",
					"hasDatacapGatewayAccess()": "34780963",
					"id()": "af640d0f",
					"owner()": "8da5cb5b",
					"remainingDatacap()": "28426fc4",
					"renounceOwnership()": "715018a6",
					"setDatacap(uint256)": "04b507c1",
					"transfer(address,uint256)": "a9059cbb",
					"transferOwnership(address)": "f2fde38b",
					"usdcAddr()": "903e4fc3"
				}
			},
			"storageLayout": {
				"storage": [
					{
						"astId": 8,
						"contract": "contracts/13_StorageProviderEscrow.sol:StorageProviderEscrow",
						"label": "_owner",
						"offset": 0,
						"slot": "0",
						"type": "t_address"
					},
					{
						"astId": 267,
						"contract": "contracts/13_StorageProviderEscrow.sol:StorageProviderEscrow",
						"label": "usdcAddr",
						"offset": 0,
						"slot": "1",
						"type": "t_address"
					},
					{
						"astId": 269,
						"contract": "contracts/13_StorageProviderEscrow.sol:StorageProviderEscrow",
						"label": "datacapGatewayAddr",
						"offset": 0,
						"slot": "2",
						"type": "t_address"
					},
					{
						"astId": 271,
						"contract": "contracts/13_StorageProviderEscrow.sol:StorageProviderEscrow",
						"label": "id",
						"offset": 0,
						"slot": "3",
						"type": "t_uint256"
					},
					{
						"astId": 273,
						"contract": "contracts/13_StorageProviderEscrow.sol:StorageProviderEscrow",
						"label": "remainingDatacap",
						"offset": 0,
						"slot": "4",
						"type": "t_uint256"
					}
				],
				"types": {
					"t_address": {
						"encoding": "inplace",
						"label": "address",
						"numberOfBytes": "20"
					},
					"t_uint256": {
						"encoding": "inplace",
						"label": "uint256",
						"numberOfBytes": "32"
					}
				}
			},
			"userdoc": {
				"kind": "user",
				"methods": {},
				"version": 1
			}
		}
	}
}