{
	"contracts/16_DatacapGatewayAxelar.sol": {
		"DatacapGatewayAxelar": {
			"abi": [
				{
					"inputs": [
						{
							"internalType": "address",
							"name": "initialOwner",
							"type": "address"
						},
						{
							"internalType": "address",
							"name": "_mockAllocator",
							"type": "address"
						},
						{
							"internalType": "address",
							"name": "axelarGateway",
							"type": "address"
						},
						{
							"internalType": "address",
							"name": "axelarGasService",
							"type": "address"
						},
						{
							"internalType": "string",
							"name": "destinationChain",
							"type": "string"
						},
						{
							"internalType": "string",
							"name": "destinationAddress",
							"type": "string"
						}
					],
					"stateMutability": "nonpayable",
					"type": "constructor"
				},
				{
					"inputs": [
						{
							"internalType": "address",
							"name": "owner",
							"type": "address"
						}
					],
					"name": "OwnableInvalidOwner",
					"type": "error"
				},
				{
					"inputs": [
						{
							"internalType": "address",
							"name": "account",
							"type": "address"
						}
					],
					"name": "OwnableUnauthorizedAccount",
					"type": "error"
				},
				{
					"inputs": [],
					"name": "StorageProviderEscrowFactoryUnset",
					"type": "error"
				},
				{
					"inputs": [
						{
							"internalType": "address",
							"name": "account",
							"type": "address"
						}
					],
					"name": "UnauthorizedAccount",
					"type": "error"
				},
				{
					"anonymous": false,
					"inputs": [
						{
							"indexed": true,
							"internalType": "address",
							"name": "previousOwner",
							"type": "address"
						},
						{
							"indexed": true,
							"internalType": "address",
							"name": "newOwner",
							"type": "address"
						}
					],
					"name": "OwnershipTransferred",
					"type": "event"
				},
				{
					"inputs": [],
					"name": "axelarGatewayAddr",
					"outputs": [
						{
							"internalType": "address",
							"name": "",
							"type": "address"
						}
					],
					"stateMutability": "view",
					"type": "function"
				},
				{
					"inputs": [],
					"name": "destAddr",
					"outputs": [
						{
							"internalType": "string",
							"name": "",
							"type": "string"
						}
					],
					"stateMutability": "view",
					"type": "function"
				},
				{
					"inputs": [],
					"name": "destChain",
					"outputs": [
						{
							"internalType": "string",
							"name": "",
							"type": "string"
						}
					],
					"stateMutability": "view",
					"type": "function"
				},
				{
					"inputs": [],
					"name": "gasService",
					"outputs": [
						{
							"internalType": "contract IAxelarGasService",
							"name": "",
							"type": "address"
						}
					],
					"stateMutability": "view",
					"type": "function"
				},
				{
					"inputs": [
						{
							"internalType": "bytes",
							"name": "clientFilecoinAddress",
							"type": "bytes"
						},
						{
							"internalType": "uint256",
							"name": "amount",
							"type": "uint256"
						}
					],
					"name": "grantDatacap",
					"outputs": [],
					"stateMutability": "nonpayable",
					"type": "function"
				},
				{
					"inputs": [
						{
							"internalType": "address",
							"name": "clientFilecoinAddress",
							"type": "address"
						},
						{
							"internalType": "uint256",
							"name": "amount",
							"type": "uint256"
						}
					],
					"name": "grantDatacapMock",
					"outputs": [],
					"stateMutability": "nonpayable",
					"type": "function"
				},
				{
					"inputs": [],
					"name": "hasAccess",
					"outputs": [
						{
							"internalType": "bool",
							"name": "",
							"type": "bool"
						}
					],
					"stateMutability": "view",
					"type": "function"
				},
				{
					"inputs": [],
					"name": "mockAllocator",
					"outputs": [
						{
							"internalType": "address",
							"name": "",
							"type": "address"
						}
					],
					"stateMutability": "view",
					"type": "function"
				},
				{
					"inputs": [],
					"name": "owner",
					"outputs": [
						{
							"internalType": "address",
							"name": "",
							"type": "address"
						}
					],
					"stateMutability": "view",
					"type": "function"
				},
				{
					"inputs": [],
					"name": "renounceOwnership",
					"outputs": [],
					"stateMutability": "nonpayable",
					"type": "function"
				},
				{
					"inputs": [
						{
							"internalType": "address",
							"name": "storageProviderEscrowFactoryAddress",
							"type": "address"
						}
					],
					"name": "setStorageProviderEscrowFactory",
					"outputs": [],
					"stateMutability": "nonpayable",
					"type": "function"
				},
				{
					"inputs": [],
					"name": "storageProviderEscrowFactoryAddr",
					"outputs": [
						{
							"internalType": "address",
							"name": "",
							"type": "address"
						}
					],
					"stateMutability": "view",
					"type": "function"
				},
				{
					"inputs": [
						{
							"internalType": "address",
							"name": "newOwner",
							"type": "address"
						}
					],
					"name": "transferOwnership",
					"outputs": [],
					"stateMutability": "nonpayable",
					"type": "function"
				},
				{
					"stateMutability": "payable",
					"type": "receive"
				}
			],
			"devdoc": {
				"errors": {
					"OwnableInvalidOwner(address)": [
						{
							"details": "The owner is not a valid owner account. (eg. `address(0)`)"
						}
					],
					"OwnableUnauthorizedAccount(address)": [
						{
							"details": "The caller account is not authorized to perform an operation."
						}
					]
				},
				"kind": "dev",
				"methods": {
					"owner()": {
						"details": "Returns the address of the current owner."
					},
					"renounceOwnership()": {
						"details": "Leaves the contract without owner. It will not be possible to call `onlyOwner` functions. Can only be called by the current owner. NOTE: Renouncing ownership will leave the contract without an owner, thereby disabling any functionality that is only available to the owner."
					},
					"transferOwnership(address)": {
						"details": "Transfers ownership of the contract to a new account (`newOwner`). Can only be called by the current owner."
					}
				},
				"version": 1
			},
			"evm": {
				"assembly": "    /* \"contracts/16_DatacapGatewayAxelar.sol\":635:3099  contract DatacapGatewayAxelar is Ownable, IDatacapGateway {... */\n  mstore(0x40, 0xa0)\n    /* \"contracts/16_DatacapGatewayAxelar.sol\":938:1412  constructor(... */\n  callvalue\n  dup1\n  iszero\n  tag_1\n  jumpi\n  0x00\n  dup1\n  revert\ntag_1:\n  pop\n  mload(0x40)\n  sub(codesize, bytecodeSize)\n  dup1\n  bytecodeSize\n  dup4\n  codecopy\n  dup2\n  dup2\n  add\n  0x40\n  mstore\n  dup2\n  add\n  swap1\n  tag_2\n  swap2\n  swap1\n  tag_3\n  jump\t// in\ntag_2:\n    /* \"contracts/16_DatacapGatewayAxelar.sol\":1173:1185  initialOwner */\n  dup6\n    /* \"@openzeppelin/contracts/access/Ownable.sol\":1297:1298  0 */\n  0x00\n    /* \"@openzeppelin/contracts/access/Ownable.sol\":1273:1299  initialOwner == address(0) */\n  0xffffffffffffffffffffffffffffffffffffffff\n  and\n    /* \"@openzeppelin/contracts/access/Ownable.sol\":1273:1285  initialOwner */\n  dup2\n    /* \"@openzeppelin/contracts/access/Ownable.sol\":1273:1299  initialOwner == address(0) */\n  0xffffffffffffffffffffffffffffffffffffffff\n  and\n  sub\n    /* \"@openzeppelin/contracts/access/Ownable.sol\":1269:1364  if (initialOwner == address(0)) {... */\n  tag_7\n  jumpi\n    /* \"@openzeppelin/contracts/access/Ownable.sol\":1350:1351  0 */\n  0x00\n    /* \"@openzeppelin/contracts/access/Ownable.sol\":1322:1353  OwnableInvalidOwner(address(0)) */\n  mload(0x40)\n  0x1e4fbdf700000000000000000000000000000000000000000000000000000000\n  dup2\n  mstore\n  0x04\n  add\n  tag_8\n  swap2\n  swap1\n  tag_9\n  jump\t// in\ntag_8:\n  mload(0x40)\n  dup1\n  swap2\n  sub\n  swap1\n  revert\n    /* \"@openzeppelin/contracts/access/Ownable.sol\":1269:1364  if (initialOwner == address(0)) {... */\ntag_7:\n    /* \"@openzeppelin/contracts/access/Ownable.sol\":1373:1405  _transferOwnership(initialOwner) */\n  tag_10\n    /* \"@openzeppelin/contracts/access/Ownable.sol\":1392:1404  initialOwner */\n  dup2\n    /* \"@openzeppelin/contracts/access/Ownable.sol\":1373:1391  _transferOwnership */\n  shl(0x20, tag_11)\n    /* \"@openzeppelin/contracts/access/Ownable.sol\":1373:1405  _transferOwnership(initialOwner) */\n  0x20\n  shr\n  jump\t// in\ntag_10:\n    /* \"@openzeppelin/contracts/access/Ownable.sol\":1225:1412  constructor(address initialOwner) {... */\n  pop\n    /* \"contracts/16_DatacapGatewayAxelar.sol\":1213:1227  _mockAllocator */\n  dup5\n    /* \"contracts/16_DatacapGatewayAxelar.sol\":1197:1210  mockAllocator */\n  0x01\n  0x00\n    /* \"contracts/16_DatacapGatewayAxelar.sol\":1197:1227  mockAllocator = _mockAllocator */\n  0x0100\n  exp\n  dup2\n  sload\n  dup2\n  0xffffffffffffffffffffffffffffffffffffffff\n  mul\n  not\n  and\n  swap1\n  dup4\n  0xffffffffffffffffffffffffffffffffffffffff\n  and\n  mul\n  or\n  swap1\n  sstore\n  pop\n    /* \"contracts/16_DatacapGatewayAxelar.sol\":1257:1270  axelarGateway */\n  dup4\n    /* \"contracts/16_DatacapGatewayAxelar.sol\":1237:1254  axelarGatewayAddr */\n  0x03\n  0x00\n    /* \"contracts/16_DatacapGatewayAxelar.sol\":1237:1270  axelarGatewayAddr = axelarGateway */\n  0x0100\n  exp\n  dup2\n  sload\n  dup2\n  0xffffffffffffffffffffffffffffffffffffffff\n  mul\n  not\n  and\n  swap1\n  dup4\n  0xffffffffffffffffffffffffffffffffffffffff\n  and\n  mul\n  or\n  swap1\n  sstore\n  pop\n    /* \"contracts/16_DatacapGatewayAxelar.sol\":1311:1327  axelarGasService */\n  dup3\n    /* \"contracts/16_DatacapGatewayAxelar.sol\":1280:1328  gasService = IAxelarGasService(axelarGasService) */\n  0xffffffffffffffffffffffffffffffffffffffff\n  and\n  0x80\n  dup2\n  0xffffffffffffffffffffffffffffffffffffffff\n  and\n  dup2\n  mstore\n  pop\n  pop\n    /* \"contracts/16_DatacapGatewayAxelar.sol\":1350:1366  destinationChain */\n  dup2\n    /* \"contracts/16_DatacapGatewayAxelar.sol\":1338:1347  destChain */\n  0x04\n    /* \"contracts/16_DatacapGatewayAxelar.sol\":1338:1366  destChain = destinationChain */\n  swap1\n  dup2\n  tag_13\n  swap2\n  swap1\n  tag_14\n  jump\t// in\ntag_13:\n  pop\n    /* \"contracts/16_DatacapGatewayAxelar.sol\":1387:1405  destinationAddress */\n  dup1\n    /* \"contracts/16_DatacapGatewayAxelar.sol\":1376:1384  destAddr */\n  0x05\n    /* \"contracts/16_DatacapGatewayAxelar.sol\":1376:1405  destAddr = destinationAddress */\n  swap1\n  dup2\n  tag_15\n  swap2\n  swap1\n  tag_14\n  jump\t// in\ntag_15:\n  pop\n    /* \"contracts/16_DatacapGatewayAxelar.sol\":938:1412  constructor(... */\n  pop\n  pop\n  pop\n  pop\n  pop\n  pop\n    /* \"contracts/16_DatacapGatewayAxelar.sol\":635:3099  contract DatacapGatewayAxelar is Ownable, IDatacapGateway {... */\n  jump(tag_16)\n    /* \"@openzeppelin/contracts/access/Ownable.sol\":2912:3099  function _transferOwnership(address newOwner) internal virtual {... */\ntag_11:\n    /* \"@openzeppelin/contracts/access/Ownable.sol\":2985:3001  address oldOwner */\n  0x00\n    /* \"@openzeppelin/contracts/access/Ownable.sol\":3004:3010  _owner */\n  dup1\n  0x00\n  swap1\n  sload\n  swap1\n  0x0100\n  exp\n  swap1\n  div\n  0xffffffffffffffffffffffffffffffffffffffff\n  and\n    /* \"@openzeppelin/contracts/access/Ownable.sol\":2985:3010  address oldOwner = _owner */\n  swap1\n  pop\n    /* \"@openzeppelin/contracts/access/Ownable.sol\":3029:3037  newOwner */\n  dup2\n    /* \"@openzeppelin/contracts/access/Ownable.sol\":3020:3026  _owner */\n  0x00\n  dup1\n    /* \"@openzeppelin/contracts/access/Ownable.sol\":3020:3037  _owner = newOwner */\n  0x0100\n  exp\n  dup2\n  sload\n  dup2\n  0xffffffffffffffffffffffffffffffffffffffff\n  mul\n  not\n  and\n  swap1\n  dup4\n  0xffffffffffffffffffffffffffffffffffffffff\n  and\n  mul\n  or\n  swap1\n  sstore\n  pop\n    /* \"@openzeppelin/contracts/access/Ownable.sol\":3083:3091  newOwner */\n  dup2\n    /* \"@openzeppelin/contracts/access/Ownable.sol\":3052:3092  OwnershipTransferred(oldOwner, newOwner) */\n  0xffffffffffffffffffffffffffffffffffffffff\n  and\n    /* \"@openzeppelin/contracts/access/Ownable.sol\":3073:3081  oldOwner */\n  dup2\n    /* \"@openzeppelin/contracts/access/Ownable.sol\":3052:3092  OwnershipTransferred(oldOwner, newOwner) */\n  0xffffffffffffffffffffffffffffffffffffffff\n  and\n  0x8be0079c531659141344cd1fd0a4f28419497f9722a3daafe3b4186f6b6457e0\n  mload(0x40)\n  mload(0x40)\n  dup1\n  swap2\n  sub\n  swap1\n  log3\n    /* \"@openzeppelin/contracts/access/Ownable.sol\":2975:3099  {... */\n  pop\n    /* \"@openzeppelin/contracts/access/Ownable.sol\":2912:3099  function _transferOwnership(address newOwner) internal virtual {... */\n  pop\n  jump\t// out\n    /* \"#utility.yul\":7:82   */\ntag_18:\n    /* \"#utility.yul\":40:46   */\n  0x00\n    /* \"#utility.yul\":73:75   */\n  0x40\n    /* \"#utility.yul\":67:76   */\n  mload\n    /* \"#utility.yul\":57:76   */\n  swap1\n  pop\n    /* \"#utility.yul\":7:82   */\n  swap1\n  jump\t// out\n    /* \"#utility.yul\":88:205   */\ntag_19:\n    /* \"#utility.yul\":197:198   */\n  0x00\n    /* \"#utility.yul\":194:195   */\n  dup1\n    /* \"#utility.yul\":187:199   */\n  revert\n    /* \"#utility.yul\":211:328   */\ntag_20:\n    /* \"#utility.yul\":320:321   */\n  0x00\n    /* \"#utility.yul\":317:318   */\n  dup1\n    /* \"#utility.yul\":310:322   */\n  revert\n    /* \"#utility.yul\":334:460   */\ntag_21:\n    /* \"#utility.yul\":371:378   */\n  0x00\n    /* \"#utility.yul\":411:453   */\n  0xffffffffffffffffffffffffffffffffffffffff\n    /* \"#utility.yul\":404:409   */\n  dup3\n    /* \"#utility.yul\":400:454   */\n  and\n    /* \"#utility.yul\":389:454   */\n  swap1\n  pop\n    /* \"#utility.yul\":334:460   */\n  swap2\n  swap1\n  pop\n  jump\t// out\n    /* \"#utility.yul\":466:562   */\ntag_22:\n    /* \"#utility.yul\":503:510   */\n  0x00\n    /* \"#utility.yul\":532:556   */\n  tag_61\n    /* \"#utility.yul\":550:555   */\n  dup3\n    /* \"#utility.yul\":532:556   */\n  tag_21\n  jump\t// in\ntag_61:\n    /* \"#utility.yul\":521:556   */\n  swap1\n  pop\n    /* \"#utility.yul\":466:562   */\n  swap2\n  swap1\n  pop\n  jump\t// out\n    /* \"#utility.yul\":568:690   */\ntag_23:\n    /* \"#utility.yul\":641:665   */\n  tag_63\n    /* \"#utility.yul\":659:664   */\n  dup2\n    /* \"#utility.yul\":641:665   */\n  tag_22\n  jump\t// in\ntag_63:\n    /* \"#utility.yul\":634:639   */\n  dup2\n    /* \"#utility.yul\":631:666   */\n  eq\n    /* \"#utility.yul\":621:684   */\n  tag_64\n  jumpi\n    /* \"#utility.yul\":680:681   */\n  0x00\n    /* \"#utility.yul\":677:678   */\n  dup1\n    /* \"#utility.yul\":670:682   */\n  revert\n    /* \"#utility.yul\":621:684   */\ntag_64:\n    /* \"#utility.yul\":568:690   */\n  pop\n  jump\t// out\n    /* \"#utility.yul\":696:839   */\ntag_24:\n    /* \"#utility.yul\":753:758   */\n  0x00\n    /* \"#utility.yul\":784:790   */\n  dup2\n    /* \"#utility.yul\":778:791   */\n  mload\n    /* \"#utility.yul\":769:791   */\n  swap1\n  pop\n    /* \"#utility.yul\":800:833   */\n  tag_66\n    /* \"#utility.yul\":827:832   */\n  dup2\n    /* \"#utility.yul\":800:833   */\n  tag_23\n  jump\t// in\ntag_66:\n    /* \"#utility.yul\":696:839   */\n  swap3\n  swap2\n  pop\n  pop\n  jump\t// out\n    /* \"#utility.yul\":845:962   */\ntag_25:\n    /* \"#utility.yul\":954:955   */\n  0x00\n    /* \"#utility.yul\":951:952   */\n  dup1\n    /* \"#utility.yul\":944:956   */\n  revert\n    /* \"#utility.yul\":968:1085   */\ntag_26:\n    /* \"#utility.yul\":1077:1078   */\n  0x00\n    /* \"#utility.yul\":1074:1075   */\n  dup1\n    /* \"#utility.yul\":1067:1079   */\n  revert\n    /* \"#utility.yul\":1091:1193   */\ntag_27:\n    /* \"#utility.yul\":1132:1138   */\n  0x00\n    /* \"#utility.yul\":1183:1185   */\n  0x1f\n    /* \"#utility.yul\":1179:1186   */\n  not\n    /* \"#utility.yul\":1174:1176   */\n  0x1f\n    /* \"#utility.yul\":1167:1172   */\n  dup4\n    /* \"#utility.yul\":1163:1177   */\n  add\n    /* \"#utility.yul\":1159:1187   */\n  and\n    /* \"#utility.yul\":1149:1187   */\n  swap1\n  pop\n    /* \"#utility.yul\":1091:1193   */\n  swap2\n  swap1\n  pop\n  jump\t// out\n    /* \"#utility.yul\":1199:1379   */\ntag_28:\n    /* \"#utility.yul\":1247:1324   */\n  0x4e487b7100000000000000000000000000000000000000000000000000000000\n    /* \"#utility.yul\":1244:1245   */\n  0x00\n    /* \"#utility.yul\":1237:1325   */\n  mstore\n    /* \"#utility.yul\":1344:1348   */\n  0x41\n    /* \"#utility.yul\":1341:1342   */\n  0x04\n    /* \"#utility.yul\":1334:1349   */\n  mstore\n    /* \"#utility.yul\":1368:1372   */\n  0x24\n    /* \"#utility.yul\":1365:1366   */\n  0x00\n    /* \"#utility.yul\":1358:1373   */\n  revert\n    /* \"#utility.yul\":1385:1666   */\ntag_29:\n    /* \"#utility.yul\":1468:1495   */\n  tag_72\n    /* \"#utility.yul\":1490:1494   */\n  dup3\n    /* \"#utility.yul\":1468:1495   */\n  tag_27\n  jump\t// in\ntag_72:\n    /* \"#utility.yul\":1460:1466   */\n  dup2\n    /* \"#utility.yul\":1456:1496   */\n  add\n    /* \"#utility.yul\":1598:1604   */\n  dup2\n    /* \"#utility.yul\":1586:1596   */\n  dup2\n    /* \"#utility.yul\":1583:1605   */\n  lt\n    /* \"#utility.yul\":1562:1580   */\n  0xffffffffffffffff\n    /* \"#utility.yul\":1550:1560   */\n  dup3\n    /* \"#utility.yul\":1547:1581   */\n  gt\n    /* \"#utility.yul\":1544:1606   */\n  or\n    /* \"#utility.yul\":1541:1629   */\n  iszero\n  tag_73\n  jumpi\n    /* \"#utility.yul\":1609:1627   */\n  tag_74\n  tag_28\n  jump\t// in\ntag_74:\n    /* \"#utility.yul\":1541:1629   */\ntag_73:\n    /* \"#utility.yul\":1649:1659   */\n  dup1\n    /* \"#utility.yul\":1645:1647   */\n  0x40\n    /* \"#utility.yul\":1638:1660   */\n  mstore\n    /* \"#utility.yul\":1428:1666   */\n  pop\n    /* \"#utility.yul\":1385:1666   */\n  pop\n  pop\n  jump\t// out\n    /* \"#utility.yul\":1672:1801   */\ntag_30:\n    /* \"#utility.yul\":1706:1712   */\n  0x00\n    /* \"#utility.yul\":1733:1753   */\n  tag_76\n  tag_18\n  jump\t// in\ntag_76:\n    /* \"#utility.yul\":1723:1753   */\n  swap1\n  pop\n    /* \"#utility.yul\":1762:1795   */\n  tag_77\n    /* \"#utility.yul\":1790:1794   */\n  dup3\n    /* \"#utility.yul\":1782:1788   */\n  dup3\n    /* \"#utility.yul\":1762:1795   */\n  tag_29\n  jump\t// in\ntag_77:\n    /* \"#utility.yul\":1672:1801   */\n  swap2\n  swap1\n  pop\n  jump\t// out\n    /* \"#utility.yul\":1807:2115   */\ntag_31:\n    /* \"#utility.yul\":1869:1873   */\n  0x00\n    /* \"#utility.yul\":1959:1977   */\n  0xffffffffffffffff\n    /* \"#utility.yul\":1951:1957   */\n  dup3\n    /* \"#utility.yul\":1948:1978   */\n  gt\n    /* \"#utility.yul\":1945:2001   */\n  iszero\n  tag_79\n  jumpi\n    /* \"#utility.yul\":1981:1999   */\n  tag_80\n  tag_28\n  jump\t// in\ntag_80:\n    /* \"#utility.yul\":1945:2001   */\ntag_79:\n    /* \"#utility.yul\":2019:2048   */\n  tag_81\n    /* \"#utility.yul\":2041:2047   */\n  dup3\n    /* \"#utility.yul\":2019:2048   */\n  tag_27\n  jump\t// in\ntag_81:\n    /* \"#utility.yul\":2011:2048   */\n  swap1\n  pop\n    /* \"#utility.yul\":2103:2107   */\n  0x20\n    /* \"#utility.yul\":2097:2101   */\n  dup2\n    /* \"#utility.yul\":2093:2108   */\n  add\n    /* \"#utility.yul\":2085:2108   */\n  swap1\n  pop\n    /* \"#utility.yul\":1807:2115   */\n  swap2\n  swap1\n  pop\n  jump\t// out\n    /* \"#utility.yul\":2121:2260   */\ntag_32:\n    /* \"#utility.yul\":2210:2216   */\n  dup3\n    /* \"#utility.yul\":2205:2208   */\n  dup2\n    /* \"#utility.yul\":2200:2203   */\n  dup4\n    /* \"#utility.yul\":2194:2217   */\n  mcopy\n    /* \"#utility.yul\":2251:2252   */\n  0x00\n    /* \"#utility.yul\":2242:2248   */\n  dup4\n    /* \"#utility.yul\":2237:2240   */\n  dup4\n    /* \"#utility.yul\":2233:2249   */\n  add\n    /* \"#utility.yul\":2226:2253   */\n  mstore\n    /* \"#utility.yul\":2121:2260   */\n  pop\n  pop\n  pop\n  jump\t// out\n    /* \"#utility.yul\":2266:2700   */\ntag_33:\n    /* \"#utility.yul\":2355:2360   */\n  0x00\n    /* \"#utility.yul\":2380:2446   */\n  tag_84\n    /* \"#utility.yul\":2396:2445   */\n  tag_85\n    /* \"#utility.yul\":2438:2444   */\n  dup5\n    /* \"#utility.yul\":2396:2445   */\n  tag_31\n  jump\t// in\ntag_85:\n    /* \"#utility.yul\":2380:2446   */\n  tag_30\n  jump\t// in\ntag_84:\n    /* \"#utility.yul\":2371:2446   */\n  swap1\n  pop\n    /* \"#utility.yul\":2469:2475   */\n  dup3\n    /* \"#utility.yul\":2462:2467   */\n  dup2\n    /* \"#utility.yul\":2455:2476   */\n  mstore\n    /* \"#utility.yul\":2507:2511   */\n  0x20\n    /* \"#utility.yul\":2500:2505   */\n  dup2\n    /* \"#utility.yul\":2496:2512   */\n  add\n    /* \"#utility.yul\":2545:2548   */\n  dup5\n    /* \"#utility.yul\":2536:2542   */\n  dup5\n    /* \"#utility.yul\":2531:2534   */\n  dup5\n    /* \"#utility.yul\":2527:2543   */\n  add\n    /* \"#utility.yul\":2524:2549   */\n  gt\n    /* \"#utility.yul\":2521:2633   */\n  iszero\n  tag_86\n  jumpi\n    /* \"#utility.yul\":2552:2631   */\n  tag_87\n  tag_26\n  jump\t// in\ntag_87:\n    /* \"#utility.yul\":2521:2633   */\ntag_86:\n    /* \"#utility.yul\":2642:2694   */\n  tag_88\n    /* \"#utility.yul\":2687:2693   */\n  dup5\n    /* \"#utility.yul\":2682:2685   */\n  dup3\n    /* \"#utility.yul\":2677:2680   */\n  dup6\n    /* \"#utility.yul\":2642:2694   */\n  tag_32\n  jump\t// in\ntag_88:\n    /* \"#utility.yul\":2361:2700   */\n  pop\n    /* \"#utility.yul\":2266:2700   */\n  swap4\n  swap3\n  pop\n  pop\n  pop\n  jump\t// out\n    /* \"#utility.yul\":2720:3075   */\ntag_34:\n    /* \"#utility.yul\":2787:2792   */\n  0x00\n    /* \"#utility.yul\":2836:2839   */\n  dup3\n    /* \"#utility.yul\":2829:2833   */\n  0x1f\n    /* \"#utility.yul\":2821:2827   */\n  dup4\n    /* \"#utility.yul\":2817:2834   */\n  add\n    /* \"#utility.yul\":2813:2840   */\n  slt\n    /* \"#utility.yul\":2803:2925   */\n  tag_90\n  jumpi\n    /* \"#utility.yul\":2844:2923   */\n  tag_91\n  tag_25\n  jump\t// in\ntag_91:\n    /* \"#utility.yul\":2803:2925   */\ntag_90:\n    /* \"#utility.yul\":2954:2960   */\n  dup2\n    /* \"#utility.yul\":2948:2961   */\n  mload\n    /* \"#utility.yul\":2979:3069   */\n  tag_92\n    /* \"#utility.yul\":3065:3068   */\n  dup5\n    /* \"#utility.yul\":3057:3063   */\n  dup3\n    /* \"#utility.yul\":3050:3054   */\n  0x20\n    /* \"#utility.yul\":3042:3048   */\n  dup7\n    /* \"#utility.yul\":3038:3055   */\n  add\n    /* \"#utility.yul\":2979:3069   */\n  tag_33\n  jump\t// in\ntag_92:\n    /* \"#utility.yul\":2970:3069   */\n  swap2\n  pop\n    /* \"#utility.yul\":2793:3075   */\n  pop\n    /* \"#utility.yul\":2720:3075   */\n  swap3\n  swap2\n  pop\n  pop\n  jump\t// out\n    /* \"#utility.yul\":3081:4561   */\ntag_3:\n    /* \"#utility.yul\":3216:3222   */\n  0x00\n    /* \"#utility.yul\":3224:3230   */\n  dup1\n    /* \"#utility.yul\":3232:3238   */\n  0x00\n    /* \"#utility.yul\":3240:3246   */\n  dup1\n    /* \"#utility.yul\":3248:3254   */\n  0x00\n    /* \"#utility.yul\":3256:3262   */\n  dup1\n    /* \"#utility.yul\":3305:3308   */\n  0xc0\n    /* \"#utility.yul\":3293:3302   */\n  dup8\n    /* \"#utility.yul\":3284:3291   */\n  dup10\n    /* \"#utility.yul\":3280:3303   */\n  sub\n    /* \"#utility.yul\":3276:3309   */\n  slt\n    /* \"#utility.yul\":3273:3393   */\n  iszero\n  tag_94\n  jumpi\n    /* \"#utility.yul\":3312:3391   */\n  tag_95\n  tag_19\n  jump\t// in\ntag_95:\n    /* \"#utility.yul\":3273:3393   */\ntag_94:\n    /* \"#utility.yul\":3432:3433   */\n  0x00\n    /* \"#utility.yul\":3457:3521   */\n  tag_96\n    /* \"#utility.yul\":3513:3520   */\n  dup10\n    /* \"#utility.yul\":3504:3510   */\n  dup3\n    /* \"#utility.yul\":3493:3502   */\n  dup11\n    /* \"#utility.yul\":3489:3511   */\n  add\n    /* \"#utility.yul\":3457:3521   */\n  tag_24\n  jump\t// in\ntag_96:\n    /* \"#utility.yul\":3447:3521   */\n  swap7\n  pop\n    /* \"#utility.yul\":3403:3531   */\n  pop\n    /* \"#utility.yul\":3570:3572   */\n  0x20\n    /* \"#utility.yul\":3596:3660   */\n  tag_97\n    /* \"#utility.yul\":3652:3659   */\n  dup10\n    /* \"#utility.yul\":3643:3649   */\n  dup3\n    /* \"#utility.yul\":3632:3641   */\n  dup11\n    /* \"#utility.yul\":3628:3650   */\n  add\n    /* \"#utility.yul\":3596:3660   */\n  tag_24\n  jump\t// in\ntag_97:\n    /* \"#utility.yul\":3586:3660   */\n  swap6\n  pop\n    /* \"#utility.yul\":3541:3670   */\n  pop\n    /* \"#utility.yul\":3709:3711   */\n  0x40\n    /* \"#utility.yul\":3735:3799   */\n  tag_98\n    /* \"#utility.yul\":3791:3798   */\n  dup10\n    /* \"#utility.yul\":3782:3788   */\n  dup3\n    /* \"#utility.yul\":3771:3780   */\n  dup11\n    /* \"#utility.yul\":3767:3789   */\n  add\n    /* \"#utility.yul\":3735:3799   */\n  tag_24\n  jump\t// in\ntag_98:\n    /* \"#utility.yul\":3725:3799   */\n  swap5\n  pop\n    /* \"#utility.yul\":3680:3809   */\n  pop\n    /* \"#utility.yul\":3848:3850   */\n  0x60\n    /* \"#utility.yul\":3874:3938   */\n  tag_99\n    /* \"#utility.yul\":3930:3937   */\n  dup10\n    /* \"#utility.yul\":3921:3927   */\n  dup3\n    /* \"#utility.yul\":3910:3919   */\n  dup11\n    /* \"#utility.yul\":3906:3928   */\n  add\n    /* \"#utility.yul\":3874:3938   */\n  tag_24\n  jump\t// in\ntag_99:\n    /* \"#utility.yul\":3864:3938   */\n  swap4\n  pop\n    /* \"#utility.yul\":3819:3948   */\n  pop\n    /* \"#utility.yul\":4008:4011   */\n  0x80\n    /* \"#utility.yul\":3997:4006   */\n  dup8\n    /* \"#utility.yul\":3993:4012   */\n  add\n    /* \"#utility.yul\":3987:4013   */\n  mload\n    /* \"#utility.yul\":4040:4058   */\n  0xffffffffffffffff\n    /* \"#utility.yul\":4032:4038   */\n  dup2\n    /* \"#utility.yul\":4029:4059   */\n  gt\n    /* \"#utility.yul\":4026:4143   */\n  iszero\n  tag_100\n  jumpi\n    /* \"#utility.yul\":4062:4141   */\n  tag_101\n  tag_20\n  jump\t// in\ntag_101:\n    /* \"#utility.yul\":4026:4143   */\ntag_100:\n    /* \"#utility.yul\":4167:4241   */\n  tag_102\n    /* \"#utility.yul\":4233:4240   */\n  dup10\n    /* \"#utility.yul\":4224:4230   */\n  dup3\n    /* \"#utility.yul\":4213:4222   */\n  dup11\n    /* \"#utility.yul\":4209:4231   */\n  add\n    /* \"#utility.yul\":4167:4241   */\n  tag_34\n  jump\t// in\ntag_102:\n    /* \"#utility.yul\":4157:4241   */\n  swap3\n  pop\n    /* \"#utility.yul\":3958:4251   */\n  pop\n    /* \"#utility.yul\":4311:4314   */\n  0xa0\n    /* \"#utility.yul\":4300:4309   */\n  dup8\n    /* \"#utility.yul\":4296:4315   */\n  add\n    /* \"#utility.yul\":4290:4316   */\n  mload\n    /* \"#utility.yul\":4343:4361   */\n  0xffffffffffffffff\n    /* \"#utility.yul\":4335:4341   */\n  dup2\n    /* \"#utility.yul\":4332:4362   */\n  gt\n    /* \"#utility.yul\":4329:4446   */\n  iszero\n  tag_103\n  jumpi\n    /* \"#utility.yul\":4365:4444   */\n  tag_104\n  tag_20\n  jump\t// in\ntag_104:\n    /* \"#utility.yul\":4329:4446   */\ntag_103:\n    /* \"#utility.yul\":4470:4544   */\n  tag_105\n    /* \"#utility.yul\":4536:4543   */\n  dup10\n    /* \"#utility.yul\":4527:4533   */\n  dup3\n    /* \"#utility.yul\":4516:4525   */\n  dup11\n    /* \"#utility.yul\":4512:4534   */\n  add\n    /* \"#utility.yul\":4470:4544   */\n  tag_34\n  jump\t// in\ntag_105:\n    /* \"#utility.yul\":4460:4544   */\n  swap2\n  pop\n    /* \"#utility.yul\":4261:4554   */\n  pop\n    /* \"#utility.yul\":3081:4561   */\n  swap3\n  swap6\n  pop\n  swap3\n  swap6\n  pop\n  swap3\n  swap6\n  jump\t// out\n    /* \"#utility.yul\":4567:4685   */\ntag_35:\n    /* \"#utility.yul\":4654:4678   */\n  tag_107\n    /* \"#utility.yul\":4672:4677   */\n  dup2\n    /* \"#utility.yul\":4654:4678   */\n  tag_22\n  jump\t// in\ntag_107:\n    /* \"#utility.yul\":4649:4652   */\n  dup3\n    /* \"#utility.yul\":4642:4679   */\n  mstore\n    /* \"#utility.yul\":4567:4685   */\n  pop\n  pop\n  jump\t// out\n    /* \"#utility.yul\":4691:4913   */\ntag_9:\n    /* \"#utility.yul\":4784:4788   */\n  0x00\n    /* \"#utility.yul\":4822:4824   */\n  0x20\n    /* \"#utility.yul\":4811:4820   */\n  dup3\n    /* \"#utility.yul\":4807:4825   */\n  add\n    /* \"#utility.yul\":4799:4825   */\n  swap1\n  pop\n    /* \"#utility.yul\":4835:4906   */\n  tag_109\n    /* \"#utility.yul\":4903:4904   */\n  0x00\n    /* \"#utility.yul\":4892:4901   */\n  dup4\n    /* \"#utility.yul\":4888:4905   */\n  add\n    /* \"#utility.yul\":4879:4885   */\n  dup5\n    /* \"#utility.yul\":4835:4906   */\n  tag_35\n  jump\t// in\ntag_109:\n    /* \"#utility.yul\":4691:4913   */\n  swap3\n  swap2\n  pop\n  pop\n  jump\t// out\n    /* \"#utility.yul\":4919:5018   */\ntag_36:\n    /* \"#utility.yul\":4971:4977   */\n  0x00\n    /* \"#utility.yul\":5005:5010   */\n  dup2\n    /* \"#utility.yul\":4999:5011   */\n  mload\n    /* \"#utility.yul\":4989:5011   */\n  swap1\n  pop\n    /* \"#utility.yul\":4919:5018   */\n  swap2\n  swap1\n  pop\n  jump\t// out\n    /* \"#utility.yul\":5024:5204   */\ntag_37:\n    /* \"#utility.yul\":5072:5149   */\n  0x4e487b7100000000000000000000000000000000000000000000000000000000\n    /* \"#utility.yul\":5069:5070   */\n  0x00\n    /* \"#utility.yul\":5062:5150   */\n  mstore\n    /* \"#utility.yul\":5169:5173   */\n  0x22\n    /* \"#utility.yul\":5166:5167   */\n  0x04\n    /* \"#utility.yul\":5159:5174   */\n  mstore\n    /* \"#utility.yul\":5193:5197   */\n  0x24\n    /* \"#utility.yul\":5190:5191   */\n  0x00\n    /* \"#utility.yul\":5183:5198   */\n  revert\n    /* \"#utility.yul\":5210:5530   */\ntag_38:\n    /* \"#utility.yul\":5254:5260   */\n  0x00\n    /* \"#utility.yul\":5291:5292   */\n  0x02\n    /* \"#utility.yul\":5285:5289   */\n  dup3\n    /* \"#utility.yul\":5281:5293   */\n  div\n    /* \"#utility.yul\":5271:5293   */\n  swap1\n  pop\n    /* \"#utility.yul\":5338:5339   */\n  0x01\n    /* \"#utility.yul\":5332:5336   */\n  dup3\n    /* \"#utility.yul\":5328:5340   */\n  and\n    /* \"#utility.yul\":5359:5377   */\n  dup1\n    /* \"#utility.yul\":5349:5430   */\n  tag_113\n  jumpi\n    /* \"#utility.yul\":5415:5419   */\n  0x7f\n    /* \"#utility.yul\":5407:5413   */\n  dup3\n    /* \"#utility.yul\":5403:5420   */\n  and\n    /* \"#utility.yul\":5393:5420   */\n  swap2\n  pop\n    /* \"#utility.yul\":5349:5430   */\ntag_113:\n    /* \"#utility.yul\":5477:5479   */\n  0x20\n    /* \"#utility.yul\":5469:5475   */\n  dup3\n    /* \"#utility.yul\":5466:5480   */\n  lt\n    /* \"#utility.yul\":5446:5464   */\n  dup2\n    /* \"#utility.yul\":5443:5481   */\n  sub\n    /* \"#utility.yul\":5440:5524   */\n  tag_114\n  jumpi\n    /* \"#utility.yul\":5496:5514   */\n  tag_115\n  tag_37\n  jump\t// in\ntag_115:\n    /* \"#utility.yul\":5440:5524   */\ntag_114:\n    /* \"#utility.yul\":5261:5530   */\n  pop\n    /* \"#utility.yul\":5210:5530   */\n  swap2\n  swap1\n  pop\n  jump\t// out\n    /* \"#utility.yul\":5536:5677   */\ntag_39:\n    /* \"#utility.yul\":5585:5589   */\n  0x00\n    /* \"#utility.yul\":5608:5611   */\n  dup2\n    /* \"#utility.yul\":5600:5611   */\n  swap1\n  pop\n    /* \"#utility.yul\":5631:5634   */\n  dup2\n    /* \"#utility.yul\":5628:5629   */\n  0x00\n    /* \"#utility.yul\":5621:5635   */\n  mstore\n    /* \"#utility.yul\":5665:5669   */\n  0x20\n    /* \"#utility.yul\":5662:5663   */\n  0x00\n    /* \"#utility.yul\":5652:5670   */\n  keccak256\n    /* \"#utility.yul\":5644:5670   */\n  swap1\n  pop\n    /* \"#utility.yul\":5536:5677   */\n  swap2\n  swap1\n  pop\n  jump\t// out\n    /* \"#utility.yul\":5683:5776   */\ntag_40:\n    /* \"#utility.yul\":5720:5726   */\n  0x00\n    /* \"#utility.yul\":5767:5769   */\n  0x20\n    /* \"#utility.yul\":5762:5764   */\n  0x1f\n    /* \"#utility.yul\":5755:5760   */\n  dup4\n    /* \"#utility.yul\":5751:5765   */\n  add\n    /* \"#utility.yul\":5747:5770   */\n  div\n    /* \"#utility.yul\":5737:5770   */\n  swap1\n  pop\n    /* \"#utility.yul\":5683:5776   */\n  swap2\n  swap1\n  pop\n  jump\t// out\n    /* \"#utility.yul\":5782:5889   */\ntag_41:\n    /* \"#utility.yul\":5826:5834   */\n  0x00\n    /* \"#utility.yul\":5876:5881   */\n  dup3\n    /* \"#utility.yul\":5870:5874   */\n  dup3\n    /* \"#utility.yul\":5866:5882   */\n  shl\n    /* \"#utility.yul\":5845:5882   */\n  swap1\n  pop\n    /* \"#utility.yul\":5782:5889   */\n  swap3\n  swap2\n  pop\n  pop\n  jump\t// out\n    /* \"#utility.yul\":5895:6288   */\ntag_42:\n    /* \"#utility.yul\":5964:5970   */\n  0x00\n    /* \"#utility.yul\":6014:6015   */\n  0x08\n    /* \"#utility.yul\":6002:6012   */\n  dup4\n    /* \"#utility.yul\":5998:6016   */\n  mul\n    /* \"#utility.yul\":6037:6134   */\n  tag_120\n    /* \"#utility.yul\":6067:6133   */\n  0xffffffffffffffffffffffffffffffffffffffffffffffffffffffffffffffff\n    /* \"#utility.yul\":6056:6065   */\n  dup3\n    /* \"#utility.yul\":6037:6134   */\n  tag_41\n  jump\t// in\ntag_120:\n    /* \"#utility.yul\":6155:6194   */\n  tag_121\n    /* \"#utility.yul\":6185:6193   */\n  dup7\n    /* \"#utility.yul\":6174:6183   */\n  dup4\n    /* \"#utility.yul\":6155:6194   */\n  tag_41\n  jump\t// in\ntag_121:\n    /* \"#utility.yul\":6143:6194   */\n  swap6\n  pop\n    /* \"#utility.yul\":6227:6231   */\n  dup1\n    /* \"#utility.yul\":6223:6232   */\n  not\n    /* \"#utility.yul\":6216:6221   */\n  dup5\n    /* \"#utility.yul\":6212:6233   */\n  and\n    /* \"#utility.yul\":6203:6233   */\n  swap4\n  pop\n    /* \"#utility.yul\":6276:6280   */\n  dup1\n    /* \"#utility.yul\":6266:6274   */\n  dup7\n    /* \"#utility.yul\":6262:6281   */\n  and\n    /* \"#utility.yul\":6255:6260   */\n  dup5\n    /* \"#utility.yul\":6252:6282   */\n  or\n    /* \"#utility.yul\":6242:6282   */\n  swap3\n  pop\n    /* \"#utility.yul\":5971:6288   */\n  pop\n  pop\n    /* \"#utility.yul\":5895:6288   */\n  swap4\n  swap3\n  pop\n  pop\n  pop\n  jump\t// out\n    /* \"#utility.yul\":6294:6371   */\ntag_43:\n    /* \"#utility.yul\":6331:6338   */\n  0x00\n    /* \"#utility.yul\":6360:6365   */\n  dup2\n    /* \"#utility.yul\":6349:6365   */\n  swap1\n  pop\n    /* \"#utility.yul\":6294:6371   */\n  swap2\n  swap1\n  pop\n  jump\t// out\n    /* \"#utility.yul\":6377:6437   */\ntag_44:\n    /* \"#utility.yul\":6405:6408   */\n  0x00\n    /* \"#utility.yul\":6426:6431   */\n  dup2\n    /* \"#utility.yul\":6419:6431   */\n  swap1\n  pop\n    /* \"#utility.yul\":6377:6437   */\n  swap2\n  swap1\n  pop\n  jump\t// out\n    /* \"#utility.yul\":6443:6585   */\ntag_45:\n    /* \"#utility.yul\":6493:6502   */\n  0x00\n    /* \"#utility.yul\":6526:6579   */\n  tag_125\n    /* \"#utility.yul\":6544:6578   */\n  tag_126\n    /* \"#utility.yul\":6553:6577   */\n  tag_127\n    /* \"#utility.yul\":6571:6576   */\n  dup5\n    /* \"#utility.yul\":6553:6577   */\n  tag_43\n  jump\t// in\ntag_127:\n    /* \"#utility.yul\":6544:6578   */\n  tag_44\n  jump\t// in\ntag_126:\n    /* \"#utility.yul\":6526:6579   */\n  tag_43\n  jump\t// in\ntag_125:\n    /* \"#utility.yul\":6513:6579   */\n  swap1\n  pop\n    /* \"#utility.yul\":6443:6585   */\n  swap2\n  swap1\n  pop\n  jump\t// out\n    /* \"#utility.yul\":6591:6666   */\ntag_46:\n    /* \"#utility.yul\":6634:6637   */\n  0x00\n    /* \"#utility.yul\":6655:6660   */\n  dup2\n    /* \"#utility.yul\":6648:6660   */\n  swap1\n  pop\n    /* \"#utility.yul\":6591:6666   */\n  swap2\n  swap1\n  pop\n  jump\t// out\n    /* \"#utility.yul\":6672:6941   */\ntag_47:\n    /* \"#utility.yul\":6782:6821   */\n  tag_130\n    /* \"#utility.yul\":6813:6820   */\n  dup4\n    /* \"#utility.yul\":6782:6821   */\n  tag_45\n  jump\t// in\ntag_130:\n    /* \"#utility.yul\":6843:6934   */\n  tag_131\n    /* \"#utility.yul\":6892:6933   */\n  tag_132\n    /* \"#utility.yul\":6916:6932   */\n  dup3\n    /* \"#utility.yul\":6892:6933   */\n  tag_46\n  jump\t// in\ntag_132:\n    /* \"#utility.yul\":6884:6890   */\n  dup5\n    /* \"#utility.yul\":6877:6881   */\n  dup5\n    /* \"#utility.yul\":6871:6882   */\n  sload\n    /* \"#utility.yul\":6843:6934   */\n  tag_42\n  jump\t// in\ntag_131:\n    /* \"#utility.yul\":6837:6841   */\n  dup3\n    /* \"#utility.yul\":6830:6935   */\n  sstore\n    /* \"#utility.yul\":6748:6941   */\n  pop\n    /* \"#utility.yul\":6672:6941   */\n  pop\n  pop\n  pop\n  jump\t// out\n    /* \"#utility.yul\":6947:7020   */\ntag_48:\n    /* \"#utility.yul\":6992:6995   */\n  0x00\n    /* \"#utility.yul\":6947:7020   */\n  swap1\n  jump\t// out\n    /* \"#utility.yul\":7026:7215   */\ntag_49:\n    /* \"#utility.yul\":7103:7135   */\n  tag_135\n  tag_48\n  jump\t// in\ntag_135:\n    /* \"#utility.yul\":7144:7209   */\n  tag_136\n    /* \"#utility.yul\":7202:7208   */\n  dup2\n    /* \"#utility.yul\":7194:7200   */\n  dup5\n    /* \"#utility.yul\":7188:7192   */\n  dup5\n    /* \"#utility.yul\":7144:7209   */\n  tag_47\n  jump\t// in\ntag_136:\n    /* \"#utility.yul\":7079:7215   */\n  pop\n    /* \"#utility.yul\":7026:7215   */\n  pop\n  pop\n  jump\t// out\n    /* \"#utility.yul\":7221:7407   */\ntag_50:\n    /* \"#utility.yul\":7281:7401   */\ntag_138:\n    /* \"#utility.yul\":7298:7301   */\n  dup2\n    /* \"#utility.yul\":7291:7296   */\n  dup2\n    /* \"#utility.yul\":7288:7302   */\n  lt\n    /* \"#utility.yul\":7281:7401   */\n  iszero\n  tag_140\n  jumpi\n    /* \"#utility.yul\":7352:7391   */\n  tag_141\n    /* \"#utility.yul\":7389:7390   */\n  0x00\n    /* \"#utility.yul\":7382:7387   */\n  dup3\n    /* \"#utility.yul\":7352:7391   */\n  tag_49\n  jump\t// in\ntag_141:\n    /* \"#utility.yul\":7325:7326   */\n  0x01\n    /* \"#utility.yul\":7318:7323   */\n  dup2\n    /* \"#utility.yul\":7314:7327   */\n  add\n    /* \"#utility.yul\":7305:7327   */\n  swap1\n  pop\n    /* \"#utility.yul\":7281:7401   */\n  jump(tag_138)\ntag_140:\n    /* \"#utility.yul\":7221:7407   */\n  pop\n  pop\n  jump\t// out\n    /* \"#utility.yul\":7413:7956   */\ntag_51:\n    /* \"#utility.yul\":7514:7516   */\n  0x1f\n    /* \"#utility.yul\":7509:7512   */\n  dup3\n    /* \"#utility.yul\":7506:7517   */\n  gt\n    /* \"#utility.yul\":7503:7949   */\n  iszero\n  tag_143\n  jumpi\n    /* \"#utility.yul\":7548:7586   */\n  tag_144\n    /* \"#utility.yul\":7580:7585   */\n  dup2\n    /* \"#utility.yul\":7548:7586   */\n  tag_39\n  jump\t// in\ntag_144:\n    /* \"#utility.yul\":7632:7661   */\n  tag_145\n    /* \"#utility.yul\":7650:7660   */\n  dup5\n    /* \"#utility.yul\":7632:7661   */\n  tag_40\n  jump\t// in\ntag_145:\n    /* \"#utility.yul\":7622:7630   */\n  dup2\n    /* \"#utility.yul\":7618:7662   */\n  add\n    /* \"#utility.yul\":7815:7817   */\n  0x20\n    /* \"#utility.yul\":7803:7813   */\n  dup6\n    /* \"#utility.yul\":7800:7818   */\n  lt\n    /* \"#utility.yul\":7797:7846   */\n  iszero\n  tag_146\n  jumpi\n    /* \"#utility.yul\":7836:7844   */\n  dup2\n    /* \"#utility.yul\":7821:7844   */\n  swap1\n  pop\n    /* \"#utility.yul\":7797:7846   */\ntag_146:\n    /* \"#utility.yul\":7859:7939   */\n  tag_147\n    /* \"#utility.yul\":7915:7937   */\n  tag_148\n    /* \"#utility.yul\":7933:7936   */\n  dup6\n    /* \"#utility.yul\":7915:7937   */\n  tag_40\n  jump\t// in\ntag_148:\n    /* \"#utility.yul\":7905:7913   */\n  dup4\n    /* \"#utility.yul\":7901:7938   */\n  add\n    /* \"#utility.yul\":7888:7899   */\n  dup3\n    /* \"#utility.yul\":7859:7939   */\n  tag_50\n  jump\t// in\ntag_147:\n    /* \"#utility.yul\":7518:7949   */\n  pop\n  pop\n    /* \"#utility.yul\":7503:7949   */\ntag_143:\n    /* \"#utility.yul\":7413:7956   */\n  pop\n  pop\n  pop\n  jump\t// out\n    /* \"#utility.yul\":7962:8079   */\ntag_52:\n    /* \"#utility.yul\":8016:8024   */\n  0x00\n    /* \"#utility.yul\":8066:8071   */\n  dup3\n    /* \"#utility.yul\":8060:8064   */\n  dup3\n    /* \"#utility.yul\":8056:8072   */\n  shr\n    /* \"#utility.yul\":8035:8072   */\n  swap1\n  pop\n    /* \"#utility.yul\":7962:8079   */\n  swap3\n  swap2\n  pop\n  pop\n  jump\t// out\n    /* \"#utility.yul\":8085:8254   */\ntag_53:\n    /* \"#utility.yul\":8129:8135   */\n  0x00\n    /* \"#utility.yul\":8162:8213   */\n  tag_151\n    /* \"#utility.yul\":8210:8211   */\n  0x00\n    /* \"#utility.yul\":8206:8212   */\n  not\n    /* \"#utility.yul\":8198:8203   */\n  dup5\n    /* \"#utility.yul\":8195:8196   */\n  0x08\n    /* \"#utility.yul\":8191:8204   */\n  mul\n    /* \"#utility.yul\":8162:8213   */\n  tag_52\n  jump\t// in\ntag_151:\n    /* \"#utility.yul\":8158:8214   */\n  not\n    /* \"#utility.yul\":8243:8247   */\n  dup1\n    /* \"#utility.yul\":8237:8241   */\n  dup4\n    /* \"#utility.yul\":8233:8248   */\n  and\n    /* \"#utility.yul\":8223:8248   */\n  swap2\n  pop\n    /* \"#utility.yul\":8136:8254   */\n  pop\n    /* \"#utility.yul\":8085:8254   */\n  swap3\n  swap2\n  pop\n  pop\n  jump\t// out\n    /* \"#utility.yul\":8259:8554   */\ntag_54:\n    /* \"#utility.yul\":8335:8339   */\n  0x00\n    /* \"#utility.yul\":8481:8510   */\n  tag_153\n    /* \"#utility.yul\":8506:8509   */\n  dup4\n    /* \"#utility.yul\":8500:8504   */\n  dup4\n    /* \"#utility.yul\":8481:8510   */\n  tag_53\n  jump\t// in\ntag_153:\n    /* \"#utility.yul\":8473:8510   */\n  swap2\n  pop\n    /* \"#utility.yul\":8543:8546   */\n  dup3\n    /* \"#utility.yul\":8540:8541   */\n  0x02\n    /* \"#utility.yul\":8536:8547   */\n  mul\n    /* \"#utility.yul\":8530:8534   */\n  dup3\n    /* \"#utility.yul\":8527:8548   */\n  or\n    /* \"#utility.yul\":8519:8548   */\n  swap1\n  pop\n    /* \"#utility.yul\":8259:8554   */\n  swap3\n  swap2\n  pop\n  pop\n  jump\t// out\n    /* \"#utility.yul\":8559:9954   */\ntag_14:\n    /* \"#utility.yul\":8676:8713   */\n  tag_155\n    /* \"#utility.yul\":8709:8712   */\n  dup3\n    /* \"#utility.yul\":8676:8713   */\n  tag_36\n  jump\t// in\ntag_155:\n    /* \"#utility.yul\":8778:8796   */\n  0xffffffffffffffff\n    /* \"#utility.yul\":8770:8776   */\n  dup2\n    /* \"#utility.yul\":8767:8797   */\n  gt\n    /* \"#utility.yul\":8764:8820   */\n  iszero\n  tag_156\n  jumpi\n    /* \"#utility.yul\":8800:8818   */\n  tag_157\n  tag_28\n  jump\t// in\ntag_157:\n    /* \"#utility.yul\":8764:8820   */\ntag_156:\n    /* \"#utility.yul\":8844:8882   */\n  tag_158\n    /* \"#utility.yul\":8876:8880   */\n  dup3\n    /* \"#utility.yul\":8870:8881   */\n  sload\n    /* \"#utility.yul\":8844:8882   */\n  tag_38\n  jump\t// in\ntag_158:\n    /* \"#utility.yul\":8929:8996   */\n  tag_159\n    /* \"#utility.yul\":8989:8995   */\n  dup3\n    /* \"#utility.yul\":8981:8987   */\n  dup3\n    /* \"#utility.yul\":8975:8979   */\n  dup6\n    /* \"#utility.yul\":8929:8996   */\n  tag_51\n  jump\t// in\ntag_159:\n    /* \"#utility.yul\":9023:9024   */\n  0x00\n    /* \"#utility.yul\":9047:9051   */\n  0x20\n    /* \"#utility.yul\":9034:9051   */\n  swap1\n  pop\n    /* \"#utility.yul\":9079:9081   */\n  0x1f\n    /* \"#utility.yul\":9071:9077   */\n  dup4\n    /* \"#utility.yul\":9068:9082   */\n  gt\n    /* \"#utility.yul\":9096:9097   */\n  0x01\n    /* \"#utility.yul\":9091:9709   */\n  dup2\n  eq\n  tag_161\n  jumpi\n    /* \"#utility.yul\":9753:9754   */\n  0x00\n    /* \"#utility.yul\":9770:9776   */\n  dup5\n    /* \"#utility.yul\":9767:9844   */\n  iszero\n  tag_162\n  jumpi\n    /* \"#utility.yul\":9819:9828   */\n  dup3\n    /* \"#utility.yul\":9814:9817   */\n  dup8\n    /* \"#utility.yul\":9810:9829   */\n  add\n    /* \"#utility.yul\":9804:9830   */\n  mload\n    /* \"#utility.yul\":9795:9830   */\n  swap1\n  pop\n    /* \"#utility.yul\":9767:9844   */\ntag_162:\n    /* \"#utility.yul\":9870:9937   */\n  tag_163\n    /* \"#utility.yul\":9930:9936   */\n  dup6\n    /* \"#utility.yul\":9923:9928   */\n  dup3\n    /* \"#utility.yul\":9870:9937   */\n  tag_54\n  jump\t// in\ntag_163:\n    /* \"#utility.yul\":9864:9868   */\n  dup7\n    /* \"#utility.yul\":9857:9938   */\n  sstore\n    /* \"#utility.yul\":9726:9948   */\n  pop\n    /* \"#utility.yul\":9061:9948   */\n  jump(tag_160)\n    /* \"#utility.yul\":9091:9709   */\ntag_161:\n    /* \"#utility.yul\":9143:9147   */\n  0x1f\n    /* \"#utility.yul\":9139:9148   */\n  not\n    /* \"#utility.yul\":9131:9137   */\n  dup5\n    /* \"#utility.yul\":9127:9149   */\n  and\n    /* \"#utility.yul\":9177:9214   */\n  tag_164\n    /* \"#utility.yul\":9209:9213   */\n  dup7\n    /* \"#utility.yul\":9177:9214   */\n  tag_39\n  jump\t// in\ntag_164:\n    /* \"#utility.yul\":9236:9237   */\n  0x00\n    /* \"#utility.yul\":9250:9458   */\ntag_165:\n    /* \"#utility.yul\":9264:9271   */\n  dup3\n    /* \"#utility.yul\":9261:9262   */\n  dup2\n    /* \"#utility.yul\":9258:9272   */\n  lt\n    /* \"#utility.yul\":9250:9458   */\n  iszero\n  tag_167\n  jumpi\n    /* \"#utility.yul\":9343:9352   */\n  dup5\n    /* \"#utility.yul\":9338:9341   */\n  dup10\n    /* \"#utility.yul\":9334:9353   */\n  add\n    /* \"#utility.yul\":9328:9354   */\n  mload\n    /* \"#utility.yul\":9320:9326   */\n  dup3\n    /* \"#utility.yul\":9313:9355   */\n  sstore\n    /* \"#utility.yul\":9394:9395   */\n  0x01\n    /* \"#utility.yul\":9386:9392   */\n  dup3\n    /* \"#utility.yul\":9382:9396   */\n  add\n    /* \"#utility.yul\":9372:9396   */\n  swap2\n  pop\n    /* \"#utility.yul\":9441:9443   */\n  0x20\n    /* \"#utility.yul\":9430:9439   */\n  dup6\n    /* \"#utility.yul\":9426:9444   */\n  add\n    /* \"#utility.yul\":9413:9444   */\n  swap5\n  pop\n    /* \"#utility.yul\":9287:9291   */\n  0x20\n    /* \"#utility.yul\":9284:9285   */\n  dup2\n    /* \"#utility.yul\":9280:9292   */\n  add\n    /* \"#utility.yul\":9275:9292   */\n  swap1\n  pop\n    /* \"#utility.yul\":9250:9458   */\n  jump(tag_165)\ntag_167:\n    /* \"#utility.yul\":9486:9492   */\n  dup7\n    /* \"#utility.yul\":9477:9484   */\n  dup4\n    /* \"#utility.yul\":9474:9493   */\n  lt\n    /* \"#utility.yul\":9471:9650   */\n  iszero\n  tag_168\n  jumpi\n    /* \"#utility.yul\":9544:9553   */\n  dup5\n    /* \"#utility.yul\":9539:9542   */\n  dup10\n    /* \"#utility.yul\":9535:9554   */\n  add\n    /* \"#utility.yul\":9529:9555   */\n  mload\n    /* \"#utility.yul\":9587:9635   */\n  tag_169\n    /* \"#utility.yul\":9629:9633   */\n  0x1f\n    /* \"#utility.yul\":9621:9627   */\n  dup10\n    /* \"#utility.yul\":9617:9634   */\n  and\n    /* \"#utility.yul\":9606:9615   */\n  dup3\n    /* \"#utility.yul\":9587:9635   */\n  tag_53\n  jump\t// in\ntag_169:\n    /* \"#utility.yul\":9579:9585   */\n  dup4\n    /* \"#utility.yul\":9572:9636   */\n  sstore\n    /* \"#utility.yul\":9494:9650   */\n  pop\n    /* \"#utility.yul\":9471:9650   */\ntag_168:\n    /* \"#utility.yul\":9696:9697   */\n  0x01\n    /* \"#utility.yul\":9692:9693   */\n  0x02\n    /* \"#utility.yul\":9684:9690   */\n  dup9\n    /* \"#utility.yul\":9680:9694   */\n  mul\n    /* \"#utility.yul\":9676:9698   */\n  add\n    /* \"#utility.yul\":9670:9674   */\n  dup9\n    /* \"#utility.yul\":9663:9699   */\n  sstore\n    /* \"#utility.yul\":9098:9709   */\n  pop\n  pop\n  pop\n    /* \"#utility.yul\":9061:9948   */\ntag_160:\n  pop\n    /* \"#utility.yul\":8651:9954   */\n  pop\n  pop\n  pop\n    /* \"#utility.yul\":8559:9954   */\n  pop\n  pop\n  jump\t// out\n    /* \"contracts/16_DatacapGatewayAxelar.sol\":635:3099  contract DatacapGatewayAxelar is Ownable, IDatacapGateway {... */\ntag_16:\n  mload(0x80)\n  codecopy(0x00, dataOffset(sub_0), dataSize(sub_0))\n  0x00\n  assignImmutable(\"0x795dcf830090319074c4e36a23e7ad6013124a9e4afc765f3f324f667dfac3a5\")\n  return(0x00, dataSize(sub_0))\nstop\n\nsub_0: assembly {\n        /* \"contracts/16_DatacapGatewayAxelar.sol\":635:3099  contract DatacapGatewayAxelar is Ownable, IDatacapGateway {... */\n      mstore(0x40, 0x80)\n      jumpi(tag_1, lt(calldatasize, 0x04))\n      shr(0xe0, calldataload(0x00))\n      dup1\n      0x8da5cb5b\n      gt\n      tag_16\n      jumpi\n      dup1\n      0xbcaf0d9a\n      gt\n      tag_17\n      jumpi\n      dup1\n      0xbcaf0d9a\n      eq\n      tag_12\n      jumpi\n      dup1\n      0xca09c885\n      eq\n      tag_13\n      jumpi\n      dup1\n      0xf2fde38b\n      eq\n      tag_14\n      jumpi\n      dup1\n      0xf4bd456d\n      eq\n      tag_15\n      jumpi\n      jump(tag_2)\n    tag_17:\n      dup1\n      0x8da5cb5b\n      eq\n      tag_9\n      jumpi\n      dup1\n      0x9b85622c\n      eq\n      tag_10\n      jumpi\n      dup1\n      0xbc95b3b1\n      eq\n      tag_11\n      jumpi\n      jump(tag_2)\n    tag_16:\n      dup1\n      0x0f2a7dd3\n      eq\n      tag_3\n      jumpi\n      dup1\n      0x25d83b7a\n      eq\n      tag_4\n      jumpi\n      dup1\n      0x4cae3185\n      eq\n      tag_5\n      jumpi\n      dup1\n      0x6a22d8cc\n      eq\n      tag_6\n      jumpi\n      dup1\n      0x715018a6\n      eq\n      tag_7\n      jumpi\n      dup1\n      0x85a2dd15\n      eq\n      tag_8\n      jumpi\n      jump(tag_2)\n    tag_1:\n      jumpi(tag_2, calldatasize)\n      stop\n    tag_2:\n      0x00\n      dup1\n      revert\n        /* \"contracts/16_DatacapGatewayAxelar.sol\":699:727  address public mockAllocator */\n    tag_3:\n      callvalue\n      dup1\n      iszero\n      tag_20\n      jumpi\n      0x00\n      dup1\n      revert\n    tag_20:\n      pop\n      tag_21\n      tag_22\n      jump\t// in\n    tag_21:\n      mload(0x40)\n      tag_23\n      swap2\n      swap1\n      tag_24\n      jump\t// in\n    tag_23:\n      mload(0x40)\n      dup1\n      swap2\n      sub\n      swap1\n      return\n        /* \"contracts/16_DatacapGatewayAxelar.sol\":909:931  string public destAddr */\n    tag_4:\n      callvalue\n      dup1\n      iszero\n      tag_25\n      jumpi\n      0x00\n      dup1\n      revert\n    tag_25:\n      pop\n      tag_26\n      tag_27\n      jump\t// in\n    tag_26:\n      mload(0x40)\n      tag_28\n      swap2\n      swap1\n      tag_29\n      jump\t// in\n    tag_28:\n      mload(0x40)\n      dup1\n      swap2\n      sub\n      swap1\n      return\n        /* \"contracts/16_DatacapGatewayAxelar.sol\":788:820  address public axelarGatewayAddr */\n    tag_5:\n      callvalue\n      dup1\n      iszero\n      tag_30\n      jumpi\n      0x00\n      dup1\n      revert\n    tag_30:\n      pop\n      tag_31\n      tag_32\n      jump\t// in\n    tag_31:\n      mload(0x40)\n      tag_33\n      swap2\n      swap1\n      tag_24\n      jump\t// in\n    tag_33:\n      mload(0x40)\n      dup1\n      swap2\n      sub\n      swap1\n      return\n        /* \"contracts/16_DatacapGatewayAxelar.sol\":827:872  IAxelarGasService public immutable gasService */\n    tag_6:\n      callvalue\n      dup1\n      iszero\n      tag_34\n      jumpi\n      0x00\n      dup1\n      revert\n    tag_34:\n      pop\n      tag_35\n      tag_36\n      jump\t// in\n    tag_35:\n      mload(0x40)\n      tag_37\n      swap2\n      swap1\n      tag_38\n      jump\t// in\n    tag_37:\n      mload(0x40)\n      dup1\n      swap2\n      sub\n      swap1\n      return\n        /* \"@openzeppelin/contracts/access/Ownable.sol\":2293:2394  function renounceOwnership() public virtual onlyOwner {... */\n    tag_7:\n      callvalue\n      dup1\n      iszero\n      tag_39\n      jumpi\n      0x00\n      dup1\n      revert\n    tag_39:\n      pop\n      tag_40\n      tag_41\n      jump\t// in\n    tag_40:\n      stop\n        /* \"contracts/16_DatacapGatewayAxelar.sol\":2055:2153  function hasAccess() external view onlyEscrowContracts returns (bool) {... */\n    tag_8:\n      callvalue\n      dup1\n      iszero\n      tag_42\n      jumpi\n      0x00\n      dup1\n      revert\n    tag_42:\n      pop\n      tag_43\n      tag_44\n      jump\t// in\n    tag_43:\n      mload(0x40)\n      tag_45\n      swap2\n      swap1\n      tag_46\n      jump\t// in\n    tag_45:\n      mload(0x40)\n      dup1\n      swap2\n      sub\n      swap1\n      return\n        /* \"@openzeppelin/contracts/access/Ownable.sol\":1638:1723  function owner() public view virtual returns (address) {... */\n    tag_9:\n      callvalue\n      dup1\n      iszero\n      tag_47\n      jumpi\n      0x00\n      dup1\n      revert\n    tag_47:\n      pop\n      tag_48\n      tag_49\n      jump\t// in\n    tag_48:\n      mload(0x40)\n      tag_50\n      swap2\n      swap1\n      tag_24\n      jump\t// in\n    tag_50:\n      mload(0x40)\n      dup1\n      swap2\n      sub\n      swap1\n      return\n        /* \"contracts/16_DatacapGatewayAxelar.sol\":1453:1645  function setStorageProviderEscrowFactory(address storageProviderEscrowFactoryAddress) external onlyOwner {... */\n    tag_10:\n      callvalue\n      dup1\n      iszero\n      tag_51\n      jumpi\n      0x00\n      dup1\n      revert\n    tag_51:\n      pop\n      tag_52\n      0x04\n      dup1\n      calldatasize\n      sub\n      dup2\n      add\n      swap1\n      tag_53\n      swap2\n      swap1\n      tag_54\n      jump\t// in\n    tag_53:\n      tag_55\n      jump\t// in\n    tag_52:\n      stop\n        /* \"contracts/16_DatacapGatewayAxelar.sol\":879:902  string public destChain */\n    tag_11:\n      callvalue\n      dup1\n      iszero\n      tag_56\n      jumpi\n      0x00\n      dup1\n      revert\n    tag_56:\n      pop\n      tag_57\n      tag_58\n      jump\t// in\n    tag_57:\n      mload(0x40)\n      tag_59\n      swap2\n      swap1\n      tag_29\n      jump\t// in\n    tag_59:\n      mload(0x40)\n      dup1\n      swap2\n      sub\n      swap1\n      return\n        /* \"contracts/16_DatacapGatewayAxelar.sol\":734:781  address public storageProviderEscrowFactoryAddr */\n    tag_12:\n      callvalue\n      dup1\n      iszero\n      tag_60\n      jumpi\n      0x00\n      dup1\n      revert\n    tag_60:\n      pop\n      tag_61\n      tag_62\n      jump\t// in\n    tag_61:\n      mload(0x40)\n      tag_63\n      swap2\n      swap1\n      tag_24\n      jump\t// in\n    tag_63:\n      mload(0x40)\n      dup1\n      swap2\n      sub\n      swap1\n      return\n        /* \"contracts/16_DatacapGatewayAxelar.sol\":2411:3097  function grantDatacapMock(address clientFilecoinAddress, uint256 amount) external onlyEscrowContracts {... */\n    tag_13:\n      callvalue\n      dup1\n      iszero\n      tag_64\n      jumpi\n      0x00\n      dup1\n      revert\n    tag_64:\n      pop\n      tag_65\n      0x04\n      dup1\n      calldatasize\n      sub\n      dup2\n      add\n      swap1\n      tag_66\n      swap2\n      swap1\n      tag_67\n      jump\t// in\n    tag_66:\n      tag_68\n      jump\t// in\n    tag_65:\n      stop\n        /* \"@openzeppelin/contracts/access/Ownable.sol\":2543:2758  function transferOwnership(address newOwner) public virtual onlyOwner {... */\n    tag_14:\n      callvalue\n      dup1\n      iszero\n      tag_69\n      jumpi\n      0x00\n      dup1\n      revert\n    tag_69:\n      pop\n      tag_70\n      0x04\n      dup1\n      calldatasize\n      sub\n      dup2\n      add\n      swap1\n      tag_71\n      swap2\n      swap1\n      tag_54\n      jump\t// in\n    tag_71:\n      tag_72\n      jump\t// in\n    tag_70:\n      stop\n        /* \"contracts/16_DatacapGatewayAxelar.sol\":2159:2405  function grantDatacap(bytes calldata clientFilecoinAddress, uint256 amount) external onlyEscrowContracts {... */\n    tag_15:\n      callvalue\n      dup1\n      iszero\n      tag_73\n      jumpi\n      0x00\n      dup1\n      revert\n    tag_73:\n      pop\n      tag_74\n      0x04\n      dup1\n      calldatasize\n      sub\n      dup2\n      add\n      swap1\n      tag_75\n      swap2\n      swap1\n      tag_76\n      jump\t// in\n    tag_75:\n      tag_77\n      jump\t// in\n    tag_74:\n      stop\n        /* \"contracts/16_DatacapGatewayAxelar.sol\":699:727  address public mockAllocator */\n    tag_22:\n      0x01\n      0x00\n      swap1\n      sload\n      swap1\n      0x0100\n      exp\n      swap1\n      div\n      0xffffffffffffffffffffffffffffffffffffffff\n      and\n      dup2\n      jump\t// out\n        /* \"contracts/16_DatacapGatewayAxelar.sol\":909:931  string public destAddr */\n    tag_27:\n      0x05\n      dup1\n      sload\n      tag_78\n      swap1\n      tag_79\n      jump\t// in\n    tag_78:\n      dup1\n      0x1f\n      add\n      0x20\n      dup1\n      swap2\n      div\n      mul\n      0x20\n      add\n      mload(0x40)\n      swap1\n      dup2\n      add\n      0x40\n      mstore\n      dup1\n      swap3\n      swap2\n      swap1\n      dup2\n      dup2\n      mstore\n      0x20\n      add\n      dup3\n      dup1\n      sload\n      tag_80\n      swap1\n      tag_79\n      jump\t// in\n    tag_80:\n      dup1\n      iszero\n      tag_81\n      jumpi\n      dup1\n      0x1f\n      lt\n      tag_82\n      jumpi\n      0x0100\n      dup1\n      dup4\n      sload\n      div\n      mul\n      dup4\n      mstore\n      swap2\n      0x20\n      add\n      swap2\n      jump(tag_81)\n    tag_82:\n      dup3\n      add\n      swap2\n      swap1\n      0x00\n      mstore\n      keccak256(0x00, 0x20)\n      swap1\n    tag_83:\n      dup2\n      sload\n      dup2\n      mstore\n      swap1\n      0x01\n      add\n      swap1\n      0x20\n      add\n      dup1\n      dup4\n      gt\n      tag_83\n      jumpi\n      dup3\n      swap1\n      sub\n      0x1f\n      and\n      dup3\n      add\n      swap2\n    tag_81:\n      pop\n      pop\n      pop\n      pop\n      pop\n      dup2\n      jump\t// out\n        /* \"contracts/16_DatacapGatewayAxelar.sol\":788:820  address public axelarGatewayAddr */\n    tag_32:\n      0x03\n      0x00\n      swap1\n      sload\n      swap1\n      0x0100\n      exp\n      swap1\n      div\n      0xffffffffffffffffffffffffffffffffffffffff\n      and\n      dup2\n      jump\t// out\n        /* \"contracts/16_DatacapGatewayAxelar.sol\":827:872  IAxelarGasService public immutable gasService */\n    tag_36:\n      immutable(\"0x795dcf830090319074c4e36a23e7ad6013124a9e4afc765f3f324f667dfac3a5\")\n      dup2\n      jump\t// out\n        /* \"@openzeppelin/contracts/access/Ownable.sol\":2293:2394  function renounceOwnership() public virtual onlyOwner {... */\n    tag_41:\n        /* \"@openzeppelin/contracts/access/Ownable.sol\":1531:1544  _checkOwner() */\n      tag_85\n        /* \"@openzeppelin/contracts/access/Ownable.sol\":1531:1542  _checkOwner */\n      tag_86\n        /* \"@openzeppelin/contracts/access/Ownable.sol\":1531:1544  _checkOwner() */\n      jump\t// in\n    tag_85:\n        /* \"@openzeppelin/contracts/access/Ownable.sol\":2357:2387  _transferOwnership(address(0)) */\n      tag_88\n        /* \"@openzeppelin/contracts/access/Ownable.sol\":2384:2385  0 */\n      0x00\n        /* \"@openzeppelin/contracts/access/Ownable.sol\":2357:2375  _transferOwnership */\n      tag_89\n        /* \"@openzeppelin/contracts/access/Ownable.sol\":2357:2387  _transferOwnership(address(0)) */\n      jump\t// in\n    tag_88:\n        /* \"@openzeppelin/contracts/access/Ownable.sol\":2293:2394  function renounceOwnership() public virtual onlyOwner {... */\n      jump\t// out\n        /* \"contracts/16_DatacapGatewayAxelar.sol\":2055:2153  function hasAccess() external view onlyEscrowContracts returns (bool) {... */\n    tag_44:\n        /* \"contracts/16_DatacapGatewayAxelar.sol\":2119:2123  bool */\n      0x00\n        /* \"contracts/16_DatacapGatewayAxelar.sol\":1740:1741  0 */\n      dup1\n        /* \"contracts/16_DatacapGatewayAxelar.sol\":1696:1742  storageProviderEscrowFactoryAddr == address(0) */\n      0xffffffffffffffffffffffffffffffffffffffff\n      and\n        /* \"contracts/16_DatacapGatewayAxelar.sol\":1696:1728  storageProviderEscrowFactoryAddr */\n      0x02\n      0x00\n      swap1\n      sload\n      swap1\n      0x0100\n      exp\n      swap1\n      div\n      0xffffffffffffffffffffffffffffffffffffffff\n      and\n        /* \"contracts/16_DatacapGatewayAxelar.sol\":1696:1742  storageProviderEscrowFactoryAddr == address(0) */\n      0xffffffffffffffffffffffffffffffffffffffff\n      and\n      sub\n        /* \"contracts/16_DatacapGatewayAxelar.sol\":1692:1811  if (storageProviderEscrowFactoryAddr == address(0)) {... */\n      tag_91\n      jumpi\n        /* \"contracts/16_DatacapGatewayAxelar.sol\":1765:1800  StorageProviderEscrowFactoryUnset() */\n      mload(0x40)\n      0xf37741d700000000000000000000000000000000000000000000000000000000\n      dup2\n      mstore\n      0x04\n      add\n      mload(0x40)\n      dup1\n      swap2\n      sub\n      swap1\n      revert\n        /* \"contracts/16_DatacapGatewayAxelar.sol\":1692:1811  if (storageProviderEscrowFactoryAddr == address(0)) {... */\n    tag_91:\n        /* \"contracts/16_DatacapGatewayAxelar.sol\":1821:1858  IStorageProviderEscrowFactory factory */\n      0x00\n        /* \"contracts/16_DatacapGatewayAxelar.sol\":1891:1923  storageProviderEscrowFactoryAddr */\n      0x02\n      0x00\n      swap1\n      sload\n      swap1\n      0x0100\n      exp\n      swap1\n      div\n      0xffffffffffffffffffffffffffffffffffffffff\n      and\n        /* \"contracts/16_DatacapGatewayAxelar.sol\":1821:1924  IStorageProviderEscrowFactory factory = IStorageProviderEscrowFactory(storageProviderEscrowFactoryAddr) */\n      swap1\n      pop\n        /* \"contracts/16_DatacapGatewayAxelar.sol\":1939:1946  factory */\n      dup1\n        /* \"contracts/16_DatacapGatewayAxelar.sol\":1939:1955  factory.isEscrow */\n      0xffffffffffffffffffffffffffffffffffffffff\n      and\n      0xb166a09f\n        /* \"contracts/16_DatacapGatewayAxelar.sol\":1956:1966  msg.sender */\n      caller\n        /* \"contracts/16_DatacapGatewayAxelar.sol\":1939:1967  factory.isEscrow(msg.sender) */\n      mload(0x40)\n      dup3\n      0xffffffff\n      and\n      0xe0\n      shl\n      dup2\n      mstore\n      0x04\n      add\n      tag_92\n      swap2\n      swap1\n      tag_24\n      jump\t// in\n    tag_92:\n      0x20\n      mload(0x40)\n      dup1\n      dup4\n      sub\n      dup2\n      dup7\n      gas\n      staticcall\n      iszero\n      dup1\n      iszero\n      tag_94\n      jumpi\n      returndatasize\n      0x00\n      dup1\n      returndatacopy\n      revert(0x00, returndatasize)\n    tag_94:\n      pop\n      pop\n      pop\n      pop\n      mload(0x40)\n      returndatasize\n      not(0x1f)\n      0x1f\n      dup3\n      add\n      and\n      dup3\n      add\n      dup1\n      0x40\n      mstore\n      pop\n      dup2\n      add\n      swap1\n      tag_95\n      swap2\n      swap1\n      tag_96\n      jump\t// in\n    tag_95:\n        /* \"contracts/16_DatacapGatewayAxelar.sol\":1934:2032  if (!factory.isEscrow(msg.sender)) {... */\n      tag_97\n      jumpi\n        /* \"contracts/16_DatacapGatewayAxelar.sol\":2010:2020  msg.sender */\n      caller\n        /* \"contracts/16_DatacapGatewayAxelar.sol\":1990:2021  UnauthorizedAccount(msg.sender) */\n      mload(0x40)\n      0x32b2baa300000000000000000000000000000000000000000000000000000000\n      dup2\n      mstore\n      0x04\n      add\n      tag_98\n      swap2\n      swap1\n      tag_24\n      jump\t// in\n    tag_98:\n      mload(0x40)\n      dup1\n      swap2\n      sub\n      swap1\n      revert\n        /* \"contracts/16_DatacapGatewayAxelar.sol\":1934:2032  if (!factory.isEscrow(msg.sender)) {... */\n    tag_97:\n        /* \"contracts/16_DatacapGatewayAxelar.sol\":2142:2146  true */\n      0x01\n        /* \"contracts/16_DatacapGatewayAxelar.sol\":2135:2146  return true */\n      swap2\n      pop\n        /* \"contracts/16_DatacapGatewayAxelar.sol\":1682:2049  {... */\n      pop\n        /* \"contracts/16_DatacapGatewayAxelar.sol\":2055:2153  function hasAccess() external view onlyEscrowContracts returns (bool) {... */\n      swap1\n      jump\t// out\n        /* \"@openzeppelin/contracts/access/Ownable.sol\":1638:1723  function owner() public view virtual returns (address) {... */\n    tag_49:\n        /* \"@openzeppelin/contracts/access/Ownable.sol\":1684:1691  address */\n      0x00\n        /* \"@openzeppelin/contracts/access/Ownable.sol\":1710:1716  _owner */\n      dup1\n      0x00\n      swap1\n      sload\n      swap1\n      0x0100\n      exp\n      swap1\n      div\n      0xffffffffffffffffffffffffffffffffffffffff\n      and\n        /* \"@openzeppelin/contracts/access/Ownable.sol\":1703:1716  return _owner */\n      swap1\n      pop\n        /* \"@openzeppelin/contracts/access/Ownable.sol\":1638:1723  function owner() public view virtual returns (address) {... */\n      swap1\n      jump\t// out\n        /* \"contracts/16_DatacapGatewayAxelar.sol\":1453:1645  function setStorageProviderEscrowFactory(address storageProviderEscrowFactoryAddress) external onlyOwner {... */\n    tag_55:\n        /* \"@openzeppelin/contracts/access/Ownable.sol\":1531:1544  _checkOwner() */\n      tag_102\n        /* \"@openzeppelin/contracts/access/Ownable.sol\":1531:1542  _checkOwner */\n      tag_86\n        /* \"@openzeppelin/contracts/access/Ownable.sol\":1531:1544  _checkOwner() */\n      jump\t// in\n    tag_102:\n        /* \"contracts/16_DatacapGatewayAxelar.sol\":1603:1638  storageProviderEscrowFactoryAddress */\n      dup1\n        /* \"contracts/16_DatacapGatewayAxelar.sol\":1568:1600  storageProviderEscrowFactoryAddr */\n      0x02\n      0x00\n        /* \"contracts/16_DatacapGatewayAxelar.sol\":1568:1638  storageProviderEscrowFactoryAddr = storageProviderEscrowFactoryAddress */\n      0x0100\n      exp\n      dup2\n      sload\n      dup2\n      0xffffffffffffffffffffffffffffffffffffffff\n      mul\n      not\n      and\n      swap1\n      dup4\n      0xffffffffffffffffffffffffffffffffffffffff\n      and\n      mul\n      or\n      swap1\n      sstore\n      pop\n        /* \"contracts/16_DatacapGatewayAxelar.sol\":1453:1645  function setStorageProviderEscrowFactory(address storageProviderEscrowFactoryAddress) external onlyOwner {... */\n      pop\n      jump\t// out\n        /* \"contracts/16_DatacapGatewayAxelar.sol\":879:902  string public destChain */\n    tag_58:\n      0x04\n      dup1\n      sload\n      tag_104\n      swap1\n      tag_79\n      jump\t// in\n    tag_104:\n      dup1\n      0x1f\n      add\n      0x20\n      dup1\n      swap2\n      div\n      mul\n      0x20\n      add\n      mload(0x40)\n      swap1\n      dup2\n      add\n      0x40\n      mstore\n      dup1\n      swap3\n      swap2\n      swap1\n      dup2\n      dup2\n      mstore\n      0x20\n      add\n      dup3\n      dup1\n      sload\n      tag_105\n      swap1\n      tag_79\n      jump\t// in\n    tag_105:\n      dup1\n      iszero\n      tag_106\n      jumpi\n      dup1\n      0x1f\n      lt\n      tag_107\n      jumpi\n      0x0100\n      dup1\n      dup4\n      sload\n      div\n      mul\n      dup4\n      mstore\n      swap2\n      0x20\n      add\n      swap2\n      jump(tag_106)\n    tag_107:\n      dup3\n      add\n      swap2\n      swap1\n      0x00\n      mstore\n      keccak256(0x00, 0x20)\n      swap1\n    tag_108:\n      dup2\n      sload\n      dup2\n      mstore\n      swap1\n      0x01\n      add\n      swap1\n      0x20\n      add\n      dup1\n      dup4\n      gt\n      tag_108\n      jumpi\n      dup3\n      swap1\n      sub\n      0x1f\n      and\n      dup3\n      add\n      swap2\n    tag_106:\n      pop\n      pop\n      pop\n      pop\n      pop\n      dup2\n      jump\t// out\n        /* \"contracts/16_DatacapGatewayAxelar.sol\":734:781  address public storageProviderEscrowFactoryAddr */\n    tag_62:\n      0x02\n      0x00\n      swap1\n      sload\n      swap1\n      0x0100\n      exp\n      swap1\n      div\n      0xffffffffffffffffffffffffffffffffffffffff\n      and\n      dup2\n      jump\t// out\n        /* \"contracts/16_DatacapGatewayAxelar.sol\":2411:3097  function grantDatacapMock(address clientFilecoinAddress, uint256 amount) external onlyEscrowContracts {... */\n    tag_68:\n        /* \"contracts/16_DatacapGatewayAxelar.sol\":1740:1741  0 */\n      0x00\n        /* \"contracts/16_DatacapGatewayAxelar.sol\":1696:1742  storageProviderEscrowFactoryAddr == address(0) */\n      0xffffffffffffffffffffffffffffffffffffffff\n      and\n        /* \"contracts/16_DatacapGatewayAxelar.sol\":1696:1728  storageProviderEscrowFactoryAddr */\n      0x02\n      0x00\n      swap1\n      sload\n      swap1\n      0x0100\n      exp\n      swap1\n      div\n      0xffffffffffffffffffffffffffffffffffffffff\n      and\n        /* \"contracts/16_DatacapGatewayAxelar.sol\":1696:1742  storageProviderEscrowFactoryAddr == address(0) */\n      0xffffffffffffffffffffffffffffffffffffffff\n      and\n      sub\n        /* \"contracts/16_DatacapGatewayAxelar.sol\":1692:1811  if (storageProviderEscrowFactoryAddr == address(0)) {... */\n      tag_110\n      jumpi\n        /* \"contracts/16_DatacapGatewayAxelar.sol\":1765:1800  StorageProviderEscrowFactoryUnset() */\n      mload(0x40)\n      0xf37741d700000000000000000000000000000000000000000000000000000000\n      dup2\n      mstore\n      0x04\n      add\n      mload(0x40)\n      dup1\n      swap2\n      sub\n      swap1\n      revert\n        /* \"contracts/16_DatacapGatewayAxelar.sol\":1692:1811  if (storageProviderEscrowFactoryAddr == address(0)) {... */\n    tag_110:\n        /* \"contracts/16_DatacapGatewayAxelar.sol\":1821:1858  IStorageProviderEscrowFactory factory */\n      0x00\n        /* \"contracts/16_DatacapGatewayAxelar.sol\":1891:1923  storageProviderEscrowFactoryAddr */\n      0x02\n      0x00\n      swap1\n      sload\n      swap1\n      0x0100\n      exp\n      swap1\n      div\n      0xffffffffffffffffffffffffffffffffffffffff\n      and\n        /* \"contracts/16_DatacapGatewayAxelar.sol\":1821:1924  IStorageProviderEscrowFactory factory = IStorageProviderEscrowFactory(storageProviderEscrowFactoryAddr) */\n      swap1\n      pop\n        /* \"contracts/16_DatacapGatewayAxelar.sol\":1939:1946  factory */\n      dup1\n        /* \"contracts/16_DatacapGatewayAxelar.sol\":1939:1955  factory.isEscrow */\n      0xffffffffffffffffffffffffffffffffffffffff\n      and\n      0xb166a09f\n        /* \"contracts/16_DatacapGatewayAxelar.sol\":1956:1966  msg.sender */\n      caller\n        /* \"contracts/16_DatacapGatewayAxelar.sol\":1939:1967  factory.isEscrow(msg.sender) */\n      mload(0x40)\n      dup3\n      0xffffffff\n      and\n      0xe0\n      shl\n      dup2\n      mstore\n      0x04\n      add\n      tag_111\n      swap2\n      swap1\n      tag_24\n      jump\t// in\n    tag_111:\n      0x20\n      mload(0x40)\n      dup1\n      dup4\n      sub\n      dup2\n      dup7\n      gas\n      staticcall\n      iszero\n      dup1\n      iszero\n      tag_113\n      jumpi\n      returndatasize\n      0x00\n      dup1\n      returndatacopy\n      revert(0x00, returndatasize)\n    tag_113:\n      pop\n      pop\n      pop\n      pop\n      mload(0x40)\n      returndatasize\n      not(0x1f)\n      0x1f\n      dup3\n      add\n      and\n      dup3\n      add\n      dup1\n      0x40\n      mstore\n      pop\n      dup2\n      add\n      swap1\n      tag_114\n      swap2\n      swap1\n      tag_96\n      jump\t// in\n    tag_114:\n        /* \"contracts/16_DatacapGatewayAxelar.sol\":1934:2032  if (!factory.isEscrow(msg.sender)) {... */\n      tag_115\n      jumpi\n        /* \"contracts/16_DatacapGatewayAxelar.sol\":2010:2020  msg.sender */\n      caller\n        /* \"contracts/16_DatacapGatewayAxelar.sol\":1990:2021  UnauthorizedAccount(msg.sender) */\n      mload(0x40)\n      0x32b2baa300000000000000000000000000000000000000000000000000000000\n      dup2\n      mstore\n      0x04\n      add\n      tag_116\n      swap2\n      swap1\n      tag_24\n      jump\t// in\n    tag_116:\n      mload(0x40)\n      dup1\n      swap2\n      sub\n      swap1\n      revert\n        /* \"contracts/16_DatacapGatewayAxelar.sol\":1934:2032  if (!factory.isEscrow(msg.sender)) {... */\n    tag_115:\n        /* \"contracts/16_DatacapGatewayAxelar.sol\":2523:2545  string memory _message */\n      0x00\n        /* \"contracts/16_DatacapGatewayAxelar.sol\":2523:2562  string memory _message = \"grant called\" */\n      mload(0x40)\n      dup1\n      0x40\n      add\n      0x40\n      mstore\n      dup1\n      0x0c\n      dup2\n      mstore\n      0x20\n      add\n      0x6772616e742063616c6c65640000000000000000000000000000000000000000\n      dup2\n      mstore\n      pop\n      swap1\n      pop\n        /* \"contracts/16_DatacapGatewayAxelar.sol\":2572:2592  bytes memory payload */\n      0x00\n        /* \"contracts/16_DatacapGatewayAxelar.sol\":2606:2614  _message */\n      dup2\n        /* \"contracts/16_DatacapGatewayAxelar.sol\":2595:2615  abi.encode(_message) */\n      add(0x20, mload(0x40))\n      tag_118\n      swap2\n      swap1\n      tag_29\n      jump\t// in\n    tag_118:\n      mload(0x40)\n      0x20\n      dup2\n      dup4\n      sub\n      sub\n      dup2\n      mstore\n      swap1\n      0x40\n      mstore\n        /* \"contracts/16_DatacapGatewayAxelar.sol\":2572:2615  bytes memory payload = abi.encode(_message) */\n      swap1\n      pop\n        /* \"contracts/16_DatacapGatewayAxelar.sol\":2625:2635  gasService */\n      immutable(\"0x795dcf830090319074c4e36a23e7ad6013124a9e4afc765f3f324f667dfac3a5\")\n        /* \"contracts/16_DatacapGatewayAxelar.sol\":2625:2663  gasService.payNativeGasForContractCall */\n      0xffffffffffffffffffffffffffffffffffffffff\n      and\n      0x0c93e3bb\n        /* \"contracts/16_DatacapGatewayAxelar.sol\":2672:2688  1000000000000000 */\n      0x038d7ea4c68000\n        /* \"contracts/16_DatacapGatewayAxelar.sol\":2712:2716  this */\n      address\n        /* \"contracts/16_DatacapGatewayAxelar.sol\":2731:2740  destChain */\n      0x04\n        /* \"contracts/16_DatacapGatewayAxelar.sol\":2754:2762  destAddr */\n      0x05\n        /* \"contracts/16_DatacapGatewayAxelar.sol\":2776:2783  payload */\n      dup7\n        /* \"contracts/16_DatacapGatewayAxelar.sol\":2797:2807  msg.sender */\n      caller\n        /* \"contracts/16_DatacapGatewayAxelar.sol\":2625:2817  gasService.payNativeGasForContractCall{ value: 1000000000000000 }(... */\n      mload(0x40)\n      dup8\n      0xffffffff\n      and\n      0xe0\n      shl\n      dup2\n      mstore\n      0x04\n      add\n      tag_119\n      swap6\n      swap5\n      swap4\n      swap3\n      swap2\n      swap1\n      tag_120\n      jump\t// in\n    tag_119:\n      0x00\n      mload(0x40)\n      dup1\n      dup4\n      sub\n      dup2\n      dup6\n      dup9\n      dup1\n      extcodesize\n      iszero\n      dup1\n      iszero\n      tag_121\n      jumpi\n      0x00\n      dup1\n      revert\n    tag_121:\n      pop\n      gas\n      call\n      iszero\n      dup1\n      iszero\n      tag_123\n      jumpi\n      returndatasize\n      0x00\n      dup1\n      returndatacopy\n      revert(0x00, returndatasize)\n    tag_123:\n      pop\n      pop\n      pop\n      pop\n      pop\n        /* \"contracts/16_DatacapGatewayAxelar.sol\":2827:2849  IAxelarGateway gateway */\n      0x00\n        /* \"contracts/16_DatacapGatewayAxelar.sol\":2867:2884  axelarGatewayAddr */\n      0x03\n      0x00\n      swap1\n      sload\n      swap1\n      0x0100\n      exp\n      swap1\n      div\n      0xffffffffffffffffffffffffffffffffffffffff\n      and\n        /* \"contracts/16_DatacapGatewayAxelar.sol\":2827:2885  IAxelarGateway gateway = IAxelarGateway(axelarGatewayAddr) */\n      swap1\n      pop\n        /* \"contracts/16_DatacapGatewayAxelar.sol\":2895:2902  gateway */\n      dup1\n        /* \"contracts/16_DatacapGatewayAxelar.sol\":2895:2915  gateway.callContract */\n      0xffffffffffffffffffffffffffffffffffffffff\n      and\n      0x1c92115f\n        /* \"contracts/16_DatacapGatewayAxelar.sol\":2916:2925  destChain */\n      0x04\n        /* \"contracts/16_DatacapGatewayAxelar.sol\":2927:2935  destAddr */\n      0x05\n        /* \"contracts/16_DatacapGatewayAxelar.sol\":2937:2944  payload */\n      dup6\n        /* \"contracts/16_DatacapGatewayAxelar.sol\":2895:2945  gateway.callContract(destChain, destAddr, payload) */\n      mload(0x40)\n      dup5\n      0xffffffff\n      and\n      0xe0\n      shl\n      dup2\n      mstore\n      0x04\n      add\n      tag_124\n      swap4\n      swap3\n      swap2\n      swap1\n      tag_125\n      jump\t// in\n    tag_124:\n      0x00\n      mload(0x40)\n      dup1\n      dup4\n      sub\n      dup2\n      0x00\n      dup8\n      dup1\n      extcodesize\n      iszero\n      dup1\n      iszero\n      tag_126\n      jumpi\n      0x00\n      dup1\n      revert\n    tag_126:\n      pop\n      gas\n      call\n      iszero\n      dup1\n      iszero\n      tag_128\n      jumpi\n      returndatasize\n      0x00\n      dup1\n      returndatacopy\n      revert(0x00, returndatasize)\n    tag_128:\n      pop\n      pop\n      pop\n      pop\n        /* \"contracts/16_DatacapGatewayAxelar.sol\":2513:3097  {... */\n      pop\n      pop\n      pop\n        /* \"contracts/16_DatacapGatewayAxelar.sol\":1682:2049  {... */\n      pop\n        /* \"contracts/16_DatacapGatewayAxelar.sol\":2411:3097  function grantDatacapMock(address clientFilecoinAddress, uint256 amount) external onlyEscrowContracts {... */\n      pop\n      pop\n      jump\t// out\n        /* \"@openzeppelin/contracts/access/Ownable.sol\":2543:2758  function transferOwnership(address newOwner) public virtual onlyOwner {... */\n    tag_72:\n        /* \"@openzeppelin/contracts/access/Ownable.sol\":1531:1544  _checkOwner() */\n      tag_130\n        /* \"@openzeppelin/contracts/access/Ownable.sol\":1531:1542  _checkOwner */\n      tag_86\n        /* \"@openzeppelin/contracts/access/Ownable.sol\":1531:1544  _checkOwner() */\n      jump\t// in\n    tag_130:\n        /* \"@openzeppelin/contracts/access/Ownable.sol\":2647:2648  0 */\n      0x00\n        /* \"@openzeppelin/contracts/access/Ownable.sol\":2627:2649  newOwner == address(0) */\n      0xffffffffffffffffffffffffffffffffffffffff\n      and\n        /* \"@openzeppelin/contracts/access/Ownable.sol\":2627:2635  newOwner */\n      dup2\n        /* \"@openzeppelin/contracts/access/Ownable.sol\":2627:2649  newOwner == address(0) */\n      0xffffffffffffffffffffffffffffffffffffffff\n      and\n      sub\n        /* \"@openzeppelin/contracts/access/Ownable.sol\":2623:2714  if (newOwner == address(0)) {... */\n      tag_132\n      jumpi\n        /* \"@openzeppelin/contracts/access/Ownable.sol\":2700:2701  0 */\n      0x00\n        /* \"@openzeppelin/contracts/access/Ownable.sol\":2672:2703  OwnableInvalidOwner(address(0)) */\n      mload(0x40)\n      0x1e4fbdf700000000000000000000000000000000000000000000000000000000\n      dup2\n      mstore\n      0x04\n      add\n      tag_133\n      swap2\n      swap1\n      tag_24\n      jump\t// in\n    tag_133:\n      mload(0x40)\n      dup1\n      swap2\n      sub\n      swap1\n      revert\n        /* \"@openzeppelin/contracts/access/Ownable.sol\":2623:2714  if (newOwner == address(0)) {... */\n    tag_132:\n        /* \"@openzeppelin/contracts/access/Ownable.sol\":2723:2751  _transferOwnership(newOwner) */\n      tag_134\n        /* \"@openzeppelin/contracts/access/Ownable.sol\":2742:2750  newOwner */\n      dup2\n        /* \"@openzeppelin/contracts/access/Ownable.sol\":2723:2741  _transferOwnership */\n      tag_89\n        /* \"@openzeppelin/contracts/access/Ownable.sol\":2723:2751  _transferOwnership(newOwner) */\n      jump\t// in\n    tag_134:\n        /* \"@openzeppelin/contracts/access/Ownable.sol\":2543:2758  function transferOwnership(address newOwner) public virtual onlyOwner {... */\n      pop\n      jump\t// out\n        /* \"contracts/16_DatacapGatewayAxelar.sol\":2159:2405  function grantDatacap(bytes calldata clientFilecoinAddress, uint256 amount) external onlyEscrowContracts {... */\n    tag_77:\n        /* \"contracts/16_DatacapGatewayAxelar.sol\":1740:1741  0 */\n      0x00\n        /* \"contracts/16_DatacapGatewayAxelar.sol\":1696:1742  storageProviderEscrowFactoryAddr == address(0) */\n      0xffffffffffffffffffffffffffffffffffffffff\n      and\n        /* \"contracts/16_DatacapGatewayAxelar.sol\":1696:1728  storageProviderEscrowFactoryAddr */\n      0x02\n      0x00\n      swap1\n      sload\n      swap1\n      0x0100\n      exp\n      swap1\n      div\n      0xffffffffffffffffffffffffffffffffffffffff\n      and\n        /* \"contracts/16_DatacapGatewayAxelar.sol\":1696:1742  storageProviderEscrowFactoryAddr == address(0) */\n      0xffffffffffffffffffffffffffffffffffffffff\n      and\n      sub\n        /* \"contracts/16_DatacapGatewayAxelar.sol\":1692:1811  if (storageProviderEscrowFactoryAddr == address(0)) {... */\n      tag_136\n      jumpi\n        /* \"contracts/16_DatacapGatewayAxelar.sol\":1765:1800  StorageProviderEscrowFactoryUnset() */\n      mload(0x40)\n      0xf37741d700000000000000000000000000000000000000000000000000000000\n      dup2\n      mstore\n      0x04\n      add\n      mload(0x40)\n      dup1\n      swap2\n      sub\n      swap1\n      revert\n        /* \"contracts/16_DatacapGatewayAxelar.sol\":1692:1811  if (storageProviderEscrowFactoryAddr == address(0)) {... */\n    tag_136:\n        /* \"contracts/16_DatacapGatewayAxelar.sol\":1821:1858  IStorageProviderEscrowFactory factory */\n      0x00\n        /* \"contracts/16_DatacapGatewayAxelar.sol\":1891:1923  storageProviderEscrowFactoryAddr */\n      0x02\n      0x00\n      swap1\n      sload\n      swap1\n      0x0100\n      exp\n      swap1\n      div\n      0xffffffffffffffffffffffffffffffffffffffff\n      and\n        /* \"contracts/16_DatacapGatewayAxelar.sol\":1821:1924  IStorageProviderEscrowFactory factory = IStorageProviderEscrowFactory(storageProviderEscrowFactoryAddr) */\n      swap1\n      pop\n        /* \"contracts/16_DatacapGatewayAxelar.sol\":1939:1946  factory */\n      dup1\n        /* \"contracts/16_DatacapGatewayAxelar.sol\":1939:1955  factory.isEscrow */\n      0xffffffffffffffffffffffffffffffffffffffff\n      and\n      0xb166a09f\n        /* \"contracts/16_DatacapGatewayAxelar.sol\":1956:1966  msg.sender */\n      caller\n        /* \"contracts/16_DatacapGatewayAxelar.sol\":1939:1967  factory.isEscrow(msg.sender) */\n      mload(0x40)\n      dup3\n      0xffffffff\n      and\n      0xe0\n      shl\n      dup2\n      mstore\n      0x04\n      add\n      tag_137\n      swap2\n      swap1\n      tag_24\n      jump\t// in\n    tag_137:\n      0x20\n      mload(0x40)\n      dup1\n      dup4\n      sub\n      dup2\n      dup7\n      gas\n      staticcall\n      iszero\n      dup1\n      iszero\n      tag_139\n      jumpi\n      returndatasize\n      0x00\n      dup1\n      returndatacopy\n      revert(0x00, returndatasize)\n    tag_139:\n      pop\n      pop\n      pop\n      pop\n      mload(0x40)\n      returndatasize\n      not(0x1f)\n      0x1f\n      dup3\n      add\n      and\n      dup3\n      add\n      dup1\n      0x40\n      mstore\n      pop\n      dup2\n      add\n      swap1\n      tag_140\n      swap2\n      swap1\n      tag_96\n      jump\t// in\n    tag_140:\n        /* \"contracts/16_DatacapGatewayAxelar.sol\":1934:2032  if (!factory.isEscrow(msg.sender)) {... */\n      tag_141\n      jumpi\n        /* \"contracts/16_DatacapGatewayAxelar.sol\":2010:2020  msg.sender */\n      caller\n        /* \"contracts/16_DatacapGatewayAxelar.sol\":1990:2021  UnauthorizedAccount(msg.sender) */\n      mload(0x40)\n      0x32b2baa300000000000000000000000000000000000000000000000000000000\n      dup2\n      mstore\n      0x04\n      add\n      tag_142\n      swap2\n      swap1\n      tag_24\n      jump\t// in\n    tag_142:\n      mload(0x40)\n      dup1\n      swap2\n      sub\n      swap1\n      revert\n        /* \"contracts/16_DatacapGatewayAxelar.sol\":1934:2032  if (!factory.isEscrow(msg.sender)) {... */\n    tag_141:\n        /* \"contracts/16_DatacapGatewayAxelar.sol\":2274:2298  IMockAllocator allocator */\n      0x00\n        /* \"contracts/16_DatacapGatewayAxelar.sol\":2316:2329  mockAllocator */\n      0x01\n      0x00\n      swap1\n      sload\n      swap1\n      0x0100\n      exp\n      swap1\n      div\n      0xffffffffffffffffffffffffffffffffffffffff\n      and\n        /* \"contracts/16_DatacapGatewayAxelar.sol\":2274:2330  IMockAllocator allocator = IMockAllocator(mockAllocator) */\n      swap1\n      pop\n        /* \"contracts/16_DatacapGatewayAxelar.sol\":2340:2349  allocator */\n      dup1\n        /* \"contracts/16_DatacapGatewayAxelar.sol\":2340:2367  allocator.addVerifiedClient */\n      0xffffffffffffffffffffffffffffffffffffffff\n      and\n      0x930fc006\n        /* \"contracts/16_DatacapGatewayAxelar.sol\":2368:2389  clientFilecoinAddress */\n      dup7\n      dup7\n        /* \"contracts/16_DatacapGatewayAxelar.sol\":2391:2397  amount */\n      dup7\n        /* \"contracts/16_DatacapGatewayAxelar.sol\":2340:2398  allocator.addVerifiedClient(clientFilecoinAddress, amount) */\n      mload(0x40)\n      dup5\n      0xffffffff\n      and\n      0xe0\n      shl\n      dup2\n      mstore\n      0x04\n      add\n      tag_144\n      swap4\n      swap3\n      swap2\n      swap1\n      tag_145\n      jump\t// in\n    tag_144:\n      0x00\n      mload(0x40)\n      dup1\n      dup4\n      sub\n      dup2\n      0x00\n      dup8\n      dup1\n      extcodesize\n      iszero\n      dup1\n      iszero\n      tag_146\n      jumpi\n      0x00\n      dup1\n      revert\n    tag_146:\n      pop\n      gas\n      call\n      iszero\n      dup1\n      iszero\n      tag_148\n      jumpi\n      returndatasize\n      0x00\n      dup1\n      returndatacopy\n      revert(0x00, returndatasize)\n    tag_148:\n      pop\n      pop\n      pop\n      pop\n        /* \"contracts/16_DatacapGatewayAxelar.sol\":2264:2405  {... */\n      pop\n        /* \"contracts/16_DatacapGatewayAxelar.sol\":1682:2049  {... */\n      pop\n        /* \"contracts/16_DatacapGatewayAxelar.sol\":2159:2405  function grantDatacap(bytes calldata clientFilecoinAddress, uint256 amount) external onlyEscrowContracts {... */\n      pop\n      pop\n      pop\n      jump\t// out\n        /* \"@openzeppelin/contracts/access/Ownable.sol\":1796:1958  function _checkOwner() internal view virtual {... */\n    tag_86:\n        /* \"@openzeppelin/contracts/access/Ownable.sol\":1866:1878  _msgSender() */\n      tag_150\n        /* \"@openzeppelin/contracts/access/Ownable.sol\":1866:1876  _msgSender */\n      tag_151\n        /* \"@openzeppelin/contracts/access/Ownable.sol\":1866:1878  _msgSender() */\n      jump\t// in\n    tag_150:\n        /* \"@openzeppelin/contracts/access/Ownable.sol\":1855:1878  owner() != _msgSender() */\n      0xffffffffffffffffffffffffffffffffffffffff\n      and\n        /* \"@openzeppelin/contracts/access/Ownable.sol\":1855:1862  owner() */\n      tag_152\n        /* \"@openzeppelin/contracts/access/Ownable.sol\":1855:1860  owner */\n      tag_49\n        /* \"@openzeppelin/contracts/access/Ownable.sol\":1855:1862  owner() */\n      jump\t// in\n    tag_152:\n        /* \"@openzeppelin/contracts/access/Ownable.sol\":1855:1878  owner() != _msgSender() */\n      0xffffffffffffffffffffffffffffffffffffffff\n      and\n      eq\n        /* \"@openzeppelin/contracts/access/Ownable.sol\":1851:1952  if (owner() != _msgSender()) {... */\n      tag_153\n      jumpi\n        /* \"@openzeppelin/contracts/access/Ownable.sol\":1928:1940  _msgSender() */\n      tag_154\n        /* \"@openzeppelin/contracts/access/Ownable.sol\":1928:1938  _msgSender */\n      tag_151\n        /* \"@openzeppelin/contracts/access/Ownable.sol\":1928:1940  _msgSender() */\n      jump\t// in\n    tag_154:\n        /* \"@openzeppelin/contracts/access/Ownable.sol\":1901:1941  OwnableUnauthorizedAccount(_msgSender()) */\n      mload(0x40)\n      0x118cdaa700000000000000000000000000000000000000000000000000000000\n      dup2\n      mstore\n      0x04\n      add\n      tag_155\n      swap2\n      swap1\n      tag_24\n      jump\t// in\n    tag_155:\n      mload(0x40)\n      dup1\n      swap2\n      sub\n      swap1\n      revert\n        /* \"@openzeppelin/contracts/access/Ownable.sol\":1851:1952  if (owner() != _msgSender()) {... */\n    tag_153:\n        /* \"@openzeppelin/contracts/access/Ownable.sol\":1796:1958  function _checkOwner() internal view virtual {... */\n      jump\t// out\n        /* \"@openzeppelin/contracts/access/Ownable.sol\":2912:3099  function _transferOwnership(address newOwner) internal virtual {... */\n    tag_89:\n        /* \"@openzeppelin/contracts/access/Ownable.sol\":2985:3001  address oldOwner */\n      0x00\n        /* \"@openzeppelin/contracts/access/Ownable.sol\":3004:3010  _owner */\n      dup1\n      0x00\n      swap1\n      sload\n      swap1\n      0x0100\n      exp\n      swap1\n      div\n      0xffffffffffffffffffffffffffffffffffffffff\n      and\n        /* \"@openzeppelin/contracts/access/Ownable.sol\":2985:3010  address oldOwner = _owner */\n      swap1\n      pop\n        /* \"@openzeppelin/contracts/access/Ownable.sol\":3029:3037  newOwner */\n      dup2\n        /* \"@openzeppelin/contracts/access/Ownable.sol\":3020:3026  _owner */\n      0x00\n      dup1\n        /* \"@openzeppelin/contracts/access/Ownable.sol\":3020:3037  _owner = newOwner */\n      0x0100\n      exp\n      dup2\n      sload\n      dup2\n      0xffffffffffffffffffffffffffffffffffffffff\n      mul\n      not\n      and\n      swap1\n      dup4\n      0xffffffffffffffffffffffffffffffffffffffff\n      and\n      mul\n      or\n      swap1\n      sstore\n      pop\n        /* \"@openzeppelin/contracts/access/Ownable.sol\":3083:3091  newOwner */\n      dup2\n        /* \"@openzeppelin/contracts/access/Ownable.sol\":3052:3092  OwnershipTransferred(oldOwner, newOwner) */\n      0xffffffffffffffffffffffffffffffffffffffff\n      and\n        /* \"@openzeppelin/contracts/access/Ownable.sol\":3073:3081  oldOwner */\n      dup2\n        /* \"@openzeppelin/contracts/access/Ownable.sol\":3052:3092  OwnershipTransferred(oldOwner, newOwner) */\n      0xffffffffffffffffffffffffffffffffffffffff\n      and\n      0x8be0079c531659141344cd1fd0a4f28419497f9722a3daafe3b4186f6b6457e0\n      mload(0x40)\n      mload(0x40)\n      dup1\n      swap2\n      sub\n      swap1\n      log3\n        /* \"@openzeppelin/contracts/access/Ownable.sol\":2975:3099  {... */\n      pop\n        /* \"@openzeppelin/contracts/access/Ownable.sol\":2912:3099  function _transferOwnership(address newOwner) internal virtual {... */\n      pop\n      jump\t// out\n        /* \"@openzeppelin/contracts/utils/Context.sol\":656:752  function _msgSender() internal view virtual returns (address) {... */\n    tag_151:\n        /* \"@openzeppelin/contracts/utils/Context.sol\":709:716  address */\n      0x00\n        /* \"@openzeppelin/contracts/utils/Context.sol\":735:745  msg.sender */\n      caller\n        /* \"@openzeppelin/contracts/utils/Context.sol\":728:745  return msg.sender */\n      swap1\n      pop\n        /* \"@openzeppelin/contracts/utils/Context.sol\":656:752  function _msgSender() internal view virtual returns (address) {... */\n      swap1\n      jump\t// out\n        /* \"#utility.yul\":7:133   */\n    tag_158:\n        /* \"#utility.yul\":44:51   */\n      0x00\n        /* \"#utility.yul\":84:126   */\n      0xffffffffffffffffffffffffffffffffffffffff\n        /* \"#utility.yul\":77:82   */\n      dup3\n        /* \"#utility.yul\":73:127   */\n      and\n        /* \"#utility.yul\":62:127   */\n      swap1\n      pop\n        /* \"#utility.yul\":7:133   */\n      swap2\n      swap1\n      pop\n      jump\t// out\n        /* \"#utility.yul\":139:235   */\n    tag_159:\n        /* \"#utility.yul\":176:183   */\n      0x00\n        /* \"#utility.yul\":205:229   */\n      tag_199\n        /* \"#utility.yul\":223:228   */\n      dup3\n        /* \"#utility.yul\":205:229   */\n      tag_158\n      jump\t// in\n    tag_199:\n        /* \"#utility.yul\":194:229   */\n      swap1\n      pop\n        /* \"#utility.yul\":139:235   */\n      swap2\n      swap1\n      pop\n      jump\t// out\n        /* \"#utility.yul\":241:359   */\n    tag_160:\n        /* \"#utility.yul\":328:352   */\n      tag_201\n        /* \"#utility.yul\":346:351   */\n      dup2\n        /* \"#utility.yul\":328:352   */\n      tag_159\n      jump\t// in\n    tag_201:\n        /* \"#utility.yul\":323:326   */\n      dup3\n        /* \"#utility.yul\":316:353   */\n      mstore\n        /* \"#utility.yul\":241:359   */\n      pop\n      pop\n      jump\t// out\n        /* \"#utility.yul\":365:587   */\n    tag_24:\n        /* \"#utility.yul\":458:462   */\n      0x00\n        /* \"#utility.yul\":496:498   */\n      0x20\n        /* \"#utility.yul\":485:494   */\n      dup3\n        /* \"#utility.yul\":481:499   */\n      add\n        /* \"#utility.yul\":473:499   */\n      swap1\n      pop\n        /* \"#utility.yul\":509:580   */\n      tag_203\n        /* \"#utility.yul\":577:578   */\n      0x00\n        /* \"#utility.yul\":566:575   */\n      dup4\n        /* \"#utility.yul\":562:579   */\n      add\n        /* \"#utility.yul\":553:559   */\n      dup5\n        /* \"#utility.yul\":509:580   */\n      tag_160\n      jump\t// in\n    tag_203:\n        /* \"#utility.yul\":365:587   */\n      swap3\n      swap2\n      pop\n      pop\n      jump\t// out\n        /* \"#utility.yul\":593:692   */\n    tag_161:\n        /* \"#utility.yul\":645:651   */\n      0x00\n        /* \"#utility.yul\":679:684   */\n      dup2\n        /* \"#utility.yul\":673:685   */\n      mload\n        /* \"#utility.yul\":663:685   */\n      swap1\n      pop\n        /* \"#utility.yul\":593:692   */\n      swap2\n      swap1\n      pop\n      jump\t// out\n        /* \"#utility.yul\":698:867   */\n    tag_162:\n        /* \"#utility.yul\":782:793   */\n      0x00\n        /* \"#utility.yul\":816:822   */\n      dup3\n        /* \"#utility.yul\":811:814   */\n      dup3\n        /* \"#utility.yul\":804:823   */\n      mstore\n        /* \"#utility.yul\":856:860   */\n      0x20\n        /* \"#utility.yul\":851:854   */\n      dup3\n        /* \"#utility.yul\":847:861   */\n      add\n        /* \"#utility.yul\":832:861   */\n      swap1\n      pop\n        /* \"#utility.yul\":698:867   */\n      swap3\n      swap2\n      pop\n      pop\n      jump\t// out\n        /* \"#utility.yul\":873:1012   */\n    tag_163:\n        /* \"#utility.yul\":962:968   */\n      dup3\n        /* \"#utility.yul\":957:960   */\n      dup2\n        /* \"#utility.yul\":952:955   */\n      dup4\n        /* \"#utility.yul\":946:969   */\n      mcopy\n        /* \"#utility.yul\":1003:1004   */\n      0x00\n        /* \"#utility.yul\":994:1000   */\n      dup4\n        /* \"#utility.yul\":989:992   */\n      dup4\n        /* \"#utility.yul\":985:1001   */\n      add\n        /* \"#utility.yul\":978:1005   */\n      mstore\n        /* \"#utility.yul\":873:1012   */\n      pop\n      pop\n      pop\n      jump\t// out\n        /* \"#utility.yul\":1018:1120   */\n    tag_164:\n        /* \"#utility.yul\":1059:1065   */\n      0x00\n        /* \"#utility.yul\":1110:1112   */\n      0x1f\n        /* \"#utility.yul\":1106:1113   */\n      not\n        /* \"#utility.yul\":1101:1103   */\n      0x1f\n        /* \"#utility.yul\":1094:1099   */\n      dup4\n        /* \"#utility.yul\":1090:1104   */\n      add\n        /* \"#utility.yul\":1086:1114   */\n      and\n        /* \"#utility.yul\":1076:1114   */\n      swap1\n      pop\n        /* \"#utility.yul\":1018:1120   */\n      swap2\n      swap1\n      pop\n      jump\t// out\n        /* \"#utility.yul\":1126:1503   */\n    tag_165:\n        /* \"#utility.yul\":1214:1217   */\n      0x00\n        /* \"#utility.yul\":1242:1281   */\n      tag_209\n        /* \"#utility.yul\":1275:1280   */\n      dup3\n        /* \"#utility.yul\":1242:1281   */\n      tag_161\n      jump\t// in\n    tag_209:\n        /* \"#utility.yul\":1297:1368   */\n      tag_210\n        /* \"#utility.yul\":1361:1367   */\n      dup2\n        /* \"#utility.yul\":1356:1359   */\n      dup6\n        /* \"#utility.yul\":1297:1368   */\n      tag_162\n      jump\t// in\n    tag_210:\n        /* \"#utility.yul\":1290:1368   */\n      swap4\n      pop\n        /* \"#utility.yul\":1377:1442   */\n      tag_211\n        /* \"#utility.yul\":1435:1441   */\n      dup2\n        /* \"#utility.yul\":1430:1433   */\n      dup6\n        /* \"#utility.yul\":1423:1427   */\n      0x20\n        /* \"#utility.yul\":1416:1421   */\n      dup7\n        /* \"#utility.yul\":1412:1428   */\n      add\n        /* \"#utility.yul\":1377:1442   */\n      tag_163\n      jump\t// in\n    tag_211:\n        /* \"#utility.yul\":1467:1496   */\n      tag_212\n        /* \"#utility.yul\":1489:1495   */\n      dup2\n        /* \"#utility.yul\":1467:1496   */\n      tag_164\n      jump\t// in\n    tag_212:\n        /* \"#utility.yul\":1462:1465   */\n      dup5\n        /* \"#utility.yul\":1458:1497   */\n      add\n        /* \"#utility.yul\":1451:1497   */\n      swap2\n      pop\n        /* \"#utility.yul\":1218:1503   */\n      pop\n        /* \"#utility.yul\":1126:1503   */\n      swap3\n      swap2\n      pop\n      pop\n      jump\t// out\n        /* \"#utility.yul\":1509:1822   */\n    tag_29:\n        /* \"#utility.yul\":1622:1626   */\n      0x00\n        /* \"#utility.yul\":1660:1662   */\n      0x20\n        /* \"#utility.yul\":1649:1658   */\n      dup3\n        /* \"#utility.yul\":1645:1663   */\n      add\n        /* \"#utility.yul\":1637:1663   */\n      swap1\n      pop\n        /* \"#utility.yul\":1709:1718   */\n      dup2\n        /* \"#utility.yul\":1703:1707   */\n      dup2\n        /* \"#utility.yul\":1699:1719   */\n      sub\n        /* \"#utility.yul\":1695:1696   */\n      0x00\n        /* \"#utility.yul\":1684:1693   */\n      dup4\n        /* \"#utility.yul\":1680:1697   */\n      add\n        /* \"#utility.yul\":1673:1720   */\n      mstore\n        /* \"#utility.yul\":1737:1815   */\n      tag_214\n        /* \"#utility.yul\":1810:1814   */\n      dup2\n        /* \"#utility.yul\":1801:1807   */\n      dup5\n        /* \"#utility.yul\":1737:1815   */\n      tag_165\n      jump\t// in\n    tag_214:\n        /* \"#utility.yul\":1729:1815   */\n      swap1\n      pop\n        /* \"#utility.yul\":1509:1822   */\n      swap3\n      swap2\n      pop\n      pop\n      jump\t// out\n        /* \"#utility.yul\":1828:1888   */\n    tag_166:\n        /* \"#utility.yul\":1856:1859   */\n      0x00\n        /* \"#utility.yul\":1877:1882   */\n      dup2\n        /* \"#utility.yul\":1870:1882   */\n      swap1\n      pop\n        /* \"#utility.yul\":1828:1888   */\n      swap2\n      swap1\n      pop\n      jump\t// out\n        /* \"#utility.yul\":1894:2036   */\n    tag_167:\n        /* \"#utility.yul\":1944:1953   */\n      0x00\n        /* \"#utility.yul\":1977:2030   */\n      tag_217\n        /* \"#utility.yul\":1995:2029   */\n      tag_218\n        /* \"#utility.yul\":2004:2028   */\n      tag_219\n        /* \"#utility.yul\":2022:2027   */\n      dup5\n        /* \"#utility.yul\":2004:2028   */\n      tag_158\n      jump\t// in\n    tag_219:\n        /* \"#utility.yul\":1995:2029   */\n      tag_166\n      jump\t// in\n    tag_218:\n        /* \"#utility.yul\":1977:2030   */\n      tag_158\n      jump\t// in\n    tag_217:\n        /* \"#utility.yul\":1964:2030   */\n      swap1\n      pop\n        /* \"#utility.yul\":1894:2036   */\n      swap2\n      swap1\n      pop\n      jump\t// out\n        /* \"#utility.yul\":2042:2168   */\n    tag_168:\n        /* \"#utility.yul\":2092:2101   */\n      0x00\n        /* \"#utility.yul\":2125:2162   */\n      tag_221\n        /* \"#utility.yul\":2156:2161   */\n      dup3\n        /* \"#utility.yul\":2125:2162   */\n      tag_167\n      jump\t// in\n    tag_221:\n        /* \"#utility.yul\":2112:2162   */\n      swap1\n      pop\n        /* \"#utility.yul\":2042:2168   */\n      swap2\n      swap1\n      pop\n      jump\t// out\n        /* \"#utility.yul\":2174:2325   */\n    tag_169:\n        /* \"#utility.yul\":2249:2258   */\n      0x00\n        /* \"#utility.yul\":2282:2319   */\n      tag_223\n        /* \"#utility.yul\":2313:2318   */\n      dup3\n        /* \"#utility.yul\":2282:2319   */\n      tag_168\n      jump\t// in\n    tag_223:\n        /* \"#utility.yul\":2269:2319   */\n      swap1\n      pop\n        /* \"#utility.yul\":2174:2325   */\n      swap2\n      swap1\n      pop\n      jump\t// out\n        /* \"#utility.yul\":2331:2512   */\n    tag_170:\n        /* \"#utility.yul\":2443:2505   */\n      tag_225\n        /* \"#utility.yul\":2499:2504   */\n      dup2\n        /* \"#utility.yul\":2443:2505   */\n      tag_169\n      jump\t// in\n    tag_225:\n        /* \"#utility.yul\":2438:2441   */\n      dup3\n        /* \"#utility.yul\":2431:2506   */\n      mstore\n        /* \"#utility.yul\":2331:2512   */\n      pop\n      pop\n      jump\t// out\n        /* \"#utility.yul\":2518:2790   */\n    tag_38:\n        /* \"#utility.yul\":2636:2640   */\n      0x00\n        /* \"#utility.yul\":2674:2676   */\n      0x20\n        /* \"#utility.yul\":2663:2672   */\n      dup3\n        /* \"#utility.yul\":2659:2677   */\n      add\n        /* \"#utility.yul\":2651:2677   */\n      swap1\n      pop\n        /* \"#utility.yul\":2687:2783   */\n      tag_227\n        /* \"#utility.yul\":2780:2781   */\n      0x00\n        /* \"#utility.yul\":2769:2778   */\n      dup4\n        /* \"#utility.yul\":2765:2782   */\n      add\n        /* \"#utility.yul\":2756:2762   */\n      dup5\n        /* \"#utility.yul\":2687:2783   */\n      tag_170\n      jump\t// in\n    tag_227:\n        /* \"#utility.yul\":2518:2790   */\n      swap3\n      swap2\n      pop\n      pop\n      jump\t// out\n        /* \"#utility.yul\":2796:2886   */\n    tag_171:\n        /* \"#utility.yul\":2830:2837   */\n      0x00\n        /* \"#utility.yul\":2873:2878   */\n      dup2\n        /* \"#utility.yul\":2866:2879   */\n      iszero\n        /* \"#utility.yul\":2859:2880   */\n      iszero\n        /* \"#utility.yul\":2848:2880   */\n      swap1\n      pop\n        /* \"#utility.yul\":2796:2886   */\n      swap2\n      swap1\n      pop\n      jump\t// out\n        /* \"#utility.yul\":2892:3001   */\n    tag_172:\n        /* \"#utility.yul\":2973:2994   */\n      tag_230\n        /* \"#utility.yul\":2988:2993   */\n      dup2\n        /* \"#utility.yul\":2973:2994   */\n      tag_171\n      jump\t// in\n    tag_230:\n        /* \"#utility.yul\":2968:2971   */\n      dup3\n        /* \"#utility.yul\":2961:2995   */\n      mstore\n        /* \"#utility.yul\":2892:3001   */\n      pop\n      pop\n      jump\t// out\n        /* \"#utility.yul\":3007:3217   */\n    tag_46:\n        /* \"#utility.yul\":3094:3098   */\n      0x00\n        /* \"#utility.yul\":3132:3134   */\n      0x20\n        /* \"#utility.yul\":3121:3130   */\n      dup3\n        /* \"#utility.yul\":3117:3135   */\n      add\n        /* \"#utility.yul\":3109:3135   */\n      swap1\n      pop\n        /* \"#utility.yul\":3145:3210   */\n      tag_232\n        /* \"#utility.yul\":3207:3208   */\n      0x00\n        /* \"#utility.yul\":3196:3205   */\n      dup4\n        /* \"#utility.yul\":3192:3209   */\n      add\n        /* \"#utility.yul\":3183:3189   */\n      dup5\n        /* \"#utility.yul\":3145:3210   */\n      tag_172\n      jump\t// in\n    tag_232:\n        /* \"#utility.yul\":3007:3217   */\n      swap3\n      swap2\n      pop\n      pop\n      jump\t// out\n        /* \"#utility.yul\":3304:3421   */\n    tag_174:\n        /* \"#utility.yul\":3413:3414   */\n      0x00\n        /* \"#utility.yul\":3410:3411   */\n      dup1\n        /* \"#utility.yul\":3403:3415   */\n      revert\n        /* \"#utility.yul\":3427:3544   */\n    tag_175:\n        /* \"#utility.yul\":3536:3537   */\n      0x00\n        /* \"#utility.yul\":3533:3534   */\n      dup1\n        /* \"#utility.yul\":3526:3538   */\n      revert\n        /* \"#utility.yul\":3550:3672   */\n    tag_176:\n        /* \"#utility.yul\":3623:3647   */\n      tag_237\n        /* \"#utility.yul\":3641:3646   */\n      dup2\n        /* \"#utility.yul\":3623:3647   */\n      tag_159\n      jump\t// in\n    tag_237:\n        /* \"#utility.yul\":3616:3621   */\n      dup2\n        /* \"#utility.yul\":3613:3648   */\n      eq\n        /* \"#utility.yul\":3603:3666   */\n      tag_238\n      jumpi\n        /* \"#utility.yul\":3662:3663   */\n      0x00\n        /* \"#utility.yul\":3659:3660   */\n      dup1\n        /* \"#utility.yul\":3652:3664   */\n      revert\n        /* \"#utility.yul\":3603:3666   */\n    tag_238:\n        /* \"#utility.yul\":3550:3672   */\n      pop\n      jump\t// out\n        /* \"#utility.yul\":3678:3817   */\n    tag_177:\n        /* \"#utility.yul\":3724:3729   */\n      0x00\n        /* \"#utility.yul\":3762:3768   */\n      dup2\n        /* \"#utility.yul\":3749:3769   */\n      calldataload\n        /* \"#utility.yul\":3740:3769   */\n      swap1\n      pop\n        /* \"#utility.yul\":3778:3811   */\n      tag_240\n        /* \"#utility.yul\":3805:3810   */\n      dup2\n        /* \"#utility.yul\":3778:3811   */\n      tag_176\n      jump\t// in\n    tag_240:\n        /* \"#utility.yul\":3678:3817   */\n      swap3\n      swap2\n      pop\n      pop\n      jump\t// out\n        /* \"#utility.yul\":3823:4152   */\n    tag_54:\n        /* \"#utility.yul\":3882:3888   */\n      0x00\n        /* \"#utility.yul\":3931:3933   */\n      0x20\n        /* \"#utility.yul\":3919:3928   */\n      dup3\n        /* \"#utility.yul\":3910:3917   */\n      dup5\n        /* \"#utility.yul\":3906:3929   */\n      sub\n        /* \"#utility.yul\":3902:3934   */\n      slt\n        /* \"#utility.yul\":3899:4018   */\n      iszero\n      tag_242\n      jumpi\n        /* \"#utility.yul\":3937:4016   */\n      tag_243\n      tag_174\n      jump\t// in\n    tag_243:\n        /* \"#utility.yul\":3899:4018   */\n    tag_242:\n        /* \"#utility.yul\":4057:4058   */\n      0x00\n        /* \"#utility.yul\":4082:4135   */\n      tag_244\n        /* \"#utility.yul\":4127:4134   */\n      dup5\n        /* \"#utility.yul\":4118:4124   */\n      dup3\n        /* \"#utility.yul\":4107:4116   */\n      dup6\n        /* \"#utility.yul\":4103:4125   */\n      add\n        /* \"#utility.yul\":4082:4135   */\n      tag_177\n      jump\t// in\n    tag_244:\n        /* \"#utility.yul\":4072:4135   */\n      swap2\n      pop\n        /* \"#utility.yul\":4028:4145   */\n      pop\n        /* \"#utility.yul\":3823:4152   */\n      swap3\n      swap2\n      pop\n      pop\n      jump\t// out\n        /* \"#utility.yul\":4158:4235   */\n    tag_178:\n        /* \"#utility.yul\":4195:4202   */\n      0x00\n        /* \"#utility.yul\":4224:4229   */\n      dup2\n        /* \"#utility.yul\":4213:4229   */\n      swap1\n      pop\n        /* \"#utility.yul\":4158:4235   */\n      swap2\n      swap1\n      pop\n      jump\t// out\n        /* \"#utility.yul\":4241:4363   */\n    tag_179:\n        /* \"#utility.yul\":4314:4338   */\n      tag_247\n        /* \"#utility.yul\":4332:4337   */\n      dup2\n        /* \"#utility.yul\":4314:4338   */\n      tag_178\n      jump\t// in\n    tag_247:\n        /* \"#utility.yul\":4307:4312   */\n      dup2\n        /* \"#utility.yul\":4304:4339   */\n      eq\n        /* \"#utility.yul\":4294:4357   */\n      tag_248\n      jumpi\n        /* \"#utility.yul\":4353:4354   */\n      0x00\n        /* \"#utility.yul\":4350:4351   */\n      dup1\n        /* \"#utility.yul\":4343:4355   */\n      revert\n        /* \"#utility.yul\":4294:4357   */\n    tag_248:\n        /* \"#utility.yul\":4241:4363   */\n      pop\n      jump\t// out\n        /* \"#utility.yul\":4369:4508   */\n    tag_180:\n        /* \"#utility.yul\":4415:4420   */\n      0x00\n        /* \"#utility.yul\":4453:4459   */\n      dup2\n        /* \"#utility.yul\":4440:4460   */\n      calldataload\n        /* \"#utility.yul\":4431:4460   */\n      swap1\n      pop\n        /* \"#utility.yul\":4469:4502   */\n      tag_250\n        /* \"#utility.yul\":4496:4501   */\n      dup2\n        /* \"#utility.yul\":4469:4502   */\n      tag_179\n      jump\t// in\n    tag_250:\n        /* \"#utility.yul\":4369:4508   */\n      swap3\n      swap2\n      pop\n      pop\n      jump\t// out\n        /* \"#utility.yul\":4514:4988   */\n    tag_67:\n        /* \"#utility.yul\":4582:4588   */\n      0x00\n        /* \"#utility.yul\":4590:4596   */\n      dup1\n        /* \"#utility.yul\":4639:4641   */\n      0x40\n        /* \"#utility.yul\":4627:4636   */\n      dup4\n        /* \"#utility.yul\":4618:4625   */\n      dup6\n        /* \"#utility.yul\":4614:4637   */\n      sub\n        /* \"#utility.yul\":4610:4642   */\n      slt\n        /* \"#utility.yul\":4607:4726   */\n      iszero\n      tag_252\n      jumpi\n        /* \"#utility.yul\":4645:4724   */\n      tag_253\n      tag_174\n      jump\t// in\n    tag_253:\n        /* \"#utility.yul\":4607:4726   */\n    tag_252:\n        /* \"#utility.yul\":4765:4766   */\n      0x00\n        /* \"#utility.yul\":4790:4843   */\n      tag_254\n        /* \"#utility.yul\":4835:4842   */\n      dup6\n        /* \"#utility.yul\":4826:4832   */\n      dup3\n        /* \"#utility.yul\":4815:4824   */\n      dup7\n        /* \"#utility.yul\":4811:4833   */\n      add\n        /* \"#utility.yul\":4790:4843   */\n      tag_177\n      jump\t// in\n    tag_254:\n        /* \"#utility.yul\":4780:4843   */\n      swap3\n      pop\n        /* \"#utility.yul\":4736:4853   */\n      pop\n        /* \"#utility.yul\":4892:4894   */\n      0x20\n        /* \"#utility.yul\":4918:4971   */\n      tag_255\n        /* \"#utility.yul\":4963:4970   */\n      dup6\n        /* \"#utility.yul\":4954:4960   */\n      dup3\n        /* \"#utility.yul\":4943:4952   */\n      dup7\n        /* \"#utility.yul\":4939:4961   */\n      add\n        /* \"#utility.yul\":4918:4971   */\n      tag_180\n      jump\t// in\n    tag_255:\n        /* \"#utility.yul\":4908:4971   */\n      swap2\n      pop\n        /* \"#utility.yul\":4863:4981   */\n      pop\n        /* \"#utility.yul\":4514:4988   */\n      swap3\n      pop\n      swap3\n      swap1\n      pop\n      jump\t// out\n        /* \"#utility.yul\":4994:5111   */\n    tag_181:\n        /* \"#utility.yul\":5103:5104   */\n      0x00\n        /* \"#utility.yul\":5100:5101   */\n      dup1\n        /* \"#utility.yul\":5093:5105   */\n      revert\n        /* \"#utility.yul\":5117:5234   */\n    tag_182:\n        /* \"#utility.yul\":5226:5227   */\n      0x00\n        /* \"#utility.yul\":5223:5224   */\n      dup1\n        /* \"#utility.yul\":5216:5228   */\n      revert\n        /* \"#utility.yul\":5240:5357   */\n    tag_183:\n        /* \"#utility.yul\":5349:5350   */\n      0x00\n        /* \"#utility.yul\":5346:5347   */\n      dup1\n        /* \"#utility.yul\":5339:5351   */\n      revert\n        /* \"#utility.yul\":5376:5928   */\n    tag_184:\n        /* \"#utility.yul\":5433:5441   */\n      0x00\n        /* \"#utility.yul\":5443:5449   */\n      dup1\n        /* \"#utility.yul\":5493:5496   */\n      dup4\n        /* \"#utility.yul\":5486:5490   */\n      0x1f\n        /* \"#utility.yul\":5478:5484   */\n      dup5\n        /* \"#utility.yul\":5474:5491   */\n      add\n        /* \"#utility.yul\":5470:5497   */\n      slt\n        /* \"#utility.yul\":5460:5582   */\n      tag_260\n      jumpi\n        /* \"#utility.yul\":5501:5580   */\n      tag_261\n      tag_181\n      jump\t// in\n    tag_261:\n        /* \"#utility.yul\":5460:5582   */\n    tag_260:\n        /* \"#utility.yul\":5614:5620   */\n      dup3\n        /* \"#utility.yul\":5601:5621   */\n      calldataload\n        /* \"#utility.yul\":5591:5621   */\n      swap1\n      pop\n        /* \"#utility.yul\":5644:5662   */\n      0xffffffffffffffff\n        /* \"#utility.yul\":5636:5642   */\n      dup2\n        /* \"#utility.yul\":5633:5663   */\n      gt\n        /* \"#utility.yul\":5630:5747   */\n      iszero\n      tag_262\n      jumpi\n        /* \"#utility.yul\":5666:5745   */\n      tag_263\n      tag_182\n      jump\t// in\n    tag_263:\n        /* \"#utility.yul\":5630:5747   */\n    tag_262:\n        /* \"#utility.yul\":5780:5784   */\n      0x20\n        /* \"#utility.yul\":5772:5778   */\n      dup4\n        /* \"#utility.yul\":5768:5785   */\n      add\n        /* \"#utility.yul\":5756:5785   */\n      swap2\n      pop\n        /* \"#utility.yul\":5834:5837   */\n      dup4\n        /* \"#utility.yul\":5826:5830   */\n      0x01\n        /* \"#utility.yul\":5818:5824   */\n      dup3\n        /* \"#utility.yul\":5814:5831   */\n      mul\n        /* \"#utility.yul\":5804:5812   */\n      dup4\n        /* \"#utility.yul\":5800:5832   */\n      add\n        /* \"#utility.yul\":5797:5838   */\n      gt\n        /* \"#utility.yul\":5794:5922   */\n      iszero\n      tag_264\n      jumpi\n        /* \"#utility.yul\":5841:5920   */\n      tag_265\n      tag_183\n      jump\t// in\n    tag_265:\n        /* \"#utility.yul\":5794:5922   */\n    tag_264:\n        /* \"#utility.yul\":5376:5928   */\n      swap3\n      pop\n      swap3\n      swap1\n      pop\n      jump\t// out\n        /* \"#utility.yul\":5934:6606   */\n    tag_76:\n        /* \"#utility.yul\":6013:6019   */\n      0x00\n        /* \"#utility.yul\":6021:6027   */\n      dup1\n        /* \"#utility.yul\":6029:6035   */\n      0x00\n        /* \"#utility.yul\":6078:6080   */\n      0x40\n        /* \"#utility.yul\":6066:6075   */\n      dup5\n        /* \"#utility.yul\":6057:6064   */\n      dup7\n        /* \"#utility.yul\":6053:6076   */\n      sub\n        /* \"#utility.yul\":6049:6081   */\n      slt\n        /* \"#utility.yul\":6046:6165   */\n      iszero\n      tag_267\n      jumpi\n        /* \"#utility.yul\":6084:6163   */\n      tag_268\n      tag_174\n      jump\t// in\n    tag_268:\n        /* \"#utility.yul\":6046:6165   */\n    tag_267:\n        /* \"#utility.yul\":6232:6233   */\n      0x00\n        /* \"#utility.yul\":6221:6230   */\n      dup5\n        /* \"#utility.yul\":6217:6234   */\n      add\n        /* \"#utility.yul\":6204:6235   */\n      calldataload\n        /* \"#utility.yul\":6262:6280   */\n      0xffffffffffffffff\n        /* \"#utility.yul\":6254:6260   */\n      dup2\n        /* \"#utility.yul\":6251:6281   */\n      gt\n        /* \"#utility.yul\":6248:6365   */\n      iszero\n      tag_269\n      jumpi\n        /* \"#utility.yul\":6284:6363   */\n      tag_270\n      tag_175\n      jump\t// in\n    tag_270:\n        /* \"#utility.yul\":6248:6365   */\n    tag_269:\n        /* \"#utility.yul\":6397:6461   */\n      tag_271\n        /* \"#utility.yul\":6453:6460   */\n      dup7\n        /* \"#utility.yul\":6444:6450   */\n      dup3\n        /* \"#utility.yul\":6433:6442   */\n      dup8\n        /* \"#utility.yul\":6429:6451   */\n      add\n        /* \"#utility.yul\":6397:6461   */\n      tag_184\n      jump\t// in\n    tag_271:\n        /* \"#utility.yul\":6379:6461   */\n      swap4\n      pop\n      swap4\n      pop\n        /* \"#utility.yul\":6175:6471   */\n      pop\n        /* \"#utility.yul\":6510:6512   */\n      0x20\n        /* \"#utility.yul\":6536:6589   */\n      tag_272\n        /* \"#utility.yul\":6581:6588   */\n      dup7\n        /* \"#utility.yul\":6572:6578   */\n      dup3\n        /* \"#utility.yul\":6561:6570   */\n      dup8\n        /* \"#utility.yul\":6557:6579   */\n      add\n        /* \"#utility.yul\":6536:6589   */\n      tag_180\n      jump\t// in\n    tag_272:\n        /* \"#utility.yul\":6526:6589   */\n      swap2\n      pop\n        /* \"#utility.yul\":6481:6599   */\n      pop\n        /* \"#utility.yul\":5934:6606   */\n      swap3\n      pop\n      swap3\n      pop\n      swap3\n      jump\t// out\n        /* \"#utility.yul\":6612:6792   */\n    tag_185:\n        /* \"#utility.yul\":6660:6737   */\n      0x4e487b7100000000000000000000000000000000000000000000000000000000\n        /* \"#utility.yul\":6657:6658   */\n      0x00\n        /* \"#utility.yul\":6650:6738   */\n      mstore\n        /* \"#utility.yul\":6757:6761   */\n      0x22\n        /* \"#utility.yul\":6754:6755   */\n      0x04\n        /* \"#utility.yul\":6747:6762   */\n      mstore\n        /* \"#utility.yul\":6781:6785   */\n      0x24\n        /* \"#utility.yul\":6778:6779   */\n      0x00\n        /* \"#utility.yul\":6771:6786   */\n      revert\n        /* \"#utility.yul\":6798:7118   */\n    tag_79:\n        /* \"#utility.yul\":6842:6848   */\n      0x00\n        /* \"#utility.yul\":6879:6880   */\n      0x02\n        /* \"#utility.yul\":6873:6877   */\n      dup3\n        /* \"#utility.yul\":6869:6881   */\n      div\n        /* \"#utility.yul\":6859:6881   */\n      swap1\n      pop\n        /* \"#utility.yul\":6926:6927   */\n      0x01\n        /* \"#utility.yul\":6920:6924   */\n      dup3\n        /* \"#utility.yul\":6916:6928   */\n      and\n        /* \"#utility.yul\":6947:6965   */\n      dup1\n        /* \"#utility.yul\":6937:7018   */\n      tag_275\n      jumpi\n        /* \"#utility.yul\":7003:7007   */\n      0x7f\n        /* \"#utility.yul\":6995:7001   */\n      dup3\n        /* \"#utility.yul\":6991:7008   */\n      and\n        /* \"#utility.yul\":6981:7008   */\n      swap2\n      pop\n        /* \"#utility.yul\":6937:7018   */\n    tag_275:\n        /* \"#utility.yul\":7065:7067   */\n      0x20\n        /* \"#utility.yul\":7057:7063   */\n      dup3\n        /* \"#utility.yul\":7054:7068   */\n      lt\n        /* \"#utility.yul\":7034:7052   */\n      dup2\n        /* \"#utility.yul\":7031:7069   */\n      sub\n        /* \"#utility.yul\":7028:7112   */\n      tag_276\n      jumpi\n        /* \"#utility.yul\":7084:7102   */\n      tag_277\n      tag_185\n      jump\t// in\n    tag_277:\n        /* \"#utility.yul\":7028:7112   */\n    tag_276:\n        /* \"#utility.yul\":6849:7118   */\n      pop\n        /* \"#utility.yul\":6798:7118   */\n      swap2\n      swap1\n      pop\n      jump\t// out\n        /* \"#utility.yul\":7124:7240   */\n    tag_186:\n        /* \"#utility.yul\":7194:7215   */\n      tag_279\n        /* \"#utility.yul\":7209:7214   */\n      dup2\n        /* \"#utility.yul\":7194:7215   */\n      tag_171\n      jump\t// in\n    tag_279:\n        /* \"#utility.yul\":7187:7192   */\n      dup2\n        /* \"#utility.yul\":7184:7216   */\n      eq\n        /* \"#utility.yul\":7174:7234   */\n      tag_280\n      jumpi\n        /* \"#utility.yul\":7230:7231   */\n      0x00\n        /* \"#utility.yul\":7227:7228   */\n      dup1\n        /* \"#utility.yul\":7220:7232   */\n      revert\n        /* \"#utility.yul\":7174:7234   */\n    tag_280:\n        /* \"#utility.yul\":7124:7240   */\n      pop\n      jump\t// out\n        /* \"#utility.yul\":7246:7383   */\n    tag_187:\n        /* \"#utility.yul\":7300:7305   */\n      0x00\n        /* \"#utility.yul\":7331:7337   */\n      dup2\n        /* \"#utility.yul\":7325:7338   */\n      mload\n        /* \"#utility.yul\":7316:7338   */\n      swap1\n      pop\n        /* \"#utility.yul\":7347:7377   */\n      tag_282\n        /* \"#utility.yul\":7371:7376   */\n      dup2\n        /* \"#utility.yul\":7347:7377   */\n      tag_186\n      jump\t// in\n    tag_282:\n        /* \"#utility.yul\":7246:7383   */\n      swap3\n      swap2\n      pop\n      pop\n      jump\t// out\n        /* \"#utility.yul\":7389:7734   */\n    tag_96:\n        /* \"#utility.yul\":7456:7462   */\n      0x00\n        /* \"#utility.yul\":7505:7507   */\n      0x20\n        /* \"#utility.yul\":7493:7502   */\n      dup3\n        /* \"#utility.yul\":7484:7491   */\n      dup5\n        /* \"#utility.yul\":7480:7503   */\n      sub\n        /* \"#utility.yul\":7476:7508   */\n      slt\n        /* \"#utility.yul\":7473:7592   */\n      iszero\n      tag_284\n      jumpi\n        /* \"#utility.yul\":7511:7590   */\n      tag_285\n      tag_174\n      jump\t// in\n    tag_285:\n        /* \"#utility.yul\":7473:7592   */\n    tag_284:\n        /* \"#utility.yul\":7631:7632   */\n      0x00\n        /* \"#utility.yul\":7656:7717   */\n      tag_286\n        /* \"#utility.yul\":7709:7716   */\n      dup5\n        /* \"#utility.yul\":7700:7706   */\n      dup3\n        /* \"#utility.yul\":7689:7698   */\n      dup6\n        /* \"#utility.yul\":7685:7707   */\n      add\n        /* \"#utility.yul\":7656:7717   */\n      tag_187\n      jump\t// in\n    tag_286:\n        /* \"#utility.yul\":7646:7717   */\n      swap2\n      pop\n        /* \"#utility.yul\":7602:7727   */\n      pop\n        /* \"#utility.yul\":7389:7734   */\n      swap3\n      swap2\n      pop\n      pop\n      jump\t// out\n        /* \"#utility.yul\":7740:7881   */\n    tag_188:\n        /* \"#utility.yul\":7789:7793   */\n      0x00\n        /* \"#utility.yul\":7812:7815   */\n      dup2\n        /* \"#utility.yul\":7804:7815   */\n      swap1\n      pop\n        /* \"#utility.yul\":7835:7838   */\n      dup2\n        /* \"#utility.yul\":7832:7833   */\n      0x00\n        /* \"#utility.yul\":7825:7839   */\n      mstore\n        /* \"#utility.yul\":7869:7873   */\n      0x20\n        /* \"#utility.yul\":7866:7867   */\n      0x00\n        /* \"#utility.yul\":7856:7874   */\n      keccak256\n        /* \"#utility.yul\":7848:7874   */\n      swap1\n      pop\n        /* \"#utility.yul\":7740:7881   */\n      swap2\n      swap1\n      pop\n      jump\t// out\n        /* \"#utility.yul\":7911:8742   */\n    tag_189:\n        /* \"#utility.yul\":7996:7999   */\n      0x00\n        /* \"#utility.yul\":8033:8038   */\n      dup2\n        /* \"#utility.yul\":8027:8039   */\n      sload\n        /* \"#utility.yul\":8062:8098   */\n      tag_289\n        /* \"#utility.yul\":8088:8097   */\n      dup2\n        /* \"#utility.yul\":8062:8098   */\n      tag_79\n      jump\t// in\n    tag_289:\n        /* \"#utility.yul\":8114:8185   */\n      tag_290\n        /* \"#utility.yul\":8178:8184   */\n      dup2\n        /* \"#utility.yul\":8173:8176   */\n      dup7\n        /* \"#utility.yul\":8114:8185   */\n      tag_162\n      jump\t// in\n    tag_290:\n        /* \"#utility.yul\":8107:8185   */\n      swap5\n      pop\n        /* \"#utility.yul\":8216:8217   */\n      0x01\n        /* \"#utility.yul\":8205:8214   */\n      dup3\n        /* \"#utility.yul\":8201:8218   */\n      and\n        /* \"#utility.yul\":8232:8233   */\n      0x00\n        /* \"#utility.yul\":8227:8391   */\n      dup2\n      eq\n      tag_292\n      jumpi\n        /* \"#utility.yul\":8405:8406   */\n      0x01\n        /* \"#utility.yul\":8400:8736   */\n      dup2\n      eq\n      tag_293\n      jumpi\n        /* \"#utility.yul\":8194:8736   */\n      jump(tag_291)\n        /* \"#utility.yul\":8227:8391   */\n    tag_292:\n        /* \"#utility.yul\":8311:8315   */\n      0xff\n        /* \"#utility.yul\":8307:8316   */\n      not\n        /* \"#utility.yul\":8296:8305   */\n      dup4\n        /* \"#utility.yul\":8292:8317   */\n      and\n        /* \"#utility.yul\":8287:8290   */\n      dup7\n        /* \"#utility.yul\":8280:8318   */\n      mstore\n        /* \"#utility.yul\":8371:8377   */\n      dup2\n        /* \"#utility.yul\":8364:8378   */\n      iszero\n        /* \"#utility.yul\":8357:8379   */\n      iszero\n        /* \"#utility.yul\":8351:8355   */\n      0x20\n        /* \"#utility.yul\":8347:8380   */\n      mul\n        /* \"#utility.yul\":8342:8345   */\n      dup7\n        /* \"#utility.yul\":8338:8381   */\n      add\n        /* \"#utility.yul\":8331:8381   */\n      swap4\n      pop\n        /* \"#utility.yul\":8227:8391   */\n      jump(tag_291)\n        /* \"#utility.yul\":8400:8736   */\n    tag_293:\n        /* \"#utility.yul\":8467:8505   */\n      tag_294\n        /* \"#utility.yul\":8499:8504   */\n      dup6\n        /* \"#utility.yul\":8467:8505   */\n      tag_188\n      jump\t// in\n    tag_294:\n        /* \"#utility.yul\":8527:8528   */\n      0x00\n        /* \"#utility.yul\":8541:8695   */\n    tag_295:\n        /* \"#utility.yul\":8555:8561   */\n      dup4\n        /* \"#utility.yul\":8552:8553   */\n      dup2\n        /* \"#utility.yul\":8549:8562   */\n      lt\n        /* \"#utility.yul\":8541:8695   */\n      iszero\n      tag_297\n      jumpi\n        /* \"#utility.yul\":8629:8636   */\n      dup2\n        /* \"#utility.yul\":8623:8637   */\n      sload\n        /* \"#utility.yul\":8619:8620   */\n      dup2\n        /* \"#utility.yul\":8614:8617   */\n      dup10\n        /* \"#utility.yul\":8610:8621   */\n      add\n        /* \"#utility.yul\":8603:8638   */\n      mstore\n        /* \"#utility.yul\":8679:8680   */\n      0x01\n        /* \"#utility.yul\":8670:8677   */\n      dup3\n        /* \"#utility.yul\":8666:8681   */\n      add\n        /* \"#utility.yul\":8655:8681   */\n      swap2\n      pop\n        /* \"#utility.yul\":8577:8581   */\n      0x20\n        /* \"#utility.yul\":8574:8575   */\n      dup2\n        /* \"#utility.yul\":8570:8582   */\n      add\n        /* \"#utility.yul\":8565:8582   */\n      swap1\n      pop\n        /* \"#utility.yul\":8541:8695   */\n      jump(tag_295)\n    tag_297:\n        /* \"#utility.yul\":8724:8725   */\n      dup1\n        /* \"#utility.yul\":8719:8722   */\n      dup9\n        /* \"#utility.yul\":8715:8726   */\n      add\n        /* \"#utility.yul\":8708:8726   */\n      swap6\n      pop\n        /* \"#utility.yul\":8407:8736   */\n      pop\n      pop\n        /* \"#utility.yul\":8194:8736   */\n    tag_291:\n      pop\n        /* \"#utility.yul\":8000:8742   */\n      pop\n      pop\n        /* \"#utility.yul\":7911:8742   */\n      swap3\n      swap2\n      pop\n      pop\n      jump\t// out\n        /* \"#utility.yul\":8748:8846   */\n    tag_190:\n        /* \"#utility.yul\":8799:8805   */\n      0x00\n        /* \"#utility.yul\":8833:8838   */\n      dup2\n        /* \"#utility.yul\":8827:8839   */\n      mload\n        /* \"#utility.yul\":8817:8839   */\n      swap1\n      pop\n        /* \"#utility.yul\":8748:8846   */\n      swap2\n      swap1\n      pop\n      jump\t// out\n        /* \"#utility.yul\":8852:9020   */\n    tag_191:\n        /* \"#utility.yul\":8935:8946   */\n      0x00\n        /* \"#utility.yul\":8969:8975   */\n      dup3\n        /* \"#utility.yul\":8964:8967   */\n      dup3\n        /* \"#utility.yul\":8957:8976   */\n      mstore\n        /* \"#utility.yul\":9009:9013   */\n      0x20\n        /* \"#utility.yul\":9004:9007   */\n      dup3\n        /* \"#utility.yul\":9000:9014   */\n      add\n        /* \"#utility.yul\":8985:9014   */\n      swap1\n      pop\n        /* \"#utility.yul\":8852:9020   */\n      swap3\n      swap2\n      pop\n      pop\n      jump\t// out\n        /* \"#utility.yul\":9026:9399   */\n    tag_192:\n        /* \"#utility.yul\":9112:9115   */\n      0x00\n        /* \"#utility.yul\":9140:9178   */\n      tag_301\n        /* \"#utility.yul\":9172:9177   */\n      dup3\n        /* \"#utility.yul\":9140:9178   */\n      tag_190\n      jump\t// in\n    tag_301:\n        /* \"#utility.yul\":9194:9264   */\n      tag_302\n        /* \"#utility.yul\":9257:9263   */\n      dup2\n        /* \"#utility.yul\":9252:9255   */\n      dup6\n        /* \"#utility.yul\":9194:9264   */\n      tag_191\n      jump\t// in\n    tag_302:\n        /* \"#utility.yul\":9187:9264   */\n      swap4\n      pop\n        /* \"#utility.yul\":9273:9338   */\n      tag_303\n        /* \"#utility.yul\":9331:9337   */\n      dup2\n        /* \"#utility.yul\":9326:9329   */\n      dup6\n        /* \"#utility.yul\":9319:9323   */\n      0x20\n        /* \"#utility.yul\":9312:9317   */\n      dup7\n        /* \"#utility.yul\":9308:9324   */\n      add\n        /* \"#utility.yul\":9273:9338   */\n      tag_163\n      jump\t// in\n    tag_303:\n        /* \"#utility.yul\":9363:9392   */\n      tag_304\n        /* \"#utility.yul\":9385:9391   */\n      dup2\n        /* \"#utility.yul\":9363:9392   */\n      tag_164\n      jump\t// in\n    tag_304:\n        /* \"#utility.yul\":9358:9361   */\n      dup5\n        /* \"#utility.yul\":9354:9393   */\n      add\n        /* \"#utility.yul\":9347:9393   */\n      swap2\n      pop\n        /* \"#utility.yul\":9116:9399   */\n      pop\n        /* \"#utility.yul\":9026:9399   */\n      swap3\n      swap2\n      pop\n      pop\n      jump\t// out\n        /* \"#utility.yul\":9405:10326   */\n    tag_120:\n        /* \"#utility.yul\":9662:9666   */\n      0x00\n        /* \"#utility.yul\":9700:9703   */\n      0xa0\n        /* \"#utility.yul\":9689:9698   */\n      dup3\n        /* \"#utility.yul\":9685:9704   */\n      add\n        /* \"#utility.yul\":9677:9704   */\n      swap1\n      pop\n        /* \"#utility.yul\":9714:9785   */\n      tag_306\n        /* \"#utility.yul\":9782:9783   */\n      0x00\n        /* \"#utility.yul\":9771:9780   */\n      dup4\n        /* \"#utility.yul\":9767:9784   */\n      add\n        /* \"#utility.yul\":9758:9764   */\n      dup9\n        /* \"#utility.yul\":9714:9785   */\n      tag_160\n      jump\t// in\n    tag_306:\n        /* \"#utility.yul\":9832:9841   */\n      dup2\n        /* \"#utility.yul\":9826:9830   */\n      dup2\n        /* \"#utility.yul\":9822:9842   */\n      sub\n        /* \"#utility.yul\":9817:9819   */\n      0x20\n        /* \"#utility.yul\":9806:9815   */\n      dup4\n        /* \"#utility.yul\":9802:9820   */\n      add\n        /* \"#utility.yul\":9795:9843   */\n      mstore\n        /* \"#utility.yul\":9860:9935   */\n      tag_307\n        /* \"#utility.yul\":9930:9934   */\n      dup2\n        /* \"#utility.yul\":9921:9927   */\n      dup8\n        /* \"#utility.yul\":9860:9935   */\n      tag_189\n      jump\t// in\n    tag_307:\n        /* \"#utility.yul\":9852:9935   */\n      swap1\n      pop\n        /* \"#utility.yul\":9982:9991   */\n      dup2\n        /* \"#utility.yul\":9976:9980   */\n      dup2\n        /* \"#utility.yul\":9972:9992   */\n      sub\n        /* \"#utility.yul\":9967:9969   */\n      0x40\n        /* \"#utility.yul\":9956:9965   */\n      dup4\n        /* \"#utility.yul\":9952:9970   */\n      add\n        /* \"#utility.yul\":9945:9993   */\n      mstore\n        /* \"#utility.yul\":10010:10085   */\n      tag_308\n        /* \"#utility.yul\":10080:10084   */\n      dup2\n        /* \"#utility.yul\":10071:10077   */\n      dup7\n        /* \"#utility.yul\":10010:10085   */\n      tag_189\n      jump\t// in\n    tag_308:\n        /* \"#utility.yul\":10002:10085   */\n      swap1\n      pop\n        /* \"#utility.yul\":10132:10141   */\n      dup2\n        /* \"#utility.yul\":10126:10130   */\n      dup2\n        /* \"#utility.yul\":10122:10142   */\n      sub\n        /* \"#utility.yul\":10117:10119   */\n      0x60\n        /* \"#utility.yul\":10106:10115   */\n      dup4\n        /* \"#utility.yul\":10102:10120   */\n      add\n        /* \"#utility.yul\":10095:10143   */\n      mstore\n        /* \"#utility.yul\":10160:10236   */\n      tag_309\n        /* \"#utility.yul\":10231:10235   */\n      dup2\n        /* \"#utility.yul\":10222:10228   */\n      dup6\n        /* \"#utility.yul\":10160:10236   */\n      tag_192\n      jump\t// in\n    tag_309:\n        /* \"#utility.yul\":10152:10236   */\n      swap1\n      pop\n        /* \"#utility.yul\":10246:10319   */\n      tag_310\n        /* \"#utility.yul\":10314:10317   */\n      0x80\n        /* \"#utility.yul\":10303:10312   */\n      dup4\n        /* \"#utility.yul\":10299:10318   */\n      add\n        /* \"#utility.yul\":10290:10296   */\n      dup5\n        /* \"#utility.yul\":10246:10319   */\n      tag_160\n      jump\t// in\n    tag_310:\n        /* \"#utility.yul\":9405:10326   */\n      swap7\n      swap6\n      pop\n      pop\n      pop\n      pop\n      pop\n      pop\n      jump\t// out\n        /* \"#utility.yul\":10332:11031   */\n    tag_125:\n        /* \"#utility.yul\":10533:10537   */\n      0x00\n        /* \"#utility.yul\":10571:10573   */\n      0x60\n        /* \"#utility.yul\":10560:10569   */\n      dup3\n        /* \"#utility.yul\":10556:10574   */\n      add\n        /* \"#utility.yul\":10548:10574   */\n      swap1\n      pop\n        /* \"#utility.yul\":10620:10629   */\n      dup2\n        /* \"#utility.yul\":10614:10618   */\n      dup2\n        /* \"#utility.yul\":10610:10630   */\n      sub\n        /* \"#utility.yul\":10606:10607   */\n      0x00\n        /* \"#utility.yul\":10595:10604   */\n      dup4\n        /* \"#utility.yul\":10591:10608   */\n      add\n        /* \"#utility.yul\":10584:10631   */\n      mstore\n        /* \"#utility.yul\":10648:10723   */\n      tag_312\n        /* \"#utility.yul\":10718:10722   */\n      dup2\n        /* \"#utility.yul\":10709:10715   */\n      dup7\n        /* \"#utility.yul\":10648:10723   */\n      tag_189\n      jump\t// in\n    tag_312:\n        /* \"#utility.yul\":10640:10723   */\n      swap1\n      pop\n        /* \"#utility.yul\":10770:10779   */\n      dup2\n        /* \"#utility.yul\":10764:10768   */\n      dup2\n        /* \"#utility.yul\":10760:10780   */\n      sub\n        /* \"#utility.yul\":10755:10757   */\n      0x20\n        /* \"#utility.yul\":10744:10753   */\n      dup4\n        /* \"#utility.yul\":10740:10758   */\n      add\n        /* \"#utility.yul\":10733:10781   */\n      mstore\n        /* \"#utility.yul\":10798:10873   */\n      tag_313\n        /* \"#utility.yul\":10868:10872   */\n      dup2\n        /* \"#utility.yul\":10859:10865   */\n      dup6\n        /* \"#utility.yul\":10798:10873   */\n      tag_189\n      jump\t// in\n    tag_313:\n        /* \"#utility.yul\":10790:10873   */\n      swap1\n      pop\n        /* \"#utility.yul\":10920:10929   */\n      dup2\n        /* \"#utility.yul\":10914:10918   */\n      dup2\n        /* \"#utility.yul\":10910:10930   */\n      sub\n        /* \"#utility.yul\":10905:10907   */\n      0x40\n        /* \"#utility.yul\":10894:10903   */\n      dup4\n        /* \"#utility.yul\":10890:10908   */\n      add\n        /* \"#utility.yul\":10883:10931   */\n      mstore\n        /* \"#utility.yul\":10948:11024   */\n      tag_314\n        /* \"#utility.yul\":11019:11023   */\n      dup2\n        /* \"#utility.yul\":11010:11016   */\n      dup5\n        /* \"#utility.yul\":10948:11024   */\n      tag_192\n      jump\t// in\n    tag_314:\n        /* \"#utility.yul\":10940:11024   */\n      swap1\n      pop\n        /* \"#utility.yul\":10332:11031   */\n      swap5\n      swap4\n      pop\n      pop\n      pop\n      pop\n      jump\t// out\n        /* \"#utility.yul\":11037:11185   */\n    tag_193:\n        /* \"#utility.yul\":11135:11141   */\n      dup3\n        /* \"#utility.yul\":11130:11133   */\n      dup2\n        /* \"#utility.yul\":11125:11128   */\n      dup4\n        /* \"#utility.yul\":11112:11142   */\n      calldatacopy\n        /* \"#utility.yul\":11176:11177   */\n      0x00\n        /* \"#utility.yul\":11167:11173   */\n      dup4\n        /* \"#utility.yul\":11162:11165   */\n      dup4\n        /* \"#utility.yul\":11158:11174   */\n      add\n        /* \"#utility.yul\":11151:11178   */\n      mstore\n        /* \"#utility.yul\":11037:11185   */\n      pop\n      pop\n      pop\n      jump\t// out\n        /* \"#utility.yul\":11213:11527   */\n    tag_194:\n        /* \"#utility.yul\":11309:11312   */\n      0x00\n        /* \"#utility.yul\":11330:11400   */\n      tag_317\n        /* \"#utility.yul\":11393:11399   */\n      dup4\n        /* \"#utility.yul\":11388:11391   */\n      dup6\n        /* \"#utility.yul\":11330:11400   */\n      tag_191\n      jump\t// in\n    tag_317:\n        /* \"#utility.yul\":11323:11400   */\n      swap4\n      pop\n        /* \"#utility.yul\":11410:11466   */\n      tag_318\n        /* \"#utility.yul\":11459:11465   */\n      dup4\n        /* \"#utility.yul\":11454:11457   */\n      dup6\n        /* \"#utility.yul\":11447:11452   */\n      dup5\n        /* \"#utility.yul\":11410:11466   */\n      tag_193\n      jump\t// in\n    tag_318:\n        /* \"#utility.yul\":11491:11520   */\n      tag_319\n        /* \"#utility.yul\":11513:11519   */\n      dup4\n        /* \"#utility.yul\":11491:11520   */\n      tag_164\n      jump\t// in\n    tag_319:\n        /* \"#utility.yul\":11486:11489   */\n      dup5\n        /* \"#utility.yul\":11482:11521   */\n      add\n        /* \"#utility.yul\":11475:11521   */\n      swap1\n      pop\n        /* \"#utility.yul\":11213:11527   */\n      swap4\n      swap3\n      pop\n      pop\n      pop\n      jump\t// out\n        /* \"#utility.yul\":11533:11651   */\n    tag_195:\n        /* \"#utility.yul\":11620:11644   */\n      tag_321\n        /* \"#utility.yul\":11638:11643   */\n      dup2\n        /* \"#utility.yul\":11620:11644   */\n      tag_178\n      jump\t// in\n    tag_321:\n        /* \"#utility.yul\":11615:11618   */\n      dup3\n        /* \"#utility.yul\":11608:11645   */\n      mstore\n        /* \"#utility.yul\":11533:11651   */\n      pop\n      pop\n      jump\t// out\n        /* \"#utility.yul\":11657:12096   */\n    tag_145:\n        /* \"#utility.yul\":11806:11810   */\n      0x00\n        /* \"#utility.yul\":11844:11846   */\n      0x40\n        /* \"#utility.yul\":11833:11842   */\n      dup3\n        /* \"#utility.yul\":11829:11847   */\n      add\n        /* \"#utility.yul\":11821:11847   */\n      swap1\n      pop\n        /* \"#utility.yul\":11893:11902   */\n      dup2\n        /* \"#utility.yul\":11887:11891   */\n      dup2\n        /* \"#utility.yul\":11883:11903   */\n      sub\n        /* \"#utility.yul\":11879:11880   */\n      0x00\n        /* \"#utility.yul\":11868:11877   */\n      dup4\n        /* \"#utility.yul\":11864:11881   */\n      add\n        /* \"#utility.yul\":11857:11904   */\n      mstore\n        /* \"#utility.yul\":11921:12007   */\n      tag_323\n        /* \"#utility.yul\":12002:12006   */\n      dup2\n        /* \"#utility.yul\":11993:11999   */\n      dup6\n        /* \"#utility.yul\":11985:11991   */\n      dup8\n        /* \"#utility.yul\":11921:12007   */\n      tag_194\n      jump\t// in\n    tag_323:\n        /* \"#utility.yul\":11913:12007   */\n      swap1\n      pop\n        /* \"#utility.yul\":12017:12089   */\n      tag_324\n        /* \"#utility.yul\":12085:12087   */\n      0x20\n        /* \"#utility.yul\":12074:12083   */\n      dup4\n        /* \"#utility.yul\":12070:12088   */\n      add\n        /* \"#utility.yul\":12061:12067   */\n      dup5\n        /* \"#utility.yul\":12017:12089   */\n      tag_195\n      jump\t// in\n    tag_324:\n        /* \"#utility.yul\":11657:12096   */\n      swap5\n      swap4\n      pop\n      pop\n      pop\n      pop\n      jump\t// out\n\n    auxdata: 0xa2646970667358221220ac6f0d31d3686534e642014f9bd81b152d96bed77b6ee487c575d4e80f7ad06a64736f6c634300081a0033\n}\n",
				"bytecode": {
					"linkReferences": {},
					"object": "60a060405234801561000f575f80fd5b50604051611b20380380611b20833981810160405281019061003191906103f9565b855f73ffffffffffffffffffffffffffffffffffffffff168173ffffffffffffffffffffffffffffffffffffffff16036100a2575f6040517f1e4fbdf700000000000000000000000000000000000000000000000000000000815260040161009991906104c9565b60405180910390fd5b6100b18161019160201b60201c565b508460015f6101000a81548173ffffffffffffffffffffffffffffffffffffffff021916908373ffffffffffffffffffffffffffffffffffffffff1602179055508360035f6101000a81548173ffffffffffffffffffffffffffffffffffffffff021916908373ffffffffffffffffffffffffffffffffffffffff1602179055508273ffffffffffffffffffffffffffffffffffffffff1660808173ffffffffffffffffffffffffffffffffffffffff1681525050816004908161017591906106ef565b50806005908161018591906106ef565b505050505050506107be565b5f805f9054906101000a900473ffffffffffffffffffffffffffffffffffffffff169050815f806101000a81548173ffffffffffffffffffffffffffffffffffffffff021916908373ffffffffffffffffffffffffffffffffffffffff1602179055508173ffffffffffffffffffffffffffffffffffffffff168173ffffffffffffffffffffffffffffffffffffffff167f8be0079c531659141344cd1fd0a4f28419497f9722a3daafe3b4186f6b6457e060405160405180910390a35050565b5f604051905090565b5f80fd5b5f80fd5b5f73ffffffffffffffffffffffffffffffffffffffff82169050919050565b5f61028c82610263565b9050919050565b61029c81610282565b81146102a6575f80fd5b50565b5f815190506102b781610293565b92915050565b5f80fd5b5f80fd5b5f601f19601f8301169050919050565b7f4e487b71000000000000000000000000000000000000000000000000000000005f52604160045260245ffd5b61030b826102c5565b810181811067ffffffffffffffff8211171561032a576103296102d5565b5b80604052505050565b5f61033c610252565b90506103488282610302565b919050565b5f67ffffffffffffffff821115610367576103666102d5565b5b610370826102c5565b9050602081019050919050565b8281835e5f83830152505050565b5f61039d6103988461034d565b610333565b9050828152602081018484840111156103b9576103b86102c1565b5b6103c484828561037d565b509392505050565b5f82601f8301126103e0576103df6102bd565b5b81516103f084826020860161038b565b91505092915050565b5f805f805f8060c087890312156104135761041261025b565b5b5f61042089828a016102a9565b965050602061043189828a016102a9565b955050604061044289828a016102a9565b945050606061045389828a016102a9565b935050608087015167ffffffffffffffff8111156104745761047361025f565b5b61048089828a016103cc565b92505060a087015167ffffffffffffffff8111156104a1576104a061025f565b5b6104ad89828a016103cc565b9150509295509295509295565b6104c381610282565b82525050565b5f6020820190506104dc5f8301846104ba565b92915050565b5f81519050919050565b7f4e487b71000000000000000000000000000000000000000000000000000000005f52602260045260245ffd5b5f600282049050600182168061053057607f821691505b602082108103610543576105426104ec565b5b50919050565b5f819050815f5260205f209050919050565b5f6020601f8301049050919050565b5f82821b905092915050565b5f600883026105a57fffffffffffffffffffffffffffffffffffffffffffffffffffffffffffffffff8261056a565b6105af868361056a565b95508019841693508086168417925050509392505050565b5f819050919050565b5f819050919050565b5f6105f36105ee6105e9846105c7565b6105d0565b6105c7565b9050919050565b5f819050919050565b61060c836105d9565b610620610618826105fa565b848454610576565b825550505050565b5f90565b610634610628565b61063f818484610603565b505050565b5b81811015610662576106575f8261062c565b600181019050610645565b5050565b601f8211156106a75761067881610549565b6106818461055b565b81016020851015610690578190505b6106a461069c8561055b565b830182610644565b50505b505050565b5f82821c905092915050565b5f6106c75f19846008026106ac565b1980831691505092915050565b5f6106df83836106b8565b9150826002028217905092915050565b6106f8826104e2565b67ffffffffffffffff811115610711576107106102d5565b5b61071b8254610519565b610726828285610666565b5f60209050601f831160018114610757575f8415610745578287015190505b61074f85826106d4565b8655506107b6565b601f19841661076586610549565b5f5b8281101561078c57848901518255600182019150602085019450602081019050610767565b868310156107a957848901516107a5601f8916826106b8565b8355505b6001600288020188555050505b505050505050565b6080516113436107dd5f395f81816103ae015261083501526113435ff3fe6080604052600436106100c5575f3560e01c80638da5cb5b1161007e578063bcaf0d9a11610058578063bcaf0d9a14610234578063ca09c8851461025e578063f2fde38b14610286578063f4bd456d146102ae576100cc565b80638da5cb5b146101b85780639b85622c146101e2578063bc95b3b11461020a576100cc565b80630f2a7dd3146100d057806325d83b7a146100fa5780634cae3185146101245780636a22d8cc1461014e578063715018a61461017857806385a2dd151461018e576100cc565b366100cc57005b5f80fd5b3480156100db575f80fd5b506100e46102d6565b6040516100f19190610d71565b60405180910390f35b348015610105575f80fd5b5061010e6102fb565b60405161011b9190610dfa565b60405180910390f35b34801561012f575f80fd5b50610138610387565b6040516101459190610d71565b60405180910390f35b348015610159575f80fd5b506101626103ac565b60405161016f9190610e75565b60405180910390f35b348015610183575f80fd5b5061018c6103d0565b005b348015610199575f80fd5b506101a26103e3565b6040516101af9190610ea8565b60405180910390f35b3480156101c3575f80fd5b506101cc610550565b6040516101d99190610d71565b60405180910390f35b3480156101ed575f80fd5b5061020860048036038101906102039190610ef3565b610577565b005b348015610215575f80fd5b5061021e6105c2565b60405161022b9190610dfa565b60405180910390f35b34801561023f575f80fd5b5061024861064e565b6040516102559190610d71565b60405180910390f35b348015610269575f80fd5b50610284600480360381019061027f9190610f51565b610673565b005b348015610291575f80fd5b506102ac60048036038101906102a79190610ef3565b610965565b005b3480156102b9575f80fd5b506102d460048036038101906102cf9190610ff0565b6109e9565b005b60015f9054906101000a900473ffffffffffffffffffffffffffffffffffffffff1681565b600580546103089061107a565b80601f01602080910402602001604051908101604052809291908181526020018280546103349061107a565b801561037f5780601f106103565761010080835404028352916020019161037f565b820191905f5260205f20905b81548152906001019060200180831161036257829003601f168201915b505050505081565b60035f9054906101000a900473ffffffffffffffffffffffffffffffffffffffff1681565b7f000000000000000000000000000000000000000000000000000000000000000081565b6103d8610be3565b6103e15f610c6a565b565b5f8073ffffffffffffffffffffffffffffffffffffffff1660025f9054906101000a900473ffffffffffffffffffffffffffffffffffffffff1673ffffffffffffffffffffffffffffffffffffffff160361046a576040517ff37741d700000000000000000000000000000000000000000000000000000000815260040160405180910390fd5b5f60025f9054906101000a900473ffffffffffffffffffffffffffffffffffffffff1690508073ffffffffffffffffffffffffffffffffffffffff1663b166a09f336040518263ffffffff1660e01b81526004016104c89190610d71565b602060405180830381865afa1580156104e3573d5f803e3d5ffd5b505050506040513d601f19601f8201168201806040525081019061050791906110d4565b61054857336040517f32b2baa300000000000000000000000000000000000000000000000000000000815260040161053f9190610d71565b60405180910390fd5b600191505090565b5f805f9054906101000a900473ffffffffffffffffffffffffffffffffffffffff16905090565b61057f610be3565b8060025f6101000a81548173ffffffffffffffffffffffffffffffffffffffff021916908373ffffffffffffffffffffffffffffffffffffffff16021790555050565b600480546105cf9061107a565b80601f01602080910402602001604051908101604052809291908181526020018280546105fb9061107a565b80156106465780601f1061061d57610100808354040283529160200191610646565b820191905f5260205f20905b81548152906001019060200180831161062957829003601f168201915b505050505081565b60025f9054906101000a900473ffffffffffffffffffffffffffffffffffffffff1681565b5f73ffffffffffffffffffffffffffffffffffffffff1660025f9054906101000a900473ffffffffffffffffffffffffffffffffffffffff1673ffffffffffffffffffffffffffffffffffffffff16036106f9576040517ff37741d700000000000000000000000000000000000000000000000000000000815260040160405180910390fd5b5f60025f9054906101000a900473ffffffffffffffffffffffffffffffffffffffff1690508073ffffffffffffffffffffffffffffffffffffffff1663b166a09f336040518263ffffffff1660e01b81526004016107579190610d71565b602060405180830381865afa158015610772573d5f803e3d5ffd5b505050506040513d601f19601f8201168201806040525081019061079691906110d4565b6107d757336040517f32b2baa30000000000000000000000000000000000000000000000000000000081526004016107ce9190610d71565b60405180910390fd5b5f6040518060400160405280600c81526020017f6772616e742063616c6c6564000000000000000000000000000000000000000081525090505f816040516020016108229190610dfa565b60405160208183030381529060405290507f000000000000000000000000000000000000000000000000000000000000000073ffffffffffffffffffffffffffffffffffffffff16630c93e3bb66038d7ea4c68000306004600586336040518763ffffffff1660e01b815260040161089e9594939291906111e4565b5f604051808303818588803b1580156108b5575f80fd5b505af11580156108c7573d5f803e3d5ffd5b50505050505f60035f9054906101000a900473ffffffffffffffffffffffffffffffffffffffff1690508073ffffffffffffffffffffffffffffffffffffffff16631c92115f60046005856040518463ffffffff1660e01b81526004016109309392919061124a565b5f604051808303815f87803b158015610947575f80fd5b505af1158015610959573d5f803e3d5ffd5b50505050505050505050565b61096d610be3565b5f73ffffffffffffffffffffffffffffffffffffffff168173ffffffffffffffffffffffffffffffffffffffff16036109dd575f6040517f1e4fbdf70000000000000000000000000000000000000000000000000000000081526004016109d49190610d71565b60405180910390fd5b6109e681610c6a565b50565b5f73ffffffffffffffffffffffffffffffffffffffff1660025f9054906101000a900473ffffffffffffffffffffffffffffffffffffffff1673ffffffffffffffffffffffffffffffffffffffff1603610a6f576040517ff37741d700000000000000000000000000000000000000000000000000000000815260040160405180910390fd5b5f60025f9054906101000a900473ffffffffffffffffffffffffffffffffffffffff1690508073ffffffffffffffffffffffffffffffffffffffff1663b166a09f336040518263ffffffff1660e01b8152600401610acd9190610d71565b602060405180830381865afa158015610ae8573d5f803e3d5ffd5b505050506040513d601f19601f82011682018060405250810190610b0c91906110d4565b610b4d57336040517f32b2baa3000000000000000000000000000000000000000000000000000000008152600401610b449190610d71565b60405180910390fd5b5f60015f9054906101000a900473ffffffffffffffffffffffffffffffffffffffff1690508073ffffffffffffffffffffffffffffffffffffffff1663930fc0068686866040518463ffffffff1660e01b8152600401610baf939291906112dd565b5f604051808303815f87803b158015610bc6575f80fd5b505af1158015610bd8573d5f803e3d5ffd5b505050505050505050565b610beb610d2b565b73ffffffffffffffffffffffffffffffffffffffff16610c09610550565b73ffffffffffffffffffffffffffffffffffffffff1614610c6857610c2c610d2b565b6040517f118cdaa7000000000000000000000000000000000000000000000000000000008152600401610c5f9190610d71565b60405180910390fd5b565b5f805f9054906101000a900473ffffffffffffffffffffffffffffffffffffffff169050815f806101000a81548173ffffffffffffffffffffffffffffffffffffffff021916908373ffffffffffffffffffffffffffffffffffffffff1602179055508173ffffffffffffffffffffffffffffffffffffffff168173ffffffffffffffffffffffffffffffffffffffff167f8be0079c531659141344cd1fd0a4f28419497f9722a3daafe3b4186f6b6457e060405160405180910390a35050565b5f33905090565b5f73ffffffffffffffffffffffffffffffffffffffff82169050919050565b5f610d5b82610d32565b9050919050565b610d6b81610d51565b82525050565b5f602082019050610d845f830184610d62565b92915050565b5f81519050919050565b5f82825260208201905092915050565b8281835e5f83830152505050565b5f601f19601f8301169050919050565b5f610dcc82610d8a565b610dd68185610d94565b9350610de6818560208601610da4565b610def81610db2565b840191505092915050565b5f6020820190508181035f830152610e128184610dc2565b905092915050565b5f819050919050565b5f610e3d610e38610e3384610d32565b610e1a565b610d32565b9050919050565b5f610e4e82610e23565b9050919050565b5f610e5f82610e44565b9050919050565b610e6f81610e55565b82525050565b5f602082019050610e885f830184610e66565b92915050565b5f8115159050919050565b610ea281610e8e565b82525050565b5f602082019050610ebb5f830184610e99565b92915050565b5f80fd5b5f80fd5b610ed281610d51565b8114610edc575f80fd5b50565b5f81359050610eed81610ec9565b92915050565b5f60208284031215610f0857610f07610ec1565b5b5f610f1584828501610edf565b91505092915050565b5f819050919050565b610f3081610f1e565b8114610f3a575f80fd5b50565b5f81359050610f4b81610f27565b92915050565b5f8060408385031215610f6757610f66610ec1565b5b5f610f7485828601610edf565b9250506020610f8585828601610f3d565b9150509250929050565b5f80fd5b5f80fd5b5f80fd5b5f8083601f840112610fb057610faf610f8f565b5b8235905067ffffffffffffffff811115610fcd57610fcc610f93565b5b602083019150836001820283011115610fe957610fe8610f97565b5b9250929050565b5f805f6040848603121561100757611006610ec1565b5b5f84013567ffffffffffffffff81111561102457611023610ec5565b5b61103086828701610f9b565b9350935050602061104386828701610f3d565b9150509250925092565b7f4e487b71000000000000000000000000000000000000000000000000000000005f52602260045260245ffd5b5f600282049050600182168061109157607f821691505b6020821081036110a4576110a361104d565b5b50919050565b6110b381610e8e565b81146110bd575f80fd5b50565b5f815190506110ce816110aa565b92915050565b5f602082840312156110e9576110e8610ec1565b5b5f6110f6848285016110c0565b91505092915050565b5f819050815f5260205f209050919050565b5f815461111d8161107a565b6111278186610d94565b9450600182165f8114611141576001811461115757611189565b60ff198316865281151560200286019350611189565b611160856110ff565b5f5b8381101561118157815481890152600182019150602081019050611162565b808801955050505b50505092915050565b5f81519050919050565b5f82825260208201905092915050565b5f6111b682611192565b6111c0818561119c565b93506111d0818560208601610da4565b6111d981610db2565b840191505092915050565b5f60a0820190506111f75f830188610d62565b81810360208301526112098187611111565b9050818103604083015261121d8186611111565b9050818103606083015261123181856111ac565b90506112406080830184610d62565b9695505050505050565b5f6060820190508181035f8301526112628186611111565b905081810360208301526112768185611111565b9050818103604083015261128a81846111ac565b9050949350505050565b828183375f83830152505050565b5f6112ad838561119c565b93506112ba838584611294565b6112c383610db2565b840190509392505050565b6112d781610f1e565b82525050565b5f6040820190508181035f8301526112f68185876112a2565b905061130560208301846112ce565b94935050505056fea2646970667358221220ac6f0d31d3686534e642014f9bd81b152d96bed77b6ee487c575d4e80f7ad06a64736f6c634300081a0033",
					"opcodes": "PUSH1 0xA0 PUSH1 0x40 MSTORE CALLVALUE DUP1 ISZERO PUSH2 0xF JUMPI PUSH0 DUP1 REVERT JUMPDEST POP PUSH1 0x40 MLOAD PUSH2 0x1B20 CODESIZE SUB DUP1 PUSH2 0x1B20 DUP4 CODECOPY DUP2 DUP2 ADD PUSH1 0x40 MSTORE DUP2 ADD SWAP1 PUSH2 0x31 SWAP2 SWAP1 PUSH2 0x3F9 JUMP JUMPDEST DUP6 PUSH0 PUSH20 0xFFFFFFFFFFFFFFFFFFFFFFFFFFFFFFFFFFFFFFFF AND DUP2 PUSH20 0xFFFFFFFFFFFFFFFFFFFFFFFFFFFFFFFFFFFFFFFF AND SUB PUSH2 0xA2 JUMPI PUSH0 PUSH1 0x40 MLOAD PUSH32 0x1E4FBDF700000000000000000000000000000000000000000000000000000000 DUP2 MSTORE PUSH1 0x4 ADD PUSH2 0x99 SWAP2 SWAP1 PUSH2 0x4C9 JUMP JUMPDEST PUSH1 0x40 MLOAD DUP1 SWAP2 SUB SWAP1 REVERT JUMPDEST PUSH2 0xB1 DUP2 PUSH2 0x191 PUSH1 0x20 SHL PUSH1 0x20 SHR JUMP JUMPDEST POP DUP5 PUSH1 0x1 PUSH0 PUSH2 0x100 EXP DUP2 SLOAD DUP2 PUSH20 0xFFFFFFFFFFFFFFFFFFFFFFFFFFFFFFFFFFFFFFFF MUL NOT AND SWAP1 DUP4 PUSH20 0xFFFFFFFFFFFFFFFFFFFFFFFFFFFFFFFFFFFFFFFF AND MUL OR SWAP1 SSTORE POP DUP4 PUSH1 0x3 PUSH0 PUSH2 0x100 EXP DUP2 SLOAD DUP2 PUSH20 0xFFFFFFFFFFFFFFFFFFFFFFFFFFFFFFFFFFFFFFFF MUL NOT AND SWAP1 DUP4 PUSH20 0xFFFFFFFFFFFFFFFFFFFFFFFFFFFFFFFFFFFFFFFF AND MUL OR SWAP1 SSTORE POP DUP3 PUSH20 0xFFFFFFFFFFFFFFFFFFFFFFFFFFFFFFFFFFFFFFFF AND PUSH1 0x80 DUP2 PUSH20 0xFFFFFFFFFFFFFFFFFFFFFFFFFFFFFFFFFFFFFFFF AND DUP2 MSTORE POP POP DUP2 PUSH1 0x4 SWAP1 DUP2 PUSH2 0x175 SWAP2 SWAP1 PUSH2 0x6EF JUMP JUMPDEST POP DUP1 PUSH1 0x5 SWAP1 DUP2 PUSH2 0x185 SWAP2 SWAP1 PUSH2 0x6EF JUMP JUMPDEST POP POP POP POP POP POP POP PUSH2 0x7BE JUMP JUMPDEST PUSH0 DUP1 PUSH0 SWAP1 SLOAD SWAP1 PUSH2 0x100 EXP SWAP1 DIV PUSH20 0xFFFFFFFFFFFFFFFFFFFFFFFFFFFFFFFFFFFFFFFF AND SWAP1 POP DUP2 PUSH0 DUP1 PUSH2 0x100 EXP DUP2 SLOAD DUP2 PUSH20 0xFFFFFFFFFFFFFFFFFFFFFFFFFFFFFFFFFFFFFFFF MUL NOT AND SWAP1 DUP4 PUSH20 0xFFFFFFFFFFFFFFFFFFFFFFFFFFFFFFFFFFFFFFFF AND MUL OR SWAP1 SSTORE POP DUP2 PUSH20 0xFFFFFFFFFFFFFFFFFFFFFFFFFFFFFFFFFFFFFFFF AND DUP2 PUSH20 0xFFFFFFFFFFFFFFFFFFFFFFFFFFFFFFFFFFFFFFFF AND PUSH32 0x8BE0079C531659141344CD1FD0A4F28419497F9722A3DAAFE3B4186F6B6457E0 PUSH1 0x40 MLOAD PUSH1 0x40 MLOAD DUP1 SWAP2 SUB SWAP1 LOG3 POP POP JUMP JUMPDEST PUSH0 PUSH1 0x40 MLOAD SWAP1 POP SWAP1 JUMP JUMPDEST PUSH0 DUP1 REVERT JUMPDEST PUSH0 DUP1 REVERT JUMPDEST PUSH0 PUSH20 0xFFFFFFFFFFFFFFFFFFFFFFFFFFFFFFFFFFFFFFFF DUP3 AND SWAP1 POP SWAP2 SWAP1 POP JUMP JUMPDEST PUSH0 PUSH2 0x28C DUP3 PUSH2 0x263 JUMP JUMPDEST SWAP1 POP SWAP2 SWAP1 POP JUMP JUMPDEST PUSH2 0x29C DUP2 PUSH2 0x282 JUMP JUMPDEST DUP2 EQ PUSH2 0x2A6 JUMPI PUSH0 DUP1 REVERT JUMPDEST POP JUMP JUMPDEST PUSH0 DUP2 MLOAD SWAP1 POP PUSH2 0x2B7 DUP2 PUSH2 0x293 JUMP JUMPDEST SWAP3 SWAP2 POP POP JUMP JUMPDEST PUSH0 DUP1 REVERT JUMPDEST PUSH0 DUP1 REVERT JUMPDEST PUSH0 PUSH1 0x1F NOT PUSH1 0x1F DUP4 ADD AND SWAP1 POP SWAP2 SWAP1 POP JUMP JUMPDEST PUSH32 0x4E487B7100000000000000000000000000000000000000000000000000000000 PUSH0 MSTORE PUSH1 0x41 PUSH1 0x4 MSTORE PUSH1 0x24 PUSH0 REVERT JUMPDEST PUSH2 0x30B DUP3 PUSH2 0x2C5 JUMP JUMPDEST DUP2 ADD DUP2 DUP2 LT PUSH8 0xFFFFFFFFFFFFFFFF DUP3 GT OR ISZERO PUSH2 0x32A JUMPI PUSH2 0x329 PUSH2 0x2D5 JUMP JUMPDEST JUMPDEST DUP1 PUSH1 0x40 MSTORE POP POP POP JUMP JUMPDEST PUSH0 PUSH2 0x33C PUSH2 0x252 JUMP JUMPDEST SWAP1 POP PUSH2 0x348 DUP3 DUP3 PUSH2 0x302 JUMP JUMPDEST SWAP2 SWAP1 POP JUMP JUMPDEST PUSH0 PUSH8 0xFFFFFFFFFFFFFFFF DUP3 GT ISZERO PUSH2 0x367 JUMPI PUSH2 0x366 PUSH2 0x2D5 JUMP JUMPDEST JUMPDEST PUSH2 0x370 DUP3 PUSH2 0x2C5 JUMP JUMPDEST SWAP1 POP PUSH1 0x20 DUP2 ADD SWAP1 POP SWAP2 SWAP1 POP JUMP JUMPDEST DUP3 DUP2 DUP4 MCOPY PUSH0 DUP4 DUP4 ADD MSTORE POP POP POP JUMP JUMPDEST PUSH0 PUSH2 0x39D PUSH2 0x398 DUP5 PUSH2 0x34D JUMP JUMPDEST PUSH2 0x333 JUMP JUMPDEST SWAP1 POP DUP3 DUP2 MSTORE PUSH1 0x20 DUP2 ADD DUP5 DUP5 DUP5 ADD GT ISZERO PUSH2 0x3B9 JUMPI PUSH2 0x3B8 PUSH2 0x2C1 JUMP JUMPDEST JUMPDEST PUSH2 0x3C4 DUP5 DUP3 DUP6 PUSH2 0x37D JUMP JUMPDEST POP SWAP4 SWAP3 POP POP POP JUMP JUMPDEST PUSH0 DUP3 PUSH1 0x1F DUP4 ADD SLT PUSH2 0x3E0 JUMPI PUSH2 0x3DF PUSH2 0x2BD JUMP JUMPDEST JUMPDEST DUP2 MLOAD PUSH2 0x3F0 DUP5 DUP3 PUSH1 0x20 DUP7 ADD PUSH2 0x38B JUMP JUMPDEST SWAP2 POP POP SWAP3 SWAP2 POP POP JUMP JUMPDEST PUSH0 DUP1 PUSH0 DUP1 PUSH0 DUP1 PUSH1 0xC0 DUP8 DUP10 SUB SLT ISZERO PUSH2 0x413 JUMPI PUSH2 0x412 PUSH2 0x25B JUMP JUMPDEST JUMPDEST PUSH0 PUSH2 0x420 DUP10 DUP3 DUP11 ADD PUSH2 0x2A9 JUMP JUMPDEST SWAP7 POP POP PUSH1 0x20 PUSH2 0x431 DUP10 DUP3 DUP11 ADD PUSH2 0x2A9 JUMP JUMPDEST SWAP6 POP POP PUSH1 0x40 PUSH2 0x442 DUP10 DUP3 DUP11 ADD PUSH2 0x2A9 JUMP JUMPDEST SWAP5 POP POP PUSH1 0x60 PUSH2 0x453 DUP10 DUP3 DUP11 ADD PUSH2 0x2A9 JUMP JUMPDEST SWAP4 POP POP PUSH1 0x80 DUP8 ADD MLOAD PUSH8 0xFFFFFFFFFFFFFFFF DUP2 GT ISZERO PUSH2 0x474 JUMPI PUSH2 0x473 PUSH2 0x25F JUMP JUMPDEST JUMPDEST PUSH2 0x480 DUP10 DUP3 DUP11 ADD PUSH2 0x3CC JUMP JUMPDEST SWAP3 POP POP PUSH1 0xA0 DUP8 ADD MLOAD PUSH8 0xFFFFFFFFFFFFFFFF DUP2 GT ISZERO PUSH2 0x4A1 JUMPI PUSH2 0x4A0 PUSH2 0x25F JUMP JUMPDEST JUMPDEST PUSH2 0x4AD DUP10 DUP3 DUP11 ADD PUSH2 0x3CC JUMP JUMPDEST SWAP2 POP POP SWAP3 SWAP6 POP SWAP3 SWAP6 POP SWAP3 SWAP6 JUMP JUMPDEST PUSH2 0x4C3 DUP2 PUSH2 0x282 JUMP JUMPDEST DUP3 MSTORE POP POP JUMP JUMPDEST PUSH0 PUSH1 0x20 DUP3 ADD SWAP1 POP PUSH2 0x4DC PUSH0 DUP4 ADD DUP5 PUSH2 0x4BA JUMP JUMPDEST SWAP3 SWAP2 POP POP JUMP JUMPDEST PUSH0 DUP2 MLOAD SWAP1 POP SWAP2 SWAP1 POP JUMP JUMPDEST PUSH32 0x4E487B7100000000000000000000000000000000000000000000000000000000 PUSH0 MSTORE PUSH1 0x22 PUSH1 0x4 MSTORE PUSH1 0x24 PUSH0 REVERT JUMPDEST PUSH0 PUSH1 0x2 DUP3 DIV SWAP1 POP PUSH1 0x1 DUP3 AND DUP1 PUSH2 0x530 JUMPI PUSH1 0x7F DUP3 AND SWAP2 POP JUMPDEST PUSH1 0x20 DUP3 LT DUP2 SUB PUSH2 0x543 JUMPI PUSH2 0x542 PUSH2 0x4EC JUMP JUMPDEST JUMPDEST POP SWAP2 SWAP1 POP JUMP JUMPDEST PUSH0 DUP2 SWAP1 POP DUP2 PUSH0 MSTORE PUSH1 0x20 PUSH0 KECCAK256 SWAP1 POP SWAP2 SWAP1 POP JUMP JUMPDEST PUSH0 PUSH1 0x20 PUSH1 0x1F DUP4 ADD DIV SWAP1 POP SWAP2 SWAP1 POP JUMP JUMPDEST PUSH0 DUP3 DUP3 SHL SWAP1 POP SWAP3 SWAP2 POP POP JUMP JUMPDEST PUSH0 PUSH1 0x8 DUP4 MUL PUSH2 0x5A5 PUSH32 0xFFFFFFFFFFFFFFFFFFFFFFFFFFFFFFFFFFFFFFFFFFFFFFFFFFFFFFFFFFFFFFFF DUP3 PUSH2 0x56A JUMP JUMPDEST PUSH2 0x5AF DUP7 DUP4 PUSH2 0x56A JUMP JUMPDEST SWAP6 POP DUP1 NOT DUP5 AND SWAP4 POP DUP1 DUP7 AND DUP5 OR SWAP3 POP POP POP SWAP4 SWAP3 POP POP POP JUMP JUMPDEST PUSH0 DUP2 SWAP1 POP SWAP2 SWAP1 POP JUMP JUMPDEST PUSH0 DUP2 SWAP1 POP SWAP2 SWAP1 POP JUMP JUMPDEST PUSH0 PUSH2 0x5F3 PUSH2 0x5EE PUSH2 0x5E9 DUP5 PUSH2 0x5C7 JUMP JUMPDEST PUSH2 0x5D0 JUMP JUMPDEST PUSH2 0x5C7 JUMP JUMPDEST SWAP1 POP SWAP2 SWAP1 POP JUMP JUMPDEST PUSH0 DUP2 SWAP1 POP SWAP2 SWAP1 POP JUMP JUMPDEST PUSH2 0x60C DUP4 PUSH2 0x5D9 JUMP JUMPDEST PUSH2 0x620 PUSH2 0x618 DUP3 PUSH2 0x5FA JUMP JUMPDEST DUP5 DUP5 SLOAD PUSH2 0x576 JUMP JUMPDEST DUP3 SSTORE POP POP POP POP JUMP JUMPDEST PUSH0 SWAP1 JUMP JUMPDEST PUSH2 0x634 PUSH2 0x628 JUMP JUMPDEST PUSH2 0x63F DUP2 DUP5 DUP5 PUSH2 0x603 JUMP JUMPDEST POP POP POP JUMP JUMPDEST JUMPDEST DUP2 DUP2 LT ISZERO PUSH2 0x662 JUMPI PUSH2 0x657 PUSH0 DUP3 PUSH2 0x62C JUMP JUMPDEST PUSH1 0x1 DUP2 ADD SWAP1 POP PUSH2 0x645 JUMP JUMPDEST POP POP JUMP JUMPDEST PUSH1 0x1F DUP3 GT ISZERO PUSH2 0x6A7 JUMPI PUSH2 0x678 DUP2 PUSH2 0x549 JUMP JUMPDEST PUSH2 0x681 DUP5 PUSH2 0x55B JUMP JUMPDEST DUP2 ADD PUSH1 0x20 DUP6 LT ISZERO PUSH2 0x690 JUMPI DUP2 SWAP1 POP JUMPDEST PUSH2 0x6A4 PUSH2 0x69C DUP6 PUSH2 0x55B JUMP JUMPDEST DUP4 ADD DUP3 PUSH2 0x644 JUMP JUMPDEST POP POP JUMPDEST POP POP POP JUMP JUMPDEST PUSH0 DUP3 DUP3 SHR SWAP1 POP SWAP3 SWAP2 POP POP JUMP JUMPDEST PUSH0 PUSH2 0x6C7 PUSH0 NOT DUP5 PUSH1 0x8 MUL PUSH2 0x6AC JUMP JUMPDEST NOT DUP1 DUP4 AND SWAP2 POP POP SWAP3 SWAP2 POP POP JUMP JUMPDEST PUSH0 PUSH2 0x6DF DUP4 DUP4 PUSH2 0x6B8 JUMP JUMPDEST SWAP2 POP DUP3 PUSH1 0x2 MUL DUP3 OR SWAP1 POP SWAP3 SWAP2 POP POP JUMP JUMPDEST PUSH2 0x6F8 DUP3 PUSH2 0x4E2 JUMP JUMPDEST PUSH8 0xFFFFFFFFFFFFFFFF DUP2 GT ISZERO PUSH2 0x711 JUMPI PUSH2 0x710 PUSH2 0x2D5 JUMP JUMPDEST JUMPDEST PUSH2 0x71B DUP3 SLOAD PUSH2 0x519 JUMP JUMPDEST PUSH2 0x726 DUP3 DUP3 DUP6 PUSH2 0x666 JUMP JUMPDEST PUSH0 PUSH1 0x20 SWAP1 POP PUSH1 0x1F DUP4 GT PUSH1 0x1 DUP2 EQ PUSH2 0x757 JUMPI PUSH0 DUP5 ISZERO PUSH2 0x745 JUMPI DUP3 DUP8 ADD MLOAD SWAP1 POP JUMPDEST PUSH2 0x74F DUP6 DUP3 PUSH2 0x6D4 JUMP JUMPDEST DUP7 SSTORE POP PUSH2 0x7B6 JUMP JUMPDEST PUSH1 0x1F NOT DUP5 AND PUSH2 0x765 DUP7 PUSH2 0x549 JUMP JUMPDEST PUSH0 JUMPDEST DUP3 DUP2 LT ISZERO PUSH2 0x78C JUMPI DUP5 DUP10 ADD MLOAD DUP3 SSTORE PUSH1 0x1 DUP3 ADD SWAP2 POP PUSH1 0x20 DUP6 ADD SWAP5 POP PUSH1 0x20 DUP2 ADD SWAP1 POP PUSH2 0x767 JUMP JUMPDEST DUP7 DUP4 LT ISZERO PUSH2 0x7A9 JUMPI DUP5 DUP10 ADD MLOAD PUSH2 0x7A5 PUSH1 0x1F DUP10 AND DUP3 PUSH2 0x6B8 JUMP JUMPDEST DUP4 SSTORE POP JUMPDEST PUSH1 0x1 PUSH1 0x2 DUP9 MUL ADD DUP9 SSTORE POP POP POP JUMPDEST POP POP POP POP POP POP JUMP JUMPDEST PUSH1 0x80 MLOAD PUSH2 0x1343 PUSH2 0x7DD PUSH0 CODECOPY PUSH0 DUP2 DUP2 PUSH2 0x3AE ADD MSTORE PUSH2 0x835 ADD MSTORE PUSH2 0x1343 PUSH0 RETURN INVALID PUSH1 0x80 PUSH1 0x40 MSTORE PUSH1 0x4 CALLDATASIZE LT PUSH2 0xC5 JUMPI PUSH0 CALLDATALOAD PUSH1 0xE0 SHR DUP1 PUSH4 0x8DA5CB5B GT PUSH2 0x7E JUMPI DUP1 PUSH4 0xBCAF0D9A GT PUSH2 0x58 JUMPI DUP1 PUSH4 0xBCAF0D9A EQ PUSH2 0x234 JUMPI DUP1 PUSH4 0xCA09C885 EQ PUSH2 0x25E JUMPI DUP1 PUSH4 0xF2FDE38B EQ PUSH2 0x286 JUMPI DUP1 PUSH4 0xF4BD456D EQ PUSH2 0x2AE JUMPI PUSH2 0xCC JUMP JUMPDEST DUP1 PUSH4 0x8DA5CB5B EQ PUSH2 0x1B8 JUMPI DUP1 PUSH4 0x9B85622C EQ PUSH2 0x1E2 JUMPI DUP1 PUSH4 0xBC95B3B1 EQ PUSH2 0x20A JUMPI PUSH2 0xCC JUMP JUMPDEST DUP1 PUSH4 0xF2A7DD3 EQ PUSH2 0xD0 JUMPI DUP1 PUSH4 0x25D83B7A EQ PUSH2 0xFA JUMPI DUP1 PUSH4 0x4CAE3185 EQ PUSH2 0x124 JUMPI DUP1 PUSH4 0x6A22D8CC EQ PUSH2 0x14E JUMPI DUP1 PUSH4 0x715018A6 EQ PUSH2 0x178 JUMPI DUP1 PUSH4 0x85A2DD15 EQ PUSH2 0x18E JUMPI PUSH2 0xCC JUMP JUMPDEST CALLDATASIZE PUSH2 0xCC JUMPI STOP JUMPDEST PUSH0 DUP1 REVERT JUMPDEST CALLVALUE DUP1 ISZERO PUSH2 0xDB JUMPI PUSH0 DUP1 REVERT JUMPDEST POP PUSH2 0xE4 PUSH2 0x2D6 JUMP JUMPDEST PUSH1 0x40 MLOAD PUSH2 0xF1 SWAP2 SWAP1 PUSH2 0xD71 JUMP JUMPDEST PUSH1 0x40 MLOAD DUP1 SWAP2 SUB SWAP1 RETURN JUMPDEST CALLVALUE DUP1 ISZERO PUSH2 0x105 JUMPI PUSH0 DUP1 REVERT JUMPDEST POP PUSH2 0x10E PUSH2 0x2FB JUMP JUMPDEST PUSH1 0x40 MLOAD PUSH2 0x11B SWAP2 SWAP1 PUSH2 0xDFA JUMP JUMPDEST PUSH1 0x40 MLOAD DUP1 SWAP2 SUB SWAP1 RETURN JUMPDEST CALLVALUE DUP1 ISZERO PUSH2 0x12F JUMPI PUSH0 DUP1 REVERT JUMPDEST POP PUSH2 0x138 PUSH2 0x387 JUMP JUMPDEST PUSH1 0x40 MLOAD PUSH2 0x145 SWAP2 SWAP1 PUSH2 0xD71 JUMP JUMPDEST PUSH1 0x40 MLOAD DUP1 SWAP2 SUB SWAP1 RETURN JUMPDEST CALLVALUE DUP1 ISZERO PUSH2 0x159 JUMPI PUSH0 DUP1 REVERT JUMPDEST POP PUSH2 0x162 PUSH2 0x3AC JUMP JUMPDEST PUSH1 0x40 MLOAD PUSH2 0x16F SWAP2 SWAP1 PUSH2 0xE75 JUMP JUMPDEST PUSH1 0x40 MLOAD DUP1 SWAP2 SUB SWAP1 RETURN JUMPDEST CALLVALUE DUP1 ISZERO PUSH2 0x183 JUMPI PUSH0 DUP1 REVERT JUMPDEST POP PUSH2 0x18C PUSH2 0x3D0 JUMP JUMPDEST STOP JUMPDEST CALLVALUE DUP1 ISZERO PUSH2 0x199 JUMPI PUSH0 DUP1 REVERT JUMPDEST POP PUSH2 0x1A2 PUSH2 0x3E3 JUMP JUMPDEST PUSH1 0x40 MLOAD PUSH2 0x1AF SWAP2 SWAP1 PUSH2 0xEA8 JUMP JUMPDEST PUSH1 0x40 MLOAD DUP1 SWAP2 SUB SWAP1 RETURN JUMPDEST CALLVALUE DUP1 ISZERO PUSH2 0x1C3 JUMPI PUSH0 DUP1 REVERT JUMPDEST POP PUSH2 0x1CC PUSH2 0x550 JUMP JUMPDEST PUSH1 0x40 MLOAD PUSH2 0x1D9 SWAP2 SWAP1 PUSH2 0xD71 JUMP JUMPDEST PUSH1 0x40 MLOAD DUP1 SWAP2 SUB SWAP1 RETURN JUMPDEST CALLVALUE DUP1 ISZERO PUSH2 0x1ED JUMPI PUSH0 DUP1 REVERT JUMPDEST POP PUSH2 0x208 PUSH1 0x4 DUP1 CALLDATASIZE SUB DUP2 ADD SWAP1 PUSH2 0x203 SWAP2 SWAP1 PUSH2 0xEF3 JUMP JUMPDEST PUSH2 0x577 JUMP JUMPDEST STOP JUMPDEST CALLVALUE DUP1 ISZERO PUSH2 0x215 JUMPI PUSH0 DUP1 REVERT JUMPDEST POP PUSH2 0x21E PUSH2 0x5C2 JUMP JUMPDEST PUSH1 0x40 MLOAD PUSH2 0x22B SWAP2 SWAP1 PUSH2 0xDFA JUMP JUMPDEST PUSH1 0x40 MLOAD DUP1 SWAP2 SUB SWAP1 RETURN JUMPDEST CALLVALUE DUP1 ISZERO PUSH2 0x23F JUMPI PUSH0 DUP1 REVERT JUMPDEST POP PUSH2 0x248 PUSH2 0x64E JUMP JUMPDEST PUSH1 0x40 MLOAD PUSH2 0x255 SWAP2 SWAP1 PUSH2 0xD71 JUMP JUMPDEST PUSH1 0x40 MLOAD DUP1 SWAP2 SUB SWAP1 RETURN JUMPDEST CALLVALUE DUP1 ISZERO PUSH2 0x269 JUMPI PUSH0 DUP1 REVERT JUMPDEST POP PUSH2 0x284 PUSH1 0x4 DUP1 CALLDATASIZE SUB DUP2 ADD SWAP1 PUSH2 0x27F SWAP2 SWAP1 PUSH2 0xF51 JUMP JUMPDEST PUSH2 0x673 JUMP JUMPDEST STOP JUMPDEST CALLVALUE DUP1 ISZERO PUSH2 0x291 JUMPI PUSH0 DUP1 REVERT JUMPDEST POP PUSH2 0x2AC PUSH1 0x4 DUP1 CALLDATASIZE SUB DUP2 ADD SWAP1 PUSH2 0x2A7 SWAP2 SWAP1 PUSH2 0xEF3 JUMP JUMPDEST PUSH2 0x965 JUMP JUMPDEST STOP JUMPDEST CALLVALUE DUP1 ISZERO PUSH2 0x2B9 JUMPI PUSH0 DUP1 REVERT JUMPDEST POP PUSH2 0x2D4 PUSH1 0x4 DUP1 CALLDATASIZE SUB DUP2 ADD SWAP1 PUSH2 0x2CF SWAP2 SWAP1 PUSH2 0xFF0 JUMP JUMPDEST PUSH2 0x9E9 JUMP JUMPDEST STOP JUMPDEST PUSH1 0x1 PUSH0 SWAP1 SLOAD SWAP1 PUSH2 0x100 EXP SWAP1 DIV PUSH20 0xFFFFFFFFFFFFFFFFFFFFFFFFFFFFFFFFFFFFFFFF AND DUP2 JUMP JUMPDEST PUSH1 0x5 DUP1 SLOAD PUSH2 0x308 SWAP1 PUSH2 0x107A JUMP JUMPDEST DUP1 PUSH1 0x1F ADD PUSH1 0x20 DUP1 SWAP2 DIV MUL PUSH1 0x20 ADD PUSH1 0x40 MLOAD SWAP1 DUP2 ADD PUSH1 0x40 MSTORE DUP1 SWAP3 SWAP2 SWAP1 DUP2 DUP2 MSTORE PUSH1 0x20 ADD DUP3 DUP1 SLOAD PUSH2 0x334 SWAP1 PUSH2 0x107A JUMP JUMPDEST DUP1 ISZERO PUSH2 0x37F JUMPI DUP1 PUSH1 0x1F LT PUSH2 0x356 JUMPI PUSH2 0x100 DUP1 DUP4 SLOAD DIV MUL DUP4 MSTORE SWAP2 PUSH1 0x20 ADD SWAP2 PUSH2 0x37F JUMP JUMPDEST DUP3 ADD SWAP2 SWAP1 PUSH0 MSTORE PUSH1 0x20 PUSH0 KECCAK256 SWAP1 JUMPDEST DUP2 SLOAD DUP2 MSTORE SWAP1 PUSH1 0x1 ADD SWAP1 PUSH1 0x20 ADD DUP1 DUP4 GT PUSH2 0x362 JUMPI DUP3 SWAP1 SUB PUSH1 0x1F AND DUP3 ADD SWAP2 JUMPDEST POP POP POP POP POP DUP2 JUMP JUMPDEST PUSH1 0x3 PUSH0 SWAP1 SLOAD SWAP1 PUSH2 0x100 EXP SWAP1 DIV PUSH20 0xFFFFFFFFFFFFFFFFFFFFFFFFFFFFFFFFFFFFFFFF AND DUP2 JUMP JUMPDEST PUSH32 0x0 DUP2 JUMP JUMPDEST PUSH2 0x3D8 PUSH2 0xBE3 JUMP JUMPDEST PUSH2 0x3E1 PUSH0 PUSH2 0xC6A JUMP JUMPDEST JUMP JUMPDEST PUSH0 DUP1 PUSH20 0xFFFFFFFFFFFFFFFFFFFFFFFFFFFFFFFFFFFFFFFF AND PUSH1 0x2 PUSH0 SWAP1 SLOAD SWAP1 PUSH2 0x100 EXP SWAP1 DIV PUSH20 0xFFFFFFFFFFFFFFFFFFFFFFFFFFFFFFFFFFFFFFFF AND PUSH20 0xFFFFFFFFFFFFFFFFFFFFFFFFFFFFFFFFFFFFFFFF AND SUB PUSH2 0x46A JUMPI PUSH1 0x40 MLOAD PUSH32 0xF37741D700000000000000000000000000000000000000000000000000000000 DUP2 MSTORE PUSH1 0x4 ADD PUSH1 0x40 MLOAD DUP1 SWAP2 SUB SWAP1 REVERT JUMPDEST PUSH0 PUSH1 0x2 PUSH0 SWAP1 SLOAD SWAP1 PUSH2 0x100 EXP SWAP1 DIV PUSH20 0xFFFFFFFFFFFFFFFFFFFFFFFFFFFFFFFFFFFFFFFF AND SWAP1 POP DUP1 PUSH20 0xFFFFFFFFFFFFFFFFFFFFFFFFFFFFFFFFFFFFFFFF AND PUSH4 0xB166A09F CALLER PUSH1 0x40 MLOAD DUP3 PUSH4 0xFFFFFFFF AND PUSH1 0xE0 SHL DUP2 MSTORE PUSH1 0x4 ADD PUSH2 0x4C8 SWAP2 SWAP1 PUSH2 0xD71 JUMP JUMPDEST PUSH1 0x20 PUSH1 0x40 MLOAD DUP1 DUP4 SUB DUP2 DUP7 GAS STATICCALL ISZERO DUP1 ISZERO PUSH2 0x4E3 JUMPI RETURNDATASIZE PUSH0 DUP1 RETURNDATACOPY RETURNDATASIZE PUSH0 REVERT JUMPDEST POP POP POP POP PUSH1 0x40 MLOAD RETURNDATASIZE PUSH1 0x1F NOT PUSH1 0x1F DUP3 ADD AND DUP3 ADD DUP1 PUSH1 0x40 MSTORE POP DUP2 ADD SWAP1 PUSH2 0x507 SWAP2 SWAP1 PUSH2 0x10D4 JUMP JUMPDEST PUSH2 0x548 JUMPI CALLER PUSH1 0x40 MLOAD PUSH32 0x32B2BAA300000000000000000000000000000000000000000000000000000000 DUP2 MSTORE PUSH1 0x4 ADD PUSH2 0x53F SWAP2 SWAP1 PUSH2 0xD71 JUMP JUMPDEST PUSH1 0x40 MLOAD DUP1 SWAP2 SUB SWAP1 REVERT JUMPDEST PUSH1 0x1 SWAP2 POP POP SWAP1 JUMP JUMPDEST PUSH0 DUP1 PUSH0 SWAP1 SLOAD SWAP1 PUSH2 0x100 EXP SWAP1 DIV PUSH20 0xFFFFFFFFFFFFFFFFFFFFFFFFFFFFFFFFFFFFFFFF AND SWAP1 POP SWAP1 JUMP JUMPDEST PUSH2 0x57F PUSH2 0xBE3 JUMP JUMPDEST DUP1 PUSH1 0x2 PUSH0 PUSH2 0x100 EXP DUP2 SLOAD DUP2 PUSH20 0xFFFFFFFFFFFFFFFFFFFFFFFFFFFFFFFFFFFFFFFF MUL NOT AND SWAP1 DUP4 PUSH20 0xFFFFFFFFFFFFFFFFFFFFFFFFFFFFFFFFFFFFFFFF AND MUL OR SWAP1 SSTORE POP POP JUMP JUMPDEST PUSH1 0x4 DUP1 SLOAD PUSH2 0x5CF SWAP1 PUSH2 0x107A JUMP JUMPDEST DUP1 PUSH1 0x1F ADD PUSH1 0x20 DUP1 SWAP2 DIV MUL PUSH1 0x20 ADD PUSH1 0x40 MLOAD SWAP1 DUP2 ADD PUSH1 0x40 MSTORE DUP1 SWAP3 SWAP2 SWAP1 DUP2 DUP2 MSTORE PUSH1 0x20 ADD DUP3 DUP1 SLOAD PUSH2 0x5FB SWAP1 PUSH2 0x107A JUMP JUMPDEST DUP1 ISZERO PUSH2 0x646 JUMPI DUP1 PUSH1 0x1F LT PUSH2 0x61D JUMPI PUSH2 0x100 DUP1 DUP4 SLOAD DIV MUL DUP4 MSTORE SWAP2 PUSH1 0x20 ADD SWAP2 PUSH2 0x646 JUMP JUMPDEST DUP3 ADD SWAP2 SWAP1 PUSH0 MSTORE PUSH1 0x20 PUSH0 KECCAK256 SWAP1 JUMPDEST DUP2 SLOAD DUP2 MSTORE SWAP1 PUSH1 0x1 ADD SWAP1 PUSH1 0x20 ADD DUP1 DUP4 GT PUSH2 0x629 JUMPI DUP3 SWAP1 SUB PUSH1 0x1F AND DUP3 ADD SWAP2 JUMPDEST POP POP POP POP POP DUP2 JUMP JUMPDEST PUSH1 0x2 PUSH0 SWAP1 SLOAD SWAP1 PUSH2 0x100 EXP SWAP1 DIV PUSH20 0xFFFFFFFFFFFFFFFFFFFFFFFFFFFFFFFFFFFFFFFF AND DUP2 JUMP JUMPDEST PUSH0 PUSH20 0xFFFFFFFFFFFFFFFFFFFFFFFFFFFFFFFFFFFFFFFF AND PUSH1 0x2 PUSH0 SWAP1 SLOAD SWAP1 PUSH2 0x100 EXP SWAP1 DIV PUSH20 0xFFFFFFFFFFFFFFFFFFFFFFFFFFFFFFFFFFFFFFFF AND PUSH20 0xFFFFFFFFFFFFFFFFFFFFFFFFFFFFFFFFFFFFFFFF AND SUB PUSH2 0x6F9 JUMPI PUSH1 0x40 MLOAD PUSH32 0xF37741D700000000000000000000000000000000000000000000000000000000 DUP2 MSTORE PUSH1 0x4 ADD PUSH1 0x40 MLOAD DUP1 SWAP2 SUB SWAP1 REVERT JUMPDEST PUSH0 PUSH1 0x2 PUSH0 SWAP1 SLOAD SWAP1 PUSH2 0x100 EXP SWAP1 DIV PUSH20 0xFFFFFFFFFFFFFFFFFFFFFFFFFFFFFFFFFFFFFFFF AND SWAP1 POP DUP1 PUSH20 0xFFFFFFFFFFFFFFFFFFFFFFFFFFFFFFFFFFFFFFFF AND PUSH4 0xB166A09F CALLER PUSH1 0x40 MLOAD DUP3 PUSH4 0xFFFFFFFF AND PUSH1 0xE0 SHL DUP2 MSTORE PUSH1 0x4 ADD PUSH2 0x757 SWAP2 SWAP1 PUSH2 0xD71 JUMP JUMPDEST PUSH1 0x20 PUSH1 0x40 MLOAD DUP1 DUP4 SUB DUP2 DUP7 GAS STATICCALL ISZERO DUP1 ISZERO PUSH2 0x772 JUMPI RETURNDATASIZE PUSH0 DUP1 RETURNDATACOPY RETURNDATASIZE PUSH0 REVERT JUMPDEST POP POP POP POP PUSH1 0x40 MLOAD RETURNDATASIZE PUSH1 0x1F NOT PUSH1 0x1F DUP3 ADD AND DUP3 ADD DUP1 PUSH1 0x40 MSTORE POP DUP2 ADD SWAP1 PUSH2 0x796 SWAP2 SWAP1 PUSH2 0x10D4 JUMP JUMPDEST PUSH2 0x7D7 JUMPI CALLER PUSH1 0x40 MLOAD PUSH32 0x32B2BAA300000000000000000000000000000000000000000000000000000000 DUP2 MSTORE PUSH1 0x4 ADD PUSH2 0x7CE SWAP2 SWAP1 PUSH2 0xD71 JUMP JUMPDEST PUSH1 0x40 MLOAD DUP1 SWAP2 SUB SWAP1 REVERT JUMPDEST PUSH0 PUSH1 0x40 MLOAD DUP1 PUSH1 0x40 ADD PUSH1 0x40 MSTORE DUP1 PUSH1 0xC DUP2 MSTORE PUSH1 0x20 ADD PUSH32 0x6772616E742063616C6C65640000000000000000000000000000000000000000 DUP2 MSTORE POP SWAP1 POP PUSH0 DUP2 PUSH1 0x40 MLOAD PUSH1 0x20 ADD PUSH2 0x822 SWAP2 SWAP1 PUSH2 0xDFA JUMP JUMPDEST PUSH1 0x40 MLOAD PUSH1 0x20 DUP2 DUP4 SUB SUB DUP2 MSTORE SWAP1 PUSH1 0x40 MSTORE SWAP1 POP PUSH32 0x0 PUSH20 0xFFFFFFFFFFFFFFFFFFFFFFFFFFFFFFFFFFFFFFFF AND PUSH4 0xC93E3BB PUSH7 0x38D7EA4C68000 ADDRESS PUSH1 0x4 PUSH1 0x5 DUP7 CALLER PUSH1 0x40 MLOAD DUP8 PUSH4 0xFFFFFFFF AND PUSH1 0xE0 SHL DUP2 MSTORE PUSH1 0x4 ADD PUSH2 0x89E SWAP6 SWAP5 SWAP4 SWAP3 SWAP2 SWAP1 PUSH2 0x11E4 JUMP JUMPDEST PUSH0 PUSH1 0x40 MLOAD DUP1 DUP4 SUB DUP2 DUP6 DUP9 DUP1 EXTCODESIZE ISZERO DUP1 ISZERO PUSH2 0x8B5 JUMPI PUSH0 DUP1 REVERT JUMPDEST POP GAS CALL ISZERO DUP1 ISZERO PUSH2 0x8C7 JUMPI RETURNDATASIZE PUSH0 DUP1 RETURNDATACOPY RETURNDATASIZE PUSH0 REVERT JUMPDEST POP POP POP POP POP PUSH0 PUSH1 0x3 PUSH0 SWAP1 SLOAD SWAP1 PUSH2 0x100 EXP SWAP1 DIV PUSH20 0xFFFFFFFFFFFFFFFFFFFFFFFFFFFFFFFFFFFFFFFF AND SWAP1 POP DUP1 PUSH20 0xFFFFFFFFFFFFFFFFFFFFFFFFFFFFFFFFFFFFFFFF AND PUSH4 0x1C92115F PUSH1 0x4 PUSH1 0x5 DUP6 PUSH1 0x40 MLOAD DUP5 PUSH4 0xFFFFFFFF AND PUSH1 0xE0 SHL DUP2 MSTORE PUSH1 0x4 ADD PUSH2 0x930 SWAP4 SWAP3 SWAP2 SWAP1 PUSH2 0x124A JUMP JUMPDEST PUSH0 PUSH1 0x40 MLOAD DUP1 DUP4 SUB DUP2 PUSH0 DUP8 DUP1 EXTCODESIZE ISZERO DUP1 ISZERO PUSH2 0x947 JUMPI PUSH0 DUP1 REVERT JUMPDEST POP GAS CALL ISZERO DUP1 ISZERO PUSH2 0x959 JUMPI RETURNDATASIZE PUSH0 DUP1 RETURNDATACOPY RETURNDATASIZE PUSH0 REVERT JUMPDEST POP POP POP POP POP POP POP POP POP POP JUMP JUMPDEST PUSH2 0x96D PUSH2 0xBE3 JUMP JUMPDEST PUSH0 PUSH20 0xFFFFFFFFFFFFFFFFFFFFFFFFFFFFFFFFFFFFFFFF AND DUP2 PUSH20 0xFFFFFFFFFFFFFFFFFFFFFFFFFFFFFFFFFFFFFFFF AND SUB PUSH2 0x9DD JUMPI PUSH0 PUSH1 0x40 MLOAD PUSH32 0x1E4FBDF700000000000000000000000000000000000000000000000000000000 DUP2 MSTORE PUSH1 0x4 ADD PUSH2 0x9D4 SWAP2 SWAP1 PUSH2 0xD71 JUMP JUMPDEST PUSH1 0x40 MLOAD DUP1 SWAP2 SUB SWAP1 REVERT JUMPDEST PUSH2 0x9E6 DUP2 PUSH2 0xC6A JUMP JUMPDEST POP JUMP JUMPDEST PUSH0 PUSH20 0xFFFFFFFFFFFFFFFFFFFFFFFFFFFFFFFFFFFFFFFF AND PUSH1 0x2 PUSH0 SWAP1 SLOAD SWAP1 PUSH2 0x100 EXP SWAP1 DIV PUSH20 0xFFFFFFFFFFFFFFFFFFFFFFFFFFFFFFFFFFFFFFFF AND PUSH20 0xFFFFFFFFFFFFFFFFFFFFFFFFFFFFFFFFFFFFFFFF AND SUB PUSH2 0xA6F JUMPI PUSH1 0x40 MLOAD PUSH32 0xF37741D700000000000000000000000000000000000000000000000000000000 DUP2 MSTORE PUSH1 0x4 ADD PUSH1 0x40 MLOAD DUP1 SWAP2 SUB SWAP1 REVERT JUMPDEST PUSH0 PUSH1 0x2 PUSH0 SWAP1 SLOAD SWAP1 PUSH2 0x100 EXP SWAP1 DIV PUSH20 0xFFFFFFFFFFFFFFFFFFFFFFFFFFFFFFFFFFFFFFFF AND SWAP1 POP DUP1 PUSH20 0xFFFFFFFFFFFFFFFFFFFFFFFFFFFFFFFFFFFFFFFF AND PUSH4 0xB166A09F CALLER PUSH1 0x40 MLOAD DUP3 PUSH4 0xFFFFFFFF AND PUSH1 0xE0 SHL DUP2 MSTORE PUSH1 0x4 ADD PUSH2 0xACD SWAP2 SWAP1 PUSH2 0xD71 JUMP JUMPDEST PUSH1 0x20 PUSH1 0x40 MLOAD DUP1 DUP4 SUB DUP2 DUP7 GAS STATICCALL ISZERO DUP1 ISZERO PUSH2 0xAE8 JUMPI RETURNDATASIZE PUSH0 DUP1 RETURNDATACOPY RETURNDATASIZE PUSH0 REVERT JUMPDEST POP POP POP POP PUSH1 0x40 MLOAD RETURNDATASIZE PUSH1 0x1F NOT PUSH1 0x1F DUP3 ADD AND DUP3 ADD DUP1 PUSH1 0x40 MSTORE POP DUP2 ADD SWAP1 PUSH2 0xB0C SWAP2 SWAP1 PUSH2 0x10D4 JUMP JUMPDEST PUSH2 0xB4D JUMPI CALLER PUSH1 0x40 MLOAD PUSH32 0x32B2BAA300000000000000000000000000000000000000000000000000000000 DUP2 MSTORE PUSH1 0x4 ADD PUSH2 0xB44 SWAP2 SWAP1 PUSH2 0xD71 JUMP JUMPDEST PUSH1 0x40 MLOAD DUP1 SWAP2 SUB SWAP1 REVERT JUMPDEST PUSH0 PUSH1 0x1 PUSH0 SWAP1 SLOAD SWAP1 PUSH2 0x100 EXP SWAP1 DIV PUSH20 0xFFFFFFFFFFFFFFFFFFFFFFFFFFFFFFFFFFFFFFFF AND SWAP1 POP DUP1 PUSH20 0xFFFFFFFFFFFFFFFFFFFFFFFFFFFFFFFFFFFFFFFF AND PUSH4 0x930FC006 DUP7 DUP7 DUP7 PUSH1 0x40 MLOAD DUP5 PUSH4 0xFFFFFFFF AND PUSH1 0xE0 SHL DUP2 MSTORE PUSH1 0x4 ADD PUSH2 0xBAF SWAP4 SWAP3 SWAP2 SWAP1 PUSH2 0x12DD JUMP JUMPDEST PUSH0 PUSH1 0x40 MLOAD DUP1 DUP4 SUB DUP2 PUSH0 DUP8 DUP1 EXTCODESIZE ISZERO DUP1 ISZERO PUSH2 0xBC6 JUMPI PUSH0 DUP1 REVERT JUMPDEST POP GAS CALL ISZERO DUP1 ISZERO PUSH2 0xBD8 JUMPI RETURNDATASIZE PUSH0 DUP1 RETURNDATACOPY RETURNDATASIZE PUSH0 REVERT JUMPDEST POP POP POP POP POP POP POP POP POP JUMP JUMPDEST PUSH2 0xBEB PUSH2 0xD2B JUMP JUMPDEST PUSH20 0xFFFFFFFFFFFFFFFFFFFFFFFFFFFFFFFFFFFFFFFF AND PUSH2 0xC09 PUSH2 0x550 JUMP JUMPDEST PUSH20 0xFFFFFFFFFFFFFFFFFFFFFFFFFFFFFFFFFFFFFFFF AND EQ PUSH2 0xC68 JUMPI PUSH2 0xC2C PUSH2 0xD2B JUMP JUMPDEST PUSH1 0x40 MLOAD PUSH32 0x118CDAA700000000000000000000000000000000000000000000000000000000 DUP2 MSTORE PUSH1 0x4 ADD PUSH2 0xC5F SWAP2 SWAP1 PUSH2 0xD71 JUMP JUMPDEST PUSH1 0x40 MLOAD DUP1 SWAP2 SUB SWAP1 REVERT JUMPDEST JUMP JUMPDEST PUSH0 DUP1 PUSH0 SWAP1 SLOAD SWAP1 PUSH2 0x100 EXP SWAP1 DIV PUSH20 0xFFFFFFFFFFFFFFFFFFFFFFFFFFFFFFFFFFFFFFFF AND SWAP1 POP DUP2 PUSH0 DUP1 PUSH2 0x100 EXP DUP2 SLOAD DUP2 PUSH20 0xFFFFFFFFFFFFFFFFFFFFFFFFFFFFFFFFFFFFFFFF MUL NOT AND SWAP1 DUP4 PUSH20 0xFFFFFFFFFFFFFFFFFFFFFFFFFFFFFFFFFFFFFFFF AND MUL OR SWAP1 SSTORE POP DUP2 PUSH20 0xFFFFFFFFFFFFFFFFFFFFFFFFFFFFFFFFFFFFFFFF AND DUP2 PUSH20 0xFFFFFFFFFFFFFFFFFFFFFFFFFFFFFFFFFFFFFFFF AND PUSH32 0x8BE0079C531659141344CD1FD0A4F28419497F9722A3DAAFE3B4186F6B6457E0 PUSH1 0x40 MLOAD PUSH1 0x40 MLOAD DUP1 SWAP2 SUB SWAP1 LOG3 POP POP JUMP JUMPDEST PUSH0 CALLER SWAP1 POP SWAP1 JUMP JUMPDEST PUSH0 PUSH20 0xFFFFFFFFFFFFFFFFFFFFFFFFFFFFFFFFFFFFFFFF DUP3 AND SWAP1 POP SWAP2 SWAP1 POP JUMP JUMPDEST PUSH0 PUSH2 0xD5B DUP3 PUSH2 0xD32 JUMP JUMPDEST SWAP1 POP SWAP2 SWAP1 POP JUMP JUMPDEST PUSH2 0xD6B DUP2 PUSH2 0xD51 JUMP JUMPDEST DUP3 MSTORE POP POP JUMP JUMPDEST PUSH0 PUSH1 0x20 DUP3 ADD SWAP1 POP PUSH2 0xD84 PUSH0 DUP4 ADD DUP5 PUSH2 0xD62 JUMP JUMPDEST SWAP3 SWAP2 POP POP JUMP JUMPDEST PUSH0 DUP2 MLOAD SWAP1 POP SWAP2 SWAP1 POP JUMP JUMPDEST PUSH0 DUP3 DUP3 MSTORE PUSH1 0x20 DUP3 ADD SWAP1 POP SWAP3 SWAP2 POP POP JUMP JUMPDEST DUP3 DUP2 DUP4 MCOPY PUSH0 DUP4 DUP4 ADD MSTORE POP POP POP JUMP JUMPDEST PUSH0 PUSH1 0x1F NOT PUSH1 0x1F DUP4 ADD AND SWAP1 POP SWAP2 SWAP1 POP JUMP JUMPDEST PUSH0 PUSH2 0xDCC DUP3 PUSH2 0xD8A JUMP JUMPDEST PUSH2 0xDD6 DUP2 DUP6 PUSH2 0xD94 JUMP JUMPDEST SWAP4 POP PUSH2 0xDE6 DUP2 DUP6 PUSH1 0x20 DUP7 ADD PUSH2 0xDA4 JUMP JUMPDEST PUSH2 0xDEF DUP2 PUSH2 0xDB2 JUMP JUMPDEST DUP5 ADD SWAP2 POP POP SWAP3 SWAP2 POP POP JUMP JUMPDEST PUSH0 PUSH1 0x20 DUP3 ADD SWAP1 POP DUP2 DUP2 SUB PUSH0 DUP4 ADD MSTORE PUSH2 0xE12 DUP2 DUP5 PUSH2 0xDC2 JUMP JUMPDEST SWAP1 POP SWAP3 SWAP2 POP POP JUMP JUMPDEST PUSH0 DUP2 SWAP1 POP SWAP2 SWAP1 POP JUMP JUMPDEST PUSH0 PUSH2 0xE3D PUSH2 0xE38 PUSH2 0xE33 DUP5 PUSH2 0xD32 JUMP JUMPDEST PUSH2 0xE1A JUMP JUMPDEST PUSH2 0xD32 JUMP JUMPDEST SWAP1 POP SWAP2 SWAP1 POP JUMP JUMPDEST PUSH0 PUSH2 0xE4E DUP3 PUSH2 0xE23 JUMP JUMPDEST SWAP1 POP SWAP2 SWAP1 POP JUMP JUMPDEST PUSH0 PUSH2 0xE5F DUP3 PUSH2 0xE44 JUMP JUMPDEST SWAP1 POP SWAP2 SWAP1 POP JUMP JUMPDEST PUSH2 0xE6F DUP2 PUSH2 0xE55 JUMP JUMPDEST DUP3 MSTORE POP POP JUMP JUMPDEST PUSH0 PUSH1 0x20 DUP3 ADD SWAP1 POP PUSH2 0xE88 PUSH0 DUP4 ADD DUP5 PUSH2 0xE66 JUMP JUMPDEST SWAP3 SWAP2 POP POP JUMP JUMPDEST PUSH0 DUP2 ISZERO ISZERO SWAP1 POP SWAP2 SWAP1 POP JUMP JUMPDEST PUSH2 0xEA2 DUP2 PUSH2 0xE8E JUMP JUMPDEST DUP3 MSTORE POP POP JUMP JUMPDEST PUSH0 PUSH1 0x20 DUP3 ADD SWAP1 POP PUSH2 0xEBB PUSH0 DUP4 ADD DUP5 PUSH2 0xE99 JUMP JUMPDEST SWAP3 SWAP2 POP POP JUMP JUMPDEST PUSH0 DUP1 REVERT JUMPDEST PUSH0 DUP1 REVERT JUMPDEST PUSH2 0xED2 DUP2 PUSH2 0xD51 JUMP JUMPDEST DUP2 EQ PUSH2 0xEDC JUMPI PUSH0 DUP1 REVERT JUMPDEST POP JUMP JUMPDEST PUSH0 DUP2 CALLDATALOAD SWAP1 POP PUSH2 0xEED DUP2 PUSH2 0xEC9 JUMP JUMPDEST SWAP3 SWAP2 POP POP JUMP JUMPDEST PUSH0 PUSH1 0x20 DUP3 DUP5 SUB SLT ISZERO PUSH2 0xF08 JUMPI PUSH2 0xF07 PUSH2 0xEC1 JUMP JUMPDEST JUMPDEST PUSH0 PUSH2 0xF15 DUP5 DUP3 DUP6 ADD PUSH2 0xEDF JUMP JUMPDEST SWAP2 POP POP SWAP3 SWAP2 POP POP JUMP JUMPDEST PUSH0 DUP2 SWAP1 POP SWAP2 SWAP1 POP JUMP JUMPDEST PUSH2 0xF30 DUP2 PUSH2 0xF1E JUMP JUMPDEST DUP2 EQ PUSH2 0xF3A JUMPI PUSH0 DUP1 REVERT JUMPDEST POP JUMP JUMPDEST PUSH0 DUP2 CALLDATALOAD SWAP1 POP PUSH2 0xF4B DUP2 PUSH2 0xF27 JUMP JUMPDEST SWAP3 SWAP2 POP POP JUMP JUMPDEST PUSH0 DUP1 PUSH1 0x40 DUP4 DUP6 SUB SLT ISZERO PUSH2 0xF67 JUMPI PUSH2 0xF66 PUSH2 0xEC1 JUMP JUMPDEST JUMPDEST PUSH0 PUSH2 0xF74 DUP6 DUP3 DUP7 ADD PUSH2 0xEDF JUMP JUMPDEST SWAP3 POP POP PUSH1 0x20 PUSH2 0xF85 DUP6 DUP3 DUP7 ADD PUSH2 0xF3D JUMP JUMPDEST SWAP2 POP POP SWAP3 POP SWAP3 SWAP1 POP JUMP JUMPDEST PUSH0 DUP1 REVERT JUMPDEST PUSH0 DUP1 REVERT JUMPDEST PUSH0 DUP1 REVERT JUMPDEST PUSH0 DUP1 DUP4 PUSH1 0x1F DUP5 ADD SLT PUSH2 0xFB0 JUMPI PUSH2 0xFAF PUSH2 0xF8F JUMP JUMPDEST JUMPDEST DUP3 CALLDATALOAD SWAP1 POP PUSH8 0xFFFFFFFFFFFFFFFF DUP2 GT ISZERO PUSH2 0xFCD JUMPI PUSH2 0xFCC PUSH2 0xF93 JUMP JUMPDEST JUMPDEST PUSH1 0x20 DUP4 ADD SWAP2 POP DUP4 PUSH1 0x1 DUP3 MUL DUP4 ADD GT ISZERO PUSH2 0xFE9 JUMPI PUSH2 0xFE8 PUSH2 0xF97 JUMP JUMPDEST JUMPDEST SWAP3 POP SWAP3 SWAP1 POP JUMP JUMPDEST PUSH0 DUP1 PUSH0 PUSH1 0x40 DUP5 DUP7 SUB SLT ISZERO PUSH2 0x1007 JUMPI PUSH2 0x1006 PUSH2 0xEC1 JUMP JUMPDEST JUMPDEST PUSH0 DUP5 ADD CALLDATALOAD PUSH8 0xFFFFFFFFFFFFFFFF DUP2 GT ISZERO PUSH2 0x1024 JUMPI PUSH2 0x1023 PUSH2 0xEC5 JUMP JUMPDEST JUMPDEST PUSH2 0x1030 DUP7 DUP3 DUP8 ADD PUSH2 0xF9B JUMP JUMPDEST SWAP4 POP SWAP4 POP POP PUSH1 0x20 PUSH2 0x1043 DUP7 DUP3 DUP8 ADD PUSH2 0xF3D JUMP JUMPDEST SWAP2 POP POP SWAP3 POP SWAP3 POP SWAP3 JUMP JUMPDEST PUSH32 0x4E487B7100000000000000000000000000000000000000000000000000000000 PUSH0 MSTORE PUSH1 0x22 PUSH1 0x4 MSTORE PUSH1 0x24 PUSH0 REVERT JUMPDEST PUSH0 PUSH1 0x2 DUP3 DIV SWAP1 POP PUSH1 0x1 DUP3 AND DUP1 PUSH2 0x1091 JUMPI PUSH1 0x7F DUP3 AND SWAP2 POP JUMPDEST PUSH1 0x20 DUP3 LT DUP2 SUB PUSH2 0x10A4 JUMPI PUSH2 0x10A3 PUSH2 0x104D JUMP JUMPDEST JUMPDEST POP SWAP2 SWAP1 POP JUMP JUMPDEST PUSH2 0x10B3 DUP2 PUSH2 0xE8E JUMP JUMPDEST DUP2 EQ PUSH2 0x10BD JUMPI PUSH0 DUP1 REVERT JUMPDEST POP JUMP JUMPDEST PUSH0 DUP2 MLOAD SWAP1 POP PUSH2 0x10CE DUP2 PUSH2 0x10AA JUMP JUMPDEST SWAP3 SWAP2 POP POP JUMP JUMPDEST PUSH0 PUSH1 0x20 DUP3 DUP5 SUB SLT ISZERO PUSH2 0x10E9 JUMPI PUSH2 0x10E8 PUSH2 0xEC1 JUMP JUMPDEST JUMPDEST PUSH0 PUSH2 0x10F6 DUP5 DUP3 DUP6 ADD PUSH2 0x10C0 JUMP JUMPDEST SWAP2 POP POP SWAP3 SWAP2 POP POP JUMP JUMPDEST PUSH0 DUP2 SWAP1 POP DUP2 PUSH0 MSTORE PUSH1 0x20 PUSH0 KECCAK256 SWAP1 POP SWAP2 SWAP1 POP JUMP JUMPDEST PUSH0 DUP2 SLOAD PUSH2 0x111D DUP2 PUSH2 0x107A JUMP JUMPDEST PUSH2 0x1127 DUP2 DUP7 PUSH2 0xD94 JUMP JUMPDEST SWAP5 POP PUSH1 0x1 DUP3 AND PUSH0 DUP2 EQ PUSH2 0x1141 JUMPI PUSH1 0x1 DUP2 EQ PUSH2 0x1157 JUMPI PUSH2 0x1189 JUMP JUMPDEST PUSH1 0xFF NOT DUP4 AND DUP7 MSTORE DUP2 ISZERO ISZERO PUSH1 0x20 MUL DUP7 ADD SWAP4 POP PUSH2 0x1189 JUMP JUMPDEST PUSH2 0x1160 DUP6 PUSH2 0x10FF JUMP JUMPDEST PUSH0 JUMPDEST DUP4 DUP2 LT ISZERO PUSH2 0x1181 JUMPI DUP2 SLOAD DUP2 DUP10 ADD MSTORE PUSH1 0x1 DUP3 ADD SWAP2 POP PUSH1 0x20 DUP2 ADD SWAP1 POP PUSH2 0x1162 JUMP JUMPDEST DUP1 DUP9 ADD SWAP6 POP POP POP JUMPDEST POP POP POP SWAP3 SWAP2 POP POP JUMP JUMPDEST PUSH0 DUP2 MLOAD SWAP1 POP SWAP2 SWAP1 POP JUMP JUMPDEST PUSH0 DUP3 DUP3 MSTORE PUSH1 0x20 DUP3 ADD SWAP1 POP SWAP3 SWAP2 POP POP JUMP JUMPDEST PUSH0 PUSH2 0x11B6 DUP3 PUSH2 0x1192 JUMP JUMPDEST PUSH2 0x11C0 DUP2 DUP6 PUSH2 0x119C JUMP JUMPDEST SWAP4 POP PUSH2 0x11D0 DUP2 DUP6 PUSH1 0x20 DUP7 ADD PUSH2 0xDA4 JUMP JUMPDEST PUSH2 0x11D9 DUP2 PUSH2 0xDB2 JUMP JUMPDEST DUP5 ADD SWAP2 POP POP SWAP3 SWAP2 POP POP JUMP JUMPDEST PUSH0 PUSH1 0xA0 DUP3 ADD SWAP1 POP PUSH2 0x11F7 PUSH0 DUP4 ADD DUP9 PUSH2 0xD62 JUMP JUMPDEST DUP2 DUP2 SUB PUSH1 0x20 DUP4 ADD MSTORE PUSH2 0x1209 DUP2 DUP8 PUSH2 0x1111 JUMP JUMPDEST SWAP1 POP DUP2 DUP2 SUB PUSH1 0x40 DUP4 ADD MSTORE PUSH2 0x121D DUP2 DUP7 PUSH2 0x1111 JUMP JUMPDEST SWAP1 POP DUP2 DUP2 SUB PUSH1 0x60 DUP4 ADD MSTORE PUSH2 0x1231 DUP2 DUP6 PUSH2 0x11AC JUMP JUMPDEST SWAP1 POP PUSH2 0x1240 PUSH1 0x80 DUP4 ADD DUP5 PUSH2 0xD62 JUMP JUMPDEST SWAP7 SWAP6 POP POP POP POP POP POP JUMP JUMPDEST PUSH0 PUSH1 0x60 DUP3 ADD SWAP1 POP DUP2 DUP2 SUB PUSH0 DUP4 ADD MSTORE PUSH2 0x1262 DUP2 DUP7 PUSH2 0x1111 JUMP JUMPDEST SWAP1 POP DUP2 DUP2 SUB PUSH1 0x20 DUP4 ADD MSTORE PUSH2 0x1276 DUP2 DUP6 PUSH2 0x1111 JUMP JUMPDEST SWAP1 POP DUP2 DUP2 SUB PUSH1 0x40 DUP4 ADD MSTORE PUSH2 0x128A DUP2 DUP5 PUSH2 0x11AC JUMP JUMPDEST SWAP1 POP SWAP5 SWAP4 POP POP POP POP JUMP JUMPDEST DUP3 DUP2 DUP4 CALLDATACOPY PUSH0 DUP4 DUP4 ADD MSTORE POP POP POP JUMP JUMPDEST PUSH0 PUSH2 0x12AD DUP4 DUP6 PUSH2 0x119C JUMP JUMPDEST SWAP4 POP PUSH2 0x12BA DUP4 DUP6 DUP5 PUSH2 0x1294 JUMP JUMPDEST PUSH2 0x12C3 DUP4 PUSH2 0xDB2 JUMP JUMPDEST DUP5 ADD SWAP1 POP SWAP4 SWAP3 POP POP POP JUMP JUMPDEST PUSH2 0x12D7 DUP2 PUSH2 0xF1E JUMP JUMPDEST DUP3 MSTORE POP POP JUMP JUMPDEST PUSH0 PUSH1 0x40 DUP3 ADD SWAP1 POP DUP2 DUP2 SUB PUSH0 DUP4 ADD MSTORE PUSH2 0x12F6 DUP2 DUP6 DUP8 PUSH2 0x12A2 JUMP JUMPDEST SWAP1 POP PUSH2 0x1305 PUSH1 0x20 DUP4 ADD DUP5 PUSH2 0x12CE JUMP JUMPDEST SWAP5 SWAP4 POP POP POP POP JUMP INVALID LOG2 PUSH5 0x6970667358 0x22 SLT KECCAK256 0xAC PUSH16 0xD31D3686534E642014F9BD81B152D96 0xBE 0xD7 PUSH28 0x6EE487C575D4E80F7AD06A64736F6C634300081A0033000000000000 "
				},
				"gasEstimates": {
					"creation": {
						"codeDepositCost": "986200",
						"executionCost": "infinite",
						"totalCost": "infinite"
					},
					"external": {
						"axelarGatewayAddr()": "2553",
						"destAddr()": "infinite",
						"destChain()": "infinite",
						"gasService()": "infinite",
						"grantDatacap(bytes,uint256)": "infinite",
						"grantDatacapMock(address,uint256)": "infinite",
						"hasAccess()": "infinite",
						"mockAllocator()": "2509",
						"owner()": "2538",
						"renounceOwnership()": "infinite",
						"setStorageProviderEscrowFactory(address)": "infinite",
						"storageProviderEscrowFactoryAddr()": "2530",
						"transferOwnership(address)": "infinite"
					}
				},
				"methodIdentifiers": {
					"axelarGatewayAddr()": "4cae3185",
					"destAddr()": "25d83b7a",
					"destChain()": "bc95b3b1",
					"gasService()": "6a22d8cc",
					"grantDatacap(bytes,uint256)": "f4bd456d",
					"grantDatacapMock(address,uint256)": "ca09c885",
					"hasAccess()": "85a2dd15",
					"mockAllocator()": "0f2a7dd3",
					"owner()": "8da5cb5b",
					"renounceOwnership()": "715018a6",
					"setStorageProviderEscrowFactory(address)": "9b85622c",
					"storageProviderEscrowFactoryAddr()": "bcaf0d9a",
					"transferOwnership(address)": "f2fde38b"
				}
			},
			"storageLayout": {
				"storage": [
					{
						"astId": 728,
						"contract": "contracts/16_DatacapGatewayAxelar.sol:DatacapGatewayAxelar",
						"label": "_owner",
						"offset": 0,
						"slot": "0",
						"type": "t_address"
					},
					{
						"astId": 917,
						"contract": "contracts/16_DatacapGatewayAxelar.sol:DatacapGatewayAxelar",
						"label": "mockAllocator",
						"offset": 0,
						"slot": "1",
						"type": "t_address"
					},
					{
						"astId": 919,
						"contract": "contracts/16_DatacapGatewayAxelar.sol:DatacapGatewayAxelar",
						"label": "storageProviderEscrowFactoryAddr",
						"offset": 0,
						"slot": "2",
						"type": "t_address"
					},
					{
						"astId": 921,
						"contract": "contracts/16_DatacapGatewayAxelar.sol:DatacapGatewayAxelar",
						"label": "axelarGatewayAddr",
						"offset": 0,
						"slot": "3",
						"type": "t_address"
					},
					{
						"astId": 926,
						"contract": "contracts/16_DatacapGatewayAxelar.sol:DatacapGatewayAxelar",
						"label": "destChain",
						"offset": 0,
						"slot": "4",
						"type": "t_string_storage"
					},
					{
						"astId": 928,
						"contract": "contracts/16_DatacapGatewayAxelar.sol:DatacapGatewayAxelar",
						"label": "destAddr",
						"offset": 0,
						"slot": "5",
						"type": "t_string_storage"
					}
				],
				"types": {
					"t_address": {
						"encoding": "inplace",
						"label": "address",
						"numberOfBytes": "20"
					},
					"t_string_storage": {
						"encoding": "bytes",
						"label": "string",
						"numberOfBytes": "32"
					}
				}
			},
			"userdoc": {
				"kind": "user",
				"methods": {},
				"version": 1
			}
		}
	}
}