{
	"data": {
		"bytecode": {
			"linkReferences": {},
			"object": "60a06040523073ffffffffffffffffffffffffffffffffffffffff1660809073ffffffffffffffffffffffffffffffffffffffff16815250348015610042575f80fd5b5060405161281b38038061281b83398181016040528101906100649190610256565b6100726100b860201b60201c565b8060035f6101000a81548173ffffffffffffffffffffffffffffffffffffffff021916908373ffffffffffffffffffffffffffffffffffffffff160217905550506102bc565b5f6100c76101b660201b60201c565b9050805f0160089054906101000a900460ff1615610111576040517ff92ee8a900000000000000000000000000000000000000000000000000000000815260040160405180910390fd5b67ffffffffffffffff8016815f015f9054906101000a900467ffffffffffffffff1667ffffffffffffffff16146101b35767ffffffffffffffff815f015f6101000a81548167ffffffffffffffff021916908367ffffffffffffffff1602179055507fc7f505b2f371ae2175ee4913f4499e1f2633a7b5936321eed1cdaeb6115181d267ffffffffffffffff6040516101aa91906102a3565b60405180910390a15b50565b5f806101c66101cf60201b60201c565b90508091505090565b5f7ff0c57e16840df040f15088dc2f81fe391c3923bec73e23a9662efc9c229c6a005f1b905090565b5f80fd5b5f73ffffffffffffffffffffffffffffffffffffffff82169050919050565b5f610225826101fc565b9050919050565b6102358161021b565b811461023f575f80fd5b50565b5f815190506102508161022c565b92915050565b5f6020828403121561026b5761026a6101f8565b5b5f61027884828501610242565b91505092915050565b5f67ffffffffffffffff82169050919050565b61029d81610281565b82525050565b5f6020820190506102b65f830184610294565b92915050565b6080516125396102e25f395f8181610d2801528181610d7d0152610f3701526125395ff3fe6080604052600436106100e7575f3560e01c80638da5cb5b11610089578063e0591efd11610058578063e0591efd1461028f578063e30c3978146102b9578063f2fde38b146102e3578063f3c40c4b1461030b576100e7565b80638da5cb5b146101eb578063930fc00614610215578063ad3cb1cc1461023d578063c4d66de814610267576100e7565b80634f1ef286116100c55780634f1ef2861461017957806352d1902d14610195578063715018a6146101bf57806379ba5097146101d5576100e7565b806304951d64146100eb578063310ec4a7146101155780633e5beab91461013d575b5f80fd5b3480156100f6575f80fd5b506100ff610333565b60405161010c9190611d88565b60405180910390f35b348015610120575f80fd5b5061013b60048036038101906101369190611e16565b610343565b005b348015610148575f80fd5b50610163600480360381019061015e9190611e54565b610495565b6040516101709190611e8e565b60405180910390f35b610193600480360381019061018e9190611fe3565b6104b4565b005b3480156101a0575f80fd5b506101a96104d3565b6040516101b69190612055565b60405180910390f35b3480156101ca575f80fd5b506101d3610504565b005b3480156101e0575f80fd5b506101e961053e565b005b3480156101f6575f80fd5b506101ff6105cc565b60405161020c919061207d565b60405180910390f35b348015610220575f80fd5b5061023b600480360381019061023691906120f3565b610601565b005b348015610248575f80fd5b50610251610845565b60405161025e91906121b0565b60405180910390f35b348015610272575f80fd5b5061028d60048036038101906102889190611e54565b61087e565b005b34801561029a575f80fd5b506102a3610a07565b6040516102b0919061207d565b60405180910390f35b3480156102c4575f80fd5b506102cd610a2c565b6040516102da919061207d565b60405180910390f35b3480156102ee575f80fd5b5061030960048036038101906103049190611e54565b610a61565b005b348015610316575f80fd5b50610331600480360381019061032c9190611e16565b610b1a565b005b606061033e5f610be5565b905090565b61034b610c04565b5f61035583610495565b90505f8114801561036557505f82145b1561039c576040517f5657d5eb00000000000000000000000000000000000000000000000000000000815260040160405180910390fd5b5f811180156103aa57505f82115b156103e1576040517f494d149300000000000000000000000000000000000000000000000000000000815260040160405180910390fd5b5f811480156103ef57505f82115b1561040f5761040983835f610c8b9092919063ffffffff16565b50610438565b5f8111801561041d57505f82145b1561043757610435835f610cbc90919063ffffffff16565b505b5b8273ffffffffffffffffffffffffffffffffffffffff167fd30aeeeb3755c0784618bd3ff45998e5b4be082df174ed87c3a79f37e2fb56a68261047a86610495565b6040516104889291906121d0565b60405180910390a2505050565b5f6104a9825f610ce990919063ffffffff16565b905080915050919050565b6104bc610d26565b6104c582610e0c565b6104cf8282610e17565b5050565b5f6104dc610f35565b7f360894a13ba1a3210667c828492db98dca3e2076cc3735a920a3ca505d382bbc5f1b905090565b61050c610c04565b6040517fbf24148800000000000000000000000000000000000000000000000000000000815260040160405180910390fd5b5f610547610fbc565b90508073ffffffffffffffffffffffffffffffffffffffff16610568610a2c565b73ffffffffffffffffffffffffffffffffffffffff16146105c057806040517f118cdaa70000000000000000000000000000000000000000000000000000000081526004016105b7919061207d565b60405180910390fd5b6105c981610fc3565b50565b5f806105d6611000565b9050805f015f9054906101000a900473ffffffffffffffffffffffffffffffffffffffff1691505090565b5f810361063a576040517fb0da7f3400000000000000000000000000000000000000000000000000000000815260040160405180910390fd5b5f61064433610495565b905081811015610680576040517f13be252b00000000000000000000000000000000000000000000000000000000815260040160405180910390fd5b5f828261068d9190612224565b036106ab576106a5335f610cbc90919063ffffffff16565b506106cd565b6106cb3383836106bb9190612224565b5f610c8b9092919063ffffffff16565b505b83836040516106dd929190612285565b60405180910390203373ffffffffffffffffffffffffffffffffffffffff167f9b88bd178c90ce12441ff8588a493795e519ac037930d64fdb0d15de4fb53e378460405161072b9190611e8e565b60405180910390a35f61078085858080601f0160208091040260200160405190810160405280939291908181526020018383808284375f81840152601f19601f82011690508083019250505050505050611027565b90505f61078c82611089565b90505f61079882611163565b90505f60035f9054906101000a900473ffffffffffffffffffffffffffffffffffffffff1690508073ffffffffffffffffffffffffffffffffffffffff1663a9059cbb83886040518363ffffffff1660e01b81526004016107fa92919061229d565b6020604051808303815f875af1158015610816573d5f803e3d5ffd5b505050506040513d601f19601f8201168201806040525081019061083a91906122f9565b505050505050505050565b6040518060400160405280600581526020017f352e302e3000000000000000000000000000000000000000000000000000000081525081565b5f610887611196565b90505f815f0160089054906101000a900460ff161590505f825f015f9054906101000a900467ffffffffffffffff1690505f808267ffffffffffffffff161480156108cf5750825b90505f60018367ffffffffffffffff1614801561090257505f3073ffffffffffffffffffffffffffffffffffffffff163b145b905081158015610910575080155b15610947576040517ff92ee8a900000000000000000000000000000000000000000000000000000000815260040160405180910390fd5b6001855f015f6101000a81548167ffffffffffffffff021916908367ffffffffffffffff1602179055508315610994576001855f0160086101000a81548160ff0219169083151502179055505b61099d866111a9565b6109a56111bd565b83156109ff575f855f0160086101000a81548160ff0219169083151502179055507fc7f505b2f371ae2175ee4913f4499e1f2633a7b5936321eed1cdaeb6115181d260016040516109f69190612379565b60405180910390a15b505050505050565b60035f9054906101000a900473ffffffffffffffffffffffffffffffffffffffff1681565b5f80610a366111c7565b9050805f015f9054906101000a900473ffffffffffffffffffffffffffffffffffffffff1691505090565b610a69610c04565b5f610a726111c7565b905081815f015f6101000a81548173ffffffffffffffffffffffffffffffffffffffff021916908373ffffffffffffffffffffffffffffffffffffffff1602179055508173ffffffffffffffffffffffffffffffffffffffff16610ad46105cc565b73ffffffffffffffffffffffffffffffffffffffff167f38d16b8cac22d99fc7c124b9cd0de2d3fa1faef420bfe791d8c362d765e2270060405160405180910390a35050565b610b22610c04565b5f8103610b5b576040517fb0da7f3400000000000000000000000000000000000000000000000000000000815260040160405180910390fd5b5f610b6583610495565b9050610b87838383610b779190612392565b5f610c8b9092919063ffffffff16565b508273ffffffffffffffffffffffffffffffffffffffff167fd30aeeeb3755c0784618bd3ff45998e5b4be082df174ed87c3a79f37e2fb56a682610bca86610495565b604051610bd89291906121d0565b60405180910390a2505050565b60605f610bf3835f016111ee565b905060608190508092505050919050565b610c0c610fbc565b73ffffffffffffffffffffffffffffffffffffffff16610c2a6105cc565b73ffffffffffffffffffffffffffffffffffffffff1614610c8957610c4d610fbc565b6040517f118cdaa7000000000000000000000000000000000000000000000000000000008152600401610c80919061207d565b60405180910390fd5b565b5f610cb3845f018473ffffffffffffffffffffffffffffffffffffffff165f1b845f1b611202565b90509392505050565b5f610ce1835f018373ffffffffffffffffffffffffffffffffffffffff165f1b611239565b905092915050565b5f805f80610d11865f018673ffffffffffffffffffffffffffffffffffffffff165f1b61126d565b9150915081815f1c9350935050509250929050565b7f000000000000000000000000000000000000000000000000000000000000000073ffffffffffffffffffffffffffffffffffffffff163073ffffffffffffffffffffffffffffffffffffffff161480610dd357507f000000000000000000000000000000000000000000000000000000000000000073ffffffffffffffffffffffffffffffffffffffff16610dba6112b6565b73ffffffffffffffffffffffffffffffffffffffff1614155b15610e0a576040517fe07c8dba00000000000000000000000000000000000000000000000000000000815260040160405180910390fd5b565b610e14610c04565b50565b8173ffffffffffffffffffffffffffffffffffffffff166352d1902d6040518163ffffffff1660e01b8152600401602060405180830381865afa925050508015610e7f57506040513d601f19601f82011682018060405250810190610e7c91906123ef565b60015b610ec057816040517f4c9c8ce3000000000000000000000000000000000000000000000000000000008152600401610eb7919061207d565b60405180910390fd5b7f360894a13ba1a3210667c828492db98dca3e2076cc3735a920a3ca505d382bbc5f1b8114610f2657806040517faa1d49a4000000000000000000000000000000000000000000000000000000008152600401610f1d9190612055565b60405180910390fd5b610f308383611309565b505050565b7f000000000000000000000000000000000000000000000000000000000000000073ffffffffffffffffffffffffffffffffffffffff163073ffffffffffffffffffffffffffffffffffffffff1614610fba576040517fe07c8dba00000000000000000000000000000000000000000000000000000000815260040160405180910390fd5b565b5f33905090565b5f610fcc6111c7565b9050805f015f6101000a81549073ffffffffffffffffffffffffffffffffffffffff0219169055610ffc8261137b565b5050565b5f7f9016d09d72d40fdae2fd8ceac6b6234c7706214fd39c1cd1e609a0528c199300905090565b61102f611c8e565b5f604051806020016040528084815250905061104a8161144c565b611080576040517fe6c4247b00000000000000000000000000000000000000000000000000000000815260040160405180910390fd5b80915050919050565b5f805f73fe0000000000000000000000000000000000000173ffffffffffffffffffffffffffffffffffffffff16845f01516040516110c89190612454565b5f60405180830381855afa9150503d805f8114611100576040519150601f19603f3d011682016040523d82523d5f602084013e611105565b606091505b509150915081611141576040517f8a7db5bf00000000000000000000000000000000000000000000000000000000815260040160405180910390fd5b5f81806020019051810190611156919061247e565b9050809350505050919050565b5f805f61116f84611621565b915091508115611183578092505050611191565b61118c846116a6565b925050505b919050565b5f806111a06116c5565b90508091505090565b6111b16116ee565b6111ba8161172e565b50565b6111c56116ee565b565b5f7f237e158222e3e6968b72b9db0d8043aacf074ad9f650f0d1606b4d82ee432c00905090565b60606111fb825f016117b2565b9050919050565b5f81846002015f8581526020019081526020015f208190555061123083855f016117d190919063ffffffff16565b90509392505050565b5f826002015f8381526020019081526020015f205f905561126582845f016117e690919063ffffffff16565b905092915050565b5f805f846002015f8581526020019081526020015f205490505f801b81036112a65761129985856117fb565b5f801b92509250506112af565b60018192509250505b9250929050565b5f6112e27f360894a13ba1a3210667c828492db98dca3e2076cc3735a920a3ca505d382bbc5f1b611819565b5f015f9054906101000a900473ffffffffffffffffffffffffffffffffffffffff16905090565b61131282611822565b8173ffffffffffffffffffffffffffffffffffffffff167fbc7cd75a20ee27fd9adebab32041f755214dbc6bffa90cc0225b39da2e5c2d3b60405160405180910390a25f8151111561136e5761136882826118eb565b50611377565b61137661196b565b5b5050565b5f611384611000565b90505f815f015f9054906101000a900473ffffffffffffffffffffffffffffffffffffffff16905082825f015f6101000a81548173ffffffffffffffffffffffffffffffffffffffff021916908373ffffffffffffffffffffffffffffffffffffffff1602179055508273ffffffffffffffffffffffffffffffffffffffff168173ffffffffffffffffffffffffffffffffffffffff167f8be0079c531659141344cd1fd0a4f28419497f9722a3daafe3b4186f6b6457e060405160405180910390a3505050565b5f8060f81b825f01515f81518110611467576114666124a9565b5b602001015160f81c60f81b7effffffffffffffffffffffffffffffffffffffffffffffffffffffffffffff1916036114a957600a825f0151511115905061161c565b600160f81b825f01515f815181106114c4576114c36124a9565b5b602001015160f81c60f81b7effffffffffffffffffffffffffffffffffffffffffffffffffffffffffffff191614806115425750600260f81b825f01515f81518110611513576115126124a9565b5b602001015160f81c60f81b7effffffffffffffffffffffffffffffffffffffffffffffffffffffffffffff1916145b15611556576015825f01515114905061161c565b600360f81b825f01515f81518110611571576115706124a9565b5b602001015160f81c60f81b7effffffffffffffffffffffffffffffffffffffffffffffffffffffffffffff1916036115b2576031825f01515114905061161c565b600460f81b825f01515f815181106115cd576115cc6124a9565b5b602001015160f81c60f81b7effffffffffffffffffffffffffffffffffffffffffffffffffffffffffffff19160361160f576040825f0151511115905061161c565b610100825f015151111590505b919050565b5f80825f526016600a60205f73fe000000000000000000000000000000000000025afa91505f518073ffffffffffffffffffffffffffffffffffffffff1691508060a01c61ffff1661040a8114611679575f93505f92505b50508115806116905750601661168d6119a7565b14155b156116a0575f80915091506116a1565b5b915091565b5f8173ff00000000000000000000000000000000000000179050919050565b5f7ff0c57e16840df040f15088dc2f81fe391c3923bec73e23a9662efc9c229c6a005f1b905090565b6116f66119ae565b61172c576040517fd7e6bcf800000000000000000000000000000000000000000000000000000000815260040160405180910390fd5b565b6117366116ee565b5f73ffffffffffffffffffffffffffffffffffffffff168173ffffffffffffffffffffffffffffffffffffffff16036117a6575f6040517f1e4fbdf700000000000000000000000000000000000000000000000000000000815260040161179d919061207d565b60405180910390fd5b6117af81610fc3565b50565b60605f6117c0835f016119cc565b905060608190508092505050919050565b5f6117de835f0183611a25565b905092915050565b5f6117f3835f0183611a8c565b905092915050565b5f61181182845f01611b8890919063ffffffff16565b905092915050565b5f819050919050565b5f8173ffffffffffffffffffffffffffffffffffffffff163b0361187d57806040517f4c9c8ce3000000000000000000000000000000000000000000000000000000008152600401611874919061207d565b60405180910390fd5b806118a97f360894a13ba1a3210667c828492db98dca3e2076cc3735a920a3ca505d382bbc5f1b611819565b5f015f6101000a81548173ffffffffffffffffffffffffffffffffffffffff021916908373ffffffffffffffffffffffffffffffffffffffff16021790555050565b60605f808473ffffffffffffffffffffffffffffffffffffffff16846040516119149190612454565b5f60405180830381855af49150503d805f811461194c576040519150601f19603f3d011682016040523d82523d5f602084013e611951565b606091505b5091509150611961858383611b9d565b9250505092915050565b5f3411156119a5576040517fb398979f00000000000000000000000000000000000000000000000000000000815260040160405180910390fd5b565b5f3d905090565b5f6119b7611196565b5f0160089054906101000a900460ff16905090565b6060815f01805480602002602001604051908101604052809291908181526020018280548015611a1957602002820191905f5260205f20905b815481526020019060010190808311611a05575b50505050509050919050565b5f611a308383611c2a565b611a8257825f0182908060018154018082558091505060019003905f5260205f20015f9091909190915055825f0180549050836001015f8481526020019081526020015f208190555060019050611a86565b5f90505b92915050565b5f80836001015f8481526020019081526020015f205490505f8114611b7d575f600182611ab99190612224565b90505f6001865f0180549050611acf9190612224565b9050808214611b35575f865f018281548110611aee57611aed6124a9565b5b905f5260205f200154905080875f018481548110611b0f57611b0e6124a9565b5b905f5260205f20018190555083876001015f8381526020019081526020015f2081905550505b855f01805480611b4857611b476124d6565b5b600190038181905f5260205f20015f90559055856001015f8681526020019081526020015f205f905560019350505050611b82565b5f9150505b92915050565b5f611b95835f0183611c2a565b905092915050565b606082611bb257611bad82611c4a565b611c22565b5f8251148015611bd857505f8473ffffffffffffffffffffffffffffffffffffffff163b145b15611c1a57836040517f9996b315000000000000000000000000000000000000000000000000000000008152600401611c11919061207d565b60405180910390fd5b819050611c23565b5b9392505050565b5f80836001015f8481526020019081526020015f20541415905092915050565b5f81511115611c5c5780518082602001fd5b6040517fd6bda27500000000000000000000000000000000000000000000000000000000815260040160405180910390fd5b6040518060200160405280606081525090565b5f81519050919050565b5f82825260208201905092915050565b5f819050602082019050919050565b5f73ffffffffffffffffffffffffffffffffffffffff82169050919050565b5f611cf382611cca565b9050919050565b611d0381611ce9565b82525050565b5f611d148383611cfa565b60208301905092915050565b5f602082019050919050565b5f611d3682611ca1565b611d408185611cab565b9350611d4b83611cbb565b805f5b83811015611d7b578151611d628882611d09565b9750611d6d83611d20565b925050600181019050611d4e565b5085935050505092915050565b5f6020820190508181035f830152611da08184611d2c565b905092915050565b5f604051905090565b5f80fd5b5f80fd5b611dc281611ce9565b8114611dcc575f80fd5b50565b5f81359050611ddd81611db9565b92915050565b5f819050919050565b611df581611de3565b8114611dff575f80fd5b50565b5f81359050611e1081611dec565b92915050565b5f8060408385031215611e2c57611e2b611db1565b5b5f611e3985828601611dcf565b9250506020611e4a85828601611e02565b9150509250929050565b5f60208284031215611e6957611e68611db1565b5b5f611e7684828501611dcf565b91505092915050565b611e8881611de3565b82525050565b5f602082019050611ea15f830184611e7f565b92915050565b5f80fd5b5f80fd5b5f601f19601f8301169050919050565b7f4e487b71000000000000000000000000000000000000000000000000000000005f52604160045260245ffd5b611ef582611eaf565b810181811067ffffffffffffffff82111715611f1457611f13611ebf565b5b80604052505050565b5f611f26611da8565b9050611f328282611eec565b919050565b5f67ffffffffffffffff821115611f5157611f50611ebf565b5b611f5a82611eaf565b9050602081019050919050565b828183375f83830152505050565b5f611f87611f8284611f37565b611f1d565b905082815260208101848484011115611fa357611fa2611eab565b5b611fae848285611f67565b509392505050565b5f82601f830112611fca57611fc9611ea7565b5b8135611fda848260208601611f75565b91505092915050565b5f8060408385031215611ff957611ff8611db1565b5b5f61200685828601611dcf565b925050602083013567ffffffffffffffff81111561202757612026611db5565b5b61203385828601611fb6565b9150509250929050565b5f819050919050565b61204f8161203d565b82525050565b5f6020820190506120685f830184612046565b92915050565b61207781611ce9565b82525050565b5f6020820190506120905f83018461206e565b92915050565b5f80fd5b5f80fd5b5f8083601f8401126120b3576120b2611ea7565b5b8235905067ffffffffffffffff8111156120d0576120cf612096565b5b6020830191508360018202830111156120ec576120eb61209a565b5b9250929050565b5f805f6040848603121561210a57612109611db1565b5b5f84013567ffffffffffffffff81111561212757612126611db5565b5b6121338682870161209e565b9350935050602061214686828701611e02565b9150509250925092565b5f81519050919050565b5f82825260208201905092915050565b8281835e5f83830152505050565b5f61218282612150565b61218c818561215a565b935061219c81856020860161216a565b6121a581611eaf565b840191505092915050565b5f6020820190508181035f8301526121c88184612178565b905092915050565b5f6040820190506121e35f830185611e7f565b6121f06020830184611e7f565b9392505050565b7f4e487b71000000000000000000000000000000000000000000000000000000005f52601160045260245ffd5b5f61222e82611de3565b915061223983611de3565b9250828203905081811115612251576122506121f7565b5b92915050565b5f81905092915050565b5f61226c8385612257565b9350612279838584611f67565b82840190509392505050565b5f612291828486612261565b91508190509392505050565b5f6040820190506122b05f83018561206e565b6122bd6020830184611e7f565b9392505050565b5f8115159050919050565b6122d8816122c4565b81146122e2575f80fd5b50565b5f815190506122f3816122cf565b92915050565b5f6020828403121561230e5761230d611db1565b5b5f61231b848285016122e5565b91505092915050565b5f819050919050565b5f67ffffffffffffffff82169050919050565b5f819050919050565b5f61236361235e61235984612324565b612340565b61232d565b9050919050565b61237381612349565b82525050565b5f60208201905061238c5f83018461236a565b92915050565b5f61239c82611de3565b91506123a783611de3565b92508282019050808211156123bf576123be6121f7565b5b92915050565b6123ce8161203d565b81146123d8575f80fd5b50565b5f815190506123e9816123c5565b92915050565b5f6020828403121561240457612403611db1565b5b5f612411848285016123db565b91505092915050565b5f81519050919050565b5f61242e8261241a565b6124388185612257565b935061244881856020860161216a565b80840191505092915050565b5f61245f8284612424565b915081905092915050565b5f8151905061247881611dec565b92915050565b5f6020828403121561249357612492611db1565b5b5f6124a08482850161246a565b91505092915050565b7f4e487b71000000000000000000000000000000000000000000000000000000005f52603260045260245ffd5b7f4e487b71000000000000000000000000000000000000000000000000000000005f52603160045260245ffdfea2646970667358221220ae0c3e988fc05d32dbd6941d41a2d8fa891e6b000e8bff6b9499fd635f065ea464736f6c634300081a0033",
			"opcodes": "PUSH1 0xA0 PUSH1 0x40 MSTORE ADDRESS PUSH20 0xFFFFFFFFFFFFFFFFFFFFFFFFFFFFFFFFFFFFFFFF AND PUSH1 0x80 SWAP1 PUSH20 0xFFFFFFFFFFFFFFFFFFFFFFFFFFFFFFFFFFFFFFFF AND DUP2 MSTORE POP CALLVALUE DUP1 ISZERO PUSH2 0x42 JUMPI PUSH0 DUP1 REVERT JUMPDEST POP PUSH1 0x40 MLOAD PUSH2 0x281B CODESIZE SUB DUP1 PUSH2 0x281B DUP4 CODECOPY DUP2 DUP2 ADD PUSH1 0x40 MSTORE DUP2 ADD SWAP1 PUSH2 0x64 SWAP2 SWAP1 PUSH2 0x256 JUMP JUMPDEST PUSH2 0x72 PUSH2 0xB8 PUSH1 0x20 SHL PUSH1 0x20 SHR JUMP JUMPDEST DUP1 PUSH1 0x3 PUSH0 PUSH2 0x100 EXP DUP2 SLOAD DUP2 PUSH20 0xFFFFFFFFFFFFFFFFFFFFFFFFFFFFFFFFFFFFFFFF MUL NOT AND SWAP1 DUP4 PUSH20 0xFFFFFFFFFFFFFFFFFFFFFFFFFFFFFFFFFFFFFFFF AND MUL OR SWAP1 SSTORE POP POP PUSH2 0x2BC JUMP JUMPDEST PUSH0 PUSH2 0xC7 PUSH2 0x1B6 PUSH1 0x20 SHL PUSH1 0x20 SHR JUMP JUMPDEST SWAP1 POP DUP1 PUSH0 ADD PUSH1 0x8 SWAP1 SLOAD SWAP1 PUSH2 0x100 EXP SWAP1 DIV PUSH1 0xFF AND ISZERO PUSH2 0x111 JUMPI PUSH1 0x40 MLOAD PUSH32 0xF92EE8A900000000000000000000000000000000000000000000000000000000 DUP2 MSTORE PUSH1 0x4 ADD PUSH1 0x40 MLOAD DUP1 SWAP2 SUB SWAP1 REVERT JUMPDEST PUSH8 0xFFFFFFFFFFFFFFFF DUP1 AND DUP2 PUSH0 ADD PUSH0 SWAP1 SLOAD SWAP1 PUSH2 0x100 EXP SWAP1 DIV PUSH8 0xFFFFFFFFFFFFFFFF AND PUSH8 0xFFFFFFFFFFFFFFFF AND EQ PUSH2 0x1B3 JUMPI PUSH8 0xFFFFFFFFFFFFFFFF DUP2 PUSH0 ADD PUSH0 PUSH2 0x100 EXP DUP2 SLOAD DUP2 PUSH8 0xFFFFFFFFFFFFFFFF MUL NOT AND SWAP1 DUP4 PUSH8 0xFFFFFFFFFFFFFFFF AND MUL OR SWAP1 SSTORE POP PUSH32 0xC7F505B2F371AE2175EE4913F4499E1F2633A7B5936321EED1CDAEB6115181D2 PUSH8 0xFFFFFFFFFFFFFFFF PUSH1 0x40 MLOAD PUSH2 0x1AA SWAP2 SWAP1 PUSH2 0x2A3 JUMP JUMPDEST PUSH1 0x40 MLOAD DUP1 SWAP2 SUB SWAP1 LOG1 JUMPDEST POP JUMP JUMPDEST PUSH0 DUP1 PUSH2 0x1C6 PUSH2 0x1CF PUSH1 0x20 SHL PUSH1 0x20 SHR JUMP JUMPDEST SWAP1 POP DUP1 SWAP2 POP POP SWAP1 JUMP JUMPDEST PUSH0 PUSH32 0xF0C57E16840DF040F15088DC2F81FE391C3923BEC73E23A9662EFC9C229C6A00 PUSH0 SHL SWAP1 POP SWAP1 JUMP JUMPDEST PUSH0 DUP1 REVERT JUMPDEST PUSH0 PUSH20 0xFFFFFFFFFFFFFFFFFFFFFFFFFFFFFFFFFFFFFFFF DUP3 AND SWAP1 POP SWAP2 SWAP1 POP JUMP JUMPDEST PUSH0 PUSH2 0x225 DUP3 PUSH2 0x1FC JUMP JUMPDEST SWAP1 POP SWAP2 SWAP1 POP JUMP JUMPDEST PUSH2 0x235 DUP2 PUSH2 0x21B JUMP JUMPDEST DUP2 EQ PUSH2 0x23F JUMPI PUSH0 DUP1 REVERT JUMPDEST POP JUMP JUMPDEST PUSH0 DUP2 MLOAD SWAP1 POP PUSH2 0x250 DUP2 PUSH2 0x22C JUMP JUMPDEST SWAP3 SWAP2 POP POP JUMP JUMPDEST PUSH0 PUSH1 0x20 DUP3 DUP5 SUB SLT ISZERO PUSH2 0x26B JUMPI PUSH2 0x26A PUSH2 0x1F8 JUMP JUMPDEST JUMPDEST PUSH0 PUSH2 0x278 DUP5 DUP3 DUP6 ADD PUSH2 0x242 JUMP JUMPDEST SWAP2 POP POP SWAP3 SWAP2 POP POP JUMP JUMPDEST PUSH0 PUSH8 0xFFFFFFFFFFFFFFFF DUP3 AND SWAP1 POP SWAP2 SWAP1 POP JUMP JUMPDEST PUSH2 0x29D DUP2 PUSH2 0x281 JUMP JUMPDEST DUP3 MSTORE POP POP JUMP JUMPDEST PUSH0 PUSH1 0x20 DUP3 ADD SWAP1 POP PUSH2 0x2B6 PUSH0 DUP4 ADD DUP5 PUSH2 0x294 JUMP JUMPDEST SWAP3 SWAP2 POP POP JUMP JUMPDEST PUSH1 0x80 MLOAD PUSH2 0x2539 PUSH2 0x2E2 PUSH0 CODECOPY PUSH0 DUP2 DUP2 PUSH2 0xD28 ADD MSTORE DUP2 DUP2 PUSH2 0xD7D ADD MSTORE PUSH2 0xF37 ADD MSTORE PUSH2 0x2539 PUSH0 RETURN INVALID PUSH1 0x80 PUSH1 0x40 MSTORE PUSH1 0x4 CALLDATASIZE LT PUSH2 0xE7 JUMPI PUSH0 CALLDATALOAD PUSH1 0xE0 SHR DUP1 PUSH4 0x8DA5CB5B GT PUSH2 0x89 JUMPI DUP1 PUSH4 0xE0591EFD GT PUSH2 0x58 JUMPI DUP1 PUSH4 0xE0591EFD EQ PUSH2 0x28F JUMPI DUP1 PUSH4 0xE30C3978 EQ PUSH2 0x2B9 JUMPI DUP1 PUSH4 0xF2FDE38B EQ PUSH2 0x2E3 JUMPI DUP1 PUSH4 0xF3C40C4B EQ PUSH2 0x30B JUMPI PUSH2 0xE7 JUMP JUMPDEST DUP1 PUSH4 0x8DA5CB5B EQ PUSH2 0x1EB JUMPI DUP1 PUSH4 0x930FC006 EQ PUSH2 0x215 JUMPI DUP1 PUSH4 0xAD3CB1CC EQ PUSH2 0x23D JUMPI DUP1 PUSH4 0xC4D66DE8 EQ PUSH2 0x267 JUMPI PUSH2 0xE7 JUMP JUMPDEST DUP1 PUSH4 0x4F1EF286 GT PUSH2 0xC5 JUMPI DUP1 PUSH4 0x4F1EF286 EQ PUSH2 0x179 JUMPI DUP1 PUSH4 0x52D1902D EQ PUSH2 0x195 JUMPI DUP1 PUSH4 0x715018A6 EQ PUSH2 0x1BF JUMPI DUP1 PUSH4 0x79BA5097 EQ PUSH2 0x1D5 JUMPI PUSH2 0xE7 JUMP JUMPDEST DUP1 PUSH4 0x4951D64 EQ PUSH2 0xEB JUMPI DUP1 PUSH4 0x310EC4A7 EQ PUSH2 0x115 JUMPI DUP1 PUSH4 0x3E5BEAB9 EQ PUSH2 0x13D JUMPI JUMPDEST PUSH0 DUP1 REVERT JUMPDEST CALLVALUE DUP1 ISZERO PUSH2 0xF6 JUMPI PUSH0 DUP1 REVERT JUMPDEST POP PUSH2 0xFF PUSH2 0x333 JUMP JUMPDEST PUSH1 0x40 MLOAD PUSH2 0x10C SWAP2 SWAP1 PUSH2 0x1D88 JUMP JUMPDEST PUSH1 0x40 MLOAD DUP1 SWAP2 SUB SWAP1 RETURN JUMPDEST CALLVALUE DUP1 ISZERO PUSH2 0x120 JUMPI PUSH0 DUP1 REVERT JUMPDEST POP PUSH2 0x13B PUSH1 0x4 DUP1 CALLDATASIZE SUB DUP2 ADD SWAP1 PUSH2 0x136 SWAP2 SWAP1 PUSH2 0x1E16 JUMP JUMPDEST PUSH2 0x343 JUMP JUMPDEST STOP JUMPDEST CALLVALUE DUP1 ISZERO PUSH2 0x148 JUMPI PUSH0 DUP1 REVERT JUMPDEST POP PUSH2 0x163 PUSH1 0x4 DUP1 CALLDATASIZE SUB DUP2 ADD SWAP1 PUSH2 0x15E SWAP2 SWAP1 PUSH2 0x1E54 JUMP JUMPDEST PUSH2 0x495 JUMP JUMPDEST PUSH1 0x40 MLOAD PUSH2 0x170 SWAP2 SWAP1 PUSH2 0x1E8E JUMP JUMPDEST PUSH1 0x40 MLOAD DUP1 SWAP2 SUB SWAP1 RETURN JUMPDEST PUSH2 0x193 PUSH1 0x4 DUP1 CALLDATASIZE SUB DUP2 ADD SWAP1 PUSH2 0x18E SWAP2 SWAP1 PUSH2 0x1FE3 JUMP JUMPDEST PUSH2 0x4B4 JUMP JUMPDEST STOP JUMPDEST CALLVALUE DUP1 ISZERO PUSH2 0x1A0 JUMPI PUSH0 DUP1 REVERT JUMPDEST POP PUSH2 0x1A9 PUSH2 0x4D3 JUMP JUMPDEST PUSH1 0x40 MLOAD PUSH2 0x1B6 SWAP2 SWAP1 PUSH2 0x2055 JUMP JUMPDEST PUSH1 0x40 MLOAD DUP1 SWAP2 SUB SWAP1 RETURN JUMPDEST CALLVALUE DUP1 ISZERO PUSH2 0x1CA JUMPI PUSH0 DUP1 REVERT JUMPDEST POP PUSH2 0x1D3 PUSH2 0x504 JUMP JUMPDEST STOP JUMPDEST CALLVALUE DUP1 ISZERO PUSH2 0x1E0 JUMPI PUSH0 DUP1 REVERT JUMPDEST POP PUSH2 0x1E9 PUSH2 0x53E JUMP JUMPDEST STOP JUMPDEST CALLVALUE DUP1 ISZERO PUSH2 0x1F6 JUMPI PUSH0 DUP1 REVERT JUMPDEST POP PUSH2 0x1FF PUSH2 0x5CC JUMP JUMPDEST PUSH1 0x40 MLOAD PUSH2 0x20C SWAP2 SWAP1 PUSH2 0x207D JUMP JUMPDEST PUSH1 0x40 MLOAD DUP1 SWAP2 SUB SWAP1 RETURN JUMPDEST CALLVALUE DUP1 ISZERO PUSH2 0x220 JUMPI PUSH0 DUP1 REVERT JUMPDEST POP PUSH2 0x23B PUSH1 0x4 DUP1 CALLDATASIZE SUB DUP2 ADD SWAP1 PUSH2 0x236 SWAP2 SWAP1 PUSH2 0x20F3 JUMP JUMPDEST PUSH2 0x601 JUMP JUMPDEST STOP JUMPDEST CALLVALUE DUP1 ISZERO PUSH2 0x248 JUMPI PUSH0 DUP1 REVERT JUMPDEST POP PUSH2 0x251 PUSH2 0x845 JUMP JUMPDEST PUSH1 0x40 MLOAD PUSH2 0x25E SWAP2 SWAP1 PUSH2 0x21B0 JUMP JUMPDEST PUSH1 0x40 MLOAD DUP1 SWAP2 SUB SWAP1 RETURN JUMPDEST CALLVALUE DUP1 ISZERO PUSH2 0x272 JUMPI PUSH0 DUP1 REVERT JUMPDEST POP PUSH2 0x28D PUSH1 0x4 DUP1 CALLDATASIZE SUB DUP2 ADD SWAP1 PUSH2 0x288 SWAP2 SWAP1 PUSH2 0x1E54 JUMP JUMPDEST PUSH2 0x87E JUMP JUMPDEST STOP JUMPDEST CALLVALUE DUP1 ISZERO PUSH2 0x29A JUMPI PUSH0 DUP1 REVERT JUMPDEST POP PUSH2 0x2A3 PUSH2 0xA07 JUMP JUMPDEST PUSH1 0x40 MLOAD PUSH2 0x2B0 SWAP2 SWAP1 PUSH2 0x207D JUMP JUMPDEST PUSH1 0x40 MLOAD DUP1 SWAP2 SUB SWAP1 RETURN JUMPDEST CALLVALUE DUP1 ISZERO PUSH2 0x2C4 JUMPI PUSH0 DUP1 REVERT JUMPDEST POP PUSH2 0x2CD PUSH2 0xA2C JUMP JUMPDEST PUSH1 0x40 MLOAD PUSH2 0x2DA SWAP2 SWAP1 PUSH2 0x207D JUMP JUMPDEST PUSH1 0x40 MLOAD DUP1 SWAP2 SUB SWAP1 RETURN JUMPDEST CALLVALUE DUP1 ISZERO PUSH2 0x2EE JUMPI PUSH0 DUP1 REVERT JUMPDEST POP PUSH2 0x309 PUSH1 0x4 DUP1 CALLDATASIZE SUB DUP2 ADD SWAP1 PUSH2 0x304 SWAP2 SWAP1 PUSH2 0x1E54 JUMP JUMPDEST PUSH2 0xA61 JUMP JUMPDEST STOP JUMPDEST CALLVALUE DUP1 ISZERO PUSH2 0x316 JUMPI PUSH0 DUP1 REVERT JUMPDEST POP PUSH2 0x331 PUSH1 0x4 DUP1 CALLDATASIZE SUB DUP2 ADD SWAP1 PUSH2 0x32C SWAP2 SWAP1 PUSH2 0x1E16 JUMP JUMPDEST PUSH2 0xB1A JUMP JUMPDEST STOP JUMPDEST PUSH1 0x60 PUSH2 0x33E PUSH0 PUSH2 0xBE5 JUMP JUMPDEST SWAP1 POP SWAP1 JUMP JUMPDEST PUSH2 0x34B PUSH2 0xC04 JUMP JUMPDEST PUSH0 PUSH2 0x355 DUP4 PUSH2 0x495 JUMP JUMPDEST SWAP1 POP PUSH0 DUP2 EQ DUP1 ISZERO PUSH2 0x365 JUMPI POP PUSH0 DUP3 EQ JUMPDEST ISZERO PUSH2 0x39C JUMPI PUSH1 0x40 MLOAD PUSH32 0x5657D5EB00000000000000000000000000000000000000000000000000000000 DUP2 MSTORE PUSH1 0x4 ADD PUSH1 0x40 MLOAD DUP1 SWAP2 SUB SWAP1 REVERT JUMPDEST PUSH0 DUP2 GT DUP1 ISZERO PUSH2 0x3AA JUMPI POP PUSH0 DUP3 GT JUMPDEST ISZERO PUSH2 0x3E1 JUMPI PUSH1 0x40 MLOAD PUSH32 0x494D149300000000000000000000000000000000000000000000000000000000 DUP2 MSTORE PUSH1 0x4 ADD PUSH1 0x40 MLOAD DUP1 SWAP2 SUB SWAP1 REVERT JUMPDEST PUSH0 DUP2 EQ DUP1 ISZERO PUSH2 0x3EF JUMPI POP PUSH0 DUP3 GT JUMPDEST ISZERO PUSH2 0x40F JUMPI PUSH2 0x409 DUP4 DUP4 PUSH0 PUSH2 0xC8B SWAP1 SWAP3 SWAP2 SWAP1 PUSH4 0xFFFFFFFF AND JUMP JUMPDEST POP PUSH2 0x438 JUMP JUMPDEST PUSH0 DUP2 GT DUP1 ISZERO PUSH2 0x41D JUMPI POP PUSH0 DUP3 EQ JUMPDEST ISZERO PUSH2 0x437 JUMPI PUSH2 0x435 DUP4 PUSH0 PUSH2 0xCBC SWAP1 SWAP2 SWAP1 PUSH4 0xFFFFFFFF AND JUMP JUMPDEST POP JUMPDEST JUMPDEST DUP3 PUSH20 0xFFFFFFFFFFFFFFFFFFFFFFFFFFFFFFFFFFFFFFFF AND PUSH32 0xD30AEEEB3755C0784618BD3FF45998E5B4BE082DF174ED87C3A79F37E2FB56A6 DUP3 PUSH2 0x47A DUP7 PUSH2 0x495 JUMP JUMPDEST PUSH1 0x40 MLOAD PUSH2 0x488 SWAP3 SWAP2 SWAP1 PUSH2 0x21D0 JUMP JUMPDEST PUSH1 0x40 MLOAD DUP1 SWAP2 SUB SWAP1 LOG2 POP POP POP JUMP JUMPDEST PUSH0 PUSH2 0x4A9 DUP3 PUSH0 PUSH2 0xCE9 SWAP1 SWAP2 SWAP1 PUSH4 0xFFFFFFFF AND JUMP JUMPDEST SWAP1 POP DUP1 SWAP2 POP POP SWAP2 SWAP1 POP JUMP JUMPDEST PUSH2 0x4BC PUSH2 0xD26 JUMP JUMPDEST PUSH2 0x4C5 DUP3 PUSH2 0xE0C JUMP JUMPDEST PUSH2 0x4CF DUP3 DUP3 PUSH2 0xE17 JUMP JUMPDEST POP POP JUMP JUMPDEST PUSH0 PUSH2 0x4DC PUSH2 0xF35 JUMP JUMPDEST PUSH32 0x360894A13BA1A3210667C828492DB98DCA3E2076CC3735A920A3CA505D382BBC PUSH0 SHL SWAP1 POP SWAP1 JUMP JUMPDEST PUSH2 0x50C PUSH2 0xC04 JUMP JUMPDEST PUSH1 0x40 MLOAD PUSH32 0xBF24148800000000000000000000000000000000000000000000000000000000 DUP2 MSTORE PUSH1 0x4 ADD PUSH1 0x40 MLOAD DUP1 SWAP2 SUB SWAP1 REVERT JUMPDEST PUSH0 PUSH2 0x547 PUSH2 0xFBC JUMP JUMPDEST SWAP1 POP DUP1 PUSH20 0xFFFFFFFFFFFFFFFFFFFFFFFFFFFFFFFFFFFFFFFF AND PUSH2 0x568 PUSH2 0xA2C JUMP JUMPDEST PUSH20 0xFFFFFFFFFFFFFFFFFFFFFFFFFFFFFFFFFFFFFFFF AND EQ PUSH2 0x5C0 JUMPI DUP1 PUSH1 0x40 MLOAD PUSH32 0x118CDAA700000000000000000000000000000000000000000000000000000000 DUP2 MSTORE PUSH1 0x4 ADD PUSH2 0x5B7 SWAP2 SWAP1 PUSH2 0x207D JUMP JUMPDEST PUSH1 0x40 MLOAD DUP1 SWAP2 SUB SWAP1 REVERT JUMPDEST PUSH2 0x5C9 DUP2 PUSH2 0xFC3 JUMP JUMPDEST POP JUMP JUMPDEST PUSH0 DUP1 PUSH2 0x5D6 PUSH2 0x1000 JUMP JUMPDEST SWAP1 POP DUP1 PUSH0 ADD PUSH0 SWAP1 SLOAD SWAP1 PUSH2 0x100 EXP SWAP1 DIV PUSH20 0xFFFFFFFFFFFFFFFFFFFFFFFFFFFFFFFFFFFFFFFF AND SWAP2 POP POP SWAP1 JUMP JUMPDEST PUSH0 DUP2 SUB PUSH2 0x63A JUMPI PUSH1 0x40 MLOAD PUSH32 0xB0DA7F3400000000000000000000000000000000000000000000000000000000 DUP2 MSTORE PUSH1 0x4 ADD PUSH1 0x40 MLOAD DUP1 SWAP2 SUB SWAP1 REVERT JUMPDEST PUSH0 PUSH2 0x644 CALLER PUSH2 0x495 JUMP JUMPDEST SWAP1 POP DUP2 DUP2 LT ISZERO PUSH2 0x680 JUMPI PUSH1 0x40 MLOAD PUSH32 0x13BE252B00000000000000000000000000000000000000000000000000000000 DUP2 MSTORE PUSH1 0x4 ADD PUSH1 0x40 MLOAD DUP1 SWAP2 SUB SWAP1 REVERT JUMPDEST PUSH0 DUP3 DUP3 PUSH2 0x68D SWAP2 SWAP1 PUSH2 0x2224 JUMP JUMPDEST SUB PUSH2 0x6AB JUMPI PUSH2 0x6A5 CALLER PUSH0 PUSH2 0xCBC SWAP1 SWAP2 SWAP1 PUSH4 0xFFFFFFFF AND JUMP JUMPDEST POP PUSH2 0x6CD JUMP JUMPDEST PUSH2 0x6CB CALLER DUP4 DUP4 PUSH2 0x6BB SWAP2 SWAP1 PUSH2 0x2224 JUMP JUMPDEST PUSH0 PUSH2 0xC8B SWAP1 SWAP3 SWAP2 SWAP1 PUSH4 0xFFFFFFFF AND JUMP JUMPDEST POP JUMPDEST DUP4 DUP4 PUSH1 0x40 MLOAD PUSH2 0x6DD SWAP3 SWAP2 SWAP1 PUSH2 0x2285 JUMP JUMPDEST PUSH1 0x40 MLOAD DUP1 SWAP2 SUB SWAP1 KECCAK256 CALLER PUSH20 0xFFFFFFFFFFFFFFFFFFFFFFFFFFFFFFFFFFFFFFFF AND PUSH32 0x9B88BD178C90CE12441FF8588A493795E519AC037930D64FDB0D15DE4FB53E37 DUP5 PUSH1 0x40 MLOAD PUSH2 0x72B SWAP2 SWAP1 PUSH2 0x1E8E JUMP JUMPDEST PUSH1 0x40 MLOAD DUP1 SWAP2 SUB SWAP1 LOG3 PUSH0 PUSH2 0x780 DUP6 DUP6 DUP1 DUP1 PUSH1 0x1F ADD PUSH1 0x20 DUP1 SWAP2 DIV MUL PUSH1 0x20 ADD PUSH1 0x40 MLOAD SWAP1 DUP2 ADD PUSH1 0x40 MSTORE DUP1 SWAP4 SWAP3 SWAP2 SWAP1 DUP2 DUP2 MSTORE PUSH1 0x20 ADD DUP4 DUP4 DUP1 DUP3 DUP5 CALLDATACOPY PUSH0 DUP2 DUP5 ADD MSTORE PUSH1 0x1F NOT PUSH1 0x1F DUP3 ADD AND SWAP1 POP DUP1 DUP4 ADD SWAP3 POP POP POP POP POP POP POP PUSH2 0x1027 JUMP JUMPDEST SWAP1 POP PUSH0 PUSH2 0x78C DUP3 PUSH2 0x1089 JUMP JUMPDEST SWAP1 POP PUSH0 PUSH2 0x798 DUP3 PUSH2 0x1163 JUMP JUMPDEST SWAP1 POP PUSH0 PUSH1 0x3 PUSH0 SWAP1 SLOAD SWAP1 PUSH2 0x100 EXP SWAP1 DIV PUSH20 0xFFFFFFFFFFFFFFFFFFFFFFFFFFFFFFFFFFFFFFFF AND SWAP1 POP DUP1 PUSH20 0xFFFFFFFFFFFFFFFFFFFFFFFFFFFFFFFFFFFFFFFF AND PUSH4 0xA9059CBB DUP4 DUP9 PUSH1 0x40 MLOAD DUP4 PUSH4 0xFFFFFFFF AND PUSH1 0xE0 SHL DUP2 MSTORE PUSH1 0x4 ADD PUSH2 0x7FA SWAP3 SWAP2 SWAP1 PUSH2 0x229D JUMP JUMPDEST PUSH1 0x20 PUSH1 0x40 MLOAD DUP1 DUP4 SUB DUP2 PUSH0 DUP8 GAS CALL ISZERO DUP1 ISZERO PUSH2 0x816 JUMPI RETURNDATASIZE PUSH0 DUP1 RETURNDATACOPY RETURNDATASIZE PUSH0 REVERT JUMPDEST POP POP POP POP PUSH1 0x40 MLOAD RETURNDATASIZE PUSH1 0x1F NOT PUSH1 0x1F DUP3 ADD AND DUP3 ADD DUP1 PUSH1 0x40 MSTORE POP DUP2 ADD SWAP1 PUSH2 0x83A SWAP2 SWAP1 PUSH2 0x22F9 JUMP JUMPDEST POP POP POP POP POP POP POP POP POP JUMP JUMPDEST PUSH1 0x40 MLOAD DUP1 PUSH1 0x40 ADD PUSH1 0x40 MSTORE DUP1 PUSH1 0x5 DUP2 MSTORE PUSH1 0x20 ADD PUSH32 0x352E302E30000000000000000000000000000000000000000000000000000000 DUP2 MSTORE POP DUP2 JUMP JUMPDEST PUSH0 PUSH2 0x887 PUSH2 0x1196 JUMP JUMPDEST SWAP1 POP PUSH0 DUP2 PUSH0 ADD PUSH1 0x8 SWAP1 SLOAD SWAP1 PUSH2 0x100 EXP SWAP1 DIV PUSH1 0xFF AND ISZERO SWAP1 POP PUSH0 DUP3 PUSH0 ADD PUSH0 SWAP1 SLOAD SWAP1 PUSH2 0x100 EXP SWAP1 DIV PUSH8 0xFFFFFFFFFFFFFFFF AND SWAP1 POP PUSH0 DUP1 DUP3 PUSH8 0xFFFFFFFFFFFFFFFF AND EQ DUP1 ISZERO PUSH2 0x8CF JUMPI POP DUP3 JUMPDEST SWAP1 POP PUSH0 PUSH1 0x1 DUP4 PUSH8 0xFFFFFFFFFFFFFFFF AND EQ DUP1 ISZERO PUSH2 0x902 JUMPI POP PUSH0 ADDRESS PUSH20 0xFFFFFFFFFFFFFFFFFFFFFFFFFFFFFFFFFFFFFFFF AND EXTCODESIZE EQ JUMPDEST SWAP1 POP DUP2 ISZERO DUP1 ISZERO PUSH2 0x910 JUMPI POP DUP1 ISZERO JUMPDEST ISZERO PUSH2 0x947 JUMPI PUSH1 0x40 MLOAD PUSH32 0xF92EE8A900000000000000000000000000000000000000000000000000000000 DUP2 MSTORE PUSH1 0x4 ADD PUSH1 0x40 MLOAD DUP1 SWAP2 SUB SWAP1 REVERT JUMPDEST PUSH1 0x1 DUP6 PUSH0 ADD PUSH0 PUSH2 0x100 EXP DUP2 SLOAD DUP2 PUSH8 0xFFFFFFFFFFFFFFFF MUL NOT AND SWAP1 DUP4 PUSH8 0xFFFFFFFFFFFFFFFF AND MUL OR SWAP1 SSTORE POP DUP4 ISZERO PUSH2 0x994 JUMPI PUSH1 0x1 DUP6 PUSH0 ADD PUSH1 0x8 PUSH2 0x100 EXP DUP2 SLOAD DUP2 PUSH1 0xFF MUL NOT AND SWAP1 DUP4 ISZERO ISZERO MUL OR SWAP1 SSTORE POP JUMPDEST PUSH2 0x99D DUP7 PUSH2 0x11A9 JUMP JUMPDEST PUSH2 0x9A5 PUSH2 0x11BD JUMP JUMPDEST DUP4 ISZERO PUSH2 0x9FF JUMPI PUSH0 DUP6 PUSH0 ADD PUSH1 0x8 PUSH2 0x100 EXP DUP2 SLOAD DUP2 PUSH1 0xFF MUL NOT AND SWAP1 DUP4 ISZERO ISZERO MUL OR SWAP1 SSTORE POP PUSH32 0xC7F505B2F371AE2175EE4913F4499E1F2633A7B5936321EED1CDAEB6115181D2 PUSH1 0x1 PUSH1 0x40 MLOAD PUSH2 0x9F6 SWAP2 SWAP1 PUSH2 0x2379 JUMP JUMPDEST PUSH1 0x40 MLOAD DUP1 SWAP2 SUB SWAP1 LOG1 JUMPDEST POP POP POP POP POP POP JUMP JUMPDEST PUSH1 0x3 PUSH0 SWAP1 SLOAD SWAP1 PUSH2 0x100 EXP SWAP1 DIV PUSH20 0xFFFFFFFFFFFFFFFFFFFFFFFFFFFFFFFFFFFFFFFF AND DUP2 JUMP JUMPDEST PUSH0 DUP1 PUSH2 0xA36 PUSH2 0x11C7 JUMP JUMPDEST SWAP1 POP DUP1 PUSH0 ADD PUSH0 SWAP1 SLOAD SWAP1 PUSH2 0x100 EXP SWAP1 DIV PUSH20 0xFFFFFFFFFFFFFFFFFFFFFFFFFFFFFFFFFFFFFFFF AND SWAP2 POP POP SWAP1 JUMP JUMPDEST PUSH2 0xA69 PUSH2 0xC04 JUMP JUMPDEST PUSH0 PUSH2 0xA72 PUSH2 0x11C7 JUMP JUMPDEST SWAP1 POP DUP2 DUP2 PUSH0 ADD PUSH0 PUSH2 0x100 EXP DUP2 SLOAD DUP2 PUSH20 0xFFFFFFFFFFFFFFFFFFFFFFFFFFFFFFFFFFFFFFFF MUL NOT AND SWAP1 DUP4 PUSH20 0xFFFFFFFFFFFFFFFFFFFFFFFFFFFFFFFFFFFFFFFF AND MUL OR SWAP1 SSTORE POP DUP2 PUSH20 0xFFFFFFFFFFFFFFFFFFFFFFFFFFFFFFFFFFFFFFFF AND PUSH2 0xAD4 PUSH2 0x5CC JUMP JUMPDEST PUSH20 0xFFFFFFFFFFFFFFFFFFFFFFFFFFFFFFFFFFFFFFFF AND PUSH32 0x38D16B8CAC22D99FC7C124B9CD0DE2D3FA1FAEF420BFE791D8C362D765E22700 PUSH1 0x40 MLOAD PUSH1 0x40 MLOAD DUP1 SWAP2 SUB SWAP1 LOG3 POP POP JUMP JUMPDEST PUSH2 0xB22 PUSH2 0xC04 JUMP JUMPDEST PUSH0 DUP2 SUB PUSH2 0xB5B JUMPI PUSH1 0x40 MLOAD PUSH32 0xB0DA7F3400000000000000000000000000000000000000000000000000000000 DUP2 MSTORE PUSH1 0x4 ADD PUSH1 0x40 MLOAD DUP1 SWAP2 SUB SWAP1 REVERT JUMPDEST PUSH0 PUSH2 0xB65 DUP4 PUSH2 0x495 JUMP JUMPDEST SWAP1 POP PUSH2 0xB87 DUP4 DUP4 DUP4 PUSH2 0xB77 SWAP2 SWAP1 PUSH2 0x2392 JUMP JUMPDEST PUSH0 PUSH2 0xC8B SWAP1 SWAP3 SWAP2 SWAP1 PUSH4 0xFFFFFFFF AND JUMP JUMPDEST POP DUP3 PUSH20 0xFFFFFFFFFFFFFFFFFFFFFFFFFFFFFFFFFFFFFFFF AND PUSH32 0xD30AEEEB3755C0784618BD3FF45998E5B4BE082DF174ED87C3A79F37E2FB56A6 DUP3 PUSH2 0xBCA DUP7 PUSH2 0x495 JUMP JUMPDEST PUSH1 0x40 MLOAD PUSH2 0xBD8 SWAP3 SWAP2 SWAP1 PUSH2 0x21D0 JUMP JUMPDEST PUSH1 0x40 MLOAD DUP1 SWAP2 SUB SWAP1 LOG2 POP POP POP JUMP JUMPDEST PUSH1 0x60 PUSH0 PUSH2 0xBF3 DUP4 PUSH0 ADD PUSH2 0x11EE JUMP JUMPDEST SWAP1 POP PUSH1 0x60 DUP2 SWAP1 POP DUP1 SWAP3 POP POP POP SWAP2 SWAP1 POP JUMP JUMPDEST PUSH2 0xC0C PUSH2 0xFBC JUMP JUMPDEST PUSH20 0xFFFFFFFFFFFFFFFFFFFFFFFFFFFFFFFFFFFFFFFF AND PUSH2 0xC2A PUSH2 0x5CC JUMP JUMPDEST PUSH20 0xFFFFFFFFFFFFFFFFFFFFFFFFFFFFFFFFFFFFFFFF AND EQ PUSH2 0xC89 JUMPI PUSH2 0xC4D PUSH2 0xFBC JUMP JUMPDEST PUSH1 0x40 MLOAD PUSH32 0x118CDAA700000000000000000000000000000000000000000000000000000000 DUP2 MSTORE PUSH1 0x4 ADD PUSH2 0xC80 SWAP2 SWAP1 PUSH2 0x207D JUMP JUMPDEST PUSH1 0x40 MLOAD DUP1 SWAP2 SUB SWAP1 REVERT JUMPDEST JUMP JUMPDEST PUSH0 PUSH2 0xCB3 DUP5 PUSH0 ADD DUP5 PUSH20 0xFFFFFFFFFFFFFFFFFFFFFFFFFFFFFFFFFFFFFFFF AND PUSH0 SHL DUP5 PUSH0 SHL PUSH2 0x1202 JUMP JUMPDEST SWAP1 POP SWAP4 SWAP3 POP POP POP JUMP JUMPDEST PUSH0 PUSH2 0xCE1 DUP4 PUSH0 ADD DUP4 PUSH20 0xFFFFFFFFFFFFFFFFFFFFFFFFFFFFFFFFFFFFFFFF AND PUSH0 SHL PUSH2 0x1239 JUMP JUMPDEST SWAP1 POP SWAP3 SWAP2 POP POP JUMP JUMPDEST PUSH0 DUP1 PUSH0 DUP1 PUSH2 0xD11 DUP7 PUSH0 ADD DUP7 PUSH20 0xFFFFFFFFFFFFFFFFFFFFFFFFFFFFFFFFFFFFFFFF AND PUSH0 SHL PUSH2 0x126D JUMP JUMPDEST SWAP2 POP SWAP2 POP DUP2 DUP2 PUSH0 SHR SWAP4 POP SWAP4 POP POP POP SWAP3 POP SWAP3 SWAP1 POP JUMP JUMPDEST PUSH32 0x0 PUSH20 0xFFFFFFFFFFFFFFFFFFFFFFFFFFFFFFFFFFFFFFFF AND ADDRESS PUSH20 0xFFFFFFFFFFFFFFFFFFFFFFFFFFFFFFFFFFFFFFFF AND EQ DUP1 PUSH2 0xDD3 JUMPI POP PUSH32 0x0 PUSH20 0xFFFFFFFFFFFFFFFFFFFFFFFFFFFFFFFFFFFFFFFF AND PUSH2 0xDBA PUSH2 0x12B6 JUMP JUMPDEST PUSH20 0xFFFFFFFFFFFFFFFFFFFFFFFFFFFFFFFFFFFFFFFF AND EQ ISZERO JUMPDEST ISZERO PUSH2 0xE0A JUMPI PUSH1 0x40 MLOAD PUSH32 0xE07C8DBA00000000000000000000000000000000000000000000000000000000 DUP2 MSTORE PUSH1 0x4 ADD PUSH1 0x40 MLOAD DUP1 SWAP2 SUB SWAP1 REVERT JUMPDEST JUMP JUMPDEST PUSH2 0xE14 PUSH2 0xC04 JUMP JUMPDEST POP JUMP JUMPDEST DUP2 PUSH20 0xFFFFFFFFFFFFFFFFFFFFFFFFFFFFFFFFFFFFFFFF AND PUSH4 0x52D1902D PUSH1 0x40 MLOAD DUP2 PUSH4 0xFFFFFFFF AND PUSH1 0xE0 SHL DUP2 MSTORE PUSH1 0x4 ADD PUSH1 0x20 PUSH1 0x40 MLOAD DUP1 DUP4 SUB DUP2 DUP7 GAS STATICCALL SWAP3 POP POP POP DUP1 ISZERO PUSH2 0xE7F JUMPI POP PUSH1 0x40 MLOAD RETURNDATASIZE PUSH1 0x1F NOT PUSH1 0x1F DUP3 ADD AND DUP3 ADD DUP1 PUSH1 0x40 MSTORE POP DUP2 ADD SWAP1 PUSH2 0xE7C SWAP2 SWAP1 PUSH2 0x23EF JUMP JUMPDEST PUSH1 0x1 JUMPDEST PUSH2 0xEC0 JUMPI DUP2 PUSH1 0x40 MLOAD PUSH32 0x4C9C8CE300000000000000000000000000000000000000000000000000000000 DUP2 MSTORE PUSH1 0x4 ADD PUSH2 0xEB7 SWAP2 SWAP1 PUSH2 0x207D JUMP JUMPDEST PUSH1 0x40 MLOAD DUP1 SWAP2 SUB SWAP1 REVERT JUMPDEST PUSH32 0x360894A13BA1A3210667C828492DB98DCA3E2076CC3735A920A3CA505D382BBC PUSH0 SHL DUP2 EQ PUSH2 0xF26 JUMPI DUP1 PUSH1 0x40 MLOAD PUSH32 0xAA1D49A400000000000000000000000000000000000000000000000000000000 DUP2 MSTORE PUSH1 0x4 ADD PUSH2 0xF1D SWAP2 SWAP1 PUSH2 0x2055 JUMP JUMPDEST PUSH1 0x40 MLOAD DUP1 SWAP2 SUB SWAP1 REVERT JUMPDEST PUSH2 0xF30 DUP4 DUP4 PUSH2 0x1309 JUMP JUMPDEST POP POP POP JUMP JUMPDEST PUSH32 0x0 PUSH20 0xFFFFFFFFFFFFFFFFFFFFFFFFFFFFFFFFFFFFFFFF AND ADDRESS PUSH20 0xFFFFFFFFFFFFFFFFFFFFFFFFFFFFFFFFFFFFFFFF AND EQ PUSH2 0xFBA JUMPI PUSH1 0x40 MLOAD PUSH32 0xE07C8DBA00000000000000000000000000000000000000000000000000000000 DUP2 MSTORE PUSH1 0x4 ADD PUSH1 0x40 MLOAD DUP1 SWAP2 SUB SWAP1 REVERT JUMPDEST JUMP JUMPDEST PUSH0 CALLER SWAP1 POP SWAP1 JUMP JUMPDEST PUSH0 PUSH2 0xFCC PUSH2 0x11C7 JUMP JUMPDEST SWAP1 POP DUP1 PUSH0 ADD PUSH0 PUSH2 0x100 EXP DUP2 SLOAD SWAP1 PUSH20 0xFFFFFFFFFFFFFFFFFFFFFFFFFFFFFFFFFFFFFFFF MUL NOT AND SWAP1 SSTORE PUSH2 0xFFC DUP3 PUSH2 0x137B JUMP JUMPDEST POP POP JUMP JUMPDEST PUSH0 PUSH32 0x9016D09D72D40FDAE2FD8CEAC6B6234C7706214FD39C1CD1E609A0528C199300 SWAP1 POP SWAP1 JUMP JUMPDEST PUSH2 0x102F PUSH2 0x1C8E JUMP JUMPDEST PUSH0 PUSH1 0x40 MLOAD DUP1 PUSH1 0x20 ADD PUSH1 0x40 MSTORE DUP1 DUP5 DUP2 MSTORE POP SWAP1 POP PUSH2 0x104A DUP2 PUSH2 0x144C JUMP JUMPDEST PUSH2 0x1080 JUMPI PUSH1 0x40 MLOAD PUSH32 0xE6C4247B00000000000000000000000000000000000000000000000000000000 DUP2 MSTORE PUSH1 0x4 ADD PUSH1 0x40 MLOAD DUP1 SWAP2 SUB SWAP1 REVERT JUMPDEST DUP1 SWAP2 POP POP SWAP2 SWAP1 POP JUMP JUMPDEST PUSH0 DUP1 PUSH0 PUSH20 0xFE00000000000000000000000000000000000001 PUSH20 0xFFFFFFFFFFFFFFFFFFFFFFFFFFFFFFFFFFFFFFFF AND DUP5 PUSH0 ADD MLOAD PUSH1 0x40 MLOAD PUSH2 0x10C8 SWAP2 SWAP1 PUSH2 0x2454 JUMP JUMPDEST PUSH0 PUSH1 0x40 MLOAD DUP1 DUP4 SUB DUP2 DUP6 GAS STATICCALL SWAP2 POP POP RETURNDATASIZE DUP1 PUSH0 DUP2 EQ PUSH2 0x1100 JUMPI PUSH1 0x40 MLOAD SWAP2 POP PUSH1 0x1F NOT PUSH1 0x3F RETURNDATASIZE ADD AND DUP3 ADD PUSH1 0x40 MSTORE RETURNDATASIZE DUP3 MSTORE RETURNDATASIZE PUSH0 PUSH1 0x20 DUP5 ADD RETURNDATACOPY PUSH2 0x1105 JUMP JUMPDEST PUSH1 0x60 SWAP2 POP JUMPDEST POP SWAP2 POP SWAP2 POP DUP2 PUSH2 0x1141 JUMPI PUSH1 0x40 MLOAD PUSH32 0x8A7DB5BF00000000000000000000000000000000000000000000000000000000 DUP2 MSTORE PUSH1 0x4 ADD PUSH1 0x40 MLOAD DUP1 SWAP2 SUB SWAP1 REVERT JUMPDEST PUSH0 DUP2 DUP1 PUSH1 0x20 ADD SWAP1 MLOAD DUP2 ADD SWAP1 PUSH2 0x1156 SWAP2 SWAP1 PUSH2 0x247E JUMP JUMPDEST SWAP1 POP DUP1 SWAP4 POP POP POP POP SWAP2 SWAP1 POP JUMP JUMPDEST PUSH0 DUP1 PUSH0 PUSH2 0x116F DUP5 PUSH2 0x1621 JUMP JUMPDEST SWAP2 POP SWAP2 POP DUP2 ISZERO PUSH2 0x1183 JUMPI DUP1 SWAP3 POP POP POP PUSH2 0x1191 JUMP JUMPDEST PUSH2 0x118C DUP5 PUSH2 0x16A6 JUMP JUMPDEST SWAP3 POP POP POP JUMPDEST SWAP2 SWAP1 POP JUMP JUMPDEST PUSH0 DUP1 PUSH2 0x11A0 PUSH2 0x16C5 JUMP JUMPDEST SWAP1 POP DUP1 SWAP2 POP POP SWAP1 JUMP JUMPDEST PUSH2 0x11B1 PUSH2 0x16EE JUMP JUMPDEST PUSH2 0x11BA DUP2 PUSH2 0x172E JUMP JUMPDEST POP JUMP JUMPDEST PUSH2 0x11C5 PUSH2 0x16EE JUMP JUMPDEST JUMP JUMPDEST PUSH0 PUSH32 0x237E158222E3E6968B72B9DB0D8043AACF074AD9F650F0D1606B4D82EE432C00 SWAP1 POP SWAP1 JUMP JUMPDEST PUSH1 0x60 PUSH2 0x11FB DUP3 PUSH0 ADD PUSH2 0x17B2 JUMP JUMPDEST SWAP1 POP SWAP2 SWAP1 POP JUMP JUMPDEST PUSH0 DUP2 DUP5 PUSH1 0x2 ADD PUSH0 DUP6 DUP2 MSTORE PUSH1 0x20 ADD SWAP1 DUP2 MSTORE PUSH1 0x20 ADD PUSH0 KECCAK256 DUP2 SWAP1 SSTORE POP PUSH2 0x1230 DUP4 DUP6 PUSH0 ADD PUSH2 0x17D1 SWAP1 SWAP2 SWAP1 PUSH4 0xFFFFFFFF AND JUMP JUMPDEST SWAP1 POP SWAP4 SWAP3 POP POP POP JUMP JUMPDEST PUSH0 DUP3 PUSH1 0x2 ADD PUSH0 DUP4 DUP2 MSTORE PUSH1 0x20 ADD SWAP1 DUP2 MSTORE PUSH1 0x20 ADD PUSH0 KECCAK256 PUSH0 SWAP1 SSTORE PUSH2 0x1265 DUP3 DUP5 PUSH0 ADD PUSH2 0x17E6 SWAP1 SWAP2 SWAP1 PUSH4 0xFFFFFFFF AND JUMP JUMPDEST SWAP1 POP SWAP3 SWAP2 POP POP JUMP JUMPDEST PUSH0 DUP1 PUSH0 DUP5 PUSH1 0x2 ADD PUSH0 DUP6 DUP2 MSTORE PUSH1 0x20 ADD SWAP1 DUP2 MSTORE PUSH1 0x20 ADD PUSH0 KECCAK256 SLOAD SWAP1 POP PUSH0 DUP1 SHL DUP2 SUB PUSH2 0x12A6 JUMPI PUSH2 0x1299 DUP6 DUP6 PUSH2 0x17FB JUMP JUMPDEST PUSH0 DUP1 SHL SWAP3 POP SWAP3 POP POP PUSH2 0x12AF JUMP JUMPDEST PUSH1 0x1 DUP2 SWAP3 POP SWAP3 POP POP JUMPDEST SWAP3 POP SWAP3 SWAP1 POP JUMP JUMPDEST PUSH0 PUSH2 0x12E2 PUSH32 0x360894A13BA1A3210667C828492DB98DCA3E2076CC3735A920A3CA505D382BBC PUSH0 SHL PUSH2 0x1819 JUMP JUMPDEST PUSH0 ADD PUSH0 SWAP1 SLOAD SWAP1 PUSH2 0x100 EXP SWAP1 DIV PUSH20 0xFFFFFFFFFFFFFFFFFFFFFFFFFFFFFFFFFFFFFFFF AND SWAP1 POP SWAP1 JUMP JUMPDEST PUSH2 0x1312 DUP3 PUSH2 0x1822 JUMP JUMPDEST DUP2 PUSH20 0xFFFFFFFFFFFFFFFFFFFFFFFFFFFFFFFFFFFFFFFF AND PUSH32 0xBC7CD75A20EE27FD9ADEBAB32041F755214DBC6BFFA90CC0225B39DA2E5C2D3B PUSH1 0x40 MLOAD PUSH1 0x40 MLOAD DUP1 SWAP2 SUB SWAP1 LOG2 PUSH0 DUP2 MLOAD GT ISZERO PUSH2 0x136E JUMPI PUSH2 0x1368 DUP3 DUP3 PUSH2 0x18EB JUMP JUMPDEST POP PUSH2 0x1377 JUMP JUMPDEST PUSH2 0x1376 PUSH2 0x196B JUMP JUMPDEST JUMPDEST POP POP JUMP JUMPDEST PUSH0 PUSH2 0x1384 PUSH2 0x1000 JUMP JUMPDEST SWAP1 POP PUSH0 DUP2 PUSH0 ADD PUSH0 SWAP1 SLOAD SWAP1 PUSH2 0x100 EXP SWAP1 DIV PUSH20 0xFFFFFFFFFFFFFFFFFFFFFFFFFFFFFFFFFFFFFFFF AND SWAP1 POP DUP3 DUP3 PUSH0 ADD PUSH0 PUSH2 0x100 EXP DUP2 SLOAD DUP2 PUSH20 0xFFFFFFFFFFFFFFFFFFFFFFFFFFFFFFFFFFFFFFFF MUL NOT AND SWAP1 DUP4 PUSH20 0xFFFFFFFFFFFFFFFFFFFFFFFFFFFFFFFFFFFFFFFF AND MUL OR SWAP1 SSTORE POP DUP3 PUSH20 0xFFFFFFFFFFFFFFFFFFFFFFFFFFFFFFFFFFFFFFFF AND DUP2 PUSH20 0xFFFFFFFFFFFFFFFFFFFFFFFFFFFFFFFFFFFFFFFF AND PUSH32 0x8BE0079C531659141344CD1FD0A4F28419497F9722A3DAAFE3B4186F6B6457E0 PUSH1 0x40 MLOAD PUSH1 0x40 MLOAD DUP1 SWAP2 SUB SWAP1 LOG3 POP POP POP JUMP JUMPDEST PUSH0 DUP1 PUSH1 0xF8 SHL DUP3 PUSH0 ADD MLOAD PUSH0 DUP2 MLOAD DUP2 LT PUSH2 0x1467 JUMPI PUSH2 0x1466 PUSH2 0x24A9 JUMP JUMPDEST JUMPDEST PUSH1 0x20 ADD ADD MLOAD PUSH1 0xF8 SHR PUSH1 0xF8 SHL PUSH31 0xFFFFFFFFFFFFFFFFFFFFFFFFFFFFFFFFFFFFFFFFFFFFFFFFFFFFFFFFFFFFFF NOT AND SUB PUSH2 0x14A9 JUMPI PUSH1 0xA DUP3 PUSH0 ADD MLOAD MLOAD GT ISZERO SWAP1 POP PUSH2 0x161C JUMP JUMPDEST PUSH1 0x1 PUSH1 0xF8 SHL DUP3 PUSH0 ADD MLOAD PUSH0 DUP2 MLOAD DUP2 LT PUSH2 0x14C4 JUMPI PUSH2 0x14C3 PUSH2 0x24A9 JUMP JUMPDEST JUMPDEST PUSH1 0x20 ADD ADD MLOAD PUSH1 0xF8 SHR PUSH1 0xF8 SHL PUSH31 0xFFFFFFFFFFFFFFFFFFFFFFFFFFFFFFFFFFFFFFFFFFFFFFFFFFFFFFFFFFFFFF NOT AND EQ DUP1 PUSH2 0x1542 JUMPI POP PUSH1 0x2 PUSH1 0xF8 SHL DUP3 PUSH0 ADD MLOAD PUSH0 DUP2 MLOAD DUP2 LT PUSH2 0x1513 JUMPI PUSH2 0x1512 PUSH2 0x24A9 JUMP JUMPDEST JUMPDEST PUSH1 0x20 ADD ADD MLOAD PUSH1 0xF8 SHR PUSH1 0xF8 SHL PUSH31 0xFFFFFFFFFFFFFFFFFFFFFFFFFFFFFFFFFFFFFFFFFFFFFFFFFFFFFFFFFFFFFF NOT AND EQ JUMPDEST ISZERO PUSH2 0x1556 JUMPI PUSH1 0x15 DUP3 PUSH0 ADD MLOAD MLOAD EQ SWAP1 POP PUSH2 0x161C JUMP JUMPDEST PUSH1 0x3 PUSH1 0xF8 SHL DUP3 PUSH0 ADD MLOAD PUSH0 DUP2 MLOAD DUP2 LT PUSH2 0x1571 JUMPI PUSH2 0x1570 PUSH2 0x24A9 JUMP JUMPDEST JUMPDEST PUSH1 0x20 ADD ADD MLOAD PUSH1 0xF8 SHR PUSH1 0xF8 SHL PUSH31 0xFFFFFFFFFFFFFFFFFFFFFFFFFFFFFFFFFFFFFFFFFFFFFFFFFFFFFFFFFFFFFF NOT AND SUB PUSH2 0x15B2 JUMPI PUSH1 0x31 DUP3 PUSH0 ADD MLOAD MLOAD EQ SWAP1 POP PUSH2 0x161C JUMP JUMPDEST PUSH1 0x4 PUSH1 0xF8 SHL DUP3 PUSH0 ADD MLOAD PUSH0 DUP2 MLOAD DUP2 LT PUSH2 0x15CD JUMPI PUSH2 0x15CC PUSH2 0x24A9 JUMP JUMPDEST JUMPDEST PUSH1 0x20 ADD ADD MLOAD PUSH1 0xF8 SHR PUSH1 0xF8 SHL PUSH31 0xFFFFFFFFFFFFFFFFFFFFFFFFFFFFFFFFFFFFFFFFFFFFFFFFFFFFFFFFFFFFFF NOT AND SUB PUSH2 0x160F JUMPI PUSH1 0x40 DUP3 PUSH0 ADD MLOAD MLOAD GT ISZERO SWAP1 POP PUSH2 0x161C JUMP JUMPDEST PUSH2 0x100 DUP3 PUSH0 ADD MLOAD MLOAD GT ISZERO SWAP1 POP JUMPDEST SWAP2 SWAP1 POP JUMP JUMPDEST PUSH0 DUP1 DUP3 PUSH0 MSTORE PUSH1 0x16 PUSH1 0xA PUSH1 0x20 PUSH0 PUSH20 0xFE00000000000000000000000000000000000002 GAS STATICCALL SWAP2 POP PUSH0 MLOAD DUP1 PUSH20 0xFFFFFFFFFFFFFFFFFFFFFFFFFFFFFFFFFFFFFFFF AND SWAP2 POP DUP1 PUSH1 0xA0 SHR PUSH2 0xFFFF AND PUSH2 0x40A DUP2 EQ PUSH2 0x1679 JUMPI PUSH0 SWAP4 POP PUSH0 SWAP3 POP JUMPDEST POP POP DUP2 ISZERO DUP1 PUSH2 0x1690 JUMPI POP PUSH1 0x16 PUSH2 0x168D PUSH2 0x19A7 JUMP JUMPDEST EQ ISZERO JUMPDEST ISZERO PUSH2 0x16A0 JUMPI PUSH0 DUP1 SWAP2 POP SWAP2 POP PUSH2 0x16A1 JUMP JUMPDEST JUMPDEST SWAP2 POP SWAP2 JUMP JUMPDEST PUSH0 DUP2 PUSH20 0xFF00000000000000000000000000000000000000 OR SWAP1 POP SWAP2 SWAP1 POP JUMP JUMPDEST PUSH0 PUSH32 0xF0C57E16840DF040F15088DC2F81FE391C3923BEC73E23A9662EFC9C229C6A00 PUSH0 SHL SWAP1 POP SWAP1 JUMP JUMPDEST PUSH2 0x16F6 PUSH2 0x19AE JUMP JUMPDEST PUSH2 0x172C JUMPI PUSH1 0x40 MLOAD PUSH32 0xD7E6BCF800000000000000000000000000000000000000000000000000000000 DUP2 MSTORE PUSH1 0x4 ADD PUSH1 0x40 MLOAD DUP1 SWAP2 SUB SWAP1 REVERT JUMPDEST JUMP JUMPDEST PUSH2 0x1736 PUSH2 0x16EE JUMP JUMPDEST PUSH0 PUSH20 0xFFFFFFFFFFFFFFFFFFFFFFFFFFFFFFFFFFFFFFFF AND DUP2 PUSH20 0xFFFFFFFFFFFFFFFFFFFFFFFFFFFFFFFFFFFFFFFF AND SUB PUSH2 0x17A6 JUMPI PUSH0 PUSH1 0x40 MLOAD PUSH32 0x1E4FBDF700000000000000000000000000000000000000000000000000000000 DUP2 MSTORE PUSH1 0x4 ADD PUSH2 0x179D SWAP2 SWAP1 PUSH2 0x207D JUMP JUMPDEST PUSH1 0x40 MLOAD DUP1 SWAP2 SUB SWAP1 REVERT JUMPDEST PUSH2 0x17AF DUP2 PUSH2 0xFC3 JUMP JUMPDEST POP JUMP JUMPDEST PUSH1 0x60 PUSH0 PUSH2 0x17C0 DUP4 PUSH0 ADD PUSH2 0x19CC JUMP JUMPDEST SWAP1 POP PUSH1 0x60 DUP2 SWAP1 POP DUP1 SWAP3 POP POP POP SWAP2 SWAP1 POP JUMP JUMPDEST PUSH0 PUSH2 0x17DE DUP4 PUSH0 ADD DUP4 PUSH2 0x1A25 JUMP JUMPDEST SWAP1 POP SWAP3 SWAP2 POP POP JUMP JUMPDEST PUSH0 PUSH2 0x17F3 DUP4 PUSH0 ADD DUP4 PUSH2 0x1A8C JUMP JUMPDEST SWAP1 POP SWAP3 SWAP2 POP POP JUMP JUMPDEST PUSH0 PUSH2 0x1811 DUP3 DUP5 PUSH0 ADD PUSH2 0x1B88 SWAP1 SWAP2 SWAP1 PUSH4 0xFFFFFFFF AND JUMP JUMPDEST SWAP1 POP SWAP3 SWAP2 POP POP JUMP JUMPDEST PUSH0 DUP2 SWAP1 POP SWAP2 SWAP1 POP JUMP JUMPDEST PUSH0 DUP2 PUSH20 0xFFFFFFFFFFFFFFFFFFFFFFFFFFFFFFFFFFFFFFFF AND EXTCODESIZE SUB PUSH2 0x187D JUMPI DUP1 PUSH1 0x40 MLOAD PUSH32 0x4C9C8CE300000000000000000000000000000000000000000000000000000000 DUP2 MSTORE PUSH1 0x4 ADD PUSH2 0x1874 SWAP2 SWAP1 PUSH2 0x207D JUMP JUMPDEST PUSH1 0x40 MLOAD DUP1 SWAP2 SUB SWAP1 REVERT JUMPDEST DUP1 PUSH2 0x18A9 PUSH32 0x360894A13BA1A3210667C828492DB98DCA3E2076CC3735A920A3CA505D382BBC PUSH0 SHL PUSH2 0x1819 JUMP JUMPDEST PUSH0 ADD PUSH0 PUSH2 0x100 EXP DUP2 SLOAD DUP2 PUSH20 0xFFFFFFFFFFFFFFFFFFFFFFFFFFFFFFFFFFFFFFFF MUL NOT AND SWAP1 DUP4 PUSH20 0xFFFFFFFFFFFFFFFFFFFFFFFFFFFFFFFFFFFFFFFF AND MUL OR SWAP1 SSTORE POP POP JUMP JUMPDEST PUSH1 0x60 PUSH0 DUP1 DUP5 PUSH20 0xFFFFFFFFFFFFFFFFFFFFFFFFFFFFFFFFFFFFFFFF AND DUP5 PUSH1 0x40 MLOAD PUSH2 0x1914 SWAP2 SWAP1 PUSH2 0x2454 JUMP JUMPDEST PUSH0 PUSH1 0x40 MLOAD DUP1 DUP4 SUB DUP2 DUP6 GAS DELEGATECALL SWAP2 POP POP RETURNDATASIZE DUP1 PUSH0 DUP2 EQ PUSH2 0x194C JUMPI PUSH1 0x40 MLOAD SWAP2 POP PUSH1 0x1F NOT PUSH1 0x3F RETURNDATASIZE ADD AND DUP3 ADD PUSH1 0x40 MSTORE RETURNDATASIZE DUP3 MSTORE RETURNDATASIZE PUSH0 PUSH1 0x20 DUP5 ADD RETURNDATACOPY PUSH2 0x1951 JUMP JUMPDEST PUSH1 0x60 SWAP2 POP JUMPDEST POP SWAP2 POP SWAP2 POP PUSH2 0x1961 DUP6 DUP4 DUP4 PUSH2 0x1B9D JUMP JUMPDEST SWAP3 POP POP POP SWAP3 SWAP2 POP POP JUMP JUMPDEST PUSH0 CALLVALUE GT ISZERO PUSH2 0x19A5 JUMPI PUSH1 0x40 MLOAD PUSH32 0xB398979F00000000000000000000000000000000000000000000000000000000 DUP2 MSTORE PUSH1 0x4 ADD PUSH1 0x40 MLOAD DUP1 SWAP2 SUB SWAP1 REVERT JUMPDEST JUMP JUMPDEST PUSH0 RETURNDATASIZE SWAP1 POP SWAP1 JUMP JUMPDEST PUSH0 PUSH2 0x19B7 PUSH2 0x1196 JUMP JUMPDEST PUSH0 ADD PUSH1 0x8 SWAP1 SLOAD SWAP1 PUSH2 0x100 EXP SWAP1 DIV PUSH1 0xFF AND SWAP1 POP SWAP1 JUMP JUMPDEST PUSH1 0x60 DUP2 PUSH0 ADD DUP1 SLOAD DUP1 PUSH1 0x20 MUL PUSH1 0x20 ADD PUSH1 0x40 MLOAD SWAP1 DUP2 ADD PUSH1 0x40 MSTORE DUP1 SWAP3 SWAP2 SWAP1 DUP2 DUP2 MSTORE PUSH1 0x20 ADD DUP3 DUP1 SLOAD DUP1 ISZERO PUSH2 0x1A19 JUMPI PUSH1 0x20 MUL DUP3 ADD SWAP2 SWAP1 PUSH0 MSTORE PUSH1 0x20 PUSH0 KECCAK256 SWAP1 JUMPDEST DUP2 SLOAD DUP2 MSTORE PUSH1 0x20 ADD SWAP1 PUSH1 0x1 ADD SWAP1 DUP1 DUP4 GT PUSH2 0x1A05 JUMPI JUMPDEST POP POP POP POP POP SWAP1 POP SWAP2 SWAP1 POP JUMP JUMPDEST PUSH0 PUSH2 0x1A30 DUP4 DUP4 PUSH2 0x1C2A JUMP JUMPDEST PUSH2 0x1A82 JUMPI DUP3 PUSH0 ADD DUP3 SWAP1 DUP1 PUSH1 0x1 DUP2 SLOAD ADD DUP1 DUP3 SSTORE DUP1 SWAP2 POP POP PUSH1 0x1 SWAP1 SUB SWAP1 PUSH0 MSTORE PUSH1 0x20 PUSH0 KECCAK256 ADD PUSH0 SWAP1 SWAP2 SWAP1 SWAP2 SWAP1 SWAP2 POP SSTORE DUP3 PUSH0 ADD DUP1 SLOAD SWAP1 POP DUP4 PUSH1 0x1 ADD PUSH0 DUP5 DUP2 MSTORE PUSH1 0x20 ADD SWAP1 DUP2 MSTORE PUSH1 0x20 ADD PUSH0 KECCAK256 DUP2 SWAP1 SSTORE POP PUSH1 0x1 SWAP1 POP PUSH2 0x1A86 JUMP JUMPDEST PUSH0 SWAP1 POP JUMPDEST SWAP3 SWAP2 POP POP JUMP JUMPDEST PUSH0 DUP1 DUP4 PUSH1 0x1 ADD PUSH0 DUP5 DUP2 MSTORE PUSH1 0x20 ADD SWAP1 DUP2 MSTORE PUSH1 0x20 ADD PUSH0 KECCAK256 SLOAD SWAP1 POP PUSH0 DUP2 EQ PUSH2 0x1B7D JUMPI PUSH0 PUSH1 0x1 DUP3 PUSH2 0x1AB9 SWAP2 SWAP1 PUSH2 0x2224 JUMP JUMPDEST SWAP1 POP PUSH0 PUSH1 0x1 DUP7 PUSH0 ADD DUP1 SLOAD SWAP1 POP PUSH2 0x1ACF SWAP2 SWAP1 PUSH2 0x2224 JUMP JUMPDEST SWAP1 POP DUP1 DUP3 EQ PUSH2 0x1B35 JUMPI PUSH0 DUP7 PUSH0 ADD DUP3 DUP2 SLOAD DUP2 LT PUSH2 0x1AEE JUMPI PUSH2 0x1AED PUSH2 0x24A9 JUMP JUMPDEST JUMPDEST SWAP1 PUSH0 MSTORE PUSH1 0x20 PUSH0 KECCAK256 ADD SLOAD SWAP1 POP DUP1 DUP8 PUSH0 ADD DUP5 DUP2 SLOAD DUP2 LT PUSH2 0x1B0F JUMPI PUSH2 0x1B0E PUSH2 0x24A9 JUMP JUMPDEST JUMPDEST SWAP1 PUSH0 MSTORE PUSH1 0x20 PUSH0 KECCAK256 ADD DUP2 SWAP1 SSTORE POP DUP4 DUP8 PUSH1 0x1 ADD PUSH0 DUP4 DUP2 MSTORE PUSH1 0x20 ADD SWAP1 DUP2 MSTORE PUSH1 0x20 ADD PUSH0 KECCAK256 DUP2 SWAP1 SSTORE POP POP JUMPDEST DUP6 PUSH0 ADD DUP1 SLOAD DUP1 PUSH2 0x1B48 JUMPI PUSH2 0x1B47 PUSH2 0x24D6 JUMP JUMPDEST JUMPDEST PUSH1 0x1 SWAP1 SUB DUP2 DUP2 SWAP1 PUSH0 MSTORE PUSH1 0x20 PUSH0 KECCAK256 ADD PUSH0 SWAP1 SSTORE SWAP1 SSTORE DUP6 PUSH1 0x1 ADD PUSH0 DUP7 DUP2 MSTORE PUSH1 0x20 ADD SWAP1 DUP2 MSTORE PUSH1 0x20 ADD PUSH0 KECCAK256 PUSH0 SWAP1 SSTORE PUSH1 0x1 SWAP4 POP POP POP POP PUSH2 0x1B82 JUMP JUMPDEST PUSH0 SWAP2 POP POP JUMPDEST SWAP3 SWAP2 POP POP JUMP JUMPDEST PUSH0 PUSH2 0x1B95 DUP4 PUSH0 ADD DUP4 PUSH2 0x1C2A JUMP JUMPDEST SWAP1 POP SWAP3 SWAP2 POP POP JUMP JUMPDEST PUSH1 0x60 DUP3 PUSH2 0x1BB2 JUMPI PUSH2 0x1BAD DUP3 PUSH2 0x1C4A JUMP JUMPDEST PUSH2 0x1C22 JUMP JUMPDEST PUSH0 DUP3 MLOAD EQ DUP1 ISZERO PUSH2 0x1BD8 JUMPI POP PUSH0 DUP5 PUSH20 0xFFFFFFFFFFFFFFFFFFFFFFFFFFFFFFFFFFFFFFFF AND EXTCODESIZE EQ JUMPDEST ISZERO PUSH2 0x1C1A JUMPI DUP4 PUSH1 0x40 MLOAD PUSH32 0x9996B31500000000000000000000000000000000000000000000000000000000 DUP2 MSTORE PUSH1 0x4 ADD PUSH2 0x1C11 SWAP2 SWAP1 PUSH2 0x207D JUMP JUMPDEST PUSH1 0x40 MLOAD DUP1 SWAP2 SUB SWAP1 REVERT JUMPDEST DUP2 SWAP1 POP PUSH2 0x1C23 JUMP JUMPDEST JUMPDEST SWAP4 SWAP3 POP POP POP JUMP JUMPDEST PUSH0 DUP1 DUP4 PUSH1 0x1 ADD PUSH0 DUP5 DUP2 MSTORE PUSH1 0x20 ADD SWAP1 DUP2 MSTORE PUSH1 0x20 ADD PUSH0 KECCAK256 SLOAD EQ ISZERO SWAP1 POP SWAP3 SWAP2 POP POP JUMP JUMPDEST PUSH0 DUP2 MLOAD GT ISZERO PUSH2 0x1C5C JUMPI DUP1 MLOAD DUP1 DUP3 PUSH1 0x20 ADD REVERT JUMPDEST PUSH1 0x40 MLOAD PUSH32 0xD6BDA27500000000000000000000000000000000000000000000000000000000 DUP2 MSTORE PUSH1 0x4 ADD PUSH1 0x40 MLOAD DUP1 SWAP2 SUB SWAP1 REVERT JUMPDEST PUSH1 0x40 MLOAD DUP1 PUSH1 0x20 ADD PUSH1 0x40 MSTORE DUP1 PUSH1 0x60 DUP2 MSTORE POP SWAP1 JUMP JUMPDEST PUSH0 DUP2 MLOAD SWAP1 POP SWAP2 SWAP1 POP JUMP JUMPDEST PUSH0 DUP3 DUP3 MSTORE PUSH1 0x20 DUP3 ADD SWAP1 POP SWAP3 SWAP2 POP POP JUMP JUMPDEST PUSH0 DUP2 SWAP1 POP PUSH1 0x20 DUP3 ADD SWAP1 POP SWAP2 SWAP1 POP JUMP JUMPDEST PUSH0 PUSH20 0xFFFFFFFFFFFFFFFFFFFFFFFFFFFFFFFFFFFFFFFF DUP3 AND SWAP1 POP SWAP2 SWAP1 POP JUMP JUMPDEST PUSH0 PUSH2 0x1CF3 DUP3 PUSH2 0x1CCA JUMP JUMPDEST SWAP1 POP SWAP2 SWAP1 POP JUMP JUMPDEST PUSH2 0x1D03 DUP2 PUSH2 0x1CE9 JUMP JUMPDEST DUP3 MSTORE POP POP JUMP JUMPDEST PUSH0 PUSH2 0x1D14 DUP4 DUP4 PUSH2 0x1CFA JUMP JUMPDEST PUSH1 0x20 DUP4 ADD SWAP1 POP SWAP3 SWAP2 POP POP JUMP JUMPDEST PUSH0 PUSH1 0x20 DUP3 ADD SWAP1 POP SWAP2 SWAP1 POP JUMP JUMPDEST PUSH0 PUSH2 0x1D36 DUP3 PUSH2 0x1CA1 JUMP JUMPDEST PUSH2 0x1D40 DUP2 DUP6 PUSH2 0x1CAB JUMP JUMPDEST SWAP4 POP PUSH2 0x1D4B DUP4 PUSH2 0x1CBB JUMP JUMPDEST DUP1 PUSH0 JUMPDEST DUP4 DUP2 LT ISZERO PUSH2 0x1D7B JUMPI DUP2 MLOAD PUSH2 0x1D62 DUP9 DUP3 PUSH2 0x1D09 JUMP JUMPDEST SWAP8 POP PUSH2 0x1D6D DUP4 PUSH2 0x1D20 JUMP JUMPDEST SWAP3 POP POP PUSH1 0x1 DUP2 ADD SWAP1 POP PUSH2 0x1D4E JUMP JUMPDEST POP DUP6 SWAP4 POP POP POP POP SWAP3 SWAP2 POP POP JUMP JUMPDEST PUSH0 PUSH1 0x20 DUP3 ADD SWAP1 POP DUP2 DUP2 SUB PUSH0 DUP4 ADD MSTORE PUSH2 0x1DA0 DUP2 DUP5 PUSH2 0x1D2C JUMP JUMPDEST SWAP1 POP SWAP3 SWAP2 POP POP JUMP JUMPDEST PUSH0 PUSH1 0x40 MLOAD SWAP1 POP SWAP1 JUMP JUMPDEST PUSH0 DUP1 REVERT JUMPDEST PUSH0 DUP1 REVERT JUMPDEST PUSH2 0x1DC2 DUP2 PUSH2 0x1CE9 JUMP JUMPDEST DUP2 EQ PUSH2 0x1DCC JUMPI PUSH0 DUP1 REVERT JUMPDEST POP JUMP JUMPDEST PUSH0 DUP2 CALLDATALOAD SWAP1 POP PUSH2 0x1DDD DUP2 PUSH2 0x1DB9 JUMP JUMPDEST SWAP3 SWAP2 POP POP JUMP JUMPDEST PUSH0 DUP2 SWAP1 POP SWAP2 SWAP1 POP JUMP JUMPDEST PUSH2 0x1DF5 DUP2 PUSH2 0x1DE3 JUMP JUMPDEST DUP2 EQ PUSH2 0x1DFF JUMPI PUSH0 DUP1 REVERT JUMPDEST POP JUMP JUMPDEST PUSH0 DUP2 CALLDATALOAD SWAP1 POP PUSH2 0x1E10 DUP2 PUSH2 0x1DEC JUMP JUMPDEST SWAP3 SWAP2 POP POP JUMP JUMPDEST PUSH0 DUP1 PUSH1 0x40 DUP4 DUP6 SUB SLT ISZERO PUSH2 0x1E2C JUMPI PUSH2 0x1E2B PUSH2 0x1DB1 JUMP JUMPDEST JUMPDEST PUSH0 PUSH2 0x1E39 DUP6 DUP3 DUP7 ADD PUSH2 0x1DCF JUMP JUMPDEST SWAP3 POP POP PUSH1 0x20 PUSH2 0x1E4A DUP6 DUP3 DUP7 ADD PUSH2 0x1E02 JUMP JUMPDEST SWAP2 POP POP SWAP3 POP SWAP3 SWAP1 POP JUMP JUMPDEST PUSH0 PUSH1 0x20 DUP3 DUP5 SUB SLT ISZERO PUSH2 0x1E69 JUMPI PUSH2 0x1E68 PUSH2 0x1DB1 JUMP JUMPDEST JUMPDEST PUSH0 PUSH2 0x1E76 DUP5 DUP3 DUP6 ADD PUSH2 0x1DCF JUMP JUMPDEST SWAP2 POP POP SWAP3 SWAP2 POP POP JUMP JUMPDEST PUSH2 0x1E88 DUP2 PUSH2 0x1DE3 JUMP JUMPDEST DUP3 MSTORE POP POP JUMP JUMPDEST PUSH0 PUSH1 0x20 DUP3 ADD SWAP1 POP PUSH2 0x1EA1 PUSH0 DUP4 ADD DUP5 PUSH2 0x1E7F JUMP JUMPDEST SWAP3 SWAP2 POP POP JUMP JUMPDEST PUSH0 DUP1 REVERT JUMPDEST PUSH0 DUP1 REVERT JUMPDEST PUSH0 PUSH1 0x1F NOT PUSH1 0x1F DUP4 ADD AND SWAP1 POP SWAP2 SWAP1 POP JUMP JUMPDEST PUSH32 0x4E487B7100000000000000000000000000000000000000000000000000000000 PUSH0 MSTORE PUSH1 0x41 PUSH1 0x4 MSTORE PUSH1 0x24 PUSH0 REVERT JUMPDEST PUSH2 0x1EF5 DUP3 PUSH2 0x1EAF JUMP JUMPDEST DUP2 ADD DUP2 DUP2 LT PUSH8 0xFFFFFFFFFFFFFFFF DUP3 GT OR ISZERO PUSH2 0x1F14 JUMPI PUSH2 0x1F13 PUSH2 0x1EBF JUMP JUMPDEST JUMPDEST DUP1 PUSH1 0x40 MSTORE POP POP POP JUMP JUMPDEST PUSH0 PUSH2 0x1F26 PUSH2 0x1DA8 JUMP JUMPDEST SWAP1 POP PUSH2 0x1F32 DUP3 DUP3 PUSH2 0x1EEC JUMP JUMPDEST SWAP2 SWAP1 POP JUMP JUMPDEST PUSH0 PUSH8 0xFFFFFFFFFFFFFFFF DUP3 GT ISZERO PUSH2 0x1F51 JUMPI PUSH2 0x1F50 PUSH2 0x1EBF JUMP JUMPDEST JUMPDEST PUSH2 0x1F5A DUP3 PUSH2 0x1EAF JUMP JUMPDEST SWAP1 POP PUSH1 0x20 DUP2 ADD SWAP1 POP SWAP2 SWAP1 POP JUMP JUMPDEST DUP3 DUP2 DUP4 CALLDATACOPY PUSH0 DUP4 DUP4 ADD MSTORE POP POP POP JUMP JUMPDEST PUSH0 PUSH2 0x1F87 PUSH2 0x1F82 DUP5 PUSH2 0x1F37 JUMP JUMPDEST PUSH2 0x1F1D JUMP JUMPDEST SWAP1 POP DUP3 DUP2 MSTORE PUSH1 0x20 DUP2 ADD DUP5 DUP5 DUP5 ADD GT ISZERO PUSH2 0x1FA3 JUMPI PUSH2 0x1FA2 PUSH2 0x1EAB JUMP JUMPDEST JUMPDEST PUSH2 0x1FAE DUP5 DUP3 DUP6 PUSH2 0x1F67 JUMP JUMPDEST POP SWAP4 SWAP3 POP POP POP JUMP JUMPDEST PUSH0 DUP3 PUSH1 0x1F DUP4 ADD SLT PUSH2 0x1FCA JUMPI PUSH2 0x1FC9 PUSH2 0x1EA7 JUMP JUMPDEST JUMPDEST DUP2 CALLDATALOAD PUSH2 0x1FDA DUP5 DUP3 PUSH1 0x20 DUP7 ADD PUSH2 0x1F75 JUMP JUMPDEST SWAP2 POP POP SWAP3 SWAP2 POP POP JUMP JUMPDEST PUSH0 DUP1 PUSH1 0x40 DUP4 DUP6 SUB SLT ISZERO PUSH2 0x1FF9 JUMPI PUSH2 0x1FF8 PUSH2 0x1DB1 JUMP JUMPDEST JUMPDEST PUSH0 PUSH2 0x2006 DUP6 DUP3 DUP7 ADD PUSH2 0x1DCF JUMP JUMPDEST SWAP3 POP POP PUSH1 0x20 DUP4 ADD CALLDATALOAD PUSH8 0xFFFFFFFFFFFFFFFF DUP2 GT ISZERO PUSH2 0x2027 JUMPI PUSH2 0x2026 PUSH2 0x1DB5 JUMP JUMPDEST JUMPDEST PUSH2 0x2033 DUP6 DUP3 DUP7 ADD PUSH2 0x1FB6 JUMP JUMPDEST SWAP2 POP POP SWAP3 POP SWAP3 SWAP1 POP JUMP JUMPDEST PUSH0 DUP2 SWAP1 POP SWAP2 SWAP1 POP JUMP JUMPDEST PUSH2 0x204F DUP2 PUSH2 0x203D JUMP JUMPDEST DUP3 MSTORE POP POP JUMP JUMPDEST PUSH0 PUSH1 0x20 DUP3 ADD SWAP1 POP PUSH2 0x2068 PUSH0 DUP4 ADD DUP5 PUSH2 0x2046 JUMP JUMPDEST SWAP3 SWAP2 POP POP JUMP JUMPDEST PUSH2 0x2077 DUP2 PUSH2 0x1CE9 JUMP JUMPDEST DUP3 MSTORE POP POP JUMP JUMPDEST PUSH0 PUSH1 0x20 DUP3 ADD SWAP1 POP PUSH2 0x2090 PUSH0 DUP4 ADD DUP5 PUSH2 0x206E JUMP JUMPDEST SWAP3 SWAP2 POP POP JUMP JUMPDEST PUSH0 DUP1 REVERT JUMPDEST PUSH0 DUP1 REVERT JUMPDEST PUSH0 DUP1 DUP4 PUSH1 0x1F DUP5 ADD SLT PUSH2 0x20B3 JUMPI PUSH2 0x20B2 PUSH2 0x1EA7 JUMP JUMPDEST JUMPDEST DUP3 CALLDATALOAD SWAP1 POP PUSH8 0xFFFFFFFFFFFFFFFF DUP2 GT ISZERO PUSH2 0x20D0 JUMPI PUSH2 0x20CF PUSH2 0x2096 JUMP JUMPDEST JUMPDEST PUSH1 0x20 DUP4 ADD SWAP2 POP DUP4 PUSH1 0x1 DUP3 MUL DUP4 ADD GT ISZERO PUSH2 0x20EC JUMPI PUSH2 0x20EB PUSH2 0x209A JUMP JUMPDEST JUMPDEST SWAP3 POP SWAP3 SWAP1 POP JUMP JUMPDEST PUSH0 DUP1 PUSH0 PUSH1 0x40 DUP5 DUP7 SUB SLT ISZERO PUSH2 0x210A JUMPI PUSH2 0x2109 PUSH2 0x1DB1 JUMP JUMPDEST JUMPDEST PUSH0 DUP5 ADD CALLDATALOAD PUSH8 0xFFFFFFFFFFFFFFFF DUP2 GT ISZERO PUSH2 0x2127 JUMPI PUSH2 0x2126 PUSH2 0x1DB5 JUMP JUMPDEST JUMPDEST PUSH2 0x2133 DUP7 DUP3 DUP8 ADD PUSH2 0x209E JUMP JUMPDEST SWAP4 POP SWAP4 POP POP PUSH1 0x20 PUSH2 0x2146 DUP7 DUP3 DUP8 ADD PUSH2 0x1E02 JUMP JUMPDEST SWAP2 POP POP SWAP3 POP SWAP3 POP SWAP3 JUMP JUMPDEST PUSH0 DUP2 MLOAD SWAP1 POP SWAP2 SWAP1 POP JUMP JUMPDEST PUSH0 DUP3 DUP3 MSTORE PUSH1 0x20 DUP3 ADD SWAP1 POP SWAP3 SWAP2 POP POP JUMP JUMPDEST DUP3 DUP2 DUP4 MCOPY PUSH0 DUP4 DUP4 ADD MSTORE POP POP POP JUMP JUMPDEST PUSH0 PUSH2 0x2182 DUP3 PUSH2 0x2150 JUMP JUMPDEST PUSH2 0x218C DUP2 DUP6 PUSH2 0x215A JUMP JUMPDEST SWAP4 POP PUSH2 0x219C DUP2 DUP6 PUSH1 0x20 DUP7 ADD PUSH2 0x216A JUMP JUMPDEST PUSH2 0x21A5 DUP2 PUSH2 0x1EAF JUMP JUMPDEST DUP5 ADD SWAP2 POP POP SWAP3 SWAP2 POP POP JUMP JUMPDEST PUSH0 PUSH1 0x20 DUP3 ADD SWAP1 POP DUP2 DUP2 SUB PUSH0 DUP4 ADD MSTORE PUSH2 0x21C8 DUP2 DUP5 PUSH2 0x2178 JUMP JUMPDEST SWAP1 POP SWAP3 SWAP2 POP POP JUMP JUMPDEST PUSH0 PUSH1 0x40 DUP3 ADD SWAP1 POP PUSH2 0x21E3 PUSH0 DUP4 ADD DUP6 PUSH2 0x1E7F JUMP JUMPDEST PUSH2 0x21F0 PUSH1 0x20 DUP4 ADD DUP5 PUSH2 0x1E7F JUMP JUMPDEST SWAP4 SWAP3 POP POP POP JUMP JUMPDEST PUSH32 0x4E487B7100000000000000000000000000000000000000000000000000000000 PUSH0 MSTORE PUSH1 0x11 PUSH1 0x4 MSTORE PUSH1 0x24 PUSH0 REVERT JUMPDEST PUSH0 PUSH2 0x222E DUP3 PUSH2 0x1DE3 JUMP JUMPDEST SWAP2 POP PUSH2 0x2239 DUP4 PUSH2 0x1DE3 JUMP JUMPDEST SWAP3 POP DUP3 DUP3 SUB SWAP1 POP DUP2 DUP2 GT ISZERO PUSH2 0x2251 JUMPI PUSH2 0x2250 PUSH2 0x21F7 JUMP JUMPDEST JUMPDEST SWAP3 SWAP2 POP POP JUMP JUMPDEST PUSH0 DUP2 SWAP1 POP SWAP3 SWAP2 POP POP JUMP JUMPDEST PUSH0 PUSH2 0x226C DUP4 DUP6 PUSH2 0x2257 JUMP JUMPDEST SWAP4 POP PUSH2 0x2279 DUP4 DUP6 DUP5 PUSH2 0x1F67 JUMP JUMPDEST DUP3 DUP5 ADD SWAP1 POP SWAP4 SWAP3 POP POP POP JUMP JUMPDEST PUSH0 PUSH2 0x2291 DUP3 DUP5 DUP7 PUSH2 0x2261 JUMP JUMPDEST SWAP2 POP DUP2 SWAP1 POP SWAP4 SWAP3 POP POP POP JUMP JUMPDEST PUSH0 PUSH1 0x40 DUP3 ADD SWAP1 POP PUSH2 0x22B0 PUSH0 DUP4 ADD DUP6 PUSH2 0x206E JUMP JUMPDEST PUSH2 0x22BD PUSH1 0x20 DUP4 ADD DUP5 PUSH2 0x1E7F JUMP JUMPDEST SWAP4 SWAP3 POP POP POP JUMP JUMPDEST PUSH0 DUP2 ISZERO ISZERO SWAP1 POP SWAP2 SWAP1 POP JUMP JUMPDEST PUSH2 0x22D8 DUP2 PUSH2 0x22C4 JUMP JUMPDEST DUP2 EQ PUSH2 0x22E2 JUMPI PUSH0 DUP1 REVERT JUMPDEST POP JUMP JUMPDEST PUSH0 DUP2 MLOAD SWAP1 POP PUSH2 0x22F3 DUP2 PUSH2 0x22CF JUMP JUMPDEST SWAP3 SWAP2 POP POP JUMP JUMPDEST PUSH0 PUSH1 0x20 DUP3 DUP5 SUB SLT ISZERO PUSH2 0x230E JUMPI PUSH2 0x230D PUSH2 0x1DB1 JUMP JUMPDEST JUMPDEST PUSH0 PUSH2 0x231B DUP5 DUP3 DUP6 ADD PUSH2 0x22E5 JUMP JUMPDEST SWAP2 POP POP SWAP3 SWAP2 POP POP JUMP JUMPDEST PUSH0 DUP2 SWAP1 POP SWAP2 SWAP1 POP JUMP JUMPDEST PUSH0 PUSH8 0xFFFFFFFFFFFFFFFF DUP3 AND SWAP1 POP SWAP2 SWAP1 POP JUMP JUMPDEST PUSH0 DUP2 SWAP1 POP SWAP2 SWAP1 POP JUMP JUMPDEST PUSH0 PUSH2 0x2363 PUSH2 0x235E PUSH2 0x2359 DUP5 PUSH2 0x2324 JUMP JUMPDEST PUSH2 0x2340 JUMP JUMPDEST PUSH2 0x232D JUMP JUMPDEST SWAP1 POP SWAP2 SWAP1 POP JUMP JUMPDEST PUSH2 0x2373 DUP2 PUSH2 0x2349 JUMP JUMPDEST DUP3 MSTORE POP POP JUMP JUMPDEST PUSH0 PUSH1 0x20 DUP3 ADD SWAP1 POP PUSH2 0x238C PUSH0 DUP4 ADD DUP5 PUSH2 0x236A JUMP JUMPDEST SWAP3 SWAP2 POP POP JUMP JUMPDEST PUSH0 PUSH2 0x239C DUP3 PUSH2 0x1DE3 JUMP JUMPDEST SWAP2 POP PUSH2 0x23A7 DUP4 PUSH2 0x1DE3 JUMP JUMPDEST SWAP3 POP DUP3 DUP3 ADD SWAP1 POP DUP1 DUP3 GT ISZERO PUSH2 0x23BF JUMPI PUSH2 0x23BE PUSH2 0x21F7 JUMP JUMPDEST JUMPDEST SWAP3 SWAP2 POP POP JUMP JUMPDEST PUSH2 0x23CE DUP2 PUSH2 0x203D JUMP JUMPDEST DUP2 EQ PUSH2 0x23D8 JUMPI PUSH0 DUP1 REVERT JUMPDEST POP JUMP JUMPDEST PUSH0 DUP2 MLOAD SWAP1 POP PUSH2 0x23E9 DUP2 PUSH2 0x23C5 JUMP JUMPDEST SWAP3 SWAP2 POP POP JUMP JUMPDEST PUSH0 PUSH1 0x20 DUP3 DUP5 SUB SLT ISZERO PUSH2 0x2404 JUMPI PUSH2 0x2403 PUSH2 0x1DB1 JUMP JUMPDEST JUMPDEST PUSH0 PUSH2 0x2411 DUP5 DUP3 DUP6 ADD PUSH2 0x23DB JUMP JUMPDEST SWAP2 POP POP SWAP3 SWAP2 POP POP JUMP JUMPDEST PUSH0 DUP2 MLOAD SWAP1 POP SWAP2 SWAP1 POP JUMP JUMPDEST PUSH0 PUSH2 0x242E DUP3 PUSH2 0x241A JUMP JUMPDEST PUSH2 0x2438 DUP2 DUP6 PUSH2 0x2257 JUMP JUMPDEST SWAP4 POP PUSH2 0x2448 DUP2 DUP6 PUSH1 0x20 DUP7 ADD PUSH2 0x216A JUMP JUMPDEST DUP1 DUP5 ADD SWAP2 POP POP SWAP3 SWAP2 POP POP JUMP JUMPDEST PUSH0 PUSH2 0x245F DUP3 DUP5 PUSH2 0x2424 JUMP JUMPDEST SWAP2 POP DUP2 SWAP1 POP SWAP3 SWAP2 POP POP JUMP JUMPDEST PUSH0 DUP2 MLOAD SWAP1 POP PUSH2 0x2478 DUP2 PUSH2 0x1DEC JUMP JUMPDEST SWAP3 SWAP2 POP POP JUMP JUMPDEST PUSH0 PUSH1 0x20 DUP3 DUP5 SUB SLT ISZERO PUSH2 0x2493 JUMPI PUSH2 0x2492 PUSH2 0x1DB1 JUMP JUMPDEST JUMPDEST PUSH0 PUSH2 0x24A0 DUP5 DUP3 DUP6 ADD PUSH2 0x246A JUMP JUMPDEST SWAP2 POP POP SWAP3 SWAP2 POP POP JUMP JUMPDEST PUSH32 0x4E487B7100000000000000000000000000000000000000000000000000000000 PUSH0 MSTORE PUSH1 0x32 PUSH1 0x4 MSTORE PUSH1 0x24 PUSH0 REVERT JUMPDEST PUSH32 0x4E487B7100000000000000000000000000000000000000000000000000000000 PUSH0 MSTORE PUSH1 0x31 PUSH1 0x4 MSTORE PUSH1 0x24 PUSH0 REVERT INVALID LOG2 PUSH5 0x6970667358 0x22 SLT KECCAK256 0xAE 0xC RETURNDATACOPY SWAP9 DUP16 0xC0 TSTORE ORIGIN 0xDB 0xD6 SWAP5 SAR COINBASE LOG2 0xD8 STATICCALL DUP10 0x1E PUSH12 0xE8BFF6B9499FD635F065E LOG4 PUSH5 0x736F6C6343 STOP ADDMOD BYTE STOP CALLER "
		},
		"gasEstimates": {
			"creation": {
				"codeDepositCost": "1905800",
				"executionCost": "infinite",
				"totalCost": "infinite"
			},
			"external": {
				"UPGRADE_INTERFACE_VERSION()": "infinite",
				"acceptOwnership()": "infinite",
				"addAllowance(address,uint256)": "infinite",
				"addVerifiedClient(bytes,uint256)": "infinite",
				"allowance(address)": "infinite",
				"getAllocators()": "infinite",
				"initialize(address)": "infinite",
				"mockDatacap()": "2530",
				"owner()": "2590",
				"pendingOwner()": "2611",
				"proxiableUUID()": "infinite",
				"renounceOwnership()": "infinite",
				"setAllowance(address,uint256)": "infinite",
				"transferOwnership(address)": "infinite",
				"upgradeToAndCall(address,bytes)": "infinite"
			},
			"internal": {
				"_authorizeUpgrade(address)": "infinite"
			}
		},
		"methodIdentifiers": {
			"UPGRADE_INTERFACE_VERSION()": "ad3cb1cc",
			"acceptOwnership()": "79ba5097",
			"addAllowance(address,uint256)": "f3c40c4b",
			"addVerifiedClient(bytes,uint256)": "930fc006",
			"allowance(address)": "3e5beab9",
			"getAllocators()": "04951d64",
			"initialize(address)": "c4d66de8",
			"mockDatacap()": "e0591efd",
			"owner()": "8da5cb5b",
			"pendingOwner()": "e30c3978",
			"proxiableUUID()": "52d1902d",
			"renounceOwnership()": "715018a6",
			"setAllowance(address,uint256)": "310ec4a7",
			"transferOwnership(address)": "f2fde38b",
			"upgradeToAndCall(address,bytes)": "4f1ef286"
		}
	},
	"abi": [
		{
			"inputs": [
				{
					"internalType": "address",
					"name": "_mockDatacapAddress",
					"type": "address"
				}
			],
			"stateMutability": "nonpayable",
			"type": "constructor"
		},
		{
			"inputs": [
				{
					"internalType": "address",
					"name": "target",
					"type": "address"
				}
			],
			"name": "AddressEmptyCode",
			"type": "error"
		},
		{
			"inputs": [],
			"name": "AlreadyHasAllowance",
			"type": "error"
		},
		{
			"inputs": [],
			"name": "AlreadyZero",
			"type": "error"
		},
		{
			"inputs": [],
			"name": "AmountEqualZero",
			"type": "error"
		},
		{
			"inputs": [
				{
					"internalType": "address",
					"name": "implementation",
					"type": "address"
				}
			],
			"name": "ERC1967InvalidImplementation",
			"type": "error"
		},
		{
			"inputs": [],
			"name": "ERC1967NonPayable",
			"type": "error"
		},
		{
			"inputs": [],
			"name": "FailToCallActor",
			"type": "error"
		},
		{
			"inputs": [],
			"name": "FailedCall",
			"type": "error"
		},
		{
			"inputs": [],
			"name": "FunctionDisabled",
			"type": "error"
		},
		{
			"inputs": [],
			"name": "InsufficientAllowance",
			"type": "error"
		},
		{
			"inputs": [],
			"name": "InvalidAddress",
			"type": "error"
		},
		{
			"inputs": [],
			"name": "InvalidInitialization",
			"type": "error"
		},
		{
			"inputs": [],
			"name": "NotInitializing",
			"type": "error"
		},
		{
			"inputs": [
				{
					"internalType": "address",
					"name": "owner",
					"type": "address"
				}
			],
			"name": "OwnableInvalidOwner",
			"type": "error"
		},
		{
			"inputs": [
				{
					"internalType": "address",
					"name": "account",
					"type": "address"
				}
			],
			"name": "OwnableUnauthorizedAccount",
			"type": "error"
		},
		{
			"inputs": [],
			"name": "UUPSUnauthorizedCallContext",
			"type": "error"
		},
		{
			"inputs": [
				{
					"internalType": "bytes32",
					"name": "slot",
					"type": "bytes32"
				}
			],
			"name": "UUPSUnsupportedProxiableUUID",
			"type": "error"
		},
		{
			"anonymous": false,
			"inputs": [
				{
					"indexed": true,
					"internalType": "address",
					"name": "allocator",
					"type": "address"
				},
				{
					"indexed": false,
					"internalType": "uint256",
					"name": "allowanceBefore",
					"type": "uint256"
				},
				{
					"indexed": false,
					"internalType": "uint256",
					"name": "allowanceAfter",
					"type": "uint256"
				}
			],
			"name": "AllowanceChanged",
			"type": "event"
		},
		{
			"anonymous": false,
			"inputs": [
				{
					"indexed": true,
					"internalType": "address",
					"name": "allocator",
					"type": "address"
				},
				{
					"indexed": true,
					"internalType": "bytes",
					"name": "client",
					"type": "bytes"
				},
				{
					"indexed": false,
					"internalType": "uint256",
					"name": "amount",
					"type": "uint256"
				}
			],
			"name": "DatacapAllocated",
			"type": "event"
		},
		{
			"anonymous": false,
			"inputs": [
				{
					"indexed": false,
					"internalType": "uint64",
					"name": "version",
					"type": "uint64"
				}
			],
			"name": "Initialized",
			"type": "event"
		},
		{
			"anonymous": false,
			"inputs": [
				{
					"indexed": true,
					"internalType": "address",
					"name": "previousOwner",
					"type": "address"
				},
				{
					"indexed": true,
					"internalType": "address",
					"name": "newOwner",
					"type": "address"
				}
			],
			"name": "OwnershipTransferStarted",
			"type": "event"
		},
		{
			"anonymous": false,
			"inputs": [
				{
					"indexed": true,
					"internalType": "address",
					"name": "previousOwner",
					"type": "address"
				},
				{
					"indexed": true,
					"internalType": "address",
					"name": "newOwner",
					"type": "address"
				}
			],
			"name": "OwnershipTransferred",
			"type": "event"
		},
		{
			"anonymous": false,
			"inputs": [
				{
					"indexed": true,
					"internalType": "address",
					"name": "implementation",
					"type": "address"
				}
			],
			"name": "Upgraded",
			"type": "event"
		},
		{
			"inputs": [],
			"name": "UPGRADE_INTERFACE_VERSION",
			"outputs": [
				{
					"internalType": "string",
					"name": "",
					"type": "string"
				}
			],
			"stateMutability": "view",
			"type": "function"
		},
		{
			"inputs": [],
			"name": "acceptOwnership",
			"outputs": [],
			"stateMutability": "nonpayable",
			"type": "function"
		},
		{
			"inputs": [
				{
					"internalType": "address",
					"name": "allocator",
					"type": "address"
				},
				{
					"internalType": "uint256",
					"name": "amount",
					"type": "uint256"
				}
			],
			"name": "addAllowance",
			"outputs": [],
			"stateMutability": "nonpayable",
			"type": "function"
		},
		{
			"inputs": [
				{
					"internalType": "bytes",
					"name": "clientAddress",
					"type": "bytes"
				},
				{
					"internalType": "uint256",
					"name": "amount",
					"type": "uint256"
				}
			],
			"name": "addVerifiedClient",
			"outputs": [],
			"stateMutability": "nonpayable",
			"type": "function"
		},
		{
			"inputs": [
				{
					"internalType": "address",
					"name": "allocator",
					"type": "address"
				}
			],
			"name": "allowance",
			"outputs": [
				{
					"internalType": "uint256",
					"name": "allowance_",
					"type": "uint256"
				}
			],
			"stateMutability": "view",
			"type": "function"
		},
		{
			"inputs": [],
			"name": "getAllocators",
			"outputs": [
				{
					"internalType": "address[]",
					"name": "allocators",
					"type": "address[]"
				}
			],
			"stateMutability": "view",
			"type": "function"
		},
		{
			"inputs": [
				{
					"internalType": "address",
					"name": "initialOwner",
					"type": "address"
				}
			],
			"name": "initialize",
			"outputs": [],
			"stateMutability": "nonpayable",
			"type": "function"
		},
		{
			"inputs": [],
			"name": "mockDatacap",
			"outputs": [
				{
					"internalType": "address",
					"name": "",
					"type": "address"
				}
			],
			"stateMutability": "view",
			"type": "function"
		},
		{
			"inputs": [],
			"name": "owner",
			"outputs": [
				{
					"internalType": "address",
					"name": "",
					"type": "address"
				}
			],
			"stateMutability": "view",
			"type": "function"
		},
		{
			"inputs": [],
			"name": "pendingOwner",
			"outputs": [
				{
					"internalType": "address",
					"name": "",
					"type": "address"
				}
			],
			"stateMutability": "view",
			"type": "function"
		},
		{
			"inputs": [],
			"name": "proxiableUUID",
			"outputs": [
				{
					"internalType": "bytes32",
					"name": "",
					"type": "bytes32"
				}
			],
			"stateMutability": "view",
			"type": "function"
		},
		{
			"inputs": [],
			"name": "renounceOwnership",
			"outputs": [],
			"stateMutability": "view",
			"type": "function"
		},
		{
			"inputs": [
				{
					"internalType": "address",
					"name": "allocator",
					"type": "address"
				},
				{
					"internalType": "uint256",
					"name": "amount",
					"type": "uint256"
				}
			],
			"name": "setAllowance",
			"outputs": [],
			"stateMutability": "nonpayable",
			"type": "function"
		},
		{
			"inputs": [
				{
					"internalType": "address",
					"name": "newOwner",
					"type": "address"
				}
			],
			"name": "transferOwnership",
			"outputs": [],
			"stateMutability": "nonpayable",
			"type": "function"
		},
		{
			"inputs": [
				{
					"internalType": "address",
					"name": "newImplementation",
					"type": "address"
				},
				{
					"internalType": "bytes",
					"name": "data",
					"type": "bytes"
				}
			],
			"name": "upgradeToAndCall",
			"outputs": [],
			"stateMutability": "payable",
			"type": "function"
		}
	]
}