{
	"data": {
		"bytecode": {
			"linkReferences": {},
			"object": "60a060405234801561000f575f80fd5b5060405161163b38038061163b83398181016040528101906100319190610170565b815f73ffffffffffffffffffffffffffffffffffffffff168173ffffffffffffffffffffffffffffffffffffffff1603610097576040517fe6c4247b00000000000000000000000000000000000000000000000000000000815260040160405180910390fd5b8073ffffffffffffffffffffffffffffffffffffffff1660808173ffffffffffffffffffffffffffffffffffffffff168152505050805f806101000a81548173ffffffffffffffffffffffffffffffffffffffff021916908373ffffffffffffffffffffffffffffffffffffffff16021790555050506101ae565b5f80fd5b5f73ffffffffffffffffffffffffffffffffffffffff82169050919050565b5f61013f82610116565b9050919050565b61014f81610135565b8114610159575f80fd5b50565b5f8151905061016a81610146565b92915050565b5f806040838503121561018657610185610112565b5b5f6101938582860161015c565b92505060206101a48582860161015c565b9150509250929050565b6080516114756101c65f395f6101a201526114755ff3fe608060405234801561000f575f80fd5b5060043610610091575f3560e01c80635411a061116100645780635411a061146101095780639cb6239b14610127578063aa8c217c14610145578063b0fa844414610163578063f3fdf5731461018157610091565b8063116191b6146100955780631c6ffa46146100b357806327c79ae7146100d157806349160658146100ed575b5f80fd5b61009d61019f565b6040516100aa9190610870565b60405180910390f35b6100bb6101c6565b6040516100c891906108f9565b60405180910390f35b6100eb60048036038101906100e69190610a56565b610252565b005b61010760048036038101906101029190610bb1565b610276565b005b61011161036a565b60405161011e9190610c95565b60405180910390f35b61012f61038f565b60405161013c91906108f9565b60405180910390f35b61014d61041b565b60405161015a9190610cc6565b60405180910390f35b61016b610421565b60405161017891906108f9565b60405180910390f35b6101896104ad565b60405161019691906108f9565b60405180910390f35b5f7f0000000000000000000000000000000000000000000000000000000000000000905090565b600580546101d390610d0c565b80601f01602080910402602001604051908101604052809291908181526020018280546101ff90610d0c565b801561024a5780601f106102215761010080835404028352916020019161024a565b820191905f5260205f20905b81548152906001019060200180831161022d57829003601f168201915b505050505081565b81600190816102619190610ed0565b5080600290816102719190610ed0565b505050565b5f8282604051610287929190610fcd565b6040518091039020905061029961019f565b73ffffffffffffffffffffffffffffffffffffffff16635f6970c38989898989876040518763ffffffff1660e01b81526004016102db96959493929190611020565b6020604051808303815f875af11580156102f7573d5f803e3d5ffd5b505050506040513d601f19601f8201168201806040525081019061031b91906110aa565b610351576040517f500c44b400000000000000000000000000000000000000000000000000000000815260040160405180910390fd5b61036088888888888888610539565b5050505050505050565b60035f9054906101000a900473ffffffffffffffffffffffffffffffffffffffff1681565b6001805461039c90610d0c565b80601f01602080910402602001604051908101604052809291908181526020018280546103c890610d0c565b80156104135780601f106103ea57610100808354040283529160200191610413565b820191905f5260205f20905b8154815290600101906020018083116103f657829003601f168201915b505050505081565b60045481565b6006805461042e90610d0c565b80601f016020809104026020016040519081016040528092919081815260200182805461045a90610d0c565b80156104a55780601f1061047c576101008083540402835291602001916104a5565b820191905f5260205f20905b81548152906001019060200180831161048857829003601f168201915b505050505081565b600280546104ba90610d0c565b80601f01602080910402602001604051908101604052809291908181526020018280546104e690610d0c565b80156105315780601f1061050857610100808354040283529160200191610531565b820191905f5260205f20905b81548152906001019060200180831161051457829003601f168201915b505050505081565b8181810190610548919061113a565b60035f60045f84919050558391906101000a81548173ffffffffffffffffffffffffffffffffffffffff021916908373ffffffffffffffffffffffffffffffffffffffff16021790555050508585600591826105a5929190611182565b508383600691826105b7929190611182565b5060016040516020016105ca91906112d9565b6040516020818303038152906040528051906020012086866040516020016105f3929190611313565b604051602081830303815290604052805190602001200361064d5785856040517f631d4f2200000000000000000000000000000000000000000000000000000000815260040161064492919061132b565b60405180910390fd5b600260405160200161065f91906112d9565b604051602081830303815290604052805190602001208484604051602001610688929190611313565b60405160208183030381529060405280519060200120036106e25783836040517f631d4f220000000000000000000000000000000000000000000000000000000081526004016106d992919061132b565b60405180910390fd5b7f8e73ead1ba5ac4085bdb804c6a5ea9f72c617280817c2db3215d473276e606ec87600660035f9054906101000a900473ffffffffffffffffffffffffffffffffffffffff1660045460405161073b94939291906113ce565b60405180910390a15f8054906101000a900473ffffffffffffffffffffffffffffffffffffffff1673ffffffffffffffffffffffffffffffffffffffff166363d67dff60035f9054906101000a900473ffffffffffffffffffffffffffffffffffffffff166004546040518363ffffffff1660e01b81526004016107c0929190611418565b5f604051808303815f87803b1580156107d7575f80fd5b505af11580156107e9573d5f803e3d5ffd5b5050505050505050505050565b5f73ffffffffffffffffffffffffffffffffffffffff82169050919050565b5f819050919050565b5f61083861083361082e846107f6565b610815565b6107f6565b9050919050565b5f6108498261081e565b9050919050565b5f61085a8261083f565b9050919050565b61086a81610850565b82525050565b5f6020820190506108835f830184610861565b92915050565b5f81519050919050565b5f82825260208201905092915050565b8281835e5f83830152505050565b5f601f19601f8301169050919050565b5f6108cb82610889565b6108d58185610893565b93506108e58185602086016108a3565b6108ee816108b1565b840191505092915050565b5f6020820190508181035f83015261091181846108c1565b905092915050565b5f604051905090565b5f80fd5b5f80fd5b5f80fd5b5f80fd5b7f4e487b71000000000000000000000000000000000000000000000000000000005f52604160045260245ffd5b610968826108b1565b810181811067ffffffffffffffff8211171561098757610986610932565b5b80604052505050565b5f610999610919565b90506109a5828261095f565b919050565b5f67ffffffffffffffff8211156109c4576109c3610932565b5b6109cd826108b1565b9050602081019050919050565b828183375f83830152505050565b5f6109fa6109f5846109aa565b610990565b905082815260208101848484011115610a1657610a1561092e565b5b610a218482856109da565b509392505050565b5f82601f830112610a3d57610a3c61092a565b5b8135610a4d8482602086016109e8565b91505092915050565b5f8060408385031215610a6c57610a6b610922565b5b5f83013567ffffffffffffffff811115610a8957610a88610926565b5b610a9585828601610a29565b925050602083013567ffffffffffffffff811115610ab657610ab5610926565b5b610ac285828601610a29565b9150509250929050565b5f819050919050565b610ade81610acc565b8114610ae8575f80fd5b50565b5f81359050610af981610ad5565b92915050565b5f80fd5b5f80fd5b5f8083601f840112610b1c57610b1b61092a565b5b8235905067ffffffffffffffff811115610b3957610b38610aff565b5b602083019150836001820283011115610b5557610b54610b03565b5b9250929050565b5f8083601f840112610b7157610b7061092a565b5b8235905067ffffffffffffffff811115610b8e57610b8d610aff565b5b602083019150836001820283011115610baa57610ba9610b03565b5b9250929050565b5f805f805f805f6080888a031215610bcc57610bcb610922565b5b5f610bd98a828b01610aeb565b975050602088013567ffffffffffffffff811115610bfa57610bf9610926565b5b610c068a828b01610b07565b9650965050604088013567ffffffffffffffff811115610c2957610c28610926565b5b610c358a828b01610b07565b9450945050606088013567ffffffffffffffff811115610c5857610c57610926565b5b610c648a828b01610b5c565b925092505092959891949750929550565b5f610c7f826107f6565b9050919050565b610c8f81610c75565b82525050565b5f602082019050610ca85f830184610c86565b92915050565b5f819050919050565b610cc081610cae565b82525050565b5f602082019050610cd95f830184610cb7565b92915050565b7f4e487b71000000000000000000000000000000000000000000000000000000005f52602260045260245ffd5b5f6002820490506001821680610d2357607f821691505b602082108103610d3657610d35610cdf565b5b50919050565b5f819050815f5260205f209050919050565b5f6020601f8301049050919050565b5f82821b905092915050565b5f60088302610d987fffffffffffffffffffffffffffffffffffffffffffffffffffffffffffffffff82610d5d565b610da28683610d5d565b95508019841693508086168417925050509392505050565b5f610dd4610dcf610dca84610cae565b610815565b610cae565b9050919050565b5f819050919050565b610ded83610dba565b610e01610df982610ddb565b848454610d69565b825550505050565b5f90565b610e15610e09565b610e20818484610de4565b505050565b5b81811015610e4357610e385f82610e0d565b600181019050610e26565b5050565b601f821115610e8857610e5981610d3c565b610e6284610d4e565b81016020851015610e71578190505b610e85610e7d85610d4e565b830182610e25565b50505b505050565b5f82821c905092915050565b5f610ea85f1984600802610e8d565b1980831691505092915050565b5f610ec08383610e99565b9150826002028217905092915050565b610ed982610889565b67ffffffffffffffff811115610ef257610ef1610932565b5b610efc8254610d0c565b610f07828285610e47565b5f60209050601f831160018114610f38575f8415610f26578287015190505b610f308582610eb5565b865550610f97565b601f198416610f4686610d3c565b5f5b82811015610f6d57848901518255600182019150602085019450602081019050610f48565b86831015610f8a5784890151610f86601f891682610e99565b8355505b6001600288020188555050505b505050505050565b5f81905092915050565b5f610fb48385610f9f565b9350610fc18385846109da565b82840190509392505050565b5f610fd9828486610fa9565b91508190509392505050565b610fee81610acc565b82525050565b5f610fff8385610893565b935061100c8385846109da565b611015836108b1565b840190509392505050565b5f6080820190506110335f830189610fe5565b8181036020830152611046818789610ff4565b9050818103604083015261105b818587610ff4565b905061106a6060830184610fe5565b979650505050505050565b5f8115159050919050565b61108981611075565b8114611093575f80fd5b50565b5f815190506110a481611080565b92915050565b5f602082840312156110bf576110be610922565b5b5f6110cc84828501611096565b91505092915050565b5f6110df826107f6565b9050919050565b6110ef816110d5565b81146110f9575f80fd5b50565b5f8135905061110a816110e6565b92915050565b61111981610cae565b8114611123575f80fd5b50565b5f8135905061113481611110565b92915050565b5f80604083850312156111505761114f610922565b5b5f61115d858286016110fc565b925050602061116e85828601611126565b9150509250929050565b5f82905092915050565b61118c8383611178565b67ffffffffffffffff8111156111a5576111a4610932565b5b6111af8254610d0c565b6111ba828285610e47565b5f601f8311600181146111e7575f84156111d5578287013590505b6111df8582610eb5565b865550611246565b601f1984166111f586610d3c565b5f5b8281101561121c578489013582556001820191506020850194506020810190506111f7565b868310156112395784890135611235601f891682610e99565b8355505b6001600288020188555050505b50505050505050565b5f81905092915050565b5f815461126581610d0c565b61126f818661124f565b9450600182165f8114611289576001811461129e576112d0565b60ff19831686528115158202860193506112d0565b6112a785610d3c565b5f5b838110156112c8578154818901526001820191506020810190506112a9565b838801955050505b50505092915050565b5f6112e48284611259565b915081905092915050565b5f6112fa838561124f565b93506113078385846109da565b82840190509392505050565b5f61131f8284866112ef565b91508190509392505050565b5f6020820190508181035f830152611344818486610ff4565b90509392505050565b5f815461135981610d0c565b6113638186610893565b9450600182165f811461137d5760018114611393576113c5565b60ff1983168652811515602002860193506113c5565b61139c85610d3c565b5f5b838110156113bd5781548189015260018201915060208101905061139e565b808801955050505b50505092915050565b5f6080820190506113e15f830187610fe5565b81810360208301526113f3818661134d565b90506114026040830185610c86565b61140f6060830184610cb7565b95945050505050565b5f60408201905061142b5f830185610c86565b6114386020830184610cb7565b939250505056fea26469706673582212203428a374ab690c11687463bef34d377c768ce22eb959212258610aed3641ca1664736f6c634300081a0033",
			"opcodes": "PUSH1 0xA0 PUSH1 0x40 MSTORE CALLVALUE DUP1 ISZERO PUSH2 0xF JUMPI PUSH0 DUP1 REVERT JUMPDEST POP PUSH1 0x40 MLOAD PUSH2 0x163B CODESIZE SUB DUP1 PUSH2 0x163B DUP4 CODECOPY DUP2 DUP2 ADD PUSH1 0x40 MSTORE DUP2 ADD SWAP1 PUSH2 0x31 SWAP2 SWAP1 PUSH2 0x170 JUMP JUMPDEST DUP2 PUSH0 PUSH20 0xFFFFFFFFFFFFFFFFFFFFFFFFFFFFFFFFFFFFFFFF AND DUP2 PUSH20 0xFFFFFFFFFFFFFFFFFFFFFFFFFFFFFFFFFFFFFFFF AND SUB PUSH2 0x97 JUMPI PUSH1 0x40 MLOAD PUSH32 0xE6C4247B00000000000000000000000000000000000000000000000000000000 DUP2 MSTORE PUSH1 0x4 ADD PUSH1 0x40 MLOAD DUP1 SWAP2 SUB SWAP1 REVERT JUMPDEST DUP1 PUSH20 0xFFFFFFFFFFFFFFFFFFFFFFFFFFFFFFFFFFFFFFFF AND PUSH1 0x80 DUP2 PUSH20 0xFFFFFFFFFFFFFFFFFFFFFFFFFFFFFFFFFFFFFFFF AND DUP2 MSTORE POP POP POP DUP1 PUSH0 DUP1 PUSH2 0x100 EXP DUP2 SLOAD DUP2 PUSH20 0xFFFFFFFFFFFFFFFFFFFFFFFFFFFFFFFFFFFFFFFF MUL NOT AND SWAP1 DUP4 PUSH20 0xFFFFFFFFFFFFFFFFFFFFFFFFFFFFFFFFFFFFFFFF AND MUL OR SWAP1 SSTORE POP POP POP PUSH2 0x1AE JUMP JUMPDEST PUSH0 DUP1 REVERT JUMPDEST PUSH0 PUSH20 0xFFFFFFFFFFFFFFFFFFFFFFFFFFFFFFFFFFFFFFFF DUP3 AND SWAP1 POP SWAP2 SWAP1 POP JUMP JUMPDEST PUSH0 PUSH2 0x13F DUP3 PUSH2 0x116 JUMP JUMPDEST SWAP1 POP SWAP2 SWAP1 POP JUMP JUMPDEST PUSH2 0x14F DUP2 PUSH2 0x135 JUMP JUMPDEST DUP2 EQ PUSH2 0x159 JUMPI PUSH0 DUP1 REVERT JUMPDEST POP JUMP JUMPDEST PUSH0 DUP2 MLOAD SWAP1 POP PUSH2 0x16A DUP2 PUSH2 0x146 JUMP JUMPDEST SWAP3 SWAP2 POP POP JUMP JUMPDEST PUSH0 DUP1 PUSH1 0x40 DUP4 DUP6 SUB SLT ISZERO PUSH2 0x186 JUMPI PUSH2 0x185 PUSH2 0x112 JUMP JUMPDEST JUMPDEST PUSH0 PUSH2 0x193 DUP6 DUP3 DUP7 ADD PUSH2 0x15C JUMP JUMPDEST SWAP3 POP POP PUSH1 0x20 PUSH2 0x1A4 DUP6 DUP3 DUP7 ADD PUSH2 0x15C JUMP JUMPDEST SWAP2 POP POP SWAP3 POP SWAP3 SWAP1 POP JUMP JUMPDEST PUSH1 0x80 MLOAD PUSH2 0x1475 PUSH2 0x1C6 PUSH0 CODECOPY PUSH0 PUSH2 0x1A2 ADD MSTORE PUSH2 0x1475 PUSH0 RETURN INVALID PUSH1 0x80 PUSH1 0x40 MSTORE CALLVALUE DUP1 ISZERO PUSH2 0xF JUMPI PUSH0 DUP1 REVERT JUMPDEST POP PUSH1 0x4 CALLDATASIZE LT PUSH2 0x91 JUMPI PUSH0 CALLDATALOAD PUSH1 0xE0 SHR DUP1 PUSH4 0x5411A061 GT PUSH2 0x64 JUMPI DUP1 PUSH4 0x5411A061 EQ PUSH2 0x109 JUMPI DUP1 PUSH4 0x9CB6239B EQ PUSH2 0x127 JUMPI DUP1 PUSH4 0xAA8C217C EQ PUSH2 0x145 JUMPI DUP1 PUSH4 0xB0FA8444 EQ PUSH2 0x163 JUMPI DUP1 PUSH4 0xF3FDF573 EQ PUSH2 0x181 JUMPI PUSH2 0x91 JUMP JUMPDEST DUP1 PUSH4 0x116191B6 EQ PUSH2 0x95 JUMPI DUP1 PUSH4 0x1C6FFA46 EQ PUSH2 0xB3 JUMPI DUP1 PUSH4 0x27C79AE7 EQ PUSH2 0xD1 JUMPI DUP1 PUSH4 0x49160658 EQ PUSH2 0xED JUMPI JUMPDEST PUSH0 DUP1 REVERT JUMPDEST PUSH2 0x9D PUSH2 0x19F JUMP JUMPDEST PUSH1 0x40 MLOAD PUSH2 0xAA SWAP2 SWAP1 PUSH2 0x870 JUMP JUMPDEST PUSH1 0x40 MLOAD DUP1 SWAP2 SUB SWAP1 RETURN JUMPDEST PUSH2 0xBB PUSH2 0x1C6 JUMP JUMPDEST PUSH1 0x40 MLOAD PUSH2 0xC8 SWAP2 SWAP1 PUSH2 0x8F9 JUMP JUMPDEST PUSH1 0x40 MLOAD DUP1 SWAP2 SUB SWAP1 RETURN JUMPDEST PUSH2 0xEB PUSH1 0x4 DUP1 CALLDATASIZE SUB DUP2 ADD SWAP1 PUSH2 0xE6 SWAP2 SWAP1 PUSH2 0xA56 JUMP JUMPDEST PUSH2 0x252 JUMP JUMPDEST STOP JUMPDEST PUSH2 0x107 PUSH1 0x4 DUP1 CALLDATASIZE SUB DUP2 ADD SWAP1 PUSH2 0x102 SWAP2 SWAP1 PUSH2 0xBB1 JUMP JUMPDEST PUSH2 0x276 JUMP JUMPDEST STOP JUMPDEST PUSH2 0x111 PUSH2 0x36A JUMP JUMPDEST PUSH1 0x40 MLOAD PUSH2 0x11E SWAP2 SWAP1 PUSH2 0xC95 JUMP JUMPDEST PUSH1 0x40 MLOAD DUP1 SWAP2 SUB SWAP1 RETURN JUMPDEST PUSH2 0x12F PUSH2 0x38F JUMP JUMPDEST PUSH1 0x40 MLOAD PUSH2 0x13C SWAP2 SWAP1 PUSH2 0x8F9 JUMP JUMPDEST PUSH1 0x40 MLOAD DUP1 SWAP2 SUB SWAP1 RETURN JUMPDEST PUSH2 0x14D PUSH2 0x41B JUMP JUMPDEST PUSH1 0x40 MLOAD PUSH2 0x15A SWAP2 SWAP1 PUSH2 0xCC6 JUMP JUMPDEST PUSH1 0x40 MLOAD DUP1 SWAP2 SUB SWAP1 RETURN JUMPDEST PUSH2 0x16B PUSH2 0x421 JUMP JUMPDEST PUSH1 0x40 MLOAD PUSH2 0x178 SWAP2 SWAP1 PUSH2 0x8F9 JUMP JUMPDEST PUSH1 0x40 MLOAD DUP1 SWAP2 SUB SWAP1 RETURN JUMPDEST PUSH2 0x189 PUSH2 0x4AD JUMP JUMPDEST PUSH1 0x40 MLOAD PUSH2 0x196 SWAP2 SWAP1 PUSH2 0x8F9 JUMP JUMPDEST PUSH1 0x40 MLOAD DUP1 SWAP2 SUB SWAP1 RETURN JUMPDEST PUSH0 PUSH32 0x0 SWAP1 POP SWAP1 JUMP JUMPDEST PUSH1 0x5 DUP1 SLOAD PUSH2 0x1D3 SWAP1 PUSH2 0xD0C JUMP JUMPDEST DUP1 PUSH1 0x1F ADD PUSH1 0x20 DUP1 SWAP2 DIV MUL PUSH1 0x20 ADD PUSH1 0x40 MLOAD SWAP1 DUP2 ADD PUSH1 0x40 MSTORE DUP1 SWAP3 SWAP2 SWAP1 DUP2 DUP2 MSTORE PUSH1 0x20 ADD DUP3 DUP1 SLOAD PUSH2 0x1FF SWAP1 PUSH2 0xD0C JUMP JUMPDEST DUP1 ISZERO PUSH2 0x24A JUMPI DUP1 PUSH1 0x1F LT PUSH2 0x221 JUMPI PUSH2 0x100 DUP1 DUP4 SLOAD DIV MUL DUP4 MSTORE SWAP2 PUSH1 0x20 ADD SWAP2 PUSH2 0x24A JUMP JUMPDEST DUP3 ADD SWAP2 SWAP1 PUSH0 MSTORE PUSH1 0x20 PUSH0 KECCAK256 SWAP1 JUMPDEST DUP2 SLOAD DUP2 MSTORE SWAP1 PUSH1 0x1 ADD SWAP1 PUSH1 0x20 ADD DUP1 DUP4 GT PUSH2 0x22D JUMPI DUP3 SWAP1 SUB PUSH1 0x1F AND DUP3 ADD SWAP2 JUMPDEST POP POP POP POP POP DUP2 JUMP JUMPDEST DUP2 PUSH1 0x1 SWAP1 DUP2 PUSH2 0x261 SWAP2 SWAP1 PUSH2 0xED0 JUMP JUMPDEST POP DUP1 PUSH1 0x2 SWAP1 DUP2 PUSH2 0x271 SWAP2 SWAP1 PUSH2 0xED0 JUMP JUMPDEST POP POP POP JUMP JUMPDEST PUSH0 DUP3 DUP3 PUSH1 0x40 MLOAD PUSH2 0x287 SWAP3 SWAP2 SWAP1 PUSH2 0xFCD JUMP JUMPDEST PUSH1 0x40 MLOAD DUP1 SWAP2 SUB SWAP1 KECCAK256 SWAP1 POP PUSH2 0x299 PUSH2 0x19F JUMP JUMPDEST PUSH20 0xFFFFFFFFFFFFFFFFFFFFFFFFFFFFFFFFFFFFFFFF AND PUSH4 0x5F6970C3 DUP10 DUP10 DUP10 DUP10 DUP10 DUP8 PUSH1 0x40 MLOAD DUP8 PUSH4 0xFFFFFFFF AND PUSH1 0xE0 SHL DUP2 MSTORE PUSH1 0x4 ADD PUSH2 0x2DB SWAP7 SWAP6 SWAP5 SWAP4 SWAP3 SWAP2 SWAP1 PUSH2 0x1020 JUMP JUMPDEST PUSH1 0x20 PUSH1 0x40 MLOAD DUP1 DUP4 SUB DUP2 PUSH0 DUP8 GAS CALL ISZERO DUP1 ISZERO PUSH2 0x2F7 JUMPI RETURNDATASIZE PUSH0 DUP1 RETURNDATACOPY RETURNDATASIZE PUSH0 REVERT JUMPDEST POP POP POP POP PUSH1 0x40 MLOAD RETURNDATASIZE PUSH1 0x1F NOT PUSH1 0x1F DUP3 ADD AND DUP3 ADD DUP1 PUSH1 0x40 MSTORE POP DUP2 ADD SWAP1 PUSH2 0x31B SWAP2 SWAP1 PUSH2 0x10AA JUMP JUMPDEST PUSH2 0x351 JUMPI PUSH1 0x40 MLOAD PUSH32 0x500C44B400000000000000000000000000000000000000000000000000000000 DUP2 MSTORE PUSH1 0x4 ADD PUSH1 0x40 MLOAD DUP1 SWAP2 SUB SWAP1 REVERT JUMPDEST PUSH2 0x360 DUP9 DUP9 DUP9 DUP9 DUP9 DUP9 DUP9 PUSH2 0x539 JUMP JUMPDEST POP POP POP POP POP POP POP POP JUMP JUMPDEST PUSH1 0x3 PUSH0 SWAP1 SLOAD SWAP1 PUSH2 0x100 EXP SWAP1 DIV PUSH20 0xFFFFFFFFFFFFFFFFFFFFFFFFFFFFFFFFFFFFFFFF AND DUP2 JUMP JUMPDEST PUSH1 0x1 DUP1 SLOAD PUSH2 0x39C SWAP1 PUSH2 0xD0C JUMP JUMPDEST DUP1 PUSH1 0x1F ADD PUSH1 0x20 DUP1 SWAP2 DIV MUL PUSH1 0x20 ADD PUSH1 0x40 MLOAD SWAP1 DUP2 ADD PUSH1 0x40 MSTORE DUP1 SWAP3 SWAP2 SWAP1 DUP2 DUP2 MSTORE PUSH1 0x20 ADD DUP3 DUP1 SLOAD PUSH2 0x3C8 SWAP1 PUSH2 0xD0C JUMP JUMPDEST DUP1 ISZERO PUSH2 0x413 JUMPI DUP1 PUSH1 0x1F LT PUSH2 0x3EA JUMPI PUSH2 0x100 DUP1 DUP4 SLOAD DIV MUL DUP4 MSTORE SWAP2 PUSH1 0x20 ADD SWAP2 PUSH2 0x413 JUMP JUMPDEST DUP3 ADD SWAP2 SWAP1 PUSH0 MSTORE PUSH1 0x20 PUSH0 KECCAK256 SWAP1 JUMPDEST DUP2 SLOAD DUP2 MSTORE SWAP1 PUSH1 0x1 ADD SWAP1 PUSH1 0x20 ADD DUP1 DUP4 GT PUSH2 0x3F6 JUMPI DUP3 SWAP1 SUB PUSH1 0x1F AND DUP3 ADD SWAP2 JUMPDEST POP POP POP POP POP DUP2 JUMP JUMPDEST PUSH1 0x4 SLOAD DUP2 JUMP JUMPDEST PUSH1 0x6 DUP1 SLOAD PUSH2 0x42E SWAP1 PUSH2 0xD0C JUMP JUMPDEST DUP1 PUSH1 0x1F ADD PUSH1 0x20 DUP1 SWAP2 DIV MUL PUSH1 0x20 ADD PUSH1 0x40 MLOAD SWAP1 DUP2 ADD PUSH1 0x40 MSTORE DUP1 SWAP3 SWAP2 SWAP1 DUP2 DUP2 MSTORE PUSH1 0x20 ADD DUP3 DUP1 SLOAD PUSH2 0x45A SWAP1 PUSH2 0xD0C JUMP JUMPDEST DUP1 ISZERO PUSH2 0x4A5 JUMPI DUP1 PUSH1 0x1F LT PUSH2 0x47C JUMPI PUSH2 0x100 DUP1 DUP4 SLOAD DIV MUL DUP4 MSTORE SWAP2 PUSH1 0x20 ADD SWAP2 PUSH2 0x4A5 JUMP JUMPDEST DUP3 ADD SWAP2 SWAP1 PUSH0 MSTORE PUSH1 0x20 PUSH0 KECCAK256 SWAP1 JUMPDEST DUP2 SLOAD DUP2 MSTORE SWAP1 PUSH1 0x1 ADD SWAP1 PUSH1 0x20 ADD DUP1 DUP4 GT PUSH2 0x488 JUMPI DUP3 SWAP1 SUB PUSH1 0x1F AND DUP3 ADD SWAP2 JUMPDEST POP POP POP POP POP DUP2 JUMP JUMPDEST PUSH1 0x2 DUP1 SLOAD PUSH2 0x4BA SWAP1 PUSH2 0xD0C JUMP JUMPDEST DUP1 PUSH1 0x1F ADD PUSH1 0x20 DUP1 SWAP2 DIV MUL PUSH1 0x20 ADD PUSH1 0x40 MLOAD SWAP1 DUP2 ADD PUSH1 0x40 MSTORE DUP1 SWAP3 SWAP2 SWAP1 DUP2 DUP2 MSTORE PUSH1 0x20 ADD DUP3 DUP1 SLOAD PUSH2 0x4E6 SWAP1 PUSH2 0xD0C JUMP JUMPDEST DUP1 ISZERO PUSH2 0x531 JUMPI DUP1 PUSH1 0x1F LT PUSH2 0x508 JUMPI PUSH2 0x100 DUP1 DUP4 SLOAD DIV MUL DUP4 MSTORE SWAP2 PUSH1 0x20 ADD SWAP2 PUSH2 0x531 JUMP JUMPDEST DUP3 ADD SWAP2 SWAP1 PUSH0 MSTORE PUSH1 0x20 PUSH0 KECCAK256 SWAP1 JUMPDEST DUP2 SLOAD DUP2 MSTORE SWAP1 PUSH1 0x1 ADD SWAP1 PUSH1 0x20 ADD DUP1 DUP4 GT PUSH2 0x514 JUMPI DUP3 SWAP1 SUB PUSH1 0x1F AND DUP3 ADD SWAP2 JUMPDEST POP POP POP POP POP DUP2 JUMP JUMPDEST DUP2 DUP2 DUP2 ADD SWAP1 PUSH2 0x548 SWAP2 SWAP1 PUSH2 0x113A JUMP JUMPDEST PUSH1 0x3 PUSH0 PUSH1 0x4 PUSH0 DUP5 SWAP2 SWAP1 POP SSTORE DUP4 SWAP2 SWAP1 PUSH2 0x100 EXP DUP2 SLOAD DUP2 PUSH20 0xFFFFFFFFFFFFFFFFFFFFFFFFFFFFFFFFFFFFFFFF MUL NOT AND SWAP1 DUP4 PUSH20 0xFFFFFFFFFFFFFFFFFFFFFFFFFFFFFFFFFFFFFFFF AND MUL OR SWAP1 SSTORE POP POP POP DUP6 DUP6 PUSH1 0x5 SWAP2 DUP3 PUSH2 0x5A5 SWAP3 SWAP2 SWAP1 PUSH2 0x1182 JUMP JUMPDEST POP DUP4 DUP4 PUSH1 0x6 SWAP2 DUP3 PUSH2 0x5B7 SWAP3 SWAP2 SWAP1 PUSH2 0x1182 JUMP JUMPDEST POP PUSH1 0x1 PUSH1 0x40 MLOAD PUSH1 0x20 ADD PUSH2 0x5CA SWAP2 SWAP1 PUSH2 0x12D9 JUMP JUMPDEST PUSH1 0x40 MLOAD PUSH1 0x20 DUP2 DUP4 SUB SUB DUP2 MSTORE SWAP1 PUSH1 0x40 MSTORE DUP1 MLOAD SWAP1 PUSH1 0x20 ADD KECCAK256 DUP7 DUP7 PUSH1 0x40 MLOAD PUSH1 0x20 ADD PUSH2 0x5F3 SWAP3 SWAP2 SWAP1 PUSH2 0x1313 JUMP JUMPDEST PUSH1 0x40 MLOAD PUSH1 0x20 DUP2 DUP4 SUB SUB DUP2 MSTORE SWAP1 PUSH1 0x40 MSTORE DUP1 MLOAD SWAP1 PUSH1 0x20 ADD KECCAK256 SUB PUSH2 0x64D JUMPI DUP6 DUP6 PUSH1 0x40 MLOAD PUSH32 0x631D4F2200000000000000000000000000000000000000000000000000000000 DUP2 MSTORE PUSH1 0x4 ADD PUSH2 0x644 SWAP3 SWAP2 SWAP1 PUSH2 0x132B JUMP JUMPDEST PUSH1 0x40 MLOAD DUP1 SWAP2 SUB SWAP1 REVERT JUMPDEST PUSH1 0x2 PUSH1 0x40 MLOAD PUSH1 0x20 ADD PUSH2 0x65F SWAP2 SWAP1 PUSH2 0x12D9 JUMP JUMPDEST PUSH1 0x40 MLOAD PUSH1 0x20 DUP2 DUP4 SUB SUB DUP2 MSTORE SWAP1 PUSH1 0x40 MSTORE DUP1 MLOAD SWAP1 PUSH1 0x20 ADD KECCAK256 DUP5 DUP5 PUSH1 0x40 MLOAD PUSH1 0x20 ADD PUSH2 0x688 SWAP3 SWAP2 SWAP1 PUSH2 0x1313 JUMP JUMPDEST PUSH1 0x40 MLOAD PUSH1 0x20 DUP2 DUP4 SUB SUB DUP2 MSTORE SWAP1 PUSH1 0x40 MSTORE DUP1 MLOAD SWAP1 PUSH1 0x20 ADD KECCAK256 SUB PUSH2 0x6E2 JUMPI DUP4 DUP4 PUSH1 0x40 MLOAD PUSH32 0x631D4F2200000000000000000000000000000000000000000000000000000000 DUP2 MSTORE PUSH1 0x4 ADD PUSH2 0x6D9 SWAP3 SWAP2 SWAP1 PUSH2 0x132B JUMP JUMPDEST PUSH1 0x40 MLOAD DUP1 SWAP2 SUB SWAP1 REVERT JUMPDEST PUSH32 0x8E73EAD1BA5AC4085BDB804C6A5EA9F72C617280817C2DB3215D473276E606EC DUP8 PUSH1 0x6 PUSH1 0x3 PUSH0 SWAP1 SLOAD SWAP1 PUSH2 0x100 EXP SWAP1 DIV PUSH20 0xFFFFFFFFFFFFFFFFFFFFFFFFFFFFFFFFFFFFFFFF AND PUSH1 0x4 SLOAD PUSH1 0x40 MLOAD PUSH2 0x73B SWAP5 SWAP4 SWAP3 SWAP2 SWAP1 PUSH2 0x13CE JUMP JUMPDEST PUSH1 0x40 MLOAD DUP1 SWAP2 SUB SWAP1 LOG1 PUSH0 DUP1 SLOAD SWAP1 PUSH2 0x100 EXP SWAP1 DIV PUSH20 0xFFFFFFFFFFFFFFFFFFFFFFFFFFFFFFFFFFFFFFFF AND PUSH20 0xFFFFFFFFFFFFFFFFFFFFFFFFFFFFFFFFFFFFFFFF AND PUSH4 0x63D67DFF PUSH1 0x3 PUSH0 SWAP1 SLOAD SWAP1 PUSH2 0x100 EXP SWAP1 DIV PUSH20 0xFFFFFFFFFFFFFFFFFFFFFFFFFFFFFFFFFFFFFFFF AND PUSH1 0x4 SLOAD PUSH1 0x40 MLOAD DUP4 PUSH4 0xFFFFFFFF AND PUSH1 0xE0 SHL DUP2 MSTORE PUSH1 0x4 ADD PUSH2 0x7C0 SWAP3 SWAP2 SWAP1 PUSH2 0x1418 JUMP JUMPDEST PUSH0 PUSH1 0x40 MLOAD DUP1 DUP4 SUB DUP2 PUSH0 DUP8 DUP1 EXTCODESIZE ISZERO DUP1 ISZERO PUSH2 0x7D7 JUMPI PUSH0 DUP1 REVERT JUMPDEST POP GAS CALL ISZERO DUP1 ISZERO PUSH2 0x7E9 JUMPI RETURNDATASIZE PUSH0 DUP1 RETURNDATACOPY RETURNDATASIZE PUSH0 REVERT JUMPDEST POP POP POP POP POP POP POP POP POP POP POP JUMP JUMPDEST PUSH0 PUSH20 0xFFFFFFFFFFFFFFFFFFFFFFFFFFFFFFFFFFFFFFFF DUP3 AND SWAP1 POP SWAP2 SWAP1 POP JUMP JUMPDEST PUSH0 DUP2 SWAP1 POP SWAP2 SWAP1 POP JUMP JUMPDEST PUSH0 PUSH2 0x838 PUSH2 0x833 PUSH2 0x82E DUP5 PUSH2 0x7F6 JUMP JUMPDEST PUSH2 0x815 JUMP JUMPDEST PUSH2 0x7F6 JUMP JUMPDEST SWAP1 POP SWAP2 SWAP1 POP JUMP JUMPDEST PUSH0 PUSH2 0x849 DUP3 PUSH2 0x81E JUMP JUMPDEST SWAP1 POP SWAP2 SWAP1 POP JUMP JUMPDEST PUSH0 PUSH2 0x85A DUP3 PUSH2 0x83F JUMP JUMPDEST SWAP1 POP SWAP2 SWAP1 POP JUMP JUMPDEST PUSH2 0x86A DUP2 PUSH2 0x850 JUMP JUMPDEST DUP3 MSTORE POP POP JUMP JUMPDEST PUSH0 PUSH1 0x20 DUP3 ADD SWAP1 POP PUSH2 0x883 PUSH0 DUP4 ADD DUP5 PUSH2 0x861 JUMP JUMPDEST SWAP3 SWAP2 POP POP JUMP JUMPDEST PUSH0 DUP2 MLOAD SWAP1 POP SWAP2 SWAP1 POP JUMP JUMPDEST PUSH0 DUP3 DUP3 MSTORE PUSH1 0x20 DUP3 ADD SWAP1 POP SWAP3 SWAP2 POP POP JUMP JUMPDEST DUP3 DUP2 DUP4 MCOPY PUSH0 DUP4 DUP4 ADD MSTORE POP POP POP JUMP JUMPDEST PUSH0 PUSH1 0x1F NOT PUSH1 0x1F DUP4 ADD AND SWAP1 POP SWAP2 SWAP1 POP JUMP JUMPDEST PUSH0 PUSH2 0x8CB DUP3 PUSH2 0x889 JUMP JUMPDEST PUSH2 0x8D5 DUP2 DUP6 PUSH2 0x893 JUMP JUMPDEST SWAP4 POP PUSH2 0x8E5 DUP2 DUP6 PUSH1 0x20 DUP7 ADD PUSH2 0x8A3 JUMP JUMPDEST PUSH2 0x8EE DUP2 PUSH2 0x8B1 JUMP JUMPDEST DUP5 ADD SWAP2 POP POP SWAP3 SWAP2 POP POP JUMP JUMPDEST PUSH0 PUSH1 0x20 DUP3 ADD SWAP1 POP DUP2 DUP2 SUB PUSH0 DUP4 ADD MSTORE PUSH2 0x911 DUP2 DUP5 PUSH2 0x8C1 JUMP JUMPDEST SWAP1 POP SWAP3 SWAP2 POP POP JUMP JUMPDEST PUSH0 PUSH1 0x40 MLOAD SWAP1 POP SWAP1 JUMP JUMPDEST PUSH0 DUP1 REVERT JUMPDEST PUSH0 DUP1 REVERT JUMPDEST PUSH0 DUP1 REVERT JUMPDEST PUSH0 DUP1 REVERT JUMPDEST PUSH32 0x4E487B7100000000000000000000000000000000000000000000000000000000 PUSH0 MSTORE PUSH1 0x41 PUSH1 0x4 MSTORE PUSH1 0x24 PUSH0 REVERT JUMPDEST PUSH2 0x968 DUP3 PUSH2 0x8B1 JUMP JUMPDEST DUP2 ADD DUP2 DUP2 LT PUSH8 0xFFFFFFFFFFFFFFFF DUP3 GT OR ISZERO PUSH2 0x987 JUMPI PUSH2 0x986 PUSH2 0x932 JUMP JUMPDEST JUMPDEST DUP1 PUSH1 0x40 MSTORE POP POP POP JUMP JUMPDEST PUSH0 PUSH2 0x999 PUSH2 0x919 JUMP JUMPDEST SWAP1 POP PUSH2 0x9A5 DUP3 DUP3 PUSH2 0x95F JUMP JUMPDEST SWAP2 SWAP1 POP JUMP JUMPDEST PUSH0 PUSH8 0xFFFFFFFFFFFFFFFF DUP3 GT ISZERO PUSH2 0x9C4 JUMPI PUSH2 0x9C3 PUSH2 0x932 JUMP JUMPDEST JUMPDEST PUSH2 0x9CD DUP3 PUSH2 0x8B1 JUMP JUMPDEST SWAP1 POP PUSH1 0x20 DUP2 ADD SWAP1 POP SWAP2 SWAP1 POP JUMP JUMPDEST DUP3 DUP2 DUP4 CALLDATACOPY PUSH0 DUP4 DUP4 ADD MSTORE POP POP POP JUMP JUMPDEST PUSH0 PUSH2 0x9FA PUSH2 0x9F5 DUP5 PUSH2 0x9AA JUMP JUMPDEST PUSH2 0x990 JUMP JUMPDEST SWAP1 POP DUP3 DUP2 MSTORE PUSH1 0x20 DUP2 ADD DUP5 DUP5 DUP5 ADD GT ISZERO PUSH2 0xA16 JUMPI PUSH2 0xA15 PUSH2 0x92E JUMP JUMPDEST JUMPDEST PUSH2 0xA21 DUP5 DUP3 DUP6 PUSH2 0x9DA JUMP JUMPDEST POP SWAP4 SWAP3 POP POP POP JUMP JUMPDEST PUSH0 DUP3 PUSH1 0x1F DUP4 ADD SLT PUSH2 0xA3D JUMPI PUSH2 0xA3C PUSH2 0x92A JUMP JUMPDEST JUMPDEST DUP2 CALLDATALOAD PUSH2 0xA4D DUP5 DUP3 PUSH1 0x20 DUP7 ADD PUSH2 0x9E8 JUMP JUMPDEST SWAP2 POP POP SWAP3 SWAP2 POP POP JUMP JUMPDEST PUSH0 DUP1 PUSH1 0x40 DUP4 DUP6 SUB SLT ISZERO PUSH2 0xA6C JUMPI PUSH2 0xA6B PUSH2 0x922 JUMP JUMPDEST JUMPDEST PUSH0 DUP4 ADD CALLDATALOAD PUSH8 0xFFFFFFFFFFFFFFFF DUP2 GT ISZERO PUSH2 0xA89 JUMPI PUSH2 0xA88 PUSH2 0x926 JUMP JUMPDEST JUMPDEST PUSH2 0xA95 DUP6 DUP3 DUP7 ADD PUSH2 0xA29 JUMP JUMPDEST SWAP3 POP POP PUSH1 0x20 DUP4 ADD CALLDATALOAD PUSH8 0xFFFFFFFFFFFFFFFF DUP2 GT ISZERO PUSH2 0xAB6 JUMPI PUSH2 0xAB5 PUSH2 0x926 JUMP JUMPDEST JUMPDEST PUSH2 0xAC2 DUP6 DUP3 DUP7 ADD PUSH2 0xA29 JUMP JUMPDEST SWAP2 POP POP SWAP3 POP SWAP3 SWAP1 POP JUMP JUMPDEST PUSH0 DUP2 SWAP1 POP SWAP2 SWAP1 POP JUMP JUMPDEST PUSH2 0xADE DUP2 PUSH2 0xACC JUMP JUMPDEST DUP2 EQ PUSH2 0xAE8 JUMPI PUSH0 DUP1 REVERT JUMPDEST POP JUMP JUMPDEST PUSH0 DUP2 CALLDATALOAD SWAP1 POP PUSH2 0xAF9 DUP2 PUSH2 0xAD5 JUMP JUMPDEST SWAP3 SWAP2 POP POP JUMP JUMPDEST PUSH0 DUP1 REVERT JUMPDEST PUSH0 DUP1 REVERT JUMPDEST PUSH0 DUP1 DUP4 PUSH1 0x1F DUP5 ADD SLT PUSH2 0xB1C JUMPI PUSH2 0xB1B PUSH2 0x92A JUMP JUMPDEST JUMPDEST DUP3 CALLDATALOAD SWAP1 POP PUSH8 0xFFFFFFFFFFFFFFFF DUP2 GT ISZERO PUSH2 0xB39 JUMPI PUSH2 0xB38 PUSH2 0xAFF JUMP JUMPDEST JUMPDEST PUSH1 0x20 DUP4 ADD SWAP2 POP DUP4 PUSH1 0x1 DUP3 MUL DUP4 ADD GT ISZERO PUSH2 0xB55 JUMPI PUSH2 0xB54 PUSH2 0xB03 JUMP JUMPDEST JUMPDEST SWAP3 POP SWAP3 SWAP1 POP JUMP JUMPDEST PUSH0 DUP1 DUP4 PUSH1 0x1F DUP5 ADD SLT PUSH2 0xB71 JUMPI PUSH2 0xB70 PUSH2 0x92A JUMP JUMPDEST JUMPDEST DUP3 CALLDATALOAD SWAP1 POP PUSH8 0xFFFFFFFFFFFFFFFF DUP2 GT ISZERO PUSH2 0xB8E JUMPI PUSH2 0xB8D PUSH2 0xAFF JUMP JUMPDEST JUMPDEST PUSH1 0x20 DUP4 ADD SWAP2 POP DUP4 PUSH1 0x1 DUP3 MUL DUP4 ADD GT ISZERO PUSH2 0xBAA JUMPI PUSH2 0xBA9 PUSH2 0xB03 JUMP JUMPDEST JUMPDEST SWAP3 POP SWAP3 SWAP1 POP JUMP JUMPDEST PUSH0 DUP1 PUSH0 DUP1 PUSH0 DUP1 PUSH0 PUSH1 0x80 DUP9 DUP11 SUB SLT ISZERO PUSH2 0xBCC JUMPI PUSH2 0xBCB PUSH2 0x922 JUMP JUMPDEST JUMPDEST PUSH0 PUSH2 0xBD9 DUP11 DUP3 DUP12 ADD PUSH2 0xAEB JUMP JUMPDEST SWAP8 POP POP PUSH1 0x20 DUP9 ADD CALLDATALOAD PUSH8 0xFFFFFFFFFFFFFFFF DUP2 GT ISZERO PUSH2 0xBFA JUMPI PUSH2 0xBF9 PUSH2 0x926 JUMP JUMPDEST JUMPDEST PUSH2 0xC06 DUP11 DUP3 DUP12 ADD PUSH2 0xB07 JUMP JUMPDEST SWAP7 POP SWAP7 POP POP PUSH1 0x40 DUP9 ADD CALLDATALOAD PUSH8 0xFFFFFFFFFFFFFFFF DUP2 GT ISZERO PUSH2 0xC29 JUMPI PUSH2 0xC28 PUSH2 0x926 JUMP JUMPDEST JUMPDEST PUSH2 0xC35 DUP11 DUP3 DUP12 ADD PUSH2 0xB07 JUMP JUMPDEST SWAP5 POP SWAP5 POP POP PUSH1 0x60 DUP9 ADD CALLDATALOAD PUSH8 0xFFFFFFFFFFFFFFFF DUP2 GT ISZERO PUSH2 0xC58 JUMPI PUSH2 0xC57 PUSH2 0x926 JUMP JUMPDEST JUMPDEST PUSH2 0xC64 DUP11 DUP3 DUP12 ADD PUSH2 0xB5C JUMP JUMPDEST SWAP3 POP SWAP3 POP POP SWAP3 SWAP6 SWAP9 SWAP2 SWAP5 SWAP8 POP SWAP3 SWAP6 POP JUMP JUMPDEST PUSH0 PUSH2 0xC7F DUP3 PUSH2 0x7F6 JUMP JUMPDEST SWAP1 POP SWAP2 SWAP1 POP JUMP JUMPDEST PUSH2 0xC8F DUP2 PUSH2 0xC75 JUMP JUMPDEST DUP3 MSTORE POP POP JUMP JUMPDEST PUSH0 PUSH1 0x20 DUP3 ADD SWAP1 POP PUSH2 0xCA8 PUSH0 DUP4 ADD DUP5 PUSH2 0xC86 JUMP JUMPDEST SWAP3 SWAP2 POP POP JUMP JUMPDEST PUSH0 DUP2 SWAP1 POP SWAP2 SWAP1 POP JUMP JUMPDEST PUSH2 0xCC0 DUP2 PUSH2 0xCAE JUMP JUMPDEST DUP3 MSTORE POP POP JUMP JUMPDEST PUSH0 PUSH1 0x20 DUP3 ADD SWAP1 POP PUSH2 0xCD9 PUSH0 DUP4 ADD DUP5 PUSH2 0xCB7 JUMP JUMPDEST SWAP3 SWAP2 POP POP JUMP JUMPDEST PUSH32 0x4E487B7100000000000000000000000000000000000000000000000000000000 PUSH0 MSTORE PUSH1 0x22 PUSH1 0x4 MSTORE PUSH1 0x24 PUSH0 REVERT JUMPDEST PUSH0 PUSH1 0x2 DUP3 DIV SWAP1 POP PUSH1 0x1 DUP3 AND DUP1 PUSH2 0xD23 JUMPI PUSH1 0x7F DUP3 AND SWAP2 POP JUMPDEST PUSH1 0x20 DUP3 LT DUP2 SUB PUSH2 0xD36 JUMPI PUSH2 0xD35 PUSH2 0xCDF JUMP JUMPDEST JUMPDEST POP SWAP2 SWAP1 POP JUMP JUMPDEST PUSH0 DUP2 SWAP1 POP DUP2 PUSH0 MSTORE PUSH1 0x20 PUSH0 KECCAK256 SWAP1 POP SWAP2 SWAP1 POP JUMP JUMPDEST PUSH0 PUSH1 0x20 PUSH1 0x1F DUP4 ADD DIV SWAP1 POP SWAP2 SWAP1 POP JUMP JUMPDEST PUSH0 DUP3 DUP3 SHL SWAP1 POP SWAP3 SWAP2 POP POP JUMP JUMPDEST PUSH0 PUSH1 0x8 DUP4 MUL PUSH2 0xD98 PUSH32 0xFFFFFFFFFFFFFFFFFFFFFFFFFFFFFFFFFFFFFFFFFFFFFFFFFFFFFFFFFFFFFFFF DUP3 PUSH2 0xD5D JUMP JUMPDEST PUSH2 0xDA2 DUP7 DUP4 PUSH2 0xD5D JUMP JUMPDEST SWAP6 POP DUP1 NOT DUP5 AND SWAP4 POP DUP1 DUP7 AND DUP5 OR SWAP3 POP POP POP SWAP4 SWAP3 POP POP POP JUMP JUMPDEST PUSH0 PUSH2 0xDD4 PUSH2 0xDCF PUSH2 0xDCA DUP5 PUSH2 0xCAE JUMP JUMPDEST PUSH2 0x815 JUMP JUMPDEST PUSH2 0xCAE JUMP JUMPDEST SWAP1 POP SWAP2 SWAP1 POP JUMP JUMPDEST PUSH0 DUP2 SWAP1 POP SWAP2 SWAP1 POP JUMP JUMPDEST PUSH2 0xDED DUP4 PUSH2 0xDBA JUMP JUMPDEST PUSH2 0xE01 PUSH2 0xDF9 DUP3 PUSH2 0xDDB JUMP JUMPDEST DUP5 DUP5 SLOAD PUSH2 0xD69 JUMP JUMPDEST DUP3 SSTORE POP POP POP POP JUMP JUMPDEST PUSH0 SWAP1 JUMP JUMPDEST PUSH2 0xE15 PUSH2 0xE09 JUMP JUMPDEST PUSH2 0xE20 DUP2 DUP5 DUP5 PUSH2 0xDE4 JUMP JUMPDEST POP POP POP JUMP JUMPDEST JUMPDEST DUP2 DUP2 LT ISZERO PUSH2 0xE43 JUMPI PUSH2 0xE38 PUSH0 DUP3 PUSH2 0xE0D JUMP JUMPDEST PUSH1 0x1 DUP2 ADD SWAP1 POP PUSH2 0xE26 JUMP JUMPDEST POP POP JUMP JUMPDEST PUSH1 0x1F DUP3 GT ISZERO PUSH2 0xE88 JUMPI PUSH2 0xE59 DUP2 PUSH2 0xD3C JUMP JUMPDEST PUSH2 0xE62 DUP5 PUSH2 0xD4E JUMP JUMPDEST DUP2 ADD PUSH1 0x20 DUP6 LT ISZERO PUSH2 0xE71 JUMPI DUP2 SWAP1 POP JUMPDEST PUSH2 0xE85 PUSH2 0xE7D DUP6 PUSH2 0xD4E JUMP JUMPDEST DUP4 ADD DUP3 PUSH2 0xE25 JUMP JUMPDEST POP POP JUMPDEST POP POP POP JUMP JUMPDEST PUSH0 DUP3 DUP3 SHR SWAP1 POP SWAP3 SWAP2 POP POP JUMP JUMPDEST PUSH0 PUSH2 0xEA8 PUSH0 NOT DUP5 PUSH1 0x8 MUL PUSH2 0xE8D JUMP JUMPDEST NOT DUP1 DUP4 AND SWAP2 POP POP SWAP3 SWAP2 POP POP JUMP JUMPDEST PUSH0 PUSH2 0xEC0 DUP4 DUP4 PUSH2 0xE99 JUMP JUMPDEST SWAP2 POP DUP3 PUSH1 0x2 MUL DUP3 OR SWAP1 POP SWAP3 SWAP2 POP POP JUMP JUMPDEST PUSH2 0xED9 DUP3 PUSH2 0x889 JUMP JUMPDEST PUSH8 0xFFFFFFFFFFFFFFFF DUP2 GT ISZERO PUSH2 0xEF2 JUMPI PUSH2 0xEF1 PUSH2 0x932 JUMP JUMPDEST JUMPDEST PUSH2 0xEFC DUP3 SLOAD PUSH2 0xD0C JUMP JUMPDEST PUSH2 0xF07 DUP3 DUP3 DUP6 PUSH2 0xE47 JUMP JUMPDEST PUSH0 PUSH1 0x20 SWAP1 POP PUSH1 0x1F DUP4 GT PUSH1 0x1 DUP2 EQ PUSH2 0xF38 JUMPI PUSH0 DUP5 ISZERO PUSH2 0xF26 JUMPI DUP3 DUP8 ADD MLOAD SWAP1 POP JUMPDEST PUSH2 0xF30 DUP6 DUP3 PUSH2 0xEB5 JUMP JUMPDEST DUP7 SSTORE POP PUSH2 0xF97 JUMP JUMPDEST PUSH1 0x1F NOT DUP5 AND PUSH2 0xF46 DUP7 PUSH2 0xD3C JUMP JUMPDEST PUSH0 JUMPDEST DUP3 DUP2 LT ISZERO PUSH2 0xF6D JUMPI DUP5 DUP10 ADD MLOAD DUP3 SSTORE PUSH1 0x1 DUP3 ADD SWAP2 POP PUSH1 0x20 DUP6 ADD SWAP5 POP PUSH1 0x20 DUP2 ADD SWAP1 POP PUSH2 0xF48 JUMP JUMPDEST DUP7 DUP4 LT ISZERO PUSH2 0xF8A JUMPI DUP5 DUP10 ADD MLOAD PUSH2 0xF86 PUSH1 0x1F DUP10 AND DUP3 PUSH2 0xE99 JUMP JUMPDEST DUP4 SSTORE POP JUMPDEST PUSH1 0x1 PUSH1 0x2 DUP9 MUL ADD DUP9 SSTORE POP POP POP JUMPDEST POP POP POP POP POP POP JUMP JUMPDEST PUSH0 DUP2 SWAP1 POP SWAP3 SWAP2 POP POP JUMP JUMPDEST PUSH0 PUSH2 0xFB4 DUP4 DUP6 PUSH2 0xF9F JUMP JUMPDEST SWAP4 POP PUSH2 0xFC1 DUP4 DUP6 DUP5 PUSH2 0x9DA JUMP JUMPDEST DUP3 DUP5 ADD SWAP1 POP SWAP4 SWAP3 POP POP POP JUMP JUMPDEST PUSH0 PUSH2 0xFD9 DUP3 DUP5 DUP7 PUSH2 0xFA9 JUMP JUMPDEST SWAP2 POP DUP2 SWAP1 POP SWAP4 SWAP3 POP POP POP JUMP JUMPDEST PUSH2 0xFEE DUP2 PUSH2 0xACC JUMP JUMPDEST DUP3 MSTORE POP POP JUMP JUMPDEST PUSH0 PUSH2 0xFFF DUP4 DUP6 PUSH2 0x893 JUMP JUMPDEST SWAP4 POP PUSH2 0x100C DUP4 DUP6 DUP5 PUSH2 0x9DA JUMP JUMPDEST PUSH2 0x1015 DUP4 PUSH2 0x8B1 JUMP JUMPDEST DUP5 ADD SWAP1 POP SWAP4 SWAP3 POP POP POP JUMP JUMPDEST PUSH0 PUSH1 0x80 DUP3 ADD SWAP1 POP PUSH2 0x1033 PUSH0 DUP4 ADD DUP10 PUSH2 0xFE5 JUMP JUMPDEST DUP2 DUP2 SUB PUSH1 0x20 DUP4 ADD MSTORE PUSH2 0x1046 DUP2 DUP8 DUP10 PUSH2 0xFF4 JUMP JUMPDEST SWAP1 POP DUP2 DUP2 SUB PUSH1 0x40 DUP4 ADD MSTORE PUSH2 0x105B DUP2 DUP6 DUP8 PUSH2 0xFF4 JUMP JUMPDEST SWAP1 POP PUSH2 0x106A PUSH1 0x60 DUP4 ADD DUP5 PUSH2 0xFE5 JUMP JUMPDEST SWAP8 SWAP7 POP POP POP POP POP POP POP JUMP JUMPDEST PUSH0 DUP2 ISZERO ISZERO SWAP1 POP SWAP2 SWAP1 POP JUMP JUMPDEST PUSH2 0x1089 DUP2 PUSH2 0x1075 JUMP JUMPDEST DUP2 EQ PUSH2 0x1093 JUMPI PUSH0 DUP1 REVERT JUMPDEST POP JUMP JUMPDEST PUSH0 DUP2 MLOAD SWAP1 POP PUSH2 0x10A4 DUP2 PUSH2 0x1080 JUMP JUMPDEST SWAP3 SWAP2 POP POP JUMP JUMPDEST PUSH0 PUSH1 0x20 DUP3 DUP5 SUB SLT ISZERO PUSH2 0x10BF JUMPI PUSH2 0x10BE PUSH2 0x922 JUMP JUMPDEST JUMPDEST PUSH0 PUSH2 0x10CC DUP5 DUP3 DUP6 ADD PUSH2 0x1096 JUMP JUMPDEST SWAP2 POP POP SWAP3 SWAP2 POP POP JUMP JUMPDEST PUSH0 PUSH2 0x10DF DUP3 PUSH2 0x7F6 JUMP JUMPDEST SWAP1 POP SWAP2 SWAP1 POP JUMP JUMPDEST PUSH2 0x10EF DUP2 PUSH2 0x10D5 JUMP JUMPDEST DUP2 EQ PUSH2 0x10F9 JUMPI PUSH0 DUP1 REVERT JUMPDEST POP JUMP JUMPDEST PUSH0 DUP2 CALLDATALOAD SWAP1 POP PUSH2 0x110A DUP2 PUSH2 0x10E6 JUMP JUMPDEST SWAP3 SWAP2 POP POP JUMP JUMPDEST PUSH2 0x1119 DUP2 PUSH2 0xCAE JUMP JUMPDEST DUP2 EQ PUSH2 0x1123 JUMPI PUSH0 DUP1 REVERT JUMPDEST POP JUMP JUMPDEST PUSH0 DUP2 CALLDATALOAD SWAP1 POP PUSH2 0x1134 DUP2 PUSH2 0x1110 JUMP JUMPDEST SWAP3 SWAP2 POP POP JUMP JUMPDEST PUSH0 DUP1 PUSH1 0x40 DUP4 DUP6 SUB SLT ISZERO PUSH2 0x1150 JUMPI PUSH2 0x114F PUSH2 0x922 JUMP JUMPDEST JUMPDEST PUSH0 PUSH2 0x115D DUP6 DUP3 DUP7 ADD PUSH2 0x10FC JUMP JUMPDEST SWAP3 POP POP PUSH1 0x20 PUSH2 0x116E DUP6 DUP3 DUP7 ADD PUSH2 0x1126 JUMP JUMPDEST SWAP2 POP POP SWAP3 POP SWAP3 SWAP1 POP JUMP JUMPDEST PUSH0 DUP3 SWAP1 POP SWAP3 SWAP2 POP POP JUMP JUMPDEST PUSH2 0x118C DUP4 DUP4 PUSH2 0x1178 JUMP JUMPDEST PUSH8 0xFFFFFFFFFFFFFFFF DUP2 GT ISZERO PUSH2 0x11A5 JUMPI PUSH2 0x11A4 PUSH2 0x932 JUMP JUMPDEST JUMPDEST PUSH2 0x11AF DUP3 SLOAD PUSH2 0xD0C JUMP JUMPDEST PUSH2 0x11BA DUP3 DUP3 DUP6 PUSH2 0xE47 JUMP JUMPDEST PUSH0 PUSH1 0x1F DUP4 GT PUSH1 0x1 DUP2 EQ PUSH2 0x11E7 JUMPI PUSH0 DUP5 ISZERO PUSH2 0x11D5 JUMPI DUP3 DUP8 ADD CALLDATALOAD SWAP1 POP JUMPDEST PUSH2 0x11DF DUP6 DUP3 PUSH2 0xEB5 JUMP JUMPDEST DUP7 SSTORE POP PUSH2 0x1246 JUMP JUMPDEST PUSH1 0x1F NOT DUP5 AND PUSH2 0x11F5 DUP7 PUSH2 0xD3C JUMP JUMPDEST PUSH0 JUMPDEST DUP3 DUP2 LT ISZERO PUSH2 0x121C JUMPI DUP5 DUP10 ADD CALLDATALOAD DUP3 SSTORE PUSH1 0x1 DUP3 ADD SWAP2 POP PUSH1 0x20 DUP6 ADD SWAP5 POP PUSH1 0x20 DUP2 ADD SWAP1 POP PUSH2 0x11F7 JUMP JUMPDEST DUP7 DUP4 LT ISZERO PUSH2 0x1239 JUMPI DUP5 DUP10 ADD CALLDATALOAD PUSH2 0x1235 PUSH1 0x1F DUP10 AND DUP3 PUSH2 0xE99 JUMP JUMPDEST DUP4 SSTORE POP JUMPDEST PUSH1 0x1 PUSH1 0x2 DUP9 MUL ADD DUP9 SSTORE POP POP POP JUMPDEST POP POP POP POP POP POP POP JUMP JUMPDEST PUSH0 DUP2 SWAP1 POP SWAP3 SWAP2 POP POP JUMP JUMPDEST PUSH0 DUP2 SLOAD PUSH2 0x1265 DUP2 PUSH2 0xD0C JUMP JUMPDEST PUSH2 0x126F DUP2 DUP7 PUSH2 0x124F JUMP JUMPDEST SWAP5 POP PUSH1 0x1 DUP3 AND PUSH0 DUP2 EQ PUSH2 0x1289 JUMPI PUSH1 0x1 DUP2 EQ PUSH2 0x129E JUMPI PUSH2 0x12D0 JUMP JUMPDEST PUSH1 0xFF NOT DUP4 AND DUP7 MSTORE DUP2 ISZERO ISZERO DUP3 MUL DUP7 ADD SWAP4 POP PUSH2 0x12D0 JUMP JUMPDEST PUSH2 0x12A7 DUP6 PUSH2 0xD3C JUMP JUMPDEST PUSH0 JUMPDEST DUP4 DUP2 LT ISZERO PUSH2 0x12C8 JUMPI DUP2 SLOAD DUP2 DUP10 ADD MSTORE PUSH1 0x1 DUP3 ADD SWAP2 POP PUSH1 0x20 DUP2 ADD SWAP1 POP PUSH2 0x12A9 JUMP JUMPDEST DUP4 DUP9 ADD SWAP6 POP POP POP JUMPDEST POP POP POP SWAP3 SWAP2 POP POP JUMP JUMPDEST PUSH0 PUSH2 0x12E4 DUP3 DUP5 PUSH2 0x1259 JUMP JUMPDEST SWAP2 POP DUP2 SWAP1 POP SWAP3 SWAP2 POP POP JUMP JUMPDEST PUSH0 PUSH2 0x12FA DUP4 DUP6 PUSH2 0x124F JUMP JUMPDEST SWAP4 POP PUSH2 0x1307 DUP4 DUP6 DUP5 PUSH2 0x9DA JUMP JUMPDEST DUP3 DUP5 ADD SWAP1 POP SWAP4 SWAP3 POP POP POP JUMP JUMPDEST PUSH0 PUSH2 0x131F DUP3 DUP5 DUP7 PUSH2 0x12EF JUMP JUMPDEST SWAP2 POP DUP2 SWAP1 POP SWAP4 SWAP3 POP POP POP JUMP JUMPDEST PUSH0 PUSH1 0x20 DUP3 ADD SWAP1 POP DUP2 DUP2 SUB PUSH0 DUP4 ADD MSTORE PUSH2 0x1344 DUP2 DUP5 DUP7 PUSH2 0xFF4 JUMP JUMPDEST SWAP1 POP SWAP4 SWAP3 POP POP POP JUMP JUMPDEST PUSH0 DUP2 SLOAD PUSH2 0x1359 DUP2 PUSH2 0xD0C JUMP JUMPDEST PUSH2 0x1363 DUP2 DUP7 PUSH2 0x893 JUMP JUMPDEST SWAP5 POP PUSH1 0x1 DUP3 AND PUSH0 DUP2 EQ PUSH2 0x137D JUMPI PUSH1 0x1 DUP2 EQ PUSH2 0x1393 JUMPI PUSH2 0x13C5 JUMP JUMPDEST PUSH1 0xFF NOT DUP4 AND DUP7 MSTORE DUP2 ISZERO ISZERO PUSH1 0x20 MUL DUP7 ADD SWAP4 POP PUSH2 0x13C5 JUMP JUMPDEST PUSH2 0x139C DUP6 PUSH2 0xD3C JUMP JUMPDEST PUSH0 JUMPDEST DUP4 DUP2 LT ISZERO PUSH2 0x13BD JUMPI DUP2 SLOAD DUP2 DUP10 ADD MSTORE PUSH1 0x1 DUP3 ADD SWAP2 POP PUSH1 0x20 DUP2 ADD SWAP1 POP PUSH2 0x139E JUMP JUMPDEST DUP1 DUP9 ADD SWAP6 POP POP POP JUMPDEST POP POP POP SWAP3 SWAP2 POP POP JUMP JUMPDEST PUSH0 PUSH1 0x80 DUP3 ADD SWAP1 POP PUSH2 0x13E1 PUSH0 DUP4 ADD DUP8 PUSH2 0xFE5 JUMP JUMPDEST DUP2 DUP2 SUB PUSH1 0x20 DUP4 ADD MSTORE PUSH2 0x13F3 DUP2 DUP7 PUSH2 0x134D JUMP JUMPDEST SWAP1 POP PUSH2 0x1402 PUSH1 0x40 DUP4 ADD DUP6 PUSH2 0xC86 JUMP JUMPDEST PUSH2 0x140F PUSH1 0x60 DUP4 ADD DUP5 PUSH2 0xCB7 JUMP JUMPDEST SWAP6 SWAP5 POP POP POP POP POP JUMP JUMPDEST PUSH0 PUSH1 0x40 DUP3 ADD SWAP1 POP PUSH2 0x142B PUSH0 DUP4 ADD DUP6 PUSH2 0xC86 JUMP JUMPDEST PUSH2 0x1438 PUSH1 0x20 DUP4 ADD DUP5 PUSH2 0xCB7 JUMP JUMPDEST SWAP4 SWAP3 POP POP POP JUMP INVALID LOG2 PUSH5 0x6970667358 0x22 SLT KECCAK256 CALLVALUE 0x28 LOG3 PUSH21 0xAB690C11687463BEF34D377C768CE22EB959212258 PUSH2 0xAED CALLDATASIZE COINBASE 0xCA AND PUSH5 0x736F6C6343 STOP ADDMOD BYTE STOP CALLER "
		},
		"gasEstimates": {
			"creation": {
				"codeDepositCost": "1047400",
				"executionCost": "infinite",
				"totalCost": "infinite"
			},
			"external": {
				"amount()": "2469",
				"authorizedSourceAddress()": "infinite",
				"authorizedSourceChain()": "infinite",
				"clientFilecoinAddress()": "2508",
				"execute(bytes32,string,string,bytes)": "infinite",
				"gateway()": "infinite",
				"setAuthorizedSourceChainAndAddress(string,string)": "infinite",
				"sourceAddress()": "infinite",
				"sourceChain()": "infinite"
			},
			"internal": {
				"_execute(bytes32,string calldata,string calldata,bytes calldata)": "infinite"
			}
		},
		"methodIdentifiers": {
			"amount()": "aa8c217c",
			"authorizedSourceAddress()": "f3fdf573",
			"authorizedSourceChain()": "9cb6239b",
			"clientFilecoinAddress()": "5411a061",
			"execute(bytes32,string,string,bytes)": "49160658",
			"gateway()": "116191b6",
			"setAuthorizedSourceChainAndAddress(string,string)": "27c79ae7",
			"sourceAddress()": "b0fa8444",
			"sourceChain()": "1c6ffa46"
		}
	},
	"abi": [
		{
			"inputs": [
				{
					"internalType": "address",
					"name": "axelarGateway",
					"type": "address"
				},
				{
					"internalType": "address",
					"name": "mockAllocatorAddr",
					"type": "address"
				}
			],
			"stateMutability": "nonpayable",
			"type": "constructor"
		},
		{
			"inputs": [],
			"name": "InvalidAddress",
			"type": "error"
		},
		{
			"inputs": [],
			"name": "NotApprovedByGateway",
			"type": "error"
		},
		{
			"inputs": [
				{
					"internalType": "string",
					"name": "addr",
					"type": "string"
				}
			],
			"name": "UnauthorizedSourceAddress",
			"type": "error"
		},
		{
			"inputs": [
				{
					"internalType": "string",
					"name": "chain",
					"type": "string"
				}
			],
			"name": "UnauthorizedSourceChain",
			"type": "error"
		},
		{
			"anonymous": false,
			"inputs": [
				{
					"indexed": false,
					"internalType": "bytes32",
					"name": "commandId",
					"type": "bytes32"
				},
				{
					"indexed": false,
					"internalType": "string",
					"name": "_from",
					"type": "string"
				},
				{
					"indexed": false,
					"internalType": "address",
					"name": "_clientFilecoinAddress",
					"type": "address"
				},
				{
					"indexed": false,
					"internalType": "uint256",
					"name": "_amount",
					"type": "uint256"
				}
			],
			"name": "Executed",
			"type": "event"
		},
		{
			"inputs": [],
			"name": "amount",
			"outputs": [
				{
					"internalType": "uint256",
					"name": "",
					"type": "uint256"
				}
			],
			"stateMutability": "view",
			"type": "function"
		},
		{
			"inputs": [],
			"name": "authorizedSourceAddress",
			"outputs": [
				{
					"internalType": "string",
					"name": "",
					"type": "string"
				}
			],
			"stateMutability": "view",
			"type": "function"
		},
		{
			"inputs": [],
			"name": "authorizedSourceChain",
			"outputs": [
				{
					"internalType": "string",
					"name": "",
					"type": "string"
				}
			],
			"stateMutability": "view",
			"type": "function"
		},
		{
			"inputs": [],
			"name": "clientFilecoinAddress",
			"outputs": [
				{
					"internalType": "address",
					"name": "",
					"type": "address"
				}
			],
			"stateMutability": "view",
			"type": "function"
		},
		{
			"inputs": [
				{
					"internalType": "bytes32",
					"name": "commandId",
					"type": "bytes32"
				},
				{
					"internalType": "string",
					"name": "sourceChain",
					"type": "string"
				},
				{
					"internalType": "string",
					"name": "sourceAddress",
					"type": "string"
				},
				{
					"internalType": "bytes",
					"name": "payload",
					"type": "bytes"
				}
			],
			"name": "execute",
			"outputs": [],
			"stateMutability": "nonpayable",
			"type": "function"
		},
		{
			"inputs": [],
			"name": "gateway",
			"outputs": [
				{
					"internalType": "contract IAxelarGateway",
					"name": "",
					"type": "address"
				}
			],
			"stateMutability": "view",
			"type": "function"
		},
		{
			"inputs": [
				{
					"internalType": "string",
					"name": "chain",
					"type": "string"
				},
				{
					"internalType": "string",
					"name": "addr",
					"type": "string"
				}
			],
			"name": "setAuthorizedSourceChainAndAddress",
			"outputs": [],
			"stateMutability": "nonpayable",
			"type": "function"
		},
		{
			"inputs": [],
			"name": "sourceAddress",
			"outputs": [
				{
					"internalType": "string",
					"name": "",
					"type": "string"
				}
			],
			"stateMutability": "view",
			"type": "function"
		},
		{
			"inputs": [],
			"name": "sourceChain",
			"outputs": [
				{
					"internalType": "string",
					"name": "",
					"type": "string"
				}
			],
			"stateMutability": "view",
			"type": "function"
		}
	]
}