{
	"data": {
		"bytecode": {
			"linkReferences": {},
			"object": "60a060405234801561000f575f80fd5b50604051610eea380380610eea83398181016040528101906100319190610130565b805f73ffffffffffffffffffffffffffffffffffffffff168173ffffffffffffffffffffffffffffffffffffffff1603610097576040517fe6c4247b00000000000000000000000000000000000000000000000000000000815260040160405180910390fd5b8073ffffffffffffffffffffffffffffffffffffffff1660808173ffffffffffffffffffffffffffffffffffffffff1681525050505061015b565b5f80fd5b5f73ffffffffffffffffffffffffffffffffffffffff82169050919050565b5f6100ff826100d6565b9050919050565b61010f816100f5565b8114610119575f80fd5b50565b5f8151905061012a81610106565b92915050565b5f60208284031215610145576101446100d2565b5b5f6101528482850161011c565b91505092915050565b608051610d776101735f395f6101190152610d775ff3fe608060405234801561000f575f80fd5b5060043610610060575f3560e01c8063116191b6146100645780631c6ffa461461008257806349160658146100a05780635411a061146100bc578063aa8c217c146100da578063b0fa8444146100f8575b5f80fd5b61006c610116565b60405161007991906104d2565b60405180910390f35b61008a61013d565b604051610097919061055b565b60405180910390f35b6100ba60048036038101906100b5919061066c565b6101c9565b005b6100c46102bd565b6040516100d19190610750565b60405180910390f35b6100e26102e0565b6040516100ef9190610781565b60405180910390f35b6101006102e6565b60405161010d919061055b565b60405180910390f35b5f7f0000000000000000000000000000000000000000000000000000000000000000905090565b6002805461014a906107c7565b80601f0160208091040260200160405190810160405280929190818152602001828054610176906107c7565b80156101c15780601f10610198576101008083540402835291602001916101c1565b820191905f5260205f20905b8154815290600101906020018083116101a457829003601f168201915b505050505081565b5f82826040516101da929190610833565b604051809103902090506101ec610116565b73ffffffffffffffffffffffffffffffffffffffff16635f6970c38989898989876040518763ffffffff1660e01b815260040161022e96959493929190610886565b6020604051808303815f875af115801561024a573d5f803e3d5ffd5b505050506040513d601f19601f8201168201806040525081019061026e9190610910565b6102a4576040517f500c44b400000000000000000000000000000000000000000000000000000000815260040160405180910390fd5b6102b388888888888888610372565b5050505050505050565b5f8054906101000a900473ffffffffffffffffffffffffffffffffffffffff1681565b60015481565b600380546102f3906107c7565b80601f016020809104026020016040519081016040528092919081815260200182805461031f906107c7565b801561036a5780601f106103415761010080835404028352916020019161036a565b820191905f5260205f20905b81548152906001019060200180831161034d57829003601f168201915b505050505081565b818181019061038191906109a0565b5f8060015f84919050558391906101000a81548173ffffffffffffffffffffffffffffffffffffffff021916908373ffffffffffffffffffffffffffffffffffffffff16021790555050508585600291826103dd929190610ba9565b508383600391826103ef929190610ba9565b507f8e73ead1ba5ac4085bdb804c6a5ea9f72c617280817c2db3215d473276e606ec8760035f8054906101000a900473ffffffffffffffffffffffffffffffffffffffff166001546040516104479493929190610cf7565b60405180910390a150505050505050565b5f73ffffffffffffffffffffffffffffffffffffffff82169050919050565b5f819050919050565b5f61049a61049561049084610458565b610477565b610458565b9050919050565b5f6104ab82610480565b9050919050565b5f6104bc826104a1565b9050919050565b6104cc816104b2565b82525050565b5f6020820190506104e55f8301846104c3565b92915050565b5f81519050919050565b5f82825260208201905092915050565b8281835e5f83830152505050565b5f601f19601f8301169050919050565b5f61052d826104eb565b61053781856104f5565b9350610547818560208601610505565b61055081610513565b840191505092915050565b5f6020820190508181035f8301526105738184610523565b905092915050565b5f80fd5b5f80fd5b5f819050919050565b61059581610583565b811461059f575f80fd5b50565b5f813590506105b08161058c565b92915050565b5f80fd5b5f80fd5b5f80fd5b5f8083601f8401126105d7576105d66105b6565b5b8235905067ffffffffffffffff8111156105f4576105f36105ba565b5b6020830191508360018202830111156106105761060f6105be565b5b9250929050565b5f8083601f84011261062c5761062b6105b6565b5b8235905067ffffffffffffffff811115610649576106486105ba565b5b602083019150836001820283011115610665576106646105be565b5b9250929050565b5f805f805f805f6080888a0312156106875761068661057b565b5b5f6106948a828b016105a2565b975050602088013567ffffffffffffffff8111156106b5576106b461057f565b5b6106c18a828b016105c2565b9650965050604088013567ffffffffffffffff8111156106e4576106e361057f565b5b6106f08a828b016105c2565b9450945050606088013567ffffffffffffffff8111156107135761071261057f565b5b61071f8a828b01610617565b925092505092959891949750929550565b5f61073a82610458565b9050919050565b61074a81610730565b82525050565b5f6020820190506107635f830184610741565b92915050565b5f819050919050565b61077b81610769565b82525050565b5f6020820190506107945f830184610772565b92915050565b7f4e487b71000000000000000000000000000000000000000000000000000000005f52602260045260245ffd5b5f60028204905060018216806107de57607f821691505b6020821081036107f1576107f061079a565b5b50919050565b5f81905092915050565b828183375f83830152505050565b5f61081a83856107f7565b9350610827838584610801565b82840190509392505050565b5f61083f82848661080f565b91508190509392505050565b61085481610583565b82525050565b5f61086583856104f5565b9350610872838584610801565b61087b83610513565b840190509392505050565b5f6080820190506108995f83018961084b565b81810360208301526108ac81878961085a565b905081810360408301526108c181858761085a565b90506108d0606083018461084b565b979650505050505050565b5f8115159050919050565b6108ef816108db565b81146108f9575f80fd5b50565b5f8151905061090a816108e6565b92915050565b5f602082840312156109255761092461057b565b5b5f610932848285016108fc565b91505092915050565b5f61094582610458565b9050919050565b6109558161093b565b811461095f575f80fd5b50565b5f813590506109708161094c565b92915050565b61097f81610769565b8114610989575f80fd5b50565b5f8135905061099a81610976565b92915050565b5f80604083850312156109b6576109b561057b565b5b5f6109c385828601610962565b92505060206109d48582860161098c565b9150509250929050565b5f82905092915050565b7f4e487b71000000000000000000000000000000000000000000000000000000005f52604160045260245ffd5b5f819050815f5260205f209050919050565b5f6020601f8301049050919050565b5f82821b905092915050565b5f60088302610a717fffffffffffffffffffffffffffffffffffffffffffffffffffffffffffffffff82610a36565b610a7b8683610a36565b95508019841693508086168417925050509392505050565b5f610aad610aa8610aa384610769565b610477565b610769565b9050919050565b5f819050919050565b610ac683610a93565b610ada610ad282610ab4565b848454610a42565b825550505050565b5f90565b610aee610ae2565b610af9818484610abd565b505050565b5b81811015610b1c57610b115f82610ae6565b600181019050610aff565b5050565b601f821115610b6157610b3281610a15565b610b3b84610a27565b81016020851015610b4a578190505b610b5e610b5685610a27565b830182610afe565b50505b505050565b5f82821c905092915050565b5f610b815f1984600802610b66565b1980831691505092915050565b5f610b998383610b72565b9150826002028217905092915050565b610bb383836109de565b67ffffffffffffffff811115610bcc57610bcb6109e8565b5b610bd682546107c7565b610be1828285610b20565b5f601f831160018114610c0e575f8415610bfc578287013590505b610c068582610b8e565b865550610c6d565b601f198416610c1c86610a15565b5f5b82811015610c4357848901358255600182019150602085019450602081019050610c1e565b86831015610c605784890135610c5c601f891682610b72565b8355505b6001600288020188555050505b50505050505050565b5f8154610c82816107c7565b610c8c81866104f5565b9450600182165f8114610ca65760018114610cbc57610cee565b60ff198316865281151560200286019350610cee565b610cc585610a15565b5f5b83811015610ce657815481890152600182019150602081019050610cc7565b808801955050505b50505092915050565b5f608082019050610d0a5f83018761084b565b8181036020830152610d1c8186610c76565b9050610d2b6040830185610741565b610d386060830184610772565b9594505050505056fea26469706673582212204b389bfd9d98caa641f5f40b40cf305ca89c01b2d364c9d46a5a7b4e646b058164736f6c634300081a0033",
			"opcodes": "PUSH1 0xA0 PUSH1 0x40 MSTORE CALLVALUE DUP1 ISZERO PUSH2 0xF JUMPI PUSH0 DUP1 REVERT JUMPDEST POP PUSH1 0x40 MLOAD PUSH2 0xEEA CODESIZE SUB DUP1 PUSH2 0xEEA DUP4 CODECOPY DUP2 DUP2 ADD PUSH1 0x40 MSTORE DUP2 ADD SWAP1 PUSH2 0x31 SWAP2 SWAP1 PUSH2 0x130 JUMP JUMPDEST DUP1 PUSH0 PUSH20 0xFFFFFFFFFFFFFFFFFFFFFFFFFFFFFFFFFFFFFFFF AND DUP2 PUSH20 0xFFFFFFFFFFFFFFFFFFFFFFFFFFFFFFFFFFFFFFFF AND SUB PUSH2 0x97 JUMPI PUSH1 0x40 MLOAD PUSH32 0xE6C4247B00000000000000000000000000000000000000000000000000000000 DUP2 MSTORE PUSH1 0x4 ADD PUSH1 0x40 MLOAD DUP1 SWAP2 SUB SWAP1 REVERT JUMPDEST DUP1 PUSH20 0xFFFFFFFFFFFFFFFFFFFFFFFFFFFFFFFFFFFFFFFF AND PUSH1 0x80 DUP2 PUSH20 0xFFFFFFFFFFFFFFFFFFFFFFFFFFFFFFFFFFFFFFFF AND DUP2 MSTORE POP POP POP POP PUSH2 0x15B JUMP JUMPDEST PUSH0 DUP1 REVERT JUMPDEST PUSH0 PUSH20 0xFFFFFFFFFFFFFFFFFFFFFFFFFFFFFFFFFFFFFFFF DUP3 AND SWAP1 POP SWAP2 SWAP1 POP JUMP JUMPDEST PUSH0 PUSH2 0xFF DUP3 PUSH2 0xD6 JUMP JUMPDEST SWAP1 POP SWAP2 SWAP1 POP JUMP JUMPDEST PUSH2 0x10F DUP2 PUSH2 0xF5 JUMP JUMPDEST DUP2 EQ PUSH2 0x119 JUMPI PUSH0 DUP1 REVERT JUMPDEST POP JUMP JUMPDEST PUSH0 DUP2 MLOAD SWAP1 POP PUSH2 0x12A DUP2 PUSH2 0x106 JUMP JUMPDEST SWAP3 SWAP2 POP POP JUMP JUMPDEST PUSH0 PUSH1 0x20 DUP3 DUP5 SUB SLT ISZERO PUSH2 0x145 JUMPI PUSH2 0x144 PUSH2 0xD2 JUMP JUMPDEST JUMPDEST PUSH0 PUSH2 0x152 DUP5 DUP3 DUP6 ADD PUSH2 0x11C JUMP JUMPDEST SWAP2 POP POP SWAP3 SWAP2 POP POP JUMP JUMPDEST PUSH1 0x80 MLOAD PUSH2 0xD77 PUSH2 0x173 PUSH0 CODECOPY PUSH0 PUSH2 0x119 ADD MSTORE PUSH2 0xD77 PUSH0 RETURN INVALID PUSH1 0x80 PUSH1 0x40 MSTORE CALLVALUE DUP1 ISZERO PUSH2 0xF JUMPI PUSH0 DUP1 REVERT JUMPDEST POP PUSH1 0x4 CALLDATASIZE LT PUSH2 0x60 JUMPI PUSH0 CALLDATALOAD PUSH1 0xE0 SHR DUP1 PUSH4 0x116191B6 EQ PUSH2 0x64 JUMPI DUP1 PUSH4 0x1C6FFA46 EQ PUSH2 0x82 JUMPI DUP1 PUSH4 0x49160658 EQ PUSH2 0xA0 JUMPI DUP1 PUSH4 0x5411A061 EQ PUSH2 0xBC JUMPI DUP1 PUSH4 0xAA8C217C EQ PUSH2 0xDA JUMPI DUP1 PUSH4 0xB0FA8444 EQ PUSH2 0xF8 JUMPI JUMPDEST PUSH0 DUP1 REVERT JUMPDEST PUSH2 0x6C PUSH2 0x116 JUMP JUMPDEST PUSH1 0x40 MLOAD PUSH2 0x79 SWAP2 SWAP1 PUSH2 0x4D2 JUMP JUMPDEST PUSH1 0x40 MLOAD DUP1 SWAP2 SUB SWAP1 RETURN JUMPDEST PUSH2 0x8A PUSH2 0x13D JUMP JUMPDEST PUSH1 0x40 MLOAD PUSH2 0x97 SWAP2 SWAP1 PUSH2 0x55B JUMP JUMPDEST PUSH1 0x40 MLOAD DUP1 SWAP2 SUB SWAP1 RETURN JUMPDEST PUSH2 0xBA PUSH1 0x4 DUP1 CALLDATASIZE SUB DUP2 ADD SWAP1 PUSH2 0xB5 SWAP2 SWAP1 PUSH2 0x66C JUMP JUMPDEST PUSH2 0x1C9 JUMP JUMPDEST STOP JUMPDEST PUSH2 0xC4 PUSH2 0x2BD JUMP JUMPDEST PUSH1 0x40 MLOAD PUSH2 0xD1 SWAP2 SWAP1 PUSH2 0x750 JUMP JUMPDEST PUSH1 0x40 MLOAD DUP1 SWAP2 SUB SWAP1 RETURN JUMPDEST PUSH2 0xE2 PUSH2 0x2E0 JUMP JUMPDEST PUSH1 0x40 MLOAD PUSH2 0xEF SWAP2 SWAP1 PUSH2 0x781 JUMP JUMPDEST PUSH1 0x40 MLOAD DUP1 SWAP2 SUB SWAP1 RETURN JUMPDEST PUSH2 0x100 PUSH2 0x2E6 JUMP JUMPDEST PUSH1 0x40 MLOAD PUSH2 0x10D SWAP2 SWAP1 PUSH2 0x55B JUMP JUMPDEST PUSH1 0x40 MLOAD DUP1 SWAP2 SUB SWAP1 RETURN JUMPDEST PUSH0 PUSH32 0x0 SWAP1 POP SWAP1 JUMP JUMPDEST PUSH1 0x2 DUP1 SLOAD PUSH2 0x14A SWAP1 PUSH2 0x7C7 JUMP JUMPDEST DUP1 PUSH1 0x1F ADD PUSH1 0x20 DUP1 SWAP2 DIV MUL PUSH1 0x20 ADD PUSH1 0x40 MLOAD SWAP1 DUP2 ADD PUSH1 0x40 MSTORE DUP1 SWAP3 SWAP2 SWAP1 DUP2 DUP2 MSTORE PUSH1 0x20 ADD DUP3 DUP1 SLOAD PUSH2 0x176 SWAP1 PUSH2 0x7C7 JUMP JUMPDEST DUP1 ISZERO PUSH2 0x1C1 JUMPI DUP1 PUSH1 0x1F LT PUSH2 0x198 JUMPI PUSH2 0x100 DUP1 DUP4 SLOAD DIV MUL DUP4 MSTORE SWAP2 PUSH1 0x20 ADD SWAP2 PUSH2 0x1C1 JUMP JUMPDEST DUP3 ADD SWAP2 SWAP1 PUSH0 MSTORE PUSH1 0x20 PUSH0 KECCAK256 SWAP1 JUMPDEST DUP2 SLOAD DUP2 MSTORE SWAP1 PUSH1 0x1 ADD SWAP1 PUSH1 0x20 ADD DUP1 DUP4 GT PUSH2 0x1A4 JUMPI DUP3 SWAP1 SUB PUSH1 0x1F AND DUP3 ADD SWAP2 JUMPDEST POP POP POP POP POP DUP2 JUMP JUMPDEST PUSH0 DUP3 DUP3 PUSH1 0x40 MLOAD PUSH2 0x1DA SWAP3 SWAP2 SWAP1 PUSH2 0x833 JUMP JUMPDEST PUSH1 0x40 MLOAD DUP1 SWAP2 SUB SWAP1 KECCAK256 SWAP1 POP PUSH2 0x1EC PUSH2 0x116 JUMP JUMPDEST PUSH20 0xFFFFFFFFFFFFFFFFFFFFFFFFFFFFFFFFFFFFFFFF AND PUSH4 0x5F6970C3 DUP10 DUP10 DUP10 DUP10 DUP10 DUP8 PUSH1 0x40 MLOAD DUP8 PUSH4 0xFFFFFFFF AND PUSH1 0xE0 SHL DUP2 MSTORE PUSH1 0x4 ADD PUSH2 0x22E SWAP7 SWAP6 SWAP5 SWAP4 SWAP3 SWAP2 SWAP1 PUSH2 0x886 JUMP JUMPDEST PUSH1 0x20 PUSH1 0x40 MLOAD DUP1 DUP4 SUB DUP2 PUSH0 DUP8 GAS CALL ISZERO DUP1 ISZERO PUSH2 0x24A JUMPI RETURNDATASIZE PUSH0 DUP1 RETURNDATACOPY RETURNDATASIZE PUSH0 REVERT JUMPDEST POP POP POP POP PUSH1 0x40 MLOAD RETURNDATASIZE PUSH1 0x1F NOT PUSH1 0x1F DUP3 ADD AND DUP3 ADD DUP1 PUSH1 0x40 MSTORE POP DUP2 ADD SWAP1 PUSH2 0x26E SWAP2 SWAP1 PUSH2 0x910 JUMP JUMPDEST PUSH2 0x2A4 JUMPI PUSH1 0x40 MLOAD PUSH32 0x500C44B400000000000000000000000000000000000000000000000000000000 DUP2 MSTORE PUSH1 0x4 ADD PUSH1 0x40 MLOAD DUP1 SWAP2 SUB SWAP1 REVERT JUMPDEST PUSH2 0x2B3 DUP9 DUP9 DUP9 DUP9 DUP9 DUP9 DUP9 PUSH2 0x372 JUMP JUMPDEST POP POP POP POP POP POP POP POP JUMP JUMPDEST PUSH0 DUP1 SLOAD SWAP1 PUSH2 0x100 EXP SWAP1 DIV PUSH20 0xFFFFFFFFFFFFFFFFFFFFFFFFFFFFFFFFFFFFFFFF AND DUP2 JUMP JUMPDEST PUSH1 0x1 SLOAD DUP2 JUMP JUMPDEST PUSH1 0x3 DUP1 SLOAD PUSH2 0x2F3 SWAP1 PUSH2 0x7C7 JUMP JUMPDEST DUP1 PUSH1 0x1F ADD PUSH1 0x20 DUP1 SWAP2 DIV MUL PUSH1 0x20 ADD PUSH1 0x40 MLOAD SWAP1 DUP2 ADD PUSH1 0x40 MSTORE DUP1 SWAP3 SWAP2 SWAP1 DUP2 DUP2 MSTORE PUSH1 0x20 ADD DUP3 DUP1 SLOAD PUSH2 0x31F SWAP1 PUSH2 0x7C7 JUMP JUMPDEST DUP1 ISZERO PUSH2 0x36A JUMPI DUP1 PUSH1 0x1F LT PUSH2 0x341 JUMPI PUSH2 0x100 DUP1 DUP4 SLOAD DIV MUL DUP4 MSTORE SWAP2 PUSH1 0x20 ADD SWAP2 PUSH2 0x36A JUMP JUMPDEST DUP3 ADD SWAP2 SWAP1 PUSH0 MSTORE PUSH1 0x20 PUSH0 KECCAK256 SWAP1 JUMPDEST DUP2 SLOAD DUP2 MSTORE SWAP1 PUSH1 0x1 ADD SWAP1 PUSH1 0x20 ADD DUP1 DUP4 GT PUSH2 0x34D JUMPI DUP3 SWAP1 SUB PUSH1 0x1F AND DUP3 ADD SWAP2 JUMPDEST POP POP POP POP POP DUP2 JUMP JUMPDEST DUP2 DUP2 DUP2 ADD SWAP1 PUSH2 0x381 SWAP2 SWAP1 PUSH2 0x9A0 JUMP JUMPDEST PUSH0 DUP1 PUSH1 0x1 PUSH0 DUP5 SWAP2 SWAP1 POP SSTORE DUP4 SWAP2 SWAP1 PUSH2 0x100 EXP DUP2 SLOAD DUP2 PUSH20 0xFFFFFFFFFFFFFFFFFFFFFFFFFFFFFFFFFFFFFFFF MUL NOT AND SWAP1 DUP4 PUSH20 0xFFFFFFFFFFFFFFFFFFFFFFFFFFFFFFFFFFFFFFFF AND MUL OR SWAP1 SSTORE POP POP POP DUP6 DUP6 PUSH1 0x2 SWAP2 DUP3 PUSH2 0x3DD SWAP3 SWAP2 SWAP1 PUSH2 0xBA9 JUMP JUMPDEST POP DUP4 DUP4 PUSH1 0x3 SWAP2 DUP3 PUSH2 0x3EF SWAP3 SWAP2 SWAP1 PUSH2 0xBA9 JUMP JUMPDEST POP PUSH32 0x8E73EAD1BA5AC4085BDB804C6A5EA9F72C617280817C2DB3215D473276E606EC DUP8 PUSH1 0x3 PUSH0 DUP1 SLOAD SWAP1 PUSH2 0x100 EXP SWAP1 DIV PUSH20 0xFFFFFFFFFFFFFFFFFFFFFFFFFFFFFFFFFFFFFFFF AND PUSH1 0x1 SLOAD PUSH1 0x40 MLOAD PUSH2 0x447 SWAP5 SWAP4 SWAP3 SWAP2 SWAP1 PUSH2 0xCF7 JUMP JUMPDEST PUSH1 0x40 MLOAD DUP1 SWAP2 SUB SWAP1 LOG1 POP POP POP POP POP POP POP JUMP JUMPDEST PUSH0 PUSH20 0xFFFFFFFFFFFFFFFFFFFFFFFFFFFFFFFFFFFFFFFF DUP3 AND SWAP1 POP SWAP2 SWAP1 POP JUMP JUMPDEST PUSH0 DUP2 SWAP1 POP SWAP2 SWAP1 POP JUMP JUMPDEST PUSH0 PUSH2 0x49A PUSH2 0x495 PUSH2 0x490 DUP5 PUSH2 0x458 JUMP JUMPDEST PUSH2 0x477 JUMP JUMPDEST PUSH2 0x458 JUMP JUMPDEST SWAP1 POP SWAP2 SWAP1 POP JUMP JUMPDEST PUSH0 PUSH2 0x4AB DUP3 PUSH2 0x480 JUMP JUMPDEST SWAP1 POP SWAP2 SWAP1 POP JUMP JUMPDEST PUSH0 PUSH2 0x4BC DUP3 PUSH2 0x4A1 JUMP JUMPDEST SWAP1 POP SWAP2 SWAP1 POP JUMP JUMPDEST PUSH2 0x4CC DUP2 PUSH2 0x4B2 JUMP JUMPDEST DUP3 MSTORE POP POP JUMP JUMPDEST PUSH0 PUSH1 0x20 DUP3 ADD SWAP1 POP PUSH2 0x4E5 PUSH0 DUP4 ADD DUP5 PUSH2 0x4C3 JUMP JUMPDEST SWAP3 SWAP2 POP POP JUMP JUMPDEST PUSH0 DUP2 MLOAD SWAP1 POP SWAP2 SWAP1 POP JUMP JUMPDEST PUSH0 DUP3 DUP3 MSTORE PUSH1 0x20 DUP3 ADD SWAP1 POP SWAP3 SWAP2 POP POP JUMP JUMPDEST DUP3 DUP2 DUP4 MCOPY PUSH0 DUP4 DUP4 ADD MSTORE POP POP POP JUMP JUMPDEST PUSH0 PUSH1 0x1F NOT PUSH1 0x1F DUP4 ADD AND SWAP1 POP SWAP2 SWAP1 POP JUMP JUMPDEST PUSH0 PUSH2 0x52D DUP3 PUSH2 0x4EB JUMP JUMPDEST PUSH2 0x537 DUP2 DUP6 PUSH2 0x4F5 JUMP JUMPDEST SWAP4 POP PUSH2 0x547 DUP2 DUP6 PUSH1 0x20 DUP7 ADD PUSH2 0x505 JUMP JUMPDEST PUSH2 0x550 DUP2 PUSH2 0x513 JUMP JUMPDEST DUP5 ADD SWAP2 POP POP SWAP3 SWAP2 POP POP JUMP JUMPDEST PUSH0 PUSH1 0x20 DUP3 ADD SWAP1 POP DUP2 DUP2 SUB PUSH0 DUP4 ADD MSTORE PUSH2 0x573 DUP2 DUP5 PUSH2 0x523 JUMP JUMPDEST SWAP1 POP SWAP3 SWAP2 POP POP JUMP JUMPDEST PUSH0 DUP1 REVERT JUMPDEST PUSH0 DUP1 REVERT JUMPDEST PUSH0 DUP2 SWAP1 POP SWAP2 SWAP1 POP JUMP JUMPDEST PUSH2 0x595 DUP2 PUSH2 0x583 JUMP JUMPDEST DUP2 EQ PUSH2 0x59F JUMPI PUSH0 DUP1 REVERT JUMPDEST POP JUMP JUMPDEST PUSH0 DUP2 CALLDATALOAD SWAP1 POP PUSH2 0x5B0 DUP2 PUSH2 0x58C JUMP JUMPDEST SWAP3 SWAP2 POP POP JUMP JUMPDEST PUSH0 DUP1 REVERT JUMPDEST PUSH0 DUP1 REVERT JUMPDEST PUSH0 DUP1 REVERT JUMPDEST PUSH0 DUP1 DUP4 PUSH1 0x1F DUP5 ADD SLT PUSH2 0x5D7 JUMPI PUSH2 0x5D6 PUSH2 0x5B6 JUMP JUMPDEST JUMPDEST DUP3 CALLDATALOAD SWAP1 POP PUSH8 0xFFFFFFFFFFFFFFFF DUP2 GT ISZERO PUSH2 0x5F4 JUMPI PUSH2 0x5F3 PUSH2 0x5BA JUMP JUMPDEST JUMPDEST PUSH1 0x20 DUP4 ADD SWAP2 POP DUP4 PUSH1 0x1 DUP3 MUL DUP4 ADD GT ISZERO PUSH2 0x610 JUMPI PUSH2 0x60F PUSH2 0x5BE JUMP JUMPDEST JUMPDEST SWAP3 POP SWAP3 SWAP1 POP JUMP JUMPDEST PUSH0 DUP1 DUP4 PUSH1 0x1F DUP5 ADD SLT PUSH2 0x62C JUMPI PUSH2 0x62B PUSH2 0x5B6 JUMP JUMPDEST JUMPDEST DUP3 CALLDATALOAD SWAP1 POP PUSH8 0xFFFFFFFFFFFFFFFF DUP2 GT ISZERO PUSH2 0x649 JUMPI PUSH2 0x648 PUSH2 0x5BA JUMP JUMPDEST JUMPDEST PUSH1 0x20 DUP4 ADD SWAP2 POP DUP4 PUSH1 0x1 DUP3 MUL DUP4 ADD GT ISZERO PUSH2 0x665 JUMPI PUSH2 0x664 PUSH2 0x5BE JUMP JUMPDEST JUMPDEST SWAP3 POP SWAP3 SWAP1 POP JUMP JUMPDEST PUSH0 DUP1 PUSH0 DUP1 PUSH0 DUP1 PUSH0 PUSH1 0x80 DUP9 DUP11 SUB SLT ISZERO PUSH2 0x687 JUMPI PUSH2 0x686 PUSH2 0x57B JUMP JUMPDEST JUMPDEST PUSH0 PUSH2 0x694 DUP11 DUP3 DUP12 ADD PUSH2 0x5A2 JUMP JUMPDEST SWAP8 POP POP PUSH1 0x20 DUP9 ADD CALLDATALOAD PUSH8 0xFFFFFFFFFFFFFFFF DUP2 GT ISZERO PUSH2 0x6B5 JUMPI PUSH2 0x6B4 PUSH2 0x57F JUMP JUMPDEST JUMPDEST PUSH2 0x6C1 DUP11 DUP3 DUP12 ADD PUSH2 0x5C2 JUMP JUMPDEST SWAP7 POP SWAP7 POP POP PUSH1 0x40 DUP9 ADD CALLDATALOAD PUSH8 0xFFFFFFFFFFFFFFFF DUP2 GT ISZERO PUSH2 0x6E4 JUMPI PUSH2 0x6E3 PUSH2 0x57F JUMP JUMPDEST JUMPDEST PUSH2 0x6F0 DUP11 DUP3 DUP12 ADD PUSH2 0x5C2 JUMP JUMPDEST SWAP5 POP SWAP5 POP POP PUSH1 0x60 DUP9 ADD CALLDATALOAD PUSH8 0xFFFFFFFFFFFFFFFF DUP2 GT ISZERO PUSH2 0x713 JUMPI PUSH2 0x712 PUSH2 0x57F JUMP JUMPDEST JUMPDEST PUSH2 0x71F DUP11 DUP3 DUP12 ADD PUSH2 0x617 JUMP JUMPDEST SWAP3 POP SWAP3 POP POP SWAP3 SWAP6 SWAP9 SWAP2 SWAP5 SWAP8 POP SWAP3 SWAP6 POP JUMP JUMPDEST PUSH0 PUSH2 0x73A DUP3 PUSH2 0x458 JUMP JUMPDEST SWAP1 POP SWAP2 SWAP1 POP JUMP JUMPDEST PUSH2 0x74A DUP2 PUSH2 0x730 JUMP JUMPDEST DUP3 MSTORE POP POP JUMP JUMPDEST PUSH0 PUSH1 0x20 DUP3 ADD SWAP1 POP PUSH2 0x763 PUSH0 DUP4 ADD DUP5 PUSH2 0x741 JUMP JUMPDEST SWAP3 SWAP2 POP POP JUMP JUMPDEST PUSH0 DUP2 SWAP1 POP SWAP2 SWAP1 POP JUMP JUMPDEST PUSH2 0x77B DUP2 PUSH2 0x769 JUMP JUMPDEST DUP3 MSTORE POP POP JUMP JUMPDEST PUSH0 PUSH1 0x20 DUP3 ADD SWAP1 POP PUSH2 0x794 PUSH0 DUP4 ADD DUP5 PUSH2 0x772 JUMP JUMPDEST SWAP3 SWAP2 POP POP JUMP JUMPDEST PUSH32 0x4E487B7100000000000000000000000000000000000000000000000000000000 PUSH0 MSTORE PUSH1 0x22 PUSH1 0x4 MSTORE PUSH1 0x24 PUSH0 REVERT JUMPDEST PUSH0 PUSH1 0x2 DUP3 DIV SWAP1 POP PUSH1 0x1 DUP3 AND DUP1 PUSH2 0x7DE JUMPI PUSH1 0x7F DUP3 AND SWAP2 POP JUMPDEST PUSH1 0x20 DUP3 LT DUP2 SUB PUSH2 0x7F1 JUMPI PUSH2 0x7F0 PUSH2 0x79A JUMP JUMPDEST JUMPDEST POP SWAP2 SWAP1 POP JUMP JUMPDEST PUSH0 DUP2 SWAP1 POP SWAP3 SWAP2 POP POP JUMP JUMPDEST DUP3 DUP2 DUP4 CALLDATACOPY PUSH0 DUP4 DUP4 ADD MSTORE POP POP POP JUMP JUMPDEST PUSH0 PUSH2 0x81A DUP4 DUP6 PUSH2 0x7F7 JUMP JUMPDEST SWAP4 POP PUSH2 0x827 DUP4 DUP6 DUP5 PUSH2 0x801 JUMP JUMPDEST DUP3 DUP5 ADD SWAP1 POP SWAP4 SWAP3 POP POP POP JUMP JUMPDEST PUSH0 PUSH2 0x83F DUP3 DUP5 DUP7 PUSH2 0x80F JUMP JUMPDEST SWAP2 POP DUP2 SWAP1 POP SWAP4 SWAP3 POP POP POP JUMP JUMPDEST PUSH2 0x854 DUP2 PUSH2 0x583 JUMP JUMPDEST DUP3 MSTORE POP POP JUMP JUMPDEST PUSH0 PUSH2 0x865 DUP4 DUP6 PUSH2 0x4F5 JUMP JUMPDEST SWAP4 POP PUSH2 0x872 DUP4 DUP6 DUP5 PUSH2 0x801 JUMP JUMPDEST PUSH2 0x87B DUP4 PUSH2 0x513 JUMP JUMPDEST DUP5 ADD SWAP1 POP SWAP4 SWAP3 POP POP POP JUMP JUMPDEST PUSH0 PUSH1 0x80 DUP3 ADD SWAP1 POP PUSH2 0x899 PUSH0 DUP4 ADD DUP10 PUSH2 0x84B JUMP JUMPDEST DUP2 DUP2 SUB PUSH1 0x20 DUP4 ADD MSTORE PUSH2 0x8AC DUP2 DUP8 DUP10 PUSH2 0x85A JUMP JUMPDEST SWAP1 POP DUP2 DUP2 SUB PUSH1 0x40 DUP4 ADD MSTORE PUSH2 0x8C1 DUP2 DUP6 DUP8 PUSH2 0x85A JUMP JUMPDEST SWAP1 POP PUSH2 0x8D0 PUSH1 0x60 DUP4 ADD DUP5 PUSH2 0x84B JUMP JUMPDEST SWAP8 SWAP7 POP POP POP POP POP POP POP JUMP JUMPDEST PUSH0 DUP2 ISZERO ISZERO SWAP1 POP SWAP2 SWAP1 POP JUMP JUMPDEST PUSH2 0x8EF DUP2 PUSH2 0x8DB JUMP JUMPDEST DUP2 EQ PUSH2 0x8F9 JUMPI PUSH0 DUP1 REVERT JUMPDEST POP JUMP JUMPDEST PUSH0 DUP2 MLOAD SWAP1 POP PUSH2 0x90A DUP2 PUSH2 0x8E6 JUMP JUMPDEST SWAP3 SWAP2 POP POP JUMP JUMPDEST PUSH0 PUSH1 0x20 DUP3 DUP5 SUB SLT ISZERO PUSH2 0x925 JUMPI PUSH2 0x924 PUSH2 0x57B JUMP JUMPDEST JUMPDEST PUSH0 PUSH2 0x932 DUP5 DUP3 DUP6 ADD PUSH2 0x8FC JUMP JUMPDEST SWAP2 POP POP SWAP3 SWAP2 POP POP JUMP JUMPDEST PUSH0 PUSH2 0x945 DUP3 PUSH2 0x458 JUMP JUMPDEST SWAP1 POP SWAP2 SWAP1 POP JUMP JUMPDEST PUSH2 0x955 DUP2 PUSH2 0x93B JUMP JUMPDEST DUP2 EQ PUSH2 0x95F JUMPI PUSH0 DUP1 REVERT JUMPDEST POP JUMP JUMPDEST PUSH0 DUP2 CALLDATALOAD SWAP1 POP PUSH2 0x970 DUP2 PUSH2 0x94C JUMP JUMPDEST SWAP3 SWAP2 POP POP JUMP JUMPDEST PUSH2 0x97F DUP2 PUSH2 0x769 JUMP JUMPDEST DUP2 EQ PUSH2 0x989 JUMPI PUSH0 DUP1 REVERT JUMPDEST POP JUMP JUMPDEST PUSH0 DUP2 CALLDATALOAD SWAP1 POP PUSH2 0x99A DUP2 PUSH2 0x976 JUMP JUMPDEST SWAP3 SWAP2 POP POP JUMP JUMPDEST PUSH0 DUP1 PUSH1 0x40 DUP4 DUP6 SUB SLT ISZERO PUSH2 0x9B6 JUMPI PUSH2 0x9B5 PUSH2 0x57B JUMP JUMPDEST JUMPDEST PUSH0 PUSH2 0x9C3 DUP6 DUP3 DUP7 ADD PUSH2 0x962 JUMP JUMPDEST SWAP3 POP POP PUSH1 0x20 PUSH2 0x9D4 DUP6 DUP3 DUP7 ADD PUSH2 0x98C JUMP JUMPDEST SWAP2 POP POP SWAP3 POP SWAP3 SWAP1 POP JUMP JUMPDEST PUSH0 DUP3 SWAP1 POP SWAP3 SWAP2 POP POP JUMP JUMPDEST PUSH32 0x4E487B7100000000000000000000000000000000000000000000000000000000 PUSH0 MSTORE PUSH1 0x41 PUSH1 0x4 MSTORE PUSH1 0x24 PUSH0 REVERT JUMPDEST PUSH0 DUP2 SWAP1 POP DUP2 PUSH0 MSTORE PUSH1 0x20 PUSH0 KECCAK256 SWAP1 POP SWAP2 SWAP1 POP JUMP JUMPDEST PUSH0 PUSH1 0x20 PUSH1 0x1F DUP4 ADD DIV SWAP1 POP SWAP2 SWAP1 POP JUMP JUMPDEST PUSH0 DUP3 DUP3 SHL SWAP1 POP SWAP3 SWAP2 POP POP JUMP JUMPDEST PUSH0 PUSH1 0x8 DUP4 MUL PUSH2 0xA71 PUSH32 0xFFFFFFFFFFFFFFFFFFFFFFFFFFFFFFFFFFFFFFFFFFFFFFFFFFFFFFFFFFFFFFFF DUP3 PUSH2 0xA36 JUMP JUMPDEST PUSH2 0xA7B DUP7 DUP4 PUSH2 0xA36 JUMP JUMPDEST SWAP6 POP DUP1 NOT DUP5 AND SWAP4 POP DUP1 DUP7 AND DUP5 OR SWAP3 POP POP POP SWAP4 SWAP3 POP POP POP JUMP JUMPDEST PUSH0 PUSH2 0xAAD PUSH2 0xAA8 PUSH2 0xAA3 DUP5 PUSH2 0x769 JUMP JUMPDEST PUSH2 0x477 JUMP JUMPDEST PUSH2 0x769 JUMP JUMPDEST SWAP1 POP SWAP2 SWAP1 POP JUMP JUMPDEST PUSH0 DUP2 SWAP1 POP SWAP2 SWAP1 POP JUMP JUMPDEST PUSH2 0xAC6 DUP4 PUSH2 0xA93 JUMP JUMPDEST PUSH2 0xADA PUSH2 0xAD2 DUP3 PUSH2 0xAB4 JUMP JUMPDEST DUP5 DUP5 SLOAD PUSH2 0xA42 JUMP JUMPDEST DUP3 SSTORE POP POP POP POP JUMP JUMPDEST PUSH0 SWAP1 JUMP JUMPDEST PUSH2 0xAEE PUSH2 0xAE2 JUMP JUMPDEST PUSH2 0xAF9 DUP2 DUP5 DUP5 PUSH2 0xABD JUMP JUMPDEST POP POP POP JUMP JUMPDEST JUMPDEST DUP2 DUP2 LT ISZERO PUSH2 0xB1C JUMPI PUSH2 0xB11 PUSH0 DUP3 PUSH2 0xAE6 JUMP JUMPDEST PUSH1 0x1 DUP2 ADD SWAP1 POP PUSH2 0xAFF JUMP JUMPDEST POP POP JUMP JUMPDEST PUSH1 0x1F DUP3 GT ISZERO PUSH2 0xB61 JUMPI PUSH2 0xB32 DUP2 PUSH2 0xA15 JUMP JUMPDEST PUSH2 0xB3B DUP5 PUSH2 0xA27 JUMP JUMPDEST DUP2 ADD PUSH1 0x20 DUP6 LT ISZERO PUSH2 0xB4A JUMPI DUP2 SWAP1 POP JUMPDEST PUSH2 0xB5E PUSH2 0xB56 DUP6 PUSH2 0xA27 JUMP JUMPDEST DUP4 ADD DUP3 PUSH2 0xAFE JUMP JUMPDEST POP POP JUMPDEST POP POP POP JUMP JUMPDEST PUSH0 DUP3 DUP3 SHR SWAP1 POP SWAP3 SWAP2 POP POP JUMP JUMPDEST PUSH0 PUSH2 0xB81 PUSH0 NOT DUP5 PUSH1 0x8 MUL PUSH2 0xB66 JUMP JUMPDEST NOT DUP1 DUP4 AND SWAP2 POP POP SWAP3 SWAP2 POP POP JUMP JUMPDEST PUSH0 PUSH2 0xB99 DUP4 DUP4 PUSH2 0xB72 JUMP JUMPDEST SWAP2 POP DUP3 PUSH1 0x2 MUL DUP3 OR SWAP1 POP SWAP3 SWAP2 POP POP JUMP JUMPDEST PUSH2 0xBB3 DUP4 DUP4 PUSH2 0x9DE JUMP JUMPDEST PUSH8 0xFFFFFFFFFFFFFFFF DUP2 GT ISZERO PUSH2 0xBCC JUMPI PUSH2 0xBCB PUSH2 0x9E8 JUMP JUMPDEST JUMPDEST PUSH2 0xBD6 DUP3 SLOAD PUSH2 0x7C7 JUMP JUMPDEST PUSH2 0xBE1 DUP3 DUP3 DUP6 PUSH2 0xB20 JUMP JUMPDEST PUSH0 PUSH1 0x1F DUP4 GT PUSH1 0x1 DUP2 EQ PUSH2 0xC0E JUMPI PUSH0 DUP5 ISZERO PUSH2 0xBFC JUMPI DUP3 DUP8 ADD CALLDATALOAD SWAP1 POP JUMPDEST PUSH2 0xC06 DUP6 DUP3 PUSH2 0xB8E JUMP JUMPDEST DUP7 SSTORE POP PUSH2 0xC6D JUMP JUMPDEST PUSH1 0x1F NOT DUP5 AND PUSH2 0xC1C DUP7 PUSH2 0xA15 JUMP JUMPDEST PUSH0 JUMPDEST DUP3 DUP2 LT ISZERO PUSH2 0xC43 JUMPI DUP5 DUP10 ADD CALLDATALOAD DUP3 SSTORE PUSH1 0x1 DUP3 ADD SWAP2 POP PUSH1 0x20 DUP6 ADD SWAP5 POP PUSH1 0x20 DUP2 ADD SWAP1 POP PUSH2 0xC1E JUMP JUMPDEST DUP7 DUP4 LT ISZERO PUSH2 0xC60 JUMPI DUP5 DUP10 ADD CALLDATALOAD PUSH2 0xC5C PUSH1 0x1F DUP10 AND DUP3 PUSH2 0xB72 JUMP JUMPDEST DUP4 SSTORE POP JUMPDEST PUSH1 0x1 PUSH1 0x2 DUP9 MUL ADD DUP9 SSTORE POP POP POP JUMPDEST POP POP POP POP POP POP POP JUMP JUMPDEST PUSH0 DUP2 SLOAD PUSH2 0xC82 DUP2 PUSH2 0x7C7 JUMP JUMPDEST PUSH2 0xC8C DUP2 DUP7 PUSH2 0x4F5 JUMP JUMPDEST SWAP5 POP PUSH1 0x1 DUP3 AND PUSH0 DUP2 EQ PUSH2 0xCA6 JUMPI PUSH1 0x1 DUP2 EQ PUSH2 0xCBC JUMPI PUSH2 0xCEE JUMP JUMPDEST PUSH1 0xFF NOT DUP4 AND DUP7 MSTORE DUP2 ISZERO ISZERO PUSH1 0x20 MUL DUP7 ADD SWAP4 POP PUSH2 0xCEE JUMP JUMPDEST PUSH2 0xCC5 DUP6 PUSH2 0xA15 JUMP JUMPDEST PUSH0 JUMPDEST DUP4 DUP2 LT ISZERO PUSH2 0xCE6 JUMPI DUP2 SLOAD DUP2 DUP10 ADD MSTORE PUSH1 0x1 DUP3 ADD SWAP2 POP PUSH1 0x20 DUP2 ADD SWAP1 POP PUSH2 0xCC7 JUMP JUMPDEST DUP1 DUP9 ADD SWAP6 POP POP POP JUMPDEST POP POP POP SWAP3 SWAP2 POP POP JUMP JUMPDEST PUSH0 PUSH1 0x80 DUP3 ADD SWAP1 POP PUSH2 0xD0A PUSH0 DUP4 ADD DUP8 PUSH2 0x84B JUMP JUMPDEST DUP2 DUP2 SUB PUSH1 0x20 DUP4 ADD MSTORE PUSH2 0xD1C DUP2 DUP7 PUSH2 0xC76 JUMP JUMPDEST SWAP1 POP PUSH2 0xD2B PUSH1 0x40 DUP4 ADD DUP6 PUSH2 0x741 JUMP JUMPDEST PUSH2 0xD38 PUSH1 0x60 DUP4 ADD DUP5 PUSH2 0x772 JUMP JUMPDEST SWAP6 SWAP5 POP POP POP POP POP JUMP INVALID LOG2 PUSH5 0x6970667358 0x22 SLT KECCAK256 0x4B CODESIZE SWAP12 REVERT SWAP14 SWAP9 0xCA 0xA6 COINBASE CREATE2 DELEGATECALL SIGNEXTEND BLOCKHASH 0xCF ADDRESS TLOAD 0xA8 SWAP13 ADD 0xB2 0xD3 PUSH5 0xC9D46A5A7B 0x4E PUSH5 0x6B05816473 PUSH16 0x6C634300081A00330000000000000000 "
		},
		"gasEstimates": {
			"creation": {
				"codeDepositCost": "689400",
				"executionCost": "infinite",
				"totalCost": "infinite"
			},
			"external": {
				"amount()": "2491",
				"clientFilecoinAddress()": "2549",
				"execute(bytes32,string,string,bytes)": "infinite",
				"gateway()": "infinite",
				"sourceAddress()": "infinite",
				"sourceChain()": "infinite"
			},
			"internal": {
				"_execute(bytes32,string calldata,string calldata,bytes calldata)": "infinite"
			}
		},
		"methodIdentifiers": {
			"amount()": "aa8c217c",
			"clientFilecoinAddress()": "5411a061",
			"execute(bytes32,string,string,bytes)": "49160658",
			"gateway()": "116191b6",
			"sourceAddress()": "b0fa8444",
			"sourceChain()": "1c6ffa46"
		}
	},
	"abi": [
		{
			"inputs": [
				{
					"internalType": "address",
					"name": "axelarGateway",
					"type": "address"
				}
			],
			"stateMutability": "nonpayable",
			"type": "constructor"
		},
		{
			"inputs": [],
			"name": "InvalidAddress",
			"type": "error"
		},
		{
			"inputs": [],
			"name": "NotApprovedByGateway",
			"type": "error"
		},
		{
			"anonymous": false,
			"inputs": [
				{
					"indexed": false,
					"internalType": "bytes32",
					"name": "commandId",
					"type": "bytes32"
				},
				{
					"indexed": false,
					"internalType": "string",
					"name": "_from",
					"type": "string"
				},
				{
					"indexed": false,
					"internalType": "address",
					"name": "_clientFilecoinAddress",
					"type": "address"
				},
				{
					"indexed": false,
					"internalType": "uint256",
					"name": "_amount",
					"type": "uint256"
				}
			],
			"name": "Executed",
			"type": "event"
		},
		{
			"inputs": [],
			"name": "amount",
			"outputs": [
				{
					"internalType": "uint256",
					"name": "",
					"type": "uint256"
				}
			],
			"stateMutability": "view",
			"type": "function"
		},
		{
			"inputs": [],
			"name": "clientFilecoinAddress",
			"outputs": [
				{
					"internalType": "address",
					"name": "",
					"type": "address"
				}
			],
			"stateMutability": "view",
			"type": "function"
		},
		{
			"inputs": [
				{
					"internalType": "bytes32",
					"name": "commandId",
					"type": "bytes32"
				},
				{
					"internalType": "string",
					"name": "sourceChain",
					"type": "string"
				},
				{
					"internalType": "string",
					"name": "sourceAddress",
					"type": "string"
				},
				{
					"internalType": "bytes",
					"name": "payload",
					"type": "bytes"
				}
			],
			"name": "execute",
			"outputs": [],
			"stateMutability": "nonpayable",
			"type": "function"
		},
		{
			"inputs": [],
			"name": "gateway",
			"outputs": [
				{
					"internalType": "contract IAxelarGateway",
					"name": "",
					"type": "address"
				}
			],
			"stateMutability": "view",
			"type": "function"
		},
		{
			"inputs": [],
			"name": "sourceAddress",
			"outputs": [
				{
					"internalType": "string",
					"name": "",
					"type": "string"
				}
			],
			"stateMutability": "view",
			"type": "function"
		},
		{
			"inputs": [],
			"name": "sourceChain",
			"outputs": [
				{
					"internalType": "string",
					"name": "",
					"type": "string"
				}
			],
			"stateMutability": "view",
			"type": "function"
		}
	]
}