{
	"data": {
		"bytecode": {
			"linkReferences": {},
			"object": "608060405234801561000f575f80fd5b50604051611eab380380611eab83398181016040528101906100319190610218565b815f73ffffffffffffffffffffffffffffffffffffffff168173ffffffffffffffffffffffffffffffffffffffff16036100a2575f6040517f1e4fbdf70000000000000000000000000000000000000000000000000000000081526004016100999190610265565b60405180910390fd5b6100b1816100f960201b60201c565b508060045f6101000a81548173ffffffffffffffffffffffffffffffffffffffff021916908373ffffffffffffffffffffffffffffffffffffffff160217905550505061027e565b5f805f9054906101000a900473ffffffffffffffffffffffffffffffffffffffff169050815f806101000a81548173ffffffffffffffffffffffffffffffffffffffff021916908373ffffffffffffffffffffffffffffffffffffffff1602179055508173ffffffffffffffffffffffffffffffffffffffff168173ffffffffffffffffffffffffffffffffffffffff167f8be0079c531659141344cd1fd0a4f28419497f9722a3daafe3b4186f6b6457e060405160405180910390a35050565b5f80fd5b5f73ffffffffffffffffffffffffffffffffffffffff82169050919050565b5f6101e7826101be565b9050919050565b6101f7816101dd565b8114610201575f80fd5b50565b5f81519050610212816101ee565b92915050565b5f806040838503121561022e5761022d6101ba565b5b5f61023b85828601610204565b925050602061024c85828601610204565b9150509250929050565b61025f816101dd565b82525050565b5f6020820190506102785f830184610256565b92915050565b611c208061028b5f395ff3fe608060405234801561000f575f80fd5b50600436106100b2575f3560e01c80638da5cb5b1161006f5780638da5cb5b1461018a578063930fc006146101a8578063dd651194146101c4578063e0591efd146101f4578063f2fde38b14610212578063f3c40c4b1461022e576100b2565b806304951d64146100b65780632f4b0a34146100d4578063310ec4a7146101045780633e5beab9146101205780636f37980b14610150578063715018a614610180575b5f80fd5b6100be61024a565b6040516100cb9190611544565b60405180910390f35b6100ee60048036038101906100e991906115a9565b61025b565b6040516100fb91906115e3565b60405180910390f35b61011e60048036038101906101199190611659565b61026c565b005b61013a60048036038101906101359190611697565b6103c0565b60405161014791906116d1565b60405180910390f35b61016a600480360381019061016591906115a9565b6103e0565b604051610177919061175a565b60405180910390f35b6101886103fa565b005b61019261040d565b60405161019f91906115e3565b60405180910390f35b6101c260048036038101906101bd91906117db565b610434565b005b6101de60048036038101906101d99190611838565b61067a565b6040516101eb91906115e3565b60405180910390f35b6101fc6106e9565b60405161020991906115e3565b60405180910390f35b61022c60048036038101906102279190611697565b61070e565b005b61024860048036038101906102439190611659565b610792565b005b6060610256600161085e565b905090565b5f6102658261087d565b9050919050565b6102746108b0565b5f61027e836103c0565b90505f8114801561028e57505f82145b156102c5576040517f5657d5eb00000000000000000000000000000000000000000000000000000000815260040160405180910390fd5b5f811180156102d357505f82115b1561030a576040517f494d149300000000000000000000000000000000000000000000000000000000815260040160405180910390fd5b5f8114801561031857505f82115b1561033957610333838360016109379092919063ffffffff16565b50610363565b5f8111801561034757505f82145b156103625761036083600161096890919063ffffffff16565b505b5b8273ffffffffffffffffffffffffffffffffffffffff167fd30aeeeb3755c0784618bd3ff45998e5b4be082df174ed87c3a79f37e2fb56a6826103a5866103c0565b6040516103b3929190611883565b60405180910390a2505050565b5f6103d582600161099590919063ffffffff16565b905080915050919050565b60605f6103ec836109d2565b9050805f0151915050919050565b6104026108b0565b61040b5f610a1f565b565b5f805f9054906101000a900473ffffffffffffffffffffffffffffffffffffffff16905090565b5f810361046d576040517fb0da7f3400000000000000000000000000000000000000000000000000000000815260040160405180910390fd5b5f610477336103c0565b9050818110156104b3576040517f13be252b00000000000000000000000000000000000000000000000000000000815260040160405180910390fd5b5f82826104c091906118d7565b036104df576104d933600161096890919063ffffffff16565b50610502565b6105003383836104ef91906118d7565b60016109379092919063ffffffff16565b505b8383604051610512929190611946565b60405180910390203373ffffffffffffffffffffffffffffffffffffffff167f9b88bd178c90ce12441ff8588a493795e519ac037930d64fdb0d15de4fb53e378460405161056091906116d1565b60405180910390a35f6105b585858080601f0160208091040260200160405190810160405280939291908181526020018383808284375f81840152601f19601f82011690508083019250505050505050610ae0565b90505f6105c182610b42565b90505f6105cd8261087d565b90505f60045f9054906101000a900473ffffffffffffffffffffffffffffffffffffffff1690508073ffffffffffffffffffffffffffffffffffffffff1663a9059cbb83886040518363ffffffff1660e01b815260040161062f92919061195e565b6020604051808303815f875af115801561064b573d5f803e3d5ffd5b505050506040513d601f19601f8201168201806040525081019061066f91906119ba565b505050505050505050565b5f806106c884848080601f0160208091040260200160405190810160405280939291908181526020018383808284375f81840152601f19601f82011690508083019250505050505050610ae0565b90505f6106d482610b42565b90506106df8161087d565b9250505092915050565b60045f9054906101000a900473ffffffffffffffffffffffffffffffffffffffff1681565b6107166108b0565b5f73ffffffffffffffffffffffffffffffffffffffff168173ffffffffffffffffffffffffffffffffffffffff1603610786575f6040517f1e4fbdf700000000000000000000000000000000000000000000000000000000815260040161077d91906115e3565b60405180910390fd5b61078f81610a1f565b50565b61079a6108b0565b5f81036107d3576040517fb0da7f3400000000000000000000000000000000000000000000000000000000815260040160405180910390fd5b5f6107dd836103c0565b90506108008383836107ef91906119e5565b60016109379092919063ffffffff16565b508273ffffffffffffffffffffffffffffffffffffffff167fd30aeeeb3755c0784618bd3ff45998e5b4be082df174ed87c3a79f37e2fb56a682610843866103c0565b604051610851929190611883565b60405180910390a2505050565b60605f61086c835f01610c1c565b905060608190508092505050919050565b5f805f61088984610c30565b91509150811561089d5780925050506108ab565b6108a684610cb5565b925050505b919050565b6108b8610cd4565b73ffffffffffffffffffffffffffffffffffffffff166108d661040d565b73ffffffffffffffffffffffffffffffffffffffff1614610935576108f9610cd4565b6040517f118cdaa700000000000000000000000000000000000000000000000000000000815260040161092c91906115e3565b60405180910390fd5b565b5f61095f845f018473ffffffffffffffffffffffffffffffffffffffff165f1b845f1b610cdb565b90509392505050565b5f61098d835f018373ffffffffffffffffffffffffffffffffffffffff165f1b610d12565b905092915050565b5f805f806109bd865f018673ffffffffffffffffffffffffffffffffffffffff165f1b610d46565b9150915081815f1c9350935050509250929050565b6109da611431565b5f6109e483610d8f565b90506040518060200160405280825f0151604051602001610a059190611a7c565b604051602081830303815290604052815250915050919050565b5f805f9054906101000a900473ffffffffffffffffffffffffffffffffffffffff169050815f806101000a81548173ffffffffffffffffffffffffffffffffffffffff021916908373ffffffffffffffffffffffffffffffffffffffff1602179055508173ffffffffffffffffffffffffffffffffffffffff168173ffffffffffffffffffffffffffffffffffffffff167f8be0079c531659141344cd1fd0a4f28419497f9722a3daafe3b4186f6b6457e060405160405180910390a35050565b610ae8611431565b5f6040518060200160405280848152509050610b0381610e05565b610b39576040517fe6c4247b00000000000000000000000000000000000000000000000000000000815260040160405180910390fd5b80915050919050565b5f805f73fe0000000000000000000000000000000000000173ffffffffffffffffffffffffffffffffffffffff16845f0151604051610b819190611a9d565b5f60405180830381855afa9150503d805f8114610bb9576040519150601f19603f3d011682016040523d82523d5f602084013e610bbe565b606091505b509150915081610bfa576040517f8a7db5bf00000000000000000000000000000000000000000000000000000000815260040160405180910390fd5b5f81806020019051810190610c0f9190611ac7565b9050809350505050919050565b6060610c29825f01610fda565b9050919050565b5f80825f526016600a60205f73fe000000000000000000000000000000000000025afa91505f518073ffffffffffffffffffffffffffffffffffffffff1691508060a01c61ffff1661040a8114610c88575f93505f92505b5050811580610c9f57506016610c9c610ff9565b14155b15610caf575f8091509150610cb0565b5b915091565b5f8173ff00000000000000000000000000000000000000179050919050565b5f33905090565b5f81846002015f8581526020019081526020015f2081905550610d0983855f0161100090919063ffffffff16565b90509392505050565b5f826002015f8381526020019081526020015f205f9055610d3e82845f0161101590919063ffffffff16565b905092915050565b5f805f846002015f8581526020019081526020015f205490505f801b8103610d7f57610d72858561102a565b5f801b9250925050610d88565b60018192509250505b9250929050565b610d97611444565b5b600115610dff575f607f8316905060078367ffffffffffffffff16901c92505f8367ffffffffffffffff1603610de257610ddb818361104890919063ffffffff16565b5050610e00565b610df8608082178361104890919063ffffffff16565b5050610d98565b5b919050565b5f8060f81b825f01515f81518110610e2057610e1f611af2565b5b602001015160f81c60f81b7effffffffffffffffffffffffffffffffffffffffffffffffffffffffffffff191603610e6257600a825f01515111159050610fd5565b600160f81b825f01515f81518110610e7d57610e7c611af2565b5b602001015160f81c60f81b7effffffffffffffffffffffffffffffffffffffffffffffffffffffffffffff19161480610efb5750600260f81b825f01515f81518110610ecc57610ecb611af2565b5b602001015160f81c60f81b7effffffffffffffffffffffffffffffffffffffffffffffffffffffffffffff1916145b15610f0f576015825f015151149050610fd5565b600360f81b825f01515f81518110610f2a57610f29611af2565b5b602001015160f81c60f81b7effffffffffffffffffffffffffffffffffffffffffffffffffffffffffffff191603610f6b576031825f015151149050610fd5565b600460f81b825f01515f81518110610f8657610f85611af2565b5b602001015160f81c60f81b7effffffffffffffffffffffffffffffffffffffffffffffffffffffffffffff191603610fc8576040825f01515111159050610fd5565b610100825f015151111590505b919050565b60605f610fe8835f016110af565b905060608190508092505050919050565b5f3d905090565b5f61100d835f0183611108565b905092915050565b5f611022835f018361116f565b905092915050565b5f61104082845f0161126b90919063ffffffff16565b905092915050565b611050611444565b5f835f01515190505f60018261106691906119e5565b90508460200151821061108a57611089856002836110849190611b1f565b611280565b5b845160208382010185815381518311156110a2578282525b5050849250505092915050565b6060815f018054806020026020016040519081016040528092919081815260200182805480156110fc57602002820191905f5260205f20905b8154815260200190600101908083116110e8575b50505050509050919050565b5f61111383836112a2565b61116557825f0182908060018154018082558091505060019003905f5260205f20015f9091909190915055825f0180549050836001015f8481526020019081526020015f208190555060019050611169565b5f90505b92915050565b5f80836001015f8481526020019081526020015f205490505f8114611260575f60018261119c91906118d7565b90505f6001865f01805490506111b291906118d7565b9050808214611218575f865f0182815481106111d1576111d0611af2565b5b905f5260205f200154905080875f0184815481106111f2576111f1611af2565b5b905f5260205f20018190555083876001015f8381526020019081526020015f2081905550505b855f0180548061122b5761122a611b60565b5b600190038181905f5260205f20015f90559055856001015f8681526020019081526020015f205f905560019350505050611265565b5f9150505b92915050565b5f611278835f01836112a2565b905092915050565b5f825f0151905061129183836112c2565b5061129c8382611338565b50505050565b5f80836001015f8481526020019081526020015f20541415905092915050565b6112ca611444565b5f6020836112d89190611bba565b14611304576020826112ea9190611bba565b60206112f691906118d7565b8261130191906119e5565b91505b818360200181815250506040518084525f815282810160200181811015611329575f80fd5b80604052505082905092915050565b611340611444565b61134c83838451611354565b905092915050565b61135c611444565b8251821115611369575f80fd5b5f845f01515190505f838261137e91906119e5565b905085602001518111156113a3576113a28660028361139d9190611b1f565b611280565b5b5f80875180518560208301019350808511156113bd578482525b60208901925050505b6020861061140457805182526020826113df91906119e5565b91506020816113ee91906119e5565b90506020866113fd91906118d7565b95506113c6565b5f6001876020036101000a0390508019825116818451168181178552505050879450505050509392505050565b6040518060200160405280606081525090565b6040518060400160405280606081526020015f81525090565b5f81519050919050565b5f82825260208201905092915050565b5f819050602082019050919050565b5f73ffffffffffffffffffffffffffffffffffffffff82169050919050565b5f6114af82611486565b9050919050565b6114bf816114a5565b82525050565b5f6114d083836114b6565b60208301905092915050565b5f602082019050919050565b5f6114f28261145d565b6114fc8185611467565b935061150783611477565b805f5b8381101561153757815161151e88826114c5565b9750611529836114dc565b92505060018101905061150a565b5085935050505092915050565b5f6020820190508181035f83015261155c81846114e8565b905092915050565b5f80fd5b5f80fd5b5f67ffffffffffffffff82169050919050565b6115888161156c565b8114611592575f80fd5b50565b5f813590506115a38161157f565b92915050565b5f602082840312156115be576115bd611564565b5b5f6115cb84828501611595565b91505092915050565b6115dd816114a5565b82525050565b5f6020820190506115f65f8301846115d4565b92915050565b611605816114a5565b811461160f575f80fd5b50565b5f81359050611620816115fc565b92915050565b5f819050919050565b61163881611626565b8114611642575f80fd5b50565b5f813590506116538161162f565b92915050565b5f806040838503121561166f5761166e611564565b5b5f61167c85828601611612565b925050602061168d85828601611645565b9150509250929050565b5f602082840312156116ac576116ab611564565b5b5f6116b984828501611612565b91505092915050565b6116cb81611626565b82525050565b5f6020820190506116e45f8301846116c2565b92915050565b5f81519050919050565b5f82825260208201905092915050565b8281835e5f83830152505050565b5f601f19601f8301169050919050565b5f61172c826116ea565b61173681856116f4565b9350611746818560208601611704565b61174f81611712565b840191505092915050565b5f6020820190508181035f8301526117728184611722565b905092915050565b5f80fd5b5f80fd5b5f80fd5b5f8083601f84011261179b5761179a61177a565b5b8235905067ffffffffffffffff8111156117b8576117b761177e565b5b6020830191508360018202830111156117d4576117d3611782565b5b9250929050565b5f805f604084860312156117f2576117f1611564565b5b5f84013567ffffffffffffffff81111561180f5761180e611568565b5b61181b86828701611786565b9350935050602061182e86828701611645565b9150509250925092565b5f806020838503121561184e5761184d611564565b5b5f83013567ffffffffffffffff81111561186b5761186a611568565b5b61187785828601611786565b92509250509250929050565b5f6040820190506118965f8301856116c2565b6118a360208301846116c2565b9392505050565b7f4e487b71000000000000000000000000000000000000000000000000000000005f52601160045260245ffd5b5f6118e182611626565b91506118ec83611626565b9250828203905081811115611904576119036118aa565b5b92915050565b5f81905092915050565b828183375f83830152505050565b5f61192d838561190a565b935061193a838584611914565b82840190509392505050565b5f611952828486611922565b91508190509392505050565b5f6040820190506119715f8301856115d4565b61197e60208301846116c2565b9392505050565b5f8115159050919050565b61199981611985565b81146119a3575f80fd5b50565b5f815190506119b481611990565b92915050565b5f602082840312156119cf576119ce611564565b5b5f6119dc848285016119a6565b91505092915050565b5f6119ef82611626565b91506119fa83611626565b9250828201905080821115611a1257611a116118aa565b5b92915050565b5f81905092915050565b5f8082015250565b5f611a36600183611a18565b9150611a4182611a22565b600182019050919050565b5f611a56826116ea565b611a60818561190a565b9350611a70818560208601611704565b80840191505092915050565b5f611a8682611a2a565b9150611a928284611a4c565b915081905092915050565b5f611aa88284611a4c565b915081905092915050565b5f81519050611ac18161162f565b92915050565b5f60208284031215611adc57611adb611564565b5b5f611ae984828501611ab3565b91505092915050565b7f4e487b71000000000000000000000000000000000000000000000000000000005f52603260045260245ffd5b5f611b2982611626565b9150611b3483611626565b9250828202611b4281611626565b91508282048414831517611b5957611b586118aa565b5b5092915050565b7f4e487b71000000000000000000000000000000000000000000000000000000005f52603160045260245ffd5b7f4e487b71000000000000000000000000000000000000000000000000000000005f52601260045260245ffd5b5f611bc482611626565b9150611bcf83611626565b925082611bdf57611bde611b8d565b5b82820690509291505056fea264697066735822122075f1be8809db2d5cdb796983f0ec230b07ffcfbf7d156673dc4b4cfbeb055dac64736f6c634300081a0033",
			"opcodes": "PUSH1 0x80 PUSH1 0x40 MSTORE CALLVALUE DUP1 ISZERO PUSH2 0xF JUMPI PUSH0 DUP1 REVERT JUMPDEST POP PUSH1 0x40 MLOAD PUSH2 0x1EAB CODESIZE SUB DUP1 PUSH2 0x1EAB DUP4 CODECOPY DUP2 DUP2 ADD PUSH1 0x40 MSTORE DUP2 ADD SWAP1 PUSH2 0x31 SWAP2 SWAP1 PUSH2 0x218 JUMP JUMPDEST DUP2 PUSH0 PUSH20 0xFFFFFFFFFFFFFFFFFFFFFFFFFFFFFFFFFFFFFFFF AND DUP2 PUSH20 0xFFFFFFFFFFFFFFFFFFFFFFFFFFFFFFFFFFFFFFFF AND SUB PUSH2 0xA2 JUMPI PUSH0 PUSH1 0x40 MLOAD PUSH32 0x1E4FBDF700000000000000000000000000000000000000000000000000000000 DUP2 MSTORE PUSH1 0x4 ADD PUSH2 0x99 SWAP2 SWAP1 PUSH2 0x265 JUMP JUMPDEST PUSH1 0x40 MLOAD DUP1 SWAP2 SUB SWAP1 REVERT JUMPDEST PUSH2 0xB1 DUP2 PUSH2 0xF9 PUSH1 0x20 SHL PUSH1 0x20 SHR JUMP JUMPDEST POP DUP1 PUSH1 0x4 PUSH0 PUSH2 0x100 EXP DUP2 SLOAD DUP2 PUSH20 0xFFFFFFFFFFFFFFFFFFFFFFFFFFFFFFFFFFFFFFFF MUL NOT AND SWAP1 DUP4 PUSH20 0xFFFFFFFFFFFFFFFFFFFFFFFFFFFFFFFFFFFFFFFF AND MUL OR SWAP1 SSTORE POP POP POP PUSH2 0x27E JUMP JUMPDEST PUSH0 DUP1 PUSH0 SWAP1 SLOAD SWAP1 PUSH2 0x100 EXP SWAP1 DIV PUSH20 0xFFFFFFFFFFFFFFFFFFFFFFFFFFFFFFFFFFFFFFFF AND SWAP1 POP DUP2 PUSH0 DUP1 PUSH2 0x100 EXP DUP2 SLOAD DUP2 PUSH20 0xFFFFFFFFFFFFFFFFFFFFFFFFFFFFFFFFFFFFFFFF MUL NOT AND SWAP1 DUP4 PUSH20 0xFFFFFFFFFFFFFFFFFFFFFFFFFFFFFFFFFFFFFFFF AND MUL OR SWAP1 SSTORE POP DUP2 PUSH20 0xFFFFFFFFFFFFFFFFFFFFFFFFFFFFFFFFFFFFFFFF AND DUP2 PUSH20 0xFFFFFFFFFFFFFFFFFFFFFFFFFFFFFFFFFFFFFFFF AND PUSH32 0x8BE0079C531659141344CD1FD0A4F28419497F9722A3DAAFE3B4186F6B6457E0 PUSH1 0x40 MLOAD PUSH1 0x40 MLOAD DUP1 SWAP2 SUB SWAP1 LOG3 POP POP JUMP JUMPDEST PUSH0 DUP1 REVERT JUMPDEST PUSH0 PUSH20 0xFFFFFFFFFFFFFFFFFFFFFFFFFFFFFFFFFFFFFFFF DUP3 AND SWAP1 POP SWAP2 SWAP1 POP JUMP JUMPDEST PUSH0 PUSH2 0x1E7 DUP3 PUSH2 0x1BE JUMP JUMPDEST SWAP1 POP SWAP2 SWAP1 POP JUMP JUMPDEST PUSH2 0x1F7 DUP2 PUSH2 0x1DD JUMP JUMPDEST DUP2 EQ PUSH2 0x201 JUMPI PUSH0 DUP1 REVERT JUMPDEST POP JUMP JUMPDEST PUSH0 DUP2 MLOAD SWAP1 POP PUSH2 0x212 DUP2 PUSH2 0x1EE JUMP JUMPDEST SWAP3 SWAP2 POP POP JUMP JUMPDEST PUSH0 DUP1 PUSH1 0x40 DUP4 DUP6 SUB SLT ISZERO PUSH2 0x22E JUMPI PUSH2 0x22D PUSH2 0x1BA JUMP JUMPDEST JUMPDEST PUSH0 PUSH2 0x23B DUP6 DUP3 DUP7 ADD PUSH2 0x204 JUMP JUMPDEST SWAP3 POP POP PUSH1 0x20 PUSH2 0x24C DUP6 DUP3 DUP7 ADD PUSH2 0x204 JUMP JUMPDEST SWAP2 POP POP SWAP3 POP SWAP3 SWAP1 POP JUMP JUMPDEST PUSH2 0x25F DUP2 PUSH2 0x1DD JUMP JUMPDEST DUP3 MSTORE POP POP JUMP JUMPDEST PUSH0 PUSH1 0x20 DUP3 ADD SWAP1 POP PUSH2 0x278 PUSH0 DUP4 ADD DUP5 PUSH2 0x256 JUMP JUMPDEST SWAP3 SWAP2 POP POP JUMP JUMPDEST PUSH2 0x1C20 DUP1 PUSH2 0x28B PUSH0 CODECOPY PUSH0 RETURN INVALID PUSH1 0x80 PUSH1 0x40 MSTORE CALLVALUE DUP1 ISZERO PUSH2 0xF JUMPI PUSH0 DUP1 REVERT JUMPDEST POP PUSH1 0x4 CALLDATASIZE LT PUSH2 0xB2 JUMPI PUSH0 CALLDATALOAD PUSH1 0xE0 SHR DUP1 PUSH4 0x8DA5CB5B GT PUSH2 0x6F JUMPI DUP1 PUSH4 0x8DA5CB5B EQ PUSH2 0x18A JUMPI DUP1 PUSH4 0x930FC006 EQ PUSH2 0x1A8 JUMPI DUP1 PUSH4 0xDD651194 EQ PUSH2 0x1C4 JUMPI DUP1 PUSH4 0xE0591EFD EQ PUSH2 0x1F4 JUMPI DUP1 PUSH4 0xF2FDE38B EQ PUSH2 0x212 JUMPI DUP1 PUSH4 0xF3C40C4B EQ PUSH2 0x22E JUMPI PUSH2 0xB2 JUMP JUMPDEST DUP1 PUSH4 0x4951D64 EQ PUSH2 0xB6 JUMPI DUP1 PUSH4 0x2F4B0A34 EQ PUSH2 0xD4 JUMPI DUP1 PUSH4 0x310EC4A7 EQ PUSH2 0x104 JUMPI DUP1 PUSH4 0x3E5BEAB9 EQ PUSH2 0x120 JUMPI DUP1 PUSH4 0x6F37980B EQ PUSH2 0x150 JUMPI DUP1 PUSH4 0x715018A6 EQ PUSH2 0x180 JUMPI JUMPDEST PUSH0 DUP1 REVERT JUMPDEST PUSH2 0xBE PUSH2 0x24A JUMP JUMPDEST PUSH1 0x40 MLOAD PUSH2 0xCB SWAP2 SWAP1 PUSH2 0x1544 JUMP JUMPDEST PUSH1 0x40 MLOAD DUP1 SWAP2 SUB SWAP1 RETURN JUMPDEST PUSH2 0xEE PUSH1 0x4 DUP1 CALLDATASIZE SUB DUP2 ADD SWAP1 PUSH2 0xE9 SWAP2 SWAP1 PUSH2 0x15A9 JUMP JUMPDEST PUSH2 0x25B JUMP JUMPDEST PUSH1 0x40 MLOAD PUSH2 0xFB SWAP2 SWAP1 PUSH2 0x15E3 JUMP JUMPDEST PUSH1 0x40 MLOAD DUP1 SWAP2 SUB SWAP1 RETURN JUMPDEST PUSH2 0x11E PUSH1 0x4 DUP1 CALLDATASIZE SUB DUP2 ADD SWAP1 PUSH2 0x119 SWAP2 SWAP1 PUSH2 0x1659 JUMP JUMPDEST PUSH2 0x26C JUMP JUMPDEST STOP JUMPDEST PUSH2 0x13A PUSH1 0x4 DUP1 CALLDATASIZE SUB DUP2 ADD SWAP1 PUSH2 0x135 SWAP2 SWAP1 PUSH2 0x1697 JUMP JUMPDEST PUSH2 0x3C0 JUMP JUMPDEST PUSH1 0x40 MLOAD PUSH2 0x147 SWAP2 SWAP1 PUSH2 0x16D1 JUMP JUMPDEST PUSH1 0x40 MLOAD DUP1 SWAP2 SUB SWAP1 RETURN JUMPDEST PUSH2 0x16A PUSH1 0x4 DUP1 CALLDATASIZE SUB DUP2 ADD SWAP1 PUSH2 0x165 SWAP2 SWAP1 PUSH2 0x15A9 JUMP JUMPDEST PUSH2 0x3E0 JUMP JUMPDEST PUSH1 0x40 MLOAD PUSH2 0x177 SWAP2 SWAP1 PUSH2 0x175A JUMP JUMPDEST PUSH1 0x40 MLOAD DUP1 SWAP2 SUB SWAP1 RETURN JUMPDEST PUSH2 0x188 PUSH2 0x3FA JUMP JUMPDEST STOP JUMPDEST PUSH2 0x192 PUSH2 0x40D JUMP JUMPDEST PUSH1 0x40 MLOAD PUSH2 0x19F SWAP2 SWAP1 PUSH2 0x15E3 JUMP JUMPDEST PUSH1 0x40 MLOAD DUP1 SWAP2 SUB SWAP1 RETURN JUMPDEST PUSH2 0x1C2 PUSH1 0x4 DUP1 CALLDATASIZE SUB DUP2 ADD SWAP1 PUSH2 0x1BD SWAP2 SWAP1 PUSH2 0x17DB JUMP JUMPDEST PUSH2 0x434 JUMP JUMPDEST STOP JUMPDEST PUSH2 0x1DE PUSH1 0x4 DUP1 CALLDATASIZE SUB DUP2 ADD SWAP1 PUSH2 0x1D9 SWAP2 SWAP1 PUSH2 0x1838 JUMP JUMPDEST PUSH2 0x67A JUMP JUMPDEST PUSH1 0x40 MLOAD PUSH2 0x1EB SWAP2 SWAP1 PUSH2 0x15E3 JUMP JUMPDEST PUSH1 0x40 MLOAD DUP1 SWAP2 SUB SWAP1 RETURN JUMPDEST PUSH2 0x1FC PUSH2 0x6E9 JUMP JUMPDEST PUSH1 0x40 MLOAD PUSH2 0x209 SWAP2 SWAP1 PUSH2 0x15E3 JUMP JUMPDEST PUSH1 0x40 MLOAD DUP1 SWAP2 SUB SWAP1 RETURN JUMPDEST PUSH2 0x22C PUSH1 0x4 DUP1 CALLDATASIZE SUB DUP2 ADD SWAP1 PUSH2 0x227 SWAP2 SWAP1 PUSH2 0x1697 JUMP JUMPDEST PUSH2 0x70E JUMP JUMPDEST STOP JUMPDEST PUSH2 0x248 PUSH1 0x4 DUP1 CALLDATASIZE SUB DUP2 ADD SWAP1 PUSH2 0x243 SWAP2 SWAP1 PUSH2 0x1659 JUMP JUMPDEST PUSH2 0x792 JUMP JUMPDEST STOP JUMPDEST PUSH1 0x60 PUSH2 0x256 PUSH1 0x1 PUSH2 0x85E JUMP JUMPDEST SWAP1 POP SWAP1 JUMP JUMPDEST PUSH0 PUSH2 0x265 DUP3 PUSH2 0x87D JUMP JUMPDEST SWAP1 POP SWAP2 SWAP1 POP JUMP JUMPDEST PUSH2 0x274 PUSH2 0x8B0 JUMP JUMPDEST PUSH0 PUSH2 0x27E DUP4 PUSH2 0x3C0 JUMP JUMPDEST SWAP1 POP PUSH0 DUP2 EQ DUP1 ISZERO PUSH2 0x28E JUMPI POP PUSH0 DUP3 EQ JUMPDEST ISZERO PUSH2 0x2C5 JUMPI PUSH1 0x40 MLOAD PUSH32 0x5657D5EB00000000000000000000000000000000000000000000000000000000 DUP2 MSTORE PUSH1 0x4 ADD PUSH1 0x40 MLOAD DUP1 SWAP2 SUB SWAP1 REVERT JUMPDEST PUSH0 DUP2 GT DUP1 ISZERO PUSH2 0x2D3 JUMPI POP PUSH0 DUP3 GT JUMPDEST ISZERO PUSH2 0x30A JUMPI PUSH1 0x40 MLOAD PUSH32 0x494D149300000000000000000000000000000000000000000000000000000000 DUP2 MSTORE PUSH1 0x4 ADD PUSH1 0x40 MLOAD DUP1 SWAP2 SUB SWAP1 REVERT JUMPDEST PUSH0 DUP2 EQ DUP1 ISZERO PUSH2 0x318 JUMPI POP PUSH0 DUP3 GT JUMPDEST ISZERO PUSH2 0x339 JUMPI PUSH2 0x333 DUP4 DUP4 PUSH1 0x1 PUSH2 0x937 SWAP1 SWAP3 SWAP2 SWAP1 PUSH4 0xFFFFFFFF AND JUMP JUMPDEST POP PUSH2 0x363 JUMP JUMPDEST PUSH0 DUP2 GT DUP1 ISZERO PUSH2 0x347 JUMPI POP PUSH0 DUP3 EQ JUMPDEST ISZERO PUSH2 0x362 JUMPI PUSH2 0x360 DUP4 PUSH1 0x1 PUSH2 0x968 SWAP1 SWAP2 SWAP1 PUSH4 0xFFFFFFFF AND JUMP JUMPDEST POP JUMPDEST JUMPDEST DUP3 PUSH20 0xFFFFFFFFFFFFFFFFFFFFFFFFFFFFFFFFFFFFFFFF AND PUSH32 0xD30AEEEB3755C0784618BD3FF45998E5B4BE082DF174ED87C3A79F37E2FB56A6 DUP3 PUSH2 0x3A5 DUP7 PUSH2 0x3C0 JUMP JUMPDEST PUSH1 0x40 MLOAD PUSH2 0x3B3 SWAP3 SWAP2 SWAP1 PUSH2 0x1883 JUMP JUMPDEST PUSH1 0x40 MLOAD DUP1 SWAP2 SUB SWAP1 LOG2 POP POP POP JUMP JUMPDEST PUSH0 PUSH2 0x3D5 DUP3 PUSH1 0x1 PUSH2 0x995 SWAP1 SWAP2 SWAP1 PUSH4 0xFFFFFFFF AND JUMP JUMPDEST SWAP1 POP DUP1 SWAP2 POP POP SWAP2 SWAP1 POP JUMP JUMPDEST PUSH1 0x60 PUSH0 PUSH2 0x3EC DUP4 PUSH2 0x9D2 JUMP JUMPDEST SWAP1 POP DUP1 PUSH0 ADD MLOAD SWAP2 POP POP SWAP2 SWAP1 POP JUMP JUMPDEST PUSH2 0x402 PUSH2 0x8B0 JUMP JUMPDEST PUSH2 0x40B PUSH0 PUSH2 0xA1F JUMP JUMPDEST JUMP JUMPDEST PUSH0 DUP1 PUSH0 SWAP1 SLOAD SWAP1 PUSH2 0x100 EXP SWAP1 DIV PUSH20 0xFFFFFFFFFFFFFFFFFFFFFFFFFFFFFFFFFFFFFFFF AND SWAP1 POP SWAP1 JUMP JUMPDEST PUSH0 DUP2 SUB PUSH2 0x46D JUMPI PUSH1 0x40 MLOAD PUSH32 0xB0DA7F3400000000000000000000000000000000000000000000000000000000 DUP2 MSTORE PUSH1 0x4 ADD PUSH1 0x40 MLOAD DUP1 SWAP2 SUB SWAP1 REVERT JUMPDEST PUSH0 PUSH2 0x477 CALLER PUSH2 0x3C0 JUMP JUMPDEST SWAP1 POP DUP2 DUP2 LT ISZERO PUSH2 0x4B3 JUMPI PUSH1 0x40 MLOAD PUSH32 0x13BE252B00000000000000000000000000000000000000000000000000000000 DUP2 MSTORE PUSH1 0x4 ADD PUSH1 0x40 MLOAD DUP1 SWAP2 SUB SWAP1 REVERT JUMPDEST PUSH0 DUP3 DUP3 PUSH2 0x4C0 SWAP2 SWAP1 PUSH2 0x18D7 JUMP JUMPDEST SUB PUSH2 0x4DF JUMPI PUSH2 0x4D9 CALLER PUSH1 0x1 PUSH2 0x968 SWAP1 SWAP2 SWAP1 PUSH4 0xFFFFFFFF AND JUMP JUMPDEST POP PUSH2 0x502 JUMP JUMPDEST PUSH2 0x500 CALLER DUP4 DUP4 PUSH2 0x4EF SWAP2 SWAP1 PUSH2 0x18D7 JUMP JUMPDEST PUSH1 0x1 PUSH2 0x937 SWAP1 SWAP3 SWAP2 SWAP1 PUSH4 0xFFFFFFFF AND JUMP JUMPDEST POP JUMPDEST DUP4 DUP4 PUSH1 0x40 MLOAD PUSH2 0x512 SWAP3 SWAP2 SWAP1 PUSH2 0x1946 JUMP JUMPDEST PUSH1 0x40 MLOAD DUP1 SWAP2 SUB SWAP1 KECCAK256 CALLER PUSH20 0xFFFFFFFFFFFFFFFFFFFFFFFFFFFFFFFFFFFFFFFF AND PUSH32 0x9B88BD178C90CE12441FF8588A493795E519AC037930D64FDB0D15DE4FB53E37 DUP5 PUSH1 0x40 MLOAD PUSH2 0x560 SWAP2 SWAP1 PUSH2 0x16D1 JUMP JUMPDEST PUSH1 0x40 MLOAD DUP1 SWAP2 SUB SWAP1 LOG3 PUSH0 PUSH2 0x5B5 DUP6 DUP6 DUP1 DUP1 PUSH1 0x1F ADD PUSH1 0x20 DUP1 SWAP2 DIV MUL PUSH1 0x20 ADD PUSH1 0x40 MLOAD SWAP1 DUP2 ADD PUSH1 0x40 MSTORE DUP1 SWAP4 SWAP3 SWAP2 SWAP1 DUP2 DUP2 MSTORE PUSH1 0x20 ADD DUP4 DUP4 DUP1 DUP3 DUP5 CALLDATACOPY PUSH0 DUP2 DUP5 ADD MSTORE PUSH1 0x1F NOT PUSH1 0x1F DUP3 ADD AND SWAP1 POP DUP1 DUP4 ADD SWAP3 POP POP POP POP POP POP POP PUSH2 0xAE0 JUMP JUMPDEST SWAP1 POP PUSH0 PUSH2 0x5C1 DUP3 PUSH2 0xB42 JUMP JUMPDEST SWAP1 POP PUSH0 PUSH2 0x5CD DUP3 PUSH2 0x87D JUMP JUMPDEST SWAP1 POP PUSH0 PUSH1 0x4 PUSH0 SWAP1 SLOAD SWAP1 PUSH2 0x100 EXP SWAP1 DIV PUSH20 0xFFFFFFFFFFFFFFFFFFFFFFFFFFFFFFFFFFFFFFFF AND SWAP1 POP DUP1 PUSH20 0xFFFFFFFFFFFFFFFFFFFFFFFFFFFFFFFFFFFFFFFF AND PUSH4 0xA9059CBB DUP4 DUP9 PUSH1 0x40 MLOAD DUP4 PUSH4 0xFFFFFFFF AND PUSH1 0xE0 SHL DUP2 MSTORE PUSH1 0x4 ADD PUSH2 0x62F SWAP3 SWAP2 SWAP1 PUSH2 0x195E JUMP JUMPDEST PUSH1 0x20 PUSH1 0x40 MLOAD DUP1 DUP4 SUB DUP2 PUSH0 DUP8 GAS CALL ISZERO DUP1 ISZERO PUSH2 0x64B JUMPI RETURNDATASIZE PUSH0 DUP1 RETURNDATACOPY RETURNDATASIZE PUSH0 REVERT JUMPDEST POP POP POP POP PUSH1 0x40 MLOAD RETURNDATASIZE PUSH1 0x1F NOT PUSH1 0x1F DUP3 ADD AND DUP3 ADD DUP1 PUSH1 0x40 MSTORE POP DUP2 ADD SWAP1 PUSH2 0x66F SWAP2 SWAP1 PUSH2 0x19BA JUMP JUMPDEST POP POP POP POP POP POP POP POP POP JUMP JUMPDEST PUSH0 DUP1 PUSH2 0x6C8 DUP5 DUP5 DUP1 DUP1 PUSH1 0x1F ADD PUSH1 0x20 DUP1 SWAP2 DIV MUL PUSH1 0x20 ADD PUSH1 0x40 MLOAD SWAP1 DUP2 ADD PUSH1 0x40 MSTORE DUP1 SWAP4 SWAP3 SWAP2 SWAP1 DUP2 DUP2 MSTORE PUSH1 0x20 ADD DUP4 DUP4 DUP1 DUP3 DUP5 CALLDATACOPY PUSH0 DUP2 DUP5 ADD MSTORE PUSH1 0x1F NOT PUSH1 0x1F DUP3 ADD AND SWAP1 POP DUP1 DUP4 ADD SWAP3 POP POP POP POP POP POP POP PUSH2 0xAE0 JUMP JUMPDEST SWAP1 POP PUSH0 PUSH2 0x6D4 DUP3 PUSH2 0xB42 JUMP JUMPDEST SWAP1 POP PUSH2 0x6DF DUP2 PUSH2 0x87D JUMP JUMPDEST SWAP3 POP POP POP SWAP3 SWAP2 POP POP JUMP JUMPDEST PUSH1 0x4 PUSH0 SWAP1 SLOAD SWAP1 PUSH2 0x100 EXP SWAP1 DIV PUSH20 0xFFFFFFFFFFFFFFFFFFFFFFFFFFFFFFFFFFFFFFFF AND DUP2 JUMP JUMPDEST PUSH2 0x716 PUSH2 0x8B0 JUMP JUMPDEST PUSH0 PUSH20 0xFFFFFFFFFFFFFFFFFFFFFFFFFFFFFFFFFFFFFFFF AND DUP2 PUSH20 0xFFFFFFFFFFFFFFFFFFFFFFFFFFFFFFFFFFFFFFFF AND SUB PUSH2 0x786 JUMPI PUSH0 PUSH1 0x40 MLOAD PUSH32 0x1E4FBDF700000000000000000000000000000000000000000000000000000000 DUP2 MSTORE PUSH1 0x4 ADD PUSH2 0x77D SWAP2 SWAP1 PUSH2 0x15E3 JUMP JUMPDEST PUSH1 0x40 MLOAD DUP1 SWAP2 SUB SWAP1 REVERT JUMPDEST PUSH2 0x78F DUP2 PUSH2 0xA1F JUMP JUMPDEST POP JUMP JUMPDEST PUSH2 0x79A PUSH2 0x8B0 JUMP JUMPDEST PUSH0 DUP2 SUB PUSH2 0x7D3 JUMPI PUSH1 0x40 MLOAD PUSH32 0xB0DA7F3400000000000000000000000000000000000000000000000000000000 DUP2 MSTORE PUSH1 0x4 ADD PUSH1 0x40 MLOAD DUP1 SWAP2 SUB SWAP1 REVERT JUMPDEST PUSH0 PUSH2 0x7DD DUP4 PUSH2 0x3C0 JUMP JUMPDEST SWAP1 POP PUSH2 0x800 DUP4 DUP4 DUP4 PUSH2 0x7EF SWAP2 SWAP1 PUSH2 0x19E5 JUMP JUMPDEST PUSH1 0x1 PUSH2 0x937 SWAP1 SWAP3 SWAP2 SWAP1 PUSH4 0xFFFFFFFF AND JUMP JUMPDEST POP DUP3 PUSH20 0xFFFFFFFFFFFFFFFFFFFFFFFFFFFFFFFFFFFFFFFF AND PUSH32 0xD30AEEEB3755C0784618BD3FF45998E5B4BE082DF174ED87C3A79F37E2FB56A6 DUP3 PUSH2 0x843 DUP7 PUSH2 0x3C0 JUMP JUMPDEST PUSH1 0x40 MLOAD PUSH2 0x851 SWAP3 SWAP2 SWAP1 PUSH2 0x1883 JUMP JUMPDEST PUSH1 0x40 MLOAD DUP1 SWAP2 SUB SWAP1 LOG2 POP POP POP JUMP JUMPDEST PUSH1 0x60 PUSH0 PUSH2 0x86C DUP4 PUSH0 ADD PUSH2 0xC1C JUMP JUMPDEST SWAP1 POP PUSH1 0x60 DUP2 SWAP1 POP DUP1 SWAP3 POP POP POP SWAP2 SWAP1 POP JUMP JUMPDEST PUSH0 DUP1 PUSH0 PUSH2 0x889 DUP5 PUSH2 0xC30 JUMP JUMPDEST SWAP2 POP SWAP2 POP DUP2 ISZERO PUSH2 0x89D JUMPI DUP1 SWAP3 POP POP POP PUSH2 0x8AB JUMP JUMPDEST PUSH2 0x8A6 DUP5 PUSH2 0xCB5 JUMP JUMPDEST SWAP3 POP POP POP JUMPDEST SWAP2 SWAP1 POP JUMP JUMPDEST PUSH2 0x8B8 PUSH2 0xCD4 JUMP JUMPDEST PUSH20 0xFFFFFFFFFFFFFFFFFFFFFFFFFFFFFFFFFFFFFFFF AND PUSH2 0x8D6 PUSH2 0x40D JUMP JUMPDEST PUSH20 0xFFFFFFFFFFFFFFFFFFFFFFFFFFFFFFFFFFFFFFFF AND EQ PUSH2 0x935 JUMPI PUSH2 0x8F9 PUSH2 0xCD4 JUMP JUMPDEST PUSH1 0x40 MLOAD PUSH32 0x118CDAA700000000000000000000000000000000000000000000000000000000 DUP2 MSTORE PUSH1 0x4 ADD PUSH2 0x92C SWAP2 SWAP1 PUSH2 0x15E3 JUMP JUMPDEST PUSH1 0x40 MLOAD DUP1 SWAP2 SUB SWAP1 REVERT JUMPDEST JUMP JUMPDEST PUSH0 PUSH2 0x95F DUP5 PUSH0 ADD DUP5 PUSH20 0xFFFFFFFFFFFFFFFFFFFFFFFFFFFFFFFFFFFFFFFF AND PUSH0 SHL DUP5 PUSH0 SHL PUSH2 0xCDB JUMP JUMPDEST SWAP1 POP SWAP4 SWAP3 POP POP POP JUMP JUMPDEST PUSH0 PUSH2 0x98D DUP4 PUSH0 ADD DUP4 PUSH20 0xFFFFFFFFFFFFFFFFFFFFFFFFFFFFFFFFFFFFFFFF AND PUSH0 SHL PUSH2 0xD12 JUMP JUMPDEST SWAP1 POP SWAP3 SWAP2 POP POP JUMP JUMPDEST PUSH0 DUP1 PUSH0 DUP1 PUSH2 0x9BD DUP7 PUSH0 ADD DUP7 PUSH20 0xFFFFFFFFFFFFFFFFFFFFFFFFFFFFFFFFFFFFFFFF AND PUSH0 SHL PUSH2 0xD46 JUMP JUMPDEST SWAP2 POP SWAP2 POP DUP2 DUP2 PUSH0 SHR SWAP4 POP SWAP4 POP POP POP SWAP3 POP SWAP3 SWAP1 POP JUMP JUMPDEST PUSH2 0x9DA PUSH2 0x1431 JUMP JUMPDEST PUSH0 PUSH2 0x9E4 DUP4 PUSH2 0xD8F JUMP JUMPDEST SWAP1 POP PUSH1 0x40 MLOAD DUP1 PUSH1 0x20 ADD PUSH1 0x40 MSTORE DUP1 DUP3 PUSH0 ADD MLOAD PUSH1 0x40 MLOAD PUSH1 0x20 ADD PUSH2 0xA05 SWAP2 SWAP1 PUSH2 0x1A7C JUMP JUMPDEST PUSH1 0x40 MLOAD PUSH1 0x20 DUP2 DUP4 SUB SUB DUP2 MSTORE SWAP1 PUSH1 0x40 MSTORE DUP2 MSTORE POP SWAP2 POP POP SWAP2 SWAP1 POP JUMP JUMPDEST PUSH0 DUP1 PUSH0 SWAP1 SLOAD SWAP1 PUSH2 0x100 EXP SWAP1 DIV PUSH20 0xFFFFFFFFFFFFFFFFFFFFFFFFFFFFFFFFFFFFFFFF AND SWAP1 POP DUP2 PUSH0 DUP1 PUSH2 0x100 EXP DUP2 SLOAD DUP2 PUSH20 0xFFFFFFFFFFFFFFFFFFFFFFFFFFFFFFFFFFFFFFFF MUL NOT AND SWAP1 DUP4 PUSH20 0xFFFFFFFFFFFFFFFFFFFFFFFFFFFFFFFFFFFFFFFF AND MUL OR SWAP1 SSTORE POP DUP2 PUSH20 0xFFFFFFFFFFFFFFFFFFFFFFFFFFFFFFFFFFFFFFFF AND DUP2 PUSH20 0xFFFFFFFFFFFFFFFFFFFFFFFFFFFFFFFFFFFFFFFF AND PUSH32 0x8BE0079C531659141344CD1FD0A4F28419497F9722A3DAAFE3B4186F6B6457E0 PUSH1 0x40 MLOAD PUSH1 0x40 MLOAD DUP1 SWAP2 SUB SWAP1 LOG3 POP POP JUMP JUMPDEST PUSH2 0xAE8 PUSH2 0x1431 JUMP JUMPDEST PUSH0 PUSH1 0x40 MLOAD DUP1 PUSH1 0x20 ADD PUSH1 0x40 MSTORE DUP1 DUP5 DUP2 MSTORE POP SWAP1 POP PUSH2 0xB03 DUP2 PUSH2 0xE05 JUMP JUMPDEST PUSH2 0xB39 JUMPI PUSH1 0x40 MLOAD PUSH32 0xE6C4247B00000000000000000000000000000000000000000000000000000000 DUP2 MSTORE PUSH1 0x4 ADD PUSH1 0x40 MLOAD DUP1 SWAP2 SUB SWAP1 REVERT JUMPDEST DUP1 SWAP2 POP POP SWAP2 SWAP1 POP JUMP JUMPDEST PUSH0 DUP1 PUSH0 PUSH20 0xFE00000000000000000000000000000000000001 PUSH20 0xFFFFFFFFFFFFFFFFFFFFFFFFFFFFFFFFFFFFFFFF AND DUP5 PUSH0 ADD MLOAD PUSH1 0x40 MLOAD PUSH2 0xB81 SWAP2 SWAP1 PUSH2 0x1A9D JUMP JUMPDEST PUSH0 PUSH1 0x40 MLOAD DUP1 DUP4 SUB DUP2 DUP6 GAS STATICCALL SWAP2 POP POP RETURNDATASIZE DUP1 PUSH0 DUP2 EQ PUSH2 0xBB9 JUMPI PUSH1 0x40 MLOAD SWAP2 POP PUSH1 0x1F NOT PUSH1 0x3F RETURNDATASIZE ADD AND DUP3 ADD PUSH1 0x40 MSTORE RETURNDATASIZE DUP3 MSTORE RETURNDATASIZE PUSH0 PUSH1 0x20 DUP5 ADD RETURNDATACOPY PUSH2 0xBBE JUMP JUMPDEST PUSH1 0x60 SWAP2 POP JUMPDEST POP SWAP2 POP SWAP2 POP DUP2 PUSH2 0xBFA JUMPI PUSH1 0x40 MLOAD PUSH32 0x8A7DB5BF00000000000000000000000000000000000000000000000000000000 DUP2 MSTORE PUSH1 0x4 ADD PUSH1 0x40 MLOAD DUP1 SWAP2 SUB SWAP1 REVERT JUMPDEST PUSH0 DUP2 DUP1 PUSH1 0x20 ADD SWAP1 MLOAD DUP2 ADD SWAP1 PUSH2 0xC0F SWAP2 SWAP1 PUSH2 0x1AC7 JUMP JUMPDEST SWAP1 POP DUP1 SWAP4 POP POP POP POP SWAP2 SWAP1 POP JUMP JUMPDEST PUSH1 0x60 PUSH2 0xC29 DUP3 PUSH0 ADD PUSH2 0xFDA JUMP JUMPDEST SWAP1 POP SWAP2 SWAP1 POP JUMP JUMPDEST PUSH0 DUP1 DUP3 PUSH0 MSTORE PUSH1 0x16 PUSH1 0xA PUSH1 0x20 PUSH0 PUSH20 0xFE00000000000000000000000000000000000002 GAS STATICCALL SWAP2 POP PUSH0 MLOAD DUP1 PUSH20 0xFFFFFFFFFFFFFFFFFFFFFFFFFFFFFFFFFFFFFFFF AND SWAP2 POP DUP1 PUSH1 0xA0 SHR PUSH2 0xFFFF AND PUSH2 0x40A DUP2 EQ PUSH2 0xC88 JUMPI PUSH0 SWAP4 POP PUSH0 SWAP3 POP JUMPDEST POP POP DUP2 ISZERO DUP1 PUSH2 0xC9F JUMPI POP PUSH1 0x16 PUSH2 0xC9C PUSH2 0xFF9 JUMP JUMPDEST EQ ISZERO JUMPDEST ISZERO PUSH2 0xCAF JUMPI PUSH0 DUP1 SWAP2 POP SWAP2 POP PUSH2 0xCB0 JUMP JUMPDEST JUMPDEST SWAP2 POP SWAP2 JUMP JUMPDEST PUSH0 DUP2 PUSH20 0xFF00000000000000000000000000000000000000 OR SWAP1 POP SWAP2 SWAP1 POP JUMP JUMPDEST PUSH0 CALLER SWAP1 POP SWAP1 JUMP JUMPDEST PUSH0 DUP2 DUP5 PUSH1 0x2 ADD PUSH0 DUP6 DUP2 MSTORE PUSH1 0x20 ADD SWAP1 DUP2 MSTORE PUSH1 0x20 ADD PUSH0 KECCAK256 DUP2 SWAP1 SSTORE POP PUSH2 0xD09 DUP4 DUP6 PUSH0 ADD PUSH2 0x1000 SWAP1 SWAP2 SWAP1 PUSH4 0xFFFFFFFF AND JUMP JUMPDEST SWAP1 POP SWAP4 SWAP3 POP POP POP JUMP JUMPDEST PUSH0 DUP3 PUSH1 0x2 ADD PUSH0 DUP4 DUP2 MSTORE PUSH1 0x20 ADD SWAP1 DUP2 MSTORE PUSH1 0x20 ADD PUSH0 KECCAK256 PUSH0 SWAP1 SSTORE PUSH2 0xD3E DUP3 DUP5 PUSH0 ADD PUSH2 0x1015 SWAP1 SWAP2 SWAP1 PUSH4 0xFFFFFFFF AND JUMP JUMPDEST SWAP1 POP SWAP3 SWAP2 POP POP JUMP JUMPDEST PUSH0 DUP1 PUSH0 DUP5 PUSH1 0x2 ADD PUSH0 DUP6 DUP2 MSTORE PUSH1 0x20 ADD SWAP1 DUP2 MSTORE PUSH1 0x20 ADD PUSH0 KECCAK256 SLOAD SWAP1 POP PUSH0 DUP1 SHL DUP2 SUB PUSH2 0xD7F JUMPI PUSH2 0xD72 DUP6 DUP6 PUSH2 0x102A JUMP JUMPDEST PUSH0 DUP1 SHL SWAP3 POP SWAP3 POP POP PUSH2 0xD88 JUMP JUMPDEST PUSH1 0x1 DUP2 SWAP3 POP SWAP3 POP POP JUMPDEST SWAP3 POP SWAP3 SWAP1 POP JUMP JUMPDEST PUSH2 0xD97 PUSH2 0x1444 JUMP JUMPDEST JUMPDEST PUSH1 0x1 ISZERO PUSH2 0xDFF JUMPI PUSH0 PUSH1 0x7F DUP4 AND SWAP1 POP PUSH1 0x7 DUP4 PUSH8 0xFFFFFFFFFFFFFFFF AND SWAP1 SHR SWAP3 POP PUSH0 DUP4 PUSH8 0xFFFFFFFFFFFFFFFF AND SUB PUSH2 0xDE2 JUMPI PUSH2 0xDDB DUP2 DUP4 PUSH2 0x1048 SWAP1 SWAP2 SWAP1 PUSH4 0xFFFFFFFF AND JUMP JUMPDEST POP POP PUSH2 0xE00 JUMP JUMPDEST PUSH2 0xDF8 PUSH1 0x80 DUP3 OR DUP4 PUSH2 0x1048 SWAP1 SWAP2 SWAP1 PUSH4 0xFFFFFFFF AND JUMP JUMPDEST POP POP PUSH2 0xD98 JUMP JUMPDEST JUMPDEST SWAP2 SWAP1 POP JUMP JUMPDEST PUSH0 DUP1 PUSH1 0xF8 SHL DUP3 PUSH0 ADD MLOAD PUSH0 DUP2 MLOAD DUP2 LT PUSH2 0xE20 JUMPI PUSH2 0xE1F PUSH2 0x1AF2 JUMP JUMPDEST JUMPDEST PUSH1 0x20 ADD ADD MLOAD PUSH1 0xF8 SHR PUSH1 0xF8 SHL PUSH31 0xFFFFFFFFFFFFFFFFFFFFFFFFFFFFFFFFFFFFFFFFFFFFFFFFFFFFFFFFFFFFFF NOT AND SUB PUSH2 0xE62 JUMPI PUSH1 0xA DUP3 PUSH0 ADD MLOAD MLOAD GT ISZERO SWAP1 POP PUSH2 0xFD5 JUMP JUMPDEST PUSH1 0x1 PUSH1 0xF8 SHL DUP3 PUSH0 ADD MLOAD PUSH0 DUP2 MLOAD DUP2 LT PUSH2 0xE7D JUMPI PUSH2 0xE7C PUSH2 0x1AF2 JUMP JUMPDEST JUMPDEST PUSH1 0x20 ADD ADD MLOAD PUSH1 0xF8 SHR PUSH1 0xF8 SHL PUSH31 0xFFFFFFFFFFFFFFFFFFFFFFFFFFFFFFFFFFFFFFFFFFFFFFFFFFFFFFFFFFFFFF NOT AND EQ DUP1 PUSH2 0xEFB JUMPI POP PUSH1 0x2 PUSH1 0xF8 SHL DUP3 PUSH0 ADD MLOAD PUSH0 DUP2 MLOAD DUP2 LT PUSH2 0xECC JUMPI PUSH2 0xECB PUSH2 0x1AF2 JUMP JUMPDEST JUMPDEST PUSH1 0x20 ADD ADD MLOAD PUSH1 0xF8 SHR PUSH1 0xF8 SHL PUSH31 0xFFFFFFFFFFFFFFFFFFFFFFFFFFFFFFFFFFFFFFFFFFFFFFFFFFFFFFFFFFFFFF NOT AND EQ JUMPDEST ISZERO PUSH2 0xF0F JUMPI PUSH1 0x15 DUP3 PUSH0 ADD MLOAD MLOAD EQ SWAP1 POP PUSH2 0xFD5 JUMP JUMPDEST PUSH1 0x3 PUSH1 0xF8 SHL DUP3 PUSH0 ADD MLOAD PUSH0 DUP2 MLOAD DUP2 LT PUSH2 0xF2A JUMPI PUSH2 0xF29 PUSH2 0x1AF2 JUMP JUMPDEST JUMPDEST PUSH1 0x20 ADD ADD MLOAD PUSH1 0xF8 SHR PUSH1 0xF8 SHL PUSH31 0xFFFFFFFFFFFFFFFFFFFFFFFFFFFFFFFFFFFFFFFFFFFFFFFFFFFFFFFFFFFFFF NOT AND SUB PUSH2 0xF6B JUMPI PUSH1 0x31 DUP3 PUSH0 ADD MLOAD MLOAD EQ SWAP1 POP PUSH2 0xFD5 JUMP JUMPDEST PUSH1 0x4 PUSH1 0xF8 SHL DUP3 PUSH0 ADD MLOAD PUSH0 DUP2 MLOAD DUP2 LT PUSH2 0xF86 JUMPI PUSH2 0xF85 PUSH2 0x1AF2 JUMP JUMPDEST JUMPDEST PUSH1 0x20 ADD ADD MLOAD PUSH1 0xF8 SHR PUSH1 0xF8 SHL PUSH31 0xFFFFFFFFFFFFFFFFFFFFFFFFFFFFFFFFFFFFFFFFFFFFFFFFFFFFFFFFFFFFFF NOT AND SUB PUSH2 0xFC8 JUMPI PUSH1 0x40 DUP3 PUSH0 ADD MLOAD MLOAD GT ISZERO SWAP1 POP PUSH2 0xFD5 JUMP JUMPDEST PUSH2 0x100 DUP3 PUSH0 ADD MLOAD MLOAD GT ISZERO SWAP1 POP JUMPDEST SWAP2 SWAP1 POP JUMP JUMPDEST PUSH1 0x60 PUSH0 PUSH2 0xFE8 DUP4 PUSH0 ADD PUSH2 0x10AF JUMP JUMPDEST SWAP1 POP PUSH1 0x60 DUP2 SWAP1 POP DUP1 SWAP3 POP POP POP SWAP2 SWAP1 POP JUMP JUMPDEST PUSH0 RETURNDATASIZE SWAP1 POP SWAP1 JUMP JUMPDEST PUSH0 PUSH2 0x100D DUP4 PUSH0 ADD DUP4 PUSH2 0x1108 JUMP JUMPDEST SWAP1 POP SWAP3 SWAP2 POP POP JUMP JUMPDEST PUSH0 PUSH2 0x1022 DUP4 PUSH0 ADD DUP4 PUSH2 0x116F JUMP JUMPDEST SWAP1 POP SWAP3 SWAP2 POP POP JUMP JUMPDEST PUSH0 PUSH2 0x1040 DUP3 DUP5 PUSH0 ADD PUSH2 0x126B SWAP1 SWAP2 SWAP1 PUSH4 0xFFFFFFFF AND JUMP JUMPDEST SWAP1 POP SWAP3 SWAP2 POP POP JUMP JUMPDEST PUSH2 0x1050 PUSH2 0x1444 JUMP JUMPDEST PUSH0 DUP4 PUSH0 ADD MLOAD MLOAD SWAP1 POP PUSH0 PUSH1 0x1 DUP3 PUSH2 0x1066 SWAP2 SWAP1 PUSH2 0x19E5 JUMP JUMPDEST SWAP1 POP DUP5 PUSH1 0x20 ADD MLOAD DUP3 LT PUSH2 0x108A JUMPI PUSH2 0x1089 DUP6 PUSH1 0x2 DUP4 PUSH2 0x1084 SWAP2 SWAP1 PUSH2 0x1B1F JUMP JUMPDEST PUSH2 0x1280 JUMP JUMPDEST JUMPDEST DUP5 MLOAD PUSH1 0x20 DUP4 DUP3 ADD ADD DUP6 DUP2 MSTORE8 DUP2 MLOAD DUP4 GT ISZERO PUSH2 0x10A2 JUMPI DUP3 DUP3 MSTORE JUMPDEST POP POP DUP5 SWAP3 POP POP POP SWAP3 SWAP2 POP POP JUMP JUMPDEST PUSH1 0x60 DUP2 PUSH0 ADD DUP1 SLOAD DUP1 PUSH1 0x20 MUL PUSH1 0x20 ADD PUSH1 0x40 MLOAD SWAP1 DUP2 ADD PUSH1 0x40 MSTORE DUP1 SWAP3 SWAP2 SWAP1 DUP2 DUP2 MSTORE PUSH1 0x20 ADD DUP3 DUP1 SLOAD DUP1 ISZERO PUSH2 0x10FC JUMPI PUSH1 0x20 MUL DUP3 ADD SWAP2 SWAP1 PUSH0 MSTORE PUSH1 0x20 PUSH0 KECCAK256 SWAP1 JUMPDEST DUP2 SLOAD DUP2 MSTORE PUSH1 0x20 ADD SWAP1 PUSH1 0x1 ADD SWAP1 DUP1 DUP4 GT PUSH2 0x10E8 JUMPI JUMPDEST POP POP POP POP POP SWAP1 POP SWAP2 SWAP1 POP JUMP JUMPDEST PUSH0 PUSH2 0x1113 DUP4 DUP4 PUSH2 0x12A2 JUMP JUMPDEST PUSH2 0x1165 JUMPI DUP3 PUSH0 ADD DUP3 SWAP1 DUP1 PUSH1 0x1 DUP2 SLOAD ADD DUP1 DUP3 SSTORE DUP1 SWAP2 POP POP PUSH1 0x1 SWAP1 SUB SWAP1 PUSH0 MSTORE PUSH1 0x20 PUSH0 KECCAK256 ADD PUSH0 SWAP1 SWAP2 SWAP1 SWAP2 SWAP1 SWAP2 POP SSTORE DUP3 PUSH0 ADD DUP1 SLOAD SWAP1 POP DUP4 PUSH1 0x1 ADD PUSH0 DUP5 DUP2 MSTORE PUSH1 0x20 ADD SWAP1 DUP2 MSTORE PUSH1 0x20 ADD PUSH0 KECCAK256 DUP2 SWAP1 SSTORE POP PUSH1 0x1 SWAP1 POP PUSH2 0x1169 JUMP JUMPDEST PUSH0 SWAP1 POP JUMPDEST SWAP3 SWAP2 POP POP JUMP JUMPDEST PUSH0 DUP1 DUP4 PUSH1 0x1 ADD PUSH0 DUP5 DUP2 MSTORE PUSH1 0x20 ADD SWAP1 DUP2 MSTORE PUSH1 0x20 ADD PUSH0 KECCAK256 SLOAD SWAP1 POP PUSH0 DUP2 EQ PUSH2 0x1260 JUMPI PUSH0 PUSH1 0x1 DUP3 PUSH2 0x119C SWAP2 SWAP1 PUSH2 0x18D7 JUMP JUMPDEST SWAP1 POP PUSH0 PUSH1 0x1 DUP7 PUSH0 ADD DUP1 SLOAD SWAP1 POP PUSH2 0x11B2 SWAP2 SWAP1 PUSH2 0x18D7 JUMP JUMPDEST SWAP1 POP DUP1 DUP3 EQ PUSH2 0x1218 JUMPI PUSH0 DUP7 PUSH0 ADD DUP3 DUP2 SLOAD DUP2 LT PUSH2 0x11D1 JUMPI PUSH2 0x11D0 PUSH2 0x1AF2 JUMP JUMPDEST JUMPDEST SWAP1 PUSH0 MSTORE PUSH1 0x20 PUSH0 KECCAK256 ADD SLOAD SWAP1 POP DUP1 DUP8 PUSH0 ADD DUP5 DUP2 SLOAD DUP2 LT PUSH2 0x11F2 JUMPI PUSH2 0x11F1 PUSH2 0x1AF2 JUMP JUMPDEST JUMPDEST SWAP1 PUSH0 MSTORE PUSH1 0x20 PUSH0 KECCAK256 ADD DUP2 SWAP1 SSTORE POP DUP4 DUP8 PUSH1 0x1 ADD PUSH0 DUP4 DUP2 MSTORE PUSH1 0x20 ADD SWAP1 DUP2 MSTORE PUSH1 0x20 ADD PUSH0 KECCAK256 DUP2 SWAP1 SSTORE POP POP JUMPDEST DUP6 PUSH0 ADD DUP1 SLOAD DUP1 PUSH2 0x122B JUMPI PUSH2 0x122A PUSH2 0x1B60 JUMP JUMPDEST JUMPDEST PUSH1 0x1 SWAP1 SUB DUP2 DUP2 SWAP1 PUSH0 MSTORE PUSH1 0x20 PUSH0 KECCAK256 ADD PUSH0 SWAP1 SSTORE SWAP1 SSTORE DUP6 PUSH1 0x1 ADD PUSH0 DUP7 DUP2 MSTORE PUSH1 0x20 ADD SWAP1 DUP2 MSTORE PUSH1 0x20 ADD PUSH0 KECCAK256 PUSH0 SWAP1 SSTORE PUSH1 0x1 SWAP4 POP POP POP POP PUSH2 0x1265 JUMP JUMPDEST PUSH0 SWAP2 POP POP JUMPDEST SWAP3 SWAP2 POP POP JUMP JUMPDEST PUSH0 PUSH2 0x1278 DUP4 PUSH0 ADD DUP4 PUSH2 0x12A2 JUMP JUMPDEST SWAP1 POP SWAP3 SWAP2 POP POP JUMP JUMPDEST PUSH0 DUP3 PUSH0 ADD MLOAD SWAP1 POP PUSH2 0x1291 DUP4 DUP4 PUSH2 0x12C2 JUMP JUMPDEST POP PUSH2 0x129C DUP4 DUP3 PUSH2 0x1338 JUMP JUMPDEST POP POP POP POP JUMP JUMPDEST PUSH0 DUP1 DUP4 PUSH1 0x1 ADD PUSH0 DUP5 DUP2 MSTORE PUSH1 0x20 ADD SWAP1 DUP2 MSTORE PUSH1 0x20 ADD PUSH0 KECCAK256 SLOAD EQ ISZERO SWAP1 POP SWAP3 SWAP2 POP POP JUMP JUMPDEST PUSH2 0x12CA PUSH2 0x1444 JUMP JUMPDEST PUSH0 PUSH1 0x20 DUP4 PUSH2 0x12D8 SWAP2 SWAP1 PUSH2 0x1BBA JUMP JUMPDEST EQ PUSH2 0x1304 JUMPI PUSH1 0x20 DUP3 PUSH2 0x12EA SWAP2 SWAP1 PUSH2 0x1BBA JUMP JUMPDEST PUSH1 0x20 PUSH2 0x12F6 SWAP2 SWAP1 PUSH2 0x18D7 JUMP JUMPDEST DUP3 PUSH2 0x1301 SWAP2 SWAP1 PUSH2 0x19E5 JUMP JUMPDEST SWAP2 POP JUMPDEST DUP2 DUP4 PUSH1 0x20 ADD DUP2 DUP2 MSTORE POP POP PUSH1 0x40 MLOAD DUP1 DUP5 MSTORE PUSH0 DUP2 MSTORE DUP3 DUP2 ADD PUSH1 0x20 ADD DUP2 DUP2 LT ISZERO PUSH2 0x1329 JUMPI PUSH0 DUP1 REVERT JUMPDEST DUP1 PUSH1 0x40 MSTORE POP POP DUP3 SWAP1 POP SWAP3 SWAP2 POP POP JUMP JUMPDEST PUSH2 0x1340 PUSH2 0x1444 JUMP JUMPDEST PUSH2 0x134C DUP4 DUP4 DUP5 MLOAD PUSH2 0x1354 JUMP JUMPDEST SWAP1 POP SWAP3 SWAP2 POP POP JUMP JUMPDEST PUSH2 0x135C PUSH2 0x1444 JUMP JUMPDEST DUP3 MLOAD DUP3 GT ISZERO PUSH2 0x1369 JUMPI PUSH0 DUP1 REVERT JUMPDEST PUSH0 DUP5 PUSH0 ADD MLOAD MLOAD SWAP1 POP PUSH0 DUP4 DUP3 PUSH2 0x137E SWAP2 SWAP1 PUSH2 0x19E5 JUMP JUMPDEST SWAP1 POP DUP6 PUSH1 0x20 ADD MLOAD DUP2 GT ISZERO PUSH2 0x13A3 JUMPI PUSH2 0x13A2 DUP7 PUSH1 0x2 DUP4 PUSH2 0x139D SWAP2 SWAP1 PUSH2 0x1B1F JUMP JUMPDEST PUSH2 0x1280 JUMP JUMPDEST JUMPDEST PUSH0 DUP1 DUP8 MLOAD DUP1 MLOAD DUP6 PUSH1 0x20 DUP4 ADD ADD SWAP4 POP DUP1 DUP6 GT ISZERO PUSH2 0x13BD JUMPI DUP5 DUP3 MSTORE JUMPDEST PUSH1 0x20 DUP10 ADD SWAP3 POP POP POP JUMPDEST PUSH1 0x20 DUP7 LT PUSH2 0x1404 JUMPI DUP1 MLOAD DUP3 MSTORE PUSH1 0x20 DUP3 PUSH2 0x13DF SWAP2 SWAP1 PUSH2 0x19E5 JUMP JUMPDEST SWAP2 POP PUSH1 0x20 DUP2 PUSH2 0x13EE SWAP2 SWAP1 PUSH2 0x19E5 JUMP JUMPDEST SWAP1 POP PUSH1 0x20 DUP7 PUSH2 0x13FD SWAP2 SWAP1 PUSH2 0x18D7 JUMP JUMPDEST SWAP6 POP PUSH2 0x13C6 JUMP JUMPDEST PUSH0 PUSH1 0x1 DUP8 PUSH1 0x20 SUB PUSH2 0x100 EXP SUB SWAP1 POP DUP1 NOT DUP3 MLOAD AND DUP2 DUP5 MLOAD AND DUP2 DUP2 OR DUP6 MSTORE POP POP POP DUP8 SWAP5 POP POP POP POP POP SWAP4 SWAP3 POP POP POP JUMP JUMPDEST PUSH1 0x40 MLOAD DUP1 PUSH1 0x20 ADD PUSH1 0x40 MSTORE DUP1 PUSH1 0x60 DUP2 MSTORE POP SWAP1 JUMP JUMPDEST PUSH1 0x40 MLOAD DUP1 PUSH1 0x40 ADD PUSH1 0x40 MSTORE DUP1 PUSH1 0x60 DUP2 MSTORE PUSH1 0x20 ADD PUSH0 DUP2 MSTORE POP SWAP1 JUMP JUMPDEST PUSH0 DUP2 MLOAD SWAP1 POP SWAP2 SWAP1 POP JUMP JUMPDEST PUSH0 DUP3 DUP3 MSTORE PUSH1 0x20 DUP3 ADD SWAP1 POP SWAP3 SWAP2 POP POP JUMP JUMPDEST PUSH0 DUP2 SWAP1 POP PUSH1 0x20 DUP3 ADD SWAP1 POP SWAP2 SWAP1 POP JUMP JUMPDEST PUSH0 PUSH20 0xFFFFFFFFFFFFFFFFFFFFFFFFFFFFFFFFFFFFFFFF DUP3 AND SWAP1 POP SWAP2 SWAP1 POP JUMP JUMPDEST PUSH0 PUSH2 0x14AF DUP3 PUSH2 0x1486 JUMP JUMPDEST SWAP1 POP SWAP2 SWAP1 POP JUMP JUMPDEST PUSH2 0x14BF DUP2 PUSH2 0x14A5 JUMP JUMPDEST DUP3 MSTORE POP POP JUMP JUMPDEST PUSH0 PUSH2 0x14D0 DUP4 DUP4 PUSH2 0x14B6 JUMP JUMPDEST PUSH1 0x20 DUP4 ADD SWAP1 POP SWAP3 SWAP2 POP POP JUMP JUMPDEST PUSH0 PUSH1 0x20 DUP3 ADD SWAP1 POP SWAP2 SWAP1 POP JUMP JUMPDEST PUSH0 PUSH2 0x14F2 DUP3 PUSH2 0x145D JUMP JUMPDEST PUSH2 0x14FC DUP2 DUP6 PUSH2 0x1467 JUMP JUMPDEST SWAP4 POP PUSH2 0x1507 DUP4 PUSH2 0x1477 JUMP JUMPDEST DUP1 PUSH0 JUMPDEST DUP4 DUP2 LT ISZERO PUSH2 0x1537 JUMPI DUP2 MLOAD PUSH2 0x151E DUP9 DUP3 PUSH2 0x14C5 JUMP JUMPDEST SWAP8 POP PUSH2 0x1529 DUP4 PUSH2 0x14DC JUMP JUMPDEST SWAP3 POP POP PUSH1 0x1 DUP2 ADD SWAP1 POP PUSH2 0x150A JUMP JUMPDEST POP DUP6 SWAP4 POP POP POP POP SWAP3 SWAP2 POP POP JUMP JUMPDEST PUSH0 PUSH1 0x20 DUP3 ADD SWAP1 POP DUP2 DUP2 SUB PUSH0 DUP4 ADD MSTORE PUSH2 0x155C DUP2 DUP5 PUSH2 0x14E8 JUMP JUMPDEST SWAP1 POP SWAP3 SWAP2 POP POP JUMP JUMPDEST PUSH0 DUP1 REVERT JUMPDEST PUSH0 DUP1 REVERT JUMPDEST PUSH0 PUSH8 0xFFFFFFFFFFFFFFFF DUP3 AND SWAP1 POP SWAP2 SWAP1 POP JUMP JUMPDEST PUSH2 0x1588 DUP2 PUSH2 0x156C JUMP JUMPDEST DUP2 EQ PUSH2 0x1592 JUMPI PUSH0 DUP1 REVERT JUMPDEST POP JUMP JUMPDEST PUSH0 DUP2 CALLDATALOAD SWAP1 POP PUSH2 0x15A3 DUP2 PUSH2 0x157F JUMP JUMPDEST SWAP3 SWAP2 POP POP JUMP JUMPDEST PUSH0 PUSH1 0x20 DUP3 DUP5 SUB SLT ISZERO PUSH2 0x15BE JUMPI PUSH2 0x15BD PUSH2 0x1564 JUMP JUMPDEST JUMPDEST PUSH0 PUSH2 0x15CB DUP5 DUP3 DUP6 ADD PUSH2 0x1595 JUMP JUMPDEST SWAP2 POP POP SWAP3 SWAP2 POP POP JUMP JUMPDEST PUSH2 0x15DD DUP2 PUSH2 0x14A5 JUMP JUMPDEST DUP3 MSTORE POP POP JUMP JUMPDEST PUSH0 PUSH1 0x20 DUP3 ADD SWAP1 POP PUSH2 0x15F6 PUSH0 DUP4 ADD DUP5 PUSH2 0x15D4 JUMP JUMPDEST SWAP3 SWAP2 POP POP JUMP JUMPDEST PUSH2 0x1605 DUP2 PUSH2 0x14A5 JUMP JUMPDEST DUP2 EQ PUSH2 0x160F JUMPI PUSH0 DUP1 REVERT JUMPDEST POP JUMP JUMPDEST PUSH0 DUP2 CALLDATALOAD SWAP1 POP PUSH2 0x1620 DUP2 PUSH2 0x15FC JUMP JUMPDEST SWAP3 SWAP2 POP POP JUMP JUMPDEST PUSH0 DUP2 SWAP1 POP SWAP2 SWAP1 POP JUMP JUMPDEST PUSH2 0x1638 DUP2 PUSH2 0x1626 JUMP JUMPDEST DUP2 EQ PUSH2 0x1642 JUMPI PUSH0 DUP1 REVERT JUMPDEST POP JUMP JUMPDEST PUSH0 DUP2 CALLDATALOAD SWAP1 POP PUSH2 0x1653 DUP2 PUSH2 0x162F JUMP JUMPDEST SWAP3 SWAP2 POP POP JUMP JUMPDEST PUSH0 DUP1 PUSH1 0x40 DUP4 DUP6 SUB SLT ISZERO PUSH2 0x166F JUMPI PUSH2 0x166E PUSH2 0x1564 JUMP JUMPDEST JUMPDEST PUSH0 PUSH2 0x167C DUP6 DUP3 DUP7 ADD PUSH2 0x1612 JUMP JUMPDEST SWAP3 POP POP PUSH1 0x20 PUSH2 0x168D DUP6 DUP3 DUP7 ADD PUSH2 0x1645 JUMP JUMPDEST SWAP2 POP POP SWAP3 POP SWAP3 SWAP1 POP JUMP JUMPDEST PUSH0 PUSH1 0x20 DUP3 DUP5 SUB SLT ISZERO PUSH2 0x16AC JUMPI PUSH2 0x16AB PUSH2 0x1564 JUMP JUMPDEST JUMPDEST PUSH0 PUSH2 0x16B9 DUP5 DUP3 DUP6 ADD PUSH2 0x1612 JUMP JUMPDEST SWAP2 POP POP SWAP3 SWAP2 POP POP JUMP JUMPDEST PUSH2 0x16CB DUP2 PUSH2 0x1626 JUMP JUMPDEST DUP3 MSTORE POP POP JUMP JUMPDEST PUSH0 PUSH1 0x20 DUP3 ADD SWAP1 POP PUSH2 0x16E4 PUSH0 DUP4 ADD DUP5 PUSH2 0x16C2 JUMP JUMPDEST SWAP3 SWAP2 POP POP JUMP JUMPDEST PUSH0 DUP2 MLOAD SWAP1 POP SWAP2 SWAP1 POP JUMP JUMPDEST PUSH0 DUP3 DUP3 MSTORE PUSH1 0x20 DUP3 ADD SWAP1 POP SWAP3 SWAP2 POP POP JUMP JUMPDEST DUP3 DUP2 DUP4 MCOPY PUSH0 DUP4 DUP4 ADD MSTORE POP POP POP JUMP JUMPDEST PUSH0 PUSH1 0x1F NOT PUSH1 0x1F DUP4 ADD AND SWAP1 POP SWAP2 SWAP1 POP JUMP JUMPDEST PUSH0 PUSH2 0x172C DUP3 PUSH2 0x16EA JUMP JUMPDEST PUSH2 0x1736 DUP2 DUP6 PUSH2 0x16F4 JUMP JUMPDEST SWAP4 POP PUSH2 0x1746 DUP2 DUP6 PUSH1 0x20 DUP7 ADD PUSH2 0x1704 JUMP JUMPDEST PUSH2 0x174F DUP2 PUSH2 0x1712 JUMP JUMPDEST DUP5 ADD SWAP2 POP POP SWAP3 SWAP2 POP POP JUMP JUMPDEST PUSH0 PUSH1 0x20 DUP3 ADD SWAP1 POP DUP2 DUP2 SUB PUSH0 DUP4 ADD MSTORE PUSH2 0x1772 DUP2 DUP5 PUSH2 0x1722 JUMP JUMPDEST SWAP1 POP SWAP3 SWAP2 POP POP JUMP JUMPDEST PUSH0 DUP1 REVERT JUMPDEST PUSH0 DUP1 REVERT JUMPDEST PUSH0 DUP1 REVERT JUMPDEST PUSH0 DUP1 DUP4 PUSH1 0x1F DUP5 ADD SLT PUSH2 0x179B JUMPI PUSH2 0x179A PUSH2 0x177A JUMP JUMPDEST JUMPDEST DUP3 CALLDATALOAD SWAP1 POP PUSH8 0xFFFFFFFFFFFFFFFF DUP2 GT ISZERO PUSH2 0x17B8 JUMPI PUSH2 0x17B7 PUSH2 0x177E JUMP JUMPDEST JUMPDEST PUSH1 0x20 DUP4 ADD SWAP2 POP DUP4 PUSH1 0x1 DUP3 MUL DUP4 ADD GT ISZERO PUSH2 0x17D4 JUMPI PUSH2 0x17D3 PUSH2 0x1782 JUMP JUMPDEST JUMPDEST SWAP3 POP SWAP3 SWAP1 POP JUMP JUMPDEST PUSH0 DUP1 PUSH0 PUSH1 0x40 DUP5 DUP7 SUB SLT ISZERO PUSH2 0x17F2 JUMPI PUSH2 0x17F1 PUSH2 0x1564 JUMP JUMPDEST JUMPDEST PUSH0 DUP5 ADD CALLDATALOAD PUSH8 0xFFFFFFFFFFFFFFFF DUP2 GT ISZERO PUSH2 0x180F JUMPI PUSH2 0x180E PUSH2 0x1568 JUMP JUMPDEST JUMPDEST PUSH2 0x181B DUP7 DUP3 DUP8 ADD PUSH2 0x1786 JUMP JUMPDEST SWAP4 POP SWAP4 POP POP PUSH1 0x20 PUSH2 0x182E DUP7 DUP3 DUP8 ADD PUSH2 0x1645 JUMP JUMPDEST SWAP2 POP POP SWAP3 POP SWAP3 POP SWAP3 JUMP JUMPDEST PUSH0 DUP1 PUSH1 0x20 DUP4 DUP6 SUB SLT ISZERO PUSH2 0x184E JUMPI PUSH2 0x184D PUSH2 0x1564 JUMP JUMPDEST JUMPDEST PUSH0 DUP4 ADD CALLDATALOAD PUSH8 0xFFFFFFFFFFFFFFFF DUP2 GT ISZERO PUSH2 0x186B JUMPI PUSH2 0x186A PUSH2 0x1568 JUMP JUMPDEST JUMPDEST PUSH2 0x1877 DUP6 DUP3 DUP7 ADD PUSH2 0x1786 JUMP JUMPDEST SWAP3 POP SWAP3 POP POP SWAP3 POP SWAP3 SWAP1 POP JUMP JUMPDEST PUSH0 PUSH1 0x40 DUP3 ADD SWAP1 POP PUSH2 0x1896 PUSH0 DUP4 ADD DUP6 PUSH2 0x16C2 JUMP JUMPDEST PUSH2 0x18A3 PUSH1 0x20 DUP4 ADD DUP5 PUSH2 0x16C2 JUMP JUMPDEST SWAP4 SWAP3 POP POP POP JUMP JUMPDEST PUSH32 0x4E487B7100000000000000000000000000000000000000000000000000000000 PUSH0 MSTORE PUSH1 0x11 PUSH1 0x4 MSTORE PUSH1 0x24 PUSH0 REVERT JUMPDEST PUSH0 PUSH2 0x18E1 DUP3 PUSH2 0x1626 JUMP JUMPDEST SWAP2 POP PUSH2 0x18EC DUP4 PUSH2 0x1626 JUMP JUMPDEST SWAP3 POP DUP3 DUP3 SUB SWAP1 POP DUP2 DUP2 GT ISZERO PUSH2 0x1904 JUMPI PUSH2 0x1903 PUSH2 0x18AA JUMP JUMPDEST JUMPDEST SWAP3 SWAP2 POP POP JUMP JUMPDEST PUSH0 DUP2 SWAP1 POP SWAP3 SWAP2 POP POP JUMP JUMPDEST DUP3 DUP2 DUP4 CALLDATACOPY PUSH0 DUP4 DUP4 ADD MSTORE POP POP POP JUMP JUMPDEST PUSH0 PUSH2 0x192D DUP4 DUP6 PUSH2 0x190A JUMP JUMPDEST SWAP4 POP PUSH2 0x193A DUP4 DUP6 DUP5 PUSH2 0x1914 JUMP JUMPDEST DUP3 DUP5 ADD SWAP1 POP SWAP4 SWAP3 POP POP POP JUMP JUMPDEST PUSH0 PUSH2 0x1952 DUP3 DUP5 DUP7 PUSH2 0x1922 JUMP JUMPDEST SWAP2 POP DUP2 SWAP1 POP SWAP4 SWAP3 POP POP POP JUMP JUMPDEST PUSH0 PUSH1 0x40 DUP3 ADD SWAP1 POP PUSH2 0x1971 PUSH0 DUP4 ADD DUP6 PUSH2 0x15D4 JUMP JUMPDEST PUSH2 0x197E PUSH1 0x20 DUP4 ADD DUP5 PUSH2 0x16C2 JUMP JUMPDEST SWAP4 SWAP3 POP POP POP JUMP JUMPDEST PUSH0 DUP2 ISZERO ISZERO SWAP1 POP SWAP2 SWAP1 POP JUMP JUMPDEST PUSH2 0x1999 DUP2 PUSH2 0x1985 JUMP JUMPDEST DUP2 EQ PUSH2 0x19A3 JUMPI PUSH0 DUP1 REVERT JUMPDEST POP JUMP JUMPDEST PUSH0 DUP2 MLOAD SWAP1 POP PUSH2 0x19B4 DUP2 PUSH2 0x1990 JUMP JUMPDEST SWAP3 SWAP2 POP POP JUMP JUMPDEST PUSH0 PUSH1 0x20 DUP3 DUP5 SUB SLT ISZERO PUSH2 0x19CF JUMPI PUSH2 0x19CE PUSH2 0x1564 JUMP JUMPDEST JUMPDEST PUSH0 PUSH2 0x19DC DUP5 DUP3 DUP6 ADD PUSH2 0x19A6 JUMP JUMPDEST SWAP2 POP POP SWAP3 SWAP2 POP POP JUMP JUMPDEST PUSH0 PUSH2 0x19EF DUP3 PUSH2 0x1626 JUMP JUMPDEST SWAP2 POP PUSH2 0x19FA DUP4 PUSH2 0x1626 JUMP JUMPDEST SWAP3 POP DUP3 DUP3 ADD SWAP1 POP DUP1 DUP3 GT ISZERO PUSH2 0x1A12 JUMPI PUSH2 0x1A11 PUSH2 0x18AA JUMP JUMPDEST JUMPDEST SWAP3 SWAP2 POP POP JUMP JUMPDEST PUSH0 DUP2 SWAP1 POP SWAP3 SWAP2 POP POP JUMP JUMPDEST PUSH0 DUP1 DUP3 ADD MSTORE POP JUMP JUMPDEST PUSH0 PUSH2 0x1A36 PUSH1 0x1 DUP4 PUSH2 0x1A18 JUMP JUMPDEST SWAP2 POP PUSH2 0x1A41 DUP3 PUSH2 0x1A22 JUMP JUMPDEST PUSH1 0x1 DUP3 ADD SWAP1 POP SWAP2 SWAP1 POP JUMP JUMPDEST PUSH0 PUSH2 0x1A56 DUP3 PUSH2 0x16EA JUMP JUMPDEST PUSH2 0x1A60 DUP2 DUP6 PUSH2 0x190A JUMP JUMPDEST SWAP4 POP PUSH2 0x1A70 DUP2 DUP6 PUSH1 0x20 DUP7 ADD PUSH2 0x1704 JUMP JUMPDEST DUP1 DUP5 ADD SWAP2 POP POP SWAP3 SWAP2 POP POP JUMP JUMPDEST PUSH0 PUSH2 0x1A86 DUP3 PUSH2 0x1A2A JUMP JUMPDEST SWAP2 POP PUSH2 0x1A92 DUP3 DUP5 PUSH2 0x1A4C JUMP JUMPDEST SWAP2 POP DUP2 SWAP1 POP SWAP3 SWAP2 POP POP JUMP JUMPDEST PUSH0 PUSH2 0x1AA8 DUP3 DUP5 PUSH2 0x1A4C JUMP JUMPDEST SWAP2 POP DUP2 SWAP1 POP SWAP3 SWAP2 POP POP JUMP JUMPDEST PUSH0 DUP2 MLOAD SWAP1 POP PUSH2 0x1AC1 DUP2 PUSH2 0x162F JUMP JUMPDEST SWAP3 SWAP2 POP POP JUMP JUMPDEST PUSH0 PUSH1 0x20 DUP3 DUP5 SUB SLT ISZERO PUSH2 0x1ADC JUMPI PUSH2 0x1ADB PUSH2 0x1564 JUMP JUMPDEST JUMPDEST PUSH0 PUSH2 0x1AE9 DUP5 DUP3 DUP6 ADD PUSH2 0x1AB3 JUMP JUMPDEST SWAP2 POP POP SWAP3 SWAP2 POP POP JUMP JUMPDEST PUSH32 0x4E487B7100000000000000000000000000000000000000000000000000000000 PUSH0 MSTORE PUSH1 0x32 PUSH1 0x4 MSTORE PUSH1 0x24 PUSH0 REVERT JUMPDEST PUSH0 PUSH2 0x1B29 DUP3 PUSH2 0x1626 JUMP JUMPDEST SWAP2 POP PUSH2 0x1B34 DUP4 PUSH2 0x1626 JUMP JUMPDEST SWAP3 POP DUP3 DUP3 MUL PUSH2 0x1B42 DUP2 PUSH2 0x1626 JUMP JUMPDEST SWAP2 POP DUP3 DUP3 DIV DUP5 EQ DUP4 ISZERO OR PUSH2 0x1B59 JUMPI PUSH2 0x1B58 PUSH2 0x18AA JUMP JUMPDEST JUMPDEST POP SWAP3 SWAP2 POP POP JUMP JUMPDEST PUSH32 0x4E487B7100000000000000000000000000000000000000000000000000000000 PUSH0 MSTORE PUSH1 0x31 PUSH1 0x4 MSTORE PUSH1 0x24 PUSH0 REVERT JUMPDEST PUSH32 0x4E487B7100000000000000000000000000000000000000000000000000000000 PUSH0 MSTORE PUSH1 0x12 PUSH1 0x4 MSTORE PUSH1 0x24 PUSH0 REVERT JUMPDEST PUSH0 PUSH2 0x1BC4 DUP3 PUSH2 0x1626 JUMP JUMPDEST SWAP2 POP PUSH2 0x1BCF DUP4 PUSH2 0x1626 JUMP JUMPDEST SWAP3 POP DUP3 PUSH2 0x1BDF JUMPI PUSH2 0x1BDE PUSH2 0x1B8D JUMP JUMPDEST JUMPDEST DUP3 DUP3 MOD SWAP1 POP SWAP3 SWAP2 POP POP JUMP INVALID LOG2 PUSH5 0x6970667358 0x22 SLT KECCAK256 PUSH22 0xF1BE8809DB2D5CDB796983F0EC230B07FFCFBF7D1566 PUSH20 0xDC4B4CFBEB055DAC64736F6C634300081A003300 "
		},
		"gasEstimates": {
			"creation": {
				"codeDepositCost": "1440000",
				"executionCost": "infinite",
				"totalCost": "infinite"
			},
			"external": {
				"addAllowance(address,uint256)": "infinite",
				"addVerifiedClient(bytes,uint256)": "infinite",
				"allowance(address)": "infinite",
				"getAddrBytesFromActorID(uint64)": "infinite",
				"getAllocators()": "infinite",
				"getEthAddrFromActorID(uint64)": "infinite",
				"getEthAddrFromBytes(bytes)": "infinite",
				"mockDatacap()": "2574",
				"owner()": "2515",
				"renounceOwnership()": "infinite",
				"setAllowance(address,uint256)": "infinite",
				"transferOwnership(address)": "infinite"
			}
		},
		"methodIdentifiers": {
			"addAllowance(address,uint256)": "f3c40c4b",
			"addVerifiedClient(bytes,uint256)": "930fc006",
			"allowance(address)": "3e5beab9",
			"getAddrBytesFromActorID(uint64)": "6f37980b",
			"getAllocators()": "04951d64",
			"getEthAddrFromActorID(uint64)": "2f4b0a34",
			"getEthAddrFromBytes(bytes)": "dd651194",
			"mockDatacap()": "e0591efd",
			"owner()": "8da5cb5b",
			"renounceOwnership()": "715018a6",
			"setAllowance(address,uint256)": "310ec4a7",
			"transferOwnership(address)": "f2fde38b"
		}
	},
	"abi": [
		{
			"inputs": [
				{
					"internalType": "address",
					"name": "initialOwner",
					"type": "address"
				},
				{
					"internalType": "address",
					"name": "_mockDatacapAddress",
					"type": "address"
				}
			],
			"stateMutability": "nonpayable",
			"type": "constructor"
		},
		{
			"inputs": [],
			"name": "AlreadyHasAllowance",
			"type": "error"
		},
		{
			"inputs": [],
			"name": "AlreadyZero",
			"type": "error"
		},
		{
			"inputs": [],
			"name": "AmountEqualZero",
			"type": "error"
		},
		{
			"inputs": [],
			"name": "FailToCallActor",
			"type": "error"
		},
		{
			"inputs": [],
			"name": "FunctionDisabled",
			"type": "error"
		},
		{
			"inputs": [],
			"name": "InsufficientAllowance",
			"type": "error"
		},
		{
			"inputs": [],
			"name": "InvalidAddress",
			"type": "error"
		},
		{
			"inputs": [
				{
					"internalType": "address",
					"name": "owner",
					"type": "address"
				}
			],
			"name": "OwnableInvalidOwner",
			"type": "error"
		},
		{
			"inputs": [
				{
					"internalType": "address",
					"name": "account",
					"type": "address"
				}
			],
			"name": "OwnableUnauthorizedAccount",
			"type": "error"
		},
		{
			"anonymous": false,
			"inputs": [
				{
					"indexed": true,
					"internalType": "address",
					"name": "allocator",
					"type": "address"
				},
				{
					"indexed": false,
					"internalType": "uint256",
					"name": "allowanceBefore",
					"type": "uint256"
				},
				{
					"indexed": false,
					"internalType": "uint256",
					"name": "allowanceAfter",
					"type": "uint256"
				}
			],
			"name": "AllowanceChanged",
			"type": "event"
		},
		{
			"anonymous": false,
			"inputs": [
				{
					"indexed": true,
					"internalType": "address",
					"name": "allocator",
					"type": "address"
				},
				{
					"indexed": true,
					"internalType": "bytes",
					"name": "client",
					"type": "bytes"
				},
				{
					"indexed": false,
					"internalType": "uint256",
					"name": "amount",
					"type": "uint256"
				}
			],
			"name": "DatacapAllocated",
			"type": "event"
		},
		{
			"anonymous": false,
			"inputs": [
				{
					"indexed": true,
					"internalType": "address",
					"name": "previousOwner",
					"type": "address"
				},
				{
					"indexed": true,
					"internalType": "address",
					"name": "newOwner",
					"type": "address"
				}
			],
			"name": "OwnershipTransferred",
			"type": "event"
		},
		{
			"inputs": [
				{
					"internalType": "address",
					"name": "allocator",
					"type": "address"
				},
				{
					"internalType": "uint256",
					"name": "amount",
					"type": "uint256"
				}
			],
			"name": "addAllowance",
			"outputs": [],
			"stateMutability": "nonpayable",
			"type": "function"
		},
		{
			"inputs": [
				{
					"internalType": "bytes",
					"name": "clientAddress",
					"type": "bytes"
				},
				{
					"internalType": "uint256",
					"name": "amount",
					"type": "uint256"
				}
			],
			"name": "addVerifiedClient",
			"outputs": [],
			"stateMutability": "nonpayable",
			"type": "function"
		},
		{
			"inputs": [
				{
					"internalType": "address",
					"name": "allocator",
					"type": "address"
				}
			],
			"name": "allowance",
			"outputs": [
				{
					"internalType": "uint256",
					"name": "allowance_",
					"type": "uint256"
				}
			],
			"stateMutability": "view",
			"type": "function"
		},
		{
			"inputs": [
				{
					"internalType": "uint64",
					"name": "actorID",
					"type": "uint64"
				}
			],
			"name": "getAddrBytesFromActorID",
			"outputs": [
				{
					"internalType": "bytes",
					"name": "",
					"type": "bytes"
				}
			],
			"stateMutability": "pure",
			"type": "function"
		},
		{
			"inputs": [],
			"name": "getAllocators",
			"outputs": [
				{
					"internalType": "address[]",
					"name": "allocators",
					"type": "address[]"
				}
			],
			"stateMutability": "view",
			"type": "function"
		},
		{
			"inputs": [
				{
					"internalType": "uint64",
					"name": "actorID",
					"type": "uint64"
				}
			],
			"name": "getEthAddrFromActorID",
			"outputs": [
				{
					"internalType": "address",
					"name": "",
					"type": "address"
				}
			],
			"stateMutability": "view",
			"type": "function"
		},
		{
			"inputs": [
				{
					"internalType": "bytes",
					"name": "clientAddress",
					"type": "bytes"
				}
			],
			"name": "getEthAddrFromBytes",
			"outputs": [
				{
					"internalType": "address",
					"name": "",
					"type": "address"
				}
			],
			"stateMutability": "view",
			"type": "function"
		},
		{
			"inputs": [],
			"name": "mockDatacap",
			"outputs": [
				{
					"internalType": "address",
					"name": "",
					"type": "address"
				}
			],
			"stateMutability": "view",
			"type": "function"
		},
		{
			"inputs": [],
			"name": "owner",
			"outputs": [
				{
					"internalType": "address",
					"name": "",
					"type": "address"
				}
			],
			"stateMutability": "view",
			"type": "function"
		},
		{
			"inputs": [],
			"name": "renounceOwnership",
			"outputs": [],
			"stateMutability": "nonpayable",
			"type": "function"
		},
		{
			"inputs": [
				{
					"internalType": "address",
					"name": "allocator",
					"type": "address"
				},
				{
					"internalType": "uint256",
					"name": "amount",
					"type": "uint256"
				}
			],
			"name": "setAllowance",
			"outputs": [],
			"stateMutability": "nonpayable",
			"type": "function"
		},
		{
			"inputs": [
				{
					"internalType": "address",
					"name": "newOwner",
					"type": "address"
				}
			],
			"name": "transferOwnership",
			"outputs": [],
			"stateMutability": "nonpayable",
			"type": "function"
		}
	]
}