{
	"data": {
		"bytecode": {
			"linkReferences": {
				"@zondax/solidity-bignumber/src/BigNumbers.sol": {
					"BigNumbers": [
						{
							"length": 20,
							"start": 3444
						},
						{
							"length": 20,
							"start": 3602
						},
						{
							"length": 20,
							"start": 3734
						}
					]
				}
			},
			"object": "608060405234801561000f575f80fd5b5061001e61002360201b60201c565b61019e565b5f61003261012160201b60201c565b9050805f0160089054906101000a900460ff161561007c576040517ff92ee8a900000000000000000000000000000000000000000000000000000000815260040160405180910390fd5b67ffffffffffffffff8016815f015f9054906101000a900467ffffffffffffffff1667ffffffffffffffff161461011e5767ffffffffffffffff815f015f6101000a81548167ffffffffffffffff021916908367ffffffffffffffff1602179055507fc7f505b2f371ae2175ee4913f4499e1f2633a7b5936321eed1cdaeb6115181d267ffffffffffffffff6040516101159190610185565b60405180910390a15b50565b5f8061013161013a60201b60201c565b90508091505090565b5f7ff0c57e16840df040f15088dc2f81fe391c3923bec73e23a9662efc9c229c6a005f1b905090565b5f67ffffffffffffffff82169050919050565b61017f81610163565b82525050565b5f6020820190506101985f830184610176565b92915050565b613a4d806101ab5f395ff3fe608060405234801561000f575f80fd5b50600436106100cd575f3560e01c80639e86a6eb1161008a578063bc2da3f611610064578063bc2da3f614610189578063c4d66de814610193578063e30c3978146101af578063f2fde38b146101cd576100cd565b80639e86a6eb14610145578063b31bfa9a14610161578063b69ef8a81461017f576100cd565b806306fdde03146100d15780633928f5ef146100db578063715018a6146100f757806379ba5097146101015780638da5cb5b1461010b578063930fc00614610129575b5f80fd5b6100d96101e9565b005b6100f560048036038101906100f09190612781565b61022e565b005b6100ff6102cf565b005b6101096102e2565b005b610113610370565b60405161012091906127fe565b60405180910390f35b610143600480360381019061013e9190612878565b6103a5565b005b61015f600480360381019061015a91906128d5565b6104eb565b005b6101696105bf565b60405161017691906127fe565b60405180910390f35b6101876105c6565b005b610191610619565b005b6101ad60048036038101906101a8919061292a565b61065f565b005b6101b76107e0565b6040516101c491906127fe565b60405180910390f35b6101e760048036038101906101e2919061292a565b610815565b005b5f6101f26108ce565b90507fe4ce60ef5cafebaa0b89e2b7efb3d2555b4b24735f879981e488b863933f4b008160405161022391906129c5565b60405180910390a150565b5f8103610267576040517fb0da7f3400000000000000000000000000000000000000000000000000000000815260040160405180910390fd5b5f61027183610947565b90505f60405180604001604052808381526020016040518060400160405280866040516020016102a19190612a05565b60405160208183030381529060405281526020015f151581525081525090506102c981610994565b50505050565b6102d76109f6565b6102e05f610a7d565b565b5f6102eb610aba565b90508073ffffffffffffffffffffffffffffffffffffffff1661030c6107e0565b73ffffffffffffffffffffffffffffffffffffffff161461036457806040517f118cdaa700000000000000000000000000000000000000000000000000000000815260040161035b91906127fe565b60405180910390fd5b61036d81610a7d565b50565b5f8061037a610ac1565b9050805f015f9054906101000a900473ffffffffffffffffffffffffffffffffffffffff1691505090565b5f81036103de576040517fb0da7f3400000000000000000000000000000000000000000000000000000000815260040160405180910390fd5b82826040516103ee929190612a5b565b60405180910390203373ffffffffffffffffffffffffffffffffffffffff167f9b88bd178c90ce12441ff8588a493795e519ac037930d64fdb0d15de4fb53e378360405161043c9190612a82565b60405180910390a35f604051806040016040528061049c86868080601f0160208091040260200160405190810160405280939291908181526020018383808284375f81840152601f19601f82011690508083019250505050505050610ae8565b81526020016040518060400160405280856040516020016104bd9190612a05565b60405160208183030381529060405281526020015f151581525081525090506104e581610994565b50505050565b5f6104f582610947565b90505f61050182610b4a565b90507f2bb1df2baf0bee73cdf97c50a10fbd6228b5a5cd7f645d77151e29703c011724816040516105329190612b41565b60405180910390a15f8061054583610b88565b915091508015610581576040517f2c5211c600000000000000000000000000000000000000000000000000000000815260040160405180910390fd5b7fe8d947d7ebdd7b8b8fa2ad2022c7591418ac32d8c29c5f8a8fc9de52ffa54092826040516105b09190612a82565b60405180910390a15050505050565b5f33905090565b5f6105d033610d90565b90505f6105dc82610b4a565b90507f2bb1df2baf0bee73cdf97c50a10fbd6228b5a5cd7f645d77151e29703c0117248160405161060d9190612b41565b60405180910390a15050565b5f61062333610d90565b90507f438f6a470f05c56c5a0c349a7c523898b46bc25f3e5b4876cce605569af9e92d816040516106549190612b88565b60405180910390a150565b5f610668610dcd565b90505f815f0160089054906101000a900460ff161590505f825f015f9054906101000a900467ffffffffffffffff1690505f808267ffffffffffffffff161480156106b05750825b90505f60018367ffffffffffffffff161480156106e357505f3073ffffffffffffffffffffffffffffffffffffffff163b145b9050811580156106f1575080155b15610728576040517ff92ee8a900000000000000000000000000000000000000000000000000000000815260040160405180910390fd5b6001855f015f6101000a81548167ffffffffffffffff021916908367ffffffffffffffff1602179055508315610775576001855f0160086101000a81548160ff0219169083151502179055505b61077e86610de0565b83156107d8575f855f0160086101000a81548160ff0219169083151502179055507fc7f505b2f371ae2175ee4913f4499e1f2633a7b5936321eed1cdaeb6115181d260016040516107cf9190612bea565b60405180910390a15b505050505050565b5f806107ea610df4565b9050805f015f9054906101000a900473ffffffffffffffffffffffffffffffffffffffff1691505090565b61081d6109f6565b5f610826610df4565b905081815f015f6101000a81548173ffffffffffffffffffffffffffffffffffffffff021916908373ffffffffffffffffffffffffffffffffffffffff1602179055508173ffffffffffffffffffffffffffffffffffffffff16610888610370565b73ffffffffffffffffffffffffffffffffffffffff167f38d16b8cac22d99fc7c124b9cd0de2d3fa1faef420bfe791d8c362d765e2270060405160405180910390a35050565b60605f8067ffffffffffffffff8111156108eb576108ea612c03565b5b6040519080825280601f01601f19166020018201604052801561091d5781602001600182028036833780820191505090505b5090505f61093560076302ea015c5f855f6001610e1b565b905061094081610f3c565b9250505090565b61094f61269a565b5f61095983610f65565b90506040518060200160405280825f015160405160200161097a9190612c94565b604051602081830303815290604052815250915050919050565b5f61099e82610fdb565b90505f6109b5600663e96cc6f06051855f80610e1b565b90505f8151146109f1576040517f0e74990700000000000000000000000000000000000000000000000000000000815260040160405180910390fd5b505050565b6109fe610aba565b73ffffffffffffffffffffffffffffffffffffffff16610a1c610370565b73ffffffffffffffffffffffffffffffffffffffff1614610a7b57610a3f610aba565b6040517f118cdaa7000000000000000000000000000000000000000000000000000000008152600401610a7291906127fe565b60405180910390fd5b565b5f610a86610df4565b9050805f015f6101000a81549073ffffffffffffffffffffffffffffffffffffffff0219169055610ab682611096565b5050565b5f33905090565b5f7f9016d09d72d40fdae2fd8ceac6b6234c7706214fd39c1cd1e609a0528c199300905090565b610af061269a565b5f6040518060200160405280848152509050610b0b81611167565b610b41576040517fe6c4247b00000000000000000000000000000000000000000000000000000000815260040160405180910390fd5b80915050919050565b610b526126ad565b5f610b5c8361133c565b90505f610b74600763c26ddbd56051855f6001610e1b565b9050610b7f81611381565b92505050919050565b5f80826020015115610bc6576040517f83041cea00000000000000000000000000000000000000000000000000000000815260040160405180910390fd5b5f73__$2bcb531b6e4b58de84cde75addabeb9cc3$__6340957f727fffffffffffffffffffffffffffffffffffffffffffffffffffffffffffffffff5f6040518363ffffffff1660e01b8152600401610c20929190612cd3565b5f60405180830381865af4158015610c3a573d5f803e3d5ffd5b505050506040513d5f823e3d601f19601f82011682018060405250810190610c629190612eaa565b90505f73__$2bcb531b6e4b58de84cde75addabeb9cc3$__63f33d5856865f015187602001516040518363ffffffff1660e01b8152600401610ca5929190612f39565b5f60405180830381865af4158015610cbf573d5f803e3d5ffd5b505050506040513d5f823e3d601f19601f82011682018060405250810190610ce79190612eaa565b905073__$2bcb531b6e4b58de84cde75addabeb9cc3$__63aa7312f682846040518363ffffffff1660e01b8152600401610d2292919061301a565b602060405180830381865af4158015610d3d573d5f803e3d5ffd5b505050506040513d601f19601f82011682018060405250810190610d61919061304f565b15610d74575f6001935093505050610d8b565b805f0151610d81906130b2565b5f1c5f9350935050505b915091565b610d9861269a565b604051806020016040528083604051602001610db491906131a7565b6040516020818303038152906040528152509050919050565b5f80610dd7611439565b90508091505090565b610de8611462565b610df1816114a2565b50565b5f7f237e158222e3e6968b72b9db0d8043aacf074ad9f650f0d1606b4d82ee432c00905090565b6060610e3b73fe0000000000000000000000000000000000000584611526565b5f8073fe0000000000000000000000000000000000000573ffffffffffffffffffffffffffffffffffffffff16888686610e75575f610e78565b60015b8a8a8e604051602001610e9096959493929190613253565b604051602081830303815290604052604051610eac91906132b9565b5f60405180830381855af49150503d805f8114610ee4576040519150601f19603f3d011682016040523d82523d5f602084013e610ee9565b606091505b509150915081610f25576040517f8a7db5bf00000000000000000000000000000000000000000000000000000000815260040160405180910390fd5b610f2e816115ba565b925050509695505050505050565b6060805f610f53818561173b90919063ffffffff16565b80925081935050508192505050919050565b610f6d6126c8565b5b600115610fd5575f607f8316905060078367ffffffffffffffff16901c92505f8367ffffffffffffffff1603610fb857610fb181836118b190919063ffffffff16565b5050610fd6565b610fce60808217836118b190919063ffffffff16565b5050610f6e565b5b919050565b60605f80610fec8460200151611918565b9050610ff86002611a75565b8261100391906132fc565b9150611014845f01515f0151611ac8565b8261101f91906132fc565b915061102a81611ac8565b8261103591906132fc565b91505f61104183611ae6565b9050611057600282611b0b90919063ffffffff16565b611070855f01515f015182611b1b90919063ffffffff16565b6110838282611b1b90919063ffffffff16565b61108c81611b43565b9350505050919050565b5f61109f610ac1565b90505f815f015f9054906101000a900473ffffffffffffffffffffffffffffffffffffffff16905082825f015f6101000a81548173ffffffffffffffffffffffffffffffffffffffff021916908373ffffffffffffffffffffffffffffffffffffffff1602179055508273ffffffffffffffffffffffffffffffffffffffff168173ffffffffffffffffffffffffffffffffffffffff167f8be0079c531659141344cd1fd0a4f28419497f9722a3daafe3b4186f6b6457e060405160405180910390a3505050565b5f8060f81b825f01515f815181106111825761118161332f565b5b602001015160f81c60f81b7effffffffffffffffffffffffffffffffffffffffffffffffffffffffffffff1916036111c457600a825f01515111159050611337565b600160f81b825f01515f815181106111df576111de61332f565b5b602001015160f81c60f81b7effffffffffffffffffffffffffffffffffffffffffffffffffffffffffffff1916148061125d5750600260f81b825f01515f8151811061122e5761122d61332f565b5b602001015160f81c60f81b7effffffffffffffffffffffffffffffffffffffffffffffffffffffffffffff1916145b15611271576015825f015151149050611337565b600360f81b825f01515f8151811061128c5761128b61332f565b5b602001015160f81c60f81b7effffffffffffffffffffffffffffffffffffffffffffffffffffffffffffff1916036112cd576031825f015151149050611337565b600460f81b825f01515f815181106112e8576112e761332f565b5b602001015160f81c60f81b7effffffffffffffffffffffffffffffffffffffffffffffffffffffffffffff19160361132a576040825f01515111159050611337565b610100825f015151111590505b919050565b60605f61134b835f0151611ac8565b90505f61135782611ae6565b905061136f845f015182611b1b90919063ffffffff16565b61137881611b43565b92505050919050565b6113896126ad565b60605f80845111156113cc576113a88185611b9990919063ffffffff16565b80925081935050505f825111156113cb576113c282611d69565b92505050611434565b5b60405180604001604052805f67ffffffffffffffff8111156113f1576113f0612c03565b5b6040519080825280601f01601f1916602001820160405280156114235781602001600182028036833780820191505090505b5081526020015f1515815250925050505b919050565b5f7ff0c57e16840df040f15088dc2f81fe391c3923bec73e23a9662efc9c229c6a005f1b905090565b61146a611f02565b6114a0576040517fd7e6bcf800000000000000000000000000000000000000000000000000000000815260040160405180910390fd5b565b6114aa611462565b5f73ffffffffffffffffffffffffffffffffffffffff168173ffffffffffffffffffffffffffffffffffffffff160361151a575f6040517f1e4fbdf700000000000000000000000000000000000000000000000000000000815260040161151191906127fe565b60405180910390fd5b61152381610a7d565b50565b5f479050818110156115715780826040517f8f0f420600000000000000000000000000000000000000000000000000000000815260040161156892919061335c565b60405180910390fd5b5f61157b84611f20565b9050806115b4576040517f64d954b000000000000000000000000000000000000000000000000000000000815260040160405180910390fd5b50505050565b60605f805f848060200190518101906115d391906133ca565b9250925092505f67ffffffffffffffff168267ffffffffffffffff1603611633575f81511461162e576040517f0e74990700000000000000000000000000000000000000000000000000000000815260040160405180910390fd5b6116ec565b605167ffffffffffffffff168267ffffffffffffffff16148061166a5750607167ffffffffffffffff168267ffffffffffffffff16145b156116ae575f8151036116a9576040517f0e74990700000000000000000000000000000000000000000000000000000000815260040160405180910390fd5b6116eb565b816040517ff1f6bced0000000000000000000000000000000000000000000000000000000081526004016116e29190613436565b60405180910390fd5b5b5f831461173057826040517fd4bb6671000000000000000000000000000000000000000000000000000000008152600401611727919061345e565b60405180910390fd5b809350505050919050565b60605f805f61174a8686611f34565b8167ffffffffffffffff169150809750819350829450505050600360ff168260ff16146117ac576040517f08c379a00000000000000000000000000000000000000000000000000000000081526004016117a3906134e7565b60405180910390fd5b5f81866117b991906132fc565b90505f8267ffffffffffffffff8111156117d6576117d5612c03565b5b6040519080825280601f01601f1916602001820160405280156118085781602001600182028036833780820191505090505b5090505f808890505b838110156118935789818151811061182c5761182b61332f565b5b602001015160f81c60f81b83838151811061184a5761184961332f565b5b60200101907effffffffffffffffffffffffffffffffffffffffffffffffffffffffffffff191690815f1a905350818061188390613505565b9250508080600101915050611811565b508184896118a191906132fc565b9650965050505050509250929050565b6118b96126c8565b5f835f01515190505f6001826118cf91906132fc565b9050846020015182106118f3576118f2856002836118ed919061354c565b61211e565b5b8451602083820101858153815183111561190b578282525b5050849250505092915050565b60605f6001835f01515161192c91906132fc565b67ffffffffffffffff81111561194557611944612c03565b5b6040519080825280601f01601f1916602001820160405280156119775781602001600182028036833780820191505090505b509050600115158360200151151514611993575f60f81b611999565b600160f81b5b815f815181106119ac576119ab61332f565b5b60200101907effffffffffffffffffffffffffffffffffffffffffffffffffffffffffffff191690815f1a9053505f600190505f5b845f015151811015611a6a57845f01518181518110611a0357611a0261332f565b5b602001015160f81c60f81b838381518110611a2157611a2061332f565b5b60200101907effffffffffffffffffffffffffffffffffffffffffffffffffffffffffffff191690815f1a9053508180611a5a90613505565b92505080806001019150506119e1565b508192505050919050565b5f60178211611a875760019050611ac3565b60ff8211611a985760029050611ac3565b61ffff8211611aaa5760039050611ac3565b63ffffffff8211611abe5760059050611ac3565b600990505b919050565b5f8151611ad58351611a75565b611adf91906132fc565b9050919050565b611aee6126e1565b611afb815f015183612140565b505f816020018181525050919050565b611b17826004836121b6565b5050565b611b2882600283516121c6565b611b3e81835f015161236690919063ffffffff16565b505050565b60605f826020015114611b8b576040517f08c379a0000000000000000000000000000000000000000000000000000000008152600401611b82906135d7565b60405180910390fd5b815f01515f01519050919050565b60605f805f611ba88686611f34565b8167ffffffffffffffff169150809750819350829450505050600660ff168260ff161480611bdc5750600260ff168260ff16145b611c1b576040517f08c379a0000000000000000000000000000000000000000000000000000000008152600401611c1290613665565b60405180910390fd5b600660ff168260ff1603611c6457611c338686611f34565b8167ffffffffffffffff169150809750819350829450505050600260ff168260ff1614611c6357611c62613683565b5b5b5f8186611c7191906132fc565b90505f8267ffffffffffffffff811115611c8e57611c8d612c03565b5b6040519080825280601f01601f191660200182016040528015611cc05781602001600182028036833780820191505090505b5090505f808890505b83811015611d4b57898181518110611ce457611ce361332f565b5b602001015160f81c60f81b838381518110611d0257611d0161332f565b5b60200101907effffffffffffffffffffffffffffffffffffffffffffffffffffffffffffff191690815f1a9053508180611d3b90613505565b9250508080600101915050611cc9565b50818489611d5991906132fc565b9650965050505050509250929050565b611d716126ad565b5f825103611dac5760405180604001604052806040518060400160405280600181526020015f81525081526020015f15158152509050611efd565b5f60018351611dbb91906136b0565b67ffffffffffffffff811115611dd457611dd3612c03565b5b6040519080825280601f01601f191660200182016040528015611e065781602001600182028036833780820191505090505b5090505f600160f81b845f81518110611e2257611e2161332f565b5b602001015160f81c60f81b7effffffffffffffffffffffffffffffffffffffffffffffffffffffffffffff191603611e5957600190505b5f600190505b8451811015611ee057848181518110611e7b57611e7a61332f565b5b602001015160f81c60f81b83600183611e9491906136b0565b81518110611ea557611ea461332f565b5b60200101907effffffffffffffffffffffffffffffffffffffffffffffffffffffffffffff191690815f1a9053508080600101915050611e5f565b506040518060400160405280838152602001821515815250925050505b919050565b5f611f0b610dcd565b5f0160089054906101000a900460ff16905090565b5f80823f90505f801b811415915050919050565b5f805f80611f428686612382565b9050600185611f5191906132fc565b94505f600560e0831660ff16901c90505f601f83169050601c8160ff1610611fae576040517f08c379a0000000000000000000000000000000000000000000000000000000008152600401611fa590613753565b60405180910390fd5b60188160ff161015611fd1578181888160ff169150955095509550505050612117565b60188160ff1603612057575f611fe78989612382565b9050600188611ff691906132fc565b975060188160ff16101561203f576040517f08c379a0000000000000000000000000000000000000000000000000000000008152600401612036906137bb565b60405180910390fd5b8281898160ff16915096509650965050505050612117565b60198160ff1603612097575f61206d89896123fc565b905060028861207c91906132fc565b97508281898161ffff16915096509650965050505050612117565b601a8160ff16036120d9575f6120ad8989612464565b90506004886120bc91906132fc565b97508281898163ffffffff16915096509650965050505050612117565b601b8160ff16146120ed576120ec613683565b5b5f6120f889896124cc565b905060088861210791906132fc565b9750828189965096509650505050505b9250925092565b5f825f0151905061212f8383612140565b5061213a8382612366565b50505050565b6121486126c8565b5f6020836121569190613806565b14612182576020826121689190613806565b602061217491906136b0565b8261217f91906132fc565b91505b818360200181815250506040518084525f8152828101602001818110156121a7575f80fd5b80604052505082905092915050565b6121c18383836121c6565b505050565b60178167ffffffffffffffff1611612200576121fa8160058460ff16901b60ff1617845f01516118b190919063ffffffff16565b50612361565b60ff8167ffffffffffffffff161161225c57612232601860058460ff16901b17845f01516118b190919063ffffffff16565b506122568167ffffffffffffffff166001855f01516125349092919063ffffffff16565b50612360565b61ffff8167ffffffffffffffff16116122b95761228f601960058460ff16901b17845f01516118b190919063ffffffff16565b506122b38167ffffffffffffffff166002855f01516125349092919063ffffffff16565b5061235f565b63ffffffff8167ffffffffffffffff1611612318576122ee601a60058460ff16901b17845f01516118b190919063ffffffff16565b506123128167ffffffffffffffff166004855f01516125349092919063ffffffff16565b5061235e565b612338601b60058460ff16901b17845f01516118b190919063ffffffff16565b5061235c8167ffffffffffffffff166008855f01516125349092919063ffffffff16565b505b5b5b5b505050565b61236e6126c8565b61237a838384516125bd565b905092915050565b5f60018261239091906132fc565b835110156123d3576040517f08c379a00000000000000000000000000000000000000000000000000000000081526004016123ca90613880565b60405180910390fd5b8282815181106123e6576123e561332f565b5b602001015160f81c60f81b60f81c905092915050565b5f60028261240a91906132fc565b8351101561244d576040517f08c379a000000000000000000000000000000000000000000000000000000000815260040161244490613880565b60405180910390fd5b5f8260200184015190508060f01c91505092915050565b5f60048261247291906132fc565b835110156124b5576040517f08c379a00000000000000000000000000000000000000000000000000000000081526004016124ac90613880565b60405180910390fd5b5f8260200184015190508060e01c91505092915050565b5f6008826124da91906132fc565b8351101561251d576040517f08c379a000000000000000000000000000000000000000000000000000000000815260040161251490613880565b60405180910390fd5b5f8260200184015190508060c01c91505092915050565b61253c6126c8565b5f845f01515190505f818461255191906132fc565b905085602001518111156125765761257586600283612570919061354c565b61211e565b5b5f60018561010061258791906139cd565b61259191906136b0565b9050865182810187831982511617815281518411156125ae578382525b50508693505050509392505050565b6125c56126c8565b82518211156125d2575f80fd5b5f845f01515190505f83826125e791906132fc565b9050856020015181111561260c5761260b86600283612606919061354c565b61211e565b5b5f8087518051856020830101935080851115612626578482525b60208901925050505b6020861061266d578051825260208261264891906132fc565b915060208161265791906132fc565b905060208661266691906136b0565b955061262f565b5f6001876020036101000a0390508019825116818451168181178552505050879450505050509392505050565b6040518060200160405280606081525090565b6040518060400160405280606081526020015f151581525090565b6040518060400160405280606081526020015f81525090565b60405180604001604052806126f46126c8565b81526020015f81525090565b5f604051905090565b5f80fd5b5f80fd5b5f67ffffffffffffffff82169050919050565b61272d81612711565b8114612737575f80fd5b50565b5f8135905061274881612724565b92915050565b5f819050919050565b6127608161274e565b811461276a575f80fd5b50565b5f8135905061277b81612757565b92915050565b5f806040838503121561279757612796612709565b5b5f6127a48582860161273a565b92505060206127b58582860161276d565b9150509250929050565b5f73ffffffffffffffffffffffffffffffffffffffff82169050919050565b5f6127e8826127bf565b9050919050565b6127f8816127de565b82525050565b5f6020820190506128115f8301846127ef565b92915050565b5f80fd5b5f80fd5b5f80fd5b5f8083601f84011261283857612837612817565b5b8235905067ffffffffffffffff8111156128555761285461281b565b5b6020830191508360018202830111156128715761287061281f565b5b9250929050565b5f805f6040848603121561288f5761288e612709565b5b5f84013567ffffffffffffffff8111156128ac576128ab61270d565b5b6128b886828701612823565b935093505060206128cb8682870161276d565b9150509250925092565b5f602082840312156128ea576128e9612709565b5b5f6128f78482850161273a565b91505092915050565b612909816127de565b8114612913575f80fd5b50565b5f8135905061292481612900565b92915050565b5f6020828403121561293f5761293e612709565b5b5f61294c84828501612916565b91505092915050565b5f81519050919050565b5f82825260208201905092915050565b8281835e5f83830152505050565b5f601f19601f8301169050919050565b5f61299782612955565b6129a1818561295f565b93506129b181856020860161296f565b6129ba8161297d565b840191505092915050565b5f6020820190508181035f8301526129dd818461298d565b905092915050565b5f819050919050565b6129ff6129fa8261274e565b6129e5565b82525050565b5f612a1082846129ee565b60208201915081905092915050565b5f81905092915050565b828183375f83830152505050565b5f612a428385612a1f565b9350612a4f838584612a29565b82840190509392505050565b5f612a67828486612a37565b91508190509392505050565b612a7c8161274e565b82525050565b5f602082019050612a955f830184612a73565b92915050565b5f81519050919050565b5f82825260208201905092915050565b5f612abf82612a9b565b612ac98185612aa5565b9350612ad981856020860161296f565b612ae28161297d565b840191505092915050565b5f8115159050919050565b612b0181612aed565b82525050565b5f604083015f8301518482035f860152612b218282612ab5565b9150506020830151612b366020860182612af8565b508091505092915050565b5f6020820190508181035f830152612b598184612b07565b905092915050565b5f602083015f8301518482035f860152612b7b8282612ab5565b9150508091505092915050565b5f6020820190508181035f830152612ba08184612b61565b905092915050565b5f819050919050565b5f819050919050565b5f612bd4612bcf612bca84612ba8565b612bb1565b612711565b9050919050565b612be481612bba565b82525050565b5f602082019050612bfd5f830184612bdb565b92915050565b7f4e487b71000000000000000000000000000000000000000000000000000000005f52604160045260245ffd5b5f81905092915050565b5f8082015250565b5f612c4e600183612c30565b9150612c5982612c3a565b600182019050919050565b5f612c6e82612a9b565b612c788185612a1f565b9350612c8881856020860161296f565b80840191505092915050565b5f612c9e82612c42565b9150612caa8284612c64565b915081905092915050565b612cbe8161274e565b82525050565b612ccd81612aed565b82525050565b5f604082019050612ce65f830185612cb5565b612cf36020830184612cc4565b9392505050565b5f80fd5b612d078261297d565b810181811067ffffffffffffffff82111715612d2657612d25612c03565b5b80604052505050565b5f612d38612700565b9050612d448282612cfe565b919050565b5f80fd5b5f80fd5b5f67ffffffffffffffff821115612d6b57612d6a612c03565b5b612d748261297d565b9050602081019050919050565b5f612d93612d8e84612d51565b612d2f565b905082815260208101848484011115612daf57612dae612d4d565b5b612dba84828561296f565b509392505050565b5f82601f830112612dd657612dd5612817565b5b8151612de6848260208601612d81565b91505092915050565b612df881612aed565b8114612e02575f80fd5b50565b5f81519050612e1381612def565b92915050565b5f81519050612e2781612757565b92915050565b5f60608284031215612e4257612e41612cfa565b5b612e4c6060612d2f565b90505f82015167ffffffffffffffff811115612e6b57612e6a612d49565b5b612e7784828501612dc2565b5f830152506020612e8a84828501612e05565b6020830152506040612e9e84828501612e19565b60408301525092915050565b5f60208284031215612ebf57612ebe612709565b5b5f82015167ffffffffffffffff811115612edc57612edb61270d565b5b612ee884828501612e2d565b91505092915050565b5f82825260208201905092915050565b5f612f0b82612a9b565b612f158185612ef1565b9350612f2581856020860161296f565b612f2e8161297d565b840191505092915050565b5f6040820190508181035f830152612f518185612f01565b9050612f606020830184612cc4565b9392505050565b5f82825260208201905092915050565b5f612f8182612a9b565b612f8b8185612f67565b9350612f9b81856020860161296f565b612fa48161297d565b840191505092915050565b612fb881612aed565b82525050565b612fc78161274e565b82525050565b5f606083015f8301518482035f860152612fe78282612f77565b9150506020830151612ffc6020860182612faf565b50604083015161300f6040860182612fbe565b508091505092915050565b5f6040820190508181035f8301526130328185612fcd565b905081810360208301526130468184612fcd565b90509392505050565b5f6020828403121561306457613063612709565b5b5f61307184828501612e05565b91505092915050565b5f819050602082019050919050565b5f819050919050565b5f61309d8251613089565b80915050919050565b5f82821b905092915050565b5f6130bc82612a9b565b826130c68461307a565b90506130d181613092565b925060208210156131115761310c7fffffffffffffffffffffffffffffffffffffffffffffffffffffffffffffffff836020036008026130a6565b831692505b5050919050565b7f040a0000000000000000000000000000000000000000000000000000000000005f82015250565b5f61314c600283612c30565b915061315782613118565b600282019050919050565b5f8160601b9050919050565b5f61317882613162565b9050919050565b5f6131898261316e565b9050919050565b6131a161319c826127de565b61317f565b82525050565b5f6131b182613140565b91506131bd8284613190565b60148201915081905092915050565b6131d581612711565b82525050565b5f82825260208201905092915050565b5f6131f582612a9b565b6131ff81856131db565b935061320f81856020860161296f565b6132188161297d565b840191505092915050565b5f61323d61323861323384612711565b612bb1565b612711565b9050919050565b61324d81613223565b82525050565b5f60c0820190506132665f8301896131cc565b6132736020830188612a73565b61328060408301876131cc565b61328d60608301866131cc565b818103608083015261329f81856131eb565b90506132ae60a0830184613244565b979650505050505050565b5f6132c48284612c64565b915081905092915050565b7f4e487b71000000000000000000000000000000000000000000000000000000005f52601160045260245ffd5b5f6133068261274e565b91506133118361274e565b9250828201905080821115613329576133286132cf565b5b92915050565b7f4e487b71000000000000000000000000000000000000000000000000000000005f52603260045260245ffd5b5f60408201905061336f5f830185612a73565b61337c6020830184612a73565b9392505050565b5f819050919050565b61339581613383565b811461339f575f80fd5b50565b5f815190506133b08161338c565b92915050565b5f815190506133c481612724565b92915050565b5f805f606084860312156133e1576133e0612709565b5b5f6133ee868287016133a2565b93505060206133ff868287016133b6565b925050604084015167ffffffffffffffff8111156134205761341f61270d565b5b61342c86828701612dc2565b9150509250925092565b5f6020820190506134495f8301846131cc565b92915050565b61345881613383565b82525050565b5f6020820190506134715f83018461344f565b92915050565b7f696e76616c6964206d616a20286578706563746564204d616a546578745374725f8201527f696e672900000000000000000000000000000000000000000000000000000000602082015250565b5f6134d160248361295f565b91506134dc82613477565b604082019050919050565b5f6020820190508181035f8301526134fe816134c5565b9050919050565b5f61350f8261274e565b91507fffffffffffffffffffffffffffffffffffffffffffffffffffffffffffffffff8203613541576135406132cf565b5b600182019050919050565b5f6135568261274e565b91506135618361274e565b925082820261356f8161274e565b91508282048414831517613586576135856132cf565b5b5092915050565b7f496e76616c69642043424f5200000000000000000000000000000000000000005f82015250565b5f6135c1600c8361295f565b91506135cc8261358d565b602082019050919050565b5f6020820190508181035f8301526135ee816135b5565b9050919050565b7f696e76616c6964206d616a20286578706563746564204d616a546167206f72205f8201527f4d616a42797465537472696e6729000000000000000000000000000000000000602082015250565b5f61364f602e8361295f565b915061365a826135f5565b604082019050919050565b5f6020820190508181035f83015261367c81613643565b9050919050565b7f4e487b71000000000000000000000000000000000000000000000000000000005f52600160045260245ffd5b5f6136ba8261274e565b91506136c58361274e565b92508282039050818111156136dd576136dc6132cf565b5b92915050565b7f63616e6e6f742068616e646c65206865616465727320776974682065787472615f8201527f203e203237000000000000000000000000000000000000000000000000000000602082015250565b5f61373d60258361295f565b9150613748826136e3565b604082019050919050565b5f6020820190508181035f83015261376a81613731565b9050919050565b7f696e76616c69642063626f7200000000000000000000000000000000000000005f82015250565b5f6137a5600c8361295f565b91506137b082613771565b602082019050919050565b5f6020820190508181035f8301526137d281613799565b9050919050565b7f4e487b71000000000000000000000000000000000000000000000000000000005f52601260045260245ffd5b5f6138108261274e565b915061381b8361274e565b92508261382b5761382a6137d9565b5b828206905092915050565b7f736c6963696e67206f7574206f662072616e67650000000000000000000000005f82015250565b5f61386a60148361295f565b915061387582613836565b602082019050919050565b5f6020820190508181035f8301526138978161385e565b9050919050565b5f8160011c9050919050565b5f808291508390505b60018511156138f3578086048111156138cf576138ce6132cf565b5b60018516156138de5780820291505b80810290506138ec8561389e565b94506138b3565b94509492505050565b5f8261390b57600190506139c6565b81613918575f90506139c6565b816001811461392e576002811461393857613967565b60019150506139c6565b60ff84111561394a576139496132cf565b5b8360020a915084821115613961576139606132cf565b5b506139c6565b5060208310610133831016604e8410600b841016171561399c5782820a905083811115613997576139966132cf565b5b6139c6565b6139a984848460016138aa565b925090508184048111156139c0576139bf6132cf565b5b81810290505b9392505050565b5f6139d78261274e565b91506139e28361274e565b9250613a0f7fffffffffffffffffffffffffffffffffffffffffffffffffffffffffffffffff84846138fc565b90509291505056fea2646970667358221220fad76485fa63583b7f68d8c22357bc086eb2c4bddf8b92fe65b9baf1984bc4e864736f6c634300081a0033",
			"opcodes": "PUSH1 0x80 PUSH1 0x40 MSTORE CALLVALUE DUP1 ISZERO PUSH2 0xF JUMPI PUSH0 DUP1 REVERT JUMPDEST POP PUSH2 0x1E PUSH2 0x23 PUSH1 0x20 SHL PUSH1 0x20 SHR JUMP JUMPDEST PUSH2 0x19E JUMP JUMPDEST PUSH0 PUSH2 0x32 PUSH2 0x121 PUSH1 0x20 SHL PUSH1 0x20 SHR JUMP JUMPDEST SWAP1 POP DUP1 PUSH0 ADD PUSH1 0x8 SWAP1 SLOAD SWAP1 PUSH2 0x100 EXP SWAP1 DIV PUSH1 0xFF AND ISZERO PUSH2 0x7C JUMPI PUSH1 0x40 MLOAD PUSH32 0xF92EE8A900000000000000000000000000000000000000000000000000000000 DUP2 MSTORE PUSH1 0x4 ADD PUSH1 0x40 MLOAD DUP1 SWAP2 SUB SWAP1 REVERT JUMPDEST PUSH8 0xFFFFFFFFFFFFFFFF DUP1 AND DUP2 PUSH0 ADD PUSH0 SWAP1 SLOAD SWAP1 PUSH2 0x100 EXP SWAP1 DIV PUSH8 0xFFFFFFFFFFFFFFFF AND PUSH8 0xFFFFFFFFFFFFFFFF AND EQ PUSH2 0x11E JUMPI PUSH8 0xFFFFFFFFFFFFFFFF DUP2 PUSH0 ADD PUSH0 PUSH2 0x100 EXP DUP2 SLOAD DUP2 PUSH8 0xFFFFFFFFFFFFFFFF MUL NOT AND SWAP1 DUP4 PUSH8 0xFFFFFFFFFFFFFFFF AND MUL OR SWAP1 SSTORE POP PUSH32 0xC7F505B2F371AE2175EE4913F4499E1F2633A7B5936321EED1CDAEB6115181D2 PUSH8 0xFFFFFFFFFFFFFFFF PUSH1 0x40 MLOAD PUSH2 0x115 SWAP2 SWAP1 PUSH2 0x185 JUMP JUMPDEST PUSH1 0x40 MLOAD DUP1 SWAP2 SUB SWAP1 LOG1 JUMPDEST POP JUMP JUMPDEST PUSH0 DUP1 PUSH2 0x131 PUSH2 0x13A PUSH1 0x20 SHL PUSH1 0x20 SHR JUMP JUMPDEST SWAP1 POP DUP1 SWAP2 POP POP SWAP1 JUMP JUMPDEST PUSH0 PUSH32 0xF0C57E16840DF040F15088DC2F81FE391C3923BEC73E23A9662EFC9C229C6A00 PUSH0 SHL SWAP1 POP SWAP1 JUMP JUMPDEST PUSH0 PUSH8 0xFFFFFFFFFFFFFFFF DUP3 AND SWAP1 POP SWAP2 SWAP1 POP JUMP JUMPDEST PUSH2 0x17F DUP2 PUSH2 0x163 JUMP JUMPDEST DUP3 MSTORE POP POP JUMP JUMPDEST PUSH0 PUSH1 0x20 DUP3 ADD SWAP1 POP PUSH2 0x198 PUSH0 DUP4 ADD DUP5 PUSH2 0x176 JUMP JUMPDEST SWAP3 SWAP2 POP POP JUMP JUMPDEST PUSH2 0x3A4D DUP1 PUSH2 0x1AB PUSH0 CODECOPY PUSH0 RETURN INVALID PUSH1 0x80 PUSH1 0x40 MSTORE CALLVALUE DUP1 ISZERO PUSH2 0xF JUMPI PUSH0 DUP1 REVERT JUMPDEST POP PUSH1 0x4 CALLDATASIZE LT PUSH2 0xCD JUMPI PUSH0 CALLDATALOAD PUSH1 0xE0 SHR DUP1 PUSH4 0x9E86A6EB GT PUSH2 0x8A JUMPI DUP1 PUSH4 0xBC2DA3F6 GT PUSH2 0x64 JUMPI DUP1 PUSH4 0xBC2DA3F6 EQ PUSH2 0x189 JUMPI DUP1 PUSH4 0xC4D66DE8 EQ PUSH2 0x193 JUMPI DUP1 PUSH4 0xE30C3978 EQ PUSH2 0x1AF JUMPI DUP1 PUSH4 0xF2FDE38B EQ PUSH2 0x1CD JUMPI PUSH2 0xCD JUMP JUMPDEST DUP1 PUSH4 0x9E86A6EB EQ PUSH2 0x145 JUMPI DUP1 PUSH4 0xB31BFA9A EQ PUSH2 0x161 JUMPI DUP1 PUSH4 0xB69EF8A8 EQ PUSH2 0x17F JUMPI PUSH2 0xCD JUMP JUMPDEST DUP1 PUSH4 0x6FDDE03 EQ PUSH2 0xD1 JUMPI DUP1 PUSH4 0x3928F5EF EQ PUSH2 0xDB JUMPI DUP1 PUSH4 0x715018A6 EQ PUSH2 0xF7 JUMPI DUP1 PUSH4 0x79BA5097 EQ PUSH2 0x101 JUMPI DUP1 PUSH4 0x8DA5CB5B EQ PUSH2 0x10B JUMPI DUP1 PUSH4 0x930FC006 EQ PUSH2 0x129 JUMPI JUMPDEST PUSH0 DUP1 REVERT JUMPDEST PUSH2 0xD9 PUSH2 0x1E9 JUMP JUMPDEST STOP JUMPDEST PUSH2 0xF5 PUSH1 0x4 DUP1 CALLDATASIZE SUB DUP2 ADD SWAP1 PUSH2 0xF0 SWAP2 SWAP1 PUSH2 0x2781 JUMP JUMPDEST PUSH2 0x22E JUMP JUMPDEST STOP JUMPDEST PUSH2 0xFF PUSH2 0x2CF JUMP JUMPDEST STOP JUMPDEST PUSH2 0x109 PUSH2 0x2E2 JUMP JUMPDEST STOP JUMPDEST PUSH2 0x113 PUSH2 0x370 JUMP JUMPDEST PUSH1 0x40 MLOAD PUSH2 0x120 SWAP2 SWAP1 PUSH2 0x27FE JUMP JUMPDEST PUSH1 0x40 MLOAD DUP1 SWAP2 SUB SWAP1 RETURN JUMPDEST PUSH2 0x143 PUSH1 0x4 DUP1 CALLDATASIZE SUB DUP2 ADD SWAP1 PUSH2 0x13E SWAP2 SWAP1 PUSH2 0x2878 JUMP JUMPDEST PUSH2 0x3A5 JUMP JUMPDEST STOP JUMPDEST PUSH2 0x15F PUSH1 0x4 DUP1 CALLDATASIZE SUB DUP2 ADD SWAP1 PUSH2 0x15A SWAP2 SWAP1 PUSH2 0x28D5 JUMP JUMPDEST PUSH2 0x4EB JUMP JUMPDEST STOP JUMPDEST PUSH2 0x169 PUSH2 0x5BF JUMP JUMPDEST PUSH1 0x40 MLOAD PUSH2 0x176 SWAP2 SWAP1 PUSH2 0x27FE JUMP JUMPDEST PUSH1 0x40 MLOAD DUP1 SWAP2 SUB SWAP1 RETURN JUMPDEST PUSH2 0x187 PUSH2 0x5C6 JUMP JUMPDEST STOP JUMPDEST PUSH2 0x191 PUSH2 0x619 JUMP JUMPDEST STOP JUMPDEST PUSH2 0x1AD PUSH1 0x4 DUP1 CALLDATASIZE SUB DUP2 ADD SWAP1 PUSH2 0x1A8 SWAP2 SWAP1 PUSH2 0x292A JUMP JUMPDEST PUSH2 0x65F JUMP JUMPDEST STOP JUMPDEST PUSH2 0x1B7 PUSH2 0x7E0 JUMP JUMPDEST PUSH1 0x40 MLOAD PUSH2 0x1C4 SWAP2 SWAP1 PUSH2 0x27FE JUMP JUMPDEST PUSH1 0x40 MLOAD DUP1 SWAP2 SUB SWAP1 RETURN JUMPDEST PUSH2 0x1E7 PUSH1 0x4 DUP1 CALLDATASIZE SUB DUP2 ADD SWAP1 PUSH2 0x1E2 SWAP2 SWAP1 PUSH2 0x292A JUMP JUMPDEST PUSH2 0x815 JUMP JUMPDEST STOP JUMPDEST PUSH0 PUSH2 0x1F2 PUSH2 0x8CE JUMP JUMPDEST SWAP1 POP PUSH32 0xE4CE60EF5CAFEBAA0B89E2B7EFB3D2555B4B24735F879981E488B863933F4B00 DUP2 PUSH1 0x40 MLOAD PUSH2 0x223 SWAP2 SWAP1 PUSH2 0x29C5 JUMP JUMPDEST PUSH1 0x40 MLOAD DUP1 SWAP2 SUB SWAP1 LOG1 POP JUMP JUMPDEST PUSH0 DUP2 SUB PUSH2 0x267 JUMPI PUSH1 0x40 MLOAD PUSH32 0xB0DA7F3400000000000000000000000000000000000000000000000000000000 DUP2 MSTORE PUSH1 0x4 ADD PUSH1 0x40 MLOAD DUP1 SWAP2 SUB SWAP1 REVERT JUMPDEST PUSH0 PUSH2 0x271 DUP4 PUSH2 0x947 JUMP JUMPDEST SWAP1 POP PUSH0 PUSH1 0x40 MLOAD DUP1 PUSH1 0x40 ADD PUSH1 0x40 MSTORE DUP1 DUP4 DUP2 MSTORE PUSH1 0x20 ADD PUSH1 0x40 MLOAD DUP1 PUSH1 0x40 ADD PUSH1 0x40 MSTORE DUP1 DUP7 PUSH1 0x40 MLOAD PUSH1 0x20 ADD PUSH2 0x2A1 SWAP2 SWAP1 PUSH2 0x2A05 JUMP JUMPDEST PUSH1 0x40 MLOAD PUSH1 0x20 DUP2 DUP4 SUB SUB DUP2 MSTORE SWAP1 PUSH1 0x40 MSTORE DUP2 MSTORE PUSH1 0x20 ADD PUSH0 ISZERO ISZERO DUP2 MSTORE POP DUP2 MSTORE POP SWAP1 POP PUSH2 0x2C9 DUP2 PUSH2 0x994 JUMP JUMPDEST POP POP POP POP JUMP JUMPDEST PUSH2 0x2D7 PUSH2 0x9F6 JUMP JUMPDEST PUSH2 0x2E0 PUSH0 PUSH2 0xA7D JUMP JUMPDEST JUMP JUMPDEST PUSH0 PUSH2 0x2EB PUSH2 0xABA JUMP JUMPDEST SWAP1 POP DUP1 PUSH20 0xFFFFFFFFFFFFFFFFFFFFFFFFFFFFFFFFFFFFFFFF AND PUSH2 0x30C PUSH2 0x7E0 JUMP JUMPDEST PUSH20 0xFFFFFFFFFFFFFFFFFFFFFFFFFFFFFFFFFFFFFFFF AND EQ PUSH2 0x364 JUMPI DUP1 PUSH1 0x40 MLOAD PUSH32 0x118CDAA700000000000000000000000000000000000000000000000000000000 DUP2 MSTORE PUSH1 0x4 ADD PUSH2 0x35B SWAP2 SWAP1 PUSH2 0x27FE JUMP JUMPDEST PUSH1 0x40 MLOAD DUP1 SWAP2 SUB SWAP1 REVERT JUMPDEST PUSH2 0x36D DUP2 PUSH2 0xA7D JUMP JUMPDEST POP JUMP JUMPDEST PUSH0 DUP1 PUSH2 0x37A PUSH2 0xAC1 JUMP JUMPDEST SWAP1 POP DUP1 PUSH0 ADD PUSH0 SWAP1 SLOAD SWAP1 PUSH2 0x100 EXP SWAP1 DIV PUSH20 0xFFFFFFFFFFFFFFFFFFFFFFFFFFFFFFFFFFFFFFFF AND SWAP2 POP POP SWAP1 JUMP JUMPDEST PUSH0 DUP2 SUB PUSH2 0x3DE JUMPI PUSH1 0x40 MLOAD PUSH32 0xB0DA7F3400000000000000000000000000000000000000000000000000000000 DUP2 MSTORE PUSH1 0x4 ADD PUSH1 0x40 MLOAD DUP1 SWAP2 SUB SWAP1 REVERT JUMPDEST DUP3 DUP3 PUSH1 0x40 MLOAD PUSH2 0x3EE SWAP3 SWAP2 SWAP1 PUSH2 0x2A5B JUMP JUMPDEST PUSH1 0x40 MLOAD DUP1 SWAP2 SUB SWAP1 KECCAK256 CALLER PUSH20 0xFFFFFFFFFFFFFFFFFFFFFFFFFFFFFFFFFFFFFFFF AND PUSH32 0x9B88BD178C90CE12441FF8588A493795E519AC037930D64FDB0D15DE4FB53E37 DUP4 PUSH1 0x40 MLOAD PUSH2 0x43C SWAP2 SWAP1 PUSH2 0x2A82 JUMP JUMPDEST PUSH1 0x40 MLOAD DUP1 SWAP2 SUB SWAP1 LOG3 PUSH0 PUSH1 0x40 MLOAD DUP1 PUSH1 0x40 ADD PUSH1 0x40 MSTORE DUP1 PUSH2 0x49C DUP7 DUP7 DUP1 DUP1 PUSH1 0x1F ADD PUSH1 0x20 DUP1 SWAP2 DIV MUL PUSH1 0x20 ADD PUSH1 0x40 MLOAD SWAP1 DUP2 ADD PUSH1 0x40 MSTORE DUP1 SWAP4 SWAP3 SWAP2 SWAP1 DUP2 DUP2 MSTORE PUSH1 0x20 ADD DUP4 DUP4 DUP1 DUP3 DUP5 CALLDATACOPY PUSH0 DUP2 DUP5 ADD MSTORE PUSH1 0x1F NOT PUSH1 0x1F DUP3 ADD AND SWAP1 POP DUP1 DUP4 ADD SWAP3 POP POP POP POP POP POP POP PUSH2 0xAE8 JUMP JUMPDEST DUP2 MSTORE PUSH1 0x20 ADD PUSH1 0x40 MLOAD DUP1 PUSH1 0x40 ADD PUSH1 0x40 MSTORE DUP1 DUP6 PUSH1 0x40 MLOAD PUSH1 0x20 ADD PUSH2 0x4BD SWAP2 SWAP1 PUSH2 0x2A05 JUMP JUMPDEST PUSH1 0x40 MLOAD PUSH1 0x20 DUP2 DUP4 SUB SUB DUP2 MSTORE SWAP1 PUSH1 0x40 MSTORE DUP2 MSTORE PUSH1 0x20 ADD PUSH0 ISZERO ISZERO DUP2 MSTORE POP DUP2 MSTORE POP SWAP1 POP PUSH2 0x4E5 DUP2 PUSH2 0x994 JUMP JUMPDEST POP POP POP POP JUMP JUMPDEST PUSH0 PUSH2 0x4F5 DUP3 PUSH2 0x947 JUMP JUMPDEST SWAP1 POP PUSH0 PUSH2 0x501 DUP3 PUSH2 0xB4A JUMP JUMPDEST SWAP1 POP PUSH32 0x2BB1DF2BAF0BEE73CDF97C50A10FBD6228B5A5CD7F645D77151E29703C011724 DUP2 PUSH1 0x40 MLOAD PUSH2 0x532 SWAP2 SWAP1 PUSH2 0x2B41 JUMP JUMPDEST PUSH1 0x40 MLOAD DUP1 SWAP2 SUB SWAP1 LOG1 PUSH0 DUP1 PUSH2 0x545 DUP4 PUSH2 0xB88 JUMP JUMPDEST SWAP2 POP SWAP2 POP DUP1 ISZERO PUSH2 0x581 JUMPI PUSH1 0x40 MLOAD PUSH32 0x2C5211C600000000000000000000000000000000000000000000000000000000 DUP2 MSTORE PUSH1 0x4 ADD PUSH1 0x40 MLOAD DUP1 SWAP2 SUB SWAP1 REVERT JUMPDEST PUSH32 0xE8D947D7EBDD7B8B8FA2AD2022C7591418AC32D8C29C5F8A8FC9DE52FFA54092 DUP3 PUSH1 0x40 MLOAD PUSH2 0x5B0 SWAP2 SWAP1 PUSH2 0x2A82 JUMP JUMPDEST PUSH1 0x40 MLOAD DUP1 SWAP2 SUB SWAP1 LOG1 POP POP POP POP POP JUMP JUMPDEST PUSH0 CALLER SWAP1 POP SWAP1 JUMP JUMPDEST PUSH0 PUSH2 0x5D0 CALLER PUSH2 0xD90 JUMP JUMPDEST SWAP1 POP PUSH0 PUSH2 0x5DC DUP3 PUSH2 0xB4A JUMP JUMPDEST SWAP1 POP PUSH32 0x2BB1DF2BAF0BEE73CDF97C50A10FBD6228B5A5CD7F645D77151E29703C011724 DUP2 PUSH1 0x40 MLOAD PUSH2 0x60D SWAP2 SWAP1 PUSH2 0x2B41 JUMP JUMPDEST PUSH1 0x40 MLOAD DUP1 SWAP2 SUB SWAP1 LOG1 POP POP JUMP JUMPDEST PUSH0 PUSH2 0x623 CALLER PUSH2 0xD90 JUMP JUMPDEST SWAP1 POP PUSH32 0x438F6A470F05C56C5A0C349A7C523898B46BC25F3E5B4876CCE605569AF9E92D DUP2 PUSH1 0x40 MLOAD PUSH2 0x654 SWAP2 SWAP1 PUSH2 0x2B88 JUMP JUMPDEST PUSH1 0x40 MLOAD DUP1 SWAP2 SUB SWAP1 LOG1 POP JUMP JUMPDEST PUSH0 PUSH2 0x668 PUSH2 0xDCD JUMP JUMPDEST SWAP1 POP PUSH0 DUP2 PUSH0 ADD PUSH1 0x8 SWAP1 SLOAD SWAP1 PUSH2 0x100 EXP SWAP1 DIV PUSH1 0xFF AND ISZERO SWAP1 POP PUSH0 DUP3 PUSH0 ADD PUSH0 SWAP1 SLOAD SWAP1 PUSH2 0x100 EXP SWAP1 DIV PUSH8 0xFFFFFFFFFFFFFFFF AND SWAP1 POP PUSH0 DUP1 DUP3 PUSH8 0xFFFFFFFFFFFFFFFF AND EQ DUP1 ISZERO PUSH2 0x6B0 JUMPI POP DUP3 JUMPDEST SWAP1 POP PUSH0 PUSH1 0x1 DUP4 PUSH8 0xFFFFFFFFFFFFFFFF AND EQ DUP1 ISZERO PUSH2 0x6E3 JUMPI POP PUSH0 ADDRESS PUSH20 0xFFFFFFFFFFFFFFFFFFFFFFFFFFFFFFFFFFFFFFFF AND EXTCODESIZE EQ JUMPDEST SWAP1 POP DUP2 ISZERO DUP1 ISZERO PUSH2 0x6F1 JUMPI POP DUP1 ISZERO JUMPDEST ISZERO PUSH2 0x728 JUMPI PUSH1 0x40 MLOAD PUSH32 0xF92EE8A900000000000000000000000000000000000000000000000000000000 DUP2 MSTORE PUSH1 0x4 ADD PUSH1 0x40 MLOAD DUP1 SWAP2 SUB SWAP1 REVERT JUMPDEST PUSH1 0x1 DUP6 PUSH0 ADD PUSH0 PUSH2 0x100 EXP DUP2 SLOAD DUP2 PUSH8 0xFFFFFFFFFFFFFFFF MUL NOT AND SWAP1 DUP4 PUSH8 0xFFFFFFFFFFFFFFFF AND MUL OR SWAP1 SSTORE POP DUP4 ISZERO PUSH2 0x775 JUMPI PUSH1 0x1 DUP6 PUSH0 ADD PUSH1 0x8 PUSH2 0x100 EXP DUP2 SLOAD DUP2 PUSH1 0xFF MUL NOT AND SWAP1 DUP4 ISZERO ISZERO MUL OR SWAP1 SSTORE POP JUMPDEST PUSH2 0x77E DUP7 PUSH2 0xDE0 JUMP JUMPDEST DUP4 ISZERO PUSH2 0x7D8 JUMPI PUSH0 DUP6 PUSH0 ADD PUSH1 0x8 PUSH2 0x100 EXP DUP2 SLOAD DUP2 PUSH1 0xFF MUL NOT AND SWAP1 DUP4 ISZERO ISZERO MUL OR SWAP1 SSTORE POP PUSH32 0xC7F505B2F371AE2175EE4913F4499E1F2633A7B5936321EED1CDAEB6115181D2 PUSH1 0x1 PUSH1 0x40 MLOAD PUSH2 0x7CF SWAP2 SWAP1 PUSH2 0x2BEA JUMP JUMPDEST PUSH1 0x40 MLOAD DUP1 SWAP2 SUB SWAP1 LOG1 JUMPDEST POP POP POP POP POP POP JUMP JUMPDEST PUSH0 DUP1 PUSH2 0x7EA PUSH2 0xDF4 JUMP JUMPDEST SWAP1 POP DUP1 PUSH0 ADD PUSH0 SWAP1 SLOAD SWAP1 PUSH2 0x100 EXP SWAP1 DIV PUSH20 0xFFFFFFFFFFFFFFFFFFFFFFFFFFFFFFFFFFFFFFFF AND SWAP2 POP POP SWAP1 JUMP JUMPDEST PUSH2 0x81D PUSH2 0x9F6 JUMP JUMPDEST PUSH0 PUSH2 0x826 PUSH2 0xDF4 JUMP JUMPDEST SWAP1 POP DUP2 DUP2 PUSH0 ADD PUSH0 PUSH2 0x100 EXP DUP2 SLOAD DUP2 PUSH20 0xFFFFFFFFFFFFFFFFFFFFFFFFFFFFFFFFFFFFFFFF MUL NOT AND SWAP1 DUP4 PUSH20 0xFFFFFFFFFFFFFFFFFFFFFFFFFFFFFFFFFFFFFFFF AND MUL OR SWAP1 SSTORE POP DUP2 PUSH20 0xFFFFFFFFFFFFFFFFFFFFFFFFFFFFFFFFFFFFFFFF AND PUSH2 0x888 PUSH2 0x370 JUMP JUMPDEST PUSH20 0xFFFFFFFFFFFFFFFFFFFFFFFFFFFFFFFFFFFFFFFF AND PUSH32 0x38D16B8CAC22D99FC7C124B9CD0DE2D3FA1FAEF420BFE791D8C362D765E22700 PUSH1 0x40 MLOAD PUSH1 0x40 MLOAD DUP1 SWAP2 SUB SWAP1 LOG3 POP POP JUMP JUMPDEST PUSH1 0x60 PUSH0 DUP1 PUSH8 0xFFFFFFFFFFFFFFFF DUP2 GT ISZERO PUSH2 0x8EB JUMPI PUSH2 0x8EA PUSH2 0x2C03 JUMP JUMPDEST JUMPDEST PUSH1 0x40 MLOAD SWAP1 DUP1 DUP3 MSTORE DUP1 PUSH1 0x1F ADD PUSH1 0x1F NOT AND PUSH1 0x20 ADD DUP3 ADD PUSH1 0x40 MSTORE DUP1 ISZERO PUSH2 0x91D JUMPI DUP2 PUSH1 0x20 ADD PUSH1 0x1 DUP3 MUL DUP1 CALLDATASIZE DUP4 CALLDATACOPY DUP1 DUP3 ADD SWAP2 POP POP SWAP1 POP JUMPDEST POP SWAP1 POP PUSH0 PUSH2 0x935 PUSH1 0x7 PUSH4 0x2EA015C PUSH0 DUP6 PUSH0 PUSH1 0x1 PUSH2 0xE1B JUMP JUMPDEST SWAP1 POP PUSH2 0x940 DUP2 PUSH2 0xF3C JUMP JUMPDEST SWAP3 POP POP POP SWAP1 JUMP JUMPDEST PUSH2 0x94F PUSH2 0x269A JUMP JUMPDEST PUSH0 PUSH2 0x959 DUP4 PUSH2 0xF65 JUMP JUMPDEST SWAP1 POP PUSH1 0x40 MLOAD DUP1 PUSH1 0x20 ADD PUSH1 0x40 MSTORE DUP1 DUP3 PUSH0 ADD MLOAD PUSH1 0x40 MLOAD PUSH1 0x20 ADD PUSH2 0x97A SWAP2 SWAP1 PUSH2 0x2C94 JUMP JUMPDEST PUSH1 0x40 MLOAD PUSH1 0x20 DUP2 DUP4 SUB SUB DUP2 MSTORE SWAP1 PUSH1 0x40 MSTORE DUP2 MSTORE POP SWAP2 POP POP SWAP2 SWAP1 POP JUMP JUMPDEST PUSH0 PUSH2 0x99E DUP3 PUSH2 0xFDB JUMP JUMPDEST SWAP1 POP PUSH0 PUSH2 0x9B5 PUSH1 0x6 PUSH4 0xE96CC6F0 PUSH1 0x51 DUP6 PUSH0 DUP1 PUSH2 0xE1B JUMP JUMPDEST SWAP1 POP PUSH0 DUP2 MLOAD EQ PUSH2 0x9F1 JUMPI PUSH1 0x40 MLOAD PUSH32 0xE74990700000000000000000000000000000000000000000000000000000000 DUP2 MSTORE PUSH1 0x4 ADD PUSH1 0x40 MLOAD DUP1 SWAP2 SUB SWAP1 REVERT JUMPDEST POP POP POP JUMP JUMPDEST PUSH2 0x9FE PUSH2 0xABA JUMP JUMPDEST PUSH20 0xFFFFFFFFFFFFFFFFFFFFFFFFFFFFFFFFFFFFFFFF AND PUSH2 0xA1C PUSH2 0x370 JUMP JUMPDEST PUSH20 0xFFFFFFFFFFFFFFFFFFFFFFFFFFFFFFFFFFFFFFFF AND EQ PUSH2 0xA7B JUMPI PUSH2 0xA3F PUSH2 0xABA JUMP JUMPDEST PUSH1 0x40 MLOAD PUSH32 0x118CDAA700000000000000000000000000000000000000000000000000000000 DUP2 MSTORE PUSH1 0x4 ADD PUSH2 0xA72 SWAP2 SWAP1 PUSH2 0x27FE JUMP JUMPDEST PUSH1 0x40 MLOAD DUP1 SWAP2 SUB SWAP1 REVERT JUMPDEST JUMP JUMPDEST PUSH0 PUSH2 0xA86 PUSH2 0xDF4 JUMP JUMPDEST SWAP1 POP DUP1 PUSH0 ADD PUSH0 PUSH2 0x100 EXP DUP2 SLOAD SWAP1 PUSH20 0xFFFFFFFFFFFFFFFFFFFFFFFFFFFFFFFFFFFFFFFF MUL NOT AND SWAP1 SSTORE PUSH2 0xAB6 DUP3 PUSH2 0x1096 JUMP JUMPDEST POP POP JUMP JUMPDEST PUSH0 CALLER SWAP1 POP SWAP1 JUMP JUMPDEST PUSH0 PUSH32 0x9016D09D72D40FDAE2FD8CEAC6B6234C7706214FD39C1CD1E609A0528C199300 SWAP1 POP SWAP1 JUMP JUMPDEST PUSH2 0xAF0 PUSH2 0x269A JUMP JUMPDEST PUSH0 PUSH1 0x40 MLOAD DUP1 PUSH1 0x20 ADD PUSH1 0x40 MSTORE DUP1 DUP5 DUP2 MSTORE POP SWAP1 POP PUSH2 0xB0B DUP2 PUSH2 0x1167 JUMP JUMPDEST PUSH2 0xB41 JUMPI PUSH1 0x40 MLOAD PUSH32 0xE6C4247B00000000000000000000000000000000000000000000000000000000 DUP2 MSTORE PUSH1 0x4 ADD PUSH1 0x40 MLOAD DUP1 SWAP2 SUB SWAP1 REVERT JUMPDEST DUP1 SWAP2 POP POP SWAP2 SWAP1 POP JUMP JUMPDEST PUSH2 0xB52 PUSH2 0x26AD JUMP JUMPDEST PUSH0 PUSH2 0xB5C DUP4 PUSH2 0x133C JUMP JUMPDEST SWAP1 POP PUSH0 PUSH2 0xB74 PUSH1 0x7 PUSH4 0xC26DDBD5 PUSH1 0x51 DUP6 PUSH0 PUSH1 0x1 PUSH2 0xE1B JUMP JUMPDEST SWAP1 POP PUSH2 0xB7F DUP2 PUSH2 0x1381 JUMP JUMPDEST SWAP3 POP POP POP SWAP2 SWAP1 POP JUMP JUMPDEST PUSH0 DUP1 DUP3 PUSH1 0x20 ADD MLOAD ISZERO PUSH2 0xBC6 JUMPI PUSH1 0x40 MLOAD PUSH32 0x83041CEA00000000000000000000000000000000000000000000000000000000 DUP2 MSTORE PUSH1 0x4 ADD PUSH1 0x40 MLOAD DUP1 SWAP2 SUB SWAP1 REVERT JUMPDEST PUSH0 PUSH20 0x0 PUSH4 0x40957F72 PUSH32 0xFFFFFFFFFFFFFFFFFFFFFFFFFFFFFFFFFFFFFFFFFFFFFFFFFFFFFFFFFFFFFFFF PUSH0 PUSH1 0x40 MLOAD DUP4 PUSH4 0xFFFFFFFF AND PUSH1 0xE0 SHL DUP2 MSTORE PUSH1 0x4 ADD PUSH2 0xC20 SWAP3 SWAP2 SWAP1 PUSH2 0x2CD3 JUMP JUMPDEST PUSH0 PUSH1 0x40 MLOAD DUP1 DUP4 SUB DUP2 DUP7 GAS DELEGATECALL ISZERO DUP1 ISZERO PUSH2 0xC3A JUMPI RETURNDATASIZE PUSH0 DUP1 RETURNDATACOPY RETURNDATASIZE PUSH0 REVERT JUMPDEST POP POP POP POP PUSH1 0x40 MLOAD RETURNDATASIZE PUSH0 DUP3 RETURNDATACOPY RETURNDATASIZE PUSH1 0x1F NOT PUSH1 0x1F DUP3 ADD AND DUP3 ADD DUP1 PUSH1 0x40 MSTORE POP DUP2 ADD SWAP1 PUSH2 0xC62 SWAP2 SWAP1 PUSH2 0x2EAA JUMP JUMPDEST SWAP1 POP PUSH0 PUSH20 0x0 PUSH4 0xF33D5856 DUP7 PUSH0 ADD MLOAD DUP8 PUSH1 0x20 ADD MLOAD PUSH1 0x40 MLOAD DUP4 PUSH4 0xFFFFFFFF AND PUSH1 0xE0 SHL DUP2 MSTORE PUSH1 0x4 ADD PUSH2 0xCA5 SWAP3 SWAP2 SWAP1 PUSH2 0x2F39 JUMP JUMPDEST PUSH0 PUSH1 0x40 MLOAD DUP1 DUP4 SUB DUP2 DUP7 GAS DELEGATECALL ISZERO DUP1 ISZERO PUSH2 0xCBF JUMPI RETURNDATASIZE PUSH0 DUP1 RETURNDATACOPY RETURNDATASIZE PUSH0 REVERT JUMPDEST POP POP POP POP PUSH1 0x40 MLOAD RETURNDATASIZE PUSH0 DUP3 RETURNDATACOPY RETURNDATASIZE PUSH1 0x1F NOT PUSH1 0x1F DUP3 ADD AND DUP3 ADD DUP1 PUSH1 0x40 MSTORE POP DUP2 ADD SWAP1 PUSH2 0xCE7 SWAP2 SWAP1 PUSH2 0x2EAA JUMP JUMPDEST SWAP1 POP PUSH20 0x0 PUSH4 0xAA7312F6 DUP3 DUP5 PUSH1 0x40 MLOAD DUP4 PUSH4 0xFFFFFFFF AND PUSH1 0xE0 SHL DUP2 MSTORE PUSH1 0x4 ADD PUSH2 0xD22 SWAP3 SWAP2 SWAP1 PUSH2 0x301A JUMP JUMPDEST PUSH1 0x20 PUSH1 0x40 MLOAD DUP1 DUP4 SUB DUP2 DUP7 GAS DELEGATECALL ISZERO DUP1 ISZERO PUSH2 0xD3D JUMPI RETURNDATASIZE PUSH0 DUP1 RETURNDATACOPY RETURNDATASIZE PUSH0 REVERT JUMPDEST POP POP POP POP PUSH1 0x40 MLOAD RETURNDATASIZE PUSH1 0x1F NOT PUSH1 0x1F DUP3 ADD AND DUP3 ADD DUP1 PUSH1 0x40 MSTORE POP DUP2 ADD SWAP1 PUSH2 0xD61 SWAP2 SWAP1 PUSH2 0x304F JUMP JUMPDEST ISZERO PUSH2 0xD74 JUMPI PUSH0 PUSH1 0x1 SWAP4 POP SWAP4 POP POP POP PUSH2 0xD8B JUMP JUMPDEST DUP1 PUSH0 ADD MLOAD PUSH2 0xD81 SWAP1 PUSH2 0x30B2 JUMP JUMPDEST PUSH0 SHR PUSH0 SWAP4 POP SWAP4 POP POP POP JUMPDEST SWAP2 POP SWAP2 JUMP JUMPDEST PUSH2 0xD98 PUSH2 0x269A JUMP JUMPDEST PUSH1 0x40 MLOAD DUP1 PUSH1 0x20 ADD PUSH1 0x40 MSTORE DUP1 DUP4 PUSH1 0x40 MLOAD PUSH1 0x20 ADD PUSH2 0xDB4 SWAP2 SWAP1 PUSH2 0x31A7 JUMP JUMPDEST PUSH1 0x40 MLOAD PUSH1 0x20 DUP2 DUP4 SUB SUB DUP2 MSTORE SWAP1 PUSH1 0x40 MSTORE DUP2 MSTORE POP SWAP1 POP SWAP2 SWAP1 POP JUMP JUMPDEST PUSH0 DUP1 PUSH2 0xDD7 PUSH2 0x1439 JUMP JUMPDEST SWAP1 POP DUP1 SWAP2 POP POP SWAP1 JUMP JUMPDEST PUSH2 0xDE8 PUSH2 0x1462 JUMP JUMPDEST PUSH2 0xDF1 DUP2 PUSH2 0x14A2 JUMP JUMPDEST POP JUMP JUMPDEST PUSH0 PUSH32 0x237E158222E3E6968B72B9DB0D8043AACF074AD9F650F0D1606B4D82EE432C00 SWAP1 POP SWAP1 JUMP JUMPDEST PUSH1 0x60 PUSH2 0xE3B PUSH20 0xFE00000000000000000000000000000000000005 DUP5 PUSH2 0x1526 JUMP JUMPDEST PUSH0 DUP1 PUSH20 0xFE00000000000000000000000000000000000005 PUSH20 0xFFFFFFFFFFFFFFFFFFFFFFFFFFFFFFFFFFFFFFFF AND DUP9 DUP7 DUP7 PUSH2 0xE75 JUMPI PUSH0 PUSH2 0xE78 JUMP JUMPDEST PUSH1 0x1 JUMPDEST DUP11 DUP11 DUP15 PUSH1 0x40 MLOAD PUSH1 0x20 ADD PUSH2 0xE90 SWAP7 SWAP6 SWAP5 SWAP4 SWAP3 SWAP2 SWAP1 PUSH2 0x3253 JUMP JUMPDEST PUSH1 0x40 MLOAD PUSH1 0x20 DUP2 DUP4 SUB SUB DUP2 MSTORE SWAP1 PUSH1 0x40 MSTORE PUSH1 0x40 MLOAD PUSH2 0xEAC SWAP2 SWAP1 PUSH2 0x32B9 JUMP JUMPDEST PUSH0 PUSH1 0x40 MLOAD DUP1 DUP4 SUB DUP2 DUP6 GAS DELEGATECALL SWAP2 POP POP RETURNDATASIZE DUP1 PUSH0 DUP2 EQ PUSH2 0xEE4 JUMPI PUSH1 0x40 MLOAD SWAP2 POP PUSH1 0x1F NOT PUSH1 0x3F RETURNDATASIZE ADD AND DUP3 ADD PUSH1 0x40 MSTORE RETURNDATASIZE DUP3 MSTORE RETURNDATASIZE PUSH0 PUSH1 0x20 DUP5 ADD RETURNDATACOPY PUSH2 0xEE9 JUMP JUMPDEST PUSH1 0x60 SWAP2 POP JUMPDEST POP SWAP2 POP SWAP2 POP DUP2 PUSH2 0xF25 JUMPI PUSH1 0x40 MLOAD PUSH32 0x8A7DB5BF00000000000000000000000000000000000000000000000000000000 DUP2 MSTORE PUSH1 0x4 ADD PUSH1 0x40 MLOAD DUP1 SWAP2 SUB SWAP1 REVERT JUMPDEST PUSH2 0xF2E DUP2 PUSH2 0x15BA JUMP JUMPDEST SWAP3 POP POP POP SWAP7 SWAP6 POP POP POP POP POP POP JUMP JUMPDEST PUSH1 0x60 DUP1 PUSH0 PUSH2 0xF53 DUP2 DUP6 PUSH2 0x173B SWAP1 SWAP2 SWAP1 PUSH4 0xFFFFFFFF AND JUMP JUMPDEST DUP1 SWAP3 POP DUP2 SWAP4 POP POP POP DUP2 SWAP3 POP POP POP SWAP2 SWAP1 POP JUMP JUMPDEST PUSH2 0xF6D PUSH2 0x26C8 JUMP JUMPDEST JUMPDEST PUSH1 0x1 ISZERO PUSH2 0xFD5 JUMPI PUSH0 PUSH1 0x7F DUP4 AND SWAP1 POP PUSH1 0x7 DUP4 PUSH8 0xFFFFFFFFFFFFFFFF AND SWAP1 SHR SWAP3 POP PUSH0 DUP4 PUSH8 0xFFFFFFFFFFFFFFFF AND SUB PUSH2 0xFB8 JUMPI PUSH2 0xFB1 DUP2 DUP4 PUSH2 0x18B1 SWAP1 SWAP2 SWAP1 PUSH4 0xFFFFFFFF AND JUMP JUMPDEST POP POP PUSH2 0xFD6 JUMP JUMPDEST PUSH2 0xFCE PUSH1 0x80 DUP3 OR DUP4 PUSH2 0x18B1 SWAP1 SWAP2 SWAP1 PUSH4 0xFFFFFFFF AND JUMP JUMPDEST POP POP PUSH2 0xF6E JUMP JUMPDEST JUMPDEST SWAP2 SWAP1 POP JUMP JUMPDEST PUSH1 0x60 PUSH0 DUP1 PUSH2 0xFEC DUP5 PUSH1 0x20 ADD MLOAD PUSH2 0x1918 JUMP JUMPDEST SWAP1 POP PUSH2 0xFF8 PUSH1 0x2 PUSH2 0x1A75 JUMP JUMPDEST DUP3 PUSH2 0x1003 SWAP2 SWAP1 PUSH2 0x32FC JUMP JUMPDEST SWAP2 POP PUSH2 0x1014 DUP5 PUSH0 ADD MLOAD PUSH0 ADD MLOAD PUSH2 0x1AC8 JUMP JUMPDEST DUP3 PUSH2 0x101F SWAP2 SWAP1 PUSH2 0x32FC JUMP JUMPDEST SWAP2 POP PUSH2 0x102A DUP2 PUSH2 0x1AC8 JUMP JUMPDEST DUP3 PUSH2 0x1035 SWAP2 SWAP1 PUSH2 0x32FC JUMP JUMPDEST SWAP2 POP PUSH0 PUSH2 0x1041 DUP4 PUSH2 0x1AE6 JUMP JUMPDEST SWAP1 POP PUSH2 0x1057 PUSH1 0x2 DUP3 PUSH2 0x1B0B SWAP1 SWAP2 SWAP1 PUSH4 0xFFFFFFFF AND JUMP JUMPDEST PUSH2 0x1070 DUP6 PUSH0 ADD MLOAD PUSH0 ADD MLOAD DUP3 PUSH2 0x1B1B SWAP1 SWAP2 SWAP1 PUSH4 0xFFFFFFFF AND JUMP JUMPDEST PUSH2 0x1083 DUP3 DUP3 PUSH2 0x1B1B SWAP1 SWAP2 SWAP1 PUSH4 0xFFFFFFFF AND JUMP JUMPDEST PUSH2 0x108C DUP2 PUSH2 0x1B43 JUMP JUMPDEST SWAP4 POP POP POP POP SWAP2 SWAP1 POP JUMP JUMPDEST PUSH0 PUSH2 0x109F PUSH2 0xAC1 JUMP JUMPDEST SWAP1 POP PUSH0 DUP2 PUSH0 ADD PUSH0 SWAP1 SLOAD SWAP1 PUSH2 0x100 EXP SWAP1 DIV PUSH20 0xFFFFFFFFFFFFFFFFFFFFFFFFFFFFFFFFFFFFFFFF AND SWAP1 POP DUP3 DUP3 PUSH0 ADD PUSH0 PUSH2 0x100 EXP DUP2 SLOAD DUP2 PUSH20 0xFFFFFFFFFFFFFFFFFFFFFFFFFFFFFFFFFFFFFFFF MUL NOT AND SWAP1 DUP4 PUSH20 0xFFFFFFFFFFFFFFFFFFFFFFFFFFFFFFFFFFFFFFFF AND MUL OR SWAP1 SSTORE POP DUP3 PUSH20 0xFFFFFFFFFFFFFFFFFFFFFFFFFFFFFFFFFFFFFFFF AND DUP2 PUSH20 0xFFFFFFFFFFFFFFFFFFFFFFFFFFFFFFFFFFFFFFFF AND PUSH32 0x8BE0079C531659141344CD1FD0A4F28419497F9722A3DAAFE3B4186F6B6457E0 PUSH1 0x40 MLOAD PUSH1 0x40 MLOAD DUP1 SWAP2 SUB SWAP1 LOG3 POP POP POP JUMP JUMPDEST PUSH0 DUP1 PUSH1 0xF8 SHL DUP3 PUSH0 ADD MLOAD PUSH0 DUP2 MLOAD DUP2 LT PUSH2 0x1182 JUMPI PUSH2 0x1181 PUSH2 0x332F JUMP JUMPDEST JUMPDEST PUSH1 0x20 ADD ADD MLOAD PUSH1 0xF8 SHR PUSH1 0xF8 SHL PUSH31 0xFFFFFFFFFFFFFFFFFFFFFFFFFFFFFFFFFFFFFFFFFFFFFFFFFFFFFFFFFFFFFF NOT AND SUB PUSH2 0x11C4 JUMPI PUSH1 0xA DUP3 PUSH0 ADD MLOAD MLOAD GT ISZERO SWAP1 POP PUSH2 0x1337 JUMP JUMPDEST PUSH1 0x1 PUSH1 0xF8 SHL DUP3 PUSH0 ADD MLOAD PUSH0 DUP2 MLOAD DUP2 LT PUSH2 0x11DF JUMPI PUSH2 0x11DE PUSH2 0x332F JUMP JUMPDEST JUMPDEST PUSH1 0x20 ADD ADD MLOAD PUSH1 0xF8 SHR PUSH1 0xF8 SHL PUSH31 0xFFFFFFFFFFFFFFFFFFFFFFFFFFFFFFFFFFFFFFFFFFFFFFFFFFFFFFFFFFFFFF NOT AND EQ DUP1 PUSH2 0x125D JUMPI POP PUSH1 0x2 PUSH1 0xF8 SHL DUP3 PUSH0 ADD MLOAD PUSH0 DUP2 MLOAD DUP2 LT PUSH2 0x122E JUMPI PUSH2 0x122D PUSH2 0x332F JUMP JUMPDEST JUMPDEST PUSH1 0x20 ADD ADD MLOAD PUSH1 0xF8 SHR PUSH1 0xF8 SHL PUSH31 0xFFFFFFFFFFFFFFFFFFFFFFFFFFFFFFFFFFFFFFFFFFFFFFFFFFFFFFFFFFFFFF NOT AND EQ JUMPDEST ISZERO PUSH2 0x1271 JUMPI PUSH1 0x15 DUP3 PUSH0 ADD MLOAD MLOAD EQ SWAP1 POP PUSH2 0x1337 JUMP JUMPDEST PUSH1 0x3 PUSH1 0xF8 SHL DUP3 PUSH0 ADD MLOAD PUSH0 DUP2 MLOAD DUP2 LT PUSH2 0x128C JUMPI PUSH2 0x128B PUSH2 0x332F JUMP JUMPDEST JUMPDEST PUSH1 0x20 ADD ADD MLOAD PUSH1 0xF8 SHR PUSH1 0xF8 SHL PUSH31 0xFFFFFFFFFFFFFFFFFFFFFFFFFFFFFFFFFFFFFFFFFFFFFFFFFFFFFFFFFFFFFF NOT AND SUB PUSH2 0x12CD JUMPI PUSH1 0x31 DUP3 PUSH0 ADD MLOAD MLOAD EQ SWAP1 POP PUSH2 0x1337 JUMP JUMPDEST PUSH1 0x4 PUSH1 0xF8 SHL DUP3 PUSH0 ADD MLOAD PUSH0 DUP2 MLOAD DUP2 LT PUSH2 0x12E8 JUMPI PUSH2 0x12E7 PUSH2 0x332F JUMP JUMPDEST JUMPDEST PUSH1 0x20 ADD ADD MLOAD PUSH1 0xF8 SHR PUSH1 0xF8 SHL PUSH31 0xFFFFFFFFFFFFFFFFFFFFFFFFFFFFFFFFFFFFFFFFFFFFFFFFFFFFFFFFFFFFFF NOT AND SUB PUSH2 0x132A JUMPI PUSH1 0x40 DUP3 PUSH0 ADD MLOAD MLOAD GT ISZERO SWAP1 POP PUSH2 0x1337 JUMP JUMPDEST PUSH2 0x100 DUP3 PUSH0 ADD MLOAD MLOAD GT ISZERO SWAP1 POP JUMPDEST SWAP2 SWAP1 POP JUMP JUMPDEST PUSH1 0x60 PUSH0 PUSH2 0x134B DUP4 PUSH0 ADD MLOAD PUSH2 0x1AC8 JUMP JUMPDEST SWAP1 POP PUSH0 PUSH2 0x1357 DUP3 PUSH2 0x1AE6 JUMP JUMPDEST SWAP1 POP PUSH2 0x136F DUP5 PUSH0 ADD MLOAD DUP3 PUSH2 0x1B1B SWAP1 SWAP2 SWAP1 PUSH4 0xFFFFFFFF AND JUMP JUMPDEST PUSH2 0x1378 DUP2 PUSH2 0x1B43 JUMP JUMPDEST SWAP3 POP POP POP SWAP2 SWAP1 POP JUMP JUMPDEST PUSH2 0x1389 PUSH2 0x26AD JUMP JUMPDEST PUSH1 0x60 PUSH0 DUP1 DUP5 MLOAD GT ISZERO PUSH2 0x13CC JUMPI PUSH2 0x13A8 DUP2 DUP6 PUSH2 0x1B99 SWAP1 SWAP2 SWAP1 PUSH4 0xFFFFFFFF AND JUMP JUMPDEST DUP1 SWAP3 POP DUP2 SWAP4 POP POP POP PUSH0 DUP3 MLOAD GT ISZERO PUSH2 0x13CB JUMPI PUSH2 0x13C2 DUP3 PUSH2 0x1D69 JUMP JUMPDEST SWAP3 POP POP POP PUSH2 0x1434 JUMP JUMPDEST JUMPDEST PUSH1 0x40 MLOAD DUP1 PUSH1 0x40 ADD PUSH1 0x40 MSTORE DUP1 PUSH0 PUSH8 0xFFFFFFFFFFFFFFFF DUP2 GT ISZERO PUSH2 0x13F1 JUMPI PUSH2 0x13F0 PUSH2 0x2C03 JUMP JUMPDEST JUMPDEST PUSH1 0x40 MLOAD SWAP1 DUP1 DUP3 MSTORE DUP1 PUSH1 0x1F ADD PUSH1 0x1F NOT AND PUSH1 0x20 ADD DUP3 ADD PUSH1 0x40 MSTORE DUP1 ISZERO PUSH2 0x1423 JUMPI DUP2 PUSH1 0x20 ADD PUSH1 0x1 DUP3 MUL DUP1 CALLDATASIZE DUP4 CALLDATACOPY DUP1 DUP3 ADD SWAP2 POP POP SWAP1 POP JUMPDEST POP DUP2 MSTORE PUSH1 0x20 ADD PUSH0 ISZERO ISZERO DUP2 MSTORE POP SWAP3 POP POP POP JUMPDEST SWAP2 SWAP1 POP JUMP JUMPDEST PUSH0 PUSH32 0xF0C57E16840DF040F15088DC2F81FE391C3923BEC73E23A9662EFC9C229C6A00 PUSH0 SHL SWAP1 POP SWAP1 JUMP JUMPDEST PUSH2 0x146A PUSH2 0x1F02 JUMP JUMPDEST PUSH2 0x14A0 JUMPI PUSH1 0x40 MLOAD PUSH32 0xD7E6BCF800000000000000000000000000000000000000000000000000000000 DUP2 MSTORE PUSH1 0x4 ADD PUSH1 0x40 MLOAD DUP1 SWAP2 SUB SWAP1 REVERT JUMPDEST JUMP JUMPDEST PUSH2 0x14AA PUSH2 0x1462 JUMP JUMPDEST PUSH0 PUSH20 0xFFFFFFFFFFFFFFFFFFFFFFFFFFFFFFFFFFFFFFFF AND DUP2 PUSH20 0xFFFFFFFFFFFFFFFFFFFFFFFFFFFFFFFFFFFFFFFF AND SUB PUSH2 0x151A JUMPI PUSH0 PUSH1 0x40 MLOAD PUSH32 0x1E4FBDF700000000000000000000000000000000000000000000000000000000 DUP2 MSTORE PUSH1 0x4 ADD PUSH2 0x1511 SWAP2 SWAP1 PUSH2 0x27FE JUMP JUMPDEST PUSH1 0x40 MLOAD DUP1 SWAP2 SUB SWAP1 REVERT JUMPDEST PUSH2 0x1523 DUP2 PUSH2 0xA7D JUMP JUMPDEST POP JUMP JUMPDEST PUSH0 SELFBALANCE SWAP1 POP DUP2 DUP2 LT ISZERO PUSH2 0x1571 JUMPI DUP1 DUP3 PUSH1 0x40 MLOAD PUSH32 0x8F0F420600000000000000000000000000000000000000000000000000000000 DUP2 MSTORE PUSH1 0x4 ADD PUSH2 0x1568 SWAP3 SWAP2 SWAP1 PUSH2 0x335C JUMP JUMPDEST PUSH1 0x40 MLOAD DUP1 SWAP2 SUB SWAP1 REVERT JUMPDEST PUSH0 PUSH2 0x157B DUP5 PUSH2 0x1F20 JUMP JUMPDEST SWAP1 POP DUP1 PUSH2 0x15B4 JUMPI PUSH1 0x40 MLOAD PUSH32 0x64D954B000000000000000000000000000000000000000000000000000000000 DUP2 MSTORE PUSH1 0x4 ADD PUSH1 0x40 MLOAD DUP1 SWAP2 SUB SWAP1 REVERT JUMPDEST POP POP POP POP JUMP JUMPDEST PUSH1 0x60 PUSH0 DUP1 PUSH0 DUP5 DUP1 PUSH1 0x20 ADD SWAP1 MLOAD DUP2 ADD SWAP1 PUSH2 0x15D3 SWAP2 SWAP1 PUSH2 0x33CA JUMP JUMPDEST SWAP3 POP SWAP3 POP SWAP3 POP PUSH0 PUSH8 0xFFFFFFFFFFFFFFFF AND DUP3 PUSH8 0xFFFFFFFFFFFFFFFF AND SUB PUSH2 0x1633 JUMPI PUSH0 DUP2 MLOAD EQ PUSH2 0x162E JUMPI PUSH1 0x40 MLOAD PUSH32 0xE74990700000000000000000000000000000000000000000000000000000000 DUP2 MSTORE PUSH1 0x4 ADD PUSH1 0x40 MLOAD DUP1 SWAP2 SUB SWAP1 REVERT JUMPDEST PUSH2 0x16EC JUMP JUMPDEST PUSH1 0x51 PUSH8 0xFFFFFFFFFFFFFFFF AND DUP3 PUSH8 0xFFFFFFFFFFFFFFFF AND EQ DUP1 PUSH2 0x166A JUMPI POP PUSH1 0x71 PUSH8 0xFFFFFFFFFFFFFFFF AND DUP3 PUSH8 0xFFFFFFFFFFFFFFFF AND EQ JUMPDEST ISZERO PUSH2 0x16AE JUMPI PUSH0 DUP2 MLOAD SUB PUSH2 0x16A9 JUMPI PUSH1 0x40 MLOAD PUSH32 0xE74990700000000000000000000000000000000000000000000000000000000 DUP2 MSTORE PUSH1 0x4 ADD PUSH1 0x40 MLOAD DUP1 SWAP2 SUB SWAP1 REVERT JUMPDEST PUSH2 0x16EB JUMP JUMPDEST DUP2 PUSH1 0x40 MLOAD PUSH32 0xF1F6BCED00000000000000000000000000000000000000000000000000000000 DUP2 MSTORE PUSH1 0x4 ADD PUSH2 0x16E2 SWAP2 SWAP1 PUSH2 0x3436 JUMP JUMPDEST PUSH1 0x40 MLOAD DUP1 SWAP2 SUB SWAP1 REVERT JUMPDEST JUMPDEST PUSH0 DUP4 EQ PUSH2 0x1730 JUMPI DUP3 PUSH1 0x40 MLOAD PUSH32 0xD4BB667100000000000000000000000000000000000000000000000000000000 DUP2 MSTORE PUSH1 0x4 ADD PUSH2 0x1727 SWAP2 SWAP1 PUSH2 0x345E JUMP JUMPDEST PUSH1 0x40 MLOAD DUP1 SWAP2 SUB SWAP1 REVERT JUMPDEST DUP1 SWAP4 POP POP POP POP SWAP2 SWAP1 POP JUMP JUMPDEST PUSH1 0x60 PUSH0 DUP1 PUSH0 PUSH2 0x174A DUP7 DUP7 PUSH2 0x1F34 JUMP JUMPDEST DUP2 PUSH8 0xFFFFFFFFFFFFFFFF AND SWAP2 POP DUP1 SWAP8 POP DUP2 SWAP4 POP DUP3 SWAP5 POP POP POP POP PUSH1 0x3 PUSH1 0xFF AND DUP3 PUSH1 0xFF AND EQ PUSH2 0x17AC JUMPI PUSH1 0x40 MLOAD PUSH32 0x8C379A000000000000000000000000000000000000000000000000000000000 DUP2 MSTORE PUSH1 0x4 ADD PUSH2 0x17A3 SWAP1 PUSH2 0x34E7 JUMP JUMPDEST PUSH1 0x40 MLOAD DUP1 SWAP2 SUB SWAP1 REVERT JUMPDEST PUSH0 DUP2 DUP7 PUSH2 0x17B9 SWAP2 SWAP1 PUSH2 0x32FC JUMP JUMPDEST SWAP1 POP PUSH0 DUP3 PUSH8 0xFFFFFFFFFFFFFFFF DUP2 GT ISZERO PUSH2 0x17D6 JUMPI PUSH2 0x17D5 PUSH2 0x2C03 JUMP JUMPDEST JUMPDEST PUSH1 0x40 MLOAD SWAP1 DUP1 DUP3 MSTORE DUP1 PUSH1 0x1F ADD PUSH1 0x1F NOT AND PUSH1 0x20 ADD DUP3 ADD PUSH1 0x40 MSTORE DUP1 ISZERO PUSH2 0x1808 JUMPI DUP2 PUSH1 0x20 ADD PUSH1 0x1 DUP3 MUL DUP1 CALLDATASIZE DUP4 CALLDATACOPY DUP1 DUP3 ADD SWAP2 POP POP SWAP1 POP JUMPDEST POP SWAP1 POP PUSH0 DUP1 DUP9 SWAP1 POP JUMPDEST DUP4 DUP2 LT ISZERO PUSH2 0x1893 JUMPI DUP10 DUP2 DUP2 MLOAD DUP2 LT PUSH2 0x182C JUMPI PUSH2 0x182B PUSH2 0x332F JUMP JUMPDEST JUMPDEST PUSH1 0x20 ADD ADD MLOAD PUSH1 0xF8 SHR PUSH1 0xF8 SHL DUP4 DUP4 DUP2 MLOAD DUP2 LT PUSH2 0x184A JUMPI PUSH2 0x1849 PUSH2 0x332F JUMP JUMPDEST JUMPDEST PUSH1 0x20 ADD ADD SWAP1 PUSH31 0xFFFFFFFFFFFFFFFFFFFFFFFFFFFFFFFFFFFFFFFFFFFFFFFFFFFFFFFFFFFFFF NOT AND SWAP1 DUP2 PUSH0 BYTE SWAP1 MSTORE8 POP DUP2 DUP1 PUSH2 0x1883 SWAP1 PUSH2 0x3505 JUMP JUMPDEST SWAP3 POP POP DUP1 DUP1 PUSH1 0x1 ADD SWAP2 POP POP PUSH2 0x1811 JUMP JUMPDEST POP DUP2 DUP5 DUP10 PUSH2 0x18A1 SWAP2 SWAP1 PUSH2 0x32FC JUMP JUMPDEST SWAP7 POP SWAP7 POP POP POP POP POP POP SWAP3 POP SWAP3 SWAP1 POP JUMP JUMPDEST PUSH2 0x18B9 PUSH2 0x26C8 JUMP JUMPDEST PUSH0 DUP4 PUSH0 ADD MLOAD MLOAD SWAP1 POP PUSH0 PUSH1 0x1 DUP3 PUSH2 0x18CF SWAP2 SWAP1 PUSH2 0x32FC JUMP JUMPDEST SWAP1 POP DUP5 PUSH1 0x20 ADD MLOAD DUP3 LT PUSH2 0x18F3 JUMPI PUSH2 0x18F2 DUP6 PUSH1 0x2 DUP4 PUSH2 0x18ED SWAP2 SWAP1 PUSH2 0x354C JUMP JUMPDEST PUSH2 0x211E JUMP JUMPDEST JUMPDEST DUP5 MLOAD PUSH1 0x20 DUP4 DUP3 ADD ADD DUP6 DUP2 MSTORE8 DUP2 MLOAD DUP4 GT ISZERO PUSH2 0x190B JUMPI DUP3 DUP3 MSTORE JUMPDEST POP POP DUP5 SWAP3 POP POP POP SWAP3 SWAP2 POP POP JUMP JUMPDEST PUSH1 0x60 PUSH0 PUSH1 0x1 DUP4 PUSH0 ADD MLOAD MLOAD PUSH2 0x192C SWAP2 SWAP1 PUSH2 0x32FC JUMP JUMPDEST PUSH8 0xFFFFFFFFFFFFFFFF DUP2 GT ISZERO PUSH2 0x1945 JUMPI PUSH2 0x1944 PUSH2 0x2C03 JUMP JUMPDEST JUMPDEST PUSH1 0x40 MLOAD SWAP1 DUP1 DUP3 MSTORE DUP1 PUSH1 0x1F ADD PUSH1 0x1F NOT AND PUSH1 0x20 ADD DUP3 ADD PUSH1 0x40 MSTORE DUP1 ISZERO PUSH2 0x1977 JUMPI DUP2 PUSH1 0x20 ADD PUSH1 0x1 DUP3 MUL DUP1 CALLDATASIZE DUP4 CALLDATACOPY DUP1 DUP3 ADD SWAP2 POP POP SWAP1 POP JUMPDEST POP SWAP1 POP PUSH1 0x1 ISZERO ISZERO DUP4 PUSH1 0x20 ADD MLOAD ISZERO ISZERO EQ PUSH2 0x1993 JUMPI PUSH0 PUSH1 0xF8 SHL PUSH2 0x1999 JUMP JUMPDEST PUSH1 0x1 PUSH1 0xF8 SHL JUMPDEST DUP2 PUSH0 DUP2 MLOAD DUP2 LT PUSH2 0x19AC JUMPI PUSH2 0x19AB PUSH2 0x332F JUMP JUMPDEST JUMPDEST PUSH1 0x20 ADD ADD SWAP1 PUSH31 0xFFFFFFFFFFFFFFFFFFFFFFFFFFFFFFFFFFFFFFFFFFFFFFFFFFFFFFFFFFFFFF NOT AND SWAP1 DUP2 PUSH0 BYTE SWAP1 MSTORE8 POP PUSH0 PUSH1 0x1 SWAP1 POP PUSH0 JUMPDEST DUP5 PUSH0 ADD MLOAD MLOAD DUP2 LT ISZERO PUSH2 0x1A6A JUMPI DUP5 PUSH0 ADD MLOAD DUP2 DUP2 MLOAD DUP2 LT PUSH2 0x1A03 JUMPI PUSH2 0x1A02 PUSH2 0x332F JUMP JUMPDEST JUMPDEST PUSH1 0x20 ADD ADD MLOAD PUSH1 0xF8 SHR PUSH1 0xF8 SHL DUP4 DUP4 DUP2 MLOAD DUP2 LT PUSH2 0x1A21 JUMPI PUSH2 0x1A20 PUSH2 0x332F JUMP JUMPDEST JUMPDEST PUSH1 0x20 ADD ADD SWAP1 PUSH31 0xFFFFFFFFFFFFFFFFFFFFFFFFFFFFFFFFFFFFFFFFFFFFFFFFFFFFFFFFFFFFFF NOT AND SWAP1 DUP2 PUSH0 BYTE SWAP1 MSTORE8 POP DUP2 DUP1 PUSH2 0x1A5A SWAP1 PUSH2 0x3505 JUMP JUMPDEST SWAP3 POP POP DUP1 DUP1 PUSH1 0x1 ADD SWAP2 POP POP PUSH2 0x19E1 JUMP JUMPDEST POP DUP2 SWAP3 POP POP POP SWAP2 SWAP1 POP JUMP JUMPDEST PUSH0 PUSH1 0x17 DUP3 GT PUSH2 0x1A87 JUMPI PUSH1 0x1 SWAP1 POP PUSH2 0x1AC3 JUMP JUMPDEST PUSH1 0xFF DUP3 GT PUSH2 0x1A98 JUMPI PUSH1 0x2 SWAP1 POP PUSH2 0x1AC3 JUMP JUMPDEST PUSH2 0xFFFF DUP3 GT PUSH2 0x1AAA JUMPI PUSH1 0x3 SWAP1 POP PUSH2 0x1AC3 JUMP JUMPDEST PUSH4 0xFFFFFFFF DUP3 GT PUSH2 0x1ABE JUMPI PUSH1 0x5 SWAP1 POP PUSH2 0x1AC3 JUMP JUMPDEST PUSH1 0x9 SWAP1 POP JUMPDEST SWAP2 SWAP1 POP JUMP JUMPDEST PUSH0 DUP2 MLOAD PUSH2 0x1AD5 DUP4 MLOAD PUSH2 0x1A75 JUMP JUMPDEST PUSH2 0x1ADF SWAP2 SWAP1 PUSH2 0x32FC JUMP JUMPDEST SWAP1 POP SWAP2 SWAP1 POP JUMP JUMPDEST PUSH2 0x1AEE PUSH2 0x26E1 JUMP JUMPDEST PUSH2 0x1AFB DUP2 PUSH0 ADD MLOAD DUP4 PUSH2 0x2140 JUMP JUMPDEST POP PUSH0 DUP2 PUSH1 0x20 ADD DUP2 DUP2 MSTORE POP POP SWAP2 SWAP1 POP JUMP JUMPDEST PUSH2 0x1B17 DUP3 PUSH1 0x4 DUP4 PUSH2 0x21B6 JUMP JUMPDEST POP POP JUMP JUMPDEST PUSH2 0x1B28 DUP3 PUSH1 0x2 DUP4 MLOAD PUSH2 0x21C6 JUMP JUMPDEST PUSH2 0x1B3E DUP2 DUP4 PUSH0 ADD MLOAD PUSH2 0x2366 SWAP1 SWAP2 SWAP1 PUSH4 0xFFFFFFFF AND JUMP JUMPDEST POP POP POP JUMP JUMPDEST PUSH1 0x60 PUSH0 DUP3 PUSH1 0x20 ADD MLOAD EQ PUSH2 0x1B8B JUMPI PUSH1 0x40 MLOAD PUSH32 0x8C379A000000000000000000000000000000000000000000000000000000000 DUP2 MSTORE PUSH1 0x4 ADD PUSH2 0x1B82 SWAP1 PUSH2 0x35D7 JUMP JUMPDEST PUSH1 0x40 MLOAD DUP1 SWAP2 SUB SWAP1 REVERT JUMPDEST DUP2 PUSH0 ADD MLOAD PUSH0 ADD MLOAD SWAP1 POP SWAP2 SWAP1 POP JUMP JUMPDEST PUSH1 0x60 PUSH0 DUP1 PUSH0 PUSH2 0x1BA8 DUP7 DUP7 PUSH2 0x1F34 JUMP JUMPDEST DUP2 PUSH8 0xFFFFFFFFFFFFFFFF AND SWAP2 POP DUP1 SWAP8 POP DUP2 SWAP4 POP DUP3 SWAP5 POP POP POP POP PUSH1 0x6 PUSH1 0xFF AND DUP3 PUSH1 0xFF AND EQ DUP1 PUSH2 0x1BDC JUMPI POP PUSH1 0x2 PUSH1 0xFF AND DUP3 PUSH1 0xFF AND EQ JUMPDEST PUSH2 0x1C1B JUMPI PUSH1 0x40 MLOAD PUSH32 0x8C379A000000000000000000000000000000000000000000000000000000000 DUP2 MSTORE PUSH1 0x4 ADD PUSH2 0x1C12 SWAP1 PUSH2 0x3665 JUMP JUMPDEST PUSH1 0x40 MLOAD DUP1 SWAP2 SUB SWAP1 REVERT JUMPDEST PUSH1 0x6 PUSH1 0xFF AND DUP3 PUSH1 0xFF AND SUB PUSH2 0x1C64 JUMPI PUSH2 0x1C33 DUP7 DUP7 PUSH2 0x1F34 JUMP JUMPDEST DUP2 PUSH8 0xFFFFFFFFFFFFFFFF AND SWAP2 POP DUP1 SWAP8 POP DUP2 SWAP4 POP DUP3 SWAP5 POP POP POP POP PUSH1 0x2 PUSH1 0xFF AND DUP3 PUSH1 0xFF AND EQ PUSH2 0x1C63 JUMPI PUSH2 0x1C62 PUSH2 0x3683 JUMP JUMPDEST JUMPDEST JUMPDEST PUSH0 DUP2 DUP7 PUSH2 0x1C71 SWAP2 SWAP1 PUSH2 0x32FC JUMP JUMPDEST SWAP1 POP PUSH0 DUP3 PUSH8 0xFFFFFFFFFFFFFFFF DUP2 GT ISZERO PUSH2 0x1C8E JUMPI PUSH2 0x1C8D PUSH2 0x2C03 JUMP JUMPDEST JUMPDEST PUSH1 0x40 MLOAD SWAP1 DUP1 DUP3 MSTORE DUP1 PUSH1 0x1F ADD PUSH1 0x1F NOT AND PUSH1 0x20 ADD DUP3 ADD PUSH1 0x40 MSTORE DUP1 ISZERO PUSH2 0x1CC0 JUMPI DUP2 PUSH1 0x20 ADD PUSH1 0x1 DUP3 MUL DUP1 CALLDATASIZE DUP4 CALLDATACOPY DUP1 DUP3 ADD SWAP2 POP POP SWAP1 POP JUMPDEST POP SWAP1 POP PUSH0 DUP1 DUP9 SWAP1 POP JUMPDEST DUP4 DUP2 LT ISZERO PUSH2 0x1D4B JUMPI DUP10 DUP2 DUP2 MLOAD DUP2 LT PUSH2 0x1CE4 JUMPI PUSH2 0x1CE3 PUSH2 0x332F JUMP JUMPDEST JUMPDEST PUSH1 0x20 ADD ADD MLOAD PUSH1 0xF8 SHR PUSH1 0xF8 SHL DUP4 DUP4 DUP2 MLOAD DUP2 LT PUSH2 0x1D02 JUMPI PUSH2 0x1D01 PUSH2 0x332F JUMP JUMPDEST JUMPDEST PUSH1 0x20 ADD ADD SWAP1 PUSH31 0xFFFFFFFFFFFFFFFFFFFFFFFFFFFFFFFFFFFFFFFFFFFFFFFFFFFFFFFFFFFFFF NOT AND SWAP1 DUP2 PUSH0 BYTE SWAP1 MSTORE8 POP DUP2 DUP1 PUSH2 0x1D3B SWAP1 PUSH2 0x3505 JUMP JUMPDEST SWAP3 POP POP DUP1 DUP1 PUSH1 0x1 ADD SWAP2 POP POP PUSH2 0x1CC9 JUMP JUMPDEST POP DUP2 DUP5 DUP10 PUSH2 0x1D59 SWAP2 SWAP1 PUSH2 0x32FC JUMP JUMPDEST SWAP7 POP SWAP7 POP POP POP POP POP POP SWAP3 POP SWAP3 SWAP1 POP JUMP JUMPDEST PUSH2 0x1D71 PUSH2 0x26AD JUMP JUMPDEST PUSH0 DUP3 MLOAD SUB PUSH2 0x1DAC JUMPI PUSH1 0x40 MLOAD DUP1 PUSH1 0x40 ADD PUSH1 0x40 MSTORE DUP1 PUSH1 0x40 MLOAD DUP1 PUSH1 0x40 ADD PUSH1 0x40 MSTORE DUP1 PUSH1 0x1 DUP2 MSTORE PUSH1 0x20 ADD PUSH0 DUP2 MSTORE POP DUP2 MSTORE PUSH1 0x20 ADD PUSH0 ISZERO ISZERO DUP2 MSTORE POP SWAP1 POP PUSH2 0x1EFD JUMP JUMPDEST PUSH0 PUSH1 0x1 DUP4 MLOAD PUSH2 0x1DBB SWAP2 SWAP1 PUSH2 0x36B0 JUMP JUMPDEST PUSH8 0xFFFFFFFFFFFFFFFF DUP2 GT ISZERO PUSH2 0x1DD4 JUMPI PUSH2 0x1DD3 PUSH2 0x2C03 JUMP JUMPDEST JUMPDEST PUSH1 0x40 MLOAD SWAP1 DUP1 DUP3 MSTORE DUP1 PUSH1 0x1F ADD PUSH1 0x1F NOT AND PUSH1 0x20 ADD DUP3 ADD PUSH1 0x40 MSTORE DUP1 ISZERO PUSH2 0x1E06 JUMPI DUP2 PUSH1 0x20 ADD PUSH1 0x1 DUP3 MUL DUP1 CALLDATASIZE DUP4 CALLDATACOPY DUP1 DUP3 ADD SWAP2 POP POP SWAP1 POP JUMPDEST POP SWAP1 POP PUSH0 PUSH1 0x1 PUSH1 0xF8 SHL DUP5 PUSH0 DUP2 MLOAD DUP2 LT PUSH2 0x1E22 JUMPI PUSH2 0x1E21 PUSH2 0x332F JUMP JUMPDEST JUMPDEST PUSH1 0x20 ADD ADD MLOAD PUSH1 0xF8 SHR PUSH1 0xF8 SHL PUSH31 0xFFFFFFFFFFFFFFFFFFFFFFFFFFFFFFFFFFFFFFFFFFFFFFFFFFFFFFFFFFFFFF NOT AND SUB PUSH2 0x1E59 JUMPI PUSH1 0x1 SWAP1 POP JUMPDEST PUSH0 PUSH1 0x1 SWAP1 POP JUMPDEST DUP5 MLOAD DUP2 LT ISZERO PUSH2 0x1EE0 JUMPI DUP5 DUP2 DUP2 MLOAD DUP2 LT PUSH2 0x1E7B JUMPI PUSH2 0x1E7A PUSH2 0x332F JUMP JUMPDEST JUMPDEST PUSH1 0x20 ADD ADD MLOAD PUSH1 0xF8 SHR PUSH1 0xF8 SHL DUP4 PUSH1 0x1 DUP4 PUSH2 0x1E94 SWAP2 SWAP1 PUSH2 0x36B0 JUMP JUMPDEST DUP2 MLOAD DUP2 LT PUSH2 0x1EA5 JUMPI PUSH2 0x1EA4 PUSH2 0x332F JUMP JUMPDEST JUMPDEST PUSH1 0x20 ADD ADD SWAP1 PUSH31 0xFFFFFFFFFFFFFFFFFFFFFFFFFFFFFFFFFFFFFFFFFFFFFFFFFFFFFFFFFFFFFF NOT AND SWAP1 DUP2 PUSH0 BYTE SWAP1 MSTORE8 POP DUP1 DUP1 PUSH1 0x1 ADD SWAP2 POP POP PUSH2 0x1E5F JUMP JUMPDEST POP PUSH1 0x40 MLOAD DUP1 PUSH1 0x40 ADD PUSH1 0x40 MSTORE DUP1 DUP4 DUP2 MSTORE PUSH1 0x20 ADD DUP3 ISZERO ISZERO DUP2 MSTORE POP SWAP3 POP POP POP JUMPDEST SWAP2 SWAP1 POP JUMP JUMPDEST PUSH0 PUSH2 0x1F0B PUSH2 0xDCD JUMP JUMPDEST PUSH0 ADD PUSH1 0x8 SWAP1 SLOAD SWAP1 PUSH2 0x100 EXP SWAP1 DIV PUSH1 0xFF AND SWAP1 POP SWAP1 JUMP JUMPDEST PUSH0 DUP1 DUP3 EXTCODEHASH SWAP1 POP PUSH0 DUP1 SHL DUP2 EQ ISZERO SWAP2 POP POP SWAP2 SWAP1 POP JUMP JUMPDEST PUSH0 DUP1 PUSH0 DUP1 PUSH2 0x1F42 DUP7 DUP7 PUSH2 0x2382 JUMP JUMPDEST SWAP1 POP PUSH1 0x1 DUP6 PUSH2 0x1F51 SWAP2 SWAP1 PUSH2 0x32FC JUMP JUMPDEST SWAP5 POP PUSH0 PUSH1 0x5 PUSH1 0xE0 DUP4 AND PUSH1 0xFF AND SWAP1 SHR SWAP1 POP PUSH0 PUSH1 0x1F DUP4 AND SWAP1 POP PUSH1 0x1C DUP2 PUSH1 0xFF AND LT PUSH2 0x1FAE JUMPI PUSH1 0x40 MLOAD PUSH32 0x8C379A000000000000000000000000000000000000000000000000000000000 DUP2 MSTORE PUSH1 0x4 ADD PUSH2 0x1FA5 SWAP1 PUSH2 0x3753 JUMP JUMPDEST PUSH1 0x40 MLOAD DUP1 SWAP2 SUB SWAP1 REVERT JUMPDEST PUSH1 0x18 DUP2 PUSH1 0xFF AND LT ISZERO PUSH2 0x1FD1 JUMPI DUP2 DUP2 DUP9 DUP2 PUSH1 0xFF AND SWAP2 POP SWAP6 POP SWAP6 POP SWAP6 POP POP POP POP PUSH2 0x2117 JUMP JUMPDEST PUSH1 0x18 DUP2 PUSH1 0xFF AND SUB PUSH2 0x2057 JUMPI PUSH0 PUSH2 0x1FE7 DUP10 DUP10 PUSH2 0x2382 JUMP JUMPDEST SWAP1 POP PUSH1 0x1 DUP9 PUSH2 0x1FF6 SWAP2 SWAP1 PUSH2 0x32FC JUMP JUMPDEST SWAP8 POP PUSH1 0x18 DUP2 PUSH1 0xFF AND LT ISZERO PUSH2 0x203F JUMPI PUSH1 0x40 MLOAD PUSH32 0x8C379A000000000000000000000000000000000000000000000000000000000 DUP2 MSTORE PUSH1 0x4 ADD PUSH2 0x2036 SWAP1 PUSH2 0x37BB JUMP JUMPDEST PUSH1 0x40 MLOAD DUP1 SWAP2 SUB SWAP1 REVERT JUMPDEST DUP3 DUP2 DUP10 DUP2 PUSH1 0xFF AND SWAP2 POP SWAP7 POP SWAP7 POP SWAP7 POP POP POP POP POP PUSH2 0x2117 JUMP JUMPDEST PUSH1 0x19 DUP2 PUSH1 0xFF AND SUB PUSH2 0x2097 JUMPI PUSH0 PUSH2 0x206D DUP10 DUP10 PUSH2 0x23FC JUMP JUMPDEST SWAP1 POP PUSH1 0x2 DUP9 PUSH2 0x207C SWAP2 SWAP1 PUSH2 0x32FC JUMP JUMPDEST SWAP8 POP DUP3 DUP2 DUP10 DUP2 PUSH2 0xFFFF AND SWAP2 POP SWAP7 POP SWAP7 POP SWAP7 POP POP POP POP POP PUSH2 0x2117 JUMP JUMPDEST PUSH1 0x1A DUP2 PUSH1 0xFF AND SUB PUSH2 0x20D9 JUMPI PUSH0 PUSH2 0x20AD DUP10 DUP10 PUSH2 0x2464 JUMP JUMPDEST SWAP1 POP PUSH1 0x4 DUP9 PUSH2 0x20BC SWAP2 SWAP1 PUSH2 0x32FC JUMP JUMPDEST SWAP8 POP DUP3 DUP2 DUP10 DUP2 PUSH4 0xFFFFFFFF AND SWAP2 POP SWAP7 POP SWAP7 POP SWAP7 POP POP POP POP POP PUSH2 0x2117 JUMP JUMPDEST PUSH1 0x1B DUP2 PUSH1 0xFF AND EQ PUSH2 0x20ED JUMPI PUSH2 0x20EC PUSH2 0x3683 JUMP JUMPDEST JUMPDEST PUSH0 PUSH2 0x20F8 DUP10 DUP10 PUSH2 0x24CC JUMP JUMPDEST SWAP1 POP PUSH1 0x8 DUP9 PUSH2 0x2107 SWAP2 SWAP1 PUSH2 0x32FC JUMP JUMPDEST SWAP8 POP DUP3 DUP2 DUP10 SWAP7 POP SWAP7 POP SWAP7 POP POP POP POP POP JUMPDEST SWAP3 POP SWAP3 POP SWAP3 JUMP JUMPDEST PUSH0 DUP3 PUSH0 ADD MLOAD SWAP1 POP PUSH2 0x212F DUP4 DUP4 PUSH2 0x2140 JUMP JUMPDEST POP PUSH2 0x213A DUP4 DUP3 PUSH2 0x2366 JUMP JUMPDEST POP POP POP POP JUMP JUMPDEST PUSH2 0x2148 PUSH2 0x26C8 JUMP JUMPDEST PUSH0 PUSH1 0x20 DUP4 PUSH2 0x2156 SWAP2 SWAP1 PUSH2 0x3806 JUMP JUMPDEST EQ PUSH2 0x2182 JUMPI PUSH1 0x20 DUP3 PUSH2 0x2168 SWAP2 SWAP1 PUSH2 0x3806 JUMP JUMPDEST PUSH1 0x20 PUSH2 0x2174 SWAP2 SWAP1 PUSH2 0x36B0 JUMP JUMPDEST DUP3 PUSH2 0x217F SWAP2 SWAP1 PUSH2 0x32FC JUMP JUMPDEST SWAP2 POP JUMPDEST DUP2 DUP4 PUSH1 0x20 ADD DUP2 DUP2 MSTORE POP POP PUSH1 0x40 MLOAD DUP1 DUP5 MSTORE PUSH0 DUP2 MSTORE DUP3 DUP2 ADD PUSH1 0x20 ADD DUP2 DUP2 LT ISZERO PUSH2 0x21A7 JUMPI PUSH0 DUP1 REVERT JUMPDEST DUP1 PUSH1 0x40 MSTORE POP POP DUP3 SWAP1 POP SWAP3 SWAP2 POP POP JUMP JUMPDEST PUSH2 0x21C1 DUP4 DUP4 DUP4 PUSH2 0x21C6 JUMP JUMPDEST POP POP POP JUMP JUMPDEST PUSH1 0x17 DUP2 PUSH8 0xFFFFFFFFFFFFFFFF AND GT PUSH2 0x2200 JUMPI PUSH2 0x21FA DUP2 PUSH1 0x5 DUP5 PUSH1 0xFF AND SWAP1 SHL PUSH1 0xFF AND OR DUP5 PUSH0 ADD MLOAD PUSH2 0x18B1 SWAP1 SWAP2 SWAP1 PUSH4 0xFFFFFFFF AND JUMP JUMPDEST POP PUSH2 0x2361 JUMP JUMPDEST PUSH1 0xFF DUP2 PUSH8 0xFFFFFFFFFFFFFFFF AND GT PUSH2 0x225C JUMPI PUSH2 0x2232 PUSH1 0x18 PUSH1 0x5 DUP5 PUSH1 0xFF AND SWAP1 SHL OR DUP5 PUSH0 ADD MLOAD PUSH2 0x18B1 SWAP1 SWAP2 SWAP1 PUSH4 0xFFFFFFFF AND JUMP JUMPDEST POP PUSH2 0x2256 DUP2 PUSH8 0xFFFFFFFFFFFFFFFF AND PUSH1 0x1 DUP6 PUSH0 ADD MLOAD PUSH2 0x2534 SWAP1 SWAP3 SWAP2 SWAP1 PUSH4 0xFFFFFFFF AND JUMP JUMPDEST POP PUSH2 0x2360 JUMP JUMPDEST PUSH2 0xFFFF DUP2 PUSH8 0xFFFFFFFFFFFFFFFF AND GT PUSH2 0x22B9 JUMPI PUSH2 0x228F PUSH1 0x19 PUSH1 0x5 DUP5 PUSH1 0xFF AND SWAP1 SHL OR DUP5 PUSH0 ADD MLOAD PUSH2 0x18B1 SWAP1 SWAP2 SWAP1 PUSH4 0xFFFFFFFF AND JUMP JUMPDEST POP PUSH2 0x22B3 DUP2 PUSH8 0xFFFFFFFFFFFFFFFF AND PUSH1 0x2 DUP6 PUSH0 ADD MLOAD PUSH2 0x2534 SWAP1 SWAP3 SWAP2 SWAP1 PUSH4 0xFFFFFFFF AND JUMP JUMPDEST POP PUSH2 0x235F JUMP JUMPDEST PUSH4 0xFFFFFFFF DUP2 PUSH8 0xFFFFFFFFFFFFFFFF AND GT PUSH2 0x2318 JUMPI PUSH2 0x22EE PUSH1 0x1A PUSH1 0x5 DUP5 PUSH1 0xFF AND SWAP1 SHL OR DUP5 PUSH0 ADD MLOAD PUSH2 0x18B1 SWAP1 SWAP2 SWAP1 PUSH4 0xFFFFFFFF AND JUMP JUMPDEST POP PUSH2 0x2312 DUP2 PUSH8 0xFFFFFFFFFFFFFFFF AND PUSH1 0x4 DUP6 PUSH0 ADD MLOAD PUSH2 0x2534 SWAP1 SWAP3 SWAP2 SWAP1 PUSH4 0xFFFFFFFF AND JUMP JUMPDEST POP PUSH2 0x235E JUMP JUMPDEST PUSH2 0x2338 PUSH1 0x1B PUSH1 0x5 DUP5 PUSH1 0xFF AND SWAP1 SHL OR DUP5 PUSH0 ADD MLOAD PUSH2 0x18B1 SWAP1 SWAP2 SWAP1 PUSH4 0xFFFFFFFF AND JUMP JUMPDEST POP PUSH2 0x235C DUP2 PUSH8 0xFFFFFFFFFFFFFFFF AND PUSH1 0x8 DUP6 PUSH0 ADD MLOAD PUSH2 0x2534 SWAP1 SWAP3 SWAP2 SWAP1 PUSH4 0xFFFFFFFF AND JUMP JUMPDEST POP JUMPDEST JUMPDEST JUMPDEST JUMPDEST POP POP POP JUMP JUMPDEST PUSH2 0x236E PUSH2 0x26C8 JUMP JUMPDEST PUSH2 0x237A DUP4 DUP4 DUP5 MLOAD PUSH2 0x25BD JUMP JUMPDEST SWAP1 POP SWAP3 SWAP2 POP POP JUMP JUMPDEST PUSH0 PUSH1 0x1 DUP3 PUSH2 0x2390 SWAP2 SWAP1 PUSH2 0x32FC JUMP JUMPDEST DUP4 MLOAD LT ISZERO PUSH2 0x23D3 JUMPI PUSH1 0x40 MLOAD PUSH32 0x8C379A000000000000000000000000000000000000000000000000000000000 DUP2 MSTORE PUSH1 0x4 ADD PUSH2 0x23CA SWAP1 PUSH2 0x3880 JUMP JUMPDEST PUSH1 0x40 MLOAD DUP1 SWAP2 SUB SWAP1 REVERT JUMPDEST DUP3 DUP3 DUP2 MLOAD DUP2 LT PUSH2 0x23E6 JUMPI PUSH2 0x23E5 PUSH2 0x332F JUMP JUMPDEST JUMPDEST PUSH1 0x20 ADD ADD MLOAD PUSH1 0xF8 SHR PUSH1 0xF8 SHL PUSH1 0xF8 SHR SWAP1 POP SWAP3 SWAP2 POP POP JUMP JUMPDEST PUSH0 PUSH1 0x2 DUP3 PUSH2 0x240A SWAP2 SWAP1 PUSH2 0x32FC JUMP JUMPDEST DUP4 MLOAD LT ISZERO PUSH2 0x244D JUMPI PUSH1 0x40 MLOAD PUSH32 0x8C379A000000000000000000000000000000000000000000000000000000000 DUP2 MSTORE PUSH1 0x4 ADD PUSH2 0x2444 SWAP1 PUSH2 0x3880 JUMP JUMPDEST PUSH1 0x40 MLOAD DUP1 SWAP2 SUB SWAP1 REVERT JUMPDEST PUSH0 DUP3 PUSH1 0x20 ADD DUP5 ADD MLOAD SWAP1 POP DUP1 PUSH1 0xF0 SHR SWAP2 POP POP SWAP3 SWAP2 POP POP JUMP JUMPDEST PUSH0 PUSH1 0x4 DUP3 PUSH2 0x2472 SWAP2 SWAP1 PUSH2 0x32FC JUMP JUMPDEST DUP4 MLOAD LT ISZERO PUSH2 0x24B5 JUMPI PUSH1 0x40 MLOAD PUSH32 0x8C379A000000000000000000000000000000000000000000000000000000000 DUP2 MSTORE PUSH1 0x4 ADD PUSH2 0x24AC SWAP1 PUSH2 0x3880 JUMP JUMPDEST PUSH1 0x40 MLOAD DUP1 SWAP2 SUB SWAP1 REVERT JUMPDEST PUSH0 DUP3 PUSH1 0x20 ADD DUP5 ADD MLOAD SWAP1 POP DUP1 PUSH1 0xE0 SHR SWAP2 POP POP SWAP3 SWAP2 POP POP JUMP JUMPDEST PUSH0 PUSH1 0x8 DUP3 PUSH2 0x24DA SWAP2 SWAP1 PUSH2 0x32FC JUMP JUMPDEST DUP4 MLOAD LT ISZERO PUSH2 0x251D JUMPI PUSH1 0x40 MLOAD PUSH32 0x8C379A000000000000000000000000000000000000000000000000000000000 DUP2 MSTORE PUSH1 0x4 ADD PUSH2 0x2514 SWAP1 PUSH2 0x3880 JUMP JUMPDEST PUSH1 0x40 MLOAD DUP1 SWAP2 SUB SWAP1 REVERT JUMPDEST PUSH0 DUP3 PUSH1 0x20 ADD DUP5 ADD MLOAD SWAP1 POP DUP1 PUSH1 0xC0 SHR SWAP2 POP POP SWAP3 SWAP2 POP POP JUMP JUMPDEST PUSH2 0x253C PUSH2 0x26C8 JUMP JUMPDEST PUSH0 DUP5 PUSH0 ADD MLOAD MLOAD SWAP1 POP PUSH0 DUP2 DUP5 PUSH2 0x2551 SWAP2 SWAP1 PUSH2 0x32FC JUMP JUMPDEST SWAP1 POP DUP6 PUSH1 0x20 ADD MLOAD DUP2 GT ISZERO PUSH2 0x2576 JUMPI PUSH2 0x2575 DUP7 PUSH1 0x2 DUP4 PUSH2 0x2570 SWAP2 SWAP1 PUSH2 0x354C JUMP JUMPDEST PUSH2 0x211E JUMP JUMPDEST JUMPDEST PUSH0 PUSH1 0x1 DUP6 PUSH2 0x100 PUSH2 0x2587 SWAP2 SWAP1 PUSH2 0x39CD JUMP JUMPDEST PUSH2 0x2591 SWAP2 SWAP1 PUSH2 0x36B0 JUMP JUMPDEST SWAP1 POP DUP7 MLOAD DUP3 DUP2 ADD DUP8 DUP4 NOT DUP3 MLOAD AND OR DUP2 MSTORE DUP2 MLOAD DUP5 GT ISZERO PUSH2 0x25AE JUMPI DUP4 DUP3 MSTORE JUMPDEST POP POP DUP7 SWAP4 POP POP POP POP SWAP4 SWAP3 POP POP POP JUMP JUMPDEST PUSH2 0x25C5 PUSH2 0x26C8 JUMP JUMPDEST DUP3 MLOAD DUP3 GT ISZERO PUSH2 0x25D2 JUMPI PUSH0 DUP1 REVERT JUMPDEST PUSH0 DUP5 PUSH0 ADD MLOAD MLOAD SWAP1 POP PUSH0 DUP4 DUP3 PUSH2 0x25E7 SWAP2 SWAP1 PUSH2 0x32FC JUMP JUMPDEST SWAP1 POP DUP6 PUSH1 0x20 ADD MLOAD DUP2 GT ISZERO PUSH2 0x260C JUMPI PUSH2 0x260B DUP7 PUSH1 0x2 DUP4 PUSH2 0x2606 SWAP2 SWAP1 PUSH2 0x354C JUMP JUMPDEST PUSH2 0x211E JUMP JUMPDEST JUMPDEST PUSH0 DUP1 DUP8 MLOAD DUP1 MLOAD DUP6 PUSH1 0x20 DUP4 ADD ADD SWAP4 POP DUP1 DUP6 GT ISZERO PUSH2 0x2626 JUMPI DUP5 DUP3 MSTORE JUMPDEST PUSH1 0x20 DUP10 ADD SWAP3 POP POP POP JUMPDEST PUSH1 0x20 DUP7 LT PUSH2 0x266D JUMPI DUP1 MLOAD DUP3 MSTORE PUSH1 0x20 DUP3 PUSH2 0x2648 SWAP2 SWAP1 PUSH2 0x32FC JUMP JUMPDEST SWAP2 POP PUSH1 0x20 DUP2 PUSH2 0x2657 SWAP2 SWAP1 PUSH2 0x32FC JUMP JUMPDEST SWAP1 POP PUSH1 0x20 DUP7 PUSH2 0x2666 SWAP2 SWAP1 PUSH2 0x36B0 JUMP JUMPDEST SWAP6 POP PUSH2 0x262F JUMP JUMPDEST PUSH0 PUSH1 0x1 DUP8 PUSH1 0x20 SUB PUSH2 0x100 EXP SUB SWAP1 POP DUP1 NOT DUP3 MLOAD AND DUP2 DUP5 MLOAD AND DUP2 DUP2 OR DUP6 MSTORE POP POP POP DUP8 SWAP5 POP POP POP POP POP SWAP4 SWAP3 POP POP POP JUMP JUMPDEST PUSH1 0x40 MLOAD DUP1 PUSH1 0x20 ADD PUSH1 0x40 MSTORE DUP1 PUSH1 0x60 DUP2 MSTORE POP SWAP1 JUMP JUMPDEST PUSH1 0x40 MLOAD DUP1 PUSH1 0x40 ADD PUSH1 0x40 MSTORE DUP1 PUSH1 0x60 DUP2 MSTORE PUSH1 0x20 ADD PUSH0 ISZERO ISZERO DUP2 MSTORE POP SWAP1 JUMP JUMPDEST PUSH1 0x40 MLOAD DUP1 PUSH1 0x40 ADD PUSH1 0x40 MSTORE DUP1 PUSH1 0x60 DUP2 MSTORE PUSH1 0x20 ADD PUSH0 DUP2 MSTORE POP SWAP1 JUMP JUMPDEST PUSH1 0x40 MLOAD DUP1 PUSH1 0x40 ADD PUSH1 0x40 MSTORE DUP1 PUSH2 0x26F4 PUSH2 0x26C8 JUMP JUMPDEST DUP2 MSTORE PUSH1 0x20 ADD PUSH0 DUP2 MSTORE POP SWAP1 JUMP JUMPDEST PUSH0 PUSH1 0x40 MLOAD SWAP1 POP SWAP1 JUMP JUMPDEST PUSH0 DUP1 REVERT JUMPDEST PUSH0 DUP1 REVERT JUMPDEST PUSH0 PUSH8 0xFFFFFFFFFFFFFFFF DUP3 AND SWAP1 POP SWAP2 SWAP1 POP JUMP JUMPDEST PUSH2 0x272D DUP2 PUSH2 0x2711 JUMP JUMPDEST DUP2 EQ PUSH2 0x2737 JUMPI PUSH0 DUP1 REVERT JUMPDEST POP JUMP JUMPDEST PUSH0 DUP2 CALLDATALOAD SWAP1 POP PUSH2 0x2748 DUP2 PUSH2 0x2724 JUMP JUMPDEST SWAP3 SWAP2 POP POP JUMP JUMPDEST PUSH0 DUP2 SWAP1 POP SWAP2 SWAP1 POP JUMP JUMPDEST PUSH2 0x2760 DUP2 PUSH2 0x274E JUMP JUMPDEST DUP2 EQ PUSH2 0x276A JUMPI PUSH0 DUP1 REVERT JUMPDEST POP JUMP JUMPDEST PUSH0 DUP2 CALLDATALOAD SWAP1 POP PUSH2 0x277B DUP2 PUSH2 0x2757 JUMP JUMPDEST SWAP3 SWAP2 POP POP JUMP JUMPDEST PUSH0 DUP1 PUSH1 0x40 DUP4 DUP6 SUB SLT ISZERO PUSH2 0x2797 JUMPI PUSH2 0x2796 PUSH2 0x2709 JUMP JUMPDEST JUMPDEST PUSH0 PUSH2 0x27A4 DUP6 DUP3 DUP7 ADD PUSH2 0x273A JUMP JUMPDEST SWAP3 POP POP PUSH1 0x20 PUSH2 0x27B5 DUP6 DUP3 DUP7 ADD PUSH2 0x276D JUMP JUMPDEST SWAP2 POP POP SWAP3 POP SWAP3 SWAP1 POP JUMP JUMPDEST PUSH0 PUSH20 0xFFFFFFFFFFFFFFFFFFFFFFFFFFFFFFFFFFFFFFFF DUP3 AND SWAP1 POP SWAP2 SWAP1 POP JUMP JUMPDEST PUSH0 PUSH2 0x27E8 DUP3 PUSH2 0x27BF JUMP JUMPDEST SWAP1 POP SWAP2 SWAP1 POP JUMP JUMPDEST PUSH2 0x27F8 DUP2 PUSH2 0x27DE JUMP JUMPDEST DUP3 MSTORE POP POP JUMP JUMPDEST PUSH0 PUSH1 0x20 DUP3 ADD SWAP1 POP PUSH2 0x2811 PUSH0 DUP4 ADD DUP5 PUSH2 0x27EF JUMP JUMPDEST SWAP3 SWAP2 POP POP JUMP JUMPDEST PUSH0 DUP1 REVERT JUMPDEST PUSH0 DUP1 REVERT JUMPDEST PUSH0 DUP1 REVERT JUMPDEST PUSH0 DUP1 DUP4 PUSH1 0x1F DUP5 ADD SLT PUSH2 0x2838 JUMPI PUSH2 0x2837 PUSH2 0x2817 JUMP JUMPDEST JUMPDEST DUP3 CALLDATALOAD SWAP1 POP PUSH8 0xFFFFFFFFFFFFFFFF DUP2 GT ISZERO PUSH2 0x2855 JUMPI PUSH2 0x2854 PUSH2 0x281B JUMP JUMPDEST JUMPDEST PUSH1 0x20 DUP4 ADD SWAP2 POP DUP4 PUSH1 0x1 DUP3 MUL DUP4 ADD GT ISZERO PUSH2 0x2871 JUMPI PUSH2 0x2870 PUSH2 0x281F JUMP JUMPDEST JUMPDEST SWAP3 POP SWAP3 SWAP1 POP JUMP JUMPDEST PUSH0 DUP1 PUSH0 PUSH1 0x40 DUP5 DUP7 SUB SLT ISZERO PUSH2 0x288F JUMPI PUSH2 0x288E PUSH2 0x2709 JUMP JUMPDEST JUMPDEST PUSH0 DUP5 ADD CALLDATALOAD PUSH8 0xFFFFFFFFFFFFFFFF DUP2 GT ISZERO PUSH2 0x28AC JUMPI PUSH2 0x28AB PUSH2 0x270D JUMP JUMPDEST JUMPDEST PUSH2 0x28B8 DUP7 DUP3 DUP8 ADD PUSH2 0x2823 JUMP JUMPDEST SWAP4 POP SWAP4 POP POP PUSH1 0x20 PUSH2 0x28CB DUP7 DUP3 DUP8 ADD PUSH2 0x276D JUMP JUMPDEST SWAP2 POP POP SWAP3 POP SWAP3 POP SWAP3 JUMP JUMPDEST PUSH0 PUSH1 0x20 DUP3 DUP5 SUB SLT ISZERO PUSH2 0x28EA JUMPI PUSH2 0x28E9 PUSH2 0x2709 JUMP JUMPDEST JUMPDEST PUSH0 PUSH2 0x28F7 DUP5 DUP3 DUP6 ADD PUSH2 0x273A JUMP JUMPDEST SWAP2 POP POP SWAP3 SWAP2 POP POP JUMP JUMPDEST PUSH2 0x2909 DUP2 PUSH2 0x27DE JUMP JUMPDEST DUP2 EQ PUSH2 0x2913 JUMPI PUSH0 DUP1 REVERT JUMPDEST POP JUMP JUMPDEST PUSH0 DUP2 CALLDATALOAD SWAP1 POP PUSH2 0x2924 DUP2 PUSH2 0x2900 JUMP JUMPDEST SWAP3 SWAP2 POP POP JUMP JUMPDEST PUSH0 PUSH1 0x20 DUP3 DUP5 SUB SLT ISZERO PUSH2 0x293F JUMPI PUSH2 0x293E PUSH2 0x2709 JUMP JUMPDEST JUMPDEST PUSH0 PUSH2 0x294C DUP5 DUP3 DUP6 ADD PUSH2 0x2916 JUMP JUMPDEST SWAP2 POP POP SWAP3 SWAP2 POP POP JUMP JUMPDEST PUSH0 DUP2 MLOAD SWAP1 POP SWAP2 SWAP1 POP JUMP JUMPDEST PUSH0 DUP3 DUP3 MSTORE PUSH1 0x20 DUP3 ADD SWAP1 POP SWAP3 SWAP2 POP POP JUMP JUMPDEST DUP3 DUP2 DUP4 MCOPY PUSH0 DUP4 DUP4 ADD MSTORE POP POP POP JUMP JUMPDEST PUSH0 PUSH1 0x1F NOT PUSH1 0x1F DUP4 ADD AND SWAP1 POP SWAP2 SWAP1 POP JUMP JUMPDEST PUSH0 PUSH2 0x2997 DUP3 PUSH2 0x2955 JUMP JUMPDEST PUSH2 0x29A1 DUP2 DUP6 PUSH2 0x295F JUMP JUMPDEST SWAP4 POP PUSH2 0x29B1 DUP2 DUP6 PUSH1 0x20 DUP7 ADD PUSH2 0x296F JUMP JUMPDEST PUSH2 0x29BA DUP2 PUSH2 0x297D JUMP JUMPDEST DUP5 ADD SWAP2 POP POP SWAP3 SWAP2 POP POP JUMP JUMPDEST PUSH0 PUSH1 0x20 DUP3 ADD SWAP1 POP DUP2 DUP2 SUB PUSH0 DUP4 ADD MSTORE PUSH2 0x29DD DUP2 DUP5 PUSH2 0x298D JUMP JUMPDEST SWAP1 POP SWAP3 SWAP2 POP POP JUMP JUMPDEST PUSH0 DUP2 SWAP1 POP SWAP2 SWAP1 POP JUMP JUMPDEST PUSH2 0x29FF PUSH2 0x29FA DUP3 PUSH2 0x274E JUMP JUMPDEST PUSH2 0x29E5 JUMP JUMPDEST DUP3 MSTORE POP POP JUMP JUMPDEST PUSH0 PUSH2 0x2A10 DUP3 DUP5 PUSH2 0x29EE JUMP JUMPDEST PUSH1 0x20 DUP3 ADD SWAP2 POP DUP2 SWAP1 POP SWAP3 SWAP2 POP POP JUMP JUMPDEST PUSH0 DUP2 SWAP1 POP SWAP3 SWAP2 POP POP JUMP JUMPDEST DUP3 DUP2 DUP4 CALLDATACOPY PUSH0 DUP4 DUP4 ADD MSTORE POP POP POP JUMP JUMPDEST PUSH0 PUSH2 0x2A42 DUP4 DUP6 PUSH2 0x2A1F JUMP JUMPDEST SWAP4 POP PUSH2 0x2A4F DUP4 DUP6 DUP5 PUSH2 0x2A29 JUMP JUMPDEST DUP3 DUP5 ADD SWAP1 POP SWAP4 SWAP3 POP POP POP JUMP JUMPDEST PUSH0 PUSH2 0x2A67 DUP3 DUP5 DUP7 PUSH2 0x2A37 JUMP JUMPDEST SWAP2 POP DUP2 SWAP1 POP SWAP4 SWAP3 POP POP POP JUMP JUMPDEST PUSH2 0x2A7C DUP2 PUSH2 0x274E JUMP JUMPDEST DUP3 MSTORE POP POP JUMP JUMPDEST PUSH0 PUSH1 0x20 DUP3 ADD SWAP1 POP PUSH2 0x2A95 PUSH0 DUP4 ADD DUP5 PUSH2 0x2A73 JUMP JUMPDEST SWAP3 SWAP2 POP POP JUMP JUMPDEST PUSH0 DUP2 MLOAD SWAP1 POP SWAP2 SWAP1 POP JUMP JUMPDEST PUSH0 DUP3 DUP3 MSTORE PUSH1 0x20 DUP3 ADD SWAP1 POP SWAP3 SWAP2 POP POP JUMP JUMPDEST PUSH0 PUSH2 0x2ABF DUP3 PUSH2 0x2A9B JUMP JUMPDEST PUSH2 0x2AC9 DUP2 DUP6 PUSH2 0x2AA5 JUMP JUMPDEST SWAP4 POP PUSH2 0x2AD9 DUP2 DUP6 PUSH1 0x20 DUP7 ADD PUSH2 0x296F JUMP JUMPDEST PUSH2 0x2AE2 DUP2 PUSH2 0x297D JUMP JUMPDEST DUP5 ADD SWAP2 POP POP SWAP3 SWAP2 POP POP JUMP JUMPDEST PUSH0 DUP2 ISZERO ISZERO SWAP1 POP SWAP2 SWAP1 POP JUMP JUMPDEST PUSH2 0x2B01 DUP2 PUSH2 0x2AED JUMP JUMPDEST DUP3 MSTORE POP POP JUMP JUMPDEST PUSH0 PUSH1 0x40 DUP4 ADD PUSH0 DUP4 ADD MLOAD DUP5 DUP3 SUB PUSH0 DUP7 ADD MSTORE PUSH2 0x2B21 DUP3 DUP3 PUSH2 0x2AB5 JUMP JUMPDEST SWAP2 POP POP PUSH1 0x20 DUP4 ADD MLOAD PUSH2 0x2B36 PUSH1 0x20 DUP7 ADD DUP3 PUSH2 0x2AF8 JUMP JUMPDEST POP DUP1 SWAP2 POP POP SWAP3 SWAP2 POP POP JUMP JUMPDEST PUSH0 PUSH1 0x20 DUP3 ADD SWAP1 POP DUP2 DUP2 SUB PUSH0 DUP4 ADD MSTORE PUSH2 0x2B59 DUP2 DUP5 PUSH2 0x2B07 JUMP JUMPDEST SWAP1 POP SWAP3 SWAP2 POP POP JUMP JUMPDEST PUSH0 PUSH1 0x20 DUP4 ADD PUSH0 DUP4 ADD MLOAD DUP5 DUP3 SUB PUSH0 DUP7 ADD MSTORE PUSH2 0x2B7B DUP3 DUP3 PUSH2 0x2AB5 JUMP JUMPDEST SWAP2 POP POP DUP1 SWAP2 POP POP SWAP3 SWAP2 POP POP JUMP JUMPDEST PUSH0 PUSH1 0x20 DUP3 ADD SWAP1 POP DUP2 DUP2 SUB PUSH0 DUP4 ADD MSTORE PUSH2 0x2BA0 DUP2 DUP5 PUSH2 0x2B61 JUMP JUMPDEST SWAP1 POP SWAP3 SWAP2 POP POP JUMP JUMPDEST PUSH0 DUP2 SWAP1 POP SWAP2 SWAP1 POP JUMP JUMPDEST PUSH0 DUP2 SWAP1 POP SWAP2 SWAP1 POP JUMP JUMPDEST PUSH0 PUSH2 0x2BD4 PUSH2 0x2BCF PUSH2 0x2BCA DUP5 PUSH2 0x2BA8 JUMP JUMPDEST PUSH2 0x2BB1 JUMP JUMPDEST PUSH2 0x2711 JUMP JUMPDEST SWAP1 POP SWAP2 SWAP1 POP JUMP JUMPDEST PUSH2 0x2BE4 DUP2 PUSH2 0x2BBA JUMP JUMPDEST DUP3 MSTORE POP POP JUMP JUMPDEST PUSH0 PUSH1 0x20 DUP3 ADD SWAP1 POP PUSH2 0x2BFD PUSH0 DUP4 ADD DUP5 PUSH2 0x2BDB JUMP JUMPDEST SWAP3 SWAP2 POP POP JUMP JUMPDEST PUSH32 0x4E487B7100000000000000000000000000000000000000000000000000000000 PUSH0 MSTORE PUSH1 0x41 PUSH1 0x4 MSTORE PUSH1 0x24 PUSH0 REVERT JUMPDEST PUSH0 DUP2 SWAP1 POP SWAP3 SWAP2 POP POP JUMP JUMPDEST PUSH0 DUP1 DUP3 ADD MSTORE POP JUMP JUMPDEST PUSH0 PUSH2 0x2C4E PUSH1 0x1 DUP4 PUSH2 0x2C30 JUMP JUMPDEST SWAP2 POP PUSH2 0x2C59 DUP3 PUSH2 0x2C3A JUMP JUMPDEST PUSH1 0x1 DUP3 ADD SWAP1 POP SWAP2 SWAP1 POP JUMP JUMPDEST PUSH0 PUSH2 0x2C6E DUP3 PUSH2 0x2A9B JUMP JUMPDEST PUSH2 0x2C78 DUP2 DUP6 PUSH2 0x2A1F JUMP JUMPDEST SWAP4 POP PUSH2 0x2C88 DUP2 DUP6 PUSH1 0x20 DUP7 ADD PUSH2 0x296F JUMP JUMPDEST DUP1 DUP5 ADD SWAP2 POP POP SWAP3 SWAP2 POP POP JUMP JUMPDEST PUSH0 PUSH2 0x2C9E DUP3 PUSH2 0x2C42 JUMP JUMPDEST SWAP2 POP PUSH2 0x2CAA DUP3 DUP5 PUSH2 0x2C64 JUMP JUMPDEST SWAP2 POP DUP2 SWAP1 POP SWAP3 SWAP2 POP POP JUMP JUMPDEST PUSH2 0x2CBE DUP2 PUSH2 0x274E JUMP JUMPDEST DUP3 MSTORE POP POP JUMP JUMPDEST PUSH2 0x2CCD DUP2 PUSH2 0x2AED JUMP JUMPDEST DUP3 MSTORE POP POP JUMP JUMPDEST PUSH0 PUSH1 0x40 DUP3 ADD SWAP1 POP PUSH2 0x2CE6 PUSH0 DUP4 ADD DUP6 PUSH2 0x2CB5 JUMP JUMPDEST PUSH2 0x2CF3 PUSH1 0x20 DUP4 ADD DUP5 PUSH2 0x2CC4 JUMP JUMPDEST SWAP4 SWAP3 POP POP POP JUMP JUMPDEST PUSH0 DUP1 REVERT JUMPDEST PUSH2 0x2D07 DUP3 PUSH2 0x297D JUMP JUMPDEST DUP2 ADD DUP2 DUP2 LT PUSH8 0xFFFFFFFFFFFFFFFF DUP3 GT OR ISZERO PUSH2 0x2D26 JUMPI PUSH2 0x2D25 PUSH2 0x2C03 JUMP JUMPDEST JUMPDEST DUP1 PUSH1 0x40 MSTORE POP POP POP JUMP JUMPDEST PUSH0 PUSH2 0x2D38 PUSH2 0x2700 JUMP JUMPDEST SWAP1 POP PUSH2 0x2D44 DUP3 DUP3 PUSH2 0x2CFE JUMP JUMPDEST SWAP2 SWAP1 POP JUMP JUMPDEST PUSH0 DUP1 REVERT JUMPDEST PUSH0 DUP1 REVERT JUMPDEST PUSH0 PUSH8 0xFFFFFFFFFFFFFFFF DUP3 GT ISZERO PUSH2 0x2D6B JUMPI PUSH2 0x2D6A PUSH2 0x2C03 JUMP JUMPDEST JUMPDEST PUSH2 0x2D74 DUP3 PUSH2 0x297D JUMP JUMPDEST SWAP1 POP PUSH1 0x20 DUP2 ADD SWAP1 POP SWAP2 SWAP1 POP JUMP JUMPDEST PUSH0 PUSH2 0x2D93 PUSH2 0x2D8E DUP5 PUSH2 0x2D51 JUMP JUMPDEST PUSH2 0x2D2F JUMP JUMPDEST SWAP1 POP DUP3 DUP2 MSTORE PUSH1 0x20 DUP2 ADD DUP5 DUP5 DUP5 ADD GT ISZERO PUSH2 0x2DAF JUMPI PUSH2 0x2DAE PUSH2 0x2D4D JUMP JUMPDEST JUMPDEST PUSH2 0x2DBA DUP5 DUP3 DUP6 PUSH2 0x296F JUMP JUMPDEST POP SWAP4 SWAP3 POP POP POP JUMP JUMPDEST PUSH0 DUP3 PUSH1 0x1F DUP4 ADD SLT PUSH2 0x2DD6 JUMPI PUSH2 0x2DD5 PUSH2 0x2817 JUMP JUMPDEST JUMPDEST DUP2 MLOAD PUSH2 0x2DE6 DUP5 DUP3 PUSH1 0x20 DUP7 ADD PUSH2 0x2D81 JUMP JUMPDEST SWAP2 POP POP SWAP3 SWAP2 POP POP JUMP JUMPDEST PUSH2 0x2DF8 DUP2 PUSH2 0x2AED JUMP JUMPDEST DUP2 EQ PUSH2 0x2E02 JUMPI PUSH0 DUP1 REVERT JUMPDEST POP JUMP JUMPDEST PUSH0 DUP2 MLOAD SWAP1 POP PUSH2 0x2E13 DUP2 PUSH2 0x2DEF JUMP JUMPDEST SWAP3 SWAP2 POP POP JUMP JUMPDEST PUSH0 DUP2 MLOAD SWAP1 POP PUSH2 0x2E27 DUP2 PUSH2 0x2757 JUMP JUMPDEST SWAP3 SWAP2 POP POP JUMP JUMPDEST PUSH0 PUSH1 0x60 DUP3 DUP5 SUB SLT ISZERO PUSH2 0x2E42 JUMPI PUSH2 0x2E41 PUSH2 0x2CFA JUMP JUMPDEST JUMPDEST PUSH2 0x2E4C PUSH1 0x60 PUSH2 0x2D2F JUMP JUMPDEST SWAP1 POP PUSH0 DUP3 ADD MLOAD PUSH8 0xFFFFFFFFFFFFFFFF DUP2 GT ISZERO PUSH2 0x2E6B JUMPI PUSH2 0x2E6A PUSH2 0x2D49 JUMP JUMPDEST JUMPDEST PUSH2 0x2E77 DUP5 DUP3 DUP6 ADD PUSH2 0x2DC2 JUMP JUMPDEST PUSH0 DUP4 ADD MSTORE POP PUSH1 0x20 PUSH2 0x2E8A DUP5 DUP3 DUP6 ADD PUSH2 0x2E05 JUMP JUMPDEST PUSH1 0x20 DUP4 ADD MSTORE POP PUSH1 0x40 PUSH2 0x2E9E DUP5 DUP3 DUP6 ADD PUSH2 0x2E19 JUMP JUMPDEST PUSH1 0x40 DUP4 ADD MSTORE POP SWAP3 SWAP2 POP POP JUMP JUMPDEST PUSH0 PUSH1 0x20 DUP3 DUP5 SUB SLT ISZERO PUSH2 0x2EBF JUMPI PUSH2 0x2EBE PUSH2 0x2709 JUMP JUMPDEST JUMPDEST PUSH0 DUP3 ADD MLOAD PUSH8 0xFFFFFFFFFFFFFFFF DUP2 GT ISZERO PUSH2 0x2EDC JUMPI PUSH2 0x2EDB PUSH2 0x270D JUMP JUMPDEST JUMPDEST PUSH2 0x2EE8 DUP5 DUP3 DUP6 ADD PUSH2 0x2E2D JUMP JUMPDEST SWAP2 POP POP SWAP3 SWAP2 POP POP JUMP JUMPDEST PUSH0 DUP3 DUP3 MSTORE PUSH1 0x20 DUP3 ADD SWAP1 POP SWAP3 SWAP2 POP POP JUMP JUMPDEST PUSH0 PUSH2 0x2F0B DUP3 PUSH2 0x2A9B JUMP JUMPDEST PUSH2 0x2F15 DUP2 DUP6 PUSH2 0x2EF1 JUMP JUMPDEST SWAP4 POP PUSH2 0x2F25 DUP2 DUP6 PUSH1 0x20 DUP7 ADD PUSH2 0x296F JUMP JUMPDEST PUSH2 0x2F2E DUP2 PUSH2 0x297D JUMP JUMPDEST DUP5 ADD SWAP2 POP POP SWAP3 SWAP2 POP POP JUMP JUMPDEST PUSH0 PUSH1 0x40 DUP3 ADD SWAP1 POP DUP2 DUP2 SUB PUSH0 DUP4 ADD MSTORE PUSH2 0x2F51 DUP2 DUP6 PUSH2 0x2F01 JUMP JUMPDEST SWAP1 POP PUSH2 0x2F60 PUSH1 0x20 DUP4 ADD DUP5 PUSH2 0x2CC4 JUMP JUMPDEST SWAP4 SWAP3 POP POP POP JUMP JUMPDEST PUSH0 DUP3 DUP3 MSTORE PUSH1 0x20 DUP3 ADD SWAP1 POP SWAP3 SWAP2 POP POP JUMP JUMPDEST PUSH0 PUSH2 0x2F81 DUP3 PUSH2 0x2A9B JUMP JUMPDEST PUSH2 0x2F8B DUP2 DUP6 PUSH2 0x2F67 JUMP JUMPDEST SWAP4 POP PUSH2 0x2F9B DUP2 DUP6 PUSH1 0x20 DUP7 ADD PUSH2 0x296F JUMP JUMPDEST PUSH2 0x2FA4 DUP2 PUSH2 0x297D JUMP JUMPDEST DUP5 ADD SWAP2 POP POP SWAP3 SWAP2 POP POP JUMP JUMPDEST PUSH2 0x2FB8 DUP2 PUSH2 0x2AED JUMP JUMPDEST DUP3 MSTORE POP POP JUMP JUMPDEST PUSH2 0x2FC7 DUP2 PUSH2 0x274E JUMP JUMPDEST DUP3 MSTORE POP POP JUMP JUMPDEST PUSH0 PUSH1 0x60 DUP4 ADD PUSH0 DUP4 ADD MLOAD DUP5 DUP3 SUB PUSH0 DUP7 ADD MSTORE PUSH2 0x2FE7 DUP3 DUP3 PUSH2 0x2F77 JUMP JUMPDEST SWAP2 POP POP PUSH1 0x20 DUP4 ADD MLOAD PUSH2 0x2FFC PUSH1 0x20 DUP7 ADD DUP3 PUSH2 0x2FAF JUMP JUMPDEST POP PUSH1 0x40 DUP4 ADD MLOAD PUSH2 0x300F PUSH1 0x40 DUP7 ADD DUP3 PUSH2 0x2FBE JUMP JUMPDEST POP DUP1 SWAP2 POP POP SWAP3 SWAP2 POP POP JUMP JUMPDEST PUSH0 PUSH1 0x40 DUP3 ADD SWAP1 POP DUP2 DUP2 SUB PUSH0 DUP4 ADD MSTORE PUSH2 0x3032 DUP2 DUP6 PUSH2 0x2FCD JUMP JUMPDEST SWAP1 POP DUP2 DUP2 SUB PUSH1 0x20 DUP4 ADD MSTORE PUSH2 0x3046 DUP2 DUP5 PUSH2 0x2FCD JUMP JUMPDEST SWAP1 POP SWAP4 SWAP3 POP POP POP JUMP JUMPDEST PUSH0 PUSH1 0x20 DUP3 DUP5 SUB SLT ISZERO PUSH2 0x3064 JUMPI PUSH2 0x3063 PUSH2 0x2709 JUMP JUMPDEST JUMPDEST PUSH0 PUSH2 0x3071 DUP5 DUP3 DUP6 ADD PUSH2 0x2E05 JUMP JUMPDEST SWAP2 POP POP SWAP3 SWAP2 POP POP JUMP JUMPDEST PUSH0 DUP2 SWAP1 POP PUSH1 0x20 DUP3 ADD SWAP1 POP SWAP2 SWAP1 POP JUMP JUMPDEST PUSH0 DUP2 SWAP1 POP SWAP2 SWAP1 POP JUMP JUMPDEST PUSH0 PUSH2 0x309D DUP3 MLOAD PUSH2 0x3089 JUMP JUMPDEST DUP1 SWAP2 POP POP SWAP2 SWAP1 POP JUMP JUMPDEST PUSH0 DUP3 DUP3 SHL SWAP1 POP SWAP3 SWAP2 POP POP JUMP JUMPDEST PUSH0 PUSH2 0x30BC DUP3 PUSH2 0x2A9B JUMP JUMPDEST DUP3 PUSH2 0x30C6 DUP5 PUSH2 0x307A JUMP JUMPDEST SWAP1 POP PUSH2 0x30D1 DUP2 PUSH2 0x3092 JUMP JUMPDEST SWAP3 POP PUSH1 0x20 DUP3 LT ISZERO PUSH2 0x3111 JUMPI PUSH2 0x310C PUSH32 0xFFFFFFFFFFFFFFFFFFFFFFFFFFFFFFFFFFFFFFFFFFFFFFFFFFFFFFFFFFFFFFFF DUP4 PUSH1 0x20 SUB PUSH1 0x8 MUL PUSH2 0x30A6 JUMP JUMPDEST DUP4 AND SWAP3 POP JUMPDEST POP POP SWAP2 SWAP1 POP JUMP JUMPDEST PUSH32 0x40A000000000000000000000000000000000000000000000000000000000000 PUSH0 DUP3 ADD MSTORE POP JUMP JUMPDEST PUSH0 PUSH2 0x314C PUSH1 0x2 DUP4 PUSH2 0x2C30 JUMP JUMPDEST SWAP2 POP PUSH2 0x3157 DUP3 PUSH2 0x3118 JUMP JUMPDEST PUSH1 0x2 DUP3 ADD SWAP1 POP SWAP2 SWAP1 POP JUMP JUMPDEST PUSH0 DUP2 PUSH1 0x60 SHL SWAP1 POP SWAP2 SWAP1 POP JUMP JUMPDEST PUSH0 PUSH2 0x3178 DUP3 PUSH2 0x3162 JUMP JUMPDEST SWAP1 POP SWAP2 SWAP1 POP JUMP JUMPDEST PUSH0 PUSH2 0x3189 DUP3 PUSH2 0x316E JUMP JUMPDEST SWAP1 POP SWAP2 SWAP1 POP JUMP JUMPDEST PUSH2 0x31A1 PUSH2 0x319C DUP3 PUSH2 0x27DE JUMP JUMPDEST PUSH2 0x317F JUMP JUMPDEST DUP3 MSTORE POP POP JUMP JUMPDEST PUSH0 PUSH2 0x31B1 DUP3 PUSH2 0x3140 JUMP JUMPDEST SWAP2 POP PUSH2 0x31BD DUP3 DUP5 PUSH2 0x3190 JUMP JUMPDEST PUSH1 0x14 DUP3 ADD SWAP2 POP DUP2 SWAP1 POP SWAP3 SWAP2 POP POP JUMP JUMPDEST PUSH2 0x31D5 DUP2 PUSH2 0x2711 JUMP JUMPDEST DUP3 MSTORE POP POP JUMP JUMPDEST PUSH0 DUP3 DUP3 MSTORE PUSH1 0x20 DUP3 ADD SWAP1 POP SWAP3 SWAP2 POP POP JUMP JUMPDEST PUSH0 PUSH2 0x31F5 DUP3 PUSH2 0x2A9B JUMP JUMPDEST PUSH2 0x31FF DUP2 DUP6 PUSH2 0x31DB JUMP JUMPDEST SWAP4 POP PUSH2 0x320F DUP2 DUP6 PUSH1 0x20 DUP7 ADD PUSH2 0x296F JUMP JUMPDEST PUSH2 0x3218 DUP2 PUSH2 0x297D JUMP JUMPDEST DUP5 ADD SWAP2 POP POP SWAP3 SWAP2 POP POP JUMP JUMPDEST PUSH0 PUSH2 0x323D PUSH2 0x3238 PUSH2 0x3233 DUP5 PUSH2 0x2711 JUMP JUMPDEST PUSH2 0x2BB1 JUMP JUMPDEST PUSH2 0x2711 JUMP JUMPDEST SWAP1 POP SWAP2 SWAP1 POP JUMP JUMPDEST PUSH2 0x324D DUP2 PUSH2 0x3223 JUMP JUMPDEST DUP3 MSTORE POP POP JUMP JUMPDEST PUSH0 PUSH1 0xC0 DUP3 ADD SWAP1 POP PUSH2 0x3266 PUSH0 DUP4 ADD DUP10 PUSH2 0x31CC JUMP JUMPDEST PUSH2 0x3273 PUSH1 0x20 DUP4 ADD DUP9 PUSH2 0x2A73 JUMP JUMPDEST PUSH2 0x3280 PUSH1 0x40 DUP4 ADD DUP8 PUSH2 0x31CC JUMP JUMPDEST PUSH2 0x328D PUSH1 0x60 DUP4 ADD DUP7 PUSH2 0x31CC JUMP JUMPDEST DUP2 DUP2 SUB PUSH1 0x80 DUP4 ADD MSTORE PUSH2 0x329F DUP2 DUP6 PUSH2 0x31EB JUMP JUMPDEST SWAP1 POP PUSH2 0x32AE PUSH1 0xA0 DUP4 ADD DUP5 PUSH2 0x3244 JUMP JUMPDEST SWAP8 SWAP7 POP POP POP POP POP POP POP JUMP JUMPDEST PUSH0 PUSH2 0x32C4 DUP3 DUP5 PUSH2 0x2C64 JUMP JUMPDEST SWAP2 POP DUP2 SWAP1 POP SWAP3 SWAP2 POP POP JUMP JUMPDEST PUSH32 0x4E487B7100000000000000000000000000000000000000000000000000000000 PUSH0 MSTORE PUSH1 0x11 PUSH1 0x4 MSTORE PUSH1 0x24 PUSH0 REVERT JUMPDEST PUSH0 PUSH2 0x3306 DUP3 PUSH2 0x274E JUMP JUMPDEST SWAP2 POP PUSH2 0x3311 DUP4 PUSH2 0x274E JUMP JUMPDEST SWAP3 POP DUP3 DUP3 ADD SWAP1 POP DUP1 DUP3 GT ISZERO PUSH2 0x3329 JUMPI PUSH2 0x3328 PUSH2 0x32CF JUMP JUMPDEST JUMPDEST SWAP3 SWAP2 POP POP JUMP JUMPDEST PUSH32 0x4E487B7100000000000000000000000000000000000000000000000000000000 PUSH0 MSTORE PUSH1 0x32 PUSH1 0x4 MSTORE PUSH1 0x24 PUSH0 REVERT JUMPDEST PUSH0 PUSH1 0x40 DUP3 ADD SWAP1 POP PUSH2 0x336F PUSH0 DUP4 ADD DUP6 PUSH2 0x2A73 JUMP JUMPDEST PUSH2 0x337C PUSH1 0x20 DUP4 ADD DUP5 PUSH2 0x2A73 JUMP JUMPDEST SWAP4 SWAP3 POP POP POP JUMP JUMPDEST PUSH0 DUP2 SWAP1 POP SWAP2 SWAP1 POP JUMP JUMPDEST PUSH2 0x3395 DUP2 PUSH2 0x3383 JUMP JUMPDEST DUP2 EQ PUSH2 0x339F JUMPI PUSH0 DUP1 REVERT JUMPDEST POP JUMP JUMPDEST PUSH0 DUP2 MLOAD SWAP1 POP PUSH2 0x33B0 DUP2 PUSH2 0x338C JUMP JUMPDEST SWAP3 SWAP2 POP POP JUMP JUMPDEST PUSH0 DUP2 MLOAD SWAP1 POP PUSH2 0x33C4 DUP2 PUSH2 0x2724 JUMP JUMPDEST SWAP3 SWAP2 POP POP JUMP JUMPDEST PUSH0 DUP1 PUSH0 PUSH1 0x60 DUP5 DUP7 SUB SLT ISZERO PUSH2 0x33E1 JUMPI PUSH2 0x33E0 PUSH2 0x2709 JUMP JUMPDEST JUMPDEST PUSH0 PUSH2 0x33EE DUP7 DUP3 DUP8 ADD PUSH2 0x33A2 JUMP JUMPDEST SWAP4 POP POP PUSH1 0x20 PUSH2 0x33FF DUP7 DUP3 DUP8 ADD PUSH2 0x33B6 JUMP JUMPDEST SWAP3 POP POP PUSH1 0x40 DUP5 ADD MLOAD PUSH8 0xFFFFFFFFFFFFFFFF DUP2 GT ISZERO PUSH2 0x3420 JUMPI PUSH2 0x341F PUSH2 0x270D JUMP JUMPDEST JUMPDEST PUSH2 0x342C DUP7 DUP3 DUP8 ADD PUSH2 0x2DC2 JUMP JUMPDEST SWAP2 POP POP SWAP3 POP SWAP3 POP SWAP3 JUMP JUMPDEST PUSH0 PUSH1 0x20 DUP3 ADD SWAP1 POP PUSH2 0x3449 PUSH0 DUP4 ADD DUP5 PUSH2 0x31CC JUMP JUMPDEST SWAP3 SWAP2 POP POP JUMP JUMPDEST PUSH2 0x3458 DUP2 PUSH2 0x3383 JUMP JUMPDEST DUP3 MSTORE POP POP JUMP JUMPDEST PUSH0 PUSH1 0x20 DUP3 ADD SWAP1 POP PUSH2 0x3471 PUSH0 DUP4 ADD DUP5 PUSH2 0x344F JUMP JUMPDEST SWAP3 SWAP2 POP POP JUMP JUMPDEST PUSH32 0x696E76616C6964206D616A20286578706563746564204D616A54657874537472 PUSH0 DUP3 ADD MSTORE PUSH32 0x696E672900000000000000000000000000000000000000000000000000000000 PUSH1 0x20 DUP3 ADD MSTORE POP JUMP JUMPDEST PUSH0 PUSH2 0x34D1 PUSH1 0x24 DUP4 PUSH2 0x295F JUMP JUMPDEST SWAP2 POP PUSH2 0x34DC DUP3 PUSH2 0x3477 JUMP JUMPDEST PUSH1 0x40 DUP3 ADD SWAP1 POP SWAP2 SWAP1 POP JUMP JUMPDEST PUSH0 PUSH1 0x20 DUP3 ADD SWAP1 POP DUP2 DUP2 SUB PUSH0 DUP4 ADD MSTORE PUSH2 0x34FE DUP2 PUSH2 0x34C5 JUMP JUMPDEST SWAP1 POP SWAP2 SWAP1 POP JUMP JUMPDEST PUSH0 PUSH2 0x350F DUP3 PUSH2 0x274E JUMP JUMPDEST SWAP2 POP PUSH32 0xFFFFFFFFFFFFFFFFFFFFFFFFFFFFFFFFFFFFFFFFFFFFFFFFFFFFFFFFFFFFFFFF DUP3 SUB PUSH2 0x3541 JUMPI PUSH2 0x3540 PUSH2 0x32CF JUMP JUMPDEST JUMPDEST PUSH1 0x1 DUP3 ADD SWAP1 POP SWAP2 SWAP1 POP JUMP JUMPDEST PUSH0 PUSH2 0x3556 DUP3 PUSH2 0x274E JUMP JUMPDEST SWAP2 POP PUSH2 0x3561 DUP4 PUSH2 0x274E JUMP JUMPDEST SWAP3 POP DUP3 DUP3 MUL PUSH2 0x356F DUP2 PUSH2 0x274E JUMP JUMPDEST SWAP2 POP DUP3 DUP3 DIV DUP5 EQ DUP4 ISZERO OR PUSH2 0x3586 JUMPI PUSH2 0x3585 PUSH2 0x32CF JUMP JUMPDEST JUMPDEST POP SWAP3 SWAP2 POP POP JUMP JUMPDEST PUSH32 0x496E76616C69642043424F520000000000000000000000000000000000000000 PUSH0 DUP3 ADD MSTORE POP JUMP JUMPDEST PUSH0 PUSH2 0x35C1 PUSH1 0xC DUP4 PUSH2 0x295F JUMP JUMPDEST SWAP2 POP PUSH2 0x35CC DUP3 PUSH2 0x358D JUMP JUMPDEST PUSH1 0x20 DUP3 ADD SWAP1 POP SWAP2 SWAP1 POP JUMP JUMPDEST PUSH0 PUSH1 0x20 DUP3 ADD SWAP1 POP DUP2 DUP2 SUB PUSH0 DUP4 ADD MSTORE PUSH2 0x35EE DUP2 PUSH2 0x35B5 JUMP JUMPDEST SWAP1 POP SWAP2 SWAP1 POP JUMP JUMPDEST PUSH32 0x696E76616C6964206D616A20286578706563746564204D616A546167206F7220 PUSH0 DUP3 ADD MSTORE PUSH32 0x4D616A42797465537472696E6729000000000000000000000000000000000000 PUSH1 0x20 DUP3 ADD MSTORE POP JUMP JUMPDEST PUSH0 PUSH2 0x364F PUSH1 0x2E DUP4 PUSH2 0x295F JUMP JUMPDEST SWAP2 POP PUSH2 0x365A DUP3 PUSH2 0x35F5 JUMP JUMPDEST PUSH1 0x40 DUP3 ADD SWAP1 POP SWAP2 SWAP1 POP JUMP JUMPDEST PUSH0 PUSH1 0x20 DUP3 ADD SWAP1 POP DUP2 DUP2 SUB PUSH0 DUP4 ADD MSTORE PUSH2 0x367C DUP2 PUSH2 0x3643 JUMP JUMPDEST SWAP1 POP SWAP2 SWAP1 POP JUMP JUMPDEST PUSH32 0x4E487B7100000000000000000000000000000000000000000000000000000000 PUSH0 MSTORE PUSH1 0x1 PUSH1 0x4 MSTORE PUSH1 0x24 PUSH0 REVERT JUMPDEST PUSH0 PUSH2 0x36BA DUP3 PUSH2 0x274E JUMP JUMPDEST SWAP2 POP PUSH2 0x36C5 DUP4 PUSH2 0x274E JUMP JUMPDEST SWAP3 POP DUP3 DUP3 SUB SWAP1 POP DUP2 DUP2 GT ISZERO PUSH2 0x36DD JUMPI PUSH2 0x36DC PUSH2 0x32CF JUMP JUMPDEST JUMPDEST SWAP3 SWAP2 POP POP JUMP JUMPDEST PUSH32 0x63616E6E6F742068616E646C6520686561646572732077697468206578747261 PUSH0 DUP3 ADD MSTORE PUSH32 0x203E203237000000000000000000000000000000000000000000000000000000 PUSH1 0x20 DUP3 ADD MSTORE POP JUMP JUMPDEST PUSH0 PUSH2 0x373D PUSH1 0x25 DUP4 PUSH2 0x295F JUMP JUMPDEST SWAP2 POP PUSH2 0x3748 DUP3 PUSH2 0x36E3 JUMP JUMPDEST PUSH1 0x40 DUP3 ADD SWAP1 POP SWAP2 SWAP1 POP JUMP JUMPDEST PUSH0 PUSH1 0x20 DUP3 ADD SWAP1 POP DUP2 DUP2 SUB PUSH0 DUP4 ADD MSTORE PUSH2 0x376A DUP2 PUSH2 0x3731 JUMP JUMPDEST SWAP1 POP SWAP2 SWAP1 POP JUMP JUMPDEST PUSH32 0x696E76616C69642063626F720000000000000000000000000000000000000000 PUSH0 DUP3 ADD MSTORE POP JUMP JUMPDEST PUSH0 PUSH2 0x37A5 PUSH1 0xC DUP4 PUSH2 0x295F JUMP JUMPDEST SWAP2 POP PUSH2 0x37B0 DUP3 PUSH2 0x3771 JUMP JUMPDEST PUSH1 0x20 DUP3 ADD SWAP1 POP SWAP2 SWAP1 POP JUMP JUMPDEST PUSH0 PUSH1 0x20 DUP3 ADD SWAP1 POP DUP2 DUP2 SUB PUSH0 DUP4 ADD MSTORE PUSH2 0x37D2 DUP2 PUSH2 0x3799 JUMP JUMPDEST SWAP1 POP SWAP2 SWAP1 POP JUMP JUMPDEST PUSH32 0x4E487B7100000000000000000000000000000000000000000000000000000000 PUSH0 MSTORE PUSH1 0x12 PUSH1 0x4 MSTORE PUSH1 0x24 PUSH0 REVERT JUMPDEST PUSH0 PUSH2 0x3810 DUP3 PUSH2 0x274E JUMP JUMPDEST SWAP2 POP PUSH2 0x381B DUP4 PUSH2 0x274E JUMP JUMPDEST SWAP3 POP DUP3 PUSH2 0x382B JUMPI PUSH2 0x382A PUSH2 0x37D9 JUMP JUMPDEST JUMPDEST DUP3 DUP3 MOD SWAP1 POP SWAP3 SWAP2 POP POP JUMP JUMPDEST PUSH32 0x736C6963696E67206F7574206F662072616E6765000000000000000000000000 PUSH0 DUP3 ADD MSTORE POP JUMP JUMPDEST PUSH0 PUSH2 0x386A PUSH1 0x14 DUP4 PUSH2 0x295F JUMP JUMPDEST SWAP2 POP PUSH2 0x3875 DUP3 PUSH2 0x3836 JUMP JUMPDEST PUSH1 0x20 DUP3 ADD SWAP1 POP SWAP2 SWAP1 POP JUMP JUMPDEST PUSH0 PUSH1 0x20 DUP3 ADD SWAP1 POP DUP2 DUP2 SUB PUSH0 DUP4 ADD MSTORE PUSH2 0x3897 DUP2 PUSH2 0x385E JUMP JUMPDEST SWAP1 POP SWAP2 SWAP1 POP JUMP JUMPDEST PUSH0 DUP2 PUSH1 0x1 SHR SWAP1 POP SWAP2 SWAP1 POP JUMP JUMPDEST PUSH0 DUP1 DUP3 SWAP2 POP DUP4 SWAP1 POP JUMPDEST PUSH1 0x1 DUP6 GT ISZERO PUSH2 0x38F3 JUMPI DUP1 DUP7 DIV DUP2 GT ISZERO PUSH2 0x38CF JUMPI PUSH2 0x38CE PUSH2 0x32CF JUMP JUMPDEST JUMPDEST PUSH1 0x1 DUP6 AND ISZERO PUSH2 0x38DE JUMPI DUP1 DUP3 MUL SWAP2 POP JUMPDEST DUP1 DUP2 MUL SWAP1 POP PUSH2 0x38EC DUP6 PUSH2 0x389E JUMP JUMPDEST SWAP5 POP PUSH2 0x38B3 JUMP JUMPDEST SWAP5 POP SWAP5 SWAP3 POP POP POP JUMP JUMPDEST PUSH0 DUP3 PUSH2 0x390B JUMPI PUSH1 0x1 SWAP1 POP PUSH2 0x39C6 JUMP JUMPDEST DUP2 PUSH2 0x3918 JUMPI PUSH0 SWAP1 POP PUSH2 0x39C6 JUMP JUMPDEST DUP2 PUSH1 0x1 DUP2 EQ PUSH2 0x392E JUMPI PUSH1 0x2 DUP2 EQ PUSH2 0x3938 JUMPI PUSH2 0x3967 JUMP JUMPDEST PUSH1 0x1 SWAP2 POP POP PUSH2 0x39C6 JUMP JUMPDEST PUSH1 0xFF DUP5 GT ISZERO PUSH2 0x394A JUMPI PUSH2 0x3949 PUSH2 0x32CF JUMP JUMPDEST JUMPDEST DUP4 PUSH1 0x2 EXP SWAP2 POP DUP5 DUP3 GT ISZERO PUSH2 0x3961 JUMPI PUSH2 0x3960 PUSH2 0x32CF JUMP JUMPDEST JUMPDEST POP PUSH2 0x39C6 JUMP JUMPDEST POP PUSH1 0x20 DUP4 LT PUSH2 0x133 DUP4 LT AND PUSH1 0x4E DUP5 LT PUSH1 0xB DUP5 LT AND OR ISZERO PUSH2 0x399C JUMPI DUP3 DUP3 EXP SWAP1 POP DUP4 DUP2 GT ISZERO PUSH2 0x3997 JUMPI PUSH2 0x3996 PUSH2 0x32CF JUMP JUMPDEST JUMPDEST PUSH2 0x39C6 JUMP JUMPDEST PUSH2 0x39A9 DUP5 DUP5 DUP5 PUSH1 0x1 PUSH2 0x38AA JUMP JUMPDEST SWAP3 POP SWAP1 POP DUP2 DUP5 DIV DUP2 GT ISZERO PUSH2 0x39C0 JUMPI PUSH2 0x39BF PUSH2 0x32CF JUMP JUMPDEST JUMPDEST DUP2 DUP2 MUL SWAP1 POP JUMPDEST SWAP4 SWAP3 POP POP POP JUMP JUMPDEST PUSH0 PUSH2 0x39D7 DUP3 PUSH2 0x274E JUMP JUMPDEST SWAP2 POP PUSH2 0x39E2 DUP4 PUSH2 0x274E JUMP JUMPDEST SWAP3 POP PUSH2 0x3A0F PUSH32 0xFFFFFFFFFFFFFFFFFFFFFFFFFFFFFFFFFFFFFFFFFFFFFFFFFFFFFFFFFFFFFFFF DUP5 DUP5 PUSH2 0x38FC JUMP JUMPDEST SWAP1 POP SWAP3 SWAP2 POP POP JUMP INVALID LOG2 PUSH5 0x6970667358 0x22 SLT KECCAK256 STATICCALL 0xD7 PUSH5 0x85FA63583B PUSH32 0x68D8C22357BC086EB2C4BDDF8B92FE65B9BAF1984BC4E864736F6C634300081A STOP CALLER "
		},
		"gasEstimates": {
			"creation": {
				"codeDepositCost": "2985000",
				"executionCost": "infinite",
				"totalCost": "infinite"
			},
			"external": {
				"acceptOwnership()": "infinite",
				"addVerifiedClient(bytes,uint256)": "infinite",
				"addVerifiedClientByActorID(uint64,uint256)": "infinite",
				"balance()": "infinite",
				"balanceFromActorID(uint64)": "infinite",
				"filAddr()": "infinite",
				"initialize(address)": "infinite",
				"name()": "infinite",
				"owner()": "2656",
				"pendingOwner()": "2633",
				"renounceOwnership()": "infinite",
				"senderAddr()": "424",
				"transferOwnership(address)": "infinite"
			}
		},
		"methodIdentifiers": {
			"acceptOwnership()": "79ba5097",
			"addVerifiedClient(bytes,uint256)": "930fc006",
			"addVerifiedClientByActorID(uint64,uint256)": "3928f5ef",
			"balance()": "b69ef8a8",
			"balanceFromActorID(uint64)": "9e86a6eb",
			"filAddr()": "bc2da3f6",
			"initialize(address)": "c4d66de8",
			"name()": "06fdde03",
			"owner()": "8da5cb5b",
			"pendingOwner()": "e30c3978",
			"renounceOwnership()": "715018a6",
			"senderAddr()": "b31bfa9a",
			"transferOwnership(address)": "f2fde38b"
		}
	},
	"abi": [
		{
			"inputs": [],
			"stateMutability": "nonpayable",
			"type": "constructor"
		},
		{
			"inputs": [
				{
					"internalType": "int256",
					"name": "errorCode",
					"type": "int256"
				}
			],
			"name": "ActorError",
			"type": "error"
		},
		{
			"inputs": [],
			"name": "ActorNotFound",
			"type": "error"
		},
		{
			"inputs": [],
			"name": "AlreadyHasAllowance",
			"type": "error"
		},
		{
			"inputs": [],
			"name": "AlreadyZero",
			"type": "error"
		},
		{
			"inputs": [],
			"name": "AmountEqualZero",
			"type": "error"
		},
		{
			"inputs": [],
			"name": "FailToCallActor",
			"type": "error"
		},
		{
			"inputs": [],
			"name": "FunctionDisabled",
			"type": "error"
		},
		{
			"inputs": [],
			"name": "InsufficientAllowance",
			"type": "error"
		},
		{
			"inputs": [],
			"name": "InvalidAddress",
			"type": "error"
		},
		{
			"inputs": [],
			"name": "InvalidAmount",
			"type": "error"
		},
		{
			"inputs": [
				{
					"internalType": "uint64",
					"name": "",
					"type": "uint64"
				}
			],
			"name": "InvalidCodec",
			"type": "error"
		},
		{
			"inputs": [],
			"name": "InvalidInitialization",
			"type": "error"
		},
		{
			"inputs": [],
			"name": "InvalidResponseLength",
			"type": "error"
		},
		{
			"inputs": [],
			"name": "NegativeValueNotAllowed",
			"type": "error"
		},
		{
			"inputs": [
				{
					"internalType": "uint256",
					"name": "balance",
					"type": "uint256"
				},
				{
					"internalType": "uint256",
					"name": "value",
					"type": "uint256"
				}
			],
			"name": "NotEnoughBalance",
			"type": "error"
		},
		{
			"inputs": [],
			"name": "NotInitializing",
			"type": "error"
		},
		{
			"inputs": [
				{
					"internalType": "address",
					"name": "owner",
					"type": "address"
				}
			],
			"name": "OwnableInvalidOwner",
			"type": "error"
		},
		{
			"inputs": [
				{
					"internalType": "address",
					"name": "account",
					"type": "address"
				}
			],
			"name": "OwnableUnauthorizedAccount",
			"type": "error"
		},
		{
			"anonymous": false,
			"inputs": [
				{
					"indexed": true,
					"internalType": "address",
					"name": "allocator",
					"type": "address"
				},
				{
					"indexed": false,
					"internalType": "uint256",
					"name": "allowanceBefore",
					"type": "uint256"
				},
				{
					"indexed": false,
					"internalType": "uint256",
					"name": "allowanceAfter",
					"type": "uint256"
				}
			],
			"name": "AllowanceChanged",
			"type": "event"
		},
		{
			"anonymous": false,
			"inputs": [
				{
					"indexed": false,
					"internalType": "uint256",
					"name": "balance",
					"type": "uint256"
				}
			],
			"name": "Balance",
			"type": "event"
		},
		{
			"anonymous": false,
			"inputs": [
				{
					"components": [
						{
							"internalType": "bytes",
							"name": "val",
							"type": "bytes"
						},
						{
							"internalType": "bool",
							"name": "neg",
							"type": "bool"
						}
					],
					"indexed": false,
					"internalType": "struct CommonTypes.BigInt",
					"name": "balance",
					"type": "tuple"
				}
			],
			"name": "BalanceBig",
			"type": "event"
		},
		{
			"anonymous": false,
			"inputs": [
				{
					"indexed": true,
					"internalType": "address",
					"name": "allocator",
					"type": "address"
				},
				{
					"indexed": true,
					"internalType": "bytes",
					"name": "client",
					"type": "bytes"
				},
				{
					"indexed": false,
					"internalType": "uint256",
					"name": "amount",
					"type": "uint256"
				}
			],
			"name": "DatacapAllocated",
			"type": "event"
		},
		{
			"anonymous": false,
			"inputs": [
				{
					"components": [
						{
							"internalType": "bytes",
							"name": "data",
							"type": "bytes"
						}
					],
					"indexed": false,
					"internalType": "struct CommonTypes.FilAddress",
					"name": "addr",
					"type": "tuple"
				}
			],
			"name": "FilAddr",
			"type": "event"
		},
		{
			"anonymous": false,
			"inputs": [
				{
					"indexed": false,
					"internalType": "uint64",
					"name": "version",
					"type": "uint64"
				}
			],
			"name": "Initialized",
			"type": "event"
		},
		{
			"anonymous": false,
			"inputs": [
				{
					"indexed": false,
					"internalType": "string",
					"name": "name",
					"type": "string"
				}
			],
			"name": "Name",
			"type": "event"
		},
		{
			"anonymous": false,
			"inputs": [
				{
					"indexed": true,
					"internalType": "address",
					"name": "previousOwner",
					"type": "address"
				},
				{
					"indexed": true,
					"internalType": "address",
					"name": "newOwner",
					"type": "address"
				}
			],
			"name": "OwnershipTransferStarted",
			"type": "event"
		},
		{
			"anonymous": false,
			"inputs": [
				{
					"indexed": true,
					"internalType": "address",
					"name": "previousOwner",
					"type": "address"
				},
				{
					"indexed": true,
					"internalType": "address",
					"name": "newOwner",
					"type": "address"
				}
			],
			"name": "OwnershipTransferred",
			"type": "event"
		},
		{
			"inputs": [],
			"name": "acceptOwnership",
			"outputs": [],
			"stateMutability": "nonpayable",
			"type": "function"
		},
		{
			"inputs": [
				{
					"internalType": "bytes",
					"name": "clientAddress",
					"type": "bytes"
				},
				{
					"internalType": "uint256",
					"name": "amount",
					"type": "uint256"
				}
			],
			"name": "addVerifiedClient",
			"outputs": [],
			"stateMutability": "nonpayable",
			"type": "function"
		},
		{
			"inputs": [
				{
					"internalType": "uint64",
					"name": "actorID",
					"type": "uint64"
				},
				{
					"internalType": "uint256",
					"name": "amount",
					"type": "uint256"
				}
			],
			"name": "addVerifiedClientByActorID",
			"outputs": [],
			"stateMutability": "nonpayable",
			"type": "function"
		},
		{
			"inputs": [],
			"name": "balance",
			"outputs": [],
			"stateMutability": "nonpayable",
			"type": "function"
		},
		{
			"inputs": [
				{
					"internalType": "uint64",
					"name": "actorID",
					"type": "uint64"
				}
			],
			"name": "balanceFromActorID",
			"outputs": [],
			"stateMutability": "nonpayable",
			"type": "function"
		},
		{
			"inputs": [],
			"name": "filAddr",
			"outputs": [],
			"stateMutability": "nonpayable",
			"type": "function"
		},
		{
			"inputs": [
				{
					"internalType": "address",
					"name": "initialOwner",
					"type": "address"
				}
			],
			"name": "initialize",
			"outputs": [],
			"stateMutability": "nonpayable",
			"type": "function"
		},
		{
			"inputs": [],
			"name": "name",
			"outputs": [],
			"stateMutability": "nonpayable",
			"type": "function"
		},
		{
			"inputs": [],
			"name": "owner",
			"outputs": [
				{
					"internalType": "address",
					"name": "",
					"type": "address"
				}
			],
			"stateMutability": "view",
			"type": "function"
		},
		{
			"inputs": [],
			"name": "pendingOwner",
			"outputs": [
				{
					"internalType": "address",
					"name": "",
					"type": "address"
				}
			],
			"stateMutability": "view",
			"type": "function"
		},
		{
			"inputs": [],
			"name": "renounceOwnership",
			"outputs": [],
			"stateMutability": "nonpayable",
			"type": "function"
		},
		{
			"inputs": [],
			"name": "senderAddr",
			"outputs": [
				{
					"internalType": "address",
					"name": "addr",
					"type": "address"
				}
			],
			"stateMutability": "view",
			"type": "function"
		},
		{
			"inputs": [
				{
					"internalType": "address",
					"name": "newOwner",
					"type": "address"
				}
			],
			"name": "transferOwnership",
			"outputs": [],
			"stateMutability": "nonpayable",
			"type": "function"
		}
	]
}