{
	"data": {
		"bytecode": {
			"linkReferences": {},
			"object": "608060405234801561000f575f80fd5b5061001e61002360201b60201c565b61019e565b5f61003261012160201b60201c565b9050805f0160089054906101000a900460ff161561007c576040517ff92ee8a900000000000000000000000000000000000000000000000000000000815260040160405180910390fd5b67ffffffffffffffff8016815f015f9054906101000a900467ffffffffffffffff1667ffffffffffffffff161461011e5767ffffffffffffffff815f015f6101000a81548167ffffffffffffffff021916908367ffffffffffffffff1602179055507fc7f505b2f371ae2175ee4913f4499e1f2633a7b5936321eed1cdaeb6115181d267ffffffffffffffff6040516101159190610185565b60405180910390a15b50565b5f8061013161013a60201b60201c565b90508091505090565b5f7ff0c57e16840df040f15088dc2f81fe391c3923bec73e23a9662efc9c229c6a005f1b905090565b5f67ffffffffffffffff82169050919050565b61017f81610163565b82525050565b5f6020820190506101985f830184610176565b92915050565b61379b806101ab5f395ff3fe608060405234801561000f575f80fd5b50600436106100f3575f3560e01c8063930fc00611610095578063c4d66de811610064578063c4d66de8146101fd578063dd65119414610219578063e30c397814610249578063f2fde38b14610267576100f3565b8063930fc006146101af578063b31bfa9a146101cb578063b69ef8a8146101e9578063bc2da3f6146101f3576100f3565b80636f37980b116100d15780636f37980b1461014d578063715018a61461017d57806379ba5097146101875780638da5cb5b14610191576100f3565b806306fdde03146100f75780632f4b0a34146101015780633928f5ef14610131575b5f80fd5b6100ff610283565b005b61011b60048036038101906101169190612768565b6102c8565b60405161012891906127d2565b60405180910390f35b61014b6004803603810190610146919061281e565b6102de565b005b61016760048036038101906101629190612768565b61037f565b60405161017491906128cc565b60405180910390f35b610185610399565b005b61018f6103ac565b005b61019961043a565b6040516101a691906127d2565b60405180910390f35b6101c960048036038101906101c4919061294d565b61046f565b005b6101d36105b5565b6040516101e091906127d2565b60405180910390f35b6101f16105bc565b005b6101fb61060f565b005b610217600480360381019061021291906129d4565b610655565b005b610233600480360381019061022e91906129ff565b6107d6565b60405161024091906127d2565b60405180910390f35b61025161084a565b60405161025e91906127d2565b60405180910390f35b610281600480360381019061027c91906129d4565b61087f565b005b5f61028c610938565b90507fe4ce60ef5cafebaa0b89e2b7efb3d2555b4b24735f879981e488b863933f4b00816040516102bd9190612a9c565b60405180910390a150565b5f806102d3836109b1565b905080915050919050565b5f8103610317576040517fb0da7f3400000000000000000000000000000000000000000000000000000000815260040160405180910390fd5b5f610321836109e4565b90505f60405180604001604052808381526020016040518060400160405280866040516020016103519190612adc565b60405160208183030381529060405281526020015f1515815250815250905061037981610a31565b50505050565b60605f61038b836109e4565b9050805f0151915050919050565b6103a1610a93565b6103aa5f610b1a565b565b5f6103b5610b57565b90508073ffffffffffffffffffffffffffffffffffffffff166103d661084a565b73ffffffffffffffffffffffffffffffffffffffff161461042e57806040517f118cdaa700000000000000000000000000000000000000000000000000000000815260040161042591906127d2565b60405180910390fd5b61043781610b1a565b50565b5f80610444610b5e565b9050805f015f9054906101000a900473ffffffffffffffffffffffffffffffffffffffff1691505090565b5f81036104a8576040517fb0da7f3400000000000000000000000000000000000000000000000000000000815260040160405180910390fd5b82826040516104b8929190612b32565b60405180910390203373ffffffffffffffffffffffffffffffffffffffff167f9b88bd178c90ce12441ff8588a493795e519ac037930d64fdb0d15de4fb53e37836040516105069190612b59565b60405180910390a35f604051806040016040528061056686868080601f0160208091040260200160405190810160405280939291908181526020018383808284375f81840152601f19601f82011690508083019250505050505050610b85565b81526020016040518060400160405280856040516020016105879190612adc565b60405160208183030381529060405281526020015f151581525081525090506105af81610a31565b50505050565b5f33905090565b5f6105c633610be7565b90505f6105d282610c24565b90507f2bb1df2baf0bee73cdf97c50a10fbd6228b5a5cd7f645d77151e29703c011724816040516106039190612c0e565b60405180910390a15050565b5f61061933610be7565b90507f438f6a470f05c56c5a0c349a7c523898b46bc25f3e5b4876cce605569af9e92d8160405161064a9190612c55565b60405180910390a150565b5f61065e610c62565b90505f815f0160089054906101000a900460ff161590505f825f015f9054906101000a900467ffffffffffffffff1690505f808267ffffffffffffffff161480156106a65750825b90505f60018367ffffffffffffffff161480156106d957505f3073ffffffffffffffffffffffffffffffffffffffff163b145b9050811580156106e7575080155b1561071e576040517ff92ee8a900000000000000000000000000000000000000000000000000000000815260040160405180910390fd5b6001855f015f6101000a81548167ffffffffffffffff021916908367ffffffffffffffff160217905550831561076b576001855f0160086101000a81548160ff0219169083151502179055505b61077486610c75565b83156107ce575f855f0160086101000a81548160ff0219169083151502179055507fc7f505b2f371ae2175ee4913f4499e1f2633a7b5936321eed1cdaeb6115181d260016040516107c59190612cb7565b60405180910390a15b505050505050565b5f8061082484848080601f0160208091040260200160405190810160405280939291908181526020018383808284375f81840152601f19601f82011690508083019250505050505050610b85565b90505f61083082610c89565b90505f61083c826109b1565b905080935050505092915050565b5f80610854610d63565b9050805f015f9054906101000a900473ffffffffffffffffffffffffffffffffffffffff1691505090565b610887610a93565b5f610890610d63565b905081815f015f6101000a81548173ffffffffffffffffffffffffffffffffffffffff021916908373ffffffffffffffffffffffffffffffffffffffff1602179055508173ffffffffffffffffffffffffffffffffffffffff166108f261043a565b73ffffffffffffffffffffffffffffffffffffffff167f38d16b8cac22d99fc7c124b9cd0de2d3fa1faef420bfe791d8c362d765e2270060405160405180910390a35050565b60605f8067ffffffffffffffff81111561095557610954612cd0565b5b6040519080825280601f01601f1916602001820160405280156109875781602001600182028036833780820191505090505b5090505f61099f60076302ea015c5f855f6001610d8a565b90506109aa81610eab565b9250505090565b5f805f6109bd84610ed4565b9150915081156109d15780925050506109df565b6109da84610f59565b925050505b919050565b6109ec6126b4565b5f6109f683610f78565b90506040518060200160405280825f0151604051602001610a179190612d61565b604051602081830303815290604052815250915050919050565b5f610a3b82610fee565b90505f610a52600663e96cc6f06051855f80610d8a565b90505f815114610a8e576040517f0e74990700000000000000000000000000000000000000000000000000000000815260040160405180910390fd5b505050565b610a9b610b57565b73ffffffffffffffffffffffffffffffffffffffff16610ab961043a565b73ffffffffffffffffffffffffffffffffffffffff1614610b1857610adc610b57565b6040517f118cdaa7000000000000000000000000000000000000000000000000000000008152600401610b0f91906127d2565b60405180910390fd5b565b5f610b23610d63565b9050805f015f6101000a81549073ffffffffffffffffffffffffffffffffffffffff0219169055610b53826110a9565b5050565b5f33905090565b5f7f9016d09d72d40fdae2fd8ceac6b6234c7706214fd39c1cd1e609a0528c199300905090565b610b8d6126b4565b5f6040518060200160405280848152509050610ba88161117a565b610bde576040517fe6c4247b00000000000000000000000000000000000000000000000000000000815260040160405180910390fd5b80915050919050565b610bef6126b4565b604051806020016040528083604051602001610c0b9190612e11565b6040516020818303038152906040528152509050919050565b610c2c6126c7565b5f610c368361134f565b90505f610c4e600763c26ddbd56051855f6001610d8a565b9050610c5981611394565b92505050919050565b5f80610c6c61144c565b90508091505090565b610c7d611475565b610c86816114b5565b50565b5f805f73fe0000000000000000000000000000000000000173ffffffffffffffffffffffffffffffffffffffff16845f0151604051610cc89190612e36565b5f60405180830381855afa9150503d805f8114610d00576040519150601f19603f3d011682016040523d82523d5f602084013e610d05565b606091505b509150915081610d41576040517f8a7db5bf00000000000000000000000000000000000000000000000000000000815260040160405180910390fd5b5f81806020019051810190610d569190612e60565b9050809350505050919050565b5f7f237e158222e3e6968b72b9db0d8043aacf074ad9f650f0d1606b4d82ee432c00905090565b6060610daa73fe0000000000000000000000000000000000000584611539565b5f8073fe0000000000000000000000000000000000000573ffffffffffffffffffffffffffffffffffffffff16888686610de4575f610de7565b60015b8a8a8e604051602001610dff96959493929190612eca565b604051602081830303815290604052604051610e1b9190612e36565b5f60405180830381855af49150503d805f8114610e53576040519150601f19603f3d011682016040523d82523d5f602084013e610e58565b606091505b509150915081610e94576040517f8a7db5bf00000000000000000000000000000000000000000000000000000000815260040160405180910390fd5b610e9d816115cd565b925050509695505050505050565b6060805f610ec2818561174e90919063ffffffff16565b80925081935050508192505050919050565b5f80825f526016600a60205f73fe000000000000000000000000000000000000025afa91505f518073ffffffffffffffffffffffffffffffffffffffff1691508060a01c61ffff1661040a8114610f2c575f93505f92505b5050811580610f4357506016610f406118c4565b14155b15610f53575f8091509150610f54565b5b915091565b5f8173ff00000000000000000000000000000000000000179050919050565b610f806126e2565b5b600115610fe8575f607f8316905060078367ffffffffffffffff16901c92505f8367ffffffffffffffff1603610fcb57610fc481836118cb90919063ffffffff16565b5050610fe9565b610fe160808217836118cb90919063ffffffff16565b5050610f81565b5b919050565b60605f80610fff8460200151611932565b905061100b6002611a8f565b826110169190612f5d565b9150611027845f01515f0151611ae2565b826110329190612f5d565b915061103d81611ae2565b826110489190612f5d565b91505f61105483611b00565b905061106a600282611b2590919063ffffffff16565b611083855f01515f015182611b3590919063ffffffff16565b6110968282611b3590919063ffffffff16565b61109f81611b5d565b9350505050919050565b5f6110b2610b5e565b90505f815f015f9054906101000a900473ffffffffffffffffffffffffffffffffffffffff16905082825f015f6101000a81548173ffffffffffffffffffffffffffffffffffffffff021916908373ffffffffffffffffffffffffffffffffffffffff1602179055508273ffffffffffffffffffffffffffffffffffffffff168173ffffffffffffffffffffffffffffffffffffffff167f8be0079c531659141344cd1fd0a4f28419497f9722a3daafe3b4186f6b6457e060405160405180910390a3505050565b5f8060f81b825f01515f8151811061119557611194612f90565b5b602001015160f81c60f81b7effffffffffffffffffffffffffffffffffffffffffffffffffffffffffffff1916036111d757600a825f0151511115905061134a565b600160f81b825f01515f815181106111f2576111f1612f90565b5b602001015160f81c60f81b7effffffffffffffffffffffffffffffffffffffffffffffffffffffffffffff191614806112705750600260f81b825f01515f8151811061124157611240612f90565b5b602001015160f81c60f81b7effffffffffffffffffffffffffffffffffffffffffffffffffffffffffffff1916145b15611284576015825f01515114905061134a565b600360f81b825f01515f8151811061129f5761129e612f90565b5b602001015160f81c60f81b7effffffffffffffffffffffffffffffffffffffffffffffffffffffffffffff1916036112e0576031825f01515114905061134a565b600460f81b825f01515f815181106112fb576112fa612f90565b5b602001015160f81c60f81b7effffffffffffffffffffffffffffffffffffffffffffffffffffffffffffff19160361133d576040825f0151511115905061134a565b610100825f015151111590505b919050565b60605f61135e835f0151611ae2565b90505f61136a82611b00565b9050611382845f015182611b3590919063ffffffff16565b61138b81611b5d565b92505050919050565b61139c6126c7565b60605f80845111156113df576113bb8185611bb390919063ffffffff16565b80925081935050505f825111156113de576113d582611d83565b92505050611447565b5b60405180604001604052805f67ffffffffffffffff81111561140457611403612cd0565b5b6040519080825280601f01601f1916602001820160405280156114365781602001600182028036833780820191505090505b5081526020015f1515815250925050505b919050565b5f7ff0c57e16840df040f15088dc2f81fe391c3923bec73e23a9662efc9c229c6a005f1b905090565b61147d611f1c565b6114b3576040517fd7e6bcf800000000000000000000000000000000000000000000000000000000815260040160405180910390fd5b565b6114bd611475565b5f73ffffffffffffffffffffffffffffffffffffffff168173ffffffffffffffffffffffffffffffffffffffff160361152d575f6040517f1e4fbdf700000000000000000000000000000000000000000000000000000000815260040161152491906127d2565b60405180910390fd5b61153681610b1a565b50565b5f479050818110156115845780826040517f8f0f420600000000000000000000000000000000000000000000000000000000815260040161157b929190612fbd565b60405180910390fd5b5f61158e84611f3a565b9050806115c7576040517f64d954b000000000000000000000000000000000000000000000000000000000815260040160405180910390fd5b50505050565b60605f805f848060200190518101906115e69190613118565b9250925092505f67ffffffffffffffff168267ffffffffffffffff1603611646575f815114611641576040517f0e74990700000000000000000000000000000000000000000000000000000000815260040160405180910390fd5b6116ff565b605167ffffffffffffffff168267ffffffffffffffff16148061167d5750607167ffffffffffffffff168267ffffffffffffffff16145b156116c1575f8151036116bc576040517f0e74990700000000000000000000000000000000000000000000000000000000815260040160405180910390fd5b6116fe565b816040517ff1f6bced0000000000000000000000000000000000000000000000000000000081526004016116f59190613184565b60405180910390fd5b5b5f831461174357826040517fd4bb667100000000000000000000000000000000000000000000000000000000815260040161173a91906131ac565b60405180910390fd5b809350505050919050565b60605f805f61175d8686611f4e565b8167ffffffffffffffff169150809750819350829450505050600360ff168260ff16146117bf576040517f08c379a00000000000000000000000000000000000000000000000000000000081526004016117b690613235565b60405180910390fd5b5f81866117cc9190612f5d565b90505f8267ffffffffffffffff8111156117e9576117e8612cd0565b5b6040519080825280601f01601f19166020018201604052801561181b5781602001600182028036833780820191505090505b5090505f808890505b838110156118a65789818151811061183f5761183e612f90565b5b602001015160f81c60f81b83838151811061185d5761185c612f90565b5b60200101907effffffffffffffffffffffffffffffffffffffffffffffffffffffffffffff191690815f1a905350818061189690613253565b9250508080600101915050611824565b508184896118b49190612f5d565b9650965050505050509250929050565b5f3d905090565b6118d36126e2565b5f835f01515190505f6001826118e99190612f5d565b90508460200151821061190d5761190c85600283611907919061329a565b612138565b5b84516020838201018581538151831115611925578282525b5050849250505092915050565b60605f6001835f0151516119469190612f5d565b67ffffffffffffffff81111561195f5761195e612cd0565b5b6040519080825280601f01601f1916602001820160405280156119915781602001600182028036833780820191505090505b5090506001151583602001511515146119ad575f60f81b6119b3565b600160f81b5b815f815181106119c6576119c5612f90565b5b60200101907effffffffffffffffffffffffffffffffffffffffffffffffffffffffffffff191690815f1a9053505f600190505f5b845f015151811015611a8457845f01518181518110611a1d57611a1c612f90565b5b602001015160f81c60f81b838381518110611a3b57611a3a612f90565b5b60200101907effffffffffffffffffffffffffffffffffffffffffffffffffffffffffffff191690815f1a9053508180611a7490613253565b92505080806001019150506119fb565b508192505050919050565b5f60178211611aa15760019050611add565b60ff8211611ab25760029050611add565b61ffff8211611ac45760039050611add565b63ffffffff8211611ad85760059050611add565b600990505b919050565b5f8151611aef8351611a8f565b611af99190612f5d565b9050919050565b611b086126fb565b611b15815f01518361215a565b505f816020018181525050919050565b611b31826004836121d0565b5050565b611b4282600283516121e0565b611b5881835f015161238090919063ffffffff16565b505050565b60605f826020015114611ba5576040517f08c379a0000000000000000000000000000000000000000000000000000000008152600401611b9c90613325565b60405180910390fd5b815f01515f01519050919050565b60605f805f611bc28686611f4e565b8167ffffffffffffffff169150809750819350829450505050600660ff168260ff161480611bf65750600260ff168260ff16145b611c35576040517f08c379a0000000000000000000000000000000000000000000000000000000008152600401611c2c906133b3565b60405180910390fd5b600660ff168260ff1603611c7e57611c4d8686611f4e565b8167ffffffffffffffff169150809750819350829450505050600260ff168260ff1614611c7d57611c7c6133d1565b5b5b5f8186611c8b9190612f5d565b90505f8267ffffffffffffffff811115611ca857611ca7612cd0565b5b6040519080825280601f01601f191660200182016040528015611cda5781602001600182028036833780820191505090505b5090505f808890505b83811015611d6557898181518110611cfe57611cfd612f90565b5b602001015160f81c60f81b838381518110611d1c57611d1b612f90565b5b60200101907effffffffffffffffffffffffffffffffffffffffffffffffffffffffffffff191690815f1a9053508180611d5590613253565b9250508080600101915050611ce3565b50818489611d739190612f5d565b9650965050505050509250929050565b611d8b6126c7565b5f825103611dc65760405180604001604052806040518060400160405280600181526020015f81525081526020015f15158152509050611f17565b5f60018351611dd591906133fe565b67ffffffffffffffff811115611dee57611ded612cd0565b5b6040519080825280601f01601f191660200182016040528015611e205781602001600182028036833780820191505090505b5090505f600160f81b845f81518110611e3c57611e3b612f90565b5b602001015160f81c60f81b7effffffffffffffffffffffffffffffffffffffffffffffffffffffffffffff191603611e7357600190505b5f600190505b8451811015611efa57848181518110611e9557611e94612f90565b5b602001015160f81c60f81b83600183611eae91906133fe565b81518110611ebf57611ebe612f90565b5b60200101907effffffffffffffffffffffffffffffffffffffffffffffffffffffffffffff191690815f1a9053508080600101915050611e79565b506040518060400160405280838152602001821515815250925050505b919050565b5f611f25610c62565b5f0160089054906101000a900460ff16905090565b5f80823f90505f801b811415915050919050565b5f805f80611f5c868661239c565b9050600185611f6b9190612f5d565b94505f600560e0831660ff16901c90505f601f83169050601c8160ff1610611fc8576040517f08c379a0000000000000000000000000000000000000000000000000000000008152600401611fbf906134a1565b60405180910390fd5b60188160ff161015611feb578181888160ff169150955095509550505050612131565b60188160ff1603612071575f612001898961239c565b90506001886120109190612f5d565b975060188160ff161015612059576040517f08c379a000000000000000000000000000000000000000000000000000000000815260040161205090613509565b60405180910390fd5b8281898160ff16915096509650965050505050612131565b60198160ff16036120b1575f6120878989612416565b90506002886120969190612f5d565b97508281898161ffff16915096509650965050505050612131565b601a8160ff16036120f3575f6120c7898961247e565b90506004886120d69190612f5d565b97508281898163ffffffff16915096509650965050505050612131565b601b8160ff1614612107576121066133d1565b5b5f61211289896124e6565b90506008886121219190612f5d565b9750828189965096509650505050505b9250925092565b5f825f01519050612149838361215a565b506121548382612380565b50505050565b6121626126e2565b5f6020836121709190613554565b1461219c576020826121829190613554565b602061218e91906133fe565b826121999190612f5d565b91505b818360200181815250506040518084525f8152828101602001818110156121c1575f80fd5b80604052505082905092915050565b6121db8383836121e0565b505050565b60178167ffffffffffffffff161161221a576122148160058460ff16901b60ff1617845f01516118cb90919063ffffffff16565b5061237b565b60ff8167ffffffffffffffff16116122765761224c601860058460ff16901b17845f01516118cb90919063ffffffff16565b506122708167ffffffffffffffff166001855f015161254e9092919063ffffffff16565b5061237a565b61ffff8167ffffffffffffffff16116122d3576122a9601960058460ff16901b17845f01516118cb90919063ffffffff16565b506122cd8167ffffffffffffffff166002855f015161254e9092919063ffffffff16565b50612379565b63ffffffff8167ffffffffffffffff161161233257612308601a60058460ff16901b17845f01516118cb90919063ffffffff16565b5061232c8167ffffffffffffffff166004855f015161254e9092919063ffffffff16565b50612378565b612352601b60058460ff16901b17845f01516118cb90919063ffffffff16565b506123768167ffffffffffffffff166008855f015161254e9092919063ffffffff16565b505b5b5b5b505050565b6123886126e2565b612394838384516125d7565b905092915050565b5f6001826123aa9190612f5d565b835110156123ed576040517f08c379a00000000000000000000000000000000000000000000000000000000081526004016123e4906135ce565b60405180910390fd5b828281518110612400576123ff612f90565b5b602001015160f81c60f81b60f81c905092915050565b5f6002826124249190612f5d565b83511015612467576040517f08c379a000000000000000000000000000000000000000000000000000000000815260040161245e906135ce565b60405180910390fd5b5f8260200184015190508060f01c91505092915050565b5f60048261248c9190612f5d565b835110156124cf576040517f08c379a00000000000000000000000000000000000000000000000000000000081526004016124c6906135ce565b60405180910390fd5b5f8260200184015190508060e01c91505092915050565b5f6008826124f49190612f5d565b83511015612537576040517f08c379a000000000000000000000000000000000000000000000000000000000815260040161252e906135ce565b60405180910390fd5b5f8260200184015190508060c01c91505092915050565b6125566126e2565b5f845f01515190505f818461256b9190612f5d565b905085602001518111156125905761258f8660028361258a919061329a565b612138565b5b5f6001856101006125a1919061371b565b6125ab91906133fe565b9050865182810187831982511617815281518411156125c8578382525b50508693505050509392505050565b6125df6126e2565b82518211156125ec575f80fd5b5f845f01515190505f83826126019190612f5d565b905085602001518111156126265761262586600283612620919061329a565b612138565b5b5f8087518051856020830101935080851115612640578482525b60208901925050505b6020861061268757805182526020826126629190612f5d565b91506020816126719190612f5d565b905060208661268091906133fe565b9550612649565b5f6001876020036101000a0390508019825116818451168181178552505050879450505050509392505050565b6040518060200160405280606081525090565b6040518060400160405280606081526020015f151581525090565b6040518060400160405280606081526020015f81525090565b604051806040016040528061270e6126e2565b81526020015f81525090565b5f604051905090565b5f80fd5b5f80fd5b5f67ffffffffffffffff82169050919050565b6127478161272b565b8114612751575f80fd5b50565b5f813590506127628161273e565b92915050565b5f6020828403121561277d5761277c612723565b5b5f61278a84828501612754565b91505092915050565b5f73ffffffffffffffffffffffffffffffffffffffff82169050919050565b5f6127bc82612793565b9050919050565b6127cc816127b2565b82525050565b5f6020820190506127e55f8301846127c3565b92915050565b5f819050919050565b6127fd816127eb565b8114612807575f80fd5b50565b5f81359050612818816127f4565b92915050565b5f806040838503121561283457612833612723565b5b5f61284185828601612754565b92505060206128528582860161280a565b9150509250929050565b5f81519050919050565b5f82825260208201905092915050565b8281835e5f83830152505050565b5f601f19601f8301169050919050565b5f61289e8261285c565b6128a88185612866565b93506128b8818560208601612876565b6128c181612884565b840191505092915050565b5f6020820190508181035f8301526128e48184612894565b905092915050565b5f80fd5b5f80fd5b5f80fd5b5f8083601f84011261290d5761290c6128ec565b5b8235905067ffffffffffffffff81111561292a576129296128f0565b5b602083019150836001820283011115612946576129456128f4565b5b9250929050565b5f805f6040848603121561296457612963612723565b5b5f84013567ffffffffffffffff81111561298157612980612727565b5b61298d868287016128f8565b935093505060206129a08682870161280a565b9150509250925092565b6129b3816127b2565b81146129bd575f80fd5b50565b5f813590506129ce816129aa565b92915050565b5f602082840312156129e9576129e8612723565b5b5f6129f6848285016129c0565b91505092915050565b5f8060208385031215612a1557612a14612723565b5b5f83013567ffffffffffffffff811115612a3257612a31612727565b5b612a3e858286016128f8565b92509250509250929050565b5f81519050919050565b5f82825260208201905092915050565b5f612a6e82612a4a565b612a788185612a54565b9350612a88818560208601612876565b612a9181612884565b840191505092915050565b5f6020820190508181035f830152612ab48184612a64565b905092915050565b5f819050919050565b612ad6612ad1826127eb565b612abc565b82525050565b5f612ae78284612ac5565b60208201915081905092915050565b5f81905092915050565b828183375f83830152505050565b5f612b198385612af6565b9350612b26838584612b00565b82840190509392505050565b5f612b3e828486612b0e565b91508190509392505050565b612b53816127eb565b82525050565b5f602082019050612b6c5f830184612b4a565b92915050565b5f82825260208201905092915050565b5f612b8c8261285c565b612b968185612b72565b9350612ba6818560208601612876565b612baf81612884565b840191505092915050565b5f8115159050919050565b612bce81612bba565b82525050565b5f604083015f8301518482035f860152612bee8282612b82565b9150506020830151612c036020860182612bc5565b508091505092915050565b5f6020820190508181035f830152612c268184612bd4565b905092915050565b5f602083015f8301518482035f860152612c488282612b82565b9150508091505092915050565b5f6020820190508181035f830152612c6d8184612c2e565b905092915050565b5f819050919050565b5f819050919050565b5f612ca1612c9c612c9784612c75565b612c7e565b61272b565b9050919050565b612cb181612c87565b82525050565b5f602082019050612cca5f830184612ca8565b92915050565b7f4e487b71000000000000000000000000000000000000000000000000000000005f52604160045260245ffd5b5f81905092915050565b5f8082015250565b5f612d1b600183612cfd565b9150612d2682612d07565b600182019050919050565b5f612d3b8261285c565b612d458185612af6565b9350612d55818560208601612876565b80840191505092915050565b5f612d6b82612d0f565b9150612d778284612d31565b915081905092915050565b7f040a0000000000000000000000000000000000000000000000000000000000005f82015250565b5f612db6600283612cfd565b9150612dc182612d82565b600282019050919050565b5f8160601b9050919050565b5f612de282612dcc565b9050919050565b5f612df382612dd8565b9050919050565b612e0b612e06826127b2565b612de9565b82525050565b5f612e1b82612daa565b9150612e278284612dfa565b60148201915081905092915050565b5f612e418284612d31565b915081905092915050565b5f81519050612e5a816127f4565b92915050565b5f60208284031215612e7557612e74612723565b5b5f612e8284828501612e4c565b91505092915050565b612e948161272b565b82525050565b5f612eb4612eaf612eaa8461272b565b612c7e565b61272b565b9050919050565b612ec481612e9a565b82525050565b5f60c082019050612edd5f830189612e8b565b612eea6020830188612b4a565b612ef76040830187612e8b565b612f046060830186612e8b565b8181036080830152612f168185612894565b9050612f2560a0830184612ebb565b979650505050505050565b7f4e487b71000000000000000000000000000000000000000000000000000000005f52601160045260245ffd5b5f612f67826127eb565b9150612f72836127eb565b9250828201905080821115612f8a57612f89612f30565b5b92915050565b7f4e487b71000000000000000000000000000000000000000000000000000000005f52603260045260245ffd5b5f604082019050612fd05f830185612b4a565b612fdd6020830184612b4a565b9392505050565b5f819050919050565b612ff681612fe4565b8114613000575f80fd5b50565b5f8151905061301181612fed565b92915050565b5f815190506130258161273e565b92915050565b5f80fd5b61303882612884565b810181811067ffffffffffffffff8211171561305757613056612cd0565b5b80604052505050565b5f61306961271a565b9050613075828261302f565b919050565b5f67ffffffffffffffff82111561309457613093612cd0565b5b61309d82612884565b9050602081019050919050565b5f6130bc6130b78461307a565b613060565b9050828152602081018484840111156130d8576130d761302b565b5b6130e3848285612876565b509392505050565b5f82601f8301126130ff576130fe6128ec565b5b815161310f8482602086016130aa565b91505092915050565b5f805f6060848603121561312f5761312e612723565b5b5f61313c86828701613003565b935050602061314d86828701613017565b925050604084015167ffffffffffffffff81111561316e5761316d612727565b5b61317a868287016130eb565b9150509250925092565b5f6020820190506131975f830184612e8b565b92915050565b6131a681612fe4565b82525050565b5f6020820190506131bf5f83018461319d565b92915050565b7f696e76616c6964206d616a20286578706563746564204d616a546578745374725f8201527f696e672900000000000000000000000000000000000000000000000000000000602082015250565b5f61321f602483612a54565b915061322a826131c5565b604082019050919050565b5f6020820190508181035f83015261324c81613213565b9050919050565b5f61325d826127eb565b91507fffffffffffffffffffffffffffffffffffffffffffffffffffffffffffffffff820361328f5761328e612f30565b5b600182019050919050565b5f6132a4826127eb565b91506132af836127eb565b92508282026132bd816127eb565b915082820484148315176132d4576132d3612f30565b5b5092915050565b7f496e76616c69642043424f5200000000000000000000000000000000000000005f82015250565b5f61330f600c83612a54565b915061331a826132db565b602082019050919050565b5f6020820190508181035f83015261333c81613303565b9050919050565b7f696e76616c6964206d616a20286578706563746564204d616a546167206f72205f8201527f4d616a42797465537472696e6729000000000000000000000000000000000000602082015250565b5f61339d602e83612a54565b91506133a882613343565b604082019050919050565b5f6020820190508181035f8301526133ca81613391565b9050919050565b7f4e487b71000000000000000000000000000000000000000000000000000000005f52600160045260245ffd5b5f613408826127eb565b9150613413836127eb565b925082820390508181111561342b5761342a612f30565b5b92915050565b7f63616e6e6f742068616e646c65206865616465727320776974682065787472615f8201527f203e203237000000000000000000000000000000000000000000000000000000602082015250565b5f61348b602583612a54565b915061349682613431565b604082019050919050565b5f6020820190508181035f8301526134b88161347f565b9050919050565b7f696e76616c69642063626f7200000000000000000000000000000000000000005f82015250565b5f6134f3600c83612a54565b91506134fe826134bf565b602082019050919050565b5f6020820190508181035f830152613520816134e7565b9050919050565b7f4e487b71000000000000000000000000000000000000000000000000000000005f52601260045260245ffd5b5f61355e826127eb565b9150613569836127eb565b92508261357957613578613527565b5b828206905092915050565b7f736c6963696e67206f7574206f662072616e67650000000000000000000000005f82015250565b5f6135b8601483612a54565b91506135c382613584565b602082019050919050565b5f6020820190508181035f8301526135e5816135ac565b9050919050565b5f8160011c9050919050565b5f808291508390505b60018511156136415780860481111561361d5761361c612f30565b5b600185161561362c5780820291505b808102905061363a856135ec565b9450613601565b94509492505050565b5f826136595760019050613714565b81613666575f9050613714565b816001811461367c5760028114613686576136b5565b6001915050613714565b60ff84111561369857613697612f30565b5b8360020a9150848211156136af576136ae612f30565b5b50613714565b5060208310610133831016604e8410600b84101617156136ea5782820a9050838111156136e5576136e4612f30565b5b613714565b6136f784848460016135f8565b9250905081840481111561370e5761370d612f30565b5b81810290505b9392505050565b5f613725826127eb565b9150613730836127eb565b925061375d7fffffffffffffffffffffffffffffffffffffffffffffffffffffffffffffffff848461364a565b90509291505056fea264697066735822122056f70b5fbb9ed574e9018a0a8bdeba0fdec9882fbf822950b4202f6300d612be64736f6c634300081a0033",
			"opcodes": "PUSH1 0x80 PUSH1 0x40 MSTORE CALLVALUE DUP1 ISZERO PUSH2 0xF JUMPI PUSH0 DUP1 REVERT JUMPDEST POP PUSH2 0x1E PUSH2 0x23 PUSH1 0x20 SHL PUSH1 0x20 SHR JUMP JUMPDEST PUSH2 0x19E JUMP JUMPDEST PUSH0 PUSH2 0x32 PUSH2 0x121 PUSH1 0x20 SHL PUSH1 0x20 SHR JUMP JUMPDEST SWAP1 POP DUP1 PUSH0 ADD PUSH1 0x8 SWAP1 SLOAD SWAP1 PUSH2 0x100 EXP SWAP1 DIV PUSH1 0xFF AND ISZERO PUSH2 0x7C JUMPI PUSH1 0x40 MLOAD PUSH32 0xF92EE8A900000000000000000000000000000000000000000000000000000000 DUP2 MSTORE PUSH1 0x4 ADD PUSH1 0x40 MLOAD DUP1 SWAP2 SUB SWAP1 REVERT JUMPDEST PUSH8 0xFFFFFFFFFFFFFFFF DUP1 AND DUP2 PUSH0 ADD PUSH0 SWAP1 SLOAD SWAP1 PUSH2 0x100 EXP SWAP1 DIV PUSH8 0xFFFFFFFFFFFFFFFF AND PUSH8 0xFFFFFFFFFFFFFFFF AND EQ PUSH2 0x11E JUMPI PUSH8 0xFFFFFFFFFFFFFFFF DUP2 PUSH0 ADD PUSH0 PUSH2 0x100 EXP DUP2 SLOAD DUP2 PUSH8 0xFFFFFFFFFFFFFFFF MUL NOT AND SWAP1 DUP4 PUSH8 0xFFFFFFFFFFFFFFFF AND MUL OR SWAP1 SSTORE POP PUSH32 0xC7F505B2F371AE2175EE4913F4499E1F2633A7B5936321EED1CDAEB6115181D2 PUSH8 0xFFFFFFFFFFFFFFFF PUSH1 0x40 MLOAD PUSH2 0x115 SWAP2 SWAP1 PUSH2 0x185 JUMP JUMPDEST PUSH1 0x40 MLOAD DUP1 SWAP2 SUB SWAP1 LOG1 JUMPDEST POP JUMP JUMPDEST PUSH0 DUP1 PUSH2 0x131 PUSH2 0x13A PUSH1 0x20 SHL PUSH1 0x20 SHR JUMP JUMPDEST SWAP1 POP DUP1 SWAP2 POP POP SWAP1 JUMP JUMPDEST PUSH0 PUSH32 0xF0C57E16840DF040F15088DC2F81FE391C3923BEC73E23A9662EFC9C229C6A00 PUSH0 SHL SWAP1 POP SWAP1 JUMP JUMPDEST PUSH0 PUSH8 0xFFFFFFFFFFFFFFFF DUP3 AND SWAP1 POP SWAP2 SWAP1 POP JUMP JUMPDEST PUSH2 0x17F DUP2 PUSH2 0x163 JUMP JUMPDEST DUP3 MSTORE POP POP JUMP JUMPDEST PUSH0 PUSH1 0x20 DUP3 ADD SWAP1 POP PUSH2 0x198 PUSH0 DUP4 ADD DUP5 PUSH2 0x176 JUMP JUMPDEST SWAP3 SWAP2 POP POP JUMP JUMPDEST PUSH2 0x379B DUP1 PUSH2 0x1AB PUSH0 CODECOPY PUSH0 RETURN INVALID PUSH1 0x80 PUSH1 0x40 MSTORE CALLVALUE DUP1 ISZERO PUSH2 0xF JUMPI PUSH0 DUP1 REVERT JUMPDEST POP PUSH1 0x4 CALLDATASIZE LT PUSH2 0xF3 JUMPI PUSH0 CALLDATALOAD PUSH1 0xE0 SHR DUP1 PUSH4 0x930FC006 GT PUSH2 0x95 JUMPI DUP1 PUSH4 0xC4D66DE8 GT PUSH2 0x64 JUMPI DUP1 PUSH4 0xC4D66DE8 EQ PUSH2 0x1FD JUMPI DUP1 PUSH4 0xDD651194 EQ PUSH2 0x219 JUMPI DUP1 PUSH4 0xE30C3978 EQ PUSH2 0x249 JUMPI DUP1 PUSH4 0xF2FDE38B EQ PUSH2 0x267 JUMPI PUSH2 0xF3 JUMP JUMPDEST DUP1 PUSH4 0x930FC006 EQ PUSH2 0x1AF JUMPI DUP1 PUSH4 0xB31BFA9A EQ PUSH2 0x1CB JUMPI DUP1 PUSH4 0xB69EF8A8 EQ PUSH2 0x1E9 JUMPI DUP1 PUSH4 0xBC2DA3F6 EQ PUSH2 0x1F3 JUMPI PUSH2 0xF3 JUMP JUMPDEST DUP1 PUSH4 0x6F37980B GT PUSH2 0xD1 JUMPI DUP1 PUSH4 0x6F37980B EQ PUSH2 0x14D JUMPI DUP1 PUSH4 0x715018A6 EQ PUSH2 0x17D JUMPI DUP1 PUSH4 0x79BA5097 EQ PUSH2 0x187 JUMPI DUP1 PUSH4 0x8DA5CB5B EQ PUSH2 0x191 JUMPI PUSH2 0xF3 JUMP JUMPDEST DUP1 PUSH4 0x6FDDE03 EQ PUSH2 0xF7 JUMPI DUP1 PUSH4 0x2F4B0A34 EQ PUSH2 0x101 JUMPI DUP1 PUSH4 0x3928F5EF EQ PUSH2 0x131 JUMPI JUMPDEST PUSH0 DUP1 REVERT JUMPDEST PUSH2 0xFF PUSH2 0x283 JUMP JUMPDEST STOP JUMPDEST PUSH2 0x11B PUSH1 0x4 DUP1 CALLDATASIZE SUB DUP2 ADD SWAP1 PUSH2 0x116 SWAP2 SWAP1 PUSH2 0x2768 JUMP JUMPDEST PUSH2 0x2C8 JUMP JUMPDEST PUSH1 0x40 MLOAD PUSH2 0x128 SWAP2 SWAP1 PUSH2 0x27D2 JUMP JUMPDEST PUSH1 0x40 MLOAD DUP1 SWAP2 SUB SWAP1 RETURN JUMPDEST PUSH2 0x14B PUSH1 0x4 DUP1 CALLDATASIZE SUB DUP2 ADD SWAP1 PUSH2 0x146 SWAP2 SWAP1 PUSH2 0x281E JUMP JUMPDEST PUSH2 0x2DE JUMP JUMPDEST STOP JUMPDEST PUSH2 0x167 PUSH1 0x4 DUP1 CALLDATASIZE SUB DUP2 ADD SWAP1 PUSH2 0x162 SWAP2 SWAP1 PUSH2 0x2768 JUMP JUMPDEST PUSH2 0x37F JUMP JUMPDEST PUSH1 0x40 MLOAD PUSH2 0x174 SWAP2 SWAP1 PUSH2 0x28CC JUMP JUMPDEST PUSH1 0x40 MLOAD DUP1 SWAP2 SUB SWAP1 RETURN JUMPDEST PUSH2 0x185 PUSH2 0x399 JUMP JUMPDEST STOP JUMPDEST PUSH2 0x18F PUSH2 0x3AC JUMP JUMPDEST STOP JUMPDEST PUSH2 0x199 PUSH2 0x43A JUMP JUMPDEST PUSH1 0x40 MLOAD PUSH2 0x1A6 SWAP2 SWAP1 PUSH2 0x27D2 JUMP JUMPDEST PUSH1 0x40 MLOAD DUP1 SWAP2 SUB SWAP1 RETURN JUMPDEST PUSH2 0x1C9 PUSH1 0x4 DUP1 CALLDATASIZE SUB DUP2 ADD SWAP1 PUSH2 0x1C4 SWAP2 SWAP1 PUSH2 0x294D JUMP JUMPDEST PUSH2 0x46F JUMP JUMPDEST STOP JUMPDEST PUSH2 0x1D3 PUSH2 0x5B5 JUMP JUMPDEST PUSH1 0x40 MLOAD PUSH2 0x1E0 SWAP2 SWAP1 PUSH2 0x27D2 JUMP JUMPDEST PUSH1 0x40 MLOAD DUP1 SWAP2 SUB SWAP1 RETURN JUMPDEST PUSH2 0x1F1 PUSH2 0x5BC JUMP JUMPDEST STOP JUMPDEST PUSH2 0x1FB PUSH2 0x60F JUMP JUMPDEST STOP JUMPDEST PUSH2 0x217 PUSH1 0x4 DUP1 CALLDATASIZE SUB DUP2 ADD SWAP1 PUSH2 0x212 SWAP2 SWAP1 PUSH2 0x29D4 JUMP JUMPDEST PUSH2 0x655 JUMP JUMPDEST STOP JUMPDEST PUSH2 0x233 PUSH1 0x4 DUP1 CALLDATASIZE SUB DUP2 ADD SWAP1 PUSH2 0x22E SWAP2 SWAP1 PUSH2 0x29FF JUMP JUMPDEST PUSH2 0x7D6 JUMP JUMPDEST PUSH1 0x40 MLOAD PUSH2 0x240 SWAP2 SWAP1 PUSH2 0x27D2 JUMP JUMPDEST PUSH1 0x40 MLOAD DUP1 SWAP2 SUB SWAP1 RETURN JUMPDEST PUSH2 0x251 PUSH2 0x84A JUMP JUMPDEST PUSH1 0x40 MLOAD PUSH2 0x25E SWAP2 SWAP1 PUSH2 0x27D2 JUMP JUMPDEST PUSH1 0x40 MLOAD DUP1 SWAP2 SUB SWAP1 RETURN JUMPDEST PUSH2 0x281 PUSH1 0x4 DUP1 CALLDATASIZE SUB DUP2 ADD SWAP1 PUSH2 0x27C SWAP2 SWAP1 PUSH2 0x29D4 JUMP JUMPDEST PUSH2 0x87F JUMP JUMPDEST STOP JUMPDEST PUSH0 PUSH2 0x28C PUSH2 0x938 JUMP JUMPDEST SWAP1 POP PUSH32 0xE4CE60EF5CAFEBAA0B89E2B7EFB3D2555B4B24735F879981E488B863933F4B00 DUP2 PUSH1 0x40 MLOAD PUSH2 0x2BD SWAP2 SWAP1 PUSH2 0x2A9C JUMP JUMPDEST PUSH1 0x40 MLOAD DUP1 SWAP2 SUB SWAP1 LOG1 POP JUMP JUMPDEST PUSH0 DUP1 PUSH2 0x2D3 DUP4 PUSH2 0x9B1 JUMP JUMPDEST SWAP1 POP DUP1 SWAP2 POP POP SWAP2 SWAP1 POP JUMP JUMPDEST PUSH0 DUP2 SUB PUSH2 0x317 JUMPI PUSH1 0x40 MLOAD PUSH32 0xB0DA7F3400000000000000000000000000000000000000000000000000000000 DUP2 MSTORE PUSH1 0x4 ADD PUSH1 0x40 MLOAD DUP1 SWAP2 SUB SWAP1 REVERT JUMPDEST PUSH0 PUSH2 0x321 DUP4 PUSH2 0x9E4 JUMP JUMPDEST SWAP1 POP PUSH0 PUSH1 0x40 MLOAD DUP1 PUSH1 0x40 ADD PUSH1 0x40 MSTORE DUP1 DUP4 DUP2 MSTORE PUSH1 0x20 ADD PUSH1 0x40 MLOAD DUP1 PUSH1 0x40 ADD PUSH1 0x40 MSTORE DUP1 DUP7 PUSH1 0x40 MLOAD PUSH1 0x20 ADD PUSH2 0x351 SWAP2 SWAP1 PUSH2 0x2ADC JUMP JUMPDEST PUSH1 0x40 MLOAD PUSH1 0x20 DUP2 DUP4 SUB SUB DUP2 MSTORE SWAP1 PUSH1 0x40 MSTORE DUP2 MSTORE PUSH1 0x20 ADD PUSH0 ISZERO ISZERO DUP2 MSTORE POP DUP2 MSTORE POP SWAP1 POP PUSH2 0x379 DUP2 PUSH2 0xA31 JUMP JUMPDEST POP POP POP POP JUMP JUMPDEST PUSH1 0x60 PUSH0 PUSH2 0x38B DUP4 PUSH2 0x9E4 JUMP JUMPDEST SWAP1 POP DUP1 PUSH0 ADD MLOAD SWAP2 POP POP SWAP2 SWAP1 POP JUMP JUMPDEST PUSH2 0x3A1 PUSH2 0xA93 JUMP JUMPDEST PUSH2 0x3AA PUSH0 PUSH2 0xB1A JUMP JUMPDEST JUMP JUMPDEST PUSH0 PUSH2 0x3B5 PUSH2 0xB57 JUMP JUMPDEST SWAP1 POP DUP1 PUSH20 0xFFFFFFFFFFFFFFFFFFFFFFFFFFFFFFFFFFFFFFFF AND PUSH2 0x3D6 PUSH2 0x84A JUMP JUMPDEST PUSH20 0xFFFFFFFFFFFFFFFFFFFFFFFFFFFFFFFFFFFFFFFF AND EQ PUSH2 0x42E JUMPI DUP1 PUSH1 0x40 MLOAD PUSH32 0x118CDAA700000000000000000000000000000000000000000000000000000000 DUP2 MSTORE PUSH1 0x4 ADD PUSH2 0x425 SWAP2 SWAP1 PUSH2 0x27D2 JUMP JUMPDEST PUSH1 0x40 MLOAD DUP1 SWAP2 SUB SWAP1 REVERT JUMPDEST PUSH2 0x437 DUP2 PUSH2 0xB1A JUMP JUMPDEST POP JUMP JUMPDEST PUSH0 DUP1 PUSH2 0x444 PUSH2 0xB5E JUMP JUMPDEST SWAP1 POP DUP1 PUSH0 ADD PUSH0 SWAP1 SLOAD SWAP1 PUSH2 0x100 EXP SWAP1 DIV PUSH20 0xFFFFFFFFFFFFFFFFFFFFFFFFFFFFFFFFFFFFFFFF AND SWAP2 POP POP SWAP1 JUMP JUMPDEST PUSH0 DUP2 SUB PUSH2 0x4A8 JUMPI PUSH1 0x40 MLOAD PUSH32 0xB0DA7F3400000000000000000000000000000000000000000000000000000000 DUP2 MSTORE PUSH1 0x4 ADD PUSH1 0x40 MLOAD DUP1 SWAP2 SUB SWAP1 REVERT JUMPDEST DUP3 DUP3 PUSH1 0x40 MLOAD PUSH2 0x4B8 SWAP3 SWAP2 SWAP1 PUSH2 0x2B32 JUMP JUMPDEST PUSH1 0x40 MLOAD DUP1 SWAP2 SUB SWAP1 KECCAK256 CALLER PUSH20 0xFFFFFFFFFFFFFFFFFFFFFFFFFFFFFFFFFFFFFFFF AND PUSH32 0x9B88BD178C90CE12441FF8588A493795E519AC037930D64FDB0D15DE4FB53E37 DUP4 PUSH1 0x40 MLOAD PUSH2 0x506 SWAP2 SWAP1 PUSH2 0x2B59 JUMP JUMPDEST PUSH1 0x40 MLOAD DUP1 SWAP2 SUB SWAP1 LOG3 PUSH0 PUSH1 0x40 MLOAD DUP1 PUSH1 0x40 ADD PUSH1 0x40 MSTORE DUP1 PUSH2 0x566 DUP7 DUP7 DUP1 DUP1 PUSH1 0x1F ADD PUSH1 0x20 DUP1 SWAP2 DIV MUL PUSH1 0x20 ADD PUSH1 0x40 MLOAD SWAP1 DUP2 ADD PUSH1 0x40 MSTORE DUP1 SWAP4 SWAP3 SWAP2 SWAP1 DUP2 DUP2 MSTORE PUSH1 0x20 ADD DUP4 DUP4 DUP1 DUP3 DUP5 CALLDATACOPY PUSH0 DUP2 DUP5 ADD MSTORE PUSH1 0x1F NOT PUSH1 0x1F DUP3 ADD AND SWAP1 POP DUP1 DUP4 ADD SWAP3 POP POP POP POP POP POP POP PUSH2 0xB85 JUMP JUMPDEST DUP2 MSTORE PUSH1 0x20 ADD PUSH1 0x40 MLOAD DUP1 PUSH1 0x40 ADD PUSH1 0x40 MSTORE DUP1 DUP6 PUSH1 0x40 MLOAD PUSH1 0x20 ADD PUSH2 0x587 SWAP2 SWAP1 PUSH2 0x2ADC JUMP JUMPDEST PUSH1 0x40 MLOAD PUSH1 0x20 DUP2 DUP4 SUB SUB DUP2 MSTORE SWAP1 PUSH1 0x40 MSTORE DUP2 MSTORE PUSH1 0x20 ADD PUSH0 ISZERO ISZERO DUP2 MSTORE POP DUP2 MSTORE POP SWAP1 POP PUSH2 0x5AF DUP2 PUSH2 0xA31 JUMP JUMPDEST POP POP POP POP JUMP JUMPDEST PUSH0 CALLER SWAP1 POP SWAP1 JUMP JUMPDEST PUSH0 PUSH2 0x5C6 CALLER PUSH2 0xBE7 JUMP JUMPDEST SWAP1 POP PUSH0 PUSH2 0x5D2 DUP3 PUSH2 0xC24 JUMP JUMPDEST SWAP1 POP PUSH32 0x2BB1DF2BAF0BEE73CDF97C50A10FBD6228B5A5CD7F645D77151E29703C011724 DUP2 PUSH1 0x40 MLOAD PUSH2 0x603 SWAP2 SWAP1 PUSH2 0x2C0E JUMP JUMPDEST PUSH1 0x40 MLOAD DUP1 SWAP2 SUB SWAP1 LOG1 POP POP JUMP JUMPDEST PUSH0 PUSH2 0x619 CALLER PUSH2 0xBE7 JUMP JUMPDEST SWAP1 POP PUSH32 0x438F6A470F05C56C5A0C349A7C523898B46BC25F3E5B4876CCE605569AF9E92D DUP2 PUSH1 0x40 MLOAD PUSH2 0x64A SWAP2 SWAP1 PUSH2 0x2C55 JUMP JUMPDEST PUSH1 0x40 MLOAD DUP1 SWAP2 SUB SWAP1 LOG1 POP JUMP JUMPDEST PUSH0 PUSH2 0x65E PUSH2 0xC62 JUMP JUMPDEST SWAP1 POP PUSH0 DUP2 PUSH0 ADD PUSH1 0x8 SWAP1 SLOAD SWAP1 PUSH2 0x100 EXP SWAP1 DIV PUSH1 0xFF AND ISZERO SWAP1 POP PUSH0 DUP3 PUSH0 ADD PUSH0 SWAP1 SLOAD SWAP1 PUSH2 0x100 EXP SWAP1 DIV PUSH8 0xFFFFFFFFFFFFFFFF AND SWAP1 POP PUSH0 DUP1 DUP3 PUSH8 0xFFFFFFFFFFFFFFFF AND EQ DUP1 ISZERO PUSH2 0x6A6 JUMPI POP DUP3 JUMPDEST SWAP1 POP PUSH0 PUSH1 0x1 DUP4 PUSH8 0xFFFFFFFFFFFFFFFF AND EQ DUP1 ISZERO PUSH2 0x6D9 JUMPI POP PUSH0 ADDRESS PUSH20 0xFFFFFFFFFFFFFFFFFFFFFFFFFFFFFFFFFFFFFFFF AND EXTCODESIZE EQ JUMPDEST SWAP1 POP DUP2 ISZERO DUP1 ISZERO PUSH2 0x6E7 JUMPI POP DUP1 ISZERO JUMPDEST ISZERO PUSH2 0x71E JUMPI PUSH1 0x40 MLOAD PUSH32 0xF92EE8A900000000000000000000000000000000000000000000000000000000 DUP2 MSTORE PUSH1 0x4 ADD PUSH1 0x40 MLOAD DUP1 SWAP2 SUB SWAP1 REVERT JUMPDEST PUSH1 0x1 DUP6 PUSH0 ADD PUSH0 PUSH2 0x100 EXP DUP2 SLOAD DUP2 PUSH8 0xFFFFFFFFFFFFFFFF MUL NOT AND SWAP1 DUP4 PUSH8 0xFFFFFFFFFFFFFFFF AND MUL OR SWAP1 SSTORE POP DUP4 ISZERO PUSH2 0x76B JUMPI PUSH1 0x1 DUP6 PUSH0 ADD PUSH1 0x8 PUSH2 0x100 EXP DUP2 SLOAD DUP2 PUSH1 0xFF MUL NOT AND SWAP1 DUP4 ISZERO ISZERO MUL OR SWAP1 SSTORE POP JUMPDEST PUSH2 0x774 DUP7 PUSH2 0xC75 JUMP JUMPDEST DUP4 ISZERO PUSH2 0x7CE JUMPI PUSH0 DUP6 PUSH0 ADD PUSH1 0x8 PUSH2 0x100 EXP DUP2 SLOAD DUP2 PUSH1 0xFF MUL NOT AND SWAP1 DUP4 ISZERO ISZERO MUL OR SWAP1 SSTORE POP PUSH32 0xC7F505B2F371AE2175EE4913F4499E1F2633A7B5936321EED1CDAEB6115181D2 PUSH1 0x1 PUSH1 0x40 MLOAD PUSH2 0x7C5 SWAP2 SWAP1 PUSH2 0x2CB7 JUMP JUMPDEST PUSH1 0x40 MLOAD DUP1 SWAP2 SUB SWAP1 LOG1 JUMPDEST POP POP POP POP POP POP JUMP JUMPDEST PUSH0 DUP1 PUSH2 0x824 DUP5 DUP5 DUP1 DUP1 PUSH1 0x1F ADD PUSH1 0x20 DUP1 SWAP2 DIV MUL PUSH1 0x20 ADD PUSH1 0x40 MLOAD SWAP1 DUP2 ADD PUSH1 0x40 MSTORE DUP1 SWAP4 SWAP3 SWAP2 SWAP1 DUP2 DUP2 MSTORE PUSH1 0x20 ADD DUP4 DUP4 DUP1 DUP3 DUP5 CALLDATACOPY PUSH0 DUP2 DUP5 ADD MSTORE PUSH1 0x1F NOT PUSH1 0x1F DUP3 ADD AND SWAP1 POP DUP1 DUP4 ADD SWAP3 POP POP POP POP POP POP POP PUSH2 0xB85 JUMP JUMPDEST SWAP1 POP PUSH0 PUSH2 0x830 DUP3 PUSH2 0xC89 JUMP JUMPDEST SWAP1 POP PUSH0 PUSH2 0x83C DUP3 PUSH2 0x9B1 JUMP JUMPDEST SWAP1 POP DUP1 SWAP4 POP POP POP POP SWAP3 SWAP2 POP POP JUMP JUMPDEST PUSH0 DUP1 PUSH2 0x854 PUSH2 0xD63 JUMP JUMPDEST SWAP1 POP DUP1 PUSH0 ADD PUSH0 SWAP1 SLOAD SWAP1 PUSH2 0x100 EXP SWAP1 DIV PUSH20 0xFFFFFFFFFFFFFFFFFFFFFFFFFFFFFFFFFFFFFFFF AND SWAP2 POP POP SWAP1 JUMP JUMPDEST PUSH2 0x887 PUSH2 0xA93 JUMP JUMPDEST PUSH0 PUSH2 0x890 PUSH2 0xD63 JUMP JUMPDEST SWAP1 POP DUP2 DUP2 PUSH0 ADD PUSH0 PUSH2 0x100 EXP DUP2 SLOAD DUP2 PUSH20 0xFFFFFFFFFFFFFFFFFFFFFFFFFFFFFFFFFFFFFFFF MUL NOT AND SWAP1 DUP4 PUSH20 0xFFFFFFFFFFFFFFFFFFFFFFFFFFFFFFFFFFFFFFFF AND MUL OR SWAP1 SSTORE POP DUP2 PUSH20 0xFFFFFFFFFFFFFFFFFFFFFFFFFFFFFFFFFFFFFFFF AND PUSH2 0x8F2 PUSH2 0x43A JUMP JUMPDEST PUSH20 0xFFFFFFFFFFFFFFFFFFFFFFFFFFFFFFFFFFFFFFFF AND PUSH32 0x38D16B8CAC22D99FC7C124B9CD0DE2D3FA1FAEF420BFE791D8C362D765E22700 PUSH1 0x40 MLOAD PUSH1 0x40 MLOAD DUP1 SWAP2 SUB SWAP1 LOG3 POP POP JUMP JUMPDEST PUSH1 0x60 PUSH0 DUP1 PUSH8 0xFFFFFFFFFFFFFFFF DUP2 GT ISZERO PUSH2 0x955 JUMPI PUSH2 0x954 PUSH2 0x2CD0 JUMP JUMPDEST JUMPDEST PUSH1 0x40 MLOAD SWAP1 DUP1 DUP3 MSTORE DUP1 PUSH1 0x1F ADD PUSH1 0x1F NOT AND PUSH1 0x20 ADD DUP3 ADD PUSH1 0x40 MSTORE DUP1 ISZERO PUSH2 0x987 JUMPI DUP2 PUSH1 0x20 ADD PUSH1 0x1 DUP3 MUL DUP1 CALLDATASIZE DUP4 CALLDATACOPY DUP1 DUP3 ADD SWAP2 POP POP SWAP1 POP JUMPDEST POP SWAP1 POP PUSH0 PUSH2 0x99F PUSH1 0x7 PUSH4 0x2EA015C PUSH0 DUP6 PUSH0 PUSH1 0x1 PUSH2 0xD8A JUMP JUMPDEST SWAP1 POP PUSH2 0x9AA DUP2 PUSH2 0xEAB JUMP JUMPDEST SWAP3 POP POP POP SWAP1 JUMP JUMPDEST PUSH0 DUP1 PUSH0 PUSH2 0x9BD DUP5 PUSH2 0xED4 JUMP JUMPDEST SWAP2 POP SWAP2 POP DUP2 ISZERO PUSH2 0x9D1 JUMPI DUP1 SWAP3 POP POP POP PUSH2 0x9DF JUMP JUMPDEST PUSH2 0x9DA DUP5 PUSH2 0xF59 JUMP JUMPDEST SWAP3 POP POP POP JUMPDEST SWAP2 SWAP1 POP JUMP JUMPDEST PUSH2 0x9EC PUSH2 0x26B4 JUMP JUMPDEST PUSH0 PUSH2 0x9F6 DUP4 PUSH2 0xF78 JUMP JUMPDEST SWAP1 POP PUSH1 0x40 MLOAD DUP1 PUSH1 0x20 ADD PUSH1 0x40 MSTORE DUP1 DUP3 PUSH0 ADD MLOAD PUSH1 0x40 MLOAD PUSH1 0x20 ADD PUSH2 0xA17 SWAP2 SWAP1 PUSH2 0x2D61 JUMP JUMPDEST PUSH1 0x40 MLOAD PUSH1 0x20 DUP2 DUP4 SUB SUB DUP2 MSTORE SWAP1 PUSH1 0x40 MSTORE DUP2 MSTORE POP SWAP2 POP POP SWAP2 SWAP1 POP JUMP JUMPDEST PUSH0 PUSH2 0xA3B DUP3 PUSH2 0xFEE JUMP JUMPDEST SWAP1 POP PUSH0 PUSH2 0xA52 PUSH1 0x6 PUSH4 0xE96CC6F0 PUSH1 0x51 DUP6 PUSH0 DUP1 PUSH2 0xD8A JUMP JUMPDEST SWAP1 POP PUSH0 DUP2 MLOAD EQ PUSH2 0xA8E JUMPI PUSH1 0x40 MLOAD PUSH32 0xE74990700000000000000000000000000000000000000000000000000000000 DUP2 MSTORE PUSH1 0x4 ADD PUSH1 0x40 MLOAD DUP1 SWAP2 SUB SWAP1 REVERT JUMPDEST POP POP POP JUMP JUMPDEST PUSH2 0xA9B PUSH2 0xB57 JUMP JUMPDEST PUSH20 0xFFFFFFFFFFFFFFFFFFFFFFFFFFFFFFFFFFFFFFFF AND PUSH2 0xAB9 PUSH2 0x43A JUMP JUMPDEST PUSH20 0xFFFFFFFFFFFFFFFFFFFFFFFFFFFFFFFFFFFFFFFF AND EQ PUSH2 0xB18 JUMPI PUSH2 0xADC PUSH2 0xB57 JUMP JUMPDEST PUSH1 0x40 MLOAD PUSH32 0x118CDAA700000000000000000000000000000000000000000000000000000000 DUP2 MSTORE PUSH1 0x4 ADD PUSH2 0xB0F SWAP2 SWAP1 PUSH2 0x27D2 JUMP JUMPDEST PUSH1 0x40 MLOAD DUP1 SWAP2 SUB SWAP1 REVERT JUMPDEST JUMP JUMPDEST PUSH0 PUSH2 0xB23 PUSH2 0xD63 JUMP JUMPDEST SWAP1 POP DUP1 PUSH0 ADD PUSH0 PUSH2 0x100 EXP DUP2 SLOAD SWAP1 PUSH20 0xFFFFFFFFFFFFFFFFFFFFFFFFFFFFFFFFFFFFFFFF MUL NOT AND SWAP1 SSTORE PUSH2 0xB53 DUP3 PUSH2 0x10A9 JUMP JUMPDEST POP POP JUMP JUMPDEST PUSH0 CALLER SWAP1 POP SWAP1 JUMP JUMPDEST PUSH0 PUSH32 0x9016D09D72D40FDAE2FD8CEAC6B6234C7706214FD39C1CD1E609A0528C199300 SWAP1 POP SWAP1 JUMP JUMPDEST PUSH2 0xB8D PUSH2 0x26B4 JUMP JUMPDEST PUSH0 PUSH1 0x40 MLOAD DUP1 PUSH1 0x20 ADD PUSH1 0x40 MSTORE DUP1 DUP5 DUP2 MSTORE POP SWAP1 POP PUSH2 0xBA8 DUP2 PUSH2 0x117A JUMP JUMPDEST PUSH2 0xBDE JUMPI PUSH1 0x40 MLOAD PUSH32 0xE6C4247B00000000000000000000000000000000000000000000000000000000 DUP2 MSTORE PUSH1 0x4 ADD PUSH1 0x40 MLOAD DUP1 SWAP2 SUB SWAP1 REVERT JUMPDEST DUP1 SWAP2 POP POP SWAP2 SWAP1 POP JUMP JUMPDEST PUSH2 0xBEF PUSH2 0x26B4 JUMP JUMPDEST PUSH1 0x40 MLOAD DUP1 PUSH1 0x20 ADD PUSH1 0x40 MSTORE DUP1 DUP4 PUSH1 0x40 MLOAD PUSH1 0x20 ADD PUSH2 0xC0B SWAP2 SWAP1 PUSH2 0x2E11 JUMP JUMPDEST PUSH1 0x40 MLOAD PUSH1 0x20 DUP2 DUP4 SUB SUB DUP2 MSTORE SWAP1 PUSH1 0x40 MSTORE DUP2 MSTORE POP SWAP1 POP SWAP2 SWAP1 POP JUMP JUMPDEST PUSH2 0xC2C PUSH2 0x26C7 JUMP JUMPDEST PUSH0 PUSH2 0xC36 DUP4 PUSH2 0x134F JUMP JUMPDEST SWAP1 POP PUSH0 PUSH2 0xC4E PUSH1 0x7 PUSH4 0xC26DDBD5 PUSH1 0x51 DUP6 PUSH0 PUSH1 0x1 PUSH2 0xD8A JUMP JUMPDEST SWAP1 POP PUSH2 0xC59 DUP2 PUSH2 0x1394 JUMP JUMPDEST SWAP3 POP POP POP SWAP2 SWAP1 POP JUMP JUMPDEST PUSH0 DUP1 PUSH2 0xC6C PUSH2 0x144C JUMP JUMPDEST SWAP1 POP DUP1 SWAP2 POP POP SWAP1 JUMP JUMPDEST PUSH2 0xC7D PUSH2 0x1475 JUMP JUMPDEST PUSH2 0xC86 DUP2 PUSH2 0x14B5 JUMP JUMPDEST POP JUMP JUMPDEST PUSH0 DUP1 PUSH0 PUSH20 0xFE00000000000000000000000000000000000001 PUSH20 0xFFFFFFFFFFFFFFFFFFFFFFFFFFFFFFFFFFFFFFFF AND DUP5 PUSH0 ADD MLOAD PUSH1 0x40 MLOAD PUSH2 0xCC8 SWAP2 SWAP1 PUSH2 0x2E36 JUMP JUMPDEST PUSH0 PUSH1 0x40 MLOAD DUP1 DUP4 SUB DUP2 DUP6 GAS STATICCALL SWAP2 POP POP RETURNDATASIZE DUP1 PUSH0 DUP2 EQ PUSH2 0xD00 JUMPI PUSH1 0x40 MLOAD SWAP2 POP PUSH1 0x1F NOT PUSH1 0x3F RETURNDATASIZE ADD AND DUP3 ADD PUSH1 0x40 MSTORE RETURNDATASIZE DUP3 MSTORE RETURNDATASIZE PUSH0 PUSH1 0x20 DUP5 ADD RETURNDATACOPY PUSH2 0xD05 JUMP JUMPDEST PUSH1 0x60 SWAP2 POP JUMPDEST POP SWAP2 POP SWAP2 POP DUP2 PUSH2 0xD41 JUMPI PUSH1 0x40 MLOAD PUSH32 0x8A7DB5BF00000000000000000000000000000000000000000000000000000000 DUP2 MSTORE PUSH1 0x4 ADD PUSH1 0x40 MLOAD DUP1 SWAP2 SUB SWAP1 REVERT JUMPDEST PUSH0 DUP2 DUP1 PUSH1 0x20 ADD SWAP1 MLOAD DUP2 ADD SWAP1 PUSH2 0xD56 SWAP2 SWAP1 PUSH2 0x2E60 JUMP JUMPDEST SWAP1 POP DUP1 SWAP4 POP POP POP POP SWAP2 SWAP1 POP JUMP JUMPDEST PUSH0 PUSH32 0x237E158222E3E6968B72B9DB0D8043AACF074AD9F650F0D1606B4D82EE432C00 SWAP1 POP SWAP1 JUMP JUMPDEST PUSH1 0x60 PUSH2 0xDAA PUSH20 0xFE00000000000000000000000000000000000005 DUP5 PUSH2 0x1539 JUMP JUMPDEST PUSH0 DUP1 PUSH20 0xFE00000000000000000000000000000000000005 PUSH20 0xFFFFFFFFFFFFFFFFFFFFFFFFFFFFFFFFFFFFFFFF AND DUP9 DUP7 DUP7 PUSH2 0xDE4 JUMPI PUSH0 PUSH2 0xDE7 JUMP JUMPDEST PUSH1 0x1 JUMPDEST DUP11 DUP11 DUP15 PUSH1 0x40 MLOAD PUSH1 0x20 ADD PUSH2 0xDFF SWAP7 SWAP6 SWAP5 SWAP4 SWAP3 SWAP2 SWAP1 PUSH2 0x2ECA JUMP JUMPDEST PUSH1 0x40 MLOAD PUSH1 0x20 DUP2 DUP4 SUB SUB DUP2 MSTORE SWAP1 PUSH1 0x40 MSTORE PUSH1 0x40 MLOAD PUSH2 0xE1B SWAP2 SWAP1 PUSH2 0x2E36 JUMP JUMPDEST PUSH0 PUSH1 0x40 MLOAD DUP1 DUP4 SUB DUP2 DUP6 GAS DELEGATECALL SWAP2 POP POP RETURNDATASIZE DUP1 PUSH0 DUP2 EQ PUSH2 0xE53 JUMPI PUSH1 0x40 MLOAD SWAP2 POP PUSH1 0x1F NOT PUSH1 0x3F RETURNDATASIZE ADD AND DUP3 ADD PUSH1 0x40 MSTORE RETURNDATASIZE DUP3 MSTORE RETURNDATASIZE PUSH0 PUSH1 0x20 DUP5 ADD RETURNDATACOPY PUSH2 0xE58 JUMP JUMPDEST PUSH1 0x60 SWAP2 POP JUMPDEST POP SWAP2 POP SWAP2 POP DUP2 PUSH2 0xE94 JUMPI PUSH1 0x40 MLOAD PUSH32 0x8A7DB5BF00000000000000000000000000000000000000000000000000000000 DUP2 MSTORE PUSH1 0x4 ADD PUSH1 0x40 MLOAD DUP1 SWAP2 SUB SWAP1 REVERT JUMPDEST PUSH2 0xE9D DUP2 PUSH2 0x15CD JUMP JUMPDEST SWAP3 POP POP POP SWAP7 SWAP6 POP POP POP POP POP POP JUMP JUMPDEST PUSH1 0x60 DUP1 PUSH0 PUSH2 0xEC2 DUP2 DUP6 PUSH2 0x174E SWAP1 SWAP2 SWAP1 PUSH4 0xFFFFFFFF AND JUMP JUMPDEST DUP1 SWAP3 POP DUP2 SWAP4 POP POP POP DUP2 SWAP3 POP POP POP SWAP2 SWAP1 POP JUMP JUMPDEST PUSH0 DUP1 DUP3 PUSH0 MSTORE PUSH1 0x16 PUSH1 0xA PUSH1 0x20 PUSH0 PUSH20 0xFE00000000000000000000000000000000000002 GAS STATICCALL SWAP2 POP PUSH0 MLOAD DUP1 PUSH20 0xFFFFFFFFFFFFFFFFFFFFFFFFFFFFFFFFFFFFFFFF AND SWAP2 POP DUP1 PUSH1 0xA0 SHR PUSH2 0xFFFF AND PUSH2 0x40A DUP2 EQ PUSH2 0xF2C JUMPI PUSH0 SWAP4 POP PUSH0 SWAP3 POP JUMPDEST POP POP DUP2 ISZERO DUP1 PUSH2 0xF43 JUMPI POP PUSH1 0x16 PUSH2 0xF40 PUSH2 0x18C4 JUMP JUMPDEST EQ ISZERO JUMPDEST ISZERO PUSH2 0xF53 JUMPI PUSH0 DUP1 SWAP2 POP SWAP2 POP PUSH2 0xF54 JUMP JUMPDEST JUMPDEST SWAP2 POP SWAP2 JUMP JUMPDEST PUSH0 DUP2 PUSH20 0xFF00000000000000000000000000000000000000 OR SWAP1 POP SWAP2 SWAP1 POP JUMP JUMPDEST PUSH2 0xF80 PUSH2 0x26E2 JUMP JUMPDEST JUMPDEST PUSH1 0x1 ISZERO PUSH2 0xFE8 JUMPI PUSH0 PUSH1 0x7F DUP4 AND SWAP1 POP PUSH1 0x7 DUP4 PUSH8 0xFFFFFFFFFFFFFFFF AND SWAP1 SHR SWAP3 POP PUSH0 DUP4 PUSH8 0xFFFFFFFFFFFFFFFF AND SUB PUSH2 0xFCB JUMPI PUSH2 0xFC4 DUP2 DUP4 PUSH2 0x18CB SWAP1 SWAP2 SWAP1 PUSH4 0xFFFFFFFF AND JUMP JUMPDEST POP POP PUSH2 0xFE9 JUMP JUMPDEST PUSH2 0xFE1 PUSH1 0x80 DUP3 OR DUP4 PUSH2 0x18CB SWAP1 SWAP2 SWAP1 PUSH4 0xFFFFFFFF AND JUMP JUMPDEST POP POP PUSH2 0xF81 JUMP JUMPDEST JUMPDEST SWAP2 SWAP1 POP JUMP JUMPDEST PUSH1 0x60 PUSH0 DUP1 PUSH2 0xFFF DUP5 PUSH1 0x20 ADD MLOAD PUSH2 0x1932 JUMP JUMPDEST SWAP1 POP PUSH2 0x100B PUSH1 0x2 PUSH2 0x1A8F JUMP JUMPDEST DUP3 PUSH2 0x1016 SWAP2 SWAP1 PUSH2 0x2F5D JUMP JUMPDEST SWAP2 POP PUSH2 0x1027 DUP5 PUSH0 ADD MLOAD PUSH0 ADD MLOAD PUSH2 0x1AE2 JUMP JUMPDEST DUP3 PUSH2 0x1032 SWAP2 SWAP1 PUSH2 0x2F5D JUMP JUMPDEST SWAP2 POP PUSH2 0x103D DUP2 PUSH2 0x1AE2 JUMP JUMPDEST DUP3 PUSH2 0x1048 SWAP2 SWAP1 PUSH2 0x2F5D JUMP JUMPDEST SWAP2 POP PUSH0 PUSH2 0x1054 DUP4 PUSH2 0x1B00 JUMP JUMPDEST SWAP1 POP PUSH2 0x106A PUSH1 0x2 DUP3 PUSH2 0x1B25 SWAP1 SWAP2 SWAP1 PUSH4 0xFFFFFFFF AND JUMP JUMPDEST PUSH2 0x1083 DUP6 PUSH0 ADD MLOAD PUSH0 ADD MLOAD DUP3 PUSH2 0x1B35 SWAP1 SWAP2 SWAP1 PUSH4 0xFFFFFFFF AND JUMP JUMPDEST PUSH2 0x1096 DUP3 DUP3 PUSH2 0x1B35 SWAP1 SWAP2 SWAP1 PUSH4 0xFFFFFFFF AND JUMP JUMPDEST PUSH2 0x109F DUP2 PUSH2 0x1B5D JUMP JUMPDEST SWAP4 POP POP POP POP SWAP2 SWAP1 POP JUMP JUMPDEST PUSH0 PUSH2 0x10B2 PUSH2 0xB5E JUMP JUMPDEST SWAP1 POP PUSH0 DUP2 PUSH0 ADD PUSH0 SWAP1 SLOAD SWAP1 PUSH2 0x100 EXP SWAP1 DIV PUSH20 0xFFFFFFFFFFFFFFFFFFFFFFFFFFFFFFFFFFFFFFFF AND SWAP1 POP DUP3 DUP3 PUSH0 ADD PUSH0 PUSH2 0x100 EXP DUP2 SLOAD DUP2 PUSH20 0xFFFFFFFFFFFFFFFFFFFFFFFFFFFFFFFFFFFFFFFF MUL NOT AND SWAP1 DUP4 PUSH20 0xFFFFFFFFFFFFFFFFFFFFFFFFFFFFFFFFFFFFFFFF AND MUL OR SWAP1 SSTORE POP DUP3 PUSH20 0xFFFFFFFFFFFFFFFFFFFFFFFFFFFFFFFFFFFFFFFF AND DUP2 PUSH20 0xFFFFFFFFFFFFFFFFFFFFFFFFFFFFFFFFFFFFFFFF AND PUSH32 0x8BE0079C531659141344CD1FD0A4F28419497F9722A3DAAFE3B4186F6B6457E0 PUSH1 0x40 MLOAD PUSH1 0x40 MLOAD DUP1 SWAP2 SUB SWAP1 LOG3 POP POP POP JUMP JUMPDEST PUSH0 DUP1 PUSH1 0xF8 SHL DUP3 PUSH0 ADD MLOAD PUSH0 DUP2 MLOAD DUP2 LT PUSH2 0x1195 JUMPI PUSH2 0x1194 PUSH2 0x2F90 JUMP JUMPDEST JUMPDEST PUSH1 0x20 ADD ADD MLOAD PUSH1 0xF8 SHR PUSH1 0xF8 SHL PUSH31 0xFFFFFFFFFFFFFFFFFFFFFFFFFFFFFFFFFFFFFFFFFFFFFFFFFFFFFFFFFFFFFF NOT AND SUB PUSH2 0x11D7 JUMPI PUSH1 0xA DUP3 PUSH0 ADD MLOAD MLOAD GT ISZERO SWAP1 POP PUSH2 0x134A JUMP JUMPDEST PUSH1 0x1 PUSH1 0xF8 SHL DUP3 PUSH0 ADD MLOAD PUSH0 DUP2 MLOAD DUP2 LT PUSH2 0x11F2 JUMPI PUSH2 0x11F1 PUSH2 0x2F90 JUMP JUMPDEST JUMPDEST PUSH1 0x20 ADD ADD MLOAD PUSH1 0xF8 SHR PUSH1 0xF8 SHL PUSH31 0xFFFFFFFFFFFFFFFFFFFFFFFFFFFFFFFFFFFFFFFFFFFFFFFFFFFFFFFFFFFFFF NOT AND EQ DUP1 PUSH2 0x1270 JUMPI POP PUSH1 0x2 PUSH1 0xF8 SHL DUP3 PUSH0 ADD MLOAD PUSH0 DUP2 MLOAD DUP2 LT PUSH2 0x1241 JUMPI PUSH2 0x1240 PUSH2 0x2F90 JUMP JUMPDEST JUMPDEST PUSH1 0x20 ADD ADD MLOAD PUSH1 0xF8 SHR PUSH1 0xF8 SHL PUSH31 0xFFFFFFFFFFFFFFFFFFFFFFFFFFFFFFFFFFFFFFFFFFFFFFFFFFFFFFFFFFFFFF NOT AND EQ JUMPDEST ISZERO PUSH2 0x1284 JUMPI PUSH1 0x15 DUP3 PUSH0 ADD MLOAD MLOAD EQ SWAP1 POP PUSH2 0x134A JUMP JUMPDEST PUSH1 0x3 PUSH1 0xF8 SHL DUP3 PUSH0 ADD MLOAD PUSH0 DUP2 MLOAD DUP2 LT PUSH2 0x129F JUMPI PUSH2 0x129E PUSH2 0x2F90 JUMP JUMPDEST JUMPDEST PUSH1 0x20 ADD ADD MLOAD PUSH1 0xF8 SHR PUSH1 0xF8 SHL PUSH31 0xFFFFFFFFFFFFFFFFFFFFFFFFFFFFFFFFFFFFFFFFFFFFFFFFFFFFFFFFFFFFFF NOT AND SUB PUSH2 0x12E0 JUMPI PUSH1 0x31 DUP3 PUSH0 ADD MLOAD MLOAD EQ SWAP1 POP PUSH2 0x134A JUMP JUMPDEST PUSH1 0x4 PUSH1 0xF8 SHL DUP3 PUSH0 ADD MLOAD PUSH0 DUP2 MLOAD DUP2 LT PUSH2 0x12FB JUMPI PUSH2 0x12FA PUSH2 0x2F90 JUMP JUMPDEST JUMPDEST PUSH1 0x20 ADD ADD MLOAD PUSH1 0xF8 SHR PUSH1 0xF8 SHL PUSH31 0xFFFFFFFFFFFFFFFFFFFFFFFFFFFFFFFFFFFFFFFFFFFFFFFFFFFFFFFFFFFFFF NOT AND SUB PUSH2 0x133D JUMPI PUSH1 0x40 DUP3 PUSH0 ADD MLOAD MLOAD GT ISZERO SWAP1 POP PUSH2 0x134A JUMP JUMPDEST PUSH2 0x100 DUP3 PUSH0 ADD MLOAD MLOAD GT ISZERO SWAP1 POP JUMPDEST SWAP2 SWAP1 POP JUMP JUMPDEST PUSH1 0x60 PUSH0 PUSH2 0x135E DUP4 PUSH0 ADD MLOAD PUSH2 0x1AE2 JUMP JUMPDEST SWAP1 POP PUSH0 PUSH2 0x136A DUP3 PUSH2 0x1B00 JUMP JUMPDEST SWAP1 POP PUSH2 0x1382 DUP5 PUSH0 ADD MLOAD DUP3 PUSH2 0x1B35 SWAP1 SWAP2 SWAP1 PUSH4 0xFFFFFFFF AND JUMP JUMPDEST PUSH2 0x138B DUP2 PUSH2 0x1B5D JUMP JUMPDEST SWAP3 POP POP POP SWAP2 SWAP1 POP JUMP JUMPDEST PUSH2 0x139C PUSH2 0x26C7 JUMP JUMPDEST PUSH1 0x60 PUSH0 DUP1 DUP5 MLOAD GT ISZERO PUSH2 0x13DF JUMPI PUSH2 0x13BB DUP2 DUP6 PUSH2 0x1BB3 SWAP1 SWAP2 SWAP1 PUSH4 0xFFFFFFFF AND JUMP JUMPDEST DUP1 SWAP3 POP DUP2 SWAP4 POP POP POP PUSH0 DUP3 MLOAD GT ISZERO PUSH2 0x13DE JUMPI PUSH2 0x13D5 DUP3 PUSH2 0x1D83 JUMP JUMPDEST SWAP3 POP POP POP PUSH2 0x1447 JUMP JUMPDEST JUMPDEST PUSH1 0x40 MLOAD DUP1 PUSH1 0x40 ADD PUSH1 0x40 MSTORE DUP1 PUSH0 PUSH8 0xFFFFFFFFFFFFFFFF DUP2 GT ISZERO PUSH2 0x1404 JUMPI PUSH2 0x1403 PUSH2 0x2CD0 JUMP JUMPDEST JUMPDEST PUSH1 0x40 MLOAD SWAP1 DUP1 DUP3 MSTORE DUP1 PUSH1 0x1F ADD PUSH1 0x1F NOT AND PUSH1 0x20 ADD DUP3 ADD PUSH1 0x40 MSTORE DUP1 ISZERO PUSH2 0x1436 JUMPI DUP2 PUSH1 0x20 ADD PUSH1 0x1 DUP3 MUL DUP1 CALLDATASIZE DUP4 CALLDATACOPY DUP1 DUP3 ADD SWAP2 POP POP SWAP1 POP JUMPDEST POP DUP2 MSTORE PUSH1 0x20 ADD PUSH0 ISZERO ISZERO DUP2 MSTORE POP SWAP3 POP POP POP JUMPDEST SWAP2 SWAP1 POP JUMP JUMPDEST PUSH0 PUSH32 0xF0C57E16840DF040F15088DC2F81FE391C3923BEC73E23A9662EFC9C229C6A00 PUSH0 SHL SWAP1 POP SWAP1 JUMP JUMPDEST PUSH2 0x147D PUSH2 0x1F1C JUMP JUMPDEST PUSH2 0x14B3 JUMPI PUSH1 0x40 MLOAD PUSH32 0xD7E6BCF800000000000000000000000000000000000000000000000000000000 DUP2 MSTORE PUSH1 0x4 ADD PUSH1 0x40 MLOAD DUP1 SWAP2 SUB SWAP1 REVERT JUMPDEST JUMP JUMPDEST PUSH2 0x14BD PUSH2 0x1475 JUMP JUMPDEST PUSH0 PUSH20 0xFFFFFFFFFFFFFFFFFFFFFFFFFFFFFFFFFFFFFFFF AND DUP2 PUSH20 0xFFFFFFFFFFFFFFFFFFFFFFFFFFFFFFFFFFFFFFFF AND SUB PUSH2 0x152D JUMPI PUSH0 PUSH1 0x40 MLOAD PUSH32 0x1E4FBDF700000000000000000000000000000000000000000000000000000000 DUP2 MSTORE PUSH1 0x4 ADD PUSH2 0x1524 SWAP2 SWAP1 PUSH2 0x27D2 JUMP JUMPDEST PUSH1 0x40 MLOAD DUP1 SWAP2 SUB SWAP1 REVERT JUMPDEST PUSH2 0x1536 DUP2 PUSH2 0xB1A JUMP JUMPDEST POP JUMP JUMPDEST PUSH0 SELFBALANCE SWAP1 POP DUP2 DUP2 LT ISZERO PUSH2 0x1584 JUMPI DUP1 DUP3 PUSH1 0x40 MLOAD PUSH32 0x8F0F420600000000000000000000000000000000000000000000000000000000 DUP2 MSTORE PUSH1 0x4 ADD PUSH2 0x157B SWAP3 SWAP2 SWAP1 PUSH2 0x2FBD JUMP JUMPDEST PUSH1 0x40 MLOAD DUP1 SWAP2 SUB SWAP1 REVERT JUMPDEST PUSH0 PUSH2 0x158E DUP5 PUSH2 0x1F3A JUMP JUMPDEST SWAP1 POP DUP1 PUSH2 0x15C7 JUMPI PUSH1 0x40 MLOAD PUSH32 0x64D954B000000000000000000000000000000000000000000000000000000000 DUP2 MSTORE PUSH1 0x4 ADD PUSH1 0x40 MLOAD DUP1 SWAP2 SUB SWAP1 REVERT JUMPDEST POP POP POP POP JUMP JUMPDEST PUSH1 0x60 PUSH0 DUP1 PUSH0 DUP5 DUP1 PUSH1 0x20 ADD SWAP1 MLOAD DUP2 ADD SWAP1 PUSH2 0x15E6 SWAP2 SWAP1 PUSH2 0x3118 JUMP JUMPDEST SWAP3 POP SWAP3 POP SWAP3 POP PUSH0 PUSH8 0xFFFFFFFFFFFFFFFF AND DUP3 PUSH8 0xFFFFFFFFFFFFFFFF AND SUB PUSH2 0x1646 JUMPI PUSH0 DUP2 MLOAD EQ PUSH2 0x1641 JUMPI PUSH1 0x40 MLOAD PUSH32 0xE74990700000000000000000000000000000000000000000000000000000000 DUP2 MSTORE PUSH1 0x4 ADD PUSH1 0x40 MLOAD DUP1 SWAP2 SUB SWAP1 REVERT JUMPDEST PUSH2 0x16FF JUMP JUMPDEST PUSH1 0x51 PUSH8 0xFFFFFFFFFFFFFFFF AND DUP3 PUSH8 0xFFFFFFFFFFFFFFFF AND EQ DUP1 PUSH2 0x167D JUMPI POP PUSH1 0x71 PUSH8 0xFFFFFFFFFFFFFFFF AND DUP3 PUSH8 0xFFFFFFFFFFFFFFFF AND EQ JUMPDEST ISZERO PUSH2 0x16C1 JUMPI PUSH0 DUP2 MLOAD SUB PUSH2 0x16BC JUMPI PUSH1 0x40 MLOAD PUSH32 0xE74990700000000000000000000000000000000000000000000000000000000 DUP2 MSTORE PUSH1 0x4 ADD PUSH1 0x40 MLOAD DUP1 SWAP2 SUB SWAP1 REVERT JUMPDEST PUSH2 0x16FE JUMP JUMPDEST DUP2 PUSH1 0x40 MLOAD PUSH32 0xF1F6BCED00000000000000000000000000000000000000000000000000000000 DUP2 MSTORE PUSH1 0x4 ADD PUSH2 0x16F5 SWAP2 SWAP1 PUSH2 0x3184 JUMP JUMPDEST PUSH1 0x40 MLOAD DUP1 SWAP2 SUB SWAP1 REVERT JUMPDEST JUMPDEST PUSH0 DUP4 EQ PUSH2 0x1743 JUMPI DUP3 PUSH1 0x40 MLOAD PUSH32 0xD4BB667100000000000000000000000000000000000000000000000000000000 DUP2 MSTORE PUSH1 0x4 ADD PUSH2 0x173A SWAP2 SWAP1 PUSH2 0x31AC JUMP JUMPDEST PUSH1 0x40 MLOAD DUP1 SWAP2 SUB SWAP1 REVERT JUMPDEST DUP1 SWAP4 POP POP POP POP SWAP2 SWAP1 POP JUMP JUMPDEST PUSH1 0x60 PUSH0 DUP1 PUSH0 PUSH2 0x175D DUP7 DUP7 PUSH2 0x1F4E JUMP JUMPDEST DUP2 PUSH8 0xFFFFFFFFFFFFFFFF AND SWAP2 POP DUP1 SWAP8 POP DUP2 SWAP4 POP DUP3 SWAP5 POP POP POP POP PUSH1 0x3 PUSH1 0xFF AND DUP3 PUSH1 0xFF AND EQ PUSH2 0x17BF JUMPI PUSH1 0x40 MLOAD PUSH32 0x8C379A000000000000000000000000000000000000000000000000000000000 DUP2 MSTORE PUSH1 0x4 ADD PUSH2 0x17B6 SWAP1 PUSH2 0x3235 JUMP JUMPDEST PUSH1 0x40 MLOAD DUP1 SWAP2 SUB SWAP1 REVERT JUMPDEST PUSH0 DUP2 DUP7 PUSH2 0x17CC SWAP2 SWAP1 PUSH2 0x2F5D JUMP JUMPDEST SWAP1 POP PUSH0 DUP3 PUSH8 0xFFFFFFFFFFFFFFFF DUP2 GT ISZERO PUSH2 0x17E9 JUMPI PUSH2 0x17E8 PUSH2 0x2CD0 JUMP JUMPDEST JUMPDEST PUSH1 0x40 MLOAD SWAP1 DUP1 DUP3 MSTORE DUP1 PUSH1 0x1F ADD PUSH1 0x1F NOT AND PUSH1 0x20 ADD DUP3 ADD PUSH1 0x40 MSTORE DUP1 ISZERO PUSH2 0x181B JUMPI DUP2 PUSH1 0x20 ADD PUSH1 0x1 DUP3 MUL DUP1 CALLDATASIZE DUP4 CALLDATACOPY DUP1 DUP3 ADD SWAP2 POP POP SWAP1 POP JUMPDEST POP SWAP1 POP PUSH0 DUP1 DUP9 SWAP1 POP JUMPDEST DUP4 DUP2 LT ISZERO PUSH2 0x18A6 JUMPI DUP10 DUP2 DUP2 MLOAD DUP2 LT PUSH2 0x183F JUMPI PUSH2 0x183E PUSH2 0x2F90 JUMP JUMPDEST JUMPDEST PUSH1 0x20 ADD ADD MLOAD PUSH1 0xF8 SHR PUSH1 0xF8 SHL DUP4 DUP4 DUP2 MLOAD DUP2 LT PUSH2 0x185D JUMPI PUSH2 0x185C PUSH2 0x2F90 JUMP JUMPDEST JUMPDEST PUSH1 0x20 ADD ADD SWAP1 PUSH31 0xFFFFFFFFFFFFFFFFFFFFFFFFFFFFFFFFFFFFFFFFFFFFFFFFFFFFFFFFFFFFFF NOT AND SWAP1 DUP2 PUSH0 BYTE SWAP1 MSTORE8 POP DUP2 DUP1 PUSH2 0x1896 SWAP1 PUSH2 0x3253 JUMP JUMPDEST SWAP3 POP POP DUP1 DUP1 PUSH1 0x1 ADD SWAP2 POP POP PUSH2 0x1824 JUMP JUMPDEST POP DUP2 DUP5 DUP10 PUSH2 0x18B4 SWAP2 SWAP1 PUSH2 0x2F5D JUMP JUMPDEST SWAP7 POP SWAP7 POP POP POP POP POP POP SWAP3 POP SWAP3 SWAP1 POP JUMP JUMPDEST PUSH0 RETURNDATASIZE SWAP1 POP SWAP1 JUMP JUMPDEST PUSH2 0x18D3 PUSH2 0x26E2 JUMP JUMPDEST PUSH0 DUP4 PUSH0 ADD MLOAD MLOAD SWAP1 POP PUSH0 PUSH1 0x1 DUP3 PUSH2 0x18E9 SWAP2 SWAP1 PUSH2 0x2F5D JUMP JUMPDEST SWAP1 POP DUP5 PUSH1 0x20 ADD MLOAD DUP3 LT PUSH2 0x190D JUMPI PUSH2 0x190C DUP6 PUSH1 0x2 DUP4 PUSH2 0x1907 SWAP2 SWAP1 PUSH2 0x329A JUMP JUMPDEST PUSH2 0x2138 JUMP JUMPDEST JUMPDEST DUP5 MLOAD PUSH1 0x20 DUP4 DUP3 ADD ADD DUP6 DUP2 MSTORE8 DUP2 MLOAD DUP4 GT ISZERO PUSH2 0x1925 JUMPI DUP3 DUP3 MSTORE JUMPDEST POP POP DUP5 SWAP3 POP POP POP SWAP3 SWAP2 POP POP JUMP JUMPDEST PUSH1 0x60 PUSH0 PUSH1 0x1 DUP4 PUSH0 ADD MLOAD MLOAD PUSH2 0x1946 SWAP2 SWAP1 PUSH2 0x2F5D JUMP JUMPDEST PUSH8 0xFFFFFFFFFFFFFFFF DUP2 GT ISZERO PUSH2 0x195F JUMPI PUSH2 0x195E PUSH2 0x2CD0 JUMP JUMPDEST JUMPDEST PUSH1 0x40 MLOAD SWAP1 DUP1 DUP3 MSTORE DUP1 PUSH1 0x1F ADD PUSH1 0x1F NOT AND PUSH1 0x20 ADD DUP3 ADD PUSH1 0x40 MSTORE DUP1 ISZERO PUSH2 0x1991 JUMPI DUP2 PUSH1 0x20 ADD PUSH1 0x1 DUP3 MUL DUP1 CALLDATASIZE DUP4 CALLDATACOPY DUP1 DUP3 ADD SWAP2 POP POP SWAP1 POP JUMPDEST POP SWAP1 POP PUSH1 0x1 ISZERO ISZERO DUP4 PUSH1 0x20 ADD MLOAD ISZERO ISZERO EQ PUSH2 0x19AD JUMPI PUSH0 PUSH1 0xF8 SHL PUSH2 0x19B3 JUMP JUMPDEST PUSH1 0x1 PUSH1 0xF8 SHL JUMPDEST DUP2 PUSH0 DUP2 MLOAD DUP2 LT PUSH2 0x19C6 JUMPI PUSH2 0x19C5 PUSH2 0x2F90 JUMP JUMPDEST JUMPDEST PUSH1 0x20 ADD ADD SWAP1 PUSH31 0xFFFFFFFFFFFFFFFFFFFFFFFFFFFFFFFFFFFFFFFFFFFFFFFFFFFFFFFFFFFFFF NOT AND SWAP1 DUP2 PUSH0 BYTE SWAP1 MSTORE8 POP PUSH0 PUSH1 0x1 SWAP1 POP PUSH0 JUMPDEST DUP5 PUSH0 ADD MLOAD MLOAD DUP2 LT ISZERO PUSH2 0x1A84 JUMPI DUP5 PUSH0 ADD MLOAD DUP2 DUP2 MLOAD DUP2 LT PUSH2 0x1A1D JUMPI PUSH2 0x1A1C PUSH2 0x2F90 JUMP JUMPDEST JUMPDEST PUSH1 0x20 ADD ADD MLOAD PUSH1 0xF8 SHR PUSH1 0xF8 SHL DUP4 DUP4 DUP2 MLOAD DUP2 LT PUSH2 0x1A3B JUMPI PUSH2 0x1A3A PUSH2 0x2F90 JUMP JUMPDEST JUMPDEST PUSH1 0x20 ADD ADD SWAP1 PUSH31 0xFFFFFFFFFFFFFFFFFFFFFFFFFFFFFFFFFFFFFFFFFFFFFFFFFFFFFFFFFFFFFF NOT AND SWAP1 DUP2 PUSH0 BYTE SWAP1 MSTORE8 POP DUP2 DUP1 PUSH2 0x1A74 SWAP1 PUSH2 0x3253 JUMP JUMPDEST SWAP3 POP POP DUP1 DUP1 PUSH1 0x1 ADD SWAP2 POP POP PUSH2 0x19FB JUMP JUMPDEST POP DUP2 SWAP3 POP POP POP SWAP2 SWAP1 POP JUMP JUMPDEST PUSH0 PUSH1 0x17 DUP3 GT PUSH2 0x1AA1 JUMPI PUSH1 0x1 SWAP1 POP PUSH2 0x1ADD JUMP JUMPDEST PUSH1 0xFF DUP3 GT PUSH2 0x1AB2 JUMPI PUSH1 0x2 SWAP1 POP PUSH2 0x1ADD JUMP JUMPDEST PUSH2 0xFFFF DUP3 GT PUSH2 0x1AC4 JUMPI PUSH1 0x3 SWAP1 POP PUSH2 0x1ADD JUMP JUMPDEST PUSH4 0xFFFFFFFF DUP3 GT PUSH2 0x1AD8 JUMPI PUSH1 0x5 SWAP1 POP PUSH2 0x1ADD JUMP JUMPDEST PUSH1 0x9 SWAP1 POP JUMPDEST SWAP2 SWAP1 POP JUMP JUMPDEST PUSH0 DUP2 MLOAD PUSH2 0x1AEF DUP4 MLOAD PUSH2 0x1A8F JUMP JUMPDEST PUSH2 0x1AF9 SWAP2 SWAP1 PUSH2 0x2F5D JUMP JUMPDEST SWAP1 POP SWAP2 SWAP1 POP JUMP JUMPDEST PUSH2 0x1B08 PUSH2 0x26FB JUMP JUMPDEST PUSH2 0x1B15 DUP2 PUSH0 ADD MLOAD DUP4 PUSH2 0x215A JUMP JUMPDEST POP PUSH0 DUP2 PUSH1 0x20 ADD DUP2 DUP2 MSTORE POP POP SWAP2 SWAP1 POP JUMP JUMPDEST PUSH2 0x1B31 DUP3 PUSH1 0x4 DUP4 PUSH2 0x21D0 JUMP JUMPDEST POP POP JUMP JUMPDEST PUSH2 0x1B42 DUP3 PUSH1 0x2 DUP4 MLOAD PUSH2 0x21E0 JUMP JUMPDEST PUSH2 0x1B58 DUP2 DUP4 PUSH0 ADD MLOAD PUSH2 0x2380 SWAP1 SWAP2 SWAP1 PUSH4 0xFFFFFFFF AND JUMP JUMPDEST POP POP POP JUMP JUMPDEST PUSH1 0x60 PUSH0 DUP3 PUSH1 0x20 ADD MLOAD EQ PUSH2 0x1BA5 JUMPI PUSH1 0x40 MLOAD PUSH32 0x8C379A000000000000000000000000000000000000000000000000000000000 DUP2 MSTORE PUSH1 0x4 ADD PUSH2 0x1B9C SWAP1 PUSH2 0x3325 JUMP JUMPDEST PUSH1 0x40 MLOAD DUP1 SWAP2 SUB SWAP1 REVERT JUMPDEST DUP2 PUSH0 ADD MLOAD PUSH0 ADD MLOAD SWAP1 POP SWAP2 SWAP1 POP JUMP JUMPDEST PUSH1 0x60 PUSH0 DUP1 PUSH0 PUSH2 0x1BC2 DUP7 DUP7 PUSH2 0x1F4E JUMP JUMPDEST DUP2 PUSH8 0xFFFFFFFFFFFFFFFF AND SWAP2 POP DUP1 SWAP8 POP DUP2 SWAP4 POP DUP3 SWAP5 POP POP POP POP PUSH1 0x6 PUSH1 0xFF AND DUP3 PUSH1 0xFF AND EQ DUP1 PUSH2 0x1BF6 JUMPI POP PUSH1 0x2 PUSH1 0xFF AND DUP3 PUSH1 0xFF AND EQ JUMPDEST PUSH2 0x1C35 JUMPI PUSH1 0x40 MLOAD PUSH32 0x8C379A000000000000000000000000000000000000000000000000000000000 DUP2 MSTORE PUSH1 0x4 ADD PUSH2 0x1C2C SWAP1 PUSH2 0x33B3 JUMP JUMPDEST PUSH1 0x40 MLOAD DUP1 SWAP2 SUB SWAP1 REVERT JUMPDEST PUSH1 0x6 PUSH1 0xFF AND DUP3 PUSH1 0xFF AND SUB PUSH2 0x1C7E JUMPI PUSH2 0x1C4D DUP7 DUP7 PUSH2 0x1F4E JUMP JUMPDEST DUP2 PUSH8 0xFFFFFFFFFFFFFFFF AND SWAP2 POP DUP1 SWAP8 POP DUP2 SWAP4 POP DUP3 SWAP5 POP POP POP POP PUSH1 0x2 PUSH1 0xFF AND DUP3 PUSH1 0xFF AND EQ PUSH2 0x1C7D JUMPI PUSH2 0x1C7C PUSH2 0x33D1 JUMP JUMPDEST JUMPDEST JUMPDEST PUSH0 DUP2 DUP7 PUSH2 0x1C8B SWAP2 SWAP1 PUSH2 0x2F5D JUMP JUMPDEST SWAP1 POP PUSH0 DUP3 PUSH8 0xFFFFFFFFFFFFFFFF DUP2 GT ISZERO PUSH2 0x1CA8 JUMPI PUSH2 0x1CA7 PUSH2 0x2CD0 JUMP JUMPDEST JUMPDEST PUSH1 0x40 MLOAD SWAP1 DUP1 DUP3 MSTORE DUP1 PUSH1 0x1F ADD PUSH1 0x1F NOT AND PUSH1 0x20 ADD DUP3 ADD PUSH1 0x40 MSTORE DUP1 ISZERO PUSH2 0x1CDA JUMPI DUP2 PUSH1 0x20 ADD PUSH1 0x1 DUP3 MUL DUP1 CALLDATASIZE DUP4 CALLDATACOPY DUP1 DUP3 ADD SWAP2 POP POP SWAP1 POP JUMPDEST POP SWAP1 POP PUSH0 DUP1 DUP9 SWAP1 POP JUMPDEST DUP4 DUP2 LT ISZERO PUSH2 0x1D65 JUMPI DUP10 DUP2 DUP2 MLOAD DUP2 LT PUSH2 0x1CFE JUMPI PUSH2 0x1CFD PUSH2 0x2F90 JUMP JUMPDEST JUMPDEST PUSH1 0x20 ADD ADD MLOAD PUSH1 0xF8 SHR PUSH1 0xF8 SHL DUP4 DUP4 DUP2 MLOAD DUP2 LT PUSH2 0x1D1C JUMPI PUSH2 0x1D1B PUSH2 0x2F90 JUMP JUMPDEST JUMPDEST PUSH1 0x20 ADD ADD SWAP1 PUSH31 0xFFFFFFFFFFFFFFFFFFFFFFFFFFFFFFFFFFFFFFFFFFFFFFFFFFFFFFFFFFFFFF NOT AND SWAP1 DUP2 PUSH0 BYTE SWAP1 MSTORE8 POP DUP2 DUP1 PUSH2 0x1D55 SWAP1 PUSH2 0x3253 JUMP JUMPDEST SWAP3 POP POP DUP1 DUP1 PUSH1 0x1 ADD SWAP2 POP POP PUSH2 0x1CE3 JUMP JUMPDEST POP DUP2 DUP5 DUP10 PUSH2 0x1D73 SWAP2 SWAP1 PUSH2 0x2F5D JUMP JUMPDEST SWAP7 POP SWAP7 POP POP POP POP POP POP SWAP3 POP SWAP3 SWAP1 POP JUMP JUMPDEST PUSH2 0x1D8B PUSH2 0x26C7 JUMP JUMPDEST PUSH0 DUP3 MLOAD SUB PUSH2 0x1DC6 JUMPI PUSH1 0x40 MLOAD DUP1 PUSH1 0x40 ADD PUSH1 0x40 MSTORE DUP1 PUSH1 0x40 MLOAD DUP1 PUSH1 0x40 ADD PUSH1 0x40 MSTORE DUP1 PUSH1 0x1 DUP2 MSTORE PUSH1 0x20 ADD PUSH0 DUP2 MSTORE POP DUP2 MSTORE PUSH1 0x20 ADD PUSH0 ISZERO ISZERO DUP2 MSTORE POP SWAP1 POP PUSH2 0x1F17 JUMP JUMPDEST PUSH0 PUSH1 0x1 DUP4 MLOAD PUSH2 0x1DD5 SWAP2 SWAP1 PUSH2 0x33FE JUMP JUMPDEST PUSH8 0xFFFFFFFFFFFFFFFF DUP2 GT ISZERO PUSH2 0x1DEE JUMPI PUSH2 0x1DED PUSH2 0x2CD0 JUMP JUMPDEST JUMPDEST PUSH1 0x40 MLOAD SWAP1 DUP1 DUP3 MSTORE DUP1 PUSH1 0x1F ADD PUSH1 0x1F NOT AND PUSH1 0x20 ADD DUP3 ADD PUSH1 0x40 MSTORE DUP1 ISZERO PUSH2 0x1E20 JUMPI DUP2 PUSH1 0x20 ADD PUSH1 0x1 DUP3 MUL DUP1 CALLDATASIZE DUP4 CALLDATACOPY DUP1 DUP3 ADD SWAP2 POP POP SWAP1 POP JUMPDEST POP SWAP1 POP PUSH0 PUSH1 0x1 PUSH1 0xF8 SHL DUP5 PUSH0 DUP2 MLOAD DUP2 LT PUSH2 0x1E3C JUMPI PUSH2 0x1E3B PUSH2 0x2F90 JUMP JUMPDEST JUMPDEST PUSH1 0x20 ADD ADD MLOAD PUSH1 0xF8 SHR PUSH1 0xF8 SHL PUSH31 0xFFFFFFFFFFFFFFFFFFFFFFFFFFFFFFFFFFFFFFFFFFFFFFFFFFFFFFFFFFFFFF NOT AND SUB PUSH2 0x1E73 JUMPI PUSH1 0x1 SWAP1 POP JUMPDEST PUSH0 PUSH1 0x1 SWAP1 POP JUMPDEST DUP5 MLOAD DUP2 LT ISZERO PUSH2 0x1EFA JUMPI DUP5 DUP2 DUP2 MLOAD DUP2 LT PUSH2 0x1E95 JUMPI PUSH2 0x1E94 PUSH2 0x2F90 JUMP JUMPDEST JUMPDEST PUSH1 0x20 ADD ADD MLOAD PUSH1 0xF8 SHR PUSH1 0xF8 SHL DUP4 PUSH1 0x1 DUP4 PUSH2 0x1EAE SWAP2 SWAP1 PUSH2 0x33FE JUMP JUMPDEST DUP2 MLOAD DUP2 LT PUSH2 0x1EBF JUMPI PUSH2 0x1EBE PUSH2 0x2F90 JUMP JUMPDEST JUMPDEST PUSH1 0x20 ADD ADD SWAP1 PUSH31 0xFFFFFFFFFFFFFFFFFFFFFFFFFFFFFFFFFFFFFFFFFFFFFFFFFFFFFFFFFFFFFF NOT AND SWAP1 DUP2 PUSH0 BYTE SWAP1 MSTORE8 POP DUP1 DUP1 PUSH1 0x1 ADD SWAP2 POP POP PUSH2 0x1E79 JUMP JUMPDEST POP PUSH1 0x40 MLOAD DUP1 PUSH1 0x40 ADD PUSH1 0x40 MSTORE DUP1 DUP4 DUP2 MSTORE PUSH1 0x20 ADD DUP3 ISZERO ISZERO DUP2 MSTORE POP SWAP3 POP POP POP JUMPDEST SWAP2 SWAP1 POP JUMP JUMPDEST PUSH0 PUSH2 0x1F25 PUSH2 0xC62 JUMP JUMPDEST PUSH0 ADD PUSH1 0x8 SWAP1 SLOAD SWAP1 PUSH2 0x100 EXP SWAP1 DIV PUSH1 0xFF AND SWAP1 POP SWAP1 JUMP JUMPDEST PUSH0 DUP1 DUP3 EXTCODEHASH SWAP1 POP PUSH0 DUP1 SHL DUP2 EQ ISZERO SWAP2 POP POP SWAP2 SWAP1 POP JUMP JUMPDEST PUSH0 DUP1 PUSH0 DUP1 PUSH2 0x1F5C DUP7 DUP7 PUSH2 0x239C JUMP JUMPDEST SWAP1 POP PUSH1 0x1 DUP6 PUSH2 0x1F6B SWAP2 SWAP1 PUSH2 0x2F5D JUMP JUMPDEST SWAP5 POP PUSH0 PUSH1 0x5 PUSH1 0xE0 DUP4 AND PUSH1 0xFF AND SWAP1 SHR SWAP1 POP PUSH0 PUSH1 0x1F DUP4 AND SWAP1 POP PUSH1 0x1C DUP2 PUSH1 0xFF AND LT PUSH2 0x1FC8 JUMPI PUSH1 0x40 MLOAD PUSH32 0x8C379A000000000000000000000000000000000000000000000000000000000 DUP2 MSTORE PUSH1 0x4 ADD PUSH2 0x1FBF SWAP1 PUSH2 0x34A1 JUMP JUMPDEST PUSH1 0x40 MLOAD DUP1 SWAP2 SUB SWAP1 REVERT JUMPDEST PUSH1 0x18 DUP2 PUSH1 0xFF AND LT ISZERO PUSH2 0x1FEB JUMPI DUP2 DUP2 DUP9 DUP2 PUSH1 0xFF AND SWAP2 POP SWAP6 POP SWAP6 POP SWAP6 POP POP POP POP PUSH2 0x2131 JUMP JUMPDEST PUSH1 0x18 DUP2 PUSH1 0xFF AND SUB PUSH2 0x2071 JUMPI PUSH0 PUSH2 0x2001 DUP10 DUP10 PUSH2 0x239C JUMP JUMPDEST SWAP1 POP PUSH1 0x1 DUP9 PUSH2 0x2010 SWAP2 SWAP1 PUSH2 0x2F5D JUMP JUMPDEST SWAP8 POP PUSH1 0x18 DUP2 PUSH1 0xFF AND LT ISZERO PUSH2 0x2059 JUMPI PUSH1 0x40 MLOAD PUSH32 0x8C379A000000000000000000000000000000000000000000000000000000000 DUP2 MSTORE PUSH1 0x4 ADD PUSH2 0x2050 SWAP1 PUSH2 0x3509 JUMP JUMPDEST PUSH1 0x40 MLOAD DUP1 SWAP2 SUB SWAP1 REVERT JUMPDEST DUP3 DUP2 DUP10 DUP2 PUSH1 0xFF AND SWAP2 POP SWAP7 POP SWAP7 POP SWAP7 POP POP POP POP POP PUSH2 0x2131 JUMP JUMPDEST PUSH1 0x19 DUP2 PUSH1 0xFF AND SUB PUSH2 0x20B1 JUMPI PUSH0 PUSH2 0x2087 DUP10 DUP10 PUSH2 0x2416 JUMP JUMPDEST SWAP1 POP PUSH1 0x2 DUP9 PUSH2 0x2096 SWAP2 SWAP1 PUSH2 0x2F5D JUMP JUMPDEST SWAP8 POP DUP3 DUP2 DUP10 DUP2 PUSH2 0xFFFF AND SWAP2 POP SWAP7 POP SWAP7 POP SWAP7 POP POP POP POP POP PUSH2 0x2131 JUMP JUMPDEST PUSH1 0x1A DUP2 PUSH1 0xFF AND SUB PUSH2 0x20F3 JUMPI PUSH0 PUSH2 0x20C7 DUP10 DUP10 PUSH2 0x247E JUMP JUMPDEST SWAP1 POP PUSH1 0x4 DUP9 PUSH2 0x20D6 SWAP2 SWAP1 PUSH2 0x2F5D JUMP JUMPDEST SWAP8 POP DUP3 DUP2 DUP10 DUP2 PUSH4 0xFFFFFFFF AND SWAP2 POP SWAP7 POP SWAP7 POP SWAP7 POP POP POP POP POP PUSH2 0x2131 JUMP JUMPDEST PUSH1 0x1B DUP2 PUSH1 0xFF AND EQ PUSH2 0x2107 JUMPI PUSH2 0x2106 PUSH2 0x33D1 JUMP JUMPDEST JUMPDEST PUSH0 PUSH2 0x2112 DUP10 DUP10 PUSH2 0x24E6 JUMP JUMPDEST SWAP1 POP PUSH1 0x8 DUP9 PUSH2 0x2121 SWAP2 SWAP1 PUSH2 0x2F5D JUMP JUMPDEST SWAP8 POP DUP3 DUP2 DUP10 SWAP7 POP SWAP7 POP SWAP7 POP POP POP POP POP JUMPDEST SWAP3 POP SWAP3 POP SWAP3 JUMP JUMPDEST PUSH0 DUP3 PUSH0 ADD MLOAD SWAP1 POP PUSH2 0x2149 DUP4 DUP4 PUSH2 0x215A JUMP JUMPDEST POP PUSH2 0x2154 DUP4 DUP3 PUSH2 0x2380 JUMP JUMPDEST POP POP POP POP JUMP JUMPDEST PUSH2 0x2162 PUSH2 0x26E2 JUMP JUMPDEST PUSH0 PUSH1 0x20 DUP4 PUSH2 0x2170 SWAP2 SWAP1 PUSH2 0x3554 JUMP JUMPDEST EQ PUSH2 0x219C JUMPI PUSH1 0x20 DUP3 PUSH2 0x2182 SWAP2 SWAP1 PUSH2 0x3554 JUMP JUMPDEST PUSH1 0x20 PUSH2 0x218E SWAP2 SWAP1 PUSH2 0x33FE JUMP JUMPDEST DUP3 PUSH2 0x2199 SWAP2 SWAP1 PUSH2 0x2F5D JUMP JUMPDEST SWAP2 POP JUMPDEST DUP2 DUP4 PUSH1 0x20 ADD DUP2 DUP2 MSTORE POP POP PUSH1 0x40 MLOAD DUP1 DUP5 MSTORE PUSH0 DUP2 MSTORE DUP3 DUP2 ADD PUSH1 0x20 ADD DUP2 DUP2 LT ISZERO PUSH2 0x21C1 JUMPI PUSH0 DUP1 REVERT JUMPDEST DUP1 PUSH1 0x40 MSTORE POP POP DUP3 SWAP1 POP SWAP3 SWAP2 POP POP JUMP JUMPDEST PUSH2 0x21DB DUP4 DUP4 DUP4 PUSH2 0x21E0 JUMP JUMPDEST POP POP POP JUMP JUMPDEST PUSH1 0x17 DUP2 PUSH8 0xFFFFFFFFFFFFFFFF AND GT PUSH2 0x221A JUMPI PUSH2 0x2214 DUP2 PUSH1 0x5 DUP5 PUSH1 0xFF AND SWAP1 SHL PUSH1 0xFF AND OR DUP5 PUSH0 ADD MLOAD PUSH2 0x18CB SWAP1 SWAP2 SWAP1 PUSH4 0xFFFFFFFF AND JUMP JUMPDEST POP PUSH2 0x237B JUMP JUMPDEST PUSH1 0xFF DUP2 PUSH8 0xFFFFFFFFFFFFFFFF AND GT PUSH2 0x2276 JUMPI PUSH2 0x224C PUSH1 0x18 PUSH1 0x5 DUP5 PUSH1 0xFF AND SWAP1 SHL OR DUP5 PUSH0 ADD MLOAD PUSH2 0x18CB SWAP1 SWAP2 SWAP1 PUSH4 0xFFFFFFFF AND JUMP JUMPDEST POP PUSH2 0x2270 DUP2 PUSH8 0xFFFFFFFFFFFFFFFF AND PUSH1 0x1 DUP6 PUSH0 ADD MLOAD PUSH2 0x254E SWAP1 SWAP3 SWAP2 SWAP1 PUSH4 0xFFFFFFFF AND JUMP JUMPDEST POP PUSH2 0x237A JUMP JUMPDEST PUSH2 0xFFFF DUP2 PUSH8 0xFFFFFFFFFFFFFFFF AND GT PUSH2 0x22D3 JUMPI PUSH2 0x22A9 PUSH1 0x19 PUSH1 0x5 DUP5 PUSH1 0xFF AND SWAP1 SHL OR DUP5 PUSH0 ADD MLOAD PUSH2 0x18CB SWAP1 SWAP2 SWAP1 PUSH4 0xFFFFFFFF AND JUMP JUMPDEST POP PUSH2 0x22CD DUP2 PUSH8 0xFFFFFFFFFFFFFFFF AND PUSH1 0x2 DUP6 PUSH0 ADD MLOAD PUSH2 0x254E SWAP1 SWAP3 SWAP2 SWAP1 PUSH4 0xFFFFFFFF AND JUMP JUMPDEST POP PUSH2 0x2379 JUMP JUMPDEST PUSH4 0xFFFFFFFF DUP2 PUSH8 0xFFFFFFFFFFFFFFFF AND GT PUSH2 0x2332 JUMPI PUSH2 0x2308 PUSH1 0x1A PUSH1 0x5 DUP5 PUSH1 0xFF AND SWAP1 SHL OR DUP5 PUSH0 ADD MLOAD PUSH2 0x18CB SWAP1 SWAP2 SWAP1 PUSH4 0xFFFFFFFF AND JUMP JUMPDEST POP PUSH2 0x232C DUP2 PUSH8 0xFFFFFFFFFFFFFFFF AND PUSH1 0x4 DUP6 PUSH0 ADD MLOAD PUSH2 0x254E SWAP1 SWAP3 SWAP2 SWAP1 PUSH4 0xFFFFFFFF AND JUMP JUMPDEST POP PUSH2 0x2378 JUMP JUMPDEST PUSH2 0x2352 PUSH1 0x1B PUSH1 0x5 DUP5 PUSH1 0xFF AND SWAP1 SHL OR DUP5 PUSH0 ADD MLOAD PUSH2 0x18CB SWAP1 SWAP2 SWAP1 PUSH4 0xFFFFFFFF AND JUMP JUMPDEST POP PUSH2 0x2376 DUP2 PUSH8 0xFFFFFFFFFFFFFFFF AND PUSH1 0x8 DUP6 PUSH0 ADD MLOAD PUSH2 0x254E SWAP1 SWAP3 SWAP2 SWAP1 PUSH4 0xFFFFFFFF AND JUMP JUMPDEST POP JUMPDEST JUMPDEST JUMPDEST JUMPDEST POP POP POP JUMP JUMPDEST PUSH2 0x2388 PUSH2 0x26E2 JUMP JUMPDEST PUSH2 0x2394 DUP4 DUP4 DUP5 MLOAD PUSH2 0x25D7 JUMP JUMPDEST SWAP1 POP SWAP3 SWAP2 POP POP JUMP JUMPDEST PUSH0 PUSH1 0x1 DUP3 PUSH2 0x23AA SWAP2 SWAP1 PUSH2 0x2F5D JUMP JUMPDEST DUP4 MLOAD LT ISZERO PUSH2 0x23ED JUMPI PUSH1 0x40 MLOAD PUSH32 0x8C379A000000000000000000000000000000000000000000000000000000000 DUP2 MSTORE PUSH1 0x4 ADD PUSH2 0x23E4 SWAP1 PUSH2 0x35CE JUMP JUMPDEST PUSH1 0x40 MLOAD DUP1 SWAP2 SUB SWAP1 REVERT JUMPDEST DUP3 DUP3 DUP2 MLOAD DUP2 LT PUSH2 0x2400 JUMPI PUSH2 0x23FF PUSH2 0x2F90 JUMP JUMPDEST JUMPDEST PUSH1 0x20 ADD ADD MLOAD PUSH1 0xF8 SHR PUSH1 0xF8 SHL PUSH1 0xF8 SHR SWAP1 POP SWAP3 SWAP2 POP POP JUMP JUMPDEST PUSH0 PUSH1 0x2 DUP3 PUSH2 0x2424 SWAP2 SWAP1 PUSH2 0x2F5D JUMP JUMPDEST DUP4 MLOAD LT ISZERO PUSH2 0x2467 JUMPI PUSH1 0x40 MLOAD PUSH32 0x8C379A000000000000000000000000000000000000000000000000000000000 DUP2 MSTORE PUSH1 0x4 ADD PUSH2 0x245E SWAP1 PUSH2 0x35CE JUMP JUMPDEST PUSH1 0x40 MLOAD DUP1 SWAP2 SUB SWAP1 REVERT JUMPDEST PUSH0 DUP3 PUSH1 0x20 ADD DUP5 ADD MLOAD SWAP1 POP DUP1 PUSH1 0xF0 SHR SWAP2 POP POP SWAP3 SWAP2 POP POP JUMP JUMPDEST PUSH0 PUSH1 0x4 DUP3 PUSH2 0x248C SWAP2 SWAP1 PUSH2 0x2F5D JUMP JUMPDEST DUP4 MLOAD LT ISZERO PUSH2 0x24CF JUMPI PUSH1 0x40 MLOAD PUSH32 0x8C379A000000000000000000000000000000000000000000000000000000000 DUP2 MSTORE PUSH1 0x4 ADD PUSH2 0x24C6 SWAP1 PUSH2 0x35CE JUMP JUMPDEST PUSH1 0x40 MLOAD DUP1 SWAP2 SUB SWAP1 REVERT JUMPDEST PUSH0 DUP3 PUSH1 0x20 ADD DUP5 ADD MLOAD SWAP1 POP DUP1 PUSH1 0xE0 SHR SWAP2 POP POP SWAP3 SWAP2 POP POP JUMP JUMPDEST PUSH0 PUSH1 0x8 DUP3 PUSH2 0x24F4 SWAP2 SWAP1 PUSH2 0x2F5D JUMP JUMPDEST DUP4 MLOAD LT ISZERO PUSH2 0x2537 JUMPI PUSH1 0x40 MLOAD PUSH32 0x8C379A000000000000000000000000000000000000000000000000000000000 DUP2 MSTORE PUSH1 0x4 ADD PUSH2 0x252E SWAP1 PUSH2 0x35CE JUMP JUMPDEST PUSH1 0x40 MLOAD DUP1 SWAP2 SUB SWAP1 REVERT JUMPDEST PUSH0 DUP3 PUSH1 0x20 ADD DUP5 ADD MLOAD SWAP1 POP DUP1 PUSH1 0xC0 SHR SWAP2 POP POP SWAP3 SWAP2 POP POP JUMP JUMPDEST PUSH2 0x2556 PUSH2 0x26E2 JUMP JUMPDEST PUSH0 DUP5 PUSH0 ADD MLOAD MLOAD SWAP1 POP PUSH0 DUP2 DUP5 PUSH2 0x256B SWAP2 SWAP1 PUSH2 0x2F5D JUMP JUMPDEST SWAP1 POP DUP6 PUSH1 0x20 ADD MLOAD DUP2 GT ISZERO PUSH2 0x2590 JUMPI PUSH2 0x258F DUP7 PUSH1 0x2 DUP4 PUSH2 0x258A SWAP2 SWAP1 PUSH2 0x329A JUMP JUMPDEST PUSH2 0x2138 JUMP JUMPDEST JUMPDEST PUSH0 PUSH1 0x1 DUP6 PUSH2 0x100 PUSH2 0x25A1 SWAP2 SWAP1 PUSH2 0x371B JUMP JUMPDEST PUSH2 0x25AB SWAP2 SWAP1 PUSH2 0x33FE JUMP JUMPDEST SWAP1 POP DUP7 MLOAD DUP3 DUP2 ADD DUP8 DUP4 NOT DUP3 MLOAD AND OR DUP2 MSTORE DUP2 MLOAD DUP5 GT ISZERO PUSH2 0x25C8 JUMPI DUP4 DUP3 MSTORE JUMPDEST POP POP DUP7 SWAP4 POP POP POP POP SWAP4 SWAP3 POP POP POP JUMP JUMPDEST PUSH2 0x25DF PUSH2 0x26E2 JUMP JUMPDEST DUP3 MLOAD DUP3 GT ISZERO PUSH2 0x25EC JUMPI PUSH0 DUP1 REVERT JUMPDEST PUSH0 DUP5 PUSH0 ADD MLOAD MLOAD SWAP1 POP PUSH0 DUP4 DUP3 PUSH2 0x2601 SWAP2 SWAP1 PUSH2 0x2F5D JUMP JUMPDEST SWAP1 POP DUP6 PUSH1 0x20 ADD MLOAD DUP2 GT ISZERO PUSH2 0x2626 JUMPI PUSH2 0x2625 DUP7 PUSH1 0x2 DUP4 PUSH2 0x2620 SWAP2 SWAP1 PUSH2 0x329A JUMP JUMPDEST PUSH2 0x2138 JUMP JUMPDEST JUMPDEST PUSH0 DUP1 DUP8 MLOAD DUP1 MLOAD DUP6 PUSH1 0x20 DUP4 ADD ADD SWAP4 POP DUP1 DUP6 GT ISZERO PUSH2 0x2640 JUMPI DUP5 DUP3 MSTORE JUMPDEST PUSH1 0x20 DUP10 ADD SWAP3 POP POP POP JUMPDEST PUSH1 0x20 DUP7 LT PUSH2 0x2687 JUMPI DUP1 MLOAD DUP3 MSTORE PUSH1 0x20 DUP3 PUSH2 0x2662 SWAP2 SWAP1 PUSH2 0x2F5D JUMP JUMPDEST SWAP2 POP PUSH1 0x20 DUP2 PUSH2 0x2671 SWAP2 SWAP1 PUSH2 0x2F5D JUMP JUMPDEST SWAP1 POP PUSH1 0x20 DUP7 PUSH2 0x2680 SWAP2 SWAP1 PUSH2 0x33FE JUMP JUMPDEST SWAP6 POP PUSH2 0x2649 JUMP JUMPDEST PUSH0 PUSH1 0x1 DUP8 PUSH1 0x20 SUB PUSH2 0x100 EXP SUB SWAP1 POP DUP1 NOT DUP3 MLOAD AND DUP2 DUP5 MLOAD AND DUP2 DUP2 OR DUP6 MSTORE POP POP POP DUP8 SWAP5 POP POP POP POP POP SWAP4 SWAP3 POP POP POP JUMP JUMPDEST PUSH1 0x40 MLOAD DUP1 PUSH1 0x20 ADD PUSH1 0x40 MSTORE DUP1 PUSH1 0x60 DUP2 MSTORE POP SWAP1 JUMP JUMPDEST PUSH1 0x40 MLOAD DUP1 PUSH1 0x40 ADD PUSH1 0x40 MSTORE DUP1 PUSH1 0x60 DUP2 MSTORE PUSH1 0x20 ADD PUSH0 ISZERO ISZERO DUP2 MSTORE POP SWAP1 JUMP JUMPDEST PUSH1 0x40 MLOAD DUP1 PUSH1 0x40 ADD PUSH1 0x40 MSTORE DUP1 PUSH1 0x60 DUP2 MSTORE PUSH1 0x20 ADD PUSH0 DUP2 MSTORE POP SWAP1 JUMP JUMPDEST PUSH1 0x40 MLOAD DUP1 PUSH1 0x40 ADD PUSH1 0x40 MSTORE DUP1 PUSH2 0x270E PUSH2 0x26E2 JUMP JUMPDEST DUP2 MSTORE PUSH1 0x20 ADD PUSH0 DUP2 MSTORE POP SWAP1 JUMP JUMPDEST PUSH0 PUSH1 0x40 MLOAD SWAP1 POP SWAP1 JUMP JUMPDEST PUSH0 DUP1 REVERT JUMPDEST PUSH0 DUP1 REVERT JUMPDEST PUSH0 PUSH8 0xFFFFFFFFFFFFFFFF DUP3 AND SWAP1 POP SWAP2 SWAP1 POP JUMP JUMPDEST PUSH2 0x2747 DUP2 PUSH2 0x272B JUMP JUMPDEST DUP2 EQ PUSH2 0x2751 JUMPI PUSH0 DUP1 REVERT JUMPDEST POP JUMP JUMPDEST PUSH0 DUP2 CALLDATALOAD SWAP1 POP PUSH2 0x2762 DUP2 PUSH2 0x273E JUMP JUMPDEST SWAP3 SWAP2 POP POP JUMP JUMPDEST PUSH0 PUSH1 0x20 DUP3 DUP5 SUB SLT ISZERO PUSH2 0x277D JUMPI PUSH2 0x277C PUSH2 0x2723 JUMP JUMPDEST JUMPDEST PUSH0 PUSH2 0x278A DUP5 DUP3 DUP6 ADD PUSH2 0x2754 JUMP JUMPDEST SWAP2 POP POP SWAP3 SWAP2 POP POP JUMP JUMPDEST PUSH0 PUSH20 0xFFFFFFFFFFFFFFFFFFFFFFFFFFFFFFFFFFFFFFFF DUP3 AND SWAP1 POP SWAP2 SWAP1 POP JUMP JUMPDEST PUSH0 PUSH2 0x27BC DUP3 PUSH2 0x2793 JUMP JUMPDEST SWAP1 POP SWAP2 SWAP1 POP JUMP JUMPDEST PUSH2 0x27CC DUP2 PUSH2 0x27B2 JUMP JUMPDEST DUP3 MSTORE POP POP JUMP JUMPDEST PUSH0 PUSH1 0x20 DUP3 ADD SWAP1 POP PUSH2 0x27E5 PUSH0 DUP4 ADD DUP5 PUSH2 0x27C3 JUMP JUMPDEST SWAP3 SWAP2 POP POP JUMP JUMPDEST PUSH0 DUP2 SWAP1 POP SWAP2 SWAP1 POP JUMP JUMPDEST PUSH2 0x27FD DUP2 PUSH2 0x27EB JUMP JUMPDEST DUP2 EQ PUSH2 0x2807 JUMPI PUSH0 DUP1 REVERT JUMPDEST POP JUMP JUMPDEST PUSH0 DUP2 CALLDATALOAD SWAP1 POP PUSH2 0x2818 DUP2 PUSH2 0x27F4 JUMP JUMPDEST SWAP3 SWAP2 POP POP JUMP JUMPDEST PUSH0 DUP1 PUSH1 0x40 DUP4 DUP6 SUB SLT ISZERO PUSH2 0x2834 JUMPI PUSH2 0x2833 PUSH2 0x2723 JUMP JUMPDEST JUMPDEST PUSH0 PUSH2 0x2841 DUP6 DUP3 DUP7 ADD PUSH2 0x2754 JUMP JUMPDEST SWAP3 POP POP PUSH1 0x20 PUSH2 0x2852 DUP6 DUP3 DUP7 ADD PUSH2 0x280A JUMP JUMPDEST SWAP2 POP POP SWAP3 POP SWAP3 SWAP1 POP JUMP JUMPDEST PUSH0 DUP2 MLOAD SWAP1 POP SWAP2 SWAP1 POP JUMP JUMPDEST PUSH0 DUP3 DUP3 MSTORE PUSH1 0x20 DUP3 ADD SWAP1 POP SWAP3 SWAP2 POP POP JUMP JUMPDEST DUP3 DUP2 DUP4 MCOPY PUSH0 DUP4 DUP4 ADD MSTORE POP POP POP JUMP JUMPDEST PUSH0 PUSH1 0x1F NOT PUSH1 0x1F DUP4 ADD AND SWAP1 POP SWAP2 SWAP1 POP JUMP JUMPDEST PUSH0 PUSH2 0x289E DUP3 PUSH2 0x285C JUMP JUMPDEST PUSH2 0x28A8 DUP2 DUP6 PUSH2 0x2866 JUMP JUMPDEST SWAP4 POP PUSH2 0x28B8 DUP2 DUP6 PUSH1 0x20 DUP7 ADD PUSH2 0x2876 JUMP JUMPDEST PUSH2 0x28C1 DUP2 PUSH2 0x2884 JUMP JUMPDEST DUP5 ADD SWAP2 POP POP SWAP3 SWAP2 POP POP JUMP JUMPDEST PUSH0 PUSH1 0x20 DUP3 ADD SWAP1 POP DUP2 DUP2 SUB PUSH0 DUP4 ADD MSTORE PUSH2 0x28E4 DUP2 DUP5 PUSH2 0x2894 JUMP JUMPDEST SWAP1 POP SWAP3 SWAP2 POP POP JUMP JUMPDEST PUSH0 DUP1 REVERT JUMPDEST PUSH0 DUP1 REVERT JUMPDEST PUSH0 DUP1 REVERT JUMPDEST PUSH0 DUP1 DUP4 PUSH1 0x1F DUP5 ADD SLT PUSH2 0x290D JUMPI PUSH2 0x290C PUSH2 0x28EC JUMP JUMPDEST JUMPDEST DUP3 CALLDATALOAD SWAP1 POP PUSH8 0xFFFFFFFFFFFFFFFF DUP2 GT ISZERO PUSH2 0x292A JUMPI PUSH2 0x2929 PUSH2 0x28F0 JUMP JUMPDEST JUMPDEST PUSH1 0x20 DUP4 ADD SWAP2 POP DUP4 PUSH1 0x1 DUP3 MUL DUP4 ADD GT ISZERO PUSH2 0x2946 JUMPI PUSH2 0x2945 PUSH2 0x28F4 JUMP JUMPDEST JUMPDEST SWAP3 POP SWAP3 SWAP1 POP JUMP JUMPDEST PUSH0 DUP1 PUSH0 PUSH1 0x40 DUP5 DUP7 SUB SLT ISZERO PUSH2 0x2964 JUMPI PUSH2 0x2963 PUSH2 0x2723 JUMP JUMPDEST JUMPDEST PUSH0 DUP5 ADD CALLDATALOAD PUSH8 0xFFFFFFFFFFFFFFFF DUP2 GT ISZERO PUSH2 0x2981 JUMPI PUSH2 0x2980 PUSH2 0x2727 JUMP JUMPDEST JUMPDEST PUSH2 0x298D DUP7 DUP3 DUP8 ADD PUSH2 0x28F8 JUMP JUMPDEST SWAP4 POP SWAP4 POP POP PUSH1 0x20 PUSH2 0x29A0 DUP7 DUP3 DUP8 ADD PUSH2 0x280A JUMP JUMPDEST SWAP2 POP POP SWAP3 POP SWAP3 POP SWAP3 JUMP JUMPDEST PUSH2 0x29B3 DUP2 PUSH2 0x27B2 JUMP JUMPDEST DUP2 EQ PUSH2 0x29BD JUMPI PUSH0 DUP1 REVERT JUMPDEST POP JUMP JUMPDEST PUSH0 DUP2 CALLDATALOAD SWAP1 POP PUSH2 0x29CE DUP2 PUSH2 0x29AA JUMP JUMPDEST SWAP3 SWAP2 POP POP JUMP JUMPDEST PUSH0 PUSH1 0x20 DUP3 DUP5 SUB SLT ISZERO PUSH2 0x29E9 JUMPI PUSH2 0x29E8 PUSH2 0x2723 JUMP JUMPDEST JUMPDEST PUSH0 PUSH2 0x29F6 DUP5 DUP3 DUP6 ADD PUSH2 0x29C0 JUMP JUMPDEST SWAP2 POP POP SWAP3 SWAP2 POP POP JUMP JUMPDEST PUSH0 DUP1 PUSH1 0x20 DUP4 DUP6 SUB SLT ISZERO PUSH2 0x2A15 JUMPI PUSH2 0x2A14 PUSH2 0x2723 JUMP JUMPDEST JUMPDEST PUSH0 DUP4 ADD CALLDATALOAD PUSH8 0xFFFFFFFFFFFFFFFF DUP2 GT ISZERO PUSH2 0x2A32 JUMPI PUSH2 0x2A31 PUSH2 0x2727 JUMP JUMPDEST JUMPDEST PUSH2 0x2A3E DUP6 DUP3 DUP7 ADD PUSH2 0x28F8 JUMP JUMPDEST SWAP3 POP SWAP3 POP POP SWAP3 POP SWAP3 SWAP1 POP JUMP JUMPDEST PUSH0 DUP2 MLOAD SWAP1 POP SWAP2 SWAP1 POP JUMP JUMPDEST PUSH0 DUP3 DUP3 MSTORE PUSH1 0x20 DUP3 ADD SWAP1 POP SWAP3 SWAP2 POP POP JUMP JUMPDEST PUSH0 PUSH2 0x2A6E DUP3 PUSH2 0x2A4A JUMP JUMPDEST PUSH2 0x2A78 DUP2 DUP6 PUSH2 0x2A54 JUMP JUMPDEST SWAP4 POP PUSH2 0x2A88 DUP2 DUP6 PUSH1 0x20 DUP7 ADD PUSH2 0x2876 JUMP JUMPDEST PUSH2 0x2A91 DUP2 PUSH2 0x2884 JUMP JUMPDEST DUP5 ADD SWAP2 POP POP SWAP3 SWAP2 POP POP JUMP JUMPDEST PUSH0 PUSH1 0x20 DUP3 ADD SWAP1 POP DUP2 DUP2 SUB PUSH0 DUP4 ADD MSTORE PUSH2 0x2AB4 DUP2 DUP5 PUSH2 0x2A64 JUMP JUMPDEST SWAP1 POP SWAP3 SWAP2 POP POP JUMP JUMPDEST PUSH0 DUP2 SWAP1 POP SWAP2 SWAP1 POP JUMP JUMPDEST PUSH2 0x2AD6 PUSH2 0x2AD1 DUP3 PUSH2 0x27EB JUMP JUMPDEST PUSH2 0x2ABC JUMP JUMPDEST DUP3 MSTORE POP POP JUMP JUMPDEST PUSH0 PUSH2 0x2AE7 DUP3 DUP5 PUSH2 0x2AC5 JUMP JUMPDEST PUSH1 0x20 DUP3 ADD SWAP2 POP DUP2 SWAP1 POP SWAP3 SWAP2 POP POP JUMP JUMPDEST PUSH0 DUP2 SWAP1 POP SWAP3 SWAP2 POP POP JUMP JUMPDEST DUP3 DUP2 DUP4 CALLDATACOPY PUSH0 DUP4 DUP4 ADD MSTORE POP POP POP JUMP JUMPDEST PUSH0 PUSH2 0x2B19 DUP4 DUP6 PUSH2 0x2AF6 JUMP JUMPDEST SWAP4 POP PUSH2 0x2B26 DUP4 DUP6 DUP5 PUSH2 0x2B00 JUMP JUMPDEST DUP3 DUP5 ADD SWAP1 POP SWAP4 SWAP3 POP POP POP JUMP JUMPDEST PUSH0 PUSH2 0x2B3E DUP3 DUP5 DUP7 PUSH2 0x2B0E JUMP JUMPDEST SWAP2 POP DUP2 SWAP1 POP SWAP4 SWAP3 POP POP POP JUMP JUMPDEST PUSH2 0x2B53 DUP2 PUSH2 0x27EB JUMP JUMPDEST DUP3 MSTORE POP POP JUMP JUMPDEST PUSH0 PUSH1 0x20 DUP3 ADD SWAP1 POP PUSH2 0x2B6C PUSH0 DUP4 ADD DUP5 PUSH2 0x2B4A JUMP JUMPDEST SWAP3 SWAP2 POP POP JUMP JUMPDEST PUSH0 DUP3 DUP3 MSTORE PUSH1 0x20 DUP3 ADD SWAP1 POP SWAP3 SWAP2 POP POP JUMP JUMPDEST PUSH0 PUSH2 0x2B8C DUP3 PUSH2 0x285C JUMP JUMPDEST PUSH2 0x2B96 DUP2 DUP6 PUSH2 0x2B72 JUMP JUMPDEST SWAP4 POP PUSH2 0x2BA6 DUP2 DUP6 PUSH1 0x20 DUP7 ADD PUSH2 0x2876 JUMP JUMPDEST PUSH2 0x2BAF DUP2 PUSH2 0x2884 JUMP JUMPDEST DUP5 ADD SWAP2 POP POP SWAP3 SWAP2 POP POP JUMP JUMPDEST PUSH0 DUP2 ISZERO ISZERO SWAP1 POP SWAP2 SWAP1 POP JUMP JUMPDEST PUSH2 0x2BCE DUP2 PUSH2 0x2BBA JUMP JUMPDEST DUP3 MSTORE POP POP JUMP JUMPDEST PUSH0 PUSH1 0x40 DUP4 ADD PUSH0 DUP4 ADD MLOAD DUP5 DUP3 SUB PUSH0 DUP7 ADD MSTORE PUSH2 0x2BEE DUP3 DUP3 PUSH2 0x2B82 JUMP JUMPDEST SWAP2 POP POP PUSH1 0x20 DUP4 ADD MLOAD PUSH2 0x2C03 PUSH1 0x20 DUP7 ADD DUP3 PUSH2 0x2BC5 JUMP JUMPDEST POP DUP1 SWAP2 POP POP SWAP3 SWAP2 POP POP JUMP JUMPDEST PUSH0 PUSH1 0x20 DUP3 ADD SWAP1 POP DUP2 DUP2 SUB PUSH0 DUP4 ADD MSTORE PUSH2 0x2C26 DUP2 DUP5 PUSH2 0x2BD4 JUMP JUMPDEST SWAP1 POP SWAP3 SWAP2 POP POP JUMP JUMPDEST PUSH0 PUSH1 0x20 DUP4 ADD PUSH0 DUP4 ADD MLOAD DUP5 DUP3 SUB PUSH0 DUP7 ADD MSTORE PUSH2 0x2C48 DUP3 DUP3 PUSH2 0x2B82 JUMP JUMPDEST SWAP2 POP POP DUP1 SWAP2 POP POP SWAP3 SWAP2 POP POP JUMP JUMPDEST PUSH0 PUSH1 0x20 DUP3 ADD SWAP1 POP DUP2 DUP2 SUB PUSH0 DUP4 ADD MSTORE PUSH2 0x2C6D DUP2 DUP5 PUSH2 0x2C2E JUMP JUMPDEST SWAP1 POP SWAP3 SWAP2 POP POP JUMP JUMPDEST PUSH0 DUP2 SWAP1 POP SWAP2 SWAP1 POP JUMP JUMPDEST PUSH0 DUP2 SWAP1 POP SWAP2 SWAP1 POP JUMP JUMPDEST PUSH0 PUSH2 0x2CA1 PUSH2 0x2C9C PUSH2 0x2C97 DUP5 PUSH2 0x2C75 JUMP JUMPDEST PUSH2 0x2C7E JUMP JUMPDEST PUSH2 0x272B JUMP JUMPDEST SWAP1 POP SWAP2 SWAP1 POP JUMP JUMPDEST PUSH2 0x2CB1 DUP2 PUSH2 0x2C87 JUMP JUMPDEST DUP3 MSTORE POP POP JUMP JUMPDEST PUSH0 PUSH1 0x20 DUP3 ADD SWAP1 POP PUSH2 0x2CCA PUSH0 DUP4 ADD DUP5 PUSH2 0x2CA8 JUMP JUMPDEST SWAP3 SWAP2 POP POP JUMP JUMPDEST PUSH32 0x4E487B7100000000000000000000000000000000000000000000000000000000 PUSH0 MSTORE PUSH1 0x41 PUSH1 0x4 MSTORE PUSH1 0x24 PUSH0 REVERT JUMPDEST PUSH0 DUP2 SWAP1 POP SWAP3 SWAP2 POP POP JUMP JUMPDEST PUSH0 DUP1 DUP3 ADD MSTORE POP JUMP JUMPDEST PUSH0 PUSH2 0x2D1B PUSH1 0x1 DUP4 PUSH2 0x2CFD JUMP JUMPDEST SWAP2 POP PUSH2 0x2D26 DUP3 PUSH2 0x2D07 JUMP JUMPDEST PUSH1 0x1 DUP3 ADD SWAP1 POP SWAP2 SWAP1 POP JUMP JUMPDEST PUSH0 PUSH2 0x2D3B DUP3 PUSH2 0x285C JUMP JUMPDEST PUSH2 0x2D45 DUP2 DUP6 PUSH2 0x2AF6 JUMP JUMPDEST SWAP4 POP PUSH2 0x2D55 DUP2 DUP6 PUSH1 0x20 DUP7 ADD PUSH2 0x2876 JUMP JUMPDEST DUP1 DUP5 ADD SWAP2 POP POP SWAP3 SWAP2 POP POP JUMP JUMPDEST PUSH0 PUSH2 0x2D6B DUP3 PUSH2 0x2D0F JUMP JUMPDEST SWAP2 POP PUSH2 0x2D77 DUP3 DUP5 PUSH2 0x2D31 JUMP JUMPDEST SWAP2 POP DUP2 SWAP1 POP SWAP3 SWAP2 POP POP JUMP JUMPDEST PUSH32 0x40A000000000000000000000000000000000000000000000000000000000000 PUSH0 DUP3 ADD MSTORE POP JUMP JUMPDEST PUSH0 PUSH2 0x2DB6 PUSH1 0x2 DUP4 PUSH2 0x2CFD JUMP JUMPDEST SWAP2 POP PUSH2 0x2DC1 DUP3 PUSH2 0x2D82 JUMP JUMPDEST PUSH1 0x2 DUP3 ADD SWAP1 POP SWAP2 SWAP1 POP JUMP JUMPDEST PUSH0 DUP2 PUSH1 0x60 SHL SWAP1 POP SWAP2 SWAP1 POP JUMP JUMPDEST PUSH0 PUSH2 0x2DE2 DUP3 PUSH2 0x2DCC JUMP JUMPDEST SWAP1 POP SWAP2 SWAP1 POP JUMP JUMPDEST PUSH0 PUSH2 0x2DF3 DUP3 PUSH2 0x2DD8 JUMP JUMPDEST SWAP1 POP SWAP2 SWAP1 POP JUMP JUMPDEST PUSH2 0x2E0B PUSH2 0x2E06 DUP3 PUSH2 0x27B2 JUMP JUMPDEST PUSH2 0x2DE9 JUMP JUMPDEST DUP3 MSTORE POP POP JUMP JUMPDEST PUSH0 PUSH2 0x2E1B DUP3 PUSH2 0x2DAA JUMP JUMPDEST SWAP2 POP PUSH2 0x2E27 DUP3 DUP5 PUSH2 0x2DFA JUMP JUMPDEST PUSH1 0x14 DUP3 ADD SWAP2 POP DUP2 SWAP1 POP SWAP3 SWAP2 POP POP JUMP JUMPDEST PUSH0 PUSH2 0x2E41 DUP3 DUP5 PUSH2 0x2D31 JUMP JUMPDEST SWAP2 POP DUP2 SWAP1 POP SWAP3 SWAP2 POP POP JUMP JUMPDEST PUSH0 DUP2 MLOAD SWAP1 POP PUSH2 0x2E5A DUP2 PUSH2 0x27F4 JUMP JUMPDEST SWAP3 SWAP2 POP POP JUMP JUMPDEST PUSH0 PUSH1 0x20 DUP3 DUP5 SUB SLT ISZERO PUSH2 0x2E75 JUMPI PUSH2 0x2E74 PUSH2 0x2723 JUMP JUMPDEST JUMPDEST PUSH0 PUSH2 0x2E82 DUP5 DUP3 DUP6 ADD PUSH2 0x2E4C JUMP JUMPDEST SWAP2 POP POP SWAP3 SWAP2 POP POP JUMP JUMPDEST PUSH2 0x2E94 DUP2 PUSH2 0x272B JUMP JUMPDEST DUP3 MSTORE POP POP JUMP JUMPDEST PUSH0 PUSH2 0x2EB4 PUSH2 0x2EAF PUSH2 0x2EAA DUP5 PUSH2 0x272B JUMP JUMPDEST PUSH2 0x2C7E JUMP JUMPDEST PUSH2 0x272B JUMP JUMPDEST SWAP1 POP SWAP2 SWAP1 POP JUMP JUMPDEST PUSH2 0x2EC4 DUP2 PUSH2 0x2E9A JUMP JUMPDEST DUP3 MSTORE POP POP JUMP JUMPDEST PUSH0 PUSH1 0xC0 DUP3 ADD SWAP1 POP PUSH2 0x2EDD PUSH0 DUP4 ADD DUP10 PUSH2 0x2E8B JUMP JUMPDEST PUSH2 0x2EEA PUSH1 0x20 DUP4 ADD DUP9 PUSH2 0x2B4A JUMP JUMPDEST PUSH2 0x2EF7 PUSH1 0x40 DUP4 ADD DUP8 PUSH2 0x2E8B JUMP JUMPDEST PUSH2 0x2F04 PUSH1 0x60 DUP4 ADD DUP7 PUSH2 0x2E8B JUMP JUMPDEST DUP2 DUP2 SUB PUSH1 0x80 DUP4 ADD MSTORE PUSH2 0x2F16 DUP2 DUP6 PUSH2 0x2894 JUMP JUMPDEST SWAP1 POP PUSH2 0x2F25 PUSH1 0xA0 DUP4 ADD DUP5 PUSH2 0x2EBB JUMP JUMPDEST SWAP8 SWAP7 POP POP POP POP POP POP POP JUMP JUMPDEST PUSH32 0x4E487B7100000000000000000000000000000000000000000000000000000000 PUSH0 MSTORE PUSH1 0x11 PUSH1 0x4 MSTORE PUSH1 0x24 PUSH0 REVERT JUMPDEST PUSH0 PUSH2 0x2F67 DUP3 PUSH2 0x27EB JUMP JUMPDEST SWAP2 POP PUSH2 0x2F72 DUP4 PUSH2 0x27EB JUMP JUMPDEST SWAP3 POP DUP3 DUP3 ADD SWAP1 POP DUP1 DUP3 GT ISZERO PUSH2 0x2F8A JUMPI PUSH2 0x2F89 PUSH2 0x2F30 JUMP JUMPDEST JUMPDEST SWAP3 SWAP2 POP POP JUMP JUMPDEST PUSH32 0x4E487B7100000000000000000000000000000000000000000000000000000000 PUSH0 MSTORE PUSH1 0x32 PUSH1 0x4 MSTORE PUSH1 0x24 PUSH0 REVERT JUMPDEST PUSH0 PUSH1 0x40 DUP3 ADD SWAP1 POP PUSH2 0x2FD0 PUSH0 DUP4 ADD DUP6 PUSH2 0x2B4A JUMP JUMPDEST PUSH2 0x2FDD PUSH1 0x20 DUP4 ADD DUP5 PUSH2 0x2B4A JUMP JUMPDEST SWAP4 SWAP3 POP POP POP JUMP JUMPDEST PUSH0 DUP2 SWAP1 POP SWAP2 SWAP1 POP JUMP JUMPDEST PUSH2 0x2FF6 DUP2 PUSH2 0x2FE4 JUMP JUMPDEST DUP2 EQ PUSH2 0x3000 JUMPI PUSH0 DUP1 REVERT JUMPDEST POP JUMP JUMPDEST PUSH0 DUP2 MLOAD SWAP1 POP PUSH2 0x3011 DUP2 PUSH2 0x2FED JUMP JUMPDEST SWAP3 SWAP2 POP POP JUMP JUMPDEST PUSH0 DUP2 MLOAD SWAP1 POP PUSH2 0x3025 DUP2 PUSH2 0x273E JUMP JUMPDEST SWAP3 SWAP2 POP POP JUMP JUMPDEST PUSH0 DUP1 REVERT JUMPDEST PUSH2 0x3038 DUP3 PUSH2 0x2884 JUMP JUMPDEST DUP2 ADD DUP2 DUP2 LT PUSH8 0xFFFFFFFFFFFFFFFF DUP3 GT OR ISZERO PUSH2 0x3057 JUMPI PUSH2 0x3056 PUSH2 0x2CD0 JUMP JUMPDEST JUMPDEST DUP1 PUSH1 0x40 MSTORE POP POP POP JUMP JUMPDEST PUSH0 PUSH2 0x3069 PUSH2 0x271A JUMP JUMPDEST SWAP1 POP PUSH2 0x3075 DUP3 DUP3 PUSH2 0x302F JUMP JUMPDEST SWAP2 SWAP1 POP JUMP JUMPDEST PUSH0 PUSH8 0xFFFFFFFFFFFFFFFF DUP3 GT ISZERO PUSH2 0x3094 JUMPI PUSH2 0x3093 PUSH2 0x2CD0 JUMP JUMPDEST JUMPDEST PUSH2 0x309D DUP3 PUSH2 0x2884 JUMP JUMPDEST SWAP1 POP PUSH1 0x20 DUP2 ADD SWAP1 POP SWAP2 SWAP1 POP JUMP JUMPDEST PUSH0 PUSH2 0x30BC PUSH2 0x30B7 DUP5 PUSH2 0x307A JUMP JUMPDEST PUSH2 0x3060 JUMP JUMPDEST SWAP1 POP DUP3 DUP2 MSTORE PUSH1 0x20 DUP2 ADD DUP5 DUP5 DUP5 ADD GT ISZERO PUSH2 0x30D8 JUMPI PUSH2 0x30D7 PUSH2 0x302B JUMP JUMPDEST JUMPDEST PUSH2 0x30E3 DUP5 DUP3 DUP6 PUSH2 0x2876 JUMP JUMPDEST POP SWAP4 SWAP3 POP POP POP JUMP JUMPDEST PUSH0 DUP3 PUSH1 0x1F DUP4 ADD SLT PUSH2 0x30FF JUMPI PUSH2 0x30FE PUSH2 0x28EC JUMP JUMPDEST JUMPDEST DUP2 MLOAD PUSH2 0x310F DUP5 DUP3 PUSH1 0x20 DUP7 ADD PUSH2 0x30AA JUMP JUMPDEST SWAP2 POP POP SWAP3 SWAP2 POP POP JUMP JUMPDEST PUSH0 DUP1 PUSH0 PUSH1 0x60 DUP5 DUP7 SUB SLT ISZERO PUSH2 0x312F JUMPI PUSH2 0x312E PUSH2 0x2723 JUMP JUMPDEST JUMPDEST PUSH0 PUSH2 0x313C DUP7 DUP3 DUP8 ADD PUSH2 0x3003 JUMP JUMPDEST SWAP4 POP POP PUSH1 0x20 PUSH2 0x314D DUP7 DUP3 DUP8 ADD PUSH2 0x3017 JUMP JUMPDEST SWAP3 POP POP PUSH1 0x40 DUP5 ADD MLOAD PUSH8 0xFFFFFFFFFFFFFFFF DUP2 GT ISZERO PUSH2 0x316E JUMPI PUSH2 0x316D PUSH2 0x2727 JUMP JUMPDEST JUMPDEST PUSH2 0x317A DUP7 DUP3 DUP8 ADD PUSH2 0x30EB JUMP JUMPDEST SWAP2 POP POP SWAP3 POP SWAP3 POP SWAP3 JUMP JUMPDEST PUSH0 PUSH1 0x20 DUP3 ADD SWAP1 POP PUSH2 0x3197 PUSH0 DUP4 ADD DUP5 PUSH2 0x2E8B JUMP JUMPDEST SWAP3 SWAP2 POP POP JUMP JUMPDEST PUSH2 0x31A6 DUP2 PUSH2 0x2FE4 JUMP JUMPDEST DUP3 MSTORE POP POP JUMP JUMPDEST PUSH0 PUSH1 0x20 DUP3 ADD SWAP1 POP PUSH2 0x31BF PUSH0 DUP4 ADD DUP5 PUSH2 0x319D JUMP JUMPDEST SWAP3 SWAP2 POP POP JUMP JUMPDEST PUSH32 0x696E76616C6964206D616A20286578706563746564204D616A54657874537472 PUSH0 DUP3 ADD MSTORE PUSH32 0x696E672900000000000000000000000000000000000000000000000000000000 PUSH1 0x20 DUP3 ADD MSTORE POP JUMP JUMPDEST PUSH0 PUSH2 0x321F PUSH1 0x24 DUP4 PUSH2 0x2A54 JUMP JUMPDEST SWAP2 POP PUSH2 0x322A DUP3 PUSH2 0x31C5 JUMP JUMPDEST PUSH1 0x40 DUP3 ADD SWAP1 POP SWAP2 SWAP1 POP JUMP JUMPDEST PUSH0 PUSH1 0x20 DUP3 ADD SWAP1 POP DUP2 DUP2 SUB PUSH0 DUP4 ADD MSTORE PUSH2 0x324C DUP2 PUSH2 0x3213 JUMP JUMPDEST SWAP1 POP SWAP2 SWAP1 POP JUMP JUMPDEST PUSH0 PUSH2 0x325D DUP3 PUSH2 0x27EB JUMP JUMPDEST SWAP2 POP PUSH32 0xFFFFFFFFFFFFFFFFFFFFFFFFFFFFFFFFFFFFFFFFFFFFFFFFFFFFFFFFFFFFFFFF DUP3 SUB PUSH2 0x328F JUMPI PUSH2 0x328E PUSH2 0x2F30 JUMP JUMPDEST JUMPDEST PUSH1 0x1 DUP3 ADD SWAP1 POP SWAP2 SWAP1 POP JUMP JUMPDEST PUSH0 PUSH2 0x32A4 DUP3 PUSH2 0x27EB JUMP JUMPDEST SWAP2 POP PUSH2 0x32AF DUP4 PUSH2 0x27EB JUMP JUMPDEST SWAP3 POP DUP3 DUP3 MUL PUSH2 0x32BD DUP2 PUSH2 0x27EB JUMP JUMPDEST SWAP2 POP DUP3 DUP3 DIV DUP5 EQ DUP4 ISZERO OR PUSH2 0x32D4 JUMPI PUSH2 0x32D3 PUSH2 0x2F30 JUMP JUMPDEST JUMPDEST POP SWAP3 SWAP2 POP POP JUMP JUMPDEST PUSH32 0x496E76616C69642043424F520000000000000000000000000000000000000000 PUSH0 DUP3 ADD MSTORE POP JUMP JUMPDEST PUSH0 PUSH2 0x330F PUSH1 0xC DUP4 PUSH2 0x2A54 JUMP JUMPDEST SWAP2 POP PUSH2 0x331A DUP3 PUSH2 0x32DB JUMP JUMPDEST PUSH1 0x20 DUP3 ADD SWAP1 POP SWAP2 SWAP1 POP JUMP JUMPDEST PUSH0 PUSH1 0x20 DUP3 ADD SWAP1 POP DUP2 DUP2 SUB PUSH0 DUP4 ADD MSTORE PUSH2 0x333C DUP2 PUSH2 0x3303 JUMP JUMPDEST SWAP1 POP SWAP2 SWAP1 POP JUMP JUMPDEST PUSH32 0x696E76616C6964206D616A20286578706563746564204D616A546167206F7220 PUSH0 DUP3 ADD MSTORE PUSH32 0x4D616A42797465537472696E6729000000000000000000000000000000000000 PUSH1 0x20 DUP3 ADD MSTORE POP JUMP JUMPDEST PUSH0 PUSH2 0x339D PUSH1 0x2E DUP4 PUSH2 0x2A54 JUMP JUMPDEST SWAP2 POP PUSH2 0x33A8 DUP3 PUSH2 0x3343 JUMP JUMPDEST PUSH1 0x40 DUP3 ADD SWAP1 POP SWAP2 SWAP1 POP JUMP JUMPDEST PUSH0 PUSH1 0x20 DUP3 ADD SWAP1 POP DUP2 DUP2 SUB PUSH0 DUP4 ADD MSTORE PUSH2 0x33CA DUP2 PUSH2 0x3391 JUMP JUMPDEST SWAP1 POP SWAP2 SWAP1 POP JUMP JUMPDEST PUSH32 0x4E487B7100000000000000000000000000000000000000000000000000000000 PUSH0 MSTORE PUSH1 0x1 PUSH1 0x4 MSTORE PUSH1 0x24 PUSH0 REVERT JUMPDEST PUSH0 PUSH2 0x3408 DUP3 PUSH2 0x27EB JUMP JUMPDEST SWAP2 POP PUSH2 0x3413 DUP4 PUSH2 0x27EB JUMP JUMPDEST SWAP3 POP DUP3 DUP3 SUB SWAP1 POP DUP2 DUP2 GT ISZERO PUSH2 0x342B JUMPI PUSH2 0x342A PUSH2 0x2F30 JUMP JUMPDEST JUMPDEST SWAP3 SWAP2 POP POP JUMP JUMPDEST PUSH32 0x63616E6E6F742068616E646C6520686561646572732077697468206578747261 PUSH0 DUP3 ADD MSTORE PUSH32 0x203E203237000000000000000000000000000000000000000000000000000000 PUSH1 0x20 DUP3 ADD MSTORE POP JUMP JUMPDEST PUSH0 PUSH2 0x348B PUSH1 0x25 DUP4 PUSH2 0x2A54 JUMP JUMPDEST SWAP2 POP PUSH2 0x3496 DUP3 PUSH2 0x3431 JUMP JUMPDEST PUSH1 0x40 DUP3 ADD SWAP1 POP SWAP2 SWAP1 POP JUMP JUMPDEST PUSH0 PUSH1 0x20 DUP3 ADD SWAP1 POP DUP2 DUP2 SUB PUSH0 DUP4 ADD MSTORE PUSH2 0x34B8 DUP2 PUSH2 0x347F JUMP JUMPDEST SWAP1 POP SWAP2 SWAP1 POP JUMP JUMPDEST PUSH32 0x696E76616C69642063626F720000000000000000000000000000000000000000 PUSH0 DUP3 ADD MSTORE POP JUMP JUMPDEST PUSH0 PUSH2 0x34F3 PUSH1 0xC DUP4 PUSH2 0x2A54 JUMP JUMPDEST SWAP2 POP PUSH2 0x34FE DUP3 PUSH2 0x34BF JUMP JUMPDEST PUSH1 0x20 DUP3 ADD SWAP1 POP SWAP2 SWAP1 POP JUMP JUMPDEST PUSH0 PUSH1 0x20 DUP3 ADD SWAP1 POP DUP2 DUP2 SUB PUSH0 DUP4 ADD MSTORE PUSH2 0x3520 DUP2 PUSH2 0x34E7 JUMP JUMPDEST SWAP1 POP SWAP2 SWAP1 POP JUMP JUMPDEST PUSH32 0x4E487B7100000000000000000000000000000000000000000000000000000000 PUSH0 MSTORE PUSH1 0x12 PUSH1 0x4 MSTORE PUSH1 0x24 PUSH0 REVERT JUMPDEST PUSH0 PUSH2 0x355E DUP3 PUSH2 0x27EB JUMP JUMPDEST SWAP2 POP PUSH2 0x3569 DUP4 PUSH2 0x27EB JUMP JUMPDEST SWAP3 POP DUP3 PUSH2 0x3579 JUMPI PUSH2 0x3578 PUSH2 0x3527 JUMP JUMPDEST JUMPDEST DUP3 DUP3 MOD SWAP1 POP SWAP3 SWAP2 POP POP JUMP JUMPDEST PUSH32 0x736C6963696E67206F7574206F662072616E6765000000000000000000000000 PUSH0 DUP3 ADD MSTORE POP JUMP JUMPDEST PUSH0 PUSH2 0x35B8 PUSH1 0x14 DUP4 PUSH2 0x2A54 JUMP JUMPDEST SWAP2 POP PUSH2 0x35C3 DUP3 PUSH2 0x3584 JUMP JUMPDEST PUSH1 0x20 DUP3 ADD SWAP1 POP SWAP2 SWAP1 POP JUMP JUMPDEST PUSH0 PUSH1 0x20 DUP3 ADD SWAP1 POP DUP2 DUP2 SUB PUSH0 DUP4 ADD MSTORE PUSH2 0x35E5 DUP2 PUSH2 0x35AC JUMP JUMPDEST SWAP1 POP SWAP2 SWAP1 POP JUMP JUMPDEST PUSH0 DUP2 PUSH1 0x1 SHR SWAP1 POP SWAP2 SWAP1 POP JUMP JUMPDEST PUSH0 DUP1 DUP3 SWAP2 POP DUP4 SWAP1 POP JUMPDEST PUSH1 0x1 DUP6 GT ISZERO PUSH2 0x3641 JUMPI DUP1 DUP7 DIV DUP2 GT ISZERO PUSH2 0x361D JUMPI PUSH2 0x361C PUSH2 0x2F30 JUMP JUMPDEST JUMPDEST PUSH1 0x1 DUP6 AND ISZERO PUSH2 0x362C JUMPI DUP1 DUP3 MUL SWAP2 POP JUMPDEST DUP1 DUP2 MUL SWAP1 POP PUSH2 0x363A DUP6 PUSH2 0x35EC JUMP JUMPDEST SWAP5 POP PUSH2 0x3601 JUMP JUMPDEST SWAP5 POP SWAP5 SWAP3 POP POP POP JUMP JUMPDEST PUSH0 DUP3 PUSH2 0x3659 JUMPI PUSH1 0x1 SWAP1 POP PUSH2 0x3714 JUMP JUMPDEST DUP2 PUSH2 0x3666 JUMPI PUSH0 SWAP1 POP PUSH2 0x3714 JUMP JUMPDEST DUP2 PUSH1 0x1 DUP2 EQ PUSH2 0x367C JUMPI PUSH1 0x2 DUP2 EQ PUSH2 0x3686 JUMPI PUSH2 0x36B5 JUMP JUMPDEST PUSH1 0x1 SWAP2 POP POP PUSH2 0x3714 JUMP JUMPDEST PUSH1 0xFF DUP5 GT ISZERO PUSH2 0x3698 JUMPI PUSH2 0x3697 PUSH2 0x2F30 JUMP JUMPDEST JUMPDEST DUP4 PUSH1 0x2 EXP SWAP2 POP DUP5 DUP3 GT ISZERO PUSH2 0x36AF JUMPI PUSH2 0x36AE PUSH2 0x2F30 JUMP JUMPDEST JUMPDEST POP PUSH2 0x3714 JUMP JUMPDEST POP PUSH1 0x20 DUP4 LT PUSH2 0x133 DUP4 LT AND PUSH1 0x4E DUP5 LT PUSH1 0xB DUP5 LT AND OR ISZERO PUSH2 0x36EA JUMPI DUP3 DUP3 EXP SWAP1 POP DUP4 DUP2 GT ISZERO PUSH2 0x36E5 JUMPI PUSH2 0x36E4 PUSH2 0x2F30 JUMP JUMPDEST JUMPDEST PUSH2 0x3714 JUMP JUMPDEST PUSH2 0x36F7 DUP5 DUP5 DUP5 PUSH1 0x1 PUSH2 0x35F8 JUMP JUMPDEST SWAP3 POP SWAP1 POP DUP2 DUP5 DIV DUP2 GT ISZERO PUSH2 0x370E JUMPI PUSH2 0x370D PUSH2 0x2F30 JUMP JUMPDEST JUMPDEST DUP2 DUP2 MUL SWAP1 POP JUMPDEST SWAP4 SWAP3 POP POP POP JUMP JUMPDEST PUSH0 PUSH2 0x3725 DUP3 PUSH2 0x27EB JUMP JUMPDEST SWAP2 POP PUSH2 0x3730 DUP4 PUSH2 0x27EB JUMP JUMPDEST SWAP3 POP PUSH2 0x375D PUSH32 0xFFFFFFFFFFFFFFFFFFFFFFFFFFFFFFFFFFFFFFFFFFFFFFFFFFFFFFFFFFFFFFFF DUP5 DUP5 PUSH2 0x364A JUMP JUMPDEST SWAP1 POP SWAP3 SWAP2 POP POP JUMP INVALID LOG2 PUSH5 0x6970667358 0x22 SLT KECCAK256 JUMP 0xF7 SIGNEXTEND PUSH0 0xBB SWAP15 0xD5 PUSH21 0xE9018A0A8BDEBA0FDEC9882FBF822950B4202F6300 0xD6 SLT 0xBE PUSH5 0x736F6C6343 STOP ADDMOD BYTE STOP CALLER "
		},
		"gasEstimates": {
			"creation": {
				"codeDepositCost": "2847000",
				"executionCost": "infinite",
				"totalCost": "infinite"
			},
			"external": {
				"acceptOwnership()": "infinite",
				"addVerifiedClient(bytes,uint256)": "infinite",
				"addVerifiedClientByActorID(uint64,uint256)": "infinite",
				"balance()": "infinite",
				"filAddr()": "infinite",
				"getAddrBytesFromActorID(uint64)": "infinite",
				"getEthAddrFromActorID(uint64)": "infinite",
				"getEthAddrFromBytes(bytes)": "infinite",
				"initialize(address)": "infinite",
				"name()": "infinite",
				"owner()": "2656",
				"pendingOwner()": "2633",
				"renounceOwnership()": "infinite",
				"senderAddr()": "424",
				"transferOwnership(address)": "infinite"
			},
			"internal": {
				"toEthAddress(struct CommonTypes.FilAddress memory)": "infinite"
			}
		},
		"methodIdentifiers": {
			"acceptOwnership()": "79ba5097",
			"addVerifiedClient(bytes,uint256)": "930fc006",
			"addVerifiedClientByActorID(uint64,uint256)": "3928f5ef",
			"balance()": "b69ef8a8",
			"filAddr()": "bc2da3f6",
			"getAddrBytesFromActorID(uint64)": "6f37980b",
			"getEthAddrFromActorID(uint64)": "2f4b0a34",
			"getEthAddrFromBytes(bytes)": "dd651194",
			"initialize(address)": "c4d66de8",
			"name()": "06fdde03",
			"owner()": "8da5cb5b",
			"pendingOwner()": "e30c3978",
			"renounceOwnership()": "715018a6",
			"senderAddr()": "b31bfa9a",
			"transferOwnership(address)": "f2fde38b"
		}
	},
	"abi": [
		{
			"inputs": [],
			"stateMutability": "nonpayable",
			"type": "constructor"
		},
		{
			"inputs": [
				{
					"internalType": "int256",
					"name": "errorCode",
					"type": "int256"
				}
			],
			"name": "ActorError",
			"type": "error"
		},
		{
			"inputs": [],
			"name": "ActorNotFound",
			"type": "error"
		},
		{
			"inputs": [],
			"name": "AlreadyHasAllowance",
			"type": "error"
		},
		{
			"inputs": [],
			"name": "AlreadyZero",
			"type": "error"
		},
		{
			"inputs": [],
			"name": "AmountEqualZero",
			"type": "error"
		},
		{
			"inputs": [],
			"name": "FailToCallActor",
			"type": "error"
		},
		{
			"inputs": [],
			"name": "FailToCallActor",
			"type": "error"
		},
		{
			"inputs": [],
			"name": "FunctionDisabled",
			"type": "error"
		},
		{
			"inputs": [],
			"name": "InsufficientAllowance",
			"type": "error"
		},
		{
			"inputs": [],
			"name": "InvalidAddress",
			"type": "error"
		},
		{
			"inputs": [],
			"name": "InvalidAddress",
			"type": "error"
		},
		{
			"inputs": [],
			"name": "InvalidAmount",
			"type": "error"
		},
		{
			"inputs": [
				{
					"internalType": "uint64",
					"name": "",
					"type": "uint64"
				}
			],
			"name": "InvalidCodec",
			"type": "error"
		},
		{
			"inputs": [],
			"name": "InvalidInitialization",
			"type": "error"
		},
		{
			"inputs": [],
			"name": "InvalidResponseLength",
			"type": "error"
		},
		{
			"inputs": [
				{
					"internalType": "uint256",
					"name": "balance",
					"type": "uint256"
				},
				{
					"internalType": "uint256",
					"name": "value",
					"type": "uint256"
				}
			],
			"name": "NotEnoughBalance",
			"type": "error"
		},
		{
			"inputs": [],
			"name": "NotInitializing",
			"type": "error"
		},
		{
			"inputs": [
				{
					"internalType": "address",
					"name": "owner",
					"type": "address"
				}
			],
			"name": "OwnableInvalidOwner",
			"type": "error"
		},
		{
			"inputs": [
				{
					"internalType": "address",
					"name": "account",
					"type": "address"
				}
			],
			"name": "OwnableUnauthorizedAccount",
			"type": "error"
		},
		{
			"anonymous": false,
			"inputs": [
				{
					"indexed": true,
					"internalType": "address",
					"name": "allocator",
					"type": "address"
				},
				{
					"indexed": false,
					"internalType": "uint256",
					"name": "allowanceBefore",
					"type": "uint256"
				},
				{
					"indexed": false,
					"internalType": "uint256",
					"name": "allowanceAfter",
					"type": "uint256"
				}
			],
			"name": "AllowanceChanged",
			"type": "event"
		},
		{
			"anonymous": false,
			"inputs": [
				{
					"indexed": false,
					"internalType": "uint256",
					"name": "balance",
					"type": "uint256"
				}
			],
			"name": "Balance",
			"type": "event"
		},
		{
			"anonymous": false,
			"inputs": [
				{
					"components": [
						{
							"internalType": "bytes",
							"name": "val",
							"type": "bytes"
						},
						{
							"internalType": "bool",
							"name": "neg",
							"type": "bool"
						}
					],
					"indexed": false,
					"internalType": "struct CommonTypes.BigInt",
					"name": "balance",
					"type": "tuple"
				}
			],
			"name": "BalanceBig",
			"type": "event"
		},
		{
			"anonymous": false,
			"inputs": [
				{
					"indexed": true,
					"internalType": "address",
					"name": "allocator",
					"type": "address"
				},
				{
					"indexed": true,
					"internalType": "bytes",
					"name": "client",
					"type": "bytes"
				},
				{
					"indexed": false,
					"internalType": "uint256",
					"name": "amount",
					"type": "uint256"
				}
			],
			"name": "DatacapAllocated",
			"type": "event"
		},
		{
			"anonymous": false,
			"inputs": [
				{
					"components": [
						{
							"internalType": "bytes",
							"name": "data",
							"type": "bytes"
						}
					],
					"indexed": false,
					"internalType": "struct CommonTypes.FilAddress",
					"name": "addr",
					"type": "tuple"
				}
			],
			"name": "FilAddr",
			"type": "event"
		},
		{
			"anonymous": false,
			"inputs": [
				{
					"indexed": false,
					"internalType": "uint64",
					"name": "version",
					"type": "uint64"
				}
			],
			"name": "Initialized",
			"type": "event"
		},
		{
			"anonymous": false,
			"inputs": [
				{
					"indexed": false,
					"internalType": "string",
					"name": "name",
					"type": "string"
				}
			],
			"name": "Name",
			"type": "event"
		},
		{
			"anonymous": false,
			"inputs": [
				{
					"indexed": true,
					"internalType": "address",
					"name": "previousOwner",
					"type": "address"
				},
				{
					"indexed": true,
					"internalType": "address",
					"name": "newOwner",
					"type": "address"
				}
			],
			"name": "OwnershipTransferStarted",
			"type": "event"
		},
		{
			"anonymous": false,
			"inputs": [
				{
					"indexed": true,
					"internalType": "address",
					"name": "previousOwner",
					"type": "address"
				},
				{
					"indexed": true,
					"internalType": "address",
					"name": "newOwner",
					"type": "address"
				}
			],
			"name": "OwnershipTransferred",
			"type": "event"
		},
		{
			"inputs": [],
			"name": "acceptOwnership",
			"outputs": [],
			"stateMutability": "nonpayable",
			"type": "function"
		},
		{
			"inputs": [
				{
					"internalType": "bytes",
					"name": "clientAddress",
					"type": "bytes"
				},
				{
					"internalType": "uint256",
					"name": "amount",
					"type": "uint256"
				}
			],
			"name": "addVerifiedClient",
			"outputs": [],
			"stateMutability": "nonpayable",
			"type": "function"
		},
		{
			"inputs": [
				{
					"internalType": "uint64",
					"name": "actorID",
					"type": "uint64"
				},
				{
					"internalType": "uint256",
					"name": "amount",
					"type": "uint256"
				}
			],
			"name": "addVerifiedClientByActorID",
			"outputs": [],
			"stateMutability": "nonpayable",
			"type": "function"
		},
		{
			"inputs": [],
			"name": "balance",
			"outputs": [],
			"stateMutability": "nonpayable",
			"type": "function"
		},
		{
			"inputs": [],
			"name": "filAddr",
			"outputs": [],
			"stateMutability": "nonpayable",
			"type": "function"
		},
		{
			"inputs": [
				{
					"internalType": "uint64",
					"name": "actorID",
					"type": "uint64"
				}
			],
			"name": "getAddrBytesFromActorID",
			"outputs": [
				{
					"internalType": "bytes",
					"name": "",
					"type": "bytes"
				}
			],
			"stateMutability": "pure",
			"type": "function"
		},
		{
			"inputs": [
				{
					"internalType": "uint64",
					"name": "actorID",
					"type": "uint64"
				}
			],
			"name": "getEthAddrFromActorID",
			"outputs": [
				{
					"internalType": "address",
					"name": "",
					"type": "address"
				}
			],
			"stateMutability": "view",
			"type": "function"
		},
		{
			"inputs": [
				{
					"internalType": "bytes",
					"name": "clientAddress",
					"type": "bytes"
				}
			],
			"name": "getEthAddrFromBytes",
			"outputs": [
				{
					"internalType": "address",
					"name": "",
					"type": "address"
				}
			],
			"stateMutability": "view",
			"type": "function"
		},
		{
			"inputs": [
				{
					"internalType": "address",
					"name": "initialOwner",
					"type": "address"
				}
			],
			"name": "initialize",
			"outputs": [],
			"stateMutability": "nonpayable",
			"type": "function"
		},
		{
			"inputs": [],
			"name": "name",
			"outputs": [],
			"stateMutability": "nonpayable",
			"type": "function"
		},
		{
			"inputs": [],
			"name": "owner",
			"outputs": [
				{
					"internalType": "address",
					"name": "",
					"type": "address"
				}
			],
			"stateMutability": "view",
			"type": "function"
		},
		{
			"inputs": [],
			"name": "pendingOwner",
			"outputs": [
				{
					"internalType": "address",
					"name": "",
					"type": "address"
				}
			],
			"stateMutability": "view",
			"type": "function"
		},
		{
			"inputs": [],
			"name": "renounceOwnership",
			"outputs": [],
			"stateMutability": "nonpayable",
			"type": "function"
		},
		{
			"inputs": [],
			"name": "senderAddr",
			"outputs": [
				{
					"internalType": "address",
					"name": "addr",
					"type": "address"
				}
			],
			"stateMutability": "view",
			"type": "function"
		},
		{
			"inputs": [
				{
					"internalType": "address",
					"name": "newOwner",
					"type": "address"
				}
			],
			"name": "transferOwnership",
			"outputs": [],
			"stateMutability": "nonpayable",
			"type": "function"
		}
	]
}